{
  "address": "0xdbC43Ba45381e02825b14322cDdd15eC4B3164E6",
  "abi": [
    {
      "inputs": [
        {
          "internalType": "address",
          "name": "_oracle",
          "type": "address"
        },
        {
          "internalType": "bytes32",
          "name": "_jobId",
          "type": "bytes32"
        },
        {
          "internalType": "uint256",
          "name": "_fee",
          "type": "uint256"
        },
        {
          "internalType": "address",
          "name": "_link",
          "type": "address"
        }
      ],
      "stateMutability": "nonpayable",
      "type": "constructor"
    },
    {
      "anonymous": false,
      "inputs": [
        {
          "indexed": true,
          "internalType": "bytes32",
          "name": "id",
          "type": "bytes32"
        }
      ],
      "name": "ChainlinkCancelled",
      "type": "event"
    },
    {
      "anonymous": false,
      "inputs": [
        {
          "indexed": true,
          "internalType": "bytes32",
          "name": "id",
          "type": "bytes32"
        }
      ],
      "name": "ChainlinkFulfilled",
      "type": "event"
    },
    {
      "anonymous": false,
      "inputs": [
        {
          "indexed": true,
          "internalType": "bytes32",
          "name": "id",
          "type": "bytes32"
        }
      ],
      "name": "ChainlinkRequested",
      "type": "event"
    },
    {
      "anonymous": false,
      "inputs": [
        {
          "indexed": true,
          "internalType": "bytes32",
          "name": "requestId",
          "type": "bytes32"
        },
        {
          "indexed": true,
          "internalType": "bytes",
          "name": "data",
          "type": "bytes"
        }
      ],
      "name": "RequestFulfilled",
      "type": "event"
    },
    {
      "inputs": [],
      "name": "data",
      "outputs": [
        {
          "internalType": "bytes",
          "name": "",
          "type": "bytes"
        }
      ],
      "stateMutability": "view",
      "type": "function"
    },
    {
      "inputs": [
        {
          "internalType": "bytes32",
          "name": "requestId",
          "type": "bytes32"
        },
        {
          "internalType": "bytes",
          "name": "bytesData",
          "type": "bytes"
        }
      ],
      "name": "fulfillBytes",
      "outputs": [],
      "stateMutability": "nonpayable",
      "type": "function"
    },
    {
      "inputs": [],
      "name": "ipfsHash",
      "outputs": [
        {
          "internalType": "string",
          "name": "",
          "type": "string"
        }
      ],
      "stateMutability": "view",
      "type": "function"
    },
    {
      "inputs": [],
      "name": "requestBytes",
      "outputs": [],
      "stateMutability": "nonpayable",
      "type": "function"
    }
  ],
  "transactionHash": "0x90a832b3e454dae2b9d73f5791514ea65d3fe7b49af890d6be697ecaeb77d756",
  "args": [
    "0xe7f1725E7734CE288F8367e1Bb143E90bb3F0512",
    {
      "0": 50,
      "1": 57,
      "2": 102,
      "3": 97,
      "4": 57,
      "5": 97,
      "6": 97,
      "7": 49,
      "8": 51,
      "9": 98,
      "10": 102,
      "11": 49,
      "12": 52,
      "13": 54,
      "14": 56,
      "15": 55,
      "16": 56,
      "17": 56,
      "18": 98,
      "19": 55,
      "20": 99,
      "21": 99,
      "22": 52,
      "23": 97,
      "24": 53,
      "25": 48,
      "26": 48,
      "27": 97,
      "28": 52,
      "29": 53,
      "30": 98,
      "31": 56
    },
    "100000000000000000",
    "0x5FbDB2315678afecb367f032d93F642f64180aa3"
  ],
  "numDeployments": 1,
  "solcInputHash": "dead4648ddd75571c955da400bf06ae2",
  "bytecode": "0x608060405260016004553480156200001657600080fd5b50604051620012bc380380620012bc833981016040819052620000399162000193565b6001600160a01b038116620000585762000052620000a0565b62000074565b600280546001600160a01b0319166001600160a01b0383161790555b600380546001600160a01b0319166001600160a01b0386161790555060089190915560095550620001de565b6200014f73c89bd4e1632d3a43cb03aaad5262cbe4038bc5716001600160a01b03166338cc48316040518163ffffffff1660e01b815260040160206040518083038186803b158015620000f257600080fd5b505afa15801562000107573d6000803e3d6000fd5b505050506040513d601f19601f820116820180604052508101906200012d91906200016e565b600280546001600160a01b0319166001600160a01b0392909216919091179055565b565b80516001600160a01b03811681146200016957600080fd5b919050565b6000602082840312156200018157600080fd5b6200018c8262000151565b9392505050565b60008060008060808587031215620001aa57600080fd5b620001b58562000151565b93506020850151925060408501519150620001d36060860162000151565b905092959194509250565b6110ce80620001ee6000396000f3fe608060405234801561001057600080fd5b506004361061004c5760003560e01c806311411e8a1461005157806373d4a13a1461005b578063c2fb852314610079578063c623674f1461008c575b600080fd5b610059610094565b005b610063610195565b6040516100709190610e40565b60405180910390f35b610059610087366004610ca6565b610223565b61006361037b565b60006100aa6008543063c2fb852360e01b610388565b90506101066040518060400160405280600381526020017f67657400000000000000000000000000000000000000000000000000000000008152506040518060800160405280605d815260200161103c605d9139839190610419565b6101856040518060400160405280600481526020017f70617468000000000000000000000000000000000000000000000000000000008152506040518060400160405280600881526020017f4970667348617368000000000000000000000000000000000000000000000000815250836104199092919063ffffffff16565b6101918160095461043c565b5050565b600680546101a290610fb8565b80601f01602080910402602001604051908101604052809291908181526020018280546101ce90610fb8565b801561021b5780601f106101f05761010080835404028352916020019161021b565b820191906000526020600020905b8154815290600101906020018083116101fe57829003601f168201915b505050505081565b60008281526005602052604090205482906001600160a01b031633146102b65760405162461bcd60e51b815260206004820152602860248201527f536f75726365206d75737420626520746865206f7261636c65206f662074686560448201527f207265717565737400000000000000000000000000000000000000000000000060648201526084015b60405180910390fd5b600081815260056020526040808220805473ffffffffffffffffffffffffffffffffffffffff191690555182917f7cc135e0cebb02c3480ae5d74d377283180a2601f8f644edf7987b009316c63a91a2816040516103149190610d8d565b6040519081900381209084907f1a111c5dcf9a71088bd5e1797fdfaf399fec2afbb24aca247e4e3e9f4b61df9190600090a38151610359906006906020850190610b69565b506006600790805461036a90610fb8565b610375929190610bed565b50505050565b600780546101a290610fb8565b6103c66040805160a0810182526000808252602080830182905282840182905260608084018390528451808601909552845283015290608082015290565b6104046040805160a0810182526000808252602080830182905282840182905260608084018390528451808601909552845283015290608082015290565b6104108186868661045f565b95945050505050565b608083015161042890836104f3565b608083015161043790826104f3565b505050565b600354600090610456906001600160a01b0316848461050a565b90505b92915050565b61049d6040805160a0810182526000808252602080830182905282840182905260608084018390528451808601909552845283015290608082015290565b6104ad85608001516101006105e1565b50508284526001600160a01b03821660208501527fffffffff0000000000000000000000000000000000000000000000000000000081166040850152835b949350505050565b6105008260038351610646565b6104378282610755565b60045460009061051b816001610e53565b600455835160408086015160808701515191516000937f3c6d41b9000000000000000000000000000000000000000000000000000000009361056a938693849392899160029190602401610da9565b60408051601f198184030181529190526020810180517bffffffffffffffffffffffffffffffffffffffffffffffffffffffff167fffffffff000000000000000000000000000000000000000000000000000000009093169290921790915290506105d78683868461077c565b9695505050505050565b604080518082019091526060815260006020820152610601602083610fed565b1561062957610611602083610fed565b61061c906020610f75565b6106269083610e53565b91505b506020828101829052604080518085526000815290920101905290565b60178167ffffffffffffffff161161066b576103758360e0600585901b168317610929565b60ff8167ffffffffffffffff16116106a957610692836018611fe0600586901b1617610929565b506103758367ffffffffffffffff8316600161094e565b61ffff8167ffffffffffffffff16116106e8576106d1836019611fe0600586901b1617610929565b506103758367ffffffffffffffff8316600261094e565b63ffffffff8167ffffffffffffffff16116107295761071283601a611fe0600586901b1617610929565b506103758367ffffffffffffffff8316600461094e565b61073e83601b611fe0600586901b1617610929565b506103758367ffffffffffffffff8316600861094e565b60408051808201909152606081526000602082015261045683846000015151848551610974565b6040516bffffffffffffffffffffffff193060601b1660208201526034810184905260009060540160408051808303601f19018152828252805160209182012060008181526005909252918120805473ffffffffffffffffffffffffffffffffffffffff19166001600160a01b038a1617905590925082917fb5e6e01e79f91267dc17b4e6314d5d4d03593d2ceee0fbb452b750bd70ea5af99190a26002546040517f4000aea00000000000000000000000000000000000000000000000000000000081526001600160a01b0390911690634000aea09061086590889087908790600401610e18565b602060405180830381600087803b15801561087f57600080fd5b505af1158015610893573d6000803e3d6000fd5b505050506040513d601f19601f820116820180604052508101906108b79190610c7d565b6104eb5760405162461bcd60e51b815260206004820152602360248201527f756e61626c6520746f207472616e73666572416e6443616c6c20746f206f726160448201527f636c65000000000000000000000000000000000000000000000000000000000060648201526084016102ad565b6040805180820190915260608152600060208201526104568384600001515184610a5e565b6040805180820190915260608152600060208201526104eb848560000151518585610aba565b604080518082019091526060815260006020820152825182111561099757600080fd5b60208501516109a68386610e53565b11156109d9576109d9856109c9876020015187866109c49190610e53565b610b3b565b6109d4906002610f56565b610b52565b6000808651805187602083010193508088870111156109f85787860182525b505050602084015b60208410610a385780518252610a17602083610e53565b9150610a24602082610e53565b9050610a31602085610f75565b9350610a00565b51815160001960208690036101000a019081169019919091161790525083949350505050565b60408051808201909152606081526000602082015283602001518310610a9357610a9384856020015160026109d49190610f56565b835180516020858301018481535080851415610ab0576001810182525b5093949350505050565b6040805180820190915260608152600060208201526020850151610ade8584610e53565b1115610af257610af2856109c98685610e53565b60006001610b0284610100610eae565b610b0c9190610f75565b9050855183868201018583198251161781525080518487011115610b305783860181525b509495945050505050565b600081831115610b4c575081610459565b50919050565b8151610b5e83836105e1565b506103758382610755565b828054610b7590610fb8565b90600052602060002090601f016020900481019282610b975760008555610bdd565b82601f10610bb057805160ff1916838001178555610bdd565b82800160010185558215610bdd579182015b82811115610bdd578251825591602001919060010190610bc2565b50610be9929150610c68565b5090565b828054610bf990610fb8565b90600052602060002090601f016020900481019282610c1b5760008555610bdd565b82601f10610c2c5780548555610bdd565b82800160010185558215610bdd57600052602060002091601f016020900482015b82811115610bdd578254825591600101919060010190610c4d565b5b80821115610be95760008155600101610c69565b600060208284031215610c8f57600080fd5b81518015158114610c9f57600080fd5b9392505050565b60008060408385031215610cb957600080fd5b82359150602083013567ffffffffffffffff80821115610cd857600080fd5b818501915085601f830112610cec57600080fd5b813581811115610cfe57610cfe611025565b604051601f8201601f19908116603f01168101908382118183101715610d2657610d26611025565b81604052828152886020848701011115610d3f57600080fd5b8260208601602083013760006020848301015280955050505050509250929050565b60008151808452610d79816020860160208601610f8c565b601f01601f19169290920160200192915050565b60008251610d9f818460208701610f8c565b9190910192915050565b6001600160a01b03881681528660208201528560408201527fffffffff00000000000000000000000000000000000000000000000000000000851660608201528360808201528260a082015260e060c08201526000610e0b60e0830184610d61565b9998505050505050505050565b6001600160a01b03841681528260208201526060604082015260006104106060830184610d61565b6020815260006104566020830184610d61565b60008219821115610e6657610e6661100f565b500190565b600181815b80851115610ea6578160001904821115610e8c57610e8c61100f565b80851615610e9957918102915b93841c9390800290610e70565b509250929050565b60006104568383600082610ec457506001610459565b81610ed157506000610459565b8160018114610ee75760028114610ef157610f0d565b6001915050610459565b60ff841115610f0257610f0261100f565b50506001821b610459565b5060208310610133831016604e8410600b8410161715610f30575081810a610459565b610f3a8383610e6b565b8060001904821115610f4e57610f4e61100f565b029392505050565b6000816000190483118215151615610f7057610f7061100f565b500290565b600082821015610f8757610f8761100f565b500390565b60005b83811015610fa7578181015183820152602001610f8f565b838111156103755750506000910152565b600181811c90821680610fcc57607f821691505b60208210811415610b4c57634e487b7160e01b600052602260045260246000fd5b60008261100a57634e487b7160e01b600052601260045260246000fd5b500690565b634e487b7160e01b600052601160045260246000fd5b634e487b7160e01b600052604160045260246000fdfe68747470733a2f2f697066736170696574732e6865726f6b756170702e636f6d2f6170692f76312f6e66742f3078386565396136306362356330653764623431343033313835366362396530663166303539383864312f333036312f31a264697066735822122070afd03912a346a7e1653e77ff92ab4d4aeb61226ee2158d3a7276635f84e0a864736f6c63430008070033",
  "devdoc": {
    "kind": "dev",
    "methods": {
      "constructor": {
        "details": "The oracle address must be an Operator contract for multiword response"
      },
      "fulfillBytes(bytes32,bytes)": {
        "details": "This is called by the oracle. recordChainlinkFulfillment must be used."
      }
    },
    "version": 1
  },
  "userdoc": {
    "kind": "user",
    "methods": {
      "constructor": {
        "notice": "Initialize the link token and target oracle"
      },
      "fulfillBytes(bytes32,bytes)": {
        "notice": "Fulfillment function for variable bytes"
      },
      "requestBytes()": {
        "notice": "Request variable bytes from the oracle"
      }
    },
    "notice": "DO NOT USE THIS CODE IN PRODUCTION. This is an example contract.",
    "version": 1
  },
  "storageLayout": {
    "storage": [
      {
        "astId": 319,
        "contract": "contracts/core/ETSEnsure.sol:ETSEnsure",
        "label": "s_ens",
        "offset": 0,
        "slot": "0",
        "type": "t_contract(ENSInterface)974"
      },
      {
        "astId": 321,
        "contract": "contracts/core/ETSEnsure.sol:ETSEnsure",
        "label": "s_ensNode",
        "offset": 0,
        "slot": "1",
        "type": "t_bytes32"
      },
      {
        "astId": 324,
        "contract": "contracts/core/ETSEnsure.sol:ETSEnsure",
        "label": "s_link",
        "offset": 0,
        "slot": "2",
        "type": "t_contract(LinkTokenInterface)1069"
      },
      {
        "astId": 327,
        "contract": "contracts/core/ETSEnsure.sol:ETSEnsure",
        "label": "s_oracle",
        "offset": 0,
        "slot": "3",
        "type": "t_contract(OperatorInterface)1149"
      },
      {
        "astId": 330,
        "contract": "contracts/core/ETSEnsure.sol:ETSEnsure",
        "label": "s_requestCount",
        "offset": 0,
        "slot": "4",
        "type": "t_uint256"
      },
      {
        "astId": 334,
        "contract": "contracts/core/ETSEnsure.sol:ETSEnsure",
        "label": "s_pendingRequests",
        "offset": 0,
        "slot": "5",
        "type": "t_mapping(t_bytes32,t_address)"
      },
      {
        "astId": 2319,
        "contract": "contracts/core/ETSEnsure.sol:ETSEnsure",
        "label": "data",
        "offset": 0,
        "slot": "6",
        "type": "t_bytes_storage"
      },
      {
        "astId": 2321,
        "contract": "contracts/core/ETSEnsure.sol:ETSEnsure",
        "label": "ipfsHash",
        "offset": 0,
        "slot": "7",
        "type": "t_string_storage"
      },
      {
        "astId": 2323,
        "contract": "contracts/core/ETSEnsure.sol:ETSEnsure",
        "label": "jobId",
        "offset": 0,
        "slot": "8",
        "type": "t_bytes32"
      },
      {
        "astId": 2325,
        "contract": "contracts/core/ETSEnsure.sol:ETSEnsure",
        "label": "fee",
        "offset": 0,
        "slot": "9",
        "type": "t_uint256"
      }
    ],
    "types": {
      "t_address": {
        "encoding": "inplace",
        "label": "address",
        "numberOfBytes": "20"
      },
      "t_bytes32": {
        "encoding": "inplace",
        "label": "bytes32",
        "numberOfBytes": "32"
      },
      "t_bytes_storage": {
        "encoding": "bytes",
        "label": "bytes",
        "numberOfBytes": "32"
      },
      "t_contract(ENSInterface)974": {
        "encoding": "inplace",
        "label": "contract ENSInterface",
        "numberOfBytes": "20"
      },
      "t_contract(LinkTokenInterface)1069": {
        "encoding": "inplace",
        "label": "contract LinkTokenInterface",
        "numberOfBytes": "20"
      },
      "t_contract(OperatorInterface)1149": {
        "encoding": "inplace",
        "label": "contract OperatorInterface",
        "numberOfBytes": "20"
      },
      "t_mapping(t_bytes32,t_address)": {
        "encoding": "mapping",
        "key": "t_bytes32",
        "label": "mapping(bytes32 => address)",
        "numberOfBytes": "32",
        "value": "t_address"
      },
      "t_string_storage": {
        "encoding": "bytes",
        "label": "string",
        "numberOfBytes": "32"
      },
      "t_uint256": {
        "encoding": "inplace",
        "label": "uint256",
        "numberOfBytes": "32"
      }
    }
  }
}