{
  "address": "0x466D77c6EBEfD773d525ebEC71A96E7aB4813421",
  "abi": [
    {
      "inputs": [],
      "stateMutability": "nonpayable",
      "type": "constructor"
    },
    {
      "anonymous": false,
      "inputs": [
        {
          "indexed": false,
          "internalType": "address",
          "name": "previousAdmin",
          "type": "address"
        },
        {
          "indexed": false,
          "internalType": "address",
          "name": "newAdmin",
          "type": "address"
        }
      ],
      "name": "AdminChanged",
      "type": "event"
    },
    {
      "anonymous": false,
      "inputs": [
        {
          "indexed": true,
          "internalType": "address",
          "name": "airnodeRrp",
          "type": "address"
        }
      ],
      "name": "AirnodeRrpUpdated",
      "type": "event"
    },
    {
      "anonymous": false,
      "inputs": [
        {
          "indexed": true,
          "internalType": "address",
          "name": "beacon",
          "type": "address"
        }
      ],
      "name": "BeaconUpgraded",
      "type": "event"
    },
    {
      "anonymous": false,
      "inputs": [
        {
          "indexed": true,
          "internalType": "bytes32",
          "name": "requestId",
          "type": "bytes32"
        },
        {
          "indexed": true,
          "internalType": "uint256",
          "name": "targetId",
          "type": "uint256"
        },
        {
          "indexed": false,
          "internalType": "string",
          "name": "ipfsHash",
          "type": "string"
        },
        {
          "indexed": false,
          "internalType": "uint256",
          "name": "httpStatus",
          "type": "uint256"
        }
      ],
      "name": "EnrichmentFulfilled",
      "type": "event"
    },
    {
      "anonymous": false,
      "inputs": [
        {
          "indexed": false,
          "internalType": "uint8",
          "name": "version",
          "type": "uint8"
        }
      ],
      "name": "Initialized",
      "type": "event"
    },
    {
      "anonymous": false,
      "inputs": [
        {
          "indexed": true,
          "internalType": "uint256",
          "name": "targetId",
          "type": "uint256"
        }
      ],
      "name": "RequestEnrichTarget",
      "type": "event"
    },
    {
      "anonymous": false,
      "inputs": [
        {
          "indexed": true,
          "internalType": "address",
          "name": "implementation",
          "type": "address"
        }
      ],
      "name": "Upgraded",
      "type": "event"
    },
    {
      "inputs": [],
      "name": "NAME",
      "outputs": [
        {
          "internalType": "string",
          "name": "",
          "type": "string"
        }
      ],
      "stateMutability": "view",
      "type": "function"
    },
    {
      "inputs": [],
      "name": "VERSION",
      "outputs": [
        {
          "internalType": "string",
          "name": "",
          "type": "string"
        }
      ],
      "stateMutability": "view",
      "type": "function"
    },
    {
      "inputs": [],
      "name": "airnode",
      "outputs": [
        {
          "internalType": "address",
          "name": "",
          "type": "address"
        }
      ],
      "stateMutability": "view",
      "type": "function"
    },
    {
      "inputs": [],
      "name": "airnodeRrp",
      "outputs": [
        {
          "internalType": "contract IAirnodeRrpV0",
          "name": "",
          "type": "address"
        }
      ],
      "stateMutability": "view",
      "type": "function"
    },
    {
      "inputs": [],
      "name": "endpointId",
      "outputs": [
        {
          "internalType": "bytes32",
          "name": "",
          "type": "bytes32"
        }
      ],
      "stateMutability": "view",
      "type": "function"
    },
    {
      "inputs": [],
      "name": "etsAccessControls",
      "outputs": [
        {
          "internalType": "contract IETSAccessControls",
          "name": "",
          "type": "address"
        }
      ],
      "stateMutability": "view",
      "type": "function"
    },
    {
      "inputs": [],
      "name": "etsTarget",
      "outputs": [
        {
          "internalType": "contract IETSTarget",
          "name": "",
          "type": "address"
        }
      ],
      "stateMutability": "view",
      "type": "function"
    },
    {
      "inputs": [
        {
          "internalType": "bytes32",
          "name": "requestId",
          "type": "bytes32"
        },
        {
          "internalType": "bytes",
          "name": "data",
          "type": "bytes"
        }
      ],
      "name": "fulfillEnrichTarget",
      "outputs": [],
      "stateMutability": "nonpayable",
      "type": "function"
    },
    {
      "inputs": [
        {
          "internalType": "contract IETSAccessControls",
          "name": "_etsAccessControls",
          "type": "address"
        },
        {
          "internalType": "contract IETSTarget",
          "name": "_etsTarget",
          "type": "address"
        },
        {
          "internalType": "contract IAirnodeRrpV0",
          "name": "_airnodeRrp",
          "type": "address"
        }
      ],
      "name": "initialize",
      "outputs": [],
      "stateMutability": "nonpayable",
      "type": "function"
    },
    {
      "inputs": [],
      "name": "proxiableUUID",
      "outputs": [
        {
          "internalType": "bytes32",
          "name": "",
          "type": "bytes32"
        }
      ],
      "stateMutability": "view",
      "type": "function"
    },
    {
      "inputs": [
        {
          "internalType": "uint256",
          "name": "_targetId",
          "type": "uint256"
        }
      ],
      "name": "requestEnrichTarget",
      "outputs": [],
      "stateMutability": "nonpayable",
      "type": "function"
    },
    {
      "inputs": [
        {
          "internalType": "bytes32",
          "name": "",
          "type": "bytes32"
        }
      ],
      "name": "requestIdToTargetId",
      "outputs": [
        {
          "internalType": "uint256",
          "name": "",
          "type": "uint256"
        }
      ],
      "stateMutability": "view",
      "type": "function"
    },
    {
      "inputs": [
        {
          "internalType": "address",
          "name": "_airnode",
          "type": "address"
        },
        {
          "internalType": "bytes32",
          "name": "_endpointId",
          "type": "bytes32"
        },
        {
          "internalType": "address",
          "name": "_sponsorAddress",
          "type": "address"
        },
        {
          "internalType": "address",
          "name": "_sponsorWallet",
          "type": "address"
        }
      ],
      "name": "setAirnodeRequestParameters",
      "outputs": [],
      "stateMutability": "nonpayable",
      "type": "function"
    },
    {
      "inputs": [
        {
          "internalType": "contract IAirnodeRrpV0",
          "name": "_airnodeRrp",
          "type": "address"
        }
      ],
      "name": "setAirnodeRrp",
      "outputs": [],
      "stateMutability": "nonpayable",
      "type": "function"
    },
    {
      "inputs": [],
      "name": "sponsorAddress",
      "outputs": [
        {
          "internalType": "address",
          "name": "",
          "type": "address"
        }
      ],
      "stateMutability": "view",
      "type": "function"
    },
    {
      "inputs": [],
      "name": "sponsorWallet",
      "outputs": [
        {
          "internalType": "address",
          "name": "",
          "type": "address"
        }
      ],
      "stateMutability": "view",
      "type": "function"
    },
    {
      "inputs": [
        {
          "internalType": "address",
          "name": "newImplementation",
          "type": "address"
        }
      ],
      "name": "upgradeTo",
      "outputs": [],
      "stateMutability": "nonpayable",
      "type": "function"
    },
    {
      "inputs": [
        {
          "internalType": "address",
          "name": "newImplementation",
          "type": "address"
        },
        {
          "internalType": "bytes",
          "name": "data",
          "type": "bytes"
        }
      ],
      "name": "upgradeToAndCall",
      "outputs": [],
      "stateMutability": "payable",
      "type": "function"
    }
  ],
  "numDeployments": 1,
  "solcInputHash": "b456eba2e346d1d5281c93e149c3f843",
  "bytecode": "0x60a06040523060805234801561001457600080fd5b5061001d610022565b6100e1565b600054610100900460ff161561008e5760405162461bcd60e51b815260206004820152602760248201527f496e697469616c697a61626c653a20636f6e747261637420697320696e697469604482015266616c697a696e6760c81b606482015260840160405180910390fd5b60005460ff908116146100df576000805460ff191660ff9081179091556040519081527f7f26b83ff96e1f2b6a682f133852f6798a09c465da95921460cefb38474024989060200160405180910390a15b565b608051611d99610118600039600081816104fd0152818161058201528181610679015281816106fe01526107e80152611d996000f3fe6080604052600436106101295760003560e01c806377e20df8116100a5578063bf90fb4e11610074578063d2a3f39811610059578063d2a3f3981461035c578063d60da0d61461037c578063ffa1ad741461039c57600080fd5b8063bf90fb4e1461031c578063c0c53b8b1461033c57600080fd5b806377e20df8146102705780638299f9f914610286578063a36ff4d8146102a6578063a3f4df7e146102c657600080fd5b806352d1902d116100fc5780636a34db1c116100e15780636a34db1c146102105780636aeefe101461023057806371bab6661461025057600080fd5b806352d1902d146101c357806356c63489146101d857600080fd5b806317ffc5671461012e5780633659cfe6146101505780633de9de5f146101705780634f1ef286146101b0575b600080fd5b34801561013a57600080fd5b5061014e610149366004611784565b6103e5565b005b34801561015c57600080fd5b5061014e61016b3660046117d7565b6104f2565b34801561017c57600080fd5b5061019d61018b3660046117f4565b609e6020526000908152604090205481565b6040519081526020015b60405180910390f35b61014e6101be3660046118fc565b61066e565b3480156101cf57600080fd5b5061019d6107db565b3480156101e457600080fd5b506098546101f8906001600160a01b031681565b6040516001600160a01b0390911681526020016101a7565b34801561021c57600080fd5b5061014e61022b3660046117f4565b6108a0565b34801561023c57600080fd5b50609b546101f8906001600160a01b031681565b34801561025c57600080fd5b50609d546101f8906001600160a01b031681565b34801561027c57600080fd5b5061019d609a5481565b34801561029257600080fd5b506097546101f8906001600160a01b031681565b3480156102b257600080fd5b506099546101f8906001600160a01b031681565b3480156102d257600080fd5b5061030f6040518060400160405280600f81526020017f455453456e72696368546172676574000000000000000000000000000000000081525081565b6040516101a791906119b8565b34801561032857600080fd5b50609c546101f8906001600160a01b031681565b34801561034857600080fd5b5061014e6103573660046119cb565b610bd9565b34801561036857600080fd5b5061014e610377366004611a16565b610d3e565b34801561038857600080fd5b5061014e6103973660046117d7565b610fa8565b3480156103a857600080fd5b5061030f6040518060400160405280600581526020017f302e302e3200000000000000000000000000000000000000000000000000000081525081565b6097546001600160a01b03166324d7806c336040516001600160e01b031960e084901b1681526001600160a01b039091166004820152602401602060405180830381865afa15801561043b573d6000803e3d6000fd5b505050506040513d601f19601f8201168201806040525081019061045f9190611a92565b6104a05760405162461bcd60e51b815260206004820152600d60248201526c1058d8d95cdcc819195b9a5959609a1b60448201526064015b60405180910390fd5b609980546001600160a01b0395861673ffffffffffffffffffffffffffffffffffffffff1991821617909155609a93909355609b805492851692841692909217909155609c8054919093169116179055565b306001600160a01b037f00000000000000000000000000000000000000000000000000000000000000001614156105805760405162461bcd60e51b815260206004820152602c60248201527f46756e6374696f6e206d7573742062652063616c6c6564207468726f7567682060448201526b19195b1959d85d1958d85b1b60a21b6064820152608401610497565b7f00000000000000000000000000000000000000000000000000000000000000006001600160a01b03166105db7f360894a13ba1a3210667c828492db98dca3e2076cc3735a920a3ca505d382bbc546001600160a01b031690565b6001600160a01b0316146106465760405162461bcd60e51b815260206004820152602c60248201527f46756e6374696f6e206d7573742062652063616c6c6564207468726f7567682060448201526b6163746976652070726f787960a01b6064820152608401610497565b61064f8161110b565b6040805160008082526020820190925261066b918391906111c1565b50565b306001600160a01b037f00000000000000000000000000000000000000000000000000000000000000001614156106fc5760405162461bcd60e51b815260206004820152602c60248201527f46756e6374696f6e206d7573742062652063616c6c6564207468726f7567682060448201526b19195b1959d85d1958d85b1b60a21b6064820152608401610497565b7f00000000000000000000000000000000000000000000000000000000000000006001600160a01b03166107577f360894a13ba1a3210667c828492db98dca3e2076cc3735a920a3ca505d382bbc546001600160a01b031690565b6001600160a01b0316146107c25760405162461bcd60e51b815260206004820152602c60248201527f46756e6374696f6e206d7573742062652063616c6c6564207468726f7567682060448201526b6163746976652070726f787960a01b6064820152608401610497565b6107cb8261110b565b6107d7828260016111c1565b5050565b6000306001600160a01b037f0000000000000000000000000000000000000000000000000000000000000000161461087b5760405162461bcd60e51b815260206004820152603860248201527f555550535570677261646561626c653a206d757374206e6f742062652063616c60448201527f6c6564207468726f7567682064656c656761746563616c6c00000000000000006064820152608401610497565b507f360894a13ba1a3210667c828492db98dca3e2076cc3735a920a3ca505d382bbc90565b6098546040517fcd7c68e2000000000000000000000000000000000000000000000000000000008152600481018390526001600160a01b039091169063cd7c68e290602401602060405180830381865afa158015610902573d6000803e3d6000fd5b505050506040513d601f19601f820116820180604052508101906109269190611a92565b15156001146109775760405162461bcd60e51b815260206004820152600e60248201527f496e76616c6964207461726765740000000000000000000000000000000000006044820152606401610497565b6099546001600160a01b03166109cf5760405162461bcd60e51b815260206004820152600f60248201527f4169726e6f6465206e6f742073657400000000000000000000000000000000006044820152606401610497565b609c546001600160a01b0316610a275760405162461bcd60e51b815260206004820152601660248201527f53706f6e736f722077616c6c6574206e6f7420736574000000000000000000006044820152606401610497565b6000610a3282611366565b90506000610a3f46611366565b905060007f31535300000000000000000000000000000000000000000000000000000000007f636861696e496400000000000000000000000000000000000000000000000000837f746172676574496400000000000000000000000000000000000000000000000086604051602001610abc959493929190611ab4565b60408051601f1981840301815290829052609d54609954609a54609b54609c547f6e6be03f0000000000000000000000000000000000000000000000000000000087529496506000956001600160a01b0394851695636e6be03f95610b53958116949381169291169030907fd2a3f39800000000000000000000000000000000000000000000000000000000908b90600401611af7565b6020604051808303816000875af1158015610b72573d6000803e3d6000fd5b505050506040513d601f19601f82011682018060405250810190610b969190611b56565b6000818152609e60205260408082208890555191925086917fa769cb5a56651753718b44cdc6b7211e001c6d099d9aa9b1dfcaa19991b66d219190a25050505050565b600054610100900460ff1615808015610bf95750600054600160ff909116105b80610c135750303b158015610c13575060005460ff166001145b610c855760405162461bcd60e51b815260206004820152602e60248201527f496e697469616c697a61626c653a20636f6e747261637420697320616c72656160448201527f647920696e697469616c697a65640000000000000000000000000000000000006064820152608401610497565b6000805460ff191660011790558015610ca8576000805461ff0019166101001790555b609780546001600160a01b0380871673ffffffffffffffffffffffffffffffffffffffff199283161790925560988054868416908316179055609d8054928516929091169190911790558015610d38576000805461ff0019169055604051600181527f7f26b83ff96e1f2b6a682f133852f6798a09c465da95921460cefb38474024989060200160405180910390a15b50505050565b609d546001600160a01b03163314610dbe5760405162461bcd60e51b815260206004820152602760248201527f43616c6c6572206973206e6f7420746865204169726e6f64655272705630206360448201527f6f6e7472616374000000000000000000000000000000000000000000000000006064820152608401610497565b6000838152609e602052604090205480610e1a5760405162461bcd60e51b815260206004820152601260248201527f556e6b6e6f776e207265717565737420494400000000000000000000000000006044820152606401610497565b6000848152609e6020526040812081905580610e3884860186611b6f565b6098546040517f1b2d87c3000000000000000000000000000000000000000000000000000000008152600481018790529294509092506000916001600160a01b0390911690631b2d87c390602401600060405180830381865afa158015610ea3573d6000803e3d6000fd5b505050506040513d6000823e601f3d908101601f19168201604052610ecb9190810190611c0d565b60985481516040517f7ab3f1cd0000000000000000000000000000000000000000000000000000000081529293506001600160a01b0390911691637ab3f1cd91610f2091889190429088908a90600401611cc7565b6020604051808303816000875af1158015610f3f573d6000803e3d6000fd5b505050506040513d601f19601f82011682018060405250810190610f639190611a92565b5083877fd435ab8c7621636b5e5eeacc2c561812d503879741d83a05ce616c63b00e720e8585604051610f97929190611cfe565b60405180910390a350505050505050565b6097546001600160a01b03166324d7806c336040516001600160e01b031960e084901b1681526001600160a01b039091166004820152602401602060405180830381865afa158015610ffe573d6000803e3d6000fd5b505050506040513d601f19601f820116820180604052508101906110229190611a92565b61105e5760405162461bcd60e51b815260206004820152600d60248201526c1058d8d95cdcc819195b9a5959609a1b6044820152606401610497565b6001600160a01b0381166110b45760405162461bcd60e51b815260206004820152601660248201527f416464726573732063616e6e6f74206265207a65726f000000000000000000006044820152606401610497565b609d805473ffffffffffffffffffffffffffffffffffffffff19166001600160a01b0383169081179091556040517f3fd98d0894e84b19b57c104999150cc721dfb5e5d3491a3ce7b537f9308e7c2c90600090a250565b6097546001600160a01b03166324d7806c336040516001600160e01b031960e084901b1681526001600160a01b039091166004820152602401602060405180830381865afa158015611161573d6000803e3d6000fd5b505050506040513d601f19601f820116820180604052508101906111859190611a92565b61066b5760405162461bcd60e51b815260206004820152600d60248201526c1058d8d95cdcc819195b9a5959609a1b6044820152606401610497565b7f4910fdfa16fed3260ed0e7147f7cc6da11a60208b5b9406d12a635614ffd91435460ff16156111f9576111f483611410565b505050565b826001600160a01b03166352d1902d6040518163ffffffff1660e01b8152600401602060405180830381865afa925050508015611253575060408051601f3d908101601f1916820190925261125091810190611b56565b60015b6112c55760405162461bcd60e51b815260206004820152602e60248201527f45524331393637557067726164653a206e657720696d706c656d656e7461746960448201527f6f6e206973206e6f7420555550530000000000000000000000000000000000006064820152608401610497565b7f360894a13ba1a3210667c828492db98dca3e2076cc3735a920a3ca505d382bbc811461135a5760405162461bcd60e51b815260206004820152602960248201527f45524331393637557067726164653a20756e737570706f727465642070726f7860448201527f6961626c655555494400000000000000000000000000000000000000000000006064820152608401610497565b506111f48383836114db565b6060600061137383611500565b600101905060008167ffffffffffffffff8111156113935761139361180d565b6040519080825280601f01601f1916602001820160405280156113bd576020820181803683370190505b5090508181016020015b600019017f3031323334353637383961626364656600000000000000000000000000000000600a86061a8153600a850494508461140357611408565b6113c7565b509392505050565b6001600160a01b0381163b61148d5760405162461bcd60e51b815260206004820152602d60248201527f455243313936373a206e657720696d706c656d656e746174696f6e206973206e60448201527f6f74206120636f6e7472616374000000000000000000000000000000000000006064820152608401610497565b7f360894a13ba1a3210667c828492db98dca3e2076cc3735a920a3ca505d382bbc805473ffffffffffffffffffffffffffffffffffffffff19166001600160a01b0392909216919091179055565b6114e4836115e3565b6000825111806114f15750805b156111f457610d388383611623565b6000807a184f03e93ff9f4daa797ed6e38ed64bf6a1f0100000000000000008310611549577a184f03e93ff9f4daa797ed6e38ed64bf6a1f010000000000000000830492506040015b6d04ee2d6d415b85acef81000000008310611575576d04ee2d6d415b85acef8100000000830492506020015b662386f26fc10000831061159357662386f26fc10000830492506010015b6305f5e10083106115ab576305f5e100830492506008015b61271083106115bf57612710830492506004015b606483106115d1576064830492506002015b600a83106115dd576001015b92915050565b6115ec81611410565b6040516001600160a01b038216907fbc7cd75a20ee27fd9adebab32041f755214dbc6bffa90cc0225b39da2e5c2d3b90600090a250565b60606116488383604051806060016040528060278152602001611d3d6027913961164f565b9392505050565b6060600080856001600160a01b03168560405161166c9190611d20565b600060405180830381855af49150503d80600081146116a7576040519150601f19603f3d011682016040523d82523d6000602084013e6116ac565b606091505b50915091506116bd868383876116c7565b9695505050505050565b6060831561173357825161172c576001600160a01b0385163b61172c5760405162461bcd60e51b815260206004820152601d60248201527f416464726573733a2063616c6c20746f206e6f6e2d636f6e74726163740000006044820152606401610497565b508161173d565b61173d8383611745565b949350505050565b8151156117555781518083602001fd5b8060405162461bcd60e51b815260040161049791906119b8565b6001600160a01b038116811461066b57600080fd5b6000806000806080858703121561179a57600080fd5b84356117a58161176f565b93506020850135925060408501356117bc8161176f565b915060608501356117cc8161176f565b939692955090935050565b6000602082840312156117e957600080fd5b81356116488161176f565b60006020828403121561180657600080fd5b5035919050565b7f4e487b7100000000000000000000000000000000000000000000000000000000600052604160045260246000fd5b60405160a0810167ffffffffffffffff8111828210171561185f5761185f61180d565b60405290565b604051601f8201601f1916810167ffffffffffffffff8111828210171561188e5761188e61180d565b604052919050565b600067ffffffffffffffff8211156118b0576118b061180d565b50601f01601f191660200190565b60006118d16118cc84611896565b611865565b90508281528383830111156118e557600080fd5b828260208301376000602084830101529392505050565b6000806040838503121561190f57600080fd5b823561191a8161176f565b9150602083013567ffffffffffffffff81111561193657600080fd5b8301601f8101851361194757600080fd5b611956858235602084016118be565b9150509250929050565b60005b8381101561197b578181015183820152602001611963565b83811115610d385750506000910152565b600081518084526119a4816020860160208601611960565b601f01601f19169290920160200192915050565b602081526000611648602083018461198c565b6000806000606084860312156119e057600080fd5b83356119eb8161176f565b925060208401356119fb8161176f565b91506040840135611a0b8161176f565b809150509250925092565b600080600060408486031215611a2b57600080fd5b83359250602084013567ffffffffffffffff80821115611a4a57600080fd5b818601915086601f830112611a5e57600080fd5b813581811115611a6d57600080fd5b876020828501011115611a7f57600080fd5b6020830194508093505050509250925092565b600060208284031215611aa457600080fd5b8151801515811461164857600080fd5b85815284602082015260a060408201526000611ad360a083018661198c565b8460608401528281036080840152611aeb818561198c565b98975050505050505050565b60006001600160a01b03808a168352886020840152808816604084015280871660608401528086166080840152506001600160e01b0319841660a083015260e060c0830152611b4960e083018461198c565b9998505050505050505050565b600060208284031215611b6857600080fd5b5051919050565b60008060408385031215611b8257600080fd5b823567ffffffffffffffff811115611b9957600080fd5b8301601f81018513611baa57600080fd5b611bb9858235602084016118be565b95602094909401359450505050565b600082601f830112611bd957600080fd5b8151611be76118cc82611896565b818152846020838601011115611bfc57600080fd5b61173d826020830160208701611960565b600060208284031215611c1f57600080fd5b815167ffffffffffffffff80821115611c3757600080fd5b9083019060a08286031215611c4b57600080fd5b611c5361183c565b825182811115611c6257600080fd5b611c6e87828601611bc8565b8252506020830151611c7f8161176f565b806020830152506040830151604082015260608301516060820152608083015182811115611cac57600080fd5b611cb887828601611bc8565b60808301525095945050505050565b85815260a060208201526000611ce060a083018761198c565b8560408401528460608401528281036080840152611aeb818561198c565b604081526000611d11604083018561198c565b90508260208301529392505050565b60008251611d32818460208701611960565b919091019291505056fe416464726573733a206c6f772d6c6576656c2064656c65676174652063616c6c206661696c6564a2646970667358221220d5e50461a709778bc6ac8a7e88adbc3f1a7e01bf7bc40437d6914512cfd7b08664736f6c634300080c0033",
  "devdoc": {
    "kind": "dev",
    "methods": {
      "constructor": {
        "custom:oz-upgrades-unsafe-allow": "constructor"
      },
      "fulfillEnrichTarget(bytes32,bytes)": {
        "params": {
          "data": "The data returned by the Airnode (encoded ipfsHash and httpStatus)",
          "requestId": "The request ID that was returned when making the request"
        }
      },
      "proxiableUUID()": {
        "details": "Implementation of the ERC1822 {proxiableUUID} function. This returns the storage slot used by the implementation. It is used to validate the implementation's compatibility when performing an upgrade. IMPORTANT: A proxy pointing at a proxiable contract should not be considered proxiable itself, because this risks bricking a proxy that upgrades to it, by delegating to itself until out of gas. Thus it is critical that this function revert if invoked through a proxy. This is guaranteed by the `notDelegated` modifier."
      },
      "requestEnrichTarget(uint256)": {
        "params": {
          "_targetId": "The target ID to enrich"
        }
      },
      "setAirnodeRequestParameters(address,bytes32,address,address)": {
        "params": {
          "_airnode": "The Airnode address",
          "_endpointId": "The endpoint ID",
          "_sponsorAddress": "The sponsor address",
          "_sponsorWallet": "The sponsor wallet address"
        }
      },
      "setAirnodeRrp(address)": {
        "params": {
          "_airnodeRrp": "New Airnode RRP contract address"
        }
      },
      "upgradeTo(address)": {
        "custom:oz-upgrades-unsafe-allow-reachable": "delegatecall",
        "details": "Upgrade the implementation of the proxy to `newImplementation`. Calls {_authorizeUpgrade}. Emits an {Upgraded} event."
      },
      "upgradeToAndCall(address,bytes)": {
        "custom:oz-upgrades-unsafe-allow-reachable": "delegatecall",
        "details": "Upgrade the implementation of the proxy to `newImplementation`, and subsequently execute the function call encoded in `data`. Calls {_authorizeUpgrade}. Emits an {Upgraded} event."
      }
    },
    "stateVariables": {
      "etsAccessControls": {
        "details": "ETS access controls smart contract."
      },
      "etsTarget": {
        "details": "ETS target smart contract."
      }
    },
    "version": 1
  },
  "userdoc": {
    "kind": "user",
    "methods": {
      "fulfillEnrichTarget(bytes32,bytes)": {
        "notice": "Function called by Airnode with the enriched data"
      },
      "requestEnrichTarget(uint256)": {
        "notice": "Request to enrich a target"
      },
      "setAirnodeRequestParameters(address,bytes32,address,address)": {
        "notice": "Set the Airnode request parameters"
      },
      "setAirnodeRrp(address)": {
        "notice": "Allows admin to update the Airnode RRP implementation address"
      }
    },
    "version": 1
  },
  "storageLayout": {
    "storage": [
      {
        "astId": 1154,
        "contract": "contracts/ETSEnrichTarget.sol:ETSEnrichTarget",
        "label": "_initialized",
        "offset": 0,
        "slot": "0",
        "type": "t_uint8"
      },
      {
        "astId": 1157,
        "contract": "contracts/ETSEnrichTarget.sol:ETSEnrichTarget",
        "label": "_initializing",
        "offset": 1,
        "slot": "0",
        "type": "t_bool"
      },
      {
        "astId": 3765,
        "contract": "contracts/ETSEnrichTarget.sol:ETSEnrichTarget",
        "label": "__gap",
        "offset": 0,
        "slot": "1",
        "type": "t_array(t_uint256)50_storage"
      },
      {
        "astId": 1136,
        "contract": "contracts/ETSEnrichTarget.sol:ETSEnrichTarget",
        "label": "__gap",
        "offset": 0,
        "slot": "51",
        "type": "t_array(t_uint256)50_storage"
      },
      {
        "astId": 1452,
        "contract": "contracts/ETSEnrichTarget.sol:ETSEnrichTarget",
        "label": "__gap",
        "offset": 0,
        "slot": "101",
        "type": "t_array(t_uint256)50_storage"
      },
      {
        "astId": 9102,
        "contract": "contracts/ETSEnrichTarget.sol:ETSEnrichTarget",
        "label": "etsAccessControls",
        "offset": 0,
        "slot": "151",
        "type": "t_contract(IETSAccessControls)11693"
      },
      {
        "astId": 9106,
        "contract": "contracts/ETSEnrichTarget.sol:ETSEnrichTarget",
        "label": "etsTarget",
        "offset": 0,
        "slot": "152",
        "type": "t_contract(IETSTarget)12034"
      },
      {
        "astId": 9108,
        "contract": "contracts/ETSEnrichTarget.sol:ETSEnrichTarget",
        "label": "airnode",
        "offset": 0,
        "slot": "153",
        "type": "t_address"
      },
      {
        "astId": 9110,
        "contract": "contracts/ETSEnrichTarget.sol:ETSEnrichTarget",
        "label": "endpointId",
        "offset": 0,
        "slot": "154",
        "type": "t_bytes32"
      },
      {
        "astId": 9112,
        "contract": "contracts/ETSEnrichTarget.sol:ETSEnrichTarget",
        "label": "sponsorAddress",
        "offset": 0,
        "slot": "155",
        "type": "t_address"
      },
      {
        "astId": 9114,
        "contract": "contracts/ETSEnrichTarget.sol:ETSEnrichTarget",
        "label": "sponsorWallet",
        "offset": 0,
        "slot": "156",
        "type": "t_address"
      },
      {
        "astId": 9117,
        "contract": "contracts/ETSEnrichTarget.sol:ETSEnrichTarget",
        "label": "airnodeRrp",
        "offset": 0,
        "slot": "157",
        "type": "t_contract(IAirnodeRrpV0)181"
      },
      {
        "astId": 9121,
        "contract": "contracts/ETSEnrichTarget.sol:ETSEnrichTarget",
        "label": "requestIdToTargetId",
        "offset": 0,
        "slot": "158",
        "type": "t_mapping(t_bytes32,t_uint256)"
      }
    ],
    "types": {
      "t_address": {
        "encoding": "inplace",
        "label": "address",
        "numberOfBytes": "20"
      },
      "t_array(t_uint256)50_storage": {
        "base": "t_uint256",
        "encoding": "inplace",
        "label": "uint256[50]",
        "numberOfBytes": "1600"
      },
      "t_bool": {
        "encoding": "inplace",
        "label": "bool",
        "numberOfBytes": "1"
      },
      "t_bytes32": {
        "encoding": "inplace",
        "label": "bytes32",
        "numberOfBytes": "32"
      },
      "t_contract(IAirnodeRrpV0)181": {
        "encoding": "inplace",
        "label": "contract IAirnodeRrpV0",
        "numberOfBytes": "20"
      },
      "t_contract(IETSAccessControls)11693": {
        "encoding": "inplace",
        "label": "contract IETSAccessControls",
        "numberOfBytes": "20"
      },
      "t_contract(IETSTarget)12034": {
        "encoding": "inplace",
        "label": "contract IETSTarget",
        "numberOfBytes": "20"
      },
      "t_mapping(t_bytes32,t_uint256)": {
        "encoding": "mapping",
        "key": "t_bytes32",
        "label": "mapping(bytes32 => uint256)",
        "numberOfBytes": "32",
        "value": "t_uint256"
      },
      "t_uint256": {
        "encoding": "inplace",
        "label": "uint256",
        "numberOfBytes": "32"
      },
      "t_uint8": {
        "encoding": "inplace",
        "label": "uint8",
        "numberOfBytes": "1"
      }
    }
  }
}