{
  "address": "0x92eFe8B32085Cebea4Ff863cF1B0e3cCbb8890f2",
  "abi": [
    {
      "inputs": [],
      "stateMutability": "nonpayable",
      "type": "constructor"
    },
    {
      "anonymous": false,
      "inputs": [
        {
          "indexed": false,
          "internalType": "address",
          "name": "etsAccessControls",
          "type": "address"
        }
      ],
      "name": "AccessControlsSet",
      "type": "event"
    },
    {
      "anonymous": false,
      "inputs": [
        {
          "indexed": false,
          "internalType": "address",
          "name": "previousAdmin",
          "type": "address"
        },
        {
          "indexed": false,
          "internalType": "address",
          "name": "newAdmin",
          "type": "address"
        }
      ],
      "name": "AdminChanged",
      "type": "event"
    },
    {
      "anonymous": false,
      "inputs": [
        {
          "indexed": true,
          "internalType": "address",
          "name": "beacon",
          "type": "address"
        }
      ],
      "name": "BeaconUpgraded",
      "type": "event"
    },
    {
      "anonymous": false,
      "inputs": [
        {
          "indexed": false,
          "internalType": "address",
          "name": "etsEnrichTarget",
          "type": "address"
        }
      ],
      "name": "EnrichTargetSet",
      "type": "event"
    },
    {
      "anonymous": false,
      "inputs": [
        {
          "indexed": false,
          "internalType": "uint8",
          "name": "version",
          "type": "uint8"
        }
      ],
      "name": "Initialized",
      "type": "event"
    },
    {
      "anonymous": false,
      "inputs": [
        {
          "indexed": false,
          "internalType": "uint256",
          "name": "targetId",
          "type": "uint256"
        }
      ],
      "name": "TargetCreated",
      "type": "event"
    },
    {
      "anonymous": false,
      "inputs": [
        {
          "indexed": false,
          "internalType": "uint256",
          "name": "targetId",
          "type": "uint256"
        }
      ],
      "name": "TargetUpdated",
      "type": "event"
    },
    {
      "anonymous": false,
      "inputs": [
        {
          "indexed": true,
          "internalType": "address",
          "name": "implementation",
          "type": "address"
        }
      ],
      "name": "Upgraded",
      "type": "event"
    },
    {
      "inputs": [],
      "name": "NAME",
      "outputs": [
        {
          "internalType": "string",
          "name": "",
          "type": "string"
        }
      ],
      "stateMutability": "view",
      "type": "function"
    },
    {
      "inputs": [],
      "name": "VERSION",
      "outputs": [
        {
          "internalType": "string",
          "name": "",
          "type": "string"
        }
      ],
      "stateMutability": "view",
      "type": "function"
    },
    {
      "inputs": [
        {
          "internalType": "string",
          "name": "_targetURI",
          "type": "string"
        }
      ],
      "name": "computeTargetId",
      "outputs": [
        {
          "internalType": "uint256",
          "name": "",
          "type": "uint256"
        }
      ],
      "stateMutability": "pure",
      "type": "function"
    },
    {
      "inputs": [
        {
          "internalType": "string",
          "name": "_targetURI",
          "type": "string"
        }
      ],
      "name": "createTarget",
      "outputs": [
        {
          "internalType": "uint256",
          "name": "targetId",
          "type": "uint256"
        }
      ],
      "stateMutability": "nonpayable",
      "type": "function"
    },
    {
      "inputs": [],
      "name": "etsAccessControls",
      "outputs": [
        {
          "internalType": "contract IETSAccessControls",
          "name": "",
          "type": "address"
        }
      ],
      "stateMutability": "view",
      "type": "function"
    },
    {
      "inputs": [],
      "name": "etsEnrichTarget",
      "outputs": [
        {
          "internalType": "contract IETSEnrichTarget",
          "name": "",
          "type": "address"
        }
      ],
      "stateMutability": "view",
      "type": "function"
    },
    {
      "inputs": [
        {
          "internalType": "string",
          "name": "_targetURI",
          "type": "string"
        }
      ],
      "name": "getOrCreateTargetId",
      "outputs": [
        {
          "internalType": "uint256",
          "name": "",
          "type": "uint256"
        }
      ],
      "stateMutability": "nonpayable",
      "type": "function"
    },
    {
      "inputs": [
        {
          "internalType": "uint256",
          "name": "_targetId",
          "type": "uint256"
        }
      ],
      "name": "getTargetById",
      "outputs": [
        {
          "components": [
            {
              "internalType": "string",
              "name": "targetURI",
              "type": "string"
            },
            {
              "internalType": "address",
              "name": "createdBy",
              "type": "address"
            },
            {
              "internalType": "uint256",
              "name": "enriched",
              "type": "uint256"
            },
            {
              "internalType": "uint256",
              "name": "httpStatus",
              "type": "uint256"
            },
            {
              "internalType": "string",
              "name": "arweaveTxId",
              "type": "string"
            }
          ],
          "internalType": "struct IETSTarget.Target",
          "name": "",
          "type": "tuple"
        }
      ],
      "stateMutability": "view",
      "type": "function"
    },
    {
      "inputs": [
        {
          "internalType": "string",
          "name": "_targetURI",
          "type": "string"
        }
      ],
      "name": "getTargetByURI",
      "outputs": [
        {
          "components": [
            {
              "internalType": "string",
              "name": "targetURI",
              "type": "string"
            },
            {
              "internalType": "address",
              "name": "createdBy",
              "type": "address"
            },
            {
              "internalType": "uint256",
              "name": "enriched",
              "type": "uint256"
            },
            {
              "internalType": "uint256",
              "name": "httpStatus",
              "type": "uint256"
            },
            {
              "internalType": "string",
              "name": "arweaveTxId",
              "type": "string"
            }
          ],
          "internalType": "struct IETSTarget.Target",
          "name": "",
          "type": "tuple"
        }
      ],
      "stateMutability": "view",
      "type": "function"
    },
    {
      "inputs": [
        {
          "internalType": "address",
          "name": "_etsAccessControls",
          "type": "address"
        }
      ],
      "name": "initialize",
      "outputs": [],
      "stateMutability": "nonpayable",
      "type": "function"
    },
    {
      "inputs": [],
      "name": "proxiableUUID",
      "outputs": [
        {
          "internalType": "bytes32",
          "name": "",
          "type": "bytes32"
        }
      ],
      "stateMutability": "view",
      "type": "function"
    },
    {
      "inputs": [
        {
          "internalType": "contract IETSAccessControls",
          "name": "_accessControls",
          "type": "address"
        }
      ],
      "name": "setAccessControls",
      "outputs": [],
      "stateMutability": "nonpayable",
      "type": "function"
    },
    {
      "inputs": [
        {
          "internalType": "address",
          "name": "_etsEnrichTarget",
          "type": "address"
        }
      ],
      "name": "setEnrichTarget",
      "outputs": [],
      "stateMutability": "nonpayable",
      "type": "function"
    },
    {
      "inputs": [
        {
          "internalType": "uint256",
          "name": "_targetId",
          "type": "uint256"
        }
      ],
      "name": "targetExistsById",
      "outputs": [
        {
          "internalType": "bool",
          "name": "",
          "type": "bool"
        }
      ],
      "stateMutability": "view",
      "type": "function"
    },
    {
      "inputs": [
        {
          "internalType": "string",
          "name": "_targetURI",
          "type": "string"
        }
      ],
      "name": "targetExistsByURI",
      "outputs": [
        {
          "internalType": "bool",
          "name": "",
          "type": "bool"
        }
      ],
      "stateMutability": "view",
      "type": "function"
    },
    {
      "inputs": [
        {
          "internalType": "uint256",
          "name": "",
          "type": "uint256"
        }
      ],
      "name": "targets",
      "outputs": [
        {
          "internalType": "string",
          "name": "targetURI",
          "type": "string"
        },
        {
          "internalType": "address",
          "name": "createdBy",
          "type": "address"
        },
        {
          "internalType": "uint256",
          "name": "enriched",
          "type": "uint256"
        },
        {
          "internalType": "uint256",
          "name": "httpStatus",
          "type": "uint256"
        },
        {
          "internalType": "string",
          "name": "arweaveTxId",
          "type": "string"
        }
      ],
      "stateMutability": "view",
      "type": "function"
    },
    {
      "inputs": [
        {
          "internalType": "uint256",
          "name": "_targetId",
          "type": "uint256"
        },
        {
          "internalType": "string",
          "name": "_targetURI",
          "type": "string"
        },
        {
          "internalType": "uint256",
          "name": "_enriched",
          "type": "uint256"
        },
        {
          "internalType": "uint256",
          "name": "_httpStatus",
          "type": "uint256"
        },
        {
          "internalType": "string",
          "name": "_arweaveTxId",
          "type": "string"
        }
      ],
      "name": "updateTarget",
      "outputs": [
        {
          "internalType": "bool",
          "name": "success",
          "type": "bool"
        }
      ],
      "stateMutability": "nonpayable",
      "type": "function"
    },
    {
      "inputs": [
        {
          "internalType": "address",
          "name": "newImplementation",
          "type": "address"
        }
      ],
      "name": "upgradeTo",
      "outputs": [],
      "stateMutability": "nonpayable",
      "type": "function"
    },
    {
      "inputs": [
        {
          "internalType": "address",
          "name": "newImplementation",
          "type": "address"
        },
        {
          "internalType": "bytes",
          "name": "data",
          "type": "bytes"
        }
      ],
      "name": "upgradeToAndCall",
      "outputs": [],
      "stateMutability": "payable",
      "type": "function"
    }
  ],
  "numDeployments": 1,
  "solcInputHash": "558bd3eb0b071297497a0143e418b20f",
  "bytecode": "0x60a06040523060805234801561001457600080fd5b5061001d610022565b6100e1565b600054610100900460ff161561008e5760405162461bcd60e51b815260206004820152602760248201527f496e697469616c697a61626c653a20636f6e747261637420697320696e697469604482015266616c697a696e6760c81b606482015260840160405180910390fd5b60005460ff908116146100df576000805460ff191660ff9081179091556040519081527f7f26b83ff96e1f2b6a682f133852f6798a09c465da95921460cefb38474024989060200160405180910390a15b565b60805161249e6200011960003960008181610bce01528181610c5301528181610d4a01528181610dcf0152610eb9015261249e6000f3fe6080604052600436106101445760003560e01c8063794e75fc116100c0578063cd15832f11610074578063cf99c81511610059578063cf99c815146103cc578063f0496c86146103ec578063ffa1ad741461040c57600080fd5b8063cd15832f1461038c578063cd7c68e2146103ac57600080fd5b80638299f9f9116100a55780638299f9f9146102f6578063a3f4df7e14610316578063c4d66de81461036c57600080fd5b8063794e75fc146102b65780637ab3f1cd146102d657600080fd5b806323c7e9f3116101175780633659cfe6116100fc5780633659cfe61461026c5780634f1ef2861461028e57806352d1902d146102a157600080fd5b806323c7e9f31461021857806331bb0c691461024c57600080fd5b80630a39ce02146101495780630c48789c146101835780631b2d87c3146101b35780631b8278e2146101e0575b600080fd5b34801561015557600080fd5b50610169610164366004611fc3565b610455565b60405161017a959493929190612034565b60405180910390f35b34801561018f57600080fd5b506101a361019e36600461210c565b6105a2565b604051901515815260200161017a565b3480156101bf57600080fd5b506101d36101ce366004611fc3565b6105bc565b60405161017a9190612155565b3480156101ec57600080fd5b50606654610200906001600160a01b031681565b6040516001600160a01b03909116815260200161017a565b34801561022457600080fd5b5061023e61023336600461210c565b805160209091012090565b60405190815260200161017a565b34801561025857600080fd5b5061023e61026736600461210c565b610a27565b34801561027857600080fd5b5061028c6102873660046121d3565b610bc3565b005b61028c61029c3660046121f0565b610d3f565b3480156102ad57600080fd5b5061023e610eac565b3480156102c257600080fd5b506101d36102d136600461210c565b610f71565b3480156102e257600080fd5b506101a36102f136600461229d565b610fbc565b34801561030257600080fd5b50606554610200906001600160a01b031681565b34801561032257600080fd5b5061035f6040518060400160405280600981526020017f455453546172676574000000000000000000000000000000000000000000000081525081565b60405161017a919061232a565b34801561037857600080fd5b5061028c6103873660046121d3565b611369565b34801561039857600080fd5b5061028c6103a73660046121d3565b61149c565b3480156103b857600080fd5b506101a36103c7366004611fc3565b6116a3565b3480156103d857600080fd5b5061023e6103e736600461210c565b6116d6565b3480156103f857600080fd5b5061028c6104073660046121d3565b611714565b34801561041857600080fd5b5061035f6040518060400160405280600581526020017f302e302e3100000000000000000000000000000000000000000000000000000081525081565b6067602052600090815260409020805481906104709061233d565b80601f016020809104026020016040519081016040528092919081815260200182805461049c9061233d565b80156104e95780601f106104be576101008083540402835291602001916104e9565b820191906000526020600020905b8154815290600101906020018083116104cc57829003601f168201915b50505060018401546002850154600386015460048701805496976001600160a01b03909416969295509093509061051f9061233d565b80601f016020809104026020016040519081016040528092919081815260200182805461054b9061233d565b80156105985780601f1061056d57610100808354040283529160200191610598565b820191906000526020600020905b81548152906001019060200180831161057b57829003601f168201915b5050505050905085565b805160208201206000906105b5816116a3565b9392505050565b6105f76040518060a001604052806060815260200160006001600160a01b031681526020016000815260200160008152602001606081525090565b6106356040518060400160405280601f81526020017f3d3d3d204554535461726765742e67657454617267657442794964203d3d3d00815250611860565b6106616040518060400160405280600a8152602001692a30b933b2ba1024a21d60b11b815250836118bc565b61072c6040518060400160405280600b81526020016a2a30b933b2ba102aa9249d60a91b8152506067600085815260200190815260200160002060000180546106a99061233d565b80601f01602080910402602001604051908101604052809291908181526020018280546106d59061233d565b80156107225780601f106106f757610100808354040283529160200191610722565b820191906000526020600020905b81548152906001019060200180831161070557829003601f168201915b505050505061191a565b604080518082018252600b81527f437265617465642042793a00000000000000000000000000000000000000000060208083019190915260008581526067909152919091206001015461078891906001600160a01b0316611978565b6107dd6040518060400160405280600981526020017f456e7269636865643a000000000000000000000000000000000000000000000081525060676000858152602001908152602001600020600201546118bc565b6108216040518060400160405280600c81526020016b242a2a281029ba30ba3ab99d60a11b81525060676000858152602001908152602001600020600301546118bc565b61087b6040518060400160405280600d81526020017f4172776561766520547849643a000000000000000000000000000000000000008152506067600085815260200190815260200160002060040180546106a99061233d565b6108b96040518060400160405280601c81526020017f3d3d3d3d3d3d3d3d3d3d3d3d3d3d3d3d3d3d3d3d3d3d3d3d3d3d3d3d00000000815250611860565b60008281526067602052604090819020815160a081019092528054829082906108e19061233d565b80601f016020809104026020016040519081016040528092919081815260200182805461090d9061233d565b801561095a5780601f1061092f5761010080835404028352916020019161095a565b820191906000526020600020905b81548152906001019060200180831161093d57829003601f168201915b505050918352505060018201546001600160a01b03166020820152600282015460408201526003820154606082015260048201805460809092019161099e9061233d565b80601f01602080910402602001604051908101604052809291908181526020018280546109ca9061233d565b8015610a175780601f106109ec57610100808354040283529160200191610a17565b820191906000526020600020905b8154815290600101906020018083116109fa57829003601f168201915b5050505050815250509050919050565b6000610a32826105a2565b15610a845760405162461bcd60e51b815260206004820152601060248201527f746172676574206964206578697374730000000000000000000000000000000060448201526064015b60405180910390fd5b6000825111610ad55760405162461bcd60e51b815260206004820152600c60248201527f656d7074792074617267657400000000000000000000000000000000000000006044820152606401610a7b565b81516020808401919091206040805160a0810182528581523381850152600081830181905260608201819052825180860184528181526080830152838152606785529190912081518051939492939192610b3492849290910190611eb6565b506020828101516001830180546001600160a01b0319166001600160a01b03909216919091179055604083015160028301556060830151600383015560808301518051610b879260048501920190611eb6565b50506040518281527f503a6e6145f2d2a2a9b0845c2193aef653400c52f93b1c897bd55d36a396be7c915060200160405180910390a192915050565b306001600160a01b037f0000000000000000000000000000000000000000000000000000000000000000161415610c515760405162461bcd60e51b815260206004820152602c60248201527f46756e6374696f6e206d7573742062652063616c6c6564207468726f7567682060448201526b19195b1959d85d1958d85b1b60a21b6064820152608401610a7b565b7f00000000000000000000000000000000000000000000000000000000000000006001600160a01b0316610cac7f360894a13ba1a3210667c828492db98dca3e2076cc3735a920a3ca505d382bbc546001600160a01b031690565b6001600160a01b031614610d175760405162461bcd60e51b815260206004820152602c60248201527f46756e6374696f6e206d7573742062652063616c6c6564207468726f7567682060448201526b6163746976652070726f787960a01b6064820152608401610a7b565b610d20816119d6565b60408051600080825260208201909252610d3c91839190611a7e565b50565b306001600160a01b037f0000000000000000000000000000000000000000000000000000000000000000161415610dcd5760405162461bcd60e51b815260206004820152602c60248201527f46756e6374696f6e206d7573742062652063616c6c6564207468726f7567682060448201526b19195b1959d85d1958d85b1b60a21b6064820152608401610a7b565b7f00000000000000000000000000000000000000000000000000000000000000006001600160a01b0316610e287f360894a13ba1a3210667c828492db98dca3e2076cc3735a920a3ca505d382bbc546001600160a01b031690565b6001600160a01b031614610e935760405162461bcd60e51b815260206004820152602c60248201527f46756e6374696f6e206d7573742062652063616c6c6564207468726f7567682060448201526b6163746976652070726f787960a01b6064820152608401610a7b565b610e9c826119d6565b610ea882826001611a7e565b5050565b6000306001600160a01b037f00000000000000000000000000000000000000000000000000000000000000001614610f4c5760405162461bcd60e51b815260206004820152603860248201527f555550535570677261646561626c653a206d757374206e6f742062652063616c60448201527f6c6564207468726f7567682064656c656761746563616c6c00000000000000006064820152608401610a7b565b507f360894a13ba1a3210667c828492db98dca3e2076cc3735a920a3ca505d382bbc90565b610fac6040518060a001604052806060815260200160006001600160a01b031681526020016000815260200160008152602001606081525090565b815160208301206105b5816105bc565b6066546000906001600160a01b031633146110095760405162461bcd60e51b815260206004820152600d60248201526c1058d8d95cdcc819195b9a5959609a1b6044820152606401610a7b565b6110476040518060400160405280601e81526020017f3d3d3d204554535461726765742e757064617465546172676574203d3d3d0000815250611860565b6110736040518060400160405280600a8152602001692a30b933b2ba1024a21d60b11b815250896118bc565b6110d66040518060400160405280600b81526020016a2a30b933b2ba102aa9249d60a91b81525088888080601f01602080910402602001604051908101604052809392919081815260200183838082843760009201919091525061191a92505050565b6111156040518060400160405280601381526020017f456e7269636865642074696d657374616d703a00000000000000000000000000815250866118bc565b6111436040518060400160405280600c81526020016b242a2a281029ba30ba3ab99d60a11b815250856118bc565b6111b86040518060400160405280601e81526020017f41727765617665205478496420286265666f72652073746f72616765293a000081525084848080601f01602080910402602001604051908101604052809392919081815260200183838082843760009201919091525061191a92505050565b60408051808201909152601981527f4172776561766520547849642062797465206c656e6774683a0000000000000060208201526111f690836118bc565b600088815260676020526040902061120f908888611f3a565b506000888152606760205260409020600281018690556003810185905561123a906004018484611f3a565b506112956040518060400160405280601481526020017f53746f726564204172776561766520547849643a000000000000000000000000815250606760008b815260200190815260200160002060040180546106a99061233d565b6112ea6040518060400160405280601381526020017f53746f7265642048545450205374617475733a00000000000000000000000000815250606760008b8152602001908152602001600020600301546118bc565b6113286040518060400160405280601a81526020017f3d3d3d3d3d3d3d3d3d3d3d3d3d3d3d3d3d3d3d3d3d3d3d3d3d3d000000000000815250611860565b6040518881527f9d29e5045b411bb06d81d8ff11c828d9f1d7eb076eec9ca45eda49fc99f762b29060200160405180910390a1506001979650505050505050565b600054610100900460ff16158080156113895750600054600160ff909116105b806113a35750303b1580156113a3575060005460ff166001145b6114155760405162461bcd60e51b815260206004820152602e60248201527f496e697469616c697a61626c653a20636f6e747261637420697320616c72656160448201527f647920696e697469616c697a65640000000000000000000000000000000000006064820152608401610a7b565b6000805460ff191660011790558015611438576000805461ff0019166101001790555b606580546001600160a01b0319166001600160a01b0384161790558015610ea8576000805461ff0019169055604051600181527f7f26b83ff96e1f2b6a682f133852f6798a09c465da95921460cefb38474024989060200160405180910390a15050565b606554604051630935e01b60e21b81523360048201526001600160a01b03909116906324d7806c90602401602060405180830381865afa1580156114e4573d6000803e3d6000fd5b505050506040513d601f19601f820116820180604052508101906115089190612378565b6115445760405162461bcd60e51b815260206004820152600d60248201526c1058d8d95cdcc819195b9a5959609a1b6044820152606401610a7b565b6001600160a01b03811661159a5760405162461bcd60e51b815260206004820152601660248201527f416464726573732063616e6e6f74206265207a65726f000000000000000000006044820152606401610a7b565b604051630935e01b60e21b81523360048201526001600160a01b038216906324d7806c90602401602060405180830381865afa1580156115de573d6000803e3d6000fd5b505050506040513d601f19601f820116820180604052508101906116029190612378565b61164e5760405162461bcd60e51b815260206004820181905260248201527f43616c6c6572206e6f742061646d696e20696e206e657720636f6e74726163746044820152606401610a7b565b606580546001600160a01b0319166001600160a01b0383169081179091556040519081527f2f55f724ae3134584dfdd86a4ee1e090635ff9913722b5fe06e064cc7e3ed8b4906020015b60405180910390a150565b600081815260676020526040812080548291906116bf9061233d565b9050116116cd5760006116d0565b60015b92915050565b8051602080830191909120600081815260679092526040822080548391906116fd9061233d565b9050111561170b5792915050565b6105b583610a27565b606554604051630935e01b60e21b81523360048201526001600160a01b03909116906324d7806c90602401602060405180830381865afa15801561175c573d6000803e3d6000fd5b505050506040513d601f19601f820116820180604052508101906117809190612378565b6117bc5760405162461bcd60e51b815260206004820152600d60248201526c1058d8d95cdcc819195b9a5959609a1b6044820152606401610a7b565b6001600160a01b0381166118125760405162461bcd60e51b815260206004820152600b60248201527f42616420616464726573730000000000000000000000000000000000000000006044820152606401610a7b565b606680546001600160a01b0319166001600160a01b0383169081179091556040519081527fe96313c1f3045cd25cc6a60c1f5b3511040581e2aa833e3e035e1cc5fb83667090602001611698565b610d3c81604051602401611874919061232a565b60408051601f198184030181529190526020810180516001600160e01b03167f41304fac00000000000000000000000000000000000000000000000000000000179052611c23565b610ea882826040516024016118d292919061239a565b60408051601f198184030181529190526020810180516001600160e01b03167fb60e72cc00000000000000000000000000000000000000000000000000000000179052611c23565b610ea882826040516024016119309291906123bc565b60408051601f198184030181529190526020810180516001600160e01b03167f4b5c427700000000000000000000000000000000000000000000000000000000179052611c23565b610ea8828260405160240161198e9291906123e1565b60408051601f198184030181529190526020810180516001600160e01b03167f319af33300000000000000000000000000000000000000000000000000000000179052611c23565b606554604051630935e01b60e21b81523360048201526001600160a01b03909116906324d7806c90602401602060405180830381865afa158015611a1e573d6000803e3d6000fd5b505050506040513d601f19601f82011682018060405250810190611a429190612378565b610d3c5760405162461bcd60e51b815260206004820152600d60248201526c1058d8d95cdcc819195b9a5959609a1b6044820152606401610a7b565b7f4910fdfa16fed3260ed0e7147f7cc6da11a60208b5b9406d12a635614ffd91435460ff1615611ab657611ab183611c2c565b505050565b826001600160a01b03166352d1902d6040518163ffffffff1660e01b8152600401602060405180830381865afa925050508015611b10575060408051601f3d908101601f19168201909252611b0d9181019061240c565b60015b611b825760405162461bcd60e51b815260206004820152602e60248201527f45524331393637557067726164653a206e657720696d706c656d656e7461746960448201527f6f6e206973206e6f7420555550530000000000000000000000000000000000006064820152608401610a7b565b7f360894a13ba1a3210667c828492db98dca3e2076cc3735a920a3ca505d382bbc8114611c175760405162461bcd60e51b815260206004820152602960248201527f45524331393637557067726164653a20756e737570706f727465642070726f7860448201527f6961626c655555494400000000000000000000000000000000000000000000006064820152608401610a7b565b50611ab1838383611cea565b610d3c81611d15565b6001600160a01b0381163b611ca95760405162461bcd60e51b815260206004820152602d60248201527f455243313936373a206e657720696d706c656d656e746174696f6e206973206e60448201527f6f74206120636f6e7472616374000000000000000000000000000000000000006064820152608401610a7b565b7f360894a13ba1a3210667c828492db98dca3e2076cc3735a920a3ca505d382bbc80546001600160a01b0319166001600160a01b0392909216919091179055565b611cf383611d36565b600082511180611d005750805b15611ab157611d0f8383611d76565b50505050565b60006a636f6e736f6c652e6c6f679050600080835160208501845afa505050565b611d3f81611c2c565b6040516001600160a01b038216907fbc7cd75a20ee27fd9adebab32041f755214dbc6bffa90cc0225b39da2e5c2d3b90600090a250565b60606105b58383604051806060016040528060278152602001612442602791396060600080856001600160a01b031685604051611db39190612425565b600060405180830381855af49150503d8060008114611dee576040519150601f19603f3d011682016040523d82523d6000602084013e611df3565b606091505b5091509150611e0486838387611e0e565b9695505050505050565b60608315611e7a578251611e73576001600160a01b0385163b611e735760405162461bcd60e51b815260206004820152601d60248201527f416464726573733a2063616c6c20746f206e6f6e2d636f6e74726163740000006044820152606401610a7b565b5081611e84565b611e848383611e8c565b949350505050565b815115611e9c5781518083602001fd5b8060405162461bcd60e51b8152600401610a7b919061232a565b828054611ec29061233d565b90600052602060002090601f016020900481019282611ee45760008555611f2a565b82601f10611efd57805160ff1916838001178555611f2a565b82800160010185558215611f2a579182015b82811115611f2a578251825591602001919060010190611f0f565b50611f36929150611fae565b5090565b828054611f469061233d565b90600052602060002090601f016020900481019282611f685760008555611f2a565b82601f10611f815782800160ff19823516178555611f2a565b82800160010185558215611f2a579182015b82811115611f2a578235825591602001919060010190611f93565b5b80821115611f365760008155600101611faf565b600060208284031215611fd557600080fd5b5035919050565b60005b83811015611ff7578181015183820152602001611fdf565b83811115611d0f5750506000910152565b60008151808452612020816020860160208601611fdc565b601f01601f19169290920160200192915050565b60a08152600061204760a0830188612008565b6001600160a01b038716602084015285604084015284606084015282810360808401526120748185612008565b98975050505050505050565b634e487b7160e01b600052604160045260246000fd5b600067ffffffffffffffff808411156120b1576120b1612080565b604051601f8501601f19908116603f011681019082821181831017156120d9576120d9612080565b816040528093508581528686860111156120f257600080fd5b858560208301376000602087830101525050509392505050565b60006020828403121561211e57600080fd5b813567ffffffffffffffff81111561213557600080fd5b8201601f8101841361214657600080fd5b611e8484823560208401612096565b602081526000825160a0602084015261217160c0840182612008565b90506001600160a01b03602085015116604084015260408401516060840152606084015160808401526080840151601f198483030160a08501526121b58282612008565b95945050505050565b6001600160a01b0381168114610d3c57600080fd5b6000602082840312156121e557600080fd5b81356105b5816121be565b6000806040838503121561220357600080fd5b823561220e816121be565b9150602083013567ffffffffffffffff81111561222a57600080fd5b8301601f8101851361223b57600080fd5b61224a85823560208401612096565b9150509250929050565b60008083601f84011261226657600080fd5b50813567ffffffffffffffff81111561227e57600080fd5b60208301915083602082850101111561229657600080fd5b9250929050565b600080600080600080600060a0888a0312156122b857600080fd5b87359650602088013567ffffffffffffffff808211156122d757600080fd5b6122e38b838c01612254565b909850965060408a0135955060608a0135945060808a013591508082111561230a57600080fd5b506123178a828b01612254565b989b979a50959850939692959293505050565b6020815260006105b56020830184612008565b600181811c9082168061235157607f821691505b6020821081141561237257634e487b7160e01b600052602260045260246000fd5b50919050565b60006020828403121561238a57600080fd5b815180151581146105b557600080fd5b6040815260006123ad6040830185612008565b90508260208301529392505050565b6040815260006123cf6040830185612008565b82810360208401526121b58185612008565b6040815260006123f46040830185612008565b90506001600160a01b03831660208301529392505050565b60006020828403121561241e57600080fd5b5051919050565b60008251612437818460208701611fdc565b919091019291505056fe416464726573733a206c6f772d6c6576656c2064656c65676174652063616c6c206661696c6564a26469706673582212208df9100f5896a2fd0923f0d1e2e6df936b3dbc0a4e9681c73178b66e8dfa24b264736f6c634300080c0033",
  "devdoc": {
    "kind": "dev",
    "methods": {
      "computeTargetId(string)": {
        "params": {
          "_targetURI": "Unique resource identifier Target record points to."
        },
        "returns": {
          "_0": "Id of the potential Target record."
        }
      },
      "constructor": {
        "custom:oz-upgrades-unsafe-allow": "constructor"
      },
      "createTarget(string)": {
        "params": {
          "_targetURI": "URI passed in as string"
        },
        "returns": {
          "targetId": "Id of ETS Target record"
        }
      },
      "getOrCreateTargetId(string)": {
        "params": {
          "_targetURI": "URI passed in as string"
        },
        "returns": {
          "_0": "Id of ETS Target record"
        }
      },
      "getTargetById(uint256)": {
        "params": {
          "_targetId": "targetId uint computed from URI via computeTargetId()."
        },
        "returns": {
          "_0": "Target record."
        }
      },
      "getTargetByURI(string)": {
        "params": {
          "_targetURI": "Unique resource identifier Target record points to."
        },
        "returns": {
          "_0": "Target record."
        }
      },
      "proxiableUUID()": {
        "details": "Implementation of the ERC1822 {proxiableUUID} function. This returns the storage slot used by the implementation. It is used to validate the implementation's compatibility when performing an upgrade. IMPORTANT: A proxy pointing at a proxiable contract should not be considered proxiable itself, because this risks bricking a proxy that upgrades to it, by delegating to itself until out of gas. Thus it is critical that this function revert if invoked through a proxy. This is guaranteed by the `notDelegated` modifier."
      },
      "setAccessControls(address)": {
        "params": {
          "_accessControls": "Address of ETSAccessControls contract."
        }
      },
      "setEnrichTarget(address)": {
        "params": {
          "_etsEnrichTarget": "Address of ETSEnrichTarget contract."
        }
      },
      "targetExistsById(uint256)": {
        "params": {
          "_targetId": "targetId uint computed from URI via computeTargetId()."
        },
        "returns": {
          "_0": "true if Target record exists; false if not."
        }
      },
      "targetExistsByURI(string)": {
        "params": {
          "_targetURI": "Unique resource identifier Target record points to."
        },
        "returns": {
          "_0": "true if Target record exists; false if not."
        }
      },
      "updateTarget(uint256,string,uint256,uint256,string)": {
        "params": {
          "_arweaveTxId": "Arweave transaction ID of additional metadata for Target collected by ETSEnrichTarget API",
          "_enriched": "block timestamp when Target was last enriched",
          "_httpStatus": "https status of last response from ETSEnrichTarget API eg. \"404\", \"200\". defaults to 0",
          "_targetId": "Id of Target being updated.",
          "_targetURI": "Unique resource identifier Target points to."
        },
        "returns": {
          "success": "true when Target is successfully updated."
        }
      },
      "upgradeTo(address)": {
        "custom:oz-upgrades-unsafe-allow-reachable": "delegatecall",
        "details": "Upgrade the implementation of the proxy to `newImplementation`. Calls {_authorizeUpgrade}. Emits an {Upgraded} event."
      },
      "upgradeToAndCall(address,bytes)": {
        "custom:oz-upgrades-unsafe-allow-reachable": "delegatecall",
        "details": "Upgrade the implementation of the proxy to `newImplementation`, and subsequently execute the function call encoded in `data`. Calls {_authorizeUpgrade}. Emits an {Upgraded} event."
      }
    },
    "stateVariables": {
      "targets": {
        "details": "Map of targetId to Target struct."
      }
    },
    "version": 1
  },
  "userdoc": {
    "kind": "user",
    "methods": {
      "computeTargetId(string)": {
        "notice": "Function to deterministically compute & return a targetId. Every Target in ETS is mapped to by it's targetId. This Id is computed from the target URI sting hashed and cast as a uint256. Note: Function does not verify if Target record exists."
      },
      "createTarget(string)": {
        "notice": "Create a Target record and return it's targetId."
      },
      "getOrCreateTargetId(string)": {
        "notice": "Get ETS targetId from URI. Combo function that given a URI string will return it's ETS targetId if it exists, or create a new Target record and return corresponding targetId."
      },
      "getTargetById(uint256)": {
        "notice": "Retrieve a Target record for a computed targetId. Note: returns a struct with empty members when no Target exists."
      },
      "getTargetByURI(string)": {
        "notice": "Retrieve a Target record for a given URI string. Note: returns a struct with empty members when no Target exists."
      },
      "setAccessControls(address)": {
        "notice": "Sets ETSAccessControls on the ETSTarget contract so functions can be restricted to ETS platform only. Note Caller of this function must be deployer or pre-set as admin of new contract."
      },
      "setEnrichTarget(address)": {
        "notice": "Sets ETSEnrichTarget contract address so that Target metadata enrichment functions can be called from ETSTarget."
      },
      "targetExistsById(uint256)": {
        "notice": "Check that a Target record exists for a given computed targetId."
      },
      "targetExistsByURI(string)": {
        "notice": "Check that a Target record exists for a given URI string."
      },
      "updateTarget(uint256,string,uint256,uint256,string)": {
        "notice": "Update a Target record."
      }
    },
    "version": 1
  },
  "storageLayout": {
    "storage": [
      {
        "astId": 1154,
        "contract": "contracts/ETSTarget.sol:ETSTarget",
        "label": "_initialized",
        "offset": 0,
        "slot": "0",
        "type": "t_uint8"
      },
      {
        "astId": 1157,
        "contract": "contracts/ETSTarget.sol:ETSTarget",
        "label": "_initializing",
        "offset": 1,
        "slot": "0",
        "type": "t_bool"
      },
      {
        "astId": 1136,
        "contract": "contracts/ETSTarget.sol:ETSTarget",
        "label": "__gap",
        "offset": 0,
        "slot": "1",
        "type": "t_array(t_uint256)50_storage"
      },
      {
        "astId": 1452,
        "contract": "contracts/ETSTarget.sol:ETSTarget",
        "label": "__gap",
        "offset": 0,
        "slot": "51",
        "type": "t_array(t_uint256)50_storage"
      },
      {
        "astId": 9639,
        "contract": "contracts/ETSTarget.sol:ETSTarget",
        "label": "etsAccessControls",
        "offset": 0,
        "slot": "101",
        "type": "t_contract(IETSAccessControls)11854"
      },
      {
        "astId": 9642,
        "contract": "contracts/ETSTarget.sol:ETSTarget",
        "label": "etsEnrichTarget",
        "offset": 0,
        "slot": "102",
        "type": "t_contract(IETSEnrichTarget)12081"
      },
      {
        "astId": 9654,
        "contract": "contracts/ETSTarget.sol:ETSTarget",
        "label": "targets",
        "offset": 0,
        "slot": "103",
        "type": "t_mapping(t_uint256,t_struct(Target)12094_storage)"
      }
    ],
    "types": {
      "t_address": {
        "encoding": "inplace",
        "label": "address",
        "numberOfBytes": "20"
      },
      "t_array(t_uint256)50_storage": {
        "base": "t_uint256",
        "encoding": "inplace",
        "label": "uint256[50]",
        "numberOfBytes": "1600"
      },
      "t_bool": {
        "encoding": "inplace",
        "label": "bool",
        "numberOfBytes": "1"
      },
      "t_contract(IETSAccessControls)11854": {
        "encoding": "inplace",
        "label": "contract IETSAccessControls",
        "numberOfBytes": "20"
      },
      "t_contract(IETSEnrichTarget)12081": {
        "encoding": "inplace",
        "label": "contract IETSEnrichTarget",
        "numberOfBytes": "20"
      },
      "t_mapping(t_uint256,t_struct(Target)12094_storage)": {
        "encoding": "mapping",
        "key": "t_uint256",
        "label": "mapping(uint256 => struct IETSTarget.Target)",
        "numberOfBytes": "32",
        "value": "t_struct(Target)12094_storage"
      },
      "t_string_storage": {
        "encoding": "bytes",
        "label": "string",
        "numberOfBytes": "32"
      },
      "t_struct(Target)12094_storage": {
        "encoding": "inplace",
        "label": "struct IETSTarget.Target",
        "members": [
          {
            "astId": 12085,
            "contract": "contracts/ETSTarget.sol:ETSTarget",
            "label": "targetURI",
            "offset": 0,
            "slot": "0",
            "type": "t_string_storage"
          },
          {
            "astId": 12087,
            "contract": "contracts/ETSTarget.sol:ETSTarget",
            "label": "createdBy",
            "offset": 0,
            "slot": "1",
            "type": "t_address"
          },
          {
            "astId": 12089,
            "contract": "contracts/ETSTarget.sol:ETSTarget",
            "label": "enriched",
            "offset": 0,
            "slot": "2",
            "type": "t_uint256"
          },
          {
            "astId": 12091,
            "contract": "contracts/ETSTarget.sol:ETSTarget",
            "label": "httpStatus",
            "offset": 0,
            "slot": "3",
            "type": "t_uint256"
          },
          {
            "astId": 12093,
            "contract": "contracts/ETSTarget.sol:ETSTarget",
            "label": "arweaveTxId",
            "offset": 0,
            "slot": "4",
            "type": "t_string_storage"
          }
        ],
        "numberOfBytes": "160"
      },
      "t_uint256": {
        "encoding": "inplace",
        "label": "uint256",
        "numberOfBytes": "32"
      },
      "t_uint8": {
        "encoding": "inplace",
        "label": "uint8",
        "numberOfBytes": "1"
      }
    }
  }
}