{
  "_format": "hh-sol-artifact-1",
  "contractName": "ETSAccessControls",
  "sourceName": "contracts/core/ETSAccessControls.sol",
  "abi": [
    {
      "anonymous": false,
      "inputs": [
        {
          "indexed": false,
          "internalType": "address",
          "name": "previousAdmin",
          "type": "address"
        },
        {
          "indexed": false,
          "internalType": "address",
          "name": "newAdmin",
          "type": "address"
        }
      ],
      "name": "AdminChanged",
      "type": "event"
    },
    {
      "anonymous": false,
      "inputs": [
        {
          "indexed": true,
          "internalType": "address",
          "name": "beacon",
          "type": "address"
        }
      ],
      "name": "BeaconUpgraded",
      "type": "event"
    },
    {
      "anonymous": false,
      "inputs": [
        {
          "indexed": true,
          "internalType": "bytes32",
          "name": "role",
          "type": "bytes32"
        },
        {
          "indexed": true,
          "internalType": "bytes32",
          "name": "previousAdminRole",
          "type": "bytes32"
        },
        {
          "indexed": true,
          "internalType": "bytes32",
          "name": "newAdminRole",
          "type": "bytes32"
        }
      ],
      "name": "RoleAdminChanged",
      "type": "event"
    },
    {
      "anonymous": false,
      "inputs": [
        {
          "indexed": true,
          "internalType": "bytes32",
          "name": "role",
          "type": "bytes32"
        },
        {
          "indexed": true,
          "internalType": "address",
          "name": "account",
          "type": "address"
        },
        {
          "indexed": true,
          "internalType": "address",
          "name": "sender",
          "type": "address"
        }
      ],
      "name": "RoleGranted",
      "type": "event"
    },
    {
      "anonymous": false,
      "inputs": [
        {
          "indexed": true,
          "internalType": "bytes32",
          "name": "role",
          "type": "bytes32"
        },
        {
          "indexed": true,
          "internalType": "address",
          "name": "account",
          "type": "address"
        },
        {
          "indexed": true,
          "internalType": "address",
          "name": "sender",
          "type": "address"
        }
      ],
      "name": "RoleRevoked",
      "type": "event"
    },
    {
      "anonymous": false,
      "inputs": [
        {
          "indexed": false,
          "internalType": "bool",
          "name": "newValue",
          "type": "bool"
        }
      ],
      "name": "TargetTypePauseToggled",
      "type": "event"
    },
    {
      "anonymous": false,
      "inputs": [
        {
          "indexed": true,
          "internalType": "address",
          "name": "implementation",
          "type": "address"
        }
      ],
      "name": "Upgraded",
      "type": "event"
    },
    {
      "inputs": [],
      "name": "DEFAULT_ADMIN_ROLE",
      "outputs": [
        {
          "internalType": "bytes32",
          "name": "",
          "type": "bytes32"
        }
      ],
      "stateMutability": "view",
      "type": "function"
    },
    {
      "inputs": [],
      "name": "NAME",
      "outputs": [
        {
          "internalType": "string",
          "name": "",
          "type": "string"
        }
      ],
      "stateMutability": "view",
      "type": "function"
    },
    {
      "inputs": [],
      "name": "PUBLISHER_ROLE",
      "outputs": [
        {
          "internalType": "bytes32",
          "name": "",
          "type": "bytes32"
        }
      ],
      "stateMutability": "view",
      "type": "function"
    },
    {
      "inputs": [],
      "name": "SMART_CONTRACT_ROLE",
      "outputs": [
        {
          "internalType": "bytes32",
          "name": "",
          "type": "bytes32"
        }
      ],
      "stateMutability": "view",
      "type": "function"
    },
    {
      "inputs": [],
      "name": "TARGET_TYPE_ROLE",
      "outputs": [
        {
          "internalType": "bytes32",
          "name": "",
          "type": "bytes32"
        }
      ],
      "stateMutability": "view",
      "type": "function"
    },
    {
      "inputs": [],
      "name": "VERSION",
      "outputs": [
        {
          "internalType": "string",
          "name": "",
          "type": "string"
        }
      ],
      "stateMutability": "view",
      "type": "function"
    },
    {
      "inputs": [
        {
          "internalType": "address",
          "name": "_smartContract",
          "type": "address"
        },
        {
          "internalType": "string",
          "name": "_name",
          "type": "string"
        }
      ],
      "name": "addTargetType",
      "outputs": [],
      "stateMutability": "nonpayable",
      "type": "function"
    },
    {
      "inputs": [
        {
          "internalType": "bytes32",
          "name": "role",
          "type": "bytes32"
        }
      ],
      "name": "getRoleAdmin",
      "outputs": [
        {
          "internalType": "bytes32",
          "name": "",
          "type": "bytes32"
        }
      ],
      "stateMutability": "view",
      "type": "function"
    },
    {
      "inputs": [
        {
          "internalType": "bytes32",
          "name": "role",
          "type": "bytes32"
        },
        {
          "internalType": "address",
          "name": "account",
          "type": "address"
        }
      ],
      "name": "grantRole",
      "outputs": [],
      "stateMutability": "nonpayable",
      "type": "function"
    },
    {
      "inputs": [
        {
          "internalType": "bytes32",
          "name": "role",
          "type": "bytes32"
        },
        {
          "internalType": "address",
          "name": "account",
          "type": "address"
        }
      ],
      "name": "hasRole",
      "outputs": [
        {
          "internalType": "bool",
          "name": "",
          "type": "bool"
        }
      ],
      "stateMutability": "view",
      "type": "function"
    },
    {
      "inputs": [],
      "name": "initialize",
      "outputs": [],
      "stateMutability": "nonpayable",
      "type": "function"
    },
    {
      "inputs": [
        {
          "internalType": "address",
          "name": "_addr",
          "type": "address"
        }
      ],
      "name": "isAdmin",
      "outputs": [
        {
          "internalType": "bool",
          "name": "",
          "type": "bool"
        }
      ],
      "stateMutability": "view",
      "type": "function"
    },
    {
      "inputs": [
        {
          "internalType": "address",
          "name": "_addr",
          "type": "address"
        }
      ],
      "name": "isPublisher",
      "outputs": [
        {
          "internalType": "bool",
          "name": "",
          "type": "bool"
        }
      ],
      "stateMutability": "view",
      "type": "function"
    },
    {
      "inputs": [
        {
          "internalType": "address",
          "name": "_addr",
          "type": "address"
        }
      ],
      "name": "isSmartContract",
      "outputs": [
        {
          "internalType": "bool",
          "name": "",
          "type": "bool"
        }
      ],
      "stateMutability": "view",
      "type": "function"
    },
    {
      "inputs": [
        {
          "internalType": "address",
          "name": "_smartContract",
          "type": "address"
        }
      ],
      "name": "isTargetType",
      "outputs": [
        {
          "internalType": "bool",
          "name": "",
          "type": "bool"
        }
      ],
      "stateMutability": "view",
      "type": "function"
    },
    {
      "inputs": [
        {
          "internalType": "address",
          "name": "_smartContract",
          "type": "address"
        }
      ],
      "name": "isTargetTypeAndNotPaused",
      "outputs": [
        {
          "internalType": "bool",
          "name": "",
          "type": "bool"
        }
      ],
      "stateMutability": "view",
      "type": "function"
    },
    {
      "inputs": [
        {
          "internalType": "address",
          "name": "",
          "type": "address"
        }
      ],
      "name": "isTargetTypePaused",
      "outputs": [
        {
          "internalType": "bool",
          "name": "",
          "type": "bool"
        }
      ],
      "stateMutability": "view",
      "type": "function"
    },
    {
      "inputs": [
        {
          "internalType": "string",
          "name": "message",
          "type": "string"
        }
      ],
      "name": "postUpgrade",
      "outputs": [],
      "stateMutability": "view",
      "type": "function"
    },
    {
      "inputs": [
        {
          "internalType": "address",
          "name": "_smartContract",
          "type": "address"
        }
      ],
      "name": "removeTargetType",
      "outputs": [],
      "stateMutability": "nonpayable",
      "type": "function"
    },
    {
      "inputs": [
        {
          "internalType": "bytes32",
          "name": "role",
          "type": "bytes32"
        },
        {
          "internalType": "address",
          "name": "account",
          "type": "address"
        }
      ],
      "name": "renounceRole",
      "outputs": [],
      "stateMutability": "nonpayable",
      "type": "function"
    },
    {
      "inputs": [
        {
          "internalType": "bytes32",
          "name": "role",
          "type": "bytes32"
        },
        {
          "internalType": "address",
          "name": "account",
          "type": "address"
        }
      ],
      "name": "revokeRole",
      "outputs": [],
      "stateMutability": "nonpayable",
      "type": "function"
    },
    {
      "inputs": [
        {
          "internalType": "bytes4",
          "name": "interfaceId",
          "type": "bytes4"
        }
      ],
      "name": "supportsInterface",
      "outputs": [
        {
          "internalType": "bool",
          "name": "",
          "type": "bool"
        }
      ],
      "stateMutability": "view",
      "type": "function"
    },
    {
      "inputs": [
        {
          "internalType": "address",
          "name": "",
          "type": "address"
        }
      ],
      "name": "targetTypeContractName",
      "outputs": [
        {
          "internalType": "string",
          "name": "",
          "type": "string"
        }
      ],
      "stateMutability": "view",
      "type": "function"
    },
    {
      "inputs": [
        {
          "internalType": "string",
          "name": "",
          "type": "string"
        }
      ],
      "name": "targetTypeToContract",
      "outputs": [
        {
          "internalType": "address",
          "name": "",
          "type": "address"
        }
      ],
      "stateMutability": "view",
      "type": "function"
    },
    {
      "inputs": [
        {
          "internalType": "address",
          "name": "_smartContract",
          "type": "address"
        }
      ],
      "name": "toggleIsTargetTypePaused",
      "outputs": [],
      "stateMutability": "nonpayable",
      "type": "function"
    },
    {
      "inputs": [
        {
          "internalType": "address",
          "name": "newImplementation",
          "type": "address"
        }
      ],
      "name": "upgradeTo",
      "outputs": [],
      "stateMutability": "nonpayable",
      "type": "function"
    },
    {
      "inputs": [
        {
          "internalType": "address",
          "name": "newImplementation",
          "type": "address"
        },
        {
          "internalType": "bytes",
          "name": "data",
          "type": "bytes"
        }
      ],
      "name": "upgradeToAndCall",
      "outputs": [],
      "stateMutability": "payable",
      "type": "function"
    },
    {
      "inputs": [],
      "name": "upgraded",
      "outputs": [
        {
          "internalType": "string",
          "name": "",
          "type": "string"
        }
      ],
      "stateMutability": "pure",
      "type": "function"
    },
    {
      "inputs": [],
      "name": "version",
      "outputs": [
        {
          "internalType": "string",
          "name": "",
          "type": "string"
        }
      ],
      "stateMutability": "pure",
      "type": "function"
    }
  ],
  "bytecode": "0x60a06040523060601b60805234801561001757600080fd5b5060805160601c61207361004b60003960008181610a0601528181610a8b01528181610c3a0152610cbf01526120736000f3fe6080604052600436106101c25760003560e01c80638129fc1c116100f7578063ad8194f911610095578063c61c63dd11610064578063c61c63dd146105bd578063d547741f14610616578063d8f4b6fd14610636578063ffa1ad741461066a57600080fd5b8063ad8194f914610503578063b1441ce614610523578063b87dfff814610543578063c28de2cd1461057757600080fd5b8063a217fddf116100d1578063a217fddf14610465578063a3f4df7e1461047a578063a88ae5b6146104c3578063acaa4843146104e357600080fd5b80638129fc1c146103d6578063857d2608146103eb57806391d148541461041f57600080fd5b806336568abe1161016457806341859ac81161013e57806341859ac81461033c5780634f1ef2861461035c57806354fd4d501461036f57806380719e9b146103a657600080fd5b806336568abe146102dc5780633659cfe6146102fc5780634002649b1461031c57600080fd5b80632b04fd44116101a05780632b04fd441461025a5780632f2ff15d1461027a578063347308b21461029c578063360698dd146102bc57600080fd5b806301ffc9a7146101c7578063248a9ca3146101fc57806324d7806c1461023a575b600080fd5b3480156101d357600080fd5b506101e76101e2366004611c99565b61069b565b60405190151581526020015b60405180910390f35b34801561020857600080fd5b5061022c610217366004611c54565b60009081526065602052604090206001015490565b6040519081526020016101f3565b34801561024657600080fd5b506101e7610255366004611b62565b61071b565b34801561026657600080fd5b506101e7610275366004611b62565b61075b565b34801561028657600080fd5b5061029a610295366004611c6d565b61078d565b005b3480156102a857600080fd5b506101e76102b7366004611b62565b6107b8565b3480156102c857600080fd5b5061029a6102d7366004611bdf565b6107f8565b3480156102e857600080fd5b5061029a6102f7366004611c6d565b61096f565b34801561030857600080fd5b5061029a610317366004611b62565b6109fb565b34801561032857600080fd5b5061029a610337366004611b62565b610b77565b34801561034857600080fd5b506101e7610357366004611b62565b610bef565b61029a61036a366004611b7d565b610c2f565b34801561037b57600080fd5b50604080518082019091526005815264302e302e3160d81b60208201525b6040516101f39190611ee3565b3480156103b257600080fd5b506101e76103c1366004611b62565b60fd6020526000908152604090205460ff1681565b3480156103e257600080fd5b5061029a610d98565b3480156103f757600080fd5b5061022c7f5474431f81b75a7b45d74ffe5ff51964b4290ef4c86184accd4e4a9822dae90181565b34801561042b57600080fd5b506101e761043a366004611c6d565b60009182526065602090815260408084206001600160a01b0393909316845291905290205460ff1690565b34801561047157600080fd5b5061022c600081565b34801561048657600080fd5b506103996040518060400160405280601381526020017f4554532061636365737320636f6e74726f6c730000000000000000000000000081525081565b3480156104cf57600080fd5b506103996104de366004611b62565b610e72565b3480156104ef57600080fd5b5061029a6104fe366004611b62565b610f0c565b34801561050f57600080fd5b506101e761051e366004611b62565b610fa9565b34801561052f57600080fd5b5061029a61053e366004611cdb565b610fe9565b34801561054f57600080fd5b5061022c7f49788824bf3df159efd0827e0b1ab32ee6c80e17cb8efc4c39991f543bff32c281565b34801561058357600080fd5b5060408051808201909152600b81527f796f75206b6e6f772069740000000000000000000000000000000000000000006020820152610399565b3480156105c957600080fd5b506105fe6105d8366004611d1d565b805160208183018101805160fb825292820191909301209152546001600160a01b031681565b6040516001600160a01b0390911681526020016101f3565b34801561062257600080fd5b5061029a610631366004611c6d565b61106a565b34801561064257600080fd5b5061022c7fad312f08b8889cfe65ec2f1faae419f8b47f0153a3483ea6130918c055c8183d81565b34801561067657600080fd5b5061039960405180604001604052806005815260200164302e302e3160d81b81525081565b60007fffffffff0000000000000000000000000000000000000000000000000000000082167f7965db0b00000000000000000000000000000000000000000000000000000000148061071557506301ffc9a760e01b7fffffffff000000000000000000000000000000000000000000000000000000008316145b92915050565b6001600160a01b03811660009081527fffdfc1249c027f9191656349feb0761381bb32c9f557e01f419fd08754bf5a1b602052604081205460ff16610715565b600061076682610fa9565b80156107155750506001600160a01b0316600090815260fd602052604090205460ff161590565b6000828152606560205260409020600101546107a98133611090565b6107b38383611110565b505050565b6001600160a01b03811660009081527f1c575814e1cd24773b117fedd6b05ab4d9de98c6d9f60531a8ff9197b9c46f15602052604081205460ff16610715565b6040516301ffc9a760e01b81527fdb276bc10000000000000000000000000000000000000000000000000000000060048201526001600160a01b038416906301ffc9a79060240160206040518083038186803b15801561085757600080fd5b505afa15801561086b573d6000803e3d6000fd5b505050506040513d601f19601f8201168201806040525081019061088f9190611c32565b6108e05760405162461bcd60e51b815260206004820181905260248201527f526571756972656420696e74657266616365206e6f7420737570706f7274656460448201526064015b60405180910390fd5b8260fb83836040516108f3929190611db6565b9081526040805160209281900383019020805473ffffffffffffffffffffffffffffffffffffffff19166001600160a01b03948516179055918516600090815260fc909152206109449083836119b8565b506107b37f49788824bf3df159efd0827e0b1ab32ee6c80e17cb8efc4c39991f543bff32c28461078d565b6001600160a01b03811633146109ed5760405162461bcd60e51b815260206004820152602f60248201527f416363657373436f6e74726f6c3a2063616e206f6e6c792072656e6f756e636560448201527f20726f6c657320666f722073656c66000000000000000000000000000000000060648201526084016108d7565b6109f782826111b2565b5050565b306001600160a01b037f0000000000000000000000000000000000000000000000000000000000000000161415610a895760405162461bcd60e51b815260206004820152602c60248201527f46756e6374696f6e206d7573742062652063616c6c6564207468726f7567682060448201526b19195b1959d85d1958d85b1b60a21b60648201526084016108d7565b7f00000000000000000000000000000000000000000000000000000000000000006001600160a01b0316610ae47f360894a13ba1a3210667c828492db98dca3e2076cc3735a920a3ca505d382bbc546001600160a01b031690565b6001600160a01b031614610b4f5760405162461bcd60e51b815260206004820152602c60248201527f46756e6374696f6e206d7573742062652063616c6c6564207468726f7567682060448201526b6163746976652070726f787960a01b60648201526084016108d7565b610b5881611235565b60408051600080825260208201909252610b7491839190611241565b50565b6000610b838133611090565b6001600160a01b038216600090815260fd602052604090819020805460ff19811660ff9182161590811790925591517f02eb870a583fed745c819c6e6a52fd98f5169e4aa50176d734a823df34e0dfc792610be392161515815260200190565b60405180910390a15050565b6001600160a01b03811660009081527f539b586f55d61ee867945dc075fa8e91eca932ae00c1c0cc9cfa4eb32213b3aa602052604081205460ff16610715565b306001600160a01b037f0000000000000000000000000000000000000000000000000000000000000000161415610cbd5760405162461bcd60e51b815260206004820152602c60248201527f46756e6374696f6e206d7573742062652063616c6c6564207468726f7567682060448201526b19195b1959d85d1958d85b1b60a21b60648201526084016108d7565b7f00000000000000000000000000000000000000000000000000000000000000006001600160a01b0316610d187f360894a13ba1a3210667c828492db98dca3e2076cc3735a920a3ca505d382bbc546001600160a01b031690565b6001600160a01b031614610d835760405162461bcd60e51b815260206004820152602c60248201527f46756e6374696f6e206d7573742062652063616c6c6564207468726f7567682060448201526b6163746976652070726f787960a01b60648201526084016108d7565b610d8c82611235565b6109f782826001611241565b600054610100900460ff16610db35760005460ff1615610db7565b303b155b610e295760405162461bcd60e51b815260206004820152602e60248201527f496e697469616c697a61626c653a20636f6e747261637420697320616c72656160448201527f647920696e697469616c697a656400000000000000000000000000000000000060648201526084016108d7565b600054610100900460ff16158015610e4b576000805461ffff19166101011790555b610e53611405565b610e5e60003361148a565b8015610b74576000805461ff001916905550565b60fc6020526000908152604090208054610e8b90611f99565b80601f0160208091040260200160405190810160405280929190818152602001828054610eb790611f99565b8015610f045780601f10610ed957610100808354040283529160200191610f04565b820191906000526020600020905b815481529060010190602001808311610ee757829003601f168201915b505050505081565b6001600160a01b038116600090815260fc602052604090819020905160fb91610f3491611dc6565b9081526040805160209281900383019020805473ffffffffffffffffffffffffffffffffffffffff191690556001600160a01b038316600090815260fc9092528120610f7f91611a3c565b610b747f49788824bf3df159efd0827e0b1ab32ee6c80e17cb8efc4c39991f543bff32c28261106a565b6001600160a01b03811660009081527fdb769d1b4429d2f8156ee421364965c53afb7d906a13863a3ac435e08df26510602052604081205460ff16610715565b6000610ff58133611090565b6107b36040518060400160405280601a81526020017f455453416363657373436f6e74726f6c7320757067726164656400000000000081525084848080601f01602080910402602001604051908101604052809392919081815260200183838082843760009201919091525061149492505050565b6000828152606560205260409020600101546110868133611090565b6107b383836111b2565b60008281526065602090815260408083206001600160a01b038516845290915290205460ff166109f7576110ce816001600160a01b03166014611507565b6110d9836020611507565b6040516020016110ea929190611e62565b60408051601f198184030181529082905262461bcd60e51b82526108d791600401611ee3565b60008281526065602090815260408083206001600160a01b038516845290915290205460ff166109f75760008281526065602090815260408083206001600160a01b03851684529091529020805460ff1916600117905561116e3390565b6001600160a01b0316816001600160a01b0316837f2f8788117e7eff1d82e926ec794901d17c78024a50270940304540a733656f0d60405160405180910390a45050565b60008281526065602090815260408083206001600160a01b038516845290915290205460ff16156109f75760008281526065602090815260408083206001600160a01b0385168085529252808320805460ff1916905551339285917ff6391f5c32d9c69d2a47ea670b442974b53935d1edc7fd64eb21e047a839171b9190a45050565b60006109f78133611090565b60006112747f360894a13ba1a3210667c828492db98dca3e2076cc3735a920a3ca505d382bbc546001600160a01b031690565b905061127f846116ef565b60008351118061128c5750815b1561129d5761129b84846117b1565b505b7f4910fdfa16fed3260ed0e7147f7cc6da11a60208b5b9406d12a635614ffd9143805460ff166113fe57805460ff191660011781556040516001600160a01b038316602482015261134a90869060440160408051601f198184030181529190526020810180517bffffffffffffffffffffffffffffffffffffffffffffffffffffffff167f3659cfe6000000000000000000000000000000000000000000000000000000001790526117b1565b50805460ff191681557f360894a13ba1a3210667c828492db98dca3e2076cc3735a920a3ca505d382bbc546001600160a01b038381169116146113f55760405162461bcd60e51b815260206004820152602f60248201527f45524331393637557067726164653a207570677261646520627265616b73206660448201527f757274686572207570677261646573000000000000000000000000000000000060648201526084016108d7565b6113fe856118b3565b5050505050565b600054610100900460ff166114705760405162461bcd60e51b815260206004820152602b60248201527f496e697469616c697a61626c653a20636f6e7472616374206973206e6f74206960448201526a6e697469616c697a696e6760a81b60648201526084016108d7565b6114786118f3565b6114806118f3565b6114886118f3565b565b6109f78282611110565b6109f782826040516024016114aa929190611ef6565b60408051601f198184030181529190526020810180517bffffffffffffffffffffffffffffffffffffffffffffffffffffffff167f4b5c42770000000000000000000000000000000000000000000000000000000017905261195e565b60606000611516836002611f33565b611521906002611f1b565b67ffffffffffffffff81111561153957611539612000565b6040519080825280601f01601f191660200182016040528015611563576020820181803683370190505b5090507f30000000000000000000000000000000000000000000000000000000000000008160008151811061159a5761159a611fea565b60200101906001600160f81b031916908160001a9053507f7800000000000000000000000000000000000000000000000000000000000000816001815181106115e5576115e5611fea565b60200101906001600160f81b031916908160001a9053506000611609846002611f33565b611614906001611f1b565b90505b6001811115611699577f303132333435363738396162636465660000000000000000000000000000000085600f166010811061165557611655611fea565b1a60f81b82828151811061166b5761166b611fea565b60200101906001600160f81b031916908160001a90535060049490941c9361169281611f82565b9050611617565b5083156116e85760405162461bcd60e51b815260206004820181905260248201527f537472696e67733a20686578206c656e67746820696e73756666696369656e7460448201526064016108d7565b9392505050565b803b6117635760405162461bcd60e51b815260206004820152602d60248201527f455243313936373a206e657720696d706c656d656e746174696f6e206973206e60448201527f6f74206120636f6e74726163740000000000000000000000000000000000000060648201526084016108d7565b7f360894a13ba1a3210667c828492db98dca3e2076cc3735a920a3ca505d382bbc805473ffffffffffffffffffffffffffffffffffffffff19166001600160a01b0392909216919091179055565b6060823b6118275760405162461bcd60e51b815260206004820152602660248201527f416464726573733a2064656c65676174652063616c6c20746f206e6f6e2d636f60448201527f6e7472616374000000000000000000000000000000000000000000000000000060648201526084016108d7565b600080846001600160a01b0316846040516118429190611d9a565b600060405180830381855af49150503d806000811461187d576040519150601f19603f3d011682016040523d82523d6000602084013e611882565b606091505b50915091506118aa82826040518060600160405280602781526020016120176027913961197f565b95945050505050565b6118bc816116ef565b6040516001600160a01b038216907fbc7cd75a20ee27fd9adebab32041f755214dbc6bffa90cc0225b39da2e5c2d3b90600090a250565b600054610100900460ff166114885760405162461bcd60e51b815260206004820152602b60248201527f496e697469616c697a61626c653a20636f6e7472616374206973206e6f74206960448201526a6e697469616c697a696e6760a81b60648201526084016108d7565b80516a636f6e736f6c652e6c6f67602083016000808483855afa5050505050565b6060831561198e5750816116e8565b82511561199e5782518084602001fd5b8160405162461bcd60e51b81526004016108d79190611ee3565b8280546119c490611f99565b90600052602060002090601f0160209004810192826119e65760008555611a2c565b82601f106119ff5782800160ff19823516178555611a2c565b82800160010185558215611a2c579182015b82811115611a2c578235825591602001919060010190611a11565b50611a38929150611a72565b5090565b508054611a4890611f99565b6000825580601f10611a58575050565b601f016020900490600052602060002090810190610b7491905b5b80821115611a385760008155600101611a73565b600067ffffffffffffffff80841115611aa257611aa2612000565b604051601f8501601f19908116603f01168101908282118183101715611aca57611aca612000565b81604052809350858152868686011115611ae357600080fd5b858560208301376000602087830101525050509392505050565b80356001600160a01b0381168114611b1457600080fd5b919050565b60008083601f840112611b2b57600080fd5b50813567ffffffffffffffff811115611b4357600080fd5b602083019150836020828501011115611b5b57600080fd5b9250929050565b600060208284031215611b7457600080fd5b6116e882611afd565b60008060408385031215611b9057600080fd5b611b9983611afd565b9150602083013567ffffffffffffffff811115611bb557600080fd5b8301601f81018513611bc657600080fd5b611bd585823560208401611a87565b9150509250929050565b600080600060408486031215611bf457600080fd5b611bfd84611afd565b9250602084013567ffffffffffffffff811115611c1957600080fd5b611c2586828701611b19565b9497909650939450505050565b600060208284031215611c4457600080fd5b815180151581146116e857600080fd5b600060208284031215611c6657600080fd5b5035919050565b60008060408385031215611c8057600080fd5b82359150611c9060208401611afd565b90509250929050565b600060208284031215611cab57600080fd5b81357fffffffff00000000000000000000000000000000000000000000000000000000811681146116e857600080fd5b60008060208385031215611cee57600080fd5b823567ffffffffffffffff811115611d0557600080fd5b611d1185828601611b19565b90969095509350505050565b600060208284031215611d2f57600080fd5b813567ffffffffffffffff811115611d4657600080fd5b8201601f81018413611d5757600080fd5b611d6684823560208401611a87565b949350505050565b60008151808452611d86816020860160208601611f52565b601f01601f19169290920160200192915050565b60008251611dac818460208701611f52565b9190910192915050565b8183823760009101908152919050565b600080835481600182811c915080831680611de257607f831692505b6020808410821415611e0257634e487b7160e01b86526022600452602486fd5b818015611e165760018114611e2757611e54565b60ff19861689528489019650611e54565b60008a81526020902060005b86811015611e4c5781548b820152908501908301611e33565b505084890196505b509498975050505050505050565b7f416363657373436f6e74726f6c3a206163636f756e7420000000000000000000815260008351611e9a816017850160208801611f52565b7f206973206d697373696e6720726f6c65200000000000000000000000000000006017918401918201528351611ed7816028840160208801611f52565b01602801949350505050565b6020815260006116e86020830184611d6e565b604081526000611f096040830185611d6e565b82810360208401526118aa8185611d6e565b60008219821115611f2e57611f2e611fd4565b500190565b6000816000190483118215151615611f4d57611f4d611fd4565b500290565b60005b83811015611f6d578181015183820152602001611f55565b83811115611f7c576000848401525b50505050565b600081611f9157611f91611fd4565b506000190190565b600181811c90821680611fad57607f821691505b60208210811415611fce57634e487b7160e01b600052602260045260246000fd5b50919050565b634e487b7160e01b600052601160045260246000fd5b634e487b7160e01b600052603260045260246000fd5b634e487b7160e01b600052604160045260246000fdfe416464726573733a206c6f772d6c6576656c2064656c65676174652063616c6c206661696c6564a264697066735822122086f3613e375e7aa474b5844fe2de4424dd641464cea42396572fda8a6b6982e564736f6c63430008070033",
  "linkReferences": {},
  "deployedLinkReferences": {}
}