{
  "_format": "hh-sol-artifact-1",
  "contractName": "ETSAccessControls",
  "sourceName": "contracts/core/ETSAccessControls.sol",
  "abi": [
    {
      "anonymous": false,
      "inputs": [
        {
          "indexed": false,
          "internalType": "address",
          "name": "previousAdmin",
          "type": "address"
        },
        {
          "indexed": false,
          "internalType": "address",
          "name": "newAdmin",
          "type": "address"
        }
      ],
      "name": "AdminChanged",
      "type": "event"
    },
    {
      "anonymous": false,
      "inputs": [
        {
          "indexed": true,
          "internalType": "address",
          "name": "beacon",
          "type": "address"
        }
      ],
      "name": "BeaconUpgraded",
      "type": "event"
    },
    {
      "anonymous": false,
      "inputs": [
        {
          "indexed": true,
          "internalType": "bytes32",
          "name": "role",
          "type": "bytes32"
        },
        {
          "indexed": true,
          "internalType": "bytes32",
          "name": "previousAdminRole",
          "type": "bytes32"
        },
        {
          "indexed": true,
          "internalType": "bytes32",
          "name": "newAdminRole",
          "type": "bytes32"
        }
      ],
      "name": "RoleAdminChanged",
      "type": "event"
    },
    {
      "anonymous": false,
      "inputs": [
        {
          "indexed": true,
          "internalType": "bytes32",
          "name": "role",
          "type": "bytes32"
        },
        {
          "indexed": true,
          "internalType": "address",
          "name": "account",
          "type": "address"
        },
        {
          "indexed": true,
          "internalType": "address",
          "name": "sender",
          "type": "address"
        }
      ],
      "name": "RoleGranted",
      "type": "event"
    },
    {
      "anonymous": false,
      "inputs": [
        {
          "indexed": true,
          "internalType": "bytes32",
          "name": "role",
          "type": "bytes32"
        },
        {
          "indexed": true,
          "internalType": "address",
          "name": "account",
          "type": "address"
        },
        {
          "indexed": true,
          "internalType": "address",
          "name": "sender",
          "type": "address"
        }
      ],
      "name": "RoleRevoked",
      "type": "event"
    },
    {
      "anonymous": false,
      "inputs": [
        {
          "indexed": false,
          "internalType": "bool",
          "name": "newValue",
          "type": "bool"
        }
      ],
      "name": "TargetTypePauseToggled",
      "type": "event"
    },
    {
      "anonymous": false,
      "inputs": [
        {
          "indexed": true,
          "internalType": "address",
          "name": "implementation",
          "type": "address"
        }
      ],
      "name": "Upgraded",
      "type": "event"
    },
    {
      "inputs": [],
      "name": "DEFAULT_ADMIN_ROLE",
      "outputs": [
        {
          "internalType": "bytes32",
          "name": "",
          "type": "bytes32"
        }
      ],
      "stateMutability": "view",
      "type": "function"
    },
    {
      "inputs": [],
      "name": "NAME",
      "outputs": [
        {
          "internalType": "string",
          "name": "",
          "type": "string"
        }
      ],
      "stateMutability": "view",
      "type": "function"
    },
    {
      "inputs": [],
      "name": "PUBLISHER_ROLE",
      "outputs": [
        {
          "internalType": "bytes32",
          "name": "",
          "type": "bytes32"
        }
      ],
      "stateMutability": "view",
      "type": "function"
    },
    {
      "inputs": [],
      "name": "SMART_CONTRACT_ROLE",
      "outputs": [
        {
          "internalType": "bytes32",
          "name": "",
          "type": "bytes32"
        }
      ],
      "stateMutability": "view",
      "type": "function"
    },
    {
      "inputs": [],
      "name": "TARGET_TYPE_ROLE",
      "outputs": [
        {
          "internalType": "bytes32",
          "name": "",
          "type": "bytes32"
        }
      ],
      "stateMutability": "view",
      "type": "function"
    },
    {
      "inputs": [],
      "name": "VERSION",
      "outputs": [
        {
          "internalType": "string",
          "name": "",
          "type": "string"
        }
      ],
      "stateMutability": "view",
      "type": "function"
    },
    {
      "inputs": [
        {
          "internalType": "address",
          "name": "_smartContract",
          "type": "address"
        },
        {
          "internalType": "string",
          "name": "_name",
          "type": "string"
        }
      ],
      "name": "addTargetType",
      "outputs": [],
      "stateMutability": "nonpayable",
      "type": "function"
    },
    {
      "inputs": [
        {
          "internalType": "bytes32",
          "name": "role",
          "type": "bytes32"
        }
      ],
      "name": "getRoleAdmin",
      "outputs": [
        {
          "internalType": "bytes32",
          "name": "",
          "type": "bytes32"
        }
      ],
      "stateMutability": "view",
      "type": "function"
    },
    {
      "inputs": [
        {
          "internalType": "bytes32",
          "name": "role",
          "type": "bytes32"
        },
        {
          "internalType": "address",
          "name": "account",
          "type": "address"
        }
      ],
      "name": "grantRole",
      "outputs": [],
      "stateMutability": "nonpayable",
      "type": "function"
    },
    {
      "inputs": [
        {
          "internalType": "bytes32",
          "name": "role",
          "type": "bytes32"
        },
        {
          "internalType": "address",
          "name": "account",
          "type": "address"
        }
      ],
      "name": "hasRole",
      "outputs": [
        {
          "internalType": "bool",
          "name": "",
          "type": "bool"
        }
      ],
      "stateMutability": "view",
      "type": "function"
    },
    {
      "inputs": [],
      "name": "initialize",
      "outputs": [],
      "stateMutability": "nonpayable",
      "type": "function"
    },
    {
      "inputs": [
        {
          "internalType": "address",
          "name": "_addr",
          "type": "address"
        }
      ],
      "name": "isAdmin",
      "outputs": [
        {
          "internalType": "bool",
          "name": "",
          "type": "bool"
        }
      ],
      "stateMutability": "view",
      "type": "function"
    },
    {
      "inputs": [
        {
          "internalType": "address",
          "name": "_addr",
          "type": "address"
        }
      ],
      "name": "isPublisher",
      "outputs": [
        {
          "internalType": "bool",
          "name": "",
          "type": "bool"
        }
      ],
      "stateMutability": "view",
      "type": "function"
    },
    {
      "inputs": [
        {
          "internalType": "address",
          "name": "_addr",
          "type": "address"
        }
      ],
      "name": "isSmartContract",
      "outputs": [
        {
          "internalType": "bool",
          "name": "",
          "type": "bool"
        }
      ],
      "stateMutability": "view",
      "type": "function"
    },
    {
      "inputs": [
        {
          "internalType": "address",
          "name": "_smartContract",
          "type": "address"
        }
      ],
      "name": "isTargetType",
      "outputs": [
        {
          "internalType": "bool",
          "name": "",
          "type": "bool"
        }
      ],
      "stateMutability": "view",
      "type": "function"
    },
    {
      "inputs": [
        {
          "internalType": "address",
          "name": "_smartContract",
          "type": "address"
        }
      ],
      "name": "isTargetTypeAndNotPaused",
      "outputs": [
        {
          "internalType": "bool",
          "name": "",
          "type": "bool"
        }
      ],
      "stateMutability": "view",
      "type": "function"
    },
    {
      "inputs": [
        {
          "internalType": "address",
          "name": "",
          "type": "address"
        }
      ],
      "name": "isTargetTypePaused",
      "outputs": [
        {
          "internalType": "bool",
          "name": "",
          "type": "bool"
        }
      ],
      "stateMutability": "view",
      "type": "function"
    },
    {
      "inputs": [
        {
          "internalType": "address",
          "name": "_smartContract",
          "type": "address"
        }
      ],
      "name": "removeTargetType",
      "outputs": [],
      "stateMutability": "nonpayable",
      "type": "function"
    },
    {
      "inputs": [
        {
          "internalType": "bytes32",
          "name": "role",
          "type": "bytes32"
        },
        {
          "internalType": "address",
          "name": "account",
          "type": "address"
        }
      ],
      "name": "renounceRole",
      "outputs": [],
      "stateMutability": "nonpayable",
      "type": "function"
    },
    {
      "inputs": [
        {
          "internalType": "bytes32",
          "name": "role",
          "type": "bytes32"
        },
        {
          "internalType": "address",
          "name": "account",
          "type": "address"
        }
      ],
      "name": "revokeRole",
      "outputs": [],
      "stateMutability": "nonpayable",
      "type": "function"
    },
    {
      "inputs": [
        {
          "internalType": "bytes4",
          "name": "interfaceId",
          "type": "bytes4"
        }
      ],
      "name": "supportsInterface",
      "outputs": [
        {
          "internalType": "bool",
          "name": "",
          "type": "bool"
        }
      ],
      "stateMutability": "view",
      "type": "function"
    },
    {
      "inputs": [
        {
          "internalType": "address",
          "name": "",
          "type": "address"
        }
      ],
      "name": "targetTypeContractName",
      "outputs": [
        {
          "internalType": "string",
          "name": "",
          "type": "string"
        }
      ],
      "stateMutability": "view",
      "type": "function"
    },
    {
      "inputs": [
        {
          "internalType": "string",
          "name": "",
          "type": "string"
        }
      ],
      "name": "targetTypeToContract",
      "outputs": [
        {
          "internalType": "address",
          "name": "",
          "type": "address"
        }
      ],
      "stateMutability": "view",
      "type": "function"
    },
    {
      "inputs": [
        {
          "internalType": "address",
          "name": "_smartContract",
          "type": "address"
        }
      ],
      "name": "toggleIsTargetTypePaused",
      "outputs": [],
      "stateMutability": "nonpayable",
      "type": "function"
    },
    {
      "inputs": [
        {
          "internalType": "address",
          "name": "newImplementation",
          "type": "address"
        }
      ],
      "name": "upgradeTo",
      "outputs": [],
      "stateMutability": "nonpayable",
      "type": "function"
    },
    {
      "inputs": [
        {
          "internalType": "address",
          "name": "newImplementation",
          "type": "address"
        },
        {
          "internalType": "bytes",
          "name": "data",
          "type": "bytes"
        }
      ],
      "name": "upgradeToAndCall",
      "outputs": [],
      "stateMutability": "payable",
      "type": "function"
    },
    {
      "inputs": [],
      "name": "version",
      "outputs": [
        {
          "internalType": "string",
          "name": "",
          "type": "string"
        }
      ],
      "stateMutability": "pure",
      "type": "function"
    }
  ],
  "bytecode": "0x60a06040523060601b60805234801561001757600080fd5b5060805160601c611e5661004b6000396000818161098a01528181610a0f01528181610bbe0152610c430152611e566000f3fe6080604052600436106101ac5760003560e01c806380719e9b116100ec578063acaa48431161008a578063c61c63dd11610064578063c61c63dd14610541578063d547741f1461059a578063d8f4b6fd146105ba578063ffa1ad74146105ee57600080fd5b8063acaa4843146104cd578063ad8194f9146104ed578063b87dfff81461050d57600080fd5b806391d14854116100c657806391d1485414610409578063a217fddf1461044f578063a3f4df7e14610464578063a88ae5b6146104ad57600080fd5b806380719e9b146103905780638129fc1c146103c0578063857d2608146103d557600080fd5b8063360698dd116101595780634002649b116101335780634002649b1461030657806341859ac8146103265780634f1ef2861461034657806354fd4d501461035957600080fd5b8063360698dd146102a657806336568abe146102c65780633659cfe6146102e657600080fd5b80632b04fd441161018a5780632b04fd44146102445780632f2ff15d14610264578063347308b21461028657600080fd5b806301ffc9a7146101b1578063248a9ca3146101e657806324d7806c14610224575b600080fd5b3480156101bd57600080fd5b506101d16101cc366004611aef565b61061f565b60405190151581526020015b60405180910390f35b3480156101f257600080fd5b50610216610201366004611aaa565b60009081526065602052604090206001015490565b6040519081526020016101dd565b34801561023057600080fd5b506101d161023f366004611988565b61069f565b34801561025057600080fd5b506101d161025f366004611988565b6106df565b34801561027057600080fd5b5061028461027f366004611ac3565b610711565b005b34801561029257600080fd5b506101d16102a1366004611988565b61073c565b3480156102b257600080fd5b506102846102c1366004611a05565b61077c565b3480156102d257600080fd5b506102846102e1366004611ac3565b6108f3565b3480156102f257600080fd5b50610284610301366004611988565b61097f565b34801561031257600080fd5b50610284610321366004611988565b610afb565b34801561033257600080fd5b506101d1610341366004611988565b610b73565b6102846103543660046119a3565b610bb3565b34801561036557600080fd5b50604080518082019091526005815264302e302e3160d81b60208201525b6040516101dd9190611ccb565b34801561039c57600080fd5b506101d16103ab366004611988565b60fd6020526000908152604090205460ff1681565b3480156103cc57600080fd5b50610284610d1c565b3480156103e157600080fd5b506102167f5474431f81b75a7b45d74ffe5ff51964b4290ef4c86184accd4e4a9822dae90181565b34801561041557600080fd5b506101d1610424366004611ac3565b60009182526065602090815260408084206001600160a01b0393909316845291905290205460ff1690565b34801561045b57600080fd5b50610216600081565b34801561047057600080fd5b506103836040518060400160405280601381526020017f4554532061636365737320636f6e74726f6c730000000000000000000000000081525081565b3480156104b957600080fd5b506103836104c8366004611988565b610df6565b3480156104d957600080fd5b506102846104e8366004611988565b610e90565b3480156104f957600080fd5b506101d1610508366004611988565b610f2d565b34801561051957600080fd5b506102167f49788824bf3df159efd0827e0b1ab32ee6c80e17cb8efc4c39991f543bff32c281565b34801561054d57600080fd5b5061058261055c366004611b31565b805160208183018101805160fb825292820191909301209152546001600160a01b031681565b6040516001600160a01b0390911681526020016101dd565b3480156105a657600080fd5b506102846105b5366004611ac3565b610f6d565b3480156105c657600080fd5b506102167fad312f08b8889cfe65ec2f1faae419f8b47f0153a3483ea6130918c055c8183d81565b3480156105fa57600080fd5b5061038360405180604001604052806005815260200164302e302e3160d81b81525081565b60007fffffffff0000000000000000000000000000000000000000000000000000000082167f7965db0b00000000000000000000000000000000000000000000000000000000148061069957506301ffc9a760e01b7fffffffff000000000000000000000000000000000000000000000000000000008316145b92915050565b6001600160a01b03811660009081527fffdfc1249c027f9191656349feb0761381bb32c9f557e01f419fd08754bf5a1b602052604081205460ff16610699565b60006106ea82610f2d565b80156106995750506001600160a01b0316600090815260fd602052604090205460ff161590565b60008281526065602052604090206001015461072d8133610f93565b6107378383611013565b505050565b6001600160a01b03811660009081527f1c575814e1cd24773b117fedd6b05ab4d9de98c6d9f60531a8ff9197b9c46f15602052604081205460ff16610699565b6040516301ffc9a760e01b81527fdb276bc10000000000000000000000000000000000000000000000000000000060048201526001600160a01b038416906301ffc9a79060240160206040518083038186803b1580156107db57600080fd5b505afa1580156107ef573d6000803e3d6000fd5b505050506040513d601f19601f820116820180604052508101906108139190611a88565b6108645760405162461bcd60e51b815260206004820181905260248201527f526571756972656420696e74657266616365206e6f7420737570706f7274656460448201526064015b60405180910390fd5b8260fb8383604051610877929190611b9e565b9081526040805160209281900383019020805473ffffffffffffffffffffffffffffffffffffffff19166001600160a01b03948516179055918516600090815260fc909152206108c8908383611827565b506107377f49788824bf3df159efd0827e0b1ab32ee6c80e17cb8efc4c39991f543bff32c284610711565b6001600160a01b03811633146109715760405162461bcd60e51b815260206004820152602f60248201527f416363657373436f6e74726f6c3a2063616e206f6e6c792072656e6f756e636560448201527f20726f6c657320666f722073656c660000000000000000000000000000000000606482015260840161085b565b61097b82826110b5565b5050565b306001600160a01b037f0000000000000000000000000000000000000000000000000000000000000000161415610a0d5760405162461bcd60e51b815260206004820152602c60248201527f46756e6374696f6e206d7573742062652063616c6c6564207468726f7567682060448201526b19195b1959d85d1958d85b1b60a21b606482015260840161085b565b7f00000000000000000000000000000000000000000000000000000000000000006001600160a01b0316610a687f360894a13ba1a3210667c828492db98dca3e2076cc3735a920a3ca505d382bbc546001600160a01b031690565b6001600160a01b031614610ad35760405162461bcd60e51b815260206004820152602c60248201527f46756e6374696f6e206d7573742062652063616c6c6564207468726f7567682060448201526b6163746976652070726f787960a01b606482015260840161085b565b610adc81611138565b60408051600080825260208201909252610af891839190611144565b50565b6000610b078133610f93565b6001600160a01b038216600090815260fd602052604090819020805460ff19811660ff9182161590811790925591517f02eb870a583fed745c819c6e6a52fd98f5169e4aa50176d734a823df34e0dfc792610b6792161515815260200190565b60405180910390a15050565b6001600160a01b03811660009081527f539b586f55d61ee867945dc075fa8e91eca932ae00c1c0cc9cfa4eb32213b3aa602052604081205460ff16610699565b306001600160a01b037f0000000000000000000000000000000000000000000000000000000000000000161415610c415760405162461bcd60e51b815260206004820152602c60248201527f46756e6374696f6e206d7573742062652063616c6c6564207468726f7567682060448201526b19195b1959d85d1958d85b1b60a21b606482015260840161085b565b7f00000000000000000000000000000000000000000000000000000000000000006001600160a01b0316610c9c7f360894a13ba1a3210667c828492db98dca3e2076cc3735a920a3ca505d382bbc546001600160a01b031690565b6001600160a01b031614610d075760405162461bcd60e51b815260206004820152602c60248201527f46756e6374696f6e206d7573742062652063616c6c6564207468726f7567682060448201526b6163746976652070726f787960a01b606482015260840161085b565b610d1082611138565b61097b82826001611144565b600054610100900460ff16610d375760005460ff1615610d3b565b303b155b610dad5760405162461bcd60e51b815260206004820152602e60248201527f496e697469616c697a61626c653a20636f6e747261637420697320616c72656160448201527f647920696e697469616c697a6564000000000000000000000000000000000000606482015260840161085b565b600054610100900460ff16158015610dcf576000805461ffff19166101011790555b610dd7611308565b610de260003361138d565b8015610af8576000805461ff001916905550565b60fc6020526000908152604090208054610e0f90611d7c565b80601f0160208091040260200160405190810160405280929190818152602001828054610e3b90611d7c565b8015610e885780601f10610e5d57610100808354040283529160200191610e88565b820191906000526020600020905b815481529060010190602001808311610e6b57829003601f168201915b505050505081565b6001600160a01b038116600090815260fc602052604090819020905160fb91610eb891611bae565b9081526040805160209281900383019020805473ffffffffffffffffffffffffffffffffffffffff191690556001600160a01b038316600090815260fc9092528120610f03916118ab565b610af87f49788824bf3df159efd0827e0b1ab32ee6c80e17cb8efc4c39991f543bff32c282610f6d565b6001600160a01b03811660009081527fdb769d1b4429d2f8156ee421364965c53afb7d906a13863a3ac435e08df26510602052604081205460ff16610699565b600082815260656020526040902060010154610f898133610f93565b61073783836110b5565b60008281526065602090815260408083206001600160a01b038516845290915290205460ff1661097b57610fd1816001600160a01b03166014611397565b610fdc836020611397565b604051602001610fed929190611c4a565b60408051601f198184030181529082905262461bcd60e51b825261085b91600401611ccb565b60008281526065602090815260408083206001600160a01b038516845290915290205460ff1661097b5760008281526065602090815260408083206001600160a01b03851684529091529020805460ff191660011790556110713390565b6001600160a01b0316816001600160a01b0316837f2f8788117e7eff1d82e926ec794901d17c78024a50270940304540a733656f0d60405160405180910390a45050565b60008281526065602090815260408083206001600160a01b038516845290915290205460ff161561097b5760008281526065602090815260408083206001600160a01b0385168085529252808320805460ff1916905551339285917ff6391f5c32d9c69d2a47ea670b442974b53935d1edc7fd64eb21e047a839171b9190a45050565b600061097b8133610f93565b60006111777f360894a13ba1a3210667c828492db98dca3e2076cc3735a920a3ca505d382bbc546001600160a01b031690565b90506111828461157f565b60008351118061118f5750815b156111a05761119e8484611641565b505b7f4910fdfa16fed3260ed0e7147f7cc6da11a60208b5b9406d12a635614ffd9143805460ff1661130157805460ff191660011781556040516001600160a01b038316602482015261124d90869060440160408051601f198184030181529190526020810180517bffffffffffffffffffffffffffffffffffffffffffffffffffffffff167f3659cfe600000000000000000000000000000000000000000000000000000000179052611641565b50805460ff191681557f360894a13ba1a3210667c828492db98dca3e2076cc3735a920a3ca505d382bbc546001600160a01b038381169116146112f85760405162461bcd60e51b815260206004820152602f60248201527f45524331393637557067726164653a207570677261646520627265616b73206660448201527f7572746865722075706772616465730000000000000000000000000000000000606482015260840161085b565b61130185611743565b5050505050565b600054610100900460ff166113735760405162461bcd60e51b815260206004820152602b60248201527f496e697469616c697a61626c653a20636f6e7472616374206973206e6f74206960448201526a6e697469616c697a696e6760a81b606482015260840161085b565b61137b611783565b611383611783565b61138b611783565b565b61097b8282611013565b606060006113a6836002611d16565b6113b1906002611cfe565b67ffffffffffffffff8111156113c9576113c9611de3565b6040519080825280601f01601f1916602001820160405280156113f3576020820181803683370190505b5090507f30000000000000000000000000000000000000000000000000000000000000008160008151811061142a5761142a611dcd565b60200101906001600160f81b031916908160001a9053507f78000000000000000000000000000000000000000000000000000000000000008160018151811061147557611475611dcd565b60200101906001600160f81b031916908160001a9053506000611499846002611d16565b6114a4906001611cfe565b90505b6001811115611529577f303132333435363738396162636465660000000000000000000000000000000085600f16601081106114e5576114e5611dcd565b1a60f81b8282815181106114fb576114fb611dcd565b60200101906001600160f81b031916908160001a90535060049490941c9361152281611d65565b90506114a7565b5083156115785760405162461bcd60e51b815260206004820181905260248201527f537472696e67733a20686578206c656e67746820696e73756666696369656e74604482015260640161085b565b9392505050565b803b6115f35760405162461bcd60e51b815260206004820152602d60248201527f455243313936373a206e657720696d706c656d656e746174696f6e206973206e60448201527f6f74206120636f6e747261637400000000000000000000000000000000000000606482015260840161085b565b7f360894a13ba1a3210667c828492db98dca3e2076cc3735a920a3ca505d382bbc805473ffffffffffffffffffffffffffffffffffffffff19166001600160a01b0392909216919091179055565b6060823b6116b75760405162461bcd60e51b815260206004820152602660248201527f416464726573733a2064656c65676174652063616c6c20746f206e6f6e2d636f60448201527f6e74726163740000000000000000000000000000000000000000000000000000606482015260840161085b565b600080846001600160a01b0316846040516116d29190611b82565b600060405180830381855af49150503d806000811461170d576040519150601f19603f3d011682016040523d82523d6000602084013e611712565b606091505b509150915061173a8282604051806060016040528060278152602001611dfa602791396117ee565b95945050505050565b61174c8161157f565b6040516001600160a01b038216907fbc7cd75a20ee27fd9adebab32041f755214dbc6bffa90cc0225b39da2e5c2d3b90600090a250565b600054610100900460ff1661138b5760405162461bcd60e51b815260206004820152602b60248201527f496e697469616c697a61626c653a20636f6e7472616374206973206e6f74206960448201526a6e697469616c697a696e6760a81b606482015260840161085b565b606083156117fd575081611578565b82511561180d5782518084602001fd5b8160405162461bcd60e51b815260040161085b9190611ccb565b82805461183390611d7c565b90600052602060002090601f016020900481019282611855576000855561189b565b82601f1061186e5782800160ff1982351617855561189b565b8280016001018555821561189b579182015b8281111561189b578235825591602001919060010190611880565b506118a79291506118e1565b5090565b5080546118b790611d7c565b6000825580601f106118c7575050565b601f016020900490600052602060002090810190610af891905b5b808211156118a757600081556001016118e2565b600067ffffffffffffffff8084111561191157611911611de3565b604051601f8501601f19908116603f0116810190828211818310171561193957611939611de3565b8160405280935085815286868601111561195257600080fd5b858560208301376000602087830101525050509392505050565b80356001600160a01b038116811461198357600080fd5b919050565b60006020828403121561199a57600080fd5b6115788261196c565b600080604083850312156119b657600080fd5b6119bf8361196c565b9150602083013567ffffffffffffffff8111156119db57600080fd5b8301601f810185136119ec57600080fd5b6119fb858235602084016118f6565b9150509250929050565b600080600060408486031215611a1a57600080fd5b611a238461196c565b9250602084013567ffffffffffffffff80821115611a4057600080fd5b818601915086601f830112611a5457600080fd5b813581811115611a6357600080fd5b876020828501011115611a7557600080fd5b6020830194508093505050509250925092565b600060208284031215611a9a57600080fd5b8151801515811461157857600080fd5b600060208284031215611abc57600080fd5b5035919050565b60008060408385031215611ad657600080fd5b82359150611ae66020840161196c565b90509250929050565b600060208284031215611b0157600080fd5b81357fffffffff000000000000000000000000000000000000000000000000000000008116811461157857600080fd5b600060208284031215611b4357600080fd5b813567ffffffffffffffff811115611b5a57600080fd5b8201601f81018413611b6b57600080fd5b611b7a848235602084016118f6565b949350505050565b60008251611b94818460208701611d35565b9190910192915050565b8183823760009101908152919050565b600080835481600182811c915080831680611bca57607f831692505b6020808410821415611bea57634e487b7160e01b86526022600452602486fd5b818015611bfe5760018114611c0f57611c3c565b60ff19861689528489019650611c3c565b60008a81526020902060005b86811015611c345781548b820152908501908301611c1b565b505084890196505b509498975050505050505050565b7f416363657373436f6e74726f6c3a206163636f756e7420000000000000000000815260008351611c82816017850160208801611d35565b7f206973206d697373696e6720726f6c65200000000000000000000000000000006017918401918201528351611cbf816028840160208801611d35565b01602801949350505050565b6020815260008251806020840152611cea816040850160208701611d35565b601f01601f19169190910160400192915050565b60008219821115611d1157611d11611db7565b500190565b6000816000190483118215151615611d3057611d30611db7565b500290565b60005b83811015611d50578181015183820152602001611d38565b83811115611d5f576000848401525b50505050565b600081611d7457611d74611db7565b506000190190565b600181811c90821680611d9057607f821691505b60208210811415611db157634e487b7160e01b600052602260045260246000fd5b50919050565b634e487b7160e01b600052601160045260246000fd5b634e487b7160e01b600052603260045260246000fd5b634e487b7160e01b600052604160045260246000fdfe416464726573733a206c6f772d6c6576656c2064656c65676174652063616c6c206661696c6564a2646970667358221220501b08c1b3c8753cd4fad45b5b991b63115af900ce76a04a49055e227006f82064736f6c63430008070033",
  "linkReferences": {},
  "deployedLinkReferences": {}
}