{
  "_format": "hh-sol-artifact-1",
  "contractName": "ETS",
  "sourceName": "contracts/core/ETS.sol",
  "abi": [
    {
      "anonymous": false,
      "inputs": [
        {
          "indexed": false,
          "internalType": "contract ETSAccessControls",
          "name": "previousAccessControls",
          "type": "address"
        },
        {
          "indexed": false,
          "internalType": "contract ETSAccessControls",
          "name": "newAccessControls",
          "type": "address"
        }
      ],
      "name": "AccessControlsUpdated",
      "type": "event"
    },
    {
      "anonymous": false,
      "inputs": [
        {
          "indexed": false,
          "internalType": "address",
          "name": "previousAdmin",
          "type": "address"
        },
        {
          "indexed": false,
          "internalType": "address",
          "name": "newAdmin",
          "type": "address"
        }
      ],
      "name": "AdminChanged",
      "type": "event"
    },
    {
      "anonymous": false,
      "inputs": [
        {
          "indexed": true,
          "internalType": "address",
          "name": "beacon",
          "type": "address"
        }
      ],
      "name": "BeaconUpgraded",
      "type": "event"
    },
    {
      "anonymous": false,
      "inputs": [
        {
          "indexed": false,
          "internalType": "contract ETSEnsure",
          "name": "previousETSEnsure",
          "type": "address"
        },
        {
          "indexed": false,
          "internalType": "contract ETSEnsure",
          "name": "newETSEnsure",
          "type": "address"
        }
      ],
      "name": "ETSEnsureUpdated",
      "type": "event"
    },
    {
      "anonymous": false,
      "inputs": [
        {
          "indexed": true,
          "internalType": "address",
          "name": "who",
          "type": "address"
        },
        {
          "indexed": false,
          "internalType": "uint256",
          "name": "amount",
          "type": "uint256"
        }
      ],
      "name": "FundsWithdrawn",
      "type": "event"
    },
    {
      "anonymous": false,
      "inputs": [
        {
          "indexed": false,
          "internalType": "uint256",
          "name": "platformPercentage",
          "type": "uint256"
        },
        {
          "indexed": false,
          "internalType": "uint256",
          "name": "publisherPercentage",
          "type": "uint256"
        },
        {
          "indexed": false,
          "internalType": "uint256",
          "name": "remainingPercentage",
          "type": "uint256"
        }
      ],
      "name": "PercentagesSet",
      "type": "event"
    },
    {
      "anonymous": false,
      "inputs": [
        {
          "indexed": false,
          "internalType": "uint256",
          "name": "nftChainId",
          "type": "uint256"
        },
        {
          "indexed": false,
          "internalType": "bool",
          "name": "setting",
          "type": "bool"
        }
      ],
      "name": "PermittedNftChainIdSet",
      "type": "event"
    },
    {
      "anonymous": false,
      "inputs": [
        {
          "indexed": false,
          "internalType": "uint256",
          "name": "targetId",
          "type": "uint256"
        }
      ],
      "name": "RequestEnsureTarget",
      "type": "event"
    },
    {
      "anonymous": false,
      "inputs": [
        {
          "indexed": false,
          "internalType": "uint256",
          "name": "previousFee",
          "type": "uint256"
        },
        {
          "indexed": false,
          "internalType": "uint256",
          "name": "taggingFee",
          "type": "uint256"
        }
      ],
      "name": "TaggingFeeSet",
      "type": "event"
    },
    {
      "anonymous": false,
      "inputs": [
        {
          "indexed": false,
          "internalType": "uint256",
          "name": "targetId",
          "type": "uint256"
        }
      ],
      "name": "TargetCreated",
      "type": "event"
    },
    {
      "anonymous": false,
      "inputs": [
        {
          "indexed": false,
          "internalType": "uint256",
          "name": "taggingId",
          "type": "uint256"
        }
      ],
      "name": "TargetTagged",
      "type": "event"
    },
    {
      "anonymous": false,
      "inputs": [
        {
          "indexed": false,
          "internalType": "string",
          "name": "typeName",
          "type": "string"
        },
        {
          "indexed": false,
          "internalType": "bool",
          "name": "setting",
          "type": "bool"
        }
      ],
      "name": "TargetTypeSet",
      "type": "event"
    },
    {
      "anonymous": false,
      "inputs": [
        {
          "indexed": false,
          "internalType": "uint256",
          "name": "targetId",
          "type": "uint256"
        }
      ],
      "name": "TargetUpdated",
      "type": "event"
    },
    {
      "anonymous": false,
      "inputs": [
        {
          "indexed": true,
          "internalType": "address",
          "name": "implementation",
          "type": "address"
        }
      ],
      "name": "Upgraded",
      "type": "event"
    },
    {
      "inputs": [],
      "name": "NAME",
      "outputs": [
        {
          "internalType": "string",
          "name": "",
          "type": "string"
        }
      ],
      "stateMutability": "view",
      "type": "function"
    },
    {
      "inputs": [],
      "name": "VERSION",
      "outputs": [
        {
          "internalType": "string",
          "name": "",
          "type": "string"
        }
      ],
      "stateMutability": "view",
      "type": "function"
    },
    {
      "inputs": [],
      "name": "accessControls",
      "outputs": [
        {
          "internalType": "contract ETSAccessControls",
          "name": "",
          "type": "address"
        }
      ],
      "stateMutability": "view",
      "type": "function"
    },
    {
      "inputs": [
        {
          "internalType": "address",
          "name": "",
          "type": "address"
        }
      ],
      "name": "accrued",
      "outputs": [
        {
          "internalType": "uint256",
          "name": "",
          "type": "uint256"
        }
      ],
      "stateMutability": "view",
      "type": "function"
    },
    {
      "inputs": [
        {
          "internalType": "string",
          "name": "_targetType",
          "type": "string"
        },
        {
          "internalType": "string",
          "name": "_targetURI",
          "type": "string"
        }
      ],
      "name": "createTarget",
      "outputs": [
        {
          "internalType": "uint256",
          "name": "targetId",
          "type": "uint256"
        }
      ],
      "stateMutability": "nonpayable",
      "type": "function"
    },
    {
      "inputs": [
        {
          "internalType": "address payable",
          "name": "_account",
          "type": "address"
        }
      ],
      "name": "drawDown",
      "outputs": [],
      "stateMutability": "nonpayable",
      "type": "function"
    },
    {
      "inputs": [],
      "name": "etsEnsure",
      "outputs": [
        {
          "internalType": "contract ETSEnsure",
          "name": "",
          "type": "address"
        }
      ],
      "stateMutability": "view",
      "type": "function"
    },
    {
      "inputs": [],
      "name": "etsTag",
      "outputs": [
        {
          "internalType": "contract ETSTag",
          "name": "",
          "type": "address"
        }
      ],
      "stateMutability": "view",
      "type": "function"
    },
    {
      "inputs": [
        {
          "internalType": "uint256",
          "name": "_nftChainId",
          "type": "uint256"
        }
      ],
      "name": "getPermittedNftChainId",
      "outputs": [
        {
          "internalType": "bool",
          "name": "",
          "type": "bool"
        }
      ],
      "stateMutability": "view",
      "type": "function"
    },
    {
      "inputs": [
        {
          "internalType": "string",
          "name": "_tagString",
          "type": "string"
        },
        {
          "internalType": "address payable",
          "name": "_publisher",
          "type": "address"
        },
        {
          "internalType": "address",
          "name": "_tagger",
          "type": "address"
        }
      ],
      "name": "getTagId",
      "outputs": [
        {
          "internalType": "uint256",
          "name": "etstagId",
          "type": "uint256"
        }
      ],
      "stateMutability": "payable",
      "type": "function"
    },
    {
      "inputs": [
        {
          "internalType": "uint256",
          "name": "_taggingId",
          "type": "uint256"
        }
      ],
      "name": "getTaggingRecord",
      "outputs": [
        {
          "internalType": "uint256",
          "name": "_etsTagId",
          "type": "uint256"
        },
        {
          "internalType": "uint256",
          "name": "_targetId",
          "type": "uint256"
        },
        {
          "internalType": "address",
          "name": "_tagger",
          "type": "address"
        },
        {
          "internalType": "address",
          "name": "_publisher",
          "type": "address"
        },
        {
          "internalType": "uint256",
          "name": "_timestamp",
          "type": "uint256"
        }
      ],
      "stateMutability": "view",
      "type": "function"
    },
    {
      "inputs": [
        {
          "internalType": "string",
          "name": "_targetType",
          "type": "string"
        },
        {
          "internalType": "string",
          "name": "_targetURI",
          "type": "string"
        }
      ],
      "name": "getTargetId",
      "outputs": [
        {
          "internalType": "uint256",
          "name": "targetId",
          "type": "uint256"
        }
      ],
      "stateMutability": "nonpayable",
      "type": "function"
    },
    {
      "inputs": [
        {
          "internalType": "contract ETSAccessControls",
          "name": "_accessControls",
          "type": "address"
        },
        {
          "internalType": "contract ETSTag",
          "name": "_etsTag",
          "type": "address"
        }
      ],
      "name": "initialize",
      "outputs": [],
      "stateMutability": "nonpayable",
      "type": "function"
    },
    {
      "inputs": [],
      "name": "modulo",
      "outputs": [
        {
          "internalType": "uint256",
          "name": "",
          "type": "uint256"
        }
      ],
      "stateMutability": "view",
      "type": "function"
    },
    {
      "inputs": [
        {
          "internalType": "address",
          "name": "",
          "type": "address"
        }
      ],
      "name": "paid",
      "outputs": [
        {
          "internalType": "uint256",
          "name": "",
          "type": "uint256"
        }
      ],
      "stateMutability": "view",
      "type": "function"
    },
    {
      "inputs": [
        {
          "internalType": "uint256",
          "name": "",
          "type": "uint256"
        }
      ],
      "name": "permittedNftChainIds",
      "outputs": [
        {
          "internalType": "bool",
          "name": "",
          "type": "bool"
        }
      ],
      "stateMutability": "view",
      "type": "function"
    },
    {
      "inputs": [],
      "name": "platformPercentage",
      "outputs": [
        {
          "internalType": "uint256",
          "name": "",
          "type": "uint256"
        }
      ],
      "stateMutability": "view",
      "type": "function"
    },
    {
      "inputs": [],
      "name": "publisherPercentage",
      "outputs": [
        {
          "internalType": "uint256",
          "name": "",
          "type": "uint256"
        }
      ],
      "stateMutability": "view",
      "type": "function"
    },
    {
      "inputs": [],
      "name": "remainingPercentage",
      "outputs": [
        {
          "internalType": "uint256",
          "name": "",
          "type": "uint256"
        }
      ],
      "stateMutability": "view",
      "type": "function"
    },
    {
      "inputs": [
        {
          "internalType": "uint256",
          "name": "_nftChainId",
          "type": "uint256"
        },
        {
          "internalType": "bool",
          "name": "_setting",
          "type": "bool"
        }
      ],
      "name": "setPermittedNftChainId",
      "outputs": [],
      "stateMutability": "nonpayable",
      "type": "function"
    },
    {
      "inputs": [
        {
          "internalType": "uint256",
          "name": "_fee",
          "type": "uint256"
        }
      ],
      "name": "setTaggingFee",
      "outputs": [],
      "stateMutability": "nonpayable",
      "type": "function"
    },
    {
      "inputs": [
        {
          "internalType": "string",
          "name": "_tagString",
          "type": "string"
        },
        {
          "internalType": "string",
          "name": "_targetURI",
          "type": "string"
        },
        {
          "internalType": "address payable",
          "name": "_publisher",
          "type": "address"
        },
        {
          "internalType": "address",
          "name": "_tagger",
          "type": "address"
        },
        {
          "internalType": "bool",
          "name": "_ensure",
          "type": "bool"
        }
      ],
      "name": "tagTarget",
      "outputs": [],
      "stateMutability": "payable",
      "type": "function"
    },
    {
      "inputs": [],
      "name": "taggingCounter",
      "outputs": [
        {
          "internalType": "uint256",
          "name": "",
          "type": "uint256"
        }
      ],
      "stateMutability": "view",
      "type": "function"
    },
    {
      "inputs": [],
      "name": "taggingFee",
      "outputs": [
        {
          "internalType": "uint256",
          "name": "",
          "type": "uint256"
        }
      ],
      "stateMutability": "view",
      "type": "function"
    },
    {
      "inputs": [
        {
          "internalType": "uint256",
          "name": "",
          "type": "uint256"
        }
      ],
      "name": "taggingRecords",
      "outputs": [
        {
          "internalType": "uint256",
          "name": "etsTagId",
          "type": "uint256"
        },
        {
          "internalType": "uint256",
          "name": "targetId",
          "type": "uint256"
        },
        {
          "internalType": "address",
          "name": "tagger",
          "type": "address"
        },
        {
          "internalType": "address",
          "name": "publisher",
          "type": "address"
        },
        {
          "internalType": "uint256",
          "name": "timestamp",
          "type": "uint256"
        }
      ],
      "stateMutability": "view",
      "type": "function"
    },
    {
      "inputs": [
        {
          "internalType": "uint256",
          "name": "targetId",
          "type": "uint256"
        }
      ],
      "name": "targetExists",
      "outputs": [
        {
          "internalType": "bool",
          "name": "",
          "type": "bool"
        }
      ],
      "stateMutability": "view",
      "type": "function"
    },
    {
      "inputs": [
        {
          "internalType": "uint256",
          "name": "",
          "type": "uint256"
        }
      ],
      "name": "targets",
      "outputs": [
        {
          "internalType": "string",
          "name": "targetType",
          "type": "string"
        },
        {
          "internalType": "string",
          "name": "targetURI",
          "type": "string"
        },
        {
          "internalType": "uint256",
          "name": "created",
          "type": "uint256"
        },
        {
          "internalType": "uint256",
          "name": "lastEnsured",
          "type": "uint256"
        },
        {
          "internalType": "uint256",
          "name": "status",
          "type": "uint256"
        },
        {
          "internalType": "string",
          "name": "ipfsHash",
          "type": "string"
        }
      ],
      "stateMutability": "view",
      "type": "function"
    },
    {
      "inputs": [
        {
          "internalType": "address",
          "name": "_account",
          "type": "address"
        }
      ],
      "name": "totalDue",
      "outputs": [
        {
          "internalType": "uint256",
          "name": "_due",
          "type": "uint256"
        }
      ],
      "stateMutability": "view",
      "type": "function"
    },
    {
      "inputs": [
        {
          "internalType": "contract ETSAccessControls",
          "name": "_accessControls",
          "type": "address"
        }
      ],
      "name": "updateAccessControls",
      "outputs": [],
      "stateMutability": "nonpayable",
      "type": "function"
    },
    {
      "inputs": [
        {
          "internalType": "contract ETSEnsure",
          "name": "_etsEnsure",
          "type": "address"
        }
      ],
      "name": "updateETSEnsure",
      "outputs": [],
      "stateMutability": "nonpayable",
      "type": "function"
    },
    {
      "inputs": [
        {
          "internalType": "uint256",
          "name": "_platformPercentage",
          "type": "uint256"
        },
        {
          "internalType": "uint256",
          "name": "_publisherPercentage",
          "type": "uint256"
        }
      ],
      "name": "updatePercentages",
      "outputs": [],
      "stateMutability": "nonpayable",
      "type": "function"
    },
    {
      "inputs": [
        {
          "internalType": "uint256",
          "name": "_targetId",
          "type": "uint256"
        },
        {
          "internalType": "string",
          "name": "_targetType",
          "type": "string"
        },
        {
          "internalType": "string",
          "name": "_targetURI",
          "type": "string"
        },
        {
          "internalType": "uint256",
          "name": "_lastEnsured",
          "type": "uint256"
        },
        {
          "internalType": "uint256",
          "name": "_status",
          "type": "uint256"
        },
        {
          "internalType": "string",
          "name": "_ipfsHash",
          "type": "string"
        }
      ],
      "name": "updateTarget",
      "outputs": [
        {
          "internalType": "bool",
          "name": "success",
          "type": "bool"
        }
      ],
      "stateMutability": "nonpayable",
      "type": "function"
    },
    {
      "inputs": [
        {
          "internalType": "address",
          "name": "newImplementation",
          "type": "address"
        }
      ],
      "name": "upgradeTo",
      "outputs": [],
      "stateMutability": "nonpayable",
      "type": "function"
    },
    {
      "inputs": [
        {
          "internalType": "address",
          "name": "newImplementation",
          "type": "address"
        },
        {
          "internalType": "bytes",
          "name": "data",
          "type": "bytes"
        }
      ],
      "name": "upgradeToAndCall",
      "outputs": [],
      "stateMutability": "payable",
      "type": "function"
    },
    {
      "inputs": [],
      "name": "version",
      "outputs": [
        {
          "internalType": "string",
          "name": "",
          "type": "string"
        }
      ],
      "stateMutability": "pure",
      "type": "function"
    }
  ],
  "bytecode": "0x60a06040523060805234801561001457600080fd5b50608051612f2661004560003960008181610a1a01528181610aa401528181610cb40152610d390152612f266000f3fe6080604052600436106102345760003560e01c8063748365ef11610138578063b3e74f4f116100b0578063e16ee5a31161007f578063f8bc3cc611610064578063f8bc3cc614610748578063fe52656f14610768578063ffa1ad741461077e57600080fd5b8063e16ee5a314610712578063e88b772c1461073257600080fd5b8063b3e74f4f1461069f578063b7d0e7dd146106b2578063c2062005146106d2578063c20d2295146106f257600080fd5b8063a3f4df7e11610107578063a97dda40116100ec578063a97dda4014610632578063b148440f14610652578063b205f8081461067f57600080fd5b8063a3f4df7e146105d6578063a76237f61461061f57600080fd5b8063748365ef1461053b5780637e2e4c5214610573578063962ed23214610589578063a340cf79146105a957600080fd5b8063337ccf9d116101cb578063501a323a1161019a57806354fd4d501161017f57806354fd4d501461048d5780636ef3da94146104c457806374716c81146104e457600080fd5b8063501a323a146103e4578063507f3ba11461046d57600080fd5b8063337ccf9d146103795780633659cfe61461038f578063485cc955146103b15780634f1ef286146103d157600080fd5b80631797df59116102075780631797df59146102ee5780631f7418971461031e578063200e06af14610334578063297452621461036457600080fd5b80630477fe28146102395780630a39ce021461026e5780630ad2f0c3146102a0578063146da5c4146102ce575b600080fd5b34801561024557600080fd5b50610259610254366004612702565b6107af565b60405190151581526020015b60405180910390f35b34801561027a57600080fd5b5061028e610289366004612702565b6107d5565b60405161026596959493929190612777565b3480156102ac57600080fd5b506102c06102bb3660046127e4565b6109a1565b604051908152602001610265565b3480156102da57600080fd5b506102c06102e93660046128ce565b6109cf565b3480156102fa57600080fd5b50610259610309366004612702565b600090815260d3602052604090205460ff1690565b34801561032a57600080fd5b506102c060cc5481565b34801561034057600080fd5b5061025961034f366004612702565b60d36020526000908152604090205460ff1681565b34801561037057600080fd5b506102c0606481565b34801561038557600080fd5b506102c060ce5481565b34801561039b57600080fd5b506103af6103aa3660046127e4565b610a0f565b005b3480156103bd57600080fd5b506103af6103cc366004612932565b610b90565b6103af6103df36600461296b565b610ca9565b3480156103f057600080fd5b506104396103ff366004612702565b600090815260d4602052604090208054600182015460028301546003840154600490940154929491936001600160a01b0391821693911691565b6040805195865260208601949094526001600160a01b0392831693850193909352166060830152608082015260a001610265565b34801561047957600080fd5b50610259610488366004612a0e565b610e16565b34801561049957600080fd5b50604080518082019091526005815264302e302e3160d81b60208201525b6040516102659190612ac7565b3480156104d057600080fd5b506103af6104df3660046127e4565b610ebb565b3480156104f057600080fd5b506104396104ff366004612702565b60d46020526000908152604090208054600182015460028301546003840154600490940154929391926001600160a01b03918216929091169085565b34801561054757600080fd5b5060c95461055b906001600160a01b031681565b6040516001600160a01b039091168152602001610265565b34801561057f57600080fd5b506102c060cd5481565b34801561059557600080fd5b506103af6105a4366004612702565b611056565b3480156105b557600080fd5b506102c06105c43660046127e4565b60d26020526000908152604090205481565b3480156105e257600080fd5b506104b76040518060400160405280600881526020017f45545320436f726500000000000000000000000000000000000000000000000081525081565b6102c061062d366004612ada565b611151565b34801561063e57600080fd5b506103af61064d366004612b50565b611287565b34801561065e57600080fd5b506102c061066d3660046127e4565b60d16020526000908152604090205481565b34801561068b57600080fd5b506103af61069a3660046127e4565b611396565b6103af6106ad366004612b75565b611529565b3480156106be57600080fd5b5060cb5461055b906001600160a01b031681565b3480156106de57600080fd5b506103af6106ed3660046127e4565b611915565b3480156106fe57600080fd5b506103af61070d366004612c1e565b611a6b565b34801561071e57600080fd5b506102c061072d3660046128ce565b611c12565b34801561073e57600080fd5b506102c060cf5481565b34801561075457600080fd5b5060ca5461055b906001600160a01b031681565b34801561077457600080fd5b506102c060d05481565b34801561078a57600080fd5b506104b760405180604001604052806005815260200164302e302e3160d81b81525081565b600081815260d560205260408120600201546107cc5760006107cf565b60015b92915050565b60d5602052600090815260409020805481906107f090612c40565b80601f016020809104026020016040519081016040528092919081815260200182805461081c90612c40565b80156108695780601f1061083e57610100808354040283529160200191610869565b820191906000526020600020905b81548152906001019060200180831161084c57829003601f168201915b50505050509080600101805461087e90612c40565b80601f01602080910402602001604051908101604052809291908181526020018280546108aa90612c40565b80156108f75780601f106108cc576101008083540402835291602001916108f7565b820191906000526020600020905b8154815290600101906020018083116108da57829003601f168201915b50505050509080600201549080600301549080600401549080600501805461091e90612c40565b80601f016020809104026020016040519081016040528092919081815260200182805461094a90612c40565b80156109975780601f1061096c57610100808354040283529160200191610997565b820191906000526020600020905b81548152906001019060200180831161097a57829003601f168201915b5050505050905086565b6001600160a01b038116600090815260d2602090815260408083205460d19092528220546107cf9190612c91565b6000806109dc8484611d0c565b600081815260d56020526040902060020154909150156109fd5790506107cf565b610a078484611c12565b949350505050565b306001600160a01b037f0000000000000000000000000000000000000000000000000000000000000000161415610aa25760405162461bcd60e51b815260206004820152602c60248201527f46756e6374696f6e206d7573742062652063616c6c6564207468726f7567682060448201526b19195b1959d85d1958d85b1b60a21b60648201526084015b60405180910390fd5b7f00000000000000000000000000000000000000000000000000000000000000006001600160a01b0316610afd7f360894a13ba1a3210667c828492db98dca3e2076cc3735a920a3ca505d382bbc546001600160a01b031690565b6001600160a01b031614610b685760405162461bcd60e51b815260206004820152602c60248201527f46756e6374696f6e206d7573742062652063616c6c6564207468726f7567682060448201526b6163746976652070726f787960a01b6064820152608401610a99565b610b7181611d42565b60408051600080825260208201909252610b8d91839190611dff565b50565b600054610100900460ff16610bab5760005460ff1615610baf565b303b155b610c215760405162461bcd60e51b815260206004820152602e60248201527f496e697469616c697a61626c653a20636f6e747261637420697320616c72656160448201527f647920696e697469616c697a65640000000000000000000000000000000000006064820152608401610a99565b600054610100900460ff16158015610c43576000805461ffff19166101011790555b60c980546001600160a01b038086166001600160a01b03199283161790925560ca805492851692909116919091179055600060cf5566038d7ea4c6800060d055601460cc55601e60cd55603260ce558015610ca4576000805461ff00191690555b505050565b306001600160a01b037f0000000000000000000000000000000000000000000000000000000000000000161415610d375760405162461bcd60e51b815260206004820152602c60248201527f46756e6374696f6e206d7573742062652063616c6c6564207468726f7567682060448201526b19195b1959d85d1958d85b1b60a21b6064820152608401610a99565b7f00000000000000000000000000000000000000000000000000000000000000006001600160a01b0316610d927f360894a13ba1a3210667c828492db98dca3e2076cc3735a920a3ca505d382bbc546001600160a01b031690565b6001600160a01b031614610dfd5760405162461bcd60e51b815260206004820152602c60248201527f46756e6374696f6e206d7573742062652063616c6c6564207468726f7567682060448201526b6163746976652070726f787960a01b6064820152608401610a99565b610e0682611d42565b610e1282826001611dff565b5050565b600089815260d560205260408120610e2f908a8a6125f5565b5060008a815260d560205260409020610e4c9060010188886125f5565b5060008a815260d5602052604090206003810186905560048101859055610e779060050184846125f5565b506040518a81527f9d29e5045b411bb06d81d8ff11c828d9f1d7eb076eec9ca45eda49fc99f762b29060200160405180910390a15060019998505050505050505050565b60c9546001600160a01b03166324d7806c336040516001600160e01b031960e084901b1681526001600160a01b039091166004820152602401602060405180830381865afa158015610f11573d6000803e3d6000fd5b505050506040513d601f19601f82011682018060405250810190610f359190612ca8565b610f785760405162461bcd60e51b815260206004820152601460248201527321b0b63632b91036bab9ba1031329030b236b4b760611b6044820152606401610a99565b6001600160a01b038116610ff45760405162461bcd60e51b815260206004820152602860248201527f4554532e757064617465416363657373436f6e74726f6c733a2043616e6e6f7460448201527f206265207a65726f0000000000000000000000000000000000000000000000006064820152608401610a99565b60c980546001600160a01b038381166001600160a01b031983168117909355604080519190921680825260208201939093527f31073599bfae2533a348dc816b0ce777b707aa9b67015ca2d86585e842b5c6e991015b60405180910390a15050565b60c9546001600160a01b03166324d7806c336040516001600160e01b031960e084901b1681526001600160a01b039091166004820152602401602060405180830381865afa1580156110ac573d6000803e3d6000fd5b505050506040513d601f19601f820116820180604052508101906110d09190612ca8565b6111135760405162461bcd60e51b815260206004820152601460248201527321b0b63632b91036bab9ba1031329030b236b4b760611b6044820152606401610a99565b60d080549082905560408051828152602081018490527f861fa8a0dab775faf9bcbb5388a02f7ac01181c036f5c57982464a2d75c3608e910161104a565b60ca546040517f04befefd00000000000000000000000000000000000000000000000000000000815260009182916001600160a01b03909116906304befefd906111a19089908990600401612cee565b602060405180830381865afa1580156111be573d6000803e3d6000fd5b505050506040513d601f19601f820116820180604052508101906111e29190612d02565b90508061127e5760ca546040517f7e6d945e0000000000000000000000000000000000000000000000000000000081526001600160a01b0390911690637e6d945e90611238908990899089908990600401612d1b565b6020604051808303816000875af1158015611257573d6000803e3d6000fd5b505050506040513d601f19601f8201168201806040525081019061127b9190612d02565b90505b95945050505050565b60c9546001600160a01b03166324d7806c336040516001600160e01b031960e084901b1681526001600160a01b039091166004820152602401602060405180830381865afa1580156112dd573d6000803e3d6000fd5b505050506040513d601f19601f820116820180604052508101906113019190612ca8565b6113445760405162461bcd60e51b815260206004820152601460248201527321b0b63632b91036bab9ba1031329030b236b4b760611b6044820152606401610a99565b600082815260d36020908152604091829020805460ff19168415159081179091558251858152918201527f9a1b1e3722de574f6867ada1474b42b28458b0d93fc376664c96cb084b921181910161104a565b60c9546001600160a01b03166324d7806c336040516001600160e01b031960e084901b1681526001600160a01b039091166004820152602401602060405180830381865afa1580156113ec573d6000803e3d6000fd5b505050506040513d601f19601f820116820180604052508101906114109190612ca8565b6114535760405162461bcd60e51b815260206004820152601460248201527321b0b63632b91036bab9ba1031329030b236b4b760611b6044820152606401610a99565b6001600160a01b0381166114cf5760405162461bcd60e51b815260206004820152602360248201527f4554532e757064617465455453456e737572653a2043616e6e6f74206265207a60448201527f65726f00000000000000000000000000000000000000000000000000000000006064820152608401610a99565b60cb80546001600160a01b038381166001600160a01b031983168117909355604080519190921680825260208201939093527fee20190c374934660675d28472968e002fc4af227f2956f59085225ad89239fa910161104a565b6002603354141561157c5760405162461bcd60e51b815260206004820152601f60248201527f5265656e7472616e637947756172643a207265656e7472616e742063616c6c006044820152606401610a99565b600260335560c9546040517f2b04fd440000000000000000000000000000000000000000000000000000000081523360048201526001600160a01b0390911690632b04fd4490602401602060405180830381865afa1580156115e2573d6000803e3d6000fd5b505050506040513d601f19601f820116820180604052508101906116069190612ca8565b6116525760405162461bcd60e51b815260206004820152601060248201527f4f6e6c79207461726765742074797065000000000000000000000000000000006044820152606401610a99565b60c9546040517f41859ac80000000000000000000000000000000000000000000000000000000081526001600160a01b038581166004830152909116906341859ac890602401602060405180830381865afa1580156116b5573d6000803e3d6000fd5b505050506040513d601f19601f820116820180604052508101906116d99190612ca8565b61174b5760405162461bcd60e51b815260206004820152602660248201527f5461673a20546865207075626c6973686572206d75737420626520776869746560448201527f6c697374656400000000000000000000000000000000000000000000000000006064820152608401610a99565b60d05434101561179d5760405162461bcd60e51b815260206004820152601a60248201527f5461673a20596f75206d7573742073656e6420746865206665650000000000006044820152606401610a99565b60c9546040517fa88ae5b6000000000000000000000000000000000000000000000000000000008152336004820152600091611869916001600160a01b039091169063a88ae5b690602401600060405180830381865afa158015611805573d6000803e3d6000fd5b505050506040513d6000823e601f3d908101601f1916820160405261182d9190810190612d50565b87878080601f0160208091040260200160405190810160405280939291908181526020018383808284376000920191909152506109cf92505050565b9050600061187989898787611151565b905082156118f95760cb546040517f177f2fb5000000000000000000000000000000000000000000000000000000008152600481018490526001600160a01b039091169063177f2fb590602401600060405180830381600087803b1580156118e057600080fd5b505af11580156118f4573d6000803e3d6000fd5b505050505b61190581838787611fc3565b5050600160335550505050505050565b600260335414156119685760405162461bcd60e51b815260206004820152601f60248201527f5265656e7472616e637947756172643a207265656e7472616e742063616c6c006044820152606401610a99565b60026033556001600160a01b038116600090815260d2602090815260408083205460d190925282205461199b9190612c91565b90506000811180156119ad5750478111155b15611a62576001600160a01b038216600090815260d260205260409020546119d6908290612dbe565b6001600160a01b038316600081815260d26020526040808220939093559151909183156108fc02918491818181858888f19350505050158015611a1d573d6000803e3d6000fd5b50816001600160a01b03167feaff4b37086828766ad3268786972c0cd24259d4c87a80f9d3963a3c3d999b0d82604051611a5991815260200190565b60405180910390a25b50506001603355565b60c9546001600160a01b03166324d7806c336040516001600160e01b031960e084901b1681526001600160a01b039091166004820152602401602060405180830381865afa158015611ac1573d6000803e3d6000fd5b505050506040513d601f19601f82011682018060405250810190611ae59190612ca8565b611b285760405162461bcd60e51b815260206004820152601460248201527321b0b63632b91036bab9ba1031329030b236b4b760611b6044820152606401610a99565b6064611b348284612dbe565b1115611ba85760405162461bcd60e51b815260206004820152603760248201527f4554532e75706461746550657263656e74616765733a2070657263656e74616760448201527f6573206d757374206e6f74206265206f766572203130300000000000000000006064820152608401610a99565b60cc82905560cd81905580611bbe836064612c91565b611bc89190612c91565b60ce81905560cc5460cd546040805192835260208301919091528101919091527f78c1b0567e296aa5eef70ad2deee29f35e0dd128cac603be855ece3e823f43089060600161104a565b600080611c1f8484611d0c565b6040805160c08101825286815260208082018790524282840152600060608301819052608083018190528351808301855281815260a084015284815260d58252929092208151805194955091939092611c7c928492910190612679565b506020828101518051611c959260018501920190612679565b5060408201516002820155606082015160038201556080820151600482015560a08201518051611ccf916005840191602090910190612679565b50506040518281527f503a6e6145f2d2a2a9b0845c2193aef653400c52f93b1c897bd55d36a396be7c915060200160405180910390a19392505050565b6000808383604051602001611d22929190612dd6565b60408051808303601f190181529190528051602090910120949350505050565b60c9546001600160a01b03166324d7806c336040516001600160e01b031960e084901b1681526001600160a01b039091166004820152602401602060405180830381865afa158015611d98573d6000803e3d6000fd5b505050506040513d601f19601f82011682018060405250810190611dbc9190612ca8565b610b8d5760405162461bcd60e51b815260206004820152601460248201527321b0b63632b91036bab9ba1031329030b236b4b760611b6044820152606401610a99565b6000611e327f360894a13ba1a3210667c828492db98dca3e2076cc3735a920a3ca505d382bbc546001600160a01b031690565b9050611e3d846123c7565b600083511180611e4a5750815b15611e5b57611e59848461247c565b505b7f4910fdfa16fed3260ed0e7147f7cc6da11a60208b5b9406d12a635614ffd9143805460ff16611fbc57805460ff191660011781556040516001600160a01b0383166024820152611f0890869060440160408051601f198184030181529190526020810180517bffffffffffffffffffffffffffffffffffffffffffffffffffffffff167f3659cfe60000000000000000000000000000000000000000000000000000000017905261247c565b50805460ff191681557f360894a13ba1a3210667c828492db98dca3e2076cc3735a920a3ca505d382bbc546001600160a01b03838116911614611fb35760405162461bcd60e51b815260206004820152602f60248201527f45524331393637557067726164653a207570677261646520627265616b73206660448201527f75727468657220757067726164657300000000000000000000000000000000006064820152608401610a99565b611fbc85612575565b5050505050565b600060cf60008154611fd490612e05565b91829055506040805160a08101825287815260208082018881526001600160a01b03878116848601908152898216606086019081524260808701908152600089815260d4909652878620965187559351600187015590516002860180549184166001600160a01b0319928316179055905160038601805491841691909216179055905160049384015560ca5493517f878327ab0000000000000000000000000000000000000000000000000000000081529283018a9052939450928392169063878327ab906024016040805180830381865afa1580156120b8573d6000803e3d6000fd5b505050506040513d601f19601f820116820180604052508101906120dc9190612e20565b91509150816001600160a01b0316816001600160a01b0316141561228857606460cc543461210a9190612e4f565b6121149190612e6e565b6001600160a01b038316600090815260d160205260409020546121379190612dbe565b6001600160a01b038316600090815260d1602052604090205560cd546064906121609034612e4f565b61216a9190612e6e565b6001600160a01b038616600090815260d1602052604090205461218d9190612dbe565b6001600160a01b03868116600090815260d160205260408082209390935560ca5492517fa30b4db9000000000000000000000000000000000000000000000000000000008152600481018b905290929091169063a30b4db990602401602060405180830381865afa158015612206573d6000803e3d6000fd5b505050506040513d601f19601f8201168201806040525081019061222a9190612e90565b9050606460ce543461223c9190612e4f565b6122469190612e6e565b6001600160a01b038216600090815260d160205260409020546122699190612dbe565b6001600160a01b03909116600090815260d1602052604090205561238b565b606460cc54346122989190612e4f565b6122a29190612e6e565b6001600160a01b038316600090815260d160205260409020546122c59190612dbe565b6001600160a01b038316600090815260d1602052604090205560cd546064906122ee9034612e4f565b6122f89190612e6e565b6001600160a01b038616600090815260d1602052604090205461231b9190612dbe565b6001600160a01b038616600090815260d1602052604090205560ce546064906123449034612e4f565b61234e9190612e6e565b6001600160a01b038216600090815260d160205260409020546123719190612dbe565b6001600160a01b038216600090815260d160205260409020555b6040518381527f81b185c481377e520177bddb63bab2a8d220831d7c07b748c2baf29c6e6070709060200160405180910390a150505050505050565b803b61243b5760405162461bcd60e51b815260206004820152602d60248201527f455243313936373a206e657720696d706c656d656e746174696f6e206973206e60448201527f6f74206120636f6e7472616374000000000000000000000000000000000000006064820152608401610a99565b7f360894a13ba1a3210667c828492db98dca3e2076cc3735a920a3ca505d382bbc80546001600160a01b0319166001600160a01b0392909216919091179055565b6060823b6124f25760405162461bcd60e51b815260206004820152602660248201527f416464726573733a2064656c65676174652063616c6c20746f206e6f6e2d636f60448201527f6e747261637400000000000000000000000000000000000000000000000000006064820152608401610a99565b600080846001600160a01b03168460405161250d9190612ead565b600060405180830381855af49150503d8060008114612548576040519150601f19603f3d011682016040523d82523d6000602084013e61254d565b606091505b509150915061127e8282604051806060016040528060278152602001612eca602791396125b5565b61257e816123c7565b6040516001600160a01b038216907fbc7cd75a20ee27fd9adebab32041f755214dbc6bffa90cc0225b39da2e5c2d3b90600090a250565b606083156125c45750816125ee565b8251156125d45782518084602001fd5b8160405162461bcd60e51b8152600401610a999190612ac7565b9392505050565b82805461260190612c40565b90600052602060002090601f0160209004810192826126235760008555612669565b82601f1061263c5782800160ff19823516178555612669565b82800160010185558215612669579182015b8281111561266957823582559160200191906001019061264e565b506126759291506126ed565b5090565b82805461268590612c40565b90600052602060002090601f0160209004810192826126a75760008555612669565b82601f106126c057805160ff1916838001178555612669565b82800160010185558215612669579182015b828111156126695782518255916020019190600101906126d2565b5b8082111561267557600081556001016126ee565b60006020828403121561271457600080fd5b5035919050565b60005b8381101561273657818101518382015260200161271e565b83811115612745576000848401525b50505050565b6000815180845261276381602086016020860161271b565b601f01601f19169290920160200192915050565b60c08152600061278a60c083018961274b565b828103602084015261279c818961274b565b905086604084015285606084015284608084015282810360a08401526127c2818561274b565b9998505050505050505050565b6001600160a01b0381168114610b8d57600080fd5b6000602082840312156127f657600080fd5b81356125ee816127cf565b634e487b7160e01b600052604160045260246000fd5b604051601f8201601f1916810167ffffffffffffffff8111828210171561284057612840612801565b604052919050565b600067ffffffffffffffff82111561286257612862612801565b50601f01601f191660200190565b600061288361287e84612848565b612817565b905082815283838301111561289757600080fd5b828260208301376000602084830101529392505050565b600082601f8301126128bf57600080fd5b6125ee83833560208501612870565b600080604083850312156128e157600080fd5b823567ffffffffffffffff808211156128f957600080fd5b612905868387016128ae565b9350602085013591508082111561291b57600080fd5b50612928858286016128ae565b9150509250929050565b6000806040838503121561294557600080fd5b8235612950816127cf565b91506020830135612960816127cf565b809150509250929050565b6000806040838503121561297e57600080fd5b8235612989816127cf565b9150602083013567ffffffffffffffff8111156129a557600080fd5b8301601f810185136129b657600080fd5b61292885823560208401612870565b60008083601f8401126129d757600080fd5b50813567ffffffffffffffff8111156129ef57600080fd5b602083019150836020828501011115612a0757600080fd5b9250929050565b600080600080600080600080600060c08a8c031215612a2c57600080fd5b8935985060208a013567ffffffffffffffff80821115612a4b57600080fd5b612a578d838e016129c5565b909a50985060408c0135915080821115612a7057600080fd5b612a7c8d838e016129c5565b909850965060608c0135955060808c0135945060a08c0135915080821115612aa357600080fd5b50612ab08c828d016129c5565b915080935050809150509295985092959850929598565b6020815260006125ee602083018461274b565b60008060008060608587031215612af057600080fd5b843567ffffffffffffffff811115612b0757600080fd5b612b13878288016129c5565b9095509350506020850135612b27816127cf565b91506040850135612b37816127cf565b939692955090935050565b8015158114610b8d57600080fd5b60008060408385031215612b6357600080fd5b82359150602083013561296081612b42565b600080600080600080600060a0888a031215612b9057600080fd5b873567ffffffffffffffff80821115612ba857600080fd5b612bb48b838c016129c5565b909950975060208a0135915080821115612bcd57600080fd5b50612bda8a828b016129c5565b9096509450506040880135612bee816127cf565b92506060880135612bfe816127cf565b91506080880135612c0e81612b42565b8091505092959891949750929550565b60008060408385031215612c3157600080fd5b50508035926020909101359150565b600181811c90821680612c5457607f821691505b60208210811415612c7557634e487b7160e01b600052602260045260246000fd5b50919050565b634e487b7160e01b600052601160045260246000fd5b600082821015612ca357612ca3612c7b565b500390565b600060208284031215612cba57600080fd5b81516125ee81612b42565b81835281816020850137506000828201602090810191909152601f909101601f19169091010190565b602081526000610a07602083018486612cc5565b600060208284031215612d1457600080fd5b5051919050565b606081526000612d2f606083018688612cc5565b6001600160a01b039485166020840152929093166040909101529392505050565b600060208284031215612d6257600080fd5b815167ffffffffffffffff811115612d7957600080fd5b8201601f81018413612d8a57600080fd5b8051612d9861287e82612848565b818152856020838501011115612dad57600080fd5b61127e82602083016020860161271b565b60008219821115612dd157612dd1612c7b565b500190565b60008351612de881846020880161271b565b835190830190612dfc81836020880161271b565b01949350505050565b6000600019821415612e1957612e19612c7b565b5060010190565b60008060408385031215612e3357600080fd5b8251612e3e816127cf565b6020840151909250612960816127cf565b6000816000190483118215151615612e6957612e69612c7b565b500290565b600082612e8b57634e487b7160e01b600052601260045260246000fd5b500490565b600060208284031215612ea257600080fd5b81516125ee816127cf565b60008251612ebf81846020870161271b565b919091019291505056fe416464726573733a206c6f772d6c6576656c2064656c65676174652063616c6c206661696c6564a2646970667358221220ea68968a0fca81cf45da499ead1fd1c7dd41b76da91933355b8314ba6238e5fd64736f6c634300080c0033",
  "linkReferences": {},
  "deployedLinkReferences": {}
}