{
  "_format": "hh-sol-artifact-1",
  "contractName": "ETS",
  "sourceName": "contracts/core/ETS.sol",
  "abi": [
    {
      "anonymous": false,
      "inputs": [
        {
          "indexed": false,
          "internalType": "contract ETSAccessControls",
          "name": "previousAccessControls",
          "type": "address"
        },
        {
          "indexed": false,
          "internalType": "contract ETSAccessControls",
          "name": "newAccessControls",
          "type": "address"
        }
      ],
      "name": "AccessControlsUpdated",
      "type": "event"
    },
    {
      "anonymous": false,
      "inputs": [
        {
          "indexed": false,
          "internalType": "address",
          "name": "previousAdmin",
          "type": "address"
        },
        {
          "indexed": false,
          "internalType": "address",
          "name": "newAdmin",
          "type": "address"
        }
      ],
      "name": "AdminChanged",
      "type": "event"
    },
    {
      "anonymous": false,
      "inputs": [
        {
          "indexed": true,
          "internalType": "address",
          "name": "beacon",
          "type": "address"
        }
      ],
      "name": "BeaconUpgraded",
      "type": "event"
    },
    {
      "anonymous": false,
      "inputs": [
        {
          "indexed": false,
          "internalType": "contract ETSEnsure",
          "name": "previousETSEnsure",
          "type": "address"
        },
        {
          "indexed": false,
          "internalType": "contract ETSEnsure",
          "name": "newETSEnsure",
          "type": "address"
        }
      ],
      "name": "ETSEnsureUpdated",
      "type": "event"
    },
    {
      "anonymous": false,
      "inputs": [
        {
          "indexed": true,
          "internalType": "address",
          "name": "who",
          "type": "address"
        },
        {
          "indexed": false,
          "internalType": "uint256",
          "name": "amount",
          "type": "uint256"
        }
      ],
      "name": "FundsWithdrawn",
      "type": "event"
    },
    {
      "anonymous": false,
      "inputs": [
        {
          "indexed": false,
          "internalType": "uint256",
          "name": "platformPercentage",
          "type": "uint256"
        },
        {
          "indexed": false,
          "internalType": "uint256",
          "name": "publisherPercentage",
          "type": "uint256"
        },
        {
          "indexed": false,
          "internalType": "uint256",
          "name": "remainingPercentage",
          "type": "uint256"
        }
      ],
      "name": "PercentagesSet",
      "type": "event"
    },
    {
      "anonymous": false,
      "inputs": [
        {
          "indexed": false,
          "internalType": "uint256",
          "name": "nftChainId",
          "type": "uint256"
        },
        {
          "indexed": false,
          "internalType": "bool",
          "name": "setting",
          "type": "bool"
        }
      ],
      "name": "PermittedNftChainIdSet",
      "type": "event"
    },
    {
      "anonymous": false,
      "inputs": [
        {
          "indexed": false,
          "internalType": "uint256",
          "name": "targetId",
          "type": "uint256"
        }
      ],
      "name": "RequestEnsureTarget",
      "type": "event"
    },
    {
      "anonymous": false,
      "inputs": [
        {
          "indexed": false,
          "internalType": "uint256",
          "name": "previousFee",
          "type": "uint256"
        },
        {
          "indexed": false,
          "internalType": "uint256",
          "name": "taggingFee",
          "type": "uint256"
        }
      ],
      "name": "TaggingFeeSet",
      "type": "event"
    },
    {
      "anonymous": false,
      "inputs": [
        {
          "indexed": false,
          "internalType": "uint256",
          "name": "targetId",
          "type": "uint256"
        }
      ],
      "name": "TargetCreated",
      "type": "event"
    },
    {
      "anonymous": false,
      "inputs": [
        {
          "indexed": false,
          "internalType": "uint256",
          "name": "taggingId",
          "type": "uint256"
        }
      ],
      "name": "TargetTagged",
      "type": "event"
    },
    {
      "anonymous": false,
      "inputs": [
        {
          "indexed": false,
          "internalType": "string",
          "name": "typeName",
          "type": "string"
        },
        {
          "indexed": false,
          "internalType": "bool",
          "name": "setting",
          "type": "bool"
        }
      ],
      "name": "TargetTypeSet",
      "type": "event"
    },
    {
      "anonymous": false,
      "inputs": [
        {
          "indexed": false,
          "internalType": "uint256",
          "name": "targetId",
          "type": "uint256"
        }
      ],
      "name": "TargetUpdated",
      "type": "event"
    },
    {
      "anonymous": false,
      "inputs": [
        {
          "indexed": true,
          "internalType": "address",
          "name": "implementation",
          "type": "address"
        }
      ],
      "name": "Upgraded",
      "type": "event"
    },
    {
      "inputs": [],
      "name": "NAME",
      "outputs": [
        {
          "internalType": "string",
          "name": "",
          "type": "string"
        }
      ],
      "stateMutability": "view",
      "type": "function"
    },
    {
      "inputs": [],
      "name": "VERSION",
      "outputs": [
        {
          "internalType": "string",
          "name": "",
          "type": "string"
        }
      ],
      "stateMutability": "view",
      "type": "function"
    },
    {
      "inputs": [],
      "name": "accessControls",
      "outputs": [
        {
          "internalType": "contract ETSAccessControls",
          "name": "",
          "type": "address"
        }
      ],
      "stateMutability": "view",
      "type": "function"
    },
    {
      "inputs": [
        {
          "internalType": "address",
          "name": "",
          "type": "address"
        }
      ],
      "name": "accrued",
      "outputs": [
        {
          "internalType": "uint256",
          "name": "",
          "type": "uint256"
        }
      ],
      "stateMutability": "view",
      "type": "function"
    },
    {
      "inputs": [
        {
          "internalType": "string",
          "name": "_targetType",
          "type": "string"
        },
        {
          "internalType": "string",
          "name": "_targetURI",
          "type": "string"
        }
      ],
      "name": "createTarget",
      "outputs": [
        {
          "internalType": "uint256",
          "name": "targetId",
          "type": "uint256"
        }
      ],
      "stateMutability": "nonpayable",
      "type": "function"
    },
    {
      "inputs": [
        {
          "internalType": "address payable",
          "name": "_account",
          "type": "address"
        }
      ],
      "name": "drawDown",
      "outputs": [],
      "stateMutability": "nonpayable",
      "type": "function"
    },
    {
      "inputs": [],
      "name": "etsEnsure",
      "outputs": [
        {
          "internalType": "contract ETSEnsure",
          "name": "",
          "type": "address"
        }
      ],
      "stateMutability": "view",
      "type": "function"
    },
    {
      "inputs": [],
      "name": "etsTag",
      "outputs": [
        {
          "internalType": "contract ETSTag",
          "name": "",
          "type": "address"
        }
      ],
      "stateMutability": "view",
      "type": "function"
    },
    {
      "inputs": [
        {
          "internalType": "uint256",
          "name": "_nftChainId",
          "type": "uint256"
        }
      ],
      "name": "getPermittedNftChainId",
      "outputs": [
        {
          "internalType": "bool",
          "name": "",
          "type": "bool"
        }
      ],
      "stateMutability": "view",
      "type": "function"
    },
    {
      "inputs": [
        {
          "internalType": "string",
          "name": "_tagString",
          "type": "string"
        },
        {
          "internalType": "address payable",
          "name": "_publisher",
          "type": "address"
        },
        {
          "internalType": "address",
          "name": "_tagger",
          "type": "address"
        }
      ],
      "name": "getTagId",
      "outputs": [
        {
          "internalType": "uint256",
          "name": "etstagId",
          "type": "uint256"
        }
      ],
      "stateMutability": "payable",
      "type": "function"
    },
    {
      "inputs": [
        {
          "internalType": "uint256",
          "name": "_taggingId",
          "type": "uint256"
        }
      ],
      "name": "getTaggingRecord",
      "outputs": [
        {
          "internalType": "uint256",
          "name": "_etsTagId",
          "type": "uint256"
        },
        {
          "internalType": "uint256",
          "name": "_targetId",
          "type": "uint256"
        },
        {
          "internalType": "address",
          "name": "_tagger",
          "type": "address"
        },
        {
          "internalType": "address",
          "name": "_publisher",
          "type": "address"
        },
        {
          "internalType": "uint256",
          "name": "_timestamp",
          "type": "uint256"
        }
      ],
      "stateMutability": "view",
      "type": "function"
    },
    {
      "inputs": [
        {
          "internalType": "string",
          "name": "_targetType",
          "type": "string"
        },
        {
          "internalType": "string",
          "name": "_targetURI",
          "type": "string"
        }
      ],
      "name": "getTargetId",
      "outputs": [
        {
          "internalType": "uint256",
          "name": "targetId",
          "type": "uint256"
        }
      ],
      "stateMutability": "nonpayable",
      "type": "function"
    },
    {
      "inputs": [
        {
          "internalType": "contract ETSAccessControls",
          "name": "_accessControls",
          "type": "address"
        },
        {
          "internalType": "contract ETSTag",
          "name": "_etsTag",
          "type": "address"
        }
      ],
      "name": "initialize",
      "outputs": [],
      "stateMutability": "nonpayable",
      "type": "function"
    },
    {
      "inputs": [],
      "name": "modulo",
      "outputs": [
        {
          "internalType": "uint256",
          "name": "",
          "type": "uint256"
        }
      ],
      "stateMutability": "view",
      "type": "function"
    },
    {
      "inputs": [
        {
          "internalType": "address",
          "name": "",
          "type": "address"
        }
      ],
      "name": "paid",
      "outputs": [
        {
          "internalType": "uint256",
          "name": "",
          "type": "uint256"
        }
      ],
      "stateMutability": "view",
      "type": "function"
    },
    {
      "inputs": [
        {
          "internalType": "uint256",
          "name": "",
          "type": "uint256"
        }
      ],
      "name": "permittedNftChainIds",
      "outputs": [
        {
          "internalType": "bool",
          "name": "",
          "type": "bool"
        }
      ],
      "stateMutability": "view",
      "type": "function"
    },
    {
      "inputs": [],
      "name": "platformPercentage",
      "outputs": [
        {
          "internalType": "uint256",
          "name": "",
          "type": "uint256"
        }
      ],
      "stateMutability": "view",
      "type": "function"
    },
    {
      "inputs": [],
      "name": "publisherPercentage",
      "outputs": [
        {
          "internalType": "uint256",
          "name": "",
          "type": "uint256"
        }
      ],
      "stateMutability": "view",
      "type": "function"
    },
    {
      "inputs": [],
      "name": "remainingPercentage",
      "outputs": [
        {
          "internalType": "uint256",
          "name": "",
          "type": "uint256"
        }
      ],
      "stateMutability": "view",
      "type": "function"
    },
    {
      "inputs": [
        {
          "internalType": "uint256",
          "name": "_nftChainId",
          "type": "uint256"
        },
        {
          "internalType": "bool",
          "name": "_setting",
          "type": "bool"
        }
      ],
      "name": "setPermittedNftChainId",
      "outputs": [],
      "stateMutability": "nonpayable",
      "type": "function"
    },
    {
      "inputs": [
        {
          "internalType": "uint256",
          "name": "_fee",
          "type": "uint256"
        }
      ],
      "name": "setTaggingFee",
      "outputs": [],
      "stateMutability": "nonpayable",
      "type": "function"
    },
    {
      "inputs": [
        {
          "internalType": "string",
          "name": "_typeName",
          "type": "string"
        },
        {
          "internalType": "bool",
          "name": "_setting",
          "type": "bool"
        }
      ],
      "name": "setTargetType",
      "outputs": [],
      "stateMutability": "nonpayable",
      "type": "function"
    },
    {
      "inputs": [
        {
          "internalType": "string",
          "name": "_tagString",
          "type": "string"
        },
        {
          "internalType": "string",
          "name": "_targetType",
          "type": "string"
        },
        {
          "internalType": "string",
          "name": "_targetURI",
          "type": "string"
        },
        {
          "internalType": "address payable",
          "name": "_publisher",
          "type": "address"
        },
        {
          "internalType": "address",
          "name": "_tagger",
          "type": "address"
        },
        {
          "internalType": "bool",
          "name": "_ensure",
          "type": "bool"
        }
      ],
      "name": "tagTarget",
      "outputs": [],
      "stateMutability": "payable",
      "type": "function"
    },
    {
      "inputs": [],
      "name": "taggingCounter",
      "outputs": [
        {
          "internalType": "uint256",
          "name": "",
          "type": "uint256"
        }
      ],
      "stateMutability": "view",
      "type": "function"
    },
    {
      "inputs": [],
      "name": "taggingFee",
      "outputs": [
        {
          "internalType": "uint256",
          "name": "",
          "type": "uint256"
        }
      ],
      "stateMutability": "view",
      "type": "function"
    },
    {
      "inputs": [
        {
          "internalType": "uint256",
          "name": "",
          "type": "uint256"
        }
      ],
      "name": "taggingRecords",
      "outputs": [
        {
          "internalType": "uint256",
          "name": "etsTagId",
          "type": "uint256"
        },
        {
          "internalType": "uint256",
          "name": "targetId",
          "type": "uint256"
        },
        {
          "internalType": "address",
          "name": "tagger",
          "type": "address"
        },
        {
          "internalType": "address",
          "name": "publisher",
          "type": "address"
        },
        {
          "internalType": "uint256",
          "name": "timestamp",
          "type": "uint256"
        }
      ],
      "stateMutability": "view",
      "type": "function"
    },
    {
      "inputs": [
        {
          "internalType": "uint256",
          "name": "targetId",
          "type": "uint256"
        }
      ],
      "name": "targetExists",
      "outputs": [
        {
          "internalType": "bool",
          "name": "",
          "type": "bool"
        }
      ],
      "stateMutability": "view",
      "type": "function"
    },
    {
      "inputs": [
        {
          "internalType": "string",
          "name": "",
          "type": "string"
        }
      ],
      "name": "targetType",
      "outputs": [
        {
          "internalType": "bool",
          "name": "",
          "type": "bool"
        }
      ],
      "stateMutability": "view",
      "type": "function"
    },
    {
      "inputs": [
        {
          "internalType": "uint256",
          "name": "",
          "type": "uint256"
        }
      ],
      "name": "targets",
      "outputs": [
        {
          "internalType": "string",
          "name": "targetType",
          "type": "string"
        },
        {
          "internalType": "string",
          "name": "targetURI",
          "type": "string"
        },
        {
          "internalType": "uint256",
          "name": "created",
          "type": "uint256"
        },
        {
          "internalType": "uint256",
          "name": "lastEnsured",
          "type": "uint256"
        },
        {
          "internalType": "uint256",
          "name": "status",
          "type": "uint256"
        },
        {
          "internalType": "string",
          "name": "ipfsHash",
          "type": "string"
        }
      ],
      "stateMutability": "view",
      "type": "function"
    },
    {
      "inputs": [
        {
          "internalType": "address",
          "name": "_account",
          "type": "address"
        }
      ],
      "name": "totalDue",
      "outputs": [
        {
          "internalType": "uint256",
          "name": "_due",
          "type": "uint256"
        }
      ],
      "stateMutability": "view",
      "type": "function"
    },
    {
      "inputs": [
        {
          "internalType": "contract ETSAccessControls",
          "name": "_accessControls",
          "type": "address"
        }
      ],
      "name": "updateAccessControls",
      "outputs": [],
      "stateMutability": "nonpayable",
      "type": "function"
    },
    {
      "inputs": [
        {
          "internalType": "contract ETSEnsure",
          "name": "_etsEnsure",
          "type": "address"
        }
      ],
      "name": "updateETSEnsure",
      "outputs": [],
      "stateMutability": "nonpayable",
      "type": "function"
    },
    {
      "inputs": [
        {
          "internalType": "uint256",
          "name": "_platformPercentage",
          "type": "uint256"
        },
        {
          "internalType": "uint256",
          "name": "_publisherPercentage",
          "type": "uint256"
        }
      ],
      "name": "updatePercentages",
      "outputs": [],
      "stateMutability": "nonpayable",
      "type": "function"
    },
    {
      "inputs": [
        {
          "internalType": "uint256",
          "name": "_targetId",
          "type": "uint256"
        },
        {
          "internalType": "string",
          "name": "_targetType",
          "type": "string"
        },
        {
          "internalType": "string",
          "name": "_targetURI",
          "type": "string"
        },
        {
          "internalType": "uint256",
          "name": "_lastEnsured",
          "type": "uint256"
        },
        {
          "internalType": "uint256",
          "name": "_status",
          "type": "uint256"
        },
        {
          "internalType": "string",
          "name": "_ipfsHash",
          "type": "string"
        }
      ],
      "name": "updateTarget",
      "outputs": [
        {
          "internalType": "bool",
          "name": "success",
          "type": "bool"
        }
      ],
      "stateMutability": "nonpayable",
      "type": "function"
    },
    {
      "inputs": [
        {
          "internalType": "address",
          "name": "newImplementation",
          "type": "address"
        }
      ],
      "name": "upgradeTo",
      "outputs": [],
      "stateMutability": "nonpayable",
      "type": "function"
    },
    {
      "inputs": [
        {
          "internalType": "address",
          "name": "newImplementation",
          "type": "address"
        },
        {
          "internalType": "bytes",
          "name": "data",
          "type": "bytes"
        }
      ],
      "name": "upgradeToAndCall",
      "outputs": [],
      "stateMutability": "payable",
      "type": "function"
    },
    {
      "inputs": [],
      "name": "version",
      "outputs": [
        {
          "internalType": "string",
          "name": "",
          "type": "string"
        }
      ],
      "stateMutability": "pure",
      "type": "function"
    }
  ],
  "bytecode": "0x60a06040523060601b60805234801561001757600080fd5b5060805160601c6130f961004b60003960008181610ab201528181610b3c0152818161102b01526110b001526130f96000f3fe60806040526004361061026a5760003560e01c80636ef3da9411610153578063b148440f116100cb578063e16ee5a31161007f578063f8bc3cc611610064578063f8bc3cc6146107d9578063fe52656f146107f9578063ffa1ad741461080f57600080fd5b8063e16ee5a3146107a3578063e88b772c146107c357600080fd5b8063b7d0e7dd116100b0578063b7d0e7dd14610743578063c206200514610763578063c20d22951461078357600080fd5b8063b148440f146106f6578063b205f8081461072357600080fd5b8063962ed23211610122578063a3f4df7e11610107578063a3f4df7e1461067a578063a76237f6146106c3578063a97dda40146106d657600080fd5b8063962ed2321461062d578063a340cf791461064d57600080fd5b80636ef3da941461056857806374716c8114610588578063748365ef146105df5780637e2e4c521461061757600080fd5b80633659cfe6116101e6578063501a323a116101b557806354fd4d501161019a57806354fd4d50146104d65780635514d00b1461050d57806358e20dde1461054857600080fd5b8063501a323a1461042d578063507f3ba1146104b657600080fd5b80633659cfe6146103c557806336cf2c97146103e7578063485cc955146103fa5780634f1ef2861461041a57600080fd5b80631797df591161023d578063200e06af11610222578063200e06af1461036a578063297452621461039a578063337ccf9d146103af57600080fd5b80631797df59146103245780631f7418971461035457600080fd5b80630477fe281461026f5780630a39ce02146102a45780630ad2f0c3146102d6578063146da5c414610304575b600080fd5b34801561027b57600080fd5b5061028f61028a366004612cc3565b610840565b60405190151581526020015b60405180910390f35b3480156102b057600080fd5b506102c46102bf366004612cc3565b610866565b60405161029b96959493929190612f1a565b3480156102e257600080fd5b506102f66102f136600461295a565b610a32565b60405190815260200161029b565b34801561031057600080fd5b506102f661031f366004612b3c565b610a5f565b34801561033057600080fd5b5061028f61033f366004612cc3565b600090815260d3602052604090205460ff1690565b34801561036057600080fd5b506102f660cc5481565b34801561037657600080fd5b5061028f610385366004612cc3565b60d36020526000908152604090205460ff1681565b3480156103a657600080fd5b506102f6606481565b3480156103bb57600080fd5b506102f660ce5481565b3480156103d157600080fd5b506103e56103e036600461295a565b610aa7565b005b6103e56103f5366004612ba8565b610c28565b34801561040657600080fd5b506103e5610415366004612a4f565b610f07565b6103e56104283660046129ce565b611020565b34801561043957600080fd5b50610482610448366004612cc3565b600090815260d4602052604090208054600182015460028301546003840154600490940154929491936001600160a01b0391821693911691565b6040805195865260208601949094526001600160a01b0392831693850193909352166060830152608082015260a00161029b565b3480156104c257600080fd5b5061028f6104d1366004612d1a565b61118d565b3480156104e257600080fd5b50604080518082019091526005815264302e302e3160d81b60208201525b60405161029b9190612f07565b34801561051957600080fd5b5061028f610528366004612c7a565b805160208183018101805160d68252928201919093012091525460ff1681565b34801561055457600080fd5b506103e5610563366004612ae5565b611232565b34801561057457600080fd5b506103e561058336600461295a565b611370565b34801561059457600080fd5b506104826105a3366004612cc3565b60d46020526000908152604090208054600182015460028301546003840154600490940154929391926001600160a01b03918216929091169085565b3480156105eb57600080fd5b5060c9546105ff906001600160a01b031681565b6040516001600160a01b03909116815260200161029b565b34801561062357600080fd5b506102f660cd5481565b34801561063957600080fd5b506103e5610648366004612cc3565b61151a565b34801561065957600080fd5b506102f661066836600461295a565b60d26020526000908152604090205481565b34801561068657600080fd5b506105006040518060400160405280600881526020017f45545320436f726500000000000000000000000000000000000000000000000081525081565b6102f66106d1366004612a7d565b611624565b3480156106e257600080fd5b506103e56106f1366004612cf5565b611778565b34801561070257600080fd5b506102f661071136600461295a565b60d16020526000908152604090205481565b34801561072f57600080fd5b506103e561073e36600461295a565b611896565b34801561074f57600080fd5b5060cb546105ff906001600160a01b031681565b34801561076f57600080fd5b506103e561077e36600461295a565b611a38565b34801561078f57600080fd5b506103e561079e366004612dd3565b611b8c565b3480156107af57600080fd5b506102f66107be366004612b3c565b611d41565b3480156107cf57600080fd5b506102f660cf5481565b3480156107e557600080fd5b5060ca546105ff906001600160a01b031681565b34801561080557600080fd5b506102f660d05481565b34801561081b57600080fd5b5061050060405180604001604052806005815260200164302e302e3160d81b81525081565b600081815260d5602052604081206002015461085d576000610860565b60015b92915050565b60d56020526000908152604090208054819061088190613012565b80601f01602080910402602001604051908101604052809291908181526020018280546108ad90613012565b80156108fa5780601f106108cf576101008083540402835291602001916108fa565b820191906000526020600020905b8154815290600101906020018083116108dd57829003601f168201915b50505050509080600101805461090f90613012565b80601f016020809104026020016040519081016040528092919081815260200182805461093b90613012565b80156109885780601f1061095d57610100808354040283529160200191610988565b820191906000526020600020905b81548152906001019060200180831161096b57829003601f168201915b5050505050908060020154908060030154908060040154908060050180546109af90613012565b80601f01602080910402602001604051908101604052809291908181526020018280546109db90613012565b8015610a285780601f106109fd57610100808354040283529160200191610a28565b820191906000526020600020905b815481529060010190602001808311610a0b57829003601f168201915b5050505050905086565b6001600160a01b038116600090815260d2602090815260408083205460d190925282205461086091611ea8565b600080610a6e86868686611ebb565b600081815260d5602052604090206002015490915015610a8f579050610a9f565b610a9b86868686611d41565b9150505b949350505050565b306001600160a01b037f0000000000000000000000000000000000000000000000000000000000000000161415610b3a5760405162461bcd60e51b815260206004820152602c60248201527f46756e6374696f6e206d7573742062652063616c6c6564207468726f7567682060448201526b19195b1959d85d1958d85b1b60a21b60648201526084015b60405180910390fd5b7f00000000000000000000000000000000000000000000000000000000000000006001600160a01b0316610b957f360894a13ba1a3210667c828492db98dca3e2076cc3735a920a3ca505d382bbc546001600160a01b031690565b6001600160a01b031614610c005760405162461bcd60e51b815260206004820152602c60248201527f46756e6374696f6e206d7573742062652063616c6c6564207468726f7567682060448201526b6163746976652070726f787960a01b6064820152608401610b31565b610c0981611ef7565b60408051600080825260208201909252610c2591839190611fc3565b50565b60026033541415610c7b5760405162461bcd60e51b815260206004820152601f60248201527f5265656e7472616e637947756172643a207265656e7472616e742063616c6c006044820152606401610b31565b600260335560c9546040517f41859ac80000000000000000000000000000000000000000000000000000000081526001600160a01b038581166004830152909116906341859ac89060240160206040518083038186803b158015610cde57600080fd5b505afa158015610cf2573d6000803e3d6000fd5b505050506040513d601f19601f82011682018060405250810190610d169190612a32565b610d885760405162461bcd60e51b815260206004820152602660248201527f5461673a20546865207075626c6973686572206d75737420626520776869746560448201527f6c697374656400000000000000000000000000000000000000000000000000006064820152608401610b31565b60d054341015610dda5760405162461bcd60e51b815260206004820152601a60248201527f5461673a20596f75206d7573742073656e6420746865206665650000000000006044820152606401610b31565b60d68787604051610dec929190612e66565b9081526040519081900360200190205460ff16610e4b5760405162461bcd60e51b815260206004820152601f60248201527f54617267657420747970653a2054797065206e6f74207065726d6974746564006044820152606401610b31565b6000610e5988888888610a5f565b90506000610e698b8b8787611624565b90508215610ee95760cb546040517f177f2fb5000000000000000000000000000000000000000000000000000000008152600481018490526001600160a01b039091169063177f2fb590602401600060405180830381600087803b158015610ed057600080fd5b505af1158015610ee4573d6000803e3d6000fd5b505050505b610ef581838787612187565b50506001603355505050505050505050565b600054610100900460ff16610f225760005460ff1615610f26565b303b155b610f985760405162461bcd60e51b815260206004820152602e60248201527f496e697469616c697a61626c653a20636f6e747261637420697320616c72656160448201527f647920696e697469616c697a65640000000000000000000000000000000000006064820152608401610b31565b600054610100900460ff16158015610fba576000805461ffff19166101011790555b60c980546001600160a01b038086166001600160a01b03199283161790925560ca805492851692909116919091179055600060cf5566038d7ea4c6800060d055601460cc55601e60cd55603260ce55801561101b576000805461ff00191690555b505050565b306001600160a01b037f00000000000000000000000000000000000000000000000000000000000000001614156110ae5760405162461bcd60e51b815260206004820152602c60248201527f46756e6374696f6e206d7573742062652063616c6c6564207468726f7567682060448201526b19195b1959d85d1958d85b1b60a21b6064820152608401610b31565b7f00000000000000000000000000000000000000000000000000000000000000006001600160a01b03166111097f360894a13ba1a3210667c828492db98dca3e2076cc3735a920a3ca505d382bbc546001600160a01b031690565b6001600160a01b0316146111745760405162461bcd60e51b815260206004820152602c60248201527f46756e6374696f6e206d7573742062652063616c6c6564207468726f7567682060448201526b6163746976652070726f787960a01b6064820152608401610b31565b61117d82611ef7565b61118982826001611fc3565b5050565b600089815260d5602052604081206111a6908a8a61278e565b5060008a815260d5602052604090206111c390600101888861278e565b5060008a815260d56020526040902060038101869055600481018590556111ee90600501848461278e565b506040518a81527f9d29e5045b411bb06d81d8ff11c828d9f1d7eb076eec9ca45eda49fc99f762b29060200160405180910390a15060019998505050505050505050565b60c9546001600160a01b03166324d7806c336040516001600160e01b031960e084901b1681526001600160a01b03909116600482015260240160206040518083038186803b15801561128357600080fd5b505afa158015611297573d6000803e3d6000fd5b505050506040513d601f19601f820116820180604052508101906112bb9190612a32565b6112fe5760405162461bcd60e51b815260206004820152601460248201527321b0b63632b91036bab9ba1031329030b236b4b760611b6044820152606401610b31565b8060d68484604051611311929190612e66565b908152604051908190036020018120805492151560ff19909316929092179091557f8b745398e43920dcdc5d72226ca14f10dde3949b422e25d7457ed4b897378ff29061136390859085908590612ee1565b60405180910390a1505050565b60c9546001600160a01b03166324d7806c336040516001600160e01b031960e084901b1681526001600160a01b03909116600482015260240160206040518083038186803b1580156113c157600080fd5b505afa1580156113d5573d6000803e3d6000fd5b505050506040513d601f19601f820116820180604052508101906113f99190612a32565b61143c5760405162461bcd60e51b815260206004820152601460248201527321b0b63632b91036bab9ba1031329030b236b4b760611b6044820152606401610b31565b6001600160a01b0381166114b85760405162461bcd60e51b815260206004820152602860248201527f4554532e757064617465416363657373436f6e74726f6c733a2043616e6e6f7460448201527f206265207a65726f0000000000000000000000000000000000000000000000006064820152608401610b31565b60c980546001600160a01b038381166001600160a01b031983168117909355604080519190921680825260208201939093527f31073599bfae2533a348dc816b0ce777b707aa9b67015ca2d86585e842b5c6e991015b60405180910390a15050565b60c9546001600160a01b03166324d7806c336040516001600160e01b031960e084901b1681526001600160a01b03909116600482015260240160206040518083038186803b15801561156b57600080fd5b505afa15801561157f573d6000803e3d6000fd5b505050506040513d601f19601f820116820180604052508101906115a39190612a32565b6115e65760405162461bcd60e51b815260206004820152601460248201527321b0b63632b91036bab9ba1031329030b236b4b760611b6044820152606401610b31565b60d080549082905560408051828152602081018490527f861fa8a0dab775faf9bcbb5388a02f7ac01181c036f5c57982464a2d75c3608e910161150e565b60ca546040517f04befefd00000000000000000000000000000000000000000000000000000000815260009182916001600160a01b03909116906304befefd906116749089908990600401612e98565b60206040518083038186803b15801561168c57600080fd5b505afa1580156116a0573d6000803e3d6000fd5b505050506040513d601f19601f820116820180604052508101906116c49190612cdc565b90508061176f5760ca546040517f7e6d945e0000000000000000000000000000000000000000000000000000000081526001600160a01b0390911690637e6d945e9061171a908990899089908990600401612eac565b602060405180830381600087803b15801561173457600080fd5b505af1158015611748573d6000803e3d6000fd5b505050506040513d601f19601f8201168201806040525081019061176c9190612cdc565b90505b95945050505050565b60c9546001600160a01b03166324d7806c336040516001600160e01b031960e084901b1681526001600160a01b03909116600482015260240160206040518083038186803b1580156117c957600080fd5b505afa1580156117dd573d6000803e3d6000fd5b505050506040513d601f19601f820116820180604052508101906118019190612a32565b6118445760405162461bcd60e51b815260206004820152601460248201527321b0b63632b91036bab9ba1031329030b236b4b760611b6044820152606401610b31565b600082815260d36020908152604091829020805460ff19168415159081179091558251858152918201527f9a1b1e3722de574f6867ada1474b42b28458b0d93fc376664c96cb084b921181910161150e565b60c9546001600160a01b03166324d7806c336040516001600160e01b031960e084901b1681526001600160a01b03909116600482015260240160206040518083038186803b1580156118e757600080fd5b505afa1580156118fb573d6000803e3d6000fd5b505050506040513d601f19601f8201168201806040525081019061191f9190612a32565b6119625760405162461bcd60e51b815260206004820152601460248201527321b0b63632b91036bab9ba1031329030b236b4b760611b6044820152606401610b31565b6001600160a01b0381166119de5760405162461bcd60e51b815260206004820152602360248201527f4554532e757064617465455453456e737572653a2043616e6e6f74206265207a60448201527f65726f00000000000000000000000000000000000000000000000000000000006064820152608401610b31565b60cb80546001600160a01b038381166001600160a01b031983168117909355604080519190921680825260208201939093527fee20190c374934660675d28472968e002fc4af227f2956f59085225ad89239fa910161150e565b60026033541415611a8b5760405162461bcd60e51b815260206004820152601f60248201527f5265656e7472616e637947756172643a207265656e7472616e742063616c6c006044820152606401610b31565b60026033556001600160a01b038116600090815260d2602090815260408083205460d1909252822054611abd91611ea8565b9050600081118015611acf5750478111155b15611b83576001600160a01b038216600090815260d26020526040902054611af79082612543565b6001600160a01b038316600081815260d26020526040808220939093559151909183156108fc02918491818181858888f19350505050158015611b3e573d6000803e3d6000fd5b50816001600160a01b03167feaff4b37086828766ad3268786972c0cd24259d4c87a80f9d3963a3c3d999b0d82604051611b7a91815260200190565b60405180910390a25b50506001603355565b60c9546001600160a01b03166324d7806c336040516001600160e01b031960e084901b1681526001600160a01b03909116600482015260240160206040518083038186803b158015611bdd57600080fd5b505afa158015611bf1573d6000803e3d6000fd5b505050506040513d601f19601f82011682018060405250810190611c159190612a32565b611c585760405162461bcd60e51b815260206004820152601460248201527321b0b63632b91036bab9ba1031329030b236b4b760611b6044820152606401610b31565b6064611c648383612543565b1115611cd85760405162461bcd60e51b815260206004820152603760248201527f4554532e75706461746550657263656e74616765733a2070657263656e74616760448201527f6573206d757374206e6f74206265206f766572203130300000000000000000006064820152608401610b31565b60cc82905560cd819055611cf781611cf1606485611ea8565b90611ea8565b60ce81905560cc5460cd546040805192835260208301919091528101919091527f78c1b0567e296aa5eef70ad2deee29f35e0dd128cac603be855ece3e823f43089060600161150e565b600080611d5086868686611ebb565b6040805160e06020601f8a01819004028201810190925260c081018881529293509182918990899081908501838280828437600092019190915250505090825250604080516020601f88018190048102820181019092528681529181019190879087908190840183828082843760009201829052509385525050426020808501919091526040808501849052606085018490528051808301825284815260809095019490945285835260d5815292909120835180519193611e1693508492910190612812565b506020828101518051611e2f9260018501920190612812565b5060408201516002820155606082015160038201556080820151600482015560a08201518051611e69916005840191602090910190612812565b50506040518281527f503a6e6145f2d2a2a9b0845c2193aef653400c52f93b1c897bd55d36a396be7c915060200160405180910390a195945050505050565b6000611eb48284612fcb565b9392505050565b60008085858585604051602001611ed59493929190612e76565b60408051808303601f1901815291905280516020909101209695505050505050565b60c9546001600160a01b03166324d7806c336040516001600160e01b031960e084901b1681526001600160a01b03909116600482015260240160206040518083038186803b158015611f4857600080fd5b505afa158015611f5c573d6000803e3d6000fd5b505050506040513d601f19601f82011682018060405250810190611f809190612a32565b610c255760405162461bcd60e51b815260206004820152601460248201527321b0b63632b91036bab9ba1031329030b236b4b760611b6044820152606401610b31565b6000611ff67f360894a13ba1a3210667c828492db98dca3e2076cc3735a920a3ca505d382bbc546001600160a01b031690565b90506120018461254f565b60008351118061200e5750815b1561201f5761201d8484612604565b505b7f4910fdfa16fed3260ed0e7147f7cc6da11a60208b5b9406d12a635614ffd9143805460ff1661218057805460ff191660011781556040516001600160a01b03831660248201526120cc90869060440160408051601f198184030181529190526020810180517bffffffffffffffffffffffffffffffffffffffffffffffffffffffff167f3659cfe600000000000000000000000000000000000000000000000000000000179052612604565b50805460ff191681557f360894a13ba1a3210667c828492db98dca3e2076cc3735a920a3ca505d382bbc546001600160a01b038381169116146121775760405162461bcd60e51b815260206004820152602f60248201527f45524331393637557067726164653a207570677261646520627265616b73206660448201527f75727468657220757067726164657300000000000000000000000000000000006064820152608401610b31565b612180856126fd565b5050505050565b60cf54612195906001612543565b60cf8190556040805160a08101825286815260208082018781526001600160a01b03808716848601908152888216606086019081524260808701908152600089815260d4909652878620965187559351600187015590516002860180549184166001600160a01b0319928316179055905160038601805491841691909216179055905160049384015560ca5493517f878327ab0000000000000000000000000000000000000000000000000000000081529193849391169163878327ab91612263918b910190815260200190565b604080518083038186803b15801561227a57600080fd5b505afa15801561228e573d6000803e3d6000fd5b505050506040513d601f19601f820116820180604052508101906122b29190612994565b91509150816001600160a01b0316816001600160a01b0316141561246c576123126122f360646122ed60cc543461273d90919063ffffffff16565b90612749565b6001600160a01b038416600090815260d1602052604090205490612543565b6001600160a01b038316600090815260d1602052604090205560cd5461236390612344906064906122ed90349061273d565b6001600160a01b038716600090815260d1602052604090205490612543565b6001600160a01b03868116600090815260d160205260408082209390935560ca5492517fa30b4db9000000000000000000000000000000000000000000000000000000008152600481018b905290929091169063a30b4db99060240160206040518083038186803b1580156123d757600080fd5b505afa1580156123eb573d6000803e3d6000fd5b505050506040513d601f19601f8201168201806040525081019061240f9190612977565b905061244d61242e60646122ed60ce543461273d90919063ffffffff16565b6001600160a01b038316600090815260d1602052604090205490612543565b6001600160a01b03909116600090815260d16020526040902055612507565b6124896122f360646122ed60cc543461273d90919063ffffffff16565b6001600160a01b038316600090815260d1602052604090205560cd546124bb90612344906064906122ed90349061273d565b6001600160a01b038616600090815260d1602052604090205560ce546124ed9061242e906064906122ed90349061273d565b6001600160a01b038216600090815260d160205260409020555b6040518381527f81b185c481377e520177bddb63bab2a8d220831d7c07b748c2baf29c6e6070709060200160405180910390a150505050505050565b6000611eb48284612f72565b803b6125c35760405162461bcd60e51b815260206004820152602d60248201527f455243313936373a206e657720696d706c656d656e746174696f6e206973206e60448201527f6f74206120636f6e7472616374000000000000000000000000000000000000006064820152608401610b31565b7f360894a13ba1a3210667c828492db98dca3e2076cc3735a920a3ca505d382bbc80546001600160a01b0319166001600160a01b0392909216919091179055565b6060823b61267a5760405162461bcd60e51b815260206004820152602660248201527f416464726573733a2064656c65676174652063616c6c20746f206e6f6e2d636f60448201527f6e747261637400000000000000000000000000000000000000000000000000006064820152608401610b31565b600080846001600160a01b0316846040516126959190612e4a565b600060405180830381855af49150503d80600081146126d0576040519150601f19603f3d011682016040523d82523d6000602084013e6126d5565b606091505b509150915061176f828260405180606001604052806027815260200161309d60279139612755565b6127068161254f565b6040516001600160a01b038216907fbc7cd75a20ee27fd9adebab32041f755214dbc6bffa90cc0225b39da2e5c2d3b90600090a250565b6000611eb48284612fac565b6000611eb48284612f8a565b60608315612764575081611eb4565b8251156127745782518084602001fd5b8160405162461bcd60e51b8152600401610b319190612f07565b82805461279a90613012565b90600052602060002090601f0160209004810192826127bc5760008555612802565b82601f106127d55782800160ff19823516178555612802565b82800160010185558215612802579182015b828111156128025782358255916020019190600101906127e7565b5061280e929150612886565b5090565b82805461281e90613012565b90600052602060002090601f0160209004810192826128405760008555612802565b82601f1061285957805160ff1916838001178555612802565b82800160010185558215612802579182015b8281111561280257825182559160200191906001019061286b565b5b8082111561280e5760008155600101612887565b600067ffffffffffffffff808411156128b6576128b6613063565b604051601f8501601f19908116603f011681019082821181831017156128de576128de613063565b816040528093508581528686860111156128f757600080fd5b858560208301376000602087830101525050509392505050565b60008083601f84011261292357600080fd5b50813567ffffffffffffffff81111561293b57600080fd5b60208301915083602082850101111561295357600080fd5b9250929050565b60006020828403121561296c57600080fd5b8135611eb481613079565b60006020828403121561298957600080fd5b8151611eb481613079565b600080604083850312156129a757600080fd5b82516129b281613079565b60208401519092506129c381613079565b809150509250929050565b600080604083850312156129e157600080fd5b82356129ec81613079565b9150602083013567ffffffffffffffff811115612a0857600080fd5b8301601f81018513612a1957600080fd5b612a288582356020840161289b565b9150509250929050565b600060208284031215612a4457600080fd5b8151611eb48161308e565b60008060408385031215612a6257600080fd5b8235612a6d81613079565b915060208301356129c381613079565b60008060008060608587031215612a9357600080fd5b843567ffffffffffffffff811115612aaa57600080fd5b612ab687828801612911565b9095509350506020850135612aca81613079565b91506040850135612ada81613079565b939692955090935050565b600080600060408486031215612afa57600080fd5b833567ffffffffffffffff811115612b1157600080fd5b612b1d86828701612911565b9094509250506020840135612b318161308e565b809150509250925092565b60008060008060408587031215612b5257600080fd5b843567ffffffffffffffff80821115612b6a57600080fd5b612b7688838901612911565b90965094506020870135915080821115612b8f57600080fd5b50612b9c87828801612911565b95989497509550505050565b600080600080600080600080600060c08a8c031215612bc657600080fd5b893567ffffffffffffffff80821115612bde57600080fd5b612bea8d838e01612911565b909b50995060208c0135915080821115612c0357600080fd5b612c0f8d838e01612911565b909950975060408c0135915080821115612c2857600080fd5b50612c358c828d01612911565b90965094505060608a0135612c4981613079565b925060808a0135612c5981613079565b915060a08a0135612c698161308e565b809150509295985092959850929598565b600060208284031215612c8c57600080fd5b813567ffffffffffffffff811115612ca357600080fd5b8201601f81018413612cb457600080fd5b610a9f8482356020840161289b565b600060208284031215612cd557600080fd5b5035919050565b600060208284031215612cee57600080fd5b5051919050565b60008060408385031215612d0857600080fd5b8235915060208301356129c38161308e565b600080600080600080600080600060c08a8c031215612d3857600080fd5b8935985060208a013567ffffffffffffffff80821115612d5757600080fd5b612d638d838e01612911565b909a50985060408c0135915080821115612d7c57600080fd5b612d888d838e01612911565b909850965060608c0135955060808c0135945060a08c0135915080821115612daf57600080fd5b50612dbc8c828d01612911565b915080935050809150509295985092959850929598565b60008060408385031215612de657600080fd5b50508035926020909101359150565b81835281816020850137506000828201602090810191909152601f909101601f19169091010190565b60008151808452612e36816020860160208601612fe2565b601f01601f19169290920160200192915050565b60008251612e5c818460208701612fe2565b9190910192915050565b8183823760009101908152919050565b8385823760008482016000815283858237600093019283525090949350505050565b602081526000610a9f602083018486612df5565b606081526000612ec0606083018688612df5565b6001600160a01b039485166020840152929093166040909101529392505050565b604081526000612ef5604083018587612df5565b90508215156020830152949350505050565b602081526000611eb46020830184612e1e565b60c081526000612f2d60c0830189612e1e565b8281036020840152612f3f8189612e1e565b905086604084015285606084015284608084015282810360a0840152612f658185612e1e565b9998505050505050505050565b60008219821115612f8557612f8561304d565b500190565b600082612fa757634e487b7160e01b600052601260045260246000fd5b500490565b6000816000190483118215151615612fc657612fc661304d565b500290565b600082821015612fdd57612fdd61304d565b500390565b60005b83811015612ffd578181015183820152602001612fe5565b8381111561300c576000848401525b50505050565b600181811c9082168061302657607f821691505b6020821081141561304757634e487b7160e01b600052602260045260246000fd5b50919050565b634e487b7160e01b600052601160045260246000fd5b634e487b7160e01b600052604160045260246000fd5b6001600160a01b0381168114610c2557600080fd5b8015158114610c2557600080fdfe416464726573733a206c6f772d6c6576656c2064656c65676174652063616c6c206661696c6564a2646970667358221220053ae6d13322963b283921bf041127aa9544e9c1e5e9612c64e00a0b4b32abf064736f6c63430008070033",
  "linkReferences": {},
  "deployedLinkReferences": {}
}