{
  "_format": "hh-sol-artifact-1",
  "contractName": "ETS",
  "sourceName": "contracts/core/ETS.sol",
  "abi": [
    {
      "anonymous": false,
      "inputs": [
        {
          "indexed": false,
          "internalType": "contract ETSAccessControls",
          "name": "previousAccessControls",
          "type": "address"
        },
        {
          "indexed": false,
          "internalType": "contract ETSAccessControls",
          "name": "newAccessControls",
          "type": "address"
        }
      ],
      "name": "AccessControlsUpdated",
      "type": "event"
    },
    {
      "anonymous": false,
      "inputs": [
        {
          "indexed": false,
          "internalType": "address",
          "name": "previousAdmin",
          "type": "address"
        },
        {
          "indexed": false,
          "internalType": "address",
          "name": "newAdmin",
          "type": "address"
        }
      ],
      "name": "AdminChanged",
      "type": "event"
    },
    {
      "anonymous": false,
      "inputs": [
        {
          "indexed": true,
          "internalType": "address",
          "name": "beacon",
          "type": "address"
        }
      ],
      "name": "BeaconUpgraded",
      "type": "event"
    },
    {
      "anonymous": false,
      "inputs": [
        {
          "indexed": false,
          "internalType": "contract ETSEnsure",
          "name": "previousETSEnsure",
          "type": "address"
        },
        {
          "indexed": false,
          "internalType": "contract ETSEnsure",
          "name": "newETSEnsure",
          "type": "address"
        }
      ],
      "name": "ETSEnsureUpdated",
      "type": "event"
    },
    {
      "anonymous": false,
      "inputs": [
        {
          "indexed": true,
          "internalType": "address",
          "name": "who",
          "type": "address"
        },
        {
          "indexed": false,
          "internalType": "uint256",
          "name": "amount",
          "type": "uint256"
        }
      ],
      "name": "FundsWithdrawn",
      "type": "event"
    },
    {
      "anonymous": false,
      "inputs": [
        {
          "indexed": false,
          "internalType": "uint256",
          "name": "platformPercentage",
          "type": "uint256"
        },
        {
          "indexed": false,
          "internalType": "uint256",
          "name": "publisherPercentage",
          "type": "uint256"
        },
        {
          "indexed": false,
          "internalType": "uint256",
          "name": "remainingPercentage",
          "type": "uint256"
        }
      ],
      "name": "PercentagesSet",
      "type": "event"
    },
    {
      "anonymous": false,
      "inputs": [
        {
          "indexed": false,
          "internalType": "uint256",
          "name": "nftChainId",
          "type": "uint256"
        },
        {
          "indexed": false,
          "internalType": "bool",
          "name": "setting",
          "type": "bool"
        }
      ],
      "name": "PermittedNftChainIdSet",
      "type": "event"
    },
    {
      "anonymous": false,
      "inputs": [
        {
          "indexed": false,
          "internalType": "uint256",
          "name": "targetId",
          "type": "uint256"
        }
      ],
      "name": "RequestEnsureTarget",
      "type": "event"
    },
    {
      "anonymous": false,
      "inputs": [
        {
          "indexed": false,
          "internalType": "uint256",
          "name": "previousFee",
          "type": "uint256"
        },
        {
          "indexed": false,
          "internalType": "uint256",
          "name": "taggingFee",
          "type": "uint256"
        }
      ],
      "name": "TaggingFeeSet",
      "type": "event"
    },
    {
      "anonymous": false,
      "inputs": [
        {
          "indexed": false,
          "internalType": "uint256",
          "name": "targetId",
          "type": "uint256"
        }
      ],
      "name": "TargetCreated",
      "type": "event"
    },
    {
      "anonymous": false,
      "inputs": [
        {
          "indexed": false,
          "internalType": "uint256",
          "name": "taggingId",
          "type": "uint256"
        }
      ],
      "name": "TargetTagged",
      "type": "event"
    },
    {
      "anonymous": false,
      "inputs": [
        {
          "indexed": false,
          "internalType": "string",
          "name": "typeName",
          "type": "string"
        },
        {
          "indexed": false,
          "internalType": "bool",
          "name": "setting",
          "type": "bool"
        }
      ],
      "name": "TargetTypeSet",
      "type": "event"
    },
    {
      "anonymous": false,
      "inputs": [
        {
          "indexed": false,
          "internalType": "uint256",
          "name": "targetId",
          "type": "uint256"
        }
      ],
      "name": "TargetUpdated",
      "type": "event"
    },
    {
      "anonymous": false,
      "inputs": [
        {
          "indexed": true,
          "internalType": "address",
          "name": "implementation",
          "type": "address"
        }
      ],
      "name": "Upgraded",
      "type": "event"
    },
    {
      "inputs": [],
      "name": "NAME",
      "outputs": [
        {
          "internalType": "string",
          "name": "",
          "type": "string"
        }
      ],
      "stateMutability": "view",
      "type": "function"
    },
    {
      "inputs": [],
      "name": "VERSION",
      "outputs": [
        {
          "internalType": "string",
          "name": "",
          "type": "string"
        }
      ],
      "stateMutability": "view",
      "type": "function"
    },
    {
      "inputs": [],
      "name": "accessControls",
      "outputs": [
        {
          "internalType": "contract ETSAccessControls",
          "name": "",
          "type": "address"
        }
      ],
      "stateMutability": "view",
      "type": "function"
    },
    {
      "inputs": [
        {
          "internalType": "address",
          "name": "",
          "type": "address"
        }
      ],
      "name": "accrued",
      "outputs": [
        {
          "internalType": "uint256",
          "name": "",
          "type": "uint256"
        }
      ],
      "stateMutability": "view",
      "type": "function"
    },
    {
      "inputs": [
        {
          "internalType": "string",
          "name": "_targetType",
          "type": "string"
        },
        {
          "internalType": "string",
          "name": "_targetURI",
          "type": "string"
        }
      ],
      "name": "createTarget",
      "outputs": [
        {
          "internalType": "uint256",
          "name": "targetId",
          "type": "uint256"
        }
      ],
      "stateMutability": "nonpayable",
      "type": "function"
    },
    {
      "inputs": [
        {
          "internalType": "address payable",
          "name": "_account",
          "type": "address"
        }
      ],
      "name": "drawDown",
      "outputs": [],
      "stateMutability": "nonpayable",
      "type": "function"
    },
    {
      "inputs": [],
      "name": "etsEnsure",
      "outputs": [
        {
          "internalType": "contract ETSEnsure",
          "name": "",
          "type": "address"
        }
      ],
      "stateMutability": "view",
      "type": "function"
    },
    {
      "inputs": [],
      "name": "etsTag",
      "outputs": [
        {
          "internalType": "contract ETSTag",
          "name": "",
          "type": "address"
        }
      ],
      "stateMutability": "view",
      "type": "function"
    },
    {
      "inputs": [
        {
          "internalType": "uint256",
          "name": "_nftChainId",
          "type": "uint256"
        }
      ],
      "name": "getPermittedNftChainId",
      "outputs": [
        {
          "internalType": "bool",
          "name": "",
          "type": "bool"
        }
      ],
      "stateMutability": "view",
      "type": "function"
    },
    {
      "inputs": [
        {
          "internalType": "string",
          "name": "_tagString",
          "type": "string"
        },
        {
          "internalType": "address payable",
          "name": "_publisher",
          "type": "address"
        },
        {
          "internalType": "address",
          "name": "_tagger",
          "type": "address"
        }
      ],
      "name": "getTagId",
      "outputs": [
        {
          "internalType": "uint256",
          "name": "etstagId",
          "type": "uint256"
        }
      ],
      "stateMutability": "payable",
      "type": "function"
    },
    {
      "inputs": [
        {
          "internalType": "uint256",
          "name": "_taggingId",
          "type": "uint256"
        }
      ],
      "name": "getTaggingRecord",
      "outputs": [
        {
          "internalType": "uint256",
          "name": "_etsTagId",
          "type": "uint256"
        },
        {
          "internalType": "uint256",
          "name": "_targetId",
          "type": "uint256"
        },
        {
          "internalType": "address",
          "name": "_tagger",
          "type": "address"
        },
        {
          "internalType": "address",
          "name": "_publisher",
          "type": "address"
        },
        {
          "internalType": "uint256",
          "name": "_timestamp",
          "type": "uint256"
        }
      ],
      "stateMutability": "view",
      "type": "function"
    },
    {
      "inputs": [
        {
          "internalType": "string",
          "name": "_targetType",
          "type": "string"
        },
        {
          "internalType": "string",
          "name": "_targetURI",
          "type": "string"
        }
      ],
      "name": "getTargetId",
      "outputs": [
        {
          "internalType": "uint256",
          "name": "targetId",
          "type": "uint256"
        }
      ],
      "stateMutability": "nonpayable",
      "type": "function"
    },
    {
      "inputs": [
        {
          "internalType": "contract ETSAccessControls",
          "name": "_accessControls",
          "type": "address"
        },
        {
          "internalType": "contract ETSTag",
          "name": "_etsTag",
          "type": "address"
        }
      ],
      "name": "initialize",
      "outputs": [],
      "stateMutability": "nonpayable",
      "type": "function"
    },
    {
      "inputs": [],
      "name": "modulo",
      "outputs": [
        {
          "internalType": "uint256",
          "name": "",
          "type": "uint256"
        }
      ],
      "stateMutability": "view",
      "type": "function"
    },
    {
      "inputs": [
        {
          "internalType": "address",
          "name": "",
          "type": "address"
        }
      ],
      "name": "paid",
      "outputs": [
        {
          "internalType": "uint256",
          "name": "",
          "type": "uint256"
        }
      ],
      "stateMutability": "view",
      "type": "function"
    },
    {
      "inputs": [
        {
          "internalType": "uint256",
          "name": "",
          "type": "uint256"
        }
      ],
      "name": "permittedNftChainIds",
      "outputs": [
        {
          "internalType": "bool",
          "name": "",
          "type": "bool"
        }
      ],
      "stateMutability": "view",
      "type": "function"
    },
    {
      "inputs": [],
      "name": "platformPercentage",
      "outputs": [
        {
          "internalType": "uint256",
          "name": "",
          "type": "uint256"
        }
      ],
      "stateMutability": "view",
      "type": "function"
    },
    {
      "inputs": [],
      "name": "publisherPercentage",
      "outputs": [
        {
          "internalType": "uint256",
          "name": "",
          "type": "uint256"
        }
      ],
      "stateMutability": "view",
      "type": "function"
    },
    {
      "inputs": [],
      "name": "remainingPercentage",
      "outputs": [
        {
          "internalType": "uint256",
          "name": "",
          "type": "uint256"
        }
      ],
      "stateMutability": "view",
      "type": "function"
    },
    {
      "inputs": [
        {
          "internalType": "uint256",
          "name": "_nftChainId",
          "type": "uint256"
        },
        {
          "internalType": "bool",
          "name": "_setting",
          "type": "bool"
        }
      ],
      "name": "setPermittedNftChainId",
      "outputs": [],
      "stateMutability": "nonpayable",
      "type": "function"
    },
    {
      "inputs": [
        {
          "internalType": "uint256",
          "name": "_fee",
          "type": "uint256"
        }
      ],
      "name": "setTaggingFee",
      "outputs": [],
      "stateMutability": "nonpayable",
      "type": "function"
    },
    {
      "inputs": [
        {
          "internalType": "string",
          "name": "_tagString",
          "type": "string"
        },
        {
          "internalType": "string",
          "name": "_targetURI",
          "type": "string"
        },
        {
          "internalType": "address payable",
          "name": "_publisher",
          "type": "address"
        },
        {
          "internalType": "address",
          "name": "_tagger",
          "type": "address"
        },
        {
          "internalType": "bool",
          "name": "_ensure",
          "type": "bool"
        }
      ],
      "name": "tagTarget",
      "outputs": [],
      "stateMutability": "payable",
      "type": "function"
    },
    {
      "inputs": [],
      "name": "taggingCounter",
      "outputs": [
        {
          "internalType": "uint256",
          "name": "",
          "type": "uint256"
        }
      ],
      "stateMutability": "view",
      "type": "function"
    },
    {
      "inputs": [],
      "name": "taggingFee",
      "outputs": [
        {
          "internalType": "uint256",
          "name": "",
          "type": "uint256"
        }
      ],
      "stateMutability": "view",
      "type": "function"
    },
    {
      "inputs": [
        {
          "internalType": "uint256",
          "name": "",
          "type": "uint256"
        }
      ],
      "name": "taggingRecords",
      "outputs": [
        {
          "internalType": "uint256",
          "name": "etsTagId",
          "type": "uint256"
        },
        {
          "internalType": "uint256",
          "name": "targetId",
          "type": "uint256"
        },
        {
          "internalType": "address",
          "name": "tagger",
          "type": "address"
        },
        {
          "internalType": "address",
          "name": "publisher",
          "type": "address"
        },
        {
          "internalType": "uint256",
          "name": "timestamp",
          "type": "uint256"
        }
      ],
      "stateMutability": "view",
      "type": "function"
    },
    {
      "inputs": [
        {
          "internalType": "uint256",
          "name": "targetId",
          "type": "uint256"
        }
      ],
      "name": "targetExists",
      "outputs": [
        {
          "internalType": "bool",
          "name": "",
          "type": "bool"
        }
      ],
      "stateMutability": "view",
      "type": "function"
    },
    {
      "inputs": [
        {
          "internalType": "uint256",
          "name": "",
          "type": "uint256"
        }
      ],
      "name": "targets",
      "outputs": [
        {
          "internalType": "string",
          "name": "targetType",
          "type": "string"
        },
        {
          "internalType": "string",
          "name": "targetURI",
          "type": "string"
        },
        {
          "internalType": "uint256",
          "name": "created",
          "type": "uint256"
        },
        {
          "internalType": "uint256",
          "name": "lastEnsured",
          "type": "uint256"
        },
        {
          "internalType": "uint256",
          "name": "status",
          "type": "uint256"
        },
        {
          "internalType": "string",
          "name": "ipfsHash",
          "type": "string"
        }
      ],
      "stateMutability": "view",
      "type": "function"
    },
    {
      "inputs": [
        {
          "internalType": "address",
          "name": "_account",
          "type": "address"
        }
      ],
      "name": "totalDue",
      "outputs": [
        {
          "internalType": "uint256",
          "name": "_due",
          "type": "uint256"
        }
      ],
      "stateMutability": "view",
      "type": "function"
    },
    {
      "inputs": [
        {
          "internalType": "contract ETSAccessControls",
          "name": "_accessControls",
          "type": "address"
        }
      ],
      "name": "updateAccessControls",
      "outputs": [],
      "stateMutability": "nonpayable",
      "type": "function"
    },
    {
      "inputs": [
        {
          "internalType": "contract ETSEnsure",
          "name": "_etsEnsure",
          "type": "address"
        }
      ],
      "name": "updateETSEnsure",
      "outputs": [],
      "stateMutability": "nonpayable",
      "type": "function"
    },
    {
      "inputs": [
        {
          "internalType": "uint256",
          "name": "_platformPercentage",
          "type": "uint256"
        },
        {
          "internalType": "uint256",
          "name": "_publisherPercentage",
          "type": "uint256"
        }
      ],
      "name": "updatePercentages",
      "outputs": [],
      "stateMutability": "nonpayable",
      "type": "function"
    },
    {
      "inputs": [
        {
          "internalType": "uint256",
          "name": "_targetId",
          "type": "uint256"
        },
        {
          "internalType": "string",
          "name": "_targetType",
          "type": "string"
        },
        {
          "internalType": "string",
          "name": "_targetURI",
          "type": "string"
        },
        {
          "internalType": "uint256",
          "name": "_lastEnsured",
          "type": "uint256"
        },
        {
          "internalType": "uint256",
          "name": "_status",
          "type": "uint256"
        },
        {
          "internalType": "string",
          "name": "_ipfsHash",
          "type": "string"
        }
      ],
      "name": "updateTarget",
      "outputs": [
        {
          "internalType": "bool",
          "name": "success",
          "type": "bool"
        }
      ],
      "stateMutability": "nonpayable",
      "type": "function"
    },
    {
      "inputs": [
        {
          "internalType": "address",
          "name": "newImplementation",
          "type": "address"
        }
      ],
      "name": "upgradeTo",
      "outputs": [],
      "stateMutability": "nonpayable",
      "type": "function"
    },
    {
      "inputs": [
        {
          "internalType": "address",
          "name": "newImplementation",
          "type": "address"
        },
        {
          "internalType": "bytes",
          "name": "data",
          "type": "bytes"
        }
      ],
      "name": "upgradeToAndCall",
      "outputs": [],
      "stateMutability": "payable",
      "type": "function"
    },
    {
      "inputs": [],
      "name": "version",
      "outputs": [
        {
          "internalType": "string",
          "name": "",
          "type": "string"
        }
      ],
      "stateMutability": "pure",
      "type": "function"
    }
  ],
  "bytecode": "0x60a06040523060601b60805234801561001757600080fd5b5060805160601c612ff761004b60003960008181610a1f01528181610aa901528181610cb90152610d3e0152612ff76000f3fe6080604052600436106102345760003560e01c8063748365ef11610138578063b3e74f4f116100b0578063e16ee5a31161007f578063f8bc3cc611610064578063f8bc3cc614610748578063fe52656f14610768578063ffa1ad741461077e57600080fd5b8063e16ee5a314610712578063e88b772c1461073257600080fd5b8063b3e74f4f1461069f578063b7d0e7dd146106b2578063c2062005146106d2578063c20d2295146106f257600080fd5b8063a3f4df7e11610107578063a97dda40116100ec578063a97dda4014610632578063b148440f14610652578063b205f8081461067f57600080fd5b8063a3f4df7e146105d6578063a76237f61461061f57600080fd5b8063748365ef1461053b5780637e2e4c5214610573578063962ed23214610589578063a340cf79146105a957600080fd5b8063337ccf9d116101cb578063501a323a1161019a57806354fd4d501161017f57806354fd4d501461048d5780636ef3da94146104c457806374716c81146104e457600080fd5b8063501a323a146103e4578063507f3ba11461046d57600080fd5b8063337ccf9d146103795780633659cfe61461038f578063485cc955146103b15780634f1ef286146103d157600080fd5b80631797df59116102075780631797df59146102ee5780631f7418971461031e578063200e06af14610334578063297452621461036457600080fd5b80630477fe28146102395780630a39ce021461026e5780630ad2f0c3146102a0578063146da5c4146102ce575b600080fd5b34801561024557600080fd5b50610259610254366004612b75565b6107af565b60405190151581526020015b60405180910390f35b34801561027a57600080fd5b5061028e610289366004612b75565b6107d5565b60405161026596959493929190612da4565b3480156102ac57600080fd5b506102c06102bb366004612853565b6109a1565b604051908152602001610265565b3480156102da57600080fd5b506102c06102e9366004612af5565b6109cf565b3480156102fa57600080fd5b50610259610309366004612b75565b600090815260d3602052604090205460ff1690565b34801561032a57600080fd5b506102c060cc5481565b34801561034057600080fd5b5061025961034f366004612b75565b60d36020526000908152604090205460ff1681565b34801561037057600080fd5b506102c0606481565b34801561038557600080fd5b506102c060ce5481565b34801561039b57600080fd5b506103af6103aa366004612853565b610a14565b005b3480156103bd57600080fd5b506103af6103cc366004612948565b610b95565b6103af6103df3660046128c7565b610cae565b3480156103f057600080fd5b506104396103ff366004612b75565b600090815260d4602052604090208054600182015460028301546003840154600490940154929491936001600160a01b0391821693911691565b6040805195865260208601949094526001600160a01b0392831693850193909352166060830152608082015260a001610265565b34801561047957600080fd5b50610259610488366004612bcc565b610e1b565b34801561049957600080fd5b50604080518082019091526005815264302e302e3160d81b60208201525b6040516102659190612d91565b3480156104d057600080fd5b506103af6104df366004612853565b610ec0565b3480156104f057600080fd5b506104396104ff366004612b75565b60d46020526000908152604090208054600182015460028301546003840154600490940154929391926001600160a01b03918216929091169085565b34801561054757600080fd5b5060c95461055b906001600160a01b031681565b6040516001600160a01b039091168152602001610265565b34801561057f57600080fd5b506102c060cd5481565b34801561059557600080fd5b506103af6105a4366004612b75565b61106a565b3480156105b557600080fd5b506102c06105c4366004612853565b60d26020526000908152604090205481565b3480156105e257600080fd5b506104b76040518060400160405280600881526020017f45545320436f726500000000000000000000000000000000000000000000000081525081565b6102c061062d366004612976565b611174565b34801561063e57600080fd5b506103af61064d366004612ba7565b6112c8565b34801561065e57600080fd5b506102c061066d366004612853565b60d16020526000908152604090205481565b34801561068b57600080fd5b506103af61069a366004612853565b6113e6565b6103af6106ad3660046129de565b611588565b3480156106be57600080fd5b5060cb5461055b906001600160a01b031681565b3480156106de57600080fd5b506103af6106ed366004612853565b61196c565b3480156106fe57600080fd5b506103af61070d366004612c85565b611ac2565b34801561071e57600080fd5b506102c061072d366004612af5565b611c78565b34801561073e57600080fd5b506102c060cf5481565b34801561075457600080fd5b5060ca5461055b906001600160a01b031681565b34801561077457600080fd5b506102c060d05481565b34801561078a57600080fd5b506104b760405180604001604052806005815260200164302e302e3160d81b81525081565b600081815260d560205260408120600201546107cc5760006107cf565b60015b92915050565b60d5602052600090815260409020805481906107f090612ef5565b80601f016020809104026020016040519081016040528092919081815260200182805461081c90612ef5565b80156108695780601f1061083e57610100808354040283529160200191610869565b820191906000526020600020905b81548152906001019060200180831161084c57829003601f168201915b50505050509080600101805461087e90612ef5565b80601f01602080910402602001604051908101604052809291908181526020018280546108aa90612ef5565b80156108f75780601f106108cc576101008083540402835291602001916108f7565b820191906000526020600020905b8154815290600101906020018083116108da57829003601f168201915b50505050509080600201549080600301549080600401549080600501805461091e90612ef5565b80601f016020809104026020016040519081016040528092919081815260200182805461094a90612ef5565b80156109975780601f1061096c57610100808354040283529160200191610997565b820191906000526020600020905b81548152906001019060200180831161097a57829003601f168201915b5050505050905086565b6001600160a01b038116600090815260d2602090815260408083205460d19092528220546107cf9190612eae565b6000806109dd858585611dad565b600081815260d56020526040902060020154909150156109fe579050610a0d565b610a09858585611c78565b9150505b9392505050565b306001600160a01b037f0000000000000000000000000000000000000000000000000000000000000000161415610aa75760405162461bcd60e51b815260206004820152602c60248201527f46756e6374696f6e206d7573742062652063616c6c6564207468726f7567682060448201526b19195b1959d85d1958d85b1b60a21b60648201526084015b60405180910390fd5b7f00000000000000000000000000000000000000000000000000000000000000006001600160a01b0316610b027f360894a13ba1a3210667c828492db98dca3e2076cc3735a920a3ca505d382bbc546001600160a01b031690565b6001600160a01b031614610b6d5760405162461bcd60e51b815260206004820152602c60248201527f46756e6374696f6e206d7573742062652063616c6c6564207468726f7567682060448201526b6163746976652070726f787960a01b6064820152608401610a9e565b610b7681611de6565b60408051600080825260208201909252610b9291839190611eb2565b50565b600054610100900460ff16610bb05760005460ff1615610bb4565b303b155b610c265760405162461bcd60e51b815260206004820152602e60248201527f496e697469616c697a61626c653a20636f6e747261637420697320616c72656160448201527f647920696e697469616c697a65640000000000000000000000000000000000006064820152608401610a9e565b600054610100900460ff16158015610c48576000805461ffff19166101011790555b60c980546001600160a01b038086166001600160a01b03199283161790925560ca805492851692909116919091179055600060cf5566038d7ea4c6800060d055601460cc55601e60cd55603260ce558015610ca9576000805461ff00191690555b505050565b306001600160a01b037f0000000000000000000000000000000000000000000000000000000000000000161415610d3c5760405162461bcd60e51b815260206004820152602c60248201527f46756e6374696f6e206d7573742062652063616c6c6564207468726f7567682060448201526b19195b1959d85d1958d85b1b60a21b6064820152608401610a9e565b7f00000000000000000000000000000000000000000000000000000000000000006001600160a01b0316610d977f360894a13ba1a3210667c828492db98dca3e2076cc3735a920a3ca505d382bbc546001600160a01b031690565b6001600160a01b031614610e025760405162461bcd60e51b815260206004820152602c60248201527f46756e6374696f6e206d7573742062652063616c6c6564207468726f7567682060448201526b6163746976652070726f787960a01b6064820152608401610a9e565b610e0b82611de6565b610e1782826001611eb2565b5050565b600089815260d560205260408120610e34908a8a6126bf565b5060008a815260d560205260409020610e519060010188886126bf565b5060008a815260d5602052604090206003810186905560048101859055610e7c9060050184846126bf565b506040518a81527f9d29e5045b411bb06d81d8ff11c828d9f1d7eb076eec9ca45eda49fc99f762b29060200160405180910390a15060019998505050505050505050565b60c9546001600160a01b03166324d7806c336040516001600160e01b031960e084901b1681526001600160a01b03909116600482015260240160206040518083038186803b158015610f1157600080fd5b505afa158015610f25573d6000803e3d6000fd5b505050506040513d601f19601f82011682018060405250810190610f49919061292b565b610f8c5760405162461bcd60e51b815260206004820152601460248201527321b0b63632b91036bab9ba1031329030b236b4b760611b6044820152606401610a9e565b6001600160a01b0381166110085760405162461bcd60e51b815260206004820152602860248201527f4554532e757064617465416363657373436f6e74726f6c733a2043616e6e6f7460448201527f206265207a65726f0000000000000000000000000000000000000000000000006064820152608401610a9e565b60c980546001600160a01b038381166001600160a01b031983168117909355604080519190921680825260208201939093527f31073599bfae2533a348dc816b0ce777b707aa9b67015ca2d86585e842b5c6e991015b60405180910390a15050565b60c9546001600160a01b03166324d7806c336040516001600160e01b031960e084901b1681526001600160a01b03909116600482015260240160206040518083038186803b1580156110bb57600080fd5b505afa1580156110cf573d6000803e3d6000fd5b505050506040513d601f19601f820116820180604052508101906110f3919061292b565b6111365760405162461bcd60e51b815260206004820152601460248201527321b0b63632b91036bab9ba1031329030b236b4b760611b6044820152606401610a9e565b60d080549082905560408051828152602081018490527f861fa8a0dab775faf9bcbb5388a02f7ac01181c036f5c57982464a2d75c3608e910161105e565b60ca546040517f04befefd00000000000000000000000000000000000000000000000000000000815260009182916001600160a01b03909116906304befefd906111c49089908990600401612d40565b60206040518083038186803b1580156111dc57600080fd5b505afa1580156111f0573d6000803e3d6000fd5b505050506040513d601f19601f820116820180604052508101906112149190612b8e565b9050806112bf5760ca546040517f7e6d945e0000000000000000000000000000000000000000000000000000000081526001600160a01b0390911690637e6d945e9061126a908990899089908990600401612d5c565b602060405180830381600087803b15801561128457600080fd5b505af1158015611298573d6000803e3d6000fd5b505050506040513d601f19601f820116820180604052508101906112bc9190612b8e565b90505b95945050505050565b60c9546001600160a01b03166324d7806c336040516001600160e01b031960e084901b1681526001600160a01b03909116600482015260240160206040518083038186803b15801561131957600080fd5b505afa15801561132d573d6000803e3d6000fd5b505050506040513d601f19601f82011682018060405250810190611351919061292b565b6113945760405162461bcd60e51b815260206004820152601460248201527321b0b63632b91036bab9ba1031329030b236b4b760611b6044820152606401610a9e565b600082815260d36020908152604091829020805460ff19168415159081179091558251858152918201527f9a1b1e3722de574f6867ada1474b42b28458b0d93fc376664c96cb084b921181910161105e565b60c9546001600160a01b03166324d7806c336040516001600160e01b031960e084901b1681526001600160a01b03909116600482015260240160206040518083038186803b15801561143757600080fd5b505afa15801561144b573d6000803e3d6000fd5b505050506040513d601f19601f8201168201806040525081019061146f919061292b565b6114b25760405162461bcd60e51b815260206004820152601460248201527321b0b63632b91036bab9ba1031329030b236b4b760611b6044820152606401610a9e565b6001600160a01b03811661152e5760405162461bcd60e51b815260206004820152602360248201527f4554532e757064617465455453456e737572653a2043616e6e6f74206265207a60448201527f65726f00000000000000000000000000000000000000000000000000000000006064820152608401610a9e565b60cb80546001600160a01b038381166001600160a01b031983168117909355604080519190921680825260208201939093527fee20190c374934660675d28472968e002fc4af227f2956f59085225ad89239fa910161105e565b600260335414156115db5760405162461bcd60e51b815260206004820152601f60248201527f5265656e7472616e637947756172643a207265656e7472616e742063616c6c006044820152606401610a9e565b600260335560c9546040517f2b04fd440000000000000000000000000000000000000000000000000000000081523360048201526001600160a01b0390911690632b04fd449060240160206040518083038186803b15801561163c57600080fd5b505afa158015611650573d6000803e3d6000fd5b505050506040513d601f19601f82011682018060405250810190611674919061292b565b6116c05760405162461bcd60e51b815260206004820152601060248201527f4f6e6c79207461726765742074797065000000000000000000000000000000006044820152606401610a9e565b60c9546040517f41859ac80000000000000000000000000000000000000000000000000000000081526001600160a01b038581166004830152909116906341859ac89060240160206040518083038186803b15801561171e57600080fd5b505afa158015611732573d6000803e3d6000fd5b505050506040513d601f19601f82011682018060405250810190611756919061292b565b6117c85760405162461bcd60e51b815260206004820152602660248201527f5461673a20546865207075626c6973686572206d75737420626520776869746560448201527f6c697374656400000000000000000000000000000000000000000000000000006064820152608401610a9e565b60d05434101561181a5760405162461bcd60e51b815260206004820152601a60248201527f5461673a20596f75206d7573742073656e6420746865206665650000000000006044820152606401610a9e565b60c9546040517fa88ae5b60000000000000000000000000000000000000000000000000000000081523360048201526000916118c0916001600160a01b039091169063a88ae5b69060240160006040518083038186803b15801561187d57600080fd5b505afa158015611891573d6000803e3d6000fd5b505050506040513d6000823e601f3d908101601f191682016040526118b99190810190612a87565b87876109cf565b905060006118d089898787611174565b905082156119505760cb546040517f177f2fb5000000000000000000000000000000000000000000000000000000008152600481018490526001600160a01b039091169063177f2fb590602401600060405180830381600087803b15801561193757600080fd5b505af115801561194b573d6000803e3d6000fd5b505050505b61195c81838787612076565b5050600160335550505050505050565b600260335414156119bf5760405162461bcd60e51b815260206004820152601f60248201527f5265656e7472616e637947756172643a207265656e7472616e742063616c6c006044820152606401610a9e565b60026033556001600160a01b038116600090815260d2602090815260408083205460d19092528220546119f29190612eae565b9050600081118015611a045750478111155b15611ab9576001600160a01b038216600090815260d26020526040902054611a2d908290612e55565b6001600160a01b038316600081815260d26020526040808220939093559151909183156108fc02918491818181858888f19350505050158015611a74573d6000803e3d6000fd5b50816001600160a01b03167feaff4b37086828766ad3268786972c0cd24259d4c87a80f9d3963a3c3d999b0d82604051611ab091815260200190565b60405180910390a25b50506001603355565b60c9546001600160a01b03166324d7806c336040516001600160e01b031960e084901b1681526001600160a01b03909116600482015260240160206040518083038186803b158015611b1357600080fd5b505afa158015611b27573d6000803e3d6000fd5b505050506040513d601f19601f82011682018060405250810190611b4b919061292b565b611b8e5760405162461bcd60e51b815260206004820152601460248201527321b0b63632b91036bab9ba1031329030b236b4b760611b6044820152606401610a9e565b6064611b9a8284612e55565b1115611c0e5760405162461bcd60e51b815260206004820152603760248201527f4554532e75706461746550657263656e74616765733a2070657263656e74616760448201527f6573206d757374206e6f74206265206f766572203130300000000000000000006064820152608401610a9e565b60cc82905560cd81905580611c24836064612eae565b611c2e9190612eae565b60ce81905560cc5460cd546040805192835260208301919091528101919091527f78c1b0567e296aa5eef70ad2deee29f35e0dd128cac603be855ece3e823f43089060600161105e565b600080611c86858585611dad565b90506040518060c0016040528086815260200185858080601f01602080910402602001604051908101604052809392919081815260200183838082843760009201829052509385525050426020808501919091526040808501849052606085018490528051808301825284815260809095019490945285835260d5815292909120835180519193611d1c93508492910190612743565b506020828101518051611d359260018501920190612743565b5060408201516002820155606082015160038201556080820151600482015560a08201518051611d6f916005840191602090910190612743565b50506040518281527f503a6e6145f2d2a2a9b0845c2193aef653400c52f93b1c897bd55d36a396be7c915060200160405180910390a1949350505050565b600080848484604051602001611dc593929190612d18565b60408051808303601f19018152919052805160209091012095945050505050565b60c9546001600160a01b03166324d7806c336040516001600160e01b031960e084901b1681526001600160a01b03909116600482015260240160206040518083038186803b158015611e3757600080fd5b505afa158015611e4b573d6000803e3d6000fd5b505050506040513d601f19601f82011682018060405250810190611e6f919061292b565b610b925760405162461bcd60e51b815260206004820152601460248201527321b0b63632b91036bab9ba1031329030b236b4b760611b6044820152606401610a9e565b6000611ee57f360894a13ba1a3210667c828492db98dca3e2076cc3735a920a3ca505d382bbc546001600160a01b031690565b9050611ef084612498565b600083511180611efd5750815b15611f0e57611f0c848461254d565b505b7f4910fdfa16fed3260ed0e7147f7cc6da11a60208b5b9406d12a635614ffd9143805460ff1661206f57805460ff191660011781556040516001600160a01b0383166024820152611fbb90869060440160408051601f198184030181529190526020810180517bffffffffffffffffffffffffffffffffffffffffffffffffffffffff167f3659cfe60000000000000000000000000000000000000000000000000000000017905261254d565b50805460ff191681557f360894a13ba1a3210667c828492db98dca3e2076cc3735a920a3ca505d382bbc546001600160a01b038381169116146120665760405162461bcd60e51b815260206004820152602f60248201527f45524331393637557067726164653a207570677261646520627265616b73206660448201527f75727468657220757067726164657300000000000000000000000000000000006064820152608401610a9e565b61206f85612646565b5050505050565b600060cf6000815461208790612f30565b91829055506040805160a08101825287815260208082018881526001600160a01b03878116848601908152898216606086019081524260808701908152600089815260d4909652878620965187559351600187015590516002860180549184166001600160a01b0319928316179055905160038601805491841691909216179055905160049384015560ca5493517f878327ab0000000000000000000000000000000000000000000000000000000081529283018a9052939450928392169063878327ab90602401604080518083038186803b15801561216657600080fd5b505afa15801561217a573d6000803e3d6000fd5b505050506040513d601f19601f8201168201806040525081019061219e919061288d565b91509150816001600160a01b0316816001600160a01b0316141561235957606460cc54346121cc9190612e8f565b6121d69190612e6d565b6001600160a01b038316600090815260d160205260409020546121f99190612e55565b6001600160a01b038316600090815260d1602052604090205560cd546064906122229034612e8f565b61222c9190612e6d565b6001600160a01b038616600090815260d1602052604090205461224f9190612e55565b6001600160a01b03868116600090815260d160205260408082209390935560ca5492517fa30b4db9000000000000000000000000000000000000000000000000000000008152600481018b905290929091169063a30b4db99060240160206040518083038186803b1580156122c357600080fd5b505afa1580156122d7573d6000803e3d6000fd5b505050506040513d601f19601f820116820180604052508101906122fb9190612870565b9050606460ce543461230d9190612e8f565b6123179190612e6d565b6001600160a01b038216600090815260d1602052604090205461233a9190612e55565b6001600160a01b03909116600090815260d1602052604090205561245c565b606460cc54346123699190612e8f565b6123739190612e6d565b6001600160a01b038316600090815260d160205260409020546123969190612e55565b6001600160a01b038316600090815260d1602052604090205560cd546064906123bf9034612e8f565b6123c99190612e6d565b6001600160a01b038616600090815260d160205260409020546123ec9190612e55565b6001600160a01b038616600090815260d1602052604090205560ce546064906124159034612e8f565b61241f9190612e6d565b6001600160a01b038216600090815260d160205260409020546124429190612e55565b6001600160a01b038216600090815260d160205260409020555b6040518381527f81b185c481377e520177bddb63bab2a8d220831d7c07b748c2baf29c6e6070709060200160405180910390a150505050505050565b803b61250c5760405162461bcd60e51b815260206004820152602d60248201527f455243313936373a206e657720696d706c656d656e746174696f6e206973206e60448201527f6f74206120636f6e7472616374000000000000000000000000000000000000006064820152608401610a9e565b7f360894a13ba1a3210667c828492db98dca3e2076cc3735a920a3ca505d382bbc80546001600160a01b0319166001600160a01b0392909216919091179055565b6060823b6125c35760405162461bcd60e51b815260206004820152602660248201527f416464726573733a2064656c65676174652063616c6c20746f206e6f6e2d636f60448201527f6e747261637400000000000000000000000000000000000000000000000000006064820152608401610a9e565b600080846001600160a01b0316846040516125de9190612cfc565b600060405180830381855af49150503d8060008114612619576040519150601f19603f3d011682016040523d82523d6000602084013e61261e565b606091505b50915091506112bf8282604051806060016040528060278152602001612f9b60279139612686565b61264f81612498565b6040516001600160a01b038216907fbc7cd75a20ee27fd9adebab32041f755214dbc6bffa90cc0225b39da2e5c2d3b90600090a250565b60608315612695575081610a0d565b8251156126a55782518084602001fd5b8160405162461bcd60e51b8152600401610a9e9190612d91565b8280546126cb90612ef5565b90600052602060002090601f0160209004810192826126ed5760008555612733565b82601f106127065782800160ff19823516178555612733565b82800160010185558215612733579182015b82811115612733578235825591602001919060010190612718565b5061273f9291506127b7565b5090565b82805461274f90612ef5565b90600052602060002090601f0160209004810192826127715760008555612733565b82601f1061278a57805160ff1916838001178555612733565b82800160010185558215612733579182015b8281111561273357825182559160200191906001019061279c565b5b8082111561273f57600081556001016127b8565b60006127df6127da84612e2d565b612dfc565b90508281528383830111156127f357600080fd5b828260208301376000602084830101529392505050565b60008083601f84011261281c57600080fd5b50813567ffffffffffffffff81111561283457600080fd5b60208301915083602082850101111561284c57600080fd5b9250929050565b60006020828403121561286557600080fd5b8135610a0d81612f77565b60006020828403121561288257600080fd5b8151610a0d81612f77565b600080604083850312156128a057600080fd5b82516128ab81612f77565b60208401519092506128bc81612f77565b809150509250929050565b600080604083850312156128da57600080fd5b82356128e581612f77565b9150602083013567ffffffffffffffff81111561290157600080fd5b8301601f8101851361291257600080fd5b612921858235602084016127cc565b9150509250929050565b60006020828403121561293d57600080fd5b8151610a0d81612f8c565b6000806040838503121561295b57600080fd5b823561296681612f77565b915060208301356128bc81612f77565b6000806000806060858703121561298c57600080fd5b843567ffffffffffffffff8111156129a357600080fd5b6129af8782880161280a565b90955093505060208501356129c381612f77565b915060408501356129d381612f77565b939692955090935050565b600080600080600080600060a0888a0312156129f957600080fd5b873567ffffffffffffffff80821115612a1157600080fd5b612a1d8b838c0161280a565b909950975060208a0135915080821115612a3657600080fd5b50612a438a828b0161280a565b9096509450506040880135612a5781612f77565b92506060880135612a6781612f77565b91506080880135612a7781612f8c565b8091505092959891949750929550565b600060208284031215612a9957600080fd5b815167ffffffffffffffff811115612ab057600080fd5b8201601f81018413612ac157600080fd5b8051612acf6127da82612e2d565b818152856020838501011115612ae457600080fd5b6112bf826020830160208601612ec5565b600080600060408486031215612b0a57600080fd5b833567ffffffffffffffff80821115612b2257600080fd5b818601915086601f830112612b3657600080fd5b612b45878335602085016127cc565b94506020860135915080821115612b5b57600080fd5b50612b688682870161280a565b9497909650939450505050565b600060208284031215612b8757600080fd5b5035919050565b600060208284031215612ba057600080fd5b5051919050565b60008060408385031215612bba57600080fd5b8235915060208301356128bc81612f8c565b600080600080600080600080600060c08a8c031215612bea57600080fd5b8935985060208a013567ffffffffffffffff80821115612c0957600080fd5b612c158d838e0161280a565b909a50985060408c0135915080821115612c2e57600080fd5b612c3a8d838e0161280a565b909850965060608c0135955060808c0135945060a08c0135915080821115612c6157600080fd5b50612c6e8c828d0161280a565b915080935050809150509295985092959850929598565b60008060408385031215612c9857600080fd5b50508035926020909101359150565b81835281816020850137506000828201602090810191909152601f909101601f19169091010190565b60008151808452612ce8816020860160208601612ec5565b601f01601f19169290920160200192915050565b60008251612d0e818460208701612ec5565b9190910192915050565b60008451612d2a818460208901612ec5565b8201838582376000930192835250909392505050565b602081526000612d54602083018486612ca7565b949350505050565b606081526000612d70606083018688612ca7565b6001600160a01b039485166020840152929093166040909101529392505050565b602081526000610a0d6020830184612cd0565b60c081526000612db760c0830189612cd0565b8281036020840152612dc98189612cd0565b905086604084015285606084015284608084015282810360a0840152612def8185612cd0565b9998505050505050505050565b604051601f8201601f1916810167ffffffffffffffff81118282101715612e2557612e25612f61565b604052919050565b600067ffffffffffffffff821115612e4757612e47612f61565b50601f01601f191660200190565b60008219821115612e6857612e68612f4b565b500190565b600082612e8a57634e487b7160e01b600052601260045260246000fd5b500490565b6000816000190483118215151615612ea957612ea9612f4b565b500290565b600082821015612ec057612ec0612f4b565b500390565b60005b83811015612ee0578181015183820152602001612ec8565b83811115612eef576000848401525b50505050565b600181811c90821680612f0957607f821691505b60208210811415612f2a57634e487b7160e01b600052602260045260246000fd5b50919050565b6000600019821415612f4457612f44612f4b565b5060010190565b634e487b7160e01b600052601160045260246000fd5b634e487b7160e01b600052604160045260246000fd5b6001600160a01b0381168114610b9257600080fd5b8015158114610b9257600080fdfe416464726573733a206c6f772d6c6576656c2064656c65676174652063616c6c206661696c6564a26469706673582212200740b5031717d8bdb539a91e7f846847d1065256bb5507b8b11f464008fd7d6a64736f6c63430008070033",
  "linkReferences": {},
  "deployedLinkReferences": {}
}