{
  "_format": "hh-sol-artifact-1",
  "contractName": "ETS",
  "sourceName": "contracts/core/ETS.sol",
  "abi": [
    {
      "anonymous": false,
      "inputs": [
        {
          "indexed": false,
          "internalType": "address",
          "name": "previousAccessControls",
          "type": "address"
        },
        {
          "indexed": false,
          "internalType": "address",
          "name": "newAccessControls",
          "type": "address"
        }
      ],
      "name": "AccessControlsUpdated",
      "type": "event"
    },
    {
      "anonymous": false,
      "inputs": [
        {
          "indexed": false,
          "internalType": "address",
          "name": "previousAdmin",
          "type": "address"
        },
        {
          "indexed": false,
          "internalType": "address",
          "name": "newAdmin",
          "type": "address"
        }
      ],
      "name": "AdminChanged",
      "type": "event"
    },
    {
      "anonymous": false,
      "inputs": [
        {
          "indexed": true,
          "internalType": "address",
          "name": "beacon",
          "type": "address"
        }
      ],
      "name": "BeaconUpgraded",
      "type": "event"
    },
    {
      "anonymous": false,
      "inputs": [
        {
          "indexed": false,
          "internalType": "address",
          "name": "previousETSEnsure",
          "type": "address"
        },
        {
          "indexed": false,
          "internalType": "address",
          "name": "newETSEnsure",
          "type": "address"
        }
      ],
      "name": "ETSEnsureUpdated",
      "type": "event"
    },
    {
      "anonymous": false,
      "inputs": [
        {
          "indexed": true,
          "internalType": "address",
          "name": "who",
          "type": "address"
        },
        {
          "indexed": false,
          "internalType": "uint256",
          "name": "amount",
          "type": "uint256"
        }
      ],
      "name": "FundsWithdrawn",
      "type": "event"
    },
    {
      "anonymous": false,
      "inputs": [
        {
          "indexed": false,
          "internalType": "uint256",
          "name": "platformPercentage",
          "type": "uint256"
        },
        {
          "indexed": false,
          "internalType": "uint256",
          "name": "publisherPercentage",
          "type": "uint256"
        },
        {
          "indexed": false,
          "internalType": "uint256",
          "name": "remainingPercentage",
          "type": "uint256"
        }
      ],
      "name": "PercentagesSet",
      "type": "event"
    },
    {
      "anonymous": false,
      "inputs": [
        {
          "indexed": false,
          "internalType": "uint256",
          "name": "targetId",
          "type": "uint256"
        }
      ],
      "name": "RequestEnsureTarget",
      "type": "event"
    },
    {
      "anonymous": false,
      "inputs": [
        {
          "indexed": false,
          "internalType": "uint256",
          "name": "previousFee",
          "type": "uint256"
        },
        {
          "indexed": false,
          "internalType": "uint256",
          "name": "taggingFee",
          "type": "uint256"
        }
      ],
      "name": "TaggingFeeSet",
      "type": "event"
    },
    {
      "anonymous": false,
      "inputs": [
        {
          "indexed": false,
          "internalType": "uint256",
          "name": "targetId",
          "type": "uint256"
        }
      ],
      "name": "TargetCreated",
      "type": "event"
    },
    {
      "anonymous": false,
      "inputs": [
        {
          "indexed": false,
          "internalType": "uint256",
          "name": "taggingId",
          "type": "uint256"
        }
      ],
      "name": "TargetTagged",
      "type": "event"
    },
    {
      "anonymous": false,
      "inputs": [
        {
          "indexed": false,
          "internalType": "string",
          "name": "typeName",
          "type": "string"
        },
        {
          "indexed": false,
          "internalType": "bool",
          "name": "setting",
          "type": "bool"
        }
      ],
      "name": "TargetTypeSet",
      "type": "event"
    },
    {
      "anonymous": false,
      "inputs": [
        {
          "indexed": false,
          "internalType": "uint256",
          "name": "targetId",
          "type": "uint256"
        }
      ],
      "name": "TargetUpdated",
      "type": "event"
    },
    {
      "anonymous": false,
      "inputs": [
        {
          "indexed": true,
          "internalType": "address",
          "name": "implementation",
          "type": "address"
        }
      ],
      "name": "Upgraded",
      "type": "event"
    },
    {
      "inputs": [],
      "name": "NAME",
      "outputs": [
        {
          "internalType": "string",
          "name": "",
          "type": "string"
        }
      ],
      "stateMutability": "view",
      "type": "function"
    },
    {
      "inputs": [],
      "name": "VERSION",
      "outputs": [
        {
          "internalType": "string",
          "name": "",
          "type": "string"
        }
      ],
      "stateMutability": "view",
      "type": "function"
    },
    {
      "inputs": [],
      "name": "accessControls",
      "outputs": [
        {
          "internalType": "contract ETSAccessControls",
          "name": "",
          "type": "address"
        }
      ],
      "stateMutability": "view",
      "type": "function"
    },
    {
      "inputs": [
        {
          "internalType": "address",
          "name": "",
          "type": "address"
        }
      ],
      "name": "accrued",
      "outputs": [
        {
          "internalType": "uint256",
          "name": "",
          "type": "uint256"
        }
      ],
      "stateMutability": "view",
      "type": "function"
    },
    {
      "inputs": [
        {
          "internalType": "uint256",
          "name": "_targetId",
          "type": "uint256"
        },
        {
          "internalType": "address",
          "name": "_publisher",
          "type": "address"
        },
        {
          "internalType": "address",
          "name": "_tagger",
          "type": "address"
        },
        {
          "internalType": "address",
          "name": "_sponsor",
          "type": "address"
        }
      ],
      "name": "computeTaggingRecordId",
      "outputs": [
        {
          "internalType": "uint256",
          "name": "taggingRecordId",
          "type": "uint256"
        }
      ],
      "stateMutability": "pure",
      "type": "function"
    },
    {
      "inputs": [
        {
          "internalType": "string",
          "name": "_targetType",
          "type": "string"
        },
        {
          "internalType": "string",
          "name": "_targetURI",
          "type": "string"
        }
      ],
      "name": "computeTargetId",
      "outputs": [
        {
          "internalType": "uint256",
          "name": "targetId",
          "type": "uint256"
        }
      ],
      "stateMutability": "pure",
      "type": "function"
    },
    {
      "inputs": [
        {
          "internalType": "address payable",
          "name": "_account",
          "type": "address"
        }
      ],
      "name": "drawDown",
      "outputs": [],
      "stateMutability": "nonpayable",
      "type": "function"
    },
    {
      "inputs": [],
      "name": "etsEnsure",
      "outputs": [
        {
          "internalType": "contract ETSEnsure",
          "name": "",
          "type": "address"
        }
      ],
      "stateMutability": "view",
      "type": "function"
    },
    {
      "inputs": [],
      "name": "etsTag",
      "outputs": [
        {
          "internalType": "contract ETSTag",
          "name": "",
          "type": "address"
        }
      ],
      "stateMutability": "view",
      "type": "function"
    },
    {
      "inputs": [
        {
          "internalType": "string",
          "name": "_tagString",
          "type": "string"
        },
        {
          "internalType": "address payable",
          "name": "_publisher",
          "type": "address"
        },
        {
          "internalType": "address",
          "name": "_tagger",
          "type": "address"
        }
      ],
      "name": "getOrCreateTag",
      "outputs": [
        {
          "internalType": "uint256",
          "name": "tagId",
          "type": "uint256"
        }
      ],
      "stateMutability": "payable",
      "type": "function"
    },
    {
      "inputs": [
        {
          "internalType": "uint256",
          "name": "_targetId",
          "type": "uint256"
        },
        {
          "internalType": "address",
          "name": "_tagger",
          "type": "address"
        },
        {
          "internalType": "address",
          "name": "_publisher",
          "type": "address"
        },
        {
          "internalType": "address",
          "name": "_sponsor",
          "type": "address"
        }
      ],
      "name": "getTaggingRecord",
      "outputs": [
        {
          "internalType": "uint256[]",
          "name": "etsTagIds",
          "type": "uint256[]"
        },
        {
          "internalType": "uint256",
          "name": "targetId",
          "type": "uint256"
        },
        {
          "internalType": "address",
          "name": "tagger",
          "type": "address"
        },
        {
          "internalType": "address",
          "name": "publisher",
          "type": "address"
        },
        {
          "internalType": "address",
          "name": "sponsor",
          "type": "address"
        }
      ],
      "stateMutability": "view",
      "type": "function"
    },
    {
      "inputs": [
        {
          "internalType": "uint256",
          "name": "_taggingId",
          "type": "uint256"
        }
      ],
      "name": "getTaggingRecordFromId",
      "outputs": [
        {
          "internalType": "uint256[]",
          "name": "etsTagIds",
          "type": "uint256[]"
        },
        {
          "internalType": "uint256",
          "name": "targetId",
          "type": "uint256"
        },
        {
          "internalType": "address",
          "name": "tagger",
          "type": "address"
        },
        {
          "internalType": "address",
          "name": "publisher",
          "type": "address"
        },
        {
          "internalType": "address",
          "name": "sponsor",
          "type": "address"
        }
      ],
      "stateMutability": "view",
      "type": "function"
    },
    {
      "inputs": [
        {
          "internalType": "contract ETSAccessControls",
          "name": "_accessControls",
          "type": "address"
        },
        {
          "internalType": "contract ETSTag",
          "name": "_etsTag",
          "type": "address"
        }
      ],
      "name": "initialize",
      "outputs": [],
      "stateMutability": "nonpayable",
      "type": "function"
    },
    {
      "inputs": [
        {
          "internalType": "uint256",
          "name": "_targetId",
          "type": "uint256"
        }
      ],
      "name": "isTargetEnsured",
      "outputs": [
        {
          "internalType": "bool",
          "name": "",
          "type": "bool"
        }
      ],
      "stateMutability": "view",
      "type": "function"
    },
    {
      "inputs": [],
      "name": "modulo",
      "outputs": [
        {
          "internalType": "uint256",
          "name": "",
          "type": "uint256"
        }
      ],
      "stateMutability": "view",
      "type": "function"
    },
    {
      "inputs": [
        {
          "internalType": "address",
          "name": "",
          "type": "address"
        }
      ],
      "name": "paid",
      "outputs": [
        {
          "internalType": "uint256",
          "name": "",
          "type": "uint256"
        }
      ],
      "stateMutability": "view",
      "type": "function"
    },
    {
      "inputs": [],
      "name": "platformPercentage",
      "outputs": [
        {
          "internalType": "uint256",
          "name": "",
          "type": "uint256"
        }
      ],
      "stateMutability": "view",
      "type": "function"
    },
    {
      "inputs": [],
      "name": "publisherPercentage",
      "outputs": [
        {
          "internalType": "uint256",
          "name": "",
          "type": "uint256"
        }
      ],
      "stateMutability": "view",
      "type": "function"
    },
    {
      "inputs": [],
      "name": "remainingPercentage",
      "outputs": [
        {
          "internalType": "uint256",
          "name": "",
          "type": "uint256"
        }
      ],
      "stateMutability": "view",
      "type": "function"
    },
    {
      "inputs": [
        {
          "internalType": "string[]",
          "name": "_tags",
          "type": "string[]"
        },
        {
          "internalType": "string",
          "name": "_targetURI",
          "type": "string"
        },
        {
          "internalType": "address payable",
          "name": "_publisher",
          "type": "address"
        },
        {
          "internalType": "address",
          "name": "_tagger",
          "type": "address"
        },
        {
          "internalType": "address",
          "name": "_sponsor",
          "type": "address"
        },
        {
          "internalType": "bool",
          "name": "_ensure",
          "type": "bool"
        }
      ],
      "name": "tagTarget",
      "outputs": [],
      "stateMutability": "payable",
      "type": "function"
    },
    {
      "inputs": [],
      "name": "taggingCounter",
      "outputs": [
        {
          "internalType": "uint256",
          "name": "",
          "type": "uint256"
        }
      ],
      "stateMutability": "view",
      "type": "function"
    },
    {
      "inputs": [],
      "name": "taggingFee",
      "outputs": [
        {
          "internalType": "uint256",
          "name": "",
          "type": "uint256"
        }
      ],
      "stateMutability": "view",
      "type": "function"
    },
    {
      "inputs": [
        {
          "internalType": "uint256",
          "name": "",
          "type": "uint256"
        }
      ],
      "name": "taggingRecords",
      "outputs": [
        {
          "internalType": "uint256",
          "name": "targetId",
          "type": "uint256"
        },
        {
          "internalType": "address",
          "name": "tagger",
          "type": "address"
        },
        {
          "internalType": "address",
          "name": "publisher",
          "type": "address"
        },
        {
          "internalType": "address",
          "name": "sponsor",
          "type": "address"
        }
      ],
      "stateMutability": "view",
      "type": "function"
    },
    {
      "inputs": [
        {
          "internalType": "string",
          "name": "_targetType",
          "type": "string"
        },
        {
          "internalType": "string",
          "name": "_targetURI",
          "type": "string"
        }
      ],
      "name": "targetExists",
      "outputs": [
        {
          "internalType": "bool",
          "name": "",
          "type": "bool"
        }
      ],
      "stateMutability": "view",
      "type": "function"
    },
    {
      "inputs": [
        {
          "internalType": "uint256",
          "name": "_targetId",
          "type": "uint256"
        }
      ],
      "name": "targetExistsFromId",
      "outputs": [
        {
          "internalType": "bool",
          "name": "",
          "type": "bool"
        }
      ],
      "stateMutability": "view",
      "type": "function"
    },
    {
      "inputs": [
        {
          "internalType": "uint256",
          "name": "",
          "type": "uint256"
        }
      ],
      "name": "targets",
      "outputs": [
        {
          "internalType": "string",
          "name": "targetType",
          "type": "string"
        },
        {
          "internalType": "string",
          "name": "targetURI",
          "type": "string"
        },
        {
          "internalType": "uint256",
          "name": "created",
          "type": "uint256"
        },
        {
          "internalType": "uint256",
          "name": "lastEnsured",
          "type": "uint256"
        },
        {
          "internalType": "uint256",
          "name": "status",
          "type": "uint256"
        },
        {
          "internalType": "string",
          "name": "ipfsHash",
          "type": "string"
        }
      ],
      "stateMutability": "view",
      "type": "function"
    },
    {
      "inputs": [
        {
          "internalType": "address",
          "name": "_account",
          "type": "address"
        }
      ],
      "name": "totalDue",
      "outputs": [
        {
          "internalType": "uint256",
          "name": "_due",
          "type": "uint256"
        }
      ],
      "stateMutability": "view",
      "type": "function"
    },
    {
      "inputs": [
        {
          "internalType": "contract ETSAccessControls",
          "name": "_accessControls",
          "type": "address"
        }
      ],
      "name": "updateAccessControls",
      "outputs": [],
      "stateMutability": "nonpayable",
      "type": "function"
    },
    {
      "inputs": [
        {
          "internalType": "contract ETSEnsure",
          "name": "_etsEnsure",
          "type": "address"
        }
      ],
      "name": "updateETSEnsure",
      "outputs": [],
      "stateMutability": "nonpayable",
      "type": "function"
    },
    {
      "inputs": [
        {
          "internalType": "uint256",
          "name": "_platformPercentage",
          "type": "uint256"
        },
        {
          "internalType": "uint256",
          "name": "_publisherPercentage",
          "type": "uint256"
        }
      ],
      "name": "updatePercentages",
      "outputs": [],
      "stateMutability": "nonpayable",
      "type": "function"
    },
    {
      "inputs": [
        {
          "internalType": "uint256",
          "name": "_fee",
          "type": "uint256"
        }
      ],
      "name": "updateTaggingFee",
      "outputs": [],
      "stateMutability": "nonpayable",
      "type": "function"
    },
    {
      "inputs": [
        {
          "internalType": "uint256",
          "name": "_taggingRecordId",
          "type": "uint256"
        },
        {
          "internalType": "string[]",
          "name": "_tags",
          "type": "string[]"
        }
      ],
      "name": "updateTaggingRecord",
      "outputs": [],
      "stateMutability": "payable",
      "type": "function"
    },
    {
      "inputs": [
        {
          "internalType": "uint256",
          "name": "_targetId",
          "type": "uint256"
        },
        {
          "internalType": "string",
          "name": "_targetType",
          "type": "string"
        },
        {
          "internalType": "string",
          "name": "_targetURI",
          "type": "string"
        },
        {
          "internalType": "uint256",
          "name": "_lastEnsured",
          "type": "uint256"
        },
        {
          "internalType": "uint256",
          "name": "_status",
          "type": "uint256"
        },
        {
          "internalType": "string",
          "name": "_ipfsHash",
          "type": "string"
        }
      ],
      "name": "updateTarget",
      "outputs": [
        {
          "internalType": "bool",
          "name": "success",
          "type": "bool"
        }
      ],
      "stateMutability": "nonpayable",
      "type": "function"
    },
    {
      "inputs": [
        {
          "internalType": "address",
          "name": "newImplementation",
          "type": "address"
        }
      ],
      "name": "upgradeTo",
      "outputs": [],
      "stateMutability": "nonpayable",
      "type": "function"
    },
    {
      "inputs": [
        {
          "internalType": "address",
          "name": "newImplementation",
          "type": "address"
        },
        {
          "internalType": "bytes",
          "name": "data",
          "type": "bytes"
        }
      ],
      "name": "upgradeToAndCall",
      "outputs": [],
      "stateMutability": "payable",
      "type": "function"
    },
    {
      "inputs": [],
      "name": "version",
      "outputs": [
        {
          "internalType": "string",
          "name": "",
          "type": "string"
        }
      ],
      "stateMutability": "pure",
      "type": "function"
    }
  ],
  "bytecode": "0x60a06040523060805234801561001457600080fd5b506080516135ee61004560003960008181610e5f01528181610ee4015281816111f7015261127c01526135ee6000f3fe60806040526004361061024f5760003560e01c806374716c8111610138578063c2062005116100b0578063e88b772c1161007f578063f8bc3cc611610064578063f8bc3cc614610790578063fe52656f146107b0578063ffa1ad74146107c657600080fd5b8063e88b772c1461075a578063ebc67e1f1461077057600080fd5b8063c2062005146106d5578063c20d2295146106f5578063ce0e0eed14610715578063d64f55c91461074757600080fd5b8063a340cf7911610107578063b148440f116100ec578063b148440f14610668578063b205f80814610695578063b7d0e7dd146106b557600080fd5b8063a340cf79146105f2578063a3f4df7e1461061f57600080fd5b806374716c8114610501578063748365ef146105845780637e2e4c52146105bc578063817a1fbd146105d257600080fd5b8063485cc955116101cb57806354fd4d501161019a57806360c1cade1161017f57806360c1cade1461045157806368fd4dee146104c15780636ef3da94146104e157600080fd5b806354fd4d50146103fa5780635dffa7fe1461043157600080fd5b8063485cc955146103775780634967b35f146103975780634f1ef286146103b7578063507f3ba1146103ca57600080fd5b80630ad2f0c3116102225780632974526211610207578063297452621461032c578063337ccf9d146103415780633659cfe61461035757600080fd5b80630ad2f0c3146102f65780631f7418971461031657600080fd5b80630438837c1461025457806307348e261461028e5780630819d640146102af5780630a39ce02146102c4575b600080fd5b34801561026057600080fd5b5061027461026f366004612c56565b6107f7565b604051610285959493929190612ca9565b60405180910390f35b6102a161029c366004612d5c565b6108ee565b604051908152602001610285565b6102c26102bd366004612dfe565b610a24565b005b3480156102d057600080fd5b506102e46102df366004612e4a565b610c54565b60405161028596959493929190612ebb565b34801561030257600080fd5b506102a1610311366004612f13565b610e20565b34801561032257600080fd5b506102a160cc5481565b34801561033857600080fd5b506102a1606481565b34801561034d57600080fd5b506102a160ce5481565b34801561036357600080fd5b506102c2610372366004612f13565b610e54565b34801561038357600080fd5b506102c2610392366004612f30565b610fd0565b3480156103a357600080fd5b506102c26103b2366004612e4a565b6110e9565b6102c26103c5366004613016565b6111ec565b3480156103d657600080fd5b506103ea6103e536600461307a565b611359565b6040519015158152602001610285565b34801561040657600080fd5b50604080518082019091526005815264302e302e3160d81b60208201525b6040516102859190613133565b34801561043d57600080fd5b506102a161044c366004613166565b61145b565b34801561045d57600080fd5b506102a161046c366004612c56565b604080516020808201969096526bffffffffffffffffffffffff19606094851b81168284015294841b851660548201529190921b90921660688301528051808303605c018152607c9092019052805191012090565b3480156104cd57600080fd5b506102746104dc366004612e4a565b611491565b3480156104ed57600080fd5b506102c26104fc366004612f13565b611537565b34801561050d57600080fd5b5061055561051c366004612e4a565b60d360205260009081526040902060018101546002820154600383015460049093015491926001600160a01b0391821692908216911684565b604080519485526001600160a01b03938416602086015291831691840191909152166060820152608001610285565b34801561059057600080fd5b5060c9546105a4906001600160a01b031681565b6040516001600160a01b039091168152602001610285565b3480156105c857600080fd5b506102a160cd5481565b3480156105de57600080fd5b506103ea6105ed366004613166565b6116ca565b3480156105fe57600080fd5b506102a161060d366004612f13565b60d26020526000908152604090205481565b34801561062b57600080fd5b506104246040518060400160405280600881526020017f45545320436f726500000000000000000000000000000000000000000000000081525081565b34801561067457600080fd5b506102a1610683366004612f13565b60d16020526000908152604090205481565b3480156106a157600080fd5b506102c26106b0366004612f13565b611702565b3480156106c157600080fd5b5060cb546105a4906001600160a01b031681565b3480156106e157600080fd5b506102c26106f0366004612f13565b611895565b34801561070157600080fd5b506102c26107103660046131c0565b6119eb565b34801561072157600080fd5b506103ea610730366004612e4a565b600090815260d46020526040902060030154151590565b6102c26107553660046131f0565b611b92565b34801561076657600080fd5b506102a160cf5481565b34801561077c57600080fd5b506103ea61078b366004612e4a565b612071565b34801561079c57600080fd5b5060ca546105a4906001600160a01b031681565b3480156107bc57600080fd5b506102a160d05481565b3480156107d257600080fd5b5061042460405180604001604052806005815260200164302e302e3160d81b81525081565b6040805160208082018790526bffffffffffffffffffffffff19606086811b82168486015287811b8216605485015285811b90911660688401528351808403605c018152607c8401808652815191840191909120600081815260d3855286812060018101546002820154600383015460048401548454609c9a81028c018b01909c528b8852979a94998a998a998a99969788976001600160a01b039687169695861695909216939192889201828280156108d057602002820191906000526020600020905b8154815260200190600101908083116108bc575b50505050509450965096509650965096505050945094509450945094565b60ca546040517ff143fc6100000000000000000000000000000000000000000000000000000000815260009182916001600160a01b039091169063f143fc619061093e90899089906004016132d4565b602060405180830381865afa15801561095b573d6000803e3d6000fd5b505050506040513d601f19601f8201168201806040525081019061097f91906132e8565b905080610a1b5760ca546040517f7e6d945e0000000000000000000000000000000000000000000000000000000081526001600160a01b0390911690637e6d945e906109d5908990899089908990600401613301565b6020604051808303816000875af11580156109f4573d6000803e3d6000fd5b505050506040513d601f19601f82011682018060405250810190610a1891906132e8565b90505b95945050505050565b80610a765760405162461bcd60e51b815260206004820152600b60248201527f456d70747920617272617900000000000000000000000000000000000000000060448201526064015b60405180910390fd5b600083815260d3602052604090208054339080841115610afc576000610a9c828661334c565b905060d05481610aac9190613363565b3414610afa5760405162461bcd60e51b815260206004820152601c60248201527f4164646974696f6e616c207461677320726571756972652066656573000000006044820152606401610a6d565b505b60028301546001600160a01b0383811691161480610b29575060048301546001600160a01b038381169116145b610b755760405162461bcd60e51b815260206004820152601660248201527f4f6e6c7920746167676572206f722073706f6e736f72000000000000000000006044820152606401610a6d565b8360008167ffffffffffffffff811115610b9157610b91612f69565b604051908082528060200260200182016040528015610bba578160200160208202803683370190505b50905060005b82811015610c36576000610c0d898984818110610bdf57610bdf613382565b9050602002810190610bf19190613398565b60038a015460028b01546001600160a01b0391821691166108ee565b905080838381518110610c2257610c22613382565b602090810291909101015250600101610bc0565b508051610c499086906020840190612afa565b505050505050505050565b60d460205260009081526040902080548190610c6f906133df565b80601f0160208091040260200160405190810160405280929190818152602001828054610c9b906133df565b8015610ce85780601f10610cbd57610100808354040283529160200191610ce8565b820191906000526020600020905b815481529060010190602001808311610ccb57829003601f168201915b505050505090806001018054610cfd906133df565b80601f0160208091040260200160405190810160405280929190818152602001828054610d29906133df565b8015610d765780601f10610d4b57610100808354040283529160200191610d76565b820191906000526020600020905b815481529060010190602001808311610d5957829003601f168201915b505050505090806002015490806003015490806004015490806005018054610d9d906133df565b80601f0160208091040260200160405190810160405280929190818152602001828054610dc9906133df565b8015610e165780601f10610deb57610100808354040283529160200191610e16565b820191906000526020600020905b815481529060010190602001808311610df957829003601f168201915b5050505050905086565b6001600160a01b038116600090815260d2602090815260408083205460d1909252822054610e4e919061334c565b92915050565b306001600160a01b037f0000000000000000000000000000000000000000000000000000000000000000161415610ee25760405162461bcd60e51b815260206004820152602c60248201527f46756e6374696f6e206d7573742062652063616c6c6564207468726f7567682060448201526b19195b1959d85d1958d85b1b60a21b6064820152608401610a6d565b7f00000000000000000000000000000000000000000000000000000000000000006001600160a01b0316610f3d7f360894a13ba1a3210667c828492db98dca3e2076cc3735a920a3ca505d382bbc546001600160a01b031690565b6001600160a01b031614610fa85760405162461bcd60e51b815260206004820152602c60248201527f46756e6374696f6e206d7573742062652063616c6c6564207468726f7567682060448201526b6163746976652070726f787960a01b6064820152608401610a6d565b610fb181612096565b60408051600080825260208201909252610fcd91839190612153565b50565b600054610100900460ff16610feb5760005460ff1615610fef565b303b155b6110615760405162461bcd60e51b815260206004820152602e60248201527f496e697469616c697a61626c653a20636f6e747261637420697320616c72656160448201527f647920696e697469616c697a65640000000000000000000000000000000000006064820152608401610a6d565b600054610100900460ff16158015611083576000805461ffff19166101011790555b60c980546001600160a01b038086166001600160a01b03199283161790925560ca805492851692909116919091179055600060cf5566038d7ea4c6800060d055601460cc55601e60cd55603260ce5580156110e4576000805461ff00191690555b505050565b60c9546001600160a01b03166324d7806c336040516001600160e01b031960e084901b1681526001600160a01b039091166004820152602401602060405180830381865afa15801561113f573d6000803e3d6000fd5b505050506040513d601f19601f82011682018060405250810190611163919061341a565b6111a65760405162461bcd60e51b815260206004820152601460248201527321b0b63632b91036bab9ba1031329030b236b4b760611b6044820152606401610a6d565b60d080549082905560408051828152602081018490527f861fa8a0dab775faf9bcbb5388a02f7ac01181c036f5c57982464a2d75c3608e91015b60405180910390a15050565b306001600160a01b037f000000000000000000000000000000000000000000000000000000000000000016141561127a5760405162461bcd60e51b815260206004820152602c60248201527f46756e6374696f6e206d7573742062652063616c6c6564207468726f7567682060448201526b19195b1959d85d1958d85b1b60a21b6064820152608401610a6d565b7f00000000000000000000000000000000000000000000000000000000000000006001600160a01b03166112d57f360894a13ba1a3210667c828492db98dca3e2076cc3735a920a3ca505d382bbc546001600160a01b031690565b6001600160a01b0316146113405760405162461bcd60e51b815260206004820152602c60248201527f46756e6374696f6e206d7573742062652063616c6c6564207468726f7567682060448201526b6163746976652070726f787960a01b6064820152608401610a6d565b61134982612096565b61135582826001612153565b5050565b60cb546000906001600160a01b031633146113b65760405162461bcd60e51b815260206004820152600f60248201527f4f6e6c792045545320656e7375726500000000000000000000000000000000006044820152606401610a6d565b60008a815260d4602052604090206113cf908a8a612b45565b5060008a815260d4602052604090206113ec906001018888612b45565b5060008a815260d4602052604090206003810186905560048101859055611417906005018484612b45565b506040518a81527f9d29e5045b411bb06d81d8ff11c828d9f1d7eb076eec9ca45eda49fc99f762b29060200160405180910390a15060019998505050505050505050565b6000808383604051602001611471929190613437565b60408051808303601f190181529190528051602090910120949350505050565b600081815260d36020908152604080832060018101546002820154600383015460048401548454865181890281018901909752808752606098978897889788979096879691956001600160a01b03918216959282169491169291879183018282801561151c57602002820191906000526020600020905b815481526020019060010190808311611508575b50505050509450955095509550955095505091939590929450565b60c9546001600160a01b03166324d7806c336040516001600160e01b031960e084901b1681526001600160a01b039091166004820152602401602060405180830381865afa15801561158d573d6000803e3d6000fd5b505050506040513d601f19601f820116820180604052508101906115b1919061341a565b6115f45760405162461bcd60e51b815260206004820152601460248201527321b0b63632b91036bab9ba1031329030b236b4b760611b6044820152606401610a6d565b6001600160a01b0381166116705760405162461bcd60e51b815260206004820152602860248201527f4554532e757064617465416363657373436f6e74726f6c733a2043616e6e6f7460448201527f206265207a65726f0000000000000000000000000000000000000000000000006064820152608401610a6d565b60c980546001600160a01b038381166001600160a01b031983168117909355604080519190921680825260208201939093527f31073599bfae2533a348dc816b0ce777b707aa9b67015ca2d86585e842b5c6e991016111e0565b6000806116d7848461145b565b600081815260d460205260409020600201549091506116f75760006116fa565b60015b949350505050565b60c9546001600160a01b03166324d7806c336040516001600160e01b031960e084901b1681526001600160a01b039091166004820152602401602060405180830381865afa158015611758573d6000803e3d6000fd5b505050506040513d601f19601f8201168201806040525081019061177c919061341a565b6117bf5760405162461bcd60e51b815260206004820152601460248201527321b0b63632b91036bab9ba1031329030b236b4b760611b6044820152606401610a6d565b6001600160a01b03811661183b5760405162461bcd60e51b815260206004820152602360248201527f4554532e757064617465455453456e737572653a2043616e6e6f74206265207a60448201527f65726f00000000000000000000000000000000000000000000000000000000006064820152608401610a6d565b60cb80546001600160a01b038381166001600160a01b031983168117909355604080519190921680825260208201939093527fee20190c374934660675d28472968e002fc4af227f2956f59085225ad89239fa91016111e0565b600260335414156118e85760405162461bcd60e51b815260206004820152601f60248201527f5265656e7472616e637947756172643a207265656e7472616e742063616c6c006044820152606401610a6d565b60026033556001600160a01b038116600090815260d2602090815260408083205460d190925282205461191b919061334c565b905060008111801561192d5750478111155b156119e2576001600160a01b038216600090815260d26020526040902054611956908290613466565b6001600160a01b038316600081815260d26020526040808220939093559151909183156108fc02918491818181858888f1935050505015801561199d573d6000803e3d6000fd5b50816001600160a01b03167feaff4b37086828766ad3268786972c0cd24259d4c87a80f9d3963a3c3d999b0d826040516119d991815260200190565b60405180910390a25b50506001603355565b60c9546001600160a01b03166324d7806c336040516001600160e01b031960e084901b1681526001600160a01b039091166004820152602401602060405180830381865afa158015611a41573d6000803e3d6000fd5b505050506040513d601f19601f82011682018060405250810190611a65919061341a565b611aa85760405162461bcd60e51b815260206004820152601460248201527321b0b63632b91036bab9ba1031329030b236b4b760611b6044820152606401610a6d565b6064611ab48284613466565b1115611b285760405162461bcd60e51b815260206004820152603760248201527f4554532e75706461746550657263656e74616765733a2070657263656e74616760448201527f6573206d757374206e6f74206265206f766572203130300000000000000000006064820152608401610a6d565b60cc82905560cd81905580611b3e83606461334c565b611b48919061334c565b60ce81905560cc5460cd546040805192835260208301919091528101919091527f78c1b0567e296aa5eef70ad2deee29f35e0dd128cac603be855ece3e823f4308906060016111e0565b60026033541415611be55760405162461bcd60e51b815260206004820152601f60248201527f5265656e7472616e637947756172643a207265656e7472616e742063616c6c006044820152606401610a6d565b600260335560c9546001600160a01b0316632b04fd44336040516001600160e01b031960e084901b1681526001600160a01b039091166004820152602401602060405180830381865afa158015611c40573d6000803e3d6000fd5b505050506040513d601f19601f82011682018060405250810190611c64919061341a565b611cb05760405162461bcd60e51b815260206004820152601060248201527f4f6e6c79207461726765742074797065000000000000000000000000000000006044820152606401610a6d565b60c9546040517f41859ac80000000000000000000000000000000000000000000000000000000081526001600160a01b038681166004830152909116906341859ac890602401602060405180830381865afa158015611d13573d6000803e3d6000fd5b505050506040513d601f19601f82011682018060405250810190611d37919061341a565b611da95760405162461bcd60e51b815260206004820152602660248201527f5461673a20546865207075626c6973686572206d75737420626520776869746560448201527f6c697374656400000000000000000000000000000000000000000000000000006064820152608401610a6d565b8680611df75760405162461bcd60e51b815260206004820152601760248201527f4e6f2074616720737472696e677320737570706c6965640000000000000000006044820152606401610a6d565b8060d054611e059190613363565b3414611e535760405162461bcd60e51b815260206004820152601a60248201527f5461673a20596f75206d7573742073656e6420746865206665650000000000006044820152606401610a6d565b60c954600090611f14906001600160a01b031663a88ae5b6336040516001600160e01b031960e084901b1681526001600160a01b039091166004820152602401600060405180830381865afa158015611eb0573d6000803e3d6000fd5b505050506040513d6000823e601f3d908101601f19168201604052611ed8919081019061347e565b89898080601f01602080910402602001604051908101604052809392919081815260200183838082843760009201919091525061231792505050565b905060008267ffffffffffffffff811115611f3157611f31612f69565b604051908082528060200260200182016040528015611f5a578160200160208202803683370190505b50905060005b83811015611fd3576000611f988d8d84818110611f7f57611f7f613382565b9050602002810190611f919190613398565b8b8b6108ee565b9050611fa4818a61234f565b80838381518110611fb757611fb7613382565b602090810291909101015250611fcc816134ec565b9050611f60565b5083156120525760cb546040517f177f2fb5000000000000000000000000000000000000000000000000000000008152600481018490526001600160a01b039091169063177f2fb590602401600060405180830381600087803b15801561203957600080fd5b505af115801561204d573d6000803e3d6000fd5b505050505b61205f818389898961268e565b50506001603355505050505050505050565b600081815260d4602052604081206002015461208e576000610e4e565b600192915050565b60c9546001600160a01b03166324d7806c336040516001600160e01b031960e084901b1681526001600160a01b039091166004820152602401602060405180830381865afa1580156120ec573d6000803e3d6000fd5b505050506040513d601f19601f82011682018060405250810190612110919061341a565b610fcd5760405162461bcd60e51b815260206004820152601460248201527321b0b63632b91036bab9ba1031329030b236b4b760611b6044820152606401610a6d565b60006121867f360894a13ba1a3210667c828492db98dca3e2076cc3735a920a3ca505d382bbc546001600160a01b031690565b9050612191846127d2565b60008351118061219e5750815b156121af576121ad8484612887565b505b7f4910fdfa16fed3260ed0e7147f7cc6da11a60208b5b9406d12a635614ffd9143805460ff1661231057805460ff191660011781556040516001600160a01b038316602482015261225c90869060440160408051601f198184030181529190526020810180517bffffffffffffffffffffffffffffffffffffffffffffffffffffffff167f3659cfe600000000000000000000000000000000000000000000000000000000179052612887565b50805460ff191681557f360894a13ba1a3210667c828492db98dca3e2076cc3735a920a3ca505d382bbc546001600160a01b038381169116146123075760405162461bcd60e51b815260206004820152602f60248201527f45524331393637557067726164653a207570677261646520627265616b73206660448201527f75727468657220757067726164657300000000000000000000000000000000006064820152608401610a6d565b61231085612980565b5050505050565b600080612324848461145b565b600081815260d4602052604090206002015490915015612345579050610e4e565b6116fa84846129c0565b60ca546040517f878327ab0000000000000000000000000000000000000000000000000000000081526004810184905260009182916001600160a01b039091169063878327ab906024016040805180830381865afa1580156123b5573d6000803e3d6000fd5b505050506040513d601f19601f820116820180604052508101906123d99190613507565b91509150816001600160a01b0316816001600160a01b0316141561258557606460cc54346124079190613363565b6124119190613536565b6001600160a01b038316600090815260d160205260409020546124349190613466565b6001600160a01b038316600090815260d1602052604090205560cd5460649061245d9034613363565b6124679190613536565b6001600160a01b038416600090815260d1602052604090205461248a9190613466565b6001600160a01b03848116600090815260d160205260408082209390935560ca5492517fa30b4db90000000000000000000000000000000000000000000000000000000081526004810188905290929091169063a30b4db990602401602060405180830381865afa158015612503573d6000803e3d6000fd5b505050506040513d601f19601f820116820180604052508101906125279190613558565b9050606460ce54346125399190613363565b6125439190613536565b6001600160a01b038216600090815260d160205260409020546125669190613466565b6001600160a01b03909116600090815260d16020526040902055612688565b606460cc54346125959190613363565b61259f9190613536565b6001600160a01b038316600090815260d160205260409020546125c29190613466565b6001600160a01b038316600090815260d1602052604090205560cd546064906125eb9034613363565b6125f59190613536565b6001600160a01b038416600090815260d160205260409020546126189190613466565b6001600160a01b038416600090815260d1602052604090205560ce546064906126419034613363565b61264b9190613536565b6001600160a01b038216600090815260d1602052604090205461266e9190613466565b6001600160a01b038216600090815260d160205260409020555b50505050565b6040805160208082018790526bffffffffffffffffffffffff19606087811b82168486015286811b8216605485015285901b1660688301528251808303605c018152607c90920190925280519101206000906040805160a08101825288815260208082018990526001600160a01b0380881683850152888116606084015286166080830152600084815260d38252929092208151805194955091939092612739928492910190612afa565b5060208281015160018301556040808401516002840180546001600160a01b03199081166001600160a01b03938416179091556060860151600386018054831691841691909117905560809095015160049094018054909516931692909217909255518281527f81b185c481377e520177bddb63bab2a8d220831d7c07b748c2baf29c6e607070910160405180910390a1505050505050565b803b6128465760405162461bcd60e51b815260206004820152602d60248201527f455243313936373a206e657720696d706c656d656e746174696f6e206973206e60448201527f6f74206120636f6e7472616374000000000000000000000000000000000000006064820152608401610a6d565b7f360894a13ba1a3210667c828492db98dca3e2076cc3735a920a3ca505d382bbc80546001600160a01b0319166001600160a01b0392909216919091179055565b6060823b6128fd5760405162461bcd60e51b815260206004820152602660248201527f416464726573733a2064656c65676174652063616c6c20746f206e6f6e2d636f60448201527f6e747261637400000000000000000000000000000000000000000000000000006064820152608401610a6d565b600080846001600160a01b0316846040516129189190613575565b600060405180830381855af49150503d8060008114612953576040519150601f19603f3d011682016040523d82523d6000602084013e612958565b606091505b5091509150610a1b828260405180606001604052806027815260200161359260279139612aba565b612989816127d2565b6040516001600160a01b038216907fbc7cd75a20ee27fd9adebab32041f755214dbc6bffa90cc0225b39da2e5c2d3b90600090a250565b6000806129cd848461145b565b6040805160c08101825286815260208082018790524282840152600060608301819052608083018190528351808301855281815260a084015284815260d48252929092208151805194955091939092612a2a928492910190612bb9565b506020828101518051612a439260018501920190612bb9565b5060408201516002820155606082015160038201556080820151600482015560a08201518051612a7d916005840191602090910190612bb9565b50506040518281527f503a6e6145f2d2a2a9b0845c2193aef653400c52f93b1c897bd55d36a396be7c915060200160405180910390a19392505050565b60608315612ac9575081612af3565b825115612ad95782518084602001fd5b8160405162461bcd60e51b8152600401610a6d9190613133565b9392505050565b828054828255906000526020600020908101928215612b35579160200282015b82811115612b35578251825591602001919060010190612b1a565b50612b41929150612c2c565b5090565b828054612b51906133df565b90600052602060002090601f016020900481019282612b735760008555612b35565b82601f10612b8c5782800160ff19823516178555612b35565b82800160010185558215612b35579182015b82811115612b35578235825591602001919060010190612b9e565b828054612bc5906133df565b90600052602060002090601f016020900481019282612be75760008555612b35565b82601f10612c0057805160ff1916838001178555612b35565b82800160010185558215612b355791820182811115612b35578251825591602001919060010190612b1a565b5b80821115612b415760008155600101612c2d565b6001600160a01b0381168114610fcd57600080fd5b60008060008060808587031215612c6c57600080fd5b843593506020850135612c7e81612c41565b92506040850135612c8e81612c41565b91506060850135612c9e81612c41565b939692955090935050565b60a0808252865190820181905260009060209060c0840190828a01845b82811015612ce257815184529284019290840190600101612cc6565b50505090830196909652506001600160a01b0393841660408201529183166060830152909116608090910152919050565b60008083601f840112612d2557600080fd5b50813567ffffffffffffffff811115612d3d57600080fd5b602083019150836020828501011115612d5557600080fd5b9250929050565b60008060008060608587031215612d7257600080fd5b843567ffffffffffffffff811115612d8957600080fd5b612d9587828801612d13565b9095509350506020850135612da981612c41565b91506040850135612c9e81612c41565b60008083601f840112612dcb57600080fd5b50813567ffffffffffffffff811115612de357600080fd5b6020830191508360208260051b8501011115612d5557600080fd5b600080600060408486031215612e1357600080fd5b83359250602084013567ffffffffffffffff811115612e3157600080fd5b612e3d86828701612db9565b9497909650939450505050565b600060208284031215612e5c57600080fd5b5035919050565b60005b83811015612e7e578181015183820152602001612e66565b838111156126885750506000910152565b60008151808452612ea7816020860160208601612e63565b601f01601f19169290920160200192915050565b60c081526000612ece60c0830189612e8f565b8281036020840152612ee08189612e8f565b905086604084015285606084015284608084015282810360a0840152612f068185612e8f565b9998505050505050505050565b600060208284031215612f2557600080fd5b8135612af381612c41565b60008060408385031215612f4357600080fd5b8235612f4e81612c41565b91506020830135612f5e81612c41565b809150509250929050565b634e487b7160e01b600052604160045260246000fd5b604051601f8201601f1916810167ffffffffffffffff81118282101715612fa857612fa8612f69565b604052919050565b600067ffffffffffffffff821115612fca57612fca612f69565b50601f01601f191660200190565b6000612feb612fe684612fb0565b612f7f565b9050828152838383011115612fff57600080fd5b828260208301376000602084830101529392505050565b6000806040838503121561302957600080fd5b823561303481612c41565b9150602083013567ffffffffffffffff81111561305057600080fd5b8301601f8101851361306157600080fd5b61307085823560208401612fd8565b9150509250929050565b600080600080600080600080600060c08a8c03121561309857600080fd5b8935985060208a013567ffffffffffffffff808211156130b757600080fd5b6130c38d838e01612d13565b909a50985060408c01359150808211156130dc57600080fd5b6130e88d838e01612d13565b909850965060608c0135955060808c0135945060a08c013591508082111561310f57600080fd5b5061311c8c828d01612d13565b915080935050809150509295985092959850929598565b602081526000612af36020830184612e8f565b600082601f83011261315757600080fd5b612af383833560208501612fd8565b6000806040838503121561317957600080fd5b823567ffffffffffffffff8082111561319157600080fd5b61319d86838701613146565b935060208501359150808211156131b357600080fd5b5061307085828601613146565b600080604083850312156131d357600080fd5b50508035926020909101359150565b8015158114610fcd57600080fd5b60008060008060008060008060c0898b03121561320c57600080fd5b883567ffffffffffffffff8082111561322457600080fd5b6132308c838d01612db9565b909a50985060208b013591508082111561324957600080fd5b506132568b828c01612d13565b909750955050604089013561326a81612c41565b9350606089013561327a81612c41565b9250608089013561328a81612c41565b915060a089013561329a816131e2565b809150509295985092959890939650565b81835281816020850137506000828201602090810191909152601f909101601f19169091010190565b6020815260006116fa6020830184866132ab565b6000602082840312156132fa57600080fd5b5051919050565b6060815260006133156060830186886132ab565b6001600160a01b039485166020840152929093166040909101529392505050565b634e487b7160e01b600052601160045260246000fd5b60008282101561335e5761335e613336565b500390565b600081600019048311821515161561337d5761337d613336565b500290565b634e487b7160e01b600052603260045260246000fd5b6000808335601e198436030181126133af57600080fd5b83018035915067ffffffffffffffff8211156133ca57600080fd5b602001915036819003821315612d5557600080fd5b600181811c908216806133f357607f821691505b6020821081141561341457634e487b7160e01b600052602260045260246000fd5b50919050565b60006020828403121561342c57600080fd5b8151612af3816131e2565b60008351613449818460208801612e63565b83519083019061345d818360208801612e63565b01949350505050565b6000821982111561347957613479613336565b500190565b60006020828403121561349057600080fd5b815167ffffffffffffffff8111156134a757600080fd5b8201601f810184136134b857600080fd5b80516134c6612fe682612fb0565b8181528560208385010111156134db57600080fd5b610a1b826020830160208601612e63565b600060001982141561350057613500613336565b5060010190565b6000806040838503121561351a57600080fd5b825161352581612c41565b6020840151909250612f5e81612c41565b60008261355357634e487b7160e01b600052601260045260246000fd5b500490565b60006020828403121561356a57600080fd5b8151612af381612c41565b60008251613587818460208701612e63565b919091019291505056fe416464726573733a206c6f772d6c6576656c2064656c65676174652063616c6c206661696c6564a26469706673582212208023fddbc0d5d1c6e55815258fa9cc381f11741dd8e3cfb81a8e010e2692859c64736f6c634300080c0033",
  "linkReferences": {},
  "deployedLinkReferences": {}
}