{
  "_format": "hh-sol-artifact-1",
  "contractName": "ETS",
  "sourceName": "contracts/core/ETS.sol",
  "abi": [
    {
      "anonymous": false,
      "inputs": [
        {
          "indexed": false,
          "internalType": "address",
          "name": "previousAccessControls",
          "type": "address"
        },
        {
          "indexed": false,
          "internalType": "address",
          "name": "newAccessControls",
          "type": "address"
        }
      ],
      "name": "AccessControlsUpdated",
      "type": "event"
    },
    {
      "anonymous": false,
      "inputs": [
        {
          "indexed": false,
          "internalType": "address",
          "name": "previousAdmin",
          "type": "address"
        },
        {
          "indexed": false,
          "internalType": "address",
          "name": "newAdmin",
          "type": "address"
        }
      ],
      "name": "AdminChanged",
      "type": "event"
    },
    {
      "anonymous": false,
      "inputs": [
        {
          "indexed": true,
          "internalType": "address",
          "name": "beacon",
          "type": "address"
        }
      ],
      "name": "BeaconUpgraded",
      "type": "event"
    },
    {
      "anonymous": false,
      "inputs": [
        {
          "indexed": false,
          "internalType": "address",
          "name": "previousETSEnsure",
          "type": "address"
        },
        {
          "indexed": false,
          "internalType": "address",
          "name": "newETSEnsure",
          "type": "address"
        }
      ],
      "name": "ETSEnsureUpdated",
      "type": "event"
    },
    {
      "anonymous": false,
      "inputs": [
        {
          "indexed": true,
          "internalType": "address",
          "name": "who",
          "type": "address"
        },
        {
          "indexed": false,
          "internalType": "uint256",
          "name": "amount",
          "type": "uint256"
        }
      ],
      "name": "FundsWithdrawn",
      "type": "event"
    },
    {
      "anonymous": false,
      "inputs": [
        {
          "indexed": false,
          "internalType": "uint256",
          "name": "platformPercentage",
          "type": "uint256"
        },
        {
          "indexed": false,
          "internalType": "uint256",
          "name": "publisherPercentage",
          "type": "uint256"
        },
        {
          "indexed": false,
          "internalType": "uint256",
          "name": "remainingPercentage",
          "type": "uint256"
        }
      ],
      "name": "PercentagesSet",
      "type": "event"
    },
    {
      "anonymous": false,
      "inputs": [
        {
          "indexed": false,
          "internalType": "uint256",
          "name": "targetId",
          "type": "uint256"
        }
      ],
      "name": "RequestEnsureTarget",
      "type": "event"
    },
    {
      "anonymous": false,
      "inputs": [
        {
          "indexed": false,
          "internalType": "uint256",
          "name": "previousFee",
          "type": "uint256"
        },
        {
          "indexed": false,
          "internalType": "uint256",
          "name": "taggingFee",
          "type": "uint256"
        }
      ],
      "name": "TaggingFeeSet",
      "type": "event"
    },
    {
      "anonymous": false,
      "inputs": [
        {
          "indexed": false,
          "internalType": "uint256",
          "name": "targetId",
          "type": "uint256"
        }
      ],
      "name": "TargetCreated",
      "type": "event"
    },
    {
      "anonymous": false,
      "inputs": [
        {
          "indexed": false,
          "internalType": "uint256",
          "name": "taggingId",
          "type": "uint256"
        }
      ],
      "name": "TargetTagged",
      "type": "event"
    },
    {
      "anonymous": false,
      "inputs": [
        {
          "indexed": false,
          "internalType": "string",
          "name": "typeName",
          "type": "string"
        },
        {
          "indexed": false,
          "internalType": "bool",
          "name": "setting",
          "type": "bool"
        }
      ],
      "name": "TargetTypeSet",
      "type": "event"
    },
    {
      "anonymous": false,
      "inputs": [
        {
          "indexed": false,
          "internalType": "uint256",
          "name": "targetId",
          "type": "uint256"
        }
      ],
      "name": "TargetUpdated",
      "type": "event"
    },
    {
      "anonymous": false,
      "inputs": [
        {
          "indexed": true,
          "internalType": "address",
          "name": "implementation",
          "type": "address"
        }
      ],
      "name": "Upgraded",
      "type": "event"
    },
    {
      "inputs": [],
      "name": "NAME",
      "outputs": [
        {
          "internalType": "string",
          "name": "",
          "type": "string"
        }
      ],
      "stateMutability": "view",
      "type": "function"
    },
    {
      "inputs": [],
      "name": "VERSION",
      "outputs": [
        {
          "internalType": "string",
          "name": "",
          "type": "string"
        }
      ],
      "stateMutability": "view",
      "type": "function"
    },
    {
      "inputs": [],
      "name": "accessControls",
      "outputs": [
        {
          "internalType": "contract ETSAccessControls",
          "name": "",
          "type": "address"
        }
      ],
      "stateMutability": "view",
      "type": "function"
    },
    {
      "inputs": [
        {
          "internalType": "address",
          "name": "",
          "type": "address"
        }
      ],
      "name": "accrued",
      "outputs": [
        {
          "internalType": "uint256",
          "name": "",
          "type": "uint256"
        }
      ],
      "stateMutability": "view",
      "type": "function"
    },
    {
      "inputs": [
        {
          "internalType": "uint256",
          "name": "_targetId",
          "type": "uint256"
        },
        {
          "internalType": "address",
          "name": "_publisher",
          "type": "address"
        },
        {
          "internalType": "address",
          "name": "_tagger",
          "type": "address"
        },
        {
          "internalType": "address",
          "name": "_sponsor",
          "type": "address"
        }
      ],
      "name": "computeTaggingRecordId",
      "outputs": [
        {
          "internalType": "uint256",
          "name": "taggingRecordId",
          "type": "uint256"
        }
      ],
      "stateMutability": "pure",
      "type": "function"
    },
    {
      "inputs": [
        {
          "internalType": "string",
          "name": "_targetType",
          "type": "string"
        },
        {
          "internalType": "string",
          "name": "_targetURI",
          "type": "string"
        }
      ],
      "name": "computeTargetId",
      "outputs": [
        {
          "internalType": "uint256",
          "name": "targetId",
          "type": "uint256"
        }
      ],
      "stateMutability": "pure",
      "type": "function"
    },
    {
      "inputs": [
        {
          "internalType": "address payable",
          "name": "_account",
          "type": "address"
        }
      ],
      "name": "drawDown",
      "outputs": [],
      "stateMutability": "nonpayable",
      "type": "function"
    },
    {
      "inputs": [],
      "name": "etsEnsure",
      "outputs": [
        {
          "internalType": "contract ETSEnsure",
          "name": "",
          "type": "address"
        }
      ],
      "stateMutability": "view",
      "type": "function"
    },
    {
      "inputs": [],
      "name": "etsTag",
      "outputs": [
        {
          "internalType": "contract ETSTag",
          "name": "",
          "type": "address"
        }
      ],
      "stateMutability": "view",
      "type": "function"
    },
    {
      "inputs": [
        {
          "internalType": "string",
          "name": "_tagString",
          "type": "string"
        },
        {
          "internalType": "address payable",
          "name": "_publisher",
          "type": "address"
        },
        {
          "internalType": "address",
          "name": "_tagger",
          "type": "address"
        }
      ],
      "name": "getOrCreateTag",
      "outputs": [
        {
          "internalType": "uint256",
          "name": "tagId",
          "type": "uint256"
        }
      ],
      "stateMutability": "payable",
      "type": "function"
    },
    {
      "inputs": [
        {
          "internalType": "uint256",
          "name": "_targetId",
          "type": "uint256"
        },
        {
          "internalType": "address",
          "name": "_tagger",
          "type": "address"
        },
        {
          "internalType": "address",
          "name": "_publisher",
          "type": "address"
        },
        {
          "internalType": "address",
          "name": "_sponsor",
          "type": "address"
        }
      ],
      "name": "getTaggingRecord",
      "outputs": [
        {
          "internalType": "uint256[]",
          "name": "etsTagIds",
          "type": "uint256[]"
        },
        {
          "internalType": "uint256",
          "name": "targetId",
          "type": "uint256"
        },
        {
          "internalType": "address",
          "name": "tagger",
          "type": "address"
        },
        {
          "internalType": "address",
          "name": "publisher",
          "type": "address"
        },
        {
          "internalType": "address",
          "name": "sponsor",
          "type": "address"
        }
      ],
      "stateMutability": "view",
      "type": "function"
    },
    {
      "inputs": [
        {
          "internalType": "uint256",
          "name": "_taggingId",
          "type": "uint256"
        }
      ],
      "name": "getTaggingRecordFromId",
      "outputs": [
        {
          "internalType": "uint256[]",
          "name": "etsTagIds",
          "type": "uint256[]"
        },
        {
          "internalType": "uint256",
          "name": "targetId",
          "type": "uint256"
        },
        {
          "internalType": "address",
          "name": "tagger",
          "type": "address"
        },
        {
          "internalType": "address",
          "name": "publisher",
          "type": "address"
        },
        {
          "internalType": "address",
          "name": "sponsor",
          "type": "address"
        }
      ],
      "stateMutability": "view",
      "type": "function"
    },
    {
      "inputs": [
        {
          "internalType": "contract ETSAccessControls",
          "name": "_accessControls",
          "type": "address"
        },
        {
          "internalType": "contract ETSTag",
          "name": "_etsTag",
          "type": "address"
        }
      ],
      "name": "initialize",
      "outputs": [],
      "stateMutability": "nonpayable",
      "type": "function"
    },
    {
      "inputs": [
        {
          "internalType": "uint256",
          "name": "_targetId",
          "type": "uint256"
        }
      ],
      "name": "isTargetEnsured",
      "outputs": [
        {
          "internalType": "bool",
          "name": "",
          "type": "bool"
        }
      ],
      "stateMutability": "view",
      "type": "function"
    },
    {
      "inputs": [],
      "name": "modulo",
      "outputs": [
        {
          "internalType": "uint256",
          "name": "",
          "type": "uint256"
        }
      ],
      "stateMutability": "view",
      "type": "function"
    },
    {
      "inputs": [
        {
          "internalType": "address",
          "name": "",
          "type": "address"
        }
      ],
      "name": "paid",
      "outputs": [
        {
          "internalType": "uint256",
          "name": "",
          "type": "uint256"
        }
      ],
      "stateMutability": "view",
      "type": "function"
    },
    {
      "inputs": [],
      "name": "platformPercentage",
      "outputs": [
        {
          "internalType": "uint256",
          "name": "",
          "type": "uint256"
        }
      ],
      "stateMutability": "view",
      "type": "function"
    },
    {
      "inputs": [],
      "name": "publisherPercentage",
      "outputs": [
        {
          "internalType": "uint256",
          "name": "",
          "type": "uint256"
        }
      ],
      "stateMutability": "view",
      "type": "function"
    },
    {
      "inputs": [],
      "name": "remainingPercentage",
      "outputs": [
        {
          "internalType": "uint256",
          "name": "",
          "type": "uint256"
        }
      ],
      "stateMutability": "view",
      "type": "function"
    },
    {
      "inputs": [
        {
          "internalType": "uint256",
          "name": "_fee",
          "type": "uint256"
        }
      ],
      "name": "setTaggingFee",
      "outputs": [],
      "stateMutability": "nonpayable",
      "type": "function"
    },
    {
      "inputs": [
        {
          "internalType": "string[]",
          "name": "_tags",
          "type": "string[]"
        },
        {
          "internalType": "string",
          "name": "_targetURI",
          "type": "string"
        },
        {
          "internalType": "address payable",
          "name": "_publisher",
          "type": "address"
        },
        {
          "internalType": "address",
          "name": "_tagger",
          "type": "address"
        },
        {
          "internalType": "address",
          "name": "_sponsor",
          "type": "address"
        },
        {
          "internalType": "bool",
          "name": "_ensure",
          "type": "bool"
        }
      ],
      "name": "tagTarget",
      "outputs": [],
      "stateMutability": "payable",
      "type": "function"
    },
    {
      "inputs": [],
      "name": "taggingCounter",
      "outputs": [
        {
          "internalType": "uint256",
          "name": "",
          "type": "uint256"
        }
      ],
      "stateMutability": "view",
      "type": "function"
    },
    {
      "inputs": [],
      "name": "taggingFee",
      "outputs": [
        {
          "internalType": "uint256",
          "name": "",
          "type": "uint256"
        }
      ],
      "stateMutability": "view",
      "type": "function"
    },
    {
      "inputs": [
        {
          "internalType": "uint256",
          "name": "",
          "type": "uint256"
        }
      ],
      "name": "taggingRecords",
      "outputs": [
        {
          "internalType": "uint256",
          "name": "targetId",
          "type": "uint256"
        },
        {
          "internalType": "address",
          "name": "tagger",
          "type": "address"
        },
        {
          "internalType": "address",
          "name": "publisher",
          "type": "address"
        },
        {
          "internalType": "address",
          "name": "sponsor",
          "type": "address"
        }
      ],
      "stateMutability": "view",
      "type": "function"
    },
    {
      "inputs": [
        {
          "internalType": "uint256",
          "name": "_targetId",
          "type": "uint256"
        }
      ],
      "name": "targetExists",
      "outputs": [
        {
          "internalType": "bool",
          "name": "",
          "type": "bool"
        }
      ],
      "stateMutability": "view",
      "type": "function"
    },
    {
      "inputs": [
        {
          "internalType": "string",
          "name": "_targetType",
          "type": "string"
        },
        {
          "internalType": "string",
          "name": "_targetURI",
          "type": "string"
        }
      ],
      "name": "targetExists",
      "outputs": [
        {
          "internalType": "bool",
          "name": "",
          "type": "bool"
        }
      ],
      "stateMutability": "view",
      "type": "function"
    },
    {
      "inputs": [
        {
          "internalType": "uint256",
          "name": "",
          "type": "uint256"
        }
      ],
      "name": "targets",
      "outputs": [
        {
          "internalType": "string",
          "name": "targetType",
          "type": "string"
        },
        {
          "internalType": "string",
          "name": "targetURI",
          "type": "string"
        },
        {
          "internalType": "uint256",
          "name": "created",
          "type": "uint256"
        },
        {
          "internalType": "uint256",
          "name": "lastEnsured",
          "type": "uint256"
        },
        {
          "internalType": "uint256",
          "name": "status",
          "type": "uint256"
        },
        {
          "internalType": "string",
          "name": "ipfsHash",
          "type": "string"
        }
      ],
      "stateMutability": "view",
      "type": "function"
    },
    {
      "inputs": [
        {
          "internalType": "address",
          "name": "_account",
          "type": "address"
        }
      ],
      "name": "totalDue",
      "outputs": [
        {
          "internalType": "uint256",
          "name": "_due",
          "type": "uint256"
        }
      ],
      "stateMutability": "view",
      "type": "function"
    },
    {
      "inputs": [
        {
          "internalType": "contract ETSAccessControls",
          "name": "_accessControls",
          "type": "address"
        }
      ],
      "name": "updateAccessControls",
      "outputs": [],
      "stateMutability": "nonpayable",
      "type": "function"
    },
    {
      "inputs": [
        {
          "internalType": "contract ETSEnsure",
          "name": "_etsEnsure",
          "type": "address"
        }
      ],
      "name": "updateETSEnsure",
      "outputs": [],
      "stateMutability": "nonpayable",
      "type": "function"
    },
    {
      "inputs": [
        {
          "internalType": "uint256",
          "name": "_platformPercentage",
          "type": "uint256"
        },
        {
          "internalType": "uint256",
          "name": "_publisherPercentage",
          "type": "uint256"
        }
      ],
      "name": "updatePercentages",
      "outputs": [],
      "stateMutability": "nonpayable",
      "type": "function"
    },
    {
      "inputs": [
        {
          "internalType": "uint256",
          "name": "_taggingRecordId",
          "type": "uint256"
        },
        {
          "internalType": "uint256[]",
          "name": "_tagIds",
          "type": "uint256[]"
        }
      ],
      "name": "updateTaggingRecord",
      "outputs": [],
      "stateMutability": "nonpayable",
      "type": "function"
    },
    {
      "inputs": [
        {
          "internalType": "uint256",
          "name": "_targetId",
          "type": "uint256"
        },
        {
          "internalType": "string",
          "name": "_targetType",
          "type": "string"
        },
        {
          "internalType": "string",
          "name": "_targetURI",
          "type": "string"
        },
        {
          "internalType": "uint256",
          "name": "_lastEnsured",
          "type": "uint256"
        },
        {
          "internalType": "uint256",
          "name": "_status",
          "type": "uint256"
        },
        {
          "internalType": "string",
          "name": "_ipfsHash",
          "type": "string"
        }
      ],
      "name": "updateTarget",
      "outputs": [
        {
          "internalType": "bool",
          "name": "success",
          "type": "bool"
        }
      ],
      "stateMutability": "nonpayable",
      "type": "function"
    },
    {
      "inputs": [
        {
          "internalType": "address",
          "name": "newImplementation",
          "type": "address"
        }
      ],
      "name": "upgradeTo",
      "outputs": [],
      "stateMutability": "nonpayable",
      "type": "function"
    },
    {
      "inputs": [
        {
          "internalType": "address",
          "name": "newImplementation",
          "type": "address"
        },
        {
          "internalType": "bytes",
          "name": "data",
          "type": "bytes"
        }
      ],
      "name": "upgradeToAndCall",
      "outputs": [],
      "stateMutability": "payable",
      "type": "function"
    },
    {
      "inputs": [],
      "name": "version",
      "outputs": [
        {
          "internalType": "string",
          "name": "",
          "type": "string"
        }
      ],
      "stateMutability": "pure",
      "type": "function"
    }
  ],
  "bytecode": "0x60a06040523060805234801561001457600080fd5b5060805161349e61004560003960008181610c5c01528181610ce601528181610ef60152610f7b015261349e6000f3fe60806040526004361061024f5760003560e01c8063748365ef11610138578063c2062005116100b0578063d80a861f1161007f578063f8bc3cc611610064578063f8bc3cc61461079d578063fe52656f146107bd578063ffa1ad74146107d357600080fd5b8063d80a861f14610767578063e88b772c1461078757600080fd5b8063c2062005146106e2578063c20d229514610702578063ce0e0eed14610722578063d64f55c91461075457600080fd5b8063a340cf7911610107578063b148440f116100ec578063b148440f14610675578063b205f808146106a2578063b7d0e7dd146106c257600080fd5b8063a340cf79146105ff578063a3f4df7e1461062c57600080fd5b8063748365ef146105715780637e2e4c52146105a9578063817a1fbd146105bf578063962ed232146105df57600080fd5b8063485cc955116101cb5780635dffa7fe1161019a57806368fd4dee1161017f57806368fd4dee146104ae5780636ef3da94146104ce57806374716c81146104ee57600080fd5b80635dffa7fe1461041e57806360c1cade1461043e57600080fd5b8063485cc955146103945780634f1ef286146103b4578063507f3ba1146103c757806354fd4d50146103e757600080fd5b80630ad2f0c31161022257806329745262116102075780632974526214610347578063337ccf9d1461035c5780633659cfe61461037257600080fd5b80630ad2f0c3146103115780631f7418971461033157600080fd5b80630438837c146102545780630477fe281461028e57806307348e26146102be5780630a39ce02146102df575b600080fd5b34801561026057600080fd5b5061027461026f366004612b06565b610804565b604051610285959493929190612b59565b60405180910390f35b34801561029a57600080fd5b506102ae6102a9366004612bc3565b6108fb565b6040519015158152602001610285565b6102d16102cc366004612c25565b610921565b604051908152602001610285565b3480156102eb57600080fd5b506102ff6102fa366004612bc3565b610a57565b60405161028596959493929190612cda565b34801561031d57600080fd5b506102d161032c366004612d32565b610c23565b34801561033d57600080fd5b506102d160cc5481565b34801561035357600080fd5b506102d1606481565b34801561036857600080fd5b506102d160ce5481565b34801561037e57600080fd5b5061039261038d366004612d32565b610c51565b005b3480156103a057600080fd5b506103926103af366004612d4f565b610dd2565b6103926103c2366004612e35565b610eeb565b3480156103d357600080fd5b506102ae6103e2366004612e99565b611058565b3480156103f357600080fd5b50604080518082019091526005815264302e302e3160d81b60208201525b6040516102859190612f52565b34801561042a57600080fd5b506102d1610439366004612f85565b61115a565b34801561044a57600080fd5b506102d1610459366004612b06565b604080516020808201969096526bffffffffffffffffffffffff19606094851b81168284015294841b851660548201529190921b90921660688301528051808303605c018152607c9092019052805191012090565b3480156104ba57600080fd5b506102746104c9366004612bc3565b611190565b3480156104da57600080fd5b506103926104e9366004612d32565b611236565b3480156104fa57600080fd5b50610542610509366004612bc3565b60d360205260009081526040902060018101546002820154600383015460049093015491926001600160a01b0391821692908216911684565b604080519485526001600160a01b03938416602086015291831691840191909152166060820152608001610285565b34801561057d57600080fd5b5060c954610591906001600160a01b031681565b6040516001600160a01b039091168152602001610285565b3480156105b557600080fd5b506102d160cd5481565b3480156105cb57600080fd5b506102ae6105da366004612f85565b6113d1565b3480156105eb57600080fd5b506103926105fa366004612bc3565b611409565b34801561060b57600080fd5b506102d161061a366004612d32565b60d26020526000908152604090205481565b34801561063857600080fd5b506104116040518060400160405280600881526020017f45545320436f726500000000000000000000000000000000000000000000000081525081565b34801561068157600080fd5b506102d1610690366004612d32565b60d16020526000908152604090205481565b3480156106ae57600080fd5b506103926106bd366004612d32565b611504565b3480156106ce57600080fd5b5060cb54610591906001600160a01b031681565b3480156106ee57600080fd5b506103926106fd366004612d32565b611697565b34801561070e57600080fd5b5061039261071d366004612fdf565b6117ed565b34801561072e57600080fd5b506102ae61073d366004612bc3565b600090815260d46020526040902060030154151590565b610392610762366004613054565b611994565b34801561077357600080fd5b5061039261078236600461310f565b611e73565b34801561079357600080fd5b506102d160cf5481565b3480156107a957600080fd5b5060ca54610591906001600160a01b031681565b3480156107c957600080fd5b506102d160d05481565b3480156107df57600080fd5b5061041160405180604001604052806005815260200164302e302e3160d81b81525081565b6040805160208082018790526bffffffffffffffffffffffff19606086811b82168486015287811b8216605485015285811b90911660688401528351808403605c018152607c8401808652815191840191909120600081815260d3855286812060018101546002820154600383015460048401548454609c9a81028c018b01909c528b8852979a94998a998a998a99969788976001600160a01b039687169695861695909216939192889201828280156108dd57602002820191906000526020600020905b8154815260200190600101908083116108c9575b50505050509450965096509650965096505050945094509450945094565b600081815260d4602052604081206002015461091857600061091b565b60015b92915050565b60ca546040517ff143fc6100000000000000000000000000000000000000000000000000000000815260009182916001600160a01b039091169063f143fc61906109719089908990600401613184565b602060405180830381865afa15801561098e573d6000803e3d6000fd5b505050506040513d601f19601f820116820180604052508101906109b29190613198565b905080610a4e5760ca546040517f7e6d945e0000000000000000000000000000000000000000000000000000000081526001600160a01b0390911690637e6d945e90610a089089908990899089906004016131b1565b6020604051808303816000875af1158015610a27573d6000803e3d6000fd5b505050506040513d601f19601f82011682018060405250810190610a4b9190613198565b90505b95945050505050565b60d460205260009081526040902080548190610a72906131e6565b80601f0160208091040260200160405190810160405280929190818152602001828054610a9e906131e6565b8015610aeb5780601f10610ac057610100808354040283529160200191610aeb565b820191906000526020600020905b815481529060010190602001808311610ace57829003601f168201915b505050505090806001018054610b00906131e6565b80601f0160208091040260200160405190810160405280929190818152602001828054610b2c906131e6565b8015610b795780601f10610b4e57610100808354040283529160200191610b79565b820191906000526020600020905b815481529060010190602001808311610b5c57829003601f168201915b505050505090806002015490806003015490806004015490806005018054610ba0906131e6565b80601f0160208091040260200160405190810160405280929190818152602001828054610bcc906131e6565b8015610c195780601f10610bee57610100808354040283529160200191610c19565b820191906000526020600020905b815481529060010190602001808311610bfc57829003601f168201915b5050505050905086565b6001600160a01b038116600090815260d2602090815260408083205460d190925282205461091b9190613237565b306001600160a01b037f0000000000000000000000000000000000000000000000000000000000000000161415610ce45760405162461bcd60e51b815260206004820152602c60248201527f46756e6374696f6e206d7573742062652063616c6c6564207468726f7567682060448201526b19195b1959d85d1958d85b1b60a21b60648201526084015b60405180910390fd5b7f00000000000000000000000000000000000000000000000000000000000000006001600160a01b0316610d3f7f360894a13ba1a3210667c828492db98dca3e2076cc3735a920a3ca505d382bbc546001600160a01b031690565b6001600160a01b031614610daa5760405162461bcd60e51b815260206004820152602c60248201527f46756e6374696f6e206d7573742062652063616c6c6564207468726f7567682060448201526b6163746976652070726f787960a01b6064820152608401610cdb565b610db381611f0c565b60408051600080825260208201909252610dcf91839190611fc9565b50565b600054610100900460ff16610ded5760005460ff1615610df1565b303b155b610e635760405162461bcd60e51b815260206004820152602e60248201527f496e697469616c697a61626c653a20636f6e747261637420697320616c72656160448201527f647920696e697469616c697a65640000000000000000000000000000000000006064820152608401610cdb565b600054610100900460ff16158015610e85576000805461ffff19166101011790555b60c980546001600160a01b038086166001600160a01b03199283161790925560ca805492851692909116919091179055600060cf5566038d7ea4c6800060d055601460cc55601e60cd55603260ce558015610ee6576000805461ff00191690555b505050565b306001600160a01b037f0000000000000000000000000000000000000000000000000000000000000000161415610f795760405162461bcd60e51b815260206004820152602c60248201527f46756e6374696f6e206d7573742062652063616c6c6564207468726f7567682060448201526b19195b1959d85d1958d85b1b60a21b6064820152608401610cdb565b7f00000000000000000000000000000000000000000000000000000000000000006001600160a01b0316610fd47f360894a13ba1a3210667c828492db98dca3e2076cc3735a920a3ca505d382bbc546001600160a01b031690565b6001600160a01b03161461103f5760405162461bcd60e51b815260206004820152602c60248201527f46756e6374696f6e206d7573742062652063616c6c6564207468726f7567682060448201526b6163746976652070726f787960a01b6064820152608401610cdb565b61104882611f0c565b61105482826001611fc9565b5050565b60cb546000906001600160a01b031633146110b55760405162461bcd60e51b815260206004820152600f60248201527f4f6e6c792045545320656e7375726500000000000000000000000000000000006044820152606401610cdb565b60008a815260d4602052604090206110ce908a8a612970565b5060008a815260d4602052604090206110eb906001018888612970565b5060008a815260d4602052604090206003810186905560048101859055611116906005018484612970565b506040518a81527f9d29e5045b411bb06d81d8ff11c828d9f1d7eb076eec9ca45eda49fc99f762b29060200160405180910390a15060019998505050505050505050565b600080838360405160200161117092919061324e565b60408051808303601f190181529190528051602090910120949350505050565b600081815260d36020908152604080832060018101546002820154600383015460048401548454865181890281018901909752808752606098978897889788979096879691956001600160a01b03918216959282169491169291879183018282801561121b57602002820191906000526020600020905b815481526020019060010190808311611207575b50505050509450955095509550955095505091939590929450565b60c9546001600160a01b03166324d7806c336040516001600160e01b031960e084901b1681526001600160a01b039091166004820152602401602060405180830381865afa15801561128c573d6000803e3d6000fd5b505050506040513d601f19601f820116820180604052508101906112b0919061327d565b6112f35760405162461bcd60e51b815260206004820152601460248201527321b0b63632b91036bab9ba1031329030b236b4b760611b6044820152606401610cdb565b6001600160a01b03811661136f5760405162461bcd60e51b815260206004820152602860248201527f4554532e757064617465416363657373436f6e74726f6c733a2043616e6e6f7460448201527f206265207a65726f0000000000000000000000000000000000000000000000006064820152608401610cdb565b60c980546001600160a01b038381166001600160a01b031983168117909355604080519190921680825260208201939093527f31073599bfae2533a348dc816b0ce777b707aa9b67015ca2d86585e842b5c6e991015b60405180910390a15050565b6000806113de848461115a565b600081815260d460205260409020600201549091506113fe576000611401565b60015b949350505050565b60c9546001600160a01b03166324d7806c336040516001600160e01b031960e084901b1681526001600160a01b039091166004820152602401602060405180830381865afa15801561145f573d6000803e3d6000fd5b505050506040513d601f19601f82011682018060405250810190611483919061327d565b6114c65760405162461bcd60e51b815260206004820152601460248201527321b0b63632b91036bab9ba1031329030b236b4b760611b6044820152606401610cdb565b60d080549082905560408051828152602081018490527f861fa8a0dab775faf9bcbb5388a02f7ac01181c036f5c57982464a2d75c3608e91016113c5565b60c9546001600160a01b03166324d7806c336040516001600160e01b031960e084901b1681526001600160a01b039091166004820152602401602060405180830381865afa15801561155a573d6000803e3d6000fd5b505050506040513d601f19601f8201168201806040525081019061157e919061327d565b6115c15760405162461bcd60e51b815260206004820152601460248201527321b0b63632b91036bab9ba1031329030b236b4b760611b6044820152606401610cdb565b6001600160a01b03811661163d5760405162461bcd60e51b815260206004820152602360248201527f4554532e757064617465455453456e737572653a2043616e6e6f74206265207a60448201527f65726f00000000000000000000000000000000000000000000000000000000006064820152608401610cdb565b60cb80546001600160a01b038381166001600160a01b031983168117909355604080519190921680825260208201939093527fee20190c374934660675d28472968e002fc4af227f2956f59085225ad89239fa91016113c5565b600260335414156116ea5760405162461bcd60e51b815260206004820152601f60248201527f5265656e7472616e637947756172643a207265656e7472616e742063616c6c006044820152606401610cdb565b60026033556001600160a01b038116600090815260d2602090815260408083205460d190925282205461171d9190613237565b905060008111801561172f5750478111155b156117e4576001600160a01b038216600090815260d2602052604090205461175890829061329a565b6001600160a01b038316600081815260d26020526040808220939093559151909183156108fc02918491818181858888f1935050505015801561179f573d6000803e3d6000fd5b50816001600160a01b03167feaff4b37086828766ad3268786972c0cd24259d4c87a80f9d3963a3c3d999b0d826040516117db91815260200190565b60405180910390a25b50506001603355565b60c9546001600160a01b03166324d7806c336040516001600160e01b031960e084901b1681526001600160a01b039091166004820152602401602060405180830381865afa158015611843573d6000803e3d6000fd5b505050506040513d601f19601f82011682018060405250810190611867919061327d565b6118aa5760405162461bcd60e51b815260206004820152601460248201527321b0b63632b91036bab9ba1031329030b236b4b760611b6044820152606401610cdb565b60646118b6828461329a565b111561192a5760405162461bcd60e51b815260206004820152603760248201527f4554532e75706461746550657263656e74616765733a2070657263656e74616760448201527f6573206d757374206e6f74206265206f766572203130300000000000000000006064820152608401610cdb565b60cc82905560cd81905580611940836064613237565b61194a9190613237565b60ce81905560cc5460cd546040805192835260208301919091528101919091527f78c1b0567e296aa5eef70ad2deee29f35e0dd128cac603be855ece3e823f4308906060016113c5565b600260335414156119e75760405162461bcd60e51b815260206004820152601f60248201527f5265656e7472616e637947756172643a207265656e7472616e742063616c6c006044820152606401610cdb565b600260335560c9546001600160a01b0316632b04fd44336040516001600160e01b031960e084901b1681526001600160a01b039091166004820152602401602060405180830381865afa158015611a42573d6000803e3d6000fd5b505050506040513d601f19601f82011682018060405250810190611a66919061327d565b611ab25760405162461bcd60e51b815260206004820152601060248201527f4f6e6c79207461726765742074797065000000000000000000000000000000006044820152606401610cdb565b60c9546040517f41859ac80000000000000000000000000000000000000000000000000000000081526001600160a01b038681166004830152909116906341859ac890602401602060405180830381865afa158015611b15573d6000803e3d6000fd5b505050506040513d601f19601f82011682018060405250810190611b39919061327d565b611bab5760405162461bcd60e51b815260206004820152602660248201527f5461673a20546865207075626c6973686572206d75737420626520776869746560448201527f6c697374656400000000000000000000000000000000000000000000000000006064820152608401610cdb565b8680611bf95760405162461bcd60e51b815260206004820152601760248201527f4e6f2074616720737472696e677320737570706c6965640000000000000000006044820152606401610cdb565b8060d054611c0791906132b2565b3414611c555760405162461bcd60e51b815260206004820152601a60248201527f5461673a20596f75206d7573742073656e6420746865206665650000000000006044820152606401610cdb565b60c954600090611d16906001600160a01b031663a88ae5b6336040516001600160e01b031960e084901b1681526001600160a01b039091166004820152602401600060405180830381865afa158015611cb2573d6000803e3d6000fd5b505050506040513d6000823e601f3d908101601f19168201604052611cda91908101906132d1565b89898080601f01602080910402602001604051908101604052809392919081815260200183838082843760009201919091525061218d92505050565b905060008267ffffffffffffffff811115611d3357611d33612d88565b604051908082528060200260200182016040528015611d5c578160200160208202803683370190505b50905060005b83811015611dd5576000611d9a8d8d84818110611d8157611d8161333f565b9050602002810190611d939190613355565b8b8b610921565b9050611da6818a6121c5565b80838381518110611db957611db961333f565b602090810291909101015250611dce8161339c565b9050611d62565b508315611e545760cb546040517f177f2fb5000000000000000000000000000000000000000000000000000000008152600481018490526001600160a01b039091169063177f2fb590602401600060405180830381600087803b158015611e3b57600080fd5b505af1158015611e4f573d6000803e3d6000fd5b505050505b611e618183898989612504565b50506001603355505050505050505050565b600083815260d360205260409020600281015433906001600160a01b0316811480611ead575060048201546001600160a01b038281169116145b611ef95760405162461bcd60e51b815260206004820152601660248201527f4f6e6c7920746167676572206f722073706f6e736f72000000000000000000006044820152606401610cdb565b611f048285856129f4565b505050505050565b60c9546001600160a01b03166324d7806c336040516001600160e01b031960e084901b1681526001600160a01b039091166004820152602401602060405180830381865afa158015611f62573d6000803e3d6000fd5b505050506040513d601f19601f82011682018060405250810190611f86919061327d565b610dcf5760405162461bcd60e51b815260206004820152601460248201527321b0b63632b91036bab9ba1031329030b236b4b760611b6044820152606401610cdb565b6000611ffc7f360894a13ba1a3210667c828492db98dca3e2076cc3735a920a3ca505d382bbc546001600160a01b031690565b905061200784612648565b6000835111806120145750815b156120255761202384846126fd565b505b7f4910fdfa16fed3260ed0e7147f7cc6da11a60208b5b9406d12a635614ffd9143805460ff1661218657805460ff191660011781556040516001600160a01b03831660248201526120d290869060440160408051601f198184030181529190526020810180517bffffffffffffffffffffffffffffffffffffffffffffffffffffffff167f3659cfe6000000000000000000000000000000000000000000000000000000001790526126fd565b50805460ff191681557f360894a13ba1a3210667c828492db98dca3e2076cc3735a920a3ca505d382bbc546001600160a01b0383811691161461217d5760405162461bcd60e51b815260206004820152602f60248201527f45524331393637557067726164653a207570677261646520627265616b73206660448201527f75727468657220757067726164657300000000000000000000000000000000006064820152608401610cdb565b612186856127f6565b5050505050565b60008061219a848461115a565b600081815260d46020526040902060020154909150156121bb57905061091b565b6114018484612836565b60ca546040517f878327ab0000000000000000000000000000000000000000000000000000000081526004810184905260009182916001600160a01b039091169063878327ab906024016040805180830381865afa15801561222b573d6000803e3d6000fd5b505050506040513d601f19601f8201168201806040525081019061224f91906133b7565b91509150816001600160a01b0316816001600160a01b031614156123fb57606460cc543461227d91906132b2565b61228791906133e6565b6001600160a01b038316600090815260d160205260409020546122aa919061329a565b6001600160a01b038316600090815260d1602052604090205560cd546064906122d390346132b2565b6122dd91906133e6565b6001600160a01b038416600090815260d16020526040902054612300919061329a565b6001600160a01b03848116600090815260d160205260408082209390935560ca5492517fa30b4db90000000000000000000000000000000000000000000000000000000081526004810188905290929091169063a30b4db990602401602060405180830381865afa158015612379573d6000803e3d6000fd5b505050506040513d601f19601f8201168201806040525081019061239d9190613408565b9050606460ce54346123af91906132b2565b6123b991906133e6565b6001600160a01b038216600090815260d160205260409020546123dc919061329a565b6001600160a01b03909116600090815260d160205260409020556124fe565b606460cc543461240b91906132b2565b61241591906133e6565b6001600160a01b038316600090815260d16020526040902054612438919061329a565b6001600160a01b038316600090815260d1602052604090205560cd5460649061246190346132b2565b61246b91906133e6565b6001600160a01b038416600090815260d1602052604090205461248e919061329a565b6001600160a01b038416600090815260d1602052604090205560ce546064906124b790346132b2565b6124c191906133e6565b6001600160a01b038216600090815260d160205260409020546124e4919061329a565b6001600160a01b038216600090815260d160205260409020555b50505050565b6040805160208082018790526bffffffffffffffffffffffff19606087811b82168486015286811b8216605485015285901b1660688301528251808303605c018152607c90920190925280519101206000906040805160a08101825288815260208082018990526001600160a01b0380881683850152888116606084015286166080830152600084815260d382529290922081518051949550919390926125af928492910190612a2e565b5060208281015160018301556040808401516002840180546001600160a01b03199081166001600160a01b03938416179091556060860151600386018054831691841691909117905560809095015160049094018054909516931692909217909255518281527f81b185c481377e520177bddb63bab2a8d220831d7c07b748c2baf29c6e607070910160405180910390a1505050505050565b803b6126bc5760405162461bcd60e51b815260206004820152602d60248201527f455243313936373a206e657720696d706c656d656e746174696f6e206973206e60448201527f6f74206120636f6e7472616374000000000000000000000000000000000000006064820152608401610cdb565b7f360894a13ba1a3210667c828492db98dca3e2076cc3735a920a3ca505d382bbc80546001600160a01b0319166001600160a01b0392909216919091179055565b6060823b6127735760405162461bcd60e51b815260206004820152602660248201527f416464726573733a2064656c65676174652063616c6c20746f206e6f6e2d636f60448201527f6e747261637400000000000000000000000000000000000000000000000000006064820152608401610cdb565b600080846001600160a01b03168460405161278e9190613425565b600060405180830381855af49150503d80600081146127c9576040519150601f19603f3d011682016040523d82523d6000602084013e6127ce565b606091505b5091509150610a4e828260405180606001604052806027815260200161344260279139612930565b6127ff81612648565b6040516001600160a01b038216907fbc7cd75a20ee27fd9adebab32041f755214dbc6bffa90cc0225b39da2e5c2d3b90600090a250565b600080612843848461115a565b6040805160c08101825286815260208082018790524282840152600060608301819052608083018190528351808301855281815260a084015284815260d482529290922081518051949550919390926128a0928492910190612a69565b5060208281015180516128b99260018501920190612a69565b5060408201516002820155606082015160038201556080820151600482015560a082015180516128f3916005840191602090910190612a69565b50506040518281527f503a6e6145f2d2a2a9b0845c2193aef653400c52f93b1c897bd55d36a396be7c915060200160405180910390a19392505050565b6060831561293f575081612969565b82511561294f5782518084602001fd5b8160405162461bcd60e51b8152600401610cdb9190612f52565b9392505050565b82805461297c906131e6565b90600052602060002090601f01602090048101928261299e57600085556129e4565b82601f106129b75782800160ff198235161785556129e4565b828001600101855582156129e4579182015b828111156129e45782358255916020019190600101906129c9565b506129f0929150612adc565b5090565b8280548282559060005260206000209081019282156129e457916020028201828111156129e45782358255916020019190600101906129c9565b8280548282559060005260206000209081019282156129e4579160200282015b828111156129e4578251825591602001919060010190612a4e565b828054612a75906131e6565b90600052602060002090601f016020900481019282612a9757600085556129e4565b82601f10612ab057805160ff19168380011785556129e4565b828001600101855582156129e457918201828111156129e4578251825591602001919060010190612a4e565b5b808211156129f05760008155600101612add565b6001600160a01b0381168114610dcf57600080fd5b60008060008060808587031215612b1c57600080fd5b843593506020850135612b2e81612af1565b92506040850135612b3e81612af1565b91506060850135612b4e81612af1565b939692955090935050565b60a0808252865190820181905260009060209060c0840190828a01845b82811015612b9257815184529284019290840190600101612b76565b50505090830196909652506001600160a01b0393841660408201529183166060830152909116608090910152919050565b600060208284031215612bd557600080fd5b5035919050565b60008083601f840112612bee57600080fd5b50813567ffffffffffffffff811115612c0657600080fd5b602083019150836020828501011115612c1e57600080fd5b9250929050565b60008060008060608587031215612c3b57600080fd5b843567ffffffffffffffff811115612c5257600080fd5b612c5e87828801612bdc565b9095509350506020850135612c7281612af1565b91506040850135612b4e81612af1565b60005b83811015612c9d578181015183820152602001612c85565b838111156124fe5750506000910152565b60008151808452612cc6816020860160208601612c82565b601f01601f19169290920160200192915050565b60c081526000612ced60c0830189612cae565b8281036020840152612cff8189612cae565b905086604084015285606084015284608084015282810360a0840152612d258185612cae565b9998505050505050505050565b600060208284031215612d4457600080fd5b813561296981612af1565b60008060408385031215612d6257600080fd5b8235612d6d81612af1565b91506020830135612d7d81612af1565b809150509250929050565b634e487b7160e01b600052604160045260246000fd5b604051601f8201601f1916810167ffffffffffffffff81118282101715612dc757612dc7612d88565b604052919050565b600067ffffffffffffffff821115612de957612de9612d88565b50601f01601f191660200190565b6000612e0a612e0584612dcf565b612d9e565b9050828152838383011115612e1e57600080fd5b828260208301376000602084830101529392505050565b60008060408385031215612e4857600080fd5b8235612e5381612af1565b9150602083013567ffffffffffffffff811115612e6f57600080fd5b8301601f81018513612e8057600080fd5b612e8f85823560208401612df7565b9150509250929050565b600080600080600080600080600060c08a8c031215612eb757600080fd5b8935985060208a013567ffffffffffffffff80821115612ed657600080fd5b612ee28d838e01612bdc565b909a50985060408c0135915080821115612efb57600080fd5b612f078d838e01612bdc565b909850965060608c0135955060808c0135945060a08c0135915080821115612f2e57600080fd5b50612f3b8c828d01612bdc565b915080935050809150509295985092959850929598565b6020815260006129696020830184612cae565b600082601f830112612f7657600080fd5b61296983833560208501612df7565b60008060408385031215612f9857600080fd5b823567ffffffffffffffff80821115612fb057600080fd5b612fbc86838701612f65565b93506020850135915080821115612fd257600080fd5b50612e8f85828601612f65565b60008060408385031215612ff257600080fd5b50508035926020909101359150565b60008083601f84011261301357600080fd5b50813567ffffffffffffffff81111561302b57600080fd5b6020830191508360208260051b8501011115612c1e57600080fd5b8015158114610dcf57600080fd5b60008060008060008060008060c0898b03121561307057600080fd5b883567ffffffffffffffff8082111561308857600080fd5b6130948c838d01613001565b909a50985060208b01359150808211156130ad57600080fd5b506130ba8b828c01612bdc565b90975095505060408901356130ce81612af1565b935060608901356130de81612af1565b925060808901356130ee81612af1565b915060a08901356130fe81613046565b809150509295985092959890939650565b60008060006040848603121561312457600080fd5b83359250602084013567ffffffffffffffff81111561314257600080fd5b61314e86828701613001565b9497909650939450505050565b81835281816020850137506000828201602090810191909152601f909101601f19169091010190565b60208152600061140160208301848661315b565b6000602082840312156131aa57600080fd5b5051919050565b6060815260006131c560608301868861315b565b6001600160a01b039485166020840152929093166040909101529392505050565b600181811c908216806131fa57607f821691505b6020821081141561321b57634e487b7160e01b600052602260045260246000fd5b50919050565b634e487b7160e01b600052601160045260246000fd5b60008282101561324957613249613221565b500390565b60008351613260818460208801612c82565b835190830190613274818360208801612c82565b01949350505050565b60006020828403121561328f57600080fd5b815161296981613046565b600082198211156132ad576132ad613221565b500190565b60008160001904831182151516156132cc576132cc613221565b500290565b6000602082840312156132e357600080fd5b815167ffffffffffffffff8111156132fa57600080fd5b8201601f8101841361330b57600080fd5b8051613319612e0582612dcf565b81815285602083850101111561332e57600080fd5b610a4e826020830160208601612c82565b634e487b7160e01b600052603260045260246000fd5b6000808335601e1984360301811261336c57600080fd5b83018035915067ffffffffffffffff82111561338757600080fd5b602001915036819003821315612c1e57600080fd5b60006000198214156133b0576133b0613221565b5060010190565b600080604083850312156133ca57600080fd5b82516133d581612af1565b6020840151909250612d7d81612af1565b60008261340357634e487b7160e01b600052601260045260246000fd5b500490565b60006020828403121561341a57600080fd5b815161296981612af1565b60008251613437818460208701612c82565b919091019291505056fe416464726573733a206c6f772d6c6576656c2064656c65676174652063616c6c206661696c6564a2646970667358221220931ff394c7f9968189d95cec848b7adbaa0a2f73dd3104ed7ab1c7dc1b95b77764736f6c634300080c0033",
  "linkReferences": {},
  "deployedLinkReferences": {}
}