{
  "_format": "hh-sol-artifact-1",
  "contractName": "ETS",
  "sourceName": "contracts/core/ETS.sol",
  "abi": [
    {
      "anonymous": false,
      "inputs": [
        {
          "indexed": false,
          "internalType": "address",
          "name": "previousAccessControls",
          "type": "address"
        },
        {
          "indexed": false,
          "internalType": "address",
          "name": "newAccessControls",
          "type": "address"
        }
      ],
      "name": "AccessControlsUpdated",
      "type": "event"
    },
    {
      "anonymous": false,
      "inputs": [
        {
          "indexed": false,
          "internalType": "address",
          "name": "previousAdmin",
          "type": "address"
        },
        {
          "indexed": false,
          "internalType": "address",
          "name": "newAdmin",
          "type": "address"
        }
      ],
      "name": "AdminChanged",
      "type": "event"
    },
    {
      "anonymous": false,
      "inputs": [
        {
          "indexed": true,
          "internalType": "address",
          "name": "beacon",
          "type": "address"
        }
      ],
      "name": "BeaconUpgraded",
      "type": "event"
    },
    {
      "anonymous": false,
      "inputs": [
        {
          "indexed": false,
          "internalType": "address",
          "name": "previousETSEnsure",
          "type": "address"
        },
        {
          "indexed": false,
          "internalType": "address",
          "name": "newETSEnsure",
          "type": "address"
        }
      ],
      "name": "ETSEnsureUpdated",
      "type": "event"
    },
    {
      "anonymous": false,
      "inputs": [
        {
          "indexed": true,
          "internalType": "address",
          "name": "who",
          "type": "address"
        },
        {
          "indexed": false,
          "internalType": "uint256",
          "name": "amount",
          "type": "uint256"
        }
      ],
      "name": "FundsWithdrawn",
      "type": "event"
    },
    {
      "anonymous": false,
      "inputs": [
        {
          "indexed": false,
          "internalType": "uint256",
          "name": "platformPercentage",
          "type": "uint256"
        },
        {
          "indexed": false,
          "internalType": "uint256",
          "name": "publisherPercentage",
          "type": "uint256"
        },
        {
          "indexed": false,
          "internalType": "uint256",
          "name": "remainingPercentage",
          "type": "uint256"
        }
      ],
      "name": "PercentagesSet",
      "type": "event"
    },
    {
      "anonymous": false,
      "inputs": [
        {
          "indexed": false,
          "internalType": "uint256",
          "name": "nftChainId",
          "type": "uint256"
        },
        {
          "indexed": false,
          "internalType": "bool",
          "name": "setting",
          "type": "bool"
        }
      ],
      "name": "PermittedNftChainIdSet",
      "type": "event"
    },
    {
      "anonymous": false,
      "inputs": [
        {
          "indexed": false,
          "internalType": "uint256",
          "name": "targetId",
          "type": "uint256"
        }
      ],
      "name": "RequestEnsureTarget",
      "type": "event"
    },
    {
      "anonymous": false,
      "inputs": [
        {
          "indexed": false,
          "internalType": "uint256",
          "name": "previousFee",
          "type": "uint256"
        },
        {
          "indexed": false,
          "internalType": "uint256",
          "name": "taggingFee",
          "type": "uint256"
        }
      ],
      "name": "TaggingFeeSet",
      "type": "event"
    },
    {
      "anonymous": false,
      "inputs": [
        {
          "indexed": false,
          "internalType": "uint256",
          "name": "targetId",
          "type": "uint256"
        }
      ],
      "name": "TargetCreated",
      "type": "event"
    },
    {
      "anonymous": false,
      "inputs": [
        {
          "indexed": false,
          "internalType": "uint256",
          "name": "taggingId",
          "type": "uint256"
        }
      ],
      "name": "TargetTagged",
      "type": "event"
    },
    {
      "anonymous": false,
      "inputs": [
        {
          "indexed": false,
          "internalType": "string",
          "name": "typeName",
          "type": "string"
        },
        {
          "indexed": false,
          "internalType": "bool",
          "name": "setting",
          "type": "bool"
        }
      ],
      "name": "TargetTypeSet",
      "type": "event"
    },
    {
      "anonymous": false,
      "inputs": [
        {
          "indexed": false,
          "internalType": "uint256",
          "name": "targetId",
          "type": "uint256"
        }
      ],
      "name": "TargetUpdated",
      "type": "event"
    },
    {
      "anonymous": false,
      "inputs": [
        {
          "indexed": true,
          "internalType": "address",
          "name": "implementation",
          "type": "address"
        }
      ],
      "name": "Upgraded",
      "type": "event"
    },
    {
      "inputs": [],
      "name": "NAME",
      "outputs": [
        {
          "internalType": "string",
          "name": "",
          "type": "string"
        }
      ],
      "stateMutability": "view",
      "type": "function"
    },
    {
      "inputs": [],
      "name": "VERSION",
      "outputs": [
        {
          "internalType": "string",
          "name": "",
          "type": "string"
        }
      ],
      "stateMutability": "view",
      "type": "function"
    },
    {
      "inputs": [
        {
          "internalType": "string",
          "name": "_targetType",
          "type": "string"
        },
        {
          "internalType": "string",
          "name": "_targetURI",
          "type": "string"
        }
      ],
      "name": "_getTargetId",
      "outputs": [
        {
          "internalType": "uint256",
          "name": "targetId",
          "type": "uint256"
        }
      ],
      "stateMutability": "nonpayable",
      "type": "function"
    },
    {
      "inputs": [],
      "name": "accessControls",
      "outputs": [
        {
          "internalType": "contract ETSAccessControls",
          "name": "",
          "type": "address"
        }
      ],
      "stateMutability": "view",
      "type": "function"
    },
    {
      "inputs": [
        {
          "internalType": "address",
          "name": "",
          "type": "address"
        }
      ],
      "name": "accrued",
      "outputs": [
        {
          "internalType": "uint256",
          "name": "",
          "type": "uint256"
        }
      ],
      "stateMutability": "view",
      "type": "function"
    },
    {
      "inputs": [
        {
          "internalType": "address payable",
          "name": "_account",
          "type": "address"
        }
      ],
      "name": "drawDown",
      "outputs": [],
      "stateMutability": "nonpayable",
      "type": "function"
    },
    {
      "inputs": [],
      "name": "etsEnsure",
      "outputs": [
        {
          "internalType": "contract ETSEnsure",
          "name": "",
          "type": "address"
        }
      ],
      "stateMutability": "view",
      "type": "function"
    },
    {
      "inputs": [],
      "name": "etsTag",
      "outputs": [
        {
          "internalType": "contract ETSTag",
          "name": "",
          "type": "address"
        }
      ],
      "stateMutability": "view",
      "type": "function"
    },
    {
      "inputs": [
        {
          "internalType": "string",
          "name": "_tagString",
          "type": "string"
        },
        {
          "internalType": "address payable",
          "name": "_publisher",
          "type": "address"
        },
        {
          "internalType": "address",
          "name": "_tagger",
          "type": "address"
        }
      ],
      "name": "getOrCreateTagId",
      "outputs": [
        {
          "internalType": "uint256",
          "name": "etstagId",
          "type": "uint256"
        }
      ],
      "stateMutability": "payable",
      "type": "function"
    },
    {
      "inputs": [
        {
          "internalType": "uint256",
          "name": "_nftChainId",
          "type": "uint256"
        }
      ],
      "name": "getPermittedNftChainId",
      "outputs": [
        {
          "internalType": "bool",
          "name": "",
          "type": "bool"
        }
      ],
      "stateMutability": "view",
      "type": "function"
    },
    {
      "inputs": [
        {
          "internalType": "uint256",
          "name": "_taggingId",
          "type": "uint256"
        }
      ],
      "name": "getTaggingRecord",
      "outputs": [
        {
          "internalType": "uint256[]",
          "name": "_etsTagIds",
          "type": "uint256[]"
        },
        {
          "internalType": "uint256",
          "name": "_targetId",
          "type": "uint256"
        },
        {
          "internalType": "address",
          "name": "_tagger",
          "type": "address"
        },
        {
          "internalType": "address",
          "name": "_publisher",
          "type": "address"
        },
        {
          "internalType": "address",
          "name": "_sponsor",
          "type": "address"
        }
      ],
      "stateMutability": "view",
      "type": "function"
    },
    {
      "inputs": [
        {
          "internalType": "contract ETSAccessControls",
          "name": "_accessControls",
          "type": "address"
        },
        {
          "internalType": "contract ETSTag",
          "name": "_etsTag",
          "type": "address"
        }
      ],
      "name": "initialize",
      "outputs": [],
      "stateMutability": "nonpayable",
      "type": "function"
    },
    {
      "inputs": [
        {
          "internalType": "uint256",
          "name": "_targetId",
          "type": "uint256"
        }
      ],
      "name": "isTargetEnsured",
      "outputs": [
        {
          "internalType": "bool",
          "name": "",
          "type": "bool"
        }
      ],
      "stateMutability": "view",
      "type": "function"
    },
    {
      "inputs": [],
      "name": "modulo",
      "outputs": [
        {
          "internalType": "uint256",
          "name": "",
          "type": "uint256"
        }
      ],
      "stateMutability": "view",
      "type": "function"
    },
    {
      "inputs": [
        {
          "internalType": "address",
          "name": "",
          "type": "address"
        }
      ],
      "name": "paid",
      "outputs": [
        {
          "internalType": "uint256",
          "name": "",
          "type": "uint256"
        }
      ],
      "stateMutability": "view",
      "type": "function"
    },
    {
      "inputs": [
        {
          "internalType": "uint256",
          "name": "",
          "type": "uint256"
        }
      ],
      "name": "permittedNftChainIds",
      "outputs": [
        {
          "internalType": "bool",
          "name": "",
          "type": "bool"
        }
      ],
      "stateMutability": "view",
      "type": "function"
    },
    {
      "inputs": [],
      "name": "platformPercentage",
      "outputs": [
        {
          "internalType": "uint256",
          "name": "",
          "type": "uint256"
        }
      ],
      "stateMutability": "view",
      "type": "function"
    },
    {
      "inputs": [],
      "name": "publisherPercentage",
      "outputs": [
        {
          "internalType": "uint256",
          "name": "",
          "type": "uint256"
        }
      ],
      "stateMutability": "view",
      "type": "function"
    },
    {
      "inputs": [],
      "name": "remainingPercentage",
      "outputs": [
        {
          "internalType": "uint256",
          "name": "",
          "type": "uint256"
        }
      ],
      "stateMutability": "view",
      "type": "function"
    },
    {
      "inputs": [
        {
          "internalType": "uint256",
          "name": "_nftChainId",
          "type": "uint256"
        },
        {
          "internalType": "bool",
          "name": "_setting",
          "type": "bool"
        }
      ],
      "name": "setPermittedNftChainId",
      "outputs": [],
      "stateMutability": "nonpayable",
      "type": "function"
    },
    {
      "inputs": [
        {
          "internalType": "uint256",
          "name": "_fee",
          "type": "uint256"
        }
      ],
      "name": "setTaggingFee",
      "outputs": [],
      "stateMutability": "nonpayable",
      "type": "function"
    },
    {
      "inputs": [
        {
          "internalType": "string[]",
          "name": "_tags",
          "type": "string[]"
        },
        {
          "internalType": "string",
          "name": "_targetURI",
          "type": "string"
        },
        {
          "internalType": "address payable",
          "name": "_publisher",
          "type": "address"
        },
        {
          "internalType": "address",
          "name": "_tagger",
          "type": "address"
        },
        {
          "internalType": "address",
          "name": "_sponsor",
          "type": "address"
        },
        {
          "internalType": "bool",
          "name": "_ensure",
          "type": "bool"
        }
      ],
      "name": "tagTarget",
      "outputs": [],
      "stateMutability": "payable",
      "type": "function"
    },
    {
      "inputs": [],
      "name": "taggingCounter",
      "outputs": [
        {
          "internalType": "uint256",
          "name": "",
          "type": "uint256"
        }
      ],
      "stateMutability": "view",
      "type": "function"
    },
    {
      "inputs": [],
      "name": "taggingFee",
      "outputs": [
        {
          "internalType": "uint256",
          "name": "",
          "type": "uint256"
        }
      ],
      "stateMutability": "view",
      "type": "function"
    },
    {
      "inputs": [
        {
          "internalType": "uint256",
          "name": "",
          "type": "uint256"
        }
      ],
      "name": "taggingRecords",
      "outputs": [
        {
          "internalType": "uint256",
          "name": "targetId",
          "type": "uint256"
        },
        {
          "internalType": "address",
          "name": "tagger",
          "type": "address"
        },
        {
          "internalType": "address",
          "name": "publisher",
          "type": "address"
        },
        {
          "internalType": "address",
          "name": "sponsor",
          "type": "address"
        }
      ],
      "stateMutability": "view",
      "type": "function"
    },
    {
      "inputs": [
        {
          "internalType": "uint256",
          "name": "targetId",
          "type": "uint256"
        }
      ],
      "name": "targetExists",
      "outputs": [
        {
          "internalType": "bool",
          "name": "",
          "type": "bool"
        }
      ],
      "stateMutability": "view",
      "type": "function"
    },
    {
      "inputs": [
        {
          "internalType": "uint256",
          "name": "",
          "type": "uint256"
        }
      ],
      "name": "targets",
      "outputs": [
        {
          "internalType": "string",
          "name": "targetType",
          "type": "string"
        },
        {
          "internalType": "string",
          "name": "targetURI",
          "type": "string"
        },
        {
          "internalType": "uint256",
          "name": "created",
          "type": "uint256"
        },
        {
          "internalType": "uint256",
          "name": "lastEnsured",
          "type": "uint256"
        },
        {
          "internalType": "uint256",
          "name": "status",
          "type": "uint256"
        },
        {
          "internalType": "string",
          "name": "ipfsHash",
          "type": "string"
        }
      ],
      "stateMutability": "view",
      "type": "function"
    },
    {
      "inputs": [
        {
          "internalType": "address",
          "name": "_account",
          "type": "address"
        }
      ],
      "name": "totalDue",
      "outputs": [
        {
          "internalType": "uint256",
          "name": "_due",
          "type": "uint256"
        }
      ],
      "stateMutability": "view",
      "type": "function"
    },
    {
      "inputs": [
        {
          "internalType": "contract ETSAccessControls",
          "name": "_accessControls",
          "type": "address"
        }
      ],
      "name": "updateAccessControls",
      "outputs": [],
      "stateMutability": "nonpayable",
      "type": "function"
    },
    {
      "inputs": [
        {
          "internalType": "contract ETSEnsure",
          "name": "_etsEnsure",
          "type": "address"
        }
      ],
      "name": "updateETSEnsure",
      "outputs": [],
      "stateMutability": "nonpayable",
      "type": "function"
    },
    {
      "inputs": [
        {
          "internalType": "uint256",
          "name": "_platformPercentage",
          "type": "uint256"
        },
        {
          "internalType": "uint256",
          "name": "_publisherPercentage",
          "type": "uint256"
        }
      ],
      "name": "updatePercentages",
      "outputs": [],
      "stateMutability": "nonpayable",
      "type": "function"
    },
    {
      "inputs": [
        {
          "internalType": "uint256",
          "name": "_targetId",
          "type": "uint256"
        },
        {
          "internalType": "string",
          "name": "_targetType",
          "type": "string"
        },
        {
          "internalType": "string",
          "name": "_targetURI",
          "type": "string"
        },
        {
          "internalType": "uint256",
          "name": "_lastEnsured",
          "type": "uint256"
        },
        {
          "internalType": "uint256",
          "name": "_status",
          "type": "uint256"
        },
        {
          "internalType": "string",
          "name": "_ipfsHash",
          "type": "string"
        }
      ],
      "name": "updateTarget",
      "outputs": [
        {
          "internalType": "bool",
          "name": "success",
          "type": "bool"
        }
      ],
      "stateMutability": "nonpayable",
      "type": "function"
    },
    {
      "inputs": [
        {
          "internalType": "address",
          "name": "newImplementation",
          "type": "address"
        }
      ],
      "name": "upgradeTo",
      "outputs": [],
      "stateMutability": "nonpayable",
      "type": "function"
    },
    {
      "inputs": [
        {
          "internalType": "address",
          "name": "newImplementation",
          "type": "address"
        },
        {
          "internalType": "bytes",
          "name": "data",
          "type": "bytes"
        }
      ],
      "name": "upgradeToAndCall",
      "outputs": [],
      "stateMutability": "payable",
      "type": "function"
    },
    {
      "inputs": [],
      "name": "version",
      "outputs": [
        {
          "internalType": "string",
          "name": "",
          "type": "string"
        }
      ],
      "stateMutability": "pure",
      "type": "function"
    }
  ],
  "bytecode": "0x60a06040523060805234801561001457600080fd5b50608051613289610045600039600081816109c001528181610a4a01528181610c5a0152610cdf01526132896000f3fe6080604052600436106102345760003560e01c80637e2e4c5211610138578063c2062005116100b0578063e88b772c1161007f578063fe52656f11610064578063fe52656f1461073b578063fed6c2e914610751578063ffa1ad741461076457600080fd5b8063e88b772c14610705578063f8bc3cc61461071b57600080fd5b8063c206200514610680578063c20d2295146106a0578063ce0e0eed146106c0578063d64f55c9146106f257600080fd5b8063a97dda4011610107578063b148440f116100ec578063b148440f14610613578063b205f80814610640578063b7d0e7dd1461066057600080fd5b8063a97dda40146105d3578063af75e81d146105f357600080fd5b80637e2e4c5214610527578063962ed2321461053d578063a340cf791461055d578063a3f4df7e1461058a57600080fd5b80633659cfe6116101cb578063507f3ba11161019a5780636ef3da941161017f5780636ef3da941461044c57806374716c811461046c578063748365ef146104ef57600080fd5b8063507f3ba1146103f557806354fd4d501461041557600080fd5b80633659cfe61461036f578063485cc955146103915780634f1ef286146103b1578063501a323a146103c457600080fd5b80631f741897116102075780631f741897146102fe578063200e06af146103145780632974526214610344578063337ccf9d1461035957600080fd5b80630477fe28146102395780630a39ce021461026e5780630ad2f0c3146102a05780631797df59146102ce575b600080fd5b34801561024557600080fd5b50610259610254366004612950565b610795565b60405190151581526020015b60405180910390f35b34801561027a57600080fd5b5061028e610289366004612950565b6107bb565b604051610265969594939291906129c1565b3480156102ac57600080fd5b506102c06102bb366004612a3e565b610987565b604051908152602001610265565b3480156102da57600080fd5b506102596102e9366004612950565b600090815260d3602052604090205460ff1690565b34801561030a57600080fd5b506102c060cc5481565b34801561032057600080fd5b5061025961032f366004612950565b60d36020526000908152604090205460ff1681565b34801561035057600080fd5b506102c0606481565b34801561036557600080fd5b506102c060ce5481565b34801561037b57600080fd5b5061038f61038a366004612a3e565b6109b5565b005b34801561039d57600080fd5b5061038f6103ac366004612a5b565b610b36565b61038f6103bf366004612b41565b610c4f565b3480156103d057600080fd5b506103e46103df366004612950565b610dbc565b604051610265959493929190612ba5565b34801561040157600080fd5b50610259610410366004612c58565b610e62565b34801561042157600080fd5b50604080518082019091526005815264302e302e3160d81b60208201525b6040516102659190612d11565b34801561045857600080fd5b5061038f610467366004612a3e565b610f07565b34801561047857600080fd5b506104c0610487366004612950565b60d460205260009081526040902060018101546002820154600383015460049093015491926001600160a01b0391821692908216911684565b604080519485526001600160a01b03938416602086015291831691840191909152166060820152608001610265565b3480156104fb57600080fd5b5060c95461050f906001600160a01b031681565b6040516001600160a01b039091168152602001610265565b34801561053357600080fd5b506102c060cd5481565b34801561054957600080fd5b5061038f610558366004612950565b6110a2565b34801561056957600080fd5b506102c0610578366004612a3e565b60d26020526000908152604090205481565b34801561059657600080fd5b5061043f6040518060400160405280600881526020017f45545320436f726500000000000000000000000000000000000000000000000081525081565b3480156105df57600080fd5b5061038f6105ee366004612d3d565b61119d565b3480156105ff57600080fd5b506102c061060e366004612d82565b6112ac565b34801561061f57600080fd5b506102c061062e366004612a3e565b60d16020526000908152604090205481565b34801561064c57600080fd5b5061038f61065b366004612a3e565b6112ec565b34801561066c57600080fd5b5060cb5461050f906001600160a01b031681565b34801561068c57600080fd5b5061038f61069b366004612a3e565b61147f565b3480156106ac57600080fd5b5061038f6106bb366004612ddc565b6115d5565b3480156106cc57600080fd5b506102596106db366004612950565b600090815260d56020526040902060030154151590565b61038f610700366004612dfe565b61177c565b34801561071157600080fd5b506102c060cf5481565b34801561072757600080fd5b5060ca5461050f906001600160a01b031681565b34801561074757600080fd5b506102c060d05481565b6102c061075f366004612ede565b611c71565b34801561077057600080fd5b5061043f60405180604001604052806005815260200164302e302e3160d81b81525081565b600081815260d560205260408120600201546107b25760006107b5565b60015b92915050565b60d5602052600090815260409020805481906107d690612f46565b80601f016020809104026020016040519081016040528092919081815260200182805461080290612f46565b801561084f5780601f106108245761010080835404028352916020019161084f565b820191906000526020600020905b81548152906001019060200180831161083257829003601f168201915b50505050509080600101805461086490612f46565b80601f016020809104026020016040519081016040528092919081815260200182805461089090612f46565b80156108dd5780601f106108b2576101008083540402835291602001916108dd565b820191906000526020600020905b8154815290600101906020018083116108c057829003601f168201915b50505050509080600201549080600301549080600401549080600501805461090490612f46565b80601f016020809104026020016040519081016040528092919081815260200182805461093090612f46565b801561097d5780601f106109525761010080835404028352916020019161097d565b820191906000526020600020905b81548152906001019060200180831161096057829003601f168201915b5050505050905086565b6001600160a01b038116600090815260d2602090815260408083205460d19092528220546107b59190612f97565b306001600160a01b037f0000000000000000000000000000000000000000000000000000000000000000161415610a485760405162461bcd60e51b815260206004820152602c60248201527f46756e6374696f6e206d7573742062652063616c6c6564207468726f7567682060448201526b19195b1959d85d1958d85b1b60a21b60648201526084015b60405180910390fd5b7f00000000000000000000000000000000000000000000000000000000000000006001600160a01b0316610aa37f360894a13ba1a3210667c828492db98dca3e2076cc3735a920a3ca505d382bbc546001600160a01b031690565b6001600160a01b031614610b0e5760405162461bcd60e51b815260206004820152602c60248201527f46756e6374696f6e206d7573742062652063616c6c6564207468726f7567682060448201526b6163746976652070726f787960a01b6064820152608401610a3f565b610b1781611da7565b60408051600080825260208201909252610b3391839190611e64565b50565b600054610100900460ff16610b515760005460ff1615610b55565b303b155b610bc75760405162461bcd60e51b815260206004820152602e60248201527f496e697469616c697a61626c653a20636f6e747261637420697320616c72656160448201527f647920696e697469616c697a65640000000000000000000000000000000000006064820152608401610a3f565b600054610100900460ff16158015610be9576000805461ffff19166101011790555b60c980546001600160a01b038086166001600160a01b03199283161790925560ca805492851692909116919091179055600060cf5566038d7ea4c6800060d055601460cc55601e60cd55603260ce558015610c4a576000805461ff00191690555b505050565b306001600160a01b037f0000000000000000000000000000000000000000000000000000000000000000161415610cdd5760405162461bcd60e51b815260206004820152602c60248201527f46756e6374696f6e206d7573742062652063616c6c6564207468726f7567682060448201526b19195b1959d85d1958d85b1b60a21b6064820152608401610a3f565b7f00000000000000000000000000000000000000000000000000000000000000006001600160a01b0316610d387f360894a13ba1a3210667c828492db98dca3e2076cc3735a920a3ca505d382bbc546001600160a01b031690565b6001600160a01b031614610da35760405162461bcd60e51b815260206004820152602c60248201527f46756e6374696f6e206d7573742062652063616c6c6564207468726f7567682060448201526b6163746976652070726f787960a01b6064820152608401610a3f565b610dac82611da7565b610db882826001611e64565b5050565b600081815260d46020908152604080832060018101546002820154600383015460048401548454865181890281018901909752808752606098978897889788979096879691956001600160a01b039182169592821694911692918791830182828015610e4757602002820191906000526020600020905b815481526020019060010190808311610e33575b50505050509450955095509550955095505091939590929450565b600089815260d560205260408120610e7b908a8a612809565b5060008a815260d560205260409020610e98906001018888612809565b5060008a815260d5602052604090206003810186905560048101859055610ec3906005018484612809565b506040518a81527f9d29e5045b411bb06d81d8ff11c828d9f1d7eb076eec9ca45eda49fc99f762b29060200160405180910390a15060019998505050505050505050565b60c9546001600160a01b03166324d7806c336040516001600160e01b031960e084901b1681526001600160a01b039091166004820152602401602060405180830381865afa158015610f5d573d6000803e3d6000fd5b505050506040513d601f19601f82011682018060405250810190610f819190612fae565b610fc45760405162461bcd60e51b815260206004820152601460248201527321b0b63632b91036bab9ba1031329030b236b4b760611b6044820152606401610a3f565b6001600160a01b0381166110405760405162461bcd60e51b815260206004820152602860248201527f4554532e757064617465416363657373436f6e74726f6c733a2043616e6e6f7460448201527f206265207a65726f0000000000000000000000000000000000000000000000006064820152608401610a3f565b60c980546001600160a01b038381166001600160a01b031983168117909355604080519190921680825260208201939093527f31073599bfae2533a348dc816b0ce777b707aa9b67015ca2d86585e842b5c6e991015b60405180910390a15050565b60c9546001600160a01b03166324d7806c336040516001600160e01b031960e084901b1681526001600160a01b039091166004820152602401602060405180830381865afa1580156110f8573d6000803e3d6000fd5b505050506040513d601f19601f8201168201806040525081019061111c9190612fae565b61115f5760405162461bcd60e51b815260206004820152601460248201527321b0b63632b91036bab9ba1031329030b236b4b760611b6044820152606401610a3f565b60d080549082905560408051828152602081018490527f861fa8a0dab775faf9bcbb5388a02f7ac01181c036f5c57982464a2d75c3608e9101611096565b60c9546001600160a01b03166324d7806c336040516001600160e01b031960e084901b1681526001600160a01b039091166004820152602401602060405180830381865afa1580156111f3573d6000803e3d6000fd5b505050506040513d601f19601f820116820180604052508101906112179190612fae565b61125a5760405162461bcd60e51b815260206004820152601460248201527321b0b63632b91036bab9ba1031329030b236b4b760611b6044820152606401610a3f565b600082815260d36020908152604091829020805460ff19168415159081179091558251858152918201527f9a1b1e3722de574f6867ada1474b42b28458b0d93fc376664c96cb084b9211819101611096565b6000806112b98484612028565b600081815260d56020526040902060020154909150156112da5790506107b5565b6112e4848461205e565b949350505050565b60c9546001600160a01b03166324d7806c336040516001600160e01b031960e084901b1681526001600160a01b039091166004820152602401602060405180830381865afa158015611342573d6000803e3d6000fd5b505050506040513d601f19601f820116820180604052508101906113669190612fae565b6113a95760405162461bcd60e51b815260206004820152601460248201527321b0b63632b91036bab9ba1031329030b236b4b760611b6044820152606401610a3f565b6001600160a01b0381166114255760405162461bcd60e51b815260206004820152602360248201527f4554532e757064617465455453456e737572653a2043616e6e6f74206265207a60448201527f65726f00000000000000000000000000000000000000000000000000000000006064820152608401610a3f565b60cb80546001600160a01b038381166001600160a01b031983168117909355604080519190921680825260208201939093527fee20190c374934660675d28472968e002fc4af227f2956f59085225ad89239fa9101611096565b600260335414156114d25760405162461bcd60e51b815260206004820152601f60248201527f5265656e7472616e637947756172643a207265656e7472616e742063616c6c006044820152606401610a3f565b60026033556001600160a01b038116600090815260d2602090815260408083205460d19092528220546115059190612f97565b90506000811180156115175750478111155b156115cc576001600160a01b038216600090815260d26020526040902054611540908290612fcb565b6001600160a01b038316600081815260d26020526040808220939093559151909183156108fc02918491818181858888f19350505050158015611587573d6000803e3d6000fd5b50816001600160a01b03167feaff4b37086828766ad3268786972c0cd24259d4c87a80f9d3963a3c3d999b0d826040516115c391815260200190565b60405180910390a25b50506001603355565b60c9546001600160a01b03166324d7806c336040516001600160e01b031960e084901b1681526001600160a01b039091166004820152602401602060405180830381865afa15801561162b573d6000803e3d6000fd5b505050506040513d601f19601f8201168201806040525081019061164f9190612fae565b6116925760405162461bcd60e51b815260206004820152601460248201527321b0b63632b91036bab9ba1031329030b236b4b760611b6044820152606401610a3f565b606461169e8284612fcb565b11156117125760405162461bcd60e51b815260206004820152603760248201527f4554532e75706461746550657263656e74616765733a2070657263656e74616760448201527f6573206d757374206e6f74206265206f766572203130300000000000000000006064820152608401610a3f565b60cc82905560cd81905580611728836064612f97565b6117329190612f97565b60ce81905560cc5460cd546040805192835260208301919091528101919091527f78c1b0567e296aa5eef70ad2deee29f35e0dd128cac603be855ece3e823f430890606001611096565b600260335414156117cf5760405162461bcd60e51b815260206004820152601f60248201527f5265656e7472616e637947756172643a207265656e7472616e742063616c6c006044820152606401610a3f565b600260335560c9546040517f2b04fd440000000000000000000000000000000000000000000000000000000081523360048201526001600160a01b0390911690632b04fd4490602401602060405180830381865afa158015611835573d6000803e3d6000fd5b505050506040513d601f19601f820116820180604052508101906118599190612fae565b6118a55760405162461bcd60e51b815260206004820152601060248201527f4f6e6c79207461726765742074797065000000000000000000000000000000006044820152606401610a3f565b60c9546040517f41859ac80000000000000000000000000000000000000000000000000000000081526001600160a01b038681166004830152909116906341859ac890602401602060405180830381865afa158015611908573d6000803e3d6000fd5b505050506040513d601f19601f8201168201806040525081019061192c9190612fae565b61199e5760405162461bcd60e51b815260206004820152602660248201527f5461673a20546865207075626c6973686572206d75737420626520776869746560448201527f6c697374656400000000000000000000000000000000000000000000000000006064820152608401610a3f565b86806119ec5760405162461bcd60e51b815260206004820152601760248201527f4e6f2074616720737472696e677320737570706c6965640000000000000000006044820152606401610a3f565b8060d0546119fa9190612fe3565b3414611a485760405162461bcd60e51b815260206004820152601a60248201527f5461673a20596f75206d7573742073656e6420746865206665650000000000006044820152606401610a3f565b60c9546040517fa88ae5b6000000000000000000000000000000000000000000000000000000008152336004820152600091611b14916001600160a01b039091169063a88ae5b690602401600060405180830381865afa158015611ab0573d6000803e3d6000fd5b505050506040513d6000823e601f3d908101601f19168201604052611ad89190810190613002565b89898080601f0160208091040260200160405190810160405280939291908181526020018383808284376000920191909152506112ac92505050565b905060008267ffffffffffffffff811115611b3157611b31612a94565b604051908082528060200260200182016040528015611b5a578160200160208202803683370190505b50905060005b83811015611bd3576000611b988d8d84818110611b7f57611b7f613070565b9050602002810190611b919190613086565b8b8b611c71565b9050611ba4818a612158565b80838381518110611bb757611bb7613070565b602090810291909101015250611bcc816130cd565b9050611b60565b508315611c525760cb546040517f177f2fb5000000000000000000000000000000000000000000000000000000008152600481018490526001600160a01b039091169063177f2fb590602401600060405180830381600087803b158015611c3957600080fd5b505af1158015611c4d573d6000803e3d6000fd5b505050505b611c5f8183898989612497565b50506001603355505050505050505050565b60ca546040517f04befefd00000000000000000000000000000000000000000000000000000000815260009182916001600160a01b03909116906304befefd90611cc19089908990600401613111565b602060405180830381865afa158015611cde573d6000803e3d6000fd5b505050506040513d601f19601f82011682018060405250810190611d029190613125565b905080611d9e5760ca546040517f7e6d945e0000000000000000000000000000000000000000000000000000000081526001600160a01b0390911690637e6d945e90611d5890899089908990899060040161313e565b6020604051808303816000875af1158015611d77573d6000803e3d6000fd5b505050506040513d601f19601f82011682018060405250810190611d9b9190613125565b90505b95945050505050565b60c9546001600160a01b03166324d7806c336040516001600160e01b031960e084901b1681526001600160a01b039091166004820152602401602060405180830381865afa158015611dfd573d6000803e3d6000fd5b505050506040513d601f19601f82011682018060405250810190611e219190612fae565b610b335760405162461bcd60e51b815260206004820152601460248201527321b0b63632b91036bab9ba1031329030b236b4b760611b6044820152606401610a3f565b6000611e977f360894a13ba1a3210667c828492db98dca3e2076cc3735a920a3ca505d382bbc546001600160a01b031690565b9050611ea2846125db565b600083511180611eaf5750815b15611ec057611ebe8484612690565b505b7f4910fdfa16fed3260ed0e7147f7cc6da11a60208b5b9406d12a635614ffd9143805460ff1661202157805460ff191660011781556040516001600160a01b0383166024820152611f6d90869060440160408051601f198184030181529190526020810180517bffffffffffffffffffffffffffffffffffffffffffffffffffffffff167f3659cfe600000000000000000000000000000000000000000000000000000000179052612690565b50805460ff191681557f360894a13ba1a3210667c828492db98dca3e2076cc3735a920a3ca505d382bbc546001600160a01b038381169116146120185760405162461bcd60e51b815260206004820152602f60248201527f45524331393637557067726164653a207570677261646520627265616b73206660448201527f75727468657220757067726164657300000000000000000000000000000000006064820152608401610a3f565b61202185612789565b5050505050565b600080838360405160200161203e929190613173565b60408051808303601f190181529190528051602090910120949350505050565b60008061206b8484612028565b6040805160c08101825286815260208082018790524282840152600060608301819052608083018190528351808301855281815260a084015284815260d582529290922081518051949550919390926120c892849291019061288d565b5060208281015180516120e1926001850192019061288d565b5060408201516002820155606082015160038201556080820151600482015560a0820151805161211b91600584019160209091019061288d565b50506040518281527f503a6e6145f2d2a2a9b0845c2193aef653400c52f93b1c897bd55d36a396be7c915060200160405180910390a19392505050565b60ca546040517f878327ab0000000000000000000000000000000000000000000000000000000081526004810184905260009182916001600160a01b039091169063878327ab906024016040805180830381865afa1580156121be573d6000803e3d6000fd5b505050506040513d601f19601f820116820180604052508101906121e291906131a2565b91509150816001600160a01b0316816001600160a01b0316141561238e57606460cc54346122109190612fe3565b61221a91906131d1565b6001600160a01b038316600090815260d1602052604090205461223d9190612fcb565b6001600160a01b038316600090815260d1602052604090205560cd546064906122669034612fe3565b61227091906131d1565b6001600160a01b038416600090815260d160205260409020546122939190612fcb565b6001600160a01b03848116600090815260d160205260408082209390935560ca5492517fa30b4db90000000000000000000000000000000000000000000000000000000081526004810188905290929091169063a30b4db990602401602060405180830381865afa15801561230c573d6000803e3d6000fd5b505050506040513d601f19601f8201168201806040525081019061233091906131f3565b9050606460ce54346123429190612fe3565b61234c91906131d1565b6001600160a01b038216600090815260d1602052604090205461236f9190612fcb565b6001600160a01b03909116600090815260d16020526040902055612491565b606460cc543461239e9190612fe3565b6123a891906131d1565b6001600160a01b038316600090815260d160205260409020546123cb9190612fcb565b6001600160a01b038316600090815260d1602052604090205560cd546064906123f49034612fe3565b6123fe91906131d1565b6001600160a01b038416600090815260d160205260409020546124219190612fcb565b6001600160a01b038416600090815260d1602052604090205560ce5460649061244a9034612fe3565b61245491906131d1565b6001600160a01b038216600090815260d160205260409020546124779190612fcb565b6001600160a01b038216600090815260d160205260409020555b50505050565b60408051602081018690526bffffffffffffffffffffffff19606085811b82169383019390935285831b811660548301529183901b9091166068820152600090607c0160408051601f19818403018152828252805160209182012060a0840183528984528382018990526001600160a01b0380881685850152888116606086015286166080850152600081815260d48352929092208351805193955090926125429284920190612901565b5060208281015160018301556040808401516002840180546001600160a01b03199081166001600160a01b03938416179091556060860151600386018054831691841691909117905560809095015160049094018054909516931692909217909255518281527f81b185c481377e520177bddb63bab2a8d220831d7c07b748c2baf29c6e607070910160405180910390a1505050505050565b803b61264f5760405162461bcd60e51b815260206004820152602d60248201527f455243313936373a206e657720696d706c656d656e746174696f6e206973206e60448201527f6f74206120636f6e7472616374000000000000000000000000000000000000006064820152608401610a3f565b7f360894a13ba1a3210667c828492db98dca3e2076cc3735a920a3ca505d382bbc80546001600160a01b0319166001600160a01b0392909216919091179055565b6060823b6127065760405162461bcd60e51b815260206004820152602660248201527f416464726573733a2064656c65676174652063616c6c20746f206e6f6e2d636f60448201527f6e747261637400000000000000000000000000000000000000000000000000006064820152608401610a3f565b600080846001600160a01b0316846040516127219190613210565b600060405180830381855af49150503d806000811461275c576040519150601f19603f3d011682016040523d82523d6000602084013e612761565b606091505b5091509150611d9e828260405180606001604052806027815260200161322d602791396127c9565b612792816125db565b6040516001600160a01b038216907fbc7cd75a20ee27fd9adebab32041f755214dbc6bffa90cc0225b39da2e5c2d3b90600090a250565b606083156127d8575081612802565b8251156127e85782518084602001fd5b8160405162461bcd60e51b8152600401610a3f9190612d11565b9392505050565b82805461281590612f46565b90600052602060002090601f016020900481019282612837576000855561287d565b82601f106128505782800160ff1982351617855561287d565b8280016001018555821561287d579182015b8281111561287d578235825591602001919060010190612862565b5061288992915061293b565b5090565b82805461289990612f46565b90600052602060002090601f0160209004810192826128bb576000855561287d565b82601f106128d457805160ff191683800117855561287d565b8280016001018555821561287d579182015b8281111561287d5782518255916020019190600101906128e6565b82805482825590600052602060002090810192821561287d579160200282018281111561287d5782518255916020019190600101906128e6565b5b80821115612889576000815560010161293c565b60006020828403121561296257600080fd5b5035919050565b60005b8381101561298457818101518382015260200161296c565b838111156124915750506000910152565b600081518084526129ad816020860160208601612969565b601f01601f19169290920160200192915050565b60c0815260006129d460c0830189612995565b82810360208401526129e68189612995565b905086604084015285606084015284608084015282810360a0840152612a0c8185612995565b9998505050505050505050565b6001600160a01b0381168114610b3357600080fd5b8035612a3981612a19565b919050565b600060208284031215612a5057600080fd5b813561280281612a19565b60008060408385031215612a6e57600080fd5b8235612a7981612a19565b91506020830135612a8981612a19565b809150509250929050565b634e487b7160e01b600052604160045260246000fd5b604051601f8201601f1916810167ffffffffffffffff81118282101715612ad357612ad3612a94565b604052919050565b600067ffffffffffffffff821115612af557612af5612a94565b50601f01601f191660200190565b6000612b16612b1184612adb565b612aaa565b9050828152838383011115612b2a57600080fd5b828260208301376000602084830101529392505050565b60008060408385031215612b5457600080fd5b8235612b5f81612a19565b9150602083013567ffffffffffffffff811115612b7b57600080fd5b8301601f81018513612b8c57600080fd5b612b9b85823560208401612b03565b9150509250929050565b60a0808252865190820181905260009060209060c0840190828a01845b82811015612bde57815184529284019290840190600101612bc2565b50505090830196909652506001600160a01b0393841660408201529183166060830152909116608090910152919050565b60008083601f840112612c2157600080fd5b50813567ffffffffffffffff811115612c3957600080fd5b602083019150836020828501011115612c5157600080fd5b9250929050565b600080600080600080600080600060c08a8c031215612c7657600080fd5b8935985060208a013567ffffffffffffffff80821115612c9557600080fd5b612ca18d838e01612c0f565b909a50985060408c0135915080821115612cba57600080fd5b612cc68d838e01612c0f565b909850965060608c0135955060808c0135945060a08c0135915080821115612ced57600080fd5b50612cfa8c828d01612c0f565b915080935050809150509295985092959850929598565b6020815260006128026020830184612995565b8015158114610b3357600080fd5b8035612a3981612d24565b60008060408385031215612d5057600080fd5b823591506020830135612a8981612d24565b600082601f830112612d7357600080fd5b61280283833560208501612b03565b60008060408385031215612d9557600080fd5b823567ffffffffffffffff80821115612dad57600080fd5b612db986838701612d62565b93506020850135915080821115612dcf57600080fd5b50612b9b85828601612d62565b60008060408385031215612def57600080fd5b50508035926020909101359150565b60008060008060008060008060c0898b031215612e1a57600080fd5b883567ffffffffffffffff80821115612e3257600080fd5b818b0191508b601f830112612e4657600080fd5b813581811115612e5557600080fd5b8c60208260051b8501011115612e6a57600080fd5b60209283019a509850908a01359080821115612e8557600080fd5b50612e928b828c01612c0f565b9097509550612ea5905060408a01612a2e565b9350612eb360608a01612a2e565b9250612ec160808a01612a2e565b9150612ecf60a08a01612d32565b90509295985092959890939650565b60008060008060608587031215612ef457600080fd5b843567ffffffffffffffff811115612f0b57600080fd5b612f1787828801612c0f565b9095509350506020850135612f2b81612a19565b91506040850135612f3b81612a19565b939692955090935050565b600181811c90821680612f5a57607f821691505b60208210811415612f7b57634e487b7160e01b600052602260045260246000fd5b50919050565b634e487b7160e01b600052601160045260246000fd5b600082821015612fa957612fa9612f81565b500390565b600060208284031215612fc057600080fd5b815161280281612d24565b60008219821115612fde57612fde612f81565b500190565b6000816000190483118215151615612ffd57612ffd612f81565b500290565b60006020828403121561301457600080fd5b815167ffffffffffffffff81111561302b57600080fd5b8201601f8101841361303c57600080fd5b805161304a612b1182612adb565b81815285602083850101111561305f57600080fd5b611d9e826020830160208601612969565b634e487b7160e01b600052603260045260246000fd5b6000808335601e1984360301811261309d57600080fd5b83018035915067ffffffffffffffff8211156130b857600080fd5b602001915036819003821315612c5157600080fd5b60006000198214156130e1576130e1612f81565b5060010190565b81835281816020850137506000828201602090810191909152601f909101601f19169091010190565b6020815260006112e46020830184866130e8565b60006020828403121561313757600080fd5b5051919050565b6060815260006131526060830186886130e8565b6001600160a01b039485166020840152929093166040909101529392505050565b60008351613185818460208801612969565b835190830190613199818360208801612969565b01949350505050565b600080604083850312156131b557600080fd5b82516131c081612a19565b6020840151909250612a8981612a19565b6000826131ee57634e487b7160e01b600052601260045260246000fd5b500490565b60006020828403121561320557600080fd5b815161280281612a19565b60008251613222818460208701612969565b919091019291505056fe416464726573733a206c6f772d6c6576656c2064656c65676174652063616c6c206661696c6564a2646970667358221220b7745398d5786a9f6ebe698eae74e2040d0cbe89766b6f1d262d079fcf8f3e5a64736f6c634300080c0033",
  "linkReferences": {},
  "deployedLinkReferences": {}
}