{
  "_format": "hh-sol-artifact-1",
  "contractName": "ETS",
  "sourceName": "contracts/core/ETS.sol",
  "abi": [
    {
      "anonymous": false,
      "inputs": [
        {
          "indexed": false,
          "internalType": "contract ETSAccessControls",
          "name": "previousAccessControls",
          "type": "address"
        },
        {
          "indexed": false,
          "internalType": "contract ETSAccessControls",
          "name": "newAccessControls",
          "type": "address"
        }
      ],
      "name": "AccessControlsUpdated",
      "type": "event"
    },
    {
      "anonymous": false,
      "inputs": [
        {
          "indexed": false,
          "internalType": "address",
          "name": "previousAdmin",
          "type": "address"
        },
        {
          "indexed": false,
          "internalType": "address",
          "name": "newAdmin",
          "type": "address"
        }
      ],
      "name": "AdminChanged",
      "type": "event"
    },
    {
      "anonymous": false,
      "inputs": [
        {
          "indexed": true,
          "internalType": "address",
          "name": "beacon",
          "type": "address"
        }
      ],
      "name": "BeaconUpgraded",
      "type": "event"
    },
    {
      "anonymous": false,
      "inputs": [
        {
          "indexed": false,
          "internalType": "contract ETSEnsure",
          "name": "previousETSEnsure",
          "type": "address"
        },
        {
          "indexed": false,
          "internalType": "contract ETSEnsure",
          "name": "newETSEnsure",
          "type": "address"
        }
      ],
      "name": "ETSEnsureUpdated",
      "type": "event"
    },
    {
      "anonymous": false,
      "inputs": [
        {
          "indexed": true,
          "internalType": "address",
          "name": "who",
          "type": "address"
        },
        {
          "indexed": false,
          "internalType": "uint256",
          "name": "amount",
          "type": "uint256"
        }
      ],
      "name": "FundsWithdrawn",
      "type": "event"
    },
    {
      "anonymous": false,
      "inputs": [
        {
          "indexed": false,
          "internalType": "uint256",
          "name": "platformPercentage",
          "type": "uint256"
        },
        {
          "indexed": false,
          "internalType": "uint256",
          "name": "publisherPercentage",
          "type": "uint256"
        },
        {
          "indexed": false,
          "internalType": "uint256",
          "name": "remainingPercentage",
          "type": "uint256"
        }
      ],
      "name": "PercentagesSet",
      "type": "event"
    },
    {
      "anonymous": false,
      "inputs": [
        {
          "indexed": false,
          "internalType": "uint256",
          "name": "nftChainId",
          "type": "uint256"
        },
        {
          "indexed": false,
          "internalType": "bool",
          "name": "setting",
          "type": "bool"
        }
      ],
      "name": "PermittedNftChainIdSet",
      "type": "event"
    },
    {
      "anonymous": false,
      "inputs": [
        {
          "indexed": false,
          "internalType": "uint256",
          "name": "targetId",
          "type": "uint256"
        }
      ],
      "name": "RequestEnsureTarget",
      "type": "event"
    },
    {
      "anonymous": false,
      "inputs": [
        {
          "indexed": false,
          "internalType": "uint256",
          "name": "previousFee",
          "type": "uint256"
        },
        {
          "indexed": false,
          "internalType": "uint256",
          "name": "taggingFee",
          "type": "uint256"
        }
      ],
      "name": "TaggingFeeSet",
      "type": "event"
    },
    {
      "anonymous": false,
      "inputs": [
        {
          "indexed": false,
          "internalType": "uint256",
          "name": "targetId",
          "type": "uint256"
        }
      ],
      "name": "TargetCreated",
      "type": "event"
    },
    {
      "anonymous": false,
      "inputs": [
        {
          "indexed": false,
          "internalType": "uint256",
          "name": "taggingId",
          "type": "uint256"
        }
      ],
      "name": "TargetTagged",
      "type": "event"
    },
    {
      "anonymous": false,
      "inputs": [
        {
          "indexed": false,
          "internalType": "string",
          "name": "typeName",
          "type": "string"
        },
        {
          "indexed": false,
          "internalType": "bool",
          "name": "setting",
          "type": "bool"
        }
      ],
      "name": "TargetTypeSet",
      "type": "event"
    },
    {
      "anonymous": false,
      "inputs": [
        {
          "indexed": false,
          "internalType": "uint256",
          "name": "targetId",
          "type": "uint256"
        }
      ],
      "name": "TargetUpdated",
      "type": "event"
    },
    {
      "anonymous": false,
      "inputs": [
        {
          "indexed": true,
          "internalType": "address",
          "name": "implementation",
          "type": "address"
        }
      ],
      "name": "Upgraded",
      "type": "event"
    },
    {
      "inputs": [],
      "name": "NAME",
      "outputs": [
        {
          "internalType": "string",
          "name": "",
          "type": "string"
        }
      ],
      "stateMutability": "view",
      "type": "function"
    },
    {
      "inputs": [],
      "name": "VERSION",
      "outputs": [
        {
          "internalType": "string",
          "name": "",
          "type": "string"
        }
      ],
      "stateMutability": "view",
      "type": "function"
    },
    {
      "inputs": [
        {
          "internalType": "string",
          "name": "_targetType",
          "type": "string"
        },
        {
          "internalType": "string",
          "name": "_targetURI",
          "type": "string"
        }
      ],
      "name": "_getTargetId",
      "outputs": [
        {
          "internalType": "uint256",
          "name": "targetId",
          "type": "uint256"
        }
      ],
      "stateMutability": "nonpayable",
      "type": "function"
    },
    {
      "inputs": [],
      "name": "accessControls",
      "outputs": [
        {
          "internalType": "contract ETSAccessControls",
          "name": "",
          "type": "address"
        }
      ],
      "stateMutability": "view",
      "type": "function"
    },
    {
      "inputs": [
        {
          "internalType": "address",
          "name": "",
          "type": "address"
        }
      ],
      "name": "accrued",
      "outputs": [
        {
          "internalType": "uint256",
          "name": "",
          "type": "uint256"
        }
      ],
      "stateMutability": "view",
      "type": "function"
    },
    {
      "inputs": [
        {
          "internalType": "address payable",
          "name": "_account",
          "type": "address"
        }
      ],
      "name": "drawDown",
      "outputs": [],
      "stateMutability": "nonpayable",
      "type": "function"
    },
    {
      "inputs": [],
      "name": "etsEnsure",
      "outputs": [
        {
          "internalType": "contract ETSEnsure",
          "name": "",
          "type": "address"
        }
      ],
      "stateMutability": "view",
      "type": "function"
    },
    {
      "inputs": [],
      "name": "etsTag",
      "outputs": [
        {
          "internalType": "contract ETSTag",
          "name": "",
          "type": "address"
        }
      ],
      "stateMutability": "view",
      "type": "function"
    },
    {
      "inputs": [
        {
          "internalType": "string",
          "name": "_tagString",
          "type": "string"
        },
        {
          "internalType": "address payable",
          "name": "_publisher",
          "type": "address"
        },
        {
          "internalType": "address",
          "name": "_tagger",
          "type": "address"
        }
      ],
      "name": "getOrCreateTagId",
      "outputs": [
        {
          "internalType": "uint256",
          "name": "etstagId",
          "type": "uint256"
        }
      ],
      "stateMutability": "payable",
      "type": "function"
    },
    {
      "inputs": [
        {
          "internalType": "uint256",
          "name": "_nftChainId",
          "type": "uint256"
        }
      ],
      "name": "getPermittedNftChainId",
      "outputs": [
        {
          "internalType": "bool",
          "name": "",
          "type": "bool"
        }
      ],
      "stateMutability": "view",
      "type": "function"
    },
    {
      "inputs": [
        {
          "internalType": "uint256",
          "name": "_taggingId",
          "type": "uint256"
        }
      ],
      "name": "getTaggingRecord",
      "outputs": [
        {
          "internalType": "uint256[]",
          "name": "_etsTagIds",
          "type": "uint256[]"
        },
        {
          "internalType": "uint256",
          "name": "_targetId",
          "type": "uint256"
        },
        {
          "internalType": "address",
          "name": "_tagger",
          "type": "address"
        },
        {
          "internalType": "address",
          "name": "_publisher",
          "type": "address"
        },
        {
          "internalType": "address",
          "name": "_sponsor",
          "type": "address"
        }
      ],
      "stateMutability": "view",
      "type": "function"
    },
    {
      "inputs": [
        {
          "internalType": "contract ETSAccessControls",
          "name": "_accessControls",
          "type": "address"
        },
        {
          "internalType": "contract ETSTag",
          "name": "_etsTag",
          "type": "address"
        }
      ],
      "name": "initialize",
      "outputs": [],
      "stateMutability": "nonpayable",
      "type": "function"
    },
    {
      "inputs": [],
      "name": "modulo",
      "outputs": [
        {
          "internalType": "uint256",
          "name": "",
          "type": "uint256"
        }
      ],
      "stateMutability": "view",
      "type": "function"
    },
    {
      "inputs": [
        {
          "internalType": "address",
          "name": "",
          "type": "address"
        }
      ],
      "name": "paid",
      "outputs": [
        {
          "internalType": "uint256",
          "name": "",
          "type": "uint256"
        }
      ],
      "stateMutability": "view",
      "type": "function"
    },
    {
      "inputs": [
        {
          "internalType": "uint256",
          "name": "",
          "type": "uint256"
        }
      ],
      "name": "permittedNftChainIds",
      "outputs": [
        {
          "internalType": "bool",
          "name": "",
          "type": "bool"
        }
      ],
      "stateMutability": "view",
      "type": "function"
    },
    {
      "inputs": [],
      "name": "platformPercentage",
      "outputs": [
        {
          "internalType": "uint256",
          "name": "",
          "type": "uint256"
        }
      ],
      "stateMutability": "view",
      "type": "function"
    },
    {
      "inputs": [],
      "name": "publisherPercentage",
      "outputs": [
        {
          "internalType": "uint256",
          "name": "",
          "type": "uint256"
        }
      ],
      "stateMutability": "view",
      "type": "function"
    },
    {
      "inputs": [],
      "name": "remainingPercentage",
      "outputs": [
        {
          "internalType": "uint256",
          "name": "",
          "type": "uint256"
        }
      ],
      "stateMutability": "view",
      "type": "function"
    },
    {
      "inputs": [
        {
          "internalType": "uint256",
          "name": "_nftChainId",
          "type": "uint256"
        },
        {
          "internalType": "bool",
          "name": "_setting",
          "type": "bool"
        }
      ],
      "name": "setPermittedNftChainId",
      "outputs": [],
      "stateMutability": "nonpayable",
      "type": "function"
    },
    {
      "inputs": [
        {
          "internalType": "uint256",
          "name": "_fee",
          "type": "uint256"
        }
      ],
      "name": "setTaggingFee",
      "outputs": [],
      "stateMutability": "nonpayable",
      "type": "function"
    },
    {
      "inputs": [
        {
          "internalType": "string[]",
          "name": "_tags",
          "type": "string[]"
        },
        {
          "internalType": "string",
          "name": "_targetURI",
          "type": "string"
        },
        {
          "internalType": "address payable",
          "name": "_publisher",
          "type": "address"
        },
        {
          "internalType": "address",
          "name": "_tagger",
          "type": "address"
        },
        {
          "internalType": "address",
          "name": "_sponsor",
          "type": "address"
        },
        {
          "internalType": "bool",
          "name": "_ensure",
          "type": "bool"
        }
      ],
      "name": "tagTarget",
      "outputs": [],
      "stateMutability": "payable",
      "type": "function"
    },
    {
      "inputs": [],
      "name": "taggingCounter",
      "outputs": [
        {
          "internalType": "uint256",
          "name": "",
          "type": "uint256"
        }
      ],
      "stateMutability": "view",
      "type": "function"
    },
    {
      "inputs": [],
      "name": "taggingFee",
      "outputs": [
        {
          "internalType": "uint256",
          "name": "",
          "type": "uint256"
        }
      ],
      "stateMutability": "view",
      "type": "function"
    },
    {
      "inputs": [
        {
          "internalType": "uint256",
          "name": "",
          "type": "uint256"
        }
      ],
      "name": "taggingRecords",
      "outputs": [
        {
          "internalType": "uint256",
          "name": "targetId",
          "type": "uint256"
        },
        {
          "internalType": "address",
          "name": "tagger",
          "type": "address"
        },
        {
          "internalType": "address",
          "name": "publisher",
          "type": "address"
        },
        {
          "internalType": "address",
          "name": "sponsor",
          "type": "address"
        }
      ],
      "stateMutability": "view",
      "type": "function"
    },
    {
      "inputs": [
        {
          "internalType": "uint256",
          "name": "targetId",
          "type": "uint256"
        }
      ],
      "name": "targetExists",
      "outputs": [
        {
          "internalType": "bool",
          "name": "",
          "type": "bool"
        }
      ],
      "stateMutability": "view",
      "type": "function"
    },
    {
      "inputs": [
        {
          "internalType": "uint256",
          "name": "",
          "type": "uint256"
        }
      ],
      "name": "targets",
      "outputs": [
        {
          "internalType": "string",
          "name": "targetType",
          "type": "string"
        },
        {
          "internalType": "string",
          "name": "targetURI",
          "type": "string"
        },
        {
          "internalType": "uint256",
          "name": "created",
          "type": "uint256"
        },
        {
          "internalType": "uint256",
          "name": "lastEnsured",
          "type": "uint256"
        },
        {
          "internalType": "uint256",
          "name": "status",
          "type": "uint256"
        },
        {
          "internalType": "string",
          "name": "ipfsHash",
          "type": "string"
        }
      ],
      "stateMutability": "view",
      "type": "function"
    },
    {
      "inputs": [
        {
          "internalType": "address",
          "name": "_account",
          "type": "address"
        }
      ],
      "name": "totalDue",
      "outputs": [
        {
          "internalType": "uint256",
          "name": "_due",
          "type": "uint256"
        }
      ],
      "stateMutability": "view",
      "type": "function"
    },
    {
      "inputs": [
        {
          "internalType": "contract ETSAccessControls",
          "name": "_accessControls",
          "type": "address"
        }
      ],
      "name": "updateAccessControls",
      "outputs": [],
      "stateMutability": "nonpayable",
      "type": "function"
    },
    {
      "inputs": [
        {
          "internalType": "contract ETSEnsure",
          "name": "_etsEnsure",
          "type": "address"
        }
      ],
      "name": "updateETSEnsure",
      "outputs": [],
      "stateMutability": "nonpayable",
      "type": "function"
    },
    {
      "inputs": [
        {
          "internalType": "uint256",
          "name": "_platformPercentage",
          "type": "uint256"
        },
        {
          "internalType": "uint256",
          "name": "_publisherPercentage",
          "type": "uint256"
        }
      ],
      "name": "updatePercentages",
      "outputs": [],
      "stateMutability": "nonpayable",
      "type": "function"
    },
    {
      "inputs": [
        {
          "internalType": "uint256",
          "name": "_targetId",
          "type": "uint256"
        },
        {
          "internalType": "string",
          "name": "_targetType",
          "type": "string"
        },
        {
          "internalType": "string",
          "name": "_targetURI",
          "type": "string"
        },
        {
          "internalType": "uint256",
          "name": "_lastEnsured",
          "type": "uint256"
        },
        {
          "internalType": "uint256",
          "name": "_status",
          "type": "uint256"
        },
        {
          "internalType": "string",
          "name": "_ipfsHash",
          "type": "string"
        }
      ],
      "name": "updateTarget",
      "outputs": [
        {
          "internalType": "bool",
          "name": "success",
          "type": "bool"
        }
      ],
      "stateMutability": "nonpayable",
      "type": "function"
    },
    {
      "inputs": [
        {
          "internalType": "address",
          "name": "newImplementation",
          "type": "address"
        }
      ],
      "name": "upgradeTo",
      "outputs": [],
      "stateMutability": "nonpayable",
      "type": "function"
    },
    {
      "inputs": [
        {
          "internalType": "address",
          "name": "newImplementation",
          "type": "address"
        },
        {
          "internalType": "bytes",
          "name": "data",
          "type": "bytes"
        }
      ],
      "name": "upgradeToAndCall",
      "outputs": [],
      "stateMutability": "payable",
      "type": "function"
    },
    {
      "inputs": [],
      "name": "version",
      "outputs": [
        {
          "internalType": "string",
          "name": "",
          "type": "string"
        }
      ],
      "stateMutability": "pure",
      "type": "function"
    }
  ],
  "bytecode": "0x60a06040523060805234801561001457600080fd5b5060805161321461004560003960008181610973015281816109fd01528181610c0d0152610c9201526132146000f3fe6080604052600436106102195760003560e01c80637e2e4c521161011d578063b7d0e7dd116100b0578063e88b772c1161007f578063fe52656f11610064578063fe52656f146106ee578063fed6c2e914610704578063ffa1ad741461071757600080fd5b8063e88b772c146106b8578063f8bc3cc6146106ce57600080fd5b8063b7d0e7dd14610645578063c206200514610665578063c20d229514610685578063d64f55c9146106a557600080fd5b8063a97dda40116100ec578063a97dda40146105b8578063af75e81d146105d8578063b148440f146105f8578063b205f8081461062557600080fd5b80637e2e4c521461050c578063962ed23214610522578063a340cf7914610542578063a3f4df7e1461056f57600080fd5b80633659cfe6116101b0578063507f3ba11161017f5780636ef3da94116101645780636ef3da941461043157806374716c8114610451578063748365ef146104d457600080fd5b8063507f3ba1146103da57806354fd4d50146103fa57600080fd5b80633659cfe614610354578063485cc955146103765780634f1ef28614610396578063501a323a146103a957600080fd5b80631f741897116101ec5780631f741897146102e3578063200e06af146102f95780632974526214610329578063337ccf9d1461033e57600080fd5b80630477fe281461021e5780630a39ce02146102535780630ad2f0c3146102855780631797df59146102b3575b600080fd5b34801561022a57600080fd5b5061023e6102393660046128db565b610748565b60405190151581526020015b60405180910390f35b34801561025f57600080fd5b5061027361026e3660046128db565b61076e565b60405161024a9695949392919061294c565b34801561029157600080fd5b506102a56102a03660046129c9565b61093a565b60405190815260200161024a565b3480156102bf57600080fd5b5061023e6102ce3660046128db565b600090815260d3602052604090205460ff1690565b3480156102ef57600080fd5b506102a560cc5481565b34801561030557600080fd5b5061023e6103143660046128db565b60d36020526000908152604090205460ff1681565b34801561033557600080fd5b506102a5606481565b34801561034a57600080fd5b506102a560ce5481565b34801561036057600080fd5b5061037461036f3660046129c9565b610968565b005b34801561038257600080fd5b506103746103913660046129e6565b610ae9565b6103746103a4366004612acc565b610c02565b3480156103b557600080fd5b506103c96103c43660046128db565b610d6f565b60405161024a959493929190612b30565b3480156103e657600080fd5b5061023e6103f5366004612be3565b610e15565b34801561040657600080fd5b50604080518082019091526005815264302e302e3160d81b60208201525b60405161024a9190612c9c565b34801561043d57600080fd5b5061037461044c3660046129c9565b610eba565b34801561045d57600080fd5b506104a561046c3660046128db565b60d460205260009081526040902060018101546002820154600383015460049093015491926001600160a01b0391821692908216911684565b604080519485526001600160a01b0393841660208601529183169184019190915216606082015260800161024a565b3480156104e057600080fd5b5060c9546104f4906001600160a01b031681565b6040516001600160a01b03909116815260200161024a565b34801561051857600080fd5b506102a560cd5481565b34801561052e57600080fd5b5061037461053d3660046128db565b611055565b34801561054e57600080fd5b506102a561055d3660046129c9565b60d26020526000908152604090205481565b34801561057b57600080fd5b506104246040518060400160405280600881526020017f45545320436f726500000000000000000000000000000000000000000000000081525081565b3480156105c457600080fd5b506103746105d3366004612cc8565b611150565b3480156105e457600080fd5b506102a56105f3366004612d0d565b61125f565b34801561060457600080fd5b506102a56106133660046129c9565b60d16020526000908152604090205481565b34801561063157600080fd5b506103746106403660046129c9565b61129f565b34801561065157600080fd5b5060cb546104f4906001600160a01b031681565b34801561067157600080fd5b506103746106803660046129c9565b611432565b34801561069157600080fd5b506103746106a0366004612d67565b611588565b6103746106b3366004612d89565b61172f565b3480156106c457600080fd5b506102a560cf5481565b3480156106da57600080fd5b5060ca546104f4906001600160a01b031681565b3480156106fa57600080fd5b506102a560d05481565b6102a5610712366004612e69565b611c24565b34801561072357600080fd5b5061042460405180604001604052806005815260200164302e302e3160d81b81525081565b600081815260d56020526040812060020154610765576000610768565b60015b92915050565b60d56020526000908152604090208054819061078990612ed1565b80601f01602080910402602001604051908101604052809291908181526020018280546107b590612ed1565b80156108025780601f106107d757610100808354040283529160200191610802565b820191906000526020600020905b8154815290600101906020018083116107e557829003601f168201915b50505050509080600101805461081790612ed1565b80601f016020809104026020016040519081016040528092919081815260200182805461084390612ed1565b80156108905780601f1061086557610100808354040283529160200191610890565b820191906000526020600020905b81548152906001019060200180831161087357829003601f168201915b5050505050908060020154908060030154908060040154908060050180546108b790612ed1565b80601f01602080910402602001604051908101604052809291908181526020018280546108e390612ed1565b80156109305780601f1061090557610100808354040283529160200191610930565b820191906000526020600020905b81548152906001019060200180831161091357829003601f168201915b5050505050905086565b6001600160a01b038116600090815260d2602090815260408083205460d19092528220546107689190612f22565b306001600160a01b037f00000000000000000000000000000000000000000000000000000000000000001614156109fb5760405162461bcd60e51b815260206004820152602c60248201527f46756e6374696f6e206d7573742062652063616c6c6564207468726f7567682060448201526b19195b1959d85d1958d85b1b60a21b60648201526084015b60405180910390fd5b7f00000000000000000000000000000000000000000000000000000000000000006001600160a01b0316610a567f360894a13ba1a3210667c828492db98dca3e2076cc3735a920a3ca505d382bbc546001600160a01b031690565b6001600160a01b031614610ac15760405162461bcd60e51b815260206004820152602c60248201527f46756e6374696f6e206d7573742062652063616c6c6564207468726f7567682060448201526b6163746976652070726f787960a01b60648201526084016109f2565b610aca81611d5a565b60408051600080825260208201909252610ae691839190611e17565b50565b600054610100900460ff16610b045760005460ff1615610b08565b303b155b610b7a5760405162461bcd60e51b815260206004820152602e60248201527f496e697469616c697a61626c653a20636f6e747261637420697320616c72656160448201527f647920696e697469616c697a656400000000000000000000000000000000000060648201526084016109f2565b600054610100900460ff16158015610b9c576000805461ffff19166101011790555b60c980546001600160a01b038086166001600160a01b03199283161790925560ca805492851692909116919091179055600060cf5566038d7ea4c6800060d055601460cc55601e60cd55603260ce558015610bfd576000805461ff00191690555b505050565b306001600160a01b037f0000000000000000000000000000000000000000000000000000000000000000161415610c905760405162461bcd60e51b815260206004820152602c60248201527f46756e6374696f6e206d7573742062652063616c6c6564207468726f7567682060448201526b19195b1959d85d1958d85b1b60a21b60648201526084016109f2565b7f00000000000000000000000000000000000000000000000000000000000000006001600160a01b0316610ceb7f360894a13ba1a3210667c828492db98dca3e2076cc3735a920a3ca505d382bbc546001600160a01b031690565b6001600160a01b031614610d565760405162461bcd60e51b815260206004820152602c60248201527f46756e6374696f6e206d7573742062652063616c6c6564207468726f7567682060448201526b6163746976652070726f787960a01b60648201526084016109f2565b610d5f82611d5a565b610d6b82826001611e17565b5050565b600081815260d46020908152604080832060018101546002820154600383015460048401548454865181890281018901909752808752606098978897889788979096879691956001600160a01b039182169592821694911692918791830182828015610dfa57602002820191906000526020600020905b815481526020019060010190808311610de6575b50505050509450955095509550955095505091939590929450565b600089815260d560205260408120610e2e908a8a612794565b5060008a815260d560205260409020610e4b906001018888612794565b5060008a815260d5602052604090206003810186905560048101859055610e76906005018484612794565b506040518a81527f9d29e5045b411bb06d81d8ff11c828d9f1d7eb076eec9ca45eda49fc99f762b29060200160405180910390a15060019998505050505050505050565b60c9546001600160a01b03166324d7806c336040516001600160e01b031960e084901b1681526001600160a01b039091166004820152602401602060405180830381865afa158015610f10573d6000803e3d6000fd5b505050506040513d601f19601f82011682018060405250810190610f349190612f39565b610f775760405162461bcd60e51b815260206004820152601460248201527321b0b63632b91036bab9ba1031329030b236b4b760611b60448201526064016109f2565b6001600160a01b038116610ff35760405162461bcd60e51b815260206004820152602860248201527f4554532e757064617465416363657373436f6e74726f6c733a2043616e6e6f7460448201527f206265207a65726f00000000000000000000000000000000000000000000000060648201526084016109f2565b60c980546001600160a01b038381166001600160a01b031983168117909355604080519190921680825260208201939093527f31073599bfae2533a348dc816b0ce777b707aa9b67015ca2d86585e842b5c6e991015b60405180910390a15050565b60c9546001600160a01b03166324d7806c336040516001600160e01b031960e084901b1681526001600160a01b039091166004820152602401602060405180830381865afa1580156110ab573d6000803e3d6000fd5b505050506040513d601f19601f820116820180604052508101906110cf9190612f39565b6111125760405162461bcd60e51b815260206004820152601460248201527321b0b63632b91036bab9ba1031329030b236b4b760611b60448201526064016109f2565b60d080549082905560408051828152602081018490527f861fa8a0dab775faf9bcbb5388a02f7ac01181c036f5c57982464a2d75c3608e9101611049565b60c9546001600160a01b03166324d7806c336040516001600160e01b031960e084901b1681526001600160a01b039091166004820152602401602060405180830381865afa1580156111a6573d6000803e3d6000fd5b505050506040513d601f19601f820116820180604052508101906111ca9190612f39565b61120d5760405162461bcd60e51b815260206004820152601460248201527321b0b63632b91036bab9ba1031329030b236b4b760611b60448201526064016109f2565b600082815260d36020908152604091829020805460ff19168415159081179091558251858152918201527f9a1b1e3722de574f6867ada1474b42b28458b0d93fc376664c96cb084b9211819101611049565b60008061126c8484611fdb565b600081815260d560205260409020600201549091501561128d579050610768565b6112978484612011565b949350505050565b60c9546001600160a01b03166324d7806c336040516001600160e01b031960e084901b1681526001600160a01b039091166004820152602401602060405180830381865afa1580156112f5573d6000803e3d6000fd5b505050506040513d601f19601f820116820180604052508101906113199190612f39565b61135c5760405162461bcd60e51b815260206004820152601460248201527321b0b63632b91036bab9ba1031329030b236b4b760611b60448201526064016109f2565b6001600160a01b0381166113d85760405162461bcd60e51b815260206004820152602360248201527f4554532e757064617465455453456e737572653a2043616e6e6f74206265207a60448201527f65726f000000000000000000000000000000000000000000000000000000000060648201526084016109f2565b60cb80546001600160a01b038381166001600160a01b031983168117909355604080519190921680825260208201939093527fee20190c374934660675d28472968e002fc4af227f2956f59085225ad89239fa9101611049565b600260335414156114855760405162461bcd60e51b815260206004820152601f60248201527f5265656e7472616e637947756172643a207265656e7472616e742063616c6c0060448201526064016109f2565b60026033556001600160a01b038116600090815260d2602090815260408083205460d19092528220546114b89190612f22565b90506000811180156114ca5750478111155b1561157f576001600160a01b038216600090815260d260205260409020546114f3908290612f56565b6001600160a01b038316600081815260d26020526040808220939093559151909183156108fc02918491818181858888f1935050505015801561153a573d6000803e3d6000fd5b50816001600160a01b03167feaff4b37086828766ad3268786972c0cd24259d4c87a80f9d3963a3c3d999b0d8260405161157691815260200190565b60405180910390a25b50506001603355565b60c9546001600160a01b03166324d7806c336040516001600160e01b031960e084901b1681526001600160a01b039091166004820152602401602060405180830381865afa1580156115de573d6000803e3d6000fd5b505050506040513d601f19601f820116820180604052508101906116029190612f39565b6116455760405162461bcd60e51b815260206004820152601460248201527321b0b63632b91036bab9ba1031329030b236b4b760611b60448201526064016109f2565b60646116518284612f56565b11156116c55760405162461bcd60e51b815260206004820152603760248201527f4554532e75706461746550657263656e74616765733a2070657263656e74616760448201527f6573206d757374206e6f74206265206f7665722031303000000000000000000060648201526084016109f2565b60cc82905560cd819055806116db836064612f22565b6116e59190612f22565b60ce81905560cc5460cd546040805192835260208301919091528101919091527f78c1b0567e296aa5eef70ad2deee29f35e0dd128cac603be855ece3e823f430890606001611049565b600260335414156117825760405162461bcd60e51b815260206004820152601f60248201527f5265656e7472616e637947756172643a207265656e7472616e742063616c6c0060448201526064016109f2565b600260335560c9546040517f2b04fd440000000000000000000000000000000000000000000000000000000081523360048201526001600160a01b0390911690632b04fd4490602401602060405180830381865afa1580156117e8573d6000803e3d6000fd5b505050506040513d601f19601f8201168201806040525081019061180c9190612f39565b6118585760405162461bcd60e51b815260206004820152601060248201527f4f6e6c792074617267657420747970650000000000000000000000000000000060448201526064016109f2565b60c9546040517f41859ac80000000000000000000000000000000000000000000000000000000081526001600160a01b038681166004830152909116906341859ac890602401602060405180830381865afa1580156118bb573d6000803e3d6000fd5b505050506040513d601f19601f820116820180604052508101906118df9190612f39565b6119515760405162461bcd60e51b815260206004820152602660248201527f5461673a20546865207075626c6973686572206d75737420626520776869746560448201527f6c6973746564000000000000000000000000000000000000000000000000000060648201526084016109f2565b868061199f5760405162461bcd60e51b815260206004820152601760248201527f4e6f2074616720737472696e677320737570706c69656400000000000000000060448201526064016109f2565b8060d0546119ad9190612f6e565b34146119fb5760405162461bcd60e51b815260206004820152601a60248201527f5461673a20596f75206d7573742073656e64207468652066656500000000000060448201526064016109f2565b60c9546040517fa88ae5b6000000000000000000000000000000000000000000000000000000008152336004820152600091611ac7916001600160a01b039091169063a88ae5b690602401600060405180830381865afa158015611a63573d6000803e3d6000fd5b505050506040513d6000823e601f3d908101601f19168201604052611a8b9190810190612f8d565b89898080601f01602080910402602001604051908101604052809392919081815260200183838082843760009201919091525061125f92505050565b905060008267ffffffffffffffff811115611ae457611ae4612a1f565b604051908082528060200260200182016040528015611b0d578160200160208202803683370190505b50905060005b83811015611b86576000611b4b8d8d84818110611b3257611b32612ffb565b9050602002810190611b449190613011565b8b8b611c24565b9050611b57818a61210b565b80838381518110611b6a57611b6a612ffb565b602090810291909101015250611b7f81613058565b9050611b13565b508315611c055760cb546040517f177f2fb5000000000000000000000000000000000000000000000000000000008152600481018490526001600160a01b039091169063177f2fb590602401600060405180830381600087803b158015611bec57600080fd5b505af1158015611c00573d6000803e3d6000fd5b505050505b611c12818389898961244a565b50506001603355505050505050505050565b60ca546040517f04befefd00000000000000000000000000000000000000000000000000000000815260009182916001600160a01b03909116906304befefd90611c74908990899060040161309c565b602060405180830381865afa158015611c91573d6000803e3d6000fd5b505050506040513d601f19601f82011682018060405250810190611cb591906130b0565b905080611d515760ca546040517f7e6d945e0000000000000000000000000000000000000000000000000000000081526001600160a01b0390911690637e6d945e90611d0b9089908990899089906004016130c9565b6020604051808303816000875af1158015611d2a573d6000803e3d6000fd5b505050506040513d601f19601f82011682018060405250810190611d4e91906130b0565b90505b95945050505050565b60c9546001600160a01b03166324d7806c336040516001600160e01b031960e084901b1681526001600160a01b039091166004820152602401602060405180830381865afa158015611db0573d6000803e3d6000fd5b505050506040513d601f19601f82011682018060405250810190611dd49190612f39565b610ae65760405162461bcd60e51b815260206004820152601460248201527321b0b63632b91036bab9ba1031329030b236b4b760611b60448201526064016109f2565b6000611e4a7f360894a13ba1a3210667c828492db98dca3e2076cc3735a920a3ca505d382bbc546001600160a01b031690565b9050611e5584612566565b600083511180611e625750815b15611e7357611e71848461261b565b505b7f4910fdfa16fed3260ed0e7147f7cc6da11a60208b5b9406d12a635614ffd9143805460ff16611fd457805460ff191660011781556040516001600160a01b0383166024820152611f2090869060440160408051601f198184030181529190526020810180517bffffffffffffffffffffffffffffffffffffffffffffffffffffffff167f3659cfe60000000000000000000000000000000000000000000000000000000017905261261b565b50805460ff191681557f360894a13ba1a3210667c828492db98dca3e2076cc3735a920a3ca505d382bbc546001600160a01b03838116911614611fcb5760405162461bcd60e51b815260206004820152602f60248201527f45524331393637557067726164653a207570677261646520627265616b73206660448201527f757274686572207570677261646573000000000000000000000000000000000060648201526084016109f2565b611fd485612714565b5050505050565b6000808383604051602001611ff19291906130fe565b60408051808303601f190181529190528051602090910120949350505050565b60008061201e8484611fdb565b6040805160c08101825286815260208082018790524282840152600060608301819052608083018190528351808301855281815260a084015284815260d5825292909220815180519495509193909261207b928492910190612818565b5060208281015180516120949260018501920190612818565b5060408201516002820155606082015160038201556080820151600482015560a082015180516120ce916005840191602090910190612818565b50506040518281527f503a6e6145f2d2a2a9b0845c2193aef653400c52f93b1c897bd55d36a396be7c915060200160405180910390a19392505050565b60ca546040517f878327ab0000000000000000000000000000000000000000000000000000000081526004810184905260009182916001600160a01b039091169063878327ab906024016040805180830381865afa158015612171573d6000803e3d6000fd5b505050506040513d601f19601f82011682018060405250810190612195919061312d565b91509150816001600160a01b0316816001600160a01b0316141561234157606460cc54346121c39190612f6e565b6121cd919061315c565b6001600160a01b038316600090815260d160205260409020546121f09190612f56565b6001600160a01b038316600090815260d1602052604090205560cd546064906122199034612f6e565b612223919061315c565b6001600160a01b038416600090815260d160205260409020546122469190612f56565b6001600160a01b03848116600090815260d160205260408082209390935560ca5492517fa30b4db90000000000000000000000000000000000000000000000000000000081526004810188905290929091169063a30b4db990602401602060405180830381865afa1580156122bf573d6000803e3d6000fd5b505050506040513d601f19601f820116820180604052508101906122e3919061317e565b9050606460ce54346122f59190612f6e565b6122ff919061315c565b6001600160a01b038216600090815260d160205260409020546123229190612f56565b6001600160a01b03909116600090815260d16020526040902055612444565b606460cc54346123519190612f6e565b61235b919061315c565b6001600160a01b038316600090815260d1602052604090205461237e9190612f56565b6001600160a01b038316600090815260d1602052604090205560cd546064906123a79034612f6e565b6123b1919061315c565b6001600160a01b038416600090815260d160205260409020546123d49190612f56565b6001600160a01b038416600090815260d1602052604090205560ce546064906123fd9034612f6e565b612407919061315c565b6001600160a01b038216600090815260d1602052604090205461242a9190612f56565b6001600160a01b038216600090815260d160205260409020555b50505050565b6040518060a00160405280868152602001858152602001836001600160a01b03168152602001846001600160a01b03168152602001826001600160a01b031681525060d4600060cf6000815461249f90613058565b918290555081526020808201929092526040016000208251805191926124ca9284929091019061288c565b5060208281015160018301556040808401516002840180546001600160a01b03199081166001600160a01b0393841617909155606086015160038601805483169184169190911790556080909501516004909401805490951693169290921790925560cf5490519081527f81b185c481377e520177bddb63bab2a8d220831d7c07b748c2baf29c6e607070910160405180910390a15050505050565b803b6125da5760405162461bcd60e51b815260206004820152602d60248201527f455243313936373a206e657720696d706c656d656e746174696f6e206973206e60448201527f6f74206120636f6e74726163740000000000000000000000000000000000000060648201526084016109f2565b7f360894a13ba1a3210667c828492db98dca3e2076cc3735a920a3ca505d382bbc80546001600160a01b0319166001600160a01b0392909216919091179055565b6060823b6126915760405162461bcd60e51b815260206004820152602660248201527f416464726573733a2064656c65676174652063616c6c20746f206e6f6e2d636f60448201527f6e7472616374000000000000000000000000000000000000000000000000000060648201526084016109f2565b600080846001600160a01b0316846040516126ac919061319b565b600060405180830381855af49150503d80600081146126e7576040519150601f19603f3d011682016040523d82523d6000602084013e6126ec565b606091505b5091509150611d5182826040518060600160405280602781526020016131b860279139612754565b61271d81612566565b6040516001600160a01b038216907fbc7cd75a20ee27fd9adebab32041f755214dbc6bffa90cc0225b39da2e5c2d3b90600090a250565b6060831561276357508161278d565b8251156127735782518084602001fd5b8160405162461bcd60e51b81526004016109f29190612c9c565b9392505050565b8280546127a090612ed1565b90600052602060002090601f0160209004810192826127c25760008555612808565b82601f106127db5782800160ff19823516178555612808565b82800160010185558215612808579182015b828111156128085782358255916020019190600101906127ed565b506128149291506128c6565b5090565b82805461282490612ed1565b90600052602060002090601f0160209004810192826128465760008555612808565b82601f1061285f57805160ff1916838001178555612808565b82800160010185558215612808579182015b82811115612808578251825591602001919060010190612871565b8280548282559060005260206000209081019282156128085791602002820182811115612808578251825591602001919060010190612871565b5b8082111561281457600081556001016128c7565b6000602082840312156128ed57600080fd5b5035919050565b60005b8381101561290f5781810151838201526020016128f7565b838111156124445750506000910152565b600081518084526129388160208601602086016128f4565b601f01601f19169290920160200192915050565b60c08152600061295f60c0830189612920565b82810360208401526129718189612920565b905086604084015285606084015284608084015282810360a08401526129978185612920565b9998505050505050505050565b6001600160a01b0381168114610ae657600080fd5b80356129c4816129a4565b919050565b6000602082840312156129db57600080fd5b813561278d816129a4565b600080604083850312156129f957600080fd5b8235612a04816129a4565b91506020830135612a14816129a4565b809150509250929050565b634e487b7160e01b600052604160045260246000fd5b604051601f8201601f1916810167ffffffffffffffff81118282101715612a5e57612a5e612a1f565b604052919050565b600067ffffffffffffffff821115612a8057612a80612a1f565b50601f01601f191660200190565b6000612aa1612a9c84612a66565b612a35565b9050828152838383011115612ab557600080fd5b828260208301376000602084830101529392505050565b60008060408385031215612adf57600080fd5b8235612aea816129a4565b9150602083013567ffffffffffffffff811115612b0657600080fd5b8301601f81018513612b1757600080fd5b612b2685823560208401612a8e565b9150509250929050565b60a0808252865190820181905260009060209060c0840190828a01845b82811015612b6957815184529284019290840190600101612b4d565b50505090830196909652506001600160a01b0393841660408201529183166060830152909116608090910152919050565b60008083601f840112612bac57600080fd5b50813567ffffffffffffffff811115612bc457600080fd5b602083019150836020828501011115612bdc57600080fd5b9250929050565b600080600080600080600080600060c08a8c031215612c0157600080fd5b8935985060208a013567ffffffffffffffff80821115612c2057600080fd5b612c2c8d838e01612b9a565b909a50985060408c0135915080821115612c4557600080fd5b612c518d838e01612b9a565b909850965060608c0135955060808c0135945060a08c0135915080821115612c7857600080fd5b50612c858c828d01612b9a565b915080935050809150509295985092959850929598565b60208152600061278d6020830184612920565b8015158114610ae657600080fd5b80356129c481612caf565b60008060408385031215612cdb57600080fd5b823591506020830135612a1481612caf565b600082601f830112612cfe57600080fd5b61278d83833560208501612a8e565b60008060408385031215612d2057600080fd5b823567ffffffffffffffff80821115612d3857600080fd5b612d4486838701612ced565b93506020850135915080821115612d5a57600080fd5b50612b2685828601612ced565b60008060408385031215612d7a57600080fd5b50508035926020909101359150565b60008060008060008060008060c0898b031215612da557600080fd5b883567ffffffffffffffff80821115612dbd57600080fd5b818b0191508b601f830112612dd157600080fd5b813581811115612de057600080fd5b8c60208260051b8501011115612df557600080fd5b60209283019a509850908a01359080821115612e1057600080fd5b50612e1d8b828c01612b9a565b9097509550612e30905060408a016129b9565b9350612e3e60608a016129b9565b9250612e4c60808a016129b9565b9150612e5a60a08a01612cbd565b90509295985092959890939650565b60008060008060608587031215612e7f57600080fd5b843567ffffffffffffffff811115612e9657600080fd5b612ea287828801612b9a565b9095509350506020850135612eb6816129a4565b91506040850135612ec6816129a4565b939692955090935050565b600181811c90821680612ee557607f821691505b60208210811415612f0657634e487b7160e01b600052602260045260246000fd5b50919050565b634e487b7160e01b600052601160045260246000fd5b600082821015612f3457612f34612f0c565b500390565b600060208284031215612f4b57600080fd5b815161278d81612caf565b60008219821115612f6957612f69612f0c565b500190565b6000816000190483118215151615612f8857612f88612f0c565b500290565b600060208284031215612f9f57600080fd5b815167ffffffffffffffff811115612fb657600080fd5b8201601f81018413612fc757600080fd5b8051612fd5612a9c82612a66565b818152856020838501011115612fea57600080fd5b611d518260208301602086016128f4565b634e487b7160e01b600052603260045260246000fd5b6000808335601e1984360301811261302857600080fd5b83018035915067ffffffffffffffff82111561304357600080fd5b602001915036819003821315612bdc57600080fd5b600060001982141561306c5761306c612f0c565b5060010190565b81835281816020850137506000828201602090810191909152601f909101601f19169091010190565b602081526000611297602083018486613073565b6000602082840312156130c257600080fd5b5051919050565b6060815260006130dd606083018688613073565b6001600160a01b039485166020840152929093166040909101529392505050565b600083516131108184602088016128f4565b8351908301906131248183602088016128f4565b01949350505050565b6000806040838503121561314057600080fd5b825161314b816129a4565b6020840151909250612a14816129a4565b60008261317957634e487b7160e01b600052601260045260246000fd5b500490565b60006020828403121561319057600080fd5b815161278d816129a4565b600082516131ad8184602087016128f4565b919091019291505056fe416464726573733a206c6f772d6c6576656c2064656c65676174652063616c6c206661696c6564a264697066735822122065d7aeceb3adb0981c4b4c1ca5c1592553cf1162bbc7693de7c1cfac5c0bf12764736f6c634300080c0033",
  "linkReferences": {},
  "deployedLinkReferences": {}
}