{
  "_format": "hh-sol-artifact-1",
  "contractName": "ETS",
  "sourceName": "contracts/core/ETS.sol",
  "abi": [
    {
      "anonymous": false,
      "inputs": [
        {
          "indexed": false,
          "internalType": "address",
          "name": "previousAccessControls",
          "type": "address"
        },
        {
          "indexed": false,
          "internalType": "address",
          "name": "newAccessControls",
          "type": "address"
        }
      ],
      "name": "AccessControlsUpdated",
      "type": "event"
    },
    {
      "anonymous": false,
      "inputs": [
        {
          "indexed": false,
          "internalType": "address",
          "name": "previousAdmin",
          "type": "address"
        },
        {
          "indexed": false,
          "internalType": "address",
          "name": "newAdmin",
          "type": "address"
        }
      ],
      "name": "AdminChanged",
      "type": "event"
    },
    {
      "anonymous": false,
      "inputs": [
        {
          "indexed": true,
          "internalType": "address",
          "name": "beacon",
          "type": "address"
        }
      ],
      "name": "BeaconUpgraded",
      "type": "event"
    },
    {
      "anonymous": false,
      "inputs": [
        {
          "indexed": false,
          "internalType": "address",
          "name": "previousETSEnsure",
          "type": "address"
        },
        {
          "indexed": false,
          "internalType": "address",
          "name": "newETSEnsure",
          "type": "address"
        }
      ],
      "name": "ETSEnsureUpdated",
      "type": "event"
    },
    {
      "anonymous": false,
      "inputs": [
        {
          "indexed": true,
          "internalType": "address",
          "name": "who",
          "type": "address"
        },
        {
          "indexed": false,
          "internalType": "uint256",
          "name": "amount",
          "type": "uint256"
        }
      ],
      "name": "FundsWithdrawn",
      "type": "event"
    },
    {
      "anonymous": false,
      "inputs": [
        {
          "indexed": false,
          "internalType": "uint256",
          "name": "platformPercentage",
          "type": "uint256"
        },
        {
          "indexed": false,
          "internalType": "uint256",
          "name": "publisherPercentage",
          "type": "uint256"
        },
        {
          "indexed": false,
          "internalType": "uint256",
          "name": "remainingPercentage",
          "type": "uint256"
        }
      ],
      "name": "PercentagesSet",
      "type": "event"
    },
    {
      "anonymous": false,
      "inputs": [
        {
          "indexed": false,
          "internalType": "uint256",
          "name": "nftChainId",
          "type": "uint256"
        },
        {
          "indexed": false,
          "internalType": "bool",
          "name": "setting",
          "type": "bool"
        }
      ],
      "name": "PermittedNftChainIdSet",
      "type": "event"
    },
    {
      "anonymous": false,
      "inputs": [
        {
          "indexed": false,
          "internalType": "uint256",
          "name": "targetId",
          "type": "uint256"
        }
      ],
      "name": "RequestEnsureTarget",
      "type": "event"
    },
    {
      "anonymous": false,
      "inputs": [
        {
          "indexed": false,
          "internalType": "uint256",
          "name": "previousFee",
          "type": "uint256"
        },
        {
          "indexed": false,
          "internalType": "uint256",
          "name": "taggingFee",
          "type": "uint256"
        }
      ],
      "name": "TaggingFeeSet",
      "type": "event"
    },
    {
      "anonymous": false,
      "inputs": [
        {
          "indexed": false,
          "internalType": "uint256",
          "name": "targetId",
          "type": "uint256"
        }
      ],
      "name": "TargetCreated",
      "type": "event"
    },
    {
      "anonymous": false,
      "inputs": [
        {
          "indexed": false,
          "internalType": "uint256",
          "name": "taggingId",
          "type": "uint256"
        }
      ],
      "name": "TargetTagged",
      "type": "event"
    },
    {
      "anonymous": false,
      "inputs": [
        {
          "indexed": false,
          "internalType": "string",
          "name": "typeName",
          "type": "string"
        },
        {
          "indexed": false,
          "internalType": "bool",
          "name": "setting",
          "type": "bool"
        }
      ],
      "name": "TargetTypeSet",
      "type": "event"
    },
    {
      "anonymous": false,
      "inputs": [
        {
          "indexed": false,
          "internalType": "uint256",
          "name": "targetId",
          "type": "uint256"
        }
      ],
      "name": "TargetUpdated",
      "type": "event"
    },
    {
      "anonymous": false,
      "inputs": [
        {
          "indexed": true,
          "internalType": "address",
          "name": "implementation",
          "type": "address"
        }
      ],
      "name": "Upgraded",
      "type": "event"
    },
    {
      "inputs": [],
      "name": "NAME",
      "outputs": [
        {
          "internalType": "string",
          "name": "",
          "type": "string"
        }
      ],
      "stateMutability": "view",
      "type": "function"
    },
    {
      "inputs": [],
      "name": "VERSION",
      "outputs": [
        {
          "internalType": "string",
          "name": "",
          "type": "string"
        }
      ],
      "stateMutability": "view",
      "type": "function"
    },
    {
      "inputs": [],
      "name": "accessControls",
      "outputs": [
        {
          "internalType": "contract ETSAccessControls",
          "name": "",
          "type": "address"
        }
      ],
      "stateMutability": "view",
      "type": "function"
    },
    {
      "inputs": [
        {
          "internalType": "address",
          "name": "",
          "type": "address"
        }
      ],
      "name": "accrued",
      "outputs": [
        {
          "internalType": "uint256",
          "name": "",
          "type": "uint256"
        }
      ],
      "stateMutability": "view",
      "type": "function"
    },
    {
      "inputs": [
        {
          "internalType": "uint256",
          "name": "_targetId",
          "type": "uint256"
        },
        {
          "internalType": "address",
          "name": "_publisher",
          "type": "address"
        },
        {
          "internalType": "address",
          "name": "_tagger",
          "type": "address"
        },
        {
          "internalType": "address",
          "name": "_sponsor",
          "type": "address"
        }
      ],
      "name": "computeTaggingRecordId",
      "outputs": [
        {
          "internalType": "uint256",
          "name": "taggingRecordId",
          "type": "uint256"
        }
      ],
      "stateMutability": "pure",
      "type": "function"
    },
    {
      "inputs": [
        {
          "internalType": "string",
          "name": "_targetType",
          "type": "string"
        },
        {
          "internalType": "string",
          "name": "_targetURI",
          "type": "string"
        }
      ],
      "name": "computeTargetId",
      "outputs": [
        {
          "internalType": "uint256",
          "name": "targetId",
          "type": "uint256"
        }
      ],
      "stateMutability": "pure",
      "type": "function"
    },
    {
      "inputs": [
        {
          "internalType": "address payable",
          "name": "_account",
          "type": "address"
        }
      ],
      "name": "drawDown",
      "outputs": [],
      "stateMutability": "nonpayable",
      "type": "function"
    },
    {
      "inputs": [],
      "name": "etsEnsure",
      "outputs": [
        {
          "internalType": "contract ETSEnsure",
          "name": "",
          "type": "address"
        }
      ],
      "stateMutability": "view",
      "type": "function"
    },
    {
      "inputs": [],
      "name": "etsTag",
      "outputs": [
        {
          "internalType": "contract ETSTag",
          "name": "",
          "type": "address"
        }
      ],
      "stateMutability": "view",
      "type": "function"
    },
    {
      "inputs": [
        {
          "internalType": "string",
          "name": "_tagString",
          "type": "string"
        },
        {
          "internalType": "address payable",
          "name": "_publisher",
          "type": "address"
        },
        {
          "internalType": "address",
          "name": "_tagger",
          "type": "address"
        }
      ],
      "name": "getOrCreateTagId",
      "outputs": [
        {
          "internalType": "uint256",
          "name": "etstagId",
          "type": "uint256"
        }
      ],
      "stateMutability": "payable",
      "type": "function"
    },
    {
      "inputs": [
        {
          "internalType": "uint256",
          "name": "_nftChainId",
          "type": "uint256"
        }
      ],
      "name": "getPermittedNftChainId",
      "outputs": [
        {
          "internalType": "bool",
          "name": "",
          "type": "bool"
        }
      ],
      "stateMutability": "view",
      "type": "function"
    },
    {
      "inputs": [
        {
          "internalType": "uint256",
          "name": "_taggingId",
          "type": "uint256"
        }
      ],
      "name": "getTaggingRecord",
      "outputs": [
        {
          "internalType": "uint256[]",
          "name": "_etsTagIds",
          "type": "uint256[]"
        },
        {
          "internalType": "uint256",
          "name": "_targetId",
          "type": "uint256"
        },
        {
          "internalType": "address",
          "name": "_tagger",
          "type": "address"
        },
        {
          "internalType": "address",
          "name": "_publisher",
          "type": "address"
        },
        {
          "internalType": "address",
          "name": "_sponsor",
          "type": "address"
        }
      ],
      "stateMutability": "view",
      "type": "function"
    },
    {
      "inputs": [
        {
          "internalType": "contract ETSAccessControls",
          "name": "_accessControls",
          "type": "address"
        },
        {
          "internalType": "contract ETSTag",
          "name": "_etsTag",
          "type": "address"
        }
      ],
      "name": "initialize",
      "outputs": [],
      "stateMutability": "nonpayable",
      "type": "function"
    },
    {
      "inputs": [
        {
          "internalType": "uint256",
          "name": "_targetId",
          "type": "uint256"
        }
      ],
      "name": "isTargetEnsured",
      "outputs": [
        {
          "internalType": "bool",
          "name": "",
          "type": "bool"
        }
      ],
      "stateMutability": "view",
      "type": "function"
    },
    {
      "inputs": [],
      "name": "modulo",
      "outputs": [
        {
          "internalType": "uint256",
          "name": "",
          "type": "uint256"
        }
      ],
      "stateMutability": "view",
      "type": "function"
    },
    {
      "inputs": [
        {
          "internalType": "address",
          "name": "",
          "type": "address"
        }
      ],
      "name": "paid",
      "outputs": [
        {
          "internalType": "uint256",
          "name": "",
          "type": "uint256"
        }
      ],
      "stateMutability": "view",
      "type": "function"
    },
    {
      "inputs": [
        {
          "internalType": "uint256",
          "name": "",
          "type": "uint256"
        }
      ],
      "name": "permittedNftChainIds",
      "outputs": [
        {
          "internalType": "bool",
          "name": "",
          "type": "bool"
        }
      ],
      "stateMutability": "view",
      "type": "function"
    },
    {
      "inputs": [],
      "name": "platformPercentage",
      "outputs": [
        {
          "internalType": "uint256",
          "name": "",
          "type": "uint256"
        }
      ],
      "stateMutability": "view",
      "type": "function"
    },
    {
      "inputs": [],
      "name": "publisherPercentage",
      "outputs": [
        {
          "internalType": "uint256",
          "name": "",
          "type": "uint256"
        }
      ],
      "stateMutability": "view",
      "type": "function"
    },
    {
      "inputs": [],
      "name": "remainingPercentage",
      "outputs": [
        {
          "internalType": "uint256",
          "name": "",
          "type": "uint256"
        }
      ],
      "stateMutability": "view",
      "type": "function"
    },
    {
      "inputs": [
        {
          "internalType": "uint256",
          "name": "_nftChainId",
          "type": "uint256"
        },
        {
          "internalType": "bool",
          "name": "_setting",
          "type": "bool"
        }
      ],
      "name": "setPermittedNftChainId",
      "outputs": [],
      "stateMutability": "nonpayable",
      "type": "function"
    },
    {
      "inputs": [
        {
          "internalType": "uint256",
          "name": "_fee",
          "type": "uint256"
        }
      ],
      "name": "setTaggingFee",
      "outputs": [],
      "stateMutability": "nonpayable",
      "type": "function"
    },
    {
      "inputs": [
        {
          "internalType": "string[]",
          "name": "_tags",
          "type": "string[]"
        },
        {
          "internalType": "string",
          "name": "_targetURI",
          "type": "string"
        },
        {
          "internalType": "address payable",
          "name": "_publisher",
          "type": "address"
        },
        {
          "internalType": "address",
          "name": "_tagger",
          "type": "address"
        },
        {
          "internalType": "address",
          "name": "_sponsor",
          "type": "address"
        },
        {
          "internalType": "bool",
          "name": "_ensure",
          "type": "bool"
        }
      ],
      "name": "tagTarget",
      "outputs": [],
      "stateMutability": "payable",
      "type": "function"
    },
    {
      "inputs": [],
      "name": "taggingCounter",
      "outputs": [
        {
          "internalType": "uint256",
          "name": "",
          "type": "uint256"
        }
      ],
      "stateMutability": "view",
      "type": "function"
    },
    {
      "inputs": [],
      "name": "taggingFee",
      "outputs": [
        {
          "internalType": "uint256",
          "name": "",
          "type": "uint256"
        }
      ],
      "stateMutability": "view",
      "type": "function"
    },
    {
      "inputs": [
        {
          "internalType": "uint256",
          "name": "",
          "type": "uint256"
        }
      ],
      "name": "taggingRecords",
      "outputs": [
        {
          "internalType": "uint256",
          "name": "targetId",
          "type": "uint256"
        },
        {
          "internalType": "address",
          "name": "tagger",
          "type": "address"
        },
        {
          "internalType": "address",
          "name": "publisher",
          "type": "address"
        },
        {
          "internalType": "address",
          "name": "sponsor",
          "type": "address"
        }
      ],
      "stateMutability": "view",
      "type": "function"
    },
    {
      "inputs": [
        {
          "internalType": "uint256",
          "name": "targetId",
          "type": "uint256"
        }
      ],
      "name": "targetExists",
      "outputs": [
        {
          "internalType": "bool",
          "name": "",
          "type": "bool"
        }
      ],
      "stateMutability": "view",
      "type": "function"
    },
    {
      "inputs": [
        {
          "internalType": "uint256",
          "name": "",
          "type": "uint256"
        }
      ],
      "name": "targets",
      "outputs": [
        {
          "internalType": "string",
          "name": "targetType",
          "type": "string"
        },
        {
          "internalType": "string",
          "name": "targetURI",
          "type": "string"
        },
        {
          "internalType": "uint256",
          "name": "created",
          "type": "uint256"
        },
        {
          "internalType": "uint256",
          "name": "lastEnsured",
          "type": "uint256"
        },
        {
          "internalType": "uint256",
          "name": "status",
          "type": "uint256"
        },
        {
          "internalType": "string",
          "name": "ipfsHash",
          "type": "string"
        }
      ],
      "stateMutability": "view",
      "type": "function"
    },
    {
      "inputs": [
        {
          "internalType": "address",
          "name": "_account",
          "type": "address"
        }
      ],
      "name": "totalDue",
      "outputs": [
        {
          "internalType": "uint256",
          "name": "_due",
          "type": "uint256"
        }
      ],
      "stateMutability": "view",
      "type": "function"
    },
    {
      "inputs": [
        {
          "internalType": "contract ETSAccessControls",
          "name": "_accessControls",
          "type": "address"
        }
      ],
      "name": "updateAccessControls",
      "outputs": [],
      "stateMutability": "nonpayable",
      "type": "function"
    },
    {
      "inputs": [
        {
          "internalType": "contract ETSEnsure",
          "name": "_etsEnsure",
          "type": "address"
        }
      ],
      "name": "updateETSEnsure",
      "outputs": [],
      "stateMutability": "nonpayable",
      "type": "function"
    },
    {
      "inputs": [
        {
          "internalType": "uint256",
          "name": "_platformPercentage",
          "type": "uint256"
        },
        {
          "internalType": "uint256",
          "name": "_publisherPercentage",
          "type": "uint256"
        }
      ],
      "name": "updatePercentages",
      "outputs": [],
      "stateMutability": "nonpayable",
      "type": "function"
    },
    {
      "inputs": [
        {
          "internalType": "uint256",
          "name": "_targetId",
          "type": "uint256"
        },
        {
          "internalType": "string",
          "name": "_targetType",
          "type": "string"
        },
        {
          "internalType": "string",
          "name": "_targetURI",
          "type": "string"
        },
        {
          "internalType": "uint256",
          "name": "_lastEnsured",
          "type": "uint256"
        },
        {
          "internalType": "uint256",
          "name": "_status",
          "type": "uint256"
        },
        {
          "internalType": "string",
          "name": "_ipfsHash",
          "type": "string"
        }
      ],
      "name": "updateTarget",
      "outputs": [
        {
          "internalType": "bool",
          "name": "success",
          "type": "bool"
        }
      ],
      "stateMutability": "nonpayable",
      "type": "function"
    },
    {
      "inputs": [
        {
          "internalType": "address",
          "name": "newImplementation",
          "type": "address"
        }
      ],
      "name": "upgradeTo",
      "outputs": [],
      "stateMutability": "nonpayable",
      "type": "function"
    },
    {
      "inputs": [
        {
          "internalType": "address",
          "name": "newImplementation",
          "type": "address"
        },
        {
          "internalType": "bytes",
          "name": "data",
          "type": "bytes"
        }
      ],
      "name": "upgradeToAndCall",
      "outputs": [],
      "stateMutability": "payable",
      "type": "function"
    },
    {
      "inputs": [],
      "name": "version",
      "outputs": [
        {
          "internalType": "string",
          "name": "",
          "type": "string"
        }
      ],
      "stateMutability": "pure",
      "type": "function"
    }
  ],
  "bytecode": "0x60a06040523060805234801561001457600080fd5b5060805161335c61004560003960008181610a4b01528181610ad501528181610ce50152610d6a015261335c6000f3fe60806040526004361061024f5760003560e01c8063748365ef11610138578063c2062005116100b0578063e88b772c1161007f578063fe52656f11610064578063fe52656f146107c6578063fed6c2e9146107dc578063ffa1ad74146107ef57600080fd5b8063e88b772c14610790578063f8bc3cc6146107a657600080fd5b8063c20620051461070b578063c20d22951461072b578063ce0e0eed1461074b578063d64f55c91461077d57600080fd5b8063a3f4df7e11610107578063b148440f116100ec578063b148440f1461069e578063b205f808146106cb578063b7d0e7dd146106eb57600080fd5b8063a3f4df7e14610635578063a97dda401461067e57600080fd5b8063748365ef1461059a5780637e2e4c52146105d2578063962ed232146105e8578063a340cf791461060857600080fd5b8063485cc955116101cb57806354fd4d501161019a57806360c1cade1161017f57806360c1cade146104875780636ef3da94146104f757806374716c811461051757600080fd5b806354fd4d50146104305780635dffa7fe1461046757600080fd5b8063485cc955146103ac5780634f1ef286146103cc578063501a323a146103df578063507f3ba11461041057600080fd5b80631f741897116102225780632974526211610207578063297452621461035f578063337ccf9d146103745780633659cfe61461038a57600080fd5b80631f74189714610319578063200e06af1461032f57600080fd5b80630477fe28146102545780630a39ce02146102895780630ad2f0c3146102bb5780631797df59146102e9575b600080fd5b34801561026057600080fd5b5061027461026f3660046129db565b610820565b60405190151581526020015b60405180910390f35b34801561029557600080fd5b506102a96102a43660046129db565b610846565b60405161028096959493929190612a4c565b3480156102c757600080fd5b506102db6102d6366004612ac9565b610a12565b604051908152602001610280565b3480156102f557600080fd5b506102746103043660046129db565b600090815260d3602052604090205460ff1690565b34801561032557600080fd5b506102db60cc5481565b34801561033b57600080fd5b5061027461034a3660046129db565b60d36020526000908152604090205460ff1681565b34801561036b57600080fd5b506102db606481565b34801561038057600080fd5b506102db60ce5481565b34801561039657600080fd5b506103aa6103a5366004612ac9565b610a40565b005b3480156103b857600080fd5b506103aa6103c7366004612ae6565b610bc1565b6103aa6103da366004612bcc565b610cda565b3480156103eb57600080fd5b506103ff6103fa3660046129db565b610e47565b604051610280959493929190612c30565b34801561041c57600080fd5b5061027461042b366004612ce3565b610eed565b34801561043c57600080fd5b50604080518082019091526005815264302e302e3160d81b60208201525b6040516102809190612d9c565b34801561047357600080fd5b506102db610482366004612dcf565b610f92565b34801561049357600080fd5b506102db6104a2366004612e29565b604080516020808201969096526bffffffffffffffffffffffff19606094851b81168284015294841b851660548201529190921b90921660688301528051808303605c018152607c9092019052805191012090565b34801561050357600080fd5b506103aa610512366004612ac9565b610fc8565b34801561052357600080fd5b5061056b6105323660046129db565b60d460205260009081526040902060018101546002820154600383015460049093015491926001600160a01b0391821692908216911684565b604080519485526001600160a01b03938416602086015291831691840191909152166060820152608001610280565b3480156105a657600080fd5b5060c9546105ba906001600160a01b031681565b6040516001600160a01b039091168152602001610280565b3480156105de57600080fd5b506102db60cd5481565b3480156105f457600080fd5b506103aa6106033660046129db565b611163565b34801561061457600080fd5b506102db610623366004612ac9565b60d26020526000908152604090205481565b34801561064157600080fd5b5061045a6040518060400160405280600881526020017f45545320436f726500000000000000000000000000000000000000000000000081525081565b34801561068a57600080fd5b506103aa610699366004612e95565b61125e565b3480156106aa57600080fd5b506102db6106b9366004612ac9565b60d16020526000908152604090205481565b3480156106d757600080fd5b506103aa6106e6366004612ac9565b61136d565b3480156106f757600080fd5b5060cb546105ba906001600160a01b031681565b34801561071757600080fd5b506103aa610726366004612ac9565b611500565b34801561073757600080fd5b506103aa610746366004612eba565b611656565b34801561075757600080fd5b506102746107663660046129db565b600090815260d56020526040902060030154151590565b6103aa61078b366004612edc565b6117fd565b34801561079c57600080fd5b506102db60cf5481565b3480156107b257600080fd5b5060ca546105ba906001600160a01b031681565b3480156107d257600080fd5b506102db60d05481565b6102db6107ea366004612fbc565b611cf2565b3480156107fb57600080fd5b5061045a60405180604001604052806005815260200164302e302e3160d81b81525081565b600081815260d5602052604081206002015461083d576000610840565b60015b92915050565b60d56020526000908152604090208054819061086190613019565b80601f016020809104026020016040519081016040528092919081815260200182805461088d90613019565b80156108da5780601f106108af576101008083540402835291602001916108da565b820191906000526020600020905b8154815290600101906020018083116108bd57829003601f168201915b5050505050908060010180546108ef90613019565b80601f016020809104026020016040519081016040528092919081815260200182805461091b90613019565b80156109685780601f1061093d57610100808354040283529160200191610968565b820191906000526020600020905b81548152906001019060200180831161094b57829003601f168201915b50505050509080600201549080600301549080600401549080600501805461098f90613019565b80601f01602080910402602001604051908101604052809291908181526020018280546109bb90613019565b8015610a085780601f106109dd57610100808354040283529160200191610a08565b820191906000526020600020905b8154815290600101906020018083116109eb57829003601f168201915b5050505050905086565b6001600160a01b038116600090815260d2602090815260408083205460d1909252822054610840919061306a565b306001600160a01b037f0000000000000000000000000000000000000000000000000000000000000000161415610ad35760405162461bcd60e51b815260206004820152602c60248201527f46756e6374696f6e206d7573742062652063616c6c6564207468726f7567682060448201526b19195b1959d85d1958d85b1b60a21b60648201526084015b60405180910390fd5b7f00000000000000000000000000000000000000000000000000000000000000006001600160a01b0316610b2e7f360894a13ba1a3210667c828492db98dca3e2076cc3735a920a3ca505d382bbc546001600160a01b031690565b6001600160a01b031614610b995760405162461bcd60e51b815260206004820152602c60248201527f46756e6374696f6e206d7573742062652063616c6c6564207468726f7567682060448201526b6163746976652070726f787960a01b6064820152608401610aca565b610ba281611e28565b60408051600080825260208201909252610bbe91839190611ee5565b50565b600054610100900460ff16610bdc5760005460ff1615610be0565b303b155b610c525760405162461bcd60e51b815260206004820152602e60248201527f496e697469616c697a61626c653a20636f6e747261637420697320616c72656160448201527f647920696e697469616c697a65640000000000000000000000000000000000006064820152608401610aca565b600054610100900460ff16158015610c74576000805461ffff19166101011790555b60c980546001600160a01b038086166001600160a01b03199283161790925560ca805492851692909116919091179055600060cf5566038d7ea4c6800060d055601460cc55601e60cd55603260ce558015610cd5576000805461ff00191690555b505050565b306001600160a01b037f0000000000000000000000000000000000000000000000000000000000000000161415610d685760405162461bcd60e51b815260206004820152602c60248201527f46756e6374696f6e206d7573742062652063616c6c6564207468726f7567682060448201526b19195b1959d85d1958d85b1b60a21b6064820152608401610aca565b7f00000000000000000000000000000000000000000000000000000000000000006001600160a01b0316610dc37f360894a13ba1a3210667c828492db98dca3e2076cc3735a920a3ca505d382bbc546001600160a01b031690565b6001600160a01b031614610e2e5760405162461bcd60e51b815260206004820152602c60248201527f46756e6374696f6e206d7573742062652063616c6c6564207468726f7567682060448201526b6163746976652070726f787960a01b6064820152608401610aca565b610e3782611e28565b610e4382826001611ee5565b5050565b600081815260d46020908152604080832060018101546002820154600383015460048401548454865181890281018901909752808752606098978897889788979096879691956001600160a01b039182169592821694911692918791830182828015610ed257602002820191906000526020600020905b815481526020019060010190808311610ebe575b50505050509450955095509550955095505091939590929450565b600089815260d560205260408120610f06908a8a612894565b5060008a815260d560205260409020610f23906001018888612894565b5060008a815260d5602052604090206003810186905560048101859055610f4e906005018484612894565b506040518a81527f9d29e5045b411bb06d81d8ff11c828d9f1d7eb076eec9ca45eda49fc99f762b29060200160405180910390a15060019998505050505050505050565b6000808383604051602001610fa8929190613081565b60408051808303601f190181529190528051602090910120949350505050565b60c9546001600160a01b03166324d7806c336040516001600160e01b031960e084901b1681526001600160a01b039091166004820152602401602060405180830381865afa15801561101e573d6000803e3d6000fd5b505050506040513d601f19601f8201168201806040525081019061104291906130b0565b6110855760405162461bcd60e51b815260206004820152601460248201527321b0b63632b91036bab9ba1031329030b236b4b760611b6044820152606401610aca565b6001600160a01b0381166111015760405162461bcd60e51b815260206004820152602860248201527f4554532e757064617465416363657373436f6e74726f6c733a2043616e6e6f7460448201527f206265207a65726f0000000000000000000000000000000000000000000000006064820152608401610aca565b60c980546001600160a01b038381166001600160a01b031983168117909355604080519190921680825260208201939093527f31073599bfae2533a348dc816b0ce777b707aa9b67015ca2d86585e842b5c6e991015b60405180910390a15050565b60c9546001600160a01b03166324d7806c336040516001600160e01b031960e084901b1681526001600160a01b039091166004820152602401602060405180830381865afa1580156111b9573d6000803e3d6000fd5b505050506040513d601f19601f820116820180604052508101906111dd91906130b0565b6112205760405162461bcd60e51b815260206004820152601460248201527321b0b63632b91036bab9ba1031329030b236b4b760611b6044820152606401610aca565b60d080549082905560408051828152602081018490527f861fa8a0dab775faf9bcbb5388a02f7ac01181c036f5c57982464a2d75c3608e9101611157565b60c9546001600160a01b03166324d7806c336040516001600160e01b031960e084901b1681526001600160a01b039091166004820152602401602060405180830381865afa1580156112b4573d6000803e3d6000fd5b505050506040513d601f19601f820116820180604052508101906112d891906130b0565b61131b5760405162461bcd60e51b815260206004820152601460248201527321b0b63632b91036bab9ba1031329030b236b4b760611b6044820152606401610aca565b600082815260d36020908152604091829020805460ff19168415159081179091558251858152918201527f9a1b1e3722de574f6867ada1474b42b28458b0d93fc376664c96cb084b9211819101611157565b60c9546001600160a01b03166324d7806c336040516001600160e01b031960e084901b1681526001600160a01b039091166004820152602401602060405180830381865afa1580156113c3573d6000803e3d6000fd5b505050506040513d601f19601f820116820180604052508101906113e791906130b0565b61142a5760405162461bcd60e51b815260206004820152601460248201527321b0b63632b91036bab9ba1031329030b236b4b760611b6044820152606401610aca565b6001600160a01b0381166114a65760405162461bcd60e51b815260206004820152602360248201527f4554532e757064617465455453456e737572653a2043616e6e6f74206265207a60448201527f65726f00000000000000000000000000000000000000000000000000000000006064820152608401610aca565b60cb80546001600160a01b038381166001600160a01b031983168117909355604080519190921680825260208201939093527fee20190c374934660675d28472968e002fc4af227f2956f59085225ad89239fa9101611157565b600260335414156115535760405162461bcd60e51b815260206004820152601f60248201527f5265656e7472616e637947756172643a207265656e7472616e742063616c6c006044820152606401610aca565b60026033556001600160a01b038116600090815260d2602090815260408083205460d1909252822054611586919061306a565b90506000811180156115985750478111155b1561164d576001600160a01b038216600090815260d260205260409020546115c19082906130cd565b6001600160a01b038316600081815260d26020526040808220939093559151909183156108fc02918491818181858888f19350505050158015611608573d6000803e3d6000fd5b50816001600160a01b03167feaff4b37086828766ad3268786972c0cd24259d4c87a80f9d3963a3c3d999b0d8260405161164491815260200190565b60405180910390a25b50506001603355565b60c9546001600160a01b03166324d7806c336040516001600160e01b031960e084901b1681526001600160a01b039091166004820152602401602060405180830381865afa1580156116ac573d6000803e3d6000fd5b505050506040513d601f19601f820116820180604052508101906116d091906130b0565b6117135760405162461bcd60e51b815260206004820152601460248201527321b0b63632b91036bab9ba1031329030b236b4b760611b6044820152606401610aca565b606461171f82846130cd565b11156117935760405162461bcd60e51b815260206004820152603760248201527f4554532e75706461746550657263656e74616765733a2070657263656e74616760448201527f6573206d757374206e6f74206265206f766572203130300000000000000000006064820152608401610aca565b60cc82905560cd819055806117a983606461306a565b6117b3919061306a565b60ce81905560cc5460cd546040805192835260208301919091528101919091527f78c1b0567e296aa5eef70ad2deee29f35e0dd128cac603be855ece3e823f430890606001611157565b600260335414156118505760405162461bcd60e51b815260206004820152601f60248201527f5265656e7472616e637947756172643a207265656e7472616e742063616c6c006044820152606401610aca565b600260335560c9546040517f2b04fd440000000000000000000000000000000000000000000000000000000081523360048201526001600160a01b0390911690632b04fd4490602401602060405180830381865afa1580156118b6573d6000803e3d6000fd5b505050506040513d601f19601f820116820180604052508101906118da91906130b0565b6119265760405162461bcd60e51b815260206004820152601060248201527f4f6e6c79207461726765742074797065000000000000000000000000000000006044820152606401610aca565b60c9546040517f41859ac80000000000000000000000000000000000000000000000000000000081526001600160a01b038681166004830152909116906341859ac890602401602060405180830381865afa158015611989573d6000803e3d6000fd5b505050506040513d601f19601f820116820180604052508101906119ad91906130b0565b611a1f5760405162461bcd60e51b815260206004820152602660248201527f5461673a20546865207075626c6973686572206d75737420626520776869746560448201527f6c697374656400000000000000000000000000000000000000000000000000006064820152608401610aca565b8680611a6d5760405162461bcd60e51b815260206004820152601760248201527f4e6f2074616720737472696e677320737570706c6965640000000000000000006044820152606401610aca565b8060d054611a7b91906130e5565b3414611ac95760405162461bcd60e51b815260206004820152601a60248201527f5461673a20596f75206d7573742073656e6420746865206665650000000000006044820152606401610aca565b60c9546040517fa88ae5b6000000000000000000000000000000000000000000000000000000008152336004820152600091611b95916001600160a01b039091169063a88ae5b690602401600060405180830381865afa158015611b31573d6000803e3d6000fd5b505050506040513d6000823e601f3d908101601f19168201604052611b599190810190613104565b89898080601f0160208091040260200160405190810160405280939291908181526020018383808284376000920191909152506120a992505050565b905060008267ffffffffffffffff811115611bb257611bb2612b1f565b604051908082528060200260200182016040528015611bdb578160200160208202803683370190505b50905060005b83811015611c54576000611c198d8d84818110611c0057611c00613172565b9050602002810190611c129190613188565b8b8b611cf2565b9050611c25818a6120e9565b80838381518110611c3857611c38613172565b602090810291909101015250611c4d816131cf565b9050611be1565b508315611cd35760cb546040517f177f2fb5000000000000000000000000000000000000000000000000000000008152600481018490526001600160a01b039091169063177f2fb590602401600060405180830381600087803b158015611cba57600080fd5b505af1158015611cce573d6000803e3d6000fd5b505050505b611ce08183898989612428565b50506001603355505050505050505050565b60ca546040517f04befefd00000000000000000000000000000000000000000000000000000000815260009182916001600160a01b03909116906304befefd90611d429089908990600401613213565b602060405180830381865afa158015611d5f573d6000803e3d6000fd5b505050506040513d601f19601f82011682018060405250810190611d839190613227565b905080611e1f5760ca546040517f7e6d945e0000000000000000000000000000000000000000000000000000000081526001600160a01b0390911690637e6d945e90611dd9908990899089908990600401613240565b6020604051808303816000875af1158015611df8573d6000803e3d6000fd5b505050506040513d601f19601f82011682018060405250810190611e1c9190613227565b90505b95945050505050565b60c9546001600160a01b03166324d7806c336040516001600160e01b031960e084901b1681526001600160a01b039091166004820152602401602060405180830381865afa158015611e7e573d6000803e3d6000fd5b505050506040513d601f19601f82011682018060405250810190611ea291906130b0565b610bbe5760405162461bcd60e51b815260206004820152601460248201527321b0b63632b91036bab9ba1031329030b236b4b760611b6044820152606401610aca565b6000611f187f360894a13ba1a3210667c828492db98dca3e2076cc3735a920a3ca505d382bbc546001600160a01b031690565b9050611f238461256c565b600083511180611f305750815b15611f4157611f3f8484612621565b505b7f4910fdfa16fed3260ed0e7147f7cc6da11a60208b5b9406d12a635614ffd9143805460ff166120a257805460ff191660011781556040516001600160a01b0383166024820152611fee90869060440160408051601f198184030181529190526020810180517bffffffffffffffffffffffffffffffffffffffffffffffffffffffff167f3659cfe600000000000000000000000000000000000000000000000000000000179052612621565b50805460ff191681557f360894a13ba1a3210667c828492db98dca3e2076cc3735a920a3ca505d382bbc546001600160a01b038381169116146120995760405162461bcd60e51b815260206004820152602f60248201527f45524331393637557067726164653a207570677261646520627265616b73206660448201527f75727468657220757067726164657300000000000000000000000000000000006064820152608401610aca565b6120a28561271a565b5050505050565b6000806120b68484610f92565b600081815260d56020526040902060020154909150156120d7579050610840565b6120e1848461275a565b949350505050565b60ca546040517f878327ab0000000000000000000000000000000000000000000000000000000081526004810184905260009182916001600160a01b039091169063878327ab906024016040805180830381865afa15801561214f573d6000803e3d6000fd5b505050506040513d601f19601f820116820180604052508101906121739190613275565b91509150816001600160a01b0316816001600160a01b0316141561231f57606460cc54346121a191906130e5565b6121ab91906132a4565b6001600160a01b038316600090815260d160205260409020546121ce91906130cd565b6001600160a01b038316600090815260d1602052604090205560cd546064906121f790346130e5565b61220191906132a4565b6001600160a01b038416600090815260d1602052604090205461222491906130cd565b6001600160a01b03848116600090815260d160205260408082209390935560ca5492517fa30b4db90000000000000000000000000000000000000000000000000000000081526004810188905290929091169063a30b4db990602401602060405180830381865afa15801561229d573d6000803e3d6000fd5b505050506040513d601f19601f820116820180604052508101906122c191906132c6565b9050606460ce54346122d391906130e5565b6122dd91906132a4565b6001600160a01b038216600090815260d1602052604090205461230091906130cd565b6001600160a01b03909116600090815260d16020526040902055612422565b606460cc543461232f91906130e5565b61233991906132a4565b6001600160a01b038316600090815260d1602052604090205461235c91906130cd565b6001600160a01b038316600090815260d1602052604090205560cd5460649061238590346130e5565b61238f91906132a4565b6001600160a01b038416600090815260d160205260409020546123b291906130cd565b6001600160a01b038416600090815260d1602052604090205560ce546064906123db90346130e5565b6123e591906132a4565b6001600160a01b038216600090815260d1602052604090205461240891906130cd565b6001600160a01b038216600090815260d160205260409020555b50505050565b6040805160208082018790526bffffffffffffffffffffffff19606087811b82168486015286811b8216605485015285901b1660688301528251808303605c018152607c90920190925280519101206000906040805160a08101825288815260208082018990526001600160a01b0380881683850152888116606084015286166080830152600084815260d482529290922081518051949550919390926124d3928492910190612918565b5060208281015160018301556040808401516002840180546001600160a01b03199081166001600160a01b03938416179091556060860151600386018054831691841691909117905560809095015160049094018054909516931692909217909255518281527f81b185c481377e520177bddb63bab2a8d220831d7c07b748c2baf29c6e607070910160405180910390a1505050505050565b803b6125e05760405162461bcd60e51b815260206004820152602d60248201527f455243313936373a206e657720696d706c656d656e746174696f6e206973206e60448201527f6f74206120636f6e7472616374000000000000000000000000000000000000006064820152608401610aca565b7f360894a13ba1a3210667c828492db98dca3e2076cc3735a920a3ca505d382bbc80546001600160a01b0319166001600160a01b0392909216919091179055565b6060823b6126975760405162461bcd60e51b815260206004820152602660248201527f416464726573733a2064656c65676174652063616c6c20746f206e6f6e2d636f60448201527f6e747261637400000000000000000000000000000000000000000000000000006064820152608401610aca565b600080846001600160a01b0316846040516126b291906132e3565b600060405180830381855af49150503d80600081146126ed576040519150601f19603f3d011682016040523d82523d6000602084013e6126f2565b606091505b5091509150611e1f828260405180606001604052806027815260200161330060279139612854565b6127238161256c565b6040516001600160a01b038216907fbc7cd75a20ee27fd9adebab32041f755214dbc6bffa90cc0225b39da2e5c2d3b90600090a250565b6000806127678484610f92565b6040805160c08101825286815260208082018790524282840152600060608301819052608083018190528351808301855281815260a084015284815260d582529290922081518051949550919390926127c4928492910190612953565b5060208281015180516127dd9260018501920190612953565b5060408201516002820155606082015160038201556080820151600482015560a08201518051612817916005840191602090910190612953565b50506040518281527f503a6e6145f2d2a2a9b0845c2193aef653400c52f93b1c897bd55d36a396be7c915060200160405180910390a19392505050565b6060831561286357508161288d565b8251156128735782518084602001fd5b8160405162461bcd60e51b8152600401610aca9190612d9c565b9392505050565b8280546128a090613019565b90600052602060002090601f0160209004810192826128c25760008555612908565b82601f106128db5782800160ff19823516178555612908565b82800160010185558215612908579182015b828111156129085782358255916020019190600101906128ed565b506129149291506129c6565b5090565b828054828255906000526020600020908101928215612908579160200282015b82811115612908578251825591602001919060010190612938565b82805461295f90613019565b90600052602060002090601f0160209004810192826129815760008555612908565b82601f1061299a57805160ff1916838001178555612908565b828001600101855582156129085791820182811115612908578251825591602001919060010190612938565b5b8082111561291457600081556001016129c7565b6000602082840312156129ed57600080fd5b5035919050565b60005b83811015612a0f5781810151838201526020016129f7565b838111156124225750506000910152565b60008151808452612a388160208601602086016129f4565b601f01601f19169290920160200192915050565b60c081526000612a5f60c0830189612a20565b8281036020840152612a718189612a20565b905086604084015285606084015284608084015282810360a0840152612a978185612a20565b9998505050505050505050565b6001600160a01b0381168114610bbe57600080fd5b8035612ac481612aa4565b919050565b600060208284031215612adb57600080fd5b813561288d81612aa4565b60008060408385031215612af957600080fd5b8235612b0481612aa4565b91506020830135612b1481612aa4565b809150509250929050565b634e487b7160e01b600052604160045260246000fd5b604051601f8201601f1916810167ffffffffffffffff81118282101715612b5e57612b5e612b1f565b604052919050565b600067ffffffffffffffff821115612b8057612b80612b1f565b50601f01601f191660200190565b6000612ba1612b9c84612b66565b612b35565b9050828152838383011115612bb557600080fd5b828260208301376000602084830101529392505050565b60008060408385031215612bdf57600080fd5b8235612bea81612aa4565b9150602083013567ffffffffffffffff811115612c0657600080fd5b8301601f81018513612c1757600080fd5b612c2685823560208401612b8e565b9150509250929050565b60a0808252865190820181905260009060209060c0840190828a01845b82811015612c6957815184529284019290840190600101612c4d565b50505090830196909652506001600160a01b0393841660408201529183166060830152909116608090910152919050565b60008083601f840112612cac57600080fd5b50813567ffffffffffffffff811115612cc457600080fd5b602083019150836020828501011115612cdc57600080fd5b9250929050565b600080600080600080600080600060c08a8c031215612d0157600080fd5b8935985060208a013567ffffffffffffffff80821115612d2057600080fd5b612d2c8d838e01612c9a565b909a50985060408c0135915080821115612d4557600080fd5b612d518d838e01612c9a565b909850965060608c0135955060808c0135945060a08c0135915080821115612d7857600080fd5b50612d858c828d01612c9a565b915080935050809150509295985092959850929598565b60208152600061288d6020830184612a20565b600082601f830112612dc057600080fd5b61288d83833560208501612b8e565b60008060408385031215612de257600080fd5b823567ffffffffffffffff80821115612dfa57600080fd5b612e0686838701612daf565b93506020850135915080821115612e1c57600080fd5b50612c2685828601612daf565b60008060008060808587031215612e3f57600080fd5b843593506020850135612e5181612aa4565b92506040850135612e6181612aa4565b91506060850135612e7181612aa4565b939692955090935050565b8015158114610bbe57600080fd5b8035612ac481612e7c565b60008060408385031215612ea857600080fd5b823591506020830135612b1481612e7c565b60008060408385031215612ecd57600080fd5b50508035926020909101359150565b60008060008060008060008060c0898b031215612ef857600080fd5b883567ffffffffffffffff80821115612f1057600080fd5b818b0191508b601f830112612f2457600080fd5b813581811115612f3357600080fd5b8c60208260051b8501011115612f4857600080fd5b60209283019a509850908a01359080821115612f6357600080fd5b50612f708b828c01612c9a565b9097509550612f83905060408a01612ab9565b9350612f9160608a01612ab9565b9250612f9f60808a01612ab9565b9150612fad60a08a01612e8a565b90509295985092959890939650565b60008060008060608587031215612fd257600080fd5b843567ffffffffffffffff811115612fe957600080fd5b612ff587828801612c9a565b909550935050602085013561300981612aa4565b91506040850135612e7181612aa4565b600181811c9082168061302d57607f821691505b6020821081141561304e57634e487b7160e01b600052602260045260246000fd5b50919050565b634e487b7160e01b600052601160045260246000fd5b60008282101561307c5761307c613054565b500390565b600083516130938184602088016129f4565b8351908301906130a78183602088016129f4565b01949350505050565b6000602082840312156130c257600080fd5b815161288d81612e7c565b600082198211156130e0576130e0613054565b500190565b60008160001904831182151516156130ff576130ff613054565b500290565b60006020828403121561311657600080fd5b815167ffffffffffffffff81111561312d57600080fd5b8201601f8101841361313e57600080fd5b805161314c612b9c82612b66565b81815285602083850101111561316157600080fd5b611e1f8260208301602086016129f4565b634e487b7160e01b600052603260045260246000fd5b6000808335601e1984360301811261319f57600080fd5b83018035915067ffffffffffffffff8211156131ba57600080fd5b602001915036819003821315612cdc57600080fd5b60006000198214156131e3576131e3613054565b5060010190565b81835281816020850137506000828201602090810191909152601f909101601f19169091010190565b6020815260006120e16020830184866131ea565b60006020828403121561323957600080fd5b5051919050565b6060815260006132546060830186886131ea565b6001600160a01b039485166020840152929093166040909101529392505050565b6000806040838503121561328857600080fd5b825161329381612aa4565b6020840151909250612b1481612aa4565b6000826132c157634e487b7160e01b600052601260045260246000fd5b500490565b6000602082840312156132d857600080fd5b815161288d81612aa4565b600082516132f58184602087016129f4565b919091019291505056fe416464726573733a206c6f772d6c6576656c2064656c65676174652063616c6c206661696c6564a2646970667358221220a23fcf9269c83dc03fc88868bed45de8b57693878f2523cde938358c8683fba564736f6c634300080c0033",
  "linkReferences": {},
  "deployedLinkReferences": {}
}