{
  "_format": "hh-sol-artifact-1",
  "contractName": "ETS",
  "sourceName": "contracts/core/ETS.sol",
  "abi": [
    {
      "anonymous": false,
      "inputs": [
        {
          "indexed": false,
          "internalType": "contract ETSAccessControls",
          "name": "previousAccessControls",
          "type": "address"
        },
        {
          "indexed": false,
          "internalType": "contract ETSAccessControls",
          "name": "newAccessControls",
          "type": "address"
        }
      ],
      "name": "AccessControlsUpdated",
      "type": "event"
    },
    {
      "anonymous": false,
      "inputs": [
        {
          "indexed": false,
          "internalType": "address",
          "name": "previousAdmin",
          "type": "address"
        },
        {
          "indexed": false,
          "internalType": "address",
          "name": "newAdmin",
          "type": "address"
        }
      ],
      "name": "AdminChanged",
      "type": "event"
    },
    {
      "anonymous": false,
      "inputs": [
        {
          "indexed": true,
          "internalType": "address",
          "name": "beacon",
          "type": "address"
        }
      ],
      "name": "BeaconUpgraded",
      "type": "event"
    },
    {
      "anonymous": false,
      "inputs": [
        {
          "indexed": false,
          "internalType": "contract ETSEnsure",
          "name": "previousETSEnsure",
          "type": "address"
        },
        {
          "indexed": false,
          "internalType": "contract ETSEnsure",
          "name": "newETSEnsure",
          "type": "address"
        }
      ],
      "name": "ETSEnsureUpdated",
      "type": "event"
    },
    {
      "anonymous": false,
      "inputs": [
        {
          "indexed": true,
          "internalType": "address",
          "name": "who",
          "type": "address"
        },
        {
          "indexed": false,
          "internalType": "uint256",
          "name": "amount",
          "type": "uint256"
        }
      ],
      "name": "FundsWithdrawn",
      "type": "event"
    },
    {
      "anonymous": false,
      "inputs": [
        {
          "indexed": false,
          "internalType": "uint256",
          "name": "platformPercentage",
          "type": "uint256"
        },
        {
          "indexed": false,
          "internalType": "uint256",
          "name": "publisherPercentage",
          "type": "uint256"
        },
        {
          "indexed": false,
          "internalType": "uint256",
          "name": "remainingPercentage",
          "type": "uint256"
        }
      ],
      "name": "PercentagesSet",
      "type": "event"
    },
    {
      "anonymous": false,
      "inputs": [
        {
          "indexed": false,
          "internalType": "uint256",
          "name": "nftChainId",
          "type": "uint256"
        },
        {
          "indexed": false,
          "internalType": "bool",
          "name": "setting",
          "type": "bool"
        }
      ],
      "name": "PermittedNftChainIdSet",
      "type": "event"
    },
    {
      "anonymous": false,
      "inputs": [
        {
          "indexed": false,
          "internalType": "uint256",
          "name": "targetId",
          "type": "uint256"
        }
      ],
      "name": "RequestEnsureTarget",
      "type": "event"
    },
    {
      "anonymous": false,
      "inputs": [
        {
          "indexed": false,
          "internalType": "uint256",
          "name": "previousFee",
          "type": "uint256"
        },
        {
          "indexed": false,
          "internalType": "uint256",
          "name": "taggingFee",
          "type": "uint256"
        }
      ],
      "name": "TaggingFeeSet",
      "type": "event"
    },
    {
      "anonymous": false,
      "inputs": [
        {
          "indexed": false,
          "internalType": "uint256",
          "name": "targetId",
          "type": "uint256"
        }
      ],
      "name": "TargetCreated",
      "type": "event"
    },
    {
      "anonymous": false,
      "inputs": [
        {
          "indexed": false,
          "internalType": "uint256",
          "name": "taggingId",
          "type": "uint256"
        }
      ],
      "name": "TargetTagged",
      "type": "event"
    },
    {
      "anonymous": false,
      "inputs": [
        {
          "indexed": false,
          "internalType": "string",
          "name": "typeName",
          "type": "string"
        },
        {
          "indexed": false,
          "internalType": "bool",
          "name": "setting",
          "type": "bool"
        }
      ],
      "name": "TargetTypeSet",
      "type": "event"
    },
    {
      "anonymous": false,
      "inputs": [
        {
          "indexed": false,
          "internalType": "uint256",
          "name": "targetId",
          "type": "uint256"
        }
      ],
      "name": "TargetUpdated",
      "type": "event"
    },
    {
      "anonymous": false,
      "inputs": [
        {
          "indexed": true,
          "internalType": "address",
          "name": "implementation",
          "type": "address"
        }
      ],
      "name": "Upgraded",
      "type": "event"
    },
    {
      "inputs": [],
      "name": "NAME",
      "outputs": [
        {
          "internalType": "string",
          "name": "",
          "type": "string"
        }
      ],
      "stateMutability": "view",
      "type": "function"
    },
    {
      "inputs": [],
      "name": "VERSION",
      "outputs": [
        {
          "internalType": "string",
          "name": "",
          "type": "string"
        }
      ],
      "stateMutability": "view",
      "type": "function"
    },
    {
      "inputs": [],
      "name": "accessControls",
      "outputs": [
        {
          "internalType": "contract ETSAccessControls",
          "name": "",
          "type": "address"
        }
      ],
      "stateMutability": "view",
      "type": "function"
    },
    {
      "inputs": [
        {
          "internalType": "address",
          "name": "",
          "type": "address"
        }
      ],
      "name": "accrued",
      "outputs": [
        {
          "internalType": "uint256",
          "name": "",
          "type": "uint256"
        }
      ],
      "stateMutability": "view",
      "type": "function"
    },
    {
      "inputs": [
        {
          "internalType": "string",
          "name": "_targetType",
          "type": "string"
        },
        {
          "internalType": "string",
          "name": "_targetURI",
          "type": "string"
        }
      ],
      "name": "createTarget",
      "outputs": [
        {
          "internalType": "uint256",
          "name": "targetId",
          "type": "uint256"
        }
      ],
      "stateMutability": "nonpayable",
      "type": "function"
    },
    {
      "inputs": [
        {
          "internalType": "address payable",
          "name": "_account",
          "type": "address"
        }
      ],
      "name": "drawDown",
      "outputs": [],
      "stateMutability": "nonpayable",
      "type": "function"
    },
    {
      "inputs": [],
      "name": "etsEnsure",
      "outputs": [
        {
          "internalType": "contract ETSEnsure",
          "name": "",
          "type": "address"
        }
      ],
      "stateMutability": "view",
      "type": "function"
    },
    {
      "inputs": [],
      "name": "etsTag",
      "outputs": [
        {
          "internalType": "contract ETSTag",
          "name": "",
          "type": "address"
        }
      ],
      "stateMutability": "view",
      "type": "function"
    },
    {
      "inputs": [
        {
          "internalType": "string",
          "name": "_tagString",
          "type": "string"
        },
        {
          "internalType": "address payable",
          "name": "_publisher",
          "type": "address"
        },
        {
          "internalType": "address",
          "name": "_tagger",
          "type": "address"
        }
      ],
      "name": "getOrCreateTagId",
      "outputs": [
        {
          "internalType": "uint256",
          "name": "etstagId",
          "type": "uint256"
        }
      ],
      "stateMutability": "payable",
      "type": "function"
    },
    {
      "inputs": [
        {
          "internalType": "uint256",
          "name": "_nftChainId",
          "type": "uint256"
        }
      ],
      "name": "getPermittedNftChainId",
      "outputs": [
        {
          "internalType": "bool",
          "name": "",
          "type": "bool"
        }
      ],
      "stateMutability": "view",
      "type": "function"
    },
    {
      "inputs": [
        {
          "internalType": "uint256",
          "name": "_taggingId",
          "type": "uint256"
        }
      ],
      "name": "getTaggingRecord",
      "outputs": [
        {
          "internalType": "uint256[]",
          "name": "_etsTagIds",
          "type": "uint256[]"
        },
        {
          "internalType": "uint256",
          "name": "_targetId",
          "type": "uint256"
        },
        {
          "internalType": "address",
          "name": "_tagger",
          "type": "address"
        },
        {
          "internalType": "address",
          "name": "_publisher",
          "type": "address"
        },
        {
          "internalType": "uint256",
          "name": "_timestamp",
          "type": "uint256"
        }
      ],
      "stateMutability": "view",
      "type": "function"
    },
    {
      "inputs": [
        {
          "internalType": "string",
          "name": "_targetType",
          "type": "string"
        },
        {
          "internalType": "string",
          "name": "_targetURI",
          "type": "string"
        }
      ],
      "name": "getTargetId",
      "outputs": [
        {
          "internalType": "uint256",
          "name": "targetId",
          "type": "uint256"
        }
      ],
      "stateMutability": "nonpayable",
      "type": "function"
    },
    {
      "inputs": [
        {
          "internalType": "contract ETSAccessControls",
          "name": "_accessControls",
          "type": "address"
        },
        {
          "internalType": "contract ETSTag",
          "name": "_etsTag",
          "type": "address"
        }
      ],
      "name": "initialize",
      "outputs": [],
      "stateMutability": "nonpayable",
      "type": "function"
    },
    {
      "inputs": [],
      "name": "modulo",
      "outputs": [
        {
          "internalType": "uint256",
          "name": "",
          "type": "uint256"
        }
      ],
      "stateMutability": "view",
      "type": "function"
    },
    {
      "inputs": [
        {
          "internalType": "address",
          "name": "",
          "type": "address"
        }
      ],
      "name": "paid",
      "outputs": [
        {
          "internalType": "uint256",
          "name": "",
          "type": "uint256"
        }
      ],
      "stateMutability": "view",
      "type": "function"
    },
    {
      "inputs": [
        {
          "internalType": "uint256",
          "name": "",
          "type": "uint256"
        }
      ],
      "name": "permittedNftChainIds",
      "outputs": [
        {
          "internalType": "bool",
          "name": "",
          "type": "bool"
        }
      ],
      "stateMutability": "view",
      "type": "function"
    },
    {
      "inputs": [],
      "name": "platformPercentage",
      "outputs": [
        {
          "internalType": "uint256",
          "name": "",
          "type": "uint256"
        }
      ],
      "stateMutability": "view",
      "type": "function"
    },
    {
      "inputs": [],
      "name": "publisherPercentage",
      "outputs": [
        {
          "internalType": "uint256",
          "name": "",
          "type": "uint256"
        }
      ],
      "stateMutability": "view",
      "type": "function"
    },
    {
      "inputs": [],
      "name": "remainingPercentage",
      "outputs": [
        {
          "internalType": "uint256",
          "name": "",
          "type": "uint256"
        }
      ],
      "stateMutability": "view",
      "type": "function"
    },
    {
      "inputs": [
        {
          "internalType": "uint256",
          "name": "_nftChainId",
          "type": "uint256"
        },
        {
          "internalType": "bool",
          "name": "_setting",
          "type": "bool"
        }
      ],
      "name": "setPermittedNftChainId",
      "outputs": [],
      "stateMutability": "nonpayable",
      "type": "function"
    },
    {
      "inputs": [
        {
          "internalType": "uint256",
          "name": "_fee",
          "type": "uint256"
        }
      ],
      "name": "setTaggingFee",
      "outputs": [],
      "stateMutability": "nonpayable",
      "type": "function"
    },
    {
      "inputs": [
        {
          "internalType": "string[]",
          "name": "_tagStrings",
          "type": "string[]"
        },
        {
          "internalType": "string",
          "name": "_targetURI",
          "type": "string"
        },
        {
          "internalType": "address payable",
          "name": "_publisher",
          "type": "address"
        },
        {
          "internalType": "address",
          "name": "_tagger",
          "type": "address"
        },
        {
          "internalType": "bool",
          "name": "_ensure",
          "type": "bool"
        }
      ],
      "name": "tagTarget",
      "outputs": [],
      "stateMutability": "payable",
      "type": "function"
    },
    {
      "inputs": [],
      "name": "taggingCounter",
      "outputs": [
        {
          "internalType": "uint256",
          "name": "",
          "type": "uint256"
        }
      ],
      "stateMutability": "view",
      "type": "function"
    },
    {
      "inputs": [],
      "name": "taggingFee",
      "outputs": [
        {
          "internalType": "uint256",
          "name": "",
          "type": "uint256"
        }
      ],
      "stateMutability": "view",
      "type": "function"
    },
    {
      "inputs": [
        {
          "internalType": "uint256",
          "name": "",
          "type": "uint256"
        }
      ],
      "name": "taggingRecords",
      "outputs": [
        {
          "internalType": "uint256",
          "name": "targetId",
          "type": "uint256"
        },
        {
          "internalType": "address",
          "name": "tagger",
          "type": "address"
        },
        {
          "internalType": "address",
          "name": "publisher",
          "type": "address"
        },
        {
          "internalType": "uint256",
          "name": "timestamp",
          "type": "uint256"
        }
      ],
      "stateMutability": "view",
      "type": "function"
    },
    {
      "inputs": [
        {
          "internalType": "uint256",
          "name": "targetId",
          "type": "uint256"
        }
      ],
      "name": "targetExists",
      "outputs": [
        {
          "internalType": "bool",
          "name": "",
          "type": "bool"
        }
      ],
      "stateMutability": "view",
      "type": "function"
    },
    {
      "inputs": [
        {
          "internalType": "uint256",
          "name": "",
          "type": "uint256"
        }
      ],
      "name": "targets",
      "outputs": [
        {
          "internalType": "string",
          "name": "targetType",
          "type": "string"
        },
        {
          "internalType": "string",
          "name": "targetURI",
          "type": "string"
        },
        {
          "internalType": "uint256",
          "name": "created",
          "type": "uint256"
        },
        {
          "internalType": "uint256",
          "name": "lastEnsured",
          "type": "uint256"
        },
        {
          "internalType": "uint256",
          "name": "status",
          "type": "uint256"
        },
        {
          "internalType": "string",
          "name": "ipfsHash",
          "type": "string"
        }
      ],
      "stateMutability": "view",
      "type": "function"
    },
    {
      "inputs": [
        {
          "internalType": "address",
          "name": "_account",
          "type": "address"
        }
      ],
      "name": "totalDue",
      "outputs": [
        {
          "internalType": "uint256",
          "name": "_due",
          "type": "uint256"
        }
      ],
      "stateMutability": "view",
      "type": "function"
    },
    {
      "inputs": [
        {
          "internalType": "contract ETSAccessControls",
          "name": "_accessControls",
          "type": "address"
        }
      ],
      "name": "updateAccessControls",
      "outputs": [],
      "stateMutability": "nonpayable",
      "type": "function"
    },
    {
      "inputs": [
        {
          "internalType": "contract ETSEnsure",
          "name": "_etsEnsure",
          "type": "address"
        }
      ],
      "name": "updateETSEnsure",
      "outputs": [],
      "stateMutability": "nonpayable",
      "type": "function"
    },
    {
      "inputs": [
        {
          "internalType": "uint256",
          "name": "_platformPercentage",
          "type": "uint256"
        },
        {
          "internalType": "uint256",
          "name": "_publisherPercentage",
          "type": "uint256"
        }
      ],
      "name": "updatePercentages",
      "outputs": [],
      "stateMutability": "nonpayable",
      "type": "function"
    },
    {
      "inputs": [
        {
          "internalType": "uint256",
          "name": "_targetId",
          "type": "uint256"
        },
        {
          "internalType": "string",
          "name": "_targetType",
          "type": "string"
        },
        {
          "internalType": "string",
          "name": "_targetURI",
          "type": "string"
        },
        {
          "internalType": "uint256",
          "name": "_lastEnsured",
          "type": "uint256"
        },
        {
          "internalType": "uint256",
          "name": "_status",
          "type": "uint256"
        },
        {
          "internalType": "string",
          "name": "_ipfsHash",
          "type": "string"
        }
      ],
      "name": "updateTarget",
      "outputs": [
        {
          "internalType": "bool",
          "name": "success",
          "type": "bool"
        }
      ],
      "stateMutability": "nonpayable",
      "type": "function"
    },
    {
      "inputs": [
        {
          "internalType": "address",
          "name": "newImplementation",
          "type": "address"
        }
      ],
      "name": "upgradeTo",
      "outputs": [],
      "stateMutability": "nonpayable",
      "type": "function"
    },
    {
      "inputs": [
        {
          "internalType": "address",
          "name": "newImplementation",
          "type": "address"
        },
        {
          "internalType": "bytes",
          "name": "data",
          "type": "bytes"
        }
      ],
      "name": "upgradeToAndCall",
      "outputs": [],
      "stateMutability": "payable",
      "type": "function"
    },
    {
      "inputs": [],
      "name": "version",
      "outputs": [
        {
          "internalType": "string",
          "name": "",
          "type": "string"
        }
      ],
      "stateMutability": "pure",
      "type": "function"
    }
  ],
  "bytecode": "0x60a06040523060805234801561001457600080fd5b5060805161321b610045600039600081816109ed01528181610a7701528181610c870152610d0c015261321b6000f3fe6080604052600436106102345760003560e01c8063748365ef11610138578063c2062005116100b0578063e88b772c1161007f578063fe52656f11610064578063fe52656f14610728578063fed6c2e91461073e578063ffa1ad741461075157600080fd5b8063e88b772c146106f2578063f8bc3cc61461070857600080fd5b8063c20620051461067f578063c20d22951461069f578063c570859a146106bf578063e16ee5a3146106d257600080fd5b8063a3f4df7e11610107578063b148440f116100ec578063b148440f14610612578063b205f8081461063f578063b7d0e7dd1461065f57600080fd5b8063a3f4df7e146105a9578063a97dda40146105f257600080fd5b8063748365ef1461050e5780637e2e4c5214610546578063962ed2321461055c578063a340cf791461057c57600080fd5b8063337ccf9d116101cb578063501a323a1161019a57806354fd4d501161017f57806354fd4d50146104355780636ef3da941461046c57806374716c811461048c57600080fd5b8063501a323a146103e4578063507f3ba11461041557600080fd5b8063337ccf9d146103795780633659cfe61461038f578063485cc955146103b15780634f1ef286146103d157600080fd5b80631797df59116102075780631797df59146102ee5780631f7418971461031e578063200e06af14610334578063297452621461036457600080fd5b80630477fe28146102395780630a39ce021461026e5780630ad2f0c3146102a0578063146da5c4146102ce575b600080fd5b34801561024557600080fd5b506102596102543660046128f6565b610782565b60405190151581526020015b60405180910390f35b34801561027a57600080fd5b5061028e6102893660046128f6565b6107a8565b60405161026596959493929190612967565b3480156102ac57600080fd5b506102c06102bb3660046129e4565b610974565b604051908152602001610265565b3480156102da57600080fd5b506102c06102e9366004612ace565b6109a2565b3480156102fa57600080fd5b506102596103093660046128f6565b600090815260d3602052604090205460ff1690565b34801561032a57600080fd5b506102c060cc5481565b34801561034057600080fd5b5061025961034f3660046128f6565b60d36020526000908152604090205460ff1681565b34801561037057600080fd5b506102c0606481565b34801561038557600080fd5b506102c060ce5481565b34801561039b57600080fd5b506103af6103aa3660046129e4565b6109e2565b005b3480156103bd57600080fd5b506103af6103cc366004612b32565b610b63565b6103af6103df366004612b6b565b610c7c565b3480156103f057600080fd5b506104046103ff3660046128f6565b610de9565b604051610265959493929190612bc5565b34801561042157600080fd5b50610259610430366004612c74565b610e8f565b34801561044157600080fd5b50604080518082019091526005815264302e302e3160d81b60208201525b6040516102659190612d2d565b34801561047857600080fd5b506103af6104873660046129e4565b610f34565b34801561049857600080fd5b506104de6104a73660046128f6565b60d460205260009081526040902060018101546002820154600383015460049093015491926001600160a01b039182169291169084565b60405161026594939291909384526001600160a01b03928316602085015291166040830152606082015260800190565b34801561051a57600080fd5b5060c95461052e906001600160a01b031681565b6040516001600160a01b039091168152602001610265565b34801561055257600080fd5b506102c060cd5481565b34801561056857600080fd5b506103af6105773660046128f6565b6110cf565b34801561058857600080fd5b506102c06105973660046129e4565b60d26020526000908152604090205481565b3480156105b557600080fd5b5061045f6040518060400160405280600881526020017f45545320436f726500000000000000000000000000000000000000000000000081525081565b3480156105fe57600080fd5b506103af61060d366004612d59565b6111ca565b34801561061e57600080fd5b506102c061062d3660046129e4565b60d16020526000908152604090205481565b34801561064b57600080fd5b506103af61065a3660046129e4565b6112d9565b34801561066b57600080fd5b5060cb5461052e906001600160a01b031681565b34801561068b57600080fd5b506103af61069a3660046129e4565b61146c565b3480156106ab57600080fd5b506103af6106ba366004612d7e565b6115c2565b6103af6106cd366004612da0565b611769565b3480156106de57600080fd5b506102c06106ed366004612ace565b611c50565b3480156106fe57600080fd5b506102c060cf5481565b34801561071457600080fd5b5060ca5461052e906001600160a01b031681565b34801561073457600080fd5b506102c060d05481565b6102c061074c366004612e70565b611d4a565b34801561075d57600080fd5b5061045f60405180604001604052806005815260200164302e302e3160d81b81525081565b600081815260d5602052604081206002015461079f5760006107a2565b60015b92915050565b60d5602052600090815260409020805481906107c390612ed8565b80601f01602080910402602001604051908101604052809291908181526020018280546107ef90612ed8565b801561083c5780601f106108115761010080835404028352916020019161083c565b820191906000526020600020905b81548152906001019060200180831161081f57829003601f168201915b50505050509080600101805461085190612ed8565b80601f016020809104026020016040519081016040528092919081815260200182805461087d90612ed8565b80156108ca5780601f1061089f576101008083540402835291602001916108ca565b820191906000526020600020905b8154815290600101906020018083116108ad57829003601f168201915b5050505050908060020154908060030154908060040154908060050180546108f190612ed8565b80601f016020809104026020016040519081016040528092919081815260200182805461091d90612ed8565b801561096a5780601f1061093f5761010080835404028352916020019161096a565b820191906000526020600020905b81548152906001019060200180831161094d57829003601f168201915b5050505050905086565b6001600160a01b038116600090815260d2602090815260408083205460d19092528220546107a29190612f29565b6000806109af8484611e80565b600081815260d56020526040902060020154909150156109d05790506107a2565b6109da8484611c50565b949350505050565b306001600160a01b037f0000000000000000000000000000000000000000000000000000000000000000161415610a755760405162461bcd60e51b815260206004820152602c60248201527f46756e6374696f6e206d7573742062652063616c6c6564207468726f7567682060448201526b19195b1959d85d1958d85b1b60a21b60648201526084015b60405180910390fd5b7f00000000000000000000000000000000000000000000000000000000000000006001600160a01b0316610ad07f360894a13ba1a3210667c828492db98dca3e2076cc3735a920a3ca505d382bbc546001600160a01b031690565b6001600160a01b031614610b3b5760405162461bcd60e51b815260206004820152602c60248201527f46756e6374696f6e206d7573742062652063616c6c6564207468726f7567682060448201526b6163746976652070726f787960a01b6064820152608401610a6c565b610b4481611eb6565b60408051600080825260208201909252610b6091839190611f73565b50565b600054610100900460ff16610b7e5760005460ff1615610b82565b303b155b610bf45760405162461bcd60e51b815260206004820152602e60248201527f496e697469616c697a61626c653a20636f6e747261637420697320616c72656160448201527f647920696e697469616c697a65640000000000000000000000000000000000006064820152608401610a6c565b600054610100900460ff16158015610c16576000805461ffff19166101011790555b60c980546001600160a01b038086166001600160a01b03199283161790925560ca805492851692909116919091179055600060cf5566038d7ea4c6800060d055601460cc55601e60cd55603260ce558015610c77576000805461ff00191690555b505050565b306001600160a01b037f0000000000000000000000000000000000000000000000000000000000000000161415610d0a5760405162461bcd60e51b815260206004820152602c60248201527f46756e6374696f6e206d7573742062652063616c6c6564207468726f7567682060448201526b19195b1959d85d1958d85b1b60a21b6064820152608401610a6c565b7f00000000000000000000000000000000000000000000000000000000000000006001600160a01b0316610d657f360894a13ba1a3210667c828492db98dca3e2076cc3735a920a3ca505d382bbc546001600160a01b031690565b6001600160a01b031614610dd05760405162461bcd60e51b815260206004820152602c60248201527f46756e6374696f6e206d7573742062652063616c6c6564207468726f7567682060448201526b6163746976652070726f787960a01b6064820152608401610a6c565b610dd982611eb6565b610de582826001611f73565b5050565b600081815260d46020908152604080832060018101546002820154600383015460048401548454865181890281018901909752808752606098978897889788979096879691956001600160a01b039182169592909116939092918791830182828015610e7457602002820191906000526020600020905b815481526020019060010190808311610e60575b50505050509450955095509550955095505091939590929450565b600089815260d560205260408120610ea8908a8a6127af565b5060008a815260d560205260409020610ec59060010188886127af565b5060008a815260d5602052604090206003810186905560048101859055610ef09060050184846127af565b506040518a81527f9d29e5045b411bb06d81d8ff11c828d9f1d7eb076eec9ca45eda49fc99f762b29060200160405180910390a15060019998505050505050505050565b60c9546001600160a01b03166324d7806c336040516001600160e01b031960e084901b1681526001600160a01b039091166004820152602401602060405180830381865afa158015610f8a573d6000803e3d6000fd5b505050506040513d601f19601f82011682018060405250810190610fae9190612f40565b610ff15760405162461bcd60e51b815260206004820152601460248201527321b0b63632b91036bab9ba1031329030b236b4b760611b6044820152606401610a6c565b6001600160a01b03811661106d5760405162461bcd60e51b815260206004820152602860248201527f4554532e757064617465416363657373436f6e74726f6c733a2043616e6e6f7460448201527f206265207a65726f0000000000000000000000000000000000000000000000006064820152608401610a6c565b60c980546001600160a01b038381166001600160a01b031983168117909355604080519190921680825260208201939093527f31073599bfae2533a348dc816b0ce777b707aa9b67015ca2d86585e842b5c6e991015b60405180910390a15050565b60c9546001600160a01b03166324d7806c336040516001600160e01b031960e084901b1681526001600160a01b039091166004820152602401602060405180830381865afa158015611125573d6000803e3d6000fd5b505050506040513d601f19601f820116820180604052508101906111499190612f40565b61118c5760405162461bcd60e51b815260206004820152601460248201527321b0b63632b91036bab9ba1031329030b236b4b760611b6044820152606401610a6c565b60d080549082905560408051828152602081018490527f861fa8a0dab775faf9bcbb5388a02f7ac01181c036f5c57982464a2d75c3608e91016110c3565b60c9546001600160a01b03166324d7806c336040516001600160e01b031960e084901b1681526001600160a01b039091166004820152602401602060405180830381865afa158015611220573d6000803e3d6000fd5b505050506040513d601f19601f820116820180604052508101906112449190612f40565b6112875760405162461bcd60e51b815260206004820152601460248201527321b0b63632b91036bab9ba1031329030b236b4b760611b6044820152606401610a6c565b600082815260d36020908152604091829020805460ff19168415159081179091558251858152918201527f9a1b1e3722de574f6867ada1474b42b28458b0d93fc376664c96cb084b92118191016110c3565b60c9546001600160a01b03166324d7806c336040516001600160e01b031960e084901b1681526001600160a01b039091166004820152602401602060405180830381865afa15801561132f573d6000803e3d6000fd5b505050506040513d601f19601f820116820180604052508101906113539190612f40565b6113965760405162461bcd60e51b815260206004820152601460248201527321b0b63632b91036bab9ba1031329030b236b4b760611b6044820152606401610a6c565b6001600160a01b0381166114125760405162461bcd60e51b815260206004820152602360248201527f4554532e757064617465455453456e737572653a2043616e6e6f74206265207a60448201527f65726f00000000000000000000000000000000000000000000000000000000006064820152608401610a6c565b60cb80546001600160a01b038381166001600160a01b031983168117909355604080519190921680825260208201939093527fee20190c374934660675d28472968e002fc4af227f2956f59085225ad89239fa91016110c3565b600260335414156114bf5760405162461bcd60e51b815260206004820152601f60248201527f5265656e7472616e637947756172643a207265656e7472616e742063616c6c006044820152606401610a6c565b60026033556001600160a01b038116600090815260d2602090815260408083205460d19092528220546114f29190612f29565b90506000811180156115045750478111155b156115b9576001600160a01b038216600090815260d2602052604090205461152d908290612f5d565b6001600160a01b038316600081815260d26020526040808220939093559151909183156108fc02918491818181858888f19350505050158015611574573d6000803e3d6000fd5b50816001600160a01b03167feaff4b37086828766ad3268786972c0cd24259d4c87a80f9d3963a3c3d999b0d826040516115b091815260200190565b60405180910390a25b50506001603355565b60c9546001600160a01b03166324d7806c336040516001600160e01b031960e084901b1681526001600160a01b039091166004820152602401602060405180830381865afa158015611618573d6000803e3d6000fd5b505050506040513d601f19601f8201168201806040525081019061163c9190612f40565b61167f5760405162461bcd60e51b815260206004820152601460248201527321b0b63632b91036bab9ba1031329030b236b4b760611b6044820152606401610a6c565b606461168b8284612f5d565b11156116ff5760405162461bcd60e51b815260206004820152603760248201527f4554532e75706461746550657263656e74616765733a2070657263656e74616760448201527f6573206d757374206e6f74206265206f766572203130300000000000000000006064820152608401610a6c565b60cc82905560cd81905580611715836064612f29565b61171f9190612f29565b60ce81905560cc5460cd546040805192835260208301919091528101919091527f78c1b0567e296aa5eef70ad2deee29f35e0dd128cac603be855ece3e823f4308906060016110c3565b600260335414156117bc5760405162461bcd60e51b815260206004820152601f60248201527f5265656e7472616e637947756172643a207265656e7472616e742063616c6c006044820152606401610a6c565b600260335560c9546040517f2b04fd440000000000000000000000000000000000000000000000000000000081523360048201526001600160a01b0390911690632b04fd4490602401602060405180830381865afa158015611822573d6000803e3d6000fd5b505050506040513d601f19601f820116820180604052508101906118469190612f40565b6118925760405162461bcd60e51b815260206004820152601060248201527f4f6e6c79207461726765742074797065000000000000000000000000000000006044820152606401610a6c565b60c9546040517f41859ac80000000000000000000000000000000000000000000000000000000081526001600160a01b038581166004830152909116906341859ac890602401602060405180830381865afa1580156118f5573d6000803e3d6000fd5b505050506040513d601f19601f820116820180604052508101906119199190612f40565b61198b5760405162461bcd60e51b815260206004820152602660248201527f5461673a20546865207075626c6973686572206d75737420626520776869746560448201527f6c697374656400000000000000000000000000000000000000000000000000006064820152608401610a6c565b856119d85760405162461bcd60e51b815260206004820152601760248201527f4e6f2074616720737472696e677320737570706c6965640000000000000000006044820152606401610a6c565b60d054341015611a2a5760405162461bcd60e51b815260206004820152601a60248201527f5461673a20596f75206d7573742073656e6420746865206665650000000000006044820152606401610a6c565b60c9546040517fa88ae5b6000000000000000000000000000000000000000000000000000000008152336004820152600091611af6916001600160a01b039091169063a88ae5b690602401600060405180830381865afa158015611a92573d6000803e3d6000fd5b505050506040513d6000823e601f3d908101601f19168201604052611aba9190810190612f75565b87878080601f0160208091040260200160405190810160405280939291908181526020018383808284376000920191909152506109a292505050565b905060008767ffffffffffffffff811115611b1357611b13612a01565b604051908082528060200260200182016040528015611b3c578160200160208202803683370190505b50905060005b88811015611bb5576000611b7a8b8b84818110611b6157611b61612fe3565b9050602002810190611b739190612ff9565b8989611d4a565b9050611b868188612137565b80838381518110611b9957611b99612fe3565b602090810291909101015250611bae81613040565b9050611b42565b508215611c345760cb546040517f177f2fb5000000000000000000000000000000000000000000000000000000008152600481018490526001600160a01b039091169063177f2fb590602401600060405180830381600087803b158015611c1b57600080fd5b505af1158015611c2f573d6000803e3d6000fd5b505050505b611c4081838787612476565b5050600160335550505050505050565b600080611c5d8484611e80565b6040805160c08101825286815260208082018790524282840152600060608301819052608083018190528351808301855281815260a084015284815260d58252929092208151805194955091939092611cba928492910190612833565b506020828101518051611cd39260018501920190612833565b5060408201516002820155606082015160038201556080820151600482015560a08201518051611d0d916005840191602090910190612833565b50506040518281527f503a6e6145f2d2a2a9b0845c2193aef653400c52f93b1c897bd55d36a396be7c915060200160405180910390a19392505050565b60ca546040517f04befefd00000000000000000000000000000000000000000000000000000000815260009182916001600160a01b03909116906304befefd90611d9a9089908990600401613084565b602060405180830381865afa158015611db7573d6000803e3d6000fd5b505050506040513d601f19601f82011682018060405250810190611ddb9190613098565b905080611e775760ca546040517f7e6d945e0000000000000000000000000000000000000000000000000000000081526001600160a01b0390911690637e6d945e90611e319089908990899089906004016130b1565b6020604051808303816000875af1158015611e50573d6000803e3d6000fd5b505050506040513d601f19601f82011682018060405250810190611e749190613098565b90505b95945050505050565b6000808383604051602001611e969291906130e6565b60408051808303601f190181529190528051602090910120949350505050565b60c9546001600160a01b03166324d7806c336040516001600160e01b031960e084901b1681526001600160a01b039091166004820152602401602060405180830381865afa158015611f0c573d6000803e3d6000fd5b505050506040513d601f19601f82011682018060405250810190611f309190612f40565b610b605760405162461bcd60e51b815260206004820152601460248201527321b0b63632b91036bab9ba1031329030b236b4b760611b6044820152606401610a6c565b6000611fa67f360894a13ba1a3210667c828492db98dca3e2076cc3735a920a3ca505d382bbc546001600160a01b031690565b9050611fb184612581565b600083511180611fbe5750815b15611fcf57611fcd8484612636565b505b7f4910fdfa16fed3260ed0e7147f7cc6da11a60208b5b9406d12a635614ffd9143805460ff1661213057805460ff191660011781556040516001600160a01b038316602482015261207c90869060440160408051601f198184030181529190526020810180517bffffffffffffffffffffffffffffffffffffffffffffffffffffffff167f3659cfe600000000000000000000000000000000000000000000000000000000179052612636565b50805460ff191681557f360894a13ba1a3210667c828492db98dca3e2076cc3735a920a3ca505d382bbc546001600160a01b038381169116146121275760405162461bcd60e51b815260206004820152602f60248201527f45524331393637557067726164653a207570677261646520627265616b73206660448201527f75727468657220757067726164657300000000000000000000000000000000006064820152608401610a6c565b6121308561272f565b5050505050565b60ca546040517f878327ab0000000000000000000000000000000000000000000000000000000081526004810184905260009182916001600160a01b039091169063878327ab906024016040805180830381865afa15801561219d573d6000803e3d6000fd5b505050506040513d601f19601f820116820180604052508101906121c19190613115565b91509150816001600160a01b0316816001600160a01b0316141561236d57606460cc54346121ef9190613144565b6121f99190613163565b6001600160a01b038316600090815260d1602052604090205461221c9190612f5d565b6001600160a01b038316600090815260d1602052604090205560cd546064906122459034613144565b61224f9190613163565b6001600160a01b038416600090815260d160205260409020546122729190612f5d565b6001600160a01b03848116600090815260d160205260408082209390935560ca5492517fa30b4db90000000000000000000000000000000000000000000000000000000081526004810188905290929091169063a30b4db990602401602060405180830381865afa1580156122eb573d6000803e3d6000fd5b505050506040513d601f19601f8201168201806040525081019061230f9190613185565b9050606460ce54346123219190613144565b61232b9190613163565b6001600160a01b038216600090815260d1602052604090205461234e9190612f5d565b6001600160a01b03909116600090815260d16020526040902055612470565b606460cc543461237d9190613144565b6123879190613163565b6001600160a01b038316600090815260d160205260409020546123aa9190612f5d565b6001600160a01b038316600090815260d1602052604090205560cd546064906123d39034613144565b6123dd9190613163565b6001600160a01b038416600090815260d160205260409020546124009190612f5d565b6001600160a01b038416600090815260d1602052604090205560ce546064906124299034613144565b6124339190613163565b6001600160a01b038216600090815260d160205260409020546124569190612f5d565b6001600160a01b038216600090815260d160205260409020555b50505050565b6040518060a00160405280858152602001848152602001826001600160a01b03168152602001836001600160a01b031681526020014281525060d4600060cf600081546124c290613040565b918290555081526020808201929092526040016000208251805191926124ed928492909101906128a7565b50602082015160018201556040808301516002830180546001600160a01b039283166001600160a01b031991821617909155606085015160038501805491909316911617905560809092015160049091015560cf5490517f81b185c481377e520177bddb63bab2a8d220831d7c07b748c2baf29c6e607070916125739190815260200190565b60405180910390a150505050565b803b6125f55760405162461bcd60e51b815260206004820152602d60248201527f455243313936373a206e657720696d706c656d656e746174696f6e206973206e60448201527f6f74206120636f6e7472616374000000000000000000000000000000000000006064820152608401610a6c565b7f360894a13ba1a3210667c828492db98dca3e2076cc3735a920a3ca505d382bbc80546001600160a01b0319166001600160a01b0392909216919091179055565b6060823b6126ac5760405162461bcd60e51b815260206004820152602660248201527f416464726573733a2064656c65676174652063616c6c20746f206e6f6e2d636f60448201527f6e747261637400000000000000000000000000000000000000000000000000006064820152608401610a6c565b600080846001600160a01b0316846040516126c791906131a2565b600060405180830381855af49150503d8060008114612702576040519150601f19603f3d011682016040523d82523d6000602084013e612707565b606091505b5091509150611e7782826040518060600160405280602781526020016131bf6027913961276f565b61273881612581565b6040516001600160a01b038216907fbc7cd75a20ee27fd9adebab32041f755214dbc6bffa90cc0225b39da2e5c2d3b90600090a250565b6060831561277e5750816127a8565b82511561278e5782518084602001fd5b8160405162461bcd60e51b8152600401610a6c9190612d2d565b9392505050565b8280546127bb90612ed8565b90600052602060002090601f0160209004810192826127dd5760008555612823565b82601f106127f65782800160ff19823516178555612823565b82800160010185558215612823579182015b82811115612823578235825591602001919060010190612808565b5061282f9291506128e1565b5090565b82805461283f90612ed8565b90600052602060002090601f0160209004810192826128615760008555612823565b82601f1061287a57805160ff1916838001178555612823565b82800160010185558215612823579182015b8281111561282357825182559160200191906001019061288c565b828054828255906000526020600020908101928215612823579160200282018281111561282357825182559160200191906001019061288c565b5b8082111561282f57600081556001016128e2565b60006020828403121561290857600080fd5b5035919050565b60005b8381101561292a578181015183820152602001612912565b838111156124705750506000910152565b6000815180845261295381602086016020860161290f565b601f01601f19169290920160200192915050565b60c08152600061297a60c083018961293b565b828103602084015261298c818961293b565b905086604084015285606084015284608084015282810360a08401526129b2818561293b565b9998505050505050505050565b6001600160a01b0381168114610b6057600080fd5b80356129df816129bf565b919050565b6000602082840312156129f657600080fd5b81356127a8816129bf565b634e487b7160e01b600052604160045260246000fd5b604051601f8201601f1916810167ffffffffffffffff81118282101715612a4057612a40612a01565b604052919050565b600067ffffffffffffffff821115612a6257612a62612a01565b50601f01601f191660200190565b6000612a83612a7e84612a48565b612a17565b9050828152838383011115612a9757600080fd5b828260208301376000602084830101529392505050565b600082601f830112612abf57600080fd5b6127a883833560208501612a70565b60008060408385031215612ae157600080fd5b823567ffffffffffffffff80821115612af957600080fd5b612b0586838701612aae565b93506020850135915080821115612b1b57600080fd5b50612b2885828601612aae565b9150509250929050565b60008060408385031215612b4557600080fd5b8235612b50816129bf565b91506020830135612b60816129bf565b809150509250929050565b60008060408385031215612b7e57600080fd5b8235612b89816129bf565b9150602083013567ffffffffffffffff811115612ba557600080fd5b8301601f81018513612bb657600080fd5b612b2885823560208401612a70565b60a0808252865190820181905260009060209060c0840190828a01845b82811015612bfe57815184529284019290840190600101612be2565b50505090830196909652506001600160a01b03938416604082015291909216606082015260800152919050565b60008083601f840112612c3d57600080fd5b50813567ffffffffffffffff811115612c5557600080fd5b602083019150836020828501011115612c6d57600080fd5b9250929050565b600080600080600080600080600060c08a8c031215612c9257600080fd5b8935985060208a013567ffffffffffffffff80821115612cb157600080fd5b612cbd8d838e01612c2b565b909a50985060408c0135915080821115612cd657600080fd5b612ce28d838e01612c2b565b909850965060608c0135955060808c0135945060a08c0135915080821115612d0957600080fd5b50612d168c828d01612c2b565b915080935050809150509295985092959850929598565b6020815260006127a8602083018461293b565b8015158114610b6057600080fd5b80356129df81612d40565b60008060408385031215612d6c57600080fd5b823591506020830135612b6081612d40565b60008060408385031215612d9157600080fd5b50508035926020909101359150565b600080600080600080600060a0888a031215612dbb57600080fd5b873567ffffffffffffffff80821115612dd357600080fd5b818a0191508a601f830112612de757600080fd5b813581811115612df657600080fd5b8b60208260051b8501011115612e0b57600080fd5b602092830199509750908901359080821115612e2657600080fd5b50612e338a828b01612c2b565b9096509450612e469050604089016129d4565b9250612e54606089016129d4565b9150612e6260808901612d4e565b905092959891949750929550565b60008060008060608587031215612e8657600080fd5b843567ffffffffffffffff811115612e9d57600080fd5b612ea987828801612c2b565b9095509350506020850135612ebd816129bf565b91506040850135612ecd816129bf565b939692955090935050565b600181811c90821680612eec57607f821691505b60208210811415612f0d57634e487b7160e01b600052602260045260246000fd5b50919050565b634e487b7160e01b600052601160045260246000fd5b600082821015612f3b57612f3b612f13565b500390565b600060208284031215612f5257600080fd5b81516127a881612d40565b60008219821115612f7057612f70612f13565b500190565b600060208284031215612f8757600080fd5b815167ffffffffffffffff811115612f9e57600080fd5b8201601f81018413612faf57600080fd5b8051612fbd612a7e82612a48565b818152856020838501011115612fd257600080fd5b611e7782602083016020860161290f565b634e487b7160e01b600052603260045260246000fd5b6000808335601e1984360301811261301057600080fd5b83018035915067ffffffffffffffff82111561302b57600080fd5b602001915036819003821315612c6d57600080fd5b600060001982141561305457613054612f13565b5060010190565b81835281816020850137506000828201602090810191909152601f909101601f19169091010190565b6020815260006109da60208301848661305b565b6000602082840312156130aa57600080fd5b5051919050565b6060815260006130c560608301868861305b565b6001600160a01b039485166020840152929093166040909101529392505050565b600083516130f881846020880161290f565b83519083019061310c81836020880161290f565b01949350505050565b6000806040838503121561312857600080fd5b8251613133816129bf565b6020840151909250612b60816129bf565b600081600019048311821515161561315e5761315e612f13565b500290565b60008261318057634e487b7160e01b600052601260045260246000fd5b500490565b60006020828403121561319757600080fd5b81516127a8816129bf565b600082516131b481846020870161290f565b919091019291505056fe416464726573733a206c6f772d6c6576656c2064656c65676174652063616c6c206661696c6564a264697066735822122070bc3d2f611ea8551e92970a4d8752abbbcf9db7513e3492faee2606598cfa6464736f6c634300080c0033",
  "linkReferences": {},
  "deployedLinkReferences": {}
}