{
  "_format": "hh-sol-artifact-1",
  "contractName": "ETS",
  "sourceName": "contracts/core/ETS.sol",
  "abi": [
    {
      "anonymous": false,
      "inputs": [
        {
          "indexed": false,
          "internalType": "contract ETSAccessControls",
          "name": "previousAccessControls",
          "type": "address"
        },
        {
          "indexed": false,
          "internalType": "contract ETSAccessControls",
          "name": "newAccessControls",
          "type": "address"
        }
      ],
      "name": "AccessControlsUpdated",
      "type": "event"
    },
    {
      "anonymous": false,
      "inputs": [
        {
          "indexed": false,
          "internalType": "address",
          "name": "previousAdmin",
          "type": "address"
        },
        {
          "indexed": false,
          "internalType": "address",
          "name": "newAdmin",
          "type": "address"
        }
      ],
      "name": "AdminChanged",
      "type": "event"
    },
    {
      "anonymous": false,
      "inputs": [
        {
          "indexed": true,
          "internalType": "address",
          "name": "beacon",
          "type": "address"
        }
      ],
      "name": "BeaconUpgraded",
      "type": "event"
    },
    {
      "anonymous": false,
      "inputs": [
        {
          "indexed": false,
          "internalType": "contract ETSEnsure",
          "name": "previousETSEnsure",
          "type": "address"
        },
        {
          "indexed": false,
          "internalType": "contract ETSEnsure",
          "name": "newETSEnsure",
          "type": "address"
        }
      ],
      "name": "ETSEnsureUpdated",
      "type": "event"
    },
    {
      "anonymous": false,
      "inputs": [
        {
          "indexed": true,
          "internalType": "address",
          "name": "who",
          "type": "address"
        },
        {
          "indexed": false,
          "internalType": "uint256",
          "name": "amount",
          "type": "uint256"
        }
      ],
      "name": "FundsWithdrawn",
      "type": "event"
    },
    {
      "anonymous": false,
      "inputs": [
        {
          "indexed": false,
          "internalType": "uint256",
          "name": "platformPercentage",
          "type": "uint256"
        },
        {
          "indexed": false,
          "internalType": "uint256",
          "name": "publisherPercentage",
          "type": "uint256"
        },
        {
          "indexed": false,
          "internalType": "uint256",
          "name": "remainingPercentage",
          "type": "uint256"
        }
      ],
      "name": "PercentagesSet",
      "type": "event"
    },
    {
      "anonymous": false,
      "inputs": [
        {
          "indexed": false,
          "internalType": "uint256",
          "name": "nftChainId",
          "type": "uint256"
        },
        {
          "indexed": false,
          "internalType": "bool",
          "name": "setting",
          "type": "bool"
        }
      ],
      "name": "PermittedNftChainIdSet",
      "type": "event"
    },
    {
      "anonymous": false,
      "inputs": [
        {
          "indexed": false,
          "internalType": "uint256",
          "name": "targetId",
          "type": "uint256"
        }
      ],
      "name": "RequestEnsureTarget",
      "type": "event"
    },
    {
      "anonymous": false,
      "inputs": [
        {
          "indexed": false,
          "internalType": "uint256",
          "name": "previousFee",
          "type": "uint256"
        },
        {
          "indexed": false,
          "internalType": "uint256",
          "name": "taggingFee",
          "type": "uint256"
        }
      ],
      "name": "TaggingFeeSet",
      "type": "event"
    },
    {
      "anonymous": false,
      "inputs": [
        {
          "indexed": false,
          "internalType": "uint256",
          "name": "targetId",
          "type": "uint256"
        }
      ],
      "name": "TargetCreated",
      "type": "event"
    },
    {
      "anonymous": false,
      "inputs": [
        {
          "indexed": false,
          "internalType": "uint256",
          "name": "taggingId",
          "type": "uint256"
        }
      ],
      "name": "TargetTagged",
      "type": "event"
    },
    {
      "anonymous": false,
      "inputs": [
        {
          "indexed": false,
          "internalType": "string",
          "name": "typeName",
          "type": "string"
        },
        {
          "indexed": false,
          "internalType": "bool",
          "name": "setting",
          "type": "bool"
        }
      ],
      "name": "TargetTypeSet",
      "type": "event"
    },
    {
      "anonymous": false,
      "inputs": [
        {
          "indexed": false,
          "internalType": "uint256",
          "name": "targetId",
          "type": "uint256"
        }
      ],
      "name": "TargetUpdated",
      "type": "event"
    },
    {
      "anonymous": false,
      "inputs": [
        {
          "indexed": true,
          "internalType": "address",
          "name": "implementation",
          "type": "address"
        }
      ],
      "name": "Upgraded",
      "type": "event"
    },
    {
      "inputs": [],
      "name": "NAME",
      "outputs": [
        {
          "internalType": "string",
          "name": "",
          "type": "string"
        }
      ],
      "stateMutability": "view",
      "type": "function"
    },
    {
      "inputs": [],
      "name": "VERSION",
      "outputs": [
        {
          "internalType": "string",
          "name": "",
          "type": "string"
        }
      ],
      "stateMutability": "view",
      "type": "function"
    },
    {
      "inputs": [],
      "name": "accessControls",
      "outputs": [
        {
          "internalType": "contract ETSAccessControls",
          "name": "",
          "type": "address"
        }
      ],
      "stateMutability": "view",
      "type": "function"
    },
    {
      "inputs": [
        {
          "internalType": "address",
          "name": "",
          "type": "address"
        }
      ],
      "name": "accrued",
      "outputs": [
        {
          "internalType": "uint256",
          "name": "",
          "type": "uint256"
        }
      ],
      "stateMutability": "view",
      "type": "function"
    },
    {
      "inputs": [
        {
          "internalType": "string",
          "name": "_targetType",
          "type": "string"
        },
        {
          "internalType": "string",
          "name": "_targetURI",
          "type": "string"
        }
      ],
      "name": "createTarget",
      "outputs": [
        {
          "internalType": "uint256",
          "name": "targetId",
          "type": "uint256"
        }
      ],
      "stateMutability": "nonpayable",
      "type": "function"
    },
    {
      "inputs": [
        {
          "internalType": "address payable",
          "name": "_account",
          "type": "address"
        }
      ],
      "name": "drawDown",
      "outputs": [],
      "stateMutability": "nonpayable",
      "type": "function"
    },
    {
      "inputs": [],
      "name": "etsEnsure",
      "outputs": [
        {
          "internalType": "contract ETSEnsure",
          "name": "",
          "type": "address"
        }
      ],
      "stateMutability": "view",
      "type": "function"
    },
    {
      "inputs": [],
      "name": "etsTag",
      "outputs": [
        {
          "internalType": "contract ETSTag",
          "name": "",
          "type": "address"
        }
      ],
      "stateMutability": "view",
      "type": "function"
    },
    {
      "inputs": [
        {
          "internalType": "string",
          "name": "_tagString",
          "type": "string"
        },
        {
          "internalType": "address payable",
          "name": "_publisher",
          "type": "address"
        },
        {
          "internalType": "address",
          "name": "_tagger",
          "type": "address"
        }
      ],
      "name": "getOrCreateTagId",
      "outputs": [
        {
          "internalType": "uint256",
          "name": "etstagId",
          "type": "uint256"
        }
      ],
      "stateMutability": "payable",
      "type": "function"
    },
    {
      "inputs": [
        {
          "internalType": "uint256",
          "name": "_nftChainId",
          "type": "uint256"
        }
      ],
      "name": "getPermittedNftChainId",
      "outputs": [
        {
          "internalType": "bool",
          "name": "",
          "type": "bool"
        }
      ],
      "stateMutability": "view",
      "type": "function"
    },
    {
      "inputs": [
        {
          "internalType": "uint256",
          "name": "_taggingId",
          "type": "uint256"
        }
      ],
      "name": "getTaggingRecord",
      "outputs": [
        {
          "internalType": "uint256[]",
          "name": "_etsTagIds",
          "type": "uint256[]"
        },
        {
          "internalType": "uint256",
          "name": "_targetId",
          "type": "uint256"
        },
        {
          "internalType": "address",
          "name": "_tagger",
          "type": "address"
        },
        {
          "internalType": "address",
          "name": "_publisher",
          "type": "address"
        },
        {
          "internalType": "address",
          "name": "_sponsor",
          "type": "address"
        }
      ],
      "stateMutability": "view",
      "type": "function"
    },
    {
      "inputs": [
        {
          "internalType": "string",
          "name": "_targetType",
          "type": "string"
        },
        {
          "internalType": "string",
          "name": "_targetURI",
          "type": "string"
        }
      ],
      "name": "getTargetId",
      "outputs": [
        {
          "internalType": "uint256",
          "name": "targetId",
          "type": "uint256"
        }
      ],
      "stateMutability": "nonpayable",
      "type": "function"
    },
    {
      "inputs": [
        {
          "internalType": "contract ETSAccessControls",
          "name": "_accessControls",
          "type": "address"
        },
        {
          "internalType": "contract ETSTag",
          "name": "_etsTag",
          "type": "address"
        }
      ],
      "name": "initialize",
      "outputs": [],
      "stateMutability": "nonpayable",
      "type": "function"
    },
    {
      "inputs": [],
      "name": "modulo",
      "outputs": [
        {
          "internalType": "uint256",
          "name": "",
          "type": "uint256"
        }
      ],
      "stateMutability": "view",
      "type": "function"
    },
    {
      "inputs": [
        {
          "internalType": "address",
          "name": "",
          "type": "address"
        }
      ],
      "name": "paid",
      "outputs": [
        {
          "internalType": "uint256",
          "name": "",
          "type": "uint256"
        }
      ],
      "stateMutability": "view",
      "type": "function"
    },
    {
      "inputs": [
        {
          "internalType": "uint256",
          "name": "",
          "type": "uint256"
        }
      ],
      "name": "permittedNftChainIds",
      "outputs": [
        {
          "internalType": "bool",
          "name": "",
          "type": "bool"
        }
      ],
      "stateMutability": "view",
      "type": "function"
    },
    {
      "inputs": [],
      "name": "platformPercentage",
      "outputs": [
        {
          "internalType": "uint256",
          "name": "",
          "type": "uint256"
        }
      ],
      "stateMutability": "view",
      "type": "function"
    },
    {
      "inputs": [],
      "name": "publisherPercentage",
      "outputs": [
        {
          "internalType": "uint256",
          "name": "",
          "type": "uint256"
        }
      ],
      "stateMutability": "view",
      "type": "function"
    },
    {
      "inputs": [],
      "name": "remainingPercentage",
      "outputs": [
        {
          "internalType": "uint256",
          "name": "",
          "type": "uint256"
        }
      ],
      "stateMutability": "view",
      "type": "function"
    },
    {
      "inputs": [
        {
          "internalType": "uint256",
          "name": "_nftChainId",
          "type": "uint256"
        },
        {
          "internalType": "bool",
          "name": "_setting",
          "type": "bool"
        }
      ],
      "name": "setPermittedNftChainId",
      "outputs": [],
      "stateMutability": "nonpayable",
      "type": "function"
    },
    {
      "inputs": [
        {
          "internalType": "uint256",
          "name": "_fee",
          "type": "uint256"
        }
      ],
      "name": "setTaggingFee",
      "outputs": [],
      "stateMutability": "nonpayable",
      "type": "function"
    },
    {
      "inputs": [
        {
          "internalType": "string[]",
          "name": "_tagStrings",
          "type": "string[]"
        },
        {
          "internalType": "string",
          "name": "_targetURI",
          "type": "string"
        },
        {
          "internalType": "address payable",
          "name": "_publisher",
          "type": "address"
        },
        {
          "internalType": "address",
          "name": "_tagger",
          "type": "address"
        },
        {
          "internalType": "address",
          "name": "_sponsor",
          "type": "address"
        },
        {
          "internalType": "bool",
          "name": "_ensure",
          "type": "bool"
        }
      ],
      "name": "tagTarget",
      "outputs": [],
      "stateMutability": "payable",
      "type": "function"
    },
    {
      "inputs": [],
      "name": "taggingCounter",
      "outputs": [
        {
          "internalType": "uint256",
          "name": "",
          "type": "uint256"
        }
      ],
      "stateMutability": "view",
      "type": "function"
    },
    {
      "inputs": [],
      "name": "taggingFee",
      "outputs": [
        {
          "internalType": "uint256",
          "name": "",
          "type": "uint256"
        }
      ],
      "stateMutability": "view",
      "type": "function"
    },
    {
      "inputs": [
        {
          "internalType": "uint256",
          "name": "",
          "type": "uint256"
        }
      ],
      "name": "taggingRecords",
      "outputs": [
        {
          "internalType": "uint256",
          "name": "targetId",
          "type": "uint256"
        },
        {
          "internalType": "address",
          "name": "tagger",
          "type": "address"
        },
        {
          "internalType": "address",
          "name": "publisher",
          "type": "address"
        },
        {
          "internalType": "address",
          "name": "sponsor",
          "type": "address"
        }
      ],
      "stateMutability": "view",
      "type": "function"
    },
    {
      "inputs": [
        {
          "internalType": "uint256",
          "name": "targetId",
          "type": "uint256"
        }
      ],
      "name": "targetExists",
      "outputs": [
        {
          "internalType": "bool",
          "name": "",
          "type": "bool"
        }
      ],
      "stateMutability": "view",
      "type": "function"
    },
    {
      "inputs": [
        {
          "internalType": "uint256",
          "name": "",
          "type": "uint256"
        }
      ],
      "name": "targets",
      "outputs": [
        {
          "internalType": "string",
          "name": "targetType",
          "type": "string"
        },
        {
          "internalType": "string",
          "name": "targetURI",
          "type": "string"
        },
        {
          "internalType": "uint256",
          "name": "created",
          "type": "uint256"
        },
        {
          "internalType": "uint256",
          "name": "lastEnsured",
          "type": "uint256"
        },
        {
          "internalType": "uint256",
          "name": "status",
          "type": "uint256"
        },
        {
          "internalType": "string",
          "name": "ipfsHash",
          "type": "string"
        }
      ],
      "stateMutability": "view",
      "type": "function"
    },
    {
      "inputs": [
        {
          "internalType": "address",
          "name": "_account",
          "type": "address"
        }
      ],
      "name": "totalDue",
      "outputs": [
        {
          "internalType": "uint256",
          "name": "_due",
          "type": "uint256"
        }
      ],
      "stateMutability": "view",
      "type": "function"
    },
    {
      "inputs": [
        {
          "internalType": "contract ETSAccessControls",
          "name": "_accessControls",
          "type": "address"
        }
      ],
      "name": "updateAccessControls",
      "outputs": [],
      "stateMutability": "nonpayable",
      "type": "function"
    },
    {
      "inputs": [
        {
          "internalType": "contract ETSEnsure",
          "name": "_etsEnsure",
          "type": "address"
        }
      ],
      "name": "updateETSEnsure",
      "outputs": [],
      "stateMutability": "nonpayable",
      "type": "function"
    },
    {
      "inputs": [
        {
          "internalType": "uint256",
          "name": "_platformPercentage",
          "type": "uint256"
        },
        {
          "internalType": "uint256",
          "name": "_publisherPercentage",
          "type": "uint256"
        }
      ],
      "name": "updatePercentages",
      "outputs": [],
      "stateMutability": "nonpayable",
      "type": "function"
    },
    {
      "inputs": [
        {
          "internalType": "uint256",
          "name": "_targetId",
          "type": "uint256"
        },
        {
          "internalType": "string",
          "name": "_targetType",
          "type": "string"
        },
        {
          "internalType": "string",
          "name": "_targetURI",
          "type": "string"
        },
        {
          "internalType": "uint256",
          "name": "_lastEnsured",
          "type": "uint256"
        },
        {
          "internalType": "uint256",
          "name": "_status",
          "type": "uint256"
        },
        {
          "internalType": "string",
          "name": "_ipfsHash",
          "type": "string"
        }
      ],
      "name": "updateTarget",
      "outputs": [
        {
          "internalType": "bool",
          "name": "success",
          "type": "bool"
        }
      ],
      "stateMutability": "nonpayable",
      "type": "function"
    },
    {
      "inputs": [
        {
          "internalType": "address",
          "name": "newImplementation",
          "type": "address"
        }
      ],
      "name": "upgradeTo",
      "outputs": [],
      "stateMutability": "nonpayable",
      "type": "function"
    },
    {
      "inputs": [
        {
          "internalType": "address",
          "name": "newImplementation",
          "type": "address"
        },
        {
          "internalType": "bytes",
          "name": "data",
          "type": "bytes"
        }
      ],
      "name": "upgradeToAndCall",
      "outputs": [],
      "stateMutability": "payable",
      "type": "function"
    },
    {
      "inputs": [],
      "name": "version",
      "outputs": [
        {
          "internalType": "string",
          "name": "",
          "type": "string"
        }
      ],
      "stateMutability": "pure",
      "type": "function"
    }
  ],
  "bytecode": "0x60a06040523060805234801561001457600080fd5b5060805161324f610045600039600081816109ee01528181610a7801528181610c880152610d0d015261324f6000f3fe6080604052600436106102345760003560e01c8063748365ef11610138578063c2062005116100b0578063e88b772c1161007f578063fe52656f11610064578063fe52656f14610729578063fed6c2e91461073f578063ffa1ad741461075257600080fd5b8063e88b772c146106f3578063f8bc3cc61461070957600080fd5b8063c206200514610680578063c20d2295146106a0578063d64f55c9146106c0578063e16ee5a3146106d357600080fd5b8063a3f4df7e11610107578063b148440f116100ec578063b148440f14610613578063b205f80814610640578063b7d0e7dd1461066057600080fd5b8063a3f4df7e146105aa578063a97dda40146105f357600080fd5b8063748365ef1461050f5780637e2e4c5214610547578063962ed2321461055d578063a340cf791461057d57600080fd5b8063337ccf9d116101cb578063501a323a1161019a57806354fd4d501161017f57806354fd4d50146104355780636ef3da941461046c57806374716c811461048c57600080fd5b8063501a323a146103e4578063507f3ba11461041557600080fd5b8063337ccf9d146103795780633659cfe61461038f578063485cc955146103b15780634f1ef286146103d157600080fd5b80631797df59116102075780631797df59146102ee5780631f7418971461031e578063200e06af14610334578063297452621461036457600080fd5b80630477fe28146102395780630a39ce021461026e5780630ad2f0c3146102a0578063146da5c4146102ce575b600080fd5b34801561024557600080fd5b50610259610254366004612916565b610783565b60405190151581526020015b60405180910390f35b34801561027a57600080fd5b5061028e610289366004612916565b6107a9565b60405161026596959493929190612987565b3480156102ac57600080fd5b506102c06102bb366004612a04565b610975565b604051908152602001610265565b3480156102da57600080fd5b506102c06102e9366004612aee565b6109a3565b3480156102fa57600080fd5b50610259610309366004612916565b600090815260d3602052604090205460ff1690565b34801561032a57600080fd5b506102c060cc5481565b34801561034057600080fd5b5061025961034f366004612916565b60d36020526000908152604090205460ff1681565b34801561037057600080fd5b506102c0606481565b34801561038557600080fd5b506102c060ce5481565b34801561039b57600080fd5b506103af6103aa366004612a04565b6109e3565b005b3480156103bd57600080fd5b506103af6103cc366004612b52565b610b64565b6103af6103df366004612b8b565b610c7d565b3480156103f057600080fd5b506104046103ff366004612916565b610dea565b604051610265959493929190612be5565b34801561042157600080fd5b50610259610430366004612c98565b610e90565b34801561044157600080fd5b50604080518082019091526005815264302e302e3160d81b60208201525b6040516102659190612d51565b34801561047857600080fd5b506103af610487366004612a04565b610f35565b34801561049857600080fd5b506104e06104a7366004612916565b60d460205260009081526040902060018101546002820154600383015460049093015491926001600160a01b0391821692908216911684565b604080519485526001600160a01b03938416602086015291831691840191909152166060820152608001610265565b34801561051b57600080fd5b5060c95461052f906001600160a01b031681565b6040516001600160a01b039091168152602001610265565b34801561055357600080fd5b506102c060cd5481565b34801561056957600080fd5b506103af610578366004612916565b6110d0565b34801561058957600080fd5b506102c0610598366004612a04565b60d26020526000908152604090205481565b3480156105b657600080fd5b5061045f6040518060400160405280600881526020017f45545320436f726500000000000000000000000000000000000000000000000081525081565b3480156105ff57600080fd5b506103af61060e366004612d7d565b6111cb565b34801561061f57600080fd5b506102c061062e366004612a04565b60d16020526000908152604090205481565b34801561064c57600080fd5b506103af61065b366004612a04565b6112da565b34801561066c57600080fd5b5060cb5461052f906001600160a01b031681565b34801561068c57600080fd5b506103af61069b366004612a04565b61146d565b3480156106ac57600080fd5b506103af6106bb366004612da2565b6115c3565b6103af6106ce366004612dc4565b61176a565b3480156106df57600080fd5b506102c06106ee366004612aee565b611c5f565b3480156106ff57600080fd5b506102c060cf5481565b34801561071557600080fd5b5060ca5461052f906001600160a01b031681565b34801561073557600080fd5b506102c060d05481565b6102c061074d366004612ea4565b611d59565b34801561075e57600080fd5b5061045f60405180604001604052806005815260200164302e302e3160d81b81525081565b600081815260d560205260408120600201546107a05760006107a3565b60015b92915050565b60d5602052600090815260409020805481906107c490612f0c565b80601f01602080910402602001604051908101604052809291908181526020018280546107f090612f0c565b801561083d5780601f106108125761010080835404028352916020019161083d565b820191906000526020600020905b81548152906001019060200180831161082057829003601f168201915b50505050509080600101805461085290612f0c565b80601f016020809104026020016040519081016040528092919081815260200182805461087e90612f0c565b80156108cb5780601f106108a0576101008083540402835291602001916108cb565b820191906000526020600020905b8154815290600101906020018083116108ae57829003601f168201915b5050505050908060020154908060030154908060040154908060050180546108f290612f0c565b80601f016020809104026020016040519081016040528092919081815260200182805461091e90612f0c565b801561096b5780601f106109405761010080835404028352916020019161096b565b820191906000526020600020905b81548152906001019060200180831161094e57829003601f168201915b5050505050905086565b6001600160a01b038116600090815260d2602090815260408083205460d19092528220546107a39190612f5d565b6000806109b08484611e8f565b600081815260d56020526040902060020154909150156109d15790506107a3565b6109db8484611c5f565b949350505050565b306001600160a01b037f0000000000000000000000000000000000000000000000000000000000000000161415610a765760405162461bcd60e51b815260206004820152602c60248201527f46756e6374696f6e206d7573742062652063616c6c6564207468726f7567682060448201526b19195b1959d85d1958d85b1b60a21b60648201526084015b60405180910390fd5b7f00000000000000000000000000000000000000000000000000000000000000006001600160a01b0316610ad17f360894a13ba1a3210667c828492db98dca3e2076cc3735a920a3ca505d382bbc546001600160a01b031690565b6001600160a01b031614610b3c5760405162461bcd60e51b815260206004820152602c60248201527f46756e6374696f6e206d7573742062652063616c6c6564207468726f7567682060448201526b6163746976652070726f787960a01b6064820152608401610a6d565b610b4581611ec5565b60408051600080825260208201909252610b6191839190611f82565b50565b600054610100900460ff16610b7f5760005460ff1615610b83565b303b155b610bf55760405162461bcd60e51b815260206004820152602e60248201527f496e697469616c697a61626c653a20636f6e747261637420697320616c72656160448201527f647920696e697469616c697a65640000000000000000000000000000000000006064820152608401610a6d565b600054610100900460ff16158015610c17576000805461ffff19166101011790555b60c980546001600160a01b038086166001600160a01b03199283161790925560ca805492851692909116919091179055600060cf5566038d7ea4c6800060d055601460cc55601e60cd55603260ce558015610c78576000805461ff00191690555b505050565b306001600160a01b037f0000000000000000000000000000000000000000000000000000000000000000161415610d0b5760405162461bcd60e51b815260206004820152602c60248201527f46756e6374696f6e206d7573742062652063616c6c6564207468726f7567682060448201526b19195b1959d85d1958d85b1b60a21b6064820152608401610a6d565b7f00000000000000000000000000000000000000000000000000000000000000006001600160a01b0316610d667f360894a13ba1a3210667c828492db98dca3e2076cc3735a920a3ca505d382bbc546001600160a01b031690565b6001600160a01b031614610dd15760405162461bcd60e51b815260206004820152602c60248201527f46756e6374696f6e206d7573742062652063616c6c6564207468726f7567682060448201526b6163746976652070726f787960a01b6064820152608401610a6d565b610dda82611ec5565b610de682826001611f82565b5050565b600081815260d46020908152604080832060018101546002820154600383015460048401548454865181890281018901909752808752606098978897889788979096879691956001600160a01b039182169592821694911692918791830182828015610e7557602002820191906000526020600020905b815481526020019060010190808311610e61575b50505050509450955095509550955095505091939590929450565b600089815260d560205260408120610ea9908a8a6127cf565b5060008a815260d560205260409020610ec69060010188886127cf565b5060008a815260d5602052604090206003810186905560048101859055610ef19060050184846127cf565b506040518a81527f9d29e5045b411bb06d81d8ff11c828d9f1d7eb076eec9ca45eda49fc99f762b29060200160405180910390a15060019998505050505050505050565b60c9546001600160a01b03166324d7806c336040516001600160e01b031960e084901b1681526001600160a01b039091166004820152602401602060405180830381865afa158015610f8b573d6000803e3d6000fd5b505050506040513d601f19601f82011682018060405250810190610faf9190612f74565b610ff25760405162461bcd60e51b815260206004820152601460248201527321b0b63632b91036bab9ba1031329030b236b4b760611b6044820152606401610a6d565b6001600160a01b03811661106e5760405162461bcd60e51b815260206004820152602860248201527f4554532e757064617465416363657373436f6e74726f6c733a2043616e6e6f7460448201527f206265207a65726f0000000000000000000000000000000000000000000000006064820152608401610a6d565b60c980546001600160a01b038381166001600160a01b031983168117909355604080519190921680825260208201939093527f31073599bfae2533a348dc816b0ce777b707aa9b67015ca2d86585e842b5c6e991015b60405180910390a15050565b60c9546001600160a01b03166324d7806c336040516001600160e01b031960e084901b1681526001600160a01b039091166004820152602401602060405180830381865afa158015611126573d6000803e3d6000fd5b505050506040513d601f19601f8201168201806040525081019061114a9190612f74565b61118d5760405162461bcd60e51b815260206004820152601460248201527321b0b63632b91036bab9ba1031329030b236b4b760611b6044820152606401610a6d565b60d080549082905560408051828152602081018490527f861fa8a0dab775faf9bcbb5388a02f7ac01181c036f5c57982464a2d75c3608e91016110c4565b60c9546001600160a01b03166324d7806c336040516001600160e01b031960e084901b1681526001600160a01b039091166004820152602401602060405180830381865afa158015611221573d6000803e3d6000fd5b505050506040513d601f19601f820116820180604052508101906112459190612f74565b6112885760405162461bcd60e51b815260206004820152601460248201527321b0b63632b91036bab9ba1031329030b236b4b760611b6044820152606401610a6d565b600082815260d36020908152604091829020805460ff19168415159081179091558251858152918201527f9a1b1e3722de574f6867ada1474b42b28458b0d93fc376664c96cb084b92118191016110c4565b60c9546001600160a01b03166324d7806c336040516001600160e01b031960e084901b1681526001600160a01b039091166004820152602401602060405180830381865afa158015611330573d6000803e3d6000fd5b505050506040513d601f19601f820116820180604052508101906113549190612f74565b6113975760405162461bcd60e51b815260206004820152601460248201527321b0b63632b91036bab9ba1031329030b236b4b760611b6044820152606401610a6d565b6001600160a01b0381166114135760405162461bcd60e51b815260206004820152602360248201527f4554532e757064617465455453456e737572653a2043616e6e6f74206265207a60448201527f65726f00000000000000000000000000000000000000000000000000000000006064820152608401610a6d565b60cb80546001600160a01b038381166001600160a01b031983168117909355604080519190921680825260208201939093527fee20190c374934660675d28472968e002fc4af227f2956f59085225ad89239fa91016110c4565b600260335414156114c05760405162461bcd60e51b815260206004820152601f60248201527f5265656e7472616e637947756172643a207265656e7472616e742063616c6c006044820152606401610a6d565b60026033556001600160a01b038116600090815260d2602090815260408083205460d19092528220546114f39190612f5d565b90506000811180156115055750478111155b156115ba576001600160a01b038216600090815260d2602052604090205461152e908290612f91565b6001600160a01b038316600081815260d26020526040808220939093559151909183156108fc02918491818181858888f19350505050158015611575573d6000803e3d6000fd5b50816001600160a01b03167feaff4b37086828766ad3268786972c0cd24259d4c87a80f9d3963a3c3d999b0d826040516115b191815260200190565b60405180910390a25b50506001603355565b60c9546001600160a01b03166324d7806c336040516001600160e01b031960e084901b1681526001600160a01b039091166004820152602401602060405180830381865afa158015611619573d6000803e3d6000fd5b505050506040513d601f19601f8201168201806040525081019061163d9190612f74565b6116805760405162461bcd60e51b815260206004820152601460248201527321b0b63632b91036bab9ba1031329030b236b4b760611b6044820152606401610a6d565b606461168c8284612f91565b11156117005760405162461bcd60e51b815260206004820152603760248201527f4554532e75706461746550657263656e74616765733a2070657263656e74616760448201527f6573206d757374206e6f74206265206f766572203130300000000000000000006064820152608401610a6d565b60cc82905560cd81905580611716836064612f5d565b6117209190612f5d565b60ce81905560cc5460cd546040805192835260208301919091528101919091527f78c1b0567e296aa5eef70ad2deee29f35e0dd128cac603be855ece3e823f4308906060016110c4565b600260335414156117bd5760405162461bcd60e51b815260206004820152601f60248201527f5265656e7472616e637947756172643a207265656e7472616e742063616c6c006044820152606401610a6d565b600260335560c9546040517f2b04fd440000000000000000000000000000000000000000000000000000000081523360048201526001600160a01b0390911690632b04fd4490602401602060405180830381865afa158015611823573d6000803e3d6000fd5b505050506040513d601f19601f820116820180604052508101906118479190612f74565b6118935760405162461bcd60e51b815260206004820152601060248201527f4f6e6c79207461726765742074797065000000000000000000000000000000006044820152606401610a6d565b60c9546040517f41859ac80000000000000000000000000000000000000000000000000000000081526001600160a01b038681166004830152909116906341859ac890602401602060405180830381865afa1580156118f6573d6000803e3d6000fd5b505050506040513d601f19601f8201168201806040525081019061191a9190612f74565b61198c5760405162461bcd60e51b815260206004820152602660248201527f5461673a20546865207075626c6973686572206d75737420626520776869746560448201527f6c697374656400000000000000000000000000000000000000000000000000006064820152608401610a6d565b86806119da5760405162461bcd60e51b815260206004820152601760248201527f4e6f2074616720737472696e677320737570706c6965640000000000000000006044820152606401610a6d565b8060d0546119e89190612fa9565b3414611a365760405162461bcd60e51b815260206004820152601a60248201527f5461673a20596f75206d7573742073656e6420746865206665650000000000006044820152606401610a6d565b60c9546040517fa88ae5b6000000000000000000000000000000000000000000000000000000008152336004820152600091611b02916001600160a01b039091169063a88ae5b690602401600060405180830381865afa158015611a9e573d6000803e3d6000fd5b505050506040513d6000823e601f3d908101601f19168201604052611ac69190810190612fc8565b89898080601f0160208091040260200160405190810160405280939291908181526020018383808284376000920191909152506109a392505050565b905060008267ffffffffffffffff811115611b1f57611b1f612a21565b604051908082528060200260200182016040528015611b48578160200160208202803683370190505b50905060005b83811015611bc1576000611b868d8d84818110611b6d57611b6d613036565b9050602002810190611b7f919061304c565b8b8b611d59565b9050611b92818a612146565b80838381518110611ba557611ba5613036565b602090810291909101015250611bba81613093565b9050611b4e565b508315611c405760cb546040517f177f2fb5000000000000000000000000000000000000000000000000000000008152600481018490526001600160a01b039091169063177f2fb590602401600060405180830381600087803b158015611c2757600080fd5b505af1158015611c3b573d6000803e3d6000fd5b505050505b611c4d8183898989612485565b50506001603355505050505050505050565b600080611c6c8484611e8f565b6040805160c08101825286815260208082018790524282840152600060608301819052608083018190528351808301855281815260a084015284815260d58252929092208151805194955091939092611cc9928492910190612853565b506020828101518051611ce29260018501920190612853565b5060408201516002820155606082015160038201556080820151600482015560a08201518051611d1c916005840191602090910190612853565b50506040518281527f503a6e6145f2d2a2a9b0845c2193aef653400c52f93b1c897bd55d36a396be7c915060200160405180910390a19392505050565b60ca546040517f04befefd00000000000000000000000000000000000000000000000000000000815260009182916001600160a01b03909116906304befefd90611da990899089906004016130d7565b602060405180830381865afa158015611dc6573d6000803e3d6000fd5b505050506040513d601f19601f82011682018060405250810190611dea91906130eb565b905080611e865760ca546040517f7e6d945e0000000000000000000000000000000000000000000000000000000081526001600160a01b0390911690637e6d945e90611e40908990899089908990600401613104565b6020604051808303816000875af1158015611e5f573d6000803e3d6000fd5b505050506040513d601f19601f82011682018060405250810190611e8391906130eb565b90505b95945050505050565b6000808383604051602001611ea5929190613139565b60408051808303601f190181529190528051602090910120949350505050565b60c9546001600160a01b03166324d7806c336040516001600160e01b031960e084901b1681526001600160a01b039091166004820152602401602060405180830381865afa158015611f1b573d6000803e3d6000fd5b505050506040513d601f19601f82011682018060405250810190611f3f9190612f74565b610b615760405162461bcd60e51b815260206004820152601460248201527321b0b63632b91036bab9ba1031329030b236b4b760611b6044820152606401610a6d565b6000611fb57f360894a13ba1a3210667c828492db98dca3e2076cc3735a920a3ca505d382bbc546001600160a01b031690565b9050611fc0846125a1565b600083511180611fcd5750815b15611fde57611fdc8484612656565b505b7f4910fdfa16fed3260ed0e7147f7cc6da11a60208b5b9406d12a635614ffd9143805460ff1661213f57805460ff191660011781556040516001600160a01b038316602482015261208b90869060440160408051601f198184030181529190526020810180517bffffffffffffffffffffffffffffffffffffffffffffffffffffffff167f3659cfe600000000000000000000000000000000000000000000000000000000179052612656565b50805460ff191681557f360894a13ba1a3210667c828492db98dca3e2076cc3735a920a3ca505d382bbc546001600160a01b038381169116146121365760405162461bcd60e51b815260206004820152602f60248201527f45524331393637557067726164653a207570677261646520627265616b73206660448201527f75727468657220757067726164657300000000000000000000000000000000006064820152608401610a6d565b61213f8561274f565b5050505050565b60ca546040517f878327ab0000000000000000000000000000000000000000000000000000000081526004810184905260009182916001600160a01b039091169063878327ab906024016040805180830381865afa1580156121ac573d6000803e3d6000fd5b505050506040513d601f19601f820116820180604052508101906121d09190613168565b91509150816001600160a01b0316816001600160a01b0316141561237c57606460cc54346121fe9190612fa9565b6122089190613197565b6001600160a01b038316600090815260d1602052604090205461222b9190612f91565b6001600160a01b038316600090815260d1602052604090205560cd546064906122549034612fa9565b61225e9190613197565b6001600160a01b038416600090815260d160205260409020546122819190612f91565b6001600160a01b03848116600090815260d160205260408082209390935560ca5492517fa30b4db90000000000000000000000000000000000000000000000000000000081526004810188905290929091169063a30b4db990602401602060405180830381865afa1580156122fa573d6000803e3d6000fd5b505050506040513d601f19601f8201168201806040525081019061231e91906131b9565b9050606460ce54346123309190612fa9565b61233a9190613197565b6001600160a01b038216600090815260d1602052604090205461235d9190612f91565b6001600160a01b03909116600090815260d1602052604090205561247f565b606460cc543461238c9190612fa9565b6123969190613197565b6001600160a01b038316600090815260d160205260409020546123b99190612f91565b6001600160a01b038316600090815260d1602052604090205560cd546064906123e29034612fa9565b6123ec9190613197565b6001600160a01b038416600090815260d1602052604090205461240f9190612f91565b6001600160a01b038416600090815260d1602052604090205560ce546064906124389034612fa9565b6124429190613197565b6001600160a01b038216600090815260d160205260409020546124659190612f91565b6001600160a01b038216600090815260d160205260409020555b50505050565b6040518060a00160405280868152602001858152602001836001600160a01b03168152602001846001600160a01b03168152602001826001600160a01b031681525060d4600060cf600081546124da90613093565b91829055508152602080820192909252604001600020825180519192612505928492909101906128c7565b5060208281015160018301556040808401516002840180546001600160a01b03199081166001600160a01b0393841617909155606086015160038601805483169184169190911790556080909501516004909401805490951693169290921790925560cf5490519081527f81b185c481377e520177bddb63bab2a8d220831d7c07b748c2baf29c6e607070910160405180910390a15050505050565b803b6126155760405162461bcd60e51b815260206004820152602d60248201527f455243313936373a206e657720696d706c656d656e746174696f6e206973206e60448201527f6f74206120636f6e7472616374000000000000000000000000000000000000006064820152608401610a6d565b7f360894a13ba1a3210667c828492db98dca3e2076cc3735a920a3ca505d382bbc80546001600160a01b0319166001600160a01b0392909216919091179055565b6060823b6126cc5760405162461bcd60e51b815260206004820152602660248201527f416464726573733a2064656c65676174652063616c6c20746f206e6f6e2d636f60448201527f6e747261637400000000000000000000000000000000000000000000000000006064820152608401610a6d565b600080846001600160a01b0316846040516126e791906131d6565b600060405180830381855af49150503d8060008114612722576040519150601f19603f3d011682016040523d82523d6000602084013e612727565b606091505b5091509150611e8682826040518060600160405280602781526020016131f36027913961278f565b612758816125a1565b6040516001600160a01b038216907fbc7cd75a20ee27fd9adebab32041f755214dbc6bffa90cc0225b39da2e5c2d3b90600090a250565b6060831561279e5750816127c8565b8251156127ae5782518084602001fd5b8160405162461bcd60e51b8152600401610a6d9190612d51565b9392505050565b8280546127db90612f0c565b90600052602060002090601f0160209004810192826127fd5760008555612843565b82601f106128165782800160ff19823516178555612843565b82800160010185558215612843579182015b82811115612843578235825591602001919060010190612828565b5061284f929150612901565b5090565b82805461285f90612f0c565b90600052602060002090601f0160209004810192826128815760008555612843565b82601f1061289a57805160ff1916838001178555612843565b82800160010185558215612843579182015b828111156128435782518255916020019190600101906128ac565b82805482825590600052602060002090810192821561284357916020028201828111156128435782518255916020019190600101906128ac565b5b8082111561284f5760008155600101612902565b60006020828403121561292857600080fd5b5035919050565b60005b8381101561294a578181015183820152602001612932565b8381111561247f5750506000910152565b6000815180845261297381602086016020860161292f565b601f01601f19169290920160200192915050565b60c08152600061299a60c083018961295b565b82810360208401526129ac818961295b565b905086604084015285606084015284608084015282810360a08401526129d2818561295b565b9998505050505050505050565b6001600160a01b0381168114610b6157600080fd5b80356129ff816129df565b919050565b600060208284031215612a1657600080fd5b81356127c8816129df565b634e487b7160e01b600052604160045260246000fd5b604051601f8201601f1916810167ffffffffffffffff81118282101715612a6057612a60612a21565b604052919050565b600067ffffffffffffffff821115612a8257612a82612a21565b50601f01601f191660200190565b6000612aa3612a9e84612a68565b612a37565b9050828152838383011115612ab757600080fd5b828260208301376000602084830101529392505050565b600082601f830112612adf57600080fd5b6127c883833560208501612a90565b60008060408385031215612b0157600080fd5b823567ffffffffffffffff80821115612b1957600080fd5b612b2586838701612ace565b93506020850135915080821115612b3b57600080fd5b50612b4885828601612ace565b9150509250929050565b60008060408385031215612b6557600080fd5b8235612b70816129df565b91506020830135612b80816129df565b809150509250929050565b60008060408385031215612b9e57600080fd5b8235612ba9816129df565b9150602083013567ffffffffffffffff811115612bc557600080fd5b8301601f81018513612bd657600080fd5b612b4885823560208401612a90565b60a0808252865190820181905260009060209060c0840190828a01845b82811015612c1e57815184529284019290840190600101612c02565b50505090830196909652506001600160a01b0393841660408201529183166060830152909116608090910152919050565b60008083601f840112612c6157600080fd5b50813567ffffffffffffffff811115612c7957600080fd5b602083019150836020828501011115612c9157600080fd5b9250929050565b600080600080600080600080600060c08a8c031215612cb657600080fd5b8935985060208a013567ffffffffffffffff80821115612cd557600080fd5b612ce18d838e01612c4f565b909a50985060408c0135915080821115612cfa57600080fd5b612d068d838e01612c4f565b909850965060608c0135955060808c0135945060a08c0135915080821115612d2d57600080fd5b50612d3a8c828d01612c4f565b915080935050809150509295985092959850929598565b6020815260006127c8602083018461295b565b8015158114610b6157600080fd5b80356129ff81612d64565b60008060408385031215612d9057600080fd5b823591506020830135612b8081612d64565b60008060408385031215612db557600080fd5b50508035926020909101359150565b60008060008060008060008060c0898b031215612de057600080fd5b883567ffffffffffffffff80821115612df857600080fd5b818b0191508b601f830112612e0c57600080fd5b813581811115612e1b57600080fd5b8c60208260051b8501011115612e3057600080fd5b60209283019a509850908a01359080821115612e4b57600080fd5b50612e588b828c01612c4f565b9097509550612e6b905060408a016129f4565b9350612e7960608a016129f4565b9250612e8760808a016129f4565b9150612e9560a08a01612d72565b90509295985092959890939650565b60008060008060608587031215612eba57600080fd5b843567ffffffffffffffff811115612ed157600080fd5b612edd87828801612c4f565b9095509350506020850135612ef1816129df565b91506040850135612f01816129df565b939692955090935050565b600181811c90821680612f2057607f821691505b60208210811415612f4157634e487b7160e01b600052602260045260246000fd5b50919050565b634e487b7160e01b600052601160045260246000fd5b600082821015612f6f57612f6f612f47565b500390565b600060208284031215612f8657600080fd5b81516127c881612d64565b60008219821115612fa457612fa4612f47565b500190565b6000816000190483118215151615612fc357612fc3612f47565b500290565b600060208284031215612fda57600080fd5b815167ffffffffffffffff811115612ff157600080fd5b8201601f8101841361300257600080fd5b8051613010612a9e82612a68565b81815285602083850101111561302557600080fd5b611e8682602083016020860161292f565b634e487b7160e01b600052603260045260246000fd5b6000808335601e1984360301811261306357600080fd5b83018035915067ffffffffffffffff82111561307e57600080fd5b602001915036819003821315612c9157600080fd5b60006000198214156130a7576130a7612f47565b5060010190565b81835281816020850137506000828201602090810191909152601f909101601f19169091010190565b6020815260006109db6020830184866130ae565b6000602082840312156130fd57600080fd5b5051919050565b6060815260006131186060830186886130ae565b6001600160a01b039485166020840152929093166040909101529392505050565b6000835161314b81846020880161292f565b83519083019061315f81836020880161292f565b01949350505050565b6000806040838503121561317b57600080fd5b8251613186816129df565b6020840151909250612b80816129df565b6000826131b457634e487b7160e01b600052601260045260246000fd5b500490565b6000602082840312156131cb57600080fd5b81516127c8816129df565b600082516131e881846020870161292f565b919091019291505056fe416464726573733a206c6f772d6c6576656c2064656c65676174652063616c6c206661696c6564a2646970667358221220cfac97e623836294473fdeb88f5d6f5e3873d65fb7857e9ca14480648c11a71164736f6c634300080c0033",
  "linkReferences": {},
  "deployedLinkReferences": {}
}