{
  "_format": "hh-sol-artifact-1",
  "contractName": "ETS",
  "sourceName": "contracts/core/ETS.sol",
  "abi": [
    {
      "anonymous": false,
      "inputs": [
        {
          "indexed": false,
          "internalType": "address",
          "name": "previousAccessControls",
          "type": "address"
        },
        {
          "indexed": false,
          "internalType": "address",
          "name": "newAccessControls",
          "type": "address"
        }
      ],
      "name": "AccessControlsUpdated",
      "type": "event"
    },
    {
      "anonymous": false,
      "inputs": [
        {
          "indexed": false,
          "internalType": "address",
          "name": "previousAdmin",
          "type": "address"
        },
        {
          "indexed": false,
          "internalType": "address",
          "name": "newAdmin",
          "type": "address"
        }
      ],
      "name": "AdminChanged",
      "type": "event"
    },
    {
      "anonymous": false,
      "inputs": [
        {
          "indexed": true,
          "internalType": "address",
          "name": "beacon",
          "type": "address"
        }
      ],
      "name": "BeaconUpgraded",
      "type": "event"
    },
    {
      "anonymous": false,
      "inputs": [
        {
          "indexed": false,
          "internalType": "address",
          "name": "previousETSEnsure",
          "type": "address"
        },
        {
          "indexed": false,
          "internalType": "address",
          "name": "newETSEnsure",
          "type": "address"
        }
      ],
      "name": "ETSEnsureUpdated",
      "type": "event"
    },
    {
      "anonymous": false,
      "inputs": [
        {
          "indexed": true,
          "internalType": "address",
          "name": "who",
          "type": "address"
        },
        {
          "indexed": false,
          "internalType": "uint256",
          "name": "amount",
          "type": "uint256"
        }
      ],
      "name": "FundsWithdrawn",
      "type": "event"
    },
    {
      "anonymous": false,
      "inputs": [
        {
          "indexed": false,
          "internalType": "uint256",
          "name": "platformPercentage",
          "type": "uint256"
        },
        {
          "indexed": false,
          "internalType": "uint256",
          "name": "publisherPercentage",
          "type": "uint256"
        },
        {
          "indexed": false,
          "internalType": "uint256",
          "name": "remainingPercentage",
          "type": "uint256"
        }
      ],
      "name": "PercentagesSet",
      "type": "event"
    },
    {
      "anonymous": false,
      "inputs": [
        {
          "indexed": false,
          "internalType": "uint256",
          "name": "targetId",
          "type": "uint256"
        }
      ],
      "name": "RequestEnsureTarget",
      "type": "event"
    },
    {
      "anonymous": false,
      "inputs": [
        {
          "indexed": false,
          "internalType": "uint256",
          "name": "previousFee",
          "type": "uint256"
        },
        {
          "indexed": false,
          "internalType": "uint256",
          "name": "taggingFee",
          "type": "uint256"
        }
      ],
      "name": "TaggingFeeSet",
      "type": "event"
    },
    {
      "anonymous": false,
      "inputs": [
        {
          "indexed": false,
          "internalType": "uint256",
          "name": "targetId",
          "type": "uint256"
        }
      ],
      "name": "TargetCreated",
      "type": "event"
    },
    {
      "anonymous": false,
      "inputs": [
        {
          "indexed": false,
          "internalType": "uint256",
          "name": "taggingId",
          "type": "uint256"
        }
      ],
      "name": "TargetTagged",
      "type": "event"
    },
    {
      "anonymous": false,
      "inputs": [
        {
          "indexed": false,
          "internalType": "string",
          "name": "typeName",
          "type": "string"
        },
        {
          "indexed": false,
          "internalType": "bool",
          "name": "setting",
          "type": "bool"
        }
      ],
      "name": "TargetTypeSet",
      "type": "event"
    },
    {
      "anonymous": false,
      "inputs": [
        {
          "indexed": false,
          "internalType": "uint256",
          "name": "targetId",
          "type": "uint256"
        }
      ],
      "name": "TargetUpdated",
      "type": "event"
    },
    {
      "anonymous": false,
      "inputs": [
        {
          "indexed": true,
          "internalType": "address",
          "name": "implementation",
          "type": "address"
        }
      ],
      "name": "Upgraded",
      "type": "event"
    },
    {
      "inputs": [],
      "name": "NAME",
      "outputs": [
        {
          "internalType": "string",
          "name": "",
          "type": "string"
        }
      ],
      "stateMutability": "view",
      "type": "function"
    },
    {
      "inputs": [],
      "name": "VERSION",
      "outputs": [
        {
          "internalType": "string",
          "name": "",
          "type": "string"
        }
      ],
      "stateMutability": "view",
      "type": "function"
    },
    {
      "inputs": [],
      "name": "accessControls",
      "outputs": [
        {
          "internalType": "contract ETSAccessControls",
          "name": "",
          "type": "address"
        }
      ],
      "stateMutability": "view",
      "type": "function"
    },
    {
      "inputs": [
        {
          "internalType": "address",
          "name": "",
          "type": "address"
        }
      ],
      "name": "accrued",
      "outputs": [
        {
          "internalType": "uint256",
          "name": "",
          "type": "uint256"
        }
      ],
      "stateMutability": "view",
      "type": "function"
    },
    {
      "inputs": [
        {
          "internalType": "uint256",
          "name": "_targetId",
          "type": "uint256"
        },
        {
          "internalType": "address",
          "name": "_publisher",
          "type": "address"
        },
        {
          "internalType": "address",
          "name": "_tagger",
          "type": "address"
        },
        {
          "internalType": "address",
          "name": "_sponsor",
          "type": "address"
        }
      ],
      "name": "computeTaggingRecordId",
      "outputs": [
        {
          "internalType": "uint256",
          "name": "taggingRecordId",
          "type": "uint256"
        }
      ],
      "stateMutability": "pure",
      "type": "function"
    },
    {
      "inputs": [
        {
          "internalType": "string",
          "name": "_targetType",
          "type": "string"
        },
        {
          "internalType": "string",
          "name": "_targetURI",
          "type": "string"
        }
      ],
      "name": "computeTargetId",
      "outputs": [
        {
          "internalType": "uint256",
          "name": "targetId",
          "type": "uint256"
        }
      ],
      "stateMutability": "pure",
      "type": "function"
    },
    {
      "inputs": [
        {
          "internalType": "address payable",
          "name": "_account",
          "type": "address"
        }
      ],
      "name": "drawDown",
      "outputs": [],
      "stateMutability": "nonpayable",
      "type": "function"
    },
    {
      "inputs": [],
      "name": "etsEnsure",
      "outputs": [
        {
          "internalType": "contract ETSEnsure",
          "name": "",
          "type": "address"
        }
      ],
      "stateMutability": "view",
      "type": "function"
    },
    {
      "inputs": [],
      "name": "etsTag",
      "outputs": [
        {
          "internalType": "contract ETSTag",
          "name": "",
          "type": "address"
        }
      ],
      "stateMutability": "view",
      "type": "function"
    },
    {
      "inputs": [
        {
          "internalType": "string",
          "name": "_tagString",
          "type": "string"
        },
        {
          "internalType": "address payable",
          "name": "_publisher",
          "type": "address"
        },
        {
          "internalType": "address",
          "name": "_tagger",
          "type": "address"
        }
      ],
      "name": "getOrCreateTag",
      "outputs": [
        {
          "internalType": "uint256",
          "name": "tagId",
          "type": "uint256"
        }
      ],
      "stateMutability": "payable",
      "type": "function"
    },
    {
      "inputs": [
        {
          "internalType": "uint256",
          "name": "_targetId",
          "type": "uint256"
        },
        {
          "internalType": "address",
          "name": "_tagger",
          "type": "address"
        },
        {
          "internalType": "address",
          "name": "_publisher",
          "type": "address"
        },
        {
          "internalType": "address",
          "name": "_sponsor",
          "type": "address"
        }
      ],
      "name": "getTaggingRecord",
      "outputs": [
        {
          "internalType": "uint256[]",
          "name": "etsTagIds",
          "type": "uint256[]"
        },
        {
          "internalType": "uint256",
          "name": "targetId",
          "type": "uint256"
        },
        {
          "internalType": "address",
          "name": "tagger",
          "type": "address"
        },
        {
          "internalType": "address",
          "name": "publisher",
          "type": "address"
        },
        {
          "internalType": "address",
          "name": "sponsor",
          "type": "address"
        }
      ],
      "stateMutability": "view",
      "type": "function"
    },
    {
      "inputs": [
        {
          "internalType": "uint256",
          "name": "_taggingId",
          "type": "uint256"
        }
      ],
      "name": "getTaggingRecordFromId",
      "outputs": [
        {
          "internalType": "uint256[]",
          "name": "etsTagIds",
          "type": "uint256[]"
        },
        {
          "internalType": "uint256",
          "name": "targetId",
          "type": "uint256"
        },
        {
          "internalType": "address",
          "name": "tagger",
          "type": "address"
        },
        {
          "internalType": "address",
          "name": "publisher",
          "type": "address"
        },
        {
          "internalType": "address",
          "name": "sponsor",
          "type": "address"
        }
      ],
      "stateMutability": "view",
      "type": "function"
    },
    {
      "inputs": [
        {
          "internalType": "contract ETSAccessControls",
          "name": "_accessControls",
          "type": "address"
        },
        {
          "internalType": "contract ETSTag",
          "name": "_etsTag",
          "type": "address"
        }
      ],
      "name": "initialize",
      "outputs": [],
      "stateMutability": "nonpayable",
      "type": "function"
    },
    {
      "inputs": [
        {
          "internalType": "uint256",
          "name": "_targetId",
          "type": "uint256"
        }
      ],
      "name": "isTargetEnsured",
      "outputs": [
        {
          "internalType": "bool",
          "name": "",
          "type": "bool"
        }
      ],
      "stateMutability": "view",
      "type": "function"
    },
    {
      "inputs": [],
      "name": "modulo",
      "outputs": [
        {
          "internalType": "uint256",
          "name": "",
          "type": "uint256"
        }
      ],
      "stateMutability": "view",
      "type": "function"
    },
    {
      "inputs": [
        {
          "internalType": "address",
          "name": "",
          "type": "address"
        }
      ],
      "name": "paid",
      "outputs": [
        {
          "internalType": "uint256",
          "name": "",
          "type": "uint256"
        }
      ],
      "stateMutability": "view",
      "type": "function"
    },
    {
      "inputs": [],
      "name": "platformPercentage",
      "outputs": [
        {
          "internalType": "uint256",
          "name": "",
          "type": "uint256"
        }
      ],
      "stateMutability": "view",
      "type": "function"
    },
    {
      "inputs": [],
      "name": "publisherPercentage",
      "outputs": [
        {
          "internalType": "uint256",
          "name": "",
          "type": "uint256"
        }
      ],
      "stateMutability": "view",
      "type": "function"
    },
    {
      "inputs": [],
      "name": "remainingPercentage",
      "outputs": [
        {
          "internalType": "uint256",
          "name": "",
          "type": "uint256"
        }
      ],
      "stateMutability": "view",
      "type": "function"
    },
    {
      "inputs": [
        {
          "internalType": "string[]",
          "name": "_tags",
          "type": "string[]"
        },
        {
          "internalType": "string",
          "name": "_targetURI",
          "type": "string"
        },
        {
          "internalType": "address payable",
          "name": "_publisher",
          "type": "address"
        },
        {
          "internalType": "address",
          "name": "_tagger",
          "type": "address"
        },
        {
          "internalType": "address",
          "name": "_sponsor",
          "type": "address"
        },
        {
          "internalType": "bool",
          "name": "_ensure",
          "type": "bool"
        }
      ],
      "name": "tagTarget",
      "outputs": [],
      "stateMutability": "payable",
      "type": "function"
    },
    {
      "inputs": [],
      "name": "taggingCounter",
      "outputs": [
        {
          "internalType": "uint256",
          "name": "",
          "type": "uint256"
        }
      ],
      "stateMutability": "view",
      "type": "function"
    },
    {
      "inputs": [],
      "name": "taggingFee",
      "outputs": [
        {
          "internalType": "uint256",
          "name": "",
          "type": "uint256"
        }
      ],
      "stateMutability": "view",
      "type": "function"
    },
    {
      "inputs": [
        {
          "internalType": "uint256",
          "name": "",
          "type": "uint256"
        }
      ],
      "name": "taggingRecords",
      "outputs": [
        {
          "internalType": "uint256",
          "name": "targetId",
          "type": "uint256"
        },
        {
          "internalType": "address",
          "name": "tagger",
          "type": "address"
        },
        {
          "internalType": "address",
          "name": "publisher",
          "type": "address"
        },
        {
          "internalType": "address",
          "name": "sponsor",
          "type": "address"
        }
      ],
      "stateMutability": "view",
      "type": "function"
    },
    {
      "inputs": [
        {
          "internalType": "uint256",
          "name": "_targetId",
          "type": "uint256"
        }
      ],
      "name": "targetExists",
      "outputs": [
        {
          "internalType": "bool",
          "name": "",
          "type": "bool"
        }
      ],
      "stateMutability": "view",
      "type": "function"
    },
    {
      "inputs": [
        {
          "internalType": "string",
          "name": "_targetType",
          "type": "string"
        },
        {
          "internalType": "string",
          "name": "_targetURI",
          "type": "string"
        }
      ],
      "name": "targetExists",
      "outputs": [
        {
          "internalType": "bool",
          "name": "",
          "type": "bool"
        }
      ],
      "stateMutability": "view",
      "type": "function"
    },
    {
      "inputs": [
        {
          "internalType": "uint256",
          "name": "",
          "type": "uint256"
        }
      ],
      "name": "targets",
      "outputs": [
        {
          "internalType": "string",
          "name": "targetType",
          "type": "string"
        },
        {
          "internalType": "string",
          "name": "targetURI",
          "type": "string"
        },
        {
          "internalType": "uint256",
          "name": "created",
          "type": "uint256"
        },
        {
          "internalType": "uint256",
          "name": "lastEnsured",
          "type": "uint256"
        },
        {
          "internalType": "uint256",
          "name": "status",
          "type": "uint256"
        },
        {
          "internalType": "string",
          "name": "ipfsHash",
          "type": "string"
        }
      ],
      "stateMutability": "view",
      "type": "function"
    },
    {
      "inputs": [
        {
          "internalType": "address",
          "name": "_account",
          "type": "address"
        }
      ],
      "name": "totalDue",
      "outputs": [
        {
          "internalType": "uint256",
          "name": "_due",
          "type": "uint256"
        }
      ],
      "stateMutability": "view",
      "type": "function"
    },
    {
      "inputs": [
        {
          "internalType": "contract ETSAccessControls",
          "name": "_accessControls",
          "type": "address"
        }
      ],
      "name": "updateAccessControls",
      "outputs": [],
      "stateMutability": "nonpayable",
      "type": "function"
    },
    {
      "inputs": [
        {
          "internalType": "contract ETSEnsure",
          "name": "_etsEnsure",
          "type": "address"
        }
      ],
      "name": "updateETSEnsure",
      "outputs": [],
      "stateMutability": "nonpayable",
      "type": "function"
    },
    {
      "inputs": [
        {
          "internalType": "uint256",
          "name": "_platformPercentage",
          "type": "uint256"
        },
        {
          "internalType": "uint256",
          "name": "_publisherPercentage",
          "type": "uint256"
        }
      ],
      "name": "updatePercentages",
      "outputs": [],
      "stateMutability": "nonpayable",
      "type": "function"
    },
    {
      "inputs": [
        {
          "internalType": "uint256",
          "name": "_fee",
          "type": "uint256"
        }
      ],
      "name": "updateTaggingFee",
      "outputs": [],
      "stateMutability": "nonpayable",
      "type": "function"
    },
    {
      "inputs": [
        {
          "internalType": "uint256",
          "name": "_taggingRecordId",
          "type": "uint256"
        },
        {
          "internalType": "uint256[]",
          "name": "_tagIds",
          "type": "uint256[]"
        }
      ],
      "name": "updateTaggingRecord",
      "outputs": [],
      "stateMutability": "payable",
      "type": "function"
    },
    {
      "inputs": [
        {
          "internalType": "uint256",
          "name": "_targetId",
          "type": "uint256"
        },
        {
          "internalType": "string",
          "name": "_targetType",
          "type": "string"
        },
        {
          "internalType": "string",
          "name": "_targetURI",
          "type": "string"
        },
        {
          "internalType": "uint256",
          "name": "_lastEnsured",
          "type": "uint256"
        },
        {
          "internalType": "uint256",
          "name": "_status",
          "type": "uint256"
        },
        {
          "internalType": "string",
          "name": "_ipfsHash",
          "type": "string"
        }
      ],
      "name": "updateTarget",
      "outputs": [
        {
          "internalType": "bool",
          "name": "success",
          "type": "bool"
        }
      ],
      "stateMutability": "nonpayable",
      "type": "function"
    },
    {
      "inputs": [
        {
          "internalType": "address",
          "name": "newImplementation",
          "type": "address"
        }
      ],
      "name": "upgradeTo",
      "outputs": [],
      "stateMutability": "nonpayable",
      "type": "function"
    },
    {
      "inputs": [
        {
          "internalType": "address",
          "name": "newImplementation",
          "type": "address"
        },
        {
          "internalType": "bytes",
          "name": "data",
          "type": "bytes"
        }
      ],
      "name": "upgradeToAndCall",
      "outputs": [],
      "stateMutability": "payable",
      "type": "function"
    },
    {
      "inputs": [],
      "name": "version",
      "outputs": [
        {
          "internalType": "string",
          "name": "",
          "type": "string"
        }
      ],
      "stateMutability": "pure",
      "type": "function"
    }
  ],
  "bytecode": "0x60a06040523060805234801561001457600080fd5b5060805161364161004560003960008181610c4f01528181610cd901528181610fec015261107101526136416000f3fe60806040526004361061024f5760003560e01c806374716c8111610138578063c2062005116100b0578063d80a861f1161007f578063f8bc3cc611610064578063f8bc3cc614610790578063fe52656f146107b0578063ffa1ad74146107c657600080fd5b8063d80a861f14610767578063e88b772c1461077a57600080fd5b8063c2062005146106e2578063c20d229514610702578063ce0e0eed14610722578063d64f55c91461075457600080fd5b8063a340cf7911610107578063b148440f116100ec578063b148440f14610675578063b205f808146106a2578063b7d0e7dd146106c257600080fd5b8063a340cf79146105ff578063a3f4df7e1461062c57600080fd5b806374716c811461050e578063748365ef146105915780637e2e4c52146105c9578063817a1fbd146105df57600080fd5b8063485cc955116101cb57806354fd4d501161019a57806360c1cade1161017f57806360c1cade1461045e57806368fd4dee146104ce5780636ef3da94146104ee57600080fd5b806354fd4d50146104075780635dffa7fe1461043e57600080fd5b8063485cc955146103945780634967b35f146103b45780634f1ef286146103d4578063507f3ba1146103e757600080fd5b80630ad2f0c31161022257806329745262116102075780632974526214610347578063337ccf9d1461035c5780633659cfe61461037257600080fd5b80630ad2f0c3146103115780631f7418971461033157600080fd5b80630438837c146102545780630477fe281461028e57806307348e26146102be5780630a39ce02146102df575b600080fd5b34801561026057600080fd5b5061027461026f366004612ca9565b6107f7565b604051610285959493929190612cfc565b60405180910390f35b34801561029a57600080fd5b506102ae6102a9366004612d66565b6108ee565b6040519015158152602001610285565b6102d16102cc366004612dc8565b610914565b604051908152602001610285565b3480156102eb57600080fd5b506102ff6102fa366004612d66565b610a4a565b60405161028596959493929190612e7d565b34801561031d57600080fd5b506102d161032c366004612ed5565b610c16565b34801561033d57600080fd5b506102d160cc5481565b34801561035357600080fd5b506102d1606481565b34801561036857600080fd5b506102d160ce5481565b34801561037e57600080fd5b5061039261038d366004612ed5565b610c44565b005b3480156103a057600080fd5b506103926103af366004612ef2565b610dc5565b3480156103c057600080fd5b506103926103cf366004612d66565b610ede565b6103926103e2366004612fd8565b610fe1565b3480156103f357600080fd5b506102ae61040236600461303c565b61114e565b34801561041357600080fd5b50604080518082019091526005815264302e302e3160d81b60208201525b60405161028591906130f5565b34801561044a57600080fd5b506102d1610459366004613128565b611250565b34801561046a57600080fd5b506102d1610479366004612ca9565b604080516020808201969096526bffffffffffffffffffffffff19606094851b81168284015294841b851660548201529190921b90921660688301528051808303605c018152607c9092019052805191012090565b3480156104da57600080fd5b506102746104e9366004612d66565b611286565b3480156104fa57600080fd5b50610392610509366004612ed5565b61132c565b34801561051a57600080fd5b50610562610529366004612d66565b60d360205260009081526040902060018101546002820154600383015460049093015491926001600160a01b0391821692908216911684565b604080519485526001600160a01b03938416602086015291831691840191909152166060820152608001610285565b34801561059d57600080fd5b5060c9546105b1906001600160a01b031681565b6040516001600160a01b039091168152602001610285565b3480156105d557600080fd5b506102d160cd5481565b3480156105eb57600080fd5b506102ae6105fa366004613128565b6114bf565b34801561060b57600080fd5b506102d161061a366004612ed5565b60d26020526000908152604090205481565b34801561063857600080fd5b506104316040518060400160405280600881526020017f45545320436f726500000000000000000000000000000000000000000000000081525081565b34801561068157600080fd5b506102d1610690366004612ed5565b60d16020526000908152604090205481565b3480156106ae57600080fd5b506103926106bd366004612ed5565b6114f7565b3480156106ce57600080fd5b5060cb546105b1906001600160a01b031681565b3480156106ee57600080fd5b506103926106fd366004612ed5565b61168a565b34801561070e57600080fd5b5061039261071d366004613182565b6117e0565b34801561072e57600080fd5b506102ae61073d366004612d66565b600090815260d46020526040902060030154151590565b6103926107623660046131f7565b611987565b6103926107753660046132b2565b611e66565b34801561078657600080fd5b506102d160cf5481565b34801561079c57600080fd5b5060ca546105b1906001600160a01b031681565b3480156107bc57600080fd5b506102d160d05481565b3480156107d257600080fd5b5061043160405180604001604052806005815260200164302e302e3160d81b81525081565b6040805160208082018790526bffffffffffffffffffffffff19606086811b82168486015287811b8216605485015285811b90911660688401528351808403605c018152607c8401808652815191840191909120600081815260d3855286812060018101546002820154600383015460048401548454609c9a81028c018b01909c528b8852979a94998a998a998a99969788976001600160a01b039687169695861695909216939192889201828280156108d057602002820191906000526020600020905b8154815260200190600101908083116108bc575b50505050509450965096509650965096505050945094509450945094565b600081815260d4602052604081206002015461090b57600061090e565b60015b92915050565b60ca546040517ff143fc6100000000000000000000000000000000000000000000000000000000815260009182916001600160a01b039091169063f143fc61906109649089908990600401613327565b602060405180830381865afa158015610981573d6000803e3d6000fd5b505050506040513d601f19601f820116820180604052508101906109a5919061333b565b905080610a415760ca546040517f7e6d945e0000000000000000000000000000000000000000000000000000000081526001600160a01b0390911690637e6d945e906109fb908990899089908990600401613354565b6020604051808303816000875af1158015610a1a573d6000803e3d6000fd5b505050506040513d601f19601f82011682018060405250810190610a3e919061333b565b90505b95945050505050565b60d460205260009081526040902080548190610a6590613389565b80601f0160208091040260200160405190810160405280929190818152602001828054610a9190613389565b8015610ade5780601f10610ab357610100808354040283529160200191610ade565b820191906000526020600020905b815481529060010190602001808311610ac157829003601f168201915b505050505090806001018054610af390613389565b80601f0160208091040260200160405190810160405280929190818152602001828054610b1f90613389565b8015610b6c5780601f10610b4157610100808354040283529160200191610b6c565b820191906000526020600020905b815481529060010190602001808311610b4f57829003601f168201915b505050505090806002015490806003015490806004015490806005018054610b9390613389565b80601f0160208091040260200160405190810160405280929190818152602001828054610bbf90613389565b8015610c0c5780601f10610be157610100808354040283529160200191610c0c565b820191906000526020600020905b815481529060010190602001808311610bef57829003601f168201915b5050505050905086565b6001600160a01b038116600090815260d2602090815260408083205460d190925282205461090e91906133da565b306001600160a01b037f0000000000000000000000000000000000000000000000000000000000000000161415610cd75760405162461bcd60e51b815260206004820152602c60248201527f46756e6374696f6e206d7573742062652063616c6c6564207468726f7567682060448201526b19195b1959d85d1958d85b1b60a21b60648201526084015b60405180910390fd5b7f00000000000000000000000000000000000000000000000000000000000000006001600160a01b0316610d327f360894a13ba1a3210667c828492db98dca3e2076cc3735a920a3ca505d382bbc546001600160a01b031690565b6001600160a01b031614610d9d5760405162461bcd60e51b815260206004820152602c60248201527f46756e6374696f6e206d7573742062652063616c6c6564207468726f7567682060448201526b6163746976652070726f787960a01b6064820152608401610cce565b610da6816120af565b60408051600080825260208201909252610dc29183919061216c565b50565b600054610100900460ff16610de05760005460ff1615610de4565b303b155b610e565760405162461bcd60e51b815260206004820152602e60248201527f496e697469616c697a61626c653a20636f6e747261637420697320616c72656160448201527f647920696e697469616c697a65640000000000000000000000000000000000006064820152608401610cce565b600054610100900460ff16158015610e78576000805461ffff19166101011790555b60c980546001600160a01b038086166001600160a01b03199283161790925560ca805492851692909116919091179055600060cf5566038d7ea4c6800060d055601460cc55601e60cd55603260ce558015610ed9576000805461ff00191690555b505050565b60c9546001600160a01b03166324d7806c336040516001600160e01b031960e084901b1681526001600160a01b039091166004820152602401602060405180830381865afa158015610f34573d6000803e3d6000fd5b505050506040513d601f19601f82011682018060405250810190610f5891906133f1565b610f9b5760405162461bcd60e51b815260206004820152601460248201527321b0b63632b91036bab9ba1031329030b236b4b760611b6044820152606401610cce565b60d080549082905560408051828152602081018490527f861fa8a0dab775faf9bcbb5388a02f7ac01181c036f5c57982464a2d75c3608e91015b60405180910390a15050565b306001600160a01b037f000000000000000000000000000000000000000000000000000000000000000016141561106f5760405162461bcd60e51b815260206004820152602c60248201527f46756e6374696f6e206d7573742062652063616c6c6564207468726f7567682060448201526b19195b1959d85d1958d85b1b60a21b6064820152608401610cce565b7f00000000000000000000000000000000000000000000000000000000000000006001600160a01b03166110ca7f360894a13ba1a3210667c828492db98dca3e2076cc3735a920a3ca505d382bbc546001600160a01b031690565b6001600160a01b0316146111355760405162461bcd60e51b815260206004820152602c60248201527f46756e6374696f6e206d7573742062652063616c6c6564207468726f7567682060448201526b6163746976652070726f787960a01b6064820152608401610cce565b61113e826120af565b61114a8282600161216c565b5050565b60cb546000906001600160a01b031633146111ab5760405162461bcd60e51b815260206004820152600f60248201527f4f6e6c792045545320656e7375726500000000000000000000000000000000006044820152606401610cce565b60008a815260d4602052604090206111c4908a8a612b13565b5060008a815260d4602052604090206111e1906001018888612b13565b5060008a815260d460205260409020600381018690556004810185905561120c906005018484612b13565b506040518a81527f9d29e5045b411bb06d81d8ff11c828d9f1d7eb076eec9ca45eda49fc99f762b29060200160405180910390a15060019998505050505050505050565b600080838360405160200161126692919061340e565b60408051808303601f190181529190528051602090910120949350505050565b600081815260d36020908152604080832060018101546002820154600383015460048401548454865181890281018901909752808752606098978897889788979096879691956001600160a01b03918216959282169491169291879183018282801561131157602002820191906000526020600020905b8154815260200190600101908083116112fd575b50505050509450955095509550955095505091939590929450565b60c9546001600160a01b03166324d7806c336040516001600160e01b031960e084901b1681526001600160a01b039091166004820152602401602060405180830381865afa158015611382573d6000803e3d6000fd5b505050506040513d601f19601f820116820180604052508101906113a691906133f1565b6113e95760405162461bcd60e51b815260206004820152601460248201527321b0b63632b91036bab9ba1031329030b236b4b760611b6044820152606401610cce565b6001600160a01b0381166114655760405162461bcd60e51b815260206004820152602860248201527f4554532e757064617465416363657373436f6e74726f6c733a2043616e6e6f7460448201527f206265207a65726f0000000000000000000000000000000000000000000000006064820152608401610cce565b60c980546001600160a01b038381166001600160a01b031983168117909355604080519190921680825260208201939093527f31073599bfae2533a348dc816b0ce777b707aa9b67015ca2d86585e842b5c6e99101610fd5565b6000806114cc8484611250565b600081815260d460205260409020600201549091506114ec5760006114ef565b60015b949350505050565b60c9546001600160a01b03166324d7806c336040516001600160e01b031960e084901b1681526001600160a01b039091166004820152602401602060405180830381865afa15801561154d573d6000803e3d6000fd5b505050506040513d601f19601f8201168201806040525081019061157191906133f1565b6115b45760405162461bcd60e51b815260206004820152601460248201527321b0b63632b91036bab9ba1031329030b236b4b760611b6044820152606401610cce565b6001600160a01b0381166116305760405162461bcd60e51b815260206004820152602360248201527f4554532e757064617465455453456e737572653a2043616e6e6f74206265207a60448201527f65726f00000000000000000000000000000000000000000000000000000000006064820152608401610cce565b60cb80546001600160a01b038381166001600160a01b031983168117909355604080519190921680825260208201939093527fee20190c374934660675d28472968e002fc4af227f2956f59085225ad89239fa9101610fd5565b600260335414156116dd5760405162461bcd60e51b815260206004820152601f60248201527f5265656e7472616e637947756172643a207265656e7472616e742063616c6c006044820152606401610cce565b60026033556001600160a01b038116600090815260d2602090815260408083205460d190925282205461171091906133da565b90506000811180156117225750478111155b156117d7576001600160a01b038216600090815260d2602052604090205461174b90829061343d565b6001600160a01b038316600081815260d26020526040808220939093559151909183156108fc02918491818181858888f19350505050158015611792573d6000803e3d6000fd5b50816001600160a01b03167feaff4b37086828766ad3268786972c0cd24259d4c87a80f9d3963a3c3d999b0d826040516117ce91815260200190565b60405180910390a25b50506001603355565b60c9546001600160a01b03166324d7806c336040516001600160e01b031960e084901b1681526001600160a01b039091166004820152602401602060405180830381865afa158015611836573d6000803e3d6000fd5b505050506040513d601f19601f8201168201806040525081019061185a91906133f1565b61189d5760405162461bcd60e51b815260206004820152601460248201527321b0b63632b91036bab9ba1031329030b236b4b760611b6044820152606401610cce565b60646118a9828461343d565b111561191d5760405162461bcd60e51b815260206004820152603760248201527f4554532e75706461746550657263656e74616765733a2070657263656e74616760448201527f6573206d757374206e6f74206265206f766572203130300000000000000000006064820152608401610cce565b60cc82905560cd819055806119338360646133da565b61193d91906133da565b60ce81905560cc5460cd546040805192835260208301919091528101919091527f78c1b0567e296aa5eef70ad2deee29f35e0dd128cac603be855ece3e823f430890606001610fd5565b600260335414156119da5760405162461bcd60e51b815260206004820152601f60248201527f5265656e7472616e637947756172643a207265656e7472616e742063616c6c006044820152606401610cce565b600260335560c9546001600160a01b0316632b04fd44336040516001600160e01b031960e084901b1681526001600160a01b039091166004820152602401602060405180830381865afa158015611a35573d6000803e3d6000fd5b505050506040513d601f19601f82011682018060405250810190611a5991906133f1565b611aa55760405162461bcd60e51b815260206004820152601060248201527f4f6e6c79207461726765742074797065000000000000000000000000000000006044820152606401610cce565b60c9546040517f41859ac80000000000000000000000000000000000000000000000000000000081526001600160a01b038681166004830152909116906341859ac890602401602060405180830381865afa158015611b08573d6000803e3d6000fd5b505050506040513d601f19601f82011682018060405250810190611b2c91906133f1565b611b9e5760405162461bcd60e51b815260206004820152602660248201527f5461673a20546865207075626c6973686572206d75737420626520776869746560448201527f6c697374656400000000000000000000000000000000000000000000000000006064820152608401610cce565b8680611bec5760405162461bcd60e51b815260206004820152601760248201527f4e6f2074616720737472696e677320737570706c6965640000000000000000006044820152606401610cce565b8060d054611bfa9190613455565b3414611c485760405162461bcd60e51b815260206004820152601a60248201527f5461673a20596f75206d7573742073656e6420746865206665650000000000006044820152606401610cce565b60c954600090611d09906001600160a01b031663a88ae5b6336040516001600160e01b031960e084901b1681526001600160a01b039091166004820152602401600060405180830381865afa158015611ca5573d6000803e3d6000fd5b505050506040513d6000823e601f3d908101601f19168201604052611ccd9190810190613474565b89898080601f01602080910402602001604051908101604052809392919081815260200183838082843760009201919091525061233092505050565b905060008267ffffffffffffffff811115611d2657611d26612f2b565b604051908082528060200260200182016040528015611d4f578160200160208202803683370190505b50905060005b83811015611dc8576000611d8d8d8d84818110611d7457611d746134e2565b9050602002810190611d8691906134f8565b8b8b610914565b9050611d99818a612368565b80838381518110611dac57611dac6134e2565b602090810291909101015250611dc18161353f565b9050611d55565b508315611e475760cb546040517f177f2fb5000000000000000000000000000000000000000000000000000000008152600481018490526001600160a01b039091169063177f2fb590602401600060405180830381600087803b158015611e2e57600080fd5b505af1158015611e42573d6000803e3d6000fd5b505050505b611e5481838989896126a7565b50506001603355505050505050505050565b80611eb35760405162461bcd60e51b815260206004820152600b60248201527f456d7074792061727261790000000000000000000000000000000000000000006044820152606401610cce565b600083815260d3602052604090208054339080841115611f39576000611ed982866133da565b905060d05481611ee99190613455565b3414611f375760405162461bcd60e51b815260206004820152601c60248201527f4164646974696f6e616c207461677320726571756972652066656573000000006044820152606401610cce565b505b60028301546001600160a01b0383811691161480611f66575060048301546001600160a01b038381169116145b611fb25760405162461bcd60e51b815260206004820152601660248201527f4f6e6c7920746167676572206f722073706f6e736f72000000000000000000006044820152606401610cce565b60005b8481101561209a5760ca546001600160a01b031663d3c80bd8878784818110611fe057611fe06134e2565b905060200201356040518263ffffffff1660e01b815260040161200591815260200190565b602060405180830381865afa158015612022573d6000803e3d6000fd5b505050506040513d601f19601f8201168201806040525081019061204691906133f1565b6120925760405162461bcd60e51b815260206004820152600e60248201527f496e76616c6964207461672049440000000000000000000000000000000000006044820152606401610cce565b600101611fb5565b506120a6838686612b97565b50505050505050565b60c9546001600160a01b03166324d7806c336040516001600160e01b031960e084901b1681526001600160a01b039091166004820152602401602060405180830381865afa158015612105573d6000803e3d6000fd5b505050506040513d601f19601f8201168201806040525081019061212991906133f1565b610dc25760405162461bcd60e51b815260206004820152601460248201527321b0b63632b91036bab9ba1031329030b236b4b760611b6044820152606401610cce565b600061219f7f360894a13ba1a3210667c828492db98dca3e2076cc3735a920a3ca505d382bbc546001600160a01b031690565b90506121aa846127eb565b6000835111806121b75750815b156121c8576121c684846128a0565b505b7f4910fdfa16fed3260ed0e7147f7cc6da11a60208b5b9406d12a635614ffd9143805460ff1661232957805460ff191660011781556040516001600160a01b038316602482015261227590869060440160408051601f198184030181529190526020810180517bffffffffffffffffffffffffffffffffffffffffffffffffffffffff167f3659cfe6000000000000000000000000000000000000000000000000000000001790526128a0565b50805460ff191681557f360894a13ba1a3210667c828492db98dca3e2076cc3735a920a3ca505d382bbc546001600160a01b038381169116146123205760405162461bcd60e51b815260206004820152602f60248201527f45524331393637557067726164653a207570677261646520627265616b73206660448201527f75727468657220757067726164657300000000000000000000000000000000006064820152608401610cce565b61232985612999565b5050505050565b60008061233d8484611250565b600081815260d460205260409020600201549091501561235e57905061090e565b6114ef84846129d9565b60ca546040517f878327ab0000000000000000000000000000000000000000000000000000000081526004810184905260009182916001600160a01b039091169063878327ab906024016040805180830381865afa1580156123ce573d6000803e3d6000fd5b505050506040513d601f19601f820116820180604052508101906123f2919061355a565b91509150816001600160a01b0316816001600160a01b0316141561259e57606460cc54346124209190613455565b61242a9190613589565b6001600160a01b038316600090815260d1602052604090205461244d919061343d565b6001600160a01b038316600090815260d1602052604090205560cd546064906124769034613455565b6124809190613589565b6001600160a01b038416600090815260d160205260409020546124a3919061343d565b6001600160a01b03848116600090815260d160205260408082209390935560ca5492517fa30b4db90000000000000000000000000000000000000000000000000000000081526004810188905290929091169063a30b4db990602401602060405180830381865afa15801561251c573d6000803e3d6000fd5b505050506040513d601f19601f8201168201806040525081019061254091906135ab565b9050606460ce54346125529190613455565b61255c9190613589565b6001600160a01b038216600090815260d1602052604090205461257f919061343d565b6001600160a01b03909116600090815260d160205260409020556126a1565b606460cc54346125ae9190613455565b6125b89190613589565b6001600160a01b038316600090815260d160205260409020546125db919061343d565b6001600160a01b038316600090815260d1602052604090205560cd546064906126049034613455565b61260e9190613589565b6001600160a01b038416600090815260d16020526040902054612631919061343d565b6001600160a01b038416600090815260d1602052604090205560ce5460649061265a9034613455565b6126649190613589565b6001600160a01b038216600090815260d16020526040902054612687919061343d565b6001600160a01b038216600090815260d160205260409020555b50505050565b6040805160208082018790526bffffffffffffffffffffffff19606087811b82168486015286811b8216605485015285901b1660688301528251808303605c018152607c90920190925280519101206000906040805160a08101825288815260208082018990526001600160a01b0380881683850152888116606084015286166080830152600084815260d38252929092208151805194955091939092612752928492910190612bd1565b5060208281015160018301556040808401516002840180546001600160a01b03199081166001600160a01b03938416179091556060860151600386018054831691841691909117905560809095015160049094018054909516931692909217909255518281527f81b185c481377e520177bddb63bab2a8d220831d7c07b748c2baf29c6e607070910160405180910390a1505050505050565b803b61285f5760405162461bcd60e51b815260206004820152602d60248201527f455243313936373a206e657720696d706c656d656e746174696f6e206973206e60448201527f6f74206120636f6e7472616374000000000000000000000000000000000000006064820152608401610cce565b7f360894a13ba1a3210667c828492db98dca3e2076cc3735a920a3ca505d382bbc80546001600160a01b0319166001600160a01b0392909216919091179055565b6060823b6129165760405162461bcd60e51b815260206004820152602660248201527f416464726573733a2064656c65676174652063616c6c20746f206e6f6e2d636f60448201527f6e747261637400000000000000000000000000000000000000000000000000006064820152608401610cce565b600080846001600160a01b03168460405161293191906135c8565b600060405180830381855af49150503d806000811461296c576040519150601f19603f3d011682016040523d82523d6000602084013e612971565b606091505b5091509150610a4182826040518060600160405280602781526020016135e560279139612ad3565b6129a2816127eb565b6040516001600160a01b038216907fbc7cd75a20ee27fd9adebab32041f755214dbc6bffa90cc0225b39da2e5c2d3b90600090a250565b6000806129e68484611250565b6040805160c08101825286815260208082018790524282840152600060608301819052608083018190528351808301855281815260a084015284815260d48252929092208151805194955091939092612a43928492910190612c0c565b506020828101518051612a5c9260018501920190612c0c565b5060408201516002820155606082015160038201556080820151600482015560a08201518051612a96916005840191602090910190612c0c565b50506040518281527f503a6e6145f2d2a2a9b0845c2193aef653400c52f93b1c897bd55d36a396be7c915060200160405180910390a19392505050565b60608315612ae2575081612b0c565b825115612af25782518084602001fd5b8160405162461bcd60e51b8152600401610cce91906130f5565b9392505050565b828054612b1f90613389565b90600052602060002090601f016020900481019282612b415760008555612b87565b82601f10612b5a5782800160ff19823516178555612b87565b82800160010185558215612b87579182015b82811115612b87578235825591602001919060010190612b6c565b50612b93929150612c7f565b5090565b828054828255906000526020600020908101928215612b875791602002820182811115612b87578235825591602001919060010190612b6c565b828054828255906000526020600020908101928215612b87579160200282015b82811115612b87578251825591602001919060010190612bf1565b828054612c1890613389565b90600052602060002090601f016020900481019282612c3a5760008555612b87565b82601f10612c5357805160ff1916838001178555612b87565b82800160010185558215612b875791820182811115612b87578251825591602001919060010190612bf1565b5b80821115612b935760008155600101612c80565b6001600160a01b0381168114610dc257600080fd5b60008060008060808587031215612cbf57600080fd5b843593506020850135612cd181612c94565b92506040850135612ce181612c94565b91506060850135612cf181612c94565b939692955090935050565b60a0808252865190820181905260009060209060c0840190828a01845b82811015612d3557815184529284019290840190600101612d19565b50505090830196909652506001600160a01b0393841660408201529183166060830152909116608090910152919050565b600060208284031215612d7857600080fd5b5035919050565b60008083601f840112612d9157600080fd5b50813567ffffffffffffffff811115612da957600080fd5b602083019150836020828501011115612dc157600080fd5b9250929050565b60008060008060608587031215612dde57600080fd5b843567ffffffffffffffff811115612df557600080fd5b612e0187828801612d7f565b9095509350506020850135612e1581612c94565b91506040850135612cf181612c94565b60005b83811015612e40578181015183820152602001612e28565b838111156126a15750506000910152565b60008151808452612e69816020860160208601612e25565b601f01601f19169290920160200192915050565b60c081526000612e9060c0830189612e51565b8281036020840152612ea28189612e51565b905086604084015285606084015284608084015282810360a0840152612ec88185612e51565b9998505050505050505050565b600060208284031215612ee757600080fd5b8135612b0c81612c94565b60008060408385031215612f0557600080fd5b8235612f1081612c94565b91506020830135612f2081612c94565b809150509250929050565b634e487b7160e01b600052604160045260246000fd5b604051601f8201601f1916810167ffffffffffffffff81118282101715612f6a57612f6a612f2b565b604052919050565b600067ffffffffffffffff821115612f8c57612f8c612f2b565b50601f01601f191660200190565b6000612fad612fa884612f72565b612f41565b9050828152838383011115612fc157600080fd5b828260208301376000602084830101529392505050565b60008060408385031215612feb57600080fd5b8235612ff681612c94565b9150602083013567ffffffffffffffff81111561301257600080fd5b8301601f8101851361302357600080fd5b61303285823560208401612f9a565b9150509250929050565b600080600080600080600080600060c08a8c03121561305a57600080fd5b8935985060208a013567ffffffffffffffff8082111561307957600080fd5b6130858d838e01612d7f565b909a50985060408c013591508082111561309e57600080fd5b6130aa8d838e01612d7f565b909850965060608c0135955060808c0135945060a08c01359150808211156130d157600080fd5b506130de8c828d01612d7f565b915080935050809150509295985092959850929598565b602081526000612b0c6020830184612e51565b600082601f83011261311957600080fd5b612b0c83833560208501612f9a565b6000806040838503121561313b57600080fd5b823567ffffffffffffffff8082111561315357600080fd5b61315f86838701613108565b9350602085013591508082111561317557600080fd5b5061303285828601613108565b6000806040838503121561319557600080fd5b50508035926020909101359150565b60008083601f8401126131b657600080fd5b50813567ffffffffffffffff8111156131ce57600080fd5b6020830191508360208260051b8501011115612dc157600080fd5b8015158114610dc257600080fd5b60008060008060008060008060c0898b03121561321357600080fd5b883567ffffffffffffffff8082111561322b57600080fd5b6132378c838d016131a4565b909a50985060208b013591508082111561325057600080fd5b5061325d8b828c01612d7f565b909750955050604089013561327181612c94565b9350606089013561328181612c94565b9250608089013561329181612c94565b915060a08901356132a1816131e9565b809150509295985092959890939650565b6000806000604084860312156132c757600080fd5b83359250602084013567ffffffffffffffff8111156132e557600080fd5b6132f1868287016131a4565b9497909650939450505050565b81835281816020850137506000828201602090810191909152601f909101601f19169091010190565b6020815260006114ef6020830184866132fe565b60006020828403121561334d57600080fd5b5051919050565b6060815260006133686060830186886132fe565b6001600160a01b039485166020840152929093166040909101529392505050565b600181811c9082168061339d57607f821691505b602082108114156133be57634e487b7160e01b600052602260045260246000fd5b50919050565b634e487b7160e01b600052601160045260246000fd5b6000828210156133ec576133ec6133c4565b500390565b60006020828403121561340357600080fd5b8151612b0c816131e9565b60008351613420818460208801612e25565b835190830190613434818360208801612e25565b01949350505050565b60008219821115613450576134506133c4565b500190565b600081600019048311821515161561346f5761346f6133c4565b500290565b60006020828403121561348657600080fd5b815167ffffffffffffffff81111561349d57600080fd5b8201601f810184136134ae57600080fd5b80516134bc612fa882612f72565b8181528560208385010111156134d157600080fd5b610a41826020830160208601612e25565b634e487b7160e01b600052603260045260246000fd5b6000808335601e1984360301811261350f57600080fd5b83018035915067ffffffffffffffff82111561352a57600080fd5b602001915036819003821315612dc157600080fd5b6000600019821415613553576135536133c4565b5060010190565b6000806040838503121561356d57600080fd5b825161357881612c94565b6020840151909250612f2081612c94565b6000826135a657634e487b7160e01b600052601260045260246000fd5b500490565b6000602082840312156135bd57600080fd5b8151612b0c81612c94565b600082516135da818460208701612e25565b919091019291505056fe416464726573733a206c6f772d6c6576656c2064656c65676174652063616c6c206661696c6564a26469706673582212200e2fa87e5aaf74f7cbd9d52f5fe0c0fda7546adfe32b6248a7f04dc4a6fba25b64736f6c634300080c0033",
  "linkReferences": {},
  "deployedLinkReferences": {}
}