{
  "address": "0xE889910350641731de1199991Ab5aA121ad12c41",
  "abi": [
    {
      "inputs": [],
      "stateMutability": "nonpayable",
      "type": "constructor"
    },
    {
      "anonymous": false,
      "inputs": [
        {
          "indexed": false,
          "internalType": "address",
          "name": "newAccessControls",
          "type": "address"
        }
      ],
      "name": "AccessControlsSet",
      "type": "event"
    },
    {
      "anonymous": false,
      "inputs": [
        {
          "indexed": false,
          "internalType": "address",
          "name": "previousAdmin",
          "type": "address"
        },
        {
          "indexed": false,
          "internalType": "address",
          "name": "newAdmin",
          "type": "address"
        }
      ],
      "name": "AdminChanged",
      "type": "event"
    },
    {
      "anonymous": false,
      "inputs": [
        {
          "indexed": true,
          "internalType": "address",
          "name": "beacon",
          "type": "address"
        }
      ],
      "name": "BeaconUpgraded",
      "type": "event"
    },
    {
      "anonymous": false,
      "inputs": [
        {
          "indexed": true,
          "internalType": "address",
          "name": "who",
          "type": "address"
        },
        {
          "indexed": false,
          "internalType": "uint256",
          "name": "amount",
          "type": "uint256"
        }
      ],
      "name": "FundsWithdrawn",
      "type": "event"
    },
    {
      "anonymous": false,
      "inputs": [
        {
          "indexed": false,
          "internalType": "uint8",
          "name": "version",
          "type": "uint8"
        }
      ],
      "name": "Initialized",
      "type": "event"
    },
    {
      "anonymous": false,
      "inputs": [
        {
          "indexed": false,
          "internalType": "uint256",
          "name": "platformPercentage",
          "type": "uint256"
        },
        {
          "indexed": false,
          "internalType": "uint256",
          "name": "relayerPercentage",
          "type": "uint256"
        }
      ],
      "name": "PercentagesSet",
      "type": "event"
    },
    {
      "anonymous": false,
      "inputs": [
        {
          "indexed": false,
          "internalType": "uint256",
          "name": "newTaggingFee",
          "type": "uint256"
        }
      ],
      "name": "TaggingFeeSet",
      "type": "event"
    },
    {
      "anonymous": false,
      "inputs": [
        {
          "indexed": false,
          "internalType": "uint256",
          "name": "taggingRecordId",
          "type": "uint256"
        }
      ],
      "name": "TaggingRecordCreated",
      "type": "event"
    },
    {
      "anonymous": false,
      "inputs": [
        {
          "indexed": false,
          "internalType": "uint256",
          "name": "taggingRecordId",
          "type": "uint256"
        },
        {
          "indexed": false,
          "internalType": "enum IETS.TaggingAction",
          "name": "action",
          "type": "uint8"
        }
      ],
      "name": "TaggingRecordUpdated",
      "type": "event"
    },
    {
      "anonymous": false,
      "inputs": [
        {
          "indexed": true,
          "internalType": "address",
          "name": "implementation",
          "type": "address"
        }
      ],
      "name": "Upgraded",
      "type": "event"
    },
    {
      "inputs": [],
      "name": "MODULO",
      "outputs": [
        {
          "internalType": "uint256",
          "name": "",
          "type": "uint256"
        }
      ],
      "stateMutability": "view",
      "type": "function"
    },
    {
      "inputs": [],
      "name": "NAME",
      "outputs": [
        {
          "internalType": "string",
          "name": "",
          "type": "string"
        }
      ],
      "stateMutability": "view",
      "type": "function"
    },
    {
      "inputs": [],
      "name": "VERSION",
      "outputs": [
        {
          "internalType": "string",
          "name": "",
          "type": "string"
        }
      ],
      "stateMutability": "view",
      "type": "function"
    },
    {
      "inputs": [
        {
          "internalType": "address",
          "name": "",
          "type": "address"
        }
      ],
      "name": "accrued",
      "outputs": [
        {
          "internalType": "uint256",
          "name": "",
          "type": "uint256"
        }
      ],
      "stateMutability": "view",
      "type": "function"
    },
    {
      "inputs": [
        {
          "internalType": "uint256",
          "name": "_taggingRecordId",
          "type": "uint256"
        },
        {
          "internalType": "uint256[]",
          "name": "_tagIds",
          "type": "uint256[]"
        }
      ],
      "name": "appendTags",
      "outputs": [],
      "stateMutability": "payable",
      "type": "function"
    },
    {
      "inputs": [
        {
          "internalType": "uint256[]",
          "name": "_tagIds",
          "type": "uint256[]"
        },
        {
          "internalType": "uint256",
          "name": "_targetId",
          "type": "uint256"
        },
        {
          "internalType": "string",
          "name": "_recordType",
          "type": "string"
        },
        {
          "internalType": "address payable",
          "name": "_tagger",
          "type": "address"
        }
      ],
      "name": "applyTagsWithCompositeKey",
      "outputs": [],
      "stateMutability": "payable",
      "type": "function"
    },
    {
      "inputs": [
        {
          "components": [
            {
              "internalType": "string",
              "name": "targetURI",
              "type": "string"
            },
            {
              "internalType": "string[]",
              "name": "tagStrings",
              "type": "string[]"
            },
            {
              "internalType": "string",
              "name": "recordType",
              "type": "string"
            }
          ],
          "internalType": "struct IETS.TaggingRecordRawInput",
          "name": "_rawInput",
          "type": "tuple"
        },
        {
          "internalType": "address payable",
          "name": "_tagger",
          "type": "address"
        }
      ],
      "name": "applyTagsWithRawInput",
      "outputs": [],
      "stateMutability": "payable",
      "type": "function"
    },
    {
      "inputs": [
        {
          "internalType": "uint256",
          "name": "_taggingRecordId",
          "type": "uint256"
        },
        {
          "internalType": "uint256[]",
          "name": "_tagIds",
          "type": "uint256[]"
        },
        {
          "internalType": "enum IETS.TaggingAction",
          "name": "_action",
          "type": "uint8"
        }
      ],
      "name": "computeTaggingFee",
      "outputs": [
        {
          "internalType": "uint256",
          "name": "fee",
          "type": "uint256"
        },
        {
          "internalType": "uint256",
          "name": "tagCount",
          "type": "uint256"
        }
      ],
      "stateMutability": "view",
      "type": "function"
    },
    {
      "inputs": [
        {
          "internalType": "uint256[]",
          "name": "_tagIds",
          "type": "uint256[]"
        },
        {
          "internalType": "uint256",
          "name": "_targetId",
          "type": "uint256"
        },
        {
          "internalType": "string",
          "name": "_recordType",
          "type": "string"
        },
        {
          "internalType": "address",
          "name": "_relayer",
          "type": "address"
        },
        {
          "internalType": "address",
          "name": "_tagger",
          "type": "address"
        },
        {
          "internalType": "enum IETS.TaggingAction",
          "name": "_action",
          "type": "uint8"
        }
      ],
      "name": "computeTaggingFeeFromCompositeKey",
      "outputs": [
        {
          "internalType": "uint256",
          "name": "fee",
          "type": "uint256"
        },
        {
          "internalType": "uint256",
          "name": "tagCount",
          "type": "uint256"
        }
      ],
      "stateMutability": "view",
      "type": "function"
    },
    {
      "inputs": [
        {
          "components": [
            {
              "internalType": "string",
              "name": "targetURI",
              "type": "string"
            },
            {
              "internalType": "string[]",
              "name": "tagStrings",
              "type": "string[]"
            },
            {
              "internalType": "string",
              "name": "recordType",
              "type": "string"
            }
          ],
          "internalType": "struct IETS.TaggingRecordRawInput",
          "name": "_rawInput",
          "type": "tuple"
        },
        {
          "internalType": "address",
          "name": "_relayer",
          "type": "address"
        },
        {
          "internalType": "address",
          "name": "_tagger",
          "type": "address"
        },
        {
          "internalType": "enum IETS.TaggingAction",
          "name": "_action",
          "type": "uint8"
        }
      ],
      "name": "computeTaggingFeeFromRawInput",
      "outputs": [
        {
          "internalType": "uint256",
          "name": "fee",
          "type": "uint256"
        },
        {
          "internalType": "uint256",
          "name": "tagCount",
          "type": "uint256"
        }
      ],
      "stateMutability": "view",
      "type": "function"
    },
    {
      "inputs": [
        {
          "internalType": "uint256",
          "name": "_targetId",
          "type": "uint256"
        },
        {
          "internalType": "string",
          "name": "_recordType",
          "type": "string"
        },
        {
          "internalType": "address",
          "name": "_relayer",
          "type": "address"
        },
        {
          "internalType": "address",
          "name": "_tagger",
          "type": "address"
        }
      ],
      "name": "computeTaggingRecordIdFromCompositeKey",
      "outputs": [
        {
          "internalType": "uint256",
          "name": "taggingRecordId",
          "type": "uint256"
        }
      ],
      "stateMutability": "pure",
      "type": "function"
    },
    {
      "inputs": [
        {
          "components": [
            {
              "internalType": "string",
              "name": "targetURI",
              "type": "string"
            },
            {
              "internalType": "string[]",
              "name": "tagStrings",
              "type": "string[]"
            },
            {
              "internalType": "string",
              "name": "recordType",
              "type": "string"
            }
          ],
          "internalType": "struct IETS.TaggingRecordRawInput",
          "name": "_rawInput",
          "type": "tuple"
        },
        {
          "internalType": "address",
          "name": "_relayer",
          "type": "address"
        },
        {
          "internalType": "address",
          "name": "_tagger",
          "type": "address"
        }
      ],
      "name": "computeTaggingRecordIdFromRawInput",
      "outputs": [
        {
          "internalType": "uint256",
          "name": "taggingRecordId",
          "type": "uint256"
        }
      ],
      "stateMutability": "view",
      "type": "function"
    },
    {
      "inputs": [
        {
          "internalType": "string",
          "name": "_tag",
          "type": "string"
        },
        {
          "internalType": "address payable",
          "name": "_creator",
          "type": "address"
        }
      ],
      "name": "createTag",
      "outputs": [
        {
          "internalType": "uint256",
          "name": "_tokenId",
          "type": "uint256"
        }
      ],
      "stateMutability": "payable",
      "type": "function"
    },
    {
      "inputs": [
        {
          "internalType": "uint256[]",
          "name": "_tagIds",
          "type": "uint256[]"
        },
        {
          "internalType": "uint256",
          "name": "_targetId",
          "type": "uint256"
        },
        {
          "internalType": "string",
          "name": "_recordType",
          "type": "string"
        },
        {
          "internalType": "address",
          "name": "_tagger",
          "type": "address"
        }
      ],
      "name": "createTaggingRecord",
      "outputs": [],
      "stateMutability": "payable",
      "type": "function"
    },
    {
      "inputs": [
        {
          "internalType": "address payable",
          "name": "_account",
          "type": "address"
        }
      ],
      "name": "drawDown",
      "outputs": [],
      "stateMutability": "nonpayable",
      "type": "function"
    },
    {
      "inputs": [],
      "name": "etsAccessControls",
      "outputs": [
        {
          "internalType": "contract IETSAccessControls",
          "name": "",
          "type": "address"
        }
      ],
      "stateMutability": "view",
      "type": "function"
    },
    {
      "inputs": [],
      "name": "etsTarget",
      "outputs": [
        {
          "internalType": "contract IETSTarget",
          "name": "",
          "type": "address"
        }
      ],
      "stateMutability": "view",
      "type": "function"
    },
    {
      "inputs": [],
      "name": "etsToken",
      "outputs": [
        {
          "internalType": "contract IETSToken",
          "name": "",
          "type": "address"
        }
      ],
      "stateMutability": "view",
      "type": "function"
    },
    {
      "inputs": [
        {
          "internalType": "string",
          "name": "_tag",
          "type": "string"
        },
        {
          "internalType": "address payable",
          "name": "_creator",
          "type": "address"
        }
      ],
      "name": "getOrCreateTagId",
      "outputs": [
        {
          "internalType": "uint256",
          "name": "tokenId",
          "type": "uint256"
        }
      ],
      "stateMutability": "payable",
      "type": "function"
    },
    {
      "inputs": [
        {
          "internalType": "uint256",
          "name": "_targetId",
          "type": "uint256"
        },
        {
          "internalType": "string",
          "name": "_recordType",
          "type": "string"
        },
        {
          "internalType": "address",
          "name": "_relayer",
          "type": "address"
        },
        {
          "internalType": "address",
          "name": "_tagger",
          "type": "address"
        }
      ],
      "name": "getTaggingRecordFromCompositeKey",
      "outputs": [
        {
          "internalType": "uint256[]",
          "name": "tagIds",
          "type": "uint256[]"
        },
        {
          "internalType": "uint256",
          "name": "targetId",
          "type": "uint256"
        },
        {
          "internalType": "string",
          "name": "recordType",
          "type": "string"
        },
        {
          "internalType": "address",
          "name": "relayer",
          "type": "address"
        },
        {
          "internalType": "address",
          "name": "tagger",
          "type": "address"
        }
      ],
      "stateMutability": "view",
      "type": "function"
    },
    {
      "inputs": [
        {
          "internalType": "uint256",
          "name": "_id",
          "type": "uint256"
        }
      ],
      "name": "getTaggingRecordFromId",
      "outputs": [
        {
          "internalType": "uint256[]",
          "name": "tagIds",
          "type": "uint256[]"
        },
        {
          "internalType": "uint256",
          "name": "targetId",
          "type": "uint256"
        },
        {
          "internalType": "string",
          "name": "recordType",
          "type": "string"
        },
        {
          "internalType": "address",
          "name": "relayer",
          "type": "address"
        },
        {
          "internalType": "address",
          "name": "tagger",
          "type": "address"
        }
      ],
      "stateMutability": "view",
      "type": "function"
    },
    {
      "inputs": [
        {
          "components": [
            {
              "internalType": "string",
              "name": "targetURI",
              "type": "string"
            },
            {
              "internalType": "string[]",
              "name": "tagStrings",
              "type": "string[]"
            },
            {
              "internalType": "string",
              "name": "recordType",
              "type": "string"
            }
          ],
          "internalType": "struct IETS.TaggingRecordRawInput",
          "name": "_rawInput",
          "type": "tuple"
        },
        {
          "internalType": "address",
          "name": "_relayer",
          "type": "address"
        },
        {
          "internalType": "address",
          "name": "_tagger",
          "type": "address"
        }
      ],
      "name": "getTaggingRecordFromRawInput",
      "outputs": [
        {
          "internalType": "uint256[]",
          "name": "tagIds",
          "type": "uint256[]"
        },
        {
          "internalType": "uint256",
          "name": "targetId",
          "type": "uint256"
        },
        {
          "internalType": "string",
          "name": "recordType",
          "type": "string"
        },
        {
          "internalType": "address",
          "name": "relayer",
          "type": "address"
        },
        {
          "internalType": "address",
          "name": "tagger",
          "type": "address"
        }
      ],
      "stateMutability": "view",
      "type": "function"
    },
    {
      "inputs": [
        {
          "internalType": "contract IETSAccessControls",
          "name": "_etsAccessControls",
          "type": "address"
        },
        {
          "internalType": "contract IETSToken",
          "name": "_etsToken",
          "type": "address"
        },
        {
          "internalType": "contract IETSTarget",
          "name": "_etsTarget",
          "type": "address"
        },
        {
          "internalType": "uint256",
          "name": "_taggingFee",
          "type": "uint256"
        },
        {
          "internalType": "uint256",
          "name": "_platformPercentage",
          "type": "uint256"
        },
        {
          "internalType": "uint256",
          "name": "_relayerPercentage",
          "type": "uint256"
        }
      ],
      "name": "initialize",
      "outputs": [],
      "stateMutability": "nonpayable",
      "type": "function"
    },
    {
      "inputs": [
        {
          "internalType": "address",
          "name": "",
          "type": "address"
        }
      ],
      "name": "paid",
      "outputs": [
        {
          "internalType": "uint256",
          "name": "",
          "type": "uint256"
        }
      ],
      "stateMutability": "view",
      "type": "function"
    },
    {
      "inputs": [],
      "name": "platformPercentage",
      "outputs": [
        {
          "internalType": "uint256",
          "name": "",
          "type": "uint256"
        }
      ],
      "stateMutability": "view",
      "type": "function"
    },
    {
      "inputs": [],
      "name": "proxiableUUID",
      "outputs": [
        {
          "internalType": "bytes32",
          "name": "",
          "type": "bytes32"
        }
      ],
      "stateMutability": "view",
      "type": "function"
    },
    {
      "inputs": [],
      "name": "relayerPercentage",
      "outputs": [
        {
          "internalType": "uint256",
          "name": "",
          "type": "uint256"
        }
      ],
      "stateMutability": "view",
      "type": "function"
    },
    {
      "inputs": [
        {
          "internalType": "uint256",
          "name": "_taggingRecordId",
          "type": "uint256"
        },
        {
          "internalType": "uint256[]",
          "name": "_tagIds",
          "type": "uint256[]"
        }
      ],
      "name": "removeTags",
      "outputs": [],
      "stateMutability": "nonpayable",
      "type": "function"
    },
    {
      "inputs": [
        {
          "internalType": "uint256[]",
          "name": "_tagIds",
          "type": "uint256[]"
        },
        {
          "internalType": "uint256",
          "name": "_targetId",
          "type": "uint256"
        },
        {
          "internalType": "string",
          "name": "_recordType",
          "type": "string"
        },
        {
          "internalType": "address payable",
          "name": "_tagger",
          "type": "address"
        }
      ],
      "name": "removeTagsWithCompositeKey",
      "outputs": [],
      "stateMutability": "nonpayable",
      "type": "function"
    },
    {
      "inputs": [
        {
          "components": [
            {
              "internalType": "string",
              "name": "targetURI",
              "type": "string"
            },
            {
              "internalType": "string[]",
              "name": "tagStrings",
              "type": "string[]"
            },
            {
              "internalType": "string",
              "name": "recordType",
              "type": "string"
            }
          ],
          "internalType": "struct IETS.TaggingRecordRawInput",
          "name": "_rawInput",
          "type": "tuple"
        },
        {
          "internalType": "address",
          "name": "_tagger",
          "type": "address"
        }
      ],
      "name": "removeTagsWithRawInput",
      "outputs": [],
      "stateMutability": "nonpayable",
      "type": "function"
    },
    {
      "inputs": [
        {
          "internalType": "uint256",
          "name": "_taggingRecordId",
          "type": "uint256"
        },
        {
          "internalType": "uint256[]",
          "name": "_tagIds",
          "type": "uint256[]"
        }
      ],
      "name": "replaceTags",
      "outputs": [],
      "stateMutability": "payable",
      "type": "function"
    },
    {
      "inputs": [
        {
          "internalType": "uint256[]",
          "name": "_tagIds",
          "type": "uint256[]"
        },
        {
          "internalType": "uint256",
          "name": "_targetId",
          "type": "uint256"
        },
        {
          "internalType": "string",
          "name": "_recordType",
          "type": "string"
        },
        {
          "internalType": "address payable",
          "name": "_tagger",
          "type": "address"
        }
      ],
      "name": "replaceTagsWithCompositeKey",
      "outputs": [],
      "stateMutability": "payable",
      "type": "function"
    },
    {
      "inputs": [
        {
          "components": [
            {
              "internalType": "string",
              "name": "targetURI",
              "type": "string"
            },
            {
              "internalType": "string[]",
              "name": "tagStrings",
              "type": "string[]"
            },
            {
              "internalType": "string",
              "name": "recordType",
              "type": "string"
            }
          ],
          "internalType": "struct IETS.TaggingRecordRawInput",
          "name": "_rawInput",
          "type": "tuple"
        },
        {
          "internalType": "address payable",
          "name": "_tagger",
          "type": "address"
        }
      ],
      "name": "replaceTagsWithRawInput",
      "outputs": [],
      "stateMutability": "payable",
      "type": "function"
    },
    {
      "inputs": [
        {
          "internalType": "contract IETSAccessControls",
          "name": "_accessControls",
          "type": "address"
        }
      ],
      "name": "setAccessControls",
      "outputs": [],
      "stateMutability": "nonpayable",
      "type": "function"
    },
    {
      "inputs": [
        {
          "internalType": "uint256",
          "name": "_platformPercentage",
          "type": "uint256"
        },
        {
          "internalType": "uint256",
          "name": "_relayerPercentage",
          "type": "uint256"
        }
      ],
      "name": "setPercentages",
      "outputs": [],
      "stateMutability": "nonpayable",
      "type": "function"
    },
    {
      "inputs": [
        {
          "internalType": "uint256",
          "name": "_fee",
          "type": "uint256"
        }
      ],
      "name": "setTaggingFee",
      "outputs": [],
      "stateMutability": "nonpayable",
      "type": "function"
    },
    {
      "inputs": [],
      "name": "taggingFee",
      "outputs": [
        {
          "internalType": "uint256",
          "name": "",
          "type": "uint256"
        }
      ],
      "stateMutability": "view",
      "type": "function"
    },
    {
      "inputs": [
        {
          "internalType": "uint256",
          "name": "_taggingRecordId",
          "type": "uint256"
        }
      ],
      "name": "taggingRecordExists",
      "outputs": [
        {
          "internalType": "bool",
          "name": "",
          "type": "bool"
        }
      ],
      "stateMutability": "view",
      "type": "function"
    },
    {
      "inputs": [
        {
          "internalType": "uint256",
          "name": "_targetId",
          "type": "uint256"
        },
        {
          "internalType": "string",
          "name": "_recordType",
          "type": "string"
        },
        {
          "internalType": "address",
          "name": "_relayer",
          "type": "address"
        },
        {
          "internalType": "address",
          "name": "_tagger",
          "type": "address"
        }
      ],
      "name": "taggingRecordExistsByCompositeKey",
      "outputs": [
        {
          "internalType": "bool",
          "name": "",
          "type": "bool"
        }
      ],
      "stateMutability": "view",
      "type": "function"
    },
    {
      "inputs": [
        {
          "components": [
            {
              "internalType": "string",
              "name": "targetURI",
              "type": "string"
            },
            {
              "internalType": "string[]",
              "name": "tagStrings",
              "type": "string[]"
            },
            {
              "internalType": "string",
              "name": "recordType",
              "type": "string"
            }
          ],
          "internalType": "struct IETS.TaggingRecordRawInput",
          "name": "_rawInput",
          "type": "tuple"
        },
        {
          "internalType": "address",
          "name": "_relayer",
          "type": "address"
        },
        {
          "internalType": "address",
          "name": "_tagger",
          "type": "address"
        }
      ],
      "name": "taggingRecordExistsByRawInput",
      "outputs": [
        {
          "internalType": "bool",
          "name": "",
          "type": "bool"
        }
      ],
      "stateMutability": "view",
      "type": "function"
    },
    {
      "inputs": [
        {
          "internalType": "uint256",
          "name": "",
          "type": "uint256"
        }
      ],
      "name": "taggingRecords",
      "outputs": [
        {
          "internalType": "uint256",
          "name": "targetId",
          "type": "uint256"
        },
        {
          "internalType": "string",
          "name": "recordType",
          "type": "string"
        },
        {
          "internalType": "address",
          "name": "relayer",
          "type": "address"
        },
        {
          "internalType": "address",
          "name": "tagger",
          "type": "address"
        }
      ],
      "stateMutability": "view",
      "type": "function"
    },
    {
      "inputs": [
        {
          "internalType": "address",
          "name": "_account",
          "type": "address"
        }
      ],
      "name": "totalDue",
      "outputs": [
        {
          "internalType": "uint256",
          "name": "_due",
          "type": "uint256"
        }
      ],
      "stateMutability": "view",
      "type": "function"
    },
    {
      "inputs": [
        {
          "internalType": "address",
          "name": "newImplementation",
          "type": "address"
        }
      ],
      "name": "upgradeTo",
      "outputs": [],
      "stateMutability": "nonpayable",
      "type": "function"
    },
    {
      "inputs": [
        {
          "internalType": "address",
          "name": "newImplementation",
          "type": "address"
        },
        {
          "internalType": "bytes",
          "name": "data",
          "type": "bytes"
        }
      ],
      "name": "upgradeToAndCall",
      "outputs": [],
      "stateMutability": "payable",
      "type": "function"
    }
  ],
  "numDeployments": 2,
  "solcInputHash": "07e0391bf083dfa040f6976a912d82e1",
  "bytecode": "0x60a0604052306080523480156200001557600080fd5b506200002062000026565b620000e7565b600054610100900460ff1615620000935760405162461bcd60e51b815260206004820152602760248201527f496e697469616c697a61626c653a20636f6e747261637420697320696e697469604482015266616c697a696e6760c81b606482015260840160405180910390fd5b60005460ff90811614620000e5576000805460ff191660ff9081179091556040519081527f7f26b83ff96e1f2b6a682f133852f6798a09c465da95921460cefb38474024989060200160405180910390a15b565b6080516151d46200011f60003960008181610fab01528181611030015281816113be01528181611443015261158a01526151d46000f3fe6080604052600436106102e75760003560e01c806374716c8111610184578063a53d30a4116100d6578063c38f30371161008a578063f79fa98811610064578063f79fa98814610823578063fe52656f14610843578063ffa1ad741461085957600080fd5b8063c38f3037146107d0578063cd15832f146107e3578063ea552bc11461080357600080fd5b8063b148440f116100bb578063b148440f14610763578063bd2ec8c514610790578063c2062005146107b057600080fd5b8063a53d30a41461072e578063a8586f7b1461074e57600080fd5b8063962ed23211610138578063a33def1511610112578063a33def151461068b578063a340cf79146106ab578063a3f4df7e146106d857600080fd5b8063962ed23214610638578063a0e0da1814610658578063a27eee3c1461067857600080fd5b80638299f9f9116101695780638299f9f9146105e55780638361d140146106055780638633899c1461061857600080fd5b806374716c81146105955780637e2babd0146105c557600080fd5b806346444c091161023d57806354b4d676116101f157806368fd4dee116101cb57806368fd4dee1461053157806370a306f714610562578063728cdbca1461057557600080fd5b806354b4d676146104eb57806356c63489146104fe5780635bb0b13b1461051e57600080fd5b80634f1ef286116102225780634f1ef286146104a357806350064ea4146104b657806352d1902d146104d657600080fd5b806346444c091461045857806346ca0f4d1461046b57600080fd5b806318fc47761161029f5780632a1e1ee1116102795780632a1e1ee1146104025780633659cfe6146104185780633f9fc5821461043857600080fd5b806318fc4776146103875780631f741897146103b7578063249f3eec146103cd57600080fd5b806306d05ed2116102d057806306d05ed2146103145780630ad2f0c3146103475780631632a9bc1461036757600080fd5b806301f1e2d8146102ec5780630410ca9f14610301575b600080fd5b6102ff6102fa3660046142fa565b6108a2565b005b6102ff61030f36600461446e565b610b41565b34801561032057600080fd5b5061033461032f366004614536565b610d20565b6040519081526020015b60405180910390f35b34801561035357600080fd5b506103346103623660046145a2565b610d5a565b34801561037357600080fd5b506103346103823660046146c3565b610d8e565b34801561039357600080fd5b506103a76103a2366004614727565b610e1c565b604051901515815260200161033e565b3480156103c357600080fd5b5061033460cd5481565b3480156103d957600080fd5b506103ed6103e836600461474f565b610e41565b6040805192835260208301919091520161033e565b34801561040e57600080fd5b5061033460ce5481565b34801561042457600080fd5b506102ff6104333660046145a2565b610fa0565b34801561044457600080fd5b506102ff6104533660046147c2565b61111c565b6102ff61046636600461446e565b611165565b34801561047757600080fd5b5060ca5461048b906001600160a01b031681565b6040516001600160a01b03909116815260200161033e565b6102ff6104b1366004614874565b6113b3565b3480156104c257600080fd5b506103ed6104d1366004614910565b61151c565b3480156104e257600080fd5b5061033461157d565b6103346104f93660046149b9565b611642565b34801561050a57600080fd5b5060cb5461048b906001600160a01b031681565b6102ff61052c3660046147c2565b61178a565b34801561053d57600080fd5b5061055161054c366004614727565b6117d1565b60405161033e959493929190614a5d565b6102ff6105703660046142fa565b611901565b34801561058157600080fd5b506102ff610590366004614ad7565b6119fe565b3480156105a157600080fd5b506105b56105b0366004614727565b611b82565b60405161033e9493929190614b3c565b3480156105d157600080fd5b506102ff6105e03660046142fa565b611c43565b3480156105f157600080fd5b5060c95461048b906001600160a01b031681565b6102ff610613366004614b76565b611d89565b34801561062457600080fd5b506105516106333660046146c3565b611e43565b34801561064457600080fd5b506102ff610653366004614727565b611f4f565b34801561066457600080fd5b506102ff61067336600461446e565b612051565b6103346106863660046149b9565b612218565b34801561069757600080fd5b506105516106a6366004614536565b61234d565b3480156106b757600080fd5b506103346106c63660046145a2565b60d06020526000908152604090205481565b3480156106e457600080fd5b506107216040518060400160405280600881526020017f45545320436f726500000000000000000000000000000000000000000000000081525081565b60405161033e9190614bfe565b34801561073a57600080fd5b506103ed610749366004614c11565b6123de565b34801561075a57600080fd5b50610334606481565b34801561076f57600080fd5b5061033461077e3660046145a2565b60cf6020526000908152604090205481565b34801561079c57600080fd5b506102ff6107ab366004614c68565b612685565b3480156107bc57600080fd5b506102ff6107cb3660046145a2565b6127ed565b6102ff6107de366004614b76565b61293a565b3480156107ef57600080fd5b506102ff6107fe3660046145a2565b612c88565b34801561080f57600080fd5b506103a761081e3660046146c3565b612ec3565b34801561082f57600080fd5b506103a761083e366004614536565b612f4b565b34801561084f57600080fd5b5061033460cc5481565b34801561086557600080fd5b506107216040518060400160405280600581526020017f302e302e3200000000000000000000000000000000000000000000000000000081525081565b60c9546001600160a01b031663541d5548336040516001600160e01b031960e084901b1681526001600160a01b039091166004820152602401602060405180830381865afa1580156108f8573d6000803e3d6000fd5b505050506040513d601f19601f8201168201806040525081019061091c9190614c9a565b6109625760405162461bcd60e51b815260206004820152601260248201527121b0b63632b9103737ba102932b630bcb2b960711b60448201526064015b60405180910390fd5b60006109716020840184614cb5565b915050806109b45760405162461bcd60e51b815260206004820152601060248201526f139bc81d1859dcc81cdd5c1c1b1a595960821b6044820152606401610959565b60008167ffffffffffffffff8111156109cf576109cf61434c565b6040519080825280602002602001820160405280156109f8578160200160208202803683370190505b50905060005b82811015610a6b57610a3e610a166020870187614cb5565b83818110610a2657610a26614cff565b9050602002810190610a389190614d15565b86612218565b828281518110610a5057610a50614cff565b6020908102919091010152610a6481614d72565b90506109fe565b506000610a81610a7a86614d8d565b3386610d8e565b9050610a8c81610e1c565b15610aa057610a9b8183610b41565b610b3a565b60cb546000906001600160a01b031663cf99c815610abe8880614d15565b6040518363ffffffff1660e01b8152600401610adb929190614dc2565b6020604051808303816000875af1158015610afa573d6000803e3d6000fd5b505050506040513d601f19601f82011682018060405250810190610b1e9190614dd6565b9050610b388382610b3260408a018a614d15565b8961293a565b505b5050505050565b610b49612f6b565b600082815260d1602052604090206003015482906001600160a01b031633148015610be9575060c9546001600160a01b031663541d5548336040516001600160e01b031960e084901b1681526001600160a01b039091166004820152602401602060405180830381865afa158015610bc5573d6000803e3d6000fd5b505050506040513d601f19601f82011682018060405250810190610be99190614c9a565b80610c0d5750600081815260d160205260409020600401546001600160a01b031633145b610c4a5760405162461bcd60e51b815260206004820152600e60248201526d139bdd08185d5d1a1bdc9a5e995960921b6044820152606401610959565b6000825111610c8e5760405162461bcd60e51b815260206004820152601060248201526f139bc81d1859dcc81cdd5c1c1b1a595960821b6044820152606401610959565b600083815260d160209081526040918290208054835181840281018401909452808452610cf493869390929190830182828015610cea57602002820191906000526020600020905b815481526020019060010190808311610cd6575b5050505050612fc5565b805190925015610d1157610d0782613165565b610d11838361328a565b50610d1c6001603355565b5050565b600084848484604051602001610d399493929190614def565b60408051601f19818403018152919052805160209091012095945050505050565b6001600160a01b038116600090815260d0602090815260408083205460cf909252822054610d889190614e3c565b92915050565b60cb5483516040516323c7e9f360e01b8152600092610e12926001600160a01b03909116916323c7e9f391610dc591600401614bfe565b602060405180830381865afa158015610de2573d6000803e3d6000fd5b505050506040513d601f19601f82011682018060405250810190610e069190614dd6565b85604001518585610d20565b90505b9392505050565b600081815260d16020526040812060010154610e39576000610d88565b600192915050565b60008080610e526020880188614cb5565b9050905060008167ffffffffffffffff811115610e7157610e7161434c565b604051908082528060200260200182016040528015610e9a578160200160208202803683370190505b50905060005b82811015610f735760ca546001600160a01b031663f143fc61610ec660208c018c614cb5565b84818110610ed657610ed6614cff565b9050602002810190610ee89190614d15565b6040518363ffffffff1660e01b8152600401610f05929190614dc2565b602060405180830381865afa158015610f22573d6000803e3d6000fd5b505050506040513d601f19601f82011682018060405250810190610f469190614dd6565b828281518110610f5857610f58614cff565b6020908102919091010152610f6c81614d72565b9050610ea0565b50610f91610f8a610f838a614d8d565b8989610d8e565b82876123de565b93509350505094509492505050565b306001600160a01b037f000000000000000000000000000000000000000000000000000000000000000016141561102e5760405162461bcd60e51b815260206004820152602c60248201527f46756e6374696f6e206d7573742062652063616c6c6564207468726f7567682060448201526b19195b1959d85d1958d85b1b60a21b6064820152608401610959565b7f00000000000000000000000000000000000000000000000000000000000000006001600160a01b03166110897f360894a13ba1a3210667c828492db98dca3e2076cc3735a920a3ca505d382bbc546001600160a01b031690565b6001600160a01b0316146110f45760405162461bcd60e51b815260206004820152602c60248201527f46756e6374696f6e206d7573742062652063616c6c6564207468726f7567682060448201526b6163746976652070726f787960a01b6064820152608401610959565b6110fd81613349565b604080516000808252602082019092526111199183919061340f565b50565b610b3a61112c8484335b85610d20565b86868080602002602001604051908101604052809392919081815260200183836020028082843760009201919091525061205192505050565b61116d612f6b565b600082815260d1602052604090206003015482906001600160a01b03163314801561120d575060c9546001600160a01b031663541d5548336040516001600160e01b031960e084901b1681526001600160a01b039091166004820152602401602060405180830381865afa1580156111e9573d6000803e3d6000fd5b505050506040513d601f19601f8201168201806040525081019061120d9190614c9a565b806112315750600081815260d160205260409020600401546001600160a01b031633145b61126e5760405162461bcd60e51b815260206004820152600e60248201526d139bdd08185d5d1a1bdc9a5e995960921b6044820152606401610959565b60008251116112b25760405162461bcd60e51b815260206004820152601060248201526f139bc81d1859dcc81cdd5c1c1b1a595960821b6044820152606401610959565b600083815260d16020908152604080832080548251818502810185019093528083526113129383018282801561130757602002820191906000526020600020905b8154815260200190600101908083116112f3575b505050505084612fc5565b8051909150156113265761132684826135af565b600084815260d16020908152604091829020805483518184028101840190945280845261138a93879390929190830182828015610cea5760200282019190600052602060002090815481526020019060010190808311610cd6575050505050612fc5565b8051909350156113a75761139d83613165565b6113a7848461328a565b5050610d1c6001603355565b306001600160a01b037f00000000000000000000000000000000000000000000000000000000000000001614156114415760405162461bcd60e51b815260206004820152602c60248201527f46756e6374696f6e206d7573742062652063616c6c6564207468726f7567682060448201526b19195b1959d85d1958d85b1b60a21b6064820152608401610959565b7f00000000000000000000000000000000000000000000000000000000000000006001600160a01b031661149c7f360894a13ba1a3210667c828492db98dca3e2076cc3735a920a3ca505d382bbc546001600160a01b031690565b6001600160a01b0316146115075760405162461bcd60e51b815260206004820152602c60248201527f46756e6374696f6e206d7573742062652063616c6c6564207468726f7567682060448201526b6163746976652070726f787960a01b6064820152608401610959565b61151082613349565b610d1c8282600161340f565b60008061156d6115668989898080601f0160208091040260200160405190810160405280939291908181526020018383808284376000920191909152508b92508a9150610d209050565b8a856123de565b9150915097509795505050505050565b6000306001600160a01b037f0000000000000000000000000000000000000000000000000000000000000000161461161d5760405162461bcd60e51b815260206004820152603860248201527f555550535570677261646561626c653a206d757374206e6f742062652063616c60448201527f6c6564207468726f7567682064656c656761746563616c6c00000000000000006064820152608401610959565b507f360894a13ba1a3210667c828492db98dca3e2076cc3735a920a3ca505d382bbc90565b600061164c612f6b565b60c9546001600160a01b031663541d5548336040516001600160e01b031960e084901b1681526001600160a01b039091166004820152602401602060405180830381865afa1580156116a2573d6000803e3d6000fd5b505050506040513d601f19601f820116820180604052508101906116c69190614c9a565b6117075760405162461bcd60e51b815260206004820152601260248201527121b0b63632b9103737ba102932b630bcb2b960711b6044820152606401610959565b60ca546001600160a01b031663a675f1e3858533866040518563ffffffff1660e01b815260040161173b9493929190614e53565b6020604051808303816000875af115801561175a573d6000803e3d6000fd5b505050506040513d601f19601f8201168201806040525081019061177e9190614dd6565b9050610e156001603355565b610b3a611798848433611126565b86868080602002602001604051908101604052809392919081815260200183836020028082843760009201919091525061116592505050565b600081815260d16020908152604080832060018101546003820154600483015483548551818802810188019096528086526060979688968896879690958695919460028701946001600160a01b0392831694929093169287919083018282801561185a57602002820191906000526020600020905b815481526020019060010190808311611846575b5050505050945082805461186d90614e88565b80601f016020809104026020016040519081016040528092919081815260200182805461189990614e88565b80156118e65780601f106118bb576101008083540402835291602001916118e6565b820191906000526020600020905b8154815290600101906020018083116118c957829003601f168201915b50505050509250955095509550955095505091939590929450565b60006119106020840184614cb5565b915050806119535760405162461bcd60e51b815260206004820152601060248201526f139bc81d1859dcc81cdd5c1c1b1a595960821b6044820152606401610959565b60008167ffffffffffffffff81111561196e5761196e61434c565b604051908082528060200260200182016040528015611997578160200160208202803683370190505b50905060005b828110156119e2576119b5610a166020870187614cb5565b8282815181106119c7576119c7614cff565b60209081029190910101526119db81614d72565b905061199d565b506119f86119f2610a7a86614d8d565b82611165565b50505050565b600054610100900460ff1615808015611a1e5750600054600160ff909116105b80611a385750303b158015611a38575060005460ff166001145b611aaa5760405162461bcd60e51b815260206004820152602e60248201527f496e697469616c697a61626c653a20636f6e747261637420697320616c72656160448201527f647920696e697469616c697a65640000000000000000000000000000000000006064820152608401610959565b6000805460ff191660011790558015611acd576000805461ff0019166101001790555b611ad5613775565b60c980546001600160a01b03808a1673ffffffffffffffffffffffffffffffffffffffff199283161790925560ca805489841690831617905560cb805492881692909116919091179055611b2884611f4f565b611b328383612685565b8015611b79576000805461ff0019169055604051600181527f7f26b83ff96e1f2b6a682f133852f6798a09c465da95921460cefb3847402498906020015b60405180910390a15b50505050505050565b60d16020526000908152604090206001810154600282018054919291611ba790614e88565b80601f0160208091040260200160405190810160405280929190818152602001828054611bd390614e88565b8015611c205780601f10611bf557610100808354040283529160200191611c20565b820191906000526020600020905b815481529060010190602001808311611c0357829003601f168201915b50505050600383015460049093015491926001600160a01b039081169216905084565b6000611c526020840184614cb5565b9050905060008167ffffffffffffffff811115611c7157611c7161434c565b604051908082528060200260200182016040528015611c9a578160200160208202803683370190505b50905060005b82811015611d735760ca546001600160a01b031663f143fc61611cc66020880188614cb5565b84818110611cd657611cd6614cff565b9050602002810190611ce89190614d15565b6040518363ffffffff1660e01b8152600401611d05929190614dc2565b602060405180830381865afa158015611d22573d6000803e3d6000fd5b505050506040513d601f19601f82011682018060405250810190611d469190614dd6565b828281518110611d5857611d58614cff565b6020908102919091010152611d6c81614d72565b9050611ca0565b506119f8611d83610a7a86614d8d565b82612051565b845180611dcb5760405162461bcd60e51b815260206004820152601060248201526f139bc81d1859dcc81cdd5c1c1b1a595960821b6044820152606401610959565b6000611e178686868080601f016020809104026020016040519081016040528093929190818152602001838380828437600092019190915250611e119250612f67915050565b86610d20565b9050611e2281610e1c565b15611e3657611e318188610b41565b611b79565b611b79878787878761293a565b60cb5483516040516323c7e9f360e01b815260609260009284928492839230926368fd4dee92611ed8926001600160a01b03909116916323c7e9f391611e8b91600401614bfe565b602060405180830381865afa158015611ea8573d6000803e3d6000fd5b505050506040513d601f19601f82011682018060405250810190611ecc9190614dd6565b8b604001518b8b610d20565b6040518263ffffffff1660e01b8152600401611ef691815260200190565b600060405180830381865afa158015611f13573d6000803e3d6000fd5b505050506040513d6000823e601f3d908101601f19168201604052611f3b9190810190614f0d565b939c929b5090995097509095509350505050565b60c9546001600160a01b03166324d7806c336040516001600160e01b031960e084901b1681526001600160a01b039091166004820152602401602060405180830381865afa158015611fa5573d6000803e3d6000fd5b505050506040513d601f19601f82011682018060405250810190611fc99190614c9a565b6120155760405162461bcd60e51b815260206004820152601860248201527f43616c6c6572206e6f742041646d696e6973747261746f7200000000000000006044820152606401610959565b60cc8190556040518181527fc7c22e024ab071901183022e8bc5d443dd329ae4134ff83caa3944e1eab152d8906020015b60405180910390a150565b612059612f6b565b600082815260d1602052604090206003015482906001600160a01b0316331480156120f9575060c9546001600160a01b031663541d5548336040516001600160e01b031960e084901b1681526001600160a01b039091166004820152602401602060405180830381865afa1580156120d5573d6000803e3d6000fd5b505050506040513d601f19601f820116820180604052508101906120f99190614c9a565b8061211d5750600081815260d160205260409020600401546001600160a01b031633145b61215a5760405162461bcd60e51b815260206004820152600e60248201526d139bdd08185d5d1a1bdc9a5e995960921b6044820152606401610959565b600082511161219e5760405162461bcd60e51b815260206004820152601060248201526f139bc81d1859dcc81cdd5c1c1b1a595960821b6044820152606401610959565b600083815260d160209081526040918290208054835181840281018401909452808452612204938693909291908301828280156121fa57602002820191906000526020600020905b8154815260200190600101908083116121e6575b50505050506137ea565b805190925015610d1157610d1183836135af565b60c9546000906001600160a01b031663541d5548336040516001600160e01b031960e084901b1681526001600160a01b039091166004820152602401602060405180830381865afa158015612271573d6000803e3d6000fd5b505050506040513d601f19601f820116820180604052508101906122959190614c9a565b6122d65760405162461bcd60e51b815260206004820152601260248201527121b0b63632b9103737ba102932b630bcb2b960711b6044820152606401610959565b60ca546001600160a01b031663fed6c2e9858533866040518563ffffffff1660e01b815260040161230a9493929190614e53565b6020604051808303816000875af1158015612329573d6000803e3d6000fd5b505050506040513d601f19601f82011682018060405250810190610e129190614dd6565b60606000818180306368fd4dee6123668b8b8b8b610d20565b6040518263ffffffff1660e01b815260040161238491815260200190565b600060405180830381865afa1580156123a1573d6000803e3d6000fd5b505050506040513d6000823e601f3d908101601f191682016040526123c99190810190614f0d565b94509450945094509450945094509450945094565b6000806123ea85610e1c565b612403576123f88451613978565b84519150915061267d565b600083600281111561241757612417614fe8565b141561248457600085815260d16020908152604091829020805483518184028101840190945280845261248193889390929190830182828015610cea5760200282019190600052602060002090815481526020019060010190808311610cd6575050505050612fc5565b93505b600183600281111561249857612498614fe8565b14156125df57600085815260d160209081526040808320805482518185028101850190935280835291929091908301828280156124f457602002820191906000526020600020905b8154815260200190600101908083116124e0575b505050600089815260d1602090815260408083208054825181850281018501909352808352969750929561256195509093509083018282801561255657602002820191906000526020600020905b815481526020019060010190808311612542575b505050505087612fc5565b8051909150156125d057600087815260d1602090815260409182902080548351818402810184019094528084526125cd93928301828280156125c257602002820191906000526020600020905b8154815260200190600101908083116125ae575b505050505082612fc5565b91505b6125da8683612fc5565b955050505b60028360028111156125f3576125f3614fe8565b141561266c57600085815260d16020908152604091829020805483518184028101840190945280845261265d938893909291908301828280156121fa57602002820191906000526020600020908154815260200190600101908083116121e65750505050506137ea565b9350600084519150915061267d565b6126768451613978565b8451915091505b935093915050565b60c9546001600160a01b03166324d7806c336040516001600160e01b031960e084901b1681526001600160a01b039091166004820152602401602060405180830381865afa1580156126db573d6000803e3d6000fd5b505050506040513d601f19601f820116820180604052508101906126ff9190614c9a565b61274b5760405162461bcd60e51b815260206004820152601860248201527f43616c6c6572206e6f742041646d696e6973747261746f7200000000000000006044820152606401610959565b60646127578284614ffe565b11156127a55760405162461bcd60e51b815260206004820181905260248201527f70657263656e7461676573206d757374206e6f74206265206f766572203130306044820152606401610959565b60cd82905560ce81905560408051838152602081018390527fea32590d8a489d3bc12129ff9ed59ccf95efa42b017e0f23a14b57881a562a5e91015b60405180910390a15050565b6127f5612f6b565b600061280082610d5a565b90506000811180156128125750478111155b1561292f576001600160a01b038216600090815260d0602052604090205461283b908290614ffe565b6001600160a01b038316600081815260d0602052604080822093909355915183908381818185875af1925050503d8060008114612894576040519150601f19603f3d011682016040523d82523d6000602084013e612899565b606091505b50509050806128ea5760405162461bcd60e51b815260206004820152601060248201527f5472616e73666572206661696c65642e000000000000000000000000000000006044820152606401610959565b826001600160a01b03167feaff4b37086828766ad3268786972c0cd24259d4c87a80f9d3963a3c3d999b0d8360405161292591815260200190565b60405180910390a2505b506111196001603355565b612942612f6b565b60c9546001600160a01b031663541d5548336040516001600160e01b031960e084901b1681526001600160a01b039091166004820152602401602060405180830381865afa158015612998573d6000803e3d6000fd5b505050506040513d601f19601f820116820180604052508101906129bc9190614c9a565b6129fd5760405162461bcd60e51b815260206004820152601260248201527121b0b63632b9103737ba102932b630bcb2b960711b6044820152606401610959565b845180612a3f5760405162461bcd60e51b815260206004820152601060248201526f139bc81d1859dcc81cdd5c1c1b1a595960821b6044820152606401610959565b60005b81811015612b365760ca5487516001600160a01b039091169063b7bd44ed90899084908110612a7357612a73614cff565b60200260200101516040518263ffffffff1660e01b8152600401612a9991815260200190565b602060405180830381865afa158015612ab6573d6000803e3d6000fd5b505050506040513d601f19601f82011682018060405250810190612ada9190614c9a565b612b265760405162461bcd60e51b815260206004820152600d60248201527f496e76616c6964207461674964000000000000000000000000000000000000006044820152606401610959565b612b2f81614d72565b9050612a42565b5060038310801590612b485750601f83105b612b945760405162461bcd60e51b815260206004820152601460248201527f5265636f7264207479706520746f6f206c6f6e670000000000000000000000006044820152606401610959565b60cb546040517fcd7c68e2000000000000000000000000000000000000000000000000000000008152600481018790526001600160a01b039091169063cd7c68e290602401602060405180830381865afa158015612bf6573d6000803e3d6000fd5b505050506040513d601f19601f82011682018060405250810190612c1a9190614c9a565b612c665760405162461bcd60e51b815260206004820152601060248201527f496e76616c6964207461726765744964000000000000000000000000000000006044820152606401610959565b612c6f86613165565b612c7d86868686338761399e565b50610b3a6001603355565b60c9546001600160a01b03166324d7806c336040516001600160e01b031960e084901b1681526001600160a01b039091166004820152602401602060405180830381865afa158015612cde573d6000803e3d6000fd5b505050506040513d601f19601f82011682018060405250810190612d029190614c9a565b612d4e5760405162461bcd60e51b815260206004820152601860248201527f43616c6c6572206e6f742041646d696e6973747261746f7200000000000000006044820152606401610959565b6001600160a01b038116612da45760405162461bcd60e51b815260206004820152601660248201527f416464726573732063616e6e6f74206265207a65726f000000000000000000006044820152606401610959565b6001600160a01b0381166324d7806c336040516001600160e01b031960e084901b1681526001600160a01b039091166004820152602401602060405180830381865afa158015612df8573d6000803e3d6000fd5b505050506040513d601f19601f82011682018060405250810190612e1c9190614c9a565b612e685760405162461bcd60e51b815260206004820181905260248201527f43616c6c6572206e6f742061646d696e20696e206e657720636f6e74726163746044820152606401610959565b60c9805473ffffffffffffffffffffffffffffffffffffffff19166001600160a01b0383169081179091556040519081527f2f55f724ae3134584dfdd86a4ee1e090635ff9913722b5fe06e064cc7e3ed8b490602001612046565b60cb5483516040516323c7e9f360e01b8152600092610e12926103a2926001600160a01b03909216916323c7e9f391612efe91600401614bfe565b602060405180830381865afa158015612f1b573d6000803e3d6000fd5b505050506040513d601f19601f82011682018060405250810190612f3f9190614dd6565b86604001518686610d20565b6000612f5c6103a286868686610d20565b90505b949350505050565b3390565b60026033541415612fbe5760405162461bcd60e51b815260206004820152601f60248201527f5265656e7472616e637947756172643a207265656e7472616e742063616c6c006044820152606401610959565b6002603355565b815160609060008167ffffffffffffffff811115612fe557612fe561434c565b60405190808252806020026020018201604052801561300e578160200160208202803683370190505b5090506000805b8381101561308e57600087828151811061303157613031614cff565b602002602001015190506130458782613b0d565b61307b57600184838151811061305d5761305d614cff565b911515602092830291909101909101528261307781614d72565b9350505b508061308681614d72565b915050613015565b5060008167ffffffffffffffff8111156130aa576130aa61434c565b6040519080825280602002602001820160405280156130d3578160200160208202803683370190505b5090506000805b85811015613158578481815181106130f4576130f4614cff565b6020026020010151156131465788818151811061311357613113614cff565b602002602001015183838151811061312d5761312d614cff565b60209081029190910101528161314281614d72565b9250505b8061315081614d72565b9150506130da565b5090979650505050505050565b61316f8151613978565b34146131bd5760405162461bcd60e51b815260206004820152601260248201527f77726f6e672066656520737570706c69656400000000000000000000000000006044820152606401610959565b60c954604080517f3c0c456600000000000000000000000000000000000000000000000000000000815290516000926001600160a01b031691633c0c45669160048083019260209291908290030181865afa158015613220573d6000803e3d6000fd5b505050506040513d601f19601f820116820180604052508101906132449190615016565b905060005b82518110156132855761327583828151811061326757613267614cff565b602002602001015183613b23565b61327e81614d72565b9050613249565b505050565b600082815260d1602090815260409182902080548351818402810184019094528084526132ec93928301828280156132e157602002820191906000526020600020905b8154815260200190600101908083116132cd575b505050505082613da4565b600083815260d160209081526040909120825161330f93919291909101906141ea565b507f926bdaffb66b17607427b94e3524f536690b435ab89ee7178c6fef859c17f5be8260006040516127e1929190615033565b6001603355565b60c9546001600160a01b03166324d7806c336040516001600160e01b031960e084901b1681526001600160a01b039091166004820152602401602060405180830381865afa15801561339f573d6000803e3d6000fd5b505050506040513d601f19601f820116820180604052508101906133c39190614c9a565b6111195760405162461bcd60e51b815260206004820152601860248201527f43616c6c6572206e6f742041646d696e6973747261746f7200000000000000006044820152606401610959565b7f4910fdfa16fed3260ed0e7147f7cc6da11a60208b5b9406d12a635614ffd91435460ff16156134425761328583613eba565b826001600160a01b03166352d1902d6040518163ffffffff1660e01b8152600401602060405180830381865afa92505050801561349c575060408051601f3d908101601f1916820190925261349991810190614dd6565b60015b61350e5760405162461bcd60e51b815260206004820152602e60248201527f45524331393637557067726164653a206e657720696d706c656d656e7461746960448201527f6f6e206973206e6f7420555550530000000000000000000000000000000000006064820152608401610959565b7f360894a13ba1a3210667c828492db98dca3e2076cc3735a920a3ca505d382bbc81146135a35760405162461bcd60e51b815260206004820152602960248201527f45524331393637557067726164653a20756e737570706f727465642070726f7860448201527f6961626c655555494400000000000000000000000000000000000000000000006064820152608401610959565b50613285838383613f85565b600082815260d1602052604090206003015482906001600160a01b03163314801561364f575060c9546001600160a01b031663541d5548336040516001600160e01b031960e084901b1681526001600160a01b039091166004820152602401602060405180830381865afa15801561362b573d6000803e3d6000fd5b505050506040513d601f19601f8201168201806040525081019061364f9190614c9a565b806136735750600081815260d160205260409020600401546001600160a01b031633145b6136b05760405162461bcd60e51b815260206004820152600e60248201526d139bdd08185d5d1a1bdc9a5e995960921b6044820152606401610959565b600083815260d160209081526040918290208054835181840281018401909452808452613712939283018282801561370757602002820191906000526020600020905b8154815260200190600101908083116136f3575b505050505083612fc5565b600084815260d160209081526040909120825161373593919291909101906141ea565b507f926bdaffb66b17607427b94e3524f536690b435ab89ee7178c6fef859c17f5be836002604051613768929190615033565b60405180910390a1505050565b600054610100900460ff166137e05760405162461bcd60e51b815260206004820152602b60248201527f496e697469616c697a61626c653a20636f6e7472616374206973206e6f74206960448201526a6e697469616c697a696e6760a81b6064820152608401610959565b6137e8613faa565b565b815160609060008167ffffffffffffffff81111561380a5761380a61434c565b604051908082528060200260200182016040528015613833578160200160208202803683370190505b5090506000805b838110156138ae576138658688838151811061385857613858614cff565b6020026020010151613b0d565b1561389c57600183828151811061387e5761387e614cff565b911515602092830291909101909101528161389881614d72565b9250505b806138a681614d72565b91505061383a565b5060008167ffffffffffffffff8111156138ca576138ca61434c565b6040519080825280602002602001820160405280156138f3578160200160208202803683370190505b5090506000805b858110156131585784818151811061391457613914614cff565b6020026020010151156139665788818151811061393357613933614cff565b602002602001015183838151811061394d5761394d614cff565b60209081029190910101528161396281614d72565b9250505b8061397081614d72565b9150506138fa565b600080821580159061398c5750600060cc54115b15610d885760cc54610e159084615065565b60006139e48686868080601f016020809104026020016040519081016040528093929190818152602001838380828437600092019190915250889250879150610d209050565b90506040518060a0016040528088815260200187815260200186868080601f01602080910402602001604051908101604052809392919081815260200183838082843760009201829052509385525050506001600160a01b0380871660208085019190915290861660409384015284825260d18152919020825180519192613a71928492909101906141ea565b50602082810151600183015560408301518051613a949260028501920190614235565b50606082015160038201805473ffffffffffffffffffffffffffffffffffffffff199081166001600160a01b03938416179091556080909301516004909201805490931691161790556040518181527f68ebebf651507af1acff160fd4e8f900a0b89fe3224f86b8306a3b857cd7542e90602001611b70565b600080613b1a8484614015565b95945050505050565b60ca546040517f6352211e000000000000000000000000000000000000000000000000000000008152600481018490526000916001600160a01b031690636352211e90602401602060405180830381865afa158015613b86573d6000803e3d6000fd5b505050506040513d601f19601f82011682018060405250810190613baa9190615016565b60ca546040517f4b3d267f000000000000000000000000000000000000000000000000000000008152600481018690529192506000916001600160a01b0390911690634b3d267f90602401600060405180830381865afa158015613c12573d6000803e3d6000fd5b505050506040513d6000823e601f3d908101601f19168201604052613c3a9190810190615084565b90506000606460cd5434613c4e9190615065565b613c589190615139565b90506000606460ce5434613c6c9190615065565b613c769190615139565b90506000613c848284614ffe565b613c8e9034614e3c565b6001600160a01b038716600090815260cf6020526040902054909150613cb5908490614ffe565b6001600160a01b03808816600090815260cf602052604080822093909355865190911681522054613ce7908390614ffe565b84516001600160a01b03908116600090815260cf60205260409020919091558581169087161415613d5e576020808501516001600160a01b0316600090815260cf9091526040902054613d3b908290614ffe565b6020808601516001600160a01b0316600090815260cf9091526040902055611b79565b6001600160a01b038516600090815260cf6020526040902054613d82908290614ffe565b6001600160a01b038616600090815260cf602052604090205550505050505050565b81518151606091906000613db88284614ffe565b67ffffffffffffffff811115613dd057613dd061434c565b604051908082528060200260200182016040528015613df9578160200160208202803683370190505b50905060005b83811015613e5057868181518110613e1957613e19614cff565b6020026020010151828281518110613e3357613e33614cff565b602090810291909101015280613e4881614d72565b915050613dff565b5060005b82811015613eb057858181518110613e6e57613e6e614cff565b6020026020010151828286613e839190614ffe565b81518110613e9357613e93614cff565b602090810291909101015280613ea881614d72565b915050613e54565b5095945050505050565b6001600160a01b0381163b613f375760405162461bcd60e51b815260206004820152602d60248201527f455243313936373a206e657720696d706c656d656e746174696f6e206973206e60448201527f6f74206120636f6e7472616374000000000000000000000000000000000000006064820152608401610959565b7f360894a13ba1a3210667c828492db98dca3e2076cc3735a920a3ca505d382bbc805473ffffffffffffffffffffffffffffffffffffffff19166001600160a01b0392909216919091179055565b613f8e83614077565b600082511180613f9b5750805b15613285576119f883836140b7565b600054610100900460ff166133425760405162461bcd60e51b815260206004820152602b60248201527f496e697469616c697a61626c653a20636f6e7472616374206973206e6f74206960448201526a6e697469616c697a696e6760a81b6064820152608401610959565b81516000908190815b81811015614066578486828151811061403957614039614cff565b60200260200101511415614054579250600191506140709050565b8061405e81614d72565b91505061401e565b5060008092509250505b9250929050565b61408081613eba565b6040516001600160a01b038216907fbc7cd75a20ee27fd9adebab32041f755214dbc6bffa90cc0225b39da2e5c2d3b90600090a250565b6060610e158383604051806060016040528060278152602001615178602791396060600080856001600160a01b0316856040516140f4919061515b565b600060405180830381855af49150503d806000811461412f576040519150601f19603f3d011682016040523d82523d6000602084013e614134565b606091505b50915091506141458683838761414f565b9695505050505050565b606083156141bb5782516141b4576001600160a01b0385163b6141b45760405162461bcd60e51b815260206004820152601d60248201527f416464726573733a2063616c6c20746f206e6f6e2d636f6e74726163740000006044820152606401610959565b5081612f5f565b612f5f83838151156141d05781518083602001fd5b8060405162461bcd60e51b81526004016109599190614bfe565b828054828255906000526020600020908101928215614225579160200282015b8281111561422557825182559160200191906001019061420a565b506142319291506142a8565b5090565b82805461424190614e88565b90600052602060002090601f0160209004810192826142635760008555614225565b82601f1061427c57805160ff1916838001178555614225565b82800160010185558215614225579182018281111561422557825182559160200191906001019061420a565b5b8082111561423157600081556001016142a9565b6000606082840312156142cf57600080fd5b50919050565b6001600160a01b038116811461111957600080fd5b80356142f5816142d5565b919050565b6000806040838503121561430d57600080fd5b823567ffffffffffffffff81111561432457600080fd5b614330858286016142bd565b9250506020830135614341816142d5565b809150509250929050565b634e487b7160e01b600052604160045260246000fd5b6040516060810167ffffffffffffffff811182821017156143855761438561434c565b60405290565b60405160a0810167ffffffffffffffff811182821017156143855761438561434c565b604051601f8201601f1916810167ffffffffffffffff811182821017156143d7576143d761434c565b604052919050565b600067ffffffffffffffff8211156143f9576143f961434c565b5060051b60200190565b600082601f83011261441457600080fd5b81356020614429614424836143df565b6143ae565b82815260059290921b8401810191818101908684111561444857600080fd5b8286015b84811015614463578035835291830191830161444c565b509695505050505050565b6000806040838503121561448157600080fd5b82359150602083013567ffffffffffffffff81111561449f57600080fd5b6144ab85828601614403565b9150509250929050565b600067ffffffffffffffff8211156144cf576144cf61434c565b50601f01601f191660200190565b60006144eb614424846144b5565b90508281528383830111156144ff57600080fd5b828260208301376000602084830101529392505050565b600082601f83011261452757600080fd5b610e15838335602085016144dd565b6000806000806080858703121561454c57600080fd5b84359350602085013567ffffffffffffffff81111561456a57600080fd5b61457687828801614516565b9350506040850135614587816142d5565b91506060850135614597816142d5565b939692955090935050565b6000602082840312156145b457600080fd5b8135610e15816142d5565b6000606082840312156145d157600080fd5b6145d9614362565b9050813567ffffffffffffffff808211156145f357600080fd5b6145ff85838601614516565b835260209150818401358181111561461657600080fd5b8401601f8101861361462757600080fd5b8035614635614424826143df565b81815260059190911b8201840190848101908883111561465457600080fd5b8584015b8381101561468c578035868111156146705760008081fd5b61467e8b8983890101614516565b845250918601918601614658565b5080868801525050505060408401359150808211156146aa57600080fd5b506146b784828501614516565b60408301525092915050565b6000806000606084860312156146d857600080fd5b833567ffffffffffffffff8111156146ef57600080fd5b6146fb868287016145bf565b935050602084013561470c816142d5565b9150604084013561471c816142d5565b809150509250925092565b60006020828403121561473957600080fd5b5035919050565b8035600381106142f557600080fd5b6000806000806080858703121561476557600080fd5b843567ffffffffffffffff81111561477c57600080fd5b614788878288016142bd565b9450506020850135614799816142d5565b925060408501356147a9816142d5565b91506147b760608601614740565b905092959194509250565b6000806000806000608086880312156147da57600080fd5b853567ffffffffffffffff808211156147f257600080fd5b818801915088601f83011261480657600080fd5b81358181111561481557600080fd5b8960208260051b850101111561482a57600080fd5b6020928301975095509087013593506040870135908082111561484c57600080fd5b5061485988828901614516565b925050614868606087016142ea565b90509295509295909350565b6000806040838503121561488757600080fd5b8235614892816142d5565b9150602083013567ffffffffffffffff8111156148ae57600080fd5b8301601f810185136148bf57600080fd5b6144ab858235602084016144dd565b60008083601f8401126148e057600080fd5b50813567ffffffffffffffff8111156148f857600080fd5b60208301915083602082850101111561407057600080fd5b600080600080600080600060c0888a03121561492b57600080fd5b873567ffffffffffffffff8082111561494357600080fd5b61494f8b838c01614403565b985060208a0135975060408a013591508082111561496c57600080fd5b506149798a828b016148ce565b909650945050606088013561498d816142d5565b9250608088013561499d816142d5565b91506149ab60a08901614740565b905092959891949750929550565b6000806000604084860312156149ce57600080fd5b833567ffffffffffffffff8111156149e557600080fd5b6149f1868287016148ce565b909450925050602084013561471c816142d5565b60005b83811015614a20578181015183820152602001614a08565b838111156119f85750506000910152565b60008151808452614a49816020860160208601614a05565b601f01601f19169290920160200192915050565b60a0808252865190820181905260009060209060c0840190828a01845b82811015614a9657815184529284019290840190600101614a7a565b50505087828501528381036040850152614ab08188614a31565b925050506001600160a01b0380851660608401528084166080840152509695505050505050565b60008060008060008060c08789031215614af057600080fd5b8635614afb816142d5565b95506020870135614b0b816142d5565b94506040870135614b1b816142d5565b959894975094956060810135955060808101359460a0909101359350915050565b848152608060208201526000614b556080830186614a31565b6001600160a01b039485166040840152929093166060909101529392505050565b600080600080600060808688031215614b8e57600080fd5b853567ffffffffffffffff80821115614ba657600080fd5b614bb289838a01614403565b9650602088013595506040880135915080821115614bcf57600080fd5b50614bdc888289016148ce565b9094509250506060860135614bf0816142d5565b809150509295509295909350565b602081526000610e156020830184614a31565b600080600060608486031215614c2657600080fd5b83359250602084013567ffffffffffffffff811115614c4457600080fd5b614c5086828701614403565b925050614c5f60408501614740565b90509250925092565b60008060408385031215614c7b57600080fd5b50508035926020909101359150565b805180151581146142f557600080fd5b600060208284031215614cac57600080fd5b610e1582614c8a565b6000808335601e19843603018112614ccc57600080fd5b83018035915067ffffffffffffffff821115614ce757600080fd5b6020019150600581901b360382131561407057600080fd5b634e487b7160e01b600052603260045260246000fd5b6000808335601e19843603018112614d2c57600080fd5b83018035915067ffffffffffffffff821115614d4757600080fd5b60200191503681900382131561407057600080fd5b634e487b7160e01b600052601160045260246000fd5b6000600019821415614d8657614d86614d5c565b5060010190565b6000610d8836836145bf565b81835281816020850137506000828201602090810191909152601f909101601f19169091010190565b602081526000610e12602083018486614d99565b600060208284031215614de857600080fd5b5051919050565b84815260008451614e07816020850160208901614a05565b6bffffffffffffffffffffffff19606095861b81169190930160208101919091529290931b1660348201526048019392505050565b600082821015614e4e57614e4e614d5c565b500390565b606081526000614e67606083018688614d99565b6001600160a01b039485166020840152929093166040909101529392505050565b600181811c90821680614e9c57607f821691505b602082108114156142cf57634e487b7160e01b600052602260045260246000fd5b600082601f830112614ece57600080fd5b8151614edc614424826144b5565b818152846020838601011115614ef157600080fd5b612f5f826020830160208701614a05565b80516142f5816142d5565b600080600080600060a08688031215614f2557600080fd5b855167ffffffffffffffff80821115614f3d57600080fd5b818801915088601f830112614f5157600080fd5b81516020614f61614424836143df565b82815260059290921b8401810191818101908c841115614f8057600080fd5b948201945b83861015614f9e57855182529482019490820190614f85565b918b015160408c0151929a509850909350505080821115614fbe57600080fd5b50614fcb88828901614ebd565b935050614fda60608701614f02565b915061486860808701614f02565b634e487b7160e01b600052602160045260246000fd5b6000821982111561501157615011614d5c565b500190565b60006020828403121561502857600080fd5b8151610e15816142d5565b828152604081016003831061505857634e487b7160e01b600052602160045260246000fd5b8260208301529392505050565b600081600019048311821515161561507f5761507f614d5c565b500290565b60006020828403121561509657600080fd5b815167ffffffffffffffff808211156150ae57600080fd5b9083019060a082860312156150c257600080fd5b6150ca61438b565b82516150d5816142d5565b815260208301516150e5816142d5565b60208201526040830151828111156150fc57600080fd5b61510887828601614ebd565b60408301525061511a60608401614c8a565b606082015261512b60808401614c8a565b608082015295945050505050565b60008261515657634e487b7160e01b600052601260045260246000fd5b500490565b6000825161516d818460208701614a05565b919091019291505056fe416464726573733a206c6f772d6c6576656c2064656c65676174652063616c6c206661696c6564a2646970667358221220af7c17f22e55d559f49a9a8fb9677e57a71699db0928be63c5f292957b53579364736f6c634300080c0033",
  "devdoc": {
    "kind": "dev",
    "methods": {
      "appendTags(uint256,uint256[])": {
        "params": {
          "_tagIds": "Array of CTAG token Ids.",
          "_taggingRecordId": "tagging record being updated."
        }
      },
      "applyTagsWithCompositeKey(uint256[],uint256,string,address)": {
        "params": {
          "_recordType": "Arbitrary identifier for type of tagging record.",
          "_tagIds": "Array of CTAG token Ids.",
          "_tagger": "Address of that calls Relayer to create tagging record.",
          "_targetId": "targetId of the URI being tagged. See ETSTarget.sol"
        }
      },
      "applyTagsWithRawInput((string,string[],string),address)": {
        "params": {
          "_rawInput": "Raw client input data formed as TaggingRecordRawInput struct.",
          "_tagger": "Address that calls Relayer to tag a targetURI."
        }
      },
      "computeTaggingFee(uint256,uint256[],uint8)": {
        "params": {
          "_action": "Integer representing action to be performed according to enum TaggingAction.",
          "_tagIds": "Array of CTAG token Ids.",
          "_taggingRecordId": "Id of tagging record."
        },
        "returns": {
          "fee": "Calculated tagging fee in ETH/Matic",
          "tagCount": "Number of new tags being added to tagging record."
        }
      },
      "computeTaggingFeeFromCompositeKey(uint256[],uint256,string,address,address,uint8)": {
        "params": {
          "_action": "Integer representing action to be performed according to enum TaggingAction.",
          "_relayer": "Address of tagging record Relayer contract.",
          "_tagIds": "Array of CTAG token Ids.",
          "_tagger": "Address interacting with Relayer to tag content (\"Tagger\")."
        },
        "returns": {
          "fee": "Calculated tagging fee in ETH/Matic",
          "tagCount": "Number of new tags being added to tagging record."
        }
      },
      "computeTaggingFeeFromRawInput((string,string[],string),address,address,uint8)": {
        "params": {
          "_action": "Integer representing action to be performed according to enum TaggingAction.",
          "_rawInput": "Raw client input data formed as TaggingRecordRawInput struct.",
          "_relayer": "Address of tagging record Relayer contract.",
          "_tagger": "Address interacting with Relayer to tag content (\"Tagger\")."
        },
        "returns": {
          "fee": "Calculated tagging fee in ETH/Matic",
          "tagCount": "Number of new tags being added to tagging record."
        }
      },
      "computeTaggingRecordIdFromCompositeKey(uint256,string,address,address)": {
        "params": {
          "_recordType": "Arbitrary identifier for type of tagging record.",
          "_relayer": "Address of tagging record Relayer contract.",
          "_tagger": "Address interacting with Relayer to tag content (\"Tagger\").",
          "_targetId": "Id of target being tagged (see ETSTarget.sol)."
        },
        "returns": {
          "taggingRecordId": "Unique identifier for a tagging record."
        }
      },
      "computeTaggingRecordIdFromRawInput((string,string[],string),address,address)": {
        "params": {
          "_rawInput": "Raw client input data formed as TaggingRecordRawInput struct.",
          "_relayer": "Address of tagging record Relayer contract.",
          "_tagger": "Address interacting with Relayer to tag content (\"Tagger\")."
        },
        "returns": {
          "taggingRecordId": "Unique identifier for a tagging record."
        }
      },
      "constructor": {
        "custom:oz-upgrades-unsafe-allow": "constructor"
      },
      "createTag(string,address)": {
        "params": {
          "_creator": "Address credited with creating CTAG.",
          "_tag": "Tag string."
        },
        "returns": {
          "_tokenId": "Id of CTAG token."
        }
      },
      "createTaggingRecord(uint256[],uint256,string,address)": {
        "params": {
          "_recordType": "Arbitrary identifier for type of tagging record.",
          "_tagIds": "Array of CTAG token Ids.",
          "_tagger": "Address calling Relayer contract to create tagging record.",
          "_targetId": "targetId of the URI being tagged. See ETSTarget.sol"
        }
      },
      "drawDown(address)": {
        "params": {
          "_account": "Address of account being drawn down and which will receive the funds."
        }
      },
      "getOrCreateTagId(string,address)": {
        "params": {
          "_creator": "Address credited with creating CTAG.",
          "_tag": "Tag string."
        },
        "returns": {
          "tokenId": "Id of CTAG token."
        }
      },
      "getTaggingRecordFromCompositeKey(uint256,string,address,address)": {
        "params": {
          "_recordType": "Arbitrary identifier for type of tagging record.",
          "_relayer": "Address of Relayer contract that wrote tagging record.",
          "_tagger": "Address of wallet that initiated tagging record via relayer.",
          "_targetId": "Id of target being tagged."
        },
        "returns": {
          "recordType": "Type of tagging record.",
          "relayer": "Address of tagging record Relayer contract.",
          "tagIds": "CTAG token ids.",
          "tagger": "Address interacting with Relayer to tag content (\"Tagger\").",
          "targetId": "TargetId that was tagged."
        }
      },
      "getTaggingRecordFromId(uint256)": {
        "params": {
          "_id": "taggingRecordId."
        },
        "returns": {
          "recordType": "Type of tagging record.",
          "relayer": "Address of tagging record Relayer contract.",
          "tagIds": "CTAG token ids.",
          "tagger": "Address interacting with Relayer to tag content (\"Tagger\").",
          "targetId": "TargetId that was tagged."
        }
      },
      "getTaggingRecordFromRawInput((string,string[],string),address,address)": {
        "params": {
          "_rawInput": "Raw client input data formed as TaggingRecordRawInput struct.",
          "_relayer": "Address of tagging record Relayer contract.",
          "_tagger": "Address interacting with Relayer to tag content (\"Tagger\")."
        },
        "returns": {
          "recordType": "Type of tagging record.",
          "relayer": "Address of tagging record Relayer contract.",
          "tagIds": "CTAG token ids.",
          "tagger": "Address interacting with Relayer to tag content (\"Tagger\").",
          "targetId": "TargetId that was tagged."
        }
      },
      "proxiableUUID()": {
        "details": "Implementation of the ERC1822 {proxiableUUID} function. This returns the storage slot used by the implementation. It is used to validate the implementation's compatibility when performing an upgrade. IMPORTANT: A proxy pointing at a proxiable contract should not be considered proxiable itself, because this risks bricking a proxy that upgrades to it, by delegating to itself until out of gas. Thus it is critical that this function revert if invoked through a proxy. This is guaranteed by the `notDelegated` modifier."
      },
      "removeTags(uint256,uint256[])": {
        "params": {
          "_tagIds": "Array of CTAG token Ids.",
          "_taggingRecordId": "tagging record being updated."
        }
      },
      "removeTagsWithCompositeKey(uint256[],uint256,string,address)": {
        "params": {
          "_recordType": "Arbitrary identifier for type of tagging record.",
          "_tagIds": "Array of CTAG token Ids.",
          "_tagger": "Address of that calls Relayer to create tagging record.",
          "_targetId": "targetId of the URI being tagged. See ETSTarget.sol"
        }
      },
      "removeTagsWithRawInput((string,string[],string),address)": {
        "params": {
          "_rawInput": "Raw client input data formed as TaggingRecordRawInput struct.",
          "_tagger": "Address that calls Relayer to tag a targetURI."
        }
      },
      "replaceTags(uint256,uint256[])": {
        "params": {
          "_tagIds": "Array of CTAG token Ids.",
          "_taggingRecordId": "tagging record being updated."
        }
      },
      "replaceTagsWithCompositeKey(uint256[],uint256,string,address)": {
        "params": {
          "_recordType": "Arbitrary identifier for type of tagging record.",
          "_tagIds": "Array of CTAG token Ids.",
          "_tagger": "Address of that calls Relayer to create tagging record.",
          "_targetId": "targetId of the URI being tagged. See ETSTarget.sol"
        }
      },
      "replaceTagsWithRawInput((string,string[],string),address)": {
        "params": {
          "_rawInput": "Raw client input data formed as TaggingRecordRawInput struct.",
          "_tagger": "Address that calls Relayer to tag a targetURI."
        }
      },
      "setAccessControls(address)": {
        "params": {
          "_accessControls": "Address of ETSAccessControls contract."
        }
      },
      "setPercentages(uint256,uint256)": {
        "params": {
          "_platformPercentage": "percentage for platform.",
          "_relayerPercentage": "percentage for relayer."
        }
      },
      "setTaggingFee(uint256)": {
        "params": {
          "_fee": "Value of the fee in WEI."
        }
      },
      "taggingRecordExists(uint256)": {
        "params": {
          "_taggingRecordId": "taggingRecordId."
        },
        "returns": {
          "_0": "boolean; true for exists, false for not."
        }
      },
      "taggingRecordExistsByCompositeKey(uint256,string,address,address)": {
        "params": {
          "_recordType": "Arbitrary identifier for type of tagging record.",
          "_relayer": "Address of Relayer contract that wrote tagging record.",
          "_tagger": "Address of wallet that initiated tagging record via relayer.",
          "_targetId": "Id of target being tagged."
        },
        "returns": {
          "_0": "boolean; true for exists, false for not."
        }
      },
      "taggingRecordExistsByRawInput((string,string[],string),address,address)": {
        "params": {
          "_rawInput": "Raw client input data formed as TaggingRecordRawInput struct.",
          "_relayer": "Address of tagging record Relayer contract.",
          "_tagger": "Address interacting with Relayer to tag content (\"Tagger\")."
        },
        "returns": {
          "_0": "boolean; true for exists, false for not."
        }
      },
      "totalDue(address)": {
        "params": {
          "_account": "Address of the account being queried."
        },
        "returns": {
          "_due": "Amount of WEI in MATIC due to account."
        }
      },
      "upgradeTo(address)": {
        "custom:oz-upgrades-unsafe-allow-reachable": "delegatecall",
        "details": "Upgrade the implementation of the proxy to `newImplementation`. Calls {_authorizeUpgrade}. Emits an {Upgraded} event."
      },
      "upgradeToAndCall(address,bytes)": {
        "custom:oz-upgrades-unsafe-allow-reachable": "delegatecall",
        "details": "Upgrade the implementation of the proxy to `newImplementation`, and subsequently execute the function call encoded in `data`. Calls {_authorizeUpgrade}. Emits an {Upgraded} event."
      }
    },
    "stateVariables": {
      "accrued": {
        "details": "Map for holding amount accrued to participant address wallets."
      },
      "etsAccessControls": {
        "details": "ETS access controls contract."
      },
      "etsTarget": {
        "details": "ETS Targets contract."
      },
      "etsToken": {
        "details": "CTAG erc-721 token contract."
      },
      "paid": {
        "details": "Map for holding lifetime amount drawn down from accrued by participants."
      },
      "platformPercentage": {
        "details": "Percentage of tagging fee allocated to ETS."
      },
      "relayerPercentage": {
        "details": "Percentage of tagging fee allocated to Relayer."
      },
      "taggingFee": {
        "details": "Fee in MATIC Collected by ETS for tagging."
      },
      "taggingRecords": {
        "details": "Map of tagging id to tagging record."
      }
    },
    "version": 1
  },
  "userdoc": {
    "kind": "user",
    "methods": {
      "NAME()": {
        "notice": "Public constants"
      },
      "appendTags(uint256,uint256[])": {
        "notice": "Append one or more tags to a tagging record."
      },
      "applyTagsWithCompositeKey(uint256[],uint256,string,address)": {
        "notice": "Apply one or more tags to a targetId using using tagging record composite key. Records new ETS Tagging Record to the blockchain or appends tags if Tagging Record already exists. CTAGs and targetId are created if they don't exist. Caller must be Relayer contract."
      },
      "applyTagsWithRawInput((string,string[],string),address)": {
        "notice": "Apply one or more tags to a targetURI using tagging record raw client input data. Like it's sister function applyTagsWithCompositeKey, records new ETS Tagging Record or appends tags to an existing record if found to already exist. This function differs in that it creates new ETS target records and CTAG tokens for novel targetURIs and hastag strings respectively. This function can only be called by Relayer contracts."
      },
      "computeTaggingFee(uint256,uint256[],uint8)": {
        "notice": "Compute tagging fee for CTAGs, tagging record id and desired action. If the global, service wide tagging fee is set (see ETS.taggingFee() & ETS.setTaggingFee()) ETS charges a per tag for all new tags applied to a tagging record. This applies to both new tagging records and modified tagging records. Computing the tagging fee involves checking to see if a tagging record exists and if so, given the desired action (append or replace) determining the number of new tags being added and multiplying by the ETS per tag fee."
      },
      "computeTaggingFeeFromCompositeKey(uint256[],uint256,string,address,address,uint8)": {
        "notice": "Compute tagging fee for CTAGs, tagging record composite key and desired action."
      },
      "computeTaggingFeeFromRawInput((string,string[],string),address,address,uint8)": {
        "notice": "Compute tagging fee for raw input and desired action."
      },
      "computeTaggingRecordIdFromCompositeKey(uint256,string,address,address)": {
        "notice": "Compute & return a taggingRecordId. Every TaggingRecord in ETS is mapped to by it's taggingRecordId. This Id is a composite key composed of targetId, recordType, relayer contract address and tagger address hashed and cast as a uint256."
      },
      "computeTaggingRecordIdFromRawInput((string,string[],string),address,address)": {
        "notice": "Compute a taggingRecordId from raw input."
      },
      "createTag(string,address)": {
        "notice": "Create CTAG token from tag string. Reverts if tag exists or is invalid. Only ETS Relayer contracts may call this function."
      },
      "createTaggingRecord(uint256[],uint256,string,address)": {
        "notice": "Create a new tagging record. Requirements:   - Caller must be relayer contract.   - CTAG(s) and TargetId must exist."
      },
      "drawDown(address)": {
        "notice": "Function for withdrawing funds from an accrual account. Can be called by the account owner or on behalf of the account. Does nothing when there is nothing due to the account."
      },
      "getOrCreateTagId(string,address)": {
        "notice": "Get or create CTAG token from tag string. Combo function that accepts a tag string and returns corresponding CTAG token Id if it exists, or if it doesn't exist, creates a new CTAG and then returns corresponding Id. Only ETS Relayer contracts may call this function."
      },
      "getTaggingRecordFromCompositeKey(uint256,string,address,address)": {
        "notice": "Retrieve a tagging record from composite key parts."
      },
      "getTaggingRecordFromId(uint256)": {
        "notice": "Retrieve a tagging record from Id."
      },
      "getTaggingRecordFromRawInput((string,string[],string),address,address)": {
        "notice": "Retrieve a tagging record from it's raw input."
      },
      "removeTags(uint256,uint256[])": {
        "notice": "Remove one or more tags from a tagging record."
      },
      "removeTagsWithCompositeKey(uint256[],uint256,string,address)": {
        "notice": "Remove one or more tags from a tagging record using composite key for record lookup."
      },
      "removeTagsWithRawInput((string,string[],string),address)": {
        "notice": "Remove one or more tags from a tagging record using raw data for record lookup."
      },
      "replaceTags(uint256,uint256[])": {
        "notice": "Replaces tags in tagging record. This function overwrites the tags in a tagging record with the supplied tags, only charging for the new tags in the replacement set."
      },
      "replaceTagsWithCompositeKey(uint256[],uint256,string,address)": {
        "notice": "Replace entire tag set in tagging record using composite key for record lookup. This function overwrites the tags in a tagging record with the supplied tags, only charging for the new tags in the replacement set."
      },
      "replaceTagsWithRawInput((string,string[],string),address)": {
        "notice": "Replace entire tag set in tagging record using raw data for record lookup. If supplied tag strings don't have CTAGs, new ones are minted."
      },
      "setAccessControls(address)": {
        "notice": "Sets ETSAccessControls on the ETSTarget contract so functions can be restricted to ETS platform only. Note Caller of this function must be deployer or pre-set as admin of new contract."
      },
      "setPercentages(uint256,uint256)": {
        "notice": "Admin functionality for updating the percentages."
      },
      "setTaggingFee(uint256)": {
        "notice": "Sets the fee required to tag an NFT asset."
      },
      "taggingRecordExists(uint256)": {
        "notice": "Check that a tagging record exsits by it's Id."
      },
      "taggingRecordExistsByCompositeKey(uint256,string,address,address)": {
        "notice": "Check that a tagging record exists by it's componsite key parts."
      },
      "taggingRecordExistsByRawInput((string,string[],string),address,address)": {
        "notice": "Check that a tagging record exists for given raw input."
      },
      "totalDue(address)": {
        "notice": "Function to check how much MATIC has been accrued by an address factoring in amount paid out."
      }
    },
    "version": 1
  },
  "storageLayout": {
    "storage": [
      {
        "astId": 915,
        "contract": "contracts/ETS.sol:ETS",
        "label": "_initialized",
        "offset": 0,
        "slot": "0",
        "type": "t_uint8"
      },
      {
        "astId": 918,
        "contract": "contracts/ETS.sol:ETS",
        "label": "_initializing",
        "offset": 1,
        "slot": "0",
        "type": "t_bool"
      },
      {
        "astId": 3526,
        "contract": "contracts/ETS.sol:ETS",
        "label": "__gap",
        "offset": 0,
        "slot": "1",
        "type": "t_array(t_uint256)50_storage"
      },
      {
        "astId": 1357,
        "contract": "contracts/ETS.sol:ETS",
        "label": "_status",
        "offset": 0,
        "slot": "51",
        "type": "t_uint256"
      },
      {
        "astId": 1426,
        "contract": "contracts/ETS.sol:ETS",
        "label": "__gap",
        "offset": 0,
        "slot": "52",
        "type": "t_array(t_uint256)49_storage"
      },
      {
        "astId": 897,
        "contract": "contracts/ETS.sol:ETS",
        "label": "__gap",
        "offset": 0,
        "slot": "101",
        "type": "t_array(t_uint256)50_storage"
      },
      {
        "astId": 1213,
        "contract": "contracts/ETS.sol:ETS",
        "label": "__gap",
        "offset": 0,
        "slot": "151",
        "type": "t_array(t_uint256)50_storage"
      },
      {
        "astId": 8783,
        "contract": "contracts/ETS.sol:ETS",
        "label": "etsAccessControls",
        "offset": 0,
        "slot": "201",
        "type": "t_contract(IETSAccessControls)14850"
      },
      {
        "astId": 8787,
        "contract": "contracts/ETS.sol:ETS",
        "label": "etsToken",
        "offset": 0,
        "slot": "202",
        "type": "t_contract(IETSToken)15413"
      },
      {
        "astId": 8791,
        "contract": "contracts/ETS.sol:ETS",
        "label": "etsTarget",
        "offset": 0,
        "slot": "203",
        "type": "t_contract(IETSTarget)15176"
      },
      {
        "astId": 8795,
        "contract": "contracts/ETS.sol:ETS",
        "label": "taggingFee",
        "offset": 0,
        "slot": "204",
        "type": "t_uint256"
      },
      {
        "astId": 8798,
        "contract": "contracts/ETS.sol:ETS",
        "label": "platformPercentage",
        "offset": 0,
        "slot": "205",
        "type": "t_uint256"
      },
      {
        "astId": 8801,
        "contract": "contracts/ETS.sol:ETS",
        "label": "relayerPercentage",
        "offset": 0,
        "slot": "206",
        "type": "t_uint256"
      },
      {
        "astId": 8806,
        "contract": "contracts/ETS.sol:ETS",
        "label": "accrued",
        "offset": 0,
        "slot": "207",
        "type": "t_mapping(t_address,t_uint256)"
      },
      {
        "astId": 8811,
        "contract": "contracts/ETS.sol:ETS",
        "label": "paid",
        "offset": 0,
        "slot": "208",
        "type": "t_mapping(t_address,t_uint256)"
      },
      {
        "astId": 8817,
        "contract": "contracts/ETS.sol:ETS",
        "label": "taggingRecords",
        "offset": 0,
        "slot": "209",
        "type": "t_mapping(t_uint256,t_struct(TaggingRecord)14296_storage)"
      }
    ],
    "types": {
      "t_address": {
        "encoding": "inplace",
        "label": "address",
        "numberOfBytes": "20"
      },
      "t_array(t_uint256)49_storage": {
        "base": "t_uint256",
        "encoding": "inplace",
        "label": "uint256[49]",
        "numberOfBytes": "1568"
      },
      "t_array(t_uint256)50_storage": {
        "base": "t_uint256",
        "encoding": "inplace",
        "label": "uint256[50]",
        "numberOfBytes": "1600"
      },
      "t_array(t_uint256)dyn_storage": {
        "base": "t_uint256",
        "encoding": "dynamic_array",
        "label": "uint256[]",
        "numberOfBytes": "32"
      },
      "t_bool": {
        "encoding": "inplace",
        "label": "bool",
        "numberOfBytes": "1"
      },
      "t_contract(IETSAccessControls)14850": {
        "encoding": "inplace",
        "label": "contract IETSAccessControls",
        "numberOfBytes": "20"
      },
      "t_contract(IETSTarget)15176": {
        "encoding": "inplace",
        "label": "contract IETSTarget",
        "numberOfBytes": "20"
      },
      "t_contract(IETSToken)15413": {
        "encoding": "inplace",
        "label": "contract IETSToken",
        "numberOfBytes": "20"
      },
      "t_mapping(t_address,t_uint256)": {
        "encoding": "mapping",
        "key": "t_address",
        "label": "mapping(address => uint256)",
        "numberOfBytes": "32",
        "value": "t_uint256"
      },
      "t_mapping(t_uint256,t_struct(TaggingRecord)14296_storage)": {
        "encoding": "mapping",
        "key": "t_uint256",
        "label": "mapping(uint256 => struct IETS.TaggingRecord)",
        "numberOfBytes": "32",
        "value": "t_struct(TaggingRecord)14296_storage"
      },
      "t_string_storage": {
        "encoding": "bytes",
        "label": "string",
        "numberOfBytes": "32"
      },
      "t_struct(TaggingRecord)14296_storage": {
        "encoding": "inplace",
        "label": "struct IETS.TaggingRecord",
        "members": [
          {
            "astId": 14287,
            "contract": "contracts/ETS.sol:ETS",
            "label": "tagIds",
            "offset": 0,
            "slot": "0",
            "type": "t_array(t_uint256)dyn_storage"
          },
          {
            "astId": 14289,
            "contract": "contracts/ETS.sol:ETS",
            "label": "targetId",
            "offset": 0,
            "slot": "1",
            "type": "t_uint256"
          },
          {
            "astId": 14291,
            "contract": "contracts/ETS.sol:ETS",
            "label": "recordType",
            "offset": 0,
            "slot": "2",
            "type": "t_string_storage"
          },
          {
            "astId": 14293,
            "contract": "contracts/ETS.sol:ETS",
            "label": "relayer",
            "offset": 0,
            "slot": "3",
            "type": "t_address"
          },
          {
            "astId": 14295,
            "contract": "contracts/ETS.sol:ETS",
            "label": "tagger",
            "offset": 0,
            "slot": "4",
            "type": "t_address"
          }
        ],
        "numberOfBytes": "160"
      },
      "t_uint256": {
        "encoding": "inplace",
        "label": "uint256",
        "numberOfBytes": "32"
      },
      "t_uint8": {
        "encoding": "inplace",
        "label": "uint8",
        "numberOfBytes": "1"
      }
    }
  }
}