{
  "address": "0x1e49622AfF007569fdc99e5989E267d55218b066",
  "abi": [
    {
      "inputs": [],
      "stateMutability": "nonpayable",
      "type": "constructor"
    },
    {
      "anonymous": false,
      "inputs": [
        {
          "indexed": false,
          "internalType": "address",
          "name": "previousAdmin",
          "type": "address"
        },
        {
          "indexed": false,
          "internalType": "address",
          "name": "newAdmin",
          "type": "address"
        }
      ],
      "name": "AdminChanged",
      "type": "event"
    },
    {
      "anonymous": false,
      "inputs": [
        {
          "indexed": true,
          "internalType": "uint256",
          "name": "auctionId",
          "type": "uint256"
        },
        {
          "indexed": false,
          "internalType": "address",
          "name": "sender",
          "type": "address"
        },
        {
          "indexed": false,
          "internalType": "uint256",
          "name": "value",
          "type": "uint256"
        },
        {
          "indexed": false,
          "internalType": "bool",
          "name": "extended",
          "type": "bool"
        }
      ],
      "name": "AuctionBid",
      "type": "event"
    },
    {
      "anonymous": false,
      "inputs": [
        {
          "indexed": true,
          "internalType": "uint256",
          "name": "auctionId",
          "type": "uint256"
        },
        {
          "indexed": true,
          "internalType": "uint256",
          "name": "tokenId",
          "type": "uint256"
        },
        {
          "indexed": false,
          "internalType": "uint256",
          "name": "tokenAuctionNumber",
          "type": "uint256"
        }
      ],
      "name": "AuctionCreated",
      "type": "event"
    },
    {
      "anonymous": false,
      "inputs": [
        {
          "indexed": false,
          "internalType": "uint256",
          "name": "duration",
          "type": "uint256"
        }
      ],
      "name": "AuctionDurationSet",
      "type": "event"
    },
    {
      "anonymous": false,
      "inputs": [
        {
          "indexed": true,
          "internalType": "uint256",
          "name": "auctionId",
          "type": "uint256"
        },
        {
          "indexed": false,
          "internalType": "uint256",
          "name": "endTime",
          "type": "uint256"
        }
      ],
      "name": "AuctionExtended",
      "type": "event"
    },
    {
      "anonymous": false,
      "inputs": [
        {
          "indexed": false,
          "internalType": "uint8",
          "name": "minBidIncrementPercentagePrice",
          "type": "uint8"
        }
      ],
      "name": "AuctionMinBidIncrementPercentageSet",
      "type": "event"
    },
    {
      "anonymous": false,
      "inputs": [
        {
          "indexed": false,
          "internalType": "uint256",
          "name": "platformPercentage",
          "type": "uint256"
        },
        {
          "indexed": false,
          "internalType": "uint256",
          "name": "relayerPercentage",
          "type": "uint256"
        },
        {
          "indexed": false,
          "internalType": "uint256",
          "name": "creatorPercentage",
          "type": "uint256"
        }
      ],
      "name": "AuctionProceedPercentagesSet",
      "type": "event"
    },
    {
      "anonymous": false,
      "inputs": [
        {
          "indexed": true,
          "internalType": "address",
          "name": "who",
          "type": "address"
        },
        {
          "indexed": false,
          "internalType": "uint256",
          "name": "amount",
          "type": "uint256"
        }
      ],
      "name": "AuctionProceedsWithdrawn",
      "type": "event"
    },
    {
      "anonymous": false,
      "inputs": [
        {
          "indexed": false,
          "internalType": "uint256",
          "name": "reservePrice",
          "type": "uint256"
        }
      ],
      "name": "AuctionReservePriceSet",
      "type": "event"
    },
    {
      "anonymous": false,
      "inputs": [
        {
          "indexed": true,
          "internalType": "uint256",
          "name": "auctionId",
          "type": "uint256"
        }
      ],
      "name": "AuctionSettled",
      "type": "event"
    },
    {
      "anonymous": false,
      "inputs": [
        {
          "indexed": false,
          "internalType": "uint256",
          "name": "timeBuffer",
          "type": "uint256"
        }
      ],
      "name": "AuctionTimeBufferSet",
      "type": "event"
    },
    {
      "anonymous": false,
      "inputs": [
        {
          "indexed": false,
          "internalType": "uint256",
          "name": "maxAuctions",
          "type": "uint256"
        }
      ],
      "name": "AuctionsMaxSet",
      "type": "event"
    },
    {
      "anonymous": false,
      "inputs": [
        {
          "indexed": true,
          "internalType": "address",
          "name": "beacon",
          "type": "address"
        }
      ],
      "name": "BeaconUpgraded",
      "type": "event"
    },
    {
      "anonymous": false,
      "inputs": [
        {
          "indexed": false,
          "internalType": "uint8",
          "name": "version",
          "type": "uint8"
        }
      ],
      "name": "Initialized",
      "type": "event"
    },
    {
      "anonymous": false,
      "inputs": [
        {
          "indexed": false,
          "internalType": "address",
          "name": "account",
          "type": "address"
        }
      ],
      "name": "Paused",
      "type": "event"
    },
    {
      "anonymous": false,
      "inputs": [],
      "name": "RequestCreateAuction",
      "type": "event"
    },
    {
      "anonymous": false,
      "inputs": [
        {
          "indexed": false,
          "internalType": "address",
          "name": "account",
          "type": "address"
        }
      ],
      "name": "Unpaused",
      "type": "event"
    },
    {
      "anonymous": false,
      "inputs": [
        {
          "indexed": true,
          "internalType": "address",
          "name": "implementation",
          "type": "address"
        }
      ],
      "name": "Upgraded",
      "type": "event"
    },
    {
      "stateMutability": "payable",
      "type": "fallback"
    },
    {
      "inputs": [],
      "name": "MODULO",
      "outputs": [
        {
          "internalType": "uint256",
          "name": "",
          "type": "uint256"
        }
      ],
      "stateMutability": "view",
      "type": "function"
    },
    {
      "inputs": [],
      "name": "NAME",
      "outputs": [
        {
          "internalType": "string",
          "name": "",
          "type": "string"
        }
      ],
      "stateMutability": "view",
      "type": "function"
    },
    {
      "inputs": [
        {
          "internalType": "address",
          "name": "",
          "type": "address"
        }
      ],
      "name": "accrued",
      "outputs": [
        {
          "internalType": "uint256",
          "name": "",
          "type": "uint256"
        }
      ],
      "stateMutability": "view",
      "type": "function"
    },
    {
      "inputs": [
        {
          "internalType": "uint256",
          "name": "_auctionId",
          "type": "uint256"
        }
      ],
      "name": "auctionEnded",
      "outputs": [
        {
          "internalType": "bool",
          "name": "",
          "type": "bool"
        }
      ],
      "stateMutability": "view",
      "type": "function"
    },
    {
      "inputs": [
        {
          "internalType": "uint256",
          "name": "_auctionId",
          "type": "uint256"
        }
      ],
      "name": "auctionExists",
      "outputs": [
        {
          "internalType": "bool",
          "name": "",
          "type": "bool"
        }
      ],
      "stateMutability": "view",
      "type": "function"
    },
    {
      "inputs": [
        {
          "internalType": "uint256",
          "name": "_tokenId",
          "type": "uint256"
        }
      ],
      "name": "auctionExistsForTokenId",
      "outputs": [
        {
          "internalType": "bool",
          "name": "",
          "type": "bool"
        }
      ],
      "stateMutability": "view",
      "type": "function"
    },
    {
      "inputs": [
        {
          "internalType": "uint256",
          "name": "_auctionId",
          "type": "uint256"
        }
      ],
      "name": "auctionSettled",
      "outputs": [
        {
          "internalType": "bool",
          "name": "",
          "type": "bool"
        }
      ],
      "stateMutability": "view",
      "type": "function"
    },
    {
      "inputs": [
        {
          "internalType": "uint256",
          "name": "",
          "type": "uint256"
        }
      ],
      "name": "auctions",
      "outputs": [
        {
          "internalType": "uint256",
          "name": "auctionId",
          "type": "uint256"
        },
        {
          "internalType": "uint256",
          "name": "tokenId",
          "type": "uint256"
        },
        {
          "internalType": "uint256",
          "name": "amount",
          "type": "uint256"
        },
        {
          "internalType": "uint256",
          "name": "startTime",
          "type": "uint256"
        },
        {
          "internalType": "uint256",
          "name": "endTime",
          "type": "uint256"
        },
        {
          "internalType": "uint256",
          "name": "reservePrice",
          "type": "uint256"
        },
        {
          "internalType": "address payable",
          "name": "bidder",
          "type": "address"
        },
        {
          "internalType": "address payable",
          "name": "auctioneer",
          "type": "address"
        },
        {
          "internalType": "bool",
          "name": "settled",
          "type": "bool"
        }
      ],
      "stateMutability": "view",
      "type": "function"
    },
    {
      "inputs": [
        {
          "internalType": "uint256",
          "name": "",
          "type": "uint256"
        },
        {
          "internalType": "uint256",
          "name": "",
          "type": "uint256"
        }
      ],
      "name": "auctionsByTokenId",
      "outputs": [
        {
          "internalType": "uint256",
          "name": "",
          "type": "uint256"
        }
      ],
      "stateMutability": "view",
      "type": "function"
    },
    {
      "inputs": [
        {
          "internalType": "uint256",
          "name": "_auctionId",
          "type": "uint256"
        }
      ],
      "name": "createBid",
      "outputs": [],
      "stateMutability": "payable",
      "type": "function"
    },
    {
      "inputs": [],
      "name": "createNextAuction",
      "outputs": [],
      "stateMutability": "nonpayable",
      "type": "function"
    },
    {
      "inputs": [],
      "name": "creatorPercentage",
      "outputs": [
        {
          "internalType": "uint256",
          "name": "",
          "type": "uint256"
        }
      ],
      "stateMutability": "view",
      "type": "function"
    },
    {
      "inputs": [
        {
          "internalType": "address payable",
          "name": "_account",
          "type": "address"
        }
      ],
      "name": "drawDown",
      "outputs": [],
      "stateMutability": "nonpayable",
      "type": "function"
    },
    {
      "inputs": [],
      "name": "duration",
      "outputs": [
        {
          "internalType": "uint256",
          "name": "",
          "type": "uint256"
        }
      ],
      "stateMutability": "view",
      "type": "function"
    },
    {
      "inputs": [],
      "name": "etsAccessControls",
      "outputs": [
        {
          "internalType": "contract IETSAccessControls",
          "name": "",
          "type": "address"
        }
      ],
      "stateMutability": "view",
      "type": "function"
    },
    {
      "inputs": [],
      "name": "etsToken",
      "outputs": [
        {
          "internalType": "contract IETSToken",
          "name": "",
          "type": "address"
        }
      ],
      "stateMutability": "view",
      "type": "function"
    },
    {
      "inputs": [
        {
          "internalType": "uint256",
          "name": "_tokenId",
          "type": "uint256"
        }
      ],
      "name": "fulfillRequestCreateAuction",
      "outputs": [],
      "stateMutability": "nonpayable",
      "type": "function"
    },
    {
      "inputs": [],
      "name": "getActiveCount",
      "outputs": [
        {
          "internalType": "uint256",
          "name": "",
          "type": "uint256"
        }
      ],
      "stateMutability": "view",
      "type": "function"
    },
    {
      "inputs": [
        {
          "internalType": "uint256",
          "name": "_auctionId",
          "type": "uint256"
        }
      ],
      "name": "getAuction",
      "outputs": [
        {
          "components": [
            {
              "internalType": "uint256",
              "name": "auctionId",
              "type": "uint256"
            },
            {
              "internalType": "uint256",
              "name": "tokenId",
              "type": "uint256"
            },
            {
              "internalType": "uint256",
              "name": "amount",
              "type": "uint256"
            },
            {
              "internalType": "uint256",
              "name": "startTime",
              "type": "uint256"
            },
            {
              "internalType": "uint256",
              "name": "endTime",
              "type": "uint256"
            },
            {
              "internalType": "uint256",
              "name": "reservePrice",
              "type": "uint256"
            },
            {
              "internalType": "address payable",
              "name": "bidder",
              "type": "address"
            },
            {
              "internalType": "address payable",
              "name": "auctioneer",
              "type": "address"
            },
            {
              "internalType": "bool",
              "name": "settled",
              "type": "bool"
            }
          ],
          "internalType": "struct IETSAuctionHouse.Auction",
          "name": "",
          "type": "tuple"
        }
      ],
      "stateMutability": "view",
      "type": "function"
    },
    {
      "inputs": [
        {
          "internalType": "uint256",
          "name": "_tokenId",
          "type": "uint256"
        }
      ],
      "name": "getAuctionCountForTokenId",
      "outputs": [
        {
          "internalType": "uint256",
          "name": "",
          "type": "uint256"
        }
      ],
      "stateMutability": "view",
      "type": "function"
    },
    {
      "inputs": [
        {
          "internalType": "uint256",
          "name": "_tokenId",
          "type": "uint256"
        }
      ],
      "name": "getAuctionForTokenId",
      "outputs": [
        {
          "components": [
            {
              "internalType": "uint256",
              "name": "auctionId",
              "type": "uint256"
            },
            {
              "internalType": "uint256",
              "name": "tokenId",
              "type": "uint256"
            },
            {
              "internalType": "uint256",
              "name": "amount",
              "type": "uint256"
            },
            {
              "internalType": "uint256",
              "name": "startTime",
              "type": "uint256"
            },
            {
              "internalType": "uint256",
              "name": "endTime",
              "type": "uint256"
            },
            {
              "internalType": "uint256",
              "name": "reservePrice",
              "type": "uint256"
            },
            {
              "internalType": "address payable",
              "name": "bidder",
              "type": "address"
            },
            {
              "internalType": "address payable",
              "name": "auctioneer",
              "type": "address"
            },
            {
              "internalType": "bool",
              "name": "settled",
              "type": "bool"
            }
          ],
          "internalType": "struct IETSAuctionHouse.Auction",
          "name": "",
          "type": "tuple"
        }
      ],
      "stateMutability": "view",
      "type": "function"
    },
    {
      "inputs": [],
      "name": "getBalance",
      "outputs": [
        {
          "internalType": "uint256",
          "name": "",
          "type": "uint256"
        }
      ],
      "stateMutability": "view",
      "type": "function"
    },
    {
      "inputs": [],
      "name": "getTotalCount",
      "outputs": [
        {
          "internalType": "uint256",
          "name": "",
          "type": "uint256"
        }
      ],
      "stateMutability": "view",
      "type": "function"
    },
    {
      "inputs": [
        {
          "internalType": "contract IETSToken",
          "name": "_etsToken",
          "type": "address"
        },
        {
          "internalType": "contract IETSAccessControls",
          "name": "_etsAccessControls",
          "type": "address"
        },
        {
          "internalType": "address",
          "name": "_wmatic",
          "type": "address"
        },
        {
          "internalType": "uint256",
          "name": "_maxAuctions",
          "type": "uint256"
        },
        {
          "internalType": "uint256",
          "name": "_timeBuffer",
          "type": "uint256"
        },
        {
          "internalType": "uint256",
          "name": "_reservePrice",
          "type": "uint256"
        },
        {
          "internalType": "uint8",
          "name": "_minBidIncrementPercentage",
          "type": "uint8"
        },
        {
          "internalType": "uint256",
          "name": "_duration",
          "type": "uint256"
        },
        {
          "internalType": "uint256",
          "name": "_relayerPercentage",
          "type": "uint256"
        },
        {
          "internalType": "uint256",
          "name": "_platformPercentage",
          "type": "uint256"
        }
      ],
      "name": "initialize",
      "outputs": [],
      "stateMutability": "nonpayable",
      "type": "function"
    },
    {
      "inputs": [],
      "name": "maxAuctions",
      "outputs": [
        {
          "internalType": "uint256",
          "name": "",
          "type": "uint256"
        }
      ],
      "stateMutability": "view",
      "type": "function"
    },
    {
      "inputs": [],
      "name": "minBidIncrementPercentage",
      "outputs": [
        {
          "internalType": "uint8",
          "name": "",
          "type": "uint8"
        }
      ],
      "stateMutability": "view",
      "type": "function"
    },
    {
      "inputs": [
        {
          "internalType": "address",
          "name": "",
          "type": "address"
        }
      ],
      "name": "paid",
      "outputs": [
        {
          "internalType": "uint256",
          "name": "",
          "type": "uint256"
        }
      ],
      "stateMutability": "view",
      "type": "function"
    },
    {
      "inputs": [],
      "name": "pause",
      "outputs": [],
      "stateMutability": "nonpayable",
      "type": "function"
    },
    {
      "inputs": [],
      "name": "paused",
      "outputs": [
        {
          "internalType": "bool",
          "name": "",
          "type": "bool"
        }
      ],
      "stateMutability": "view",
      "type": "function"
    },
    {
      "inputs": [],
      "name": "platformPercentage",
      "outputs": [
        {
          "internalType": "uint256",
          "name": "",
          "type": "uint256"
        }
      ],
      "stateMutability": "view",
      "type": "function"
    },
    {
      "inputs": [],
      "name": "proxiableUUID",
      "outputs": [
        {
          "internalType": "bytes32",
          "name": "",
          "type": "bytes32"
        }
      ],
      "stateMutability": "view",
      "type": "function"
    },
    {
      "inputs": [],
      "name": "relayerPercentage",
      "outputs": [
        {
          "internalType": "uint256",
          "name": "",
          "type": "uint256"
        }
      ],
      "stateMutability": "view",
      "type": "function"
    },
    {
      "inputs": [],
      "name": "reservePrice",
      "outputs": [
        {
          "internalType": "uint256",
          "name": "",
          "type": "uint256"
        }
      ],
      "stateMutability": "view",
      "type": "function"
    },
    {
      "inputs": [
        {
          "internalType": "uint256",
          "name": "_duration",
          "type": "uint256"
        }
      ],
      "name": "setDuration",
      "outputs": [],
      "stateMutability": "nonpayable",
      "type": "function"
    },
    {
      "inputs": [
        {
          "internalType": "uint256",
          "name": "_maxAuctions",
          "type": "uint256"
        }
      ],
      "name": "setMaxAuctions",
      "outputs": [],
      "stateMutability": "nonpayable",
      "type": "function"
    },
    {
      "inputs": [
        {
          "internalType": "uint8",
          "name": "_minBidIncrementPercentage",
          "type": "uint8"
        }
      ],
      "name": "setMinBidIncrementPercentage",
      "outputs": [],
      "stateMutability": "nonpayable",
      "type": "function"
    },
    {
      "inputs": [
        {
          "internalType": "uint256",
          "name": "_platformPercentage",
          "type": "uint256"
        },
        {
          "internalType": "uint256",
          "name": "_relayerPercentage",
          "type": "uint256"
        }
      ],
      "name": "setProceedPercentages",
      "outputs": [],
      "stateMutability": "nonpayable",
      "type": "function"
    },
    {
      "inputs": [
        {
          "internalType": "uint256",
          "name": "_reservePrice",
          "type": "uint256"
        }
      ],
      "name": "setReservePrice",
      "outputs": [],
      "stateMutability": "nonpayable",
      "type": "function"
    },
    {
      "inputs": [
        {
          "internalType": "uint256",
          "name": "_timeBuffer",
          "type": "uint256"
        }
      ],
      "name": "setTimeBuffer",
      "outputs": [],
      "stateMutability": "nonpayable",
      "type": "function"
    },
    {
      "inputs": [
        {
          "internalType": "uint256",
          "name": "_auctionId",
          "type": "uint256"
        }
      ],
      "name": "settleAuction",
      "outputs": [],
      "stateMutability": "nonpayable",
      "type": "function"
    },
    {
      "inputs": [
        {
          "internalType": "uint256",
          "name": "_auctionId",
          "type": "uint256"
        }
      ],
      "name": "settleCurrentAndCreateNewAuction",
      "outputs": [],
      "stateMutability": "nonpayable",
      "type": "function"
    },
    {
      "inputs": [],
      "name": "timeBuffer",
      "outputs": [
        {
          "internalType": "uint256",
          "name": "",
          "type": "uint256"
        }
      ],
      "stateMutability": "view",
      "type": "function"
    },
    {
      "inputs": [
        {
          "internalType": "address",
          "name": "_account",
          "type": "address"
        }
      ],
      "name": "totalDue",
      "outputs": [
        {
          "internalType": "uint256",
          "name": "_due",
          "type": "uint256"
        }
      ],
      "stateMutability": "view",
      "type": "function"
    },
    {
      "inputs": [],
      "name": "unpause",
      "outputs": [],
      "stateMutability": "nonpayable",
      "type": "function"
    },
    {
      "inputs": [
        {
          "internalType": "address",
          "name": "newImplementation",
          "type": "address"
        }
      ],
      "name": "upgradeTo",
      "outputs": [],
      "stateMutability": "nonpayable",
      "type": "function"
    },
    {
      "inputs": [
        {
          "internalType": "address",
          "name": "newImplementation",
          "type": "address"
        },
        {
          "internalType": "bytes",
          "name": "data",
          "type": "bytes"
        }
      ],
      "name": "upgradeToAndCall",
      "outputs": [],
      "stateMutability": "payable",
      "type": "function"
    },
    {
      "inputs": [],
      "name": "wmatic",
      "outputs": [
        {
          "internalType": "address",
          "name": "",
          "type": "address"
        }
      ],
      "stateMutability": "view",
      "type": "function"
    },
    {
      "stateMutability": "payable",
      "type": "receive"
    }
  ],
  "numDeployments": 2,
  "solcInputHash": "075e3b5610f4ceb8918cc0d4b674e612",
  "bytecode": "0x60a0604052306080523480156200001557600080fd5b506200002062000026565b620000e7565b600054610100900460ff1615620000935760405162461bcd60e51b815260206004820152602760248201527f496e697469616c697a61626c653a20636f6e747261637420697320696e697469604482015266616c697a696e6760c81b606482015260840160405180910390fd5b60005460ff90811614620000e5576000805460ff191660ff9081179091556040519081527f7f26b83ff96e1f2b6a682f133852f6798a09c465da95921460cefb38474024989060200160405180910390a15b565b608051613a3b6200011f60003960008181610f4b01528181610fd0015281816113a80152818161142d01526115170152613a3b6000f3fe6080604052600436106102dc5760003560e01c8063659dd2b411610182578063b148440f116100d5578063d178687a11610084578063f071bf4f11610061578063f071bf4f14610934578063f6be71d11461094b578063fb41be161461096b57005b8063d178687a146108d8578063db2e1eed14610906578063ec91f2a41461091d57005b8063b68bb0ba116100b2578063b68bb0ba14610878578063c206200514610898578063ce9c7c0d146108b857005b8063b148440f146107fd578063b296024d1461082b578063b53fb5081461085857005b80638299f9f911610131578063a340cf791161010e578063a340cf7914610764578063a3f4df7e14610792578063a8586f7b146107e857005b80638299f9f9146106fc5780638456cb591461071c5780639e7123871461073157005b806369f378871161015f57806369f378871461068f5780637120334b146106af57806378bd7935146106cf57005b8063659dd2b414610646578063666077c91461065957806369a6e9c61461067957005b806336ebdb381161023a5780634f1ef286116101e9578063571a26a0116101c6578063571a26a01461054f5780635c975abb1461061957806363338b171461063157005b80634f1ef2861461051257806352d1902d1461052557806356d42bb31461053a57005b80633c0868f0116102175780633c0868f0146104a55780633f4ba83a146104c557806346ca0f4d146104da57005b806336ebdb38146104355780633799cd57146104555780633b6e0ef51461048557005b80631f741897116102965780632a1e1ee1116102735780632a1e1ee1146103de5780632e993611146103f55780633659cfe61461041557005b80631f74189714610377578063279a01471461038e57806328b9e726146103ae57005b80630ad2f0c3116102c45780630ad2f0c31461031a5780630fb5a6b41461034d57806312065fe01461036457005b806301810a96146102e55780630acc9e09146102fa57005b366102e357005b005b3480156102f157600080fd5b506102e361098c565b34801561030657600080fd5b506102e36103153660046134c7565b6109f6565b34801561032657600080fd5b5061033a61033536600461355d565b610bc2565b6040519081526020015b60405180910390f35b34801561035957600080fd5b5061033a6101065481565b34801561037057600080fd5b504761033a565b34801561038357600080fd5b5061033a6101095481565b34801561039a57600080fd5b506102e36103a936600461357a565b610bf8565b3480156103ba57600080fd5b506103ce6103c936600461357a565b610eea565b6040519015158152602001610344565b3480156103ea57600080fd5b5061033a6101085481565b34801561040157600080fd5b506102e361041036600461357a565b610f1d565b34801561042157600080fd5b506102e361043036600461355d565b610f40565b34801561044157600080fd5b506102e3610450366004613593565b6110b9565b34801561046157600080fd5b506103ce61047036600461357a565b60009081526101016020526040902054151590565b34801561049157600080fd5b506102e36104a036600461357a565b6111c9565b3480156104b157600080fd5b506103ce6104c036600461357a565b6112c4565b3480156104d157600080fd5b506102e36112cf565b3480156104e657600080fd5b5060fb546104fa906001600160a01b031681565b6040516001600160a01b039091168152602001610344565b6102e3610520366004613646565b61139d565b34801561053157600080fd5b5061033a61150a565b34801561054657600080fd5b5061033a6115cf565b34801561055b57600080fd5b506105c761056a36600461357a565b61010060205260009081526040902080546001820154600283015460038401546004850154600586015460068701546007909701549596949593949293919290916001600160a01b0391821691811690600160a01b900460ff1689565b60408051998a5260208a0198909852968801959095526060870193909352608086019190915260a08501526001600160a01b0390811660c08501521660e0830152151561010082015261012001610344565b34801561062557600080fd5b5060335460ff166103ce565b34801561063d57600080fd5b5061033a6115df565b6102e361065436600461357a565b6115ea565b34801561066557600080fd5b506102e361067436600461357a565b611905565b34801561068557600080fd5b5061033a60fd5481565b34801561069b57600080fd5b5061033a6106aa3660046136d9565b611926565b3480156106bb57600080fd5b506102e36106ca36600461357a565b611958565b3480156106db57600080fd5b506106ef6106ea36600461357a565b611a54565b60405161034491906136fb565b34801561070857600080fd5b5060fc546104fa906001600160a01b031681565b34801561072857600080fd5b506102e3611ac0565b34801561073d57600080fd5b506103ce61074c36600461357a565b60009081526101006020526040902060040154421190565b34801561077057600080fd5b5061033a61077f36600461355d565b61010b6020526000908152604090205481565b34801561079e57600080fd5b506107db6040518060400160405280601181526020017f4554532041756374696f6e20486f75736500000000000000000000000000000081525081565b60405161034491906137a5565b3480156107f457600080fd5b5061033a606481565b34801561080957600080fd5b5061033a61081836600461355d565b61010a6020526000908152604090205481565b34801561083757600080fd5b50610105546108469060ff1681565b60405160ff9091168152602001610344565b34801561086457600080fd5b506106ef61087336600461357a565b611b8e565b34801561088457600080fd5b506102e36108933660046136d9565b611d6b565b3480156108a457600080fd5b506102e36108b336600461355d565b611f01565b3480156108c457600080fd5b506102e36108d336600461357a565b612016565b3480156108e457600080fd5b5061033a6108f336600461357a565b6000908152610101602052604090205490565b34801561091257600080fd5b5061033a6101045481565b34801561092957600080fd5b5061033a6101035481565b34801561094057600080fd5b5061033a6101075481565b34801561095757600080fd5b506102e361096636600461357a565b612112565b34801561097757600080fd5b50610102546104fa906001600160a01b031681565b61099461220e565b60fd5460fe54106109ec5760405162461bcd60e51b815260206004820152601560248201527f4e6f206f70656e2061756374696f6e20736c6f7473000000000000000000000060448201526064015b60405180910390fd5b6109f4612261565b565b600054610100900460ff1615808015610a165750600054600160ff909116105b80610a305750303b158015610a30575060005460ff166001145b610aa25760405162461bcd60e51b815260206004820152602e60248201527f496e697469616c697a61626c653a20636f6e747261637420697320616c72656160448201527f647920696e697469616c697a656400000000000000000000000000000000000060648201526084016109e3565b6000805460ff191660011790558015610ac5576000805461ff0019166101001790555b610acd61228c565b610ad56122ff565b610add612372565b60fb80546001600160a01b03808e1673ffffffffffffffffffffffffffffffffffffffff199283161790925560fc80548d84169083161790556101028054928c1692909116919091179055610b3360fe60009055565b600060ff55610b41886111c9565b610b4a856110b9565b610b5384612112565b610b5c86612016565b610b6587611958565b610b6f8284611d6b565b8015610bb5576000805461ff0019169055604051600181527f7f26b83ff96e1f2b6a682f133852f6798a09c465da95921460cefb38474024989060200160405180910390a15b5050505050505050505050565b6001600160a01b038116600090815261010b602090815260408083205461010a909252822054610bf291906137ee565b92915050565b60fc546001600160a01b03166358594dc4336040516001600160e01b031960e084901b1681526001600160a01b039091166004820152602401602060405180830381865afa158015610c4e573d6000803e3d6000fd5b505050506040513d601f19601f82011682018060405250810190610c729190613815565b610cbe5760405162461bcd60e51b815260206004820152601960248201527f43616c6c6572206e6f742061756374696f6e206f7261636c650000000000000060448201526064016109e3565b60fc60009054906101000a90046001600160a01b03166001600160a01b0316633c0c45666040518163ffffffff1660e01b8152600401602060405180830381865afa158015610d11573d6000803e3d6000fd5b505050506040513d601f19601f82011682018060405250810190610d359190613830565b60fb546040517f6352211e000000000000000000000000000000000000000000000000000000008152600481018490526001600160a01b039283169290911690636352211e90602401602060405180830381865afa158015610d9b573d6000803e3d6000fd5b505050506040513d601f19601f82011682018060405250810190610dbf9190613830565b6001600160a01b031614610e155760405162461bcd60e51b815260206004820152601560248201527f43544147206e6f74206f776e656420627920455453000000000000000000000060448201526064016109e3565b60fd5460fe5410610e685760405162461bcd60e51b815260206004820152601560248201527f4e6f206f70656e2061756374696f6e20736c6f7473000000000000000000000060448201526064016109e3565b6000818152610101602052604090205415610ede576000610e8882611b8e565b9050806101000151610edc5760405162461bcd60e51b815260206004820152600e60248201527f41756374696f6e2065786973747300000000000000000000000000000000000060448201526064016109e3565b505b610ee7816123cc565b50565b6000610ef5826125e5565b8015610bf257505060009081526101006020526040902060070154600160a01b900460ff1690565b610f25612613565b610f2d612665565b610f36816126bf565b610ee76001606555565b306001600160a01b037f0000000000000000000000000000000000000000000000000000000000000000161415610fce5760405162461bcd60e51b815260206004820152602c60248201527f46756e6374696f6e206d7573742062652063616c6c6564207468726f7567682060448201526b19195b1959d85d1958d85b1b60a21b60648201526084016109e3565b7f00000000000000000000000000000000000000000000000000000000000000006001600160a01b03166110297f360894a13ba1a3210667c828492db98dca3e2076cc3735a920a3ca505d382bbc546001600160a01b031690565b6001600160a01b0316146110945760405162461bcd60e51b815260206004820152602c60248201527f46756e6374696f6e206d7573742062652063616c6c6564207468726f7567682060448201526b6163746976652070726f787960a01b60648201526084016109e3565b61109d816129ab565b60408051600080825260208201909252610ee791839190612a71565b60fc546001600160a01b03166324d7806c336040516001600160e01b031960e084901b1681526001600160a01b039091166004820152602401602060405180830381865afa15801561110f573d6000803e3d6000fd5b505050506040513d601f19601f820116820180604052508101906111339190613815565b61117f5760405162461bcd60e51b815260206004820152601c60248201527f43616c6c6572206d7573742062652061646d696e6973747261746f720000000060448201526064016109e3565b610105805460ff191660ff83169081179091556040519081527ff4c67399e687b01a76a7d787b61d2f66f108fe083db1432dfd5efb35e20978c2906020015b60405180910390a150565b60fc546001600160a01b03166324d7806c336040516001600160e01b031960e084901b1681526001600160a01b039091166004820152602401602060405180830381865afa15801561121f573d6000803e3d6000fd5b505050506040513d601f19601f820116820180604052508101906112439190613815565b61128f5760405162461bcd60e51b815260206004820152601c60248201527f43616c6c6572206d7573742062652061646d696e6973747261746f720000000060448201526064016109e3565b60fd8190556040518181527f16e2e3ae9f2743d8576c746a1919a5317347ed51021f4cddaf26b4f8806f4194906020016111be565b6000610bf2826125e5565b60fc546001600160a01b03166324d7806c336040516001600160e01b031960e084901b1681526001600160a01b039091166004820152602401602060405180830381865afa158015611325573d6000803e3d6000fd5b505050506040513d601f19601f820116820180604052508101906113499190613815565b6113955760405162461bcd60e51b815260206004820152601c60248201527f43616c6c6572206d7573742062652061646d696e6973747261746f720000000060448201526064016109e3565b6109f4612c16565b306001600160a01b037f000000000000000000000000000000000000000000000000000000000000000016141561142b5760405162461bcd60e51b815260206004820152602c60248201527f46756e6374696f6e206d7573742062652063616c6c6564207468726f7567682060448201526b19195b1959d85d1958d85b1b60a21b60648201526084016109e3565b7f00000000000000000000000000000000000000000000000000000000000000006001600160a01b03166114867f360894a13ba1a3210667c828492db98dca3e2076cc3735a920a3ca505d382bbc546001600160a01b031690565b6001600160a01b0316146114f15760405162461bcd60e51b815260206004820152602c60248201527f46756e6374696f6e206d7573742062652063616c6c6564207468726f7567682060448201526b6163746976652070726f787960a01b60648201526084016109e3565b6114fa826129ab565b61150682826001612a71565b5050565b6000306001600160a01b037f000000000000000000000000000000000000000000000000000000000000000016146115aa5760405162461bcd60e51b815260206004820152603860248201527f555550535570677261646561626c653a206d757374206e6f742062652063616c60448201527f6c6564207468726f7567682064656c656761746563616c6c000000000000000060648201526084016109e3565b507f360894a13ba1a3210667c828492db98dca3e2076cc3735a920a3ca505d382bbc90565b60006115da60ff5490565b905090565b60006115da60fe5490565b6115f2612665565b6115fa61220e565b611603816125e5565b61164f5760405162461bcd60e51b815260206004820152601160248201527f41756374696f6e206e6f7420666f756e6400000000000000000000000000000060448201526064016109e3565b600061165a82612c4f565b6060810151909150156116ba57806080015142106116ba5760405162461bcd60e51b815260206004820152600d60248201527f41756374696f6e20656e6465640000000000000000000000000000000000000060448201526064016109e3565b6101045434101561170d5760405162461bcd60e51b815260206004820152601f60248201527f4d7573742073656e64206174206c65617374207265736572766550726963650060448201526064016109e3565b6101055460408201516064916117289160ff9091169061384d565b611732919061386c565b8160400151611741919061388e565b3410156117905760405162461bcd60e51b815260206004820152600b60248201527f42696420746f6f206c6f7700000000000000000000000000000000000000000060448201526064016109e3565b60c08101516001600160a01b038116156117b2576117b2818360400151612d40565b60608201516117f0576101065442906000906117ce908361388e565b6000868152610100602052604090206003810193909355600490920191909155505b600083815261010060205260408120346002820155600601805473ffffffffffffffffffffffffffffffffffffffff1916331790556060830151156118b5576101035442846080015161184391906137ee565b10905080156118b5576101035461185a904261388e565b6080840181815260008681526101006020526040908190206004019290925551905185917f6e912a3a9105bdd2af817ba5adc14e6c127c1035b5b648faa29ca0d58ab8ff4e916118ac91815260200190565b60405180910390a25b6040805133815234602082015282151581830152905185917f1159164c56f277e6fc99c11731bd380e0347deb969b75523398734c252706ea3919081900360600190a2505050610ee76001606555565b61190d612665565b61191561220e565b61191e816126bf565b610f36612261565b610101602052816000526040600020818154811061194357600080fd5b90600052602060002001600091509150505481565b60fc546001600160a01b03166324d7806c336040516001600160e01b031960e084901b1681526001600160a01b039091166004820152602401602060405180830381865afa1580156119ae573d6000803e3d6000fd5b505050506040513d601f19601f820116820180604052508101906119d29190613815565b611a1e5760405162461bcd60e51b815260206004820152601c60248201527f43616c6c6572206d7573742062652061646d696e6973747261746f720000000060448201526064016109e3565b6101038190556040518181527fd1ee265a58d7706a34825d0e7cede55bca991958637227dccd686911ae9c9370906020016111be565b611ab760405180610120016040528060008152602001600081526020016000815260200160008152602001600081526020016000815260200160006001600160a01b0316815260200160006001600160a01b031681526020016000151581525090565b610bf282612c4f565b60fc546001600160a01b03166324d7806c336040516001600160e01b031960e084901b1681526001600160a01b039091166004820152602401602060405180830381865afa158015611b16573d6000803e3d6000fd5b505050506040513d601f19601f82011682018060405250810190611b3a9190613815565b611b865760405162461bcd60e51b815260206004820152601c60248201527f43616c6c6572206d7573742062652061646d696e6973747261746f720000000060448201526064016109e3565b6109f4612372565b611bf160405180610120016040528060008152602001600081526020016000815260200160008152602001600081526020016000815260200160006001600160a01b0316815260200160006001600160a01b031681526020016000151581525090565b60008281526101016020526040902054611c4d5760405162461bcd60e51b815260206004820152601760248201527f4e6f2061756374696f6e7320666f7220746f6b656e496400000000000000000060448201526064016109e3565b60008281526101016020908152604080832080548251818502810185019093528083529192909190830182828015611ca457602002820191906000526020600020905b815481526020019060010190808311611c90575b5050505050905061010060008260018451611cbf91906137ee565b81518110611ccf57611ccf6138a6565b6020908102919091018101518252818101929092526040908101600020815161012081018352815481526001820154938101939093526002810154918301919091526003810154606083015260048101546080830152600581015460a083015260068101546001600160a01b0390811660c084015260079091015490811660e0830152600160a01b900460ff1615156101008201529392505050565b60fc546001600160a01b03166324d7806c336040516001600160e01b031960e084901b1681526001600160a01b039091166004820152602401602060405180830381865afa158015611dc1573d6000803e3d6000fd5b505050506040513d601f19601f82011682018060405250810190611de59190613815565b611e315760405162461bcd60e51b815260206004820152601c60248201527f43616c6c6572206d7573742062652061646d696e6973747261746f720000000060448201526064016109e3565b6064611e3d828461388e565b1115611e8b5760405162461bcd60e51b815260206004820152601a60248201527f496e707574206d757374206e6f7420657863656564203130302500000000000060448201526064016109e3565b61010982905561010881905580611ea38360646137ee565b611ead91906137ee565b61010781905561010954610108546040805192835260208301919091528101919091527f6a59952a55f12772795fe6964c1b65f340b256f807578f311d3ce83f32f947679060600160405180910390a15050565b611f09612665565b6000611f1482610bc2565b9050600081118015611f265750478111155b1561200b576001600160a01b038216600090815261010b6020526040902054611f5090829061388e565b6001600160a01b038316600090815261010b6020526040812091909155611f778383612e4a565b905080611fc65760405162461bcd60e51b815260206004820152600f60248201527f5472616e73666572206661696c6564000000000000000000000000000000000060448201526064016109e3565b826001600160a01b03167f381b2269cade3eca66cdcb2ee190cab5c8562fa9cd63b9c8c29b76342abbde7e8360405161200191815260200190565b60405180910390a2505b50610ee76001606555565b60fc546001600160a01b03166324d7806c336040516001600160e01b031960e084901b1681526001600160a01b039091166004820152602401602060405180830381865afa15801561206c573d6000803e3d6000fd5b505050506040513d601f19601f820116820180604052508101906120909190613815565b6120dc5760405162461bcd60e51b815260206004820152601c60248201527f43616c6c6572206d7573742062652061646d696e6973747261746f720000000060448201526064016109e3565b6101048190556040518181527f69e745465f7c298745d3703bcf0e583594428993c1c3920fea5d181c23e367ac906020016111be565b60fc546001600160a01b03166324d7806c336040516001600160e01b031960e084901b1681526001600160a01b039091166004820152602401602060405180830381865afa158015612168573d6000803e3d6000fd5b505050506040513d601f19601f8201168201806040525081019061218c9190613815565b6121d85760405162461bcd60e51b815260206004820152601c60248201527f43616c6c6572206d7573742062652061646d696e6973747261746f720000000060448201526064016109e3565b6101068190556040518181527fcfbeaaafe85252eefcff52729a69be4e0a0fddc09618d6d15865b5c4c01794f9906020016111be565b60335460ff16156109f45760405162461bcd60e51b815260206004820152601060248201527f5061757361626c653a207061757365640000000000000000000000000000000060448201526064016109e3565b6040517f96852275d2408028e5465d831c70b45436794e221b81ff364822d4b56a56845790600090a1565b600054610100900460ff166122f75760405162461bcd60e51b815260206004820152602b60248201527f496e697469616c697a61626c653a20636f6e7472616374206973206e6f74206960448201526a6e697469616c697a696e6760a81b60648201526084016109e3565b6109f4612ec8565b600054610100900460ff1661236a5760405162461bcd60e51b815260206004820152602b60248201527f496e697469616c697a61626c653a20636f6e7472616374206973206e6f74206960448201526a6e697469616c697a696e6760a81b60648201526084016109e3565b6109f4612f3f565b61237a61220e565b6033805460ff191660011790557f62e78cea01bee320cd4e420270b5ea74000d11b0c9f74754ebdbfc544b05a2586123af3390565b6040516001600160a01b03909116815260200160405180910390a1565b6123da60ff80546001019055565b6123e860fe80546001019055565b60006123f360ff5490565b905060405180610120016040528082815260200183815260200160008152602001600081526020016000815260200161010454815260200160006001600160a01b0316815260200160fc60009054906101000a90046001600160a01b03166001600160a01b0316633c0c45666040518163ffffffff1660e01b8152600401602060405180830381865afa15801561248e573d6000803e3d6000fd5b505050506040513d601f19601f820116820180604052508101906124b29190613830565b6001600160a01b0390811682526000602092830181905284815261010080845260408083208651815586860151600182810191909155878301516002830155606088015160038301556080880151600483015560a0880151600583015560c088015160068301805491881673ffffffffffffffffffffffffffffffffffffffff1990921691909117905560e08801516007909201805498909401511515600160a01b027fffffffffffffffffffffff000000000000000000000000000000000000000000909816919095161795909517905585815261010183528381208054928301815580825292902001839055805491519091849184917fd6eddd1118d71820909c1197aa966dbc15ed6f508554252169cc3d5ccac756ca916125d891815260200190565b60405180910390a3505050565b6000818152610100602052604081205415801590610bf2575050600081815261010060205260409020541490565b60335460ff166109f45760405162461bcd60e51b815260206004820152601460248201527f5061757361626c653a206e6f742070617573656400000000000000000000000060448201526064016109e3565b600260655414156126b85760405162461bcd60e51b815260206004820152601f60248201527f5265656e7472616e637947756172643a207265656e7472616e742063616c6c0060448201526064016109e3565b6002606555565b6126c8816125e5565b6127145760405162461bcd60e51b815260206004820152601160248201527f41756374696f6e206e6f7420666f756e6400000000000000000000000000000060448201526064016109e3565b600061271f82611a54565b9050806101000151156127745760405162461bcd60e51b815260206004820152601760248201527f41756374696f6e20616c726561647920736574746c656400000000000000000060448201526064016109e3565b60608101516127c55760405162461bcd60e51b815260206004820152601560248201527f41756374696f6e20686173206e6f7420626567756e000000000000000000000060448201526064016109e3565b80608001514210156128195760405162461bcd60e51b815260206004820152601560248201527f41756374696f6e20686173206e6f7420656e646564000000000000000000000060448201526064016109e3565b60008281526101006020526040902060070180547fffffffffffffffffffffff00ffffffffffffffffffffffffffffffffffffffff16600160a01b17905561286160fe612faa565b60fb5460fc54604080517f3c0c456600000000000000000000000000000000000000000000000000000000815290516001600160a01b03938416936323b872dd931691633c0c45669160048083019260209291908290030181865afa1580156128ce573d6000803e3d6000fd5b505050506040513d601f19601f820116820180604052508101906128f29190613830565b60c084015160208501516040516001600160e01b031960e086901b1681526001600160a01b0393841660048201529290911660248301526044820152606401600060405180830381600087803b15801561294b57600080fd5b505af115801561295f573d6000803e3d6000fd5b5050505061297581602001518260400151613001565b60405182907f2f95e6505f529dd225ce705685fe55440c01f2824ac3fb4303f6eef4bd453ff490600090a25050565b6001606555565b60fc546001600160a01b03166324d7806c336040516001600160e01b031960e084901b1681526001600160a01b039091166004820152602401602060405180830381865afa158015612a01573d6000803e3d6000fd5b505050506040513d601f19601f82011682018060405250810190612a259190613815565b610ee75760405162461bcd60e51b815260206004820152601c60248201527f43616c6c6572206d7573742062652061646d696e6973747261746f720000000060448201526064016109e3565b7f4910fdfa16fed3260ed0e7147f7cc6da11a60208b5b9406d12a635614ffd91435460ff1615612aa957612aa48361321a565b505050565b826001600160a01b03166352d1902d6040518163ffffffff1660e01b8152600401602060405180830381865afa925050508015612b03575060408051601f3d908101601f19168201909252612b00918101906138bc565b60015b612b755760405162461bcd60e51b815260206004820152602e60248201527f45524331393637557067726164653a206e657720696d706c656d656e7461746960448201527f6f6e206973206e6f74205555505300000000000000000000000000000000000060648201526084016109e3565b7f360894a13ba1a3210667c828492db98dca3e2076cc3735a920a3ca505d382bbc8114612c0a5760405162461bcd60e51b815260206004820152602960248201527f45524331393637557067726164653a20756e737570706f727465642070726f7860448201527f6961626c6555554944000000000000000000000000000000000000000000000060648201526084016109e3565b50612aa48383836132e5565b612c1e612613565b6033805460ff191690557f5db9ee0a495bf2e6ff9c91a7834c1ba4fdd244a5e8aa4e537bd38aeae4b073aa336123af565b612cb260405180610120016040528060008152602001600081526020016000815260200160008152602001600081526020016000815260200160006001600160a01b0316815260200160006001600160a01b031681526020016000151581525090565b5060009081526101006020818152604092839020835161012081018552815481526001820154928101929092526002810154938201939093526003830154606082015260048301546080820152600583015460a082015260068301546001600160a01b0390811660c083015260079093015492831660e0820152600160a01b90920460ff1615159082015290565b612d4a8282612e4a565b6115065761010260009054906101000a90046001600160a01b03166001600160a01b031663d0e30db0826040518263ffffffff1660e01b81526004016000604051808303818588803b158015612d9f57600080fd5b505af1158015612db3573d6000803e3d6000fd5b5050610102546040517fa9059cbb0000000000000000000000000000000000000000000000000000000081526001600160a01b03878116600483015260248201879052909116935063a9059cbb925060440190506020604051808303816000875af1158015612e26573d6000803e3d6000fd5b505050506040513d601f19601f82011682018060405250810190612aa49190613815565b6040805160008082526020820190925281906001600160a01b03851690617530908590604051612e7a91906138d5565b600060405180830381858888f193505050503d8060008114612eb8576040519150601f19603f3d011682016040523d82523d6000602084013e612ebd565b606091505b509095945050505050565b600054610100900460ff16612f335760405162461bcd60e51b815260206004820152602b60248201527f496e697469616c697a61626c653a20636f6e7472616374206973206e6f74206960448201526a6e697469616c697a696e6760a81b60648201526084016109e3565b6033805460ff19169055565b600054610100900460ff166129a45760405162461bcd60e51b815260206004820152602b60248201527f496e697469616c697a61626c653a20636f6e7472616374206973206e6f74206960448201526a6e697469616c697a696e6760a81b60648201526084016109e3565b805480612ff95760405162461bcd60e51b815260206004820152601b60248201527f436f756e7465723a2064656372656d656e74206f766572666c6f77000000000060448201526064016109e3565b600019019055565b60fb546040517f4b3d267f000000000000000000000000000000000000000000000000000000008152600481018490526000916001600160a01b031690634b3d267f90602401600060405180830381865afa158015613064573d6000803e3d6000fd5b505050506040513d6000823e601f3d908101601f1916820160405261308c91908101906138f1565b9050600060fc60009054906101000a90046001600160a01b03166001600160a01b0316633c0c45666040518163ffffffff1660e01b8152600401602060405180830381865afa1580156130e3573d6000803e3d6000fd5b505050506040513d601f19601f820116820180604052508101906131079190613830565b905060006064610108548561311c919061384d565b613126919061386c565b905060006064610107548661313b919061384d565b613145919061386c565b90506000613153828461388e565b61315d90876137ee565b85516001600160a01b0316600090815261010a602052604090205490915061318690849061388e565b85516001600160a01b03908116600090815261010a6020908152604080832094909455880151909116815220546131be90839061388e565b6020808701516001600160a01b03908116600090815261010a9092526040808320939093558616815220546131f490829061388e565b6001600160a01b03909416600090815261010a6020526040902093909355505050505050565b6001600160a01b0381163b6132975760405162461bcd60e51b815260206004820152602d60248201527f455243313936373a206e657720696d706c656d656e746174696f6e206973206e60448201527f6f74206120636f6e74726163740000000000000000000000000000000000000060648201526084016109e3565b7f360894a13ba1a3210667c828492db98dca3e2076cc3735a920a3ca505d382bbc805473ffffffffffffffffffffffffffffffffffffffff19166001600160a01b0392909216919091179055565b6132ee83613310565b6000825111806132fb5750805b15612aa45761330a8383613350565b50505050565b6133198161321a565b6040516001600160a01b038216907fbc7cd75a20ee27fd9adebab32041f755214dbc6bffa90cc0225b39da2e5c2d3b90600090a250565b606061337583836040518060600160405280602781526020016139df6027913961337c565b9392505050565b6060600080856001600160a01b03168560405161339991906138d5565b600060405180830381855af49150503d80600081146133d4576040519150601f19603f3d011682016040523d82523d6000602084013e6133d9565b606091505b50915091506133ea868383876133f4565b9695505050505050565b60608315613460578251613459576001600160a01b0385163b6134595760405162461bcd60e51b815260206004820152601d60248201527f416464726573733a2063616c6c20746f206e6f6e2d636f6e747261637400000060448201526064016109e3565b508161346a565b61346a8383613472565b949350505050565b8151156134825781518083602001fd5b8060405162461bcd60e51b81526004016109e391906137a5565b6001600160a01b0381168114610ee757600080fd5b803560ff811681146134c257600080fd5b919050565b6000806000806000806000806000806101408b8d0312156134e757600080fd5b8a356134f28161349c565b995060208b01356135028161349c565b985060408b01356135128161349c565b975060608b0135965060808b0135955060a08b0135945061353560c08c016134b1565b935060e08b013592506101008b013591506101208b013590509295989b9194979a5092959850565b60006020828403121561356f57600080fd5b81356133758161349c565b60006020828403121561358c57600080fd5b5035919050565b6000602082840312156135a557600080fd5b613375826134b1565b634e487b7160e01b600052604160045260246000fd5b60405160a0810167ffffffffffffffff811182821017156135e7576135e76135ae565b60405290565b604051601f8201601f1916810167ffffffffffffffff81118282101715613616576136166135ae565b604052919050565b600067ffffffffffffffff821115613638576136386135ae565b50601f01601f191660200190565b6000806040838503121561365957600080fd5b82356136648161349c565b9150602083013567ffffffffffffffff81111561368057600080fd5b8301601f8101851361369157600080fd5b80356136a461369f8261361e565b6135ed565b8181528660208385010111156136b957600080fd5b816020840160208301376000602083830101528093505050509250929050565b600080604083850312156136ec57600080fd5b50508035926020909101359150565b600061012082019050825182526020830151602083015260408301516040830152606083015160608301526080830151608083015260a083015160a083015260c08301516001600160a01b0380821660c08501528060e08601511660e08501525050610100808401516137718285018215159052565b505092915050565b60005b8381101561379457818101518382015260200161377c565b8381111561330a5750506000910152565b60208152600082518060208401526137c4816040850160208701613779565b601f01601f19169190910160400192915050565b634e487b7160e01b600052601160045260246000fd5b600082821015613800576138006137d8565b500390565b805180151581146134c257600080fd5b60006020828403121561382757600080fd5b61337582613805565b60006020828403121561384257600080fd5b81516133758161349c565b6000816000190483118215151615613867576138676137d8565b500290565b60008261388957634e487b7160e01b600052601260045260246000fd5b500490565b600082198211156138a1576138a16137d8565b500190565b634e487b7160e01b600052603260045260246000fd5b6000602082840312156138ce57600080fd5b5051919050565b600082516138e7818460208701613779565b9190910192915050565b6000602080838503121561390457600080fd5b825167ffffffffffffffff8082111561391c57600080fd5b9084019060a0828703121561393057600080fd5b6139386135c4565b82516139438161349c565b8152828401516139528161349c565b8185015260408301518281111561396857600080fd5b83019150601f8201871361397b57600080fd5b815161398961369f8261361e565b818152888683860101111561399d57600080fd5b6139ac82878301888701613779565b6040830152506139be60608401613805565b60608201526139cf60808401613805565b6080820152969550505050505056fe416464726573733a206c6f772d6c6576656c2064656c65676174652063616c6c206661696c6564a26469706673582212204357f2e7d6154daa3901b34fa40ceff66d8a60856bfa313aa4e3f929e914231364736f6c634300080c0033",
  "devdoc": {
    "author": "Ethereum Tag Service <team@ets.xyz>",
    "kind": "dev",
    "methods": {
      "constructor": {
        "custom:oz-upgrades-unsafe-allow": "constructor"
      },
      "drawDown(address)": {
        "params": {
          "_account": "Address of account being drawn down and which will receive the funds."
        }
      },
      "paused()": {
        "details": "Returns true if the contract is paused, and false otherwise."
      },
      "proxiableUUID()": {
        "details": "Implementation of the ERC1822 {proxiableUUID} function. This returns the storage slot used by the implementation. It is used to validate the implementation's compatibility when performing an upgrade. IMPORTANT: A proxy pointing at a proxiable contract should not be considered proxiable itself, because this risks bricking a proxy that upgrades to it, by delegating to itself until out of gas. Thus it is critical that this function revert if invoked through a proxy. This is guaranteed by the `notDelegated` modifier."
      },
      "settleAuction(uint256)": {
        "details": "This function can only be called when the contract is paused."
      },
      "upgradeTo(address)": {
        "custom:oz-upgrades-unsafe-allow-reachable": "delegatecall",
        "details": "Upgrade the implementation of the proxy to `newImplementation`. Calls {_authorizeUpgrade}. Emits an {Upgraded} event."
      },
      "upgradeToAndCall(address,bytes)": {
        "custom:oz-upgrades-unsafe-allow-reachable": "delegatecall",
        "details": "Upgrade the implementation of the proxy to `newImplementation`, and subsequently execute the function call encoded in `data`. Calls {_authorizeUpgrade}. Emits an {Upgraded} event."
      }
    },
    "stateVariables": {
      "accrued": {
        "details": "Map for holding amount accrued to participant address wallets."
      },
      "auctions": {
        "details": "Mapping of auction ID to auction."
      },
      "auctionsByTokenId": {
        "details": "Mapping of tokenId to array of auction ids."
      },
      "creatorPercentage": {
        "details": "Percentage of auction proceeds allocated to CTAG Creator"
      },
      "duration": {
        "details": "The duration of a single auction"
      },
      "minBidIncrementPercentage": {
        "details": "The minimum percentage difference between the last bid amount and the current bid"
      },
      "paid": {
        "details": "Map for holding lifetime amount drawn down from accrued by participants."
      },
      "platformPercentage": {
        "details": "Percentage of auction proceeds allocated to ETS."
      },
      "relayerPercentage": {
        "details": "Percentage of auction proceeds allocated to CTAG Relayer."
      },
      "reservePrice": {
        "details": "The minimum price accepted in an auction"
      },
      "timeBuffer": {
        "details": "The minimum amount of time left in an auction after a new bid is created"
      },
      "wmatic": {
        "details": "The address of the WMATIC contract"
      }
    },
    "title": "ETSAuctionHouse",
    "version": 1
  },
  "userdoc": {
    "kind": "user",
    "methods": {
      "NAME()": {
        "notice": "Public constants"
      },
      "drawDown(address)": {
        "notice": "Function for withdrawing funds from an accrual account. Can be called by the account owner or on behalf of the account. Does nothing when there is nothing due to the account."
      },
      "maxAuctions()": {
        "notice": "Public variables"
      },
      "settleAuction(uint256)": {
        "notice": "Settle the auction."
      },
      "settleCurrentAndCreateNewAuction(uint256)": {
        "notice": "Settle auction, and release next auction."
      }
    },
    "notice": "ETSAuctionHouse contract governs the sale of Ethereum Tag Service composable tags (CTAGs).",
    "version": 1
  },
  "storageLayout": {
    "storage": [
      {
        "astId": 912,
        "contract": "contracts/ETSAuctionHouse.sol:ETSAuctionHouse",
        "label": "_initialized",
        "offset": 0,
        "slot": "0",
        "type": "t_uint8"
      },
      {
        "astId": 915,
        "contract": "contracts/ETSAuctionHouse.sol:ETSAuctionHouse",
        "label": "_initializing",
        "offset": 1,
        "slot": "0",
        "type": "t_bool"
      },
      {
        "astId": 3508,
        "contract": "contracts/ETSAuctionHouse.sol:ETSAuctionHouse",
        "label": "__gap",
        "offset": 0,
        "slot": "1",
        "type": "t_array(t_uint256)50_storage"
      },
      {
        "astId": 1231,
        "contract": "contracts/ETSAuctionHouse.sol:ETSAuctionHouse",
        "label": "_paused",
        "offset": 0,
        "slot": "51",
        "type": "t_bool"
      },
      {
        "astId": 1336,
        "contract": "contracts/ETSAuctionHouse.sol:ETSAuctionHouse",
        "label": "__gap",
        "offset": 0,
        "slot": "52",
        "type": "t_array(t_uint256)49_storage"
      },
      {
        "astId": 1351,
        "contract": "contracts/ETSAuctionHouse.sol:ETSAuctionHouse",
        "label": "_status",
        "offset": 0,
        "slot": "101",
        "type": "t_uint256"
      },
      {
        "astId": 1420,
        "contract": "contracts/ETSAuctionHouse.sol:ETSAuctionHouse",
        "label": "__gap",
        "offset": 0,
        "slot": "102",
        "type": "t_array(t_uint256)49_storage"
      },
      {
        "astId": 894,
        "contract": "contracts/ETSAuctionHouse.sol:ETSAuctionHouse",
        "label": "__gap",
        "offset": 0,
        "slot": "151",
        "type": "t_array(t_uint256)50_storage"
      },
      {
        "astId": 1209,
        "contract": "contracts/ETSAuctionHouse.sol:ETSAuctionHouse",
        "label": "__gap",
        "offset": 0,
        "slot": "201",
        "type": "t_array(t_uint256)50_storage"
      },
      {
        "astId": 11120,
        "contract": "contracts/ETSAuctionHouse.sol:ETSAuctionHouse",
        "label": "etsToken",
        "offset": 0,
        "slot": "251",
        "type": "t_contract(IETSToken)15378"
      },
      {
        "astId": 11123,
        "contract": "contracts/ETSAuctionHouse.sol:ETSAuctionHouse",
        "label": "etsAccessControls",
        "offset": 0,
        "slot": "252",
        "type": "t_contract(IETSAccessControls)14815"
      },
      {
        "astId": 11133,
        "contract": "contracts/ETSAuctionHouse.sol:ETSAuctionHouse",
        "label": "maxAuctions",
        "offset": 0,
        "slot": "253",
        "type": "t_uint256"
      },
      {
        "astId": 11136,
        "contract": "contracts/ETSAuctionHouse.sol:ETSAuctionHouse",
        "label": "activeAuctions",
        "offset": 0,
        "slot": "254",
        "type": "t_struct(Counter)3515_storage"
      },
      {
        "astId": 11139,
        "contract": "contracts/ETSAuctionHouse.sol:ETSAuctionHouse",
        "label": "auctionId",
        "offset": 0,
        "slot": "255",
        "type": "t_struct(Counter)3515_storage"
      },
      {
        "astId": 11145,
        "contract": "contracts/ETSAuctionHouse.sol:ETSAuctionHouse",
        "label": "auctions",
        "offset": 0,
        "slot": "256",
        "type": "t_mapping(t_uint256,t_struct(Auction)14836_storage)"
      },
      {
        "astId": 11151,
        "contract": "contracts/ETSAuctionHouse.sol:ETSAuctionHouse",
        "label": "auctionsByTokenId",
        "offset": 0,
        "slot": "257",
        "type": "t_mapping(t_uint256,t_array(t_uint256)dyn_storage)"
      },
      {
        "astId": 11154,
        "contract": "contracts/ETSAuctionHouse.sol:ETSAuctionHouse",
        "label": "wmatic",
        "offset": 0,
        "slot": "258",
        "type": "t_address"
      },
      {
        "astId": 11157,
        "contract": "contracts/ETSAuctionHouse.sol:ETSAuctionHouse",
        "label": "timeBuffer",
        "offset": 0,
        "slot": "259",
        "type": "t_uint256"
      },
      {
        "astId": 11160,
        "contract": "contracts/ETSAuctionHouse.sol:ETSAuctionHouse",
        "label": "reservePrice",
        "offset": 0,
        "slot": "260",
        "type": "t_uint256"
      },
      {
        "astId": 11163,
        "contract": "contracts/ETSAuctionHouse.sol:ETSAuctionHouse",
        "label": "minBidIncrementPercentage",
        "offset": 0,
        "slot": "261",
        "type": "t_uint8"
      },
      {
        "astId": 11166,
        "contract": "contracts/ETSAuctionHouse.sol:ETSAuctionHouse",
        "label": "duration",
        "offset": 0,
        "slot": "262",
        "type": "t_uint256"
      },
      {
        "astId": 11169,
        "contract": "contracts/ETSAuctionHouse.sol:ETSAuctionHouse",
        "label": "creatorPercentage",
        "offset": 0,
        "slot": "263",
        "type": "t_uint256"
      },
      {
        "astId": 11172,
        "contract": "contracts/ETSAuctionHouse.sol:ETSAuctionHouse",
        "label": "relayerPercentage",
        "offset": 0,
        "slot": "264",
        "type": "t_uint256"
      },
      {
        "astId": 11175,
        "contract": "contracts/ETSAuctionHouse.sol:ETSAuctionHouse",
        "label": "platformPercentage",
        "offset": 0,
        "slot": "265",
        "type": "t_uint256"
      },
      {
        "astId": 11180,
        "contract": "contracts/ETSAuctionHouse.sol:ETSAuctionHouse",
        "label": "accrued",
        "offset": 0,
        "slot": "266",
        "type": "t_mapping(t_address,t_uint256)"
      },
      {
        "astId": 11185,
        "contract": "contracts/ETSAuctionHouse.sol:ETSAuctionHouse",
        "label": "paid",
        "offset": 0,
        "slot": "267",
        "type": "t_mapping(t_address,t_uint256)"
      }
    ],
    "types": {
      "t_address": {
        "encoding": "inplace",
        "label": "address",
        "numberOfBytes": "20"
      },
      "t_address_payable": {
        "encoding": "inplace",
        "label": "address payable",
        "numberOfBytes": "20"
      },
      "t_array(t_uint256)49_storage": {
        "base": "t_uint256",
        "encoding": "inplace",
        "label": "uint256[49]",
        "numberOfBytes": "1568"
      },
      "t_array(t_uint256)50_storage": {
        "base": "t_uint256",
        "encoding": "inplace",
        "label": "uint256[50]",
        "numberOfBytes": "1600"
      },
      "t_array(t_uint256)dyn_storage": {
        "base": "t_uint256",
        "encoding": "dynamic_array",
        "label": "uint256[]",
        "numberOfBytes": "32"
      },
      "t_bool": {
        "encoding": "inplace",
        "label": "bool",
        "numberOfBytes": "1"
      },
      "t_contract(IETSAccessControls)14815": {
        "encoding": "inplace",
        "label": "contract IETSAccessControls",
        "numberOfBytes": "20"
      },
      "t_contract(IETSToken)15378": {
        "encoding": "inplace",
        "label": "contract IETSToken",
        "numberOfBytes": "20"
      },
      "t_mapping(t_address,t_uint256)": {
        "encoding": "mapping",
        "key": "t_address",
        "label": "mapping(address => uint256)",
        "numberOfBytes": "32",
        "value": "t_uint256"
      },
      "t_mapping(t_uint256,t_array(t_uint256)dyn_storage)": {
        "encoding": "mapping",
        "key": "t_uint256",
        "label": "mapping(uint256 => uint256[])",
        "numberOfBytes": "32",
        "value": "t_array(t_uint256)dyn_storage"
      },
      "t_mapping(t_uint256,t_struct(Auction)14836_storage)": {
        "encoding": "mapping",
        "key": "t_uint256",
        "label": "mapping(uint256 => struct IETSAuctionHouse.Auction)",
        "numberOfBytes": "32",
        "value": "t_struct(Auction)14836_storage"
      },
      "t_struct(Auction)14836_storage": {
        "encoding": "inplace",
        "label": "struct IETSAuctionHouse.Auction",
        "members": [
          {
            "astId": 14819,
            "contract": "contracts/ETSAuctionHouse.sol:ETSAuctionHouse",
            "label": "auctionId",
            "offset": 0,
            "slot": "0",
            "type": "t_uint256"
          },
          {
            "astId": 14821,
            "contract": "contracts/ETSAuctionHouse.sol:ETSAuctionHouse",
            "label": "tokenId",
            "offset": 0,
            "slot": "1",
            "type": "t_uint256"
          },
          {
            "astId": 14823,
            "contract": "contracts/ETSAuctionHouse.sol:ETSAuctionHouse",
            "label": "amount",
            "offset": 0,
            "slot": "2",
            "type": "t_uint256"
          },
          {
            "astId": 14825,
            "contract": "contracts/ETSAuctionHouse.sol:ETSAuctionHouse",
            "label": "startTime",
            "offset": 0,
            "slot": "3",
            "type": "t_uint256"
          },
          {
            "astId": 14827,
            "contract": "contracts/ETSAuctionHouse.sol:ETSAuctionHouse",
            "label": "endTime",
            "offset": 0,
            "slot": "4",
            "type": "t_uint256"
          },
          {
            "astId": 14829,
            "contract": "contracts/ETSAuctionHouse.sol:ETSAuctionHouse",
            "label": "reservePrice",
            "offset": 0,
            "slot": "5",
            "type": "t_uint256"
          },
          {
            "astId": 14831,
            "contract": "contracts/ETSAuctionHouse.sol:ETSAuctionHouse",
            "label": "bidder",
            "offset": 0,
            "slot": "6",
            "type": "t_address_payable"
          },
          {
            "astId": 14833,
            "contract": "contracts/ETSAuctionHouse.sol:ETSAuctionHouse",
            "label": "auctioneer",
            "offset": 0,
            "slot": "7",
            "type": "t_address_payable"
          },
          {
            "astId": 14835,
            "contract": "contracts/ETSAuctionHouse.sol:ETSAuctionHouse",
            "label": "settled",
            "offset": 20,
            "slot": "7",
            "type": "t_bool"
          }
        ],
        "numberOfBytes": "256"
      },
      "t_struct(Counter)3515_storage": {
        "encoding": "inplace",
        "label": "struct CountersUpgradeable.Counter",
        "members": [
          {
            "astId": 3514,
            "contract": "contracts/ETSAuctionHouse.sol:ETSAuctionHouse",
            "label": "_value",
            "offset": 0,
            "slot": "0",
            "type": "t_uint256"
          }
        ],
        "numberOfBytes": "32"
      },
      "t_uint256": {
        "encoding": "inplace",
        "label": "uint256",
        "numberOfBytes": "32"
      },
      "t_uint8": {
        "encoding": "inplace",
        "label": "uint8",
        "numberOfBytes": "1"
      }
    }
  }
}