{
  "address": "0x945D2C0228dC1Cc872040494Df185629e764b54c",
  "abi": [
    {
      "inputs": [],
      "stateMutability": "nonpayable",
      "type": "constructor"
    },
    {
      "anonymous": false,
      "inputs": [
        {
          "indexed": false,
          "internalType": "address",
          "name": "previousAdmin",
          "type": "address"
        },
        {
          "indexed": false,
          "internalType": "address",
          "name": "newAdmin",
          "type": "address"
        }
      ],
      "name": "AdminChanged",
      "type": "event"
    },
    {
      "anonymous": false,
      "inputs": [
        {
          "indexed": true,
          "internalType": "uint256",
          "name": "auctionId",
          "type": "uint256"
        },
        {
          "indexed": false,
          "internalType": "address",
          "name": "sender",
          "type": "address"
        },
        {
          "indexed": false,
          "internalType": "uint256",
          "name": "value",
          "type": "uint256"
        },
        {
          "indexed": false,
          "internalType": "bool",
          "name": "extended",
          "type": "bool"
        }
      ],
      "name": "AuctionBid",
      "type": "event"
    },
    {
      "anonymous": false,
      "inputs": [
        {
          "indexed": true,
          "internalType": "uint256",
          "name": "auctionId",
          "type": "uint256"
        },
        {
          "indexed": true,
          "internalType": "uint256",
          "name": "tokenId",
          "type": "uint256"
        },
        {
          "indexed": false,
          "internalType": "uint256",
          "name": "tokenAuctionNumber",
          "type": "uint256"
        }
      ],
      "name": "AuctionCreated",
      "type": "event"
    },
    {
      "anonymous": false,
      "inputs": [
        {
          "indexed": false,
          "internalType": "uint256",
          "name": "duration",
          "type": "uint256"
        }
      ],
      "name": "AuctionDurationSet",
      "type": "event"
    },
    {
      "anonymous": false,
      "inputs": [
        {
          "indexed": true,
          "internalType": "uint256",
          "name": "auctionId",
          "type": "uint256"
        },
        {
          "indexed": false,
          "internalType": "uint256",
          "name": "endTime",
          "type": "uint256"
        }
      ],
      "name": "AuctionExtended",
      "type": "event"
    },
    {
      "anonymous": false,
      "inputs": [
        {
          "indexed": false,
          "internalType": "uint8",
          "name": "minBidIncrementPercentagePrice",
          "type": "uint8"
        }
      ],
      "name": "AuctionMinBidIncrementPercentageSet",
      "type": "event"
    },
    {
      "anonymous": false,
      "inputs": [
        {
          "indexed": false,
          "internalType": "uint256",
          "name": "platformPercentage",
          "type": "uint256"
        },
        {
          "indexed": false,
          "internalType": "uint256",
          "name": "relayerPercentage",
          "type": "uint256"
        },
        {
          "indexed": false,
          "internalType": "uint256",
          "name": "creatorPercentage",
          "type": "uint256"
        }
      ],
      "name": "AuctionProceedPercentagesSet",
      "type": "event"
    },
    {
      "anonymous": false,
      "inputs": [
        {
          "indexed": true,
          "internalType": "address",
          "name": "who",
          "type": "address"
        },
        {
          "indexed": false,
          "internalType": "uint256",
          "name": "amount",
          "type": "uint256"
        }
      ],
      "name": "AuctionProceedsWithdrawn",
      "type": "event"
    },
    {
      "anonymous": false,
      "inputs": [
        {
          "indexed": false,
          "internalType": "uint256",
          "name": "reservePrice",
          "type": "uint256"
        }
      ],
      "name": "AuctionReservePriceSet",
      "type": "event"
    },
    {
      "anonymous": false,
      "inputs": [
        {
          "indexed": true,
          "internalType": "uint256",
          "name": "auctionId",
          "type": "uint256"
        }
      ],
      "name": "AuctionSettled",
      "type": "event"
    },
    {
      "anonymous": false,
      "inputs": [
        {
          "indexed": false,
          "internalType": "uint256",
          "name": "timeBuffer",
          "type": "uint256"
        }
      ],
      "name": "AuctionTimeBufferSet",
      "type": "event"
    },
    {
      "anonymous": false,
      "inputs": [
        {
          "indexed": false,
          "internalType": "uint256",
          "name": "maxAuctions",
          "type": "uint256"
        }
      ],
      "name": "AuctionsMaxSet",
      "type": "event"
    },
    {
      "anonymous": false,
      "inputs": [
        {
          "indexed": true,
          "internalType": "address",
          "name": "beacon",
          "type": "address"
        }
      ],
      "name": "BeaconUpgraded",
      "type": "event"
    },
    {
      "anonymous": false,
      "inputs": [
        {
          "indexed": false,
          "internalType": "uint8",
          "name": "version",
          "type": "uint8"
        }
      ],
      "name": "Initialized",
      "type": "event"
    },
    {
      "anonymous": false,
      "inputs": [
        {
          "indexed": false,
          "internalType": "address",
          "name": "account",
          "type": "address"
        }
      ],
      "name": "Paused",
      "type": "event"
    },
    {
      "anonymous": false,
      "inputs": [],
      "name": "RequestCreateAuction",
      "type": "event"
    },
    {
      "anonymous": false,
      "inputs": [
        {
          "indexed": false,
          "internalType": "address",
          "name": "account",
          "type": "address"
        }
      ],
      "name": "Unpaused",
      "type": "event"
    },
    {
      "anonymous": false,
      "inputs": [
        {
          "indexed": true,
          "internalType": "address",
          "name": "implementation",
          "type": "address"
        }
      ],
      "name": "Upgraded",
      "type": "event"
    },
    {
      "stateMutability": "payable",
      "type": "fallback"
    },
    {
      "inputs": [],
      "name": "MODULO",
      "outputs": [
        {
          "internalType": "uint256",
          "name": "",
          "type": "uint256"
        }
      ],
      "stateMutability": "view",
      "type": "function"
    },
    {
      "inputs": [],
      "name": "NAME",
      "outputs": [
        {
          "internalType": "string",
          "name": "",
          "type": "string"
        }
      ],
      "stateMutability": "view",
      "type": "function"
    },
    {
      "inputs": [],
      "name": "VERSION",
      "outputs": [
        {
          "internalType": "string",
          "name": "",
          "type": "string"
        }
      ],
      "stateMutability": "view",
      "type": "function"
    },
    {
      "inputs": [
        {
          "internalType": "address",
          "name": "",
          "type": "address"
        }
      ],
      "name": "accrued",
      "outputs": [
        {
          "internalType": "uint256",
          "name": "",
          "type": "uint256"
        }
      ],
      "stateMutability": "view",
      "type": "function"
    },
    {
      "inputs": [
        {
          "internalType": "uint256",
          "name": "_auctionId",
          "type": "uint256"
        }
      ],
      "name": "auctionEnded",
      "outputs": [
        {
          "internalType": "bool",
          "name": "",
          "type": "bool"
        }
      ],
      "stateMutability": "view",
      "type": "function"
    },
    {
      "inputs": [
        {
          "internalType": "uint256",
          "name": "_auctionId",
          "type": "uint256"
        }
      ],
      "name": "auctionExists",
      "outputs": [
        {
          "internalType": "bool",
          "name": "",
          "type": "bool"
        }
      ],
      "stateMutability": "view",
      "type": "function"
    },
    {
      "inputs": [
        {
          "internalType": "uint256",
          "name": "_tokenId",
          "type": "uint256"
        }
      ],
      "name": "auctionExistsForTokenId",
      "outputs": [
        {
          "internalType": "bool",
          "name": "",
          "type": "bool"
        }
      ],
      "stateMutability": "view",
      "type": "function"
    },
    {
      "inputs": [
        {
          "internalType": "uint256",
          "name": "_auctionId",
          "type": "uint256"
        }
      ],
      "name": "auctionSettled",
      "outputs": [
        {
          "internalType": "bool",
          "name": "",
          "type": "bool"
        }
      ],
      "stateMutability": "view",
      "type": "function"
    },
    {
      "inputs": [
        {
          "internalType": "uint256",
          "name": "",
          "type": "uint256"
        }
      ],
      "name": "auctions",
      "outputs": [
        {
          "internalType": "uint256",
          "name": "auctionId",
          "type": "uint256"
        },
        {
          "internalType": "uint256",
          "name": "tokenId",
          "type": "uint256"
        },
        {
          "internalType": "uint256",
          "name": "amount",
          "type": "uint256"
        },
        {
          "internalType": "uint256",
          "name": "startTime",
          "type": "uint256"
        },
        {
          "internalType": "uint256",
          "name": "endTime",
          "type": "uint256"
        },
        {
          "internalType": "uint256",
          "name": "reservePrice",
          "type": "uint256"
        },
        {
          "internalType": "address payable",
          "name": "bidder",
          "type": "address"
        },
        {
          "internalType": "address payable",
          "name": "auctioneer",
          "type": "address"
        },
        {
          "internalType": "bool",
          "name": "settled",
          "type": "bool"
        }
      ],
      "stateMutability": "view",
      "type": "function"
    },
    {
      "inputs": [
        {
          "internalType": "uint256",
          "name": "",
          "type": "uint256"
        },
        {
          "internalType": "uint256",
          "name": "",
          "type": "uint256"
        }
      ],
      "name": "auctionsByTokenId",
      "outputs": [
        {
          "internalType": "uint256",
          "name": "",
          "type": "uint256"
        }
      ],
      "stateMutability": "view",
      "type": "function"
    },
    {
      "inputs": [
        {
          "internalType": "uint256",
          "name": "_auctionId",
          "type": "uint256"
        }
      ],
      "name": "createBid",
      "outputs": [],
      "stateMutability": "payable",
      "type": "function"
    },
    {
      "inputs": [],
      "name": "createNextAuction",
      "outputs": [],
      "stateMutability": "nonpayable",
      "type": "function"
    },
    {
      "inputs": [],
      "name": "creatorPercentage",
      "outputs": [
        {
          "internalType": "uint256",
          "name": "",
          "type": "uint256"
        }
      ],
      "stateMutability": "view",
      "type": "function"
    },
    {
      "inputs": [
        {
          "internalType": "address payable",
          "name": "_account",
          "type": "address"
        }
      ],
      "name": "drawDown",
      "outputs": [],
      "stateMutability": "nonpayable",
      "type": "function"
    },
    {
      "inputs": [],
      "name": "duration",
      "outputs": [
        {
          "internalType": "uint256",
          "name": "",
          "type": "uint256"
        }
      ],
      "stateMutability": "view",
      "type": "function"
    },
    {
      "inputs": [],
      "name": "etsAccessControls",
      "outputs": [
        {
          "internalType": "contract IETSAccessControls",
          "name": "",
          "type": "address"
        }
      ],
      "stateMutability": "view",
      "type": "function"
    },
    {
      "inputs": [],
      "name": "etsToken",
      "outputs": [
        {
          "internalType": "contract IETSToken",
          "name": "",
          "type": "address"
        }
      ],
      "stateMutability": "view",
      "type": "function"
    },
    {
      "inputs": [
        {
          "internalType": "uint256",
          "name": "_tokenId",
          "type": "uint256"
        }
      ],
      "name": "fulfillRequestCreateAuction",
      "outputs": [],
      "stateMutability": "nonpayable",
      "type": "function"
    },
    {
      "inputs": [],
      "name": "getActiveCount",
      "outputs": [
        {
          "internalType": "uint256",
          "name": "",
          "type": "uint256"
        }
      ],
      "stateMutability": "view",
      "type": "function"
    },
    {
      "inputs": [
        {
          "internalType": "uint256",
          "name": "_auctionId",
          "type": "uint256"
        }
      ],
      "name": "getAuction",
      "outputs": [
        {
          "components": [
            {
              "internalType": "uint256",
              "name": "auctionId",
              "type": "uint256"
            },
            {
              "internalType": "uint256",
              "name": "tokenId",
              "type": "uint256"
            },
            {
              "internalType": "uint256",
              "name": "amount",
              "type": "uint256"
            },
            {
              "internalType": "uint256",
              "name": "startTime",
              "type": "uint256"
            },
            {
              "internalType": "uint256",
              "name": "endTime",
              "type": "uint256"
            },
            {
              "internalType": "uint256",
              "name": "reservePrice",
              "type": "uint256"
            },
            {
              "internalType": "address payable",
              "name": "bidder",
              "type": "address"
            },
            {
              "internalType": "address payable",
              "name": "auctioneer",
              "type": "address"
            },
            {
              "internalType": "bool",
              "name": "settled",
              "type": "bool"
            }
          ],
          "internalType": "struct IETSAuctionHouse.Auction",
          "name": "",
          "type": "tuple"
        }
      ],
      "stateMutability": "view",
      "type": "function"
    },
    {
      "inputs": [
        {
          "internalType": "uint256",
          "name": "_tokenId",
          "type": "uint256"
        }
      ],
      "name": "getAuctionCountForTokenId",
      "outputs": [
        {
          "internalType": "uint256",
          "name": "",
          "type": "uint256"
        }
      ],
      "stateMutability": "view",
      "type": "function"
    },
    {
      "inputs": [
        {
          "internalType": "uint256",
          "name": "_tokenId",
          "type": "uint256"
        }
      ],
      "name": "getAuctionForTokenId",
      "outputs": [
        {
          "components": [
            {
              "internalType": "uint256",
              "name": "auctionId",
              "type": "uint256"
            },
            {
              "internalType": "uint256",
              "name": "tokenId",
              "type": "uint256"
            },
            {
              "internalType": "uint256",
              "name": "amount",
              "type": "uint256"
            },
            {
              "internalType": "uint256",
              "name": "startTime",
              "type": "uint256"
            },
            {
              "internalType": "uint256",
              "name": "endTime",
              "type": "uint256"
            },
            {
              "internalType": "uint256",
              "name": "reservePrice",
              "type": "uint256"
            },
            {
              "internalType": "address payable",
              "name": "bidder",
              "type": "address"
            },
            {
              "internalType": "address payable",
              "name": "auctioneer",
              "type": "address"
            },
            {
              "internalType": "bool",
              "name": "settled",
              "type": "bool"
            }
          ],
          "internalType": "struct IETSAuctionHouse.Auction",
          "name": "",
          "type": "tuple"
        }
      ],
      "stateMutability": "view",
      "type": "function"
    },
    {
      "inputs": [],
      "name": "getBalance",
      "outputs": [
        {
          "internalType": "uint256",
          "name": "",
          "type": "uint256"
        }
      ],
      "stateMutability": "view",
      "type": "function"
    },
    {
      "inputs": [],
      "name": "getTotalCount",
      "outputs": [
        {
          "internalType": "uint256",
          "name": "",
          "type": "uint256"
        }
      ],
      "stateMutability": "view",
      "type": "function"
    },
    {
      "inputs": [
        {
          "internalType": "contract IETSToken",
          "name": "_etsToken",
          "type": "address"
        },
        {
          "internalType": "contract IETSAccessControls",
          "name": "_etsAccessControls",
          "type": "address"
        },
        {
          "internalType": "address",
          "name": "_weth",
          "type": "address"
        },
        {
          "internalType": "uint256",
          "name": "_maxAuctions",
          "type": "uint256"
        },
        {
          "internalType": "uint256",
          "name": "_timeBuffer",
          "type": "uint256"
        },
        {
          "internalType": "uint256",
          "name": "_reservePrice",
          "type": "uint256"
        },
        {
          "internalType": "uint8",
          "name": "_minBidIncrementPercentage",
          "type": "uint8"
        },
        {
          "internalType": "uint256",
          "name": "_duration",
          "type": "uint256"
        },
        {
          "internalType": "uint256",
          "name": "_relayerPercentage",
          "type": "uint256"
        },
        {
          "internalType": "uint256",
          "name": "_platformPercentage",
          "type": "uint256"
        }
      ],
      "name": "initialize",
      "outputs": [],
      "stateMutability": "nonpayable",
      "type": "function"
    },
    {
      "inputs": [],
      "name": "maxAuctions",
      "outputs": [
        {
          "internalType": "uint256",
          "name": "",
          "type": "uint256"
        }
      ],
      "stateMutability": "view",
      "type": "function"
    },
    {
      "inputs": [],
      "name": "minBidIncrementPercentage",
      "outputs": [
        {
          "internalType": "uint8",
          "name": "",
          "type": "uint8"
        }
      ],
      "stateMutability": "view",
      "type": "function"
    },
    {
      "inputs": [
        {
          "internalType": "address",
          "name": "",
          "type": "address"
        }
      ],
      "name": "paid",
      "outputs": [
        {
          "internalType": "uint256",
          "name": "",
          "type": "uint256"
        }
      ],
      "stateMutability": "view",
      "type": "function"
    },
    {
      "inputs": [],
      "name": "pause",
      "outputs": [],
      "stateMutability": "nonpayable",
      "type": "function"
    },
    {
      "inputs": [],
      "name": "paused",
      "outputs": [
        {
          "internalType": "bool",
          "name": "",
          "type": "bool"
        }
      ],
      "stateMutability": "view",
      "type": "function"
    },
    {
      "inputs": [],
      "name": "platformPercentage",
      "outputs": [
        {
          "internalType": "uint256",
          "name": "",
          "type": "uint256"
        }
      ],
      "stateMutability": "view",
      "type": "function"
    },
    {
      "inputs": [],
      "name": "proxiableUUID",
      "outputs": [
        {
          "internalType": "bytes32",
          "name": "",
          "type": "bytes32"
        }
      ],
      "stateMutability": "view",
      "type": "function"
    },
    {
      "inputs": [],
      "name": "relayerPercentage",
      "outputs": [
        {
          "internalType": "uint256",
          "name": "",
          "type": "uint256"
        }
      ],
      "stateMutability": "view",
      "type": "function"
    },
    {
      "inputs": [],
      "name": "reservePrice",
      "outputs": [
        {
          "internalType": "uint256",
          "name": "",
          "type": "uint256"
        }
      ],
      "stateMutability": "view",
      "type": "function"
    },
    {
      "inputs": [
        {
          "internalType": "uint256",
          "name": "_duration",
          "type": "uint256"
        }
      ],
      "name": "setDuration",
      "outputs": [],
      "stateMutability": "nonpayable",
      "type": "function"
    },
    {
      "inputs": [
        {
          "internalType": "uint256",
          "name": "_maxAuctions",
          "type": "uint256"
        }
      ],
      "name": "setMaxAuctions",
      "outputs": [],
      "stateMutability": "nonpayable",
      "type": "function"
    },
    {
      "inputs": [
        {
          "internalType": "uint8",
          "name": "_minBidIncrementPercentage",
          "type": "uint8"
        }
      ],
      "name": "setMinBidIncrementPercentage",
      "outputs": [],
      "stateMutability": "nonpayable",
      "type": "function"
    },
    {
      "inputs": [
        {
          "internalType": "uint256",
          "name": "_platformPercentage",
          "type": "uint256"
        },
        {
          "internalType": "uint256",
          "name": "_relayerPercentage",
          "type": "uint256"
        }
      ],
      "name": "setProceedPercentages",
      "outputs": [],
      "stateMutability": "nonpayable",
      "type": "function"
    },
    {
      "inputs": [
        {
          "internalType": "uint256",
          "name": "_reservePrice",
          "type": "uint256"
        }
      ],
      "name": "setReservePrice",
      "outputs": [],
      "stateMutability": "nonpayable",
      "type": "function"
    },
    {
      "inputs": [
        {
          "internalType": "uint256",
          "name": "_timeBuffer",
          "type": "uint256"
        }
      ],
      "name": "setTimeBuffer",
      "outputs": [],
      "stateMutability": "nonpayable",
      "type": "function"
    },
    {
      "inputs": [
        {
          "internalType": "uint256",
          "name": "_auctionId",
          "type": "uint256"
        }
      ],
      "name": "settleAuction",
      "outputs": [],
      "stateMutability": "nonpayable",
      "type": "function"
    },
    {
      "inputs": [
        {
          "internalType": "uint256",
          "name": "_auctionId",
          "type": "uint256"
        }
      ],
      "name": "settleCurrentAndCreateNewAuction",
      "outputs": [],
      "stateMutability": "nonpayable",
      "type": "function"
    },
    {
      "inputs": [],
      "name": "timeBuffer",
      "outputs": [
        {
          "internalType": "uint256",
          "name": "",
          "type": "uint256"
        }
      ],
      "stateMutability": "view",
      "type": "function"
    },
    {
      "inputs": [
        {
          "internalType": "address",
          "name": "_account",
          "type": "address"
        }
      ],
      "name": "totalDue",
      "outputs": [
        {
          "internalType": "uint256",
          "name": "_due",
          "type": "uint256"
        }
      ],
      "stateMutability": "view",
      "type": "function"
    },
    {
      "inputs": [],
      "name": "unpause",
      "outputs": [],
      "stateMutability": "nonpayable",
      "type": "function"
    },
    {
      "inputs": [
        {
          "internalType": "address",
          "name": "newImplementation",
          "type": "address"
        }
      ],
      "name": "upgradeTo",
      "outputs": [],
      "stateMutability": "nonpayable",
      "type": "function"
    },
    {
      "inputs": [
        {
          "internalType": "address",
          "name": "newImplementation",
          "type": "address"
        },
        {
          "internalType": "bytes",
          "name": "data",
          "type": "bytes"
        }
      ],
      "name": "upgradeToAndCall",
      "outputs": [],
      "stateMutability": "payable",
      "type": "function"
    },
    {
      "inputs": [],
      "name": "weth",
      "outputs": [
        {
          "internalType": "address",
          "name": "",
          "type": "address"
        }
      ],
      "stateMutability": "view",
      "type": "function"
    },
    {
      "stateMutability": "payable",
      "type": "receive"
    }
  ],
  "numDeployments": 1,
  "solcInputHash": "e471eeaea25ffae79d2822e7e98866a5",
  "bytecode": "0x60a0604052306080523480156200001557600080fd5b506200002062000026565b620000e7565b600054610100900460ff1615620000935760405162461bcd60e51b815260206004820152602760248201527f496e697469616c697a61626c653a20636f6e747261637420697320696e697469604482015266616c697a696e6760c81b606482015260840160405180910390fd5b60005460ff90811614620000e5576000805460ff191660ff9081179091556040519081527f7f26b83ff96e1f2b6a682f133852f6798a09c465da95921460cefb38474024989060200160405180910390a15b565b608051613a8f6200011f60003960008181610f9f01528181611024015281816113fc01528181611481015261156b0152613a8f6000f3fe6080604052600436106102e75760003560e01c8063659dd2b411610182578063b148440f116100d5578063d178687a11610084578063f071bf4f11610061578063f071bf4f14610960578063f6be71d114610977578063ffa1ad741461099757005b8063d178687a14610904578063db2e1eed14610932578063ec91f2a41461094957005b8063b68bb0ba116100b2578063b68bb0ba146108a4578063c2062005146108c4578063ce9c7c0d146108e457005b8063b148440f14610829578063b296024d14610857578063b53fb5081461088457005b80638299f9f911610131578063a340cf791161010e578063a340cf7914610790578063a3f4df7e146107be578063a8586f7b1461081457005b80638299f9f9146107285780638456cb59146107485780639e7123871461075d57005b806369f378871161015f57806369f37887146106bb5780637120334b146106db57806378bd7935146106fb57005b8063659dd2b414610672578063666077c91461068557806369a6e9c6146106a557005b80633799cd571161023a5780634f1ef286116101e9578063571a26a0116101c6578063571a26a01461057b5780635c975abb1461064557806363338b171461065d57005b80634f1ef2861461053e57806352d1902d1461055157806356d42bb31461056657005b80633f4ba83a116102175780633f4ba83a146104d05780633fc8cef3146104e557806346ca0f4d1461051e57005b80633799cd57146104605780633b6e0ef5146104905780633c0868f0146104b057005b8063279a0147116102965780632e993611116102735780632e993611146104005780633659cfe61461042057806336ebdb381461044057005b8063279a01471461039957806328b9e726146103b95780632a1e1ee1146103e957005b80630fb5a6b4116102c45780630fb5a6b41461035857806312065fe01461036f5780631f7418971461038257005b806301810a96146102f05780630acc9e09146103055780630ad2f0c31461032557005b366102ee57005b005b3480156102fc57600080fd5b506102ee6109e0565b34801561031157600080fd5b506102ee61032036600461351b565b610a4a565b34801561033157600080fd5b506103456103403660046135b1565b610c16565b6040519081526020015b60405180910390f35b34801561036457600080fd5b506103456101065481565b34801561037b57600080fd5b5047610345565b34801561038e57600080fd5b506103456101095481565b3480156103a557600080fd5b506102ee6103b43660046135ce565b610c4c565b3480156103c557600080fd5b506103d96103d43660046135ce565b610f3e565b604051901515815260200161034f565b3480156103f557600080fd5b506103456101085481565b34801561040c57600080fd5b506102ee61041b3660046135ce565b610f71565b34801561042c57600080fd5b506102ee61043b3660046135b1565b610f94565b34801561044c57600080fd5b506102ee61045b3660046135e7565b61110d565b34801561046c57600080fd5b506103d961047b3660046135ce565b60009081526101016020526040902054151590565b34801561049c57600080fd5b506102ee6104ab3660046135ce565b61121d565b3480156104bc57600080fd5b506103d96104cb3660046135ce565b611318565b3480156104dc57600080fd5b506102ee611323565b3480156104f157600080fd5b5061010254610506906001600160a01b031681565b6040516001600160a01b03909116815260200161034f565b34801561052a57600080fd5b5060fb54610506906001600160a01b031681565b6102ee61054c36600461369a565b6113f1565b34801561055d57600080fd5b5061034561155e565b34801561057257600080fd5b50610345611623565b34801561058757600080fd5b506105f36105963660046135ce565b61010060205260009081526040902080546001820154600283015460038401546004850154600586015460068701546007909701549596949593949293919290916001600160a01b0391821691811690600160a01b900460ff1689565b60408051998a5260208a0198909852968801959095526060870193909352608086019190915260a08501526001600160a01b0390811660c08501521660e083015215156101008201526101200161034f565b34801561065157600080fd5b5060335460ff166103d9565b34801561066957600080fd5b50610345611633565b6102ee6106803660046135ce565b61163e565b34801561069157600080fd5b506102ee6106a03660046135ce565b611959565b3480156106b157600080fd5b5061034560fd5481565b3480156106c757600080fd5b506103456106d636600461372d565b61197a565b3480156106e757600080fd5b506102ee6106f63660046135ce565b6119ac565b34801561070757600080fd5b5061071b6107163660046135ce565b611aa8565b60405161034f919061374f565b34801561073457600080fd5b5060fc54610506906001600160a01b031681565b34801561075457600080fd5b506102ee611b14565b34801561076957600080fd5b506103d96107783660046135ce565b60009081526101006020526040902060040154421190565b34801561079c57600080fd5b506103456107ab3660046135b1565b61010b6020526000908152604090205481565b3480156107ca57600080fd5b506108076040518060400160405280601181526020017f4554532041756374696f6e20486f75736500000000000000000000000000000081525081565b60405161034f91906137f9565b34801561082057600080fd5b50610345606481565b34801561083557600080fd5b506103456108443660046135b1565b61010a6020526000908152604090205481565b34801561086357600080fd5b50610105546108729060ff1681565b60405160ff909116815260200161034f565b34801561089057600080fd5b5061071b61089f3660046135ce565b611be2565b3480156108b057600080fd5b506102ee6108bf36600461372d565b611dbf565b3480156108d057600080fd5b506102ee6108df3660046135b1565b611f55565b3480156108f057600080fd5b506102ee6108ff3660046135ce565b61206a565b34801561091057600080fd5b5061034561091f3660046135ce565b6000908152610101602052604090205490565b34801561093e57600080fd5b506103456101045481565b34801561095557600080fd5b506103456101035481565b34801561096c57600080fd5b506103456101075481565b34801561098357600080fd5b506102ee6109923660046135ce565b612166565b3480156109a357600080fd5b506108076040518060400160405280600581526020017f302e302e3100000000000000000000000000000000000000000000000000000081525081565b6109e8612262565b60fd5460fe5410610a405760405162461bcd60e51b815260206004820152601560248201527f4e6f206f70656e2061756374696f6e20736c6f7473000000000000000000000060448201526064015b60405180910390fd5b610a486122b5565b565b600054610100900460ff1615808015610a6a5750600054600160ff909116105b80610a845750303b158015610a84575060005460ff166001145b610af65760405162461bcd60e51b815260206004820152602e60248201527f496e697469616c697a61626c653a20636f6e747261637420697320616c72656160448201527f647920696e697469616c697a65640000000000000000000000000000000000006064820152608401610a37565b6000805460ff191660011790558015610b19576000805461ff0019166101001790555b610b216122e0565b610b29612353565b610b316123c6565b60fb80546001600160a01b03808e1673ffffffffffffffffffffffffffffffffffffffff199283161790925560fc80548d84169083161790556101028054928c1692909116919091179055610b8760fe60009055565b600060ff55610b958861121d565b610b9e8561110d565b610ba784612166565b610bb08661206a565b610bb9876119ac565b610bc38284611dbf565b8015610c09576000805461ff0019169055604051600181527f7f26b83ff96e1f2b6a682f133852f6798a09c465da95921460cefb38474024989060200160405180910390a15b5050505050505050505050565b6001600160a01b038116600090815261010b602090815260408083205461010a909252822054610c469190613842565b92915050565b60fc546001600160a01b03166358594dc4336040516001600160e01b031960e084901b1681526001600160a01b039091166004820152602401602060405180830381865afa158015610ca2573d6000803e3d6000fd5b505050506040513d601f19601f82011682018060405250810190610cc69190613869565b610d125760405162461bcd60e51b815260206004820152601960248201527f43616c6c6572206e6f742061756374696f6e206f7261636c65000000000000006044820152606401610a37565b60fc60009054906101000a90046001600160a01b03166001600160a01b0316633c0c45666040518163ffffffff1660e01b8152600401602060405180830381865afa158015610d65573d6000803e3d6000fd5b505050506040513d601f19601f82011682018060405250810190610d899190613884565b60fb546040517f6352211e000000000000000000000000000000000000000000000000000000008152600481018490526001600160a01b039283169290911690636352211e90602401602060405180830381865afa158015610def573d6000803e3d6000fd5b505050506040513d601f19601f82011682018060405250810190610e139190613884565b6001600160a01b031614610e695760405162461bcd60e51b815260206004820152601560248201527f43544147206e6f74206f776e65642062792045545300000000000000000000006044820152606401610a37565b60fd5460fe5410610ebc5760405162461bcd60e51b815260206004820152601560248201527f4e6f206f70656e2061756374696f6e20736c6f747300000000000000000000006044820152606401610a37565b6000818152610101602052604090205415610f32576000610edc82611be2565b9050806101000151610f305760405162461bcd60e51b815260206004820152600e60248201527f41756374696f6e206578697374730000000000000000000000000000000000006044820152606401610a37565b505b610f3b81612420565b50565b6000610f4982612639565b8015610c4657505060009081526101006020526040902060070154600160a01b900460ff1690565b610f79612667565b610f816126b9565b610f8a81612713565b610f3b6001606555565b306001600160a01b037f00000000000000000000000000000000000000000000000000000000000000001614156110225760405162461bcd60e51b815260206004820152602c60248201527f46756e6374696f6e206d7573742062652063616c6c6564207468726f7567682060448201526b19195b1959d85d1958d85b1b60a21b6064820152608401610a37565b7f00000000000000000000000000000000000000000000000000000000000000006001600160a01b031661107d7f360894a13ba1a3210667c828492db98dca3e2076cc3735a920a3ca505d382bbc546001600160a01b031690565b6001600160a01b0316146110e85760405162461bcd60e51b815260206004820152602c60248201527f46756e6374696f6e206d7573742062652063616c6c6564207468726f7567682060448201526b6163746976652070726f787960a01b6064820152608401610a37565b6110f1816129ff565b60408051600080825260208201909252610f3b91839190612ac5565b60fc546001600160a01b03166324d7806c336040516001600160e01b031960e084901b1681526001600160a01b039091166004820152602401602060405180830381865afa158015611163573d6000803e3d6000fd5b505050506040513d601f19601f820116820180604052508101906111879190613869565b6111d35760405162461bcd60e51b815260206004820152601c60248201527f43616c6c6572206d7573742062652061646d696e6973747261746f72000000006044820152606401610a37565b610105805460ff191660ff83169081179091556040519081527ff4c67399e687b01a76a7d787b61d2f66f108fe083db1432dfd5efb35e20978c2906020015b60405180910390a150565b60fc546001600160a01b03166324d7806c336040516001600160e01b031960e084901b1681526001600160a01b039091166004820152602401602060405180830381865afa158015611273573d6000803e3d6000fd5b505050506040513d601f19601f820116820180604052508101906112979190613869565b6112e35760405162461bcd60e51b815260206004820152601c60248201527f43616c6c6572206d7573742062652061646d696e6973747261746f72000000006044820152606401610a37565b60fd8190556040518181527f16e2e3ae9f2743d8576c746a1919a5317347ed51021f4cddaf26b4f8806f419490602001611212565b6000610c4682612639565b60fc546001600160a01b03166324d7806c336040516001600160e01b031960e084901b1681526001600160a01b039091166004820152602401602060405180830381865afa158015611379573d6000803e3d6000fd5b505050506040513d601f19601f8201168201806040525081019061139d9190613869565b6113e95760405162461bcd60e51b815260206004820152601c60248201527f43616c6c6572206d7573742062652061646d696e6973747261746f72000000006044820152606401610a37565b610a48612c6a565b306001600160a01b037f000000000000000000000000000000000000000000000000000000000000000016141561147f5760405162461bcd60e51b815260206004820152602c60248201527f46756e6374696f6e206d7573742062652063616c6c6564207468726f7567682060448201526b19195b1959d85d1958d85b1b60a21b6064820152608401610a37565b7f00000000000000000000000000000000000000000000000000000000000000006001600160a01b03166114da7f360894a13ba1a3210667c828492db98dca3e2076cc3735a920a3ca505d382bbc546001600160a01b031690565b6001600160a01b0316146115455760405162461bcd60e51b815260206004820152602c60248201527f46756e6374696f6e206d7573742062652063616c6c6564207468726f7567682060448201526b6163746976652070726f787960a01b6064820152608401610a37565b61154e826129ff565b61155a82826001612ac5565b5050565b6000306001600160a01b037f000000000000000000000000000000000000000000000000000000000000000016146115fe5760405162461bcd60e51b815260206004820152603860248201527f555550535570677261646561626c653a206d757374206e6f742062652063616c60448201527f6c6564207468726f7567682064656c656761746563616c6c00000000000000006064820152608401610a37565b507f360894a13ba1a3210667c828492db98dca3e2076cc3735a920a3ca505d382bbc90565b600061162e60ff5490565b905090565b600061162e60fe5490565b6116466126b9565b61164e612262565b61165781612639565b6116a35760405162461bcd60e51b815260206004820152601160248201527f41756374696f6e206e6f7420666f756e640000000000000000000000000000006044820152606401610a37565b60006116ae82612ca3565b60608101519091501561170e578060800151421061170e5760405162461bcd60e51b815260206004820152600d60248201527f41756374696f6e20656e646564000000000000000000000000000000000000006044820152606401610a37565b610104543410156117615760405162461bcd60e51b815260206004820152601f60248201527f4d7573742073656e64206174206c6561737420726573657276655072696365006044820152606401610a37565b61010554604082015160649161177c9160ff909116906138a1565b61178691906138c0565b816040015161179591906138e2565b3410156117e45760405162461bcd60e51b815260206004820152600b60248201527f42696420746f6f206c6f770000000000000000000000000000000000000000006044820152606401610a37565b60c08101516001600160a01b0381161561180657611806818360400151612d94565b60608201516118445761010654429060009061182290836138e2565b6000868152610100602052604090206003810193909355600490920191909155505b600083815261010060205260408120346002820155600601805473ffffffffffffffffffffffffffffffffffffffff19163317905560608301511561190957610103544284608001516118979190613842565b109050801561190957610103546118ae90426138e2565b6080840181815260008681526101006020526040908190206004019290925551905185917f6e912a3a9105bdd2af817ba5adc14e6c127c1035b5b648faa29ca0d58ab8ff4e9161190091815260200190565b60405180910390a25b6040805133815234602082015282151581830152905185917f1159164c56f277e6fc99c11731bd380e0347deb969b75523398734c252706ea3919081900360600190a2505050610f3b6001606555565b6119616126b9565b611969612262565b61197281612713565b610f8a6122b5565b610101602052816000526040600020818154811061199757600080fd5b90600052602060002001600091509150505481565b60fc546001600160a01b03166324d7806c336040516001600160e01b031960e084901b1681526001600160a01b039091166004820152602401602060405180830381865afa158015611a02573d6000803e3d6000fd5b505050506040513d601f19601f82011682018060405250810190611a269190613869565b611a725760405162461bcd60e51b815260206004820152601c60248201527f43616c6c6572206d7573742062652061646d696e6973747261746f72000000006044820152606401610a37565b6101038190556040518181527fd1ee265a58d7706a34825d0e7cede55bca991958637227dccd686911ae9c937090602001611212565b611b0b60405180610120016040528060008152602001600081526020016000815260200160008152602001600081526020016000815260200160006001600160a01b0316815260200160006001600160a01b031681526020016000151581525090565b610c4682612ca3565b60fc546001600160a01b03166324d7806c336040516001600160e01b031960e084901b1681526001600160a01b039091166004820152602401602060405180830381865afa158015611b6a573d6000803e3d6000fd5b505050506040513d601f19601f82011682018060405250810190611b8e9190613869565b611bda5760405162461bcd60e51b815260206004820152601c60248201527f43616c6c6572206d7573742062652061646d696e6973747261746f72000000006044820152606401610a37565b610a486123c6565b611c4560405180610120016040528060008152602001600081526020016000815260200160008152602001600081526020016000815260200160006001600160a01b0316815260200160006001600160a01b031681526020016000151581525090565b60008281526101016020526040902054611ca15760405162461bcd60e51b815260206004820152601760248201527f4e6f2061756374696f6e7320666f7220746f6b656e49640000000000000000006044820152606401610a37565b60008281526101016020908152604080832080548251818502810185019093528083529192909190830182828015611cf857602002820191906000526020600020905b815481526020019060010190808311611ce4575b5050505050905061010060008260018451611d139190613842565b81518110611d2357611d236138fa565b6020908102919091018101518252818101929092526040908101600020815161012081018352815481526001820154938101939093526002810154918301919091526003810154606083015260048101546080830152600581015460a083015260068101546001600160a01b0390811660c084015260079091015490811660e0830152600160a01b900460ff1615156101008201529392505050565b60fc546001600160a01b03166324d7806c336040516001600160e01b031960e084901b1681526001600160a01b039091166004820152602401602060405180830381865afa158015611e15573d6000803e3d6000fd5b505050506040513d601f19601f82011682018060405250810190611e399190613869565b611e855760405162461bcd60e51b815260206004820152601c60248201527f43616c6c6572206d7573742062652061646d696e6973747261746f72000000006044820152606401610a37565b6064611e9182846138e2565b1115611edf5760405162461bcd60e51b815260206004820152601a60248201527f496e707574206d757374206e6f742065786365656420313030250000000000006044820152606401610a37565b61010982905561010881905580611ef7836064613842565b611f019190613842565b61010781905561010954610108546040805192835260208301919091528101919091527f6a59952a55f12772795fe6964c1b65f340b256f807578f311d3ce83f32f947679060600160405180910390a15050565b611f5d6126b9565b6000611f6882610c16565b9050600081118015611f7a5750478111155b1561205f576001600160a01b038216600090815261010b6020526040902054611fa49082906138e2565b6001600160a01b038316600090815261010b6020526040812091909155611fcb8383612e9e565b90508061201a5760405162461bcd60e51b815260206004820152600f60248201527f5472616e73666572206661696c656400000000000000000000000000000000006044820152606401610a37565b826001600160a01b03167f381b2269cade3eca66cdcb2ee190cab5c8562fa9cd63b9c8c29b76342abbde7e8360405161205591815260200190565b60405180910390a2505b50610f3b6001606555565b60fc546001600160a01b03166324d7806c336040516001600160e01b031960e084901b1681526001600160a01b039091166004820152602401602060405180830381865afa1580156120c0573d6000803e3d6000fd5b505050506040513d601f19601f820116820180604052508101906120e49190613869565b6121305760405162461bcd60e51b815260206004820152601c60248201527f43616c6c6572206d7573742062652061646d696e6973747261746f72000000006044820152606401610a37565b6101048190556040518181527f69e745465f7c298745d3703bcf0e583594428993c1c3920fea5d181c23e367ac90602001611212565b60fc546001600160a01b03166324d7806c336040516001600160e01b031960e084901b1681526001600160a01b039091166004820152602401602060405180830381865afa1580156121bc573d6000803e3d6000fd5b505050506040513d601f19601f820116820180604052508101906121e09190613869565b61222c5760405162461bcd60e51b815260206004820152601c60248201527f43616c6c6572206d7573742062652061646d696e6973747261746f72000000006044820152606401610a37565b6101068190556040518181527fcfbeaaafe85252eefcff52729a69be4e0a0fddc09618d6d15865b5c4c01794f990602001611212565b60335460ff1615610a485760405162461bcd60e51b815260206004820152601060248201527f5061757361626c653a20706175736564000000000000000000000000000000006044820152606401610a37565b6040517f96852275d2408028e5465d831c70b45436794e221b81ff364822d4b56a56845790600090a1565b600054610100900460ff1661234b5760405162461bcd60e51b815260206004820152602b60248201527f496e697469616c697a61626c653a20636f6e7472616374206973206e6f74206960448201526a6e697469616c697a696e6760a81b6064820152608401610a37565b610a48612f1c565b600054610100900460ff166123be5760405162461bcd60e51b815260206004820152602b60248201527f496e697469616c697a61626c653a20636f6e7472616374206973206e6f74206960448201526a6e697469616c697a696e6760a81b6064820152608401610a37565b610a48612f93565b6123ce612262565b6033805460ff191660011790557f62e78cea01bee320cd4e420270b5ea74000d11b0c9f74754ebdbfc544b05a2586124033390565b6040516001600160a01b03909116815260200160405180910390a1565b61242e60ff80546001019055565b61243c60fe80546001019055565b600061244760ff5490565b905060405180610120016040528082815260200183815260200160008152602001600081526020016000815260200161010454815260200160006001600160a01b0316815260200160fc60009054906101000a90046001600160a01b03166001600160a01b0316633c0c45666040518163ffffffff1660e01b8152600401602060405180830381865afa1580156124e2573d6000803e3d6000fd5b505050506040513d601f19601f820116820180604052508101906125069190613884565b6001600160a01b0390811682526000602092830181905284815261010080845260408083208651815586860151600182810191909155878301516002830155606088015160038301556080880151600483015560a0880151600583015560c088015160068301805491881673ffffffffffffffffffffffffffffffffffffffff1990921691909117905560e08801516007909201805498909401511515600160a01b027fffffffffffffffffffffff000000000000000000000000000000000000000000909816919095161795909517905585815261010183528381208054928301815580825292902001839055805491519091849184917fd6eddd1118d71820909c1197aa966dbc15ed6f508554252169cc3d5ccac756ca9161262c91815260200190565b60405180910390a3505050565b6000818152610100602052604081205415801590610c46575050600081815261010060205260409020541490565b60335460ff16610a485760405162461bcd60e51b815260206004820152601460248201527f5061757361626c653a206e6f74207061757365640000000000000000000000006044820152606401610a37565b6002606554141561270c5760405162461bcd60e51b815260206004820152601f60248201527f5265656e7472616e637947756172643a207265656e7472616e742063616c6c006044820152606401610a37565b6002606555565b61271c81612639565b6127685760405162461bcd60e51b815260206004820152601160248201527f41756374696f6e206e6f7420666f756e640000000000000000000000000000006044820152606401610a37565b600061277382611aa8565b9050806101000151156127c85760405162461bcd60e51b815260206004820152601760248201527f41756374696f6e20616c726561647920736574746c65640000000000000000006044820152606401610a37565b60608101516128195760405162461bcd60e51b815260206004820152601560248201527f41756374696f6e20686173206e6f7420626567756e00000000000000000000006044820152606401610a37565b806080015142101561286d5760405162461bcd60e51b815260206004820152601560248201527f41756374696f6e20686173206e6f7420656e64656400000000000000000000006044820152606401610a37565b60008281526101006020526040902060070180547fffffffffffffffffffffff00ffffffffffffffffffffffffffffffffffffffff16600160a01b1790556128b560fe612ffe565b60fb5460fc54604080517f3c0c456600000000000000000000000000000000000000000000000000000000815290516001600160a01b03938416936323b872dd931691633c0c45669160048083019260209291908290030181865afa158015612922573d6000803e3d6000fd5b505050506040513d601f19601f820116820180604052508101906129469190613884565b60c084015160208501516040516001600160e01b031960e086901b1681526001600160a01b0393841660048201529290911660248301526044820152606401600060405180830381600087803b15801561299f57600080fd5b505af11580156129b3573d6000803e3d6000fd5b505050506129c981602001518260400151613055565b60405182907f2f95e6505f529dd225ce705685fe55440c01f2824ac3fb4303f6eef4bd453ff490600090a25050565b6001606555565b60fc546001600160a01b03166324d7806c336040516001600160e01b031960e084901b1681526001600160a01b039091166004820152602401602060405180830381865afa158015612a55573d6000803e3d6000fd5b505050506040513d601f19601f82011682018060405250810190612a799190613869565b610f3b5760405162461bcd60e51b815260206004820152601c60248201527f43616c6c6572206d7573742062652061646d696e6973747261746f72000000006044820152606401610a37565b7f4910fdfa16fed3260ed0e7147f7cc6da11a60208b5b9406d12a635614ffd91435460ff1615612afd57612af88361326e565b505050565b826001600160a01b03166352d1902d6040518163ffffffff1660e01b8152600401602060405180830381865afa925050508015612b57575060408051601f3d908101601f19168201909252612b5491810190613910565b60015b612bc95760405162461bcd60e51b815260206004820152602e60248201527f45524331393637557067726164653a206e657720696d706c656d656e7461746960448201527f6f6e206973206e6f7420555550530000000000000000000000000000000000006064820152608401610a37565b7f360894a13ba1a3210667c828492db98dca3e2076cc3735a920a3ca505d382bbc8114612c5e5760405162461bcd60e51b815260206004820152602960248201527f45524331393637557067726164653a20756e737570706f727465642070726f7860448201527f6961626c655555494400000000000000000000000000000000000000000000006064820152608401610a37565b50612af8838383613339565b612c72612667565b6033805460ff191690557f5db9ee0a495bf2e6ff9c91a7834c1ba4fdd244a5e8aa4e537bd38aeae4b073aa33612403565b612d0660405180610120016040528060008152602001600081526020016000815260200160008152602001600081526020016000815260200160006001600160a01b0316815260200160006001600160a01b031681526020016000151581525090565b5060009081526101006020818152604092839020835161012081018552815481526001820154928101929092526002810154938201939093526003830154606082015260048301546080820152600583015460a082015260068301546001600160a01b0390811660c083015260079093015492831660e0820152600160a01b90920460ff1615159082015290565b612d9e8282612e9e565b61155a5761010260009054906101000a90046001600160a01b03166001600160a01b031663d0e30db0826040518263ffffffff1660e01b81526004016000604051808303818588803b158015612df357600080fd5b505af1158015612e07573d6000803e3d6000fd5b5050610102546040517fa9059cbb0000000000000000000000000000000000000000000000000000000081526001600160a01b03878116600483015260248201879052909116935063a9059cbb925060440190506020604051808303816000875af1158015612e7a573d6000803e3d6000fd5b505050506040513d601f19601f82011682018060405250810190612af89190613869565b6040805160008082526020820190925281906001600160a01b03851690617530908590604051612ece9190613929565b600060405180830381858888f193505050503d8060008114612f0c576040519150601f19603f3d011682016040523d82523d6000602084013e612f11565b606091505b509095945050505050565b600054610100900460ff16612f875760405162461bcd60e51b815260206004820152602b60248201527f496e697469616c697a61626c653a20636f6e7472616374206973206e6f74206960448201526a6e697469616c697a696e6760a81b6064820152608401610a37565b6033805460ff19169055565b600054610100900460ff166129f85760405162461bcd60e51b815260206004820152602b60248201527f496e697469616c697a61626c653a20636f6e7472616374206973206e6f74206960448201526a6e697469616c697a696e6760a81b6064820152608401610a37565b80548061304d5760405162461bcd60e51b815260206004820152601b60248201527f436f756e7465723a2064656372656d656e74206f766572666c6f7700000000006044820152606401610a37565b600019019055565b60fb546040517f4b3d267f000000000000000000000000000000000000000000000000000000008152600481018490526000916001600160a01b031690634b3d267f90602401600060405180830381865afa1580156130b8573d6000803e3d6000fd5b505050506040513d6000823e601f3d908101601f191682016040526130e09190810190613945565b9050600060fc60009054906101000a90046001600160a01b03166001600160a01b0316633c0c45666040518163ffffffff1660e01b8152600401602060405180830381865afa158015613137573d6000803e3d6000fd5b505050506040513d601f19601f8201168201806040525081019061315b9190613884565b905060006064610108548561317091906138a1565b61317a91906138c0565b905060006064610107548661318f91906138a1565b61319991906138c0565b905060006131a782846138e2565b6131b19087613842565b85516001600160a01b0316600090815261010a60205260409020549091506131da9084906138e2565b85516001600160a01b03908116600090815261010a6020908152604080832094909455880151909116815220546132129083906138e2565b6020808701516001600160a01b03908116600090815261010a9092526040808320939093558616815220546132489082906138e2565b6001600160a01b03909416600090815261010a6020526040902093909355505050505050565b6001600160a01b0381163b6132eb5760405162461bcd60e51b815260206004820152602d60248201527f455243313936373a206e657720696d706c656d656e746174696f6e206973206e60448201527f6f74206120636f6e7472616374000000000000000000000000000000000000006064820152608401610a37565b7f360894a13ba1a3210667c828492db98dca3e2076cc3735a920a3ca505d382bbc805473ffffffffffffffffffffffffffffffffffffffff19166001600160a01b0392909216919091179055565b61334283613364565b60008251118061334f5750805b15612af85761335e83836133a4565b50505050565b61336d8161326e565b6040516001600160a01b038216907fbc7cd75a20ee27fd9adebab32041f755214dbc6bffa90cc0225b39da2e5c2d3b90600090a250565b60606133c98383604051806060016040528060278152602001613a33602791396133d0565b9392505050565b6060600080856001600160a01b0316856040516133ed9190613929565b600060405180830381855af49150503d8060008114613428576040519150601f19603f3d011682016040523d82523d6000602084013e61342d565b606091505b509150915061343e86838387613448565b9695505050505050565b606083156134b45782516134ad576001600160a01b0385163b6134ad5760405162461bcd60e51b815260206004820152601d60248201527f416464726573733a2063616c6c20746f206e6f6e2d636f6e74726163740000006044820152606401610a37565b50816134be565b6134be83836134c6565b949350505050565b8151156134d65781518083602001fd5b8060405162461bcd60e51b8152600401610a3791906137f9565b6001600160a01b0381168114610f3b57600080fd5b803560ff8116811461351657600080fd5b919050565b6000806000806000806000806000806101408b8d03121561353b57600080fd5b8a35613546816134f0565b995060208b0135613556816134f0565b985060408b0135613566816134f0565b975060608b0135965060808b0135955060a08b0135945061358960c08c01613505565b935060e08b013592506101008b013591506101208b013590509295989b9194979a5092959850565b6000602082840312156135c357600080fd5b81356133c9816134f0565b6000602082840312156135e057600080fd5b5035919050565b6000602082840312156135f957600080fd5b6133c982613505565b634e487b7160e01b600052604160045260246000fd5b60405160a0810167ffffffffffffffff8111828210171561363b5761363b613602565b60405290565b604051601f8201601f1916810167ffffffffffffffff8111828210171561366a5761366a613602565b604052919050565b600067ffffffffffffffff82111561368c5761368c613602565b50601f01601f191660200190565b600080604083850312156136ad57600080fd5b82356136b8816134f0565b9150602083013567ffffffffffffffff8111156136d457600080fd5b8301601f810185136136e557600080fd5b80356136f86136f382613672565b613641565b81815286602083850101111561370d57600080fd5b816020840160208301376000602083830101528093505050509250929050565b6000806040838503121561374057600080fd5b50508035926020909101359150565b600061012082019050825182526020830151602083015260408301516040830152606083015160608301526080830151608083015260a083015160a083015260c08301516001600160a01b0380821660c08501528060e08601511660e08501525050610100808401516137c58285018215159052565b505092915050565b60005b838110156137e85781810151838201526020016137d0565b8381111561335e5750506000910152565b60208152600082518060208401526138188160408501602087016137cd565b601f01601f19169190910160400192915050565b634e487b7160e01b600052601160045260246000fd5b6000828210156138545761385461382c565b500390565b8051801515811461351657600080fd5b60006020828403121561387b57600080fd5b6133c982613859565b60006020828403121561389657600080fd5b81516133c9816134f0565b60008160001904831182151516156138bb576138bb61382c565b500290565b6000826138dd57634e487b7160e01b600052601260045260246000fd5b500490565b600082198211156138f5576138f561382c565b500190565b634e487b7160e01b600052603260045260246000fd5b60006020828403121561392257600080fd5b5051919050565b6000825161393b8184602087016137cd565b9190910192915050565b6000602080838503121561395857600080fd5b825167ffffffffffffffff8082111561397057600080fd5b9084019060a0828703121561398457600080fd5b61398c613618565b8251613997816134f0565b8152828401516139a6816134f0565b818501526040830151828111156139bc57600080fd5b83019150601f820187136139cf57600080fd5b81516139dd6136f382613672565b81815288868386010111156139f157600080fd5b613a00828783018887016137cd565b604083015250613a1260608401613859565b6060820152613a2360808401613859565b6080820152969550505050505056fe416464726573733a206c6f772d6c6576656c2064656c65676174652063616c6c206661696c6564a2646970667358221220e9fc3424377a9c02967c2e1f3fb988232e035618e798d8c0f0095212c715c5ac64736f6c634300080c0033",
  "devdoc": {
    "author": "Ethereum Tag Service <team@ets.xyz>",
    "kind": "dev",
    "methods": {
      "constructor": {
        "custom:oz-upgrades-unsafe-allow": "constructor"
      },
      "drawDown(address)": {
        "params": {
          "_account": "Address of account being drawn down and which will receive the funds."
        }
      },
      "paused()": {
        "details": "Returns true if the contract is paused, and false otherwise."
      },
      "proxiableUUID()": {
        "details": "Implementation of the ERC1822 {proxiableUUID} function. This returns the storage slot used by the implementation. It is used to validate the implementation's compatibility when performing an upgrade. IMPORTANT: A proxy pointing at a proxiable contract should not be considered proxiable itself, because this risks bricking a proxy that upgrades to it, by delegating to itself until out of gas. Thus it is critical that this function revert if invoked through a proxy. This is guaranteed by the `notDelegated` modifier."
      },
      "settleAuction(uint256)": {
        "details": "This function can only be called when the contract is paused."
      },
      "upgradeTo(address)": {
        "custom:oz-upgrades-unsafe-allow-reachable": "delegatecall",
        "details": "Upgrade the implementation of the proxy to `newImplementation`. Calls {_authorizeUpgrade}. Emits an {Upgraded} event."
      },
      "upgradeToAndCall(address,bytes)": {
        "custom:oz-upgrades-unsafe-allow-reachable": "delegatecall",
        "details": "Upgrade the implementation of the proxy to `newImplementation`, and subsequently execute the function call encoded in `data`. Calls {_authorizeUpgrade}. Emits an {Upgraded} event."
      }
    },
    "stateVariables": {
      "accrued": {
        "details": "Map for holding amount accrued to participant address wallets."
      },
      "auctions": {
        "details": "Mapping of auction ID to auction."
      },
      "auctionsByTokenId": {
        "details": "Mapping of tokenId to array of auction ids."
      },
      "creatorPercentage": {
        "details": "Percentage of auction proceeds allocated to CTAG Creator"
      },
      "duration": {
        "details": "The duration of a single auction"
      },
      "minBidIncrementPercentage": {
        "details": "The minimum percentage difference between the last bid amount and the current bid"
      },
      "paid": {
        "details": "Map for holding lifetime amount drawn down from accrued by participants."
      },
      "platformPercentage": {
        "details": "Percentage of auction proceeds allocated to ETS."
      },
      "relayerPercentage": {
        "details": "Percentage of auction proceeds allocated to CTAG Relayer."
      },
      "reservePrice": {
        "details": "The minimum price accepted in an auction"
      },
      "timeBuffer": {
        "details": "The minimum amount of time left in an auction after a new bid is created"
      },
      "weth": {
        "details": "The address of the WETH contract"
      }
    },
    "title": "ETSAuctionHouse",
    "version": 1
  },
  "userdoc": {
    "kind": "user",
    "methods": {
      "NAME()": {
        "notice": "Public constants"
      },
      "drawDown(address)": {
        "notice": "Function for withdrawing funds from an accrual account. Can be called by the account owner or on behalf of the account. Does nothing when there is nothing due to the account."
      },
      "maxAuctions()": {
        "notice": "Public variables"
      },
      "settleAuction(uint256)": {
        "notice": "Settle the auction."
      },
      "settleCurrentAndCreateNewAuction(uint256)": {
        "notice": "Settle auction, and release next auction."
      }
    },
    "notice": "ETSAuctionHouse contract governs the sale of Ethereum Tag Service composable tags (CTAGs).",
    "version": 1
  },
  "storageLayout": {
    "storage": [
      {
        "astId": 915,
        "contract": "contracts/ETSAuctionHouse.sol:ETSAuctionHouse",
        "label": "_initialized",
        "offset": 0,
        "slot": "0",
        "type": "t_uint8"
      },
      {
        "astId": 918,
        "contract": "contracts/ETSAuctionHouse.sol:ETSAuctionHouse",
        "label": "_initializing",
        "offset": 1,
        "slot": "0",
        "type": "t_bool"
      },
      {
        "astId": 3526,
        "contract": "contracts/ETSAuctionHouse.sol:ETSAuctionHouse",
        "label": "__gap",
        "offset": 0,
        "slot": "1",
        "type": "t_array(t_uint256)50_storage"
      },
      {
        "astId": 1236,
        "contract": "contracts/ETSAuctionHouse.sol:ETSAuctionHouse",
        "label": "_paused",
        "offset": 0,
        "slot": "51",
        "type": "t_bool"
      },
      {
        "astId": 1341,
        "contract": "contracts/ETSAuctionHouse.sol:ETSAuctionHouse",
        "label": "__gap",
        "offset": 0,
        "slot": "52",
        "type": "t_array(t_uint256)49_storage"
      },
      {
        "astId": 1357,
        "contract": "contracts/ETSAuctionHouse.sol:ETSAuctionHouse",
        "label": "_status",
        "offset": 0,
        "slot": "101",
        "type": "t_uint256"
      },
      {
        "astId": 1426,
        "contract": "contracts/ETSAuctionHouse.sol:ETSAuctionHouse",
        "label": "__gap",
        "offset": 0,
        "slot": "102",
        "type": "t_array(t_uint256)49_storage"
      },
      {
        "astId": 897,
        "contract": "contracts/ETSAuctionHouse.sol:ETSAuctionHouse",
        "label": "__gap",
        "offset": 0,
        "slot": "151",
        "type": "t_array(t_uint256)50_storage"
      },
      {
        "astId": 1213,
        "contract": "contracts/ETSAuctionHouse.sol:ETSAuctionHouse",
        "label": "__gap",
        "offset": 0,
        "slot": "201",
        "type": "t_array(t_uint256)50_storage"
      },
      {
        "astId": 11177,
        "contract": "contracts/ETSAuctionHouse.sol:ETSAuctionHouse",
        "label": "etsToken",
        "offset": 0,
        "slot": "251",
        "type": "t_contract(IETSToken)15465"
      },
      {
        "astId": 11180,
        "contract": "contracts/ETSAuctionHouse.sol:ETSAuctionHouse",
        "label": "etsAccessControls",
        "offset": 0,
        "slot": "252",
        "type": "t_contract(IETSAccessControls)14902"
      },
      {
        "astId": 11193,
        "contract": "contracts/ETSAuctionHouse.sol:ETSAuctionHouse",
        "label": "maxAuctions",
        "offset": 0,
        "slot": "253",
        "type": "t_uint256"
      },
      {
        "astId": 11196,
        "contract": "contracts/ETSAuctionHouse.sol:ETSAuctionHouse",
        "label": "activeAuctions",
        "offset": 0,
        "slot": "254",
        "type": "t_struct(Counter)3533_storage"
      },
      {
        "astId": 11199,
        "contract": "contracts/ETSAuctionHouse.sol:ETSAuctionHouse",
        "label": "auctionId",
        "offset": 0,
        "slot": "255",
        "type": "t_struct(Counter)3533_storage"
      },
      {
        "astId": 11205,
        "contract": "contracts/ETSAuctionHouse.sol:ETSAuctionHouse",
        "label": "auctions",
        "offset": 0,
        "slot": "256",
        "type": "t_mapping(t_uint256,t_struct(Auction)14923_storage)"
      },
      {
        "astId": 11211,
        "contract": "contracts/ETSAuctionHouse.sol:ETSAuctionHouse",
        "label": "auctionsByTokenId",
        "offset": 0,
        "slot": "257",
        "type": "t_mapping(t_uint256,t_array(t_uint256)dyn_storage)"
      },
      {
        "astId": 11214,
        "contract": "contracts/ETSAuctionHouse.sol:ETSAuctionHouse",
        "label": "weth",
        "offset": 0,
        "slot": "258",
        "type": "t_address"
      },
      {
        "astId": 11217,
        "contract": "contracts/ETSAuctionHouse.sol:ETSAuctionHouse",
        "label": "timeBuffer",
        "offset": 0,
        "slot": "259",
        "type": "t_uint256"
      },
      {
        "astId": 11220,
        "contract": "contracts/ETSAuctionHouse.sol:ETSAuctionHouse",
        "label": "reservePrice",
        "offset": 0,
        "slot": "260",
        "type": "t_uint256"
      },
      {
        "astId": 11223,
        "contract": "contracts/ETSAuctionHouse.sol:ETSAuctionHouse",
        "label": "minBidIncrementPercentage",
        "offset": 0,
        "slot": "261",
        "type": "t_uint8"
      },
      {
        "astId": 11226,
        "contract": "contracts/ETSAuctionHouse.sol:ETSAuctionHouse",
        "label": "duration",
        "offset": 0,
        "slot": "262",
        "type": "t_uint256"
      },
      {
        "astId": 11229,
        "contract": "contracts/ETSAuctionHouse.sol:ETSAuctionHouse",
        "label": "creatorPercentage",
        "offset": 0,
        "slot": "263",
        "type": "t_uint256"
      },
      {
        "astId": 11232,
        "contract": "contracts/ETSAuctionHouse.sol:ETSAuctionHouse",
        "label": "relayerPercentage",
        "offset": 0,
        "slot": "264",
        "type": "t_uint256"
      },
      {
        "astId": 11235,
        "contract": "contracts/ETSAuctionHouse.sol:ETSAuctionHouse",
        "label": "platformPercentage",
        "offset": 0,
        "slot": "265",
        "type": "t_uint256"
      },
      {
        "astId": 11240,
        "contract": "contracts/ETSAuctionHouse.sol:ETSAuctionHouse",
        "label": "accrued",
        "offset": 0,
        "slot": "266",
        "type": "t_mapping(t_address,t_uint256)"
      },
      {
        "astId": 11245,
        "contract": "contracts/ETSAuctionHouse.sol:ETSAuctionHouse",
        "label": "paid",
        "offset": 0,
        "slot": "267",
        "type": "t_mapping(t_address,t_uint256)"
      }
    ],
    "types": {
      "t_address": {
        "encoding": "inplace",
        "label": "address",
        "numberOfBytes": "20"
      },
      "t_address_payable": {
        "encoding": "inplace",
        "label": "address payable",
        "numberOfBytes": "20"
      },
      "t_array(t_uint256)49_storage": {
        "base": "t_uint256",
        "encoding": "inplace",
        "label": "uint256[49]",
        "numberOfBytes": "1568"
      },
      "t_array(t_uint256)50_storage": {
        "base": "t_uint256",
        "encoding": "inplace",
        "label": "uint256[50]",
        "numberOfBytes": "1600"
      },
      "t_array(t_uint256)dyn_storage": {
        "base": "t_uint256",
        "encoding": "dynamic_array",
        "label": "uint256[]",
        "numberOfBytes": "32"
      },
      "t_bool": {
        "encoding": "inplace",
        "label": "bool",
        "numberOfBytes": "1"
      },
      "t_contract(IETSAccessControls)14902": {
        "encoding": "inplace",
        "label": "contract IETSAccessControls",
        "numberOfBytes": "20"
      },
      "t_contract(IETSToken)15465": {
        "encoding": "inplace",
        "label": "contract IETSToken",
        "numberOfBytes": "20"
      },
      "t_mapping(t_address,t_uint256)": {
        "encoding": "mapping",
        "key": "t_address",
        "label": "mapping(address => uint256)",
        "numberOfBytes": "32",
        "value": "t_uint256"
      },
      "t_mapping(t_uint256,t_array(t_uint256)dyn_storage)": {
        "encoding": "mapping",
        "key": "t_uint256",
        "label": "mapping(uint256 => uint256[])",
        "numberOfBytes": "32",
        "value": "t_array(t_uint256)dyn_storage"
      },
      "t_mapping(t_uint256,t_struct(Auction)14923_storage)": {
        "encoding": "mapping",
        "key": "t_uint256",
        "label": "mapping(uint256 => struct IETSAuctionHouse.Auction)",
        "numberOfBytes": "32",
        "value": "t_struct(Auction)14923_storage"
      },
      "t_struct(Auction)14923_storage": {
        "encoding": "inplace",
        "label": "struct IETSAuctionHouse.Auction",
        "members": [
          {
            "astId": 14906,
            "contract": "contracts/ETSAuctionHouse.sol:ETSAuctionHouse",
            "label": "auctionId",
            "offset": 0,
            "slot": "0",
            "type": "t_uint256"
          },
          {
            "astId": 14908,
            "contract": "contracts/ETSAuctionHouse.sol:ETSAuctionHouse",
            "label": "tokenId",
            "offset": 0,
            "slot": "1",
            "type": "t_uint256"
          },
          {
            "astId": 14910,
            "contract": "contracts/ETSAuctionHouse.sol:ETSAuctionHouse",
            "label": "amount",
            "offset": 0,
            "slot": "2",
            "type": "t_uint256"
          },
          {
            "astId": 14912,
            "contract": "contracts/ETSAuctionHouse.sol:ETSAuctionHouse",
            "label": "startTime",
            "offset": 0,
            "slot": "3",
            "type": "t_uint256"
          },
          {
            "astId": 14914,
            "contract": "contracts/ETSAuctionHouse.sol:ETSAuctionHouse",
            "label": "endTime",
            "offset": 0,
            "slot": "4",
            "type": "t_uint256"
          },
          {
            "astId": 14916,
            "contract": "contracts/ETSAuctionHouse.sol:ETSAuctionHouse",
            "label": "reservePrice",
            "offset": 0,
            "slot": "5",
            "type": "t_uint256"
          },
          {
            "astId": 14918,
            "contract": "contracts/ETSAuctionHouse.sol:ETSAuctionHouse",
            "label": "bidder",
            "offset": 0,
            "slot": "6",
            "type": "t_address_payable"
          },
          {
            "astId": 14920,
            "contract": "contracts/ETSAuctionHouse.sol:ETSAuctionHouse",
            "label": "auctioneer",
            "offset": 0,
            "slot": "7",
            "type": "t_address_payable"
          },
          {
            "astId": 14922,
            "contract": "contracts/ETSAuctionHouse.sol:ETSAuctionHouse",
            "label": "settled",
            "offset": 20,
            "slot": "7",
            "type": "t_bool"
          }
        ],
        "numberOfBytes": "256"
      },
      "t_struct(Counter)3533_storage": {
        "encoding": "inplace",
        "label": "struct CountersUpgradeable.Counter",
        "members": [
          {
            "astId": 3532,
            "contract": "contracts/ETSAuctionHouse.sol:ETSAuctionHouse",
            "label": "_value",
            "offset": 0,
            "slot": "0",
            "type": "t_uint256"
          }
        ],
        "numberOfBytes": "32"
      },
      "t_uint256": {
        "encoding": "inplace",
        "label": "uint256",
        "numberOfBytes": "32"
      },
      "t_uint8": {
        "encoding": "inplace",
        "label": "uint8",
        "numberOfBytes": "1"
      }
    }
  }
}