{
  "address": "0x2d9Fa220c1537002402CA93E5909Ef9026BB7624",
  "abi": [
    {
      "inputs": [],
      "stateMutability": "nonpayable",
      "type": "constructor"
    },
    {
      "anonymous": false,
      "inputs": [
        {
          "indexed": false,
          "internalType": "uint8",
          "name": "version",
          "type": "uint8"
        }
      ],
      "name": "Initialized",
      "type": "event"
    },
    {
      "anonymous": false,
      "inputs": [
        {
          "indexed": true,
          "internalType": "address",
          "name": "previousOwner",
          "type": "address"
        },
        {
          "indexed": true,
          "internalType": "address",
          "name": "newOwner",
          "type": "address"
        }
      ],
      "name": "OwnershipTransferred",
      "type": "event"
    },
    {
      "anonymous": false,
      "inputs": [
        {
          "indexed": false,
          "internalType": "address",
          "name": "account",
          "type": "address"
        }
      ],
      "name": "Paused",
      "type": "event"
    },
    {
      "anonymous": false,
      "inputs": [
        {
          "indexed": false,
          "internalType": "address",
          "name": "relayerAddress",
          "type": "address"
        }
      ],
      "name": "RelayerOwnerChanged",
      "type": "event"
    },
    {
      "anonymous": false,
      "inputs": [
        {
          "indexed": false,
          "internalType": "address",
          "name": "relayerAddress",
          "type": "address"
        }
      ],
      "name": "RelayerPauseToggledByOwner",
      "type": "event"
    },
    {
      "anonymous": false,
      "inputs": [
        {
          "indexed": false,
          "internalType": "address",
          "name": "account",
          "type": "address"
        }
      ],
      "name": "Unpaused",
      "type": "event"
    },
    {
      "stateMutability": "payable",
      "type": "fallback"
    },
    {
      "inputs": [],
      "name": "IID_IETSRELAYER",
      "outputs": [
        {
          "internalType": "bytes4",
          "name": "",
          "type": "bytes4"
        }
      ],
      "stateMutability": "view",
      "type": "function"
    },
    {
      "inputs": [],
      "name": "NAME",
      "outputs": [
        {
          "internalType": "string",
          "name": "",
          "type": "string"
        }
      ],
      "stateMutability": "view",
      "type": "function"
    },
    {
      "inputs": [],
      "name": "VERSION",
      "outputs": [
        {
          "internalType": "string",
          "name": "",
          "type": "string"
        }
      ],
      "stateMutability": "view",
      "type": "function"
    },
    {
      "inputs": [
        {
          "components": [
            {
              "internalType": "string",
              "name": "targetURI",
              "type": "string"
            },
            {
              "internalType": "string[]",
              "name": "tagStrings",
              "type": "string[]"
            },
            {
              "internalType": "string",
              "name": "recordType",
              "type": "string"
            }
          ],
          "internalType": "struct IETS.TaggingRecordRawInput[]",
          "name": "_rawInput",
          "type": "tuple[]"
        }
      ],
      "name": "applyTags",
      "outputs": [],
      "stateMutability": "payable",
      "type": "function"
    },
    {
      "inputs": [
        {
          "internalType": "address",
          "name": "_newOwner",
          "type": "address"
        }
      ],
      "name": "changeOwner",
      "outputs": [],
      "stateMutability": "nonpayable",
      "type": "function"
    },
    {
      "inputs": [
        {
          "components": [
            {
              "internalType": "string",
              "name": "targetURI",
              "type": "string"
            },
            {
              "internalType": "string[]",
              "name": "tagStrings",
              "type": "string[]"
            },
            {
              "internalType": "string",
              "name": "recordType",
              "type": "string"
            }
          ],
          "internalType": "struct IETS.TaggingRecordRawInput",
          "name": "_rawInput",
          "type": "tuple"
        },
        {
          "internalType": "enum IETS.TaggingAction",
          "name": "_action",
          "type": "uint8"
        }
      ],
      "name": "computeTaggingFee",
      "outputs": [
        {
          "internalType": "uint256",
          "name": "fee",
          "type": "uint256"
        },
        {
          "internalType": "uint256",
          "name": "tagCount",
          "type": "uint256"
        }
      ],
      "stateMutability": "view",
      "type": "function"
    },
    {
      "inputs": [],
      "name": "creator",
      "outputs": [
        {
          "internalType": "address payable",
          "name": "",
          "type": "address"
        }
      ],
      "stateMutability": "view",
      "type": "function"
    },
    {
      "inputs": [],
      "name": "ets",
      "outputs": [
        {
          "internalType": "contract IETS",
          "name": "",
          "type": "address"
        }
      ],
      "stateMutability": "view",
      "type": "function"
    },
    {
      "inputs": [],
      "name": "etsAccessControls",
      "outputs": [
        {
          "internalType": "contract IETSAccessControls",
          "name": "",
          "type": "address"
        }
      ],
      "stateMutability": "view",
      "type": "function"
    },
    {
      "inputs": [],
      "name": "etsTarget",
      "outputs": [
        {
          "internalType": "contract IETSTarget",
          "name": "",
          "type": "address"
        }
      ],
      "stateMutability": "view",
      "type": "function"
    },
    {
      "inputs": [],
      "name": "etsToken",
      "outputs": [
        {
          "internalType": "contract IETSToken",
          "name": "",
          "type": "address"
        }
      ],
      "stateMutability": "view",
      "type": "function"
    },
    {
      "inputs": [],
      "name": "getBalance",
      "outputs": [
        {
          "internalType": "uint256",
          "name": "",
          "type": "uint256"
        }
      ],
      "stateMutability": "view",
      "type": "function"
    },
    {
      "inputs": [],
      "name": "getCreator",
      "outputs": [
        {
          "internalType": "address payable",
          "name": "",
          "type": "address"
        }
      ],
      "stateMutability": "view",
      "type": "function"
    },
    {
      "inputs": [
        {
          "internalType": "string[]",
          "name": "_tags",
          "type": "string[]"
        }
      ],
      "name": "getOrCreateTagIds",
      "outputs": [
        {
          "internalType": "uint256[]",
          "name": "_tagIds",
          "type": "uint256[]"
        }
      ],
      "stateMutability": "payable",
      "type": "function"
    },
    {
      "inputs": [],
      "name": "getOwner",
      "outputs": [
        {
          "internalType": "address payable",
          "name": "",
          "type": "address"
        }
      ],
      "stateMutability": "view",
      "type": "function"
    },
    {
      "inputs": [],
      "name": "getRelayerName",
      "outputs": [
        {
          "internalType": "string",
          "name": "",
          "type": "string"
        }
      ],
      "stateMutability": "view",
      "type": "function"
    },
    {
      "inputs": [
        {
          "internalType": "string",
          "name": "_relayerName",
          "type": "string"
        },
        {
          "internalType": "contract IETS",
          "name": "_ets",
          "type": "address"
        },
        {
          "internalType": "contract IETSToken",
          "name": "_etsToken",
          "type": "address"
        },
        {
          "internalType": "contract IETSTarget",
          "name": "_etsTarget",
          "type": "address"
        },
        {
          "internalType": "contract IETSAccessControls",
          "name": "_etsAccessControls",
          "type": "address"
        },
        {
          "internalType": "address payable",
          "name": "_creator",
          "type": "address"
        },
        {
          "internalType": "address payable",
          "name": "_owner",
          "type": "address"
        }
      ],
      "name": "initialize",
      "outputs": [],
      "stateMutability": "nonpayable",
      "type": "function"
    },
    {
      "inputs": [],
      "name": "isPaused",
      "outputs": [
        {
          "internalType": "bool",
          "name": "",
          "type": "bool"
        }
      ],
      "stateMutability": "view",
      "type": "function"
    },
    {
      "inputs": [],
      "name": "owner",
      "outputs": [
        {
          "internalType": "address",
          "name": "",
          "type": "address"
        }
      ],
      "stateMutability": "view",
      "type": "function"
    },
    {
      "inputs": [],
      "name": "pause",
      "outputs": [],
      "stateMutability": "nonpayable",
      "type": "function"
    },
    {
      "inputs": [],
      "name": "paused",
      "outputs": [
        {
          "internalType": "bool",
          "name": "",
          "type": "bool"
        }
      ],
      "stateMutability": "view",
      "type": "function"
    },
    {
      "inputs": [],
      "name": "relayerName",
      "outputs": [
        {
          "internalType": "string",
          "name": "",
          "type": "string"
        }
      ],
      "stateMutability": "view",
      "type": "function"
    },
    {
      "inputs": [
        {
          "components": [
            {
              "internalType": "string",
              "name": "targetURI",
              "type": "string"
            },
            {
              "internalType": "string[]",
              "name": "tagStrings",
              "type": "string[]"
            },
            {
              "internalType": "string",
              "name": "recordType",
              "type": "string"
            }
          ],
          "internalType": "struct IETS.TaggingRecordRawInput[]",
          "name": "_rawInput",
          "type": "tuple[]"
        }
      ],
      "name": "removeTags",
      "outputs": [],
      "stateMutability": "payable",
      "type": "function"
    },
    {
      "inputs": [],
      "name": "renounceOwnership",
      "outputs": [],
      "stateMutability": "nonpayable",
      "type": "function"
    },
    {
      "inputs": [
        {
          "components": [
            {
              "internalType": "string",
              "name": "targetURI",
              "type": "string"
            },
            {
              "internalType": "string[]",
              "name": "tagStrings",
              "type": "string[]"
            },
            {
              "internalType": "string",
              "name": "recordType",
              "type": "string"
            }
          ],
          "internalType": "struct IETS.TaggingRecordRawInput[]",
          "name": "_rawInput",
          "type": "tuple[]"
        }
      ],
      "name": "replaceTags",
      "outputs": [],
      "stateMutability": "payable",
      "type": "function"
    },
    {
      "inputs": [
        {
          "internalType": "bytes4",
          "name": "interfaceId",
          "type": "bytes4"
        }
      ],
      "name": "supportsInterface",
      "outputs": [
        {
          "internalType": "bool",
          "name": "",
          "type": "bool"
        }
      ],
      "stateMutability": "view",
      "type": "function"
    },
    {
      "inputs": [
        {
          "internalType": "address",
          "name": "newOwner",
          "type": "address"
        }
      ],
      "name": "transferOwnership",
      "outputs": [],
      "stateMutability": "nonpayable",
      "type": "function"
    },
    {
      "inputs": [],
      "name": "unpause",
      "outputs": [],
      "stateMutability": "nonpayable",
      "type": "function"
    },
    {
      "inputs": [],
      "name": "version",
      "outputs": [
        {
          "internalType": "string",
          "name": "",
          "type": "string"
        }
      ],
      "stateMutability": "view",
      "type": "function"
    },
    {
      "stateMutability": "payable",
      "type": "receive"
    }
  ],
  "numDeployments": 1,
  "solcInputHash": "075e3b5610f4ceb8918cc0d4b674e612",
  "bytecode": "0x608060405234801561001057600080fd5b5061001961001e565b6100dd565b600054610100900460ff161561008a5760405162461bcd60e51b815260206004820152602760248201527f496e697469616c697a61626c653a20636f6e747261637420697320696e697469604482015266616c697a696e6760c81b606482015260840160405180910390fd5b60005460ff908116146100db576000805460ff191660ff9081179091556040519081527f7f26b83ff96e1f2b6a682f133852f6798a09c465da95921460cefb38474024989060200160405180910390a15b565b6120a880620000ed6000396000f3fe6080604052600436106101ae5760003560e01c8063613facdd116100eb578063a3f4df7e1161008f578063f2fde38b11610061578063f2fde38b146104d6578063f796e587146104f6578063f8c8ef0914610516578063ffa1ad741461054b57005b8063a3f4df7e14610443578063a6f9dae11461048c578063b187bd26146104ac578063e12bcd68146104c157005b80638299f9f9116100c85780638299f9f9146103db5780638456cb59146103fb578063893d20e8146104105780638da5cb5b1461042557005b8063613facdd1461037d578063715018a614610392578063743b7b1f146103a757005b80633f4ba83a1161015257806354fd4d501161012f57806354fd4d50146102eb57806356c63489146103255780635c975abb146103455780635edab3ed1461035d57005b80633f4ba83a146102a357806342a7bfa5146102b857806346ca0f4d146102cb57005b80630f9becab1161018b5780630f9becab146102425780631002bc831461025557806312065fe01461026857806315ccda221461028357005b806301ffc9a7146101b757806302d05d3f146101ec5780630ee2cb101461022457005b366101b557005b005b3480156101c357600080fd5b506101d76101d2366004611a04565b61057f565b60405190151581526020015b60405180910390f35b3480156101f857600080fd5b5060ff5461020c906001600160a01b031681565b6040516001600160a01b0390911681526020016101e3565b34801561023057600080fd5b5060ff546001600160a01b031661020c565b6101b5610250366004611a7a565b6105cf565b6101b5610263366004611a7a565b610696565b34801561027457600080fd5b506040514781526020016101e3565b34801561028f57600080fd5b5060fb5461020c906001600160a01b031681565b3480156102af57600080fd5b506101b56106eb565b6101b56102c6366004611a7a565b6109dc565b3480156102d757600080fd5b5060fc5461020c906001600160a01b031681565b3480156102f757600080fd5b50604080518082019091526008815267302e312d4265746160c01b60208201525b6040516101e39190611abc565b34801561033157600080fd5b5060fd5461020c906001600160a01b031681565b34801561035157600080fd5b5060975460ff166101d7565b61037061036b366004611a7a565b610a9d565b6040516101e39190611b11565b34801561038957600080fd5b50610318610bc5565b34801561039e57600080fd5b506101b5610c58565b3480156103b357600080fd5b506103c263b050394f60e01b81565b6040516001600160e01b031990911681526020016101e3565b3480156103e757600080fd5b5060fe5461020c906001600160a01b031681565b34801561040757600080fd5b506101b5610c6c565b34801561041c57600080fd5b5061020c610d75565b34801561043157600080fd5b506065546001600160a01b031661020c565b34801561044f57600080fd5b506103186040518060400160405280600b81526020017f4554532052656c6179657200000000000000000000000000000000000000000081525081565b34801561049857600080fd5b506101b56104a7366004611b6a565b610d8e565b3480156104b857600080fd5b506101d7610e61565b3480156104cd57600080fd5b50610318610e6f565b3480156104e257600080fd5b506101b56104f1366004611b6a565b610efe565b34801561050257600080fd5b506101b5610511366004611bad565b610f8e565b34801561052257600080fd5b50610536610531366004611cc2565b611146565b604080519283526020830191909152016101e3565b34801561055757600080fd5b5061031860405180604001604052806008815260200167302e312d4265746160c01b81525081565b60006001600160e01b0319821663b050394f60e01b14806105c957507f01ffc9a7000000000000000000000000000000000000000000000000000000006001600160e01b03198316145b92915050565b6105d76111cd565b60fb546040805163fe52656f60e01b815290516000926001600160a01b03169163fe52656f9160048083019260209291908290030181865afa158015610621573d6000803e3d6000fd5b505050506040513d601f19601f820116820180604052508101906106459190611d1d565b905060005b828110156106905761068084848381811061066757610667611d36565b90506020028101906106799190611d4c565b3384611220565b61068981611d6c565b905061064a565b50505050565b61069e6111cd565b60005b818110156106e6576106d68383838181106106be576106be611d36565b90506020028101906106d09190611d4c565b3361137c565b6106df81611d6c565b90506106a1565b505050565b6065546001600160a01b03163314806107a0575060fe546001600160a01b03166391d148547f619071fe1792701f31c1707f419d418b505e01c7642551568874b32ede501d74336040516001600160e01b031960e085901b16815260048101929092526001600160a01b03166024820152604401602060405180830381865afa15801561077c573d6000803e3d6000fd5b505050506040513d601f19601f820116820180604052508101906107a09190611d95565b6107f15760405162461bcd60e51b815260206004820152601860248201527f43616c6c6572206e6f742072656c617965722061646d696e000000000000000060448201526064015b60405180910390fd5b60fe546040517fa8e2f2350000000000000000000000000000000000000000000000000000000081523060048201526001600160a01b039091169063a8e2f23590602401602060405180830381865afa158015610852573d6000803e3d6000fd5b505050506040513d601f19601f820116820180604052508101906108769190611d95565b156108c35760405162461bcd60e51b815260206004820152601760248201527f556e70617573696e67206e6f74207065726d697474656400000000000000000060448201526064016107e8565b60fc546000906001600160a01b03166370a082316108e96065546001600160a01b031690565b6040516001600160e01b031960e084901b1681526001600160a01b039091166004820152602401602060405180830381865afa15801561092d573d6000803e3d6000fd5b505050506040513d601f19601f820116820180604052508101906109519190611d1d565b1161099e5760405162461bcd60e51b815260206004820152601460248201527f4f776e6572206d75737420686f6c64204354414700000000000000000000000060448201526064016107e8565b6109a66113fd565b6040513081527fa3705e5a8cf0800dce2d7a76b8737622cbd3b3e9682c53da9eeccd99ad809373906020015b60405180910390a1565b6109e46111cd565b60fb546040805163fe52656f60e01b815290516000926001600160a01b03169163fe52656f9160048083019260209291908290030181865afa158015610a2e573d6000803e3d6000fd5b505050506040513d601f19601f82011682018060405250810190610a529190611d1d565b905060005b8281101561069057610a8d848483818110610a7457610a74611d36565b9050602002810190610a869190611d4c565b338461144a565b610a9681611d6c565b9050610a57565b6060610aa76111cd565b60008267ffffffffffffffff811115610ac257610ac2611b87565b604051908082528060200260200182016040528015610aeb578160200160208202803683370190505b50905060005b83811015610bbd5760fb546001600160a01b031663a27eee3c868684818110610b1c57610b1c611d36565b9050602002810190610b2e9190611db7565b336040518463ffffffff1660e01b8152600401610b4d93929190611e27565b6020604051808303816000875af1158015610b6c573d6000803e3d6000fd5b505050506040513d601f19601f82011682018060405250810190610b909190611d1d565b828281518110610ba257610ba2611d36565b6020908102919091010152610bb681611d6c565b9050610af1565b509392505050565b60606101008054610bd590611e54565b80601f0160208091040260200160405190810160405280929190818152602001828054610c0190611e54565b8015610c4e5780601f10610c2357610100808354040283529160200191610c4e565b820191906000526020600020905b815481529060010190602001808311610c3157829003601f168201915b5050505050905090565b610c6061156d565b610c6a60006115c7565b565b6065546001600160a01b0316331480610d21575060fe546001600160a01b03166391d148547f619071fe1792701f31c1707f419d418b505e01c7642551568874b32ede501d74336040516001600160e01b031960e085901b16815260048101929092526001600160a01b03166024820152604401602060405180830381865afa158015610cfd573d6000803e3d6000fd5b505050506040513d601f19601f82011682018060405250810190610d219190611d95565b610d6d5760405162461bcd60e51b815260206004820152601860248201527f43616c6c6572206e6f742072656c617965722061646d696e000000000000000060448201526064016107e8565b6109a6611626565b6000610d896065546001600160a01b031690565b905090565b610d96611663565b610d9e61156d565b60fe546001600160a01b0316638e0ed37c610dc16065546001600160a01b031690565b6040516001600160e01b031960e084901b1681526001600160a01b0391821660048201529084166024820152604401600060405180830381600087803b158015610e0a57600080fd5b505af1158015610e1e573d6000803e3d6000fd5b50505050610e2b81610efe565b6040513081527f1896d39287b56639e55216c3dd2e10fe8adaab5264319ac3cc7020668ac6f1699060200160405180910390a150565b6000610d8960975460ff1690565b6101008054610e7d90611e54565b80601f0160208091040260200160405190810160405280929190818152602001828054610ea990611e54565b8015610ef65780601f10610ecb57610100808354040283529160200191610ef6565b820191906000526020600020905b815481529060010190602001808311610ed957829003601f168201915b505050505081565b610f0661156d565b6001600160a01b038116610f825760405162461bcd60e51b815260206004820152602660248201527f4f776e61626c653a206e6577206f776e657220697320746865207a65726f206160448201527f646472657373000000000000000000000000000000000000000000000000000060648201526084016107e8565b610f8b816115c7565b50565b600054610100900460ff1615808015610fae5750600054600160ff909116105b80610fc85750303b158015610fc8575060005460ff166001145b61103a5760405162461bcd60e51b815260206004820152602e60248201527f496e697469616c697a61626c653a20636f6e747261637420697320616c72656160448201527f647920696e697469616c697a656400000000000000000000000000000000000060648201526084016107e8565b6000805460ff19166001179055801561105d576000805461ff0019166101001790555b6110656116b5565b61106d611728565b61107561179b565b8751611089906101009060208b019061196b565b5060fb805473ffffffffffffffffffffffffffffffffffffffff199081166001600160a01b038a81169190911790925560fc8054821689841617905560fd8054821688841617905560fe8054821687841617905560ff80549091169185169190911790556110f682610efe565b801561113c576000805461ff0019169055604051600181527f7f26b83ff96e1f2b6a682f133852f6798a09c465da95921460cefb38474024989060200160405180910390a15b5050505050505050565b60fb54604051630927cfbb60e21b815260009182916001600160a01b039091169063249f3eec90611181908790309033908990600401611fe1565b6040805180830381865afa15801561119d573d6000803e3d6000fd5b505050506040513d601f19601f820116820180604052508101906111c19190612023565b915091505b9250929050565b60975460ff1615610c6a5760405162461bcd60e51b815260206004820152601060248201527f5061757361626c653a207061757365640000000000000000000000000000000060448201526064016107e8565b600081156112f75760fb54604051630927cfbb60e21b81526000916001600160a01b03169063249f3eec9061126090889030908990600190600401611fe1565b6040805180830381865afa15801561127c573d6000803e3d6000fd5b505050506040513d601f19601f820116820180604052508101906112a09190612023565b9092509050478211156112f55760405162461bcd60e51b815260206004820152601260248201527f496e73756666696369656e742066756e6473000000000000000000000000000060448201526064016107e8565b505b60fb546040517f70a306f70000000000000000000000000000000000000000000000000000000081526001600160a01b03909116906370a306f79083906113449088908890600401612047565b6000604051808303818588803b15801561135d57600080fd5b505af1158015611371573d6000803e3d6000fd5b505050505050505050565b60fb546040517f7e2babd00000000000000000000000000000000000000000000000000000000081526001600160a01b0390911690637e2babd0906113c79085908590600401612047565b600060405180830381600087803b1580156113e157600080fd5b505af11580156113f5573d6000803e3d6000fd5b505050505050565b611405611663565b6097805460ff191690557f5db9ee0a495bf2e6ff9c91a7834c1ba4fdd244a5e8aa4e537bd38aeae4b073aa335b6040516001600160a01b0390911681526020016109d2565b600081156115205760fb54604051630927cfbb60e21b81526000916001600160a01b03169063249f3eec90611489908890309089908790600401611fe1565b6040805180830381865afa1580156114a5573d6000803e3d6000fd5b505050506040513d601f19601f820116820180604052508101906114c99190612023565b90925090504782111561151e5760405162461bcd60e51b815260206004820152601260248201527f496e73756666696369656e742066756e6473000000000000000000000000000060448201526064016107e8565b505b60fb546040517f01f1e2d80000000000000000000000000000000000000000000000000000000081526001600160a01b03909116906301f1e2d89083906113449088908890600401612047565b6065546001600160a01b03163314610c6a5760405162461bcd60e51b815260206004820181905260248201527f4f776e61626c653a2063616c6c6572206973206e6f7420746865206f776e657260448201526064016107e8565b606580546001600160a01b0383811673ffffffffffffffffffffffffffffffffffffffff19831681179093556040519116919082907f8be0079c531659141344cd1fd0a4f28419497f9722a3daafe3b4186f6b6457e090600090a35050565b61162e6111cd565b6097805460ff191660011790557f62e78cea01bee320cd4e420270b5ea74000d11b0c9f74754ebdbfc544b05a2586114323390565b60975460ff16610c6a5760405162461bcd60e51b815260206004820152601460248201527f5061757361626c653a206e6f742070617573656400000000000000000000000060448201526064016107e8565b600054610100900460ff166117205760405162461bcd60e51b815260206004820152602b60248201527f496e697469616c697a61626c653a20636f6e7472616374206973206e6f74206960448201526a6e697469616c697a696e6760a81b60648201526084016107e8565b610c6a61180e565b600054610100900460ff166117935760405162461bcd60e51b815260206004820152602b60248201527f496e697469616c697a61626c653a20636f6e7472616374206973206e6f74206960448201526a6e697469616c697a696e6760a81b60648201526084016107e8565b610c6a611885565b600054610100900460ff166118065760405162461bcd60e51b815260206004820152602b60248201527f496e697469616c697a61626c653a20636f6e7472616374206973206e6f74206960448201526a6e697469616c697a696e6760a81b60648201526084016107e8565b610c6a6118f9565b600054610100900460ff166118795760405162461bcd60e51b815260206004820152602b60248201527f496e697469616c697a61626c653a20636f6e7472616374206973206e6f74206960448201526a6e697469616c697a696e6760a81b60648201526084016107e8565b6097805460ff19169055565b600054610100900460ff166118f05760405162461bcd60e51b815260206004820152602b60248201527f496e697469616c697a61626c653a20636f6e7472616374206973206e6f74206960448201526a6e697469616c697a696e6760a81b60648201526084016107e8565b610c6a336115c7565b600054610100900460ff166119645760405162461bcd60e51b815260206004820152602b60248201527f496e697469616c697a61626c653a20636f6e7472616374206973206e6f74206960448201526a6e697469616c697a696e6760a81b60648201526084016107e8565b600160c955565b82805461197790611e54565b90600052602060002090601f01602090048101928261199957600085556119df565b82601f106119b257805160ff19168380011785556119df565b828001600101855582156119df579182015b828111156119df5782518255916020019190600101906119c4565b506119eb9291506119ef565b5090565b5b808211156119eb57600081556001016119f0565b600060208284031215611a1657600080fd5b81356001600160e01b031981168114611a2e57600080fd5b9392505050565b60008083601f840112611a4757600080fd5b50813567ffffffffffffffff811115611a5f57600080fd5b6020830191508360208260051b85010111156111c657600080fd5b60008060208385031215611a8d57600080fd5b823567ffffffffffffffff811115611aa457600080fd5b611ab085828601611a35565b90969095509350505050565b600060208083528351808285015260005b81811015611ae957858101830151858201604001528201611acd565b81811115611afb576000604083870101525b50601f01601f1916929092016040019392505050565b6020808252825182820181905260009190848201906040850190845b81811015611b4957835183529284019291840191600101611b2d565b50909695505050505050565b6001600160a01b0381168114610f8b57600080fd5b600060208284031215611b7c57600080fd5b8135611a2e81611b55565b634e487b7160e01b600052604160045260246000fd5b8035611ba881611b55565b919050565b600080600080600080600060e0888a031215611bc857600080fd5b873567ffffffffffffffff80821115611be057600080fd5b818a0191508a601f830112611bf457600080fd5b813581811115611c0657611c06611b87565b604051601f8201601f19908116603f01168101908382118183101715611c2e57611c2e611b87565b816040528281528d6020848701011115611c4757600080fd5b82602086016020830137600060208483010152809b505050505050611c6e60208901611b9d565b9550611c7c60408901611b9d565b9450611c8a60608901611b9d565b9350611c9860808901611b9d565b9250611ca660a08901611b9d565b9150611cb460c08901611b9d565b905092959891949750929550565b60008060408385031215611cd557600080fd5b823567ffffffffffffffff811115611cec57600080fd5b830160608186031215611cfe57600080fd5b9150602083013560038110611d1257600080fd5b809150509250929050565b600060208284031215611d2f57600080fd5b5051919050565b634e487b7160e01b600052603260045260246000fd5b60008235605e19833603018112611d6257600080fd5b9190910192915050565b6000600019821415611d8e57634e487b7160e01b600052601160045260246000fd5b5060010190565b600060208284031215611da757600080fd5b81518015158114611a2e57600080fd5b6000808335601e19843603018112611dce57600080fd5b83018035915067ffffffffffffffff821115611de957600080fd5b6020019150368190038213156111c657600080fd5b81835281816020850137506000828201602090810191909152601f909101601f19169091010190565b604081526000611e3b604083018587611dfe565b90506001600160a01b0383166020830152949350505050565b600181811c90821680611e6857607f821691505b60208210811415611e8957634e487b7160e01b600052602260045260246000fd5b50919050565b6000808335601e19843603018112611ea657600080fd5b830160208101925035905067ffffffffffffffff811115611ec657600080fd5b8036038313156111c657600080fd5b6000611ee18283611e8f565b60608552611ef3606086018284611dfe565b915050602080840135601e19853603018112611f0e57600080fd5b8401818101903567ffffffffffffffff811115611f2a57600080fd5b8060051b803603871315611f3d57600080fd5b87850384890152818552840183018385018360005b84811015611f8c57878403601f19018352611f6d8287611e8f565b611f78868284611dfe565b955050509186019190860190600101611f52565b505050611f9c6040880188611e8f565b955093508781036040890152611fb3818686611dfe565b98975050505050505050565b60038110611fdd57634e487b7160e01b600052602160045260246000fd5b9052565b608081526000611ff46080830187611ed5565b6001600160a01b03868116602085015285166040840152905061201a6060830184611fbf565b95945050505050565b6000806040838503121561203657600080fd5b505080516020909101519092909150565b60408152600061205a6040830185611ed5565b90506001600160a01b0383166020830152939250505056fea264697066735822122056d78f4d6023318db939dce3344502451b2d7589472fac945e3c6fc595d4ce0364736f6c634300080c0033",
  "devdoc": {
    "kind": "dev",
    "methods": {
      "applyTags((string,string[],string)[])": {
        "params": {
          "_rawInput": "Raw client input data formed as TaggingRecordRawInput struct."
        }
      },
      "changeOwner(address)": {
        "details": "This function can only be called by the owner when the contract is paused.",
        "params": {
          "newOwner": "Address of the new contract owner."
        }
      },
      "computeTaggingFee((string,string[],string),uint8)": {
        "params": {
          "_action": "Integer representing action to be performed according to enum TaggingAction.",
          "_rawInput": "Raw client input data formed as TaggingRecordRawInput struct."
        },
        "returns": {
          "fee": "Calculated tagging fee in ETH/Matic",
          "tagCount": "Number of new tags being added to tagging record."
        }
      },
      "constructor": {
        "custom:oz-upgrades-unsafe-allow": "constructor"
      },
      "getCreator()": {
        "returns": {
          "_0": "address of the creator of the Relayer contract."
        }
      },
      "getOrCreateTagIds(string[])": {
        "params": {
          "_tags": "Array of tag strings."
        },
        "returns": {
          "_tagIds": "Array of Id of CTAG Ids."
        }
      },
      "getOwner()": {
        "returns": {
          "_0": "address of contract owner."
        }
      },
      "getRelayerName()": {
        "returns": {
          "_0": "name of the Relayer contract as a string."
        }
      },
      "isPaused()": {
        "details": "Pause functionality should be provided by OpenZeppelin Pausable utility.",
        "returns": {
          "_0": "boolean: true for paused; false for not paused."
        }
      },
      "owner()": {
        "details": "Returns the address of the current owner."
      },
      "pause()": {
        "details": "This function can only be called by the owner when the contract is unpaused."
      },
      "paused()": {
        "details": "Returns true if the contract is paused, and false otherwise."
      },
      "removeTags((string,string[],string)[])": {
        "params": {
          "_rawInput": "Raw client input data formed as TaggingRecordRawInput struct."
        }
      },
      "renounceOwnership()": {
        "details": "Leaves the contract without owner. It will not be possible to call `onlyOwner` functions. Can only be called by the current owner. NOTE: Renouncing ownership will leave the contract without an owner, thereby disabling any functionality that is only available to the owner."
      },
      "replaceTags((string,string[],string)[])": {
        "params": {
          "_rawInput": "Raw client input data formed as TaggingRecordRawInput struct."
        }
      },
      "supportsInterface(bytes4)": {
        "details": "See {IERC165-supportsInterface}."
      },
      "transferOwnership(address)": {
        "details": "Transfers ownership of the contract to a new account (`newOwner`). Can only be called by the current owner."
      },
      "unpause()": {
        "details": "This function can only be called by the owner when the contract is paused."
      }
    },
    "stateVariables": {
      "ets": {
        "details": "Address and interface for ETS Core."
      },
      "etsAccessControls": {
        "details": "Address and interface for ETS Access Controls."
      },
      "etsTarget": {
        "details": "Address and interface for ETS Target."
      },
      "etsToken": {
        "details": "Address and interface for ETS Token"
      },
      "relayerName": {
        "details": "Public name for Relayer instance."
      }
    },
    "version": 1
  },
  "userdoc": {
    "kind": "user",
    "methods": {
      "applyTags((string,string[],string)[])": {
        "notice": "Apply one or more tags to a targetURI using tagging record raw client input data."
      },
      "changeOwner(address)": {
        "notice": "Transfer this contract to a new owner."
      },
      "computeTaggingFee((string,string[],string),uint8)": {
        "notice": "Compute tagging fee for raw input and desired action."
      },
      "creator()": {
        "notice": "Address that built this smart contract."
      },
      "getCreator()": {
        "notice": "Returns address of an IETSRelayer contract creator."
      },
      "getOrCreateTagIds(string[])": {
        "notice": "Get or create CTAG tokens from tag strings. Combo function that accepts a tag strings and returns corresponding CTAG token Id if it exists, or if it doesn't exist, creates a new CTAG and then returns corresponding Id. Only ETS Publisher contracts may call this function."
      },
      "getOwner()": {
        "notice": "Returns address of an IETSRelayer contract owner."
      },
      "getRelayerName()": {
        "notice": "Returns human readable name for this IETSRelayer contract."
      },
      "isPaused()": {
        "notice": "Check whether this contract has been pasued by the owner."
      },
      "pause()": {
        "notice": "Pause this relayer contract."
      },
      "removeTags((string,string[],string)[])": {
        "notice": "Remove one or more tags from a tagging record using raw data for record lookup."
      },
      "replaceTags((string,string[],string)[])": {
        "notice": "Replace entire tag set in tagging record using raw data for record lookup. If supplied tag strings don't have CTAGs, new ones are minted."
      },
      "unpause()": {
        "notice": "Unpause this relayer contract."
      }
    },
    "version": 1
  },
  "storageLayout": {
    "storage": [
      {
        "astId": 912,
        "contract": "contracts/relayers/ETSRelayerV1.sol:ETSRelayerV1",
        "label": "_initialized",
        "offset": 0,
        "slot": "0",
        "type": "t_uint8"
      },
      {
        "astId": 915,
        "contract": "contracts/relayers/ETSRelayerV1.sol:ETSRelayerV1",
        "label": "_initializing",
        "offset": 1,
        "slot": "0",
        "type": "t_bool"
      },
      {
        "astId": 4159,
        "contract": "contracts/relayers/ETSRelayerV1.sol:ETSRelayerV1",
        "label": "__gap",
        "offset": 0,
        "slot": "1",
        "type": "t_array(t_uint256)50_storage"
      },
      {
        "astId": 3508,
        "contract": "contracts/relayers/ETSRelayerV1.sol:ETSRelayerV1",
        "label": "__gap",
        "offset": 0,
        "slot": "51",
        "type": "t_array(t_uint256)50_storage"
      },
      {
        "astId": 419,
        "contract": "contracts/relayers/ETSRelayerV1.sol:ETSRelayerV1",
        "label": "_owner",
        "offset": 0,
        "slot": "101",
        "type": "t_address"
      },
      {
        "astId": 539,
        "contract": "contracts/relayers/ETSRelayerV1.sol:ETSRelayerV1",
        "label": "__gap",
        "offset": 0,
        "slot": "102",
        "type": "t_array(t_uint256)49_storage"
      },
      {
        "astId": 1231,
        "contract": "contracts/relayers/ETSRelayerV1.sol:ETSRelayerV1",
        "label": "_paused",
        "offset": 0,
        "slot": "151",
        "type": "t_bool"
      },
      {
        "astId": 1336,
        "contract": "contracts/relayers/ETSRelayerV1.sol:ETSRelayerV1",
        "label": "__gap",
        "offset": 0,
        "slot": "152",
        "type": "t_array(t_uint256)49_storage"
      },
      {
        "astId": 1351,
        "contract": "contracts/relayers/ETSRelayerV1.sol:ETSRelayerV1",
        "label": "_status",
        "offset": 0,
        "slot": "201",
        "type": "t_uint256"
      },
      {
        "astId": 1420,
        "contract": "contracts/relayers/ETSRelayerV1.sol:ETSRelayerV1",
        "label": "__gap",
        "offset": 0,
        "slot": "202",
        "type": "t_array(t_uint256)49_storage"
      },
      {
        "astId": 16271,
        "contract": "contracts/relayers/ETSRelayerV1.sol:ETSRelayerV1",
        "label": "ets",
        "offset": 0,
        "slot": "251",
        "type": "t_contract(IETS)14629"
      },
      {
        "astId": 16275,
        "contract": "contracts/relayers/ETSRelayerV1.sol:ETSRelayerV1",
        "label": "etsToken",
        "offset": 0,
        "slot": "252",
        "type": "t_contract(IETSToken)15378"
      },
      {
        "astId": 16279,
        "contract": "contracts/relayers/ETSRelayerV1.sol:ETSRelayerV1",
        "label": "etsTarget",
        "offset": 0,
        "slot": "253",
        "type": "t_contract(IETSTarget)15141"
      },
      {
        "astId": 16283,
        "contract": "contracts/relayers/ETSRelayerV1.sol:ETSRelayerV1",
        "label": "etsAccessControls",
        "offset": 0,
        "slot": "254",
        "type": "t_contract(IETSAccessControls)14815"
      },
      {
        "astId": 16298,
        "contract": "contracts/relayers/ETSRelayerV1.sol:ETSRelayerV1",
        "label": "creator",
        "offset": 0,
        "slot": "255",
        "type": "t_address_payable"
      },
      {
        "astId": 16301,
        "contract": "contracts/relayers/ETSRelayerV1.sol:ETSRelayerV1",
        "label": "relayerName",
        "offset": 0,
        "slot": "256",
        "type": "t_string_storage"
      }
    ],
    "types": {
      "t_address": {
        "encoding": "inplace",
        "label": "address",
        "numberOfBytes": "20"
      },
      "t_address_payable": {
        "encoding": "inplace",
        "label": "address payable",
        "numberOfBytes": "20"
      },
      "t_array(t_uint256)49_storage": {
        "base": "t_uint256",
        "encoding": "inplace",
        "label": "uint256[49]",
        "numberOfBytes": "1568"
      },
      "t_array(t_uint256)50_storage": {
        "base": "t_uint256",
        "encoding": "inplace",
        "label": "uint256[50]",
        "numberOfBytes": "1600"
      },
      "t_bool": {
        "encoding": "inplace",
        "label": "bool",
        "numberOfBytes": "1"
      },
      "t_contract(IETS)14629": {
        "encoding": "inplace",
        "label": "contract IETS",
        "numberOfBytes": "20"
      },
      "t_contract(IETSAccessControls)14815": {
        "encoding": "inplace",
        "label": "contract IETSAccessControls",
        "numberOfBytes": "20"
      },
      "t_contract(IETSTarget)15141": {
        "encoding": "inplace",
        "label": "contract IETSTarget",
        "numberOfBytes": "20"
      },
      "t_contract(IETSToken)15378": {
        "encoding": "inplace",
        "label": "contract IETSToken",
        "numberOfBytes": "20"
      },
      "t_string_storage": {
        "encoding": "bytes",
        "label": "string",
        "numberOfBytes": "32"
      },
      "t_uint256": {
        "encoding": "inplace",
        "label": "uint256",
        "numberOfBytes": "32"
      },
      "t_uint8": {
        "encoding": "inplace",
        "label": "uint8",
        "numberOfBytes": "1"
      }
    }
  }
}