{
  "address": "0x34b5E2B38E9A5F938bc6De795b5Fb69982a4D73e",
  "abi": [
    {
      "inputs": [],
      "stateMutability": "nonpayable",
      "type": "constructor"
    },
    {
      "anonymous": false,
      "inputs": [
        {
          "indexed": false,
          "internalType": "uint8",
          "name": "version",
          "type": "uint8"
        }
      ],
      "name": "Initialized",
      "type": "event"
    },
    {
      "anonymous": false,
      "inputs": [
        {
          "indexed": true,
          "internalType": "address",
          "name": "previousOwner",
          "type": "address"
        },
        {
          "indexed": true,
          "internalType": "address",
          "name": "newOwner",
          "type": "address"
        }
      ],
      "name": "OwnershipTransferred",
      "type": "event"
    },
    {
      "anonymous": false,
      "inputs": [
        {
          "indexed": false,
          "internalType": "address",
          "name": "account",
          "type": "address"
        }
      ],
      "name": "Paused",
      "type": "event"
    },
    {
      "anonymous": false,
      "inputs": [
        {
          "indexed": false,
          "internalType": "address",
          "name": "relayerAddress",
          "type": "address"
        }
      ],
      "name": "RelayerOwnerChanged",
      "type": "event"
    },
    {
      "anonymous": false,
      "inputs": [
        {
          "indexed": false,
          "internalType": "address",
          "name": "relayerAddress",
          "type": "address"
        }
      ],
      "name": "RelayerPauseToggledByOwner",
      "type": "event"
    },
    {
      "anonymous": false,
      "inputs": [
        {
          "indexed": false,
          "internalType": "address",
          "name": "account",
          "type": "address"
        }
      ],
      "name": "Unpaused",
      "type": "event"
    },
    {
      "stateMutability": "payable",
      "type": "fallback"
    },
    {
      "inputs": [],
      "name": "IID_IETSRELAYER",
      "outputs": [
        {
          "internalType": "bytes4",
          "name": "",
          "type": "bytes4"
        }
      ],
      "stateMutability": "view",
      "type": "function"
    },
    {
      "inputs": [],
      "name": "NAME",
      "outputs": [
        {
          "internalType": "string",
          "name": "",
          "type": "string"
        }
      ],
      "stateMutability": "view",
      "type": "function"
    },
    {
      "inputs": [],
      "name": "VERSION",
      "outputs": [
        {
          "internalType": "string",
          "name": "",
          "type": "string"
        }
      ],
      "stateMutability": "view",
      "type": "function"
    },
    {
      "inputs": [
        {
          "components": [
            {
              "internalType": "string",
              "name": "targetURI",
              "type": "string"
            },
            {
              "internalType": "string[]",
              "name": "tagStrings",
              "type": "string[]"
            },
            {
              "internalType": "string",
              "name": "recordType",
              "type": "string"
            }
          ],
          "internalType": "struct IETS.TaggingRecordRawInput[]",
          "name": "_rawInput",
          "type": "tuple[]"
        }
      ],
      "name": "applyTags",
      "outputs": [],
      "stateMutability": "payable",
      "type": "function"
    },
    {
      "inputs": [
        {
          "components": [
            {
              "internalType": "string",
              "name": "targetURI",
              "type": "string"
            },
            {
              "internalType": "string[]",
              "name": "tagStrings",
              "type": "string[]"
            },
            {
              "internalType": "string",
              "name": "recordType",
              "type": "string"
            }
          ],
          "internalType": "struct IETS.TaggingRecordRawInput[]",
          "name": "_rawInput",
          "type": "tuple[]"
        },
        {
          "internalType": "address",
          "name": "_relayer",
          "type": "address"
        }
      ],
      "name": "applyTagsViaRelayer",
      "outputs": [],
      "stateMutability": "payable",
      "type": "function"
    },
    {
      "inputs": [
        {
          "internalType": "address",
          "name": "_newOwner",
          "type": "address"
        }
      ],
      "name": "changeOwner",
      "outputs": [],
      "stateMutability": "nonpayable",
      "type": "function"
    },
    {
      "inputs": [
        {
          "components": [
            {
              "internalType": "string",
              "name": "targetURI",
              "type": "string"
            },
            {
              "internalType": "string[]",
              "name": "tagStrings",
              "type": "string[]"
            },
            {
              "internalType": "string",
              "name": "recordType",
              "type": "string"
            }
          ],
          "internalType": "struct IETS.TaggingRecordRawInput",
          "name": "_rawInput",
          "type": "tuple"
        },
        {
          "internalType": "enum IETS.TaggingAction",
          "name": "_action",
          "type": "uint8"
        }
      ],
      "name": "computeTaggingFee",
      "outputs": [
        {
          "internalType": "uint256",
          "name": "fee",
          "type": "uint256"
        },
        {
          "internalType": "uint256",
          "name": "tagCount",
          "type": "uint256"
        }
      ],
      "stateMutability": "view",
      "type": "function"
    },
    {
      "inputs": [],
      "name": "creator",
      "outputs": [
        {
          "internalType": "address payable",
          "name": "",
          "type": "address"
        }
      ],
      "stateMutability": "view",
      "type": "function"
    },
    {
      "inputs": [],
      "name": "ets",
      "outputs": [
        {
          "internalType": "contract IETS",
          "name": "",
          "type": "address"
        }
      ],
      "stateMutability": "view",
      "type": "function"
    },
    {
      "inputs": [],
      "name": "etsAccessControls",
      "outputs": [
        {
          "internalType": "contract IETSAccessControls",
          "name": "",
          "type": "address"
        }
      ],
      "stateMutability": "view",
      "type": "function"
    },
    {
      "inputs": [],
      "name": "etsTarget",
      "outputs": [
        {
          "internalType": "contract IETSTarget",
          "name": "",
          "type": "address"
        }
      ],
      "stateMutability": "view",
      "type": "function"
    },
    {
      "inputs": [],
      "name": "etsToken",
      "outputs": [
        {
          "internalType": "contract IETSToken",
          "name": "",
          "type": "address"
        }
      ],
      "stateMutability": "view",
      "type": "function"
    },
    {
      "inputs": [],
      "name": "getBalance",
      "outputs": [
        {
          "internalType": "uint256",
          "name": "",
          "type": "uint256"
        }
      ],
      "stateMutability": "view",
      "type": "function"
    },
    {
      "inputs": [],
      "name": "getCreator",
      "outputs": [
        {
          "internalType": "address payable",
          "name": "",
          "type": "address"
        }
      ],
      "stateMutability": "view",
      "type": "function"
    },
    {
      "inputs": [
        {
          "internalType": "string[]",
          "name": "_tags",
          "type": "string[]"
        }
      ],
      "name": "getOrCreateTagIds",
      "outputs": [
        {
          "internalType": "uint256[]",
          "name": "_tagIds",
          "type": "uint256[]"
        }
      ],
      "stateMutability": "payable",
      "type": "function"
    },
    {
      "inputs": [],
      "name": "getOwner",
      "outputs": [
        {
          "internalType": "address payable",
          "name": "",
          "type": "address"
        }
      ],
      "stateMutability": "view",
      "type": "function"
    },
    {
      "inputs": [],
      "name": "getRelayerName",
      "outputs": [
        {
          "internalType": "string",
          "name": "",
          "type": "string"
        }
      ],
      "stateMutability": "view",
      "type": "function"
    },
    {
      "inputs": [
        {
          "internalType": "string",
          "name": "_relayerName",
          "type": "string"
        },
        {
          "internalType": "contract IETS",
          "name": "_ets",
          "type": "address"
        },
        {
          "internalType": "contract IETSToken",
          "name": "_etsToken",
          "type": "address"
        },
        {
          "internalType": "contract IETSTarget",
          "name": "_etsTarget",
          "type": "address"
        },
        {
          "internalType": "contract IETSAccessControls",
          "name": "_etsAccessControls",
          "type": "address"
        },
        {
          "internalType": "address payable",
          "name": "_creator",
          "type": "address"
        },
        {
          "internalType": "address payable",
          "name": "_owner",
          "type": "address"
        }
      ],
      "name": "initialize",
      "outputs": [],
      "stateMutability": "nonpayable",
      "type": "function"
    },
    {
      "inputs": [],
      "name": "isPaused",
      "outputs": [
        {
          "internalType": "bool",
          "name": "",
          "type": "bool"
        }
      ],
      "stateMutability": "view",
      "type": "function"
    },
    {
      "inputs": [],
      "name": "owner",
      "outputs": [
        {
          "internalType": "address",
          "name": "",
          "type": "address"
        }
      ],
      "stateMutability": "view",
      "type": "function"
    },
    {
      "inputs": [],
      "name": "pause",
      "outputs": [],
      "stateMutability": "nonpayable",
      "type": "function"
    },
    {
      "inputs": [],
      "name": "paused",
      "outputs": [
        {
          "internalType": "bool",
          "name": "",
          "type": "bool"
        }
      ],
      "stateMutability": "view",
      "type": "function"
    },
    {
      "inputs": [],
      "name": "relayerName",
      "outputs": [
        {
          "internalType": "string",
          "name": "",
          "type": "string"
        }
      ],
      "stateMutability": "view",
      "type": "function"
    },
    {
      "inputs": [
        {
          "components": [
            {
              "internalType": "string",
              "name": "targetURI",
              "type": "string"
            },
            {
              "internalType": "string[]",
              "name": "tagStrings",
              "type": "string[]"
            },
            {
              "internalType": "string",
              "name": "recordType",
              "type": "string"
            }
          ],
          "internalType": "struct IETS.TaggingRecordRawInput[]",
          "name": "_rawInput",
          "type": "tuple[]"
        }
      ],
      "name": "removeTags",
      "outputs": [],
      "stateMutability": "payable",
      "type": "function"
    },
    {
      "inputs": [
        {
          "components": [
            {
              "internalType": "string",
              "name": "targetURI",
              "type": "string"
            },
            {
              "internalType": "string[]",
              "name": "tagStrings",
              "type": "string[]"
            },
            {
              "internalType": "string",
              "name": "recordType",
              "type": "string"
            }
          ],
          "internalType": "struct IETS.TaggingRecordRawInput[]",
          "name": "_rawInput",
          "type": "tuple[]"
        },
        {
          "internalType": "address",
          "name": "_relayer",
          "type": "address"
        }
      ],
      "name": "removeTagsViaRelayer",
      "outputs": [],
      "stateMutability": "payable",
      "type": "function"
    },
    {
      "inputs": [],
      "name": "renounceOwnership",
      "outputs": [],
      "stateMutability": "nonpayable",
      "type": "function"
    },
    {
      "inputs": [
        {
          "components": [
            {
              "internalType": "string",
              "name": "targetURI",
              "type": "string"
            },
            {
              "internalType": "string[]",
              "name": "tagStrings",
              "type": "string[]"
            },
            {
              "internalType": "string",
              "name": "recordType",
              "type": "string"
            }
          ],
          "internalType": "struct IETS.TaggingRecordRawInput[]",
          "name": "_rawInput",
          "type": "tuple[]"
        }
      ],
      "name": "replaceTags",
      "outputs": [],
      "stateMutability": "payable",
      "type": "function"
    },
    {
      "inputs": [
        {
          "components": [
            {
              "internalType": "string",
              "name": "targetURI",
              "type": "string"
            },
            {
              "internalType": "string[]",
              "name": "tagStrings",
              "type": "string[]"
            },
            {
              "internalType": "string",
              "name": "recordType",
              "type": "string"
            }
          ],
          "internalType": "struct IETS.TaggingRecordRawInput[]",
          "name": "_rawInput",
          "type": "tuple[]"
        },
        {
          "internalType": "address",
          "name": "_relayer",
          "type": "address"
        }
      ],
      "name": "replaceTagsViaRelayer",
      "outputs": [],
      "stateMutability": "payable",
      "type": "function"
    },
    {
      "inputs": [
        {
          "internalType": "bytes4",
          "name": "interfaceId",
          "type": "bytes4"
        }
      ],
      "name": "supportsInterface",
      "outputs": [
        {
          "internalType": "bool",
          "name": "",
          "type": "bool"
        }
      ],
      "stateMutability": "view",
      "type": "function"
    },
    {
      "inputs": [
        {
          "internalType": "address",
          "name": "newOwner",
          "type": "address"
        }
      ],
      "name": "transferOwnership",
      "outputs": [],
      "stateMutability": "nonpayable",
      "type": "function"
    },
    {
      "inputs": [],
      "name": "unpause",
      "outputs": [],
      "stateMutability": "nonpayable",
      "type": "function"
    },
    {
      "inputs": [],
      "name": "version",
      "outputs": [
        {
          "internalType": "string",
          "name": "",
          "type": "string"
        }
      ],
      "stateMutability": "view",
      "type": "function"
    },
    {
      "stateMutability": "payable",
      "type": "receive"
    }
  ],
  "numDeployments": 1,
  "solcInputHash": "e471eeaea25ffae79d2822e7e98866a5",
  "bytecode": "0x608060405234801561001057600080fd5b5061001961001e565b6100dd565b600054610100900460ff161561008a5760405162461bcd60e51b815260206004820152602760248201527f496e697469616c697a61626c653a20636f6e747261637420697320696e697469604482015266616c697a696e6760c81b606482015260840160405180910390fd5b60005460ff908116146100db576000805460ff191660ff9081179091556040519081527f7f26b83ff96e1f2b6a682f133852f6798a09c465da95921460cefb38474024989060200160405180910390a15b565b6121a180620000ed6000396000f3fe6080604052600436106101cf5760003560e01c806366c58e30116100f6578063a6f9dae11161008f578063f2fde38b11610061578063f2fde38b1461052d578063f796e5871461054d578063f8c8ef091461056d578063ffa1ad74146105a257005b8063a6f9dae1146104d0578063b187bd26146104f0578063d14ac53014610505578063e12bcd681461051857005b80638456cb59116100c85780638456cb591461043f578063893d20e8146104545780638da5cb5b14610469578063a3f4df7e1461048757005b806366c58e30146103c3578063715018a6146103d6578063743b7b1f146103eb5780638299f9f91461041f57005b80633f4ba83a1161016857806356c634891161013a57806356c63489146103565780635c975abb146103765780635edab3ed1461038e578063613facdd146103ae57005b80633f4ba83a146102d757806342a7bfa5146102ec57806346ca0f4d146102ff57806354fd4d501461031f57005b80631002bc83116101a15780631002bc831461027657806312065fe01461028957806315ccda22146102a457806324ba7b76146102c457005b806301ffc9a7146101d857806302d05d3f1461020d5780630ee2cb10146102455780630f9becab1461026357005b366101d657005b005b3480156101e457600080fd5b506101f86101f3366004611a9e565b6105d3565b60405190151581526020015b60405180910390f35b34801561021957600080fd5b5060ff5461022d906001600160a01b031681565b6040516001600160a01b039091168152602001610204565b34801561025157600080fd5b5060ff546001600160a01b031661022d565b6101d6610271366004611b14565b610623565b6101d6610284366004611b14565b61063a565b34801561029557600080fd5b50604051478152602001610204565b3480156102b057600080fd5b5060fb5461022d906001600160a01b031681565b6101d66102d2366004611b6b565b610649565b3480156102e357600080fd5b506101d66106a0565b6101d66102fa366004611b14565b610991565b34801561030b57600080fd5b5060fc5461022d906001600160a01b031681565b34801561032b57600080fd5b50604080518082019091526005815264302e312e3160d81b60208201525b6040516102049190611bc2565b34801561036257600080fd5b5060fd5461022d906001600160a01b031681565b34801561038257600080fd5b5060975460ff166101f8565b6103a161039c366004611b14565b6109a4565b6040516102049190611c17565b3480156103ba57600080fd5b50610349610acc565b6101d66103d1366004611b6b565b610b5f565b3480156103e257600080fd5b506101d6610c28565b3480156103f757600080fd5b50610406632365093960e01b81565b6040516001600160e01b03199091168152602001610204565b34801561042b57600080fd5b5060fe5461022d906001600160a01b031681565b34801561044b57600080fd5b506101d6610c3c565b34801561046057600080fd5b5061022d610d45565b34801561047557600080fd5b506065546001600160a01b031661022d565b34801561049357600080fd5b506103496040518060400160405280600b81526020017f4554532052656c6179657200000000000000000000000000000000000000000081525081565b3480156104dc57600080fd5b506101d66104eb366004611c5b565b610d5e565b3480156104fc57600080fd5b506101f8610e31565b6101d6610513366004611b6b565b610e3f565b34801561052457600080fd5b50610349610f01565b34801561053957600080fd5b506101d6610548366004611c5b565b610f90565b34801561055957600080fd5b506101d6610568366004611c9e565b611020565b34801561057957600080fd5b5061058d610588366004611db3565b6111d8565b60408051928352602083019190915201610204565b3480156105ae57600080fd5b5061034960405180604001604052806005815260200164302e312e3160d81b81525081565b60006001600160e01b03198216632365093960e01b148061061d57507f01ffc9a7000000000000000000000000000000000000000000000000000000006001600160e01b03198316145b92915050565b61062b61125f565b610636828230610b5f565b5050565b61064261125f565b6106368282305b61065161125f565b60005b8281101561069a5761068a84848381811061067157610671611e0e565b90506020028101906106839190611e24565b33846112b2565b61069381611e44565b9050610654565b50505050565b6065546001600160a01b0316331480610755575060fe546001600160a01b03166391d148547f619071fe1792701f31c1707f419d418b505e01c7642551568874b32ede501d74336040516001600160e01b031960e085901b16815260048101929092526001600160a01b03166024820152604401602060405180830381865afa158015610731573d6000803e3d6000fd5b505050506040513d601f19601f820116820180604052508101906107559190611e6d565b6107a65760405162461bcd60e51b815260206004820152601860248201527f43616c6c6572206e6f742072656c617965722061646d696e000000000000000060448201526064015b60405180910390fd5b60fe546040517fa8e2f2350000000000000000000000000000000000000000000000000000000081523060048201526001600160a01b039091169063a8e2f23590602401602060405180830381865afa158015610807573d6000803e3d6000fd5b505050506040513d601f19601f8201168201806040525081019061082b9190611e6d565b156108785760405162461bcd60e51b815260206004820152601760248201527f556e70617573696e67206e6f74207065726d6974746564000000000000000000604482015260640161079d565b60fc546000906001600160a01b03166370a0823161089e6065546001600160a01b031690565b6040516001600160e01b031960e084901b1681526001600160a01b039091166004820152602401602060405180830381865afa1580156108e2573d6000803e3d6000fd5b505050506040513d601f19601f820116820180604052508101906109069190611e8f565b116109535760405162461bcd60e51b815260206004820152601460248201527f4f776e6572206d75737420686f6c642043544147000000000000000000000000604482015260640161079d565b61095b611336565b6040513081527fa3705e5a8cf0800dce2d7a76b8737622cbd3b3e9682c53da9eeccd99ad809373906020015b60405180910390a1565b61099961125f565b610636828230610e3f565b60606109ae61125f565b60008267ffffffffffffffff8111156109c9576109c9611c78565b6040519080825280602002602001820160405280156109f2578160200160208202803683370190505b50905060005b83811015610ac45760fb546001600160a01b031663a27eee3c868684818110610a2357610a23611e0e565b9050602002810190610a359190611ea8565b336040518463ffffffff1660e01b8152600401610a5493929190611f18565b6020604051808303816000875af1158015610a73573d6000803e3d6000fd5b505050506040513d601f19601f82011682018060405250810190610a979190611e8f565b828281518110610aa957610aa9611e0e565b6020908102919091010152610abd81611e44565b90506109f8565b509392505050565b60606101008054610adc90611f45565b80601f0160208091040260200160405190810160405280929190818152602001828054610b0890611f45565b8015610b555780601f10610b2a57610100808354040283529160200191610b55565b820191906000526020600020905b815481529060010190602001808311610b3857829003601f168201915b5050505050905090565b610b6761125f565b60fb546040805163fe52656f60e01b815290516000926001600160a01b03169163fe52656f9160048083019260209291908290030181865afa158015610bb1573d6000803e3d6000fd5b505050506040513d601f19601f82011682018060405250810190610bd59190611e8f565b905060005b83811015610c2157610c11858583818110610bf757610bf7611e0e565b9050602002810190610c099190611e24565b338585611383565b610c1a81611e44565b9050610bda565b5050505050565b610c306114e2565b610c3a600061153c565b565b6065546001600160a01b0316331480610cf1575060fe546001600160a01b03166391d148547f619071fe1792701f31c1707f419d418b505e01c7642551568874b32ede501d74336040516001600160e01b031960e085901b16815260048101929092526001600160a01b03166024820152604401602060405180830381865afa158015610ccd573d6000803e3d6000fd5b505050506040513d601f19601f82011682018060405250810190610cf19190611e6d565b610d3d5760405162461bcd60e51b815260206004820152601860248201527f43616c6c6572206e6f742072656c617965722061646d696e0000000000000000604482015260640161079d565b61095b61159b565b6000610d596065546001600160a01b031690565b905090565b610d666115d8565b610d6e6114e2565b60fe546001600160a01b0316638e0ed37c610d916065546001600160a01b031690565b6040516001600160e01b031960e084901b1681526001600160a01b0391821660048201529084166024820152604401600060405180830381600087803b158015610dda57600080fd5b505af1158015610dee573d6000803e3d6000fd5b50505050610dfb81610f90565b6040513081527f1896d39287b56639e55216c3dd2e10fe8adaab5264319ac3cc7020668ac6f1699060200160405180910390a150565b6000610d5960975460ff1690565b610e4761125f565b60fb546040805163fe52656f60e01b815290516000926001600160a01b03169163fe52656f9160048083019260209291908290030181865afa158015610e91573d6000803e3d6000fd5b505050506040513d601f19601f82011682018060405250810190610eb59190611e8f565b905060005b83811015610c2157610ef1858583818110610ed757610ed7611e0e565b9050602002810190610ee99190611e24565b33858561162a565b610efa81611e44565b9050610eba565b6101008054610f0f90611f45565b80601f0160208091040260200160405190810160405280929190818152602001828054610f3b90611f45565b8015610f885780601f10610f5d57610100808354040283529160200191610f88565b820191906000526020600020905b815481529060010190602001808311610f6b57829003601f168201915b505050505081565b610f986114e2565b6001600160a01b0381166110145760405162461bcd60e51b815260206004820152602660248201527f4f776e61626c653a206e6577206f776e657220697320746865207a65726f206160448201527f6464726573730000000000000000000000000000000000000000000000000000606482015260840161079d565b61101d8161153c565b50565b600054610100900460ff16158080156110405750600054600160ff909116105b8061105a5750303b15801561105a575060005460ff166001145b6110cc5760405162461bcd60e51b815260206004820152602e60248201527f496e697469616c697a61626c653a20636f6e747261637420697320616c72656160448201527f647920696e697469616c697a6564000000000000000000000000000000000000606482015260840161079d565b6000805460ff1916600117905580156110ef576000805461ff0019166101001790555b6110f761174f565b6110ff6117c2565b611107611835565b875161111b906101009060208b0190611a05565b5060fb805473ffffffffffffffffffffffffffffffffffffffff199081166001600160a01b038a81169190911790925560fc8054821689841617905560fd8054821688841617905560fe8054821687841617905560ff805490911691851691909117905561118882610f90565b80156111ce576000805461ff0019169055604051600181527f7f26b83ff96e1f2b6a682f133852f6798a09c465da95921460cefb38474024989060200160405180910390a15b5050505050505050565b60fb54604051630927cfbb60e21b815260009182916001600160a01b039091169063249f3eec906112139087903090339089906004016120d2565b6040805180830381865afa15801561122f573d6000803e3d6000fd5b505050506040513d601f19601f820116820180604052508101906112539190612114565b915091505b9250929050565b60975460ff1615610c3a5760405162461bcd60e51b815260206004820152601060248201527f5061757361626c653a2070617573656400000000000000000000000000000000604482015260640161079d565b60fb546040517f58f484690000000000000000000000000000000000000000000000000000000081526001600160a01b03909116906358f48469906112ff90869086908690600401612138565b600060405180830381600087803b15801561131957600080fd5b505af115801561132d573d6000803e3d6000fd5b50505050505050565b61133e6115d8565b6097805460ff191690557f5db9ee0a495bf2e6ff9c91a7834c1ba4fdd244a5e8aa4e537bd38aeae4b073aa335b6040516001600160a01b039091168152602001610987565b6000811561145a5760fb54604051630927cfbb60e21b81526000916001600160a01b03169063249f3eec906113c390899088908a906001906004016120d2565b6040805180830381865afa1580156113df573d6000803e3d6000fd5b505050506040513d601f19601f820116820180604052508101906114039190612114565b9092509050478211156114585760405162461bcd60e51b815260206004820152601260248201527f496e73756666696369656e742066756e64730000000000000000000000000000604482015260640161079d565b505b60fb546040517fbcec58f70000000000000000000000000000000000000000000000000000000081526001600160a01b039091169063bcec58f79083906114a990899089908990600401612138565b6000604051808303818588803b1580156114c257600080fd5b505af11580156114d6573d6000803e3d6000fd5b50505050505050505050565b6065546001600160a01b03163314610c3a5760405162461bcd60e51b815260206004820181905260248201527f4f776e61626c653a2063616c6c6572206973206e6f7420746865206f776e6572604482015260640161079d565b606580546001600160a01b0383811673ffffffffffffffffffffffffffffffffffffffff19831681179093556040519116919082907f8be0079c531659141344cd1fd0a4f28419497f9722a3daafe3b4186f6b6457e090600090a35050565b6115a361125f565b6097805460ff191660011790557f62e78cea01bee320cd4e420270b5ea74000d11b0c9f74754ebdbfc544b05a25861136b3390565b60975460ff16610c3a5760405162461bcd60e51b815260206004820152601460248201527f5061757361626c653a206e6f7420706175736564000000000000000000000000604482015260640161079d565b600081156117005760fb54604051630927cfbb60e21b81526000916001600160a01b03169063249f3eec9061166990899088908a9087906004016120d2565b6040805180830381865afa158015611685573d6000803e3d6000fd5b505050506040513d601f19601f820116820180604052508101906116a99190612114565b9092509050478211156116fe5760405162461bcd60e51b815260206004820152601260248201527f496e73756666696369656e742066756e64730000000000000000000000000000604482015260640161079d565b505b60fb546040517ff8e6135e0000000000000000000000000000000000000000000000000000000081526001600160a01b039091169063f8e6135e9083906114a990899089908990600401612138565b600054610100900460ff166117ba5760405162461bcd60e51b815260206004820152602b60248201527f496e697469616c697a61626c653a20636f6e7472616374206973206e6f74206960448201526a6e697469616c697a696e6760a81b606482015260840161079d565b610c3a6118a8565b600054610100900460ff1661182d5760405162461bcd60e51b815260206004820152602b60248201527f496e697469616c697a61626c653a20636f6e7472616374206973206e6f74206960448201526a6e697469616c697a696e6760a81b606482015260840161079d565b610c3a61191f565b600054610100900460ff166118a05760405162461bcd60e51b815260206004820152602b60248201527f496e697469616c697a61626c653a20636f6e7472616374206973206e6f74206960448201526a6e697469616c697a696e6760a81b606482015260840161079d565b610c3a611993565b600054610100900460ff166119135760405162461bcd60e51b815260206004820152602b60248201527f496e697469616c697a61626c653a20636f6e7472616374206973206e6f74206960448201526a6e697469616c697a696e6760a81b606482015260840161079d565b6097805460ff19169055565b600054610100900460ff1661198a5760405162461bcd60e51b815260206004820152602b60248201527f496e697469616c697a61626c653a20636f6e7472616374206973206e6f74206960448201526a6e697469616c697a696e6760a81b606482015260840161079d565b610c3a3361153c565b600054610100900460ff166119fe5760405162461bcd60e51b815260206004820152602b60248201527f496e697469616c697a61626c653a20636f6e7472616374206973206e6f74206960448201526a6e697469616c697a696e6760a81b606482015260840161079d565b600160c955565b828054611a1190611f45565b90600052602060002090601f016020900481019282611a335760008555611a79565b82601f10611a4c57805160ff1916838001178555611a79565b82800160010185558215611a79579182015b82811115611a79578251825591602001919060010190611a5e565b50611a85929150611a89565b5090565b5b80821115611a855760008155600101611a8a565b600060208284031215611ab057600080fd5b81356001600160e01b031981168114611ac857600080fd5b9392505050565b60008083601f840112611ae157600080fd5b50813567ffffffffffffffff811115611af957600080fd5b6020830191508360208260051b850101111561125857600080fd5b60008060208385031215611b2757600080fd5b823567ffffffffffffffff811115611b3e57600080fd5b611b4a85828601611acf565b90969095509350505050565b6001600160a01b038116811461101d57600080fd5b600080600060408486031215611b8057600080fd5b833567ffffffffffffffff811115611b9757600080fd5b611ba386828701611acf565b9094509250506020840135611bb781611b56565b809150509250925092565b600060208083528351808285015260005b81811015611bef57858101830151858201604001528201611bd3565b81811115611c01576000604083870101525b50601f01601f1916929092016040019392505050565b6020808252825182820181905260009190848201906040850190845b81811015611c4f57835183529284019291840191600101611c33565b50909695505050505050565b600060208284031215611c6d57600080fd5b8135611ac881611b56565b634e487b7160e01b600052604160045260246000fd5b8035611c9981611b56565b919050565b600080600080600080600060e0888a031215611cb957600080fd5b873567ffffffffffffffff80821115611cd157600080fd5b818a0191508a601f830112611ce557600080fd5b813581811115611cf757611cf7611c78565b604051601f8201601f19908116603f01168101908382118183101715611d1f57611d1f611c78565b816040528281528d6020848701011115611d3857600080fd5b82602086016020830137600060208483010152809b505050505050611d5f60208901611c8e565b9550611d6d60408901611c8e565b9450611d7b60608901611c8e565b9350611d8960808901611c8e565b9250611d9760a08901611c8e565b9150611da560c08901611c8e565b905092959891949750929550565b60008060408385031215611dc657600080fd5b823567ffffffffffffffff811115611ddd57600080fd5b830160608186031215611def57600080fd5b9150602083013560038110611e0357600080fd5b809150509250929050565b634e487b7160e01b600052603260045260246000fd5b60008235605e19833603018112611e3a57600080fd5b9190910192915050565b6000600019821415611e6657634e487b7160e01b600052601160045260246000fd5b5060010190565b600060208284031215611e7f57600080fd5b81518015158114611ac857600080fd5b600060208284031215611ea157600080fd5b5051919050565b6000808335601e19843603018112611ebf57600080fd5b83018035915067ffffffffffffffff821115611eda57600080fd5b60200191503681900382131561125857600080fd5b81835281816020850137506000828201602090810191909152601f909101601f19169091010190565b604081526000611f2c604083018587611eef565b90506001600160a01b0383166020830152949350505050565b600181811c90821680611f5957607f821691505b60208210811415611f7a57634e487b7160e01b600052602260045260246000fd5b50919050565b6000808335601e19843603018112611f9757600080fd5b830160208101925035905067ffffffffffffffff811115611fb757600080fd5b80360383131561125857600080fd5b6000611fd28283611f80565b60608552611fe4606086018284611eef565b915050602080840135601e19853603018112611fff57600080fd5b8401818101903567ffffffffffffffff81111561201b57600080fd5b8060051b80360387131561202e57600080fd5b87850384890152818552840183018385018360005b8481101561207d57878403601f1901835261205e8287611f80565b612069868284611eef565b955050509186019190860190600101612043565b50505061208d6040880188611f80565b9550935087810360408901526120a4818686611eef565b98975050505050505050565b600381106120ce57634e487b7160e01b600052602160045260246000fd5b9052565b6080815260006120e56080830187611fc6565b6001600160a01b03868116602085015285166040840152905061210b60608301846120b0565b95945050505050565b6000806040838503121561212757600080fd5b505080516020909101519092909150565b60608152600061214b6060830186611fc6565b6001600160a01b039485166020840152929093166040909101529291505056fea26469706673582212206bb70d55a32e861f40f7cc11e8c26013fd3c5be630dfb9a39e90b2fdbd959e8064736f6c634300080c0033",
  "devdoc": {
    "kind": "dev",
    "methods": {
      "applyTags((string,string[],string)[])": {
        "params": {
          "_rawInput": "Array of tagging record inputs containing target URIs and tag strings"
        }
      },
      "applyTagsViaRelayer((string,string[],string)[],address)": {
        "params": {
          "_rawInput": "Array of tagging record inputs containing target URIs and tag strings",
          "_relayer": "Address of relayer to use. For new records must be this relayer, for modifications can be any relayer"
        }
      },
      "changeOwner(address)": {
        "details": "This function can only be called by the owner when the contract is paused.",
        "params": {
          "newOwner": "Address of the new contract owner."
        }
      },
      "computeTaggingFee((string,string[],string),uint8)": {
        "params": {
          "_action": "Integer representing action to be performed according to enum TaggingAction.",
          "_rawInput": "Raw client input data formed as TaggingRecordRawInput struct."
        },
        "returns": {
          "fee": "Calculated tagging fee in ETH/Matic",
          "tagCount": "Number of new tags being added to tagging record."
        }
      },
      "constructor": {
        "custom:oz-upgrades-unsafe-allow": "constructor"
      },
      "getCreator()": {
        "returns": {
          "_0": "address of the creator of the Relayer contract."
        }
      },
      "getOrCreateTagIds(string[])": {
        "params": {
          "_tags": "Array of tag strings."
        },
        "returns": {
          "_tagIds": "Array of Id of CTAG Ids."
        }
      },
      "getOwner()": {
        "returns": {
          "_0": "address of contract owner."
        }
      },
      "getRelayerName()": {
        "returns": {
          "_0": "name of the Relayer contract as a string."
        }
      },
      "isPaused()": {
        "details": "Pause functionality should be provided by OpenZeppelin Pausable utility.",
        "returns": {
          "_0": "boolean: true for paused; false for not paused."
        }
      },
      "owner()": {
        "details": "Returns the address of the current owner."
      },
      "pause()": {
        "details": "This function can only be called by the owner when the contract is unpaused."
      },
      "paused()": {
        "details": "Returns true if the contract is paused, and false otherwise."
      },
      "removeTags((string,string[],string)[])": {
        "params": {
          "_rawInput": "Array of tagging record inputs containing target URIs and tag strings"
        }
      },
      "removeTagsViaRelayer((string,string[],string)[],address)": {
        "params": {
          "_rawInput": "Array of tagging record inputs containing target URIs and tag strings",
          "_relayer": "Address of relayer to use. For new records must be this relayer, for modifications can be any relayer"
        }
      },
      "renounceOwnership()": {
        "details": "Leaves the contract without owner. It will not be possible to call `onlyOwner` functions. Can only be called by the current owner. NOTE: Renouncing ownership will leave the contract without an owner, thereby disabling any functionality that is only available to the owner."
      },
      "replaceTags((string,string[],string)[])": {
        "params": {
          "_rawInput": "Array of tagging record inputs containing target URIs and tag strings"
        }
      },
      "replaceTagsViaRelayer((string,string[],string)[],address)": {
        "params": {
          "_rawInput": "Array of tagging record inputs containing target URIs and tag strings",
          "_relayer": "Address of relayer to use. For new records must be this relayer, for modifications can be any relayer"
        }
      },
      "supportsInterface(bytes4)": {
        "details": "See {IERC165-supportsInterface}."
      },
      "transferOwnership(address)": {
        "details": "Transfers ownership of the contract to a new account (`newOwner`). Can only be called by the current owner."
      },
      "unpause()": {
        "details": "This function can only be called by the owner when the contract is paused."
      }
    },
    "stateVariables": {
      "ets": {
        "details": "Address and interface for ETS Core."
      },
      "etsAccessControls": {
        "details": "Address and interface for ETS Access Controls."
      },
      "etsTarget": {
        "details": "Address and interface for ETS Target."
      },
      "etsToken": {
        "details": "Address and interface for ETS Token"
      },
      "relayerName": {
        "details": "Public name for Relayer instance."
      }
    },
    "version": 1
  },
  "userdoc": {
    "kind": "user",
    "methods": {
      "applyTags((string,string[],string)[])": {
        "notice": "Apply tags to target URIs. Creates new tagging records using this relayer."
      },
      "applyTagsViaRelayer((string,string[],string)[],address)": {
        "notice": "Apply tags to target URIs. Creates new tagging records or modifies existing ones using specified relayer."
      },
      "changeOwner(address)": {
        "notice": "Transfer this contract to a new owner."
      },
      "computeTaggingFee((string,string[],string),uint8)": {
        "notice": "Compute tagging fee for raw input and desired action."
      },
      "creator()": {
        "notice": "Address that built this smart contract."
      },
      "getCreator()": {
        "notice": "Returns address of an IETSRelayer contract creator."
      },
      "getOrCreateTagIds(string[])": {
        "notice": "Get or create CTAG tokens from tag strings. Combo function that accepts a tag strings and returns corresponding CTAG token Id if it exists, or if it doesn't exist, creates a new CTAG and then returns corresponding Id. Only ETS Publisher contracts may call this function."
      },
      "getOwner()": {
        "notice": "Returns address of an IETSRelayer contract owner."
      },
      "getRelayerName()": {
        "notice": "Returns human readable name for this IETSRelayer contract."
      },
      "isPaused()": {
        "notice": "Check whether this contract has been pasued by the owner."
      },
      "pause()": {
        "notice": "Pause this relayer contract."
      },
      "removeTags((string,string[],string)[])": {
        "notice": "Remove tags from target URIs using this relayer"
      },
      "removeTagsViaRelayer((string,string[],string)[],address)": {
        "notice": "Remove tags from target URIs using specified relayer"
      },
      "replaceTags((string,string[],string)[])": {
        "notice": "Replace tags on target URIs using this relayer"
      },
      "replaceTagsViaRelayer((string,string[],string)[],address)": {
        "notice": "Replace tags on target URIs using specified relayer"
      },
      "unpause()": {
        "notice": "Unpause this relayer contract."
      }
    },
    "version": 1
  },
  "storageLayout": {
    "storage": [
      {
        "astId": 915,
        "contract": "contracts/relayers/ETSRelayer.sol:ETSRelayer",
        "label": "_initialized",
        "offset": 0,
        "slot": "0",
        "type": "t_uint8"
      },
      {
        "astId": 918,
        "contract": "contracts/relayers/ETSRelayer.sol:ETSRelayer",
        "label": "_initializing",
        "offset": 1,
        "slot": "0",
        "type": "t_bool"
      },
      {
        "astId": 4178,
        "contract": "contracts/relayers/ETSRelayer.sol:ETSRelayer",
        "label": "__gap",
        "offset": 0,
        "slot": "1",
        "type": "t_array(t_uint256)50_storage"
      },
      {
        "astId": 3526,
        "contract": "contracts/relayers/ETSRelayer.sol:ETSRelayer",
        "label": "__gap",
        "offset": 0,
        "slot": "51",
        "type": "t_array(t_uint256)50_storage"
      },
      {
        "astId": 421,
        "contract": "contracts/relayers/ETSRelayer.sol:ETSRelayer",
        "label": "_owner",
        "offset": 0,
        "slot": "101",
        "type": "t_address"
      },
      {
        "astId": 541,
        "contract": "contracts/relayers/ETSRelayer.sol:ETSRelayer",
        "label": "__gap",
        "offset": 0,
        "slot": "102",
        "type": "t_array(t_uint256)49_storage"
      },
      {
        "astId": 1236,
        "contract": "contracts/relayers/ETSRelayer.sol:ETSRelayer",
        "label": "_paused",
        "offset": 0,
        "slot": "151",
        "type": "t_bool"
      },
      {
        "astId": 1341,
        "contract": "contracts/relayers/ETSRelayer.sol:ETSRelayer",
        "label": "__gap",
        "offset": 0,
        "slot": "152",
        "type": "t_array(t_uint256)49_storage"
      },
      {
        "astId": 1357,
        "contract": "contracts/relayers/ETSRelayer.sol:ETSRelayer",
        "label": "_status",
        "offset": 0,
        "slot": "201",
        "type": "t_uint256"
      },
      {
        "astId": 1426,
        "contract": "contracts/relayers/ETSRelayer.sol:ETSRelayer",
        "label": "__gap",
        "offset": 0,
        "slot": "202",
        "type": "t_array(t_uint256)49_storage"
      },
      {
        "astId": 16299,
        "contract": "contracts/relayers/ETSRelayer.sol:ETSRelayer",
        "label": "ets",
        "offset": 0,
        "slot": "251",
        "type": "t_contract(IETS)14716"
      },
      {
        "astId": 16303,
        "contract": "contracts/relayers/ETSRelayer.sol:ETSRelayer",
        "label": "etsToken",
        "offset": 0,
        "slot": "252",
        "type": "t_contract(IETSToken)15465"
      },
      {
        "astId": 16307,
        "contract": "contracts/relayers/ETSRelayer.sol:ETSRelayer",
        "label": "etsTarget",
        "offset": 0,
        "slot": "253",
        "type": "t_contract(IETSTarget)15228"
      },
      {
        "astId": 16311,
        "contract": "contracts/relayers/ETSRelayer.sol:ETSRelayer",
        "label": "etsAccessControls",
        "offset": 0,
        "slot": "254",
        "type": "t_contract(IETSAccessControls)14902"
      },
      {
        "astId": 16326,
        "contract": "contracts/relayers/ETSRelayer.sol:ETSRelayer",
        "label": "creator",
        "offset": 0,
        "slot": "255",
        "type": "t_address_payable"
      },
      {
        "astId": 16329,
        "contract": "contracts/relayers/ETSRelayer.sol:ETSRelayer",
        "label": "relayerName",
        "offset": 0,
        "slot": "256",
        "type": "t_string_storage"
      }
    ],
    "types": {
      "t_address": {
        "encoding": "inplace",
        "label": "address",
        "numberOfBytes": "20"
      },
      "t_address_payable": {
        "encoding": "inplace",
        "label": "address payable",
        "numberOfBytes": "20"
      },
      "t_array(t_uint256)49_storage": {
        "base": "t_uint256",
        "encoding": "inplace",
        "label": "uint256[49]",
        "numberOfBytes": "1568"
      },
      "t_array(t_uint256)50_storage": {
        "base": "t_uint256",
        "encoding": "inplace",
        "label": "uint256[50]",
        "numberOfBytes": "1600"
      },
      "t_bool": {
        "encoding": "inplace",
        "label": "bool",
        "numberOfBytes": "1"
      },
      "t_contract(IETS)14716": {
        "encoding": "inplace",
        "label": "contract IETS",
        "numberOfBytes": "20"
      },
      "t_contract(IETSAccessControls)14902": {
        "encoding": "inplace",
        "label": "contract IETSAccessControls",
        "numberOfBytes": "20"
      },
      "t_contract(IETSTarget)15228": {
        "encoding": "inplace",
        "label": "contract IETSTarget",
        "numberOfBytes": "20"
      },
      "t_contract(IETSToken)15465": {
        "encoding": "inplace",
        "label": "contract IETSToken",
        "numberOfBytes": "20"
      },
      "t_string_storage": {
        "encoding": "bytes",
        "label": "string",
        "numberOfBytes": "32"
      },
      "t_uint256": {
        "encoding": "inplace",
        "label": "uint256",
        "numberOfBytes": "32"
      },
      "t_uint8": {
        "encoding": "inplace",
        "label": "uint8",
        "numberOfBytes": "1"
      }
    }
  }
}