{
  "address": "0x9EC822cB62B1EBba70446EB7FeBeFae2458CB19c",
  "abi": [
    {
      "inputs": [],
      "stateMutability": "nonpayable",
      "type": "constructor"
    },
    {
      "anonymous": false,
      "inputs": [
        {
          "indexed": false,
          "internalType": "address",
          "name": "etsAccessControls",
          "type": "address"
        }
      ],
      "name": "AccessControlsSet",
      "type": "event"
    },
    {
      "anonymous": false,
      "inputs": [
        {
          "indexed": false,
          "internalType": "address",
          "name": "previousAdmin",
          "type": "address"
        },
        {
          "indexed": false,
          "internalType": "address",
          "name": "newAdmin",
          "type": "address"
        }
      ],
      "name": "AdminChanged",
      "type": "event"
    },
    {
      "anonymous": false,
      "inputs": [
        {
          "indexed": true,
          "internalType": "address",
          "name": "beacon",
          "type": "address"
        }
      ],
      "name": "BeaconUpgraded",
      "type": "event"
    },
    {
      "anonymous": false,
      "inputs": [
        {
          "indexed": false,
          "internalType": "address",
          "name": "etsEnrichTarget",
          "type": "address"
        }
      ],
      "name": "EnrichTargetSet",
      "type": "event"
    },
    {
      "anonymous": false,
      "inputs": [
        {
          "indexed": false,
          "internalType": "uint8",
          "name": "version",
          "type": "uint8"
        }
      ],
      "name": "Initialized",
      "type": "event"
    },
    {
      "anonymous": false,
      "inputs": [
        {
          "indexed": false,
          "internalType": "uint256",
          "name": "targetId",
          "type": "uint256"
        }
      ],
      "name": "TargetCreated",
      "type": "event"
    },
    {
      "anonymous": false,
      "inputs": [
        {
          "indexed": false,
          "internalType": "uint256",
          "name": "targetId",
          "type": "uint256"
        }
      ],
      "name": "TargetUpdated",
      "type": "event"
    },
    {
      "anonymous": false,
      "inputs": [
        {
          "indexed": true,
          "internalType": "address",
          "name": "implementation",
          "type": "address"
        }
      ],
      "name": "Upgraded",
      "type": "event"
    },
    {
      "inputs": [],
      "name": "NAME",
      "outputs": [
        {
          "internalType": "string",
          "name": "",
          "type": "string"
        }
      ],
      "stateMutability": "view",
      "type": "function"
    },
    {
      "inputs": [],
      "name": "VERSION",
      "outputs": [
        {
          "internalType": "string",
          "name": "",
          "type": "string"
        }
      ],
      "stateMutability": "view",
      "type": "function"
    },
    {
      "inputs": [
        {
          "internalType": "string",
          "name": "_targetURI",
          "type": "string"
        }
      ],
      "name": "computeTargetId",
      "outputs": [
        {
          "internalType": "uint256",
          "name": "",
          "type": "uint256"
        }
      ],
      "stateMutability": "pure",
      "type": "function"
    },
    {
      "inputs": [
        {
          "internalType": "string",
          "name": "_targetURI",
          "type": "string"
        }
      ],
      "name": "createTarget",
      "outputs": [
        {
          "internalType": "uint256",
          "name": "targetId",
          "type": "uint256"
        }
      ],
      "stateMutability": "nonpayable",
      "type": "function"
    },
    {
      "inputs": [],
      "name": "etsAccessControls",
      "outputs": [
        {
          "internalType": "contract IETSAccessControls",
          "name": "",
          "type": "address"
        }
      ],
      "stateMutability": "view",
      "type": "function"
    },
    {
      "inputs": [],
      "name": "etsEnrichTarget",
      "outputs": [
        {
          "internalType": "contract IETSEnrichTarget",
          "name": "",
          "type": "address"
        }
      ],
      "stateMutability": "view",
      "type": "function"
    },
    {
      "inputs": [
        {
          "internalType": "string",
          "name": "_targetURI",
          "type": "string"
        }
      ],
      "name": "getOrCreateTargetId",
      "outputs": [
        {
          "internalType": "uint256",
          "name": "",
          "type": "uint256"
        }
      ],
      "stateMutability": "nonpayable",
      "type": "function"
    },
    {
      "inputs": [
        {
          "internalType": "uint256",
          "name": "_targetId",
          "type": "uint256"
        }
      ],
      "name": "getTargetById",
      "outputs": [
        {
          "components": [
            {
              "internalType": "string",
              "name": "targetURI",
              "type": "string"
            },
            {
              "internalType": "address",
              "name": "createdBy",
              "type": "address"
            },
            {
              "internalType": "uint256",
              "name": "enriched",
              "type": "uint256"
            },
            {
              "internalType": "uint256",
              "name": "httpStatus",
              "type": "uint256"
            },
            {
              "internalType": "string",
              "name": "ipfsHash",
              "type": "string"
            }
          ],
          "internalType": "struct IETSTarget.Target",
          "name": "",
          "type": "tuple"
        }
      ],
      "stateMutability": "view",
      "type": "function"
    },
    {
      "inputs": [
        {
          "internalType": "string",
          "name": "_targetURI",
          "type": "string"
        }
      ],
      "name": "getTargetByURI",
      "outputs": [
        {
          "components": [
            {
              "internalType": "string",
              "name": "targetURI",
              "type": "string"
            },
            {
              "internalType": "address",
              "name": "createdBy",
              "type": "address"
            },
            {
              "internalType": "uint256",
              "name": "enriched",
              "type": "uint256"
            },
            {
              "internalType": "uint256",
              "name": "httpStatus",
              "type": "uint256"
            },
            {
              "internalType": "string",
              "name": "ipfsHash",
              "type": "string"
            }
          ],
          "internalType": "struct IETSTarget.Target",
          "name": "",
          "type": "tuple"
        }
      ],
      "stateMutability": "view",
      "type": "function"
    },
    {
      "inputs": [
        {
          "internalType": "address",
          "name": "_etsAccessControls",
          "type": "address"
        }
      ],
      "name": "initialize",
      "outputs": [],
      "stateMutability": "nonpayable",
      "type": "function"
    },
    {
      "inputs": [],
      "name": "proxiableUUID",
      "outputs": [
        {
          "internalType": "bytes32",
          "name": "",
          "type": "bytes32"
        }
      ],
      "stateMutability": "view",
      "type": "function"
    },
    {
      "inputs": [
        {
          "internalType": "contract IETSAccessControls",
          "name": "_accessControls",
          "type": "address"
        }
      ],
      "name": "setAccessControls",
      "outputs": [],
      "stateMutability": "nonpayable",
      "type": "function"
    },
    {
      "inputs": [
        {
          "internalType": "address",
          "name": "_etsEnrichTarget",
          "type": "address"
        }
      ],
      "name": "setEnrichTarget",
      "outputs": [],
      "stateMutability": "nonpayable",
      "type": "function"
    },
    {
      "inputs": [
        {
          "internalType": "uint256",
          "name": "_targetId",
          "type": "uint256"
        }
      ],
      "name": "targetExistsById",
      "outputs": [
        {
          "internalType": "bool",
          "name": "",
          "type": "bool"
        }
      ],
      "stateMutability": "view",
      "type": "function"
    },
    {
      "inputs": [
        {
          "internalType": "string",
          "name": "_targetURI",
          "type": "string"
        }
      ],
      "name": "targetExistsByURI",
      "outputs": [
        {
          "internalType": "bool",
          "name": "",
          "type": "bool"
        }
      ],
      "stateMutability": "view",
      "type": "function"
    },
    {
      "inputs": [
        {
          "internalType": "uint256",
          "name": "",
          "type": "uint256"
        }
      ],
      "name": "targets",
      "outputs": [
        {
          "internalType": "string",
          "name": "targetURI",
          "type": "string"
        },
        {
          "internalType": "address",
          "name": "createdBy",
          "type": "address"
        },
        {
          "internalType": "uint256",
          "name": "enriched",
          "type": "uint256"
        },
        {
          "internalType": "uint256",
          "name": "httpStatus",
          "type": "uint256"
        },
        {
          "internalType": "string",
          "name": "ipfsHash",
          "type": "string"
        }
      ],
      "stateMutability": "view",
      "type": "function"
    },
    {
      "inputs": [
        {
          "internalType": "uint256",
          "name": "_targetId",
          "type": "uint256"
        },
        {
          "internalType": "string",
          "name": "_targetURI",
          "type": "string"
        },
        {
          "internalType": "uint256",
          "name": "_enriched",
          "type": "uint256"
        },
        {
          "internalType": "uint256",
          "name": "_httpStatus",
          "type": "uint256"
        },
        {
          "internalType": "string",
          "name": "_ipfsHash",
          "type": "string"
        }
      ],
      "name": "updateTarget",
      "outputs": [
        {
          "internalType": "bool",
          "name": "success",
          "type": "bool"
        }
      ],
      "stateMutability": "nonpayable",
      "type": "function"
    },
    {
      "inputs": [
        {
          "internalType": "address",
          "name": "newImplementation",
          "type": "address"
        }
      ],
      "name": "upgradeTo",
      "outputs": [],
      "stateMutability": "nonpayable",
      "type": "function"
    },
    {
      "inputs": [
        {
          "internalType": "address",
          "name": "newImplementation",
          "type": "address"
        },
        {
          "internalType": "bytes",
          "name": "data",
          "type": "bytes"
        }
      ],
      "name": "upgradeToAndCall",
      "outputs": [],
      "stateMutability": "payable",
      "type": "function"
    }
  ],
  "numDeployments": 1,
  "solcInputHash": "e471eeaea25ffae79d2822e7e98866a5",
  "bytecode": "0x60a06040523060805234801561001457600080fd5b5061001d610022565b6100e1565b600054610100900460ff161561008e5760405162461bcd60e51b815260206004820152602760248201527f496e697469616c697a61626c653a20636f6e747261637420697320696e697469604482015266616c697a696e6760c81b606482015260840160405180910390fd5b60005460ff908116146100df576000805460ff191660ff9081179091556040519081527f7f26b83ff96e1f2b6a682f133852f6798a09c465da95921460cefb38474024989060200160405180910390a15b565b608051611cf06101186000396000818161090c0152818161099101528181610a8801528181610b0d0152610bf70152611cf06000f3fe6080604052600436106101445760003560e01c8063794e75fc116100c0578063cd15832f11610074578063cf99c81511610059578063cf99c815146103cc578063f0496c86146103ec578063ffa1ad741461040c57600080fd5b8063cd15832f1461038c578063cd7c68e2146103ac57600080fd5b80638299f9f9116100a55780638299f9f9146102f6578063a3f4df7e14610316578063c4d66de81461036c57600080fd5b8063794e75fc146102b65780637ab3f1cd146102d657600080fd5b806323c7e9f3116101175780633659cfe6116100fc5780633659cfe61461026c5780634f1ef2861461028e57806352d1902d146102a157600080fd5b806323c7e9f31461021857806331bb0c691461024c57600080fd5b80630a39ce02146101495780630c48789c146101835780631b2d87c3146101b35780631b8278e2146101e0575b600080fd5b34801561015557600080fd5b50610169610164366004611887565b610455565b60405161017a9594939291906118f8565b60405180910390f35b34801561018f57600080fd5b506101a361019e3660046119d0565b6105a2565b604051901515815260200161017a565b3480156101bf57600080fd5b506101d36101ce366004611887565b6105bc565b60405161017a9190611a19565b3480156101ec57600080fd5b50606654610200906001600160a01b031681565b6040516001600160a01b03909116815260200161017a565b34801561022457600080fd5b5061023e6102333660046119d0565b805160209091012090565b60405190815260200161017a565b34801561025857600080fd5b5061023e6102673660046119d0565b610765565b34801561027857600080fd5b5061028c610287366004611a97565b610901565b005b61028c61029c366004611ab4565b610a7d565b3480156102ad57600080fd5b5061023e610bea565b3480156102c257600080fd5b506101d36102d13660046119d0565b610caf565b3480156102e257600080fd5b506101a36102f1366004611b61565b610cfa565b34801561030257600080fd5b50606554610200906001600160a01b031681565b34801561032257600080fd5b5061035f6040518060400160405280600981526020017f455453546172676574000000000000000000000000000000000000000000000081525081565b60405161017a9190611bee565b34801561037857600080fd5b5061028c610387366004611a97565b610dcd565b34801561039857600080fd5b5061028c6103a7366004611a97565b610f00565b3480156103b857600080fd5b506101a36103c7366004611887565b611107565b3480156103d857600080fd5b5061023e6103e73660046119d0565b61113a565b3480156103f857600080fd5b5061028c610407366004611a97565b611178565b34801561041857600080fd5b5061035f6040518060400160405280600581526020017f302e302e3100000000000000000000000000000000000000000000000000000081525081565b60676020526000908152604090208054819061047090611c01565b80601f016020809104026020016040519081016040528092919081815260200182805461049c90611c01565b80156104e95780601f106104be576101008083540402835291602001916104e9565b820191906000526020600020905b8154815290600101906020018083116104cc57829003601f168201915b50505060018401546002850154600386015460048701805496976001600160a01b03909416969295509093509061051f90611c01565b80601f016020809104026020016040519081016040528092919081815260200182805461054b90611c01565b80156105985780601f1061056d57610100808354040283529160200191610598565b820191906000526020600020905b81548152906001019060200180831161057b57829003601f168201915b5050505050905085565b805160208201206000906105b581611107565b9392505050565b6105f76040518060a001604052806060815260200160006001600160a01b031681526020016000815260200160008152602001606081525090565b60008281526067602052604090819020815160a0810190925280548290829061061f90611c01565b80601f016020809104026020016040519081016040528092919081815260200182805461064b90611c01565b80156106985780601f1061066d57610100808354040283529160200191610698565b820191906000526020600020905b81548152906001019060200180831161067b57829003601f168201915b505050918352505060018201546001600160a01b0316602082015260028201546040820152600382015460608201526004820180546080909201916106dc90611c01565b80601f016020809104026020016040519081016040528092919081815260200182805461070890611c01565b80156107555780601f1061072a57610100808354040283529160200191610755565b820191906000526020600020905b81548152906001019060200180831161073857829003601f168201915b5050505050815250509050919050565b6000610770826105a2565b156107c25760405162461bcd60e51b815260206004820152601060248201527f746172676574206964206578697374730000000000000000000000000000000060448201526064015b60405180910390fd5b60008251116108135760405162461bcd60e51b815260206004820152600c60248201527f656d70747920746172676574000000000000000000000000000000000000000060448201526064016107b9565b81516020808401919091206040805160a08101825285815233818501526000818301819052606082018190528251808601845281815260808301528381526067855291909120815180519394929391926108729284929091019061177a565b506020828101516001830180546001600160a01b0319166001600160a01b039092169190911790556040830151600283015560608301516003830155608083015180516108c5926004850192019061177a565b50506040518281527f503a6e6145f2d2a2a9b0845c2193aef653400c52f93b1c897bd55d36a396be7c915060200160405180910390a192915050565b306001600160a01b037f000000000000000000000000000000000000000000000000000000000000000016141561098f5760405162461bcd60e51b815260206004820152602c60248201527f46756e6374696f6e206d7573742062652063616c6c6564207468726f7567682060448201526b19195b1959d85d1958d85b1b60a21b60648201526084016107b9565b7f00000000000000000000000000000000000000000000000000000000000000006001600160a01b03166109ea7f360894a13ba1a3210667c828492db98dca3e2076cc3735a920a3ca505d382bbc546001600160a01b031690565b6001600160a01b031614610a555760405162461bcd60e51b815260206004820152602c60248201527f46756e6374696f6e206d7573742062652063616c6c6564207468726f7567682060448201526b6163746976652070726f787960a01b60648201526084016107b9565b610a5e816112c4565b60408051600080825260208201909252610a7a9183919061136c565b50565b306001600160a01b037f0000000000000000000000000000000000000000000000000000000000000000161415610b0b5760405162461bcd60e51b815260206004820152602c60248201527f46756e6374696f6e206d7573742062652063616c6c6564207468726f7567682060448201526b19195b1959d85d1958d85b1b60a21b60648201526084016107b9565b7f00000000000000000000000000000000000000000000000000000000000000006001600160a01b0316610b667f360894a13ba1a3210667c828492db98dca3e2076cc3735a920a3ca505d382bbc546001600160a01b031690565b6001600160a01b031614610bd15760405162461bcd60e51b815260206004820152602c60248201527f46756e6374696f6e206d7573742062652063616c6c6564207468726f7567682060448201526b6163746976652070726f787960a01b60648201526084016107b9565b610bda826112c4565b610be68282600161136c565b5050565b6000306001600160a01b037f00000000000000000000000000000000000000000000000000000000000000001614610c8a5760405162461bcd60e51b815260206004820152603860248201527f555550535570677261646561626c653a206d757374206e6f742062652063616c60448201527f6c6564207468726f7567682064656c656761746563616c6c000000000000000060648201526084016107b9565b507f360894a13ba1a3210667c828492db98dca3e2076cc3735a920a3ca505d382bbc90565b610cea6040518060a001604052806060815260200160006001600160a01b031681526020016000815260200160008152602001606081525090565b815160208301206105b5816105bc565b6066546000906001600160a01b03163314610d475760405162461bcd60e51b815260206004820152600d60248201526c1058d8d95cdcc819195b9a5959609a1b60448201526064016107b9565b6000888152606760205260409020610d609088886117fe565b5060008881526067602052604090206002810186905560038101859055610d8b9060040184846117fe565b506040518881527f9d29e5045b411bb06d81d8ff11c828d9f1d7eb076eec9ca45eda49fc99f762b29060200160405180910390a1506001979650505050505050565b600054610100900460ff1615808015610ded5750600054600160ff909116105b80610e075750303b158015610e07575060005460ff166001145b610e795760405162461bcd60e51b815260206004820152602e60248201527f496e697469616c697a61626c653a20636f6e747261637420697320616c72656160448201527f647920696e697469616c697a656400000000000000000000000000000000000060648201526084016107b9565b6000805460ff191660011790558015610e9c576000805461ff0019166101001790555b606580546001600160a01b0319166001600160a01b0384161790558015610be6576000805461ff0019169055604051600181527f7f26b83ff96e1f2b6a682f133852f6798a09c465da95921460cefb38474024989060200160405180910390a15050565b606554604051630935e01b60e21b81523360048201526001600160a01b03909116906324d7806c90602401602060405180830381865afa158015610f48573d6000803e3d6000fd5b505050506040513d601f19601f82011682018060405250810190610f6c9190611c3c565b610fa85760405162461bcd60e51b815260206004820152600d60248201526c1058d8d95cdcc819195b9a5959609a1b60448201526064016107b9565b6001600160a01b038116610ffe5760405162461bcd60e51b815260206004820152601660248201527f416464726573732063616e6e6f74206265207a65726f0000000000000000000060448201526064016107b9565b604051630935e01b60e21b81523360048201526001600160a01b038216906324d7806c90602401602060405180830381865afa158015611042573d6000803e3d6000fd5b505050506040513d601f19601f820116820180604052508101906110669190611c3c565b6110b25760405162461bcd60e51b815260206004820181905260248201527f43616c6c6572206e6f742061646d696e20696e206e657720636f6e747261637460448201526064016107b9565b606580546001600160a01b0319166001600160a01b0383169081179091556040519081527f2f55f724ae3134584dfdd86a4ee1e090635ff9913722b5fe06e064cc7e3ed8b4906020015b60405180910390a150565b6000818152606760205260408120805482919061112390611c01565b905011611131576000611134565b60015b92915050565b80516020808301919091206000818152606790925260408220805483919061116190611c01565b9050111561116f5792915050565b6105b583610765565b606554604051630935e01b60e21b81523360048201526001600160a01b03909116906324d7806c90602401602060405180830381865afa1580156111c0573d6000803e3d6000fd5b505050506040513d601f19601f820116820180604052508101906111e49190611c3c565b6112205760405162461bcd60e51b815260206004820152600d60248201526c1058d8d95cdcc819195b9a5959609a1b60448201526064016107b9565b6001600160a01b0381166112765760405162461bcd60e51b815260206004820152600b60248201527f426164206164647265737300000000000000000000000000000000000000000060448201526064016107b9565b606680546001600160a01b0319166001600160a01b0383169081179091556040519081527fe96313c1f3045cd25cc6a60c1f5b3511040581e2aa833e3e035e1cc5fb836670906020016110fc565b606554604051630935e01b60e21b81523360048201526001600160a01b03909116906324d7806c90602401602060405180830381865afa15801561130c573d6000803e3d6000fd5b505050506040513d601f19601f820116820180604052508101906113309190611c3c565b610a7a5760405162461bcd60e51b815260206004820152600d60248201526c1058d8d95cdcc819195b9a5959609a1b60448201526064016107b9565b7f4910fdfa16fed3260ed0e7147f7cc6da11a60208b5b9406d12a635614ffd91435460ff16156113a45761139f83611511565b505050565b826001600160a01b03166352d1902d6040518163ffffffff1660e01b8152600401602060405180830381865afa9250505080156113fe575060408051601f3d908101601f191682019092526113fb91810190611c5e565b60015b6114705760405162461bcd60e51b815260206004820152602e60248201527f45524331393637557067726164653a206e657720696d706c656d656e7461746960448201527f6f6e206973206e6f74205555505300000000000000000000000000000000000060648201526084016107b9565b7f360894a13ba1a3210667c828492db98dca3e2076cc3735a920a3ca505d382bbc81146115055760405162461bcd60e51b815260206004820152602960248201527f45524331393637557067726164653a20756e737570706f727465642070726f7860448201527f6961626c6555554944000000000000000000000000000000000000000000000060648201526084016107b9565b5061139f8383836115cf565b6001600160a01b0381163b61158e5760405162461bcd60e51b815260206004820152602d60248201527f455243313936373a206e657720696d706c656d656e746174696f6e206973206e60448201527f6f74206120636f6e74726163740000000000000000000000000000000000000060648201526084016107b9565b7f360894a13ba1a3210667c828492db98dca3e2076cc3735a920a3ca505d382bbc80546001600160a01b0319166001600160a01b0392909216919091179055565b6115d8836115fa565b6000825111806115e55750805b1561139f576115f4838361163a565b50505050565b61160381611511565b6040516001600160a01b038216907fbc7cd75a20ee27fd9adebab32041f755214dbc6bffa90cc0225b39da2e5c2d3b90600090a250565b60606105b58383604051806060016040528060278152602001611c94602791396060600080856001600160a01b0316856040516116779190611c77565b600060405180830381855af49150503d80600081146116b2576040519150601f19603f3d011682016040523d82523d6000602084013e6116b7565b606091505b50915091506116c8868383876116d2565b9695505050505050565b6060831561173e578251611737576001600160a01b0385163b6117375760405162461bcd60e51b815260206004820152601d60248201527f416464726573733a2063616c6c20746f206e6f6e2d636f6e747261637400000060448201526064016107b9565b5081611748565b6117488383611750565b949350505050565b8151156117605781518083602001fd5b8060405162461bcd60e51b81526004016107b99190611bee565b82805461178690611c01565b90600052602060002090601f0160209004810192826117a857600085556117ee565b82601f106117c157805160ff19168380011785556117ee565b828001600101855582156117ee579182015b828111156117ee5782518255916020019190600101906117d3565b506117fa929150611872565b5090565b82805461180a90611c01565b90600052602060002090601f01602090048101928261182c57600085556117ee565b82601f106118455782800160ff198235161785556117ee565b828001600101855582156117ee579182015b828111156117ee578235825591602001919060010190611857565b5b808211156117fa5760008155600101611873565b60006020828403121561189957600080fd5b5035919050565b60005b838110156118bb5781810151838201526020016118a3565b838111156115f45750506000910152565b600081518084526118e48160208601602086016118a0565b601f01601f19169290920160200192915050565b60a08152600061190b60a08301886118cc565b6001600160a01b0387166020840152856040840152846060840152828103608084015261193881856118cc565b98975050505050505050565b634e487b7160e01b600052604160045260246000fd5b600067ffffffffffffffff8084111561197557611975611944565b604051601f8501601f19908116603f0116810190828211818310171561199d5761199d611944565b816040528093508581528686860111156119b657600080fd5b858560208301376000602087830101525050509392505050565b6000602082840312156119e257600080fd5b813567ffffffffffffffff8111156119f957600080fd5b8201601f81018413611a0a57600080fd5b6117488482356020840161195a565b602081526000825160a06020840152611a3560c08401826118cc565b90506001600160a01b03602085015116604084015260408401516060840152606084015160808401526080840151601f198483030160a0850152611a7982826118cc565b95945050505050565b6001600160a01b0381168114610a7a57600080fd5b600060208284031215611aa957600080fd5b81356105b581611a82565b60008060408385031215611ac757600080fd5b8235611ad281611a82565b9150602083013567ffffffffffffffff811115611aee57600080fd5b8301601f81018513611aff57600080fd5b611b0e8582356020840161195a565b9150509250929050565b60008083601f840112611b2a57600080fd5b50813567ffffffffffffffff811115611b4257600080fd5b602083019150836020828501011115611b5a57600080fd5b9250929050565b600080600080600080600060a0888a031215611b7c57600080fd5b87359650602088013567ffffffffffffffff80821115611b9b57600080fd5b611ba78b838c01611b18565b909850965060408a0135955060608a0135945060808a0135915080821115611bce57600080fd5b50611bdb8a828b01611b18565b989b979a50959850939692959293505050565b6020815260006105b560208301846118cc565b600181811c90821680611c1557607f821691505b60208210811415611c3657634e487b7160e01b600052602260045260246000fd5b50919050565b600060208284031215611c4e57600080fd5b815180151581146105b557600080fd5b600060208284031215611c7057600080fd5b5051919050565b60008251611c898184602087016118a0565b919091019291505056fe416464726573733a206c6f772d6c6576656c2064656c65676174652063616c6c206661696c6564a264697066735822122068b9c34c6e90a44af8ce6992b3a08adff72f56e25b7e1f7abe01d55b35b4090964736f6c634300080c0033",
  "devdoc": {
    "kind": "dev",
    "methods": {
      "computeTargetId(string)": {
        "params": {
          "_targetURI": "Unique resource identifier Target record points to."
        },
        "returns": {
          "_0": "Id of the potential Target record."
        }
      },
      "constructor": {
        "custom:oz-upgrades-unsafe-allow": "constructor"
      },
      "createTarget(string)": {
        "params": {
          "_targetURI": "URI passed in as string"
        },
        "returns": {
          "targetId": "Id of ETS Target record"
        }
      },
      "getOrCreateTargetId(string)": {
        "params": {
          "_targetURI": "URI passed in as string"
        },
        "returns": {
          "_0": "Id of ETS Target record"
        }
      },
      "getTargetById(uint256)": {
        "params": {
          "_targetId": "targetId uint computed from URI via computeTargetId()."
        },
        "returns": {
          "_0": "Target record."
        }
      },
      "getTargetByURI(string)": {
        "params": {
          "_targetURI": "Unique resource identifier Target record points to."
        },
        "returns": {
          "_0": "Target record."
        }
      },
      "proxiableUUID()": {
        "details": "Implementation of the ERC1822 {proxiableUUID} function. This returns the storage slot used by the implementation. It is used to validate the implementation's compatibility when performing an upgrade. IMPORTANT: A proxy pointing at a proxiable contract should not be considered proxiable itself, because this risks bricking a proxy that upgrades to it, by delegating to itself until out of gas. Thus it is critical that this function revert if invoked through a proxy. This is guaranteed by the `notDelegated` modifier."
      },
      "setAccessControls(address)": {
        "params": {
          "_accessControls": "Address of ETSAccessControls contract."
        }
      },
      "setEnrichTarget(address)": {
        "params": {
          "_etsEnrichTarget": "Address of ETSEnrichTarget contract."
        }
      },
      "targetExistsById(uint256)": {
        "params": {
          "_targetId": "targetId uint computed from URI via computeTargetId()."
        },
        "returns": {
          "_0": "true if Target record exists; false if not."
        }
      },
      "targetExistsByURI(string)": {
        "params": {
          "_targetURI": "Unique resource identifier Target record points to."
        },
        "returns": {
          "_0": "true if Target record exists; false if not."
        }
      },
      "updateTarget(uint256,string,uint256,uint256,string)": {
        "params": {
          "_enriched": "block timestamp when Target was last enriched",
          "_httpStatus": "https status of last response from ETSEnrichTarget API eg. \"404\", \"200\". defaults to 0",
          "_ipfsHash": "ipfsHash of additional metadata for Target collected by ETSEnrichTarget API",
          "_targetId": "Id of Target being updated.",
          "_targetURI": "Unique resource identifier Target points to."
        },
        "returns": {
          "success": "true when Target is successfully updated."
        }
      },
      "upgradeTo(address)": {
        "custom:oz-upgrades-unsafe-allow-reachable": "delegatecall",
        "details": "Upgrade the implementation of the proxy to `newImplementation`. Calls {_authorizeUpgrade}. Emits an {Upgraded} event."
      },
      "upgradeToAndCall(address,bytes)": {
        "custom:oz-upgrades-unsafe-allow-reachable": "delegatecall",
        "details": "Upgrade the implementation of the proxy to `newImplementation`, and subsequently execute the function call encoded in `data`. Calls {_authorizeUpgrade}. Emits an {Upgraded} event."
      }
    },
    "stateVariables": {
      "targets": {
        "details": "Map of targetId to Target struct."
      }
    },
    "version": 1
  },
  "userdoc": {
    "kind": "user",
    "methods": {
      "computeTargetId(string)": {
        "notice": "Function to deterministically compute & return a targetId. Every Target in ETS is mapped to by it's targetId. This Id is computed from the target URI sting hashed and cast as a uint256. Note: Function does not verify if Target record exists."
      },
      "createTarget(string)": {
        "notice": "Create a Target record and return it's targetId."
      },
      "getOrCreateTargetId(string)": {
        "notice": "Get ETS targetId from URI. Combo function that given a URI string will return it's ETS targetId if it exists, or create a new Target record and return corresponding targetId."
      },
      "getTargetById(uint256)": {
        "notice": "Retrieve a Target record for a computed targetId. Note: returns a struct with empty members when no Target exists."
      },
      "getTargetByURI(string)": {
        "notice": "Retrieve a Target record for a given URI string. Note: returns a struct with empty members when no Target exists."
      },
      "setAccessControls(address)": {
        "notice": "Sets ETSAccessControls on the ETSTarget contract so functions can be restricted to ETS platform only. Note Caller of this function must be deployer or pre-set as admin of new contract."
      },
      "setEnrichTarget(address)": {
        "notice": "Sets ETSEnrichTarget contract address so that Target metadata enrichment functions can be called from ETSTarget."
      },
      "targetExistsById(uint256)": {
        "notice": "Check that a Target record exists for a given computed targetId."
      },
      "targetExistsByURI(string)": {
        "notice": "Check that a Target record exists for a given URI string."
      },
      "updateTarget(uint256,string,uint256,uint256,string)": {
        "notice": "Update a Target record."
      }
    },
    "version": 1
  },
  "storageLayout": {
    "storage": [
      {
        "astId": 915,
        "contract": "contracts/ETSTarget.sol:ETSTarget",
        "label": "_initialized",
        "offset": 0,
        "slot": "0",
        "type": "t_uint8"
      },
      {
        "astId": 918,
        "contract": "contracts/ETSTarget.sol:ETSTarget",
        "label": "_initializing",
        "offset": 1,
        "slot": "0",
        "type": "t_bool"
      },
      {
        "astId": 897,
        "contract": "contracts/ETSTarget.sol:ETSTarget",
        "label": "__gap",
        "offset": 0,
        "slot": "1",
        "type": "t_array(t_uint256)50_storage"
      },
      {
        "astId": 1213,
        "contract": "contracts/ETSTarget.sol:ETSTarget",
        "label": "__gap",
        "offset": 0,
        "slot": "51",
        "type": "t_array(t_uint256)50_storage"
      },
      {
        "astId": 12834,
        "contract": "contracts/ETSTarget.sol:ETSTarget",
        "label": "etsAccessControls",
        "offset": 0,
        "slot": "101",
        "type": "t_contract(IETSAccessControls)14902"
      },
      {
        "astId": 12837,
        "contract": "contracts/ETSTarget.sol:ETSTarget",
        "label": "etsEnrichTarget",
        "offset": 0,
        "slot": "102",
        "type": "t_contract(IETSEnrichTarget)15114"
      },
      {
        "astId": 12849,
        "contract": "contracts/ETSTarget.sol:ETSTarget",
        "label": "targets",
        "offset": 0,
        "slot": "103",
        "type": "t_mapping(t_uint256,t_struct(Target)15127_storage)"
      }
    ],
    "types": {
      "t_address": {
        "encoding": "inplace",
        "label": "address",
        "numberOfBytes": "20"
      },
      "t_array(t_uint256)50_storage": {
        "base": "t_uint256",
        "encoding": "inplace",
        "label": "uint256[50]",
        "numberOfBytes": "1600"
      },
      "t_bool": {
        "encoding": "inplace",
        "label": "bool",
        "numberOfBytes": "1"
      },
      "t_contract(IETSAccessControls)14902": {
        "encoding": "inplace",
        "label": "contract IETSAccessControls",
        "numberOfBytes": "20"
      },
      "t_contract(IETSEnrichTarget)15114": {
        "encoding": "inplace",
        "label": "contract IETSEnrichTarget",
        "numberOfBytes": "20"
      },
      "t_mapping(t_uint256,t_struct(Target)15127_storage)": {
        "encoding": "mapping",
        "key": "t_uint256",
        "label": "mapping(uint256 => struct IETSTarget.Target)",
        "numberOfBytes": "32",
        "value": "t_struct(Target)15127_storage"
      },
      "t_string_storage": {
        "encoding": "bytes",
        "label": "string",
        "numberOfBytes": "32"
      },
      "t_struct(Target)15127_storage": {
        "encoding": "inplace",
        "label": "struct IETSTarget.Target",
        "members": [
          {
            "astId": 15118,
            "contract": "contracts/ETSTarget.sol:ETSTarget",
            "label": "targetURI",
            "offset": 0,
            "slot": "0",
            "type": "t_string_storage"
          },
          {
            "astId": 15120,
            "contract": "contracts/ETSTarget.sol:ETSTarget",
            "label": "createdBy",
            "offset": 0,
            "slot": "1",
            "type": "t_address"
          },
          {
            "astId": 15122,
            "contract": "contracts/ETSTarget.sol:ETSTarget",
            "label": "enriched",
            "offset": 0,
            "slot": "2",
            "type": "t_uint256"
          },
          {
            "astId": 15124,
            "contract": "contracts/ETSTarget.sol:ETSTarget",
            "label": "httpStatus",
            "offset": 0,
            "slot": "3",
            "type": "t_uint256"
          },
          {
            "astId": 15126,
            "contract": "contracts/ETSTarget.sol:ETSTarget",
            "label": "ipfsHash",
            "offset": 0,
            "slot": "4",
            "type": "t_string_storage"
          }
        ],
        "numberOfBytes": "160"
      },
      "t_uint256": {
        "encoding": "inplace",
        "label": "uint256",
        "numberOfBytes": "32"
      },
      "t_uint8": {
        "encoding": "inplace",
        "label": "uint8",
        "numberOfBytes": "1"
      }
    }
  }
}