{
  "_format": "hh-sol-artifact-1",
  "contractName": "ERC721BurnableMock",
  "sourceName": "contracts/mocks/ERC721BurnableMock.sol",
  "abi": [
    {
      "inputs": [
        {
          "internalType": "string",
          "name": "name",
          "type": "string"
        },
        {
          "internalType": "string",
          "name": "symbol",
          "type": "string"
        }
      ],
      "stateMutability": "nonpayable",
      "type": "constructor"
    },
    {
      "anonymous": false,
      "inputs": [
        {
          "indexed": true,
          "internalType": "address",
          "name": "owner",
          "type": "address"
        },
        {
          "indexed": true,
          "internalType": "address",
          "name": "approved",
          "type": "address"
        },
        {
          "indexed": true,
          "internalType": "uint256",
          "name": "tokenId",
          "type": "uint256"
        }
      ],
      "name": "Approval",
      "type": "event"
    },
    {
      "anonymous": false,
      "inputs": [
        {
          "indexed": true,
          "internalType": "address",
          "name": "owner",
          "type": "address"
        },
        {
          "indexed": true,
          "internalType": "address",
          "name": "operator",
          "type": "address"
        },
        {
          "indexed": false,
          "internalType": "bool",
          "name": "approved",
          "type": "bool"
        }
      ],
      "name": "ApprovalForAll",
      "type": "event"
    },
    {
      "anonymous": false,
      "inputs": [
        {
          "indexed": true,
          "internalType": "address",
          "name": "from",
          "type": "address"
        },
        {
          "indexed": true,
          "internalType": "address",
          "name": "to",
          "type": "address"
        },
        {
          "indexed": true,
          "internalType": "uint256",
          "name": "tokenId",
          "type": "uint256"
        }
      ],
      "name": "Transfer",
      "type": "event"
    },
    {
      "inputs": [
        {
          "internalType": "address",
          "name": "to",
          "type": "address"
        },
        {
          "internalType": "uint256",
          "name": "tokenId",
          "type": "uint256"
        }
      ],
      "name": "approve",
      "outputs": [],
      "stateMutability": "nonpayable",
      "type": "function"
    },
    {
      "inputs": [
        {
          "internalType": "address",
          "name": "owner",
          "type": "address"
        }
      ],
      "name": "balanceOf",
      "outputs": [
        {
          "internalType": "uint256",
          "name": "",
          "type": "uint256"
        }
      ],
      "stateMutability": "view",
      "type": "function"
    },
    {
      "inputs": [
        {
          "internalType": "uint256",
          "name": "tokenId",
          "type": "uint256"
        }
      ],
      "name": "burn",
      "outputs": [],
      "stateMutability": "nonpayable",
      "type": "function"
    },
    {
      "inputs": [
        {
          "internalType": "uint256",
          "name": "tokenId",
          "type": "uint256"
        }
      ],
      "name": "exists",
      "outputs": [
        {
          "internalType": "bool",
          "name": "",
          "type": "bool"
        }
      ],
      "stateMutability": "view",
      "type": "function"
    },
    {
      "inputs": [
        {
          "internalType": "uint256",
          "name": "tokenId",
          "type": "uint256"
        }
      ],
      "name": "getApproved",
      "outputs": [
        {
          "internalType": "address",
          "name": "",
          "type": "address"
        }
      ],
      "stateMutability": "view",
      "type": "function"
    },
    {
      "inputs": [
        {
          "internalType": "address",
          "name": "owner",
          "type": "address"
        },
        {
          "internalType": "address",
          "name": "operator",
          "type": "address"
        }
      ],
      "name": "isApprovedForAll",
      "outputs": [
        {
          "internalType": "bool",
          "name": "",
          "type": "bool"
        }
      ],
      "stateMutability": "view",
      "type": "function"
    },
    {
      "inputs": [
        {
          "internalType": "address",
          "name": "to",
          "type": "address"
        },
        {
          "internalType": "uint256",
          "name": "tokenId",
          "type": "uint256"
        }
      ],
      "name": "mint",
      "outputs": [],
      "stateMutability": "nonpayable",
      "type": "function"
    },
    {
      "inputs": [],
      "name": "name",
      "outputs": [
        {
          "internalType": "string",
          "name": "",
          "type": "string"
        }
      ],
      "stateMutability": "view",
      "type": "function"
    },
    {
      "inputs": [
        {
          "internalType": "uint256",
          "name": "tokenId",
          "type": "uint256"
        }
      ],
      "name": "ownerOf",
      "outputs": [
        {
          "internalType": "address",
          "name": "",
          "type": "address"
        }
      ],
      "stateMutability": "view",
      "type": "function"
    },
    {
      "inputs": [
        {
          "internalType": "address",
          "name": "to",
          "type": "address"
        },
        {
          "internalType": "uint256",
          "name": "tokenId",
          "type": "uint256"
        },
        {
          "internalType": "bytes",
          "name": "_data",
          "type": "bytes"
        }
      ],
      "name": "safeMint",
      "outputs": [],
      "stateMutability": "nonpayable",
      "type": "function"
    },
    {
      "inputs": [
        {
          "internalType": "address",
          "name": "to",
          "type": "address"
        },
        {
          "internalType": "uint256",
          "name": "tokenId",
          "type": "uint256"
        }
      ],
      "name": "safeMint",
      "outputs": [],
      "stateMutability": "nonpayable",
      "type": "function"
    },
    {
      "inputs": [
        {
          "internalType": "address",
          "name": "from",
          "type": "address"
        },
        {
          "internalType": "address",
          "name": "to",
          "type": "address"
        },
        {
          "internalType": "uint256",
          "name": "tokenId",
          "type": "uint256"
        }
      ],
      "name": "safeTransferFrom",
      "outputs": [],
      "stateMutability": "nonpayable",
      "type": "function"
    },
    {
      "inputs": [
        {
          "internalType": "address",
          "name": "from",
          "type": "address"
        },
        {
          "internalType": "address",
          "name": "to",
          "type": "address"
        },
        {
          "internalType": "uint256",
          "name": "tokenId",
          "type": "uint256"
        },
        {
          "internalType": "bytes",
          "name": "_data",
          "type": "bytes"
        }
      ],
      "name": "safeTransferFrom",
      "outputs": [],
      "stateMutability": "nonpayable",
      "type": "function"
    },
    {
      "inputs": [
        {
          "internalType": "address",
          "name": "operator",
          "type": "address"
        },
        {
          "internalType": "bool",
          "name": "approved",
          "type": "bool"
        }
      ],
      "name": "setApprovalForAll",
      "outputs": [],
      "stateMutability": "nonpayable",
      "type": "function"
    },
    {
      "inputs": [
        {
          "internalType": "bytes4",
          "name": "interfaceId",
          "type": "bytes4"
        }
      ],
      "name": "supportsInterface",
      "outputs": [
        {
          "internalType": "bool",
          "name": "",
          "type": "bool"
        }
      ],
      "stateMutability": "view",
      "type": "function"
    },
    {
      "inputs": [],
      "name": "symbol",
      "outputs": [
        {
          "internalType": "string",
          "name": "",
          "type": "string"
        }
      ],
      "stateMutability": "view",
      "type": "function"
    },
    {
      "inputs": [
        {
          "internalType": "uint256",
          "name": "tokenId",
          "type": "uint256"
        }
      ],
      "name": "tokenURI",
      "outputs": [
        {
          "internalType": "string",
          "name": "",
          "type": "string"
        }
      ],
      "stateMutability": "view",
      "type": "function"
    },
    {
      "inputs": [
        {
          "internalType": "address",
          "name": "from",
          "type": "address"
        },
        {
          "internalType": "address",
          "name": "to",
          "type": "address"
        },
        {
          "internalType": "uint256",
          "name": "tokenId",
          "type": "uint256"
        }
      ],
      "name": "transferFrom",
      "outputs": [],
      "stateMutability": "nonpayable",
      "type": "function"
    }
  ],
  "bytecode": "0x60806040523480156200001157600080fd5b5060405162001b3438038062001b348339810160408190526200003491620001cb565b8151829082906200004d9060009060208501906200006e565b508051620000639060019060208401906200006e565b505050505062000288565b8280546200007c9062000235565b90600052602060002090601f016020900481019282620000a05760008555620000eb565b82601f10620000bb57805160ff1916838001178555620000eb565b82800160010185558215620000eb579182015b82811115620000eb578251825591602001919060010190620000ce565b50620000f9929150620000fd565b5090565b5b80821115620000f95760008155600101620000fe565b600082601f8301126200012657600080fd5b81516001600160401b038082111562000143576200014362000272565b604051601f8301601f19908116603f011681019082821181831017156200016e576200016e62000272565b816040528381526020925086838588010111156200018b57600080fd5b600091505b83821015620001af578582018301518183018401529082019062000190565b83821115620001c15760008385830101525b9695505050505050565b60008060408385031215620001df57600080fd5b82516001600160401b0380821115620001f757600080fd5b620002058683870162000114565b935060208501519150808211156200021c57600080fd5b506200022b8582860162000114565b9150509250929050565b600181811c908216806200024a57607f821691505b602082108114156200026c57634e487b7160e01b600052602260045260246000fd5b50919050565b634e487b7160e01b600052604160045260246000fd5b61189c80620002986000396000f3fe608060405234801561001057600080fd5b50600436106101365760003560e01c80636352211e116100b2578063a144819411610081578063b88d4fde11610066578063b88d4fde1461028c578063c87b56dd1461029f578063e985e9c5146102b257600080fd5b8063a144819414610266578063a22cb4651461027957600080fd5b80636352211e1461021757806370a082311461022a5780638832e6e31461024b57806395d89b411461025e57600080fd5b806323b872dd1161010957806342842e0e116100ee57806342842e0e146101de57806342966c68146101f15780634f558e791461020457600080fd5b806323b872dd146101b857806340c10f19146101cb57600080fd5b806301ffc9a71461013b57806306fdde0314610163578063081812fc14610178578063095ea7b3146101a3575b600080fd5b61014e610149366004611622565b6102ee565b60405190151581526020015b60405180910390f35b61016b61038b565b60405161015a919061170c565b61018b61018636600461165c565b61041d565b6040516001600160a01b03909116815260200161015a565b6101b66101b13660046115a1565b6104b7565b005b6101b66101c63660046114c1565b6105e9565b6101b66101d93660046115a1565b610671565b6101b66101ec3660046114c1565b61067f565b6101b66101ff36600461165c565b61069a565b61014e61021236600461165c565b610721565b61018b61022536600461165c565b610740565b61023d610238366004611473565b6107cb565b60405190815260200161015a565b6101b66102593660046115cb565b610865565b61016b610870565b6101b66102743660046115a1565b61087f565b6101b6610287366004611565565b610889565b6101b661029a3660046114fd565b610894565b61016b6102ad36600461165c565b610922565b61014e6102c036600461148e565b6001600160a01b03918216600090815260056020908152604080832093909416825291909152205460ff1690565b60006001600160e01b031982167f80ac58cd00000000000000000000000000000000000000000000000000000000148061035157506001600160e01b031982167f5b5e139f00000000000000000000000000000000000000000000000000000000145b8061038557507f01ffc9a7000000000000000000000000000000000000000000000000000000006001600160e01b03198316145b92915050565b60606000805461039a9061178e565b80601f01602080910402602001604051908101604052809291908181526020018280546103c69061178e565b80156104135780601f106103e857610100808354040283529160200191610413565b820191906000526020600020905b8154815290600101906020018083116103f657829003601f168201915b5050505050905090565b6000818152600260205260408120546001600160a01b031661049b5760405162461bcd60e51b815260206004820152602c60248201527f4552433732313a20617070726f76656420717565727920666f72206e6f6e657860448201526b34b9ba32b73a103a37b5b2b760a11b60648201526084015b60405180910390fd5b506000908152600460205260409020546001600160a01b031690565b60006104c282610740565b9050806001600160a01b0316836001600160a01b0316141561054c5760405162461bcd60e51b815260206004820152602160248201527f4552433732313a20617070726f76616c20746f2063757272656e74206f776e6560448201527f72000000000000000000000000000000000000000000000000000000000000006064820152608401610492565b336001600160a01b0382161480610568575061056881336102c0565b6105da5760405162461bcd60e51b815260206004820152603860248201527f4552433732313a20617070726f76652063616c6c6572206973206e6f74206f7760448201527f6e6572206e6f7220617070726f76656420666f7220616c6c00000000000000006064820152608401610492565b6105e48383610a18565b505050565b6105f4335b82610a93565b6106665760405162461bcd60e51b815260206004820152603160248201527f4552433732313a207472616e736665722063616c6c6572206973206e6f74206f60448201527f776e6572206e6f7220617070726f7665640000000000000000000000000000006064820152608401610492565b6105e4838383610b8a565b61067b8282610d64565b5050565b6105e483838360405180602001604052806000815250610894565b6106a3336105ee565b6107155760405162461bcd60e51b815260206004820152603060248201527f4552433732314275726e61626c653a2063616c6c6572206973206e6f74206f7760448201527f6e6572206e6f7220617070726f766564000000000000000000000000000000006064820152608401610492565b61071e81610eb3565b50565b6000818152600260205260408120546001600160a01b03161515610385565b6000818152600260205260408120546001600160a01b0316806103855760405162461bcd60e51b815260206004820152602960248201527f4552433732313a206f776e657220717565727920666f72206e6f6e657869737460448201527f656e7420746f6b656e00000000000000000000000000000000000000000000006064820152608401610492565b60006001600160a01b0382166108495760405162461bcd60e51b815260206004820152602a60248201527f4552433732313a2062616c616e636520717565727920666f7220746865207a6560448201527f726f2061646472657373000000000000000000000000000000000000000000006064820152608401610492565b506001600160a01b031660009081526003602052604090205490565b6105e4838383610f5b565b60606001805461039a9061178e565b61067b8282610fd9565b61067b338383610ff3565b61089e3383610a93565b6109105760405162461bcd60e51b815260206004820152603160248201527f4552433732313a207472616e736665722063616c6c6572206973206e6f74206f60448201527f776e6572206e6f7220617070726f7665640000000000000000000000000000006064820152608401610492565b61091c848484846110c2565b50505050565b6000818152600260205260409020546060906001600160a01b03166109af5760405162461bcd60e51b815260206004820152602f60248201527f4552433732314d657461646174613a2055524920717565727920666f72206e6f60448201527f6e6578697374656e7420746f6b656e00000000000000000000000000000000006064820152608401610492565b60006109c660408051602081019091526000815290565b905060008151116109e65760405180602001604052806000815250610a11565b806109f084611140565b604051602001610a019291906116a1565b6040516020818303038152906040525b9392505050565b6000818152600460205260409020805473ffffffffffffffffffffffffffffffffffffffff19166001600160a01b0384169081179091558190610a5a82610740565b6001600160a01b03167f8c5be1e5ebec7d5bd14f71427d1e84f3dd0314c0f7b2291e5b200ac8c7c3b92560405160405180910390a45050565b6000818152600260205260408120546001600160a01b0316610b0c5760405162461bcd60e51b815260206004820152602c60248201527f4552433732313a206f70657261746f7220717565727920666f72206e6f6e657860448201526b34b9ba32b73a103a37b5b2b760a11b6064820152608401610492565b6000610b1783610740565b9050806001600160a01b0316846001600160a01b03161480610b525750836001600160a01b0316610b478461041d565b6001600160a01b0316145b80610b8257506001600160a01b0380821660009081526005602090815260408083209388168352929052205460ff165b949350505050565b826001600160a01b0316610b9d82610740565b6001600160a01b031614610c195760405162461bcd60e51b815260206004820152602960248201527f4552433732313a207472616e73666572206f6620746f6b656e2074686174206960448201527f73206e6f74206f776e00000000000000000000000000000000000000000000006064820152608401610492565b6001600160a01b038216610c945760405162461bcd60e51b8152602060048201526024808201527f4552433732313a207472616e7366657220746f20746865207a65726f2061646460448201527f72657373000000000000000000000000000000000000000000000000000000006064820152608401610492565b610c9f600082610a18565b6001600160a01b0383166000908152600360205260408120805460019290610cc890849061174b565b90915550506001600160a01b0382166000908152600360205260408120805460019290610cf690849061171f565b9091555050600081815260026020526040808220805473ffffffffffffffffffffffffffffffffffffffff19166001600160a01b0386811691821790925591518493918716917fddf252ad1be2c89b69c2b068fc378daa952ba7f163c4a11628f55a4df523b3ef91a4505050565b6001600160a01b038216610dba5760405162461bcd60e51b815260206004820181905260248201527f4552433732313a206d696e7420746f20746865207a65726f20616464726573736044820152606401610492565b6000818152600260205260409020546001600160a01b031615610e1f5760405162461bcd60e51b815260206004820152601c60248201527f4552433732313a20746f6b656e20616c7265616479206d696e746564000000006044820152606401610492565b6001600160a01b0382166000908152600360205260408120805460019290610e4890849061171f565b9091555050600081815260026020526040808220805473ffffffffffffffffffffffffffffffffffffffff19166001600160a01b03861690811790915590518392907fddf252ad1be2c89b69c2b068fc378daa952ba7f163c4a11628f55a4df523b3ef908290a45050565b6000610ebe82610740565b9050610ecb600083610a18565b6001600160a01b0381166000908152600360205260408120805460019290610ef490849061174b565b9091555050600082815260026020526040808220805473ffffffffffffffffffffffffffffffffffffffff19169055518391906001600160a01b038416907fddf252ad1be2c89b69c2b068fc378daa952ba7f163c4a11628f55a4df523b3ef908390a45050565b610f658383610d64565b610f726000848484611272565b6105e45760405162461bcd60e51b815260206004820152603260248201527f4552433732313a207472616e7366657220746f206e6f6e20455243373231526560448201527131b2b4bb32b91034b6b83632b6b2b73a32b960711b6064820152608401610492565b61067b828260405180602001604052806000815250610f5b565b816001600160a01b0316836001600160a01b031614156110555760405162461bcd60e51b815260206004820152601960248201527f4552433732313a20617070726f766520746f2063616c6c6572000000000000006044820152606401610492565b6001600160a01b03838116600081815260056020908152604080832094871680845294825291829020805460ff191686151590811790915591519182527f17307eab39ab6107e8899845ad3d59bd9653f200f220920489ca2b5937696c31910160405180910390a3505050565b6110cd848484610b8a565b6110d984848484611272565b61091c5760405162461bcd60e51b815260206004820152603260248201527f4552433732313a207472616e7366657220746f206e6f6e20455243373231526560448201527131b2b4bb32b91034b6b83632b6b2b73a32b960711b6064820152608401610492565b60608161118057505060408051808201909152600181527f3000000000000000000000000000000000000000000000000000000000000000602082015290565b8160005b81156111aa5780611194816117c9565b91506111a39050600a83611737565b9150611184565b60008167ffffffffffffffff8111156111c5576111c561183a565b6040519080825280601f01601f1916602001820160405280156111ef576020820181803683370190505b5090505b8415610b825761120460018361174b565b9150611211600a866117e4565b61121c90603061171f565b60f81b81838151811061123157611231611824565b60200101907effffffffffffffffffffffffffffffffffffffffffffffffffffffffffffff1916908160001a90535061126b600a86611737565b94506111f3565b60006001600160a01b0384163b156113bf57604051630a85bd0160e11b81526001600160a01b0385169063150b7a02906112b69033908990889088906004016116d0565b602060405180830381600087803b1580156112d057600080fd5b505af1925050508015611300575060408051601f3d908101601f191682019092526112fd9181019061163f565b60015b6113a5573d80801561132e576040519150601f19603f3d011682016040523d82523d6000602084013e611333565b606091505b50805161139d5760405162461bcd60e51b815260206004820152603260248201527f4552433732313a207472616e7366657220746f206e6f6e20455243373231526560448201527131b2b4bb32b91034b6b83632b6b2b73a32b960711b6064820152608401610492565b805181602001fd5b6001600160e01b031916630a85bd0160e11b149050610b82565b506001949350505050565b80356001600160a01b03811681146113e157600080fd5b919050565b600082601f8301126113f757600080fd5b813567ffffffffffffffff808211156114125761141261183a565b604051601f8301601f19908116603f0116810190828211818310171561143a5761143a61183a565b8160405283815286602085880101111561145357600080fd5b836020870160208301376000602085830101528094505050505092915050565b60006020828403121561148557600080fd5b610a11826113ca565b600080604083850312156114a157600080fd5b6114aa836113ca565b91506114b8602084016113ca565b90509250929050565b6000806000606084860312156114d657600080fd5b6114df846113ca565b92506114ed602085016113ca565b9150604084013590509250925092565b6000806000806080858703121561151357600080fd5b61151c856113ca565b935061152a602086016113ca565b925060408501359150606085013567ffffffffffffffff81111561154d57600080fd5b611559878288016113e6565b91505092959194509250565b6000806040838503121561157857600080fd5b611581836113ca565b91506020830135801515811461159657600080fd5b809150509250929050565b600080604083850312156115b457600080fd5b6115bd836113ca565b946020939093013593505050565b6000806000606084860312156115e057600080fd5b6115e9846113ca565b925060208401359150604084013567ffffffffffffffff81111561160c57600080fd5b611618868287016113e6565b9150509250925092565b60006020828403121561163457600080fd5b8135610a1181611850565b60006020828403121561165157600080fd5b8151610a1181611850565b60006020828403121561166e57600080fd5b5035919050565b6000815180845261168d816020860160208601611762565b601f01601f19169290920160200192915050565b600083516116b3818460208801611762565b8351908301906116c7818360208801611762565b01949350505050565b60006001600160a01b038087168352808616602084015250836040830152608060608301526117026080830184611675565b9695505050505050565b602081526000610a116020830184611675565b60008219821115611732576117326117f8565b500190565b6000826117465761174661180e565b500490565b60008282101561175d5761175d6117f8565b500390565b60005b8381101561177d578181015183820152602001611765565b8381111561091c5750506000910152565b600181811c908216806117a257607f821691505b602082108114156117c357634e487b7160e01b600052602260045260246000fd5b50919050565b60006000198214156117dd576117dd6117f8565b5060010190565b6000826117f3576117f361180e565b500690565b634e487b7160e01b600052601160045260246000fd5b634e487b7160e01b600052601260045260246000fd5b634e487b7160e01b600052603260045260246000fd5b634e487b7160e01b600052604160045260246000fd5b6001600160e01b03198116811461071e57600080fdfea26469706673582212204cc069698e1ca51ece9e39cc70f4ad7cf798d45563b0bcaed097ce9a01a955d364736f6c63430008070033",
  "linkReferences": {},
  "deployedLinkReferences": {}
}