{
  "_format": "hh-sol-artifact-1",
  "contractName": "ETSAccessControlsUpgrade",
  "sourceName": "contracts/utils/UUPS/UUPSTesting.sol",
  "abi": [
    {
      "anonymous": false,
      "inputs": [
        {
          "indexed": false,
          "internalType": "address",
          "name": "previousAdmin",
          "type": "address"
        },
        {
          "indexed": false,
          "internalType": "address",
          "name": "newAdmin",
          "type": "address"
        }
      ],
      "name": "AdminChanged",
      "type": "event"
    },
    {
      "anonymous": false,
      "inputs": [
        {
          "indexed": true,
          "internalType": "address",
          "name": "beacon",
          "type": "address"
        }
      ],
      "name": "BeaconUpgraded",
      "type": "event"
    },
    {
      "anonymous": false,
      "inputs": [
        {
          "indexed": true,
          "internalType": "bytes32",
          "name": "role",
          "type": "bytes32"
        },
        {
          "indexed": true,
          "internalType": "bytes32",
          "name": "previousAdminRole",
          "type": "bytes32"
        },
        {
          "indexed": true,
          "internalType": "bytes32",
          "name": "newAdminRole",
          "type": "bytes32"
        }
      ],
      "name": "RoleAdminChanged",
      "type": "event"
    },
    {
      "anonymous": false,
      "inputs": [
        {
          "indexed": true,
          "internalType": "bytes32",
          "name": "role",
          "type": "bytes32"
        },
        {
          "indexed": true,
          "internalType": "address",
          "name": "account",
          "type": "address"
        },
        {
          "indexed": true,
          "internalType": "address",
          "name": "sender",
          "type": "address"
        }
      ],
      "name": "RoleGranted",
      "type": "event"
    },
    {
      "anonymous": false,
      "inputs": [
        {
          "indexed": true,
          "internalType": "bytes32",
          "name": "role",
          "type": "bytes32"
        },
        {
          "indexed": true,
          "internalType": "address",
          "name": "account",
          "type": "address"
        },
        {
          "indexed": true,
          "internalType": "address",
          "name": "sender",
          "type": "address"
        }
      ],
      "name": "RoleRevoked",
      "type": "event"
    },
    {
      "anonymous": false,
      "inputs": [
        {
          "indexed": false,
          "internalType": "bool",
          "name": "newValue",
          "type": "bool"
        }
      ],
      "name": "TargetTypePauseToggled",
      "type": "event"
    },
    {
      "anonymous": false,
      "inputs": [
        {
          "indexed": true,
          "internalType": "address",
          "name": "implementation",
          "type": "address"
        }
      ],
      "name": "Upgraded",
      "type": "event"
    },
    {
      "inputs": [],
      "name": "DEFAULT_ADMIN_ROLE",
      "outputs": [
        {
          "internalType": "bytes32",
          "name": "",
          "type": "bytes32"
        }
      ],
      "stateMutability": "view",
      "type": "function"
    },
    {
      "inputs": [],
      "name": "NAME",
      "outputs": [
        {
          "internalType": "string",
          "name": "",
          "type": "string"
        }
      ],
      "stateMutability": "view",
      "type": "function"
    },
    {
      "inputs": [],
      "name": "PUBLISHER_ROLE",
      "outputs": [
        {
          "internalType": "bytes32",
          "name": "",
          "type": "bytes32"
        }
      ],
      "stateMutability": "view",
      "type": "function"
    },
    {
      "inputs": [],
      "name": "SMART_CONTRACT_ROLE",
      "outputs": [
        {
          "internalType": "bytes32",
          "name": "",
          "type": "bytes32"
        }
      ],
      "stateMutability": "view",
      "type": "function"
    },
    {
      "inputs": [],
      "name": "TARGET_TYPE_ROLE",
      "outputs": [
        {
          "internalType": "bytes32",
          "name": "",
          "type": "bytes32"
        }
      ],
      "stateMutability": "view",
      "type": "function"
    },
    {
      "inputs": [],
      "name": "VERSION",
      "outputs": [
        {
          "internalType": "string",
          "name": "",
          "type": "string"
        }
      ],
      "stateMutability": "view",
      "type": "function"
    },
    {
      "inputs": [
        {
          "internalType": "address",
          "name": "_smartContract",
          "type": "address"
        },
        {
          "internalType": "string",
          "name": "_name",
          "type": "string"
        }
      ],
      "name": "addTargetType",
      "outputs": [],
      "stateMutability": "nonpayable",
      "type": "function"
    },
    {
      "inputs": [
        {
          "internalType": "bytes32",
          "name": "role",
          "type": "bytes32"
        }
      ],
      "name": "getRoleAdmin",
      "outputs": [
        {
          "internalType": "bytes32",
          "name": "",
          "type": "bytes32"
        }
      ],
      "stateMutability": "view",
      "type": "function"
    },
    {
      "inputs": [
        {
          "internalType": "bytes32",
          "name": "role",
          "type": "bytes32"
        },
        {
          "internalType": "address",
          "name": "account",
          "type": "address"
        }
      ],
      "name": "grantRole",
      "outputs": [],
      "stateMutability": "nonpayable",
      "type": "function"
    },
    {
      "inputs": [
        {
          "internalType": "bytes32",
          "name": "role",
          "type": "bytes32"
        },
        {
          "internalType": "address",
          "name": "account",
          "type": "address"
        }
      ],
      "name": "hasRole",
      "outputs": [
        {
          "internalType": "bool",
          "name": "",
          "type": "bool"
        }
      ],
      "stateMutability": "view",
      "type": "function"
    },
    {
      "inputs": [],
      "name": "initialize",
      "outputs": [],
      "stateMutability": "nonpayable",
      "type": "function"
    },
    {
      "inputs": [
        {
          "internalType": "address",
          "name": "_addr",
          "type": "address"
        }
      ],
      "name": "isAdmin",
      "outputs": [
        {
          "internalType": "bool",
          "name": "",
          "type": "bool"
        }
      ],
      "stateMutability": "view",
      "type": "function"
    },
    {
      "inputs": [
        {
          "internalType": "address",
          "name": "_addr",
          "type": "address"
        }
      ],
      "name": "isPublisher",
      "outputs": [
        {
          "internalType": "bool",
          "name": "",
          "type": "bool"
        }
      ],
      "stateMutability": "view",
      "type": "function"
    },
    {
      "inputs": [
        {
          "internalType": "address",
          "name": "_addr",
          "type": "address"
        }
      ],
      "name": "isSmartContract",
      "outputs": [
        {
          "internalType": "bool",
          "name": "",
          "type": "bool"
        }
      ],
      "stateMutability": "view",
      "type": "function"
    },
    {
      "inputs": [
        {
          "internalType": "address",
          "name": "_smartContract",
          "type": "address"
        }
      ],
      "name": "isTargetType",
      "outputs": [
        {
          "internalType": "bool",
          "name": "",
          "type": "bool"
        }
      ],
      "stateMutability": "view",
      "type": "function"
    },
    {
      "inputs": [
        {
          "internalType": "address",
          "name": "_smartContract",
          "type": "address"
        }
      ],
      "name": "isTargetTypeAndNotPaused",
      "outputs": [
        {
          "internalType": "bool",
          "name": "",
          "type": "bool"
        }
      ],
      "stateMutability": "view",
      "type": "function"
    },
    {
      "inputs": [
        {
          "internalType": "address",
          "name": "",
          "type": "address"
        }
      ],
      "name": "isTargetTypePaused",
      "outputs": [
        {
          "internalType": "bool",
          "name": "",
          "type": "bool"
        }
      ],
      "stateMutability": "view",
      "type": "function"
    },
    {
      "inputs": [
        {
          "internalType": "address",
          "name": "_smartContract",
          "type": "address"
        }
      ],
      "name": "removeTargetType",
      "outputs": [],
      "stateMutability": "nonpayable",
      "type": "function"
    },
    {
      "inputs": [
        {
          "internalType": "bytes32",
          "name": "role",
          "type": "bytes32"
        },
        {
          "internalType": "address",
          "name": "account",
          "type": "address"
        }
      ],
      "name": "renounceRole",
      "outputs": [],
      "stateMutability": "nonpayable",
      "type": "function"
    },
    {
      "inputs": [
        {
          "internalType": "bytes32",
          "name": "role",
          "type": "bytes32"
        },
        {
          "internalType": "address",
          "name": "account",
          "type": "address"
        }
      ],
      "name": "revokeRole",
      "outputs": [],
      "stateMutability": "nonpayable",
      "type": "function"
    },
    {
      "inputs": [
        {
          "internalType": "bytes4",
          "name": "interfaceId",
          "type": "bytes4"
        }
      ],
      "name": "supportsInterface",
      "outputs": [
        {
          "internalType": "bool",
          "name": "",
          "type": "bool"
        }
      ],
      "stateMutability": "view",
      "type": "function"
    },
    {
      "inputs": [
        {
          "internalType": "address",
          "name": "",
          "type": "address"
        }
      ],
      "name": "targetTypeContractName",
      "outputs": [
        {
          "internalType": "string",
          "name": "",
          "type": "string"
        }
      ],
      "stateMutability": "view",
      "type": "function"
    },
    {
      "inputs": [
        {
          "internalType": "string",
          "name": "",
          "type": "string"
        }
      ],
      "name": "targetTypeToContract",
      "outputs": [
        {
          "internalType": "address",
          "name": "",
          "type": "address"
        }
      ],
      "stateMutability": "view",
      "type": "function"
    },
    {
      "inputs": [
        {
          "internalType": "address",
          "name": "_smartContract",
          "type": "address"
        }
      ],
      "name": "toggleIsTargetTypePaused",
      "outputs": [],
      "stateMutability": "nonpayable",
      "type": "function"
    },
    {
      "inputs": [],
      "name": "upgradeTest",
      "outputs": [
        {
          "internalType": "bool",
          "name": "",
          "type": "bool"
        }
      ],
      "stateMutability": "pure",
      "type": "function"
    },
    {
      "inputs": [
        {
          "internalType": "address",
          "name": "newImplementation",
          "type": "address"
        }
      ],
      "name": "upgradeTo",
      "outputs": [],
      "stateMutability": "nonpayable",
      "type": "function"
    },
    {
      "inputs": [
        {
          "internalType": "address",
          "name": "newImplementation",
          "type": "address"
        },
        {
          "internalType": "bytes",
          "name": "data",
          "type": "bytes"
        }
      ],
      "name": "upgradeToAndCall",
      "outputs": [],
      "stateMutability": "payable",
      "type": "function"
    },
    {
      "inputs": [],
      "name": "version",
      "outputs": [
        {
          "internalType": "string",
          "name": "",
          "type": "string"
        }
      ],
      "stateMutability": "pure",
      "type": "function"
    }
  ],
  "bytecode": "0x60a06040523060601b60805234801561001757600080fd5b5060805160601c611e7561004b600039600081816109a901528181610a2e01528181610bdd0152610c620152611e756000f3fe6080604052600436106101b75760003560e01c806380719e9b116100ec578063acaa48431161008a578063c61c63dd11610064578063c61c63dd14610560578063d547741f146105b9578063d8f4b6fd146105d9578063ffa1ad741461060d57600080fd5b8063acaa4843146104ec578063ad8194f91461050c578063b87dfff81461052c57600080fd5b806391d14854116100c657806391d1485414610428578063a217fddf1461046e578063a3f4df7e14610483578063a88ae5b6146104cc57600080fd5b806380719e9b146103af5780638129fc1c146103df578063857d2608146103f457600080fd5b806336568abe116101595780634002649b116101335780634002649b1461032557806341859ac8146103455780634f1ef2861461036557806354fd4d501461037857600080fd5b806336568abe146102d15780633659cfe6146102f15780633d20b15c1461031157600080fd5b80632b04fd44116101955780632b04fd441461024f5780632f2ff15d1461026f578063347308b214610291578063360698dd146102b157600080fd5b806301ffc9a7146101bc578063248a9ca3146101f157806324d7806c1461022f575b600080fd5b3480156101c857600080fd5b506101dc6101d7366004611b0e565b61063e565b60405190151581526020015b60405180910390f35b3480156101fd57600080fd5b5061022161020c366004611ac9565b60009081526065602052604090206001015490565b6040519081526020016101e8565b34801561023b57600080fd5b506101dc61024a3660046119a7565b6106be565b34801561025b57600080fd5b506101dc61026a3660046119a7565b6106fe565b34801561027b57600080fd5b5061028f61028a366004611ae2565b610730565b005b34801561029d57600080fd5b506101dc6102ac3660046119a7565b61075b565b3480156102bd57600080fd5b5061028f6102cc366004611a24565b61079b565b3480156102dd57600080fd5b5061028f6102ec366004611ae2565b610912565b3480156102fd57600080fd5b5061028f61030c3660046119a7565b61099e565b34801561031d57600080fd5b5060016101dc565b34801561033157600080fd5b5061028f6103403660046119a7565b610b1a565b34801561035157600080fd5b506101dc6103603660046119a7565b610b92565b61028f6103733660046119c2565b610bd2565b34801561038457600080fd5b50604080518082019091526005815264302e302e3160d81b60208201525b6040516101e89190611cea565b3480156103bb57600080fd5b506101dc6103ca3660046119a7565b60fd6020526000908152604090205460ff1681565b3480156103eb57600080fd5b5061028f610d3b565b34801561040057600080fd5b506102217f5474431f81b75a7b45d74ffe5ff51964b4290ef4c86184accd4e4a9822dae90181565b34801561043457600080fd5b506101dc610443366004611ae2565b60009182526065602090815260408084206001600160a01b0393909316845291905290205460ff1690565b34801561047a57600080fd5b50610221600081565b34801561048f57600080fd5b506103a26040518060400160405280601381526020017f4554532061636365737320636f6e74726f6c730000000000000000000000000081525081565b3480156104d857600080fd5b506103a26104e73660046119a7565b610e15565b3480156104f857600080fd5b5061028f6105073660046119a7565b610eaf565b34801561051857600080fd5b506101dc6105273660046119a7565b610f4c565b34801561053857600080fd5b506102217f49788824bf3df159efd0827e0b1ab32ee6c80e17cb8efc4c39991f543bff32c281565b34801561056c57600080fd5b506105a161057b366004611b50565b805160208183018101805160fb825292820191909301209152546001600160a01b031681565b6040516001600160a01b0390911681526020016101e8565b3480156105c557600080fd5b5061028f6105d4366004611ae2565b610f8c565b3480156105e557600080fd5b506102217fad312f08b8889cfe65ec2f1faae419f8b47f0153a3483ea6130918c055c8183d81565b34801561061957600080fd5b506103a260405180604001604052806005815260200164302e302e3160d81b81525081565b60007fffffffff0000000000000000000000000000000000000000000000000000000082167f7965db0b0000000000000000000000000000000000000000000000000000000014806106b857506301ffc9a760e01b7fffffffff000000000000000000000000000000000000000000000000000000008316145b92915050565b6001600160a01b03811660009081527fffdfc1249c027f9191656349feb0761381bb32c9f557e01f419fd08754bf5a1b602052604081205460ff166106b8565b600061070982610f4c565b80156106b85750506001600160a01b0316600090815260fd602052604090205460ff161590565b60008281526065602052604090206001015461074c8133610fb2565b6107568383611032565b505050565b6001600160a01b03811660009081527f1c575814e1cd24773b117fedd6b05ab4d9de98c6d9f60531a8ff9197b9c46f15602052604081205460ff166106b8565b6040516301ffc9a760e01b81527fdb276bc10000000000000000000000000000000000000000000000000000000060048201526001600160a01b038416906301ffc9a79060240160206040518083038186803b1580156107fa57600080fd5b505afa15801561080e573d6000803e3d6000fd5b505050506040513d601f19601f820116820180604052508101906108329190611aa7565b6108835760405162461bcd60e51b815260206004820181905260248201527f526571756972656420696e74657266616365206e6f7420737570706f7274656460448201526064015b60405180910390fd5b8260fb8383604051610896929190611bbd565b9081526040805160209281900383019020805473ffffffffffffffffffffffffffffffffffffffff19166001600160a01b03948516179055918516600090815260fc909152206108e7908383611846565b506107567f49788824bf3df159efd0827e0b1ab32ee6c80e17cb8efc4c39991f543bff32c284610730565b6001600160a01b03811633146109905760405162461bcd60e51b815260206004820152602f60248201527f416363657373436f6e74726f6c3a2063616e206f6e6c792072656e6f756e636560448201527f20726f6c657320666f722073656c660000000000000000000000000000000000606482015260840161087a565b61099a82826110d4565b5050565b306001600160a01b037f0000000000000000000000000000000000000000000000000000000000000000161415610a2c5760405162461bcd60e51b815260206004820152602c60248201527f46756e6374696f6e206d7573742062652063616c6c6564207468726f7567682060448201526b19195b1959d85d1958d85b1b60a21b606482015260840161087a565b7f00000000000000000000000000000000000000000000000000000000000000006001600160a01b0316610a877f360894a13ba1a3210667c828492db98dca3e2076cc3735a920a3ca505d382bbc546001600160a01b031690565b6001600160a01b031614610af25760405162461bcd60e51b815260206004820152602c60248201527f46756e6374696f6e206d7573742062652063616c6c6564207468726f7567682060448201526b6163746976652070726f787960a01b606482015260840161087a565b610afb81611157565b60408051600080825260208201909252610b1791839190611163565b50565b6000610b268133610fb2565b6001600160a01b038216600090815260fd602052604090819020805460ff19811660ff9182161590811790925591517f02eb870a583fed745c819c6e6a52fd98f5169e4aa50176d734a823df34e0dfc792610b8692161515815260200190565b60405180910390a15050565b6001600160a01b03811660009081527f539b586f55d61ee867945dc075fa8e91eca932ae00c1c0cc9cfa4eb32213b3aa602052604081205460ff166106b8565b306001600160a01b037f0000000000000000000000000000000000000000000000000000000000000000161415610c605760405162461bcd60e51b815260206004820152602c60248201527f46756e6374696f6e206d7573742062652063616c6c6564207468726f7567682060448201526b19195b1959d85d1958d85b1b60a21b606482015260840161087a565b7f00000000000000000000000000000000000000000000000000000000000000006001600160a01b0316610cbb7f360894a13ba1a3210667c828492db98dca3e2076cc3735a920a3ca505d382bbc546001600160a01b031690565b6001600160a01b031614610d265760405162461bcd60e51b815260206004820152602c60248201527f46756e6374696f6e206d7573742062652063616c6c6564207468726f7567682060448201526b6163746976652070726f787960a01b606482015260840161087a565b610d2f82611157565b61099a82826001611163565b600054610100900460ff16610d565760005460ff1615610d5a565b303b155b610dcc5760405162461bcd60e51b815260206004820152602e60248201527f496e697469616c697a61626c653a20636f6e747261637420697320616c72656160448201527f647920696e697469616c697a6564000000000000000000000000000000000000606482015260840161087a565b600054610100900460ff16158015610dee576000805461ffff19166101011790555b610df6611327565b610e016000336113ac565b8015610b17576000805461ff001916905550565b60fc6020526000908152604090208054610e2e90611d9b565b80601f0160208091040260200160405190810160405280929190818152602001828054610e5a90611d9b565b8015610ea75780601f10610e7c57610100808354040283529160200191610ea7565b820191906000526020600020905b815481529060010190602001808311610e8a57829003601f168201915b505050505081565b6001600160a01b038116600090815260fc602052604090819020905160fb91610ed791611bcd565b9081526040805160209281900383019020805473ffffffffffffffffffffffffffffffffffffffff191690556001600160a01b038316600090815260fc9092528120610f22916118ca565b610b177f49788824bf3df159efd0827e0b1ab32ee6c80e17cb8efc4c39991f543bff32c282610f8c565b6001600160a01b03811660009081527fdb769d1b4429d2f8156ee421364965c53afb7d906a13863a3ac435e08df26510602052604081205460ff166106b8565b600082815260656020526040902060010154610fa88133610fb2565b61075683836110d4565b60008281526065602090815260408083206001600160a01b038516845290915290205460ff1661099a57610ff0816001600160a01b031660146113b6565b610ffb8360206113b6565b60405160200161100c929190611c69565b60408051601f198184030181529082905262461bcd60e51b825261087a91600401611cea565b60008281526065602090815260408083206001600160a01b038516845290915290205460ff1661099a5760008281526065602090815260408083206001600160a01b03851684529091529020805460ff191660011790556110903390565b6001600160a01b0316816001600160a01b0316837f2f8788117e7eff1d82e926ec794901d17c78024a50270940304540a733656f0d60405160405180910390a45050565b60008281526065602090815260408083206001600160a01b038516845290915290205460ff161561099a5760008281526065602090815260408083206001600160a01b0385168085529252808320805460ff1916905551339285917ff6391f5c32d9c69d2a47ea670b442974b53935d1edc7fd64eb21e047a839171b9190a45050565b600061099a8133610fb2565b60006111967f360894a13ba1a3210667c828492db98dca3e2076cc3735a920a3ca505d382bbc546001600160a01b031690565b90506111a18461159e565b6000835111806111ae5750815b156111bf576111bd8484611660565b505b7f4910fdfa16fed3260ed0e7147f7cc6da11a60208b5b9406d12a635614ffd9143805460ff1661132057805460ff191660011781556040516001600160a01b038316602482015261126c90869060440160408051601f198184030181529190526020810180517bffffffffffffffffffffffffffffffffffffffffffffffffffffffff167f3659cfe600000000000000000000000000000000000000000000000000000000179052611660565b50805460ff191681557f360894a13ba1a3210667c828492db98dca3e2076cc3735a920a3ca505d382bbc546001600160a01b038381169116146113175760405162461bcd60e51b815260206004820152602f60248201527f45524331393637557067726164653a207570677261646520627265616b73206660448201527f7572746865722075706772616465730000000000000000000000000000000000606482015260840161087a565b61132085611762565b5050505050565b600054610100900460ff166113925760405162461bcd60e51b815260206004820152602b60248201527f496e697469616c697a61626c653a20636f6e7472616374206973206e6f74206960448201526a6e697469616c697a696e6760a81b606482015260840161087a565b61139a6117a2565b6113a26117a2565b6113aa6117a2565b565b61099a8282611032565b606060006113c5836002611d35565b6113d0906002611d1d565b67ffffffffffffffff8111156113e8576113e8611e02565b6040519080825280601f01601f191660200182016040528015611412576020820181803683370190505b5090507f30000000000000000000000000000000000000000000000000000000000000008160008151811061144957611449611dec565b60200101906001600160f81b031916908160001a9053507f78000000000000000000000000000000000000000000000000000000000000008160018151811061149457611494611dec565b60200101906001600160f81b031916908160001a90535060006114b8846002611d35565b6114c3906001611d1d565b90505b6001811115611548577f303132333435363738396162636465660000000000000000000000000000000085600f166010811061150457611504611dec565b1a60f81b82828151811061151a5761151a611dec565b60200101906001600160f81b031916908160001a90535060049490941c9361154181611d84565b90506114c6565b5083156115975760405162461bcd60e51b815260206004820181905260248201527f537472696e67733a20686578206c656e67746820696e73756666696369656e74604482015260640161087a565b9392505050565b803b6116125760405162461bcd60e51b815260206004820152602d60248201527f455243313936373a206e657720696d706c656d656e746174696f6e206973206e60448201527f6f74206120636f6e747261637400000000000000000000000000000000000000606482015260840161087a565b7f360894a13ba1a3210667c828492db98dca3e2076cc3735a920a3ca505d382bbc805473ffffffffffffffffffffffffffffffffffffffff19166001600160a01b0392909216919091179055565b6060823b6116d65760405162461bcd60e51b815260206004820152602660248201527f416464726573733a2064656c65676174652063616c6c20746f206e6f6e2d636f60448201527f6e74726163740000000000000000000000000000000000000000000000000000606482015260840161087a565b600080846001600160a01b0316846040516116f19190611ba1565b600060405180830381855af49150503d806000811461172c576040519150601f19603f3d011682016040523d82523d6000602084013e611731565b606091505b50915091506117598282604051806060016040528060278152602001611e196027913961180d565b95945050505050565b61176b8161159e565b6040516001600160a01b038216907fbc7cd75a20ee27fd9adebab32041f755214dbc6bffa90cc0225b39da2e5c2d3b90600090a250565b600054610100900460ff166113aa5760405162461bcd60e51b815260206004820152602b60248201527f496e697469616c697a61626c653a20636f6e7472616374206973206e6f74206960448201526a6e697469616c697a696e6760a81b606482015260840161087a565b6060831561181c575081611597565b82511561182c5782518084602001fd5b8160405162461bcd60e51b815260040161087a9190611cea565b82805461185290611d9b565b90600052602060002090601f01602090048101928261187457600085556118ba565b82601f1061188d5782800160ff198235161785556118ba565b828001600101855582156118ba579182015b828111156118ba57823582559160200191906001019061189f565b506118c6929150611900565b5090565b5080546118d690611d9b565b6000825580601f106118e6575050565b601f016020900490600052602060002090810190610b1791905b5b808211156118c65760008155600101611901565b600067ffffffffffffffff8084111561193057611930611e02565b604051601f8501601f19908116603f0116810190828211818310171561195857611958611e02565b8160405280935085815286868601111561197157600080fd5b858560208301376000602087830101525050509392505050565b80356001600160a01b03811681146119a257600080fd5b919050565b6000602082840312156119b957600080fd5b6115978261198b565b600080604083850312156119d557600080fd5b6119de8361198b565b9150602083013567ffffffffffffffff8111156119fa57600080fd5b8301601f81018513611a0b57600080fd5b611a1a85823560208401611915565b9150509250929050565b600080600060408486031215611a3957600080fd5b611a428461198b565b9250602084013567ffffffffffffffff80821115611a5f57600080fd5b818601915086601f830112611a7357600080fd5b813581811115611a8257600080fd5b876020828501011115611a9457600080fd5b6020830194508093505050509250925092565b600060208284031215611ab957600080fd5b8151801515811461159757600080fd5b600060208284031215611adb57600080fd5b5035919050565b60008060408385031215611af557600080fd5b82359150611b056020840161198b565b90509250929050565b600060208284031215611b2057600080fd5b81357fffffffff000000000000000000000000000000000000000000000000000000008116811461159757600080fd5b600060208284031215611b6257600080fd5b813567ffffffffffffffff811115611b7957600080fd5b8201601f81018413611b8a57600080fd5b611b9984823560208401611915565b949350505050565b60008251611bb3818460208701611d54565b9190910192915050565b8183823760009101908152919050565b600080835481600182811c915080831680611be957607f831692505b6020808410821415611c0957634e487b7160e01b86526022600452602486fd5b818015611c1d5760018114611c2e57611c5b565b60ff19861689528489019650611c5b565b60008a81526020902060005b86811015611c535781548b820152908501908301611c3a565b505084890196505b509498975050505050505050565b7f416363657373436f6e74726f6c3a206163636f756e7420000000000000000000815260008351611ca1816017850160208801611d54565b7f206973206d697373696e6720726f6c65200000000000000000000000000000006017918401918201528351611cde816028840160208801611d54565b01602801949350505050565b6020815260008251806020840152611d09816040850160208701611d54565b601f01601f19169190910160400192915050565b60008219821115611d3057611d30611dd6565b500190565b6000816000190483118215151615611d4f57611d4f611dd6565b500290565b60005b83811015611d6f578181015183820152602001611d57565b83811115611d7e576000848401525b50505050565b600081611d9357611d93611dd6565b506000190190565b600181811c90821680611daf57607f821691505b60208210811415611dd057634e487b7160e01b600052602260045260246000fd5b50919050565b634e487b7160e01b600052601160045260246000fd5b634e487b7160e01b600052603260045260246000fd5b634e487b7160e01b600052604160045260246000fdfe416464726573733a206c6f772d6c6576656c2064656c65676174652063616c6c206661696c6564a264697066735822122086f22e463b56f87d2ea0aae1c94036bd5d1e9cef48b267b40609f8cae6da3ba264736f6c63430008070033",
  "linkReferences": {},
  "deployedLinkReferences": {}
}