{
  "_format": "hh-sol-artifact-1",
  "contractName": "ETSAccessControlsUpgrade",
  "sourceName": "contracts/utils/UUPS/UUPSTesting.sol",
  "abi": [
    {
      "anonymous": false,
      "inputs": [
        {
          "indexed": false,
          "internalType": "address",
          "name": "previousAdmin",
          "type": "address"
        },
        {
          "indexed": false,
          "internalType": "address",
          "name": "newAdmin",
          "type": "address"
        }
      ],
      "name": "AdminChanged",
      "type": "event"
    },
    {
      "anonymous": false,
      "inputs": [
        {
          "indexed": true,
          "internalType": "address",
          "name": "beacon",
          "type": "address"
        }
      ],
      "name": "BeaconUpgraded",
      "type": "event"
    },
    {
      "anonymous": false,
      "inputs": [
        {
          "indexed": true,
          "internalType": "bytes32",
          "name": "role",
          "type": "bytes32"
        },
        {
          "indexed": true,
          "internalType": "bytes32",
          "name": "previousAdminRole",
          "type": "bytes32"
        },
        {
          "indexed": true,
          "internalType": "bytes32",
          "name": "newAdminRole",
          "type": "bytes32"
        }
      ],
      "name": "RoleAdminChanged",
      "type": "event"
    },
    {
      "anonymous": false,
      "inputs": [
        {
          "indexed": true,
          "internalType": "bytes32",
          "name": "role",
          "type": "bytes32"
        },
        {
          "indexed": true,
          "internalType": "address",
          "name": "account",
          "type": "address"
        },
        {
          "indexed": true,
          "internalType": "address",
          "name": "sender",
          "type": "address"
        }
      ],
      "name": "RoleGranted",
      "type": "event"
    },
    {
      "anonymous": false,
      "inputs": [
        {
          "indexed": true,
          "internalType": "bytes32",
          "name": "role",
          "type": "bytes32"
        },
        {
          "indexed": true,
          "internalType": "address",
          "name": "account",
          "type": "address"
        },
        {
          "indexed": true,
          "internalType": "address",
          "name": "sender",
          "type": "address"
        }
      ],
      "name": "RoleRevoked",
      "type": "event"
    },
    {
      "anonymous": false,
      "inputs": [
        {
          "indexed": true,
          "internalType": "address",
          "name": "implementation",
          "type": "address"
        }
      ],
      "name": "Upgraded",
      "type": "event"
    },
    {
      "inputs": [],
      "name": "DEFAULT_ADMIN_ROLE",
      "outputs": [
        {
          "internalType": "bytes32",
          "name": "",
          "type": "bytes32"
        }
      ],
      "stateMutability": "view",
      "type": "function"
    },
    {
      "inputs": [],
      "name": "NAME",
      "outputs": [
        {
          "internalType": "string",
          "name": "",
          "type": "string"
        }
      ],
      "stateMutability": "view",
      "type": "function"
    },
    {
      "inputs": [],
      "name": "PUBLISHER_ROLE",
      "outputs": [
        {
          "internalType": "bytes32",
          "name": "",
          "type": "bytes32"
        }
      ],
      "stateMutability": "view",
      "type": "function"
    },
    {
      "inputs": [],
      "name": "SMART_CONTRACT_ROLE",
      "outputs": [
        {
          "internalType": "bytes32",
          "name": "",
          "type": "bytes32"
        }
      ],
      "stateMutability": "view",
      "type": "function"
    },
    {
      "inputs": [],
      "name": "VERSION",
      "outputs": [
        {
          "internalType": "string",
          "name": "",
          "type": "string"
        }
      ],
      "stateMutability": "view",
      "type": "function"
    },
    {
      "inputs": [
        {
          "internalType": "bytes32",
          "name": "role",
          "type": "bytes32"
        }
      ],
      "name": "getRoleAdmin",
      "outputs": [
        {
          "internalType": "bytes32",
          "name": "",
          "type": "bytes32"
        }
      ],
      "stateMutability": "view",
      "type": "function"
    },
    {
      "inputs": [
        {
          "internalType": "bytes32",
          "name": "role",
          "type": "bytes32"
        },
        {
          "internalType": "address",
          "name": "account",
          "type": "address"
        }
      ],
      "name": "grantRole",
      "outputs": [],
      "stateMutability": "nonpayable",
      "type": "function"
    },
    {
      "inputs": [
        {
          "internalType": "bytes32",
          "name": "role",
          "type": "bytes32"
        },
        {
          "internalType": "address",
          "name": "account",
          "type": "address"
        }
      ],
      "name": "hasRole",
      "outputs": [
        {
          "internalType": "bool",
          "name": "",
          "type": "bool"
        }
      ],
      "stateMutability": "view",
      "type": "function"
    },
    {
      "inputs": [],
      "name": "initialize",
      "outputs": [],
      "stateMutability": "nonpayable",
      "type": "function"
    },
    {
      "inputs": [
        {
          "internalType": "address",
          "name": "_addr",
          "type": "address"
        }
      ],
      "name": "isAdmin",
      "outputs": [
        {
          "internalType": "bool",
          "name": "",
          "type": "bool"
        }
      ],
      "stateMutability": "view",
      "type": "function"
    },
    {
      "inputs": [
        {
          "internalType": "address",
          "name": "_addr",
          "type": "address"
        }
      ],
      "name": "isPublisher",
      "outputs": [
        {
          "internalType": "bool",
          "name": "",
          "type": "bool"
        }
      ],
      "stateMutability": "view",
      "type": "function"
    },
    {
      "inputs": [
        {
          "internalType": "address",
          "name": "_addr",
          "type": "address"
        }
      ],
      "name": "isSmartContract",
      "outputs": [
        {
          "internalType": "bool",
          "name": "",
          "type": "bool"
        }
      ],
      "stateMutability": "view",
      "type": "function"
    },
    {
      "inputs": [
        {
          "internalType": "string",
          "name": "message",
          "type": "string"
        }
      ],
      "name": "postUpgrade",
      "outputs": [],
      "stateMutability": "view",
      "type": "function"
    },
    {
      "inputs": [
        {
          "internalType": "bytes32",
          "name": "role",
          "type": "bytes32"
        },
        {
          "internalType": "address",
          "name": "account",
          "type": "address"
        }
      ],
      "name": "renounceRole",
      "outputs": [],
      "stateMutability": "nonpayable",
      "type": "function"
    },
    {
      "inputs": [
        {
          "internalType": "bytes32",
          "name": "role",
          "type": "bytes32"
        },
        {
          "internalType": "address",
          "name": "account",
          "type": "address"
        }
      ],
      "name": "revokeRole",
      "outputs": [],
      "stateMutability": "nonpayable",
      "type": "function"
    },
    {
      "inputs": [
        {
          "internalType": "bytes4",
          "name": "interfaceId",
          "type": "bytes4"
        }
      ],
      "name": "supportsInterface",
      "outputs": [
        {
          "internalType": "bool",
          "name": "",
          "type": "bool"
        }
      ],
      "stateMutability": "view",
      "type": "function"
    },
    {
      "inputs": [],
      "name": "upgradeTest",
      "outputs": [
        {
          "internalType": "bool",
          "name": "",
          "type": "bool"
        }
      ],
      "stateMutability": "pure",
      "type": "function"
    },
    {
      "inputs": [
        {
          "internalType": "address",
          "name": "newImplementation",
          "type": "address"
        }
      ],
      "name": "upgradeTo",
      "outputs": [],
      "stateMutability": "nonpayable",
      "type": "function"
    },
    {
      "inputs": [
        {
          "internalType": "address",
          "name": "newImplementation",
          "type": "address"
        },
        {
          "internalType": "bytes",
          "name": "data",
          "type": "bytes"
        }
      ],
      "name": "upgradeToAndCall",
      "outputs": [],
      "stateMutability": "payable",
      "type": "function"
    },
    {
      "inputs": [],
      "name": "upgraded",
      "outputs": [
        {
          "internalType": "string",
          "name": "",
          "type": "string"
        }
      ],
      "stateMutability": "pure",
      "type": "function"
    },
    {
      "inputs": [],
      "name": "version",
      "outputs": [
        {
          "internalType": "string",
          "name": "",
          "type": "string"
        }
      ],
      "stateMutability": "pure",
      "type": "function"
    }
  ],
  "bytecode": "0x60a06040523060601b60805234801561001757600080fd5b5060805160601c61189861004b600039600081816106ba0152818161073f0152818161087601526108fb01526118986000f3fe60806040526004361061016a5760003560e01c806354fd4d50116100cb578063a3f4df7e1161007f578063d547741f11610059578063d547741f14610455578063d8f4b6fd14610475578063ffa1ad74146104a957600080fd5b8063a3f4df7e146103a6578063b1441ce6146103ef578063c28de2cd1461040f57600080fd5b8063857d2608116100b0578063857d26081461031757806391d148541461034b578063a217fddf1461039157600080fd5b806354fd4d50146102cb5780638129fc1c1461030257600080fd5b806336568abe116101225780633d20b15c116101075780633d20b15c1461028457806341859ac8146102985780634f1ef286146102b857600080fd5b806336568abe146102445780633659cfe61461026457600080fd5b806324d7806c1161015357806324d7806c146101e25780632f2ff15d14610202578063347308b21461022457600080fd5b806301ffc9a71461016f578063248a9ca3146101a4575b600080fd5b34801561017b57600080fd5b5061018f61018a3660046115c6565b6104da565b60405190151581526020015b60405180910390f35b3480156101b057600080fd5b506101d46101bf366004611581565b60009081526065602052604090206001015490565b60405190815260200161019b565b3480156101ee57600080fd5b5061018f6101fd3660046114a4565b610573565b34801561020e57600080fd5b5061022261021d36600461159a565b6105b3565b005b34801561023057600080fd5b5061018f61023f3660046114a4565b6105de565b34801561025057600080fd5b5061022261025f36600461159a565b61061e565b34801561027057600080fd5b5061022261027f3660046114a4565b6106af565b34801561029057600080fd5b50600161018f565b3480156102a457600080fd5b5061018f6102b33660046114a4565b61082b565b6102226102c63660046114bf565b61086b565b3480156102d757600080fd5b50604080518082019091526005815264302e302e3160d81b60208201525b60405161019b9190611743565b34801561030e57600080fd5b506102226109d4565b34801561032357600080fd5b506101d47f5474431f81b75a7b45d74ffe5ff51964b4290ef4c86184accd4e4a9822dae90181565b34801561035757600080fd5b5061018f61036636600461159a565b60009182526065602090815260408084206001600160a01b0393909316845291905290205460ff1690565b34801561039d57600080fd5b506101d4600081565b3480156103b257600080fd5b506102f56040518060400160405280601381526020017f4554532061636365737320636f6e74726f6c730000000000000000000000000081525081565b3480156103fb57600080fd5b5061022261040a366004611608565b610aae565b34801561041b57600080fd5b5060408051808201909152600b81527f796f75206b6e6f7720697400000000000000000000000000000000000000000060208201526102f5565b34801561046157600080fd5b5061022261047036600461159a565b610b2f565b34801561048157600080fd5b506101d47fad312f08b8889cfe65ec2f1faae419f8b47f0153a3483ea6130918c055c8183d81565b3480156104b557600080fd5b506102f560405180604001604052806005815260200164302e302e3160d81b81525081565b60007fffffffff0000000000000000000000000000000000000000000000000000000082167f7965db0b00000000000000000000000000000000000000000000000000000000148061056d57507f01ffc9a7000000000000000000000000000000000000000000000000000000007fffffffff000000000000000000000000000000000000000000000000000000008316145b92915050565b6001600160a01b03811660009081527fffdfc1249c027f9191656349feb0761381bb32c9f557e01f419fd08754bf5a1b602052604081205460ff1661056d565b6000828152606560205260409020600101546105cf8133610b55565b6105d98383610bd5565b505050565b6001600160a01b03811660009081527f1c575814e1cd24773b117fedd6b05ab4d9de98c6d9f60531a8ff9197b9c46f15602052604081205460ff1661056d565b6001600160a01b03811633146106a15760405162461bcd60e51b815260206004820152602f60248201527f416363657373436f6e74726f6c3a2063616e206f6e6c792072656e6f756e636560448201527f20726f6c657320666f722073656c66000000000000000000000000000000000060648201526084015b60405180910390fd5b6106ab8282610c77565b5050565b306001600160a01b037f000000000000000000000000000000000000000000000000000000000000000016141561073d5760405162461bcd60e51b815260206004820152602c60248201527f46756e6374696f6e206d7573742062652063616c6c6564207468726f7567682060448201526b19195b1959d85d1958d85b1b60a21b6064820152608401610698565b7f00000000000000000000000000000000000000000000000000000000000000006001600160a01b03166107987f360894a13ba1a3210667c828492db98dca3e2076cc3735a920a3ca505d382bbc546001600160a01b031690565b6001600160a01b0316146108035760405162461bcd60e51b815260206004820152602c60248201527f46756e6374696f6e206d7573742062652063616c6c6564207468726f7567682060448201526b6163746976652070726f787960a01b6064820152608401610698565b61080c81610cfa565b6040805160008082526020820190925261082891839190610d06565b50565b6001600160a01b03811660009081527f539b586f55d61ee867945dc075fa8e91eca932ae00c1c0cc9cfa4eb32213b3aa602052604081205460ff1661056d565b306001600160a01b037f00000000000000000000000000000000000000000000000000000000000000001614156108f95760405162461bcd60e51b815260206004820152602c60248201527f46756e6374696f6e206d7573742062652063616c6c6564207468726f7567682060448201526b19195b1959d85d1958d85b1b60a21b6064820152608401610698565b7f00000000000000000000000000000000000000000000000000000000000000006001600160a01b03166109547f360894a13ba1a3210667c828492db98dca3e2076cc3735a920a3ca505d382bbc546001600160a01b031690565b6001600160a01b0316146109bf5760405162461bcd60e51b815260206004820152602c60248201527f46756e6374696f6e206d7573742062652063616c6c6564207468726f7567682060448201526b6163746976652070726f787960a01b6064820152608401610698565b6109c882610cfa565b6106ab82826001610d06565b600054610100900460ff166109ef5760005460ff16156109f3565b303b155b610a655760405162461bcd60e51b815260206004820152602e60248201527f496e697469616c697a61626c653a20636f6e747261637420697320616c72656160448201527f647920696e697469616c697a65640000000000000000000000000000000000006064820152608401610698565b600054610100900460ff16158015610a87576000805461ffff19166101011790555b610a8f610eca565b610a9a600033610f4f565b8015610828576000805461ff001916905550565b6000610aba8133610b55565b6105d96040518060400160405280601a81526020017f455453416363657373436f6e74726f6c7320757067726164656400000000000081525084848080601f016020809104026020016040519081016040528093929190818152602001838380828437600092019190915250610f5992505050565b600082815260656020526040902060010154610b4b8133610b55565b6105d98383610c77565b60008281526065602090815260408083206001600160a01b038516845290915290205460ff166106ab57610b93816001600160a01b03166014610fcc565b610b9e836020610fcc565b604051602001610baf9291906116c2565b60408051601f198184030181529082905262461bcd60e51b825261069891600401611743565b60008281526065602090815260408083206001600160a01b038516845290915290205460ff166106ab5760008281526065602090815260408083206001600160a01b03851684529091529020805460ff19166001179055610c333390565b6001600160a01b0316816001600160a01b0316837f2f8788117e7eff1d82e926ec794901d17c78024a50270940304540a733656f0d60405160405180910390a45050565b60008281526065602090815260408083206001600160a01b038516845290915290205460ff16156106ab5760008281526065602090815260408083206001600160a01b0385168085529252808320805460ff1916905551339285917ff6391f5c32d9c69d2a47ea670b442974b53935d1edc7fd64eb21e047a839171b9190a45050565b60006106ab8133610b55565b6000610d397f360894a13ba1a3210667c828492db98dca3e2076cc3735a920a3ca505d382bbc546001600160a01b031690565b9050610d44846111b4565b600083511180610d515750815b15610d6257610d608484611281565b505b7f4910fdfa16fed3260ed0e7147f7cc6da11a60208b5b9406d12a635614ffd9143805460ff16610ec357805460ff191660011781556040516001600160a01b0383166024820152610e0f90869060440160408051601f198184030181529190526020810180517bffffffffffffffffffffffffffffffffffffffffffffffffffffffff167f3659cfe600000000000000000000000000000000000000000000000000000000179052611281565b50805460ff191681557f360894a13ba1a3210667c828492db98dca3e2076cc3735a920a3ca505d382bbc546001600160a01b03838116911614610eba5760405162461bcd60e51b815260206004820152602f60248201527f45524331393637557067726164653a207570677261646520627265616b73206660448201527f75727468657220757067726164657300000000000000000000000000000000006064820152608401610698565b610ec385611383565b5050505050565b600054610100900460ff16610f355760405162461bcd60e51b815260206004820152602b60248201527f496e697469616c697a61626c653a20636f6e7472616374206973206e6f74206960448201526a6e697469616c697a696e6760a81b6064820152608401610698565b610f3d6113c3565b610f456113c3565b610f4d6113c3565b565b6106ab8282610bd5565b6106ab8282604051602401610f6f929190611756565b60408051601f198184030181529190526020810180517bffffffffffffffffffffffffffffffffffffffffffffffffffffffff167f4b5c42770000000000000000000000000000000000000000000000000000000017905261142e565b60606000610fdb836002611793565b610fe690600261177b565b67ffffffffffffffff811115610ffe57610ffe611825565b6040519080825280601f01601f191660200182016040528015611028576020820181803683370190505b5090507f30000000000000000000000000000000000000000000000000000000000000008160008151811061105f5761105f61180f565b60200101906001600160f81b031916908160001a9053507f7800000000000000000000000000000000000000000000000000000000000000816001815181106110aa576110aa61180f565b60200101906001600160f81b031916908160001a90535060006110ce846002611793565b6110d990600161177b565b90505b600181111561115e577f303132333435363738396162636465660000000000000000000000000000000085600f166010811061111a5761111a61180f565b1a60f81b8282815181106111305761113061180f565b60200101906001600160f81b031916908160001a90535060049490941c93611157816117e2565b90506110dc565b5083156111ad5760405162461bcd60e51b815260206004820181905260248201527f537472696e67733a20686578206c656e67746820696e73756666696369656e746044820152606401610698565b9392505050565b803b6112285760405162461bcd60e51b815260206004820152602d60248201527f455243313936373a206e657720696d706c656d656e746174696f6e206973206e60448201527f6f74206120636f6e7472616374000000000000000000000000000000000000006064820152608401610698565b7f360894a13ba1a3210667c828492db98dca3e2076cc3735a920a3ca505d382bbc80547fffffffffffffffffffffffff0000000000000000000000000000000000000000166001600160a01b0392909216919091179055565b6060823b6112f75760405162461bcd60e51b815260206004820152602660248201527f416464726573733a2064656c65676174652063616c6c20746f206e6f6e2d636f60448201527f6e747261637400000000000000000000000000000000000000000000000000006064820152608401610698565b600080846001600160a01b03168460405161131291906116a6565b600060405180830381855af49150503d806000811461134d576040519150601f19603f3d011682016040523d82523d6000602084013e611352565b606091505b509150915061137a828260405180606001604052806027815260200161183c6027913961144f565b95945050505050565b61138c816111b4565b6040516001600160a01b038216907fbc7cd75a20ee27fd9adebab32041f755214dbc6bffa90cc0225b39da2e5c2d3b90600090a250565b600054610100900460ff16610f4d5760405162461bcd60e51b815260206004820152602b60248201527f496e697469616c697a61626c653a20636f6e7472616374206973206e6f74206960448201526a6e697469616c697a696e6760a81b6064820152608401610698565b80516a636f6e736f6c652e6c6f67602083016000808483855afa5050505050565b6060831561145e5750816111ad565b82511561146e5782518084602001fd5b8160405162461bcd60e51b81526004016106989190611743565b80356001600160a01b038116811461149f57600080fd5b919050565b6000602082840312156114b657600080fd5b6111ad82611488565b600080604083850312156114d257600080fd5b6114db83611488565b9150602083013567ffffffffffffffff808211156114f857600080fd5b818501915085601f83011261150c57600080fd5b81358181111561151e5761151e611825565b604051601f8201601f19908116603f0116810190838211818310171561154657611546611825565b8160405282815288602084870101111561155f57600080fd5b8260208601602083013760006020848301015280955050505050509250929050565b60006020828403121561159357600080fd5b5035919050565b600080604083850312156115ad57600080fd5b823591506115bd60208401611488565b90509250929050565b6000602082840312156115d857600080fd5b81357fffffffff00000000000000000000000000000000000000000000000000000000811681146111ad57600080fd5b6000806020838503121561161b57600080fd5b823567ffffffffffffffff8082111561163357600080fd5b818501915085601f83011261164757600080fd5b81358181111561165657600080fd5b86602082850101111561166857600080fd5b60209290920196919550909350505050565b600081518084526116928160208601602086016117b2565b601f01601f19169290920160200192915050565b600082516116b88184602087016117b2565b9190910192915050565b7f416363657373436f6e74726f6c3a206163636f756e74200000000000000000008152600083516116fa8160178501602088016117b2565b7f206973206d697373696e6720726f6c652000000000000000000000000000000060179184019182015283516117378160288401602088016117b2565b01602801949350505050565b6020815260006111ad602083018461167a565b604081526000611769604083018561167a565b828103602084015261137a818561167a565b6000821982111561178e5761178e6117f9565b500190565b60008160001904831182151516156117ad576117ad6117f9565b500290565b60005b838110156117cd5781810151838201526020016117b5565b838111156117dc576000848401525b50505050565b6000816117f1576117f16117f9565b506000190190565b634e487b7160e01b600052601160045260246000fd5b634e487b7160e01b600052603260045260246000fd5b634e487b7160e01b600052604160045260246000fdfe416464726573733a206c6f772d6c6576656c2064656c65676174652063616c6c206661696c6564a2646970667358221220f06e6d9a22a14485c203d1a47a7743d4d4c52abb7e7d71fca27d8c4bb2059ede64736f6c63430008070033",
  "linkReferences": {},
  "deployedLinkReferences": {}
}