{
  "_format": "hh-sol-artifact-1",
  "contractName": "ETSAccessControlsUpgrade",
  "sourceName": "contracts/utils/UUPS/UUPSTesting.sol",
  "abi": [
    {
      "anonymous": false,
      "inputs": [
        {
          "indexed": false,
          "internalType": "address",
          "name": "previousAdmin",
          "type": "address"
        },
        {
          "indexed": false,
          "internalType": "address",
          "name": "newAdmin",
          "type": "address"
        }
      ],
      "name": "AdminChanged",
      "type": "event"
    },
    {
      "anonymous": false,
      "inputs": [
        {
          "indexed": true,
          "internalType": "address",
          "name": "beacon",
          "type": "address"
        }
      ],
      "name": "BeaconUpgraded",
      "type": "event"
    },
    {
      "anonymous": false,
      "inputs": [
        {
          "indexed": true,
          "internalType": "bytes32",
          "name": "role",
          "type": "bytes32"
        },
        {
          "indexed": true,
          "internalType": "bytes32",
          "name": "previousAdminRole",
          "type": "bytes32"
        },
        {
          "indexed": true,
          "internalType": "bytes32",
          "name": "newAdminRole",
          "type": "bytes32"
        }
      ],
      "name": "RoleAdminChanged",
      "type": "event"
    },
    {
      "anonymous": false,
      "inputs": [
        {
          "indexed": true,
          "internalType": "bytes32",
          "name": "role",
          "type": "bytes32"
        },
        {
          "indexed": true,
          "internalType": "address",
          "name": "account",
          "type": "address"
        },
        {
          "indexed": true,
          "internalType": "address",
          "name": "sender",
          "type": "address"
        }
      ],
      "name": "RoleGranted",
      "type": "event"
    },
    {
      "anonymous": false,
      "inputs": [
        {
          "indexed": true,
          "internalType": "bytes32",
          "name": "role",
          "type": "bytes32"
        },
        {
          "indexed": true,
          "internalType": "address",
          "name": "account",
          "type": "address"
        },
        {
          "indexed": true,
          "internalType": "address",
          "name": "sender",
          "type": "address"
        }
      ],
      "name": "RoleRevoked",
      "type": "event"
    },
    {
      "anonymous": false,
      "inputs": [
        {
          "indexed": false,
          "internalType": "bool",
          "name": "newValue",
          "type": "bool"
        }
      ],
      "name": "TargetTypePauseToggled",
      "type": "event"
    },
    {
      "anonymous": false,
      "inputs": [
        {
          "indexed": true,
          "internalType": "address",
          "name": "implementation",
          "type": "address"
        }
      ],
      "name": "Upgraded",
      "type": "event"
    },
    {
      "inputs": [],
      "name": "DEFAULT_ADMIN_ROLE",
      "outputs": [
        {
          "internalType": "bytes32",
          "name": "",
          "type": "bytes32"
        }
      ],
      "stateMutability": "view",
      "type": "function"
    },
    {
      "inputs": [],
      "name": "NAME",
      "outputs": [
        {
          "internalType": "string",
          "name": "",
          "type": "string"
        }
      ],
      "stateMutability": "view",
      "type": "function"
    },
    {
      "inputs": [],
      "name": "PUBLISHER_ROLE",
      "outputs": [
        {
          "internalType": "bytes32",
          "name": "",
          "type": "bytes32"
        }
      ],
      "stateMutability": "view",
      "type": "function"
    },
    {
      "inputs": [],
      "name": "SMART_CONTRACT_ROLE",
      "outputs": [
        {
          "internalType": "bytes32",
          "name": "",
          "type": "bytes32"
        }
      ],
      "stateMutability": "view",
      "type": "function"
    },
    {
      "inputs": [],
      "name": "TARGET_TYPE_ROLE",
      "outputs": [
        {
          "internalType": "bytes32",
          "name": "",
          "type": "bytes32"
        }
      ],
      "stateMutability": "view",
      "type": "function"
    },
    {
      "inputs": [],
      "name": "VERSION",
      "outputs": [
        {
          "internalType": "string",
          "name": "",
          "type": "string"
        }
      ],
      "stateMutability": "view",
      "type": "function"
    },
    {
      "inputs": [
        {
          "internalType": "address",
          "name": "_smartContract",
          "type": "address"
        },
        {
          "internalType": "string",
          "name": "_name",
          "type": "string"
        }
      ],
      "name": "addTargetType",
      "outputs": [],
      "stateMutability": "nonpayable",
      "type": "function"
    },
    {
      "inputs": [
        {
          "internalType": "bytes32",
          "name": "role",
          "type": "bytes32"
        }
      ],
      "name": "getRoleAdmin",
      "outputs": [
        {
          "internalType": "bytes32",
          "name": "",
          "type": "bytes32"
        }
      ],
      "stateMutability": "view",
      "type": "function"
    },
    {
      "inputs": [
        {
          "internalType": "bytes32",
          "name": "role",
          "type": "bytes32"
        },
        {
          "internalType": "address",
          "name": "account",
          "type": "address"
        }
      ],
      "name": "grantRole",
      "outputs": [],
      "stateMutability": "nonpayable",
      "type": "function"
    },
    {
      "inputs": [
        {
          "internalType": "bytes32",
          "name": "role",
          "type": "bytes32"
        },
        {
          "internalType": "address",
          "name": "account",
          "type": "address"
        }
      ],
      "name": "hasRole",
      "outputs": [
        {
          "internalType": "bool",
          "name": "",
          "type": "bool"
        }
      ],
      "stateMutability": "view",
      "type": "function"
    },
    {
      "inputs": [],
      "name": "initialize",
      "outputs": [],
      "stateMutability": "nonpayable",
      "type": "function"
    },
    {
      "inputs": [
        {
          "internalType": "address",
          "name": "_addr",
          "type": "address"
        }
      ],
      "name": "isAdmin",
      "outputs": [
        {
          "internalType": "bool",
          "name": "",
          "type": "bool"
        }
      ],
      "stateMutability": "view",
      "type": "function"
    },
    {
      "inputs": [
        {
          "internalType": "address",
          "name": "_addr",
          "type": "address"
        }
      ],
      "name": "isPublisher",
      "outputs": [
        {
          "internalType": "bool",
          "name": "",
          "type": "bool"
        }
      ],
      "stateMutability": "view",
      "type": "function"
    },
    {
      "inputs": [
        {
          "internalType": "address",
          "name": "_addr",
          "type": "address"
        }
      ],
      "name": "isSmartContract",
      "outputs": [
        {
          "internalType": "bool",
          "name": "",
          "type": "bool"
        }
      ],
      "stateMutability": "view",
      "type": "function"
    },
    {
      "inputs": [
        {
          "internalType": "address",
          "name": "_smartContract",
          "type": "address"
        }
      ],
      "name": "isTargetType",
      "outputs": [
        {
          "internalType": "bool",
          "name": "",
          "type": "bool"
        }
      ],
      "stateMutability": "view",
      "type": "function"
    },
    {
      "inputs": [
        {
          "internalType": "address",
          "name": "_smartContract",
          "type": "address"
        }
      ],
      "name": "isTargetTypeAndNotPaused",
      "outputs": [
        {
          "internalType": "bool",
          "name": "",
          "type": "bool"
        }
      ],
      "stateMutability": "view",
      "type": "function"
    },
    {
      "inputs": [
        {
          "internalType": "address",
          "name": "",
          "type": "address"
        }
      ],
      "name": "isTargetTypePaused",
      "outputs": [
        {
          "internalType": "bool",
          "name": "",
          "type": "bool"
        }
      ],
      "stateMutability": "view",
      "type": "function"
    },
    {
      "inputs": [
        {
          "internalType": "string",
          "name": "message",
          "type": "string"
        }
      ],
      "name": "postUpgrade",
      "outputs": [],
      "stateMutability": "view",
      "type": "function"
    },
    {
      "inputs": [
        {
          "internalType": "address",
          "name": "_smartContract",
          "type": "address"
        }
      ],
      "name": "removeTargetType",
      "outputs": [],
      "stateMutability": "nonpayable",
      "type": "function"
    },
    {
      "inputs": [
        {
          "internalType": "bytes32",
          "name": "role",
          "type": "bytes32"
        },
        {
          "internalType": "address",
          "name": "account",
          "type": "address"
        }
      ],
      "name": "renounceRole",
      "outputs": [],
      "stateMutability": "nonpayable",
      "type": "function"
    },
    {
      "inputs": [
        {
          "internalType": "bytes32",
          "name": "role",
          "type": "bytes32"
        },
        {
          "internalType": "address",
          "name": "account",
          "type": "address"
        }
      ],
      "name": "revokeRole",
      "outputs": [],
      "stateMutability": "nonpayable",
      "type": "function"
    },
    {
      "inputs": [
        {
          "internalType": "bytes4",
          "name": "interfaceId",
          "type": "bytes4"
        }
      ],
      "name": "supportsInterface",
      "outputs": [
        {
          "internalType": "bool",
          "name": "",
          "type": "bool"
        }
      ],
      "stateMutability": "view",
      "type": "function"
    },
    {
      "inputs": [
        {
          "internalType": "address",
          "name": "",
          "type": "address"
        }
      ],
      "name": "targetTypeContractName",
      "outputs": [
        {
          "internalType": "string",
          "name": "",
          "type": "string"
        }
      ],
      "stateMutability": "view",
      "type": "function"
    },
    {
      "inputs": [
        {
          "internalType": "string",
          "name": "",
          "type": "string"
        }
      ],
      "name": "targetTypeToContract",
      "outputs": [
        {
          "internalType": "address",
          "name": "",
          "type": "address"
        }
      ],
      "stateMutability": "view",
      "type": "function"
    },
    {
      "inputs": [
        {
          "internalType": "address",
          "name": "_smartContract",
          "type": "address"
        }
      ],
      "name": "toggleIsTargetTypePaused",
      "outputs": [],
      "stateMutability": "nonpayable",
      "type": "function"
    },
    {
      "inputs": [],
      "name": "upgradeTest",
      "outputs": [
        {
          "internalType": "bool",
          "name": "",
          "type": "bool"
        }
      ],
      "stateMutability": "pure",
      "type": "function"
    },
    {
      "inputs": [
        {
          "internalType": "address",
          "name": "newImplementation",
          "type": "address"
        }
      ],
      "name": "upgradeTo",
      "outputs": [],
      "stateMutability": "nonpayable",
      "type": "function"
    },
    {
      "inputs": [
        {
          "internalType": "address",
          "name": "newImplementation",
          "type": "address"
        },
        {
          "internalType": "bytes",
          "name": "data",
          "type": "bytes"
        }
      ],
      "name": "upgradeToAndCall",
      "outputs": [],
      "stateMutability": "payable",
      "type": "function"
    },
    {
      "inputs": [],
      "name": "upgraded",
      "outputs": [
        {
          "internalType": "string",
          "name": "",
          "type": "string"
        }
      ],
      "stateMutability": "pure",
      "type": "function"
    },
    {
      "inputs": [],
      "name": "version",
      "outputs": [
        {
          "internalType": "string",
          "name": "",
          "type": "string"
        }
      ],
      "stateMutability": "pure",
      "type": "function"
    }
  ],
  "bytecode": "0x60a06040523060601b60805234801561001757600080fd5b5060805160601c61209261004b60003960008181610a2501528181610aaa01528181610c590152610cde01526120926000f3fe6080604052600436106101cd5760003560e01c80638129fc1c116100f7578063ad8194f911610095578063c61c63dd11610064578063c61c63dd146105dc578063d547741f14610635578063d8f4b6fd14610655578063ffa1ad741461068957600080fd5b8063ad8194f914610522578063b1441ce614610542578063b87dfff814610562578063c28de2cd1461059657600080fd5b8063a217fddf116100d1578063a217fddf14610484578063a3f4df7e14610499578063a88ae5b6146104e2578063acaa48431461050257600080fd5b80638129fc1c146103f5578063857d26081461040a57806391d148541461043e57600080fd5b806336568abe1161016f57806341859ac81161013e57806341859ac81461035b5780634f1ef2861461037b57806354fd4d501461038e57806380719e9b146103c557600080fd5b806336568abe146102e75780633659cfe6146103075780633d20b15c146103275780634002649b1461033b57600080fd5b80632b04fd44116101ab5780632b04fd44146102655780632f2ff15d14610285578063347308b2146102a7578063360698dd146102c757600080fd5b806301ffc9a7146101d2578063248a9ca31461020757806324d7806c14610245575b600080fd5b3480156101de57600080fd5b506101f26101ed366004611cb8565b6106ba565b60405190151581526020015b60405180910390f35b34801561021357600080fd5b50610237610222366004611c73565b60009081526065602052604090206001015490565b6040519081526020016101fe565b34801561025157600080fd5b506101f2610260366004611b81565b61073a565b34801561027157600080fd5b506101f2610280366004611b81565b61077a565b34801561029157600080fd5b506102a56102a0366004611c8c565b6107ac565b005b3480156102b357600080fd5b506101f26102c2366004611b81565b6107d7565b3480156102d357600080fd5b506102a56102e2366004611bfe565b610817565b3480156102f357600080fd5b506102a5610302366004611c8c565b61098e565b34801561031357600080fd5b506102a5610322366004611b81565b610a1a565b34801561033357600080fd5b5060016101f2565b34801561034757600080fd5b506102a5610356366004611b81565b610b96565b34801561036757600080fd5b506101f2610376366004611b81565b610c0e565b6102a5610389366004611b9c565b610c4e565b34801561039a57600080fd5b50604080518082019091526005815264302e302e3160d81b60208201525b6040516101fe9190611f02565b3480156103d157600080fd5b506101f26103e0366004611b81565b60fd6020526000908152604090205460ff1681565b34801561040157600080fd5b506102a5610db7565b34801561041657600080fd5b506102377f5474431f81b75a7b45d74ffe5ff51964b4290ef4c86184accd4e4a9822dae90181565b34801561044a57600080fd5b506101f2610459366004611c8c565b60009182526065602090815260408084206001600160a01b0393909316845291905290205460ff1690565b34801561049057600080fd5b50610237600081565b3480156104a557600080fd5b506103b86040518060400160405280601381526020017f4554532061636365737320636f6e74726f6c730000000000000000000000000081525081565b3480156104ee57600080fd5b506103b86104fd366004611b81565b610e91565b34801561050e57600080fd5b506102a561051d366004611b81565b610f2b565b34801561052e57600080fd5b506101f261053d366004611b81565b610fc8565b34801561054e57600080fd5b506102a561055d366004611cfa565b611008565b34801561056e57600080fd5b506102377f49788824bf3df159efd0827e0b1ab32ee6c80e17cb8efc4c39991f543bff32c281565b3480156105a257600080fd5b5060408051808201909152600b81527f796f75206b6e6f7720697400000000000000000000000000000000000000000060208201526103b8565b3480156105e857600080fd5b5061061d6105f7366004611d3c565b805160208183018101805160fb825292820191909301209152546001600160a01b031681565b6040516001600160a01b0390911681526020016101fe565b34801561064157600080fd5b506102a5610650366004611c8c565b611089565b34801561066157600080fd5b506102377fad312f08b8889cfe65ec2f1faae419f8b47f0153a3483ea6130918c055c8183d81565b34801561069557600080fd5b506103b860405180604001604052806005815260200164302e302e3160d81b81525081565b60007fffffffff0000000000000000000000000000000000000000000000000000000082167f7965db0b00000000000000000000000000000000000000000000000000000000148061073457506301ffc9a760e01b7fffffffff000000000000000000000000000000000000000000000000000000008316145b92915050565b6001600160a01b03811660009081527fffdfc1249c027f9191656349feb0761381bb32c9f557e01f419fd08754bf5a1b602052604081205460ff16610734565b600061078582610fc8565b80156107345750506001600160a01b0316600090815260fd602052604090205460ff161590565b6000828152606560205260409020600101546107c881336110af565b6107d2838361112f565b505050565b6001600160a01b03811660009081527f1c575814e1cd24773b117fedd6b05ab4d9de98c6d9f60531a8ff9197b9c46f15602052604081205460ff16610734565b6040516301ffc9a760e01b81527fdb276bc10000000000000000000000000000000000000000000000000000000060048201526001600160a01b038416906301ffc9a79060240160206040518083038186803b15801561087657600080fd5b505afa15801561088a573d6000803e3d6000fd5b505050506040513d601f19601f820116820180604052508101906108ae9190611c51565b6108ff5760405162461bcd60e51b815260206004820181905260248201527f526571756972656420696e74657266616365206e6f7420737570706f7274656460448201526064015b60405180910390fd5b8260fb8383604051610912929190611dd5565b9081526040805160209281900383019020805473ffffffffffffffffffffffffffffffffffffffff19166001600160a01b03948516179055918516600090815260fc909152206109639083836119d7565b506107d27f49788824bf3df159efd0827e0b1ab32ee6c80e17cb8efc4c39991f543bff32c2846107ac565b6001600160a01b0381163314610a0c5760405162461bcd60e51b815260206004820152602f60248201527f416363657373436f6e74726f6c3a2063616e206f6e6c792072656e6f756e636560448201527f20726f6c657320666f722073656c66000000000000000000000000000000000060648201526084016108f6565b610a1682826111d1565b5050565b306001600160a01b037f0000000000000000000000000000000000000000000000000000000000000000161415610aa85760405162461bcd60e51b815260206004820152602c60248201527f46756e6374696f6e206d7573742062652063616c6c6564207468726f7567682060448201526b19195b1959d85d1958d85b1b60a21b60648201526084016108f6565b7f00000000000000000000000000000000000000000000000000000000000000006001600160a01b0316610b037f360894a13ba1a3210667c828492db98dca3e2076cc3735a920a3ca505d382bbc546001600160a01b031690565b6001600160a01b031614610b6e5760405162461bcd60e51b815260206004820152602c60248201527f46756e6374696f6e206d7573742062652063616c6c6564207468726f7567682060448201526b6163746976652070726f787960a01b60648201526084016108f6565b610b7781611254565b60408051600080825260208201909252610b9391839190611260565b50565b6000610ba281336110af565b6001600160a01b038216600090815260fd602052604090819020805460ff19811660ff9182161590811790925591517f02eb870a583fed745c819c6e6a52fd98f5169e4aa50176d734a823df34e0dfc792610c0292161515815260200190565b60405180910390a15050565b6001600160a01b03811660009081527f539b586f55d61ee867945dc075fa8e91eca932ae00c1c0cc9cfa4eb32213b3aa602052604081205460ff16610734565b306001600160a01b037f0000000000000000000000000000000000000000000000000000000000000000161415610cdc5760405162461bcd60e51b815260206004820152602c60248201527f46756e6374696f6e206d7573742062652063616c6c6564207468726f7567682060448201526b19195b1959d85d1958d85b1b60a21b60648201526084016108f6565b7f00000000000000000000000000000000000000000000000000000000000000006001600160a01b0316610d377f360894a13ba1a3210667c828492db98dca3e2076cc3735a920a3ca505d382bbc546001600160a01b031690565b6001600160a01b031614610da25760405162461bcd60e51b815260206004820152602c60248201527f46756e6374696f6e206d7573742062652063616c6c6564207468726f7567682060448201526b6163746976652070726f787960a01b60648201526084016108f6565b610dab82611254565b610a1682826001611260565b600054610100900460ff16610dd25760005460ff1615610dd6565b303b155b610e485760405162461bcd60e51b815260206004820152602e60248201527f496e697469616c697a61626c653a20636f6e747261637420697320616c72656160448201527f647920696e697469616c697a656400000000000000000000000000000000000060648201526084016108f6565b600054610100900460ff16158015610e6a576000805461ffff19166101011790555b610e72611424565b610e7d6000336114a9565b8015610b93576000805461ff001916905550565b60fc6020526000908152604090208054610eaa90611fb8565b80601f0160208091040260200160405190810160405280929190818152602001828054610ed690611fb8565b8015610f235780601f10610ef857610100808354040283529160200191610f23565b820191906000526020600020905b815481529060010190602001808311610f0657829003601f168201915b505050505081565b6001600160a01b038116600090815260fc602052604090819020905160fb91610f5391611de5565b9081526040805160209281900383019020805473ffffffffffffffffffffffffffffffffffffffff191690556001600160a01b038316600090815260fc9092528120610f9e91611a5b565b610b937f49788824bf3df159efd0827e0b1ab32ee6c80e17cb8efc4c39991f543bff32c282611089565b6001600160a01b03811660009081527fdb769d1b4429d2f8156ee421364965c53afb7d906a13863a3ac435e08df26510602052604081205460ff16610734565b600061101481336110af565b6107d26040518060400160405280601a81526020017f455453416363657373436f6e74726f6c7320757067726164656400000000000081525084848080601f0160208091040260200160405190810160405280939291908181526020018383808284376000920191909152506114b392505050565b6000828152606560205260409020600101546110a581336110af565b6107d283836111d1565b60008281526065602090815260408083206001600160a01b038516845290915290205460ff16610a16576110ed816001600160a01b03166014611526565b6110f8836020611526565b604051602001611109929190611e81565b60408051601f198184030181529082905262461bcd60e51b82526108f691600401611f02565b60008281526065602090815260408083206001600160a01b038516845290915290205460ff16610a165760008281526065602090815260408083206001600160a01b03851684529091529020805460ff1916600117905561118d3390565b6001600160a01b0316816001600160a01b0316837f2f8788117e7eff1d82e926ec794901d17c78024a50270940304540a733656f0d60405160405180910390a45050565b60008281526065602090815260408083206001600160a01b038516845290915290205460ff1615610a165760008281526065602090815260408083206001600160a01b0385168085529252808320805460ff1916905551339285917ff6391f5c32d9c69d2a47ea670b442974b53935d1edc7fd64eb21e047a839171b9190a45050565b6000610a1681336110af565b60006112937f360894a13ba1a3210667c828492db98dca3e2076cc3735a920a3ca505d382bbc546001600160a01b031690565b905061129e8461170e565b6000835111806112ab5750815b156112bc576112ba84846117d0565b505b7f4910fdfa16fed3260ed0e7147f7cc6da11a60208b5b9406d12a635614ffd9143805460ff1661141d57805460ff191660011781556040516001600160a01b038316602482015261136990869060440160408051601f198184030181529190526020810180517bffffffffffffffffffffffffffffffffffffffffffffffffffffffff167f3659cfe6000000000000000000000000000000000000000000000000000000001790526117d0565b50805460ff191681557f360894a13ba1a3210667c828492db98dca3e2076cc3735a920a3ca505d382bbc546001600160a01b038381169116146114145760405162461bcd60e51b815260206004820152602f60248201527f45524331393637557067726164653a207570677261646520627265616b73206660448201527f757274686572207570677261646573000000000000000000000000000000000060648201526084016108f6565b61141d856118d2565b5050505050565b600054610100900460ff1661148f5760405162461bcd60e51b815260206004820152602b60248201527f496e697469616c697a61626c653a20636f6e7472616374206973206e6f74206960448201526a6e697469616c697a696e6760a81b60648201526084016108f6565b611497611912565b61149f611912565b6114a7611912565b565b610a16828261112f565b610a1682826040516024016114c9929190611f15565b60408051601f198184030181529190526020810180517bffffffffffffffffffffffffffffffffffffffffffffffffffffffff167f4b5c42770000000000000000000000000000000000000000000000000000000017905261197d565b60606000611535836002611f52565b611540906002611f3a565b67ffffffffffffffff8111156115585761155861201f565b6040519080825280601f01601f191660200182016040528015611582576020820181803683370190505b5090507f3000000000000000000000000000000000000000000000000000000000000000816000815181106115b9576115b9612009565b60200101906001600160f81b031916908160001a9053507f78000000000000000000000000000000000000000000000000000000000000008160018151811061160457611604612009565b60200101906001600160f81b031916908160001a9053506000611628846002611f52565b611633906001611f3a565b90505b60018111156116b8577f303132333435363738396162636465660000000000000000000000000000000085600f166010811061167457611674612009565b1a60f81b82828151811061168a5761168a612009565b60200101906001600160f81b031916908160001a90535060049490941c936116b181611fa1565b9050611636565b5083156117075760405162461bcd60e51b815260206004820181905260248201527f537472696e67733a20686578206c656e67746820696e73756666696369656e7460448201526064016108f6565b9392505050565b803b6117825760405162461bcd60e51b815260206004820152602d60248201527f455243313936373a206e657720696d706c656d656e746174696f6e206973206e60448201527f6f74206120636f6e74726163740000000000000000000000000000000000000060648201526084016108f6565b7f360894a13ba1a3210667c828492db98dca3e2076cc3735a920a3ca505d382bbc805473ffffffffffffffffffffffffffffffffffffffff19166001600160a01b0392909216919091179055565b6060823b6118465760405162461bcd60e51b815260206004820152602660248201527f416464726573733a2064656c65676174652063616c6c20746f206e6f6e2d636f60448201527f6e7472616374000000000000000000000000000000000000000000000000000060648201526084016108f6565b600080846001600160a01b0316846040516118619190611db9565b600060405180830381855af49150503d806000811461189c576040519150601f19603f3d011682016040523d82523d6000602084013e6118a1565b606091505b50915091506118c982826040518060600160405280602781526020016120366027913961199e565b95945050505050565b6118db8161170e565b6040516001600160a01b038216907fbc7cd75a20ee27fd9adebab32041f755214dbc6bffa90cc0225b39da2e5c2d3b90600090a250565b600054610100900460ff166114a75760405162461bcd60e51b815260206004820152602b60248201527f496e697469616c697a61626c653a20636f6e7472616374206973206e6f74206960448201526a6e697469616c697a696e6760a81b60648201526084016108f6565b80516a636f6e736f6c652e6c6f67602083016000808483855afa5050505050565b606083156119ad575081611707565b8251156119bd5782518084602001fd5b8160405162461bcd60e51b81526004016108f69190611f02565b8280546119e390611fb8565b90600052602060002090601f016020900481019282611a055760008555611a4b565b82601f10611a1e5782800160ff19823516178555611a4b565b82800160010185558215611a4b579182015b82811115611a4b578235825591602001919060010190611a30565b50611a57929150611a91565b5090565b508054611a6790611fb8565b6000825580601f10611a77575050565b601f016020900490600052602060002090810190610b9391905b5b80821115611a575760008155600101611a92565b600067ffffffffffffffff80841115611ac157611ac161201f565b604051601f8501601f19908116603f01168101908282118183101715611ae957611ae961201f565b81604052809350858152868686011115611b0257600080fd5b858560208301376000602087830101525050509392505050565b80356001600160a01b0381168114611b3357600080fd5b919050565b60008083601f840112611b4a57600080fd5b50813567ffffffffffffffff811115611b6257600080fd5b602083019150836020828501011115611b7a57600080fd5b9250929050565b600060208284031215611b9357600080fd5b61170782611b1c565b60008060408385031215611baf57600080fd5b611bb883611b1c565b9150602083013567ffffffffffffffff811115611bd457600080fd5b8301601f81018513611be557600080fd5b611bf485823560208401611aa6565b9150509250929050565b600080600060408486031215611c1357600080fd5b611c1c84611b1c565b9250602084013567ffffffffffffffff811115611c3857600080fd5b611c4486828701611b38565b9497909650939450505050565b600060208284031215611c6357600080fd5b8151801515811461170757600080fd5b600060208284031215611c8557600080fd5b5035919050565b60008060408385031215611c9f57600080fd5b82359150611caf60208401611b1c565b90509250929050565b600060208284031215611cca57600080fd5b81357fffffffff000000000000000000000000000000000000000000000000000000008116811461170757600080fd5b60008060208385031215611d0d57600080fd5b823567ffffffffffffffff811115611d2457600080fd5b611d3085828601611b38565b90969095509350505050565b600060208284031215611d4e57600080fd5b813567ffffffffffffffff811115611d6557600080fd5b8201601f81018413611d7657600080fd5b611d8584823560208401611aa6565b949350505050565b60008151808452611da5816020860160208601611f71565b601f01601f19169290920160200192915050565b60008251611dcb818460208701611f71565b9190910192915050565b8183823760009101908152919050565b600080835481600182811c915080831680611e0157607f831692505b6020808410821415611e2157634e487b7160e01b86526022600452602486fd5b818015611e355760018114611e4657611e73565b60ff19861689528489019650611e73565b60008a81526020902060005b86811015611e6b5781548b820152908501908301611e52565b505084890196505b509498975050505050505050565b7f416363657373436f6e74726f6c3a206163636f756e7420000000000000000000815260008351611eb9816017850160208801611f71565b7f206973206d697373696e6720726f6c65200000000000000000000000000000006017918401918201528351611ef6816028840160208801611f71565b01602801949350505050565b6020815260006117076020830184611d8d565b604081526000611f286040830185611d8d565b82810360208401526118c98185611d8d565b60008219821115611f4d57611f4d611ff3565b500190565b6000816000190483118215151615611f6c57611f6c611ff3565b500290565b60005b83811015611f8c578181015183820152602001611f74565b83811115611f9b576000848401525b50505050565b600081611fb057611fb0611ff3565b506000190190565b600181811c90821680611fcc57607f821691505b60208210811415611fed57634e487b7160e01b600052602260045260246000fd5b50919050565b634e487b7160e01b600052601160045260246000fd5b634e487b7160e01b600052603260045260246000fd5b634e487b7160e01b600052604160045260246000fdfe416464726573733a206c6f772d6c6576656c2064656c65676174652063616c6c206661696c6564a2646970667358221220920c1ebd743aa7a98ea23f25ac731410a36b13888751d74ac3e47312cfe4539a64736f6c63430008070033",
  "linkReferences": {},
  "deployedLinkReferences": {}
}