{
  "_format": "hh-sol-artifact-1",
  "contractName": "ETSAccessControlsUpgrade",
  "sourceName": "contracts/utils/UUPS/UUPSTesting.sol",
  "abi": [
    {
      "anonymous": false,
      "inputs": [
        {
          "indexed": false,
          "internalType": "address",
          "name": "previousAdmin",
          "type": "address"
        },
        {
          "indexed": false,
          "internalType": "address",
          "name": "newAdmin",
          "type": "address"
        }
      ],
      "name": "AdminChanged",
      "type": "event"
    },
    {
      "anonymous": false,
      "inputs": [
        {
          "indexed": true,
          "internalType": "address",
          "name": "beacon",
          "type": "address"
        }
      ],
      "name": "BeaconUpgraded",
      "type": "event"
    },
    {
      "anonymous": false,
      "inputs": [
        {
          "indexed": true,
          "internalType": "bytes32",
          "name": "role",
          "type": "bytes32"
        },
        {
          "indexed": true,
          "internalType": "bytes32",
          "name": "previousAdminRole",
          "type": "bytes32"
        },
        {
          "indexed": true,
          "internalType": "bytes32",
          "name": "newAdminRole",
          "type": "bytes32"
        }
      ],
      "name": "RoleAdminChanged",
      "type": "event"
    },
    {
      "anonymous": false,
      "inputs": [
        {
          "indexed": true,
          "internalType": "bytes32",
          "name": "role",
          "type": "bytes32"
        },
        {
          "indexed": true,
          "internalType": "address",
          "name": "account",
          "type": "address"
        },
        {
          "indexed": true,
          "internalType": "address",
          "name": "sender",
          "type": "address"
        }
      ],
      "name": "RoleGranted",
      "type": "event"
    },
    {
      "anonymous": false,
      "inputs": [
        {
          "indexed": true,
          "internalType": "bytes32",
          "name": "role",
          "type": "bytes32"
        },
        {
          "indexed": true,
          "internalType": "address",
          "name": "account",
          "type": "address"
        },
        {
          "indexed": true,
          "internalType": "address",
          "name": "sender",
          "type": "address"
        }
      ],
      "name": "RoleRevoked",
      "type": "event"
    },
    {
      "anonymous": false,
      "inputs": [
        {
          "indexed": false,
          "internalType": "bool",
          "name": "newValue",
          "type": "bool"
        }
      ],
      "name": "TargetTypePauseToggled",
      "type": "event"
    },
    {
      "anonymous": false,
      "inputs": [
        {
          "indexed": true,
          "internalType": "address",
          "name": "implementation",
          "type": "address"
        }
      ],
      "name": "Upgraded",
      "type": "event"
    },
    {
      "inputs": [],
      "name": "DEFAULT_ADMIN_ROLE",
      "outputs": [
        {
          "internalType": "bytes32",
          "name": "",
          "type": "bytes32"
        }
      ],
      "stateMutability": "view",
      "type": "function"
    },
    {
      "inputs": [],
      "name": "NAME",
      "outputs": [
        {
          "internalType": "string",
          "name": "",
          "type": "string"
        }
      ],
      "stateMutability": "view",
      "type": "function"
    },
    {
      "inputs": [],
      "name": "PUBLISHER_ROLE",
      "outputs": [
        {
          "internalType": "bytes32",
          "name": "",
          "type": "bytes32"
        }
      ],
      "stateMutability": "view",
      "type": "function"
    },
    {
      "inputs": [],
      "name": "SMART_CONTRACT_ROLE",
      "outputs": [
        {
          "internalType": "bytes32",
          "name": "",
          "type": "bytes32"
        }
      ],
      "stateMutability": "view",
      "type": "function"
    },
    {
      "inputs": [],
      "name": "TARGET_TYPE_ROLE",
      "outputs": [
        {
          "internalType": "bytes32",
          "name": "",
          "type": "bytes32"
        }
      ],
      "stateMutability": "view",
      "type": "function"
    },
    {
      "inputs": [],
      "name": "VERSION",
      "outputs": [
        {
          "internalType": "string",
          "name": "",
          "type": "string"
        }
      ],
      "stateMutability": "view",
      "type": "function"
    },
    {
      "inputs": [
        {
          "internalType": "address",
          "name": "_smartContract",
          "type": "address"
        },
        {
          "internalType": "string",
          "name": "_name",
          "type": "string"
        }
      ],
      "name": "addTargetType",
      "outputs": [],
      "stateMutability": "nonpayable",
      "type": "function"
    },
    {
      "inputs": [
        {
          "internalType": "bytes32",
          "name": "role",
          "type": "bytes32"
        }
      ],
      "name": "getRoleAdmin",
      "outputs": [
        {
          "internalType": "bytes32",
          "name": "",
          "type": "bytes32"
        }
      ],
      "stateMutability": "view",
      "type": "function"
    },
    {
      "inputs": [
        {
          "internalType": "bytes32",
          "name": "role",
          "type": "bytes32"
        },
        {
          "internalType": "address",
          "name": "account",
          "type": "address"
        }
      ],
      "name": "grantRole",
      "outputs": [],
      "stateMutability": "nonpayable",
      "type": "function"
    },
    {
      "inputs": [
        {
          "internalType": "bytes32",
          "name": "role",
          "type": "bytes32"
        },
        {
          "internalType": "address",
          "name": "account",
          "type": "address"
        }
      ],
      "name": "hasRole",
      "outputs": [
        {
          "internalType": "bool",
          "name": "",
          "type": "bool"
        }
      ],
      "stateMutability": "view",
      "type": "function"
    },
    {
      "inputs": [],
      "name": "initialize",
      "outputs": [],
      "stateMutability": "nonpayable",
      "type": "function"
    },
    {
      "inputs": [
        {
          "internalType": "address",
          "name": "_addr",
          "type": "address"
        }
      ],
      "name": "isAdmin",
      "outputs": [
        {
          "internalType": "bool",
          "name": "",
          "type": "bool"
        }
      ],
      "stateMutability": "view",
      "type": "function"
    },
    {
      "inputs": [
        {
          "internalType": "address",
          "name": "_addr",
          "type": "address"
        }
      ],
      "name": "isPublisher",
      "outputs": [
        {
          "internalType": "bool",
          "name": "",
          "type": "bool"
        }
      ],
      "stateMutability": "view",
      "type": "function"
    },
    {
      "inputs": [
        {
          "internalType": "address",
          "name": "_addr",
          "type": "address"
        }
      ],
      "name": "isSmartContract",
      "outputs": [
        {
          "internalType": "bool",
          "name": "",
          "type": "bool"
        }
      ],
      "stateMutability": "view",
      "type": "function"
    },
    {
      "inputs": [
        {
          "internalType": "address",
          "name": "_smartContract",
          "type": "address"
        }
      ],
      "name": "isTargetType",
      "outputs": [
        {
          "internalType": "bool",
          "name": "",
          "type": "bool"
        }
      ],
      "stateMutability": "view",
      "type": "function"
    },
    {
      "inputs": [
        {
          "internalType": "address",
          "name": "_smartContract",
          "type": "address"
        }
      ],
      "name": "isTargetTypeAndNotPaused",
      "outputs": [
        {
          "internalType": "bool",
          "name": "",
          "type": "bool"
        }
      ],
      "stateMutability": "view",
      "type": "function"
    },
    {
      "inputs": [
        {
          "internalType": "address",
          "name": "",
          "type": "address"
        }
      ],
      "name": "isTargetTypePaused",
      "outputs": [
        {
          "internalType": "bool",
          "name": "",
          "type": "bool"
        }
      ],
      "stateMutability": "view",
      "type": "function"
    },
    {
      "inputs": [
        {
          "internalType": "address",
          "name": "_smartContract",
          "type": "address"
        }
      ],
      "name": "removeTargetType",
      "outputs": [],
      "stateMutability": "nonpayable",
      "type": "function"
    },
    {
      "inputs": [
        {
          "internalType": "bytes32",
          "name": "role",
          "type": "bytes32"
        },
        {
          "internalType": "address",
          "name": "account",
          "type": "address"
        }
      ],
      "name": "renounceRole",
      "outputs": [],
      "stateMutability": "nonpayable",
      "type": "function"
    },
    {
      "inputs": [
        {
          "internalType": "bytes32",
          "name": "role",
          "type": "bytes32"
        },
        {
          "internalType": "address",
          "name": "account",
          "type": "address"
        }
      ],
      "name": "revokeRole",
      "outputs": [],
      "stateMutability": "nonpayable",
      "type": "function"
    },
    {
      "inputs": [
        {
          "internalType": "bytes4",
          "name": "interfaceId",
          "type": "bytes4"
        }
      ],
      "name": "supportsInterface",
      "outputs": [
        {
          "internalType": "bool",
          "name": "",
          "type": "bool"
        }
      ],
      "stateMutability": "view",
      "type": "function"
    },
    {
      "inputs": [
        {
          "internalType": "address",
          "name": "",
          "type": "address"
        }
      ],
      "name": "targetTypeContractName",
      "outputs": [
        {
          "internalType": "string",
          "name": "",
          "type": "string"
        }
      ],
      "stateMutability": "view",
      "type": "function"
    },
    {
      "inputs": [
        {
          "internalType": "string",
          "name": "",
          "type": "string"
        }
      ],
      "name": "targetTypeToContract",
      "outputs": [
        {
          "internalType": "address",
          "name": "",
          "type": "address"
        }
      ],
      "stateMutability": "view",
      "type": "function"
    },
    {
      "inputs": [
        {
          "internalType": "address",
          "name": "_smartContract",
          "type": "address"
        }
      ],
      "name": "toggleIsTargetTypePaused",
      "outputs": [],
      "stateMutability": "nonpayable",
      "type": "function"
    },
    {
      "inputs": [],
      "name": "upgradeTest",
      "outputs": [
        {
          "internalType": "bool",
          "name": "",
          "type": "bool"
        }
      ],
      "stateMutability": "pure",
      "type": "function"
    },
    {
      "inputs": [
        {
          "internalType": "address",
          "name": "newImplementation",
          "type": "address"
        }
      ],
      "name": "upgradeTo",
      "outputs": [],
      "stateMutability": "nonpayable",
      "type": "function"
    },
    {
      "inputs": [
        {
          "internalType": "address",
          "name": "newImplementation",
          "type": "address"
        },
        {
          "internalType": "bytes",
          "name": "data",
          "type": "bytes"
        }
      ],
      "name": "upgradeToAndCall",
      "outputs": [],
      "stateMutability": "payable",
      "type": "function"
    },
    {
      "inputs": [],
      "name": "version",
      "outputs": [
        {
          "internalType": "string",
          "name": "",
          "type": "string"
        }
      ],
      "stateMutability": "pure",
      "type": "function"
    }
  ],
  "bytecode": "0x60a06040523060805234801561001457600080fd5b50608051611e666100456000396000818161099a01528181610a1f01528181610bce0152610c530152611e666000f3fe6080604052600436106101b75760003560e01c806380719e9b116100ec578063acaa48431161008a578063c61c63dd11610064578063c61c63dd14610560578063d547741f146105b9578063d8f4b6fd146105d9578063ffa1ad741461060d57600080fd5b8063acaa4843146104ec578063ad8194f91461050c578063b87dfff81461052c57600080fd5b806391d14854116100c657806391d1485414610428578063a217fddf1461046e578063a3f4df7e14610483578063a88ae5b6146104cc57600080fd5b806380719e9b146103af5780638129fc1c146103df578063857d2608146103f457600080fd5b806336568abe116101595780634002649b116101335780634002649b1461032557806341859ac8146103455780634f1ef2861461036557806354fd4d501461037857600080fd5b806336568abe146102d15780633659cfe6146102f15780633d20b15c1461031157600080fd5b80632b04fd44116101955780632b04fd441461024f5780632f2ff15d1461026f578063347308b214610291578063360698dd146102b157600080fd5b806301ffc9a7146101bc578063248a9ca3146101f157806324d7806c1461022f575b600080fd5b3480156101c857600080fd5b506101dc6101d7366004611906565b61063e565b60405190151581526020015b60405180910390f35b3480156101fd57600080fd5b5061022161020c366004611948565b60009081526065602052604090206001015490565b6040519081526020016101e8565b34801561023b57600080fd5b506101dc61024a36600461197d565b6106be565b34801561025b57600080fd5b506101dc61026a36600461197d565b6106fe565b34801561027b57600080fd5b5061028f61028a366004611998565b610730565b005b34801561029d57600080fd5b506101dc6102ac36600461197d565b61075b565b3480156102bd57600080fd5b5061028f6102cc3660046119c4565b61079b565b3480156102dd57600080fd5b5061028f6102ec366004611998565b610903565b3480156102fd57600080fd5b5061028f61030c36600461197d565b61098f565b34801561031d57600080fd5b5060016101dc565b34801561033157600080fd5b5061028f61034036600461197d565b610b0b565b34801561035157600080fd5b506101dc61036036600461197d565b610b83565b61028f610373366004611ad3565b610bc3565b34801561038457600080fd5b50604080518082019091526005815264302e302e3160d81b60208201525b6040516101e89190611b65565b3480156103bb57600080fd5b506101dc6103ca36600461197d565b60fd6020526000908152604090205460ff1681565b3480156103eb57600080fd5b5061028f610d2c565b34801561040057600080fd5b506102217f5474431f81b75a7b45d74ffe5ff51964b4290ef4c86184accd4e4a9822dae90181565b34801561043457600080fd5b506101dc610443366004611998565b60009182526065602090815260408084206001600160a01b0393909316845291905290205460ff1690565b34801561047a57600080fd5b50610221600081565b34801561048f57600080fd5b506103a26040518060400160405280601381526020017f4554532061636365737320636f6e74726f6c730000000000000000000000000081525081565b3480156104d857600080fd5b506103a26104e736600461197d565b610e06565b3480156104f857600080fd5b5061028f61050736600461197d565b610ea0565b34801561051857600080fd5b506101dc61052736600461197d565b610f3d565b34801561053857600080fd5b506102217f49788824bf3df159efd0827e0b1ab32ee6c80e17cb8efc4c39991f543bff32c281565b34801561056c57600080fd5b506105a161057b366004611b98565b805160208183018101805160fb825292820191909301209152546001600160a01b031681565b6040516001600160a01b0390911681526020016101e8565b3480156105c557600080fd5b5061028f6105d4366004611998565b610f7d565b3480156105e557600080fd5b506102217fad312f08b8889cfe65ec2f1faae419f8b47f0153a3483ea6130918c055c8183d81565b34801561061957600080fd5b506103a260405180604001604052806005815260200164302e302e3160d81b81525081565b60007fffffffff0000000000000000000000000000000000000000000000000000000082167f7965db0b0000000000000000000000000000000000000000000000000000000014806106b857506301ffc9a760e01b7fffffffff000000000000000000000000000000000000000000000000000000008316145b92915050565b6001600160a01b03811660009081527fffdfc1249c027f9191656349feb0761381bb32c9f557e01f419fd08754bf5a1b602052604081205460ff166106b8565b600061070982610f3d565b80156106b85750506001600160a01b0316600090815260fd602052604090205460ff161590565b60008281526065602052604090206001015461074c8133610fa3565b6107568383611023565b505050565b6001600160a01b03811660009081527f1c575814e1cd24773b117fedd6b05ab4d9de98c6d9f60531a8ff9197b9c46f15602052604081205460ff166106b8565b6040516301ffc9a760e01b81527fdb276bc10000000000000000000000000000000000000000000000000000000060048201526001600160a01b038416906301ffc9a790602401602060405180830381865afa1580156107ff573d6000803e3d6000fd5b505050506040513d601f19601f820116820180604052508101906108239190611be9565b6108745760405162461bcd60e51b815260206004820181905260248201527f526571756972656420696e74657266616365206e6f7420737570706f7274656460448201526064015b60405180910390fd5b8260fb8383604051610887929190611c0b565b9081526040805160209281900383019020805473ffffffffffffffffffffffffffffffffffffffff19166001600160a01b03948516179055918516600090815260fc909152206108d8908383611837565b506107567f49788824bf3df159efd0827e0b1ab32ee6c80e17cb8efc4c39991f543bff32c284610730565b6001600160a01b03811633146109815760405162461bcd60e51b815260206004820152602f60248201527f416363657373436f6e74726f6c3a2063616e206f6e6c792072656e6f756e636560448201527f20726f6c657320666f722073656c660000000000000000000000000000000000606482015260840161086b565b61098b82826110c5565b5050565b306001600160a01b037f0000000000000000000000000000000000000000000000000000000000000000161415610a1d5760405162461bcd60e51b815260206004820152602c60248201527f46756e6374696f6e206d7573742062652063616c6c6564207468726f7567682060448201526b19195b1959d85d1958d85b1b60a21b606482015260840161086b565b7f00000000000000000000000000000000000000000000000000000000000000006001600160a01b0316610a787f360894a13ba1a3210667c828492db98dca3e2076cc3735a920a3ca505d382bbc546001600160a01b031690565b6001600160a01b031614610ae35760405162461bcd60e51b815260206004820152602c60248201527f46756e6374696f6e206d7573742062652063616c6c6564207468726f7567682060448201526b6163746976652070726f787960a01b606482015260840161086b565b610aec81611148565b60408051600080825260208201909252610b0891839190611154565b50565b6000610b178133610fa3565b6001600160a01b038216600090815260fd602052604090819020805460ff19811660ff9182161590811790925591517f02eb870a583fed745c819c6e6a52fd98f5169e4aa50176d734a823df34e0dfc792610b7792161515815260200190565b60405180910390a15050565b6001600160a01b03811660009081527f539b586f55d61ee867945dc075fa8e91eca932ae00c1c0cc9cfa4eb32213b3aa602052604081205460ff166106b8565b306001600160a01b037f0000000000000000000000000000000000000000000000000000000000000000161415610c515760405162461bcd60e51b815260206004820152602c60248201527f46756e6374696f6e206d7573742062652063616c6c6564207468726f7567682060448201526b19195b1959d85d1958d85b1b60a21b606482015260840161086b565b7f00000000000000000000000000000000000000000000000000000000000000006001600160a01b0316610cac7f360894a13ba1a3210667c828492db98dca3e2076cc3735a920a3ca505d382bbc546001600160a01b031690565b6001600160a01b031614610d175760405162461bcd60e51b815260206004820152602c60248201527f46756e6374696f6e206d7573742062652063616c6c6564207468726f7567682060448201526b6163746976652070726f787960a01b606482015260840161086b565b610d2082611148565b61098b82826001611154565b600054610100900460ff16610d475760005460ff1615610d4b565b303b155b610dbd5760405162461bcd60e51b815260206004820152602e60248201527f496e697469616c697a61626c653a20636f6e747261637420697320616c72656160448201527f647920696e697469616c697a6564000000000000000000000000000000000000606482015260840161086b565b600054610100900460ff16158015610ddf576000805461ffff19166101011790555b610de7611318565b610df260003361139d565b8015610b08576000805461ff001916905550565b60fc6020526000908152604090208054610e1f90611c1b565b80601f0160208091040260200160405190810160405280929190818152602001828054610e4b90611c1b565b8015610e985780601f10610e6d57610100808354040283529160200191610e98565b820191906000526020600020905b815481529060010190602001808311610e7b57829003601f168201915b505050505081565b6001600160a01b038116600090815260fc602052604090819020905160fb91610ec891611c56565b9081526040805160209281900383019020805473ffffffffffffffffffffffffffffffffffffffff191690556001600160a01b038316600090815260fc9092528120610f13916118bb565b610b087f49788824bf3df159efd0827e0b1ab32ee6c80e17cb8efc4c39991f543bff32c282610f7d565b6001600160a01b03811660009081527fdb769d1b4429d2f8156ee421364965c53afb7d906a13863a3ac435e08df26510602052604081205460ff166106b8565b600082815260656020526040902060010154610f998133610fa3565b61075683836110c5565b60008281526065602090815260408083206001600160a01b038516845290915290205460ff1661098b57610fe1816001600160a01b031660146113a7565b610fec8360206113a7565b604051602001610ffd929190611cf2565b60408051601f198184030181529082905262461bcd60e51b825261086b91600401611b65565b60008281526065602090815260408083206001600160a01b038516845290915290205460ff1661098b5760008281526065602090815260408083206001600160a01b03851684529091529020805460ff191660011790556110813390565b6001600160a01b0316816001600160a01b0316837f2f8788117e7eff1d82e926ec794901d17c78024a50270940304540a733656f0d60405160405180910390a45050565b60008281526065602090815260408083206001600160a01b038516845290915290205460ff161561098b5760008281526065602090815260408083206001600160a01b0385168085529252808320805460ff1916905551339285917ff6391f5c32d9c69d2a47ea670b442974b53935d1edc7fd64eb21e047a839171b9190a45050565b600061098b8133610fa3565b60006111877f360894a13ba1a3210667c828492db98dca3e2076cc3735a920a3ca505d382bbc546001600160a01b031690565b90506111928461158f565b60008351118061119f5750815b156111b0576111ae8484611651565b505b7f4910fdfa16fed3260ed0e7147f7cc6da11a60208b5b9406d12a635614ffd9143805460ff1661131157805460ff191660011781556040516001600160a01b038316602482015261125d90869060440160408051601f198184030181529190526020810180517bffffffffffffffffffffffffffffffffffffffffffffffffffffffff167f3659cfe600000000000000000000000000000000000000000000000000000000179052611651565b50805460ff191681557f360894a13ba1a3210667c828492db98dca3e2076cc3735a920a3ca505d382bbc546001600160a01b038381169116146113085760405162461bcd60e51b815260206004820152602f60248201527f45524331393637557067726164653a207570677261646520627265616b73206660448201527f7572746865722075706772616465730000000000000000000000000000000000606482015260840161086b565b61131185611753565b5050505050565b600054610100900460ff166113835760405162461bcd60e51b815260206004820152602b60248201527f496e697469616c697a61626c653a20636f6e7472616374206973206e6f74206960448201526a6e697469616c697a696e6760a81b606482015260840161086b565b61138b611793565b611393611793565b61139b611793565b565b61098b8282611023565b606060006113b6836002611d89565b6113c1906002611da8565b67ffffffffffffffff8111156113d9576113d9611a47565b6040519080825280601f01601f191660200182016040528015611403576020820181803683370190505b5090507f30000000000000000000000000000000000000000000000000000000000000008160008151811061143a5761143a611dc0565b60200101906001600160f81b031916908160001a9053507f78000000000000000000000000000000000000000000000000000000000000008160018151811061148557611485611dc0565b60200101906001600160f81b031916908160001a90535060006114a9846002611d89565b6114b4906001611da8565b90505b6001811115611539577f303132333435363738396162636465660000000000000000000000000000000085600f16601081106114f5576114f5611dc0565b1a60f81b82828151811061150b5761150b611dc0565b60200101906001600160f81b031916908160001a90535060049490941c9361153281611dd6565b90506114b7565b5083156115885760405162461bcd60e51b815260206004820181905260248201527f537472696e67733a20686578206c656e67746820696e73756666696369656e74604482015260640161086b565b9392505050565b803b6116035760405162461bcd60e51b815260206004820152602d60248201527f455243313936373a206e657720696d706c656d656e746174696f6e206973206e60448201527f6f74206120636f6e747261637400000000000000000000000000000000000000606482015260840161086b565b7f360894a13ba1a3210667c828492db98dca3e2076cc3735a920a3ca505d382bbc805473ffffffffffffffffffffffffffffffffffffffff19166001600160a01b0392909216919091179055565b6060823b6116c75760405162461bcd60e51b815260206004820152602660248201527f416464726573733a2064656c65676174652063616c6c20746f206e6f6e2d636f60448201527f6e74726163740000000000000000000000000000000000000000000000000000606482015260840161086b565b600080846001600160a01b0316846040516116e29190611ded565b600060405180830381855af49150503d806000811461171d576040519150601f19603f3d011682016040523d82523d6000602084013e611722565b606091505b509150915061174a8282604051806060016040528060278152602001611e0a602791396117fe565b95945050505050565b61175c8161158f565b6040516001600160a01b038216907fbc7cd75a20ee27fd9adebab32041f755214dbc6bffa90cc0225b39da2e5c2d3b90600090a250565b600054610100900460ff1661139b5760405162461bcd60e51b815260206004820152602b60248201527f496e697469616c697a61626c653a20636f6e7472616374206973206e6f74206960448201526a6e697469616c697a696e6760a81b606482015260840161086b565b6060831561180d575081611588565b82511561181d5782518084602001fd5b8160405162461bcd60e51b815260040161086b9190611b65565b82805461184390611c1b565b90600052602060002090601f01602090048101928261186557600085556118ab565b82601f1061187e5782800160ff198235161785556118ab565b828001600101855582156118ab579182015b828111156118ab578235825591602001919060010190611890565b506118b79291506118f1565b5090565b5080546118c790611c1b565b6000825580601f106118d7575050565b601f016020900490600052602060002090810190610b0891905b5b808211156118b757600081556001016118f2565b60006020828403121561191857600080fd5b81357fffffffff000000000000000000000000000000000000000000000000000000008116811461158857600080fd5b60006020828403121561195a57600080fd5b5035919050565b80356001600160a01b038116811461197857600080fd5b919050565b60006020828403121561198f57600080fd5b61158882611961565b600080604083850312156119ab57600080fd5b823591506119bb60208401611961565b90509250929050565b6000806000604084860312156119d957600080fd5b6119e284611961565b9250602084013567ffffffffffffffff808211156119ff57600080fd5b818601915086601f830112611a1357600080fd5b813581811115611a2257600080fd5b876020828501011115611a3457600080fd5b6020830194508093505050509250925092565b634e487b7160e01b600052604160045260246000fd5b600067ffffffffffffffff80841115611a7857611a78611a47565b604051601f8501601f19908116603f01168101908282118183101715611aa057611aa0611a47565b81604052809350858152868686011115611ab957600080fd5b858560208301376000602087830101525050509392505050565b60008060408385031215611ae657600080fd5b611aef83611961565b9150602083013567ffffffffffffffff811115611b0b57600080fd5b8301601f81018513611b1c57600080fd5b611b2b85823560208401611a5d565b9150509250929050565b60005b83811015611b50578181015183820152602001611b38565b83811115611b5f576000848401525b50505050565b6020815260008251806020840152611b84816040850160208701611b35565b601f01601f19169190910160400192915050565b600060208284031215611baa57600080fd5b813567ffffffffffffffff811115611bc157600080fd5b8201601f81018413611bd257600080fd5b611be184823560208401611a5d565b949350505050565b600060208284031215611bfb57600080fd5b8151801515811461158857600080fd5b8183823760009101908152919050565b600181811c90821680611c2f57607f821691505b60208210811415611c5057634e487b7160e01b600052602260045260246000fd5b50919050565b600080835481600182811c915080831680611c7257607f831692505b6020808410821415611c9257634e487b7160e01b86526022600452602486fd5b818015611ca65760018114611cb757611ce4565b60ff19861689528489019650611ce4565b60008a81526020902060005b86811015611cdc5781548b820152908501908301611cc3565b505084890196505b509498975050505050505050565b7f416363657373436f6e74726f6c3a206163636f756e7420000000000000000000815260008351611d2a816017850160208801611b35565b7f206973206d697373696e6720726f6c65200000000000000000000000000000006017918401918201528351611d67816028840160208801611b35565b01602801949350505050565b634e487b7160e01b600052601160045260246000fd5b6000816000190483118215151615611da357611da3611d73565b500290565b60008219821115611dbb57611dbb611d73565b500190565b634e487b7160e01b600052603260045260246000fd5b600081611de557611de5611d73565b506000190190565b60008251611dff818460208701611b35565b919091019291505056fe416464726573733a206c6f772d6c6576656c2064656c65676174652063616c6c206661696c6564a2646970667358221220d39bcf79af037c26b4e99c064836009aa995058eb4578ae66caf4c99ef92e4a164736f6c634300080c0033",
  "linkReferences": {},
  "deployedLinkReferences": {}
}