{
  "_format": "hh-sol-artifact-1",
  "contractName": "ETSTagUpgrade",
  "sourceName": "contracts/utils/UUPS/UUPSTesting.sol",
  "abi": [
    {
      "anonymous": false,
      "inputs": [
        {
          "indexed": false,
          "internalType": "contract ETSAccessControls",
          "name": "previousAccessControls",
          "type": "address"
        },
        {
          "indexed": false,
          "internalType": "contract ETSAccessControls",
          "name": "newAccessControls",
          "type": "address"
        }
      ],
      "name": "AccessControlsUpdated",
      "type": "event"
    },
    {
      "anonymous": false,
      "inputs": [
        {
          "indexed": false,
          "internalType": "address",
          "name": "previousAdmin",
          "type": "address"
        },
        {
          "indexed": false,
          "internalType": "address",
          "name": "newAdmin",
          "type": "address"
        }
      ],
      "name": "AdminChanged",
      "type": "event"
    },
    {
      "anonymous": false,
      "inputs": [
        {
          "indexed": true,
          "internalType": "address",
          "name": "owner",
          "type": "address"
        },
        {
          "indexed": true,
          "internalType": "address",
          "name": "approved",
          "type": "address"
        },
        {
          "indexed": true,
          "internalType": "uint256",
          "name": "tokenId",
          "type": "uint256"
        }
      ],
      "name": "Approval",
      "type": "event"
    },
    {
      "anonymous": false,
      "inputs": [
        {
          "indexed": true,
          "internalType": "address",
          "name": "owner",
          "type": "address"
        },
        {
          "indexed": true,
          "internalType": "address",
          "name": "operator",
          "type": "address"
        },
        {
          "indexed": false,
          "internalType": "bool",
          "name": "approved",
          "type": "bool"
        }
      ],
      "name": "ApprovalForAll",
      "type": "event"
    },
    {
      "anonymous": false,
      "inputs": [
        {
          "indexed": true,
          "internalType": "address",
          "name": "beacon",
          "type": "address"
        }
      ],
      "name": "BeaconUpgraded",
      "type": "event"
    },
    {
      "anonymous": false,
      "inputs": [
        {
          "indexed": true,
          "internalType": "uint256",
          "name": "tokenId",
          "type": "uint256"
        },
        {
          "indexed": false,
          "internalType": "string",
          "name": "displayVersion",
          "type": "string"
        },
        {
          "indexed": true,
          "internalType": "address",
          "name": "publisher",
          "type": "address"
        },
        {
          "indexed": false,
          "internalType": "address",
          "name": "creator",
          "type": "address"
        }
      ],
      "name": "MintTag",
      "type": "event"
    },
    {
      "anonymous": false,
      "inputs": [
        {
          "indexed": false,
          "internalType": "string",
          "name": "baseURI",
          "type": "string"
        }
      ],
      "name": "NewBaseURI",
      "type": "event"
    },
    {
      "anonymous": false,
      "inputs": [
        {
          "indexed": false,
          "internalType": "uint256",
          "name": "originalOwnershipLength",
          "type": "uint256"
        },
        {
          "indexed": false,
          "internalType": "uint256",
          "name": "updatedOwnershipLength",
          "type": "uint256"
        }
      ],
      "name": "OwnershipTermLengthUpdated",
      "type": "event"
    },
    {
      "anonymous": false,
      "inputs": [
        {
          "indexed": false,
          "internalType": "address",
          "name": "account",
          "type": "address"
        }
      ],
      "name": "Paused",
      "type": "event"
    },
    {
      "anonymous": false,
      "inputs": [
        {
          "indexed": false,
          "internalType": "address",
          "name": "previousPlatformAddress",
          "type": "address"
        },
        {
          "indexed": false,
          "internalType": "address",
          "name": "newPlatformAddress",
          "type": "address"
        }
      ],
      "name": "PlatformSet",
      "type": "event"
    },
    {
      "anonymous": false,
      "inputs": [
        {
          "indexed": false,
          "internalType": "uint256",
          "name": "originalRenewalPeriod",
          "type": "uint256"
        },
        {
          "indexed": false,
          "internalType": "uint256",
          "name": "updatedRenewalPeriod",
          "type": "uint256"
        }
      ],
      "name": "RenewalPeriodUpdated",
      "type": "event"
    },
    {
      "anonymous": false,
      "inputs": [
        {
          "indexed": true,
          "internalType": "uint256",
          "name": "tokenId",
          "type": "uint256"
        }
      ],
      "name": "TagBurned",
      "type": "event"
    },
    {
      "anonymous": false,
      "inputs": [
        {
          "indexed": false,
          "internalType": "uint256",
          "name": "previousMaxStringLength",
          "type": "uint256"
        },
        {
          "indexed": false,
          "internalType": "uint256",
          "name": "newMaxStringLength",
          "type": "uint256"
        }
      ],
      "name": "TagMaxStringLengthUpdated",
      "type": "event"
    },
    {
      "anonymous": false,
      "inputs": [
        {
          "indexed": true,
          "internalType": "uint256",
          "name": "tokenId",
          "type": "uint256"
        },
        {
          "indexed": true,
          "internalType": "address",
          "name": "owner",
          "type": "address"
        }
      ],
      "name": "TagRecycled",
      "type": "event"
    },
    {
      "anonymous": false,
      "inputs": [
        {
          "indexed": true,
          "internalType": "uint256",
          "name": "tokenId",
          "type": "uint256"
        },
        {
          "indexed": true,
          "internalType": "address",
          "name": "caller",
          "type": "address"
        }
      ],
      "name": "TagRenewed",
      "type": "event"
    },
    {
      "anonymous": false,
      "inputs": [
        {
          "indexed": true,
          "internalType": "address",
          "name": "from",
          "type": "address"
        },
        {
          "indexed": true,
          "internalType": "address",
          "name": "to",
          "type": "address"
        },
        {
          "indexed": true,
          "internalType": "uint256",
          "name": "tokenId",
          "type": "uint256"
        }
      ],
      "name": "Transfer",
      "type": "event"
    },
    {
      "anonymous": false,
      "inputs": [
        {
          "indexed": false,
          "internalType": "address",
          "name": "account",
          "type": "address"
        }
      ],
      "name": "Unpaused",
      "type": "event"
    },
    {
      "anonymous": false,
      "inputs": [
        {
          "indexed": true,
          "internalType": "address",
          "name": "implementation",
          "type": "address"
        }
      ],
      "name": "Upgraded",
      "type": "event"
    },
    {
      "inputs": [],
      "name": "NAME",
      "outputs": [
        {
          "internalType": "string",
          "name": "",
          "type": "string"
        }
      ],
      "stateMutability": "view",
      "type": "function"
    },
    {
      "inputs": [],
      "name": "VERSION",
      "outputs": [
        {
          "internalType": "string",
          "name": "",
          "type": "string"
        }
      ],
      "stateMutability": "view",
      "type": "function"
    },
    {
      "inputs": [],
      "name": "accessControls",
      "outputs": [
        {
          "internalType": "contract ETSAccessControls",
          "name": "",
          "type": "address"
        }
      ],
      "stateMutability": "view",
      "type": "function"
    },
    {
      "inputs": [
        {
          "internalType": "address",
          "name": "to",
          "type": "address"
        },
        {
          "internalType": "uint256",
          "name": "tokenId",
          "type": "uint256"
        }
      ],
      "name": "approve",
      "outputs": [],
      "stateMutability": "nonpayable",
      "type": "function"
    },
    {
      "inputs": [
        {
          "internalType": "address",
          "name": "owner",
          "type": "address"
        }
      ],
      "name": "balanceOf",
      "outputs": [
        {
          "internalType": "uint256",
          "name": "",
          "type": "uint256"
        }
      ],
      "stateMutability": "view",
      "type": "function"
    },
    {
      "inputs": [],
      "name": "baseURI",
      "outputs": [
        {
          "internalType": "string",
          "name": "",
          "type": "string"
        }
      ],
      "stateMutability": "view",
      "type": "function"
    },
    {
      "inputs": [
        {
          "internalType": "uint256",
          "name": "tokenId",
          "type": "uint256"
        }
      ],
      "name": "burn",
      "outputs": [],
      "stateMutability": "nonpayable",
      "type": "function"
    },
    {
      "inputs": [
        {
          "internalType": "string",
          "name": "_tag",
          "type": "string"
        }
      ],
      "name": "computeTagId",
      "outputs": [
        {
          "internalType": "uint256",
          "name": "",
          "type": "uint256"
        }
      ],
      "stateMutability": "pure",
      "type": "function"
    },
    {
      "inputs": [
        {
          "internalType": "uint256",
          "name": "tokenId",
          "type": "uint256"
        }
      ],
      "name": "getApproved",
      "outputs": [
        {
          "internalType": "address",
          "name": "",
          "type": "address"
        }
      ],
      "stateMutability": "view",
      "type": "function"
    },
    {
      "inputs": [
        {
          "internalType": "uint256",
          "name": "_tokenId",
          "type": "uint256"
        }
      ],
      "name": "getCreatorAddress",
      "outputs": [
        {
          "internalType": "address",
          "name": "_creator",
          "type": "address"
        }
      ],
      "stateMutability": "view",
      "type": "function"
    },
    {
      "inputs": [
        {
          "internalType": "uint256",
          "name": "_tokenId",
          "type": "uint256"
        }
      ],
      "name": "getPaymentAddresses",
      "outputs": [
        {
          "internalType": "address payable",
          "name": "_platform",
          "type": "address"
        },
        {
          "internalType": "address payable",
          "name": "_owner",
          "type": "address"
        }
      ],
      "stateMutability": "view",
      "type": "function"
    },
    {
      "inputs": [
        {
          "internalType": "contract ETSAccessControls",
          "name": "_accessControls",
          "type": "address"
        },
        {
          "internalType": "address payable",
          "name": "_platform",
          "type": "address"
        }
      ],
      "name": "initialize",
      "outputs": [],
      "stateMutability": "nonpayable",
      "type": "function"
    },
    {
      "inputs": [
        {
          "internalType": "address",
          "name": "owner",
          "type": "address"
        },
        {
          "internalType": "address",
          "name": "operator",
          "type": "address"
        }
      ],
      "name": "isApprovedForAll",
      "outputs": [
        {
          "internalType": "bool",
          "name": "",
          "type": "bool"
        }
      ],
      "stateMutability": "view",
      "type": "function"
    },
    {
      "inputs": [
        {
          "internalType": "string",
          "name": "_tag",
          "type": "string"
        },
        {
          "internalType": "address payable",
          "name": "_publisher",
          "type": "address"
        },
        {
          "internalType": "address",
          "name": "_creator",
          "type": "address"
        }
      ],
      "name": "mint",
      "outputs": [
        {
          "internalType": "uint256",
          "name": "_tokenId",
          "type": "uint256"
        }
      ],
      "stateMutability": "payable",
      "type": "function"
    },
    {
      "inputs": [],
      "name": "name",
      "outputs": [
        {
          "internalType": "string",
          "name": "",
          "type": "string"
        }
      ],
      "stateMutability": "view",
      "type": "function"
    },
    {
      "inputs": [
        {
          "internalType": "uint256",
          "name": "tokenId",
          "type": "uint256"
        }
      ],
      "name": "ownerOf",
      "outputs": [
        {
          "internalType": "address",
          "name": "",
          "type": "address"
        }
      ],
      "stateMutability": "view",
      "type": "function"
    },
    {
      "inputs": [],
      "name": "ownershipTermLength",
      "outputs": [
        {
          "internalType": "uint256",
          "name": "",
          "type": "uint256"
        }
      ],
      "stateMutability": "view",
      "type": "function"
    },
    {
      "inputs": [],
      "name": "pause",
      "outputs": [],
      "stateMutability": "nonpayable",
      "type": "function"
    },
    {
      "inputs": [],
      "name": "paused",
      "outputs": [
        {
          "internalType": "bool",
          "name": "",
          "type": "bool"
        }
      ],
      "stateMutability": "view",
      "type": "function"
    },
    {
      "inputs": [],
      "name": "platform",
      "outputs": [
        {
          "internalType": "address payable",
          "name": "",
          "type": "address"
        }
      ],
      "stateMutability": "view",
      "type": "function"
    },
    {
      "inputs": [
        {
          "internalType": "uint256",
          "name": "_tokenId",
          "type": "uint256"
        }
      ],
      "name": "recycleTag",
      "outputs": [],
      "stateMutability": "nonpayable",
      "type": "function"
    },
    {
      "inputs": [
        {
          "internalType": "uint256",
          "name": "_tokenId",
          "type": "uint256"
        }
      ],
      "name": "renewTag",
      "outputs": [],
      "stateMutability": "nonpayable",
      "type": "function"
    },
    {
      "inputs": [
        {
          "internalType": "address",
          "name": "from",
          "type": "address"
        },
        {
          "internalType": "address",
          "name": "to",
          "type": "address"
        },
        {
          "internalType": "uint256",
          "name": "tokenId",
          "type": "uint256"
        }
      ],
      "name": "safeTransferFrom",
      "outputs": [],
      "stateMutability": "nonpayable",
      "type": "function"
    },
    {
      "inputs": [
        {
          "internalType": "address",
          "name": "from",
          "type": "address"
        },
        {
          "internalType": "address",
          "name": "to",
          "type": "address"
        },
        {
          "internalType": "uint256",
          "name": "tokenId",
          "type": "uint256"
        },
        {
          "internalType": "bytes",
          "name": "_data",
          "type": "bytes"
        }
      ],
      "name": "safeTransferFrom",
      "outputs": [],
      "stateMutability": "nonpayable",
      "type": "function"
    },
    {
      "inputs": [
        {
          "internalType": "address",
          "name": "operator",
          "type": "address"
        },
        {
          "internalType": "bool",
          "name": "approved",
          "type": "bool"
        }
      ],
      "name": "setApprovalForAll",
      "outputs": [],
      "stateMutability": "nonpayable",
      "type": "function"
    },
    {
      "inputs": [
        {
          "internalType": "bytes4",
          "name": "interfaceId",
          "type": "bytes4"
        }
      ],
      "name": "supportsInterface",
      "outputs": [
        {
          "internalType": "bool",
          "name": "",
          "type": "bool"
        }
      ],
      "stateMutability": "view",
      "type": "function"
    },
    {
      "inputs": [],
      "name": "symbol",
      "outputs": [
        {
          "internalType": "string",
          "name": "",
          "type": "string"
        }
      ],
      "stateMutability": "view",
      "type": "function"
    },
    {
      "inputs": [
        {
          "internalType": "string",
          "name": "_tag",
          "type": "string"
        }
      ],
      "name": "tagExists",
      "outputs": [
        {
          "internalType": "bool",
          "name": "",
          "type": "bool"
        }
      ],
      "stateMutability": "view",
      "type": "function"
    },
    {
      "inputs": [
        {
          "internalType": "uint256",
          "name": "_tokenId",
          "type": "uint256"
        }
      ],
      "name": "tagExists",
      "outputs": [
        {
          "internalType": "bool",
          "name": "",
          "type": "bool"
        }
      ],
      "stateMutability": "view",
      "type": "function"
    },
    {
      "inputs": [],
      "name": "tagMaxStringLength",
      "outputs": [
        {
          "internalType": "uint256",
          "name": "",
          "type": "uint256"
        }
      ],
      "stateMutability": "view",
      "type": "function"
    },
    {
      "inputs": [],
      "name": "tagMinStringLength",
      "outputs": [
        {
          "internalType": "uint256",
          "name": "",
          "type": "uint256"
        }
      ],
      "stateMutability": "view",
      "type": "function"
    },
    {
      "inputs": [
        {
          "internalType": "uint256",
          "name": "",
          "type": "uint256"
        }
      ],
      "name": "tokenIdToLastTransferTime",
      "outputs": [
        {
          "internalType": "uint256",
          "name": "",
          "type": "uint256"
        }
      ],
      "stateMutability": "view",
      "type": "function"
    },
    {
      "inputs": [
        {
          "internalType": "uint256",
          "name": "",
          "type": "uint256"
        }
      ],
      "name": "tokenIdToTag",
      "outputs": [
        {
          "internalType": "address",
          "name": "originalPublisher",
          "type": "address"
        },
        {
          "internalType": "address",
          "name": "creator",
          "type": "address"
        },
        {
          "internalType": "string",
          "name": "displayVersion",
          "type": "string"
        }
      ],
      "stateMutability": "view",
      "type": "function"
    },
    {
      "inputs": [],
      "name": "tokenPointer",
      "outputs": [
        {
          "internalType": "uint256",
          "name": "",
          "type": "uint256"
        }
      ],
      "stateMutability": "view",
      "type": "function"
    },
    {
      "inputs": [
        {
          "internalType": "uint256",
          "name": "tokenId",
          "type": "uint256"
        }
      ],
      "name": "tokenURI",
      "outputs": [
        {
          "internalType": "string",
          "name": "",
          "type": "string"
        }
      ],
      "stateMutability": "view",
      "type": "function"
    },
    {
      "inputs": [
        {
          "internalType": "address",
          "name": "from",
          "type": "address"
        },
        {
          "internalType": "address",
          "name": "to",
          "type": "address"
        },
        {
          "internalType": "uint256",
          "name": "tokenId",
          "type": "uint256"
        }
      ],
      "name": "transferFrom",
      "outputs": [],
      "stateMutability": "nonpayable",
      "type": "function"
    },
    {
      "inputs": [],
      "name": "unPause",
      "outputs": [],
      "stateMutability": "nonpayable",
      "type": "function"
    },
    {
      "inputs": [
        {
          "internalType": "contract ETSAccessControls",
          "name": "_accessControls",
          "type": "address"
        }
      ],
      "name": "updateAccessControls",
      "outputs": [],
      "stateMutability": "nonpayable",
      "type": "function"
    },
    {
      "inputs": [
        {
          "internalType": "string",
          "name": "newBaseURI",
          "type": "string"
        }
      ],
      "name": "updateBaseURI",
      "outputs": [],
      "stateMutability": "nonpayable",
      "type": "function"
    },
    {
      "inputs": [
        {
          "internalType": "uint256",
          "name": "_ownershipTermLength",
          "type": "uint256"
        }
      ],
      "name": "updateOwnershipTermLength",
      "outputs": [],
      "stateMutability": "nonpayable",
      "type": "function"
    },
    {
      "inputs": [
        {
          "internalType": "address payable",
          "name": "_platform",
          "type": "address"
        }
      ],
      "name": "updatePlatform",
      "outputs": [],
      "stateMutability": "nonpayable",
      "type": "function"
    },
    {
      "inputs": [
        {
          "internalType": "uint256",
          "name": "_tagMaxStringLength",
          "type": "uint256"
        }
      ],
      "name": "updateTagMaxStringLength",
      "outputs": [],
      "stateMutability": "nonpayable",
      "type": "function"
    },
    {
      "inputs": [],
      "name": "upgradeTest",
      "outputs": [
        {
          "internalType": "bool",
          "name": "",
          "type": "bool"
        }
      ],
      "stateMutability": "pure",
      "type": "function"
    },
    {
      "inputs": [
        {
          "internalType": "address",
          "name": "newImplementation",
          "type": "address"
        }
      ],
      "name": "upgradeTo",
      "outputs": [],
      "stateMutability": "nonpayable",
      "type": "function"
    },
    {
      "inputs": [
        {
          "internalType": "address",
          "name": "newImplementation",
          "type": "address"
        },
        {
          "internalType": "bytes",
          "name": "data",
          "type": "bytes"
        }
      ],
      "name": "upgradeToAndCall",
      "outputs": [],
      "stateMutability": "payable",
      "type": "function"
    },
    {
      "inputs": [],
      "name": "version",
      "outputs": [
        {
          "internalType": "string",
          "name": "",
          "type": "string"
        }
      ],
      "stateMutability": "pure",
      "type": "function"
    }
  ],
  "bytecode": "0x60a06040523060805234801561001457600080fd5b506080516144eb61004560003960008181610c4f01528181610cd40152818161114501526111ca01526144eb6000f3fe6080604052600436106102fd5760003560e01c80638456cb591161018f578063b88d4fde116100e1578063e8d3e4b61161008a578063f143fc6111610064578063f143fc61146108e7578063f7b188a514610907578063ffa1ad741461091c57600080fd5b8063e8d3e4b61461085e578063e985e9c51461087e578063f0b35042146108c757600080fd5b8063d3c80bd8116100bb578063d3c80bd814610807578063d7ba63f514610827578063db7af5fb1461084757600080fd5b8063b88d4fde146107a7578063c157daea146107c7578063c87b56dd146107e757600080fd5b8063a22cb46511610143578063a3f4df7e1161011d578063a3f4df7e14610718578063ad014a5b14610761578063adf63cd21461079057600080fd5b8063a22cb4651461069e578063a293da0f146106be578063a30b4db9146106de57600080fd5b806390b467ea1161017457806390b467ea1461063b578063931688cb1461066957806395d89b411461068957600080fd5b80638456cb59146105e6578063878327ab146105fb57600080fd5b8063485cc955116102535780636c0360eb116101fc578063748365ef116101d6578063748365ef146105925780637e6d945e146105b3578063828fe4d0146105c657600080fd5b80636c0360eb1461053d5780636ef3da941461055257806370a082311461057257600080fd5b806354fd4d501161022d57806354fd4d50146104d75780635c975abb146105055780636352211e1461051d57600080fd5b8063485cc955146104835780634bde38c8146104a35780634f1ef286146104c457600080fd5b806323b872dd116102b55780633d20b15c1161028f5780633d20b15c1461042f57806342842e0e1461044357806342966c681461046357600080fd5b806323b872dd146103d85780632e611630146103f85780633659cfe61461040f57600080fd5b806306fdde03116102e657806306fdde031461035c578063081812fc1461037e578063095ea7b3146103b657600080fd5b806301ffc9a7146103025780630283165114610337575b600080fd5b34801561030e57600080fd5b5061032261031d366004613d4a565b61094d565b60405190151581526020015b60405180910390f35b34801561034357600080fd5b5061034e6101935481565b60405190815260200161032e565b34801561036857600080fd5b5061037161095e565b60405161032e9190613dbf565b34801561038a57600080fd5b5061039e610399366004613dd2565b6109f0565b6040516001600160a01b03909116815260200161032e565b3480156103c257600080fd5b506103d66103d1366004613e00565b610a8a565b005b3480156103e457600080fd5b506103d66103f3366004613e2c565b610bbc565b34801561040457600080fd5b5061034e6101955481565b34801561041b57600080fd5b506103d661042a366004613e6d565b610c44565b34801561043b57600080fd5b506001610322565b34801561044f57600080fd5b506103d661045e366004613e2c565b610dc0565b34801561046f57600080fd5b506103d661047e366004613dd2565b610ddb565b34801561048f57600080fd5b506103d661049e366004613e8a565b610f62565b3480156104af57600080fd5b506101965461039e906001600160a01b031681565b6103d66104d2366004613f6f565b61113a565b3480156104e357600080fd5b506040805180820190915260058152640302e322e360dc1b6020820152610371565b34801561051157600080fd5b5060975460ff16610322565b34801561052957600080fd5b5061039e610538366004613dd2565b6112a7565b34801561054957600080fd5b50610371611332565b34801561055e57600080fd5b506103d661056d366004613e6d565b6113c1565b34801561057e57600080fd5b5061034e61058d366004613e6d565b611575565b34801561059e57600080fd5b506101975461039e906001600160a01b031681565b61034e6105c1366004614008565b61160f565b3480156105d257600080fd5b506103226105e1366004614070565b611879565b3480156105f257600080fd5b506103d66118e1565b34801561060757600080fd5b5061061b610616366004613dd2565b6119c0565b604080516001600160a01b0393841681529290911660208301520161032e565b34801561064757600080fd5b5061034e610656366004613dd2565b6101996020526000908152604090205481565b34801561067557600080fd5b506103d6610684366004614070565b6119e4565b34801561069557600080fd5b50610371611af8565b3480156106aa57600080fd5b506103d66106b93660046140c0565b611b07565b3480156106ca57600080fd5b506103d66106d9366004613e6d565b611b12565b3480156106ea57600080fd5b5061039e6106f9366004613dd2565b600090815261019860205260409020600101546001600160a01b031690565b34801561072457600080fd5b506103716040518060400160405280600c81526020017f45545354414720546f6b656e000000000000000000000000000000000000000081525081565b34801561076d57600080fd5b5061078161077c366004613dd2565b611c42565b60405161032e939291906140ee565b34801561079c57600080fd5b5061034e6101945481565b3480156107b357600080fd5b506103d66107c236600461411a565b611cfb565b3480156107d357600080fd5b506103d66107e2366004613dd2565b611d89565b3480156107f357600080fd5b50610371610802366004613dd2565b611e31565b34801561081357600080fd5b50610322610822366004613dd2565b611f19565b34801561083357600080fd5b506103d6610842366004613dd2565b611f38565b34801561085357600080fd5b5061034e6101925481565b34801561086a57600080fd5b506103d6610879366004613dd2565b61204c565b34801561088a57600080fd5b50610322610899366004613e8a565b6001600160a01b039182166000908152606a6020908152604080832093909416825291909152205460ff1690565b3480156108d357600080fd5b506103d66108e2366004613dd2565b612227565b3480156108f357600080fd5b5061034e610902366004614186565b61233b565b34801561091357600080fd5b506103d6612356565b34801561092857600080fd5b50610371604051806040016040528060058152602001640302e322e360dc1b81525081565b600061095882612433565b92915050565b60606065805461096d906141cf565b80601f0160208091040260200160405190810160405280929190818152602001828054610999906141cf565b80156109e65780601f106109bb576101008083540402835291602001916109e6565b820191906000526020600020905b8154815290600101906020018083116109c957829003601f168201915b5050505050905090565b6000818152606760205260408120546001600160a01b0316610a6e5760405162461bcd60e51b815260206004820152602c60248201527f4552433732313a20617070726f76656420717565727920666f72206e6f6e657860448201526b34b9ba32b73a103a37b5b2b760a11b60648201526084015b60405180910390fd5b506000908152606960205260409020546001600160a01b031690565b6000610a95826112a7565b9050806001600160a01b0316836001600160a01b03161415610b1f5760405162461bcd60e51b815260206004820152602160248201527f4552433732313a20617070726f76616c20746f2063757272656e74206f776e6560448201527f72000000000000000000000000000000000000000000000000000000000000006064820152608401610a65565b336001600160a01b0382161480610b3b5750610b3b8133610899565b610bad5760405162461bcd60e51b815260206004820152603860248201527f4552433732313a20617070726f76652063616c6c6572206973206e6f74206f7760448201527f6e6572206e6f7220617070726f76656420666f7220616c6c00000000000000006064820152608401610a65565b610bb783836124ce565b505050565b610bc7335b8261253c565b610c395760405162461bcd60e51b815260206004820152603160248201527f4552433732313a207472616e736665722063616c6c6572206973206e6f74206f60448201527f776e6572206e6f7220617070726f7665640000000000000000000000000000006064820152608401610a65565b610bb783838361262f565b306001600160a01b037f0000000000000000000000000000000000000000000000000000000000000000161415610cd25760405162461bcd60e51b815260206004820152602c60248201527f46756e6374696f6e206d7573742062652063616c6c6564207468726f7567682060448201526b19195b1959d85d1958d85b1b60a21b6064820152608401610a65565b7f00000000000000000000000000000000000000000000000000000000000000006001600160a01b0316610d2d7f360894a13ba1a3210667c828492db98dca3e2076cc3735a920a3ca505d382bbc546001600160a01b031690565b6001600160a01b031614610d985760405162461bcd60e51b815260206004820152602c60248201527f46756e6374696f6e206d7573742062652063616c6c6564207468726f7567682060448201526b6163746976652070726f787960a01b6064820152608401610a65565b610da181612807565b60408051600080825260208201909252610dbd918391906128dc565b50565b610bb783838360405180602001604052806000815250611cfb565b610197546001600160a01b03166324d7806c336040516001600160e01b031960e084901b1681526001600160a01b039091166004820152602401602060405180830381865afa158015610e32573d6000803e3d6000fd5b505050506040513d601f19601f82011682018060405250810190610e56919061420a565b610eb05760405162461bcd60e51b815260206004820152602560248201527f43616c6c6572206d75737420686176652061646d696e6973747261746f722061604482015264636365737360d81b6064820152608401610a65565b610eb933610bc1565b610f2b5760405162461bcd60e51b815260206004820152603060248201527f4552433732314275726e61626c653a2063616c6c6572206973206e6f74206f7760448201527f6e6572206e6f7220617070726f766564000000000000000000000000000000006064820152608401610a65565b610f3481612aa0565b60405181907f7f928e3c53f35086b51ff7b9bfd4651b14e8b9ccb0535aa4a085fb2881785b8290600090a250565b600054610100900460ff16610f7d5760005460ff1615610f81565b303b155b610ff35760405162461bcd60e51b815260206004820152602e60248201527f496e697469616c697a61626c653a20636f6e747261637420697320616c72656160448201527f647920696e697469616c697a65640000000000000000000000000000000000006064820152608401610a65565b600054610100900460ff16158015611015576000805461ffff19166101011790555b6110896040518060400160405280601481526020017f457468657265756d2054616720536572766963650000000000000000000000008152506040518060400160405280600681526020017f4554535441470000000000000000000000000000000000000000000000000000815250612b47565b611091612bcc565b611099612c57565b61019780546001600160a01b038086166001600160a01b0319928316179092556101968054928516929091169190911790556303c26700610192556040805180820190915260208082527f68747470733a2f2f6170692e686173687461672d70726f746f636f6c2e696f2f9181019182526111179161019191613c27565b506001610194556020610195558015610bb7576000805461ff0019169055505050565b306001600160a01b037f00000000000000000000000000000000000000000000000000000000000000001614156111c85760405162461bcd60e51b815260206004820152602c60248201527f46756e6374696f6e206d7573742062652063616c6c6564207468726f7567682060448201526b19195b1959d85d1958d85b1b60a21b6064820152608401610a65565b7f00000000000000000000000000000000000000000000000000000000000000006001600160a01b03166112237f360894a13ba1a3210667c828492db98dca3e2076cc3735a920a3ca505d382bbc546001600160a01b031690565b6001600160a01b03161461128e5760405162461bcd60e51b815260206004820152602c60248201527f46756e6374696f6e206d7573742062652063616c6c6564207468726f7567682060448201526b6163746976652070726f787960a01b6064820152608401610a65565b61129782612807565b6112a3828260016128dc565b5050565b6000818152606760205260408120546001600160a01b0316806109585760405162461bcd60e51b815260206004820152602960248201527f4552433732313a206f776e657220717565727920666f72206e6f6e657869737460448201527f656e7420746f6b656e00000000000000000000000000000000000000000000006064820152608401610a65565b6101918054611340906141cf565b80601f016020809104026020016040519081016040528092919081815260200182805461136c906141cf565b80156113b95780601f1061138e576101008083540402835291602001916113b9565b820191906000526020600020905b81548152906001019060200180831161139c57829003601f168201915b505050505081565b610197546001600160a01b03166324d7806c336040516001600160e01b031960e084901b1681526001600160a01b039091166004820152602401602060405180830381865afa158015611418573d6000803e3d6000fd5b505050506040513d601f19601f8201168201806040525081019061143c919061420a565b6114965760405162461bcd60e51b815260206004820152602560248201527f43616c6c6572206d75737420686176652061646d696e6973747261746f722061604482015264636365737360d81b6064820152608401610a65565b6001600160a01b0381166115125760405162461bcd60e51b815260206004820152602b60248201527f4554535461672e757064617465416363657373436f6e74726f6c733a2043616e60448201527f6e6f74206265207a65726f0000000000000000000000000000000000000000006064820152608401610a65565b61019780546001600160a01b038381166001600160a01b031983168117909355604080519190921680825260208201939093527f31073599bfae2533a348dc816b0ce777b707aa9b67015ca2d86585e842b5c6e991015b60405180910390a15050565b60006001600160a01b0382166115f35760405162461bcd60e51b815260206004820152602a60248201527f4552433732313a2062616c616e636520717565727920666f7220746865207a6560448201527f726f2061646472657373000000000000000000000000000000000000000000006064820152608401610a65565b506001600160a01b031660009081526068602052604090205490565b610197546040517f41859ac80000000000000000000000000000000000000000000000000000000081526001600160a01b03848116600483015260009216906341859ac890602401602060405180830381865afa158015611674573d6000803e3d6000fd5b505050506040513d601f19601f82011682018060405250810190611698919061420a565b61170a5760405162461bcd60e51b815260206004820152602760248201527f4d696e743a20546865207075626c6973686572206d757374206265207768697460448201527f656c6973746564000000000000000000000000000000000000000000000000006064820152608401610a65565b600061174b86868080601f016020809104026020016040519081016040528093929190818152602001838380828437600092019190915250612cd292505050565b61019654909150611765906001600160a01b031682612f46565b6040518060600160405280856001600160a01b03168152602001846001600160a01b0316815260200187878080601f01602080910402602001604051908101604052809392919081815260200183838082843760009201829052509390945250508381526101986020908152604091829020845181546001600160a01b039182166001600160a01b0319918216178355868401516001840180549190931691161790559184015180519293506118249260028501929190910190613c27565b50905050836001600160a01b0316817f85d182e335717d2d833be448c2f6a5864b8514dfeb8cda8f0fbac14f5157f0be88888760405161186693929190614227565b60405180910390a390505b949350505050565b60006118da6118bd84848080601f01602080910402602001604051908101604052809392919081815260200183838082843760009201919091525061233b92505050565b6000908152606760205260409020546001600160a01b0316151590565b9392505050565b610197546001600160a01b03166324d7806c336040516001600160e01b031960e084901b1681526001600160a01b039091166004820152602401602060405180830381865afa158015611938573d6000803e3d6000fd5b505050506040513d601f19601f8201168201806040525081019061195c919061420a565b6119b65760405162461bcd60e51b815260206004820152602560248201527f43616c6c6572206d75737420686176652061646d696e6973747261746f722061604482015264636365737360d81b6064820152608401610a65565b6119be612f60565b565b6101965460009081906001600160a01b03166119db846112a7565b91509150915091565b610197546001600160a01b03166324d7806c336040516001600160e01b031960e084901b1681526001600160a01b039091166004820152602401602060405180830381865afa158015611a3b573d6000803e3d6000fd5b505050506040513d601f19601f82011682018060405250810190611a5f919061420a565b611ab95760405162461bcd60e51b815260206004820152602560248201527f43616c6c6572206d75737420686176652061646d696e6973747261746f722061604482015264636365737360d81b6064820152608401610a65565b611ac66101918383613cab565b507f325d37e8fb549c86966f09bc3e6f62eb3afa93b255d6e3234338001f3d80bd866101916040516115699190614269565b60606066805461096d906141cf565b6112a3338383613005565b610197546001600160a01b03166324d7806c336040516001600160e01b031960e084901b1681526001600160a01b039091166004820152602401602060405180830381865afa158015611b69573d6000803e3d6000fd5b505050506040513d601f19601f82011682018060405250810190611b8d919061420a565b611be75760405162461bcd60e51b815260206004820152602560248201527f43616c6c6572206d75737420686176652061646d696e6973747261746f722061604482015264636365737360d81b6064820152608401610a65565b61019680546001600160a01b038381166001600160a01b031983168117909355604080519190921680825260208201939093527f0e8ce4b57fd24de168e9c8d76109cb59a7852e78b3575da1ba2077dd53d330ec9101611569565b610198602052600090815260409020805460018201546002830180546001600160a01b03938416949290931692611c78906141cf565b80601f0160208091040260200160405190810160405280929190818152602001828054611ca4906141cf565b8015611cf15780601f10611cc657610100808354040283529160200191611cf1565b820191906000526020600020905b815481529060010190602001808311611cd457829003601f168201915b5050505050905083565b611d05338361253c565b611d775760405162461bcd60e51b815260206004820152603160248201527f4552433732313a207472616e736665722063616c6c6572206973206e6f74206f60448201527f776e6572206e6f7220617070726f7665640000000000000000000000000000006064820152608401610a65565b611d83848484846130d4565b50505050565b611d92816112a7565b6001600160a01b0316336001600160a01b031614611df25760405162461bcd60e51b815260206004820152601860248201527f72656e65775461673a20496e76616c69642073656e64657200000000000000006044820152606401610a65565b6000818152610199602052604080822042905551339183917faa0c0591942aff60e66bde156168c9a47ef843534b433bbaa33e62d1410f4f2c9190a350565b6000818152606760205260409020546060906001600160a01b0316611ebe5760405162461bcd60e51b815260206004820152602f60248201527f4552433732314d657461646174613a2055524920717565727920666f72206e6f60448201527f6e6578697374656e7420746f6b656e00000000000000000000000000000000006064820152608401610a65565b6000611ec8613152565b90506000815111611ee857604051806020016040528060008152506118da565b80611ef284613162565b604051602001611f03929190614311565b6040516020818303038152906040529392505050565b6000818152606760205260408120546001600160a01b03161515610958565b610197546001600160a01b03166324d7806c336040516001600160e01b031960e084901b1681526001600160a01b039091166004820152602401602060405180830381865afa158015611f8f573d6000803e3d6000fd5b505050506040513d601f19601f82011682018060405250810190611fb3919061420a565b61200d5760405162461bcd60e51b815260206004820152602560248201527f43616c6c6572206d75737420686176652061646d696e6973747261746f722061604482015264636365737360d81b6064820152608401610a65565b61019280549082905560408051828152602081018490527f7550fd28481dfa2a7590562881c3fffa398e97624ad6eeae494cf36c51e2a9069101611569565b6000818152606760205260409020546001600160a01b03166120b05760405162461bcd60e51b815260206004820152601c60248201527f72656379636c655461673a20496e76616c696420746f6b656e204944000000006044820152606401610a65565b610196546001600160a01b03166120c6826112a7565b6001600160a01b031614156121435760405162461bcd60e51b815260206004820152602d60248201527f72656379636c655461673a2054616720616c7265616479206f776e656420627960448201527f2074686520706c6174666f726d000000000000000000000000000000000000006064820152608401610a65565b6000818152610199602052604090205461019254429061216490839061327c565b106121d75760405162461bcd60e51b815260206004820152603060248201527f72656379636c655461673a20546f6b656e206e6f7420656c696769626c65206660448201527f6f722072656379636c696e6720796574000000000000000000000000000000006064820152608401610a65565b6121f66121e3836112a7565b610196546001600160a01b03168461262f565b604051339083907f0f842a1659c86d6e422461459fb2ab6fa8af886fd1cf9978a73dd299f23ccc7a90600090a35050565b610197546001600160a01b03166324d7806c336040516001600160e01b031960e084901b1681526001600160a01b039091166004820152602401602060405180830381865afa15801561227e573d6000803e3d6000fd5b505050506040513d601f19601f820116820180604052508101906122a2919061420a565b6122fc5760405162461bcd60e51b815260206004820152602560248201527f43616c6c6572206d75737420686176652061646d696e6973747261746f722061604482015264636365737360d81b6064820152608401610a65565b61019580549082905560408051828152602081018490527f3bcd7d0ed4502e81afe37fd199a6a8e34e8d351fdafd54d97726970c18fdcd2b9101611569565b60008061234783613288565b80516020909101209392505050565b610197546001600160a01b03166324d7806c336040516001600160e01b031960e084901b1681526001600160a01b039091166004820152602401602060405180830381865afa1580156123ad573d6000803e3d6000fd5b505050506040513d601f19601f820116820180604052508101906123d1919061420a565b61242b5760405162461bcd60e51b815260206004820152602560248201527f43616c6c6572206d75737420686176652061646d696e6973747261746f722061604482015264636365737360d81b6064820152608401610a65565b6119be6133ff565b60006001600160e01b031982167f80ac58cd00000000000000000000000000000000000000000000000000000000148061249657506001600160e01b031982167f5b5e139f00000000000000000000000000000000000000000000000000000000145b8061095857507f01ffc9a7000000000000000000000000000000000000000000000000000000006001600160e01b0319831614610958565b600081815260696020526040902080546001600160a01b0319166001600160a01b0384169081179091558190612503826112a7565b6001600160a01b03167f8c5be1e5ebec7d5bd14f71427d1e84f3dd0314c0f7b2291e5b200ac8c7c3b92560405160405180910390a45050565b6000818152606760205260408120546001600160a01b03166125b55760405162461bcd60e51b815260206004820152602c60248201527f4552433732313a206f70657261746f7220717565727920666f72206e6f6e657860448201526b34b9ba32b73a103a37b5b2b760a11b6064820152608401610a65565b60006125c0836112a7565b9050806001600160a01b0316846001600160a01b031614806125fb5750836001600160a01b03166125f0846109f0565b6001600160a01b0316145b8061187157506001600160a01b038082166000908152606a602090815260408083209388168352929052205460ff16611871565b826001600160a01b0316612642826112a7565b6001600160a01b0316146126be5760405162461bcd60e51b815260206004820152602960248201527f4552433732313a207472616e73666572206f6620746f6b656e2074686174206960448201527f73206e6f74206f776e00000000000000000000000000000000000000000000006064820152608401610a65565b6001600160a01b0382166127395760405162461bcd60e51b8152602060048201526024808201527f4552433732313a207472616e7366657220746f20746865207a65726f2061646460448201527f72657373000000000000000000000000000000000000000000000000000000006064820152608401610a65565b612744838383613482565b61274f6000826124ce565b6001600160a01b0383166000908152606860205260408120805460019290612778908490614356565b90915550506001600160a01b03821660009081526068602052604081208054600192906127a690849061436d565b909155505060008181526067602052604080822080546001600160a01b0319166001600160a01b0386811691821790925591518493918716917fddf252ad1be2c89b69c2b068fc378daa952ba7f163c4a11628f55a4df523b3ef91a4505050565b610197546001600160a01b03166324d7806c336040516001600160e01b031960e084901b1681526001600160a01b039091166004820152602401602060405180830381865afa15801561285e573d6000803e3d6000fd5b505050506040513d601f19601f82011682018060405250810190612882919061420a565b610dbd5760405162461bcd60e51b815260206004820152602560248201527f43616c6c6572206d75737420686176652061646d696e6973747261746f722061604482015264636365737360d81b6064820152608401610a65565b600061290f7f360894a13ba1a3210667c828492db98dca3e2076cc3735a920a3ca505d382bbc546001600160a01b031690565b905061291a8461350a565b6000835111806129275750815b156129385761293684846135bf565b505b7f4910fdfa16fed3260ed0e7147f7cc6da11a60208b5b9406d12a635614ffd9143805460ff16612a9957805460ff191660011781556040516001600160a01b03831660248201526129e590869060440160408051601f198184030181529190526020810180517bffffffffffffffffffffffffffffffffffffffffffffffffffffffff167f3659cfe6000000000000000000000000000000000000000000000000000000001790526135bf565b50805460ff191681557f360894a13ba1a3210667c828492db98dca3e2076cc3735a920a3ca505d382bbc546001600160a01b03838116911614612a905760405162461bcd60e51b815260206004820152602f60248201527f45524331393637557067726164653a207570677261646520627265616b73206660448201527f75727468657220757067726164657300000000000000000000000000000000006064820152608401610a65565b612a99856136c1565b5050505050565b6000612aab826112a7565b9050612ab981600084613482565b612ac46000836124ce565b6001600160a01b0381166000908152606860205260408120805460019290612aed908490614356565b909155505060008281526067602052604080822080546001600160a01b0319169055518391906001600160a01b038416907fddf252ad1be2c89b69c2b068fc378daa952ba7f163c4a11628f55a4df523b3ef908390a45050565b600054610100900460ff16612bb25760405162461bcd60e51b815260206004820152602b60248201527f496e697469616c697a61626c653a20636f6e7472616374206973206e6f74206960448201526a6e697469616c697a696e6760a81b6064820152608401610a65565b612bba613701565b612bc2613701565b6112a3828261376c565b600054610100900460ff16612c375760405162461bcd60e51b815260206004820152602b60248201527f496e697469616c697a61626c653a20636f6e7472616374206973206e6f74206960448201526a6e697469616c697a696e6760a81b6064820152608401610a65565b612c3f613701565b612c47613701565b612c4f6137fe565b6119be613701565b600054610100900460ff16612cc25760405162461bcd60e51b815260206004820152602b60248201527f496e697469616c697a61626c653a20636f6e7472616374206973206e6f74206960448201526a6e697469616c697a696e6760a81b6064820152608401610a65565b612cca613701565b612c4f613701565b600080612cde8361233b565b6000818152606760205260409020549091506001600160a01b031615612d465760405162461bcd60e51b815260206004820152601c60248201527f4552433732313a20746f6b656e20616c7265616479206d696e746564000000006044820152606401610a65565b610194548351849111801590612d60575061019554815111155b612dd25760405162461bcd60e51b815260206004820152603d60248201527f496e76616c696420666f726d61743a2074616720646f6573206e6f74206d656560448201527f74206d696e2f6d6178206c656e67746820726571756972656d656e74730000006064820152608401610a65565b80600081518110612de557612de5614385565b6020910101516001600160f81b0319167f230000000000000000000000000000000000000000000000000000000000000014612e635760405162461bcd60e51b815260206004820152601560248201527f546167206d7573742073746172742077697468202300000000000000000000006044820152606401610a65565b60015b8151811015612f3d576000828281518110612e8357612e83614385565b01602001516001600160f81b03191690507f2000000000000000000000000000000000000000000000000000000000000000811415612f2a5760405162461bcd60e51b815260206004820152602760248201527f537061636520666f756e643a20746167206d6179206e6f7420636f6e7461696e60448201527f20737061636573000000000000000000000000000000000000000000000000006064820152608401610a65565b5080612f358161439b565b915050612e66565b50909392505050565b6112a3828260405180602001604052806000815250613875565b60975460ff1615612fb35760405162461bcd60e51b815260206004820152601060248201527f5061757361626c653a20706175736564000000000000000000000000000000006044820152606401610a65565b6097805460ff191660011790557f62e78cea01bee320cd4e420270b5ea74000d11b0c9f74754ebdbfc544b05a258612fe83390565b6040516001600160a01b03909116815260200160405180910390a1565b816001600160a01b0316836001600160a01b031614156130675760405162461bcd60e51b815260206004820152601960248201527f4552433732313a20617070726f766520746f2063616c6c6572000000000000006044820152606401610a65565b6001600160a01b038381166000818152606a6020908152604080832094871680845294825291829020805460ff191686151590811790915591519182527f17307eab39ab6107e8899845ad3d59bd9653f200f220920489ca2b5937696c31910160405180910390a3505050565b6130df84848461262f565b6130eb848484846138f3565b611d835760405162461bcd60e51b815260206004820152603260248201527f4552433732313a207472616e7366657220746f206e6f6e20455243373231526560448201527131b2b4bb32b91034b6b83632b6b2b73a32b960711b6064820152608401610a65565b6060610191805461096d906141cf565b6060816131a257505060408051808201909152600181527f3000000000000000000000000000000000000000000000000000000000000000602082015290565b8160005b81156131cc57806131b68161439b565b91506131c59050600a836143cc565b91506131a6565b60008167ffffffffffffffff8111156131e7576131e7613ec3565b6040519080825280601f01601f191660200182016040528015613211576020820181803683370190505b5090505b841561187157613226600183614356565b9150613233600a866143e0565b61323e90603061436d565b60f81b81838151811061325357613253614385565b60200101906001600160f81b031916908160001a905350613275600a866143cc565b9450613215565b60006118da828461436d565b606060008290506000815167ffffffffffffffff8111156132ab576132ab613ec3565b6040519080825280601f01601f1916602001820160405280156132d5576020820181803683370190505b50905060005b82518110156133f757604160f81b8382815181106132fb576132fb614385565b01602001516001600160f81b0319161080159061333c5750605a60f81b83828151811061332a5761332a614385565b01602001516001600160f81b03191611155b1561339e5782818151811061335357613353614385565b602001015160f81c60f81b60f81c602061336d91906143f4565b60f81b82828151811061338257613382614385565b60200101906001600160f81b031916908160001a9053506133e5565b8281815181106133b0576133b0614385565b602001015160f81c60f81b8282815181106133cd576133cd614385565b60200101906001600160f81b031916908160001a9053505b806133ef8161439b565b9150506132db565b509392505050565b60975460ff166134515760405162461bcd60e51b815260206004820152601460248201527f5061757361626c653a206e6f74207061757365640000000000000000000000006044820152606401610a65565b6097805460ff191690557f5db9ee0a495bf2e6ff9c91a7834c1ba4fdd244a5e8aa4e537bd38aeae4b073aa33612fe8565b61348d838383613a39565b60975460ff16156134f45760405162461bcd60e51b815260206004820152602b60248201527f4552433732315061757361626c653a20746f6b656e207472616e73666572207760448201526a1a1a5b19481c185d5cd95960aa1b6064820152608401610a65565b6000908152610199602052604090204290555050565b803b61357e5760405162461bcd60e51b815260206004820152602d60248201527f455243313936373a206e657720696d706c656d656e746174696f6e206973206e60448201527f6f74206120636f6e7472616374000000000000000000000000000000000000006064820152608401610a65565b7f360894a13ba1a3210667c828492db98dca3e2076cc3735a920a3ca505d382bbc80546001600160a01b0319166001600160a01b0392909216919091179055565b6060823b6136355760405162461bcd60e51b815260206004820152602660248201527f416464726573733a2064656c65676174652063616c6c20746f206e6f6e2d636f60448201527f6e747261637400000000000000000000000000000000000000000000000000006064820152608401610a65565b600080846001600160a01b0316846040516136509190614419565b600060405180830381855af49150503d806000811461368b576040519150601f19603f3d011682016040523d82523d6000602084013e613690565b606091505b50915091506136b8828260405180606001604052806027815260200161448f60279139613aa0565b95945050505050565b6136ca8161350a565b6040516001600160a01b038216907fbc7cd75a20ee27fd9adebab32041f755214dbc6bffa90cc0225b39da2e5c2d3b90600090a250565b600054610100900460ff166119be5760405162461bcd60e51b815260206004820152602b60248201527f496e697469616c697a61626c653a20636f6e7472616374206973206e6f74206960448201526a6e697469616c697a696e6760a81b6064820152608401610a65565b600054610100900460ff166137d75760405162461bcd60e51b815260206004820152602b60248201527f496e697469616c697a61626c653a20636f6e7472616374206973206e6f74206960448201526a6e697469616c697a696e6760a81b6064820152608401610a65565b81516137ea906065906020850190613c27565b508051610bb7906066906020840190613c27565b600054610100900460ff166138695760405162461bcd60e51b815260206004820152602b60248201527f496e697469616c697a61626c653a20636f6e7472616374206973206e6f74206960448201526a6e697469616c697a696e6760a81b6064820152608401610a65565b6097805460ff19169055565b61387f8383613ad9565b61388c60008484846138f3565b610bb75760405162461bcd60e51b815260206004820152603260248201527f4552433732313a207472616e7366657220746f206e6f6e20455243373231526560448201527131b2b4bb32b91034b6b83632b6b2b73a32b960711b6064820152608401610a65565b60006001600160a01b0384163b15613a3157604051630a85bd0160e11b81526001600160a01b0385169063150b7a0290613937903390899088908890600401614435565b6020604051808303816000875af1925050508015613972575060408051601f3d908101601f1916820190925261396f91810190614471565b60015b613a17573d8080156139a0576040519150601f19603f3d011682016040523d82523d6000602084013e6139a5565b606091505b508051613a0f5760405162461bcd60e51b815260206004820152603260248201527f4552433732313a207472616e7366657220746f206e6f6e20455243373231526560448201527131b2b4bb32b91034b6b83632b6b2b73a32b960711b6064820152608401610a65565b805181602001fd5b6001600160e01b031916630a85bd0160e11b149050611871565b506001611871565b60975460ff1615610bb75760405162461bcd60e51b815260206004820152602b60248201527f4552433732315061757361626c653a20746f6b656e207472616e73666572207760448201526a1a1a5b19481c185d5cd95960aa1b6064820152608401610a65565b60608315613aaf5750816118da565b825115613abf5782518084602001fd5b8160405162461bcd60e51b8152600401610a659190613dbf565b6001600160a01b038216613b2f5760405162461bcd60e51b815260206004820181905260248201527f4552433732313a206d696e7420746f20746865207a65726f20616464726573736044820152606401610a65565b6000818152606760205260409020546001600160a01b031615613b945760405162461bcd60e51b815260206004820152601c60248201527f4552433732313a20746f6b656e20616c7265616479206d696e746564000000006044820152606401610a65565b613ba060008383613482565b6001600160a01b0382166000908152606860205260408120805460019290613bc990849061436d565b909155505060008181526067602052604080822080546001600160a01b0319166001600160a01b03861690811790915590518392907fddf252ad1be2c89b69c2b068fc378daa952ba7f163c4a11628f55a4df523b3ef908290a45050565b828054613c33906141cf565b90600052602060002090601f016020900481019282613c555760008555613c9b565b82601f10613c6e57805160ff1916838001178555613c9b565b82800160010185558215613c9b579182015b82811115613c9b578251825591602001919060010190613c80565b50613ca7929150613d1f565b5090565b828054613cb7906141cf565b90600052602060002090601f016020900481019282613cd95760008555613c9b565b82601f10613cf25782800160ff19823516178555613c9b565b82800160010185558215613c9b579182015b82811115613c9b578235825591602001919060010190613d04565b5b80821115613ca75760008155600101613d20565b6001600160e01b031981168114610dbd57600080fd5b600060208284031215613d5c57600080fd5b81356118da81613d34565b60005b83811015613d82578181015183820152602001613d6a565b83811115611d835750506000910152565b60008151808452613dab816020860160208601613d67565b601f01601f19169290920160200192915050565b6020815260006118da6020830184613d93565b600060208284031215613de457600080fd5b5035919050565b6001600160a01b0381168114610dbd57600080fd5b60008060408385031215613e1357600080fd5b8235613e1e81613deb565b946020939093013593505050565b600080600060608486031215613e4157600080fd5b8335613e4c81613deb565b92506020840135613e5c81613deb565b929592945050506040919091013590565b600060208284031215613e7f57600080fd5b81356118da81613deb565b60008060408385031215613e9d57600080fd5b8235613ea881613deb565b91506020830135613eb881613deb565b809150509250929050565b634e487b7160e01b600052604160045260246000fd5b600067ffffffffffffffff80841115613ef457613ef4613ec3565b604051601f8501601f19908116603f01168101908282118183101715613f1c57613f1c613ec3565b81604052809350858152868686011115613f3557600080fd5b858560208301376000602087830101525050509392505050565b600082601f830112613f6057600080fd5b6118da83833560208501613ed9565b60008060408385031215613f8257600080fd5b8235613f8d81613deb565b9150602083013567ffffffffffffffff811115613fa957600080fd5b613fb585828601613f4f565b9150509250929050565b60008083601f840112613fd157600080fd5b50813567ffffffffffffffff811115613fe957600080fd5b60208301915083602082850101111561400157600080fd5b9250929050565b6000806000806060858703121561401e57600080fd5b843567ffffffffffffffff81111561403557600080fd5b61404187828801613fbf565b909550935050602085013561405581613deb565b9150604085013561406581613deb565b939692955090935050565b6000806020838503121561408357600080fd5b823567ffffffffffffffff81111561409a57600080fd5b6140a685828601613fbf565b90969095509350505050565b8015158114610dbd57600080fd5b600080604083850312156140d357600080fd5b82356140de81613deb565b91506020830135613eb8816140b2565b60006001600160a01b038086168352808516602084015250606060408301526136b86060830184613d93565b6000806000806080858703121561413057600080fd5b843561413b81613deb565b9350602085013561414b81613deb565b925060408501359150606085013567ffffffffffffffff81111561416e57600080fd5b61417a87828801613f4f565b91505092959194509250565b60006020828403121561419857600080fd5b813567ffffffffffffffff8111156141af57600080fd5b8201601f810184136141c057600080fd5b61187184823560208401613ed9565b600181811c908216806141e357607f821691505b6020821081141561420457634e487b7160e01b600052602260045260246000fd5b50919050565b60006020828403121561421c57600080fd5b81516118da816140b2565b604081528260408201528284606083013760006060848301015260006060601f19601f86011683010190506001600160a01b0383166020830152949350505050565b600060208083526000845481600182811c91508083168061428b57607f831692505b8583108114156142a957634e487b7160e01b85526022600452602485fd5b8786018381526020018180156142c657600181146142d757614302565b60ff19861682528782019650614302565b60008b81526020902060005b868110156142fc578154848201529085019089016142e3565b83019750505b50949998505050505050505050565b60008351614323818460208801613d67565b835190830190614337818360208801613d67565b01949350505050565b634e487b7160e01b600052601160045260246000fd5b60008282101561436857614368614340565b500390565b6000821982111561438057614380614340565b500190565b634e487b7160e01b600052603260045260246000fd5b60006000198214156143af576143af614340565b5060010190565b634e487b7160e01b600052601260045260246000fd5b6000826143db576143db6143b6565b500490565b6000826143ef576143ef6143b6565b500690565b600060ff821660ff84168060ff0382111561441157614411614340565b019392505050565b6000825161442b818460208701613d67565b9190910192915050565b60006001600160a01b038087168352808616602084015250836040830152608060608301526144676080830184613d93565b9695505050505050565b60006020828403121561448357600080fd5b81516118da81613d3456fe416464726573733a206c6f772d6c6576656c2064656c65676174652063616c6c206661696c6564a26469706673582212202558e4db44c7447d64ca92d8c97c6e3dd217bf5c308c0dba4d95cd0c810746c364736f6c634300080c0033",
  "linkReferences": {},
  "deployedLinkReferences": {}
}