{
  "_format": "hh-sol-artifact-1",
  "contractName": "ETSTagUpgrade",
  "sourceName": "contracts/utils/UUPS/UUPSTesting.sol",
  "abi": [
    {
      "anonymous": false,
      "inputs": [
        {
          "indexed": false,
          "internalType": "contract ETSAccessControls",
          "name": "previousAccessControls",
          "type": "address"
        },
        {
          "indexed": false,
          "internalType": "contract ETSAccessControls",
          "name": "newAccessControls",
          "type": "address"
        }
      ],
      "name": "AccessControlsUpdated",
      "type": "event"
    },
    {
      "anonymous": false,
      "inputs": [
        {
          "indexed": false,
          "internalType": "address",
          "name": "previousAdmin",
          "type": "address"
        },
        {
          "indexed": false,
          "internalType": "address",
          "name": "newAdmin",
          "type": "address"
        }
      ],
      "name": "AdminChanged",
      "type": "event"
    },
    {
      "anonymous": false,
      "inputs": [
        {
          "indexed": true,
          "internalType": "address",
          "name": "owner",
          "type": "address"
        },
        {
          "indexed": true,
          "internalType": "address",
          "name": "approved",
          "type": "address"
        },
        {
          "indexed": true,
          "internalType": "uint256",
          "name": "tokenId",
          "type": "uint256"
        }
      ],
      "name": "Approval",
      "type": "event"
    },
    {
      "anonymous": false,
      "inputs": [
        {
          "indexed": true,
          "internalType": "address",
          "name": "owner",
          "type": "address"
        },
        {
          "indexed": true,
          "internalType": "address",
          "name": "operator",
          "type": "address"
        },
        {
          "indexed": false,
          "internalType": "bool",
          "name": "approved",
          "type": "bool"
        }
      ],
      "name": "ApprovalForAll",
      "type": "event"
    },
    {
      "anonymous": false,
      "inputs": [
        {
          "indexed": true,
          "internalType": "address",
          "name": "beacon",
          "type": "address"
        }
      ],
      "name": "BeaconUpgraded",
      "type": "event"
    },
    {
      "anonymous": false,
      "inputs": [
        {
          "indexed": true,
          "internalType": "uint256",
          "name": "tokenId",
          "type": "uint256"
        },
        {
          "indexed": false,
          "internalType": "string",
          "name": "displayVersion",
          "type": "string"
        },
        {
          "indexed": true,
          "internalType": "address",
          "name": "publisher",
          "type": "address"
        },
        {
          "indexed": false,
          "internalType": "address",
          "name": "creator",
          "type": "address"
        }
      ],
      "name": "MintTag",
      "type": "event"
    },
    {
      "anonymous": false,
      "inputs": [
        {
          "indexed": false,
          "internalType": "string",
          "name": "baseURI",
          "type": "string"
        }
      ],
      "name": "NewBaseURI",
      "type": "event"
    },
    {
      "anonymous": false,
      "inputs": [
        {
          "indexed": false,
          "internalType": "uint256",
          "name": "originalOwnershipLength",
          "type": "uint256"
        },
        {
          "indexed": false,
          "internalType": "uint256",
          "name": "updatedOwnershipLength",
          "type": "uint256"
        }
      ],
      "name": "OwnershipTermLengthUpdated",
      "type": "event"
    },
    {
      "anonymous": false,
      "inputs": [
        {
          "indexed": false,
          "internalType": "address",
          "name": "account",
          "type": "address"
        }
      ],
      "name": "Paused",
      "type": "event"
    },
    {
      "anonymous": false,
      "inputs": [
        {
          "indexed": false,
          "internalType": "address",
          "name": "previousPlatformAddress",
          "type": "address"
        },
        {
          "indexed": false,
          "internalType": "address",
          "name": "newPlatformAddress",
          "type": "address"
        }
      ],
      "name": "PlatformSet",
      "type": "event"
    },
    {
      "anonymous": false,
      "inputs": [
        {
          "indexed": false,
          "internalType": "uint256",
          "name": "originalRenewalPeriod",
          "type": "uint256"
        },
        {
          "indexed": false,
          "internalType": "uint256",
          "name": "updatedRenewalPeriod",
          "type": "uint256"
        }
      ],
      "name": "RenewalPeriodUpdated",
      "type": "event"
    },
    {
      "anonymous": false,
      "inputs": [
        {
          "indexed": true,
          "internalType": "uint256",
          "name": "tokenId",
          "type": "uint256"
        }
      ],
      "name": "TagBurned",
      "type": "event"
    },
    {
      "anonymous": false,
      "inputs": [
        {
          "indexed": false,
          "internalType": "uint256",
          "name": "previousMaxStringLength",
          "type": "uint256"
        },
        {
          "indexed": false,
          "internalType": "uint256",
          "name": "newMaxStringLength",
          "type": "uint256"
        }
      ],
      "name": "TagMaxStringLengthUpdated",
      "type": "event"
    },
    {
      "anonymous": false,
      "inputs": [
        {
          "indexed": true,
          "internalType": "uint256",
          "name": "tokenId",
          "type": "uint256"
        },
        {
          "indexed": true,
          "internalType": "address",
          "name": "owner",
          "type": "address"
        }
      ],
      "name": "TagRecycled",
      "type": "event"
    },
    {
      "anonymous": false,
      "inputs": [
        {
          "indexed": true,
          "internalType": "uint256",
          "name": "tokenId",
          "type": "uint256"
        },
        {
          "indexed": true,
          "internalType": "address",
          "name": "caller",
          "type": "address"
        }
      ],
      "name": "TagRenewed",
      "type": "event"
    },
    {
      "anonymous": false,
      "inputs": [
        {
          "indexed": true,
          "internalType": "address",
          "name": "from",
          "type": "address"
        },
        {
          "indexed": true,
          "internalType": "address",
          "name": "to",
          "type": "address"
        },
        {
          "indexed": true,
          "internalType": "uint256",
          "name": "tokenId",
          "type": "uint256"
        }
      ],
      "name": "Transfer",
      "type": "event"
    },
    {
      "anonymous": false,
      "inputs": [
        {
          "indexed": false,
          "internalType": "address",
          "name": "account",
          "type": "address"
        }
      ],
      "name": "Unpaused",
      "type": "event"
    },
    {
      "anonymous": false,
      "inputs": [
        {
          "indexed": true,
          "internalType": "address",
          "name": "implementation",
          "type": "address"
        }
      ],
      "name": "Upgraded",
      "type": "event"
    },
    {
      "inputs": [],
      "name": "NAME",
      "outputs": [
        {
          "internalType": "string",
          "name": "",
          "type": "string"
        }
      ],
      "stateMutability": "view",
      "type": "function"
    },
    {
      "inputs": [],
      "name": "VERSION",
      "outputs": [
        {
          "internalType": "string",
          "name": "",
          "type": "string"
        }
      ],
      "stateMutability": "view",
      "type": "function"
    },
    {
      "inputs": [],
      "name": "accessControls",
      "outputs": [
        {
          "internalType": "contract ETSAccessControls",
          "name": "",
          "type": "address"
        }
      ],
      "stateMutability": "view",
      "type": "function"
    },
    {
      "inputs": [
        {
          "internalType": "address",
          "name": "to",
          "type": "address"
        },
        {
          "internalType": "uint256",
          "name": "tokenId",
          "type": "uint256"
        }
      ],
      "name": "approve",
      "outputs": [],
      "stateMutability": "nonpayable",
      "type": "function"
    },
    {
      "inputs": [
        {
          "internalType": "address",
          "name": "owner",
          "type": "address"
        }
      ],
      "name": "balanceOf",
      "outputs": [
        {
          "internalType": "uint256",
          "name": "",
          "type": "uint256"
        }
      ],
      "stateMutability": "view",
      "type": "function"
    },
    {
      "inputs": [],
      "name": "baseURI",
      "outputs": [
        {
          "internalType": "string",
          "name": "",
          "type": "string"
        }
      ],
      "stateMutability": "view",
      "type": "function"
    },
    {
      "inputs": [
        {
          "internalType": "uint256",
          "name": "tokenId",
          "type": "uint256"
        }
      ],
      "name": "burn",
      "outputs": [],
      "stateMutability": "nonpayable",
      "type": "function"
    },
    {
      "inputs": [
        {
          "internalType": "uint256",
          "name": "tokenId",
          "type": "uint256"
        }
      ],
      "name": "exists",
      "outputs": [
        {
          "internalType": "bool",
          "name": "",
          "type": "bool"
        }
      ],
      "stateMutability": "view",
      "type": "function"
    },
    {
      "inputs": [
        {
          "internalType": "uint256",
          "name": "tokenId",
          "type": "uint256"
        }
      ],
      "name": "getApproved",
      "outputs": [
        {
          "internalType": "address",
          "name": "",
          "type": "address"
        }
      ],
      "stateMutability": "view",
      "type": "function"
    },
    {
      "inputs": [
        {
          "internalType": "uint256",
          "name": "_tokenId",
          "type": "uint256"
        }
      ],
      "name": "getCreatorAddress",
      "outputs": [
        {
          "internalType": "address",
          "name": "_creator",
          "type": "address"
        }
      ],
      "stateMutability": "view",
      "type": "function"
    },
    {
      "inputs": [
        {
          "internalType": "uint256",
          "name": "_tokenId",
          "type": "uint256"
        }
      ],
      "name": "getPaymentAddresses",
      "outputs": [
        {
          "internalType": "address payable",
          "name": "_platform",
          "type": "address"
        },
        {
          "internalType": "address payable",
          "name": "_owner",
          "type": "address"
        }
      ],
      "stateMutability": "view",
      "type": "function"
    },
    {
      "inputs": [
        {
          "internalType": "string",
          "name": "tag",
          "type": "string"
        }
      ],
      "name": "getTagId",
      "outputs": [
        {
          "internalType": "uint256",
          "name": "etstagId",
          "type": "uint256"
        }
      ],
      "stateMutability": "view",
      "type": "function"
    },
    {
      "inputs": [
        {
          "internalType": "contract ETSAccessControls",
          "name": "_accessControls",
          "type": "address"
        },
        {
          "internalType": "address payable",
          "name": "_platform",
          "type": "address"
        }
      ],
      "name": "initialize",
      "outputs": [],
      "stateMutability": "nonpayable",
      "type": "function"
    },
    {
      "inputs": [
        {
          "internalType": "address",
          "name": "owner",
          "type": "address"
        },
        {
          "internalType": "address",
          "name": "operator",
          "type": "address"
        }
      ],
      "name": "isApprovedForAll",
      "outputs": [
        {
          "internalType": "bool",
          "name": "",
          "type": "bool"
        }
      ],
      "stateMutability": "view",
      "type": "function"
    },
    {
      "inputs": [
        {
          "internalType": "string",
          "name": "_tag",
          "type": "string"
        },
        {
          "internalType": "address payable",
          "name": "_publisher",
          "type": "address"
        },
        {
          "internalType": "address",
          "name": "_creator",
          "type": "address"
        }
      ],
      "name": "mint",
      "outputs": [
        {
          "internalType": "uint256",
          "name": "_tokenId",
          "type": "uint256"
        }
      ],
      "stateMutability": "payable",
      "type": "function"
    },
    {
      "inputs": [],
      "name": "name",
      "outputs": [
        {
          "internalType": "string",
          "name": "",
          "type": "string"
        }
      ],
      "stateMutability": "view",
      "type": "function"
    },
    {
      "inputs": [
        {
          "internalType": "uint256",
          "name": "tokenId",
          "type": "uint256"
        }
      ],
      "name": "ownerOf",
      "outputs": [
        {
          "internalType": "address",
          "name": "",
          "type": "address"
        }
      ],
      "stateMutability": "view",
      "type": "function"
    },
    {
      "inputs": [],
      "name": "ownershipTermLength",
      "outputs": [
        {
          "internalType": "uint256",
          "name": "",
          "type": "uint256"
        }
      ],
      "stateMutability": "view",
      "type": "function"
    },
    {
      "inputs": [],
      "name": "pause",
      "outputs": [],
      "stateMutability": "nonpayable",
      "type": "function"
    },
    {
      "inputs": [],
      "name": "paused",
      "outputs": [
        {
          "internalType": "bool",
          "name": "",
          "type": "bool"
        }
      ],
      "stateMutability": "view",
      "type": "function"
    },
    {
      "inputs": [],
      "name": "platform",
      "outputs": [
        {
          "internalType": "address payable",
          "name": "",
          "type": "address"
        }
      ],
      "stateMutability": "view",
      "type": "function"
    },
    {
      "inputs": [
        {
          "internalType": "uint256",
          "name": "_tokenId",
          "type": "uint256"
        }
      ],
      "name": "recycleTag",
      "outputs": [],
      "stateMutability": "nonpayable",
      "type": "function"
    },
    {
      "inputs": [
        {
          "internalType": "uint256",
          "name": "_tokenId",
          "type": "uint256"
        }
      ],
      "name": "renewTag",
      "outputs": [],
      "stateMutability": "nonpayable",
      "type": "function"
    },
    {
      "inputs": [
        {
          "internalType": "address",
          "name": "from",
          "type": "address"
        },
        {
          "internalType": "address",
          "name": "to",
          "type": "address"
        },
        {
          "internalType": "uint256",
          "name": "tokenId",
          "type": "uint256"
        }
      ],
      "name": "safeTransferFrom",
      "outputs": [],
      "stateMutability": "nonpayable",
      "type": "function"
    },
    {
      "inputs": [
        {
          "internalType": "address",
          "name": "from",
          "type": "address"
        },
        {
          "internalType": "address",
          "name": "to",
          "type": "address"
        },
        {
          "internalType": "uint256",
          "name": "tokenId",
          "type": "uint256"
        },
        {
          "internalType": "bytes",
          "name": "_data",
          "type": "bytes"
        }
      ],
      "name": "safeTransferFrom",
      "outputs": [],
      "stateMutability": "nonpayable",
      "type": "function"
    },
    {
      "inputs": [
        {
          "internalType": "address",
          "name": "operator",
          "type": "address"
        },
        {
          "internalType": "bool",
          "name": "approved",
          "type": "bool"
        }
      ],
      "name": "setApprovalForAll",
      "outputs": [],
      "stateMutability": "nonpayable",
      "type": "function"
    },
    {
      "inputs": [
        {
          "internalType": "string",
          "name": "newBaseURI",
          "type": "string"
        }
      ],
      "name": "setBaseURI",
      "outputs": [],
      "stateMutability": "nonpayable",
      "type": "function"
    },
    {
      "inputs": [
        {
          "internalType": "uint256",
          "name": "_ownershipTermLength",
          "type": "uint256"
        }
      ],
      "name": "setOwnershipTermLength",
      "outputs": [],
      "stateMutability": "nonpayable",
      "type": "function"
    },
    {
      "inputs": [
        {
          "internalType": "address payable",
          "name": "_platform",
          "type": "address"
        }
      ],
      "name": "setPlatform",
      "outputs": [],
      "stateMutability": "nonpayable",
      "type": "function"
    },
    {
      "inputs": [
        {
          "internalType": "uint256",
          "name": "_tagMaxStringLength",
          "type": "uint256"
        }
      ],
      "name": "setTagMaxStringLength",
      "outputs": [],
      "stateMutability": "nonpayable",
      "type": "function"
    },
    {
      "inputs": [
        {
          "internalType": "bytes4",
          "name": "interfaceId",
          "type": "bytes4"
        }
      ],
      "name": "supportsInterface",
      "outputs": [
        {
          "internalType": "bool",
          "name": "",
          "type": "bool"
        }
      ],
      "stateMutability": "view",
      "type": "function"
    },
    {
      "inputs": [],
      "name": "symbol",
      "outputs": [
        {
          "internalType": "string",
          "name": "",
          "type": "string"
        }
      ],
      "stateMutability": "view",
      "type": "function"
    },
    {
      "inputs": [],
      "name": "tagMaxStringLength",
      "outputs": [
        {
          "internalType": "uint256",
          "name": "",
          "type": "uint256"
        }
      ],
      "stateMutability": "view",
      "type": "function"
    },
    {
      "inputs": [],
      "name": "tagMinStringLength",
      "outputs": [
        {
          "internalType": "uint256",
          "name": "",
          "type": "uint256"
        }
      ],
      "stateMutability": "view",
      "type": "function"
    },
    {
      "inputs": [
        {
          "internalType": "string",
          "name": "",
          "type": "string"
        }
      ],
      "name": "tagToTokenId",
      "outputs": [
        {
          "internalType": "uint256",
          "name": "",
          "type": "uint256"
        }
      ],
      "stateMutability": "view",
      "type": "function"
    },
    {
      "inputs": [
        {
          "internalType": "uint256",
          "name": "",
          "type": "uint256"
        }
      ],
      "name": "tokenIdToLastTransferTime",
      "outputs": [
        {
          "internalType": "uint256",
          "name": "",
          "type": "uint256"
        }
      ],
      "stateMutability": "view",
      "type": "function"
    },
    {
      "inputs": [
        {
          "internalType": "uint256",
          "name": "",
          "type": "uint256"
        }
      ],
      "name": "tokenIdToTag",
      "outputs": [
        {
          "internalType": "address",
          "name": "originalPublisher",
          "type": "address"
        },
        {
          "internalType": "address",
          "name": "creator",
          "type": "address"
        },
        {
          "internalType": "string",
          "name": "displayVersion",
          "type": "string"
        },
        {
          "internalType": "string",
          "name": "machineName",
          "type": "string"
        }
      ],
      "stateMutability": "view",
      "type": "function"
    },
    {
      "inputs": [],
      "name": "tokenPointer",
      "outputs": [
        {
          "internalType": "uint256",
          "name": "",
          "type": "uint256"
        }
      ],
      "stateMutability": "view",
      "type": "function"
    },
    {
      "inputs": [
        {
          "internalType": "uint256",
          "name": "tokenId",
          "type": "uint256"
        }
      ],
      "name": "tokenURI",
      "outputs": [
        {
          "internalType": "string",
          "name": "",
          "type": "string"
        }
      ],
      "stateMutability": "view",
      "type": "function"
    },
    {
      "inputs": [
        {
          "internalType": "address",
          "name": "from",
          "type": "address"
        },
        {
          "internalType": "address",
          "name": "to",
          "type": "address"
        },
        {
          "internalType": "uint256",
          "name": "tokenId",
          "type": "uint256"
        }
      ],
      "name": "transferFrom",
      "outputs": [],
      "stateMutability": "nonpayable",
      "type": "function"
    },
    {
      "inputs": [],
      "name": "unPause",
      "outputs": [],
      "stateMutability": "nonpayable",
      "type": "function"
    },
    {
      "inputs": [
        {
          "internalType": "contract ETSAccessControls",
          "name": "_accessControls",
          "type": "address"
        }
      ],
      "name": "updateAccessControls",
      "outputs": [],
      "stateMutability": "nonpayable",
      "type": "function"
    },
    {
      "inputs": [],
      "name": "upgradeTest",
      "outputs": [
        {
          "internalType": "bool",
          "name": "",
          "type": "bool"
        }
      ],
      "stateMutability": "pure",
      "type": "function"
    },
    {
      "inputs": [
        {
          "internalType": "address",
          "name": "newImplementation",
          "type": "address"
        }
      ],
      "name": "upgradeTo",
      "outputs": [],
      "stateMutability": "nonpayable",
      "type": "function"
    },
    {
      "inputs": [
        {
          "internalType": "address",
          "name": "newImplementation",
          "type": "address"
        },
        {
          "internalType": "bytes",
          "name": "data",
          "type": "bytes"
        }
      ],
      "name": "upgradeToAndCall",
      "outputs": [],
      "stateMutability": "payable",
      "type": "function"
    },
    {
      "inputs": [],
      "name": "version",
      "outputs": [
        {
          "internalType": "string",
          "name": "",
          "type": "string"
        }
      ],
      "stateMutability": "pure",
      "type": "function"
    }
  ],
  "bytecode": "0x60a06040523060601b60805234801561001757600080fd5b5060805160601c61469e61004b60003960008181610dfc01528181610e81015281816113010152611386015261469e6000f3fe6080604052600436106102fd5760003560e01c80636ef3da941161018f578063a3f4df7e116100e1578063db7af5fb1161008a578063f66e762311610064578063f66e762314610901578063f7b188a514610921578063ffa1ad741461093657600080fd5b8063db7af5fb14610881578063e8d3e4b614610898578063e985e9c5146108b857600080fd5b8063b88d4fde116100bb578063b88d4fde14610821578063c157daea14610841578063c87b56dd1461086157600080fd5b8063a3f4df7e14610791578063ad014a5b146107da578063adf63cd21461080a57600080fd5b80638456cb591161014357806395d89b411161011d57806395d89b4114610722578063a22cb46514610737578063a30b4db91461075757600080fd5b80638456cb591461069f578063878327ab146106b457806390b467ea146106f457600080fd5b8063748365ef11610174578063748365ef146106325780637e3bd74b146106535780637e6d945e1461068c57600080fd5b80636ef3da94146105f257806370a082311461061257600080fd5b806342842e0e1161025357806354fd4d50116101fc5780636352211e116101d65780636352211e1461059d5780636945c5ea146105bd5780636c0360eb146105dd57600080fd5b806354fd4d501461053757806355f804b3146105655780635c975abb1461058557600080fd5b80634bde38c81161022d5780634bde38c8146104e35780634f1ef286146105045780634f558e791461051757600080fd5b806342842e0e1461048357806342966c68146104a3578063485cc955146104c357600080fd5b8063081812fc116102b55780632e6116301161028f5780632e611630146104385780633659cfe61461044f5780633d20b15c1461046f57600080fd5b8063081812fc146103c0578063095ea7b3146103f857806323b872dd1461041857600080fd5b806304befefd116102e657806304befefd1461035c578063060defec1461037c57806306fdde031461039e57600080fd5b806301ffc9a7146103025780630283165114610337575b600080fd5b34801561030e57600080fd5b5061032261031d366004614173565b610967565b60405190151581526020015b60405180910390f35b34801561034357600080fd5b5061034e6101935481565b60405190815260200161032e565b34801561036857600080fd5b5061034e6103773660046141ad565b610978565b34801561038857600080fd5b5061039c6103973660046142a0565b6109e0565b005b3480156103aa57600080fd5b506103b3610b10565b60405161032e91906143f7565b3480156103cc57600080fd5b506103e06103db3660046142a0565b610ba2565b6040516001600160a01b03909116815260200161032e565b34801561040457600080fd5b5061039c61041336600461412a565b610c37565b34801561042457600080fd5b5061039c610433366004613fff565b610d69565b34801561044457600080fd5b5061034e6101955481565b34801561045b57600080fd5b5061039c61046a366004613fa9565b610df1565b34801561047b57600080fd5b506001610322565b34801561048f57600080fd5b5061039c61049e366004613fff565b610f6d565b3480156104af57600080fd5b5061039c6104be3660046142a0565b610f88565b3480156104cf57600080fd5b5061039c6104de366004613fc6565b61111e565b3480156104ef57600080fd5b50610196546103e0906001600160a01b031681565b61039c6105123660046140da565b6112f6565b34801561052357600080fd5b506103226105323660046142a0565b611463565b34801561054357600080fd5b506040805180820190915260058152640302e322e360dc1b60208201526103b3565b34801561057157600080fd5b5061039c6105803660046141ad565b611482565b34801561059157600080fd5b5060975460ff16610322565b3480156105a957600080fd5b506103e06105b83660046142a0565b6115a5565b3480156105c957600080fd5b5061039c6105d8366004613fa9565b611630565b3480156105e957600080fd5b506103b361176f565b3480156105fe57600080fd5b5061039c61060d366004613fa9565b6117fe565b34801561061e57600080fd5b5061034e61062d366004613fa9565b6119b9565b34801561063e57600080fd5b50610197546103e0906001600160a01b031681565b34801561065f57600080fd5b5061034e61066e366004614257565b80516020818301810180516101998252928201919093012091525481565b61034e61069a3660046141ef565b611a53565b3480156106ab57600080fd5b5061039c611d25565b3480156106c057600080fd5b506106d46106cf3660046142a0565b611e13565b604080516001600160a01b0393841681529290911660208301520161032e565b34801561070057600080fd5b5061034e61070f3660046142a0565b61019a6020526000908152604090205481565b34801561072e57600080fd5b506103b3611e37565b34801561074357600080fd5b5061039c6107523660046140ac565b611e46565b34801561076357600080fd5b506103e06107723660046142a0565b600090815261019860205260409020600101546001600160a01b031690565b34801561079d57600080fd5b506103b36040518060400160405280600c81526020017f45545354414720546f6b656e000000000000000000000000000000000000000081525081565b3480156107e657600080fd5b506107fa6107f53660046142a0565b611e51565b60405161032e9493929190614330565b34801561081657600080fd5b5061034e6101945481565b34801561082d57600080fd5b5061039c61083c366004614040565b611f98565b34801561084d57600080fd5b5061039c61085c3660046142a0565b612026565b34801561086d57600080fd5b506103b361087c3660046142a0565b6120ce565b34801561088d57600080fd5b5061034e6101925481565b3480156108a457600080fd5b5061039c6108b33660046142a0565b6121b7565b3480156108c457600080fd5b506103226108d3366004613fc6565b6001600160a01b039182166000908152606a6020908152604080832093909416825291909152205460ff1690565b34801561090d57600080fd5b5061039c61091c3660046142a0565b612392565b34801561092d57600080fd5b5061039c6124b5565b34801561094257600080fd5b506103b3604051806040016040528060058152602001640302e322e360dc1b81525081565b6000610972826125a1565b92915050565b60006101996109bc84848080601f01602080910402602001604051908101604052809392919081815260200183838082843760009201919091525061263c92505050565b6040516109c991906142e5565b908152602001604051809103902054905092915050565b610197546001600160a01b03166324d7806c336040516001600160e01b031960e084901b1681526001600160a01b03909116600482015260240160206040518083038186803b158015610a3257600080fd5b505afa158015610a46573d6000803e3d6000fd5b505050506040513d601f19601f82011682018060405250810190610a6a9190614156565b610ac95760405162461bcd60e51b815260206004820152602560248201527f43616c6c6572206d75737420686176652061646d696e6973747261746f722061604482015264636365737360d81b60648201526084015b60405180910390fd5b61019580549082905560408051828152602081018490527f3bcd7d0ed4502e81afe37fd199a6a8e34e8d351fdafd54d97726970c18fdcd2b91015b60405180910390a15050565b606060658054610b1f90614546565b80601f0160208091040260200160405190810160405280929190818152602001828054610b4b90614546565b8015610b985780601f10610b6d57610100808354040283529160200191610b98565b820191906000526020600020905b815481529060010190602001808311610b7b57829003601f168201915b5050505050905090565b6000818152606760205260408120546001600160a01b0316610c1b5760405162461bcd60e51b815260206004820152602c60248201527f4552433732313a20617070726f76656420717565727920666f72206e6f6e657860448201526b34b9ba32b73a103a37b5b2b760a11b6064820152608401610ac0565b506000908152606960205260409020546001600160a01b031690565b6000610c42826115a5565b9050806001600160a01b0316836001600160a01b03161415610ccc5760405162461bcd60e51b815260206004820152602160248201527f4552433732313a20617070726f76616c20746f2063757272656e74206f776e6560448201527f72000000000000000000000000000000000000000000000000000000000000006064820152608401610ac0565b336001600160a01b0382161480610ce85750610ce881336108d3565b610d5a5760405162461bcd60e51b815260206004820152603860248201527f4552433732313a20617070726f76652063616c6c6572206973206e6f74206f7760448201527f6e6572206e6f7220617070726f76656420666f7220616c6c00000000000000006064820152608401610ac0565b610d6483836127b3565b505050565b610d74335b82612821565b610de65760405162461bcd60e51b815260206004820152603160248201527f4552433732313a207472616e736665722063616c6c6572206973206e6f74206f60448201527f776e6572206e6f7220617070726f7665640000000000000000000000000000006064820152608401610ac0565b610d64838383612914565b306001600160a01b037f0000000000000000000000000000000000000000000000000000000000000000161415610e7f5760405162461bcd60e51b815260206004820152602c60248201527f46756e6374696f6e206d7573742062652063616c6c6564207468726f7567682060448201526b19195b1959d85d1958d85b1b60a21b6064820152608401610ac0565b7f00000000000000000000000000000000000000000000000000000000000000006001600160a01b0316610eda7f360894a13ba1a3210667c828492db98dca3e2076cc3735a920a3ca505d382bbc546001600160a01b031690565b6001600160a01b031614610f455760405162461bcd60e51b815260206004820152602c60248201527f46756e6374696f6e206d7573742062652063616c6c6564207468726f7567682060448201526b6163746976652070726f787960a01b6064820152608401610ac0565b610f4e81612aec565b60408051600080825260208201909252610f6a91839190612bd0565b50565b610d6483838360405180602001604052806000815250611f98565b610197546001600160a01b03166324d7806c336040516001600160e01b031960e084901b1681526001600160a01b03909116600482015260240160206040518083038186803b158015610fda57600080fd5b505afa158015610fee573d6000803e3d6000fd5b505050506040513d601f19601f820116820180604052508101906110129190614156565b61106c5760405162461bcd60e51b815260206004820152602560248201527f43616c6c6572206d75737420686176652061646d696e6973747261746f722061604482015264636365737360d81b6064820152608401610ac0565b61107533610d6e565b6110e75760405162461bcd60e51b815260206004820152603060248201527f4552433732314275726e61626c653a2063616c6c6572206973206e6f74206f7760448201527f6e6572206e6f7220617070726f766564000000000000000000000000000000006064820152608401610ac0565b6110f081612d94565b60405181907f7f928e3c53f35086b51ff7b9bfd4651b14e8b9ccb0535aa4a085fb2881785b8290600090a250565b600054610100900460ff166111395760005460ff161561113d565b303b155b6111af5760405162461bcd60e51b815260206004820152602e60248201527f496e697469616c697a61626c653a20636f6e747261637420697320616c72656160448201527f647920696e697469616c697a65640000000000000000000000000000000000006064820152608401610ac0565b600054610100900460ff161580156111d1576000805461ffff19166101011790555b6112456040518060400160405280601481526020017f457468657265756d2054616720536572766963650000000000000000000000008152506040518060400160405280600681526020017f4554535441470000000000000000000000000000000000000000000000000000815250612e3b565b61124d612ec0565b611255612f4b565b61019780546001600160a01b038086166001600160a01b0319928316179092556101968054928516929091169190911790556303c26700610192556040805180820190915260208082527f68747470733a2f2f6170692e686173687461672d70726f746f636f6c2e696f2f9181019182526112d39161019191613dbd565b506001610194556020610195558015610d64576000805461ff0019169055505050565b306001600160a01b037f00000000000000000000000000000000000000000000000000000000000000001614156113845760405162461bcd60e51b815260206004820152602c60248201527f46756e6374696f6e206d7573742062652063616c6c6564207468726f7567682060448201526b19195b1959d85d1958d85b1b60a21b6064820152608401610ac0565b7f00000000000000000000000000000000000000000000000000000000000000006001600160a01b03166113df7f360894a13ba1a3210667c828492db98dca3e2076cc3735a920a3ca505d382bbc546001600160a01b031690565b6001600160a01b03161461144a5760405162461bcd60e51b815260206004820152602c60248201527f46756e6374696f6e206d7573742062652063616c6c6564207468726f7567682060448201526b6163746976652070726f787960a01b6064820152608401610ac0565b61145382612aec565b61145f82826001612bd0565b5050565b6000818152606760205260408120546001600160a01b03161515610972565b610197546001600160a01b03166324d7806c336040516001600160e01b031960e084901b1681526001600160a01b03909116600482015260240160206040518083038186803b1580156114d457600080fd5b505afa1580156114e8573d6000803e3d6000fd5b505050506040513d601f19601f8201168201806040525081019061150c9190614156565b6115665760405162461bcd60e51b815260206004820152602560248201527f43616c6c6572206d75737420686176652061646d696e6973747261746f722061604482015264636365737360d81b6064820152608401610ac0565b6115736101918383613e41565b507f325d37e8fb549c86966f09bc3e6f62eb3afa93b255d6e3234338001f3d80bd86610191604051610b04919061440a565b6000818152606760205260408120546001600160a01b0316806109725760405162461bcd60e51b815260206004820152602960248201527f4552433732313a206f776e657220717565727920666f72206e6f6e657869737460448201527f656e7420746f6b656e00000000000000000000000000000000000000000000006064820152608401610ac0565b610197546001600160a01b03166324d7806c336040516001600160e01b031960e084901b1681526001600160a01b03909116600482015260240160206040518083038186803b15801561168257600080fd5b505afa158015611696573d6000803e3d6000fd5b505050506040513d601f19601f820116820180604052508101906116ba9190614156565b6117145760405162461bcd60e51b815260206004820152602560248201527f43616c6c6572206d75737420686176652061646d696e6973747261746f722061604482015264636365737360d81b6064820152608401610ac0565b61019680546001600160a01b038381166001600160a01b031983168117909355604080519190921680825260208201939093527f0e8ce4b57fd24de168e9c8d76109cb59a7852e78b3575da1ba2077dd53d330ec9101610b04565b610191805461177d90614546565b80601f01602080910402602001604051908101604052809291908181526020018280546117a990614546565b80156117f65780601f106117cb576101008083540402835291602001916117f6565b820191906000526020600020905b8154815290600101906020018083116117d957829003601f168201915b505050505081565b610197546001600160a01b03166324d7806c336040516001600160e01b031960e084901b1681526001600160a01b03909116600482015260240160206040518083038186803b15801561185057600080fd5b505afa158015611864573d6000803e3d6000fd5b505050506040513d601f19601f820116820180604052508101906118889190614156565b6118e25760405162461bcd60e51b815260206004820152602560248201527f43616c6c6572206d75737420686176652061646d696e6973747261746f722061604482015264636365737360d81b6064820152608401610ac0565b6001600160a01b03811661195e5760405162461bcd60e51b815260206004820152602b60248201527f4554535461672e757064617465416363657373436f6e74726f6c733a2043616e60448201527f6e6f74206265207a65726f0000000000000000000000000000000000000000006064820152608401610ac0565b61019780546001600160a01b038381166001600160a01b031983168117909355604080519190921680825260208201939093527f31073599bfae2533a348dc816b0ce777b707aa9b67015ca2d86585e842b5c6e99101610b04565b60006001600160a01b038216611a375760405162461bcd60e51b815260206004820152602a60248201527f4552433732313a2062616c616e636520717565727920666f7220746865207a6560448201527f726f2061646472657373000000000000000000000000000000000000000000006064820152608401610ac0565b506001600160a01b031660009081526068602052604090205490565b610197546040517f41859ac80000000000000000000000000000000000000000000000000000000081526001600160a01b03848116600483015260009216906341859ac89060240160206040518083038186803b158015611ab357600080fd5b505afa158015611ac7573d6000803e3d6000fd5b505050506040513d601f19601f82011682018060405250810190611aeb9190614156565b611b5d5760405162461bcd60e51b815260206004820152602760248201527f4d696e743a20546865207075626c6973686572206d757374206265207768697460448201527f656c6973746564000000000000000000000000000000000000000000000000006064820152608401610ac0565b6000611b9e86868080601f016020809104026020016040519081016040528093929190818152602001838380828437600092019190915250612fc692505050565b61019354909150611bb0906001613244565b61019381905561019654611bcd906001600160a01b031682613250565b6040518060800160405280866001600160a01b03168152602001856001600160a01b0316815260200188888080601f016020809104026020016040519081016040528093929190818152602001838380828437600092018290525093855250505060209182018590528381526101988252604090819020835181546001600160a01b039182166001600160a01b0319918216178355858501516001840180549190931691161790559083015180519192611c8f92600285019290910190613dbd565b5060608201518051611cab916003840191602090910190613dbd565b509050508061019983604051611cc191906142e5565b908152602001604051809103902081905550846001600160a01b0316817f85d182e335717d2d833be448c2f6a5864b8514dfeb8cda8f0fbac14f5157f0be898988604051611d11939291906143b5565b60405180910390a39150505b949350505050565b610197546001600160a01b03166324d7806c336040516001600160e01b031960e084901b1681526001600160a01b03909116600482015260240160206040518083038186803b158015611d7757600080fd5b505afa158015611d8b573d6000803e3d6000fd5b505050506040513d601f19601f82011682018060405250810190611daf9190614156565b611e095760405162461bcd60e51b815260206004820152602560248201527f43616c6c6572206d75737420686176652061646d696e6973747261746f722061604482015264636365737360d81b6064820152608401610ac0565b611e1161326a565b565b6101965460009081906001600160a01b0316611e2e846115a5565b91509150915091565b606060668054610b1f90614546565b61145f33838361330f565b610198602052600090815260409020805460018201546002830180546001600160a01b03938416949290931692611e8790614546565b80601f0160208091040260200160405190810160405280929190818152602001828054611eb390614546565b8015611f005780601f10611ed557610100808354040283529160200191611f00565b820191906000526020600020905b815481529060010190602001808311611ee357829003601f168201915b505050505090806003018054611f1590614546565b80601f0160208091040260200160405190810160405280929190818152602001828054611f4190614546565b8015611f8e5780601f10611f6357610100808354040283529160200191611f8e565b820191906000526020600020905b815481529060010190602001808311611f7157829003601f168201915b5050505050905084565b611fa23383612821565b6120145760405162461bcd60e51b815260206004820152603160248201527f4552433732313a207472616e736665722063616c6c6572206973206e6f74206f60448201527f776e6572206e6f7220617070726f7665640000000000000000000000000000006064820152608401610ac0565b612020848484846133de565b50505050565b61202f816115a5565b6001600160a01b0316336001600160a01b03161461208f5760405162461bcd60e51b815260206004820152601860248201527f72656e65775461673a20496e76616c69642073656e64657200000000000000006044820152606401610ac0565b600081815261019a602052604080822042905551339183917faa0c0591942aff60e66bde156168c9a47ef843534b433bbaa33e62d1410f4f2c9190a350565b6000818152606760205260409020546060906001600160a01b031661215b5760405162461bcd60e51b815260206004820152602f60248201527f4552433732314d657461646174613a2055524920717565727920666f72206e6f60448201527f6e6578697374656e7420746f6b656e00000000000000000000000000000000006064820152608401610ac0565b600061216561345c565b9050600081511161218557604051806020016040528060008152506121b0565b8061218f8461346c565b6040516020016121a0929190614301565b6040516020818303038152906040525b9392505050565b6000818152606760205260409020546001600160a01b031661221b5760405162461bcd60e51b815260206004820152601c60248201527f72656379636c655461673a20496e76616c696420746f6b656e204944000000006044820152606401610ac0565b610196546001600160a01b0316612231826115a5565b6001600160a01b031614156122ae5760405162461bcd60e51b815260206004820152602d60248201527f72656379636c655461673a2054616720616c7265616479206f776e656420627960448201527f2074686520706c6174666f726d000000000000000000000000000000000000006064820152608401610ac0565b600081815261019a60205260409020546101925442906122cf908390613244565b106123425760405162461bcd60e51b815260206004820152603060248201527f72656379636c655461673a20546f6b656e206e6f7420656c696769626c65206660448201527f6f722072656379636c696e6720796574000000000000000000000000000000006064820152608401610ac0565b61236161234e836115a5565b610196546001600160a01b031684612914565b604051339083907f0f842a1659c86d6e422461459fb2ab6fa8af886fd1cf9978a73dd299f23ccc7a90600090a35050565b610197546001600160a01b03166324d7806c336040516001600160e01b031960e084901b1681526001600160a01b03909116600482015260240160206040518083038186803b1580156123e457600080fd5b505afa1580156123f8573d6000803e3d6000fd5b505050506040513d601f19601f8201168201806040525081019061241c9190614156565b6124765760405162461bcd60e51b815260206004820152602560248201527f43616c6c6572206d75737420686176652061646d696e6973747261746f722061604482015264636365737360d81b6064820152608401610ac0565b61019280549082905560408051828152602081018490527f7550fd28481dfa2a7590562881c3fffa398e97624ad6eeae494cf36c51e2a9069101610b04565b610197546001600160a01b03166324d7806c336040516001600160e01b031960e084901b1681526001600160a01b03909116600482015260240160206040518083038186803b15801561250757600080fd5b505afa15801561251b573d6000803e3d6000fd5b505050506040513d601f19601f8201168201806040525081019061253f9190614156565b6125995760405162461bcd60e51b815260206004820152602560248201527f43616c6c6572206d75737420686176652061646d696e6973747261746f722061604482015264636365737360d81b6064820152608401610ac0565b611e11613586565b60006001600160e01b031982167f80ac58cd00000000000000000000000000000000000000000000000000000000148061260457506001600160e01b031982167f5b5e139f00000000000000000000000000000000000000000000000000000000145b8061097257507f01ffc9a7000000000000000000000000000000000000000000000000000000006001600160e01b0319831614610972565b606060008290506000815167ffffffffffffffff81111561265f5761265f6145f2565b6040519080825280601f01601f191660200182016040528015612689576020820181803683370190505b50905060005b82518110156127ab57604160f81b8382815181106126af576126af6145dc565b01602001516001600160f81b031916108015906126f05750605a60f81b8382815181106126de576126de6145dc565b01602001516001600160f81b03191611155b1561275257828181518110612707576127076145dc565b602001015160f81c60f81b60f81c602061272191906144ca565b60f81b828281518110612736576127366145dc565b60200101906001600160f81b031916908160001a905350612799565b828181518110612764576127646145dc565b602001015160f81c60f81b828281518110612781576127816145dc565b60200101906001600160f81b031916908160001a9053505b806127a381614581565b91505061268f565b509392505050565b600081815260696020526040902080546001600160a01b0319166001600160a01b03841690811790915581906127e8826115a5565b6001600160a01b03167f8c5be1e5ebec7d5bd14f71427d1e84f3dd0314c0f7b2291e5b200ac8c7c3b92560405160405180910390a45050565b6000818152606760205260408120546001600160a01b031661289a5760405162461bcd60e51b815260206004820152602c60248201527f4552433732313a206f70657261746f7220717565727920666f72206e6f6e657860448201526b34b9ba32b73a103a37b5b2b760a11b6064820152608401610ac0565b60006128a5836115a5565b9050806001600160a01b0316846001600160a01b031614806128e05750836001600160a01b03166128d584610ba2565b6001600160a01b0316145b80611d1d57506001600160a01b038082166000908152606a602090815260408083209388168352929052205460ff16611d1d565b826001600160a01b0316612927826115a5565b6001600160a01b0316146129a35760405162461bcd60e51b815260206004820152602960248201527f4552433732313a207472616e73666572206f6620746f6b656e2074686174206960448201527f73206e6f74206f776e00000000000000000000000000000000000000000000006064820152608401610ac0565b6001600160a01b038216612a1e5760405162461bcd60e51b8152602060048201526024808201527f4552433732313a207472616e7366657220746f20746865207a65726f2061646460448201527f72657373000000000000000000000000000000000000000000000000000000006064820152608401610ac0565b612a29838383613609565b612a346000826127b3565b6001600160a01b0383166000908152606860205260408120805460019290612a5d908490614503565b90915550506001600160a01b0382166000908152606860205260408120805460019290612a8b9084906144b2565b909155505060008181526067602052604080822080546001600160a01b0319166001600160a01b0386811691821790925591518493918716917fddf252ad1be2c89b69c2b068fc378daa952ba7f163c4a11628f55a4df523b3ef91a4505050565b610197546001600160a01b03166324d7806c336040516001600160e01b031960e084901b1681526001600160a01b03909116600482015260240160206040518083038186803b158015612b3e57600080fd5b505afa158015612b52573d6000803e3d6000fd5b505050506040513d601f19601f82011682018060405250810190612b769190614156565b610f6a5760405162461bcd60e51b815260206004820152602560248201527f43616c6c6572206d75737420686176652061646d696e6973747261746f722061604482015264636365737360d81b6064820152608401610ac0565b6000612c037f360894a13ba1a3210667c828492db98dca3e2076cc3735a920a3ca505d382bbc546001600160a01b031690565b9050612c0e84613691565b600083511180612c1b5750815b15612c2c57612c2a8484613746565b505b7f4910fdfa16fed3260ed0e7147f7cc6da11a60208b5b9406d12a635614ffd9143805460ff16612d8d57805460ff191660011781556040516001600160a01b0383166024820152612cd990869060440160408051601f198184030181529190526020810180517bffffffffffffffffffffffffffffffffffffffffffffffffffffffff167f3659cfe600000000000000000000000000000000000000000000000000000000179052613746565b50805460ff191681557f360894a13ba1a3210667c828492db98dca3e2076cc3735a920a3ca505d382bbc546001600160a01b03838116911614612d845760405162461bcd60e51b815260206004820152602f60248201527f45524331393637557067726164653a207570677261646520627265616b73206660448201527f75727468657220757067726164657300000000000000000000000000000000006064820152608401610ac0565b612d8d85613848565b5050505050565b6000612d9f826115a5565b9050612dad81600084613609565b612db86000836127b3565b6001600160a01b0381166000908152606860205260408120805460019290612de1908490614503565b909155505060008281526067602052604080822080546001600160a01b0319169055518391906001600160a01b038416907fddf252ad1be2c89b69c2b068fc378daa952ba7f163c4a11628f55a4df523b3ef908390a45050565b600054610100900460ff16612ea65760405162461bcd60e51b815260206004820152602b60248201527f496e697469616c697a61626c653a20636f6e7472616374206973206e6f74206960448201526a6e697469616c697a696e6760a81b6064820152608401610ac0565b612eae613888565b612eb6613888565b61145f82826138f3565b600054610100900460ff16612f2b5760405162461bcd60e51b815260206004820152602b60248201527f496e697469616c697a61626c653a20636f6e7472616374206973206e6f74206960448201526a6e697469616c697a696e6760a81b6064820152608401610ac0565b612f33613888565b612f3b613888565b612f43613985565b611e11613888565b600054610100900460ff16612fb65760405162461bcd60e51b815260206004820152602b60248201527f496e697469616c697a61626c653a20636f6e7472616374206973206e6f74206960448201526a6e697469616c697a696e6760a81b6064820152608401610ac0565b612fbe613888565b612f43613888565b60606000612fd38361263c565b905061019981604051612fe691906142e5565b9081526020016040518091039020546000146130445760405162461bcd60e51b815260206004820152601c60248201527f4552433732313a20746f6b656e20616c7265616479206d696e746564000000006044820152606401610ac0565b61019454835184911180159061305e575061019554815111155b6130d05760405162461bcd60e51b815260206004820152603d60248201527f496e76616c696420666f726d61743a2074616720646f6573206e6f74206d656560448201527f74206d696e2f6d6178206c656e67746820726571756972656d656e74730000006064820152608401610ac0565b806000815181106130e3576130e36145dc565b6020910101516001600160f81b0319167f2300000000000000000000000000000000000000000000000000000000000000146131615760405162461bcd60e51b815260206004820152601560248201527f546167206d7573742073746172742077697468202300000000000000000000006044820152606401610ac0565b60015b815181101561323b576000828281518110613181576131816145dc565b01602001516001600160f81b03191690507f20000000000000000000000000000000000000000000000000000000000000008114156132285760405162461bcd60e51b815260206004820152602760248201527f537061636520666f756e643a20746167206d6179206e6f7420636f6e7461696e60448201527f20737061636573000000000000000000000000000000000000000000000000006064820152608401610ac0565b508061323381614581565b915050613164565b50909392505050565b60006121b082846144b2565b61145f8282604051806020016040528060008152506139fc565b60975460ff16156132bd5760405162461bcd60e51b815260206004820152601060248201527f5061757361626c653a20706175736564000000000000000000000000000000006044820152606401610ac0565b6097805460ff191660011790557f62e78cea01bee320cd4e420270b5ea74000d11b0c9f74754ebdbfc544b05a2586132f23390565b6040516001600160a01b03909116815260200160405180910390a1565b816001600160a01b0316836001600160a01b031614156133715760405162461bcd60e51b815260206004820152601960248201527f4552433732313a20617070726f766520746f2063616c6c6572000000000000006044820152606401610ac0565b6001600160a01b038381166000818152606a6020908152604080832094871680845294825291829020805460ff191686151590811790915591519182527f17307eab39ab6107e8899845ad3d59bd9653f200f220920489ca2b5937696c31910160405180910390a3505050565b6133e9848484612914565b6133f584848484613a7a565b6120205760405162461bcd60e51b815260206004820152603260248201527f4552433732313a207472616e7366657220746f206e6f6e20455243373231526560448201527131b2b4bb32b91034b6b83632b6b2b73a32b960711b6064820152608401610ac0565b60606101918054610b1f90614546565b6060816134ac57505060408051808201909152600181527f3000000000000000000000000000000000000000000000000000000000000000602082015290565b8160005b81156134d657806134c081614581565b91506134cf9050600a836144ef565b91506134b0565b60008167ffffffffffffffff8111156134f1576134f16145f2565b6040519080825280601f01601f19166020018201604052801561351b576020820181803683370190505b5090505b8415611d1d57613530600183614503565b915061353d600a8661459c565b6135489060306144b2565b60f81b81838151811061355d5761355d6145dc565b60200101906001600160f81b031916908160001a90535061357f600a866144ef565b945061351f565b60975460ff166135d85760405162461bcd60e51b815260206004820152601460248201527f5061757361626c653a206e6f74207061757365640000000000000000000000006044820152606401610ac0565b6097805460ff191690557f5db9ee0a495bf2e6ff9c91a7834c1ba4fdd244a5e8aa4e537bd38aeae4b073aa336132f2565b613614838383613bcf565b60975460ff161561367b5760405162461bcd60e51b815260206004820152602b60248201527f4552433732315061757361626c653a20746f6b656e207472616e73666572207760448201526a1a1a5b19481c185d5cd95960aa1b6064820152608401610ac0565b600090815261019a602052604090204290555050565b803b6137055760405162461bcd60e51b815260206004820152602d60248201527f455243313936373a206e657720696d706c656d656e746174696f6e206973206e60448201527f6f74206120636f6e7472616374000000000000000000000000000000000000006064820152608401610ac0565b7f360894a13ba1a3210667c828492db98dca3e2076cc3735a920a3ca505d382bbc80546001600160a01b0319166001600160a01b0392909216919091179055565b6060823b6137bc5760405162461bcd60e51b815260206004820152602660248201527f416464726573733a2064656c65676174652063616c6c20746f206e6f6e2d636f60448201527f6e747261637400000000000000000000000000000000000000000000000000006064820152608401610ac0565b600080846001600160a01b0316846040516137d791906142e5565b600060405180830381855af49150503d8060008114613812576040519150601f19603f3d011682016040523d82523d6000602084013e613817565b606091505b509150915061383f828260405180606001604052806027815260200161464260279139613c36565b95945050505050565b61385181613691565b6040516001600160a01b038216907fbc7cd75a20ee27fd9adebab32041f755214dbc6bffa90cc0225b39da2e5c2d3b90600090a250565b600054610100900460ff16611e115760405162461bcd60e51b815260206004820152602b60248201527f496e697469616c697a61626c653a20636f6e7472616374206973206e6f74206960448201526a6e697469616c697a696e6760a81b6064820152608401610ac0565b600054610100900460ff1661395e5760405162461bcd60e51b815260206004820152602b60248201527f496e697469616c697a61626c653a20636f6e7472616374206973206e6f74206960448201526a6e697469616c697a696e6760a81b6064820152608401610ac0565b8151613971906065906020850190613dbd565b508051610d64906066906020840190613dbd565b600054610100900460ff166139f05760405162461bcd60e51b815260206004820152602b60248201527f496e697469616c697a61626c653a20636f6e7472616374206973206e6f74206960448201526a6e697469616c697a696e6760a81b6064820152608401610ac0565b6097805460ff19169055565b613a068383613c6f565b613a136000848484613a7a565b610d645760405162461bcd60e51b815260206004820152603260248201527f4552433732313a207472616e7366657220746f206e6f6e20455243373231526560448201527131b2b4bb32b91034b6b83632b6b2b73a32b960711b6064820152608401610ac0565b60006001600160a01b0384163b15613bc757604051630a85bd0160e11b81526001600160a01b0385169063150b7a0290613abe903390899088908890600401614379565b602060405180830381600087803b158015613ad857600080fd5b505af1925050508015613b08575060408051601f3d908101601f19168201909252613b0591810190614190565b60015b613bad573d808015613b36576040519150601f19603f3d011682016040523d82523d6000602084013e613b3b565b606091505b508051613ba55760405162461bcd60e51b815260206004820152603260248201527f4552433732313a207472616e7366657220746f206e6f6e20455243373231526560448201527131b2b4bb32b91034b6b83632b6b2b73a32b960711b6064820152608401610ac0565b805181602001fd5b6001600160e01b031916630a85bd0160e11b149050611d1d565b506001611d1d565b60975460ff1615610d645760405162461bcd60e51b815260206004820152602b60248201527f4552433732315061757361626c653a20746f6b656e207472616e73666572207760448201526a1a1a5b19481c185d5cd95960aa1b6064820152608401610ac0565b60608315613c455750816121b0565b825115613c555782518084602001fd5b8160405162461bcd60e51b8152600401610ac091906143f7565b6001600160a01b038216613cc55760405162461bcd60e51b815260206004820181905260248201527f4552433732313a206d696e7420746f20746865207a65726f20616464726573736044820152606401610ac0565b6000818152606760205260409020546001600160a01b031615613d2a5760405162461bcd60e51b815260206004820152601c60248201527f4552433732313a20746f6b656e20616c7265616479206d696e746564000000006044820152606401610ac0565b613d3660008383613609565b6001600160a01b0382166000908152606860205260408120805460019290613d5f9084906144b2565b909155505060008181526067602052604080822080546001600160a01b0319166001600160a01b03861690811790915590518392907fddf252ad1be2c89b69c2b068fc378daa952ba7f163c4a11628f55a4df523b3ef908290a45050565b828054613dc990614546565b90600052602060002090601f016020900481019282613deb5760008555613e31565b82601f10613e0457805160ff1916838001178555613e31565b82800160010185558215613e31579182015b82811115613e31578251825591602001919060010190613e16565b50613e3d929150613eb5565b5090565b828054613e4d90614546565b90600052602060002090601f016020900481019282613e6f5760008555613e31565b82601f10613e885782800160ff19823516178555613e31565b82800160010185558215613e31579182015b82811115613e31578235825591602001919060010190613e9a565b5b80821115613e3d5760008155600101613eb6565b600067ffffffffffffffff80841115613ee557613ee56145f2565b604051601f8501601f19908116603f01168101908282118183101715613f0d57613f0d6145f2565b81604052809350858152868686011115613f2657600080fd5b858560208301376000602087830101525050509392505050565b600082601f830112613f5157600080fd5b6121b083833560208501613eca565b60008083601f840112613f7257600080fd5b50813567ffffffffffffffff811115613f8a57600080fd5b602083019150836020828501011115613fa257600080fd5b9250929050565b600060208284031215613fbb57600080fd5b81356121b081614608565b60008060408385031215613fd957600080fd5b8235613fe481614608565b91506020830135613ff481614608565b809150509250929050565b60008060006060848603121561401457600080fd5b833561401f81614608565b9250602084013561402f81614608565b929592945050506040919091013590565b6000806000806080858703121561405657600080fd5b843561406181614608565b9350602085013561407181614608565b925060408501359150606085013567ffffffffffffffff81111561409457600080fd5b6140a087828801613f40565b91505092959194509250565b600080604083850312156140bf57600080fd5b82356140ca81614608565b91506020830135613ff48161461d565b600080604083850312156140ed57600080fd5b82356140f881614608565b9150602083013567ffffffffffffffff81111561411457600080fd5b61412085828601613f40565b9150509250929050565b6000806040838503121561413d57600080fd5b823561414881614608565b946020939093013593505050565b60006020828403121561416857600080fd5b81516121b08161461d565b60006020828403121561418557600080fd5b81356121b08161462b565b6000602082840312156141a257600080fd5b81516121b08161462b565b600080602083850312156141c057600080fd5b823567ffffffffffffffff8111156141d757600080fd5b6141e385828601613f60565b90969095509350505050565b6000806000806060858703121561420557600080fd5b843567ffffffffffffffff81111561421c57600080fd5b61422887828801613f60565b909550935050602085013561423c81614608565b9150604085013561424c81614608565b939692955090935050565b60006020828403121561426957600080fd5b813567ffffffffffffffff81111561428057600080fd5b8201601f8101841361429157600080fd5b611d1d84823560208401613eca565b6000602082840312156142b257600080fd5b5035919050565b600081518084526142d181602086016020860161451a565b601f01601f19169290920160200192915050565b600082516142f781846020870161451a565b9190910192915050565b6000835161431381846020880161451a565b83519083019061432781836020880161451a565b01949350505050565b60006001600160a01b0380871683528086166020840152506080604083015261435c60808301856142b9565b828103606084015261436e81856142b9565b979650505050505050565b60006001600160a01b038087168352808616602084015250836040830152608060608301526143ab60808301846142b9565b9695505050505050565b604081528260408201528284606083013760006060848301015260006060601f19601f86011683010190506001600160a01b0383166020830152949350505050565b6020815260006121b060208301846142b9565b600060208083526000845481600182811c91508083168061442c57607f831692505b85831081141561444a57634e487b7160e01b85526022600452602485fd5b8786018381526020018180156144675760018114614478576144a3565b60ff198616825287820196506144a3565b60008b81526020902060005b8681101561449d57815484820152908501908901614484565b83019750505b50949998505050505050505050565b600082198211156144c5576144c56145b0565b500190565b600060ff821660ff84168060ff038211156144e7576144e76145b0565b019392505050565b6000826144fe576144fe6145c6565b500490565b600082821015614515576145156145b0565b500390565b60005b8381101561453557818101518382015260200161451d565b838111156120205750506000910152565b600181811c9082168061455a57607f821691505b6020821081141561457b57634e487b7160e01b600052602260045260246000fd5b50919050565b6000600019821415614595576145956145b0565b5060010190565b6000826145ab576145ab6145c6565b500690565b634e487b7160e01b600052601160045260246000fd5b634e487b7160e01b600052601260045260246000fd5b634e487b7160e01b600052603260045260246000fd5b634e487b7160e01b600052604160045260246000fd5b6001600160a01b0381168114610f6a57600080fd5b8015158114610f6a57600080fd5b6001600160e01b031981168114610f6a57600080fdfe416464726573733a206c6f772d6c6576656c2064656c65676174652063616c6c206661696c6564a26469706673582212203f3494844676b93c00086d53c3ccfcfb933308c851162d469e921b6ee3ef6fdf64736f6c63430008070033",
  "linkReferences": {},
  "deployedLinkReferences": {}
}