{
  "_format": "hh-sol-artifact-1",
  "contractName": "ETSTagUpgrade",
  "sourceName": "contracts/utils/UUPS/UUPSTesting.sol",
  "abi": [
    {
      "anonymous": false,
      "inputs": [
        {
          "indexed": false,
          "internalType": "contract ETSAccessControls",
          "name": "previousAccessControls",
          "type": "address"
        },
        {
          "indexed": false,
          "internalType": "contract ETSAccessControls",
          "name": "newAccessControls",
          "type": "address"
        }
      ],
      "name": "AccessControlsUpdated",
      "type": "event"
    },
    {
      "anonymous": false,
      "inputs": [
        {
          "indexed": false,
          "internalType": "address",
          "name": "previousAdmin",
          "type": "address"
        },
        {
          "indexed": false,
          "internalType": "address",
          "name": "newAdmin",
          "type": "address"
        }
      ],
      "name": "AdminChanged",
      "type": "event"
    },
    {
      "anonymous": false,
      "inputs": [
        {
          "indexed": true,
          "internalType": "address",
          "name": "owner",
          "type": "address"
        },
        {
          "indexed": true,
          "internalType": "address",
          "name": "approved",
          "type": "address"
        },
        {
          "indexed": true,
          "internalType": "uint256",
          "name": "tokenId",
          "type": "uint256"
        }
      ],
      "name": "Approval",
      "type": "event"
    },
    {
      "anonymous": false,
      "inputs": [
        {
          "indexed": true,
          "internalType": "address",
          "name": "owner",
          "type": "address"
        },
        {
          "indexed": true,
          "internalType": "address",
          "name": "operator",
          "type": "address"
        },
        {
          "indexed": false,
          "internalType": "bool",
          "name": "approved",
          "type": "bool"
        }
      ],
      "name": "ApprovalForAll",
      "type": "event"
    },
    {
      "anonymous": false,
      "inputs": [
        {
          "indexed": true,
          "internalType": "address",
          "name": "beacon",
          "type": "address"
        }
      ],
      "name": "BeaconUpgraded",
      "type": "event"
    },
    {
      "anonymous": false,
      "inputs": [
        {
          "indexed": true,
          "internalType": "uint256",
          "name": "tokenId",
          "type": "uint256"
        },
        {
          "indexed": false,
          "internalType": "string",
          "name": "displayVersion",
          "type": "string"
        },
        {
          "indexed": true,
          "internalType": "address",
          "name": "publisher",
          "type": "address"
        },
        {
          "indexed": false,
          "internalType": "address",
          "name": "creator",
          "type": "address"
        }
      ],
      "name": "MintTag",
      "type": "event"
    },
    {
      "anonymous": false,
      "inputs": [
        {
          "indexed": false,
          "internalType": "string",
          "name": "baseURI",
          "type": "string"
        }
      ],
      "name": "NewBaseURI",
      "type": "event"
    },
    {
      "anonymous": false,
      "inputs": [
        {
          "indexed": false,
          "internalType": "uint256",
          "name": "originalOwnershipLength",
          "type": "uint256"
        },
        {
          "indexed": false,
          "internalType": "uint256",
          "name": "updatedOwnershipLength",
          "type": "uint256"
        }
      ],
      "name": "OwnershipTermLengthUpdated",
      "type": "event"
    },
    {
      "anonymous": false,
      "inputs": [
        {
          "indexed": false,
          "internalType": "address",
          "name": "account",
          "type": "address"
        }
      ],
      "name": "Paused",
      "type": "event"
    },
    {
      "anonymous": false,
      "inputs": [
        {
          "indexed": false,
          "internalType": "address",
          "name": "previousPlatformAddress",
          "type": "address"
        },
        {
          "indexed": false,
          "internalType": "address",
          "name": "newPlatformAddress",
          "type": "address"
        }
      ],
      "name": "PlatformSet",
      "type": "event"
    },
    {
      "anonymous": false,
      "inputs": [
        {
          "indexed": false,
          "internalType": "uint256",
          "name": "originalRenewalPeriod",
          "type": "uint256"
        },
        {
          "indexed": false,
          "internalType": "uint256",
          "name": "updatedRenewalPeriod",
          "type": "uint256"
        }
      ],
      "name": "RenewalPeriodUpdated",
      "type": "event"
    },
    {
      "anonymous": false,
      "inputs": [
        {
          "indexed": true,
          "internalType": "uint256",
          "name": "tokenId",
          "type": "uint256"
        }
      ],
      "name": "TagBurned",
      "type": "event"
    },
    {
      "anonymous": false,
      "inputs": [
        {
          "indexed": false,
          "internalType": "uint256",
          "name": "previousMaxStringLength",
          "type": "uint256"
        },
        {
          "indexed": false,
          "internalType": "uint256",
          "name": "newMaxStringLength",
          "type": "uint256"
        }
      ],
      "name": "TagMaxStringLengthUpdated",
      "type": "event"
    },
    {
      "anonymous": false,
      "inputs": [
        {
          "indexed": true,
          "internalType": "uint256",
          "name": "tokenId",
          "type": "uint256"
        },
        {
          "indexed": true,
          "internalType": "address",
          "name": "owner",
          "type": "address"
        }
      ],
      "name": "TagRecycled",
      "type": "event"
    },
    {
      "anonymous": false,
      "inputs": [
        {
          "indexed": true,
          "internalType": "uint256",
          "name": "tokenId",
          "type": "uint256"
        },
        {
          "indexed": true,
          "internalType": "address",
          "name": "caller",
          "type": "address"
        }
      ],
      "name": "TagRenewed",
      "type": "event"
    },
    {
      "anonymous": false,
      "inputs": [
        {
          "indexed": true,
          "internalType": "address",
          "name": "from",
          "type": "address"
        },
        {
          "indexed": true,
          "internalType": "address",
          "name": "to",
          "type": "address"
        },
        {
          "indexed": true,
          "internalType": "uint256",
          "name": "tokenId",
          "type": "uint256"
        }
      ],
      "name": "Transfer",
      "type": "event"
    },
    {
      "anonymous": false,
      "inputs": [
        {
          "indexed": false,
          "internalType": "address",
          "name": "account",
          "type": "address"
        }
      ],
      "name": "Unpaused",
      "type": "event"
    },
    {
      "anonymous": false,
      "inputs": [
        {
          "indexed": true,
          "internalType": "address",
          "name": "implementation",
          "type": "address"
        }
      ],
      "name": "Upgraded",
      "type": "event"
    },
    {
      "inputs": [],
      "name": "NAME",
      "outputs": [
        {
          "internalType": "string",
          "name": "",
          "type": "string"
        }
      ],
      "stateMutability": "view",
      "type": "function"
    },
    {
      "inputs": [],
      "name": "VERSION",
      "outputs": [
        {
          "internalType": "string",
          "name": "",
          "type": "string"
        }
      ],
      "stateMutability": "view",
      "type": "function"
    },
    {
      "inputs": [],
      "name": "accessControls",
      "outputs": [
        {
          "internalType": "contract ETSAccessControls",
          "name": "",
          "type": "address"
        }
      ],
      "stateMutability": "view",
      "type": "function"
    },
    {
      "inputs": [
        {
          "internalType": "address",
          "name": "to",
          "type": "address"
        },
        {
          "internalType": "uint256",
          "name": "tokenId",
          "type": "uint256"
        }
      ],
      "name": "approve",
      "outputs": [],
      "stateMutability": "nonpayable",
      "type": "function"
    },
    {
      "inputs": [
        {
          "internalType": "address",
          "name": "owner",
          "type": "address"
        }
      ],
      "name": "balanceOf",
      "outputs": [
        {
          "internalType": "uint256",
          "name": "",
          "type": "uint256"
        }
      ],
      "stateMutability": "view",
      "type": "function"
    },
    {
      "inputs": [],
      "name": "baseURI",
      "outputs": [
        {
          "internalType": "string",
          "name": "",
          "type": "string"
        }
      ],
      "stateMutability": "view",
      "type": "function"
    },
    {
      "inputs": [
        {
          "internalType": "uint256",
          "name": "tokenId",
          "type": "uint256"
        }
      ],
      "name": "burn",
      "outputs": [],
      "stateMutability": "nonpayable",
      "type": "function"
    },
    {
      "inputs": [
        {
          "internalType": "string",
          "name": "_machineName",
          "type": "string"
        }
      ],
      "name": "computeTagId",
      "outputs": [
        {
          "internalType": "uint256",
          "name": "",
          "type": "uint256"
        }
      ],
      "stateMutability": "pure",
      "type": "function"
    },
    {
      "inputs": [
        {
          "internalType": "uint256",
          "name": "tokenId",
          "type": "uint256"
        }
      ],
      "name": "exists",
      "outputs": [
        {
          "internalType": "bool",
          "name": "",
          "type": "bool"
        }
      ],
      "stateMutability": "view",
      "type": "function"
    },
    {
      "inputs": [
        {
          "internalType": "uint256",
          "name": "tokenId",
          "type": "uint256"
        }
      ],
      "name": "getApproved",
      "outputs": [
        {
          "internalType": "address",
          "name": "",
          "type": "address"
        }
      ],
      "stateMutability": "view",
      "type": "function"
    },
    {
      "inputs": [
        {
          "internalType": "uint256",
          "name": "_tokenId",
          "type": "uint256"
        }
      ],
      "name": "getCreatorAddress",
      "outputs": [
        {
          "internalType": "address",
          "name": "_creator",
          "type": "address"
        }
      ],
      "stateMutability": "view",
      "type": "function"
    },
    {
      "inputs": [
        {
          "internalType": "uint256",
          "name": "_tokenId",
          "type": "uint256"
        }
      ],
      "name": "getPaymentAddresses",
      "outputs": [
        {
          "internalType": "address payable",
          "name": "_platform",
          "type": "address"
        },
        {
          "internalType": "address payable",
          "name": "_owner",
          "type": "address"
        }
      ],
      "stateMutability": "view",
      "type": "function"
    },
    {
      "inputs": [
        {
          "internalType": "string",
          "name": "tag",
          "type": "string"
        }
      ],
      "name": "getTagId",
      "outputs": [
        {
          "internalType": "uint256",
          "name": "etstagId",
          "type": "uint256"
        }
      ],
      "stateMutability": "view",
      "type": "function"
    },
    {
      "inputs": [
        {
          "internalType": "contract ETSAccessControls",
          "name": "_accessControls",
          "type": "address"
        },
        {
          "internalType": "address payable",
          "name": "_platform",
          "type": "address"
        }
      ],
      "name": "initialize",
      "outputs": [],
      "stateMutability": "nonpayable",
      "type": "function"
    },
    {
      "inputs": [
        {
          "internalType": "address",
          "name": "owner",
          "type": "address"
        },
        {
          "internalType": "address",
          "name": "operator",
          "type": "address"
        }
      ],
      "name": "isApprovedForAll",
      "outputs": [
        {
          "internalType": "bool",
          "name": "",
          "type": "bool"
        }
      ],
      "stateMutability": "view",
      "type": "function"
    },
    {
      "inputs": [
        {
          "internalType": "string",
          "name": "_tag",
          "type": "string"
        },
        {
          "internalType": "address payable",
          "name": "_publisher",
          "type": "address"
        },
        {
          "internalType": "address",
          "name": "_creator",
          "type": "address"
        }
      ],
      "name": "mint",
      "outputs": [
        {
          "internalType": "uint256",
          "name": "_tokenId",
          "type": "uint256"
        }
      ],
      "stateMutability": "payable",
      "type": "function"
    },
    {
      "inputs": [],
      "name": "name",
      "outputs": [
        {
          "internalType": "string",
          "name": "",
          "type": "string"
        }
      ],
      "stateMutability": "view",
      "type": "function"
    },
    {
      "inputs": [
        {
          "internalType": "uint256",
          "name": "tokenId",
          "type": "uint256"
        }
      ],
      "name": "ownerOf",
      "outputs": [
        {
          "internalType": "address",
          "name": "",
          "type": "address"
        }
      ],
      "stateMutability": "view",
      "type": "function"
    },
    {
      "inputs": [],
      "name": "ownershipTermLength",
      "outputs": [
        {
          "internalType": "uint256",
          "name": "",
          "type": "uint256"
        }
      ],
      "stateMutability": "view",
      "type": "function"
    },
    {
      "inputs": [],
      "name": "pause",
      "outputs": [],
      "stateMutability": "nonpayable",
      "type": "function"
    },
    {
      "inputs": [],
      "name": "paused",
      "outputs": [
        {
          "internalType": "bool",
          "name": "",
          "type": "bool"
        }
      ],
      "stateMutability": "view",
      "type": "function"
    },
    {
      "inputs": [],
      "name": "platform",
      "outputs": [
        {
          "internalType": "address payable",
          "name": "",
          "type": "address"
        }
      ],
      "stateMutability": "view",
      "type": "function"
    },
    {
      "inputs": [
        {
          "internalType": "uint256",
          "name": "_tokenId",
          "type": "uint256"
        }
      ],
      "name": "recycleTag",
      "outputs": [],
      "stateMutability": "nonpayable",
      "type": "function"
    },
    {
      "inputs": [
        {
          "internalType": "uint256",
          "name": "_tokenId",
          "type": "uint256"
        }
      ],
      "name": "renewTag",
      "outputs": [],
      "stateMutability": "nonpayable",
      "type": "function"
    },
    {
      "inputs": [
        {
          "internalType": "address",
          "name": "from",
          "type": "address"
        },
        {
          "internalType": "address",
          "name": "to",
          "type": "address"
        },
        {
          "internalType": "uint256",
          "name": "tokenId",
          "type": "uint256"
        }
      ],
      "name": "safeTransferFrom",
      "outputs": [],
      "stateMutability": "nonpayable",
      "type": "function"
    },
    {
      "inputs": [
        {
          "internalType": "address",
          "name": "from",
          "type": "address"
        },
        {
          "internalType": "address",
          "name": "to",
          "type": "address"
        },
        {
          "internalType": "uint256",
          "name": "tokenId",
          "type": "uint256"
        },
        {
          "internalType": "bytes",
          "name": "_data",
          "type": "bytes"
        }
      ],
      "name": "safeTransferFrom",
      "outputs": [],
      "stateMutability": "nonpayable",
      "type": "function"
    },
    {
      "inputs": [
        {
          "internalType": "address",
          "name": "operator",
          "type": "address"
        },
        {
          "internalType": "bool",
          "name": "approved",
          "type": "bool"
        }
      ],
      "name": "setApprovalForAll",
      "outputs": [],
      "stateMutability": "nonpayable",
      "type": "function"
    },
    {
      "inputs": [
        {
          "internalType": "string",
          "name": "newBaseURI",
          "type": "string"
        }
      ],
      "name": "setBaseURI",
      "outputs": [],
      "stateMutability": "nonpayable",
      "type": "function"
    },
    {
      "inputs": [
        {
          "internalType": "uint256",
          "name": "_ownershipTermLength",
          "type": "uint256"
        }
      ],
      "name": "setOwnershipTermLength",
      "outputs": [],
      "stateMutability": "nonpayable",
      "type": "function"
    },
    {
      "inputs": [
        {
          "internalType": "address payable",
          "name": "_platform",
          "type": "address"
        }
      ],
      "name": "setPlatform",
      "outputs": [],
      "stateMutability": "nonpayable",
      "type": "function"
    },
    {
      "inputs": [
        {
          "internalType": "uint256",
          "name": "_tagMaxStringLength",
          "type": "uint256"
        }
      ],
      "name": "setTagMaxStringLength",
      "outputs": [],
      "stateMutability": "nonpayable",
      "type": "function"
    },
    {
      "inputs": [
        {
          "internalType": "bytes4",
          "name": "interfaceId",
          "type": "bytes4"
        }
      ],
      "name": "supportsInterface",
      "outputs": [
        {
          "internalType": "bool",
          "name": "",
          "type": "bool"
        }
      ],
      "stateMutability": "view",
      "type": "function"
    },
    {
      "inputs": [],
      "name": "symbol",
      "outputs": [
        {
          "internalType": "string",
          "name": "",
          "type": "string"
        }
      ],
      "stateMutability": "view",
      "type": "function"
    },
    {
      "inputs": [],
      "name": "tagMaxStringLength",
      "outputs": [
        {
          "internalType": "uint256",
          "name": "",
          "type": "uint256"
        }
      ],
      "stateMutability": "view",
      "type": "function"
    },
    {
      "inputs": [],
      "name": "tagMinStringLength",
      "outputs": [
        {
          "internalType": "uint256",
          "name": "",
          "type": "uint256"
        }
      ],
      "stateMutability": "view",
      "type": "function"
    },
    {
      "inputs": [
        {
          "internalType": "string",
          "name": "",
          "type": "string"
        }
      ],
      "name": "tagToTokenId",
      "outputs": [
        {
          "internalType": "uint256",
          "name": "",
          "type": "uint256"
        }
      ],
      "stateMutability": "view",
      "type": "function"
    },
    {
      "inputs": [
        {
          "internalType": "uint256",
          "name": "",
          "type": "uint256"
        }
      ],
      "name": "tokenIdToLastTransferTime",
      "outputs": [
        {
          "internalType": "uint256",
          "name": "",
          "type": "uint256"
        }
      ],
      "stateMutability": "view",
      "type": "function"
    },
    {
      "inputs": [
        {
          "internalType": "uint256",
          "name": "",
          "type": "uint256"
        }
      ],
      "name": "tokenIdToTag",
      "outputs": [
        {
          "internalType": "address",
          "name": "originalPublisher",
          "type": "address"
        },
        {
          "internalType": "address",
          "name": "creator",
          "type": "address"
        },
        {
          "internalType": "string",
          "name": "displayVersion",
          "type": "string"
        }
      ],
      "stateMutability": "view",
      "type": "function"
    },
    {
      "inputs": [],
      "name": "tokenPointer",
      "outputs": [
        {
          "internalType": "uint256",
          "name": "",
          "type": "uint256"
        }
      ],
      "stateMutability": "view",
      "type": "function"
    },
    {
      "inputs": [
        {
          "internalType": "uint256",
          "name": "tokenId",
          "type": "uint256"
        }
      ],
      "name": "tokenURI",
      "outputs": [
        {
          "internalType": "string",
          "name": "",
          "type": "string"
        }
      ],
      "stateMutability": "view",
      "type": "function"
    },
    {
      "inputs": [
        {
          "internalType": "address",
          "name": "from",
          "type": "address"
        },
        {
          "internalType": "address",
          "name": "to",
          "type": "address"
        },
        {
          "internalType": "uint256",
          "name": "tokenId",
          "type": "uint256"
        }
      ],
      "name": "transferFrom",
      "outputs": [],
      "stateMutability": "nonpayable",
      "type": "function"
    },
    {
      "inputs": [],
      "name": "unPause",
      "outputs": [],
      "stateMutability": "nonpayable",
      "type": "function"
    },
    {
      "inputs": [
        {
          "internalType": "contract ETSAccessControls",
          "name": "_accessControls",
          "type": "address"
        }
      ],
      "name": "updateAccessControls",
      "outputs": [],
      "stateMutability": "nonpayable",
      "type": "function"
    },
    {
      "inputs": [],
      "name": "upgradeTest",
      "outputs": [
        {
          "internalType": "bool",
          "name": "",
          "type": "bool"
        }
      ],
      "stateMutability": "pure",
      "type": "function"
    },
    {
      "inputs": [
        {
          "internalType": "address",
          "name": "newImplementation",
          "type": "address"
        }
      ],
      "name": "upgradeTo",
      "outputs": [],
      "stateMutability": "nonpayable",
      "type": "function"
    },
    {
      "inputs": [
        {
          "internalType": "address",
          "name": "newImplementation",
          "type": "address"
        },
        {
          "internalType": "bytes",
          "name": "data",
          "type": "bytes"
        }
      ],
      "name": "upgradeToAndCall",
      "outputs": [],
      "stateMutability": "payable",
      "type": "function"
    },
    {
      "inputs": [],
      "name": "version",
      "outputs": [
        {
          "internalType": "string",
          "name": "",
          "type": "string"
        }
      ],
      "stateMutability": "pure",
      "type": "function"
    }
  ],
  "bytecode": "0x60a06040523060805234801561001457600080fd5b5060805161452961004560003960008181610e1d01528181610ea201528181611313015261139801526145296000f3fe6080604052600436106103085760003560e01c80636ef3da941161019a578063ad014a5b116100e1578063e8d3e4b61161008a578063f66e762311610064578063f66e762314610931578063f7b188a514610951578063ffa1ad741461096657600080fd5b8063e8d3e4b6146108a2578063e985e9c5146108c2578063f143fc611461090b57600080fd5b8063c157daea116100bb578063c157daea1461084b578063c87b56dd1461086b578063db7af5fb1461088b57600080fd5b8063ad014a5b146107e5578063adf63cd214610814578063b88d4fde1461082b57600080fd5b8063878327ab11610143578063a22cb4651161011d578063a22cb46514610742578063a30b4db914610762578063a3f4df7e1461079c57600080fd5b8063878327ab146106bf57806390b467ea146106ff57806395d89b411461072d57600080fd5b80637e3bd74b116101745780637e3bd74b1461065e5780637e6d945e146106975780638456cb59146106aa57600080fd5b80636ef3da94146105fd57806370a082311461061d578063748365ef1461063d57600080fd5b806342842e0e1161025e57806354fd4d50116102075780636352211e116101e15780636352211e146105a85780636945c5ea146105c85780636c0360eb146105e857600080fd5b806354fd4d501461054257806355f804b3146105705780635c975abb1461059057600080fd5b80634bde38c8116102385780634bde38c8146104ee5780634f1ef2861461050f5780634f558e791461052257600080fd5b806342842e0e1461048e57806342966c68146104ae578063485cc955146104ce57600080fd5b8063081812fc116102c05780632e6116301161029a5780632e611630146104435780633659cfe61461045a5780633d20b15c1461047a57600080fd5b8063081812fc146103cb578063095ea7b31461040357806323b872dd1461042357600080fd5b806304befefd116102f157806304befefd14610367578063060defec1461038757806306fdde03146103a957600080fd5b806301ffc9a71461030d5780630283165114610342575b600080fd5b34801561031957600080fd5b5061032d610328366004613d88565b610997565b60405190151581526020015b60405180910390f35b34801561034e57600080fd5b506103596101935481565b604051908152602001610339565b34801561037357600080fd5b50610359610382366004613dee565b6109a8565b34801561039357600080fd5b506103a76103a2366004613e30565b610a10565b005b3480156103b557600080fd5b506103be610b31565b6040516103399190613ea1565b3480156103d757600080fd5b506103eb6103e6366004613e30565b610bc3565b6040516001600160a01b039091168152602001610339565b34801561040f57600080fd5b506103a761041e366004613ec9565b610c58565b34801561042f57600080fd5b506103a761043e366004613ef5565b610d8a565b34801561044f57600080fd5b506103596101955481565b34801561046657600080fd5b506103a7610475366004613f36565b610e12565b34801561048657600080fd5b50600161032d565b34801561049a57600080fd5b506103a76104a9366004613ef5565b610f8e565b3480156104ba57600080fd5b506103a76104c9366004613e30565b610fa9565b3480156104da57600080fd5b506103a76104e9366004613f53565b611130565b3480156104fa57600080fd5b50610196546103eb906001600160a01b031681565b6103a761051d366004614038565b611308565b34801561052e57600080fd5b5061032d61053d366004613e30565b611475565b34801561054e57600080fd5b506040805180820190915260058152640302e322e360dc1b60208201526103be565b34801561057c57600080fd5b506103a761058b366004613dee565b611494565b34801561059c57600080fd5b5060975460ff1661032d565b3480156105b457600080fd5b506103eb6105c3366004613e30565b6115a8565b3480156105d457600080fd5b506103a76105e3366004613f36565b611633565b3480156105f457600080fd5b506103be611763565b34801561060957600080fd5b506103a7610618366004613f36565b6117f2565b34801561062957600080fd5b50610359610638366004613f36565b61199e565b34801561064957600080fd5b50610197546103eb906001600160a01b031681565b34801561066a57600080fd5b50610359610679366004614088565b80516020818301810180516101998252928201919093012091525481565b6103596106a53660046140d1565b611a38565b3480156106b657600080fd5b506103a7611ca2565b3480156106cb57600080fd5b506106df6106da366004613e30565b611d81565b604080516001600160a01b03938416815292909116602083015201610339565b34801561070b57600080fd5b5061035961071a366004613e30565b61019a6020526000908152604090205481565b34801561073957600080fd5b506103be611da5565b34801561074e57600080fd5b506103a761075d366004614147565b611db4565b34801561076e57600080fd5b506103eb61077d366004613e30565b600090815261019860205260409020600101546001600160a01b031690565b3480156107a857600080fd5b506103be6040518060400160405280600c81526020017f45545354414720546f6b656e000000000000000000000000000000000000000081525081565b3480156107f157600080fd5b50610805610800366004613e30565b611dbf565b60405161033993929190614175565b34801561082057600080fd5b506103596101945481565b34801561083757600080fd5b506103a76108463660046141a1565b611e78565b34801561085757600080fd5b506103a7610866366004613e30565b611f06565b34801561087757600080fd5b506103be610886366004613e30565b611fae565b34801561089757600080fd5b506103596101925481565b3480156108ae57600080fd5b506103a76108bd366004613e30565b612097565b3480156108ce57600080fd5b5061032d6108dd366004613f53565b6001600160a01b039182166000908152606a6020908152604080832093909416825291909152205460ff1690565b34801561091757600080fd5b50610359610926366004614088565b805160209091012090565b34801561093d57600080fd5b506103a761094c366004613e30565b612272565b34801561095d57600080fd5b506103a7612386565b34801561097257600080fd5b506103be604051806040016040528060058152602001640302e322e360dc1b81525081565b60006109a282612463565b92915050565b60006101996109ec84848080601f0160208091040260200160405190810160405280939291908181526020018383808284376000920191909152506124fe92505050565b6040516109f9919061420d565b908152602001604051809103902054905092915050565b610197546001600160a01b03166324d7806c336040516001600160e01b031960e084901b1681526001600160a01b039091166004820152602401602060405180830381865afa158015610a67573d6000803e3d6000fd5b505050506040513d601f19601f82011682018060405250810190610a8b9190614229565b610aea5760405162461bcd60e51b815260206004820152602560248201527f43616c6c6572206d75737420686176652061646d696e6973747261746f722061604482015264636365737360d81b60648201526084015b60405180910390fd5b61019580549082905560408051828152602081018490527f3bcd7d0ed4502e81afe37fd199a6a8e34e8d351fdafd54d97726970c18fdcd2b91015b60405180910390a15050565b606060658054610b4090614246565b80601f0160208091040260200160405190810160405280929190818152602001828054610b6c90614246565b8015610bb95780601f10610b8e57610100808354040283529160200191610bb9565b820191906000526020600020905b815481529060010190602001808311610b9c57829003601f168201915b5050505050905090565b6000818152606760205260408120546001600160a01b0316610c3c5760405162461bcd60e51b815260206004820152602c60248201527f4552433732313a20617070726f76656420717565727920666f72206e6f6e657860448201526b34b9ba32b73a103a37b5b2b760a11b6064820152608401610ae1565b506000908152606960205260409020546001600160a01b031690565b6000610c63826115a8565b9050806001600160a01b0316836001600160a01b03161415610ced5760405162461bcd60e51b815260206004820152602160248201527f4552433732313a20617070726f76616c20746f2063757272656e74206f776e6560448201527f72000000000000000000000000000000000000000000000000000000000000006064820152608401610ae1565b336001600160a01b0382161480610d095750610d0981336108dd565b610d7b5760405162461bcd60e51b815260206004820152603860248201527f4552433732313a20617070726f76652063616c6c6572206973206e6f74206f7760448201527f6e6572206e6f7220617070726f76656420666f7220616c6c00000000000000006064820152608401610ae1565b610d858383612675565b505050565b610d95335b826126e3565b610e075760405162461bcd60e51b815260206004820152603160248201527f4552433732313a207472616e736665722063616c6c6572206973206e6f74206f60448201527f776e6572206e6f7220617070726f7665640000000000000000000000000000006064820152608401610ae1565b610d858383836127d6565b306001600160a01b037f0000000000000000000000000000000000000000000000000000000000000000161415610ea05760405162461bcd60e51b815260206004820152602c60248201527f46756e6374696f6e206d7573742062652063616c6c6564207468726f7567682060448201526b19195b1959d85d1958d85b1b60a21b6064820152608401610ae1565b7f00000000000000000000000000000000000000000000000000000000000000006001600160a01b0316610efb7f360894a13ba1a3210667c828492db98dca3e2076cc3735a920a3ca505d382bbc546001600160a01b031690565b6001600160a01b031614610f665760405162461bcd60e51b815260206004820152602c60248201527f46756e6374696f6e206d7573742062652063616c6c6564207468726f7567682060448201526b6163746976652070726f787960a01b6064820152608401610ae1565b610f6f816129ae565b60408051600080825260208201909252610f8b91839190612a83565b50565b610d8583838360405180602001604052806000815250611e78565b610197546001600160a01b03166324d7806c336040516001600160e01b031960e084901b1681526001600160a01b039091166004820152602401602060405180830381865afa158015611000573d6000803e3d6000fd5b505050506040513d601f19601f820116820180604052508101906110249190614229565b61107e5760405162461bcd60e51b815260206004820152602560248201527f43616c6c6572206d75737420686176652061646d696e6973747261746f722061604482015264636365737360d81b6064820152608401610ae1565b61108733610d8f565b6110f95760405162461bcd60e51b815260206004820152603060248201527f4552433732314275726e61626c653a2063616c6c6572206973206e6f74206f7760448201527f6e6572206e6f7220617070726f766564000000000000000000000000000000006064820152608401610ae1565b61110281612c47565b60405181907f7f928e3c53f35086b51ff7b9bfd4651b14e8b9ccb0535aa4a085fb2881785b8290600090a250565b600054610100900460ff1661114b5760005460ff161561114f565b303b155b6111c15760405162461bcd60e51b815260206004820152602e60248201527f496e697469616c697a61626c653a20636f6e747261637420697320616c72656160448201527f647920696e697469616c697a65640000000000000000000000000000000000006064820152608401610ae1565b600054610100900460ff161580156111e3576000805461ffff19166101011790555b6112576040518060400160405280601481526020017f457468657265756d2054616720536572766963650000000000000000000000008152506040518060400160405280600681526020017f4554535441470000000000000000000000000000000000000000000000000000815250612cee565b61125f612d73565b611267612dfe565b61019780546001600160a01b038086166001600160a01b0319928316179092556101968054928516929091169190911790556303c26700610192556040805180820190915260208082527f68747470733a2f2f6170692e686173687461672d70726f746f636f6c2e696f2f9181019182526112e59161019191613c65565b506001610194556020610195558015610d85576000805461ff0019169055505050565b306001600160a01b037f00000000000000000000000000000000000000000000000000000000000000001614156113965760405162461bcd60e51b815260206004820152602c60248201527f46756e6374696f6e206d7573742062652063616c6c6564207468726f7567682060448201526b19195b1959d85d1958d85b1b60a21b6064820152608401610ae1565b7f00000000000000000000000000000000000000000000000000000000000000006001600160a01b03166113f17f360894a13ba1a3210667c828492db98dca3e2076cc3735a920a3ca505d382bbc546001600160a01b031690565b6001600160a01b03161461145c5760405162461bcd60e51b815260206004820152602c60248201527f46756e6374696f6e206d7573742062652063616c6c6564207468726f7567682060448201526b6163746976652070726f787960a01b6064820152608401610ae1565b611465826129ae565b61147182826001612a83565b5050565b6000818152606760205260408120546001600160a01b031615156109a2565b610197546001600160a01b03166324d7806c336040516001600160e01b031960e084901b1681526001600160a01b039091166004820152602401602060405180830381865afa1580156114eb573d6000803e3d6000fd5b505050506040513d601f19601f8201168201806040525081019061150f9190614229565b6115695760405162461bcd60e51b815260206004820152602560248201527f43616c6c6572206d75737420686176652061646d696e6973747261746f722061604482015264636365737360d81b6064820152608401610ae1565b6115766101918383613ce9565b507f325d37e8fb549c86966f09bc3e6f62eb3afa93b255d6e3234338001f3d80bd86610191604051610b259190614281565b6000818152606760205260408120546001600160a01b0316806109a25760405162461bcd60e51b815260206004820152602960248201527f4552433732313a206f776e657220717565727920666f72206e6f6e657869737460448201527f656e7420746f6b656e00000000000000000000000000000000000000000000006064820152608401610ae1565b610197546001600160a01b03166324d7806c336040516001600160e01b031960e084901b1681526001600160a01b039091166004820152602401602060405180830381865afa15801561168a573d6000803e3d6000fd5b505050506040513d601f19601f820116820180604052508101906116ae9190614229565b6117085760405162461bcd60e51b815260206004820152602560248201527f43616c6c6572206d75737420686176652061646d696e6973747261746f722061604482015264636365737360d81b6064820152608401610ae1565b61019680546001600160a01b038381166001600160a01b031983168117909355604080519190921680825260208201939093527f0e8ce4b57fd24de168e9c8d76109cb59a7852e78b3575da1ba2077dd53d330ec9101610b25565b610191805461177190614246565b80601f016020809104026020016040519081016040528092919081815260200182805461179d90614246565b80156117ea5780601f106117bf576101008083540402835291602001916117ea565b820191906000526020600020905b8154815290600101906020018083116117cd57829003601f168201915b505050505081565b610197546001600160a01b03166324d7806c336040516001600160e01b031960e084901b1681526001600160a01b039091166004820152602401602060405180830381865afa158015611849573d6000803e3d6000fd5b505050506040513d601f19601f8201168201806040525081019061186d9190614229565b6118c75760405162461bcd60e51b815260206004820152602560248201527f43616c6c6572206d75737420686176652061646d696e6973747261746f722061604482015264636365737360d81b6064820152608401610ae1565b6001600160a01b0381166119435760405162461bcd60e51b815260206004820152602b60248201527f4554535461672e757064617465416363657373436f6e74726f6c733a2043616e60448201527f6e6f74206265207a65726f0000000000000000000000000000000000000000006064820152608401610ae1565b61019780546001600160a01b038381166001600160a01b031983168117909355604080519190921680825260208201939093527f31073599bfae2533a348dc816b0ce777b707aa9b67015ca2d86585e842b5c6e99101610b25565b60006001600160a01b038216611a1c5760405162461bcd60e51b815260206004820152602a60248201527f4552433732313a2062616c616e636520717565727920666f7220746865207a6560448201527f726f2061646472657373000000000000000000000000000000000000000000006064820152608401610ae1565b506001600160a01b031660009081526068602052604090205490565b610197546040517f41859ac80000000000000000000000000000000000000000000000000000000081526001600160a01b03848116600483015260009216906341859ac890602401602060405180830381865afa158015611a9d573d6000803e3d6000fd5b505050506040513d601f19601f82011682018060405250810190611ac19190614229565b611b335760405162461bcd60e51b815260206004820152602760248201527f4d696e743a20546865207075626c6973686572206d757374206265207768697460448201527f656c6973746564000000000000000000000000000000000000000000000000006064820152608401610ae1565b6000611b7486868080601f016020809104026020016040519081016040528093929190818152602001838380828437600092019190915250612e7992505050565b61019654909150611b8e906001600160a01b0316826130fb565b6040518060600160405280856001600160a01b03168152602001846001600160a01b0316815260200187878080601f01602080910402602001604051908101604052809392919081815260200183838082843760009201829052509390945250508381526101986020908152604091829020845181546001600160a01b039182166001600160a01b031991821617835586840151600184018054919093169116179055918401518051929350611c4d9260028501929190910190613c65565b50905050836001600160a01b0316817f85d182e335717d2d833be448c2f6a5864b8514dfeb8cda8f0fbac14f5157f0be888887604051611c8f93929190614329565b60405180910390a390505b949350505050565b610197546001600160a01b03166324d7806c336040516001600160e01b031960e084901b1681526001600160a01b039091166004820152602401602060405180830381865afa158015611cf9573d6000803e3d6000fd5b505050506040513d601f19601f82011682018060405250810190611d1d9190614229565b611d775760405162461bcd60e51b815260206004820152602560248201527f43616c6c6572206d75737420686176652061646d696e6973747261746f722061604482015264636365737360d81b6064820152608401610ae1565b611d7f613115565b565b6101965460009081906001600160a01b0316611d9c846115a8565b91509150915091565b606060668054610b4090614246565b6114713383836131ba565b610198602052600090815260409020805460018201546002830180546001600160a01b03938416949290931692611df590614246565b80601f0160208091040260200160405190810160405280929190818152602001828054611e2190614246565b8015611e6e5780601f10611e4357610100808354040283529160200191611e6e565b820191906000526020600020905b815481529060010190602001808311611e5157829003601f168201915b5050505050905083565b611e8233836126e3565b611ef45760405162461bcd60e51b815260206004820152603160248201527f4552433732313a207472616e736665722063616c6c6572206973206e6f74206f60448201527f776e6572206e6f7220617070726f7665640000000000000000000000000000006064820152608401610ae1565b611f0084848484613289565b50505050565b611f0f816115a8565b6001600160a01b0316336001600160a01b031614611f6f5760405162461bcd60e51b815260206004820152601860248201527f72656e65775461673a20496e76616c69642073656e64657200000000000000006044820152606401610ae1565b600081815261019a602052604080822042905551339183917faa0c0591942aff60e66bde156168c9a47ef843534b433bbaa33e62d1410f4f2c9190a350565b6000818152606760205260409020546060906001600160a01b031661203b5760405162461bcd60e51b815260206004820152602f60248201527f4552433732314d657461646174613a2055524920717565727920666f72206e6f60448201527f6e6578697374656e7420746f6b656e00000000000000000000000000000000006064820152608401610ae1565b6000612045613307565b905060008151116120655760405180602001604052806000815250612090565b8061206f84613317565b60405160200161208092919061436b565b6040516020818303038152906040525b9392505050565b6000818152606760205260409020546001600160a01b03166120fb5760405162461bcd60e51b815260206004820152601c60248201527f72656379636c655461673a20496e76616c696420746f6b656e204944000000006044820152606401610ae1565b610196546001600160a01b0316612111826115a8565b6001600160a01b0316141561218e5760405162461bcd60e51b815260206004820152602d60248201527f72656379636c655461673a2054616720616c7265616479206f776e656420627960448201527f2074686520706c6174666f726d000000000000000000000000000000000000006064820152608401610ae1565b600081815261019a60205260409020546101925442906121af908390613431565b106122225760405162461bcd60e51b815260206004820152603060248201527f72656379636c655461673a20546f6b656e206e6f7420656c696769626c65206660448201527f6f722072656379636c696e6720796574000000000000000000000000000000006064820152608401610ae1565b61224161222e836115a8565b610196546001600160a01b0316846127d6565b604051339083907f0f842a1659c86d6e422461459fb2ab6fa8af886fd1cf9978a73dd299f23ccc7a90600090a35050565b610197546001600160a01b03166324d7806c336040516001600160e01b031960e084901b1681526001600160a01b039091166004820152602401602060405180830381865afa1580156122c9573d6000803e3d6000fd5b505050506040513d601f19601f820116820180604052508101906122ed9190614229565b6123475760405162461bcd60e51b815260206004820152602560248201527f43616c6c6572206d75737420686176652061646d696e6973747261746f722061604482015264636365737360d81b6064820152608401610ae1565b61019280549082905560408051828152602081018490527f7550fd28481dfa2a7590562881c3fffa398e97624ad6eeae494cf36c51e2a9069101610b25565b610197546001600160a01b03166324d7806c336040516001600160e01b031960e084901b1681526001600160a01b039091166004820152602401602060405180830381865afa1580156123dd573d6000803e3d6000fd5b505050506040513d601f19601f820116820180604052508101906124019190614229565b61245b5760405162461bcd60e51b815260206004820152602560248201527f43616c6c6572206d75737420686176652061646d696e6973747261746f722061604482015264636365737360d81b6064820152608401610ae1565b611d7f61343d565b60006001600160e01b031982167f80ac58cd0000000000000000000000000000000000000000000000000000000014806124c657506001600160e01b031982167f5b5e139f00000000000000000000000000000000000000000000000000000000145b806109a257507f01ffc9a7000000000000000000000000000000000000000000000000000000006001600160e01b03198316146109a2565b606060008290506000815167ffffffffffffffff81111561252157612521613f8c565b6040519080825280601f01601f19166020018201604052801561254b576020820181803683370190505b50905060005b825181101561266d57604160f81b8382815181106125715761257161439a565b01602001516001600160f81b031916108015906125b25750605a60f81b8382815181106125a0576125a061439a565b01602001516001600160f81b03191611155b15612614578281815181106125c9576125c961439a565b602001015160f81c60f81b60f81c60206125e391906143c6565b60f81b8282815181106125f8576125f861439a565b60200101906001600160f81b031916908160001a90535061265b565b8281815181106126265761262661439a565b602001015160f81c60f81b8282815181106126435761264361439a565b60200101906001600160f81b031916908160001a9053505b80612665816143eb565b915050612551565b509392505050565b600081815260696020526040902080546001600160a01b0319166001600160a01b03841690811790915581906126aa826115a8565b6001600160a01b03167f8c5be1e5ebec7d5bd14f71427d1e84f3dd0314c0f7b2291e5b200ac8c7c3b92560405160405180910390a45050565b6000818152606760205260408120546001600160a01b031661275c5760405162461bcd60e51b815260206004820152602c60248201527f4552433732313a206f70657261746f7220717565727920666f72206e6f6e657860448201526b34b9ba32b73a103a37b5b2b760a11b6064820152608401610ae1565b6000612767836115a8565b9050806001600160a01b0316846001600160a01b031614806127a25750836001600160a01b031661279784610bc3565b6001600160a01b0316145b80611c9a57506001600160a01b038082166000908152606a602090815260408083209388168352929052205460ff16611c9a565b826001600160a01b03166127e9826115a8565b6001600160a01b0316146128655760405162461bcd60e51b815260206004820152602960248201527f4552433732313a207472616e73666572206f6620746f6b656e2074686174206960448201527f73206e6f74206f776e00000000000000000000000000000000000000000000006064820152608401610ae1565b6001600160a01b0382166128e05760405162461bcd60e51b8152602060048201526024808201527f4552433732313a207472616e7366657220746f20746865207a65726f2061646460448201527f72657373000000000000000000000000000000000000000000000000000000006064820152608401610ae1565b6128eb8383836134c0565b6128f6600082612675565b6001600160a01b038316600090815260686020526040812080546001929061291f908490614406565b90915550506001600160a01b038216600090815260686020526040812080546001929061294d90849061441d565b909155505060008181526067602052604080822080546001600160a01b0319166001600160a01b0386811691821790925591518493918716917fddf252ad1be2c89b69c2b068fc378daa952ba7f163c4a11628f55a4df523b3ef91a4505050565b610197546001600160a01b03166324d7806c336040516001600160e01b031960e084901b1681526001600160a01b039091166004820152602401602060405180830381865afa158015612a05573d6000803e3d6000fd5b505050506040513d601f19601f82011682018060405250810190612a299190614229565b610f8b5760405162461bcd60e51b815260206004820152602560248201527f43616c6c6572206d75737420686176652061646d696e6973747261746f722061604482015264636365737360d81b6064820152608401610ae1565b6000612ab67f360894a13ba1a3210667c828492db98dca3e2076cc3735a920a3ca505d382bbc546001600160a01b031690565b9050612ac184613548565b600083511180612ace5750815b15612adf57612add84846135fd565b505b7f4910fdfa16fed3260ed0e7147f7cc6da11a60208b5b9406d12a635614ffd9143805460ff16612c4057805460ff191660011781556040516001600160a01b0383166024820152612b8c90869060440160408051601f198184030181529190526020810180517bffffffffffffffffffffffffffffffffffffffffffffffffffffffff167f3659cfe6000000000000000000000000000000000000000000000000000000001790526135fd565b50805460ff191681557f360894a13ba1a3210667c828492db98dca3e2076cc3735a920a3ca505d382bbc546001600160a01b03838116911614612c375760405162461bcd60e51b815260206004820152602f60248201527f45524331393637557067726164653a207570677261646520627265616b73206660448201527f75727468657220757067726164657300000000000000000000000000000000006064820152608401610ae1565b612c40856136ff565b5050505050565b6000612c52826115a8565b9050612c60816000846134c0565b612c6b600083612675565b6001600160a01b0381166000908152606860205260408120805460019290612c94908490614406565b909155505060008281526067602052604080822080546001600160a01b0319169055518391906001600160a01b038416907fddf252ad1be2c89b69c2b068fc378daa952ba7f163c4a11628f55a4df523b3ef908390a45050565b600054610100900460ff16612d595760405162461bcd60e51b815260206004820152602b60248201527f496e697469616c697a61626c653a20636f6e7472616374206973206e6f74206960448201526a6e697469616c697a696e6760a81b6064820152608401610ae1565b612d6161373f565b612d6961373f565b61147182826137aa565b600054610100900460ff16612dde5760405162461bcd60e51b815260206004820152602b60248201527f496e697469616c697a61626c653a20636f6e7472616374206973206e6f74206960448201526a6e697469616c697a696e6760a81b6064820152608401610ae1565b612de661373f565b612dee61373f565b612df661383c565b611d7f61373f565b600054610100900460ff16612e695760405162461bcd60e51b815260206004820152602b60248201527f496e697469616c697a61626c653a20636f6e7472616374206973206e6f74206960448201526a6e697469616c697a696e6760a81b6064820152608401610ae1565b612e7161373f565b612df661373f565b600080612e85836124fe565b805160208201209091506000906000818152606760205260409020549091506001600160a01b031615612efa5760405162461bcd60e51b815260206004820152601c60248201527f4552433732313a20746f6b656e20616c7265616479206d696e746564000000006044820152606401610ae1565b610194548451859111801590612f14575061019554815111155b612f865760405162461bcd60e51b815260206004820152603d60248201527f496e76616c696420666f726d61743a2074616720646f6573206e6f74206d656560448201527f74206d696e2f6d6178206c656e67746820726571756972656d656e74730000006064820152608401610ae1565b80600081518110612f9957612f9961439a565b6020910101516001600160f81b0319167f2300000000000000000000000000000000000000000000000000000000000000146130175760405162461bcd60e51b815260206004820152601560248201527f546167206d7573742073746172742077697468202300000000000000000000006044820152606401610ae1565b60015b81518110156130f15760008282815181106130375761303761439a565b01602001516001600160f81b03191690507f20000000000000000000000000000000000000000000000000000000000000008114156130de5760405162461bcd60e51b815260206004820152602760248201527f537061636520666f756e643a20746167206d6179206e6f7420636f6e7461696e60448201527f20737061636573000000000000000000000000000000000000000000000000006064820152608401610ae1565b50806130e9816143eb565b91505061301a565b5090949350505050565b6114718282604051806020016040528060008152506138b3565b60975460ff16156131685760405162461bcd60e51b815260206004820152601060248201527f5061757361626c653a20706175736564000000000000000000000000000000006044820152606401610ae1565b6097805460ff191660011790557f62e78cea01bee320cd4e420270b5ea74000d11b0c9f74754ebdbfc544b05a25861319d3390565b6040516001600160a01b03909116815260200160405180910390a1565b816001600160a01b0316836001600160a01b0316141561321c5760405162461bcd60e51b815260206004820152601960248201527f4552433732313a20617070726f766520746f2063616c6c6572000000000000006044820152606401610ae1565b6001600160a01b038381166000818152606a6020908152604080832094871680845294825291829020805460ff191686151590811790915591519182527f17307eab39ab6107e8899845ad3d59bd9653f200f220920489ca2b5937696c31910160405180910390a3505050565b6132948484846127d6565b6132a084848484613931565b611f005760405162461bcd60e51b815260206004820152603260248201527f4552433732313a207472616e7366657220746f206e6f6e20455243373231526560448201527131b2b4bb32b91034b6b83632b6b2b73a32b960711b6064820152608401610ae1565b60606101918054610b4090614246565b60608161335757505060408051808201909152600181527f3000000000000000000000000000000000000000000000000000000000000000602082015290565b8160005b8115613381578061336b816143eb565b915061337a9050600a8361444b565b915061335b565b60008167ffffffffffffffff81111561339c5761339c613f8c565b6040519080825280601f01601f1916602001820160405280156133c6576020820181803683370190505b5090505b8415611c9a576133db600183614406565b91506133e8600a8661445f565b6133f390603061441d565b60f81b8183815181106134085761340861439a565b60200101906001600160f81b031916908160001a90535061342a600a8661444b565b94506133ca565b6000612090828461441d565b60975460ff1661348f5760405162461bcd60e51b815260206004820152601460248201527f5061757361626c653a206e6f74207061757365640000000000000000000000006044820152606401610ae1565b6097805460ff191690557f5db9ee0a495bf2e6ff9c91a7834c1ba4fdd244a5e8aa4e537bd38aeae4b073aa3361319d565b6134cb838383613a77565b60975460ff16156135325760405162461bcd60e51b815260206004820152602b60248201527f4552433732315061757361626c653a20746f6b656e207472616e73666572207760448201526a1a1a5b19481c185d5cd95960aa1b6064820152608401610ae1565b600090815261019a602052604090204290555050565b803b6135bc5760405162461bcd60e51b815260206004820152602d60248201527f455243313936373a206e657720696d706c656d656e746174696f6e206973206e60448201527f6f74206120636f6e7472616374000000000000000000000000000000000000006064820152608401610ae1565b7f360894a13ba1a3210667c828492db98dca3e2076cc3735a920a3ca505d382bbc80546001600160a01b0319166001600160a01b0392909216919091179055565b6060823b6136735760405162461bcd60e51b815260206004820152602660248201527f416464726573733a2064656c65676174652063616c6c20746f206e6f6e2d636f60448201527f6e747261637400000000000000000000000000000000000000000000000000006064820152608401610ae1565b600080846001600160a01b03168460405161368e919061420d565b600060405180830381855af49150503d80600081146136c9576040519150601f19603f3d011682016040523d82523d6000602084013e6136ce565b606091505b50915091506136f682826040518060600160405280602781526020016144cd60279139613ade565b95945050505050565b61370881613548565b6040516001600160a01b038216907fbc7cd75a20ee27fd9adebab32041f755214dbc6bffa90cc0225b39da2e5c2d3b90600090a250565b600054610100900460ff16611d7f5760405162461bcd60e51b815260206004820152602b60248201527f496e697469616c697a61626c653a20636f6e7472616374206973206e6f74206960448201526a6e697469616c697a696e6760a81b6064820152608401610ae1565b600054610100900460ff166138155760405162461bcd60e51b815260206004820152602b60248201527f496e697469616c697a61626c653a20636f6e7472616374206973206e6f74206960448201526a6e697469616c697a696e6760a81b6064820152608401610ae1565b8151613828906065906020850190613c65565b508051610d85906066906020840190613c65565b600054610100900460ff166138a75760405162461bcd60e51b815260206004820152602b60248201527f496e697469616c697a61626c653a20636f6e7472616374206973206e6f74206960448201526a6e697469616c697a696e6760a81b6064820152608401610ae1565b6097805460ff19169055565b6138bd8383613b17565b6138ca6000848484613931565b610d855760405162461bcd60e51b815260206004820152603260248201527f4552433732313a207472616e7366657220746f206e6f6e20455243373231526560448201527131b2b4bb32b91034b6b83632b6b2b73a32b960711b6064820152608401610ae1565b60006001600160a01b0384163b15613a6f57604051630a85bd0160e11b81526001600160a01b0385169063150b7a0290613975903390899088908890600401614473565b6020604051808303816000875af19250505080156139b0575060408051601f3d908101601f191682019092526139ad918101906144af565b60015b613a55573d8080156139de576040519150601f19603f3d011682016040523d82523d6000602084013e6139e3565b606091505b508051613a4d5760405162461bcd60e51b815260206004820152603260248201527f4552433732313a207472616e7366657220746f206e6f6e20455243373231526560448201527131b2b4bb32b91034b6b83632b6b2b73a32b960711b6064820152608401610ae1565b805181602001fd5b6001600160e01b031916630a85bd0160e11b149050611c9a565b506001611c9a565b60975460ff1615610d855760405162461bcd60e51b815260206004820152602b60248201527f4552433732315061757361626c653a20746f6b656e207472616e73666572207760448201526a1a1a5b19481c185d5cd95960aa1b6064820152608401610ae1565b60608315613aed575081612090565b825115613afd5782518084602001fd5b8160405162461bcd60e51b8152600401610ae19190613ea1565b6001600160a01b038216613b6d5760405162461bcd60e51b815260206004820181905260248201527f4552433732313a206d696e7420746f20746865207a65726f20616464726573736044820152606401610ae1565b6000818152606760205260409020546001600160a01b031615613bd25760405162461bcd60e51b815260206004820152601c60248201527f4552433732313a20746f6b656e20616c7265616479206d696e746564000000006044820152606401610ae1565b613bde600083836134c0565b6001600160a01b0382166000908152606860205260408120805460019290613c0790849061441d565b909155505060008181526067602052604080822080546001600160a01b0319166001600160a01b03861690811790915590518392907fddf252ad1be2c89b69c2b068fc378daa952ba7f163c4a11628f55a4df523b3ef908290a45050565b828054613c7190614246565b90600052602060002090601f016020900481019282613c935760008555613cd9565b82601f10613cac57805160ff1916838001178555613cd9565b82800160010185558215613cd9579182015b82811115613cd9578251825591602001919060010190613cbe565b50613ce5929150613d5d565b5090565b828054613cf590614246565b90600052602060002090601f016020900481019282613d175760008555613cd9565b82601f10613d305782800160ff19823516178555613cd9565b82800160010185558215613cd9579182015b82811115613cd9578235825591602001919060010190613d42565b5b80821115613ce55760008155600101613d5e565b6001600160e01b031981168114610f8b57600080fd5b600060208284031215613d9a57600080fd5b813561209081613d72565b60008083601f840112613db757600080fd5b50813567ffffffffffffffff811115613dcf57600080fd5b602083019150836020828501011115613de757600080fd5b9250929050565b60008060208385031215613e0157600080fd5b823567ffffffffffffffff811115613e1857600080fd5b613e2485828601613da5565b90969095509350505050565b600060208284031215613e4257600080fd5b5035919050565b60005b83811015613e64578181015183820152602001613e4c565b83811115611f005750506000910152565b60008151808452613e8d816020860160208601613e49565b601f01601f19169290920160200192915050565b6020815260006120906020830184613e75565b6001600160a01b0381168114610f8b57600080fd5b60008060408385031215613edc57600080fd5b8235613ee781613eb4565b946020939093013593505050565b600080600060608486031215613f0a57600080fd5b8335613f1581613eb4565b92506020840135613f2581613eb4565b929592945050506040919091013590565b600060208284031215613f4857600080fd5b813561209081613eb4565b60008060408385031215613f6657600080fd5b8235613f7181613eb4565b91506020830135613f8181613eb4565b809150509250929050565b634e487b7160e01b600052604160045260246000fd5b600067ffffffffffffffff80841115613fbd57613fbd613f8c565b604051601f8501601f19908116603f01168101908282118183101715613fe557613fe5613f8c565b81604052809350858152868686011115613ffe57600080fd5b858560208301376000602087830101525050509392505050565b600082601f83011261402957600080fd5b61209083833560208501613fa2565b6000806040838503121561404b57600080fd5b823561405681613eb4565b9150602083013567ffffffffffffffff81111561407257600080fd5b61407e85828601614018565b9150509250929050565b60006020828403121561409a57600080fd5b813567ffffffffffffffff8111156140b157600080fd5b8201601f810184136140c257600080fd5b611c9a84823560208401613fa2565b600080600080606085870312156140e757600080fd5b843567ffffffffffffffff8111156140fe57600080fd5b61410a87828801613da5565b909550935050602085013561411e81613eb4565b9150604085013561412e81613eb4565b939692955090935050565b8015158114610f8b57600080fd5b6000806040838503121561415a57600080fd5b823561416581613eb4565b91506020830135613f8181614139565b60006001600160a01b038086168352808516602084015250606060408301526136f66060830184613e75565b600080600080608085870312156141b757600080fd5b84356141c281613eb4565b935060208501356141d281613eb4565b925060408501359150606085013567ffffffffffffffff8111156141f557600080fd5b61420187828801614018565b91505092959194509250565b6000825161421f818460208701613e49565b9190910192915050565b60006020828403121561423b57600080fd5b815161209081614139565b600181811c9082168061425a57607f821691505b6020821081141561427b57634e487b7160e01b600052602260045260246000fd5b50919050565b600060208083526000845481600182811c9150808316806142a357607f831692505b8583108114156142c157634e487b7160e01b85526022600452602485fd5b8786018381526020018180156142de57600181146142ef5761431a565b60ff1986168252878201965061431a565b60008b81526020902060005b86811015614314578154848201529085019089016142fb565b83019750505b50949998505050505050505050565b604081528260408201528284606083013760006060848301015260006060601f19601f86011683010190506001600160a01b0383166020830152949350505050565b6000835161437d818460208801613e49565b835190830190614391818360208801613e49565b01949350505050565b634e487b7160e01b600052603260045260246000fd5b634e487b7160e01b600052601160045260246000fd5b600060ff821660ff84168060ff038211156143e3576143e36143b0565b019392505050565b60006000198214156143ff576143ff6143b0565b5060010190565b600082821015614418576144186143b0565b500390565b60008219821115614430576144306143b0565b500190565b634e487b7160e01b600052601260045260246000fd5b60008261445a5761445a614435565b500490565b60008261446e5761446e614435565b500690565b60006001600160a01b038087168352808616602084015250836040830152608060608301526144a56080830184613e75565b9695505050505050565b6000602082840312156144c157600080fd5b815161209081613d7256fe416464726573733a206c6f772d6c6576656c2064656c65676174652063616c6c206661696c6564a2646970667358221220e5e135c2d8cebd1398978257d968504b2c12b08cef00222e68084af51c7c5bc264736f6c634300080c0033",
  "linkReferences": {},
  "deployedLinkReferences": {}
}