{
  "_format": "hh-sol-artifact-1",
  "contractName": "ETSTagUpgrade",
  "sourceName": "contracts/utils/UUPS/UUPSTesting.sol",
  "abi": [
    {
      "anonymous": false,
      "inputs": [
        {
          "indexed": false,
          "internalType": "contract ETSAccessControls",
          "name": "previousAccessControls",
          "type": "address"
        },
        {
          "indexed": false,
          "internalType": "contract ETSAccessControls",
          "name": "newAccessControls",
          "type": "address"
        }
      ],
      "name": "AccessControlsUpdated",
      "type": "event"
    },
    {
      "anonymous": false,
      "inputs": [
        {
          "indexed": false,
          "internalType": "address",
          "name": "previousAdmin",
          "type": "address"
        },
        {
          "indexed": false,
          "internalType": "address",
          "name": "newAdmin",
          "type": "address"
        }
      ],
      "name": "AdminChanged",
      "type": "event"
    },
    {
      "anonymous": false,
      "inputs": [
        {
          "indexed": true,
          "internalType": "address",
          "name": "owner",
          "type": "address"
        },
        {
          "indexed": true,
          "internalType": "address",
          "name": "approved",
          "type": "address"
        },
        {
          "indexed": true,
          "internalType": "uint256",
          "name": "tokenId",
          "type": "uint256"
        }
      ],
      "name": "Approval",
      "type": "event"
    },
    {
      "anonymous": false,
      "inputs": [
        {
          "indexed": true,
          "internalType": "address",
          "name": "owner",
          "type": "address"
        },
        {
          "indexed": true,
          "internalType": "address",
          "name": "operator",
          "type": "address"
        },
        {
          "indexed": false,
          "internalType": "bool",
          "name": "approved",
          "type": "bool"
        }
      ],
      "name": "ApprovalForAll",
      "type": "event"
    },
    {
      "anonymous": false,
      "inputs": [
        {
          "indexed": true,
          "internalType": "address",
          "name": "beacon",
          "type": "address"
        }
      ],
      "name": "BeaconUpgraded",
      "type": "event"
    },
    {
      "anonymous": false,
      "inputs": [
        {
          "indexed": true,
          "internalType": "uint256",
          "name": "tokenId",
          "type": "uint256"
        },
        {
          "indexed": false,
          "internalType": "string",
          "name": "displayVersion",
          "type": "string"
        },
        {
          "indexed": true,
          "internalType": "address",
          "name": "publisher",
          "type": "address"
        },
        {
          "indexed": false,
          "internalType": "address",
          "name": "creator",
          "type": "address"
        }
      ],
      "name": "MintTag",
      "type": "event"
    },
    {
      "anonymous": false,
      "inputs": [
        {
          "indexed": false,
          "internalType": "string",
          "name": "baseURI",
          "type": "string"
        }
      ],
      "name": "NewBaseURI",
      "type": "event"
    },
    {
      "anonymous": false,
      "inputs": [
        {
          "indexed": false,
          "internalType": "uint256",
          "name": "originalOwnershipLength",
          "type": "uint256"
        },
        {
          "indexed": false,
          "internalType": "uint256",
          "name": "updatedOwnershipLength",
          "type": "uint256"
        }
      ],
      "name": "OwnershipTermLengthUpdated",
      "type": "event"
    },
    {
      "anonymous": false,
      "inputs": [
        {
          "indexed": false,
          "internalType": "address",
          "name": "account",
          "type": "address"
        }
      ],
      "name": "Paused",
      "type": "event"
    },
    {
      "anonymous": false,
      "inputs": [
        {
          "indexed": false,
          "internalType": "address",
          "name": "previousPlatformAddress",
          "type": "address"
        },
        {
          "indexed": false,
          "internalType": "address",
          "name": "newPlatformAddress",
          "type": "address"
        }
      ],
      "name": "PlatformSet",
      "type": "event"
    },
    {
      "anonymous": false,
      "inputs": [
        {
          "indexed": false,
          "internalType": "uint256",
          "name": "originalRenewalPeriod",
          "type": "uint256"
        },
        {
          "indexed": false,
          "internalType": "uint256",
          "name": "updatedRenewalPeriod",
          "type": "uint256"
        }
      ],
      "name": "RenewalPeriodUpdated",
      "type": "event"
    },
    {
      "anonymous": false,
      "inputs": [
        {
          "indexed": true,
          "internalType": "uint256",
          "name": "tokenId",
          "type": "uint256"
        }
      ],
      "name": "TagBurned",
      "type": "event"
    },
    {
      "anonymous": false,
      "inputs": [
        {
          "indexed": false,
          "internalType": "uint256",
          "name": "previousMaxStringLength",
          "type": "uint256"
        },
        {
          "indexed": false,
          "internalType": "uint256",
          "name": "newMaxStringLength",
          "type": "uint256"
        }
      ],
      "name": "TagMaxStringLengthUpdated",
      "type": "event"
    },
    {
      "anonymous": false,
      "inputs": [
        {
          "indexed": true,
          "internalType": "uint256",
          "name": "tokenId",
          "type": "uint256"
        },
        {
          "indexed": true,
          "internalType": "address",
          "name": "owner",
          "type": "address"
        }
      ],
      "name": "TagRecycled",
      "type": "event"
    },
    {
      "anonymous": false,
      "inputs": [
        {
          "indexed": true,
          "internalType": "uint256",
          "name": "tokenId",
          "type": "uint256"
        },
        {
          "indexed": true,
          "internalType": "address",
          "name": "caller",
          "type": "address"
        }
      ],
      "name": "TagRenewed",
      "type": "event"
    },
    {
      "anonymous": false,
      "inputs": [
        {
          "indexed": true,
          "internalType": "address",
          "name": "from",
          "type": "address"
        },
        {
          "indexed": true,
          "internalType": "address",
          "name": "to",
          "type": "address"
        },
        {
          "indexed": true,
          "internalType": "uint256",
          "name": "tokenId",
          "type": "uint256"
        }
      ],
      "name": "Transfer",
      "type": "event"
    },
    {
      "anonymous": false,
      "inputs": [
        {
          "indexed": false,
          "internalType": "address",
          "name": "account",
          "type": "address"
        }
      ],
      "name": "Unpaused",
      "type": "event"
    },
    {
      "anonymous": false,
      "inputs": [
        {
          "indexed": true,
          "internalType": "address",
          "name": "implementation",
          "type": "address"
        }
      ],
      "name": "Upgraded",
      "type": "event"
    },
    {
      "inputs": [],
      "name": "NAME",
      "outputs": [
        {
          "internalType": "string",
          "name": "",
          "type": "string"
        }
      ],
      "stateMutability": "view",
      "type": "function"
    },
    {
      "inputs": [],
      "name": "VERSION",
      "outputs": [
        {
          "internalType": "string",
          "name": "",
          "type": "string"
        }
      ],
      "stateMutability": "view",
      "type": "function"
    },
    {
      "inputs": [],
      "name": "accessControls",
      "outputs": [
        {
          "internalType": "contract ETSAccessControls",
          "name": "",
          "type": "address"
        }
      ],
      "stateMutability": "view",
      "type": "function"
    },
    {
      "inputs": [
        {
          "internalType": "address",
          "name": "to",
          "type": "address"
        },
        {
          "internalType": "uint256",
          "name": "tokenId",
          "type": "uint256"
        }
      ],
      "name": "approve",
      "outputs": [],
      "stateMutability": "nonpayable",
      "type": "function"
    },
    {
      "inputs": [
        {
          "internalType": "address",
          "name": "owner",
          "type": "address"
        }
      ],
      "name": "balanceOf",
      "outputs": [
        {
          "internalType": "uint256",
          "name": "",
          "type": "uint256"
        }
      ],
      "stateMutability": "view",
      "type": "function"
    },
    {
      "inputs": [],
      "name": "baseURI",
      "outputs": [
        {
          "internalType": "string",
          "name": "",
          "type": "string"
        }
      ],
      "stateMutability": "view",
      "type": "function"
    },
    {
      "inputs": [
        {
          "internalType": "uint256",
          "name": "tokenId",
          "type": "uint256"
        }
      ],
      "name": "burn",
      "outputs": [],
      "stateMutability": "nonpayable",
      "type": "function"
    },
    {
      "inputs": [
        {
          "internalType": "string",
          "name": "_tag",
          "type": "string"
        }
      ],
      "name": "computeTagId",
      "outputs": [
        {
          "internalType": "uint256",
          "name": "",
          "type": "uint256"
        }
      ],
      "stateMutability": "pure",
      "type": "function"
    },
    {
      "inputs": [
        {
          "internalType": "uint256",
          "name": "tokenId",
          "type": "uint256"
        }
      ],
      "name": "exists",
      "outputs": [
        {
          "internalType": "bool",
          "name": "",
          "type": "bool"
        }
      ],
      "stateMutability": "view",
      "type": "function"
    },
    {
      "inputs": [
        {
          "internalType": "uint256",
          "name": "tokenId",
          "type": "uint256"
        }
      ],
      "name": "getApproved",
      "outputs": [
        {
          "internalType": "address",
          "name": "",
          "type": "address"
        }
      ],
      "stateMutability": "view",
      "type": "function"
    },
    {
      "inputs": [
        {
          "internalType": "uint256",
          "name": "_tokenId",
          "type": "uint256"
        }
      ],
      "name": "getCreatorAddress",
      "outputs": [
        {
          "internalType": "address",
          "name": "_creator",
          "type": "address"
        }
      ],
      "stateMutability": "view",
      "type": "function"
    },
    {
      "inputs": [
        {
          "internalType": "uint256",
          "name": "_tokenId",
          "type": "uint256"
        }
      ],
      "name": "getPaymentAddresses",
      "outputs": [
        {
          "internalType": "address payable",
          "name": "_platform",
          "type": "address"
        },
        {
          "internalType": "address payable",
          "name": "_owner",
          "type": "address"
        }
      ],
      "stateMutability": "view",
      "type": "function"
    },
    {
      "inputs": [
        {
          "internalType": "contract ETSAccessControls",
          "name": "_accessControls",
          "type": "address"
        },
        {
          "internalType": "address payable",
          "name": "_platform",
          "type": "address"
        }
      ],
      "name": "initialize",
      "outputs": [],
      "stateMutability": "nonpayable",
      "type": "function"
    },
    {
      "inputs": [
        {
          "internalType": "address",
          "name": "owner",
          "type": "address"
        },
        {
          "internalType": "address",
          "name": "operator",
          "type": "address"
        }
      ],
      "name": "isApprovedForAll",
      "outputs": [
        {
          "internalType": "bool",
          "name": "",
          "type": "bool"
        }
      ],
      "stateMutability": "view",
      "type": "function"
    },
    {
      "inputs": [
        {
          "internalType": "string",
          "name": "_tag",
          "type": "string"
        },
        {
          "internalType": "address payable",
          "name": "_publisher",
          "type": "address"
        },
        {
          "internalType": "address",
          "name": "_creator",
          "type": "address"
        }
      ],
      "name": "mint",
      "outputs": [
        {
          "internalType": "uint256",
          "name": "_tokenId",
          "type": "uint256"
        }
      ],
      "stateMutability": "payable",
      "type": "function"
    },
    {
      "inputs": [],
      "name": "name",
      "outputs": [
        {
          "internalType": "string",
          "name": "",
          "type": "string"
        }
      ],
      "stateMutability": "view",
      "type": "function"
    },
    {
      "inputs": [
        {
          "internalType": "uint256",
          "name": "tokenId",
          "type": "uint256"
        }
      ],
      "name": "ownerOf",
      "outputs": [
        {
          "internalType": "address",
          "name": "",
          "type": "address"
        }
      ],
      "stateMutability": "view",
      "type": "function"
    },
    {
      "inputs": [],
      "name": "ownershipTermLength",
      "outputs": [
        {
          "internalType": "uint256",
          "name": "",
          "type": "uint256"
        }
      ],
      "stateMutability": "view",
      "type": "function"
    },
    {
      "inputs": [],
      "name": "pause",
      "outputs": [],
      "stateMutability": "nonpayable",
      "type": "function"
    },
    {
      "inputs": [],
      "name": "paused",
      "outputs": [
        {
          "internalType": "bool",
          "name": "",
          "type": "bool"
        }
      ],
      "stateMutability": "view",
      "type": "function"
    },
    {
      "inputs": [],
      "name": "platform",
      "outputs": [
        {
          "internalType": "address payable",
          "name": "",
          "type": "address"
        }
      ],
      "stateMutability": "view",
      "type": "function"
    },
    {
      "inputs": [
        {
          "internalType": "uint256",
          "name": "_tokenId",
          "type": "uint256"
        }
      ],
      "name": "recycleTag",
      "outputs": [],
      "stateMutability": "nonpayable",
      "type": "function"
    },
    {
      "inputs": [
        {
          "internalType": "uint256",
          "name": "_tokenId",
          "type": "uint256"
        }
      ],
      "name": "renewTag",
      "outputs": [],
      "stateMutability": "nonpayable",
      "type": "function"
    },
    {
      "inputs": [
        {
          "internalType": "address",
          "name": "from",
          "type": "address"
        },
        {
          "internalType": "address",
          "name": "to",
          "type": "address"
        },
        {
          "internalType": "uint256",
          "name": "tokenId",
          "type": "uint256"
        }
      ],
      "name": "safeTransferFrom",
      "outputs": [],
      "stateMutability": "nonpayable",
      "type": "function"
    },
    {
      "inputs": [
        {
          "internalType": "address",
          "name": "from",
          "type": "address"
        },
        {
          "internalType": "address",
          "name": "to",
          "type": "address"
        },
        {
          "internalType": "uint256",
          "name": "tokenId",
          "type": "uint256"
        },
        {
          "internalType": "bytes",
          "name": "_data",
          "type": "bytes"
        }
      ],
      "name": "safeTransferFrom",
      "outputs": [],
      "stateMutability": "nonpayable",
      "type": "function"
    },
    {
      "inputs": [
        {
          "internalType": "address",
          "name": "operator",
          "type": "address"
        },
        {
          "internalType": "bool",
          "name": "approved",
          "type": "bool"
        }
      ],
      "name": "setApprovalForAll",
      "outputs": [],
      "stateMutability": "nonpayable",
      "type": "function"
    },
    {
      "inputs": [
        {
          "internalType": "string",
          "name": "newBaseURI",
          "type": "string"
        }
      ],
      "name": "setBaseURI",
      "outputs": [],
      "stateMutability": "nonpayable",
      "type": "function"
    },
    {
      "inputs": [
        {
          "internalType": "uint256",
          "name": "_ownershipTermLength",
          "type": "uint256"
        }
      ],
      "name": "setOwnershipTermLength",
      "outputs": [],
      "stateMutability": "nonpayable",
      "type": "function"
    },
    {
      "inputs": [
        {
          "internalType": "address payable",
          "name": "_platform",
          "type": "address"
        }
      ],
      "name": "setPlatform",
      "outputs": [],
      "stateMutability": "nonpayable",
      "type": "function"
    },
    {
      "inputs": [
        {
          "internalType": "uint256",
          "name": "_tagMaxStringLength",
          "type": "uint256"
        }
      ],
      "name": "setTagMaxStringLength",
      "outputs": [],
      "stateMutability": "nonpayable",
      "type": "function"
    },
    {
      "inputs": [
        {
          "internalType": "bytes4",
          "name": "interfaceId",
          "type": "bytes4"
        }
      ],
      "name": "supportsInterface",
      "outputs": [
        {
          "internalType": "bool",
          "name": "",
          "type": "bool"
        }
      ],
      "stateMutability": "view",
      "type": "function"
    },
    {
      "inputs": [],
      "name": "symbol",
      "outputs": [
        {
          "internalType": "string",
          "name": "",
          "type": "string"
        }
      ],
      "stateMutability": "view",
      "type": "function"
    },
    {
      "inputs": [],
      "name": "tagMaxStringLength",
      "outputs": [
        {
          "internalType": "uint256",
          "name": "",
          "type": "uint256"
        }
      ],
      "stateMutability": "view",
      "type": "function"
    },
    {
      "inputs": [],
      "name": "tagMinStringLength",
      "outputs": [
        {
          "internalType": "uint256",
          "name": "",
          "type": "uint256"
        }
      ],
      "stateMutability": "view",
      "type": "function"
    },
    {
      "inputs": [
        {
          "internalType": "uint256",
          "name": "",
          "type": "uint256"
        }
      ],
      "name": "tokenIdToLastTransferTime",
      "outputs": [
        {
          "internalType": "uint256",
          "name": "",
          "type": "uint256"
        }
      ],
      "stateMutability": "view",
      "type": "function"
    },
    {
      "inputs": [
        {
          "internalType": "uint256",
          "name": "",
          "type": "uint256"
        }
      ],
      "name": "tokenIdToTag",
      "outputs": [
        {
          "internalType": "address",
          "name": "originalPublisher",
          "type": "address"
        },
        {
          "internalType": "address",
          "name": "creator",
          "type": "address"
        },
        {
          "internalType": "string",
          "name": "displayVersion",
          "type": "string"
        }
      ],
      "stateMutability": "view",
      "type": "function"
    },
    {
      "inputs": [],
      "name": "tokenPointer",
      "outputs": [
        {
          "internalType": "uint256",
          "name": "",
          "type": "uint256"
        }
      ],
      "stateMutability": "view",
      "type": "function"
    },
    {
      "inputs": [
        {
          "internalType": "uint256",
          "name": "tokenId",
          "type": "uint256"
        }
      ],
      "name": "tokenURI",
      "outputs": [
        {
          "internalType": "string",
          "name": "",
          "type": "string"
        }
      ],
      "stateMutability": "view",
      "type": "function"
    },
    {
      "inputs": [
        {
          "internalType": "address",
          "name": "from",
          "type": "address"
        },
        {
          "internalType": "address",
          "name": "to",
          "type": "address"
        },
        {
          "internalType": "uint256",
          "name": "tokenId",
          "type": "uint256"
        }
      ],
      "name": "transferFrom",
      "outputs": [],
      "stateMutability": "nonpayable",
      "type": "function"
    },
    {
      "inputs": [],
      "name": "unPause",
      "outputs": [],
      "stateMutability": "nonpayable",
      "type": "function"
    },
    {
      "inputs": [
        {
          "internalType": "contract ETSAccessControls",
          "name": "_accessControls",
          "type": "address"
        }
      ],
      "name": "updateAccessControls",
      "outputs": [],
      "stateMutability": "nonpayable",
      "type": "function"
    },
    {
      "inputs": [],
      "name": "upgradeTest",
      "outputs": [
        {
          "internalType": "bool",
          "name": "",
          "type": "bool"
        }
      ],
      "stateMutability": "pure",
      "type": "function"
    },
    {
      "inputs": [
        {
          "internalType": "address",
          "name": "newImplementation",
          "type": "address"
        }
      ],
      "name": "upgradeTo",
      "outputs": [],
      "stateMutability": "nonpayable",
      "type": "function"
    },
    {
      "inputs": [
        {
          "internalType": "address",
          "name": "newImplementation",
          "type": "address"
        },
        {
          "internalType": "bytes",
          "name": "data",
          "type": "bytes"
        }
      ],
      "name": "upgradeToAndCall",
      "outputs": [],
      "stateMutability": "payable",
      "type": "function"
    },
    {
      "inputs": [],
      "name": "version",
      "outputs": [
        {
          "internalType": "string",
          "name": "",
          "type": "string"
        }
      ],
      "stateMutability": "pure",
      "type": "function"
    }
  ],
  "bytecode": "0x60a06040523060805234801561001457600080fd5b5060805161445961004560003960008181610d4001528181610dc50152818161123601526112bb01526144596000f3fe6080604052600436106102f25760003560e01c80636ef3da941161018f578063ad014a5b116100e1578063e8d3e4b61161008a578063f66e762311610064578063f66e7623146108bc578063f7b188a5146108dc578063ffa1ad74146108f157600080fd5b8063e8d3e4b614610833578063e985e9c514610853578063f143fc611461089c57600080fd5b8063c157daea116100bb578063c157daea146107dc578063c87b56dd146107fc578063db7af5fb1461081c57600080fd5b8063ad014a5b14610776578063adf63cd2146107a5578063b88d4fde146107bc57600080fd5b8063878327ab11610143578063a22cb4651161011d578063a22cb465146106d3578063a30b4db9146106f3578063a3f4df7e1461072d57600080fd5b8063878327ab1461065057806390b467ea1461069057806395d89b41146106be57600080fd5b8063748365ef11610174578063748365ef146106075780637e6d945e146106285780638456cb591461063b57600080fd5b80636ef3da94146105c757806370a08231146105e757600080fd5b806342966c681161024857806354fd4d50116101fc5780636352211e116101d65780636352211e146105725780636945c5ea146105925780636c0360eb146105b257600080fd5b806354fd4d501461050c57806355f804b31461053a5780635c975abb1461055a57600080fd5b80634bde38c81161022d5780634bde38c8146104b85780634f1ef286146104d95780634f558e79146104ec57600080fd5b806342966c6814610478578063485cc9551461049857600080fd5b8063095ea7b3116102aa5780633659cfe6116102845780633659cfe6146104245780633d20b15c1461044457806342842e0e1461045857600080fd5b8063095ea7b3146103cd57806323b872dd146103ed5780632e6116301461040d57600080fd5b8063060defec116102db578063060defec1461035157806306fdde0314610373578063081812fc1461039557600080fd5b806301ffc9a7146102f7578063028316511461032c575b600080fd5b34801561030357600080fd5b50610317610312366004613cb8565b610922565b60405190151581526020015b60405180910390f35b34801561033857600080fd5b506103436101935481565b604051908152602001610323565b34801561035d57600080fd5b5061037161036c366004613cd5565b610933565b005b34801561037f57600080fd5b50610388610a54565b6040516103239190613d46565b3480156103a157600080fd5b506103b56103b0366004613cd5565b610ae6565b6040516001600160a01b039091168152602001610323565b3480156103d957600080fd5b506103716103e8366004613d6e565b610b7b565b3480156103f957600080fd5b50610371610408366004613d9a565b610cad565b34801561041957600080fd5b506103436101955481565b34801561043057600080fd5b5061037161043f366004613ddb565b610d35565b34801561045057600080fd5b506001610317565b34801561046457600080fd5b50610371610473366004613d9a565b610eb1565b34801561048457600080fd5b50610371610493366004613cd5565b610ecc565b3480156104a457600080fd5b506103716104b3366004613df8565b611053565b3480156104c457600080fd5b50610196546103b5906001600160a01b031681565b6103716104e7366004613edd565b61122b565b3480156104f857600080fd5b50610317610507366004613cd5565b611398565b34801561051857600080fd5b506040805180820190915260058152640302e322e360dc1b6020820152610388565b34801561054657600080fd5b50610371610555366004613f76565b6113b7565b34801561056657600080fd5b5060975460ff16610317565b34801561057e57600080fd5b506103b561058d366004613cd5565b6114cb565b34801561059e57600080fd5b506103716105ad366004613ddb565b611556565b3480156105be57600080fd5b50610388611686565b3480156105d357600080fd5b506103716105e2366004613ddb565b611715565b3480156105f357600080fd5b50610343610602366004613ddb565b6118c1565b34801561061357600080fd5b50610197546103b5906001600160a01b031681565b610343610636366004613fb8565b61195b565b34801561064757600080fd5b50610371611bc5565b34801561065c57600080fd5b5061067061066b366004613cd5565b611ca4565b604080516001600160a01b03938416815292909116602083015201610323565b34801561069c57600080fd5b506103436106ab366004613cd5565b6101996020526000908152604090205481565b3480156106ca57600080fd5b50610388611cc8565b3480156106df57600080fd5b506103716106ee36600461402e565b611cd7565b3480156106ff57600080fd5b506103b561070e366004613cd5565b600090815261019860205260409020600101546001600160a01b031690565b34801561073957600080fd5b506103886040518060400160405280600c81526020017f45545354414720546f6b656e000000000000000000000000000000000000000081525081565b34801561078257600080fd5b50610796610791366004613cd5565b611ce2565b6040516103239392919061405c565b3480156107b157600080fd5b506103436101945481565b3480156107c857600080fd5b506103716107d7366004614088565b611d9b565b3480156107e857600080fd5b506103716107f7366004613cd5565b611e29565b34801561080857600080fd5b50610388610817366004613cd5565b611ed1565b34801561082857600080fd5b506103436101925481565b34801561083f57600080fd5b5061037161084e366004613cd5565b611fba565b34801561085f57600080fd5b5061031761086e366004613df8565b6001600160a01b039182166000908152606a6020908152604080832093909416825291909152205460ff1690565b3480156108a857600080fd5b506103436108b73660046140f4565b612195565b3480156108c857600080fd5b506103716108d7366004613cd5565b6121b0565b3480156108e857600080fd5b506103716122c4565b3480156108fd57600080fd5b50610388604051806040016040528060058152602001640302e322e360dc1b81525081565b600061092d826123a1565b92915050565b610197546001600160a01b03166324d7806c336040516001600160e01b031960e084901b1681526001600160a01b039091166004820152602401602060405180830381865afa15801561098a573d6000803e3d6000fd5b505050506040513d601f19601f820116820180604052508101906109ae919061413d565b610a0d5760405162461bcd60e51b815260206004820152602560248201527f43616c6c6572206d75737420686176652061646d696e6973747261746f722061604482015264636365737360d81b60648201526084015b60405180910390fd5b61019580549082905560408051828152602081018490527f3bcd7d0ed4502e81afe37fd199a6a8e34e8d351fdafd54d97726970c18fdcd2b91015b60405180910390a15050565b606060658054610a639061415a565b80601f0160208091040260200160405190810160405280929190818152602001828054610a8f9061415a565b8015610adc5780601f10610ab157610100808354040283529160200191610adc565b820191906000526020600020905b815481529060010190602001808311610abf57829003601f168201915b5050505050905090565b6000818152606760205260408120546001600160a01b0316610b5f5760405162461bcd60e51b815260206004820152602c60248201527f4552433732313a20617070726f76656420717565727920666f72206e6f6e657860448201526b34b9ba32b73a103a37b5b2b760a11b6064820152608401610a04565b506000908152606960205260409020546001600160a01b031690565b6000610b86826114cb565b9050806001600160a01b0316836001600160a01b03161415610c105760405162461bcd60e51b815260206004820152602160248201527f4552433732313a20617070726f76616c20746f2063757272656e74206f776e6560448201527f72000000000000000000000000000000000000000000000000000000000000006064820152608401610a04565b336001600160a01b0382161480610c2c5750610c2c813361086e565b610c9e5760405162461bcd60e51b815260206004820152603860248201527f4552433732313a20617070726f76652063616c6c6572206973206e6f74206f7760448201527f6e6572206e6f7220617070726f76656420666f7220616c6c00000000000000006064820152608401610a04565b610ca8838361243c565b505050565b610cb8335b826124aa565b610d2a5760405162461bcd60e51b815260206004820152603160248201527f4552433732313a207472616e736665722063616c6c6572206973206e6f74206f60448201527f776e6572206e6f7220617070726f7665640000000000000000000000000000006064820152608401610a04565b610ca883838361259d565b306001600160a01b037f0000000000000000000000000000000000000000000000000000000000000000161415610dc35760405162461bcd60e51b815260206004820152602c60248201527f46756e6374696f6e206d7573742062652063616c6c6564207468726f7567682060448201526b19195b1959d85d1958d85b1b60a21b6064820152608401610a04565b7f00000000000000000000000000000000000000000000000000000000000000006001600160a01b0316610e1e7f360894a13ba1a3210667c828492db98dca3e2076cc3735a920a3ca505d382bbc546001600160a01b031690565b6001600160a01b031614610e895760405162461bcd60e51b815260206004820152602c60248201527f46756e6374696f6e206d7573742062652063616c6c6564207468726f7567682060448201526b6163746976652070726f787960a01b6064820152608401610a04565b610e9281612775565b60408051600080825260208201909252610eae9183919061284a565b50565b610ca883838360405180602001604052806000815250611d9b565b610197546001600160a01b03166324d7806c336040516001600160e01b031960e084901b1681526001600160a01b039091166004820152602401602060405180830381865afa158015610f23573d6000803e3d6000fd5b505050506040513d601f19601f82011682018060405250810190610f47919061413d565b610fa15760405162461bcd60e51b815260206004820152602560248201527f43616c6c6572206d75737420686176652061646d696e6973747261746f722061604482015264636365737360d81b6064820152608401610a04565b610faa33610cb2565b61101c5760405162461bcd60e51b815260206004820152603060248201527f4552433732314275726e61626c653a2063616c6c6572206973206e6f74206f7760448201527f6e6572206e6f7220617070726f766564000000000000000000000000000000006064820152608401610a04565b61102581612a0e565b60405181907f7f928e3c53f35086b51ff7b9bfd4651b14e8b9ccb0535aa4a085fb2881785b8290600090a250565b600054610100900460ff1661106e5760005460ff1615611072565b303b155b6110e45760405162461bcd60e51b815260206004820152602e60248201527f496e697469616c697a61626c653a20636f6e747261637420697320616c72656160448201527f647920696e697469616c697a65640000000000000000000000000000000000006064820152608401610a04565b600054610100900460ff16158015611106576000805461ffff19166101011790555b61117a6040518060400160405280601481526020017f457468657265756d2054616720536572766963650000000000000000000000008152506040518060400160405280600681526020017f4554535441470000000000000000000000000000000000000000000000000000815250612ab5565b611182612b3a565b61118a612bc5565b61019780546001600160a01b038086166001600160a01b0319928316179092556101968054928516929091169190911790556303c26700610192556040805180820190915260208082527f68747470733a2f2f6170692e686173687461672d70726f746f636f6c2e696f2f9181019182526112089161019191613b95565b506001610194556020610195558015610ca8576000805461ff0019169055505050565b306001600160a01b037f00000000000000000000000000000000000000000000000000000000000000001614156112b95760405162461bcd60e51b815260206004820152602c60248201527f46756e6374696f6e206d7573742062652063616c6c6564207468726f7567682060448201526b19195b1959d85d1958d85b1b60a21b6064820152608401610a04565b7f00000000000000000000000000000000000000000000000000000000000000006001600160a01b03166113147f360894a13ba1a3210667c828492db98dca3e2076cc3735a920a3ca505d382bbc546001600160a01b031690565b6001600160a01b03161461137f5760405162461bcd60e51b815260206004820152602c60248201527f46756e6374696f6e206d7573742062652063616c6c6564207468726f7567682060448201526b6163746976652070726f787960a01b6064820152608401610a04565b61138882612775565b6113948282600161284a565b5050565b6000818152606760205260408120546001600160a01b0316151561092d565b610197546001600160a01b03166324d7806c336040516001600160e01b031960e084901b1681526001600160a01b039091166004820152602401602060405180830381865afa15801561140e573d6000803e3d6000fd5b505050506040513d601f19601f82011682018060405250810190611432919061413d565b61148c5760405162461bcd60e51b815260206004820152602560248201527f43616c6c6572206d75737420686176652061646d696e6973747261746f722061604482015264636365737360d81b6064820152608401610a04565b6114996101918383613c19565b507f325d37e8fb549c86966f09bc3e6f62eb3afa93b255d6e3234338001f3d80bd86610191604051610a489190614195565b6000818152606760205260408120546001600160a01b03168061092d5760405162461bcd60e51b815260206004820152602960248201527f4552433732313a206f776e657220717565727920666f72206e6f6e657869737460448201527f656e7420746f6b656e00000000000000000000000000000000000000000000006064820152608401610a04565b610197546001600160a01b03166324d7806c336040516001600160e01b031960e084901b1681526001600160a01b039091166004820152602401602060405180830381865afa1580156115ad573d6000803e3d6000fd5b505050506040513d601f19601f820116820180604052508101906115d1919061413d565b61162b5760405162461bcd60e51b815260206004820152602560248201527f43616c6c6572206d75737420686176652061646d696e6973747261746f722061604482015264636365737360d81b6064820152608401610a04565b61019680546001600160a01b038381166001600160a01b031983168117909355604080519190921680825260208201939093527f0e8ce4b57fd24de168e9c8d76109cb59a7852e78b3575da1ba2077dd53d330ec9101610a48565b61019180546116949061415a565b80601f01602080910402602001604051908101604052809291908181526020018280546116c09061415a565b801561170d5780601f106116e25761010080835404028352916020019161170d565b820191906000526020600020905b8154815290600101906020018083116116f057829003601f168201915b505050505081565b610197546001600160a01b03166324d7806c336040516001600160e01b031960e084901b1681526001600160a01b039091166004820152602401602060405180830381865afa15801561176c573d6000803e3d6000fd5b505050506040513d601f19601f82011682018060405250810190611790919061413d565b6117ea5760405162461bcd60e51b815260206004820152602560248201527f43616c6c6572206d75737420686176652061646d696e6973747261746f722061604482015264636365737360d81b6064820152608401610a04565b6001600160a01b0381166118665760405162461bcd60e51b815260206004820152602b60248201527f4554535461672e757064617465416363657373436f6e74726f6c733a2043616e60448201527f6e6f74206265207a65726f0000000000000000000000000000000000000000006064820152608401610a04565b61019780546001600160a01b038381166001600160a01b031983168117909355604080519190921680825260208201939093527f31073599bfae2533a348dc816b0ce777b707aa9b67015ca2d86585e842b5c6e99101610a48565b60006001600160a01b03821661193f5760405162461bcd60e51b815260206004820152602a60248201527f4552433732313a2062616c616e636520717565727920666f7220746865207a6560448201527f726f2061646472657373000000000000000000000000000000000000000000006064820152608401610a04565b506001600160a01b031660009081526068602052604090205490565b610197546040517f41859ac80000000000000000000000000000000000000000000000000000000081526001600160a01b03848116600483015260009216906341859ac890602401602060405180830381865afa1580156119c0573d6000803e3d6000fd5b505050506040513d601f19601f820116820180604052508101906119e4919061413d565b611a565760405162461bcd60e51b815260206004820152602760248201527f4d696e743a20546865207075626c6973686572206d757374206265207768697460448201527f656c6973746564000000000000000000000000000000000000000000000000006064820152608401610a04565b6000611a9786868080601f016020809104026020016040519081016040528093929190818152602001838380828437600092019190915250612c4092505050565b61019654909150611ab1906001600160a01b031682612eb4565b6040518060600160405280856001600160a01b03168152602001846001600160a01b0316815260200187878080601f01602080910402602001604051908101604052809392919081815260200183838082843760009201829052509390945250508381526101986020908152604091829020845181546001600160a01b039182166001600160a01b031991821617835586840151600184018054919093169116179055918401518051929350611b709260028501929190910190613b95565b50905050836001600160a01b0316817f85d182e335717d2d833be448c2f6a5864b8514dfeb8cda8f0fbac14f5157f0be888887604051611bb29392919061423d565b60405180910390a390505b949350505050565b610197546001600160a01b03166324d7806c336040516001600160e01b031960e084901b1681526001600160a01b039091166004820152602401602060405180830381865afa158015611c1c573d6000803e3d6000fd5b505050506040513d601f19601f82011682018060405250810190611c40919061413d565b611c9a5760405162461bcd60e51b815260206004820152602560248201527f43616c6c6572206d75737420686176652061646d696e6973747261746f722061604482015264636365737360d81b6064820152608401610a04565b611ca2612ece565b565b6101965460009081906001600160a01b0316611cbf846114cb565b91509150915091565b606060668054610a639061415a565b611394338383612f73565b610198602052600090815260409020805460018201546002830180546001600160a01b03938416949290931692611d189061415a565b80601f0160208091040260200160405190810160405280929190818152602001828054611d449061415a565b8015611d915780601f10611d6657610100808354040283529160200191611d91565b820191906000526020600020905b815481529060010190602001808311611d7457829003601f168201915b5050505050905083565b611da533836124aa565b611e175760405162461bcd60e51b815260206004820152603160248201527f4552433732313a207472616e736665722063616c6c6572206973206e6f74206f60448201527f776e6572206e6f7220617070726f7665640000000000000000000000000000006064820152608401610a04565b611e2384848484613042565b50505050565b611e32816114cb565b6001600160a01b0316336001600160a01b031614611e925760405162461bcd60e51b815260206004820152601860248201527f72656e65775461673a20496e76616c69642073656e64657200000000000000006044820152606401610a04565b6000818152610199602052604080822042905551339183917faa0c0591942aff60e66bde156168c9a47ef843534b433bbaa33e62d1410f4f2c9190a350565b6000818152606760205260409020546060906001600160a01b0316611f5e5760405162461bcd60e51b815260206004820152602f60248201527f4552433732314d657461646174613a2055524920717565727920666f72206e6f60448201527f6e6578697374656e7420746f6b656e00000000000000000000000000000000006064820152608401610a04565b6000611f686130c0565b90506000815111611f885760405180602001604052806000815250611fb3565b80611f92846130d0565b604051602001611fa392919061427f565b6040516020818303038152906040525b9392505050565b6000818152606760205260409020546001600160a01b031661201e5760405162461bcd60e51b815260206004820152601c60248201527f72656379636c655461673a20496e76616c696420746f6b656e204944000000006044820152606401610a04565b610196546001600160a01b0316612034826114cb565b6001600160a01b031614156120b15760405162461bcd60e51b815260206004820152602d60248201527f72656379636c655461673a2054616720616c7265616479206f776e656420627960448201527f2074686520706c6174666f726d000000000000000000000000000000000000006064820152608401610a04565b600081815261019960205260409020546101925442906120d29083906131ea565b106121455760405162461bcd60e51b815260206004820152603060248201527f72656379636c655461673a20546f6b656e206e6f7420656c696769626c65206660448201527f6f722072656379636c696e6720796574000000000000000000000000000000006064820152608401610a04565b612164612151836114cb565b610196546001600160a01b03168461259d565b604051339083907f0f842a1659c86d6e422461459fb2ab6fa8af886fd1cf9978a73dd299f23ccc7a90600090a35050565b6000806121a1836131f6565b80516020909101209392505050565b610197546001600160a01b03166324d7806c336040516001600160e01b031960e084901b1681526001600160a01b039091166004820152602401602060405180830381865afa158015612207573d6000803e3d6000fd5b505050506040513d601f19601f8201168201806040525081019061222b919061413d565b6122855760405162461bcd60e51b815260206004820152602560248201527f43616c6c6572206d75737420686176652061646d696e6973747261746f722061604482015264636365737360d81b6064820152608401610a04565b61019280549082905560408051828152602081018490527f7550fd28481dfa2a7590562881c3fffa398e97624ad6eeae494cf36c51e2a9069101610a48565b610197546001600160a01b03166324d7806c336040516001600160e01b031960e084901b1681526001600160a01b039091166004820152602401602060405180830381865afa15801561231b573d6000803e3d6000fd5b505050506040513d601f19601f8201168201806040525081019061233f919061413d565b6123995760405162461bcd60e51b815260206004820152602560248201527f43616c6c6572206d75737420686176652061646d696e6973747261746f722061604482015264636365737360d81b6064820152608401610a04565b611ca261336d565b60006001600160e01b031982167f80ac58cd00000000000000000000000000000000000000000000000000000000148061240457506001600160e01b031982167f5b5e139f00000000000000000000000000000000000000000000000000000000145b8061092d57507f01ffc9a7000000000000000000000000000000000000000000000000000000006001600160e01b031983161461092d565b600081815260696020526040902080546001600160a01b0319166001600160a01b0384169081179091558190612471826114cb565b6001600160a01b03167f8c5be1e5ebec7d5bd14f71427d1e84f3dd0314c0f7b2291e5b200ac8c7c3b92560405160405180910390a45050565b6000818152606760205260408120546001600160a01b03166125235760405162461bcd60e51b815260206004820152602c60248201527f4552433732313a206f70657261746f7220717565727920666f72206e6f6e657860448201526b34b9ba32b73a103a37b5b2b760a11b6064820152608401610a04565b600061252e836114cb565b9050806001600160a01b0316846001600160a01b031614806125695750836001600160a01b031661255e84610ae6565b6001600160a01b0316145b80611bbd57506001600160a01b038082166000908152606a602090815260408083209388168352929052205460ff16611bbd565b826001600160a01b03166125b0826114cb565b6001600160a01b03161461262c5760405162461bcd60e51b815260206004820152602960248201527f4552433732313a207472616e73666572206f6620746f6b656e2074686174206960448201527f73206e6f74206f776e00000000000000000000000000000000000000000000006064820152608401610a04565b6001600160a01b0382166126a75760405162461bcd60e51b8152602060048201526024808201527f4552433732313a207472616e7366657220746f20746865207a65726f2061646460448201527f72657373000000000000000000000000000000000000000000000000000000006064820152608401610a04565b6126b28383836133f0565b6126bd60008261243c565b6001600160a01b03831660009081526068602052604081208054600192906126e69084906142c4565b90915550506001600160a01b03821660009081526068602052604081208054600192906127149084906142db565b909155505060008181526067602052604080822080546001600160a01b0319166001600160a01b0386811691821790925591518493918716917fddf252ad1be2c89b69c2b068fc378daa952ba7f163c4a11628f55a4df523b3ef91a4505050565b610197546001600160a01b03166324d7806c336040516001600160e01b031960e084901b1681526001600160a01b039091166004820152602401602060405180830381865afa1580156127cc573d6000803e3d6000fd5b505050506040513d601f19601f820116820180604052508101906127f0919061413d565b610eae5760405162461bcd60e51b815260206004820152602560248201527f43616c6c6572206d75737420686176652061646d696e6973747261746f722061604482015264636365737360d81b6064820152608401610a04565b600061287d7f360894a13ba1a3210667c828492db98dca3e2076cc3735a920a3ca505d382bbc546001600160a01b031690565b905061288884613478565b6000835111806128955750815b156128a6576128a4848461352d565b505b7f4910fdfa16fed3260ed0e7147f7cc6da11a60208b5b9406d12a635614ffd9143805460ff16612a0757805460ff191660011781556040516001600160a01b038316602482015261295390869060440160408051601f198184030181529190526020810180517bffffffffffffffffffffffffffffffffffffffffffffffffffffffff167f3659cfe60000000000000000000000000000000000000000000000000000000017905261352d565b50805460ff191681557f360894a13ba1a3210667c828492db98dca3e2076cc3735a920a3ca505d382bbc546001600160a01b038381169116146129fe5760405162461bcd60e51b815260206004820152602f60248201527f45524331393637557067726164653a207570677261646520627265616b73206660448201527f75727468657220757067726164657300000000000000000000000000000000006064820152608401610a04565b612a078561362f565b5050505050565b6000612a19826114cb565b9050612a27816000846133f0565b612a3260008361243c565b6001600160a01b0381166000908152606860205260408120805460019290612a5b9084906142c4565b909155505060008281526067602052604080822080546001600160a01b0319169055518391906001600160a01b038416907fddf252ad1be2c89b69c2b068fc378daa952ba7f163c4a11628f55a4df523b3ef908390a45050565b600054610100900460ff16612b205760405162461bcd60e51b815260206004820152602b60248201527f496e697469616c697a61626c653a20636f6e7472616374206973206e6f74206960448201526a6e697469616c697a696e6760a81b6064820152608401610a04565b612b2861366f565b612b3061366f565b61139482826136da565b600054610100900460ff16612ba55760405162461bcd60e51b815260206004820152602b60248201527f496e697469616c697a61626c653a20636f6e7472616374206973206e6f74206960448201526a6e697469616c697a696e6760a81b6064820152608401610a04565b612bad61366f565b612bb561366f565b612bbd61376c565b611ca261366f565b600054610100900460ff16612c305760405162461bcd60e51b815260206004820152602b60248201527f496e697469616c697a61626c653a20636f6e7472616374206973206e6f74206960448201526a6e697469616c697a696e6760a81b6064820152608401610a04565b612c3861366f565b612bbd61366f565b600080612c4c83612195565b6000818152606760205260409020549091506001600160a01b031615612cb45760405162461bcd60e51b815260206004820152601c60248201527f4552433732313a20746f6b656e20616c7265616479206d696e746564000000006044820152606401610a04565b610194548351849111801590612cce575061019554815111155b612d405760405162461bcd60e51b815260206004820152603d60248201527f496e76616c696420666f726d61743a2074616720646f6573206e6f74206d656560448201527f74206d696e2f6d6178206c656e67746820726571756972656d656e74730000006064820152608401610a04565b80600081518110612d5357612d536142f3565b6020910101516001600160f81b0319167f230000000000000000000000000000000000000000000000000000000000000014612dd15760405162461bcd60e51b815260206004820152601560248201527f546167206d7573742073746172742077697468202300000000000000000000006044820152606401610a04565b60015b8151811015612eab576000828281518110612df157612df16142f3565b01602001516001600160f81b03191690507f2000000000000000000000000000000000000000000000000000000000000000811415612e985760405162461bcd60e51b815260206004820152602760248201527f537061636520666f756e643a20746167206d6179206e6f7420636f6e7461696e60448201527f20737061636573000000000000000000000000000000000000000000000000006064820152608401610a04565b5080612ea381614309565b915050612dd4565b50909392505050565b6113948282604051806020016040528060008152506137e3565b60975460ff1615612f215760405162461bcd60e51b815260206004820152601060248201527f5061757361626c653a20706175736564000000000000000000000000000000006044820152606401610a04565b6097805460ff191660011790557f62e78cea01bee320cd4e420270b5ea74000d11b0c9f74754ebdbfc544b05a258612f563390565b6040516001600160a01b03909116815260200160405180910390a1565b816001600160a01b0316836001600160a01b03161415612fd55760405162461bcd60e51b815260206004820152601960248201527f4552433732313a20617070726f766520746f2063616c6c6572000000000000006044820152606401610a04565b6001600160a01b038381166000818152606a6020908152604080832094871680845294825291829020805460ff191686151590811790915591519182527f17307eab39ab6107e8899845ad3d59bd9653f200f220920489ca2b5937696c31910160405180910390a3505050565b61304d84848461259d565b61305984848484613861565b611e235760405162461bcd60e51b815260206004820152603260248201527f4552433732313a207472616e7366657220746f206e6f6e20455243373231526560448201527131b2b4bb32b91034b6b83632b6b2b73a32b960711b6064820152608401610a04565b60606101918054610a639061415a565b60608161311057505060408051808201909152600181527f3000000000000000000000000000000000000000000000000000000000000000602082015290565b8160005b811561313a578061312481614309565b91506131339050600a8361433a565b9150613114565b60008167ffffffffffffffff81111561315557613155613e31565b6040519080825280601f01601f19166020018201604052801561317f576020820181803683370190505b5090505b8415611bbd576131946001836142c4565b91506131a1600a8661434e565b6131ac9060306142db565b60f81b8183815181106131c1576131c16142f3565b60200101906001600160f81b031916908160001a9053506131e3600a8661433a565b9450613183565b6000611fb382846142db565b606060008290506000815167ffffffffffffffff81111561321957613219613e31565b6040519080825280601f01601f191660200182016040528015613243576020820181803683370190505b50905060005b825181101561336557604160f81b838281518110613269576132696142f3565b01602001516001600160f81b031916108015906132aa5750605a60f81b838281518110613298576132986142f3565b01602001516001600160f81b03191611155b1561330c578281815181106132c1576132c16142f3565b602001015160f81c60f81b60f81c60206132db9190614362565b60f81b8282815181106132f0576132f06142f3565b60200101906001600160f81b031916908160001a905350613353565b82818151811061331e5761331e6142f3565b602001015160f81c60f81b82828151811061333b5761333b6142f3565b60200101906001600160f81b031916908160001a9053505b8061335d81614309565b915050613249565b509392505050565b60975460ff166133bf5760405162461bcd60e51b815260206004820152601460248201527f5061757361626c653a206e6f74207061757365640000000000000000000000006044820152606401610a04565b6097805460ff191690557f5db9ee0a495bf2e6ff9c91a7834c1ba4fdd244a5e8aa4e537bd38aeae4b073aa33612f56565b6133fb8383836139a7565b60975460ff16156134625760405162461bcd60e51b815260206004820152602b60248201527f4552433732315061757361626c653a20746f6b656e207472616e73666572207760448201526a1a1a5b19481c185d5cd95960aa1b6064820152608401610a04565b6000908152610199602052604090204290555050565b803b6134ec5760405162461bcd60e51b815260206004820152602d60248201527f455243313936373a206e657720696d706c656d656e746174696f6e206973206e60448201527f6f74206120636f6e7472616374000000000000000000000000000000000000006064820152608401610a04565b7f360894a13ba1a3210667c828492db98dca3e2076cc3735a920a3ca505d382bbc80546001600160a01b0319166001600160a01b0392909216919091179055565b6060823b6135a35760405162461bcd60e51b815260206004820152602660248201527f416464726573733a2064656c65676174652063616c6c20746f206e6f6e2d636f60448201527f6e747261637400000000000000000000000000000000000000000000000000006064820152608401610a04565b600080846001600160a01b0316846040516135be9190614387565b600060405180830381855af49150503d80600081146135f9576040519150601f19603f3d011682016040523d82523d6000602084013e6135fe565b606091505b509150915061362682826040518060600160405280602781526020016143fd60279139613a0e565b95945050505050565b61363881613478565b6040516001600160a01b038216907fbc7cd75a20ee27fd9adebab32041f755214dbc6bffa90cc0225b39da2e5c2d3b90600090a250565b600054610100900460ff16611ca25760405162461bcd60e51b815260206004820152602b60248201527f496e697469616c697a61626c653a20636f6e7472616374206973206e6f74206960448201526a6e697469616c697a696e6760a81b6064820152608401610a04565b600054610100900460ff166137455760405162461bcd60e51b815260206004820152602b60248201527f496e697469616c697a61626c653a20636f6e7472616374206973206e6f74206960448201526a6e697469616c697a696e6760a81b6064820152608401610a04565b8151613758906065906020850190613b95565b508051610ca8906066906020840190613b95565b600054610100900460ff166137d75760405162461bcd60e51b815260206004820152602b60248201527f496e697469616c697a61626c653a20636f6e7472616374206973206e6f74206960448201526a6e697469616c697a696e6760a81b6064820152608401610a04565b6097805460ff19169055565b6137ed8383613a47565b6137fa6000848484613861565b610ca85760405162461bcd60e51b815260206004820152603260248201527f4552433732313a207472616e7366657220746f206e6f6e20455243373231526560448201527131b2b4bb32b91034b6b83632b6b2b73a32b960711b6064820152608401610a04565b60006001600160a01b0384163b1561399f57604051630a85bd0160e11b81526001600160a01b0385169063150b7a02906138a59033908990889088906004016143a3565b6020604051808303816000875af19250505080156138e0575060408051601f3d908101601f191682019092526138dd918101906143df565b60015b613985573d80801561390e576040519150601f19603f3d011682016040523d82523d6000602084013e613913565b606091505b50805161397d5760405162461bcd60e51b815260206004820152603260248201527f4552433732313a207472616e7366657220746f206e6f6e20455243373231526560448201527131b2b4bb32b91034b6b83632b6b2b73a32b960711b6064820152608401610a04565b805181602001fd5b6001600160e01b031916630a85bd0160e11b149050611bbd565b506001611bbd565b60975460ff1615610ca85760405162461bcd60e51b815260206004820152602b60248201527f4552433732315061757361626c653a20746f6b656e207472616e73666572207760448201526a1a1a5b19481c185d5cd95960aa1b6064820152608401610a04565b60608315613a1d575081611fb3565b825115613a2d5782518084602001fd5b8160405162461bcd60e51b8152600401610a049190613d46565b6001600160a01b038216613a9d5760405162461bcd60e51b815260206004820181905260248201527f4552433732313a206d696e7420746f20746865207a65726f20616464726573736044820152606401610a04565b6000818152606760205260409020546001600160a01b031615613b025760405162461bcd60e51b815260206004820152601c60248201527f4552433732313a20746f6b656e20616c7265616479206d696e746564000000006044820152606401610a04565b613b0e600083836133f0565b6001600160a01b0382166000908152606860205260408120805460019290613b379084906142db565b909155505060008181526067602052604080822080546001600160a01b0319166001600160a01b03861690811790915590518392907fddf252ad1be2c89b69c2b068fc378daa952ba7f163c4a11628f55a4df523b3ef908290a45050565b828054613ba19061415a565b90600052602060002090601f016020900481019282613bc35760008555613c09565b82601f10613bdc57805160ff1916838001178555613c09565b82800160010185558215613c09579182015b82811115613c09578251825591602001919060010190613bee565b50613c15929150613c8d565b5090565b828054613c259061415a565b90600052602060002090601f016020900481019282613c475760008555613c09565b82601f10613c605782800160ff19823516178555613c09565b82800160010185558215613c09579182015b82811115613c09578235825591602001919060010190613c72565b5b80821115613c155760008155600101613c8e565b6001600160e01b031981168114610eae57600080fd5b600060208284031215613cca57600080fd5b8135611fb381613ca2565b600060208284031215613ce757600080fd5b5035919050565b60005b83811015613d09578181015183820152602001613cf1565b83811115611e235750506000910152565b60008151808452613d32816020860160208601613cee565b601f01601f19169290920160200192915050565b602081526000611fb36020830184613d1a565b6001600160a01b0381168114610eae57600080fd5b60008060408385031215613d8157600080fd5b8235613d8c81613d59565b946020939093013593505050565b600080600060608486031215613daf57600080fd5b8335613dba81613d59565b92506020840135613dca81613d59565b929592945050506040919091013590565b600060208284031215613ded57600080fd5b8135611fb381613d59565b60008060408385031215613e0b57600080fd5b8235613e1681613d59565b91506020830135613e2681613d59565b809150509250929050565b634e487b7160e01b600052604160045260246000fd5b600067ffffffffffffffff80841115613e6257613e62613e31565b604051601f8501601f19908116603f01168101908282118183101715613e8a57613e8a613e31565b81604052809350858152868686011115613ea357600080fd5b858560208301376000602087830101525050509392505050565b600082601f830112613ece57600080fd5b611fb383833560208501613e47565b60008060408385031215613ef057600080fd5b8235613efb81613d59565b9150602083013567ffffffffffffffff811115613f1757600080fd5b613f2385828601613ebd565b9150509250929050565b60008083601f840112613f3f57600080fd5b50813567ffffffffffffffff811115613f5757600080fd5b602083019150836020828501011115613f6f57600080fd5b9250929050565b60008060208385031215613f8957600080fd5b823567ffffffffffffffff811115613fa057600080fd5b613fac85828601613f2d565b90969095509350505050565b60008060008060608587031215613fce57600080fd5b843567ffffffffffffffff811115613fe557600080fd5b613ff187828801613f2d565b909550935050602085013561400581613d59565b9150604085013561401581613d59565b939692955090935050565b8015158114610eae57600080fd5b6000806040838503121561404157600080fd5b823561404c81613d59565b91506020830135613e2681614020565b60006001600160a01b038086168352808516602084015250606060408301526136266060830184613d1a565b6000806000806080858703121561409e57600080fd5b84356140a981613d59565b935060208501356140b981613d59565b925060408501359150606085013567ffffffffffffffff8111156140dc57600080fd5b6140e887828801613ebd565b91505092959194509250565b60006020828403121561410657600080fd5b813567ffffffffffffffff81111561411d57600080fd5b8201601f8101841361412e57600080fd5b611bbd84823560208401613e47565b60006020828403121561414f57600080fd5b8151611fb381614020565b600181811c9082168061416e57607f821691505b6020821081141561418f57634e487b7160e01b600052602260045260246000fd5b50919050565b600060208083526000845481600182811c9150808316806141b757607f831692505b8583108114156141d557634e487b7160e01b85526022600452602485fd5b8786018381526020018180156141f257600181146142035761422e565b60ff1986168252878201965061422e565b60008b81526020902060005b868110156142285781548482015290850190890161420f565b83019750505b50949998505050505050505050565b604081528260408201528284606083013760006060848301015260006060601f19601f86011683010190506001600160a01b0383166020830152949350505050565b60008351614291818460208801613cee565b8351908301906142a5818360208801613cee565b01949350505050565b634e487b7160e01b600052601160045260246000fd5b6000828210156142d6576142d66142ae565b500390565b600082198211156142ee576142ee6142ae565b500190565b634e487b7160e01b600052603260045260246000fd5b600060001982141561431d5761431d6142ae565b5060010190565b634e487b7160e01b600052601260045260246000fd5b60008261434957614349614324565b500490565b60008261435d5761435d614324565b500690565b600060ff821660ff84168060ff0382111561437f5761437f6142ae565b019392505050565b60008251614399818460208701613cee565b9190910192915050565b60006001600160a01b038087168352808616602084015250836040830152608060608301526143d56080830184613d1a565b9695505050505050565b6000602082840312156143f157600080fd5b8151611fb381613ca256fe416464726573733a206c6f772d6c6576656c2064656c65676174652063616c6c206661696c6564a26469706673582212209d80b7b8b531319e1958b0afcc4692785c63d3ae309fe61475f933156d93d1bb64736f6c634300080c0033",
  "linkReferences": {},
  "deployedLinkReferences": {}
}