{
  "_format": "hh-sol-artifact-1",
  "contractName": "ETSTagUpgrade",
  "sourceName": "contracts/utils/UUPS/UUPSTesting.sol",
  "abi": [
    {
      "anonymous": false,
      "inputs": [
        {
          "indexed": false,
          "internalType": "contract ETSAccessControls",
          "name": "previousAccessControls",
          "type": "address"
        },
        {
          "indexed": false,
          "internalType": "contract ETSAccessControls",
          "name": "newAccessControls",
          "type": "address"
        }
      ],
      "name": "AccessControlsUpdated",
      "type": "event"
    },
    {
      "anonymous": false,
      "inputs": [
        {
          "indexed": false,
          "internalType": "address",
          "name": "previousAdmin",
          "type": "address"
        },
        {
          "indexed": false,
          "internalType": "address",
          "name": "newAdmin",
          "type": "address"
        }
      ],
      "name": "AdminChanged",
      "type": "event"
    },
    {
      "anonymous": false,
      "inputs": [
        {
          "indexed": true,
          "internalType": "address",
          "name": "owner",
          "type": "address"
        },
        {
          "indexed": true,
          "internalType": "address",
          "name": "approved",
          "type": "address"
        },
        {
          "indexed": true,
          "internalType": "uint256",
          "name": "tokenId",
          "type": "uint256"
        }
      ],
      "name": "Approval",
      "type": "event"
    },
    {
      "anonymous": false,
      "inputs": [
        {
          "indexed": true,
          "internalType": "address",
          "name": "owner",
          "type": "address"
        },
        {
          "indexed": true,
          "internalType": "address",
          "name": "operator",
          "type": "address"
        },
        {
          "indexed": false,
          "internalType": "bool",
          "name": "approved",
          "type": "bool"
        }
      ],
      "name": "ApprovalForAll",
      "type": "event"
    },
    {
      "anonymous": false,
      "inputs": [
        {
          "indexed": true,
          "internalType": "address",
          "name": "beacon",
          "type": "address"
        }
      ],
      "name": "BeaconUpgraded",
      "type": "event"
    },
    {
      "anonymous": false,
      "inputs": [
        {
          "indexed": true,
          "internalType": "uint256",
          "name": "tokenId",
          "type": "uint256"
        },
        {
          "indexed": false,
          "internalType": "string",
          "name": "displayVersion",
          "type": "string"
        },
        {
          "indexed": true,
          "internalType": "address",
          "name": "publisher",
          "type": "address"
        },
        {
          "indexed": false,
          "internalType": "address",
          "name": "creator",
          "type": "address"
        }
      ],
      "name": "MintTag",
      "type": "event"
    },
    {
      "anonymous": false,
      "inputs": [
        {
          "indexed": false,
          "internalType": "string",
          "name": "baseURI",
          "type": "string"
        }
      ],
      "name": "NewBaseURI",
      "type": "event"
    },
    {
      "anonymous": false,
      "inputs": [
        {
          "indexed": false,
          "internalType": "uint256",
          "name": "originalOwnershipLength",
          "type": "uint256"
        },
        {
          "indexed": false,
          "internalType": "uint256",
          "name": "updatedOwnershipLength",
          "type": "uint256"
        }
      ],
      "name": "OwnershipTermLengthUpdated",
      "type": "event"
    },
    {
      "anonymous": false,
      "inputs": [
        {
          "indexed": false,
          "internalType": "address",
          "name": "account",
          "type": "address"
        }
      ],
      "name": "Paused",
      "type": "event"
    },
    {
      "anonymous": false,
      "inputs": [
        {
          "indexed": false,
          "internalType": "address",
          "name": "previousPlatformAddress",
          "type": "address"
        },
        {
          "indexed": false,
          "internalType": "address",
          "name": "newPlatformAddress",
          "type": "address"
        }
      ],
      "name": "PlatformSet",
      "type": "event"
    },
    {
      "anonymous": false,
      "inputs": [
        {
          "indexed": false,
          "internalType": "uint256",
          "name": "originalRenewalPeriod",
          "type": "uint256"
        },
        {
          "indexed": false,
          "internalType": "uint256",
          "name": "updatedRenewalPeriod",
          "type": "uint256"
        }
      ],
      "name": "RenewalPeriodUpdated",
      "type": "event"
    },
    {
      "anonymous": false,
      "inputs": [
        {
          "indexed": true,
          "internalType": "uint256",
          "name": "tokenId",
          "type": "uint256"
        }
      ],
      "name": "TagBurned",
      "type": "event"
    },
    {
      "anonymous": false,
      "inputs": [
        {
          "indexed": false,
          "internalType": "uint256",
          "name": "previousMaxStringLength",
          "type": "uint256"
        },
        {
          "indexed": false,
          "internalType": "uint256",
          "name": "newMaxStringLength",
          "type": "uint256"
        }
      ],
      "name": "TagMaxStringLengthUpdated",
      "type": "event"
    },
    {
      "anonymous": false,
      "inputs": [
        {
          "indexed": true,
          "internalType": "uint256",
          "name": "tokenId",
          "type": "uint256"
        },
        {
          "indexed": true,
          "internalType": "address",
          "name": "owner",
          "type": "address"
        }
      ],
      "name": "TagRecycled",
      "type": "event"
    },
    {
      "anonymous": false,
      "inputs": [
        {
          "indexed": true,
          "internalType": "uint256",
          "name": "tokenId",
          "type": "uint256"
        },
        {
          "indexed": true,
          "internalType": "address",
          "name": "caller",
          "type": "address"
        }
      ],
      "name": "TagRenewed",
      "type": "event"
    },
    {
      "anonymous": false,
      "inputs": [
        {
          "indexed": true,
          "internalType": "address",
          "name": "from",
          "type": "address"
        },
        {
          "indexed": true,
          "internalType": "address",
          "name": "to",
          "type": "address"
        },
        {
          "indexed": true,
          "internalType": "uint256",
          "name": "tokenId",
          "type": "uint256"
        }
      ],
      "name": "Transfer",
      "type": "event"
    },
    {
      "anonymous": false,
      "inputs": [
        {
          "indexed": false,
          "internalType": "address",
          "name": "account",
          "type": "address"
        }
      ],
      "name": "Unpaused",
      "type": "event"
    },
    {
      "anonymous": false,
      "inputs": [
        {
          "indexed": true,
          "internalType": "address",
          "name": "implementation",
          "type": "address"
        }
      ],
      "name": "Upgraded",
      "type": "event"
    },
    {
      "inputs": [],
      "name": "NAME",
      "outputs": [
        {
          "internalType": "string",
          "name": "",
          "type": "string"
        }
      ],
      "stateMutability": "view",
      "type": "function"
    },
    {
      "inputs": [],
      "name": "VERSION",
      "outputs": [
        {
          "internalType": "string",
          "name": "",
          "type": "string"
        }
      ],
      "stateMutability": "view",
      "type": "function"
    },
    {
      "inputs": [],
      "name": "accessControls",
      "outputs": [
        {
          "internalType": "contract ETSAccessControls",
          "name": "",
          "type": "address"
        }
      ],
      "stateMutability": "view",
      "type": "function"
    },
    {
      "inputs": [
        {
          "internalType": "address",
          "name": "to",
          "type": "address"
        },
        {
          "internalType": "uint256",
          "name": "tokenId",
          "type": "uint256"
        }
      ],
      "name": "approve",
      "outputs": [],
      "stateMutability": "nonpayable",
      "type": "function"
    },
    {
      "inputs": [
        {
          "internalType": "address",
          "name": "owner",
          "type": "address"
        }
      ],
      "name": "balanceOf",
      "outputs": [
        {
          "internalType": "uint256",
          "name": "",
          "type": "uint256"
        }
      ],
      "stateMutability": "view",
      "type": "function"
    },
    {
      "inputs": [],
      "name": "baseURI",
      "outputs": [
        {
          "internalType": "string",
          "name": "",
          "type": "string"
        }
      ],
      "stateMutability": "view",
      "type": "function"
    },
    {
      "inputs": [
        {
          "internalType": "uint256",
          "name": "tokenId",
          "type": "uint256"
        }
      ],
      "name": "burn",
      "outputs": [],
      "stateMutability": "nonpayable",
      "type": "function"
    },
    {
      "inputs": [
        {
          "internalType": "uint256",
          "name": "tokenId",
          "type": "uint256"
        }
      ],
      "name": "exists",
      "outputs": [
        {
          "internalType": "bool",
          "name": "",
          "type": "bool"
        }
      ],
      "stateMutability": "view",
      "type": "function"
    },
    {
      "inputs": [
        {
          "internalType": "uint256",
          "name": "tokenId",
          "type": "uint256"
        }
      ],
      "name": "getApproved",
      "outputs": [
        {
          "internalType": "address",
          "name": "",
          "type": "address"
        }
      ],
      "stateMutability": "view",
      "type": "function"
    },
    {
      "inputs": [
        {
          "internalType": "uint256",
          "name": "_tokenId",
          "type": "uint256"
        }
      ],
      "name": "getCreatorAddress",
      "outputs": [
        {
          "internalType": "address",
          "name": "_creator",
          "type": "address"
        }
      ],
      "stateMutability": "view",
      "type": "function"
    },
    {
      "inputs": [
        {
          "internalType": "uint256",
          "name": "_tokenId",
          "type": "uint256"
        }
      ],
      "name": "getPaymentAddresses",
      "outputs": [
        {
          "internalType": "address payable",
          "name": "_platform",
          "type": "address"
        },
        {
          "internalType": "address payable",
          "name": "_owner",
          "type": "address"
        }
      ],
      "stateMutability": "view",
      "type": "function"
    },
    {
      "inputs": [
        {
          "internalType": "string",
          "name": "tag",
          "type": "string"
        }
      ],
      "name": "getTagId",
      "outputs": [
        {
          "internalType": "uint256",
          "name": "etstagId",
          "type": "uint256"
        }
      ],
      "stateMutability": "view",
      "type": "function"
    },
    {
      "inputs": [
        {
          "internalType": "contract ETSAccessControls",
          "name": "_accessControls",
          "type": "address"
        },
        {
          "internalType": "address payable",
          "name": "_platform",
          "type": "address"
        }
      ],
      "name": "initialize",
      "outputs": [],
      "stateMutability": "nonpayable",
      "type": "function"
    },
    {
      "inputs": [
        {
          "internalType": "address",
          "name": "owner",
          "type": "address"
        },
        {
          "internalType": "address",
          "name": "operator",
          "type": "address"
        }
      ],
      "name": "isApprovedForAll",
      "outputs": [
        {
          "internalType": "bool",
          "name": "",
          "type": "bool"
        }
      ],
      "stateMutability": "view",
      "type": "function"
    },
    {
      "inputs": [
        {
          "internalType": "string",
          "name": "_tag",
          "type": "string"
        },
        {
          "internalType": "address payable",
          "name": "_publisher",
          "type": "address"
        },
        {
          "internalType": "address",
          "name": "_creator",
          "type": "address"
        }
      ],
      "name": "mint",
      "outputs": [
        {
          "internalType": "uint256",
          "name": "_tokenId",
          "type": "uint256"
        }
      ],
      "stateMutability": "payable",
      "type": "function"
    },
    {
      "inputs": [],
      "name": "name",
      "outputs": [
        {
          "internalType": "string",
          "name": "",
          "type": "string"
        }
      ],
      "stateMutability": "view",
      "type": "function"
    },
    {
      "inputs": [
        {
          "internalType": "uint256",
          "name": "tokenId",
          "type": "uint256"
        }
      ],
      "name": "ownerOf",
      "outputs": [
        {
          "internalType": "address",
          "name": "",
          "type": "address"
        }
      ],
      "stateMutability": "view",
      "type": "function"
    },
    {
      "inputs": [],
      "name": "ownershipTermLength",
      "outputs": [
        {
          "internalType": "uint256",
          "name": "",
          "type": "uint256"
        }
      ],
      "stateMutability": "view",
      "type": "function"
    },
    {
      "inputs": [],
      "name": "pause",
      "outputs": [],
      "stateMutability": "nonpayable",
      "type": "function"
    },
    {
      "inputs": [],
      "name": "paused",
      "outputs": [
        {
          "internalType": "bool",
          "name": "",
          "type": "bool"
        }
      ],
      "stateMutability": "view",
      "type": "function"
    },
    {
      "inputs": [],
      "name": "platform",
      "outputs": [
        {
          "internalType": "address payable",
          "name": "",
          "type": "address"
        }
      ],
      "stateMutability": "view",
      "type": "function"
    },
    {
      "inputs": [
        {
          "internalType": "uint256",
          "name": "_tokenId",
          "type": "uint256"
        }
      ],
      "name": "recycleTag",
      "outputs": [],
      "stateMutability": "nonpayable",
      "type": "function"
    },
    {
      "inputs": [
        {
          "internalType": "uint256",
          "name": "_tokenId",
          "type": "uint256"
        }
      ],
      "name": "renewTag",
      "outputs": [],
      "stateMutability": "nonpayable",
      "type": "function"
    },
    {
      "inputs": [
        {
          "internalType": "address",
          "name": "from",
          "type": "address"
        },
        {
          "internalType": "address",
          "name": "to",
          "type": "address"
        },
        {
          "internalType": "uint256",
          "name": "tokenId",
          "type": "uint256"
        }
      ],
      "name": "safeTransferFrom",
      "outputs": [],
      "stateMutability": "nonpayable",
      "type": "function"
    },
    {
      "inputs": [
        {
          "internalType": "address",
          "name": "from",
          "type": "address"
        },
        {
          "internalType": "address",
          "name": "to",
          "type": "address"
        },
        {
          "internalType": "uint256",
          "name": "tokenId",
          "type": "uint256"
        },
        {
          "internalType": "bytes",
          "name": "_data",
          "type": "bytes"
        }
      ],
      "name": "safeTransferFrom",
      "outputs": [],
      "stateMutability": "nonpayable",
      "type": "function"
    },
    {
      "inputs": [
        {
          "internalType": "address",
          "name": "operator",
          "type": "address"
        },
        {
          "internalType": "bool",
          "name": "approved",
          "type": "bool"
        }
      ],
      "name": "setApprovalForAll",
      "outputs": [],
      "stateMutability": "nonpayable",
      "type": "function"
    },
    {
      "inputs": [
        {
          "internalType": "string",
          "name": "newBaseURI",
          "type": "string"
        }
      ],
      "name": "setBaseURI",
      "outputs": [],
      "stateMutability": "nonpayable",
      "type": "function"
    },
    {
      "inputs": [
        {
          "internalType": "uint256",
          "name": "_ownershipTermLength",
          "type": "uint256"
        }
      ],
      "name": "setOwnershipTermLength",
      "outputs": [],
      "stateMutability": "nonpayable",
      "type": "function"
    },
    {
      "inputs": [
        {
          "internalType": "address payable",
          "name": "_platform",
          "type": "address"
        }
      ],
      "name": "setPlatform",
      "outputs": [],
      "stateMutability": "nonpayable",
      "type": "function"
    },
    {
      "inputs": [
        {
          "internalType": "uint256",
          "name": "_tagMaxStringLength",
          "type": "uint256"
        }
      ],
      "name": "setTagMaxStringLength",
      "outputs": [],
      "stateMutability": "nonpayable",
      "type": "function"
    },
    {
      "inputs": [
        {
          "internalType": "bytes4",
          "name": "interfaceId",
          "type": "bytes4"
        }
      ],
      "name": "supportsInterface",
      "outputs": [
        {
          "internalType": "bool",
          "name": "",
          "type": "bool"
        }
      ],
      "stateMutability": "view",
      "type": "function"
    },
    {
      "inputs": [],
      "name": "symbol",
      "outputs": [
        {
          "internalType": "string",
          "name": "",
          "type": "string"
        }
      ],
      "stateMutability": "view",
      "type": "function"
    },
    {
      "inputs": [],
      "name": "tagMaxStringLength",
      "outputs": [
        {
          "internalType": "uint256",
          "name": "",
          "type": "uint256"
        }
      ],
      "stateMutability": "view",
      "type": "function"
    },
    {
      "inputs": [],
      "name": "tagMinStringLength",
      "outputs": [
        {
          "internalType": "uint256",
          "name": "",
          "type": "uint256"
        }
      ],
      "stateMutability": "view",
      "type": "function"
    },
    {
      "inputs": [
        {
          "internalType": "string",
          "name": "",
          "type": "string"
        }
      ],
      "name": "tagToTokenId",
      "outputs": [
        {
          "internalType": "uint256",
          "name": "",
          "type": "uint256"
        }
      ],
      "stateMutability": "view",
      "type": "function"
    },
    {
      "inputs": [
        {
          "internalType": "uint256",
          "name": "",
          "type": "uint256"
        }
      ],
      "name": "tokenIdToLastTransferTime",
      "outputs": [
        {
          "internalType": "uint256",
          "name": "",
          "type": "uint256"
        }
      ],
      "stateMutability": "view",
      "type": "function"
    },
    {
      "inputs": [
        {
          "internalType": "uint256",
          "name": "",
          "type": "uint256"
        }
      ],
      "name": "tokenIdToTag",
      "outputs": [
        {
          "internalType": "address",
          "name": "originalPublisher",
          "type": "address"
        },
        {
          "internalType": "address",
          "name": "creator",
          "type": "address"
        },
        {
          "internalType": "string",
          "name": "displayVersion",
          "type": "string"
        },
        {
          "internalType": "string",
          "name": "machineName",
          "type": "string"
        }
      ],
      "stateMutability": "view",
      "type": "function"
    },
    {
      "inputs": [],
      "name": "tokenPointer",
      "outputs": [
        {
          "internalType": "uint256",
          "name": "",
          "type": "uint256"
        }
      ],
      "stateMutability": "view",
      "type": "function"
    },
    {
      "inputs": [
        {
          "internalType": "uint256",
          "name": "tokenId",
          "type": "uint256"
        }
      ],
      "name": "tokenURI",
      "outputs": [
        {
          "internalType": "string",
          "name": "",
          "type": "string"
        }
      ],
      "stateMutability": "view",
      "type": "function"
    },
    {
      "inputs": [
        {
          "internalType": "address",
          "name": "from",
          "type": "address"
        },
        {
          "internalType": "address",
          "name": "to",
          "type": "address"
        },
        {
          "internalType": "uint256",
          "name": "tokenId",
          "type": "uint256"
        }
      ],
      "name": "transferFrom",
      "outputs": [],
      "stateMutability": "nonpayable",
      "type": "function"
    },
    {
      "inputs": [],
      "name": "unPause",
      "outputs": [],
      "stateMutability": "nonpayable",
      "type": "function"
    },
    {
      "inputs": [
        {
          "internalType": "contract ETSAccessControls",
          "name": "_accessControls",
          "type": "address"
        }
      ],
      "name": "updateAccessControls",
      "outputs": [],
      "stateMutability": "nonpayable",
      "type": "function"
    },
    {
      "inputs": [],
      "name": "upgradeTest",
      "outputs": [
        {
          "internalType": "bool",
          "name": "",
          "type": "bool"
        }
      ],
      "stateMutability": "pure",
      "type": "function"
    },
    {
      "inputs": [
        {
          "internalType": "address",
          "name": "newImplementation",
          "type": "address"
        }
      ],
      "name": "upgradeTo",
      "outputs": [],
      "stateMutability": "nonpayable",
      "type": "function"
    },
    {
      "inputs": [
        {
          "internalType": "address",
          "name": "newImplementation",
          "type": "address"
        },
        {
          "internalType": "bytes",
          "name": "data",
          "type": "bytes"
        }
      ],
      "name": "upgradeToAndCall",
      "outputs": [],
      "stateMutability": "payable",
      "type": "function"
    },
    {
      "inputs": [],
      "name": "version",
      "outputs": [
        {
          "internalType": "string",
          "name": "",
          "type": "string"
        }
      ],
      "stateMutability": "pure",
      "type": "function"
    }
  ],
  "bytecode": "0x60a06040523060805234801561001457600080fd5b506080516145f961004560003960008181610ded01528181610e72015281816112e3015261136801526145f96000f3fe6080604052600436106102fd5760003560e01c80636ef3da941161018f578063a3f4df7e116100e1578063db7af5fb1161008a578063f66e762311610064578063f66e762314610901578063f7b188a514610921578063ffa1ad741461093657600080fd5b8063db7af5fb14610881578063e8d3e4b614610898578063e985e9c5146108b857600080fd5b8063b88d4fde116100bb578063b88d4fde14610821578063c157daea14610841578063c87b56dd1461086157600080fd5b8063a3f4df7e14610791578063ad014a5b146107da578063adf63cd21461080a57600080fd5b80638456cb591161014357806395d89b411161011d57806395d89b4114610722578063a22cb46514610737578063a30b4db91461075757600080fd5b80638456cb591461069f578063878327ab146106b457806390b467ea146106f457600080fd5b8063748365ef11610174578063748365ef146106325780637e3bd74b146106535780637e6d945e1461068c57600080fd5b80636ef3da94146105f257806370a082311461061257600080fd5b806342842e0e1161025357806354fd4d50116101fc5780636352211e116101d65780636352211e1461059d5780636945c5ea146105bd5780636c0360eb146105dd57600080fd5b806354fd4d501461053757806355f804b3146105655780635c975abb1461058557600080fd5b80634bde38c81161022d5780634bde38c8146104e35780634f1ef286146105045780634f558e791461051757600080fd5b806342842e0e1461048357806342966c68146104a3578063485cc955146104c357600080fd5b8063081812fc116102b55780632e6116301161028f5780632e611630146104385780633659cfe61461044f5780633d20b15c1461046f57600080fd5b8063081812fc146103c0578063095ea7b3146103f857806323b872dd1461041857600080fd5b806304befefd116102e657806304befefd1461035c578063060defec1461037c57806306fdde031461039e57600080fd5b806301ffc9a7146103025780630283165114610337575b600080fd5b34801561030e57600080fd5b5061032261031d366004613e3b565b610967565b60405190151581526020015b60405180910390f35b34801561034357600080fd5b5061034e6101935481565b60405190815260200161032e565b34801561036857600080fd5b5061034e610377366004613ea1565b610978565b34801561038857600080fd5b5061039c610397366004613ee3565b6109e0565b005b3480156103aa57600080fd5b506103b3610b01565b60405161032e9190613f54565b3480156103cc57600080fd5b506103e06103db366004613ee3565b610b93565b6040516001600160a01b03909116815260200161032e565b34801561040457600080fd5b5061039c610413366004613f7c565b610c28565b34801561042457600080fd5b5061039c610433366004613fa8565b610d5a565b34801561044457600080fd5b5061034e6101955481565b34801561045b57600080fd5b5061039c61046a366004613fe9565b610de2565b34801561047b57600080fd5b506001610322565b34801561048f57600080fd5b5061039c61049e366004613fa8565b610f5e565b3480156104af57600080fd5b5061039c6104be366004613ee3565b610f79565b3480156104cf57600080fd5b5061039c6104de366004614006565b611100565b3480156104ef57600080fd5b50610196546103e0906001600160a01b031681565b61039c6105123660046140eb565b6112d8565b34801561052357600080fd5b50610322610532366004613ee3565b611445565b34801561054357600080fd5b506040805180820190915260058152640302e322e360dc1b60208201526103b3565b34801561057157600080fd5b5061039c610580366004613ea1565b611464565b34801561059157600080fd5b5060975460ff16610322565b3480156105a957600080fd5b506103e06105b8366004613ee3565b611578565b3480156105c957600080fd5b5061039c6105d8366004613fe9565b611603565b3480156105e957600080fd5b506103b3611733565b3480156105fe57600080fd5b5061039c61060d366004613fe9565b6117c2565b34801561061e57600080fd5b5061034e61062d366004613fe9565b61196e565b34801561063e57600080fd5b50610197546103e0906001600160a01b031681565b34801561065f57600080fd5b5061034e61066e36600461413b565b80516020818301810180516101998252928201919093012091525481565b61034e61069a366004614184565b611a08565b3480156106ab57600080fd5b5061039c611ccb565b3480156106c057600080fd5b506106d46106cf366004613ee3565b611daa565b604080516001600160a01b0393841681529290911660208301520161032e565b34801561070057600080fd5b5061034e61070f366004613ee3565b61019a6020526000908152604090205481565b34801561072e57600080fd5b506103b3611dce565b34801561074357600080fd5b5061039c6107523660046141fa565b611ddd565b34801561076357600080fd5b506103e0610772366004613ee3565b600090815261019860205260409020600101546001600160a01b031690565b34801561079d57600080fd5b506103b36040518060400160405280600c81526020017f45545354414720546f6b656e000000000000000000000000000000000000000081525081565b3480156107e657600080fd5b506107fa6107f5366004613ee3565b611de8565b60405161032e9493929190614228565b34801561081657600080fd5b5061034e6101945481565b34801561082d57600080fd5b5061039c61083c366004614271565b611f2f565b34801561084d57600080fd5b5061039c61085c366004613ee3565b611fbd565b34801561086d57600080fd5b506103b361087c366004613ee3565b612065565b34801561088d57600080fd5b5061034e6101925481565b3480156108a457600080fd5b5061039c6108b3366004613ee3565b61214e565b3480156108c457600080fd5b506103226108d3366004614006565b6001600160a01b039182166000908152606a6020908152604080832093909416825291909152205460ff1690565b34801561090d57600080fd5b5061039c61091c366004613ee3565b612329565b34801561092d57600080fd5b5061039c61243d565b34801561094257600080fd5b506103b3604051806040016040528060058152602001640302e322e360dc1b81525081565b60006109728261251a565b92915050565b60006101996109bc84848080601f0160208091040260200160405190810160405280939291908181526020018383808284376000920191909152506125b592505050565b6040516109c991906142dd565b908152602001604051809103902054905092915050565b610197546001600160a01b03166324d7806c336040516001600160e01b031960e084901b1681526001600160a01b039091166004820152602401602060405180830381865afa158015610a37573d6000803e3d6000fd5b505050506040513d601f19601f82011682018060405250810190610a5b91906142f9565b610aba5760405162461bcd60e51b815260206004820152602560248201527f43616c6c6572206d75737420686176652061646d696e6973747261746f722061604482015264636365737360d81b60648201526084015b60405180910390fd5b61019580549082905560408051828152602081018490527f3bcd7d0ed4502e81afe37fd199a6a8e34e8d351fdafd54d97726970c18fdcd2b91015b60405180910390a15050565b606060658054610b1090614316565b80601f0160208091040260200160405190810160405280929190818152602001828054610b3c90614316565b8015610b895780601f10610b5e57610100808354040283529160200191610b89565b820191906000526020600020905b815481529060010190602001808311610b6c57829003601f168201915b5050505050905090565b6000818152606760205260408120546001600160a01b0316610c0c5760405162461bcd60e51b815260206004820152602c60248201527f4552433732313a20617070726f76656420717565727920666f72206e6f6e657860448201526b34b9ba32b73a103a37b5b2b760a11b6064820152608401610ab1565b506000908152606960205260409020546001600160a01b031690565b6000610c3382611578565b9050806001600160a01b0316836001600160a01b03161415610cbd5760405162461bcd60e51b815260206004820152602160248201527f4552433732313a20617070726f76616c20746f2063757272656e74206f776e6560448201527f72000000000000000000000000000000000000000000000000000000000000006064820152608401610ab1565b336001600160a01b0382161480610cd95750610cd981336108d3565b610d4b5760405162461bcd60e51b815260206004820152603860248201527f4552433732313a20617070726f76652063616c6c6572206973206e6f74206f7760448201527f6e6572206e6f7220617070726f76656420666f7220616c6c00000000000000006064820152608401610ab1565b610d55838361272c565b505050565b610d65335b8261279a565b610dd75760405162461bcd60e51b815260206004820152603160248201527f4552433732313a207472616e736665722063616c6c6572206973206e6f74206f60448201527f776e6572206e6f7220617070726f7665640000000000000000000000000000006064820152608401610ab1565b610d5583838361288d565b306001600160a01b037f0000000000000000000000000000000000000000000000000000000000000000161415610e705760405162461bcd60e51b815260206004820152602c60248201527f46756e6374696f6e206d7573742062652063616c6c6564207468726f7567682060448201526b19195b1959d85d1958d85b1b60a21b6064820152608401610ab1565b7f00000000000000000000000000000000000000000000000000000000000000006001600160a01b0316610ecb7f360894a13ba1a3210667c828492db98dca3e2076cc3735a920a3ca505d382bbc546001600160a01b031690565b6001600160a01b031614610f365760405162461bcd60e51b815260206004820152602c60248201527f46756e6374696f6e206d7573742062652063616c6c6564207468726f7567682060448201526b6163746976652070726f787960a01b6064820152608401610ab1565b610f3f81612a65565b60408051600080825260208201909252610f5b91839190612b3a565b50565b610d5583838360405180602001604052806000815250611f2f565b610197546001600160a01b03166324d7806c336040516001600160e01b031960e084901b1681526001600160a01b039091166004820152602401602060405180830381865afa158015610fd0573d6000803e3d6000fd5b505050506040513d601f19601f82011682018060405250810190610ff491906142f9565b61104e5760405162461bcd60e51b815260206004820152602560248201527f43616c6c6572206d75737420686176652061646d696e6973747261746f722061604482015264636365737360d81b6064820152608401610ab1565b61105733610d5f565b6110c95760405162461bcd60e51b815260206004820152603060248201527f4552433732314275726e61626c653a2063616c6c6572206973206e6f74206f7760448201527f6e6572206e6f7220617070726f766564000000000000000000000000000000006064820152608401610ab1565b6110d281612cfe565b60405181907f7f928e3c53f35086b51ff7b9bfd4651b14e8b9ccb0535aa4a085fb2881785b8290600090a250565b600054610100900460ff1661111b5760005460ff161561111f565b303b155b6111915760405162461bcd60e51b815260206004820152602e60248201527f496e697469616c697a61626c653a20636f6e747261637420697320616c72656160448201527f647920696e697469616c697a65640000000000000000000000000000000000006064820152608401610ab1565b600054610100900460ff161580156111b3576000805461ffff19166101011790555b6112276040518060400160405280601481526020017f457468657265756d2054616720536572766963650000000000000000000000008152506040518060400160405280600681526020017f4554535441470000000000000000000000000000000000000000000000000000815250612da5565b61122f612e2a565b611237612eb5565b61019780546001600160a01b038086166001600160a01b0319928316179092556101968054928516929091169190911790556303c26700610192556040805180820190915260208082527f68747470733a2f2f6170692e686173687461672d70726f746f636f6c2e696f2f9181019182526112b59161019191613d18565b506001610194556020610195558015610d55576000805461ff0019169055505050565b306001600160a01b037f00000000000000000000000000000000000000000000000000000000000000001614156113665760405162461bcd60e51b815260206004820152602c60248201527f46756e6374696f6e206d7573742062652063616c6c6564207468726f7567682060448201526b19195b1959d85d1958d85b1b60a21b6064820152608401610ab1565b7f00000000000000000000000000000000000000000000000000000000000000006001600160a01b03166113c17f360894a13ba1a3210667c828492db98dca3e2076cc3735a920a3ca505d382bbc546001600160a01b031690565b6001600160a01b03161461142c5760405162461bcd60e51b815260206004820152602c60248201527f46756e6374696f6e206d7573742062652063616c6c6564207468726f7567682060448201526b6163746976652070726f787960a01b6064820152608401610ab1565b61143582612a65565b61144182826001612b3a565b5050565b6000818152606760205260408120546001600160a01b03161515610972565b610197546001600160a01b03166324d7806c336040516001600160e01b031960e084901b1681526001600160a01b039091166004820152602401602060405180830381865afa1580156114bb573d6000803e3d6000fd5b505050506040513d601f19601f820116820180604052508101906114df91906142f9565b6115395760405162461bcd60e51b815260206004820152602560248201527f43616c6c6572206d75737420686176652061646d696e6973747261746f722061604482015264636365737360d81b6064820152608401610ab1565b6115466101918383613d9c565b507f325d37e8fb549c86966f09bc3e6f62eb3afa93b255d6e3234338001f3d80bd86610191604051610af59190614351565b6000818152606760205260408120546001600160a01b0316806109725760405162461bcd60e51b815260206004820152602960248201527f4552433732313a206f776e657220717565727920666f72206e6f6e657869737460448201527f656e7420746f6b656e00000000000000000000000000000000000000000000006064820152608401610ab1565b610197546001600160a01b03166324d7806c336040516001600160e01b031960e084901b1681526001600160a01b039091166004820152602401602060405180830381865afa15801561165a573d6000803e3d6000fd5b505050506040513d601f19601f8201168201806040525081019061167e91906142f9565b6116d85760405162461bcd60e51b815260206004820152602560248201527f43616c6c6572206d75737420686176652061646d696e6973747261746f722061604482015264636365737360d81b6064820152608401610ab1565b61019680546001600160a01b038381166001600160a01b031983168117909355604080519190921680825260208201939093527f0e8ce4b57fd24de168e9c8d76109cb59a7852e78b3575da1ba2077dd53d330ec9101610af5565b610191805461174190614316565b80601f016020809104026020016040519081016040528092919081815260200182805461176d90614316565b80156117ba5780601f1061178f576101008083540402835291602001916117ba565b820191906000526020600020905b81548152906001019060200180831161179d57829003601f168201915b505050505081565b610197546001600160a01b03166324d7806c336040516001600160e01b031960e084901b1681526001600160a01b039091166004820152602401602060405180830381865afa158015611819573d6000803e3d6000fd5b505050506040513d601f19601f8201168201806040525081019061183d91906142f9565b6118975760405162461bcd60e51b815260206004820152602560248201527f43616c6c6572206d75737420686176652061646d696e6973747261746f722061604482015264636365737360d81b6064820152608401610ab1565b6001600160a01b0381166119135760405162461bcd60e51b815260206004820152602b60248201527f4554535461672e757064617465416363657373436f6e74726f6c733a2043616e60448201527f6e6f74206265207a65726f0000000000000000000000000000000000000000006064820152608401610ab1565b61019780546001600160a01b038381166001600160a01b031983168117909355604080519190921680825260208201939093527f31073599bfae2533a348dc816b0ce777b707aa9b67015ca2d86585e842b5c6e99101610af5565b60006001600160a01b0382166119ec5760405162461bcd60e51b815260206004820152602a60248201527f4552433732313a2062616c616e636520717565727920666f7220746865207a6560448201527f726f2061646472657373000000000000000000000000000000000000000000006064820152608401610ab1565b506001600160a01b031660009081526068602052604090205490565b610197546040517f41859ac80000000000000000000000000000000000000000000000000000000081526001600160a01b03848116600483015260009216906341859ac890602401602060405180830381865afa158015611a6d573d6000803e3d6000fd5b505050506040513d601f19601f82011682018060405250810190611a9191906142f9565b611b035760405162461bcd60e51b815260206004820152602760248201527f4d696e743a20546865207075626c6973686572206d757374206265207768697460448201527f656c6973746564000000000000000000000000000000000000000000000000006064820152608401610ab1565b6000611b4486868080601f016020809104026020016040519081016040528093929190818152602001838380828437600092019190915250612f3092505050565b61019354909150611b569060016131ae565b61019381905561019654611b73906001600160a01b0316826131ba565b6040518060800160405280866001600160a01b03168152602001856001600160a01b0316815260200188888080601f016020809104026020016040519081016040528093929190818152602001838380828437600092018290525093855250505060209182018590528381526101988252604090819020835181546001600160a01b039182166001600160a01b0319918216178355858501516001840180549190931691161790559083015180519192611c3592600285019290910190613d18565b5060608201518051611c51916003840191602090910190613d18565b509050508061019983604051611c6791906142dd565b908152602001604051809103902081905550846001600160a01b0316817f85d182e335717d2d833be448c2f6a5864b8514dfeb8cda8f0fbac14f5157f0be898988604051611cb7939291906143f9565b60405180910390a39150505b949350505050565b610197546001600160a01b03166324d7806c336040516001600160e01b031960e084901b1681526001600160a01b039091166004820152602401602060405180830381865afa158015611d22573d6000803e3d6000fd5b505050506040513d601f19601f82011682018060405250810190611d4691906142f9565b611da05760405162461bcd60e51b815260206004820152602560248201527f43616c6c6572206d75737420686176652061646d696e6973747261746f722061604482015264636365737360d81b6064820152608401610ab1565b611da86131d4565b565b6101965460009081906001600160a01b0316611dc584611578565b91509150915091565b606060668054610b1090614316565b611441338383613279565b610198602052600090815260409020805460018201546002830180546001600160a01b03938416949290931692611e1e90614316565b80601f0160208091040260200160405190810160405280929190818152602001828054611e4a90614316565b8015611e975780601f10611e6c57610100808354040283529160200191611e97565b820191906000526020600020905b815481529060010190602001808311611e7a57829003601f168201915b505050505090806003018054611eac90614316565b80601f0160208091040260200160405190810160405280929190818152602001828054611ed890614316565b8015611f255780601f10611efa57610100808354040283529160200191611f25565b820191906000526020600020905b815481529060010190602001808311611f0857829003601f168201915b5050505050905084565b611f39338361279a565b611fab5760405162461bcd60e51b815260206004820152603160248201527f4552433732313a207472616e736665722063616c6c6572206973206e6f74206f60448201527f776e6572206e6f7220617070726f7665640000000000000000000000000000006064820152608401610ab1565b611fb784848484613348565b50505050565b611fc681611578565b6001600160a01b0316336001600160a01b0316146120265760405162461bcd60e51b815260206004820152601860248201527f72656e65775461673a20496e76616c69642073656e64657200000000000000006044820152606401610ab1565b600081815261019a602052604080822042905551339183917faa0c0591942aff60e66bde156168c9a47ef843534b433bbaa33e62d1410f4f2c9190a350565b6000818152606760205260409020546060906001600160a01b03166120f25760405162461bcd60e51b815260206004820152602f60248201527f4552433732314d657461646174613a2055524920717565727920666f72206e6f60448201527f6e6578697374656e7420746f6b656e00000000000000000000000000000000006064820152608401610ab1565b60006120fc6133c6565b9050600081511161211c5760405180602001604052806000815250612147565b80612126846133d6565b60405160200161213792919061443b565b6040516020818303038152906040525b9392505050565b6000818152606760205260409020546001600160a01b03166121b25760405162461bcd60e51b815260206004820152601c60248201527f72656379636c655461673a20496e76616c696420746f6b656e204944000000006044820152606401610ab1565b610196546001600160a01b03166121c882611578565b6001600160a01b031614156122455760405162461bcd60e51b815260206004820152602d60248201527f72656379636c655461673a2054616720616c7265616479206f776e656420627960448201527f2074686520706c6174666f726d000000000000000000000000000000000000006064820152608401610ab1565b600081815261019a60205260409020546101925442906122669083906131ae565b106122d95760405162461bcd60e51b815260206004820152603060248201527f72656379636c655461673a20546f6b656e206e6f7420656c696769626c65206660448201527f6f722072656379636c696e6720796574000000000000000000000000000000006064820152608401610ab1565b6122f86122e583611578565b610196546001600160a01b03168461288d565b604051339083907f0f842a1659c86d6e422461459fb2ab6fa8af886fd1cf9978a73dd299f23ccc7a90600090a35050565b610197546001600160a01b03166324d7806c336040516001600160e01b031960e084901b1681526001600160a01b039091166004820152602401602060405180830381865afa158015612380573d6000803e3d6000fd5b505050506040513d601f19601f820116820180604052508101906123a491906142f9565b6123fe5760405162461bcd60e51b815260206004820152602560248201527f43616c6c6572206d75737420686176652061646d696e6973747261746f722061604482015264636365737360d81b6064820152608401610ab1565b61019280549082905560408051828152602081018490527f7550fd28481dfa2a7590562881c3fffa398e97624ad6eeae494cf36c51e2a9069101610af5565b610197546001600160a01b03166324d7806c336040516001600160e01b031960e084901b1681526001600160a01b039091166004820152602401602060405180830381865afa158015612494573d6000803e3d6000fd5b505050506040513d601f19601f820116820180604052508101906124b891906142f9565b6125125760405162461bcd60e51b815260206004820152602560248201527f43616c6c6572206d75737420686176652061646d696e6973747261746f722061604482015264636365737360d81b6064820152608401610ab1565b611da86134f0565b60006001600160e01b031982167f80ac58cd00000000000000000000000000000000000000000000000000000000148061257d57506001600160e01b031982167f5b5e139f00000000000000000000000000000000000000000000000000000000145b8061097257507f01ffc9a7000000000000000000000000000000000000000000000000000000006001600160e01b0319831614610972565b606060008290506000815167ffffffffffffffff8111156125d8576125d861403f565b6040519080825280601f01601f191660200182016040528015612602576020820181803683370190505b50905060005b825181101561272457604160f81b8382815181106126285761262861446a565b01602001516001600160f81b031916108015906126695750605a60f81b8382815181106126575761265761446a565b01602001516001600160f81b03191611155b156126cb578281815181106126805761268061446a565b602001015160f81c60f81b60f81c602061269a9190614496565b60f81b8282815181106126af576126af61446a565b60200101906001600160f81b031916908160001a905350612712565b8281815181106126dd576126dd61446a565b602001015160f81c60f81b8282815181106126fa576126fa61446a565b60200101906001600160f81b031916908160001a9053505b8061271c816144bb565b915050612608565b509392505050565b600081815260696020526040902080546001600160a01b0319166001600160a01b038416908117909155819061276182611578565b6001600160a01b03167f8c5be1e5ebec7d5bd14f71427d1e84f3dd0314c0f7b2291e5b200ac8c7c3b92560405160405180910390a45050565b6000818152606760205260408120546001600160a01b03166128135760405162461bcd60e51b815260206004820152602c60248201527f4552433732313a206f70657261746f7220717565727920666f72206e6f6e657860448201526b34b9ba32b73a103a37b5b2b760a11b6064820152608401610ab1565b600061281e83611578565b9050806001600160a01b0316846001600160a01b031614806128595750836001600160a01b031661284e84610b93565b6001600160a01b0316145b80611cc357506001600160a01b038082166000908152606a602090815260408083209388168352929052205460ff16611cc3565b826001600160a01b03166128a082611578565b6001600160a01b03161461291c5760405162461bcd60e51b815260206004820152602960248201527f4552433732313a207472616e73666572206f6620746f6b656e2074686174206960448201527f73206e6f74206f776e00000000000000000000000000000000000000000000006064820152608401610ab1565b6001600160a01b0382166129975760405162461bcd60e51b8152602060048201526024808201527f4552433732313a207472616e7366657220746f20746865207a65726f2061646460448201527f72657373000000000000000000000000000000000000000000000000000000006064820152608401610ab1565b6129a2838383613573565b6129ad60008261272c565b6001600160a01b03831660009081526068602052604081208054600192906129d69084906144d6565b90915550506001600160a01b0382166000908152606860205260408120805460019290612a049084906144ed565b909155505060008181526067602052604080822080546001600160a01b0319166001600160a01b0386811691821790925591518493918716917fddf252ad1be2c89b69c2b068fc378daa952ba7f163c4a11628f55a4df523b3ef91a4505050565b610197546001600160a01b03166324d7806c336040516001600160e01b031960e084901b1681526001600160a01b039091166004820152602401602060405180830381865afa158015612abc573d6000803e3d6000fd5b505050506040513d601f19601f82011682018060405250810190612ae091906142f9565b610f5b5760405162461bcd60e51b815260206004820152602560248201527f43616c6c6572206d75737420686176652061646d696e6973747261746f722061604482015264636365737360d81b6064820152608401610ab1565b6000612b6d7f360894a13ba1a3210667c828492db98dca3e2076cc3735a920a3ca505d382bbc546001600160a01b031690565b9050612b78846135fb565b600083511180612b855750815b15612b9657612b9484846136b0565b505b7f4910fdfa16fed3260ed0e7147f7cc6da11a60208b5b9406d12a635614ffd9143805460ff16612cf757805460ff191660011781556040516001600160a01b0383166024820152612c4390869060440160408051601f198184030181529190526020810180517bffffffffffffffffffffffffffffffffffffffffffffffffffffffff167f3659cfe6000000000000000000000000000000000000000000000000000000001790526136b0565b50805460ff191681557f360894a13ba1a3210667c828492db98dca3e2076cc3735a920a3ca505d382bbc546001600160a01b03838116911614612cee5760405162461bcd60e51b815260206004820152602f60248201527f45524331393637557067726164653a207570677261646520627265616b73206660448201527f75727468657220757067726164657300000000000000000000000000000000006064820152608401610ab1565b612cf7856137b2565b5050505050565b6000612d0982611578565b9050612d1781600084613573565b612d2260008361272c565b6001600160a01b0381166000908152606860205260408120805460019290612d4b9084906144d6565b909155505060008281526067602052604080822080546001600160a01b0319169055518391906001600160a01b038416907fddf252ad1be2c89b69c2b068fc378daa952ba7f163c4a11628f55a4df523b3ef908390a45050565b600054610100900460ff16612e105760405162461bcd60e51b815260206004820152602b60248201527f496e697469616c697a61626c653a20636f6e7472616374206973206e6f74206960448201526a6e697469616c697a696e6760a81b6064820152608401610ab1565b612e186137f2565b612e206137f2565b611441828261385d565b600054610100900460ff16612e955760405162461bcd60e51b815260206004820152602b60248201527f496e697469616c697a61626c653a20636f6e7472616374206973206e6f74206960448201526a6e697469616c697a696e6760a81b6064820152608401610ab1565b612e9d6137f2565b612ea56137f2565b612ead6138ef565b611da86137f2565b600054610100900460ff16612f205760405162461bcd60e51b815260206004820152602b60248201527f496e697469616c697a61626c653a20636f6e7472616374206973206e6f74206960448201526a6e697469616c697a696e6760a81b6064820152608401610ab1565b612f286137f2565b612ead6137f2565b60606000612f3d836125b5565b905061019981604051612f5091906142dd565b908152602001604051809103902054600014612fae5760405162461bcd60e51b815260206004820152601c60248201527f4552433732313a20746f6b656e20616c7265616479206d696e746564000000006044820152606401610ab1565b610194548351849111801590612fc8575061019554815111155b61303a5760405162461bcd60e51b815260206004820152603d60248201527f496e76616c696420666f726d61743a2074616720646f6573206e6f74206d656560448201527f74206d696e2f6d6178206c656e67746820726571756972656d656e74730000006064820152608401610ab1565b8060008151811061304d5761304d61446a565b6020910101516001600160f81b0319167f2300000000000000000000000000000000000000000000000000000000000000146130cb5760405162461bcd60e51b815260206004820152601560248201527f546167206d7573742073746172742077697468202300000000000000000000006044820152606401610ab1565b60015b81518110156131a55760008282815181106130eb576130eb61446a565b01602001516001600160f81b03191690507f20000000000000000000000000000000000000000000000000000000000000008114156131925760405162461bcd60e51b815260206004820152602760248201527f537061636520666f756e643a20746167206d6179206e6f7420636f6e7461696e60448201527f20737061636573000000000000000000000000000000000000000000000000006064820152608401610ab1565b508061319d816144bb565b9150506130ce565b50909392505050565b600061214782846144ed565b611441828260405180602001604052806000815250613966565b60975460ff16156132275760405162461bcd60e51b815260206004820152601060248201527f5061757361626c653a20706175736564000000000000000000000000000000006044820152606401610ab1565b6097805460ff191660011790557f62e78cea01bee320cd4e420270b5ea74000d11b0c9f74754ebdbfc544b05a25861325c3390565b6040516001600160a01b03909116815260200160405180910390a1565b816001600160a01b0316836001600160a01b031614156132db5760405162461bcd60e51b815260206004820152601960248201527f4552433732313a20617070726f766520746f2063616c6c6572000000000000006044820152606401610ab1565b6001600160a01b038381166000818152606a6020908152604080832094871680845294825291829020805460ff191686151590811790915591519182527f17307eab39ab6107e8899845ad3d59bd9653f200f220920489ca2b5937696c31910160405180910390a3505050565b61335384848461288d565b61335f848484846139e4565b611fb75760405162461bcd60e51b815260206004820152603260248201527f4552433732313a207472616e7366657220746f206e6f6e20455243373231526560448201527131b2b4bb32b91034b6b83632b6b2b73a32b960711b6064820152608401610ab1565b60606101918054610b1090614316565b60608161341657505060408051808201909152600181527f3000000000000000000000000000000000000000000000000000000000000000602082015290565b8160005b8115613440578061342a816144bb565b91506134399050600a8361451b565b915061341a565b60008167ffffffffffffffff81111561345b5761345b61403f565b6040519080825280601f01601f191660200182016040528015613485576020820181803683370190505b5090505b8415611cc35761349a6001836144d6565b91506134a7600a8661452f565b6134b29060306144ed565b60f81b8183815181106134c7576134c761446a565b60200101906001600160f81b031916908160001a9053506134e9600a8661451b565b9450613489565b60975460ff166135425760405162461bcd60e51b815260206004820152601460248201527f5061757361626c653a206e6f74207061757365640000000000000000000000006044820152606401610ab1565b6097805460ff191690557f5db9ee0a495bf2e6ff9c91a7834c1ba4fdd244a5e8aa4e537bd38aeae4b073aa3361325c565b61357e838383613b2a565b60975460ff16156135e55760405162461bcd60e51b815260206004820152602b60248201527f4552433732315061757361626c653a20746f6b656e207472616e73666572207760448201526a1a1a5b19481c185d5cd95960aa1b6064820152608401610ab1565b600090815261019a602052604090204290555050565b803b61366f5760405162461bcd60e51b815260206004820152602d60248201527f455243313936373a206e657720696d706c656d656e746174696f6e206973206e60448201527f6f74206120636f6e7472616374000000000000000000000000000000000000006064820152608401610ab1565b7f360894a13ba1a3210667c828492db98dca3e2076cc3735a920a3ca505d382bbc80546001600160a01b0319166001600160a01b0392909216919091179055565b6060823b6137265760405162461bcd60e51b815260206004820152602660248201527f416464726573733a2064656c65676174652063616c6c20746f206e6f6e2d636f60448201527f6e747261637400000000000000000000000000000000000000000000000000006064820152608401610ab1565b600080846001600160a01b03168460405161374191906142dd565b600060405180830381855af49150503d806000811461377c576040519150601f19603f3d011682016040523d82523d6000602084013e613781565b606091505b50915091506137a9828260405180606001604052806027815260200161459d60279139613b91565b95945050505050565b6137bb816135fb565b6040516001600160a01b038216907fbc7cd75a20ee27fd9adebab32041f755214dbc6bffa90cc0225b39da2e5c2d3b90600090a250565b600054610100900460ff16611da85760405162461bcd60e51b815260206004820152602b60248201527f496e697469616c697a61626c653a20636f6e7472616374206973206e6f74206960448201526a6e697469616c697a696e6760a81b6064820152608401610ab1565b600054610100900460ff166138c85760405162461bcd60e51b815260206004820152602b60248201527f496e697469616c697a61626c653a20636f6e7472616374206973206e6f74206960448201526a6e697469616c697a696e6760a81b6064820152608401610ab1565b81516138db906065906020850190613d18565b508051610d55906066906020840190613d18565b600054610100900460ff1661395a5760405162461bcd60e51b815260206004820152602b60248201527f496e697469616c697a61626c653a20636f6e7472616374206973206e6f74206960448201526a6e697469616c697a696e6760a81b6064820152608401610ab1565b6097805460ff19169055565b6139708383613bca565b61397d60008484846139e4565b610d555760405162461bcd60e51b815260206004820152603260248201527f4552433732313a207472616e7366657220746f206e6f6e20455243373231526560448201527131b2b4bb32b91034b6b83632b6b2b73a32b960711b6064820152608401610ab1565b60006001600160a01b0384163b15613b2257604051630a85bd0160e11b81526001600160a01b0385169063150b7a0290613a28903390899088908890600401614543565b6020604051808303816000875af1925050508015613a63575060408051601f3d908101601f19168201909252613a609181019061457f565b60015b613b08573d808015613a91576040519150601f19603f3d011682016040523d82523d6000602084013e613a96565b606091505b508051613b005760405162461bcd60e51b815260206004820152603260248201527f4552433732313a207472616e7366657220746f206e6f6e20455243373231526560448201527131b2b4bb32b91034b6b83632b6b2b73a32b960711b6064820152608401610ab1565b805181602001fd5b6001600160e01b031916630a85bd0160e11b149050611cc3565b506001611cc3565b60975460ff1615610d555760405162461bcd60e51b815260206004820152602b60248201527f4552433732315061757361626c653a20746f6b656e207472616e73666572207760448201526a1a1a5b19481c185d5cd95960aa1b6064820152608401610ab1565b60608315613ba0575081612147565b825115613bb05782518084602001fd5b8160405162461bcd60e51b8152600401610ab19190613f54565b6001600160a01b038216613c205760405162461bcd60e51b815260206004820181905260248201527f4552433732313a206d696e7420746f20746865207a65726f20616464726573736044820152606401610ab1565b6000818152606760205260409020546001600160a01b031615613c855760405162461bcd60e51b815260206004820152601c60248201527f4552433732313a20746f6b656e20616c7265616479206d696e746564000000006044820152606401610ab1565b613c9160008383613573565b6001600160a01b0382166000908152606860205260408120805460019290613cba9084906144ed565b909155505060008181526067602052604080822080546001600160a01b0319166001600160a01b03861690811790915590518392907fddf252ad1be2c89b69c2b068fc378daa952ba7f163c4a11628f55a4df523b3ef908290a45050565b828054613d2490614316565b90600052602060002090601f016020900481019282613d465760008555613d8c565b82601f10613d5f57805160ff1916838001178555613d8c565b82800160010185558215613d8c579182015b82811115613d8c578251825591602001919060010190613d71565b50613d98929150613e10565b5090565b828054613da890614316565b90600052602060002090601f016020900481019282613dca5760008555613d8c565b82601f10613de35782800160ff19823516178555613d8c565b82800160010185558215613d8c579182015b82811115613d8c578235825591602001919060010190613df5565b5b80821115613d985760008155600101613e11565b6001600160e01b031981168114610f5b57600080fd5b600060208284031215613e4d57600080fd5b813561214781613e25565b60008083601f840112613e6a57600080fd5b50813567ffffffffffffffff811115613e8257600080fd5b602083019150836020828501011115613e9a57600080fd5b9250929050565b60008060208385031215613eb457600080fd5b823567ffffffffffffffff811115613ecb57600080fd5b613ed785828601613e58565b90969095509350505050565b600060208284031215613ef557600080fd5b5035919050565b60005b83811015613f17578181015183820152602001613eff565b83811115611fb75750506000910152565b60008151808452613f40816020860160208601613efc565b601f01601f19169290920160200192915050565b6020815260006121476020830184613f28565b6001600160a01b0381168114610f5b57600080fd5b60008060408385031215613f8f57600080fd5b8235613f9a81613f67565b946020939093013593505050565b600080600060608486031215613fbd57600080fd5b8335613fc881613f67565b92506020840135613fd881613f67565b929592945050506040919091013590565b600060208284031215613ffb57600080fd5b813561214781613f67565b6000806040838503121561401957600080fd5b823561402481613f67565b9150602083013561403481613f67565b809150509250929050565b634e487b7160e01b600052604160045260246000fd5b600067ffffffffffffffff808411156140705761407061403f565b604051601f8501601f19908116603f011681019082821181831017156140985761409861403f565b816040528093508581528686860111156140b157600080fd5b858560208301376000602087830101525050509392505050565b600082601f8301126140dc57600080fd5b61214783833560208501614055565b600080604083850312156140fe57600080fd5b823561410981613f67565b9150602083013567ffffffffffffffff81111561412557600080fd5b614131858286016140cb565b9150509250929050565b60006020828403121561414d57600080fd5b813567ffffffffffffffff81111561416457600080fd5b8201601f8101841361417557600080fd5b611cc384823560208401614055565b6000806000806060858703121561419a57600080fd5b843567ffffffffffffffff8111156141b157600080fd5b6141bd87828801613e58565b90955093505060208501356141d181613f67565b915060408501356141e181613f67565b939692955090935050565b8015158114610f5b57600080fd5b6000806040838503121561420d57600080fd5b823561421881613f67565b91506020830135614034816141ec565b60006001600160a01b038087168352808616602084015250608060408301526142546080830185613f28565b82810360608401526142668185613f28565b979650505050505050565b6000806000806080858703121561428757600080fd5b843561429281613f67565b935060208501356142a281613f67565b925060408501359150606085013567ffffffffffffffff8111156142c557600080fd5b6142d1878288016140cb565b91505092959194509250565b600082516142ef818460208701613efc565b9190910192915050565b60006020828403121561430b57600080fd5b8151612147816141ec565b600181811c9082168061432a57607f821691505b6020821081141561434b57634e487b7160e01b600052602260045260246000fd5b50919050565b600060208083526000845481600182811c91508083168061437357607f831692505b85831081141561439157634e487b7160e01b85526022600452602485fd5b8786018381526020018180156143ae57600181146143bf576143ea565b60ff198616825287820196506143ea565b60008b81526020902060005b868110156143e4578154848201529085019089016143cb565b83019750505b50949998505050505050505050565b604081528260408201528284606083013760006060848301015260006060601f19601f86011683010190506001600160a01b0383166020830152949350505050565b6000835161444d818460208801613efc565b835190830190614461818360208801613efc565b01949350505050565b634e487b7160e01b600052603260045260246000fd5b634e487b7160e01b600052601160045260246000fd5b600060ff821660ff84168060ff038211156144b3576144b3614480565b019392505050565b60006000198214156144cf576144cf614480565b5060010190565b6000828210156144e8576144e8614480565b500390565b6000821982111561450057614500614480565b500190565b634e487b7160e01b600052601260045260246000fd5b60008261452a5761452a614505565b500490565b60008261453e5761453e614505565b500690565b60006001600160a01b038087168352808616602084015250836040830152608060608301526145756080830184613f28565b9695505050505050565b60006020828403121561459157600080fd5b815161214781613e2556fe416464726573733a206c6f772d6c6576656c2064656c65676174652063616c6c206661696c6564a2646970667358221220897f9f93e52bfad6e8245c5cd8610620e1cfe068ec0f30baa3ec54ffbcc2ca4764736f6c634300080c0033",
  "linkReferences": {},
  "deployedLinkReferences": {}
}