{
  "_format": "hh-sol-artifact-1",
  "contractName": "ETSUpgrade",
  "sourceName": "contracts/utils/UUPS/UUPSTesting.sol",
  "abi": [
    {
      "anonymous": false,
      "inputs": [
        {
          "indexed": false,
          "internalType": "contract ETSAccessControls",
          "name": "previousAccessControls",
          "type": "address"
        },
        {
          "indexed": false,
          "internalType": "contract ETSAccessControls",
          "name": "newAccessControls",
          "type": "address"
        }
      ],
      "name": "AccessControlsUpdated",
      "type": "event"
    },
    {
      "anonymous": false,
      "inputs": [
        {
          "indexed": false,
          "internalType": "address",
          "name": "previousAdmin",
          "type": "address"
        },
        {
          "indexed": false,
          "internalType": "address",
          "name": "newAdmin",
          "type": "address"
        }
      ],
      "name": "AdminChanged",
      "type": "event"
    },
    {
      "anonymous": false,
      "inputs": [
        {
          "indexed": true,
          "internalType": "address",
          "name": "beacon",
          "type": "address"
        }
      ],
      "name": "BeaconUpgraded",
      "type": "event"
    },
    {
      "anonymous": false,
      "inputs": [
        {
          "indexed": false,
          "internalType": "contract ETSEnsure",
          "name": "previousETSEnsure",
          "type": "address"
        },
        {
          "indexed": false,
          "internalType": "contract ETSEnsure",
          "name": "newETSEnsure",
          "type": "address"
        }
      ],
      "name": "ETSEnsureUpdated",
      "type": "event"
    },
    {
      "anonymous": false,
      "inputs": [
        {
          "indexed": true,
          "internalType": "address",
          "name": "who",
          "type": "address"
        },
        {
          "indexed": false,
          "internalType": "uint256",
          "name": "amount",
          "type": "uint256"
        }
      ],
      "name": "FundsWithdrawn",
      "type": "event"
    },
    {
      "anonymous": false,
      "inputs": [
        {
          "indexed": false,
          "internalType": "uint256",
          "name": "platformPercentage",
          "type": "uint256"
        },
        {
          "indexed": false,
          "internalType": "uint256",
          "name": "publisherPercentage",
          "type": "uint256"
        },
        {
          "indexed": false,
          "internalType": "uint256",
          "name": "remainingPercentage",
          "type": "uint256"
        }
      ],
      "name": "PercentagesSet",
      "type": "event"
    },
    {
      "anonymous": false,
      "inputs": [
        {
          "indexed": false,
          "internalType": "uint256",
          "name": "nftChainId",
          "type": "uint256"
        },
        {
          "indexed": false,
          "internalType": "bool",
          "name": "setting",
          "type": "bool"
        }
      ],
      "name": "PermittedNftChainIdSet",
      "type": "event"
    },
    {
      "anonymous": false,
      "inputs": [
        {
          "indexed": false,
          "internalType": "uint256",
          "name": "targetId",
          "type": "uint256"
        }
      ],
      "name": "RequestEnsureTarget",
      "type": "event"
    },
    {
      "anonymous": false,
      "inputs": [
        {
          "indexed": false,
          "internalType": "uint256",
          "name": "previousFee",
          "type": "uint256"
        },
        {
          "indexed": false,
          "internalType": "uint256",
          "name": "taggingFee",
          "type": "uint256"
        }
      ],
      "name": "TaggingFeeSet",
      "type": "event"
    },
    {
      "anonymous": false,
      "inputs": [
        {
          "indexed": false,
          "internalType": "uint256",
          "name": "targetId",
          "type": "uint256"
        }
      ],
      "name": "TargetCreated",
      "type": "event"
    },
    {
      "anonymous": false,
      "inputs": [
        {
          "indexed": false,
          "internalType": "uint256",
          "name": "taggingId",
          "type": "uint256"
        }
      ],
      "name": "TargetTagged",
      "type": "event"
    },
    {
      "anonymous": false,
      "inputs": [
        {
          "indexed": false,
          "internalType": "string",
          "name": "typeName",
          "type": "string"
        },
        {
          "indexed": false,
          "internalType": "bool",
          "name": "setting",
          "type": "bool"
        }
      ],
      "name": "TargetTypeSet",
      "type": "event"
    },
    {
      "anonymous": false,
      "inputs": [
        {
          "indexed": false,
          "internalType": "uint256",
          "name": "targetId",
          "type": "uint256"
        }
      ],
      "name": "TargetUpdated",
      "type": "event"
    },
    {
      "anonymous": false,
      "inputs": [
        {
          "indexed": true,
          "internalType": "address",
          "name": "implementation",
          "type": "address"
        }
      ],
      "name": "Upgraded",
      "type": "event"
    },
    {
      "inputs": [],
      "name": "NAME",
      "outputs": [
        {
          "internalType": "string",
          "name": "",
          "type": "string"
        }
      ],
      "stateMutability": "view",
      "type": "function"
    },
    {
      "inputs": [],
      "name": "VERSION",
      "outputs": [
        {
          "internalType": "string",
          "name": "",
          "type": "string"
        }
      ],
      "stateMutability": "view",
      "type": "function"
    },
    {
      "inputs": [
        {
          "internalType": "string",
          "name": "_targetType",
          "type": "string"
        },
        {
          "internalType": "string",
          "name": "_targetURI",
          "type": "string"
        }
      ],
      "name": "_getTargetId",
      "outputs": [
        {
          "internalType": "uint256",
          "name": "targetId",
          "type": "uint256"
        }
      ],
      "stateMutability": "nonpayable",
      "type": "function"
    },
    {
      "inputs": [],
      "name": "accessControls",
      "outputs": [
        {
          "internalType": "contract ETSAccessControls",
          "name": "",
          "type": "address"
        }
      ],
      "stateMutability": "view",
      "type": "function"
    },
    {
      "inputs": [
        {
          "internalType": "address",
          "name": "",
          "type": "address"
        }
      ],
      "name": "accrued",
      "outputs": [
        {
          "internalType": "uint256",
          "name": "",
          "type": "uint256"
        }
      ],
      "stateMutability": "view",
      "type": "function"
    },
    {
      "inputs": [
        {
          "internalType": "address payable",
          "name": "_account",
          "type": "address"
        }
      ],
      "name": "drawDown",
      "outputs": [],
      "stateMutability": "nonpayable",
      "type": "function"
    },
    {
      "inputs": [],
      "name": "etsEnsure",
      "outputs": [
        {
          "internalType": "contract ETSEnsure",
          "name": "",
          "type": "address"
        }
      ],
      "stateMutability": "view",
      "type": "function"
    },
    {
      "inputs": [],
      "name": "etsTag",
      "outputs": [
        {
          "internalType": "contract ETSTag",
          "name": "",
          "type": "address"
        }
      ],
      "stateMutability": "view",
      "type": "function"
    },
    {
      "inputs": [
        {
          "internalType": "string",
          "name": "_tagString",
          "type": "string"
        },
        {
          "internalType": "address payable",
          "name": "_publisher",
          "type": "address"
        },
        {
          "internalType": "address",
          "name": "_tagger",
          "type": "address"
        }
      ],
      "name": "getOrCreateTagId",
      "outputs": [
        {
          "internalType": "uint256",
          "name": "etstagId",
          "type": "uint256"
        }
      ],
      "stateMutability": "payable",
      "type": "function"
    },
    {
      "inputs": [
        {
          "internalType": "uint256",
          "name": "_nftChainId",
          "type": "uint256"
        }
      ],
      "name": "getPermittedNftChainId",
      "outputs": [
        {
          "internalType": "bool",
          "name": "",
          "type": "bool"
        }
      ],
      "stateMutability": "view",
      "type": "function"
    },
    {
      "inputs": [
        {
          "internalType": "uint256",
          "name": "_taggingId",
          "type": "uint256"
        }
      ],
      "name": "getTaggingRecord",
      "outputs": [
        {
          "internalType": "uint256[]",
          "name": "_etsTagIds",
          "type": "uint256[]"
        },
        {
          "internalType": "uint256",
          "name": "_targetId",
          "type": "uint256"
        },
        {
          "internalType": "address",
          "name": "_tagger",
          "type": "address"
        },
        {
          "internalType": "address",
          "name": "_publisher",
          "type": "address"
        },
        {
          "internalType": "address",
          "name": "_sponsor",
          "type": "address"
        }
      ],
      "stateMutability": "view",
      "type": "function"
    },
    {
      "inputs": [
        {
          "internalType": "contract ETSAccessControls",
          "name": "_accessControls",
          "type": "address"
        },
        {
          "internalType": "contract ETSTag",
          "name": "_etsTag",
          "type": "address"
        }
      ],
      "name": "initialize",
      "outputs": [],
      "stateMutability": "nonpayable",
      "type": "function"
    },
    {
      "inputs": [],
      "name": "modulo",
      "outputs": [
        {
          "internalType": "uint256",
          "name": "",
          "type": "uint256"
        }
      ],
      "stateMutability": "view",
      "type": "function"
    },
    {
      "inputs": [
        {
          "internalType": "address",
          "name": "",
          "type": "address"
        }
      ],
      "name": "paid",
      "outputs": [
        {
          "internalType": "uint256",
          "name": "",
          "type": "uint256"
        }
      ],
      "stateMutability": "view",
      "type": "function"
    },
    {
      "inputs": [
        {
          "internalType": "uint256",
          "name": "",
          "type": "uint256"
        }
      ],
      "name": "permittedNftChainIds",
      "outputs": [
        {
          "internalType": "bool",
          "name": "",
          "type": "bool"
        }
      ],
      "stateMutability": "view",
      "type": "function"
    },
    {
      "inputs": [],
      "name": "platformPercentage",
      "outputs": [
        {
          "internalType": "uint256",
          "name": "",
          "type": "uint256"
        }
      ],
      "stateMutability": "view",
      "type": "function"
    },
    {
      "inputs": [],
      "name": "publisherPercentage",
      "outputs": [
        {
          "internalType": "uint256",
          "name": "",
          "type": "uint256"
        }
      ],
      "stateMutability": "view",
      "type": "function"
    },
    {
      "inputs": [],
      "name": "remainingPercentage",
      "outputs": [
        {
          "internalType": "uint256",
          "name": "",
          "type": "uint256"
        }
      ],
      "stateMutability": "view",
      "type": "function"
    },
    {
      "inputs": [
        {
          "internalType": "uint256",
          "name": "_nftChainId",
          "type": "uint256"
        },
        {
          "internalType": "bool",
          "name": "_setting",
          "type": "bool"
        }
      ],
      "name": "setPermittedNftChainId",
      "outputs": [],
      "stateMutability": "nonpayable",
      "type": "function"
    },
    {
      "inputs": [
        {
          "internalType": "uint256",
          "name": "_fee",
          "type": "uint256"
        }
      ],
      "name": "setTaggingFee",
      "outputs": [],
      "stateMutability": "nonpayable",
      "type": "function"
    },
    {
      "inputs": [
        {
          "internalType": "string[]",
          "name": "_tagStrings",
          "type": "string[]"
        },
        {
          "internalType": "string",
          "name": "_targetURI",
          "type": "string"
        },
        {
          "internalType": "address payable",
          "name": "_publisher",
          "type": "address"
        },
        {
          "internalType": "address",
          "name": "_tagger",
          "type": "address"
        },
        {
          "internalType": "address",
          "name": "_sponsor",
          "type": "address"
        },
        {
          "internalType": "bool",
          "name": "_ensure",
          "type": "bool"
        }
      ],
      "name": "tagTarget",
      "outputs": [],
      "stateMutability": "payable",
      "type": "function"
    },
    {
      "inputs": [],
      "name": "taggingCounter",
      "outputs": [
        {
          "internalType": "uint256",
          "name": "",
          "type": "uint256"
        }
      ],
      "stateMutability": "view",
      "type": "function"
    },
    {
      "inputs": [],
      "name": "taggingFee",
      "outputs": [
        {
          "internalType": "uint256",
          "name": "",
          "type": "uint256"
        }
      ],
      "stateMutability": "view",
      "type": "function"
    },
    {
      "inputs": [
        {
          "internalType": "uint256",
          "name": "",
          "type": "uint256"
        }
      ],
      "name": "taggingRecords",
      "outputs": [
        {
          "internalType": "uint256",
          "name": "targetId",
          "type": "uint256"
        },
        {
          "internalType": "address",
          "name": "tagger",
          "type": "address"
        },
        {
          "internalType": "address",
          "name": "publisher",
          "type": "address"
        },
        {
          "internalType": "address",
          "name": "sponsor",
          "type": "address"
        }
      ],
      "stateMutability": "view",
      "type": "function"
    },
    {
      "inputs": [
        {
          "internalType": "uint256",
          "name": "targetId",
          "type": "uint256"
        }
      ],
      "name": "targetExists",
      "outputs": [
        {
          "internalType": "bool",
          "name": "",
          "type": "bool"
        }
      ],
      "stateMutability": "view",
      "type": "function"
    },
    {
      "inputs": [
        {
          "internalType": "uint256",
          "name": "",
          "type": "uint256"
        }
      ],
      "name": "targets",
      "outputs": [
        {
          "internalType": "string",
          "name": "targetType",
          "type": "string"
        },
        {
          "internalType": "string",
          "name": "targetURI",
          "type": "string"
        },
        {
          "internalType": "uint256",
          "name": "created",
          "type": "uint256"
        },
        {
          "internalType": "uint256",
          "name": "lastEnsured",
          "type": "uint256"
        },
        {
          "internalType": "uint256",
          "name": "status",
          "type": "uint256"
        },
        {
          "internalType": "string",
          "name": "ipfsHash",
          "type": "string"
        }
      ],
      "stateMutability": "view",
      "type": "function"
    },
    {
      "inputs": [
        {
          "internalType": "address",
          "name": "_account",
          "type": "address"
        }
      ],
      "name": "totalDue",
      "outputs": [
        {
          "internalType": "uint256",
          "name": "_due",
          "type": "uint256"
        }
      ],
      "stateMutability": "view",
      "type": "function"
    },
    {
      "inputs": [
        {
          "internalType": "contract ETSAccessControls",
          "name": "_accessControls",
          "type": "address"
        }
      ],
      "name": "updateAccessControls",
      "outputs": [],
      "stateMutability": "nonpayable",
      "type": "function"
    },
    {
      "inputs": [
        {
          "internalType": "contract ETSEnsure",
          "name": "_etsEnsure",
          "type": "address"
        }
      ],
      "name": "updateETSEnsure",
      "outputs": [],
      "stateMutability": "nonpayable",
      "type": "function"
    },
    {
      "inputs": [
        {
          "internalType": "uint256",
          "name": "_platformPercentage",
          "type": "uint256"
        },
        {
          "internalType": "uint256",
          "name": "_publisherPercentage",
          "type": "uint256"
        }
      ],
      "name": "updatePercentages",
      "outputs": [],
      "stateMutability": "nonpayable",
      "type": "function"
    },
    {
      "inputs": [
        {
          "internalType": "uint256",
          "name": "_targetId",
          "type": "uint256"
        },
        {
          "internalType": "string",
          "name": "_targetType",
          "type": "string"
        },
        {
          "internalType": "string",
          "name": "_targetURI",
          "type": "string"
        },
        {
          "internalType": "uint256",
          "name": "_lastEnsured",
          "type": "uint256"
        },
        {
          "internalType": "uint256",
          "name": "_status",
          "type": "uint256"
        },
        {
          "internalType": "string",
          "name": "_ipfsHash",
          "type": "string"
        }
      ],
      "name": "updateTarget",
      "outputs": [
        {
          "internalType": "bool",
          "name": "success",
          "type": "bool"
        }
      ],
      "stateMutability": "nonpayable",
      "type": "function"
    },
    {
      "inputs": [],
      "name": "upgradeTest",
      "outputs": [
        {
          "internalType": "bool",
          "name": "",
          "type": "bool"
        }
      ],
      "stateMutability": "pure",
      "type": "function"
    },
    {
      "inputs": [
        {
          "internalType": "address",
          "name": "newImplementation",
          "type": "address"
        }
      ],
      "name": "upgradeTo",
      "outputs": [],
      "stateMutability": "nonpayable",
      "type": "function"
    },
    {
      "inputs": [
        {
          "internalType": "address",
          "name": "newImplementation",
          "type": "address"
        },
        {
          "internalType": "bytes",
          "name": "data",
          "type": "bytes"
        }
      ],
      "name": "upgradeToAndCall",
      "outputs": [],
      "stateMutability": "payable",
      "type": "function"
    },
    {
      "inputs": [],
      "name": "version",
      "outputs": [
        {
          "internalType": "string",
          "name": "",
          "type": "string"
        }
      ],
      "stateMutability": "pure",
      "type": "function"
    }
  ],
  "bytecode": "0x60a06040523060805234801561001457600080fd5b50608051613243610045600039600081816109a201528181610a2c01528181610c3c0152610cc101526132436000f3fe6080604052600436106102345760003560e01c8063748365ef11610138578063b7d0e7dd116100b0578063e88b772c1161007f578063fe52656f11610064578063fe52656f1461071d578063fed6c2e914610733578063ffa1ad741461074657600080fd5b8063e88b772c146106e7578063f8bc3cc6146106fd57600080fd5b8063b7d0e7dd14610674578063c206200514610694578063c20d2295146106b4578063d64f55c9146106d457600080fd5b8063a3f4df7e11610107578063af75e81d116100ec578063af75e81d14610607578063b148440f14610627578063b205f8081461065457600080fd5b8063a3f4df7e1461059e578063a97dda40146105e757600080fd5b8063748365ef146105035780637e2e4c521461053b578063962ed23214610551578063a340cf791461057157600080fd5b80633659cfe6116101cb578063501a323a1161019a57806354fd4d501161017f57806354fd4d50146104295780636ef3da941461046057806374716c811461048057600080fd5b8063501a323a146103d8578063507f3ba11461040957600080fd5b80633659cfe61461036f5780633d20b15c14610391578063485cc955146103a55780634f1ef286146103c557600080fd5b80631f741897116102075780631f741897146102fe578063200e06af146103145780632974526214610344578063337ccf9d1461035957600080fd5b80630477fe28146102395780630a39ce021461026e5780630ad2f0c3146102a05780631797df59146102ce575b600080fd5b34801561024557600080fd5b5061025961025436600461290a565b610777565b60405190151581526020015b60405180910390f35b34801561027a57600080fd5b5061028e61028936600461290a565b61079d565b6040516102659695949392919061297b565b3480156102ac57600080fd5b506102c06102bb3660046129f8565b610969565b604051908152602001610265565b3480156102da57600080fd5b506102596102e936600461290a565b600090815260d3602052604090205460ff1690565b34801561030a57600080fd5b506102c060cc5481565b34801561032057600080fd5b5061025961032f36600461290a565b60d36020526000908152604090205460ff1681565b34801561035057600080fd5b506102c0606481565b34801561036557600080fd5b506102c060ce5481565b34801561037b57600080fd5b5061038f61038a3660046129f8565b610997565b005b34801561039d57600080fd5b506001610259565b3480156103b157600080fd5b5061038f6103c0366004612a15565b610b18565b61038f6103d3366004612afb565b610c31565b3480156103e457600080fd5b506103f86103f336600461290a565b610d9e565b604051610265959493929190612b5f565b34801561041557600080fd5b50610259610424366004612c12565b610e44565b34801561043557600080fd5b50604080518082019091526005815264302e302e3160d81b60208201525b6040516102659190612ccb565b34801561046c57600080fd5b5061038f61047b3660046129f8565b610ee9565b34801561048c57600080fd5b506104d461049b36600461290a565b60d460205260009081526040902060018101546002820154600383015460049093015491926001600160a01b0391821692908216911684565b604080519485526001600160a01b03938416602086015291831691840191909152166060820152608001610265565b34801561050f57600080fd5b5060c954610523906001600160a01b031681565b6040516001600160a01b039091168152602001610265565b34801561054757600080fd5b506102c060cd5481565b34801561055d57600080fd5b5061038f61056c36600461290a565b611084565b34801561057d57600080fd5b506102c061058c3660046129f8565b60d26020526000908152604090205481565b3480156105aa57600080fd5b506104536040518060400160405280600881526020017f45545320436f726500000000000000000000000000000000000000000000000081525081565b3480156105f357600080fd5b5061038f610602366004612cf7565b61117f565b34801561061357600080fd5b506102c0610622366004612d3c565b61128e565b34801561063357600080fd5b506102c06106423660046129f8565b60d16020526000908152604090205481565b34801561066057600080fd5b5061038f61066f3660046129f8565b6112ce565b34801561068057600080fd5b5060cb54610523906001600160a01b031681565b3480156106a057600080fd5b5061038f6106af3660046129f8565b611461565b3480156106c057600080fd5b5061038f6106cf366004612d96565b6115b7565b61038f6106e2366004612db8565b61175e565b3480156106f357600080fd5b506102c060cf5481565b34801561070957600080fd5b5060ca54610523906001600160a01b031681565b34801561072957600080fd5b506102c060d05481565b6102c0610741366004612e98565b611c53565b34801561075257600080fd5b5061045360405180604001604052806005815260200164302e302e3160d81b81525081565b600081815260d56020526040812060020154610794576000610797565b60015b92915050565b60d5602052600090815260409020805481906107b890612f00565b80601f01602080910402602001604051908101604052809291908181526020018280546107e490612f00565b80156108315780601f1061080657610100808354040283529160200191610831565b820191906000526020600020905b81548152906001019060200180831161081457829003601f168201915b50505050509080600101805461084690612f00565b80601f016020809104026020016040519081016040528092919081815260200182805461087290612f00565b80156108bf5780601f10610894576101008083540402835291602001916108bf565b820191906000526020600020905b8154815290600101906020018083116108a257829003601f168201915b5050505050908060020154908060030154908060040154908060050180546108e690612f00565b80601f016020809104026020016040519081016040528092919081815260200182805461091290612f00565b801561095f5780601f106109345761010080835404028352916020019161095f565b820191906000526020600020905b81548152906001019060200180831161094257829003601f168201915b5050505050905086565b6001600160a01b038116600090815260d2602090815260408083205460d19092528220546107979190612f51565b306001600160a01b037f0000000000000000000000000000000000000000000000000000000000000000161415610a2a5760405162461bcd60e51b815260206004820152602c60248201527f46756e6374696f6e206d7573742062652063616c6c6564207468726f7567682060448201526b19195b1959d85d1958d85b1b60a21b60648201526084015b60405180910390fd5b7f00000000000000000000000000000000000000000000000000000000000000006001600160a01b0316610a857f360894a13ba1a3210667c828492db98dca3e2076cc3735a920a3ca505d382bbc546001600160a01b031690565b6001600160a01b031614610af05760405162461bcd60e51b815260206004820152602c60248201527f46756e6374696f6e206d7573742062652063616c6c6564207468726f7567682060448201526b6163746976652070726f787960a01b6064820152608401610a21565b610af981611d89565b60408051600080825260208201909252610b1591839190611e46565b50565b600054610100900460ff16610b335760005460ff1615610b37565b303b155b610ba95760405162461bcd60e51b815260206004820152602e60248201527f496e697469616c697a61626c653a20636f6e747261637420697320616c72656160448201527f647920696e697469616c697a65640000000000000000000000000000000000006064820152608401610a21565b600054610100900460ff16158015610bcb576000805461ffff19166101011790555b60c980546001600160a01b038086166001600160a01b03199283161790925560ca805492851692909116919091179055600060cf5566038d7ea4c6800060d055601460cc55601e60cd55603260ce558015610c2c576000805461ff00191690555b505050565b306001600160a01b037f0000000000000000000000000000000000000000000000000000000000000000161415610cbf5760405162461bcd60e51b815260206004820152602c60248201527f46756e6374696f6e206d7573742062652063616c6c6564207468726f7567682060448201526b19195b1959d85d1958d85b1b60a21b6064820152608401610a21565b7f00000000000000000000000000000000000000000000000000000000000000006001600160a01b0316610d1a7f360894a13ba1a3210667c828492db98dca3e2076cc3735a920a3ca505d382bbc546001600160a01b031690565b6001600160a01b031614610d855760405162461bcd60e51b815260206004820152602c60248201527f46756e6374696f6e206d7573742062652063616c6c6564207468726f7567682060448201526b6163746976652070726f787960a01b6064820152608401610a21565b610d8e82611d89565b610d9a82826001611e46565b5050565b600081815260d46020908152604080832060018101546002820154600383015460048401548454865181890281018901909752808752606098978897889788979096879691956001600160a01b039182169592821694911692918791830182828015610e2957602002820191906000526020600020905b815481526020019060010190808311610e15575b50505050509450955095509550955095505091939590929450565b600089815260d560205260408120610e5d908a8a6127c3565b5060008a815260d560205260409020610e7a9060010188886127c3565b5060008a815260d5602052604090206003810186905560048101859055610ea59060050184846127c3565b506040518a81527f9d29e5045b411bb06d81d8ff11c828d9f1d7eb076eec9ca45eda49fc99f762b29060200160405180910390a15060019998505050505050505050565b60c9546001600160a01b03166324d7806c336040516001600160e01b031960e084901b1681526001600160a01b039091166004820152602401602060405180830381865afa158015610f3f573d6000803e3d6000fd5b505050506040513d601f19601f82011682018060405250810190610f639190612f68565b610fa65760405162461bcd60e51b815260206004820152601460248201527321b0b63632b91036bab9ba1031329030b236b4b760611b6044820152606401610a21565b6001600160a01b0381166110225760405162461bcd60e51b815260206004820152602860248201527f4554532e757064617465416363657373436f6e74726f6c733a2043616e6e6f7460448201527f206265207a65726f0000000000000000000000000000000000000000000000006064820152608401610a21565b60c980546001600160a01b038381166001600160a01b031983168117909355604080519190921680825260208201939093527f31073599bfae2533a348dc816b0ce777b707aa9b67015ca2d86585e842b5c6e991015b60405180910390a15050565b60c9546001600160a01b03166324d7806c336040516001600160e01b031960e084901b1681526001600160a01b039091166004820152602401602060405180830381865afa1580156110da573d6000803e3d6000fd5b505050506040513d601f19601f820116820180604052508101906110fe9190612f68565b6111415760405162461bcd60e51b815260206004820152601460248201527321b0b63632b91036bab9ba1031329030b236b4b760611b6044820152606401610a21565b60d080549082905560408051828152602081018490527f861fa8a0dab775faf9bcbb5388a02f7ac01181c036f5c57982464a2d75c3608e9101611078565b60c9546001600160a01b03166324d7806c336040516001600160e01b031960e084901b1681526001600160a01b039091166004820152602401602060405180830381865afa1580156111d5573d6000803e3d6000fd5b505050506040513d601f19601f820116820180604052508101906111f99190612f68565b61123c5760405162461bcd60e51b815260206004820152601460248201527321b0b63632b91036bab9ba1031329030b236b4b760611b6044820152606401610a21565b600082815260d36020908152604091829020805460ff19168415159081179091558251858152918201527f9a1b1e3722de574f6867ada1474b42b28458b0d93fc376664c96cb084b9211819101611078565b60008061129b848461200a565b600081815260d56020526040902060020154909150156112bc579050610797565b6112c68484612040565b949350505050565b60c9546001600160a01b03166324d7806c336040516001600160e01b031960e084901b1681526001600160a01b039091166004820152602401602060405180830381865afa158015611324573d6000803e3d6000fd5b505050506040513d601f19601f820116820180604052508101906113489190612f68565b61138b5760405162461bcd60e51b815260206004820152601460248201527321b0b63632b91036bab9ba1031329030b236b4b760611b6044820152606401610a21565b6001600160a01b0381166114075760405162461bcd60e51b815260206004820152602360248201527f4554532e757064617465455453456e737572653a2043616e6e6f74206265207a60448201527f65726f00000000000000000000000000000000000000000000000000000000006064820152608401610a21565b60cb80546001600160a01b038381166001600160a01b031983168117909355604080519190921680825260208201939093527fee20190c374934660675d28472968e002fc4af227f2956f59085225ad89239fa9101611078565b600260335414156114b45760405162461bcd60e51b815260206004820152601f60248201527f5265656e7472616e637947756172643a207265656e7472616e742063616c6c006044820152606401610a21565b60026033556001600160a01b038116600090815260d2602090815260408083205460d19092528220546114e79190612f51565b90506000811180156114f95750478111155b156115ae576001600160a01b038216600090815260d26020526040902054611522908290612f85565b6001600160a01b038316600081815260d26020526040808220939093559151909183156108fc02918491818181858888f19350505050158015611569573d6000803e3d6000fd5b50816001600160a01b03167feaff4b37086828766ad3268786972c0cd24259d4c87a80f9d3963a3c3d999b0d826040516115a591815260200190565b60405180910390a25b50506001603355565b60c9546001600160a01b03166324d7806c336040516001600160e01b031960e084901b1681526001600160a01b039091166004820152602401602060405180830381865afa15801561160d573d6000803e3d6000fd5b505050506040513d601f19601f820116820180604052508101906116319190612f68565b6116745760405162461bcd60e51b815260206004820152601460248201527321b0b63632b91036bab9ba1031329030b236b4b760611b6044820152606401610a21565b60646116808284612f85565b11156116f45760405162461bcd60e51b815260206004820152603760248201527f4554532e75706461746550657263656e74616765733a2070657263656e74616760448201527f6573206d757374206e6f74206265206f766572203130300000000000000000006064820152608401610a21565b60cc82905560cd8190558061170a836064612f51565b6117149190612f51565b60ce81905560cc5460cd546040805192835260208301919091528101919091527f78c1b0567e296aa5eef70ad2deee29f35e0dd128cac603be855ece3e823f430890606001611078565b600260335414156117b15760405162461bcd60e51b815260206004820152601f60248201527f5265656e7472616e637947756172643a207265656e7472616e742063616c6c006044820152606401610a21565b600260335560c9546040517f2b04fd440000000000000000000000000000000000000000000000000000000081523360048201526001600160a01b0390911690632b04fd4490602401602060405180830381865afa158015611817573d6000803e3d6000fd5b505050506040513d601f19601f8201168201806040525081019061183b9190612f68565b6118875760405162461bcd60e51b815260206004820152601060248201527f4f6e6c79207461726765742074797065000000000000000000000000000000006044820152606401610a21565b60c9546040517f41859ac80000000000000000000000000000000000000000000000000000000081526001600160a01b038681166004830152909116906341859ac890602401602060405180830381865afa1580156118ea573d6000803e3d6000fd5b505050506040513d601f19601f8201168201806040525081019061190e9190612f68565b6119805760405162461bcd60e51b815260206004820152602660248201527f5461673a20546865207075626c6973686572206d75737420626520776869746560448201527f6c697374656400000000000000000000000000000000000000000000000000006064820152608401610a21565b86806119ce5760405162461bcd60e51b815260206004820152601760248201527f4e6f2074616720737472696e677320737570706c6965640000000000000000006044820152606401610a21565b8060d0546119dc9190612f9d565b3414611a2a5760405162461bcd60e51b815260206004820152601a60248201527f5461673a20596f75206d7573742073656e6420746865206665650000000000006044820152606401610a21565b60c9546040517fa88ae5b6000000000000000000000000000000000000000000000000000000008152336004820152600091611af6916001600160a01b039091169063a88ae5b690602401600060405180830381865afa158015611a92573d6000803e3d6000fd5b505050506040513d6000823e601f3d908101601f19168201604052611aba9190810190612fbc565b89898080601f01602080910402602001604051908101604052809392919081815260200183838082843760009201919091525061128e92505050565b905060008267ffffffffffffffff811115611b1357611b13612a4e565b604051908082528060200260200182016040528015611b3c578160200160208202803683370190505b50905060005b83811015611bb5576000611b7a8d8d84818110611b6157611b6161302a565b9050602002810190611b739190613040565b8b8b611c53565b9050611b86818a61213a565b80838381518110611b9957611b9961302a565b602090810291909101015250611bae81613087565b9050611b42565b508315611c345760cb546040517f177f2fb5000000000000000000000000000000000000000000000000000000008152600481018490526001600160a01b039091169063177f2fb590602401600060405180830381600087803b158015611c1b57600080fd5b505af1158015611c2f573d6000803e3d6000fd5b505050505b611c418183898989612479565b50506001603355505050505050505050565b60ca546040517f04befefd00000000000000000000000000000000000000000000000000000000815260009182916001600160a01b03909116906304befefd90611ca390899089906004016130cb565b602060405180830381865afa158015611cc0573d6000803e3d6000fd5b505050506040513d601f19601f82011682018060405250810190611ce491906130df565b905080611d805760ca546040517f7e6d945e0000000000000000000000000000000000000000000000000000000081526001600160a01b0390911690637e6d945e90611d3a9089908990899089906004016130f8565b6020604051808303816000875af1158015611d59573d6000803e3d6000fd5b505050506040513d601f19601f82011682018060405250810190611d7d91906130df565b90505b95945050505050565b60c9546001600160a01b03166324d7806c336040516001600160e01b031960e084901b1681526001600160a01b039091166004820152602401602060405180830381865afa158015611ddf573d6000803e3d6000fd5b505050506040513d601f19601f82011682018060405250810190611e039190612f68565b610b155760405162461bcd60e51b815260206004820152601460248201527321b0b63632b91036bab9ba1031329030b236b4b760611b6044820152606401610a21565b6000611e797f360894a13ba1a3210667c828492db98dca3e2076cc3735a920a3ca505d382bbc546001600160a01b031690565b9050611e8484612595565b600083511180611e915750815b15611ea257611ea0848461264a565b505b7f4910fdfa16fed3260ed0e7147f7cc6da11a60208b5b9406d12a635614ffd9143805460ff1661200357805460ff191660011781556040516001600160a01b0383166024820152611f4f90869060440160408051601f198184030181529190526020810180517bffffffffffffffffffffffffffffffffffffffffffffffffffffffff167f3659cfe60000000000000000000000000000000000000000000000000000000017905261264a565b50805460ff191681557f360894a13ba1a3210667c828492db98dca3e2076cc3735a920a3ca505d382bbc546001600160a01b03838116911614611ffa5760405162461bcd60e51b815260206004820152602f60248201527f45524331393637557067726164653a207570677261646520627265616b73206660448201527f75727468657220757067726164657300000000000000000000000000000000006064820152608401610a21565b61200385612743565b5050505050565b600080838360405160200161202092919061312d565b60408051808303601f190181529190528051602090910120949350505050565b60008061204d848461200a565b6040805160c08101825286815260208082018790524282840152600060608301819052608083018190528351808301855281815260a084015284815260d582529290922081518051949550919390926120aa928492910190612847565b5060208281015180516120c39260018501920190612847565b5060408201516002820155606082015160038201556080820151600482015560a082015180516120fd916005840191602090910190612847565b50506040518281527f503a6e6145f2d2a2a9b0845c2193aef653400c52f93b1c897bd55d36a396be7c915060200160405180910390a19392505050565b60ca546040517f878327ab0000000000000000000000000000000000000000000000000000000081526004810184905260009182916001600160a01b039091169063878327ab906024016040805180830381865afa1580156121a0573d6000803e3d6000fd5b505050506040513d601f19601f820116820180604052508101906121c4919061315c565b91509150816001600160a01b0316816001600160a01b0316141561237057606460cc54346121f29190612f9d565b6121fc919061318b565b6001600160a01b038316600090815260d1602052604090205461221f9190612f85565b6001600160a01b038316600090815260d1602052604090205560cd546064906122489034612f9d565b612252919061318b565b6001600160a01b038416600090815260d160205260409020546122759190612f85565b6001600160a01b03848116600090815260d160205260408082209390935560ca5492517fa30b4db90000000000000000000000000000000000000000000000000000000081526004810188905290929091169063a30b4db990602401602060405180830381865afa1580156122ee573d6000803e3d6000fd5b505050506040513d601f19601f8201168201806040525081019061231291906131ad565b9050606460ce54346123249190612f9d565b61232e919061318b565b6001600160a01b038216600090815260d160205260409020546123519190612f85565b6001600160a01b03909116600090815260d16020526040902055612473565b606460cc54346123809190612f9d565b61238a919061318b565b6001600160a01b038316600090815260d160205260409020546123ad9190612f85565b6001600160a01b038316600090815260d1602052604090205560cd546064906123d69034612f9d565b6123e0919061318b565b6001600160a01b038416600090815260d160205260409020546124039190612f85565b6001600160a01b038416600090815260d1602052604090205560ce5460649061242c9034612f9d565b612436919061318b565b6001600160a01b038216600090815260d160205260409020546124599190612f85565b6001600160a01b038216600090815260d160205260409020555b50505050565b6040518060a00160405280868152602001858152602001836001600160a01b03168152602001846001600160a01b03168152602001826001600160a01b031681525060d4600060cf600081546124ce90613087565b918290555081526020808201929092526040016000208251805191926124f9928492909101906128bb565b5060208281015160018301556040808401516002840180546001600160a01b03199081166001600160a01b0393841617909155606086015160038601805483169184169190911790556080909501516004909401805490951693169290921790925560cf5490519081527f81b185c481377e520177bddb63bab2a8d220831d7c07b748c2baf29c6e607070910160405180910390a15050505050565b803b6126095760405162461bcd60e51b815260206004820152602d60248201527f455243313936373a206e657720696d706c656d656e746174696f6e206973206e60448201527f6f74206120636f6e7472616374000000000000000000000000000000000000006064820152608401610a21565b7f360894a13ba1a3210667c828492db98dca3e2076cc3735a920a3ca505d382bbc80546001600160a01b0319166001600160a01b0392909216919091179055565b6060823b6126c05760405162461bcd60e51b815260206004820152602660248201527f416464726573733a2064656c65676174652063616c6c20746f206e6f6e2d636f60448201527f6e747261637400000000000000000000000000000000000000000000000000006064820152608401610a21565b600080846001600160a01b0316846040516126db91906131ca565b600060405180830381855af49150503d8060008114612716576040519150601f19603f3d011682016040523d82523d6000602084013e61271b565b606091505b5091509150611d8082826040518060600160405280602781526020016131e760279139612783565b61274c81612595565b6040516001600160a01b038216907fbc7cd75a20ee27fd9adebab32041f755214dbc6bffa90cc0225b39da2e5c2d3b90600090a250565b606083156127925750816127bc565b8251156127a25782518084602001fd5b8160405162461bcd60e51b8152600401610a219190612ccb565b9392505050565b8280546127cf90612f00565b90600052602060002090601f0160209004810192826127f15760008555612837565b82601f1061280a5782800160ff19823516178555612837565b82800160010185558215612837579182015b8281111561283757823582559160200191906001019061281c565b506128439291506128f5565b5090565b82805461285390612f00565b90600052602060002090601f0160209004810192826128755760008555612837565b82601f1061288e57805160ff1916838001178555612837565b82800160010185558215612837579182015b828111156128375782518255916020019190600101906128a0565b82805482825590600052602060002090810192821561283757916020028201828111156128375782518255916020019190600101906128a0565b5b8082111561284357600081556001016128f6565b60006020828403121561291c57600080fd5b5035919050565b60005b8381101561293e578181015183820152602001612926565b838111156124735750506000910152565b60008151808452612967816020860160208601612923565b601f01601f19169290920160200192915050565b60c08152600061298e60c083018961294f565b82810360208401526129a0818961294f565b905086604084015285606084015284608084015282810360a08401526129c6818561294f565b9998505050505050505050565b6001600160a01b0381168114610b1557600080fd5b80356129f3816129d3565b919050565b600060208284031215612a0a57600080fd5b81356127bc816129d3565b60008060408385031215612a2857600080fd5b8235612a33816129d3565b91506020830135612a43816129d3565b809150509250929050565b634e487b7160e01b600052604160045260246000fd5b604051601f8201601f1916810167ffffffffffffffff81118282101715612a8d57612a8d612a4e565b604052919050565b600067ffffffffffffffff821115612aaf57612aaf612a4e565b50601f01601f191660200190565b6000612ad0612acb84612a95565b612a64565b9050828152838383011115612ae457600080fd5b828260208301376000602084830101529392505050565b60008060408385031215612b0e57600080fd5b8235612b19816129d3565b9150602083013567ffffffffffffffff811115612b3557600080fd5b8301601f81018513612b4657600080fd5b612b5585823560208401612abd565b9150509250929050565b60a0808252865190820181905260009060209060c0840190828a01845b82811015612b9857815184529284019290840190600101612b7c565b50505090830196909652506001600160a01b0393841660408201529183166060830152909116608090910152919050565b60008083601f840112612bdb57600080fd5b50813567ffffffffffffffff811115612bf357600080fd5b602083019150836020828501011115612c0b57600080fd5b9250929050565b600080600080600080600080600060c08a8c031215612c3057600080fd5b8935985060208a013567ffffffffffffffff80821115612c4f57600080fd5b612c5b8d838e01612bc9565b909a50985060408c0135915080821115612c7457600080fd5b612c808d838e01612bc9565b909850965060608c0135955060808c0135945060a08c0135915080821115612ca757600080fd5b50612cb48c828d01612bc9565b915080935050809150509295985092959850929598565b6020815260006127bc602083018461294f565b8015158114610b1557600080fd5b80356129f381612cde565b60008060408385031215612d0a57600080fd5b823591506020830135612a4381612cde565b600082601f830112612d2d57600080fd5b6127bc83833560208501612abd565b60008060408385031215612d4f57600080fd5b823567ffffffffffffffff80821115612d6757600080fd5b612d7386838701612d1c565b93506020850135915080821115612d8957600080fd5b50612b5585828601612d1c565b60008060408385031215612da957600080fd5b50508035926020909101359150565b60008060008060008060008060c0898b031215612dd457600080fd5b883567ffffffffffffffff80821115612dec57600080fd5b818b0191508b601f830112612e0057600080fd5b813581811115612e0f57600080fd5b8c60208260051b8501011115612e2457600080fd5b60209283019a509850908a01359080821115612e3f57600080fd5b50612e4c8b828c01612bc9565b9097509550612e5f905060408a016129e8565b9350612e6d60608a016129e8565b9250612e7b60808a016129e8565b9150612e8960a08a01612cec565b90509295985092959890939650565b60008060008060608587031215612eae57600080fd5b843567ffffffffffffffff811115612ec557600080fd5b612ed187828801612bc9565b9095509350506020850135612ee5816129d3565b91506040850135612ef5816129d3565b939692955090935050565b600181811c90821680612f1457607f821691505b60208210811415612f3557634e487b7160e01b600052602260045260246000fd5b50919050565b634e487b7160e01b600052601160045260246000fd5b600082821015612f6357612f63612f3b565b500390565b600060208284031215612f7a57600080fd5b81516127bc81612cde565b60008219821115612f9857612f98612f3b565b500190565b6000816000190483118215151615612fb757612fb7612f3b565b500290565b600060208284031215612fce57600080fd5b815167ffffffffffffffff811115612fe557600080fd5b8201601f81018413612ff657600080fd5b8051613004612acb82612a95565b81815285602083850101111561301957600080fd5b611d80826020830160208601612923565b634e487b7160e01b600052603260045260246000fd5b6000808335601e1984360301811261305757600080fd5b83018035915067ffffffffffffffff82111561307257600080fd5b602001915036819003821315612c0b57600080fd5b600060001982141561309b5761309b612f3b565b5060010190565b81835281816020850137506000828201602090810191909152601f909101601f19169091010190565b6020815260006112c66020830184866130a2565b6000602082840312156130f157600080fd5b5051919050565b60608152600061310c6060830186886130a2565b6001600160a01b039485166020840152929093166040909101529392505050565b6000835161313f818460208801612923565b835190830190613153818360208801612923565b01949350505050565b6000806040838503121561316f57600080fd5b825161317a816129d3565b6020840151909250612a43816129d3565b6000826131a857634e487b7160e01b600052601260045260246000fd5b500490565b6000602082840312156131bf57600080fd5b81516127bc816129d3565b600082516131dc818460208701612923565b919091019291505056fe416464726573733a206c6f772d6c6576656c2064656c65676174652063616c6c206661696c6564a264697066735822122080373a2874d6daf142e8ebcf30ad0c44633b1ab000d2d5614e915a81faa9947964736f6c634300080c0033",
  "linkReferences": {},
  "deployedLinkReferences": {}
}