{
  "_format": "hh-sol-artifact-1",
  "contractName": "ETSUpgrade",
  "sourceName": "contracts/utils/UUPS/UUPSTesting.sol",
  "abi": [
    {
      "anonymous": false,
      "inputs": [
        {
          "indexed": false,
          "internalType": "contract ETSAccessControls",
          "name": "previousAccessControls",
          "type": "address"
        },
        {
          "indexed": false,
          "internalType": "contract ETSAccessControls",
          "name": "newAccessControls",
          "type": "address"
        }
      ],
      "name": "AccessControlsUpdated",
      "type": "event"
    },
    {
      "anonymous": false,
      "inputs": [
        {
          "indexed": false,
          "internalType": "address",
          "name": "previousAdmin",
          "type": "address"
        },
        {
          "indexed": false,
          "internalType": "address",
          "name": "newAdmin",
          "type": "address"
        }
      ],
      "name": "AdminChanged",
      "type": "event"
    },
    {
      "anonymous": false,
      "inputs": [
        {
          "indexed": true,
          "internalType": "address",
          "name": "beacon",
          "type": "address"
        }
      ],
      "name": "BeaconUpgraded",
      "type": "event"
    },
    {
      "anonymous": false,
      "inputs": [
        {
          "indexed": false,
          "internalType": "contract ETSEnsure",
          "name": "previousETSEnsure",
          "type": "address"
        },
        {
          "indexed": false,
          "internalType": "contract ETSEnsure",
          "name": "newETSEnsure",
          "type": "address"
        }
      ],
      "name": "ETSEnsureUpdated",
      "type": "event"
    },
    {
      "anonymous": false,
      "inputs": [
        {
          "indexed": true,
          "internalType": "address",
          "name": "who",
          "type": "address"
        },
        {
          "indexed": false,
          "internalType": "uint256",
          "name": "amount",
          "type": "uint256"
        }
      ],
      "name": "FundsWithdrawn",
      "type": "event"
    },
    {
      "anonymous": false,
      "inputs": [
        {
          "indexed": false,
          "internalType": "uint256",
          "name": "platformPercentage",
          "type": "uint256"
        },
        {
          "indexed": false,
          "internalType": "uint256",
          "name": "publisherPercentage",
          "type": "uint256"
        },
        {
          "indexed": false,
          "internalType": "uint256",
          "name": "remainingPercentage",
          "type": "uint256"
        }
      ],
      "name": "PercentagesSet",
      "type": "event"
    },
    {
      "anonymous": false,
      "inputs": [
        {
          "indexed": false,
          "internalType": "uint256",
          "name": "nftChainId",
          "type": "uint256"
        },
        {
          "indexed": false,
          "internalType": "bool",
          "name": "setting",
          "type": "bool"
        }
      ],
      "name": "PermittedNftChainIdSet",
      "type": "event"
    },
    {
      "anonymous": false,
      "inputs": [
        {
          "indexed": false,
          "internalType": "uint256",
          "name": "targetId",
          "type": "uint256"
        }
      ],
      "name": "RequestEnsureTarget",
      "type": "event"
    },
    {
      "anonymous": false,
      "inputs": [
        {
          "indexed": false,
          "internalType": "uint256",
          "name": "previousFee",
          "type": "uint256"
        },
        {
          "indexed": false,
          "internalType": "uint256",
          "name": "taggingFee",
          "type": "uint256"
        }
      ],
      "name": "TaggingFeeSet",
      "type": "event"
    },
    {
      "anonymous": false,
      "inputs": [
        {
          "indexed": false,
          "internalType": "uint256",
          "name": "targetId",
          "type": "uint256"
        }
      ],
      "name": "TargetCreated",
      "type": "event"
    },
    {
      "anonymous": false,
      "inputs": [
        {
          "indexed": false,
          "internalType": "uint256",
          "name": "taggingId",
          "type": "uint256"
        }
      ],
      "name": "TargetTagged",
      "type": "event"
    },
    {
      "anonymous": false,
      "inputs": [
        {
          "indexed": false,
          "internalType": "string",
          "name": "typeName",
          "type": "string"
        },
        {
          "indexed": false,
          "internalType": "bool",
          "name": "setting",
          "type": "bool"
        }
      ],
      "name": "TargetTypeSet",
      "type": "event"
    },
    {
      "anonymous": false,
      "inputs": [
        {
          "indexed": false,
          "internalType": "uint256",
          "name": "targetId",
          "type": "uint256"
        }
      ],
      "name": "TargetUpdated",
      "type": "event"
    },
    {
      "anonymous": false,
      "inputs": [
        {
          "indexed": true,
          "internalType": "address",
          "name": "implementation",
          "type": "address"
        }
      ],
      "name": "Upgraded",
      "type": "event"
    },
    {
      "inputs": [],
      "name": "NAME",
      "outputs": [
        {
          "internalType": "string",
          "name": "",
          "type": "string"
        }
      ],
      "stateMutability": "view",
      "type": "function"
    },
    {
      "inputs": [],
      "name": "VERSION",
      "outputs": [
        {
          "internalType": "string",
          "name": "",
          "type": "string"
        }
      ],
      "stateMutability": "view",
      "type": "function"
    },
    {
      "inputs": [],
      "name": "accessControls",
      "outputs": [
        {
          "internalType": "contract ETSAccessControls",
          "name": "",
          "type": "address"
        }
      ],
      "stateMutability": "view",
      "type": "function"
    },
    {
      "inputs": [
        {
          "internalType": "address",
          "name": "",
          "type": "address"
        }
      ],
      "name": "accrued",
      "outputs": [
        {
          "internalType": "uint256",
          "name": "",
          "type": "uint256"
        }
      ],
      "stateMutability": "view",
      "type": "function"
    },
    {
      "inputs": [
        {
          "internalType": "string",
          "name": "_targetType",
          "type": "string"
        },
        {
          "internalType": "string",
          "name": "_targetURI",
          "type": "string"
        }
      ],
      "name": "createTarget",
      "outputs": [
        {
          "internalType": "uint256",
          "name": "targetId",
          "type": "uint256"
        }
      ],
      "stateMutability": "nonpayable",
      "type": "function"
    },
    {
      "inputs": [
        {
          "internalType": "address payable",
          "name": "_account",
          "type": "address"
        }
      ],
      "name": "drawDown",
      "outputs": [],
      "stateMutability": "nonpayable",
      "type": "function"
    },
    {
      "inputs": [],
      "name": "etsEnsure",
      "outputs": [
        {
          "internalType": "contract ETSEnsure",
          "name": "",
          "type": "address"
        }
      ],
      "stateMutability": "view",
      "type": "function"
    },
    {
      "inputs": [],
      "name": "etsTag",
      "outputs": [
        {
          "internalType": "contract ETSTag",
          "name": "",
          "type": "address"
        }
      ],
      "stateMutability": "view",
      "type": "function"
    },
    {
      "inputs": [
        {
          "internalType": "string",
          "name": "_tagString",
          "type": "string"
        },
        {
          "internalType": "address payable",
          "name": "_publisher",
          "type": "address"
        },
        {
          "internalType": "address",
          "name": "_tagger",
          "type": "address"
        }
      ],
      "name": "getOrCreateTagId",
      "outputs": [
        {
          "internalType": "uint256",
          "name": "etstagId",
          "type": "uint256"
        }
      ],
      "stateMutability": "payable",
      "type": "function"
    },
    {
      "inputs": [
        {
          "internalType": "uint256",
          "name": "_nftChainId",
          "type": "uint256"
        }
      ],
      "name": "getPermittedNftChainId",
      "outputs": [
        {
          "internalType": "bool",
          "name": "",
          "type": "bool"
        }
      ],
      "stateMutability": "view",
      "type": "function"
    },
    {
      "inputs": [
        {
          "internalType": "uint256",
          "name": "_taggingId",
          "type": "uint256"
        }
      ],
      "name": "getTaggingRecord",
      "outputs": [
        {
          "internalType": "uint256[]",
          "name": "_etsTagIds",
          "type": "uint256[]"
        },
        {
          "internalType": "uint256",
          "name": "_targetId",
          "type": "uint256"
        },
        {
          "internalType": "address",
          "name": "_tagger",
          "type": "address"
        },
        {
          "internalType": "address",
          "name": "_publisher",
          "type": "address"
        },
        {
          "internalType": "uint256",
          "name": "_timestamp",
          "type": "uint256"
        }
      ],
      "stateMutability": "view",
      "type": "function"
    },
    {
      "inputs": [
        {
          "internalType": "string",
          "name": "_targetType",
          "type": "string"
        },
        {
          "internalType": "string",
          "name": "_targetURI",
          "type": "string"
        }
      ],
      "name": "getTargetId",
      "outputs": [
        {
          "internalType": "uint256",
          "name": "targetId",
          "type": "uint256"
        }
      ],
      "stateMutability": "nonpayable",
      "type": "function"
    },
    {
      "inputs": [
        {
          "internalType": "contract ETSAccessControls",
          "name": "_accessControls",
          "type": "address"
        },
        {
          "internalType": "contract ETSTag",
          "name": "_etsTag",
          "type": "address"
        }
      ],
      "name": "initialize",
      "outputs": [],
      "stateMutability": "nonpayable",
      "type": "function"
    },
    {
      "inputs": [],
      "name": "modulo",
      "outputs": [
        {
          "internalType": "uint256",
          "name": "",
          "type": "uint256"
        }
      ],
      "stateMutability": "view",
      "type": "function"
    },
    {
      "inputs": [
        {
          "internalType": "address",
          "name": "",
          "type": "address"
        }
      ],
      "name": "paid",
      "outputs": [
        {
          "internalType": "uint256",
          "name": "",
          "type": "uint256"
        }
      ],
      "stateMutability": "view",
      "type": "function"
    },
    {
      "inputs": [
        {
          "internalType": "uint256",
          "name": "",
          "type": "uint256"
        }
      ],
      "name": "permittedNftChainIds",
      "outputs": [
        {
          "internalType": "bool",
          "name": "",
          "type": "bool"
        }
      ],
      "stateMutability": "view",
      "type": "function"
    },
    {
      "inputs": [],
      "name": "platformPercentage",
      "outputs": [
        {
          "internalType": "uint256",
          "name": "",
          "type": "uint256"
        }
      ],
      "stateMutability": "view",
      "type": "function"
    },
    {
      "inputs": [],
      "name": "publisherPercentage",
      "outputs": [
        {
          "internalType": "uint256",
          "name": "",
          "type": "uint256"
        }
      ],
      "stateMutability": "view",
      "type": "function"
    },
    {
      "inputs": [],
      "name": "remainingPercentage",
      "outputs": [
        {
          "internalType": "uint256",
          "name": "",
          "type": "uint256"
        }
      ],
      "stateMutability": "view",
      "type": "function"
    },
    {
      "inputs": [
        {
          "internalType": "uint256",
          "name": "_nftChainId",
          "type": "uint256"
        },
        {
          "internalType": "bool",
          "name": "_setting",
          "type": "bool"
        }
      ],
      "name": "setPermittedNftChainId",
      "outputs": [],
      "stateMutability": "nonpayable",
      "type": "function"
    },
    {
      "inputs": [
        {
          "internalType": "uint256",
          "name": "_fee",
          "type": "uint256"
        }
      ],
      "name": "setTaggingFee",
      "outputs": [],
      "stateMutability": "nonpayable",
      "type": "function"
    },
    {
      "inputs": [
        {
          "internalType": "string[]",
          "name": "_tagStrings",
          "type": "string[]"
        },
        {
          "internalType": "string",
          "name": "_targetURI",
          "type": "string"
        },
        {
          "internalType": "address payable",
          "name": "_publisher",
          "type": "address"
        },
        {
          "internalType": "address",
          "name": "_tagger",
          "type": "address"
        },
        {
          "internalType": "bool",
          "name": "_ensure",
          "type": "bool"
        }
      ],
      "name": "tagTarget",
      "outputs": [],
      "stateMutability": "payable",
      "type": "function"
    },
    {
      "inputs": [],
      "name": "taggingCounter",
      "outputs": [
        {
          "internalType": "uint256",
          "name": "",
          "type": "uint256"
        }
      ],
      "stateMutability": "view",
      "type": "function"
    },
    {
      "inputs": [],
      "name": "taggingFee",
      "outputs": [
        {
          "internalType": "uint256",
          "name": "",
          "type": "uint256"
        }
      ],
      "stateMutability": "view",
      "type": "function"
    },
    {
      "inputs": [
        {
          "internalType": "uint256",
          "name": "",
          "type": "uint256"
        }
      ],
      "name": "taggingRecords",
      "outputs": [
        {
          "internalType": "uint256",
          "name": "targetId",
          "type": "uint256"
        },
        {
          "internalType": "address",
          "name": "tagger",
          "type": "address"
        },
        {
          "internalType": "address",
          "name": "publisher",
          "type": "address"
        },
        {
          "internalType": "uint256",
          "name": "timestamp",
          "type": "uint256"
        }
      ],
      "stateMutability": "view",
      "type": "function"
    },
    {
      "inputs": [
        {
          "internalType": "uint256",
          "name": "targetId",
          "type": "uint256"
        }
      ],
      "name": "targetExists",
      "outputs": [
        {
          "internalType": "bool",
          "name": "",
          "type": "bool"
        }
      ],
      "stateMutability": "view",
      "type": "function"
    },
    {
      "inputs": [
        {
          "internalType": "uint256",
          "name": "",
          "type": "uint256"
        }
      ],
      "name": "targets",
      "outputs": [
        {
          "internalType": "string",
          "name": "targetType",
          "type": "string"
        },
        {
          "internalType": "string",
          "name": "targetURI",
          "type": "string"
        },
        {
          "internalType": "uint256",
          "name": "created",
          "type": "uint256"
        },
        {
          "internalType": "uint256",
          "name": "lastEnsured",
          "type": "uint256"
        },
        {
          "internalType": "uint256",
          "name": "status",
          "type": "uint256"
        },
        {
          "internalType": "string",
          "name": "ipfsHash",
          "type": "string"
        }
      ],
      "stateMutability": "view",
      "type": "function"
    },
    {
      "inputs": [
        {
          "internalType": "address",
          "name": "_account",
          "type": "address"
        }
      ],
      "name": "totalDue",
      "outputs": [
        {
          "internalType": "uint256",
          "name": "_due",
          "type": "uint256"
        }
      ],
      "stateMutability": "view",
      "type": "function"
    },
    {
      "inputs": [
        {
          "internalType": "contract ETSAccessControls",
          "name": "_accessControls",
          "type": "address"
        }
      ],
      "name": "updateAccessControls",
      "outputs": [],
      "stateMutability": "nonpayable",
      "type": "function"
    },
    {
      "inputs": [
        {
          "internalType": "contract ETSEnsure",
          "name": "_etsEnsure",
          "type": "address"
        }
      ],
      "name": "updateETSEnsure",
      "outputs": [],
      "stateMutability": "nonpayable",
      "type": "function"
    },
    {
      "inputs": [
        {
          "internalType": "uint256",
          "name": "_platformPercentage",
          "type": "uint256"
        },
        {
          "internalType": "uint256",
          "name": "_publisherPercentage",
          "type": "uint256"
        }
      ],
      "name": "updatePercentages",
      "outputs": [],
      "stateMutability": "nonpayable",
      "type": "function"
    },
    {
      "inputs": [
        {
          "internalType": "uint256",
          "name": "_targetId",
          "type": "uint256"
        },
        {
          "internalType": "string",
          "name": "_targetType",
          "type": "string"
        },
        {
          "internalType": "string",
          "name": "_targetURI",
          "type": "string"
        },
        {
          "internalType": "uint256",
          "name": "_lastEnsured",
          "type": "uint256"
        },
        {
          "internalType": "uint256",
          "name": "_status",
          "type": "uint256"
        },
        {
          "internalType": "string",
          "name": "_ipfsHash",
          "type": "string"
        }
      ],
      "name": "updateTarget",
      "outputs": [
        {
          "internalType": "bool",
          "name": "success",
          "type": "bool"
        }
      ],
      "stateMutability": "nonpayable",
      "type": "function"
    },
    {
      "inputs": [],
      "name": "upgradeTest",
      "outputs": [
        {
          "internalType": "bool",
          "name": "",
          "type": "bool"
        }
      ],
      "stateMutability": "pure",
      "type": "function"
    },
    {
      "inputs": [
        {
          "internalType": "address",
          "name": "newImplementation",
          "type": "address"
        }
      ],
      "name": "upgradeTo",
      "outputs": [],
      "stateMutability": "nonpayable",
      "type": "function"
    },
    {
      "inputs": [
        {
          "internalType": "address",
          "name": "newImplementation",
          "type": "address"
        },
        {
          "internalType": "bytes",
          "name": "data",
          "type": "bytes"
        }
      ],
      "name": "upgradeToAndCall",
      "outputs": [],
      "stateMutability": "payable",
      "type": "function"
    },
    {
      "inputs": [],
      "name": "version",
      "outputs": [
        {
          "internalType": "string",
          "name": "",
          "type": "string"
        }
      ],
      "stateMutability": "pure",
      "type": "function"
    }
  ],
  "bytecode": "0x60a06040523060805234801561001457600080fd5b5060805161324a61004560003960008181610a1c01528181610aa601528181610cb60152610d3b015261324a6000f3fe60806040526004361061024f5760003560e01c8063748365ef11610138578063c2062005116100b0578063e88b772c1161007f578063fe52656f11610064578063fe52656f14610757578063fed6c2e91461076d578063ffa1ad741461078057600080fd5b8063e88b772c14610721578063f8bc3cc61461073757600080fd5b8063c2062005146106ae578063c20d2295146106ce578063c570859a146106ee578063e16ee5a31461070157600080fd5b8063a3f4df7e11610107578063b148440f116100ec578063b148440f14610641578063b205f8081461066e578063b7d0e7dd1461068e57600080fd5b8063a3f4df7e146105d8578063a97dda401461062157600080fd5b8063748365ef1461053d5780637e2e4c5214610575578063962ed2321461058b578063a340cf79146105ab57600080fd5b80633659cfe6116101cb578063501a323a1161019a57806354fd4d501161017f57806354fd4d50146104645780636ef3da941461049b57806374716c81146104bb57600080fd5b8063501a323a14610413578063507f3ba11461044457600080fd5b80633659cfe6146103aa5780633d20b15c146103cc578063485cc955146103e05780634f1ef2861461040057600080fd5b80631797df5911610222578063200e06af11610207578063200e06af1461034f578063297452621461037f578063337ccf9d1461039457600080fd5b80631797df59146103095780631f7418971461033957600080fd5b80630477fe28146102545780630a39ce02146102895780630ad2f0c3146102bb578063146da5c4146102e9575b600080fd5b34801561026057600080fd5b5061027461026f366004612925565b6107b1565b60405190151581526020015b60405180910390f35b34801561029557600080fd5b506102a96102a4366004612925565b6107d7565b60405161028096959493929190612996565b3480156102c757600080fd5b506102db6102d6366004612a13565b6109a3565b604051908152602001610280565b3480156102f557600080fd5b506102db610304366004612afd565b6109d1565b34801561031557600080fd5b50610274610324366004612925565b600090815260d3602052604090205460ff1690565b34801561034557600080fd5b506102db60cc5481565b34801561035b57600080fd5b5061027461036a366004612925565b60d36020526000908152604090205460ff1681565b34801561038b57600080fd5b506102db606481565b3480156103a057600080fd5b506102db60ce5481565b3480156103b657600080fd5b506103ca6103c5366004612a13565b610a11565b005b3480156103d857600080fd5b506001610274565b3480156103ec57600080fd5b506103ca6103fb366004612b61565b610b92565b6103ca61040e366004612b9a565b610cab565b34801561041f57600080fd5b5061043361042e366004612925565b610e18565b604051610280959493929190612bf4565b34801561045057600080fd5b5061027461045f366004612ca3565b610ebe565b34801561047057600080fd5b50604080518082019091526005815264302e302e3160d81b60208201525b6040516102809190612d5c565b3480156104a757600080fd5b506103ca6104b6366004612a13565b610f63565b3480156104c757600080fd5b5061050d6104d6366004612925565b60d460205260009081526040902060018101546002820154600383015460049093015491926001600160a01b039182169291169084565b60405161028094939291909384526001600160a01b03928316602085015291166040830152606082015260800190565b34801561054957600080fd5b5060c95461055d906001600160a01b031681565b6040516001600160a01b039091168152602001610280565b34801561058157600080fd5b506102db60cd5481565b34801561059757600080fd5b506103ca6105a6366004612925565b6110fe565b3480156105b757600080fd5b506102db6105c6366004612a13565b60d26020526000908152604090205481565b3480156105e457600080fd5b5061048e6040518060400160405280600881526020017f45545320436f726500000000000000000000000000000000000000000000000081525081565b34801561062d57600080fd5b506103ca61063c366004612d88565b6111f9565b34801561064d57600080fd5b506102db61065c366004612a13565b60d16020526000908152604090205481565b34801561067a57600080fd5b506103ca610689366004612a13565b611308565b34801561069a57600080fd5b5060cb5461055d906001600160a01b031681565b3480156106ba57600080fd5b506103ca6106c9366004612a13565b61149b565b3480156106da57600080fd5b506103ca6106e9366004612dad565b6115f1565b6103ca6106fc366004612dcf565b611798565b34801561070d57600080fd5b506102db61071c366004612afd565b611c7f565b34801561072d57600080fd5b506102db60cf5481565b34801561074357600080fd5b5060ca5461055d906001600160a01b031681565b34801561076357600080fd5b506102db60d05481565b6102db61077b366004612e9f565b611d79565b34801561078c57600080fd5b5061048e60405180604001604052806005815260200164302e302e3160d81b81525081565b600081815260d560205260408120600201546107ce5760006107d1565b60015b92915050565b60d5602052600090815260409020805481906107f290612f07565b80601f016020809104026020016040519081016040528092919081815260200182805461081e90612f07565b801561086b5780601f106108405761010080835404028352916020019161086b565b820191906000526020600020905b81548152906001019060200180831161084e57829003601f168201915b50505050509080600101805461088090612f07565b80601f01602080910402602001604051908101604052809291908181526020018280546108ac90612f07565b80156108f95780601f106108ce576101008083540402835291602001916108f9565b820191906000526020600020905b8154815290600101906020018083116108dc57829003601f168201915b50505050509080600201549080600301549080600401549080600501805461092090612f07565b80601f016020809104026020016040519081016040528092919081815260200182805461094c90612f07565b80156109995780601f1061096e57610100808354040283529160200191610999565b820191906000526020600020905b81548152906001019060200180831161097c57829003601f168201915b5050505050905086565b6001600160a01b038116600090815260d2602090815260408083205460d19092528220546107d19190612f58565b6000806109de8484611eaf565b600081815260d56020526040902060020154909150156109ff5790506107d1565b610a098484611c7f565b949350505050565b306001600160a01b037f0000000000000000000000000000000000000000000000000000000000000000161415610aa45760405162461bcd60e51b815260206004820152602c60248201527f46756e6374696f6e206d7573742062652063616c6c6564207468726f7567682060448201526b19195b1959d85d1958d85b1b60a21b60648201526084015b60405180910390fd5b7f00000000000000000000000000000000000000000000000000000000000000006001600160a01b0316610aff7f360894a13ba1a3210667c828492db98dca3e2076cc3735a920a3ca505d382bbc546001600160a01b031690565b6001600160a01b031614610b6a5760405162461bcd60e51b815260206004820152602c60248201527f46756e6374696f6e206d7573742062652063616c6c6564207468726f7567682060448201526b6163746976652070726f787960a01b6064820152608401610a9b565b610b7381611ee5565b60408051600080825260208201909252610b8f91839190611fa2565b50565b600054610100900460ff16610bad5760005460ff1615610bb1565b303b155b610c235760405162461bcd60e51b815260206004820152602e60248201527f496e697469616c697a61626c653a20636f6e747261637420697320616c72656160448201527f647920696e697469616c697a65640000000000000000000000000000000000006064820152608401610a9b565b600054610100900460ff16158015610c45576000805461ffff19166101011790555b60c980546001600160a01b038086166001600160a01b03199283161790925560ca805492851692909116919091179055600060cf5566038d7ea4c6800060d055601460cc55601e60cd55603260ce558015610ca6576000805461ff00191690555b505050565b306001600160a01b037f0000000000000000000000000000000000000000000000000000000000000000161415610d395760405162461bcd60e51b815260206004820152602c60248201527f46756e6374696f6e206d7573742062652063616c6c6564207468726f7567682060448201526b19195b1959d85d1958d85b1b60a21b6064820152608401610a9b565b7f00000000000000000000000000000000000000000000000000000000000000006001600160a01b0316610d947f360894a13ba1a3210667c828492db98dca3e2076cc3735a920a3ca505d382bbc546001600160a01b031690565b6001600160a01b031614610dff5760405162461bcd60e51b815260206004820152602c60248201527f46756e6374696f6e206d7573742062652063616c6c6564207468726f7567682060448201526b6163746976652070726f787960a01b6064820152608401610a9b565b610e0882611ee5565b610e1482826001611fa2565b5050565b600081815260d46020908152604080832060018101546002820154600383015460048401548454865181890281018901909752808752606098978897889788979096879691956001600160a01b039182169592909116939092918791830182828015610ea357602002820191906000526020600020905b815481526020019060010190808311610e8f575b50505050509450955095509550955095505091939590929450565b600089815260d560205260408120610ed7908a8a6127de565b5060008a815260d560205260409020610ef49060010188886127de565b5060008a815260d5602052604090206003810186905560048101859055610f1f9060050184846127de565b506040518a81527f9d29e5045b411bb06d81d8ff11c828d9f1d7eb076eec9ca45eda49fc99f762b29060200160405180910390a15060019998505050505050505050565b60c9546001600160a01b03166324d7806c336040516001600160e01b031960e084901b1681526001600160a01b039091166004820152602401602060405180830381865afa158015610fb9573d6000803e3d6000fd5b505050506040513d601f19601f82011682018060405250810190610fdd9190612f6f565b6110205760405162461bcd60e51b815260206004820152601460248201527321b0b63632b91036bab9ba1031329030b236b4b760611b6044820152606401610a9b565b6001600160a01b03811661109c5760405162461bcd60e51b815260206004820152602860248201527f4554532e757064617465416363657373436f6e74726f6c733a2043616e6e6f7460448201527f206265207a65726f0000000000000000000000000000000000000000000000006064820152608401610a9b565b60c980546001600160a01b038381166001600160a01b031983168117909355604080519190921680825260208201939093527f31073599bfae2533a348dc816b0ce777b707aa9b67015ca2d86585e842b5c6e991015b60405180910390a15050565b60c9546001600160a01b03166324d7806c336040516001600160e01b031960e084901b1681526001600160a01b039091166004820152602401602060405180830381865afa158015611154573d6000803e3d6000fd5b505050506040513d601f19601f820116820180604052508101906111789190612f6f565b6111bb5760405162461bcd60e51b815260206004820152601460248201527321b0b63632b91036bab9ba1031329030b236b4b760611b6044820152606401610a9b565b60d080549082905560408051828152602081018490527f861fa8a0dab775faf9bcbb5388a02f7ac01181c036f5c57982464a2d75c3608e91016110f2565b60c9546001600160a01b03166324d7806c336040516001600160e01b031960e084901b1681526001600160a01b039091166004820152602401602060405180830381865afa15801561124f573d6000803e3d6000fd5b505050506040513d601f19601f820116820180604052508101906112739190612f6f565b6112b65760405162461bcd60e51b815260206004820152601460248201527321b0b63632b91036bab9ba1031329030b236b4b760611b6044820152606401610a9b565b600082815260d36020908152604091829020805460ff19168415159081179091558251858152918201527f9a1b1e3722de574f6867ada1474b42b28458b0d93fc376664c96cb084b92118191016110f2565b60c9546001600160a01b03166324d7806c336040516001600160e01b031960e084901b1681526001600160a01b039091166004820152602401602060405180830381865afa15801561135e573d6000803e3d6000fd5b505050506040513d601f19601f820116820180604052508101906113829190612f6f565b6113c55760405162461bcd60e51b815260206004820152601460248201527321b0b63632b91036bab9ba1031329030b236b4b760611b6044820152606401610a9b565b6001600160a01b0381166114415760405162461bcd60e51b815260206004820152602360248201527f4554532e757064617465455453456e737572653a2043616e6e6f74206265207a60448201527f65726f00000000000000000000000000000000000000000000000000000000006064820152608401610a9b565b60cb80546001600160a01b038381166001600160a01b031983168117909355604080519190921680825260208201939093527fee20190c374934660675d28472968e002fc4af227f2956f59085225ad89239fa91016110f2565b600260335414156114ee5760405162461bcd60e51b815260206004820152601f60248201527f5265656e7472616e637947756172643a207265656e7472616e742063616c6c006044820152606401610a9b565b60026033556001600160a01b038116600090815260d2602090815260408083205460d19092528220546115219190612f58565b90506000811180156115335750478111155b156115e8576001600160a01b038216600090815260d2602052604090205461155c908290612f8c565b6001600160a01b038316600081815260d26020526040808220939093559151909183156108fc02918491818181858888f193505050501580156115a3573d6000803e3d6000fd5b50816001600160a01b03167feaff4b37086828766ad3268786972c0cd24259d4c87a80f9d3963a3c3d999b0d826040516115df91815260200190565b60405180910390a25b50506001603355565b60c9546001600160a01b03166324d7806c336040516001600160e01b031960e084901b1681526001600160a01b039091166004820152602401602060405180830381865afa158015611647573d6000803e3d6000fd5b505050506040513d601f19601f8201168201806040525081019061166b9190612f6f565b6116ae5760405162461bcd60e51b815260206004820152601460248201527321b0b63632b91036bab9ba1031329030b236b4b760611b6044820152606401610a9b565b60646116ba8284612f8c565b111561172e5760405162461bcd60e51b815260206004820152603760248201527f4554532e75706461746550657263656e74616765733a2070657263656e74616760448201527f6573206d757374206e6f74206265206f766572203130300000000000000000006064820152608401610a9b565b60cc82905560cd81905580611744836064612f58565b61174e9190612f58565b60ce81905560cc5460cd546040805192835260208301919091528101919091527f78c1b0567e296aa5eef70ad2deee29f35e0dd128cac603be855ece3e823f4308906060016110f2565b600260335414156117eb5760405162461bcd60e51b815260206004820152601f60248201527f5265656e7472616e637947756172643a207265656e7472616e742063616c6c006044820152606401610a9b565b600260335560c9546040517f2b04fd440000000000000000000000000000000000000000000000000000000081523360048201526001600160a01b0390911690632b04fd4490602401602060405180830381865afa158015611851573d6000803e3d6000fd5b505050506040513d601f19601f820116820180604052508101906118759190612f6f565b6118c15760405162461bcd60e51b815260206004820152601060248201527f4f6e6c79207461726765742074797065000000000000000000000000000000006044820152606401610a9b565b60c9546040517f41859ac80000000000000000000000000000000000000000000000000000000081526001600160a01b038581166004830152909116906341859ac890602401602060405180830381865afa158015611924573d6000803e3d6000fd5b505050506040513d601f19601f820116820180604052508101906119489190612f6f565b6119ba5760405162461bcd60e51b815260206004820152602660248201527f5461673a20546865207075626c6973686572206d75737420626520776869746560448201527f6c697374656400000000000000000000000000000000000000000000000000006064820152608401610a9b565b85611a075760405162461bcd60e51b815260206004820152601760248201527f4e6f2074616720737472696e677320737570706c6965640000000000000000006044820152606401610a9b565b60d054341015611a595760405162461bcd60e51b815260206004820152601a60248201527f5461673a20596f75206d7573742073656e6420746865206665650000000000006044820152606401610a9b565b60c9546040517fa88ae5b6000000000000000000000000000000000000000000000000000000008152336004820152600091611b25916001600160a01b039091169063a88ae5b690602401600060405180830381865afa158015611ac1573d6000803e3d6000fd5b505050506040513d6000823e601f3d908101601f19168201604052611ae99190810190612fa4565b87878080601f0160208091040260200160405190810160405280939291908181526020018383808284376000920191909152506109d192505050565b905060008767ffffffffffffffff811115611b4257611b42612a30565b604051908082528060200260200182016040528015611b6b578160200160208202803683370190505b50905060005b88811015611be4576000611ba98b8b84818110611b9057611b90613012565b9050602002810190611ba29190613028565b8989611d79565b9050611bb58188612166565b80838381518110611bc857611bc8613012565b602090810291909101015250611bdd8161306f565b9050611b71565b508215611c635760cb546040517f177f2fb5000000000000000000000000000000000000000000000000000000008152600481018490526001600160a01b039091169063177f2fb590602401600060405180830381600087803b158015611c4a57600080fd5b505af1158015611c5e573d6000803e3d6000fd5b505050505b611c6f818387876124a5565b5050600160335550505050505050565b600080611c8c8484611eaf565b6040805160c08101825286815260208082018790524282840152600060608301819052608083018190528351808301855281815260a084015284815260d58252929092208151805194955091939092611ce9928492910190612862565b506020828101518051611d029260018501920190612862565b5060408201516002820155606082015160038201556080820151600482015560a08201518051611d3c916005840191602090910190612862565b50506040518281527f503a6e6145f2d2a2a9b0845c2193aef653400c52f93b1c897bd55d36a396be7c915060200160405180910390a19392505050565b60ca546040517f04befefd00000000000000000000000000000000000000000000000000000000815260009182916001600160a01b03909116906304befefd90611dc990899089906004016130b3565b602060405180830381865afa158015611de6573d6000803e3d6000fd5b505050506040513d601f19601f82011682018060405250810190611e0a91906130c7565b905080611ea65760ca546040517f7e6d945e0000000000000000000000000000000000000000000000000000000081526001600160a01b0390911690637e6d945e90611e609089908990899089906004016130e0565b6020604051808303816000875af1158015611e7f573d6000803e3d6000fd5b505050506040513d601f19601f82011682018060405250810190611ea391906130c7565b90505b95945050505050565b6000808383604051602001611ec5929190613115565b60408051808303601f190181529190528051602090910120949350505050565b60c9546001600160a01b03166324d7806c336040516001600160e01b031960e084901b1681526001600160a01b039091166004820152602401602060405180830381865afa158015611f3b573d6000803e3d6000fd5b505050506040513d601f19601f82011682018060405250810190611f5f9190612f6f565b610b8f5760405162461bcd60e51b815260206004820152601460248201527321b0b63632b91036bab9ba1031329030b236b4b760611b6044820152606401610a9b565b6000611fd57f360894a13ba1a3210667c828492db98dca3e2076cc3735a920a3ca505d382bbc546001600160a01b031690565b9050611fe0846125b0565b600083511180611fed5750815b15611ffe57611ffc8484612665565b505b7f4910fdfa16fed3260ed0e7147f7cc6da11a60208b5b9406d12a635614ffd9143805460ff1661215f57805460ff191660011781556040516001600160a01b03831660248201526120ab90869060440160408051601f198184030181529190526020810180517bffffffffffffffffffffffffffffffffffffffffffffffffffffffff167f3659cfe600000000000000000000000000000000000000000000000000000000179052612665565b50805460ff191681557f360894a13ba1a3210667c828492db98dca3e2076cc3735a920a3ca505d382bbc546001600160a01b038381169116146121565760405162461bcd60e51b815260206004820152602f60248201527f45524331393637557067726164653a207570677261646520627265616b73206660448201527f75727468657220757067726164657300000000000000000000000000000000006064820152608401610a9b565b61215f8561275e565b5050505050565b60ca546040517f878327ab0000000000000000000000000000000000000000000000000000000081526004810184905260009182916001600160a01b039091169063878327ab906024016040805180830381865afa1580156121cc573d6000803e3d6000fd5b505050506040513d601f19601f820116820180604052508101906121f09190613144565b91509150816001600160a01b0316816001600160a01b0316141561239c57606460cc543461221e9190613173565b6122289190613192565b6001600160a01b038316600090815260d1602052604090205461224b9190612f8c565b6001600160a01b038316600090815260d1602052604090205560cd546064906122749034613173565b61227e9190613192565b6001600160a01b038416600090815260d160205260409020546122a19190612f8c565b6001600160a01b03848116600090815260d160205260408082209390935560ca5492517fa30b4db90000000000000000000000000000000000000000000000000000000081526004810188905290929091169063a30b4db990602401602060405180830381865afa15801561231a573d6000803e3d6000fd5b505050506040513d601f19601f8201168201806040525081019061233e91906131b4565b9050606460ce54346123509190613173565b61235a9190613192565b6001600160a01b038216600090815260d1602052604090205461237d9190612f8c565b6001600160a01b03909116600090815260d1602052604090205561249f565b606460cc54346123ac9190613173565b6123b69190613192565b6001600160a01b038316600090815260d160205260409020546123d99190612f8c565b6001600160a01b038316600090815260d1602052604090205560cd546064906124029034613173565b61240c9190613192565b6001600160a01b038416600090815260d1602052604090205461242f9190612f8c565b6001600160a01b038416600090815260d1602052604090205560ce546064906124589034613173565b6124629190613192565b6001600160a01b038216600090815260d160205260409020546124859190612f8c565b6001600160a01b038216600090815260d160205260409020555b50505050565b6040518060a00160405280858152602001848152602001826001600160a01b03168152602001836001600160a01b031681526020014281525060d4600060cf600081546124f19061306f565b9182905550815260208082019290925260400160002082518051919261251c928492909101906128d6565b50602082015160018201556040808301516002830180546001600160a01b039283166001600160a01b031991821617909155606085015160038501805491909316911617905560809092015160049091015560cf5490517f81b185c481377e520177bddb63bab2a8d220831d7c07b748c2baf29c6e607070916125a29190815260200190565b60405180910390a150505050565b803b6126245760405162461bcd60e51b815260206004820152602d60248201527f455243313936373a206e657720696d706c656d656e746174696f6e206973206e60448201527f6f74206120636f6e7472616374000000000000000000000000000000000000006064820152608401610a9b565b7f360894a13ba1a3210667c828492db98dca3e2076cc3735a920a3ca505d382bbc80546001600160a01b0319166001600160a01b0392909216919091179055565b6060823b6126db5760405162461bcd60e51b815260206004820152602660248201527f416464726573733a2064656c65676174652063616c6c20746f206e6f6e2d636f60448201527f6e747261637400000000000000000000000000000000000000000000000000006064820152608401610a9b565b600080846001600160a01b0316846040516126f691906131d1565b600060405180830381855af49150503d8060008114612731576040519150601f19603f3d011682016040523d82523d6000602084013e612736565b606091505b5091509150611ea682826040518060600160405280602781526020016131ee6027913961279e565b612767816125b0565b6040516001600160a01b038216907fbc7cd75a20ee27fd9adebab32041f755214dbc6bffa90cc0225b39da2e5c2d3b90600090a250565b606083156127ad5750816127d7565b8251156127bd5782518084602001fd5b8160405162461bcd60e51b8152600401610a9b9190612d5c565b9392505050565b8280546127ea90612f07565b90600052602060002090601f01602090048101928261280c5760008555612852565b82601f106128255782800160ff19823516178555612852565b82800160010185558215612852579182015b82811115612852578235825591602001919060010190612837565b5061285e929150612910565b5090565b82805461286e90612f07565b90600052602060002090601f0160209004810192826128905760008555612852565b82601f106128a957805160ff1916838001178555612852565b82800160010185558215612852579182015b828111156128525782518255916020019190600101906128bb565b82805482825590600052602060002090810192821561285257916020028201828111156128525782518255916020019190600101906128bb565b5b8082111561285e5760008155600101612911565b60006020828403121561293757600080fd5b5035919050565b60005b83811015612959578181015183820152602001612941565b8381111561249f5750506000910152565b6000815180845261298281602086016020860161293e565b601f01601f19169290920160200192915050565b60c0815260006129a960c083018961296a565b82810360208401526129bb818961296a565b905086604084015285606084015284608084015282810360a08401526129e1818561296a565b9998505050505050505050565b6001600160a01b0381168114610b8f57600080fd5b8035612a0e816129ee565b919050565b600060208284031215612a2557600080fd5b81356127d7816129ee565b634e487b7160e01b600052604160045260246000fd5b604051601f8201601f1916810167ffffffffffffffff81118282101715612a6f57612a6f612a30565b604052919050565b600067ffffffffffffffff821115612a9157612a91612a30565b50601f01601f191660200190565b6000612ab2612aad84612a77565b612a46565b9050828152838383011115612ac657600080fd5b828260208301376000602084830101529392505050565b600082601f830112612aee57600080fd5b6127d783833560208501612a9f565b60008060408385031215612b1057600080fd5b823567ffffffffffffffff80821115612b2857600080fd5b612b3486838701612add565b93506020850135915080821115612b4a57600080fd5b50612b5785828601612add565b9150509250929050565b60008060408385031215612b7457600080fd5b8235612b7f816129ee565b91506020830135612b8f816129ee565b809150509250929050565b60008060408385031215612bad57600080fd5b8235612bb8816129ee565b9150602083013567ffffffffffffffff811115612bd457600080fd5b8301601f81018513612be557600080fd5b612b5785823560208401612a9f565b60a0808252865190820181905260009060209060c0840190828a01845b82811015612c2d57815184529284019290840190600101612c11565b50505090830196909652506001600160a01b03938416604082015291909216606082015260800152919050565b60008083601f840112612c6c57600080fd5b50813567ffffffffffffffff811115612c8457600080fd5b602083019150836020828501011115612c9c57600080fd5b9250929050565b600080600080600080600080600060c08a8c031215612cc157600080fd5b8935985060208a013567ffffffffffffffff80821115612ce057600080fd5b612cec8d838e01612c5a565b909a50985060408c0135915080821115612d0557600080fd5b612d118d838e01612c5a565b909850965060608c0135955060808c0135945060a08c0135915080821115612d3857600080fd5b50612d458c828d01612c5a565b915080935050809150509295985092959850929598565b6020815260006127d7602083018461296a565b8015158114610b8f57600080fd5b8035612a0e81612d6f565b60008060408385031215612d9b57600080fd5b823591506020830135612b8f81612d6f565b60008060408385031215612dc057600080fd5b50508035926020909101359150565b600080600080600080600060a0888a031215612dea57600080fd5b873567ffffffffffffffff80821115612e0257600080fd5b818a0191508a601f830112612e1657600080fd5b813581811115612e2557600080fd5b8b60208260051b8501011115612e3a57600080fd5b602092830199509750908901359080821115612e5557600080fd5b50612e628a828b01612c5a565b9096509450612e75905060408901612a03565b9250612e8360608901612a03565b9150612e9160808901612d7d565b905092959891949750929550565b60008060008060608587031215612eb557600080fd5b843567ffffffffffffffff811115612ecc57600080fd5b612ed887828801612c5a565b9095509350506020850135612eec816129ee565b91506040850135612efc816129ee565b939692955090935050565b600181811c90821680612f1b57607f821691505b60208210811415612f3c57634e487b7160e01b600052602260045260246000fd5b50919050565b634e487b7160e01b600052601160045260246000fd5b600082821015612f6a57612f6a612f42565b500390565b600060208284031215612f8157600080fd5b81516127d781612d6f565b60008219821115612f9f57612f9f612f42565b500190565b600060208284031215612fb657600080fd5b815167ffffffffffffffff811115612fcd57600080fd5b8201601f81018413612fde57600080fd5b8051612fec612aad82612a77565b81815285602083850101111561300157600080fd5b611ea682602083016020860161293e565b634e487b7160e01b600052603260045260246000fd5b6000808335601e1984360301811261303f57600080fd5b83018035915067ffffffffffffffff82111561305a57600080fd5b602001915036819003821315612c9c57600080fd5b600060001982141561308357613083612f42565b5060010190565b81835281816020850137506000828201602090810191909152601f909101601f19169091010190565b602081526000610a0960208301848661308a565b6000602082840312156130d957600080fd5b5051919050565b6060815260006130f460608301868861308a565b6001600160a01b039485166020840152929093166040909101529392505050565b6000835161312781846020880161293e565b83519083019061313b81836020880161293e565b01949350505050565b6000806040838503121561315757600080fd5b8251613162816129ee565b6020840151909250612b8f816129ee565b600081600019048311821515161561318d5761318d612f42565b500290565b6000826131af57634e487b7160e01b600052601260045260246000fd5b500490565b6000602082840312156131c657600080fd5b81516127d7816129ee565b600082516131e381846020870161293e565b919091019291505056fe416464726573733a206c6f772d6c6576656c2064656c65676174652063616c6c206661696c6564a264697066735822122065d9c24302f972c2e9ae86a90f3f3ec101c6c3d588519b0e416f0490fe9e664264736f6c634300080c0033",
  "linkReferences": {},
  "deployedLinkReferences": {}
}