{
  "_format": "hh-sol-artifact-1",
  "contractName": "ETSUpgrade",
  "sourceName": "contracts/utils/UUPS/UUPSTesting.sol",
  "abi": [
    {
      "anonymous": false,
      "inputs": [
        {
          "indexed": false,
          "internalType": "contract ETSAccessControls",
          "name": "previousAccessControls",
          "type": "address"
        },
        {
          "indexed": false,
          "internalType": "contract ETSAccessControls",
          "name": "newAccessControls",
          "type": "address"
        }
      ],
      "name": "AccessControlsUpdated",
      "type": "event"
    },
    {
      "anonymous": false,
      "inputs": [
        {
          "indexed": false,
          "internalType": "address",
          "name": "previousAdmin",
          "type": "address"
        },
        {
          "indexed": false,
          "internalType": "address",
          "name": "newAdmin",
          "type": "address"
        }
      ],
      "name": "AdminChanged",
      "type": "event"
    },
    {
      "anonymous": false,
      "inputs": [
        {
          "indexed": true,
          "internalType": "address",
          "name": "beacon",
          "type": "address"
        }
      ],
      "name": "BeaconUpgraded",
      "type": "event"
    },
    {
      "anonymous": false,
      "inputs": [
        {
          "indexed": false,
          "internalType": "contract ETSEnsure",
          "name": "previousETSEnsure",
          "type": "address"
        },
        {
          "indexed": false,
          "internalType": "contract ETSEnsure",
          "name": "newETSEnsure",
          "type": "address"
        }
      ],
      "name": "ETSEnsureUpdated",
      "type": "event"
    },
    {
      "anonymous": false,
      "inputs": [
        {
          "indexed": true,
          "internalType": "address",
          "name": "who",
          "type": "address"
        },
        {
          "indexed": false,
          "internalType": "uint256",
          "name": "amount",
          "type": "uint256"
        }
      ],
      "name": "FundsWithdrawn",
      "type": "event"
    },
    {
      "anonymous": false,
      "inputs": [
        {
          "indexed": false,
          "internalType": "uint256",
          "name": "platformPercentage",
          "type": "uint256"
        },
        {
          "indexed": false,
          "internalType": "uint256",
          "name": "publisherPercentage",
          "type": "uint256"
        },
        {
          "indexed": false,
          "internalType": "uint256",
          "name": "remainingPercentage",
          "type": "uint256"
        }
      ],
      "name": "PercentagesSet",
      "type": "event"
    },
    {
      "anonymous": false,
      "inputs": [
        {
          "indexed": false,
          "internalType": "uint256",
          "name": "nftChainId",
          "type": "uint256"
        },
        {
          "indexed": false,
          "internalType": "bool",
          "name": "setting",
          "type": "bool"
        }
      ],
      "name": "PermittedNftChainIdSet",
      "type": "event"
    },
    {
      "anonymous": false,
      "inputs": [
        {
          "indexed": false,
          "internalType": "uint256",
          "name": "targetId",
          "type": "uint256"
        }
      ],
      "name": "RequestEnsureTarget",
      "type": "event"
    },
    {
      "anonymous": false,
      "inputs": [
        {
          "indexed": false,
          "internalType": "uint256",
          "name": "previousFee",
          "type": "uint256"
        },
        {
          "indexed": false,
          "internalType": "uint256",
          "name": "taggingFee",
          "type": "uint256"
        }
      ],
      "name": "TaggingFeeSet",
      "type": "event"
    },
    {
      "anonymous": false,
      "inputs": [
        {
          "indexed": false,
          "internalType": "uint256",
          "name": "targetId",
          "type": "uint256"
        }
      ],
      "name": "TargetCreated",
      "type": "event"
    },
    {
      "anonymous": false,
      "inputs": [
        {
          "indexed": false,
          "internalType": "uint256",
          "name": "taggingId",
          "type": "uint256"
        }
      ],
      "name": "TargetTagged",
      "type": "event"
    },
    {
      "anonymous": false,
      "inputs": [
        {
          "indexed": false,
          "internalType": "string",
          "name": "typeName",
          "type": "string"
        },
        {
          "indexed": false,
          "internalType": "bool",
          "name": "setting",
          "type": "bool"
        }
      ],
      "name": "TargetTypeSet",
      "type": "event"
    },
    {
      "anonymous": false,
      "inputs": [
        {
          "indexed": false,
          "internalType": "uint256",
          "name": "targetId",
          "type": "uint256"
        }
      ],
      "name": "TargetUpdated",
      "type": "event"
    },
    {
      "anonymous": false,
      "inputs": [
        {
          "indexed": true,
          "internalType": "address",
          "name": "implementation",
          "type": "address"
        }
      ],
      "name": "Upgraded",
      "type": "event"
    },
    {
      "inputs": [],
      "name": "NAME",
      "outputs": [
        {
          "internalType": "string",
          "name": "",
          "type": "string"
        }
      ],
      "stateMutability": "view",
      "type": "function"
    },
    {
      "inputs": [],
      "name": "VERSION",
      "outputs": [
        {
          "internalType": "string",
          "name": "",
          "type": "string"
        }
      ],
      "stateMutability": "view",
      "type": "function"
    },
    {
      "inputs": [],
      "name": "accessControls",
      "outputs": [
        {
          "internalType": "contract ETSAccessControls",
          "name": "",
          "type": "address"
        }
      ],
      "stateMutability": "view",
      "type": "function"
    },
    {
      "inputs": [
        {
          "internalType": "address",
          "name": "",
          "type": "address"
        }
      ],
      "name": "accrued",
      "outputs": [
        {
          "internalType": "uint256",
          "name": "",
          "type": "uint256"
        }
      ],
      "stateMutability": "view",
      "type": "function"
    },
    {
      "inputs": [
        {
          "internalType": "string",
          "name": "_targetType",
          "type": "string"
        },
        {
          "internalType": "string",
          "name": "_targetURI",
          "type": "string"
        }
      ],
      "name": "createTarget",
      "outputs": [
        {
          "internalType": "uint256",
          "name": "targetId",
          "type": "uint256"
        }
      ],
      "stateMutability": "nonpayable",
      "type": "function"
    },
    {
      "inputs": [
        {
          "internalType": "address payable",
          "name": "_account",
          "type": "address"
        }
      ],
      "name": "drawDown",
      "outputs": [],
      "stateMutability": "nonpayable",
      "type": "function"
    },
    {
      "inputs": [],
      "name": "etsEnsure",
      "outputs": [
        {
          "internalType": "contract ETSEnsure",
          "name": "",
          "type": "address"
        }
      ],
      "stateMutability": "view",
      "type": "function"
    },
    {
      "inputs": [],
      "name": "etsTag",
      "outputs": [
        {
          "internalType": "contract ETSTag",
          "name": "",
          "type": "address"
        }
      ],
      "stateMutability": "view",
      "type": "function"
    },
    {
      "inputs": [
        {
          "internalType": "string",
          "name": "_tagString",
          "type": "string"
        },
        {
          "internalType": "address payable",
          "name": "_publisher",
          "type": "address"
        },
        {
          "internalType": "address",
          "name": "_tagger",
          "type": "address"
        }
      ],
      "name": "getOrCreateTagId",
      "outputs": [
        {
          "internalType": "uint256",
          "name": "etstagId",
          "type": "uint256"
        }
      ],
      "stateMutability": "payable",
      "type": "function"
    },
    {
      "inputs": [
        {
          "internalType": "uint256",
          "name": "_nftChainId",
          "type": "uint256"
        }
      ],
      "name": "getPermittedNftChainId",
      "outputs": [
        {
          "internalType": "bool",
          "name": "",
          "type": "bool"
        }
      ],
      "stateMutability": "view",
      "type": "function"
    },
    {
      "inputs": [
        {
          "internalType": "uint256",
          "name": "_taggingId",
          "type": "uint256"
        }
      ],
      "name": "getTaggingRecord",
      "outputs": [
        {
          "internalType": "uint256[]",
          "name": "_etsTagIds",
          "type": "uint256[]"
        },
        {
          "internalType": "uint256",
          "name": "_targetId",
          "type": "uint256"
        },
        {
          "internalType": "address",
          "name": "_tagger",
          "type": "address"
        },
        {
          "internalType": "address",
          "name": "_publisher",
          "type": "address"
        },
        {
          "internalType": "address",
          "name": "_sponsor",
          "type": "address"
        }
      ],
      "stateMutability": "view",
      "type": "function"
    },
    {
      "inputs": [
        {
          "internalType": "string",
          "name": "_targetType",
          "type": "string"
        },
        {
          "internalType": "string",
          "name": "_targetURI",
          "type": "string"
        }
      ],
      "name": "getTargetId",
      "outputs": [
        {
          "internalType": "uint256",
          "name": "targetId",
          "type": "uint256"
        }
      ],
      "stateMutability": "nonpayable",
      "type": "function"
    },
    {
      "inputs": [
        {
          "internalType": "contract ETSAccessControls",
          "name": "_accessControls",
          "type": "address"
        },
        {
          "internalType": "contract ETSTag",
          "name": "_etsTag",
          "type": "address"
        }
      ],
      "name": "initialize",
      "outputs": [],
      "stateMutability": "nonpayable",
      "type": "function"
    },
    {
      "inputs": [],
      "name": "modulo",
      "outputs": [
        {
          "internalType": "uint256",
          "name": "",
          "type": "uint256"
        }
      ],
      "stateMutability": "view",
      "type": "function"
    },
    {
      "inputs": [
        {
          "internalType": "address",
          "name": "",
          "type": "address"
        }
      ],
      "name": "paid",
      "outputs": [
        {
          "internalType": "uint256",
          "name": "",
          "type": "uint256"
        }
      ],
      "stateMutability": "view",
      "type": "function"
    },
    {
      "inputs": [
        {
          "internalType": "uint256",
          "name": "",
          "type": "uint256"
        }
      ],
      "name": "permittedNftChainIds",
      "outputs": [
        {
          "internalType": "bool",
          "name": "",
          "type": "bool"
        }
      ],
      "stateMutability": "view",
      "type": "function"
    },
    {
      "inputs": [],
      "name": "platformPercentage",
      "outputs": [
        {
          "internalType": "uint256",
          "name": "",
          "type": "uint256"
        }
      ],
      "stateMutability": "view",
      "type": "function"
    },
    {
      "inputs": [],
      "name": "publisherPercentage",
      "outputs": [
        {
          "internalType": "uint256",
          "name": "",
          "type": "uint256"
        }
      ],
      "stateMutability": "view",
      "type": "function"
    },
    {
      "inputs": [],
      "name": "remainingPercentage",
      "outputs": [
        {
          "internalType": "uint256",
          "name": "",
          "type": "uint256"
        }
      ],
      "stateMutability": "view",
      "type": "function"
    },
    {
      "inputs": [
        {
          "internalType": "uint256",
          "name": "_nftChainId",
          "type": "uint256"
        },
        {
          "internalType": "bool",
          "name": "_setting",
          "type": "bool"
        }
      ],
      "name": "setPermittedNftChainId",
      "outputs": [],
      "stateMutability": "nonpayable",
      "type": "function"
    },
    {
      "inputs": [
        {
          "internalType": "uint256",
          "name": "_fee",
          "type": "uint256"
        }
      ],
      "name": "setTaggingFee",
      "outputs": [],
      "stateMutability": "nonpayable",
      "type": "function"
    },
    {
      "inputs": [
        {
          "internalType": "string[]",
          "name": "_tagStrings",
          "type": "string[]"
        },
        {
          "internalType": "string",
          "name": "_targetURI",
          "type": "string"
        },
        {
          "internalType": "address payable",
          "name": "_publisher",
          "type": "address"
        },
        {
          "internalType": "address",
          "name": "_tagger",
          "type": "address"
        },
        {
          "internalType": "address",
          "name": "_sponsor",
          "type": "address"
        },
        {
          "internalType": "bool",
          "name": "_ensure",
          "type": "bool"
        }
      ],
      "name": "tagTarget",
      "outputs": [],
      "stateMutability": "payable",
      "type": "function"
    },
    {
      "inputs": [],
      "name": "taggingCounter",
      "outputs": [
        {
          "internalType": "uint256",
          "name": "",
          "type": "uint256"
        }
      ],
      "stateMutability": "view",
      "type": "function"
    },
    {
      "inputs": [],
      "name": "taggingFee",
      "outputs": [
        {
          "internalType": "uint256",
          "name": "",
          "type": "uint256"
        }
      ],
      "stateMutability": "view",
      "type": "function"
    },
    {
      "inputs": [
        {
          "internalType": "uint256",
          "name": "",
          "type": "uint256"
        }
      ],
      "name": "taggingRecords",
      "outputs": [
        {
          "internalType": "uint256",
          "name": "targetId",
          "type": "uint256"
        },
        {
          "internalType": "address",
          "name": "tagger",
          "type": "address"
        },
        {
          "internalType": "address",
          "name": "publisher",
          "type": "address"
        },
        {
          "internalType": "address",
          "name": "sponsor",
          "type": "address"
        }
      ],
      "stateMutability": "view",
      "type": "function"
    },
    {
      "inputs": [
        {
          "internalType": "uint256",
          "name": "targetId",
          "type": "uint256"
        }
      ],
      "name": "targetExists",
      "outputs": [
        {
          "internalType": "bool",
          "name": "",
          "type": "bool"
        }
      ],
      "stateMutability": "view",
      "type": "function"
    },
    {
      "inputs": [
        {
          "internalType": "uint256",
          "name": "",
          "type": "uint256"
        }
      ],
      "name": "targets",
      "outputs": [
        {
          "internalType": "string",
          "name": "targetType",
          "type": "string"
        },
        {
          "internalType": "string",
          "name": "targetURI",
          "type": "string"
        },
        {
          "internalType": "uint256",
          "name": "created",
          "type": "uint256"
        },
        {
          "internalType": "uint256",
          "name": "lastEnsured",
          "type": "uint256"
        },
        {
          "internalType": "uint256",
          "name": "status",
          "type": "uint256"
        },
        {
          "internalType": "string",
          "name": "ipfsHash",
          "type": "string"
        }
      ],
      "stateMutability": "view",
      "type": "function"
    },
    {
      "inputs": [
        {
          "internalType": "address",
          "name": "_account",
          "type": "address"
        }
      ],
      "name": "totalDue",
      "outputs": [
        {
          "internalType": "uint256",
          "name": "_due",
          "type": "uint256"
        }
      ],
      "stateMutability": "view",
      "type": "function"
    },
    {
      "inputs": [
        {
          "internalType": "contract ETSAccessControls",
          "name": "_accessControls",
          "type": "address"
        }
      ],
      "name": "updateAccessControls",
      "outputs": [],
      "stateMutability": "nonpayable",
      "type": "function"
    },
    {
      "inputs": [
        {
          "internalType": "contract ETSEnsure",
          "name": "_etsEnsure",
          "type": "address"
        }
      ],
      "name": "updateETSEnsure",
      "outputs": [],
      "stateMutability": "nonpayable",
      "type": "function"
    },
    {
      "inputs": [
        {
          "internalType": "uint256",
          "name": "_platformPercentage",
          "type": "uint256"
        },
        {
          "internalType": "uint256",
          "name": "_publisherPercentage",
          "type": "uint256"
        }
      ],
      "name": "updatePercentages",
      "outputs": [],
      "stateMutability": "nonpayable",
      "type": "function"
    },
    {
      "inputs": [
        {
          "internalType": "uint256",
          "name": "_targetId",
          "type": "uint256"
        },
        {
          "internalType": "string",
          "name": "_targetType",
          "type": "string"
        },
        {
          "internalType": "string",
          "name": "_targetURI",
          "type": "string"
        },
        {
          "internalType": "uint256",
          "name": "_lastEnsured",
          "type": "uint256"
        },
        {
          "internalType": "uint256",
          "name": "_status",
          "type": "uint256"
        },
        {
          "internalType": "string",
          "name": "_ipfsHash",
          "type": "string"
        }
      ],
      "name": "updateTarget",
      "outputs": [
        {
          "internalType": "bool",
          "name": "success",
          "type": "bool"
        }
      ],
      "stateMutability": "nonpayable",
      "type": "function"
    },
    {
      "inputs": [],
      "name": "upgradeTest",
      "outputs": [
        {
          "internalType": "bool",
          "name": "",
          "type": "bool"
        }
      ],
      "stateMutability": "pure",
      "type": "function"
    },
    {
      "inputs": [
        {
          "internalType": "address",
          "name": "newImplementation",
          "type": "address"
        }
      ],
      "name": "upgradeTo",
      "outputs": [],
      "stateMutability": "nonpayable",
      "type": "function"
    },
    {
      "inputs": [
        {
          "internalType": "address",
          "name": "newImplementation",
          "type": "address"
        },
        {
          "internalType": "bytes",
          "name": "data",
          "type": "bytes"
        }
      ],
      "name": "upgradeToAndCall",
      "outputs": [],
      "stateMutability": "payable",
      "type": "function"
    },
    {
      "inputs": [],
      "name": "version",
      "outputs": [
        {
          "internalType": "string",
          "name": "",
          "type": "string"
        }
      ],
      "stateMutability": "pure",
      "type": "function"
    }
  ],
  "bytecode": "0x60a06040523060805234801561001457600080fd5b5060805161327e61004560003960008181610a1d01528181610aa701528181610cb70152610d3c015261327e6000f3fe60806040526004361061024f5760003560e01c8063748365ef11610138578063c2062005116100b0578063e88b772c1161007f578063fe52656f11610064578063fe52656f14610758578063fed6c2e91461076e578063ffa1ad741461078157600080fd5b8063e88b772c14610722578063f8bc3cc61461073857600080fd5b8063c2062005146106af578063c20d2295146106cf578063d64f55c9146106ef578063e16ee5a31461070257600080fd5b8063a3f4df7e11610107578063b148440f116100ec578063b148440f14610642578063b205f8081461066f578063b7d0e7dd1461068f57600080fd5b8063a3f4df7e146105d9578063a97dda401461062257600080fd5b8063748365ef1461053e5780637e2e4c5214610576578063962ed2321461058c578063a340cf79146105ac57600080fd5b80633659cfe6116101cb578063501a323a1161019a57806354fd4d501161017f57806354fd4d50146104645780636ef3da941461049b57806374716c81146104bb57600080fd5b8063501a323a14610413578063507f3ba11461044457600080fd5b80633659cfe6146103aa5780633d20b15c146103cc578063485cc955146103e05780634f1ef2861461040057600080fd5b80631797df5911610222578063200e06af11610207578063200e06af1461034f578063297452621461037f578063337ccf9d1461039457600080fd5b80631797df59146103095780631f7418971461033957600080fd5b80630477fe28146102545780630a39ce02146102895780630ad2f0c3146102bb578063146da5c4146102e9575b600080fd5b34801561026057600080fd5b5061027461026f366004612945565b6107b2565b60405190151581526020015b60405180910390f35b34801561029557600080fd5b506102a96102a4366004612945565b6107d8565b604051610280969594939291906129b6565b3480156102c757600080fd5b506102db6102d6366004612a33565b6109a4565b604051908152602001610280565b3480156102f557600080fd5b506102db610304366004612b1d565b6109d2565b34801561031557600080fd5b50610274610324366004612945565b600090815260d3602052604090205460ff1690565b34801561034557600080fd5b506102db60cc5481565b34801561035b57600080fd5b5061027461036a366004612945565b60d36020526000908152604090205460ff1681565b34801561038b57600080fd5b506102db606481565b3480156103a057600080fd5b506102db60ce5481565b3480156103b657600080fd5b506103ca6103c5366004612a33565b610a12565b005b3480156103d857600080fd5b506001610274565b3480156103ec57600080fd5b506103ca6103fb366004612b81565b610b93565b6103ca61040e366004612bba565b610cac565b34801561041f57600080fd5b5061043361042e366004612945565b610e19565b604051610280959493929190612c14565b34801561045057600080fd5b5061027461045f366004612cc7565b610ebf565b34801561047057600080fd5b50604080518082019091526005815264302e302e3160d81b60208201525b6040516102809190612d80565b3480156104a757600080fd5b506103ca6104b6366004612a33565b610f64565b3480156104c757600080fd5b5061050f6104d6366004612945565b60d460205260009081526040902060018101546002820154600383015460049093015491926001600160a01b0391821692908216911684565b604080519485526001600160a01b03938416602086015291831691840191909152166060820152608001610280565b34801561054a57600080fd5b5060c95461055e906001600160a01b031681565b6040516001600160a01b039091168152602001610280565b34801561058257600080fd5b506102db60cd5481565b34801561059857600080fd5b506103ca6105a7366004612945565b6110ff565b3480156105b857600080fd5b506102db6105c7366004612a33565b60d26020526000908152604090205481565b3480156105e557600080fd5b5061048e6040518060400160405280600881526020017f45545320436f726500000000000000000000000000000000000000000000000081525081565b34801561062e57600080fd5b506103ca61063d366004612dac565b6111fa565b34801561064e57600080fd5b506102db61065d366004612a33565b60d16020526000908152604090205481565b34801561067b57600080fd5b506103ca61068a366004612a33565b611309565b34801561069b57600080fd5b5060cb5461055e906001600160a01b031681565b3480156106bb57600080fd5b506103ca6106ca366004612a33565b61149c565b3480156106db57600080fd5b506103ca6106ea366004612dd1565b6115f2565b6103ca6106fd366004612df3565b611799565b34801561070e57600080fd5b506102db61071d366004612b1d565b611c8e565b34801561072e57600080fd5b506102db60cf5481565b34801561074457600080fd5b5060ca5461055e906001600160a01b031681565b34801561076457600080fd5b506102db60d05481565b6102db61077c366004612ed3565b611d88565b34801561078d57600080fd5b5061048e60405180604001604052806005815260200164302e302e3160d81b81525081565b600081815260d560205260408120600201546107cf5760006107d2565b60015b92915050565b60d5602052600090815260409020805481906107f390612f3b565b80601f016020809104026020016040519081016040528092919081815260200182805461081f90612f3b565b801561086c5780601f106108415761010080835404028352916020019161086c565b820191906000526020600020905b81548152906001019060200180831161084f57829003601f168201915b50505050509080600101805461088190612f3b565b80601f01602080910402602001604051908101604052809291908181526020018280546108ad90612f3b565b80156108fa5780601f106108cf576101008083540402835291602001916108fa565b820191906000526020600020905b8154815290600101906020018083116108dd57829003601f168201915b50505050509080600201549080600301549080600401549080600501805461092190612f3b565b80601f016020809104026020016040519081016040528092919081815260200182805461094d90612f3b565b801561099a5780601f1061096f5761010080835404028352916020019161099a565b820191906000526020600020905b81548152906001019060200180831161097d57829003601f168201915b5050505050905086565b6001600160a01b038116600090815260d2602090815260408083205460d19092528220546107d29190612f8c565b6000806109df8484611ebe565b600081815260d5602052604090206002015490915015610a005790506107d2565b610a0a8484611c8e565b949350505050565b306001600160a01b037f0000000000000000000000000000000000000000000000000000000000000000161415610aa55760405162461bcd60e51b815260206004820152602c60248201527f46756e6374696f6e206d7573742062652063616c6c6564207468726f7567682060448201526b19195b1959d85d1958d85b1b60a21b60648201526084015b60405180910390fd5b7f00000000000000000000000000000000000000000000000000000000000000006001600160a01b0316610b007f360894a13ba1a3210667c828492db98dca3e2076cc3735a920a3ca505d382bbc546001600160a01b031690565b6001600160a01b031614610b6b5760405162461bcd60e51b815260206004820152602c60248201527f46756e6374696f6e206d7573742062652063616c6c6564207468726f7567682060448201526b6163746976652070726f787960a01b6064820152608401610a9c565b610b7481611ef4565b60408051600080825260208201909252610b9091839190611fb1565b50565b600054610100900460ff16610bae5760005460ff1615610bb2565b303b155b610c245760405162461bcd60e51b815260206004820152602e60248201527f496e697469616c697a61626c653a20636f6e747261637420697320616c72656160448201527f647920696e697469616c697a65640000000000000000000000000000000000006064820152608401610a9c565b600054610100900460ff16158015610c46576000805461ffff19166101011790555b60c980546001600160a01b038086166001600160a01b03199283161790925560ca805492851692909116919091179055600060cf5566038d7ea4c6800060d055601460cc55601e60cd55603260ce558015610ca7576000805461ff00191690555b505050565b306001600160a01b037f0000000000000000000000000000000000000000000000000000000000000000161415610d3a5760405162461bcd60e51b815260206004820152602c60248201527f46756e6374696f6e206d7573742062652063616c6c6564207468726f7567682060448201526b19195b1959d85d1958d85b1b60a21b6064820152608401610a9c565b7f00000000000000000000000000000000000000000000000000000000000000006001600160a01b0316610d957f360894a13ba1a3210667c828492db98dca3e2076cc3735a920a3ca505d382bbc546001600160a01b031690565b6001600160a01b031614610e005760405162461bcd60e51b815260206004820152602c60248201527f46756e6374696f6e206d7573742062652063616c6c6564207468726f7567682060448201526b6163746976652070726f787960a01b6064820152608401610a9c565b610e0982611ef4565b610e1582826001611fb1565b5050565b600081815260d46020908152604080832060018101546002820154600383015460048401548454865181890281018901909752808752606098978897889788979096879691956001600160a01b039182169592821694911692918791830182828015610ea457602002820191906000526020600020905b815481526020019060010190808311610e90575b50505050509450955095509550955095505091939590929450565b600089815260d560205260408120610ed8908a8a6127fe565b5060008a815260d560205260409020610ef59060010188886127fe565b5060008a815260d5602052604090206003810186905560048101859055610f209060050184846127fe565b506040518a81527f9d29e5045b411bb06d81d8ff11c828d9f1d7eb076eec9ca45eda49fc99f762b29060200160405180910390a15060019998505050505050505050565b60c9546001600160a01b03166324d7806c336040516001600160e01b031960e084901b1681526001600160a01b039091166004820152602401602060405180830381865afa158015610fba573d6000803e3d6000fd5b505050506040513d601f19601f82011682018060405250810190610fde9190612fa3565b6110215760405162461bcd60e51b815260206004820152601460248201527321b0b63632b91036bab9ba1031329030b236b4b760611b6044820152606401610a9c565b6001600160a01b03811661109d5760405162461bcd60e51b815260206004820152602860248201527f4554532e757064617465416363657373436f6e74726f6c733a2043616e6e6f7460448201527f206265207a65726f0000000000000000000000000000000000000000000000006064820152608401610a9c565b60c980546001600160a01b038381166001600160a01b031983168117909355604080519190921680825260208201939093527f31073599bfae2533a348dc816b0ce777b707aa9b67015ca2d86585e842b5c6e991015b60405180910390a15050565b60c9546001600160a01b03166324d7806c336040516001600160e01b031960e084901b1681526001600160a01b039091166004820152602401602060405180830381865afa158015611155573d6000803e3d6000fd5b505050506040513d601f19601f820116820180604052508101906111799190612fa3565b6111bc5760405162461bcd60e51b815260206004820152601460248201527321b0b63632b91036bab9ba1031329030b236b4b760611b6044820152606401610a9c565b60d080549082905560408051828152602081018490527f861fa8a0dab775faf9bcbb5388a02f7ac01181c036f5c57982464a2d75c3608e91016110f3565b60c9546001600160a01b03166324d7806c336040516001600160e01b031960e084901b1681526001600160a01b039091166004820152602401602060405180830381865afa158015611250573d6000803e3d6000fd5b505050506040513d601f19601f820116820180604052508101906112749190612fa3565b6112b75760405162461bcd60e51b815260206004820152601460248201527321b0b63632b91036bab9ba1031329030b236b4b760611b6044820152606401610a9c565b600082815260d36020908152604091829020805460ff19168415159081179091558251858152918201527f9a1b1e3722de574f6867ada1474b42b28458b0d93fc376664c96cb084b92118191016110f3565b60c9546001600160a01b03166324d7806c336040516001600160e01b031960e084901b1681526001600160a01b039091166004820152602401602060405180830381865afa15801561135f573d6000803e3d6000fd5b505050506040513d601f19601f820116820180604052508101906113839190612fa3565b6113c65760405162461bcd60e51b815260206004820152601460248201527321b0b63632b91036bab9ba1031329030b236b4b760611b6044820152606401610a9c565b6001600160a01b0381166114425760405162461bcd60e51b815260206004820152602360248201527f4554532e757064617465455453456e737572653a2043616e6e6f74206265207a60448201527f65726f00000000000000000000000000000000000000000000000000000000006064820152608401610a9c565b60cb80546001600160a01b038381166001600160a01b031983168117909355604080519190921680825260208201939093527fee20190c374934660675d28472968e002fc4af227f2956f59085225ad89239fa91016110f3565b600260335414156114ef5760405162461bcd60e51b815260206004820152601f60248201527f5265656e7472616e637947756172643a207265656e7472616e742063616c6c006044820152606401610a9c565b60026033556001600160a01b038116600090815260d2602090815260408083205460d19092528220546115229190612f8c565b90506000811180156115345750478111155b156115e9576001600160a01b038216600090815260d2602052604090205461155d908290612fc0565b6001600160a01b038316600081815260d26020526040808220939093559151909183156108fc02918491818181858888f193505050501580156115a4573d6000803e3d6000fd5b50816001600160a01b03167feaff4b37086828766ad3268786972c0cd24259d4c87a80f9d3963a3c3d999b0d826040516115e091815260200190565b60405180910390a25b50506001603355565b60c9546001600160a01b03166324d7806c336040516001600160e01b031960e084901b1681526001600160a01b039091166004820152602401602060405180830381865afa158015611648573d6000803e3d6000fd5b505050506040513d601f19601f8201168201806040525081019061166c9190612fa3565b6116af5760405162461bcd60e51b815260206004820152601460248201527321b0b63632b91036bab9ba1031329030b236b4b760611b6044820152606401610a9c565b60646116bb8284612fc0565b111561172f5760405162461bcd60e51b815260206004820152603760248201527f4554532e75706461746550657263656e74616765733a2070657263656e74616760448201527f6573206d757374206e6f74206265206f766572203130300000000000000000006064820152608401610a9c565b60cc82905560cd81905580611745836064612f8c565b61174f9190612f8c565b60ce81905560cc5460cd546040805192835260208301919091528101919091527f78c1b0567e296aa5eef70ad2deee29f35e0dd128cac603be855ece3e823f4308906060016110f3565b600260335414156117ec5760405162461bcd60e51b815260206004820152601f60248201527f5265656e7472616e637947756172643a207265656e7472616e742063616c6c006044820152606401610a9c565b600260335560c9546040517f2b04fd440000000000000000000000000000000000000000000000000000000081523360048201526001600160a01b0390911690632b04fd4490602401602060405180830381865afa158015611852573d6000803e3d6000fd5b505050506040513d601f19601f820116820180604052508101906118769190612fa3565b6118c25760405162461bcd60e51b815260206004820152601060248201527f4f6e6c79207461726765742074797065000000000000000000000000000000006044820152606401610a9c565b60c9546040517f41859ac80000000000000000000000000000000000000000000000000000000081526001600160a01b038681166004830152909116906341859ac890602401602060405180830381865afa158015611925573d6000803e3d6000fd5b505050506040513d601f19601f820116820180604052508101906119499190612fa3565b6119bb5760405162461bcd60e51b815260206004820152602660248201527f5461673a20546865207075626c6973686572206d75737420626520776869746560448201527f6c697374656400000000000000000000000000000000000000000000000000006064820152608401610a9c565b8680611a095760405162461bcd60e51b815260206004820152601760248201527f4e6f2074616720737472696e677320737570706c6965640000000000000000006044820152606401610a9c565b8060d054611a179190612fd8565b3414611a655760405162461bcd60e51b815260206004820152601a60248201527f5461673a20596f75206d7573742073656e6420746865206665650000000000006044820152606401610a9c565b60c9546040517fa88ae5b6000000000000000000000000000000000000000000000000000000008152336004820152600091611b31916001600160a01b039091169063a88ae5b690602401600060405180830381865afa158015611acd573d6000803e3d6000fd5b505050506040513d6000823e601f3d908101601f19168201604052611af59190810190612ff7565b89898080601f0160208091040260200160405190810160405280939291908181526020018383808284376000920191909152506109d292505050565b905060008267ffffffffffffffff811115611b4e57611b4e612a50565b604051908082528060200260200182016040528015611b77578160200160208202803683370190505b50905060005b83811015611bf0576000611bb58d8d84818110611b9c57611b9c613065565b9050602002810190611bae919061307b565b8b8b611d88565b9050611bc1818a612175565b80838381518110611bd457611bd4613065565b602090810291909101015250611be9816130c2565b9050611b7d565b508315611c6f5760cb546040517f177f2fb5000000000000000000000000000000000000000000000000000000008152600481018490526001600160a01b039091169063177f2fb590602401600060405180830381600087803b158015611c5657600080fd5b505af1158015611c6a573d6000803e3d6000fd5b505050505b611c7c81838989896124b4565b50506001603355505050505050505050565b600080611c9b8484611ebe565b6040805160c08101825286815260208082018790524282840152600060608301819052608083018190528351808301855281815260a084015284815260d58252929092208151805194955091939092611cf8928492910190612882565b506020828101518051611d119260018501920190612882565b5060408201516002820155606082015160038201556080820151600482015560a08201518051611d4b916005840191602090910190612882565b50506040518281527f503a6e6145f2d2a2a9b0845c2193aef653400c52f93b1c897bd55d36a396be7c915060200160405180910390a19392505050565b60ca546040517f04befefd00000000000000000000000000000000000000000000000000000000815260009182916001600160a01b03909116906304befefd90611dd89089908990600401613106565b602060405180830381865afa158015611df5573d6000803e3d6000fd5b505050506040513d601f19601f82011682018060405250810190611e19919061311a565b905080611eb55760ca546040517f7e6d945e0000000000000000000000000000000000000000000000000000000081526001600160a01b0390911690637e6d945e90611e6f908990899089908990600401613133565b6020604051808303816000875af1158015611e8e573d6000803e3d6000fd5b505050506040513d601f19601f82011682018060405250810190611eb2919061311a565b90505b95945050505050565b6000808383604051602001611ed4929190613168565b60408051808303601f190181529190528051602090910120949350505050565b60c9546001600160a01b03166324d7806c336040516001600160e01b031960e084901b1681526001600160a01b039091166004820152602401602060405180830381865afa158015611f4a573d6000803e3d6000fd5b505050506040513d601f19601f82011682018060405250810190611f6e9190612fa3565b610b905760405162461bcd60e51b815260206004820152601460248201527321b0b63632b91036bab9ba1031329030b236b4b760611b6044820152606401610a9c565b6000611fe47f360894a13ba1a3210667c828492db98dca3e2076cc3735a920a3ca505d382bbc546001600160a01b031690565b9050611fef846125d0565b600083511180611ffc5750815b1561200d5761200b8484612685565b505b7f4910fdfa16fed3260ed0e7147f7cc6da11a60208b5b9406d12a635614ffd9143805460ff1661216e57805460ff191660011781556040516001600160a01b03831660248201526120ba90869060440160408051601f198184030181529190526020810180517bffffffffffffffffffffffffffffffffffffffffffffffffffffffff167f3659cfe600000000000000000000000000000000000000000000000000000000179052612685565b50805460ff191681557f360894a13ba1a3210667c828492db98dca3e2076cc3735a920a3ca505d382bbc546001600160a01b038381169116146121655760405162461bcd60e51b815260206004820152602f60248201527f45524331393637557067726164653a207570677261646520627265616b73206660448201527f75727468657220757067726164657300000000000000000000000000000000006064820152608401610a9c565b61216e8561277e565b5050505050565b60ca546040517f878327ab0000000000000000000000000000000000000000000000000000000081526004810184905260009182916001600160a01b039091169063878327ab906024016040805180830381865afa1580156121db573d6000803e3d6000fd5b505050506040513d601f19601f820116820180604052508101906121ff9190613197565b91509150816001600160a01b0316816001600160a01b031614156123ab57606460cc543461222d9190612fd8565b61223791906131c6565b6001600160a01b038316600090815260d1602052604090205461225a9190612fc0565b6001600160a01b038316600090815260d1602052604090205560cd546064906122839034612fd8565b61228d91906131c6565b6001600160a01b038416600090815260d160205260409020546122b09190612fc0565b6001600160a01b03848116600090815260d160205260408082209390935560ca5492517fa30b4db90000000000000000000000000000000000000000000000000000000081526004810188905290929091169063a30b4db990602401602060405180830381865afa158015612329573d6000803e3d6000fd5b505050506040513d601f19601f8201168201806040525081019061234d91906131e8565b9050606460ce543461235f9190612fd8565b61236991906131c6565b6001600160a01b038216600090815260d1602052604090205461238c9190612fc0565b6001600160a01b03909116600090815260d160205260409020556124ae565b606460cc54346123bb9190612fd8565b6123c591906131c6565b6001600160a01b038316600090815260d160205260409020546123e89190612fc0565b6001600160a01b038316600090815260d1602052604090205560cd546064906124119034612fd8565b61241b91906131c6565b6001600160a01b038416600090815260d1602052604090205461243e9190612fc0565b6001600160a01b038416600090815260d1602052604090205560ce546064906124679034612fd8565b61247191906131c6565b6001600160a01b038216600090815260d160205260409020546124949190612fc0565b6001600160a01b038216600090815260d160205260409020555b50505050565b6040518060a00160405280868152602001858152602001836001600160a01b03168152602001846001600160a01b03168152602001826001600160a01b031681525060d4600060cf60008154612509906130c2565b91829055508152602080820192909252604001600020825180519192612534928492909101906128f6565b5060208281015160018301556040808401516002840180546001600160a01b03199081166001600160a01b0393841617909155606086015160038601805483169184169190911790556080909501516004909401805490951693169290921790925560cf5490519081527f81b185c481377e520177bddb63bab2a8d220831d7c07b748c2baf29c6e607070910160405180910390a15050505050565b803b6126445760405162461bcd60e51b815260206004820152602d60248201527f455243313936373a206e657720696d706c656d656e746174696f6e206973206e60448201527f6f74206120636f6e7472616374000000000000000000000000000000000000006064820152608401610a9c565b7f360894a13ba1a3210667c828492db98dca3e2076cc3735a920a3ca505d382bbc80546001600160a01b0319166001600160a01b0392909216919091179055565b6060823b6126fb5760405162461bcd60e51b815260206004820152602660248201527f416464726573733a2064656c65676174652063616c6c20746f206e6f6e2d636f60448201527f6e747261637400000000000000000000000000000000000000000000000000006064820152608401610a9c565b600080846001600160a01b0316846040516127169190613205565b600060405180830381855af49150503d8060008114612751576040519150601f19603f3d011682016040523d82523d6000602084013e612756565b606091505b5091509150611eb58282604051806060016040528060278152602001613222602791396127be565b612787816125d0565b6040516001600160a01b038216907fbc7cd75a20ee27fd9adebab32041f755214dbc6bffa90cc0225b39da2e5c2d3b90600090a250565b606083156127cd5750816127f7565b8251156127dd5782518084602001fd5b8160405162461bcd60e51b8152600401610a9c9190612d80565b9392505050565b82805461280a90612f3b565b90600052602060002090601f01602090048101928261282c5760008555612872565b82601f106128455782800160ff19823516178555612872565b82800160010185558215612872579182015b82811115612872578235825591602001919060010190612857565b5061287e929150612930565b5090565b82805461288e90612f3b565b90600052602060002090601f0160209004810192826128b05760008555612872565b82601f106128c957805160ff1916838001178555612872565b82800160010185558215612872579182015b828111156128725782518255916020019190600101906128db565b82805482825590600052602060002090810192821561287257916020028201828111156128725782518255916020019190600101906128db565b5b8082111561287e5760008155600101612931565b60006020828403121561295757600080fd5b5035919050565b60005b83811015612979578181015183820152602001612961565b838111156124ae5750506000910152565b600081518084526129a281602086016020860161295e565b601f01601f19169290920160200192915050565b60c0815260006129c960c083018961298a565b82810360208401526129db818961298a565b905086604084015285606084015284608084015282810360a0840152612a01818561298a565b9998505050505050505050565b6001600160a01b0381168114610b9057600080fd5b8035612a2e81612a0e565b919050565b600060208284031215612a4557600080fd5b81356127f781612a0e565b634e487b7160e01b600052604160045260246000fd5b604051601f8201601f1916810167ffffffffffffffff81118282101715612a8f57612a8f612a50565b604052919050565b600067ffffffffffffffff821115612ab157612ab1612a50565b50601f01601f191660200190565b6000612ad2612acd84612a97565b612a66565b9050828152838383011115612ae657600080fd5b828260208301376000602084830101529392505050565b600082601f830112612b0e57600080fd5b6127f783833560208501612abf565b60008060408385031215612b3057600080fd5b823567ffffffffffffffff80821115612b4857600080fd5b612b5486838701612afd565b93506020850135915080821115612b6a57600080fd5b50612b7785828601612afd565b9150509250929050565b60008060408385031215612b9457600080fd5b8235612b9f81612a0e565b91506020830135612baf81612a0e565b809150509250929050565b60008060408385031215612bcd57600080fd5b8235612bd881612a0e565b9150602083013567ffffffffffffffff811115612bf457600080fd5b8301601f81018513612c0557600080fd5b612b7785823560208401612abf565b60a0808252865190820181905260009060209060c0840190828a01845b82811015612c4d57815184529284019290840190600101612c31565b50505090830196909652506001600160a01b0393841660408201529183166060830152909116608090910152919050565b60008083601f840112612c9057600080fd5b50813567ffffffffffffffff811115612ca857600080fd5b602083019150836020828501011115612cc057600080fd5b9250929050565b600080600080600080600080600060c08a8c031215612ce557600080fd5b8935985060208a013567ffffffffffffffff80821115612d0457600080fd5b612d108d838e01612c7e565b909a50985060408c0135915080821115612d2957600080fd5b612d358d838e01612c7e565b909850965060608c0135955060808c0135945060a08c0135915080821115612d5c57600080fd5b50612d698c828d01612c7e565b915080935050809150509295985092959850929598565b6020815260006127f7602083018461298a565b8015158114610b9057600080fd5b8035612a2e81612d93565b60008060408385031215612dbf57600080fd5b823591506020830135612baf81612d93565b60008060408385031215612de457600080fd5b50508035926020909101359150565b60008060008060008060008060c0898b031215612e0f57600080fd5b883567ffffffffffffffff80821115612e2757600080fd5b818b0191508b601f830112612e3b57600080fd5b813581811115612e4a57600080fd5b8c60208260051b8501011115612e5f57600080fd5b60209283019a509850908a01359080821115612e7a57600080fd5b50612e878b828c01612c7e565b9097509550612e9a905060408a01612a23565b9350612ea860608a01612a23565b9250612eb660808a01612a23565b9150612ec460a08a01612da1565b90509295985092959890939650565b60008060008060608587031215612ee957600080fd5b843567ffffffffffffffff811115612f0057600080fd5b612f0c87828801612c7e565b9095509350506020850135612f2081612a0e565b91506040850135612f3081612a0e565b939692955090935050565b600181811c90821680612f4f57607f821691505b60208210811415612f7057634e487b7160e01b600052602260045260246000fd5b50919050565b634e487b7160e01b600052601160045260246000fd5b600082821015612f9e57612f9e612f76565b500390565b600060208284031215612fb557600080fd5b81516127f781612d93565b60008219821115612fd357612fd3612f76565b500190565b6000816000190483118215151615612ff257612ff2612f76565b500290565b60006020828403121561300957600080fd5b815167ffffffffffffffff81111561302057600080fd5b8201601f8101841361303157600080fd5b805161303f612acd82612a97565b81815285602083850101111561305457600080fd5b611eb582602083016020860161295e565b634e487b7160e01b600052603260045260246000fd5b6000808335601e1984360301811261309257600080fd5b83018035915067ffffffffffffffff8211156130ad57600080fd5b602001915036819003821315612cc057600080fd5b60006000198214156130d6576130d6612f76565b5060010190565b81835281816020850137506000828201602090810191909152601f909101601f19169091010190565b602081526000610a0a6020830184866130dd565b60006020828403121561312c57600080fd5b5051919050565b6060815260006131476060830186886130dd565b6001600160a01b039485166020840152929093166040909101529392505050565b6000835161317a81846020880161295e565b83519083019061318e81836020880161295e565b01949350505050565b600080604083850312156131aa57600080fd5b82516131b581612a0e565b6020840151909250612baf81612a0e565b6000826131e357634e487b7160e01b600052601260045260246000fd5b500490565b6000602082840312156131fa57600080fd5b81516127f781612a0e565b6000825161321781846020870161295e565b919091019291505056fe416464726573733a206c6f772d6c6576656c2064656c65676174652063616c6c206661696c6564a2646970667358221220c69e1adbdf2cf5ac6828f25c2d38ed59637b9886ac8a274d560348c53536f7c264736f6c634300080c0033",
  "linkReferences": {},
  "deployedLinkReferences": {}
}