{
  "_format": "hh-sol-artifact-1",
  "contractName": "ETSUpgrade",
  "sourceName": "contracts/utils/UUPS/UUPSTesting.sol",
  "abi": [
    {
      "anonymous": false,
      "inputs": [
        {
          "indexed": false,
          "internalType": "address",
          "name": "previousAccessControls",
          "type": "address"
        },
        {
          "indexed": false,
          "internalType": "address",
          "name": "newAccessControls",
          "type": "address"
        }
      ],
      "name": "AccessControlsUpdated",
      "type": "event"
    },
    {
      "anonymous": false,
      "inputs": [
        {
          "indexed": false,
          "internalType": "address",
          "name": "previousAdmin",
          "type": "address"
        },
        {
          "indexed": false,
          "internalType": "address",
          "name": "newAdmin",
          "type": "address"
        }
      ],
      "name": "AdminChanged",
      "type": "event"
    },
    {
      "anonymous": false,
      "inputs": [
        {
          "indexed": true,
          "internalType": "address",
          "name": "beacon",
          "type": "address"
        }
      ],
      "name": "BeaconUpgraded",
      "type": "event"
    },
    {
      "anonymous": false,
      "inputs": [
        {
          "indexed": false,
          "internalType": "address",
          "name": "previousETSEnsure",
          "type": "address"
        },
        {
          "indexed": false,
          "internalType": "address",
          "name": "newETSEnsure",
          "type": "address"
        }
      ],
      "name": "ETSEnsureUpdated",
      "type": "event"
    },
    {
      "anonymous": false,
      "inputs": [
        {
          "indexed": true,
          "internalType": "address",
          "name": "who",
          "type": "address"
        },
        {
          "indexed": false,
          "internalType": "uint256",
          "name": "amount",
          "type": "uint256"
        }
      ],
      "name": "FundsWithdrawn",
      "type": "event"
    },
    {
      "anonymous": false,
      "inputs": [
        {
          "indexed": false,
          "internalType": "uint256",
          "name": "platformPercentage",
          "type": "uint256"
        },
        {
          "indexed": false,
          "internalType": "uint256",
          "name": "publisherPercentage",
          "type": "uint256"
        },
        {
          "indexed": false,
          "internalType": "uint256",
          "name": "remainingPercentage",
          "type": "uint256"
        }
      ],
      "name": "PercentagesSet",
      "type": "event"
    },
    {
      "anonymous": false,
      "inputs": [
        {
          "indexed": false,
          "internalType": "uint256",
          "name": "nftChainId",
          "type": "uint256"
        },
        {
          "indexed": false,
          "internalType": "bool",
          "name": "setting",
          "type": "bool"
        }
      ],
      "name": "PermittedNftChainIdSet",
      "type": "event"
    },
    {
      "anonymous": false,
      "inputs": [
        {
          "indexed": false,
          "internalType": "uint256",
          "name": "targetId",
          "type": "uint256"
        }
      ],
      "name": "RequestEnsureTarget",
      "type": "event"
    },
    {
      "anonymous": false,
      "inputs": [
        {
          "indexed": false,
          "internalType": "uint256",
          "name": "previousFee",
          "type": "uint256"
        },
        {
          "indexed": false,
          "internalType": "uint256",
          "name": "taggingFee",
          "type": "uint256"
        }
      ],
      "name": "TaggingFeeSet",
      "type": "event"
    },
    {
      "anonymous": false,
      "inputs": [
        {
          "indexed": false,
          "internalType": "uint256",
          "name": "targetId",
          "type": "uint256"
        }
      ],
      "name": "TargetCreated",
      "type": "event"
    },
    {
      "anonymous": false,
      "inputs": [
        {
          "indexed": false,
          "internalType": "uint256",
          "name": "taggingId",
          "type": "uint256"
        }
      ],
      "name": "TargetTagged",
      "type": "event"
    },
    {
      "anonymous": false,
      "inputs": [
        {
          "indexed": false,
          "internalType": "string",
          "name": "typeName",
          "type": "string"
        },
        {
          "indexed": false,
          "internalType": "bool",
          "name": "setting",
          "type": "bool"
        }
      ],
      "name": "TargetTypeSet",
      "type": "event"
    },
    {
      "anonymous": false,
      "inputs": [
        {
          "indexed": false,
          "internalType": "uint256",
          "name": "targetId",
          "type": "uint256"
        }
      ],
      "name": "TargetUpdated",
      "type": "event"
    },
    {
      "anonymous": false,
      "inputs": [
        {
          "indexed": true,
          "internalType": "address",
          "name": "implementation",
          "type": "address"
        }
      ],
      "name": "Upgraded",
      "type": "event"
    },
    {
      "inputs": [],
      "name": "NAME",
      "outputs": [
        {
          "internalType": "string",
          "name": "",
          "type": "string"
        }
      ],
      "stateMutability": "view",
      "type": "function"
    },
    {
      "inputs": [],
      "name": "VERSION",
      "outputs": [
        {
          "internalType": "string",
          "name": "",
          "type": "string"
        }
      ],
      "stateMutability": "view",
      "type": "function"
    },
    {
      "inputs": [],
      "name": "accessControls",
      "outputs": [
        {
          "internalType": "contract ETSAccessControls",
          "name": "",
          "type": "address"
        }
      ],
      "stateMutability": "view",
      "type": "function"
    },
    {
      "inputs": [
        {
          "internalType": "address",
          "name": "",
          "type": "address"
        }
      ],
      "name": "accrued",
      "outputs": [
        {
          "internalType": "uint256",
          "name": "",
          "type": "uint256"
        }
      ],
      "stateMutability": "view",
      "type": "function"
    },
    {
      "inputs": [
        {
          "internalType": "uint256",
          "name": "_targetId",
          "type": "uint256"
        },
        {
          "internalType": "address",
          "name": "_publisher",
          "type": "address"
        },
        {
          "internalType": "address",
          "name": "_tagger",
          "type": "address"
        },
        {
          "internalType": "address",
          "name": "_sponsor",
          "type": "address"
        }
      ],
      "name": "computeTaggingRecordId",
      "outputs": [
        {
          "internalType": "uint256",
          "name": "taggingRecordId",
          "type": "uint256"
        }
      ],
      "stateMutability": "pure",
      "type": "function"
    },
    {
      "inputs": [
        {
          "internalType": "string",
          "name": "_targetType",
          "type": "string"
        },
        {
          "internalType": "string",
          "name": "_targetURI",
          "type": "string"
        }
      ],
      "name": "computeTargetId",
      "outputs": [
        {
          "internalType": "uint256",
          "name": "targetId",
          "type": "uint256"
        }
      ],
      "stateMutability": "pure",
      "type": "function"
    },
    {
      "inputs": [
        {
          "internalType": "address payable",
          "name": "_account",
          "type": "address"
        }
      ],
      "name": "drawDown",
      "outputs": [],
      "stateMutability": "nonpayable",
      "type": "function"
    },
    {
      "inputs": [],
      "name": "etsEnsure",
      "outputs": [
        {
          "internalType": "contract ETSEnsure",
          "name": "",
          "type": "address"
        }
      ],
      "stateMutability": "view",
      "type": "function"
    },
    {
      "inputs": [],
      "name": "etsTag",
      "outputs": [
        {
          "internalType": "contract ETSTag",
          "name": "",
          "type": "address"
        }
      ],
      "stateMutability": "view",
      "type": "function"
    },
    {
      "inputs": [
        {
          "internalType": "string",
          "name": "_tagString",
          "type": "string"
        },
        {
          "internalType": "address payable",
          "name": "_publisher",
          "type": "address"
        },
        {
          "internalType": "address",
          "name": "_tagger",
          "type": "address"
        }
      ],
      "name": "getOrCreateTagId",
      "outputs": [
        {
          "internalType": "uint256",
          "name": "etstagId",
          "type": "uint256"
        }
      ],
      "stateMutability": "payable",
      "type": "function"
    },
    {
      "inputs": [
        {
          "internalType": "uint256",
          "name": "_nftChainId",
          "type": "uint256"
        }
      ],
      "name": "getPermittedNftChainId",
      "outputs": [
        {
          "internalType": "bool",
          "name": "",
          "type": "bool"
        }
      ],
      "stateMutability": "view",
      "type": "function"
    },
    {
      "inputs": [
        {
          "internalType": "uint256",
          "name": "_taggingId",
          "type": "uint256"
        }
      ],
      "name": "getTaggingRecord",
      "outputs": [
        {
          "internalType": "uint256[]",
          "name": "_etsTagIds",
          "type": "uint256[]"
        },
        {
          "internalType": "uint256",
          "name": "_targetId",
          "type": "uint256"
        },
        {
          "internalType": "address",
          "name": "_tagger",
          "type": "address"
        },
        {
          "internalType": "address",
          "name": "_publisher",
          "type": "address"
        },
        {
          "internalType": "address",
          "name": "_sponsor",
          "type": "address"
        }
      ],
      "stateMutability": "view",
      "type": "function"
    },
    {
      "inputs": [
        {
          "internalType": "contract ETSAccessControls",
          "name": "_accessControls",
          "type": "address"
        },
        {
          "internalType": "contract ETSTag",
          "name": "_etsTag",
          "type": "address"
        }
      ],
      "name": "initialize",
      "outputs": [],
      "stateMutability": "nonpayable",
      "type": "function"
    },
    {
      "inputs": [
        {
          "internalType": "uint256",
          "name": "_targetId",
          "type": "uint256"
        }
      ],
      "name": "isTargetEnsured",
      "outputs": [
        {
          "internalType": "bool",
          "name": "",
          "type": "bool"
        }
      ],
      "stateMutability": "view",
      "type": "function"
    },
    {
      "inputs": [],
      "name": "modulo",
      "outputs": [
        {
          "internalType": "uint256",
          "name": "",
          "type": "uint256"
        }
      ],
      "stateMutability": "view",
      "type": "function"
    },
    {
      "inputs": [
        {
          "internalType": "address",
          "name": "",
          "type": "address"
        }
      ],
      "name": "paid",
      "outputs": [
        {
          "internalType": "uint256",
          "name": "",
          "type": "uint256"
        }
      ],
      "stateMutability": "view",
      "type": "function"
    },
    {
      "inputs": [
        {
          "internalType": "uint256",
          "name": "",
          "type": "uint256"
        }
      ],
      "name": "permittedNftChainIds",
      "outputs": [
        {
          "internalType": "bool",
          "name": "",
          "type": "bool"
        }
      ],
      "stateMutability": "view",
      "type": "function"
    },
    {
      "inputs": [],
      "name": "platformPercentage",
      "outputs": [
        {
          "internalType": "uint256",
          "name": "",
          "type": "uint256"
        }
      ],
      "stateMutability": "view",
      "type": "function"
    },
    {
      "inputs": [],
      "name": "publisherPercentage",
      "outputs": [
        {
          "internalType": "uint256",
          "name": "",
          "type": "uint256"
        }
      ],
      "stateMutability": "view",
      "type": "function"
    },
    {
      "inputs": [],
      "name": "remainingPercentage",
      "outputs": [
        {
          "internalType": "uint256",
          "name": "",
          "type": "uint256"
        }
      ],
      "stateMutability": "view",
      "type": "function"
    },
    {
      "inputs": [
        {
          "internalType": "uint256",
          "name": "_nftChainId",
          "type": "uint256"
        },
        {
          "internalType": "bool",
          "name": "_setting",
          "type": "bool"
        }
      ],
      "name": "setPermittedNftChainId",
      "outputs": [],
      "stateMutability": "nonpayable",
      "type": "function"
    },
    {
      "inputs": [
        {
          "internalType": "uint256",
          "name": "_fee",
          "type": "uint256"
        }
      ],
      "name": "setTaggingFee",
      "outputs": [],
      "stateMutability": "nonpayable",
      "type": "function"
    },
    {
      "inputs": [
        {
          "internalType": "string[]",
          "name": "_tags",
          "type": "string[]"
        },
        {
          "internalType": "string",
          "name": "_targetURI",
          "type": "string"
        },
        {
          "internalType": "address payable",
          "name": "_publisher",
          "type": "address"
        },
        {
          "internalType": "address",
          "name": "_tagger",
          "type": "address"
        },
        {
          "internalType": "address",
          "name": "_sponsor",
          "type": "address"
        },
        {
          "internalType": "bool",
          "name": "_ensure",
          "type": "bool"
        }
      ],
      "name": "tagTarget",
      "outputs": [],
      "stateMutability": "payable",
      "type": "function"
    },
    {
      "inputs": [],
      "name": "taggingCounter",
      "outputs": [
        {
          "internalType": "uint256",
          "name": "",
          "type": "uint256"
        }
      ],
      "stateMutability": "view",
      "type": "function"
    },
    {
      "inputs": [],
      "name": "taggingFee",
      "outputs": [
        {
          "internalType": "uint256",
          "name": "",
          "type": "uint256"
        }
      ],
      "stateMutability": "view",
      "type": "function"
    },
    {
      "inputs": [
        {
          "internalType": "uint256",
          "name": "",
          "type": "uint256"
        }
      ],
      "name": "taggingRecords",
      "outputs": [
        {
          "internalType": "uint256",
          "name": "targetId",
          "type": "uint256"
        },
        {
          "internalType": "address",
          "name": "tagger",
          "type": "address"
        },
        {
          "internalType": "address",
          "name": "publisher",
          "type": "address"
        },
        {
          "internalType": "address",
          "name": "sponsor",
          "type": "address"
        }
      ],
      "stateMutability": "view",
      "type": "function"
    },
    {
      "inputs": [
        {
          "internalType": "uint256",
          "name": "targetId",
          "type": "uint256"
        }
      ],
      "name": "targetExists",
      "outputs": [
        {
          "internalType": "bool",
          "name": "",
          "type": "bool"
        }
      ],
      "stateMutability": "view",
      "type": "function"
    },
    {
      "inputs": [
        {
          "internalType": "uint256",
          "name": "",
          "type": "uint256"
        }
      ],
      "name": "targets",
      "outputs": [
        {
          "internalType": "string",
          "name": "targetType",
          "type": "string"
        },
        {
          "internalType": "string",
          "name": "targetURI",
          "type": "string"
        },
        {
          "internalType": "uint256",
          "name": "created",
          "type": "uint256"
        },
        {
          "internalType": "uint256",
          "name": "lastEnsured",
          "type": "uint256"
        },
        {
          "internalType": "uint256",
          "name": "status",
          "type": "uint256"
        },
        {
          "internalType": "string",
          "name": "ipfsHash",
          "type": "string"
        }
      ],
      "stateMutability": "view",
      "type": "function"
    },
    {
      "inputs": [
        {
          "internalType": "address",
          "name": "_account",
          "type": "address"
        }
      ],
      "name": "totalDue",
      "outputs": [
        {
          "internalType": "uint256",
          "name": "_due",
          "type": "uint256"
        }
      ],
      "stateMutability": "view",
      "type": "function"
    },
    {
      "inputs": [
        {
          "internalType": "contract ETSAccessControls",
          "name": "_accessControls",
          "type": "address"
        }
      ],
      "name": "updateAccessControls",
      "outputs": [],
      "stateMutability": "nonpayable",
      "type": "function"
    },
    {
      "inputs": [
        {
          "internalType": "contract ETSEnsure",
          "name": "_etsEnsure",
          "type": "address"
        }
      ],
      "name": "updateETSEnsure",
      "outputs": [],
      "stateMutability": "nonpayable",
      "type": "function"
    },
    {
      "inputs": [
        {
          "internalType": "uint256",
          "name": "_platformPercentage",
          "type": "uint256"
        },
        {
          "internalType": "uint256",
          "name": "_publisherPercentage",
          "type": "uint256"
        }
      ],
      "name": "updatePercentages",
      "outputs": [],
      "stateMutability": "nonpayable",
      "type": "function"
    },
    {
      "inputs": [
        {
          "internalType": "uint256",
          "name": "_targetId",
          "type": "uint256"
        },
        {
          "internalType": "string",
          "name": "_targetType",
          "type": "string"
        },
        {
          "internalType": "string",
          "name": "_targetURI",
          "type": "string"
        },
        {
          "internalType": "uint256",
          "name": "_lastEnsured",
          "type": "uint256"
        },
        {
          "internalType": "uint256",
          "name": "_status",
          "type": "uint256"
        },
        {
          "internalType": "string",
          "name": "_ipfsHash",
          "type": "string"
        }
      ],
      "name": "updateTarget",
      "outputs": [
        {
          "internalType": "bool",
          "name": "success",
          "type": "bool"
        }
      ],
      "stateMutability": "nonpayable",
      "type": "function"
    },
    {
      "inputs": [],
      "name": "upgradeTest",
      "outputs": [
        {
          "internalType": "bool",
          "name": "",
          "type": "bool"
        }
      ],
      "stateMutability": "pure",
      "type": "function"
    },
    {
      "inputs": [
        {
          "internalType": "address",
          "name": "newImplementation",
          "type": "address"
        }
      ],
      "name": "upgradeTo",
      "outputs": [],
      "stateMutability": "nonpayable",
      "type": "function"
    },
    {
      "inputs": [
        {
          "internalType": "address",
          "name": "newImplementation",
          "type": "address"
        },
        {
          "internalType": "bytes",
          "name": "data",
          "type": "bytes"
        }
      ],
      "name": "upgradeToAndCall",
      "outputs": [],
      "stateMutability": "payable",
      "type": "function"
    },
    {
      "inputs": [],
      "name": "version",
      "outputs": [
        {
          "internalType": "string",
          "name": "",
          "type": "string"
        }
      ],
      "stateMutability": "pure",
      "type": "function"
    }
  ],
  "bytecode": "0x60a06040523060805234801561001457600080fd5b5060805161338b61004560003960008181610a7a01528181610b0401528181610d140152610d99015261338b6000f3fe60806040526004361061026a5760003560e01c806374716c8111610153578063b7d0e7dd116100cb578063e88b772c1161007f578063fe52656f11610064578063fe52656f146107f5578063fed6c2e91461080b578063ffa1ad741461081e57600080fd5b8063e88b772c146107bf578063f8bc3cc6146107d557600080fd5b8063c20d2295116100b0578063c20d22951461075a578063ce0e0eed1461077a578063d64f55c9146107ac57600080fd5b8063b7d0e7dd1461071a578063c20620051461073a57600080fd5b8063a340cf7911610122578063a97dda4011610107578063a97dda40146106ad578063b148440f146106cd578063b205f808146106fa57600080fd5b8063a340cf7914610637578063a3f4df7e1461066457600080fd5b806374716c8114610546578063748365ef146105c95780637e2e4c5214610601578063962ed2321461061757600080fd5b80633d20b15c116101e6578063507f3ba1116101b55780635dffa7fe1161019a5780635dffa7fe1461049657806360c1cade146104b65780636ef3da941461052657600080fd5b8063507f3ba11461043f57806354fd4d501461045f57600080fd5b80633d20b15c146103c7578063485cc955146103db5780634f1ef286146103fb578063501a323a1461040e57600080fd5b80631f7418971161023d5780632974526211610222578063297452621461037a578063337ccf9d1461038f5780633659cfe6146103a557600080fd5b80631f74189714610334578063200e06af1461034a57600080fd5b80630477fe281461026f5780630a39ce02146102a45780630ad2f0c3146102d65780631797df5914610304575b600080fd5b34801561027b57600080fd5b5061028f61028a366004612a0a565b61084f565b60405190151581526020015b60405180910390f35b3480156102b057600080fd5b506102c46102bf366004612a0a565b610875565b60405161029b96959493929190612a7b565b3480156102e257600080fd5b506102f66102f1366004612af8565b610a41565b60405190815260200161029b565b34801561031057600080fd5b5061028f61031f366004612a0a565b600090815260d3602052604090205460ff1690565b34801561034057600080fd5b506102f660cc5481565b34801561035657600080fd5b5061028f610365366004612a0a565b60d36020526000908152604090205460ff1681565b34801561038657600080fd5b506102f6606481565b34801561039b57600080fd5b506102f660ce5481565b3480156103b157600080fd5b506103c56103c0366004612af8565b610a6f565b005b3480156103d357600080fd5b50600161028f565b3480156103e757600080fd5b506103c56103f6366004612b15565b610bf0565b6103c5610409366004612bfb565b610d09565b34801561041a57600080fd5b5061042e610429366004612a0a565b610e76565b60405161029b959493929190612c5f565b34801561044b57600080fd5b5061028f61045a366004612d12565b610f1c565b34801561046b57600080fd5b50604080518082019091526005815264302e302e3160d81b60208201525b60405161029b9190612dcb565b3480156104a257600080fd5b506102f66104b1366004612dfe565b610fc1565b3480156104c257600080fd5b506102f66104d1366004612e58565b604080516020808201969096526bffffffffffffffffffffffff19606094851b81168284015294841b851660548201529190921b90921660688301528051808303605c018152607c9092019052805191012090565b34801561053257600080fd5b506103c5610541366004612af8565b610ff7565b34801561055257600080fd5b5061059a610561366004612a0a565b60d460205260009081526040902060018101546002820154600383015460049093015491926001600160a01b0391821692908216911684565b604080519485526001600160a01b0393841660208601529183169184019190915216606082015260800161029b565b3480156105d557600080fd5b5060c9546105e9906001600160a01b031681565b6040516001600160a01b03909116815260200161029b565b34801561060d57600080fd5b506102f660cd5481565b34801561062357600080fd5b506103c5610632366004612a0a565b611192565b34801561064357600080fd5b506102f6610652366004612af8565b60d26020526000908152604090205481565b34801561067057600080fd5b506104896040518060400160405280600881526020017f45545320436f726500000000000000000000000000000000000000000000000081525081565b3480156106b957600080fd5b506103c56106c8366004612ec4565b61128d565b3480156106d957600080fd5b506102f66106e8366004612af8565b60d16020526000908152604090205481565b34801561070657600080fd5b506103c5610715366004612af8565b61139c565b34801561072657600080fd5b5060cb546105e9906001600160a01b031681565b34801561074657600080fd5b506103c5610755366004612af8565b61152f565b34801561076657600080fd5b506103c5610775366004612ee9565b611685565b34801561078657600080fd5b5061028f610795366004612a0a565b600090815260d56020526040902060030154151590565b6103c56107ba366004612f0b565b61182c565b3480156107cb57600080fd5b506102f660cf5481565b3480156107e157600080fd5b5060ca546105e9906001600160a01b031681565b34801561080157600080fd5b506102f660d05481565b6102f6610819366004612feb565b611d21565b34801561082a57600080fd5b5061048960405180604001604052806005815260200164302e302e3160d81b81525081565b600081815260d5602052604081206002015461086c57600061086f565b60015b92915050565b60d56020526000908152604090208054819061089090613048565b80601f01602080910402602001604051908101604052809291908181526020018280546108bc90613048565b80156109095780601f106108de57610100808354040283529160200191610909565b820191906000526020600020905b8154815290600101906020018083116108ec57829003601f168201915b50505050509080600101805461091e90613048565b80601f016020809104026020016040519081016040528092919081815260200182805461094a90613048565b80156109975780601f1061096c57610100808354040283529160200191610997565b820191906000526020600020905b81548152906001019060200180831161097a57829003601f168201915b5050505050908060020154908060030154908060040154908060050180546109be90613048565b80601f01602080910402602001604051908101604052809291908181526020018280546109ea90613048565b8015610a375780601f10610a0c57610100808354040283529160200191610a37565b820191906000526020600020905b815481529060010190602001808311610a1a57829003601f168201915b5050505050905086565b6001600160a01b038116600090815260d2602090815260408083205460d190925282205461086f9190613099565b306001600160a01b037f0000000000000000000000000000000000000000000000000000000000000000161415610b025760405162461bcd60e51b815260206004820152602c60248201527f46756e6374696f6e206d7573742062652063616c6c6564207468726f7567682060448201526b19195b1959d85d1958d85b1b60a21b60648201526084015b60405180910390fd5b7f00000000000000000000000000000000000000000000000000000000000000006001600160a01b0316610b5d7f360894a13ba1a3210667c828492db98dca3e2076cc3735a920a3ca505d382bbc546001600160a01b031690565b6001600160a01b031614610bc85760405162461bcd60e51b815260206004820152602c60248201527f46756e6374696f6e206d7573742062652063616c6c6564207468726f7567682060448201526b6163746976652070726f787960a01b6064820152608401610af9565b610bd181611e57565b60408051600080825260208201909252610bed91839190611f14565b50565b600054610100900460ff16610c0b5760005460ff1615610c0f565b303b155b610c815760405162461bcd60e51b815260206004820152602e60248201527f496e697469616c697a61626c653a20636f6e747261637420697320616c72656160448201527f647920696e697469616c697a65640000000000000000000000000000000000006064820152608401610af9565b600054610100900460ff16158015610ca3576000805461ffff19166101011790555b60c980546001600160a01b038086166001600160a01b03199283161790925560ca805492851692909116919091179055600060cf5566038d7ea4c6800060d055601460cc55601e60cd55603260ce558015610d04576000805461ff00191690555b505050565b306001600160a01b037f0000000000000000000000000000000000000000000000000000000000000000161415610d975760405162461bcd60e51b815260206004820152602c60248201527f46756e6374696f6e206d7573742062652063616c6c6564207468726f7567682060448201526b19195b1959d85d1958d85b1b60a21b6064820152608401610af9565b7f00000000000000000000000000000000000000000000000000000000000000006001600160a01b0316610df27f360894a13ba1a3210667c828492db98dca3e2076cc3735a920a3ca505d382bbc546001600160a01b031690565b6001600160a01b031614610e5d5760405162461bcd60e51b815260206004820152602c60248201527f46756e6374696f6e206d7573742062652063616c6c6564207468726f7567682060448201526b6163746976652070726f787960a01b6064820152608401610af9565b610e6682611e57565b610e7282826001611f14565b5050565b600081815260d46020908152604080832060018101546002820154600383015460048401548454865181890281018901909752808752606098978897889788979096879691956001600160a01b039182169592821694911692918791830182828015610f0157602002820191906000526020600020905b815481526020019060010190808311610eed575b50505050509450955095509550955095505091939590929450565b600089815260d560205260408120610f35908a8a6128c3565b5060008a815260d560205260409020610f529060010188886128c3565b5060008a815260d5602052604090206003810186905560048101859055610f7d9060050184846128c3565b506040518a81527f9d29e5045b411bb06d81d8ff11c828d9f1d7eb076eec9ca45eda49fc99f762b29060200160405180910390a15060019998505050505050505050565b6000808383604051602001610fd79291906130b0565b60408051808303601f190181529190528051602090910120949350505050565b60c9546001600160a01b03166324d7806c336040516001600160e01b031960e084901b1681526001600160a01b039091166004820152602401602060405180830381865afa15801561104d573d6000803e3d6000fd5b505050506040513d601f19601f8201168201806040525081019061107191906130df565b6110b45760405162461bcd60e51b815260206004820152601460248201527321b0b63632b91036bab9ba1031329030b236b4b760611b6044820152606401610af9565b6001600160a01b0381166111305760405162461bcd60e51b815260206004820152602860248201527f4554532e757064617465416363657373436f6e74726f6c733a2043616e6e6f7460448201527f206265207a65726f0000000000000000000000000000000000000000000000006064820152608401610af9565b60c980546001600160a01b038381166001600160a01b031983168117909355604080519190921680825260208201939093527f31073599bfae2533a348dc816b0ce777b707aa9b67015ca2d86585e842b5c6e991015b60405180910390a15050565b60c9546001600160a01b03166324d7806c336040516001600160e01b031960e084901b1681526001600160a01b039091166004820152602401602060405180830381865afa1580156111e8573d6000803e3d6000fd5b505050506040513d601f19601f8201168201806040525081019061120c91906130df565b61124f5760405162461bcd60e51b815260206004820152601460248201527321b0b63632b91036bab9ba1031329030b236b4b760611b6044820152606401610af9565b60d080549082905560408051828152602081018490527f861fa8a0dab775faf9bcbb5388a02f7ac01181c036f5c57982464a2d75c3608e9101611186565b60c9546001600160a01b03166324d7806c336040516001600160e01b031960e084901b1681526001600160a01b039091166004820152602401602060405180830381865afa1580156112e3573d6000803e3d6000fd5b505050506040513d601f19601f8201168201806040525081019061130791906130df565b61134a5760405162461bcd60e51b815260206004820152601460248201527321b0b63632b91036bab9ba1031329030b236b4b760611b6044820152606401610af9565b600082815260d36020908152604091829020805460ff19168415159081179091558251858152918201527f9a1b1e3722de574f6867ada1474b42b28458b0d93fc376664c96cb084b9211819101611186565b60c9546001600160a01b03166324d7806c336040516001600160e01b031960e084901b1681526001600160a01b039091166004820152602401602060405180830381865afa1580156113f2573d6000803e3d6000fd5b505050506040513d601f19601f8201168201806040525081019061141691906130df565b6114595760405162461bcd60e51b815260206004820152601460248201527321b0b63632b91036bab9ba1031329030b236b4b760611b6044820152606401610af9565b6001600160a01b0381166114d55760405162461bcd60e51b815260206004820152602360248201527f4554532e757064617465455453456e737572653a2043616e6e6f74206265207a60448201527f65726f00000000000000000000000000000000000000000000000000000000006064820152608401610af9565b60cb80546001600160a01b038381166001600160a01b031983168117909355604080519190921680825260208201939093527fee20190c374934660675d28472968e002fc4af227f2956f59085225ad89239fa9101611186565b600260335414156115825760405162461bcd60e51b815260206004820152601f60248201527f5265656e7472616e637947756172643a207265656e7472616e742063616c6c006044820152606401610af9565b60026033556001600160a01b038116600090815260d2602090815260408083205460d19092528220546115b59190613099565b90506000811180156115c75750478111155b1561167c576001600160a01b038216600090815260d260205260409020546115f09082906130fc565b6001600160a01b038316600081815260d26020526040808220939093559151909183156108fc02918491818181858888f19350505050158015611637573d6000803e3d6000fd5b50816001600160a01b03167feaff4b37086828766ad3268786972c0cd24259d4c87a80f9d3963a3c3d999b0d8260405161167391815260200190565b60405180910390a25b50506001603355565b60c9546001600160a01b03166324d7806c336040516001600160e01b031960e084901b1681526001600160a01b039091166004820152602401602060405180830381865afa1580156116db573d6000803e3d6000fd5b505050506040513d601f19601f820116820180604052508101906116ff91906130df565b6117425760405162461bcd60e51b815260206004820152601460248201527321b0b63632b91036bab9ba1031329030b236b4b760611b6044820152606401610af9565b606461174e82846130fc565b11156117c25760405162461bcd60e51b815260206004820152603760248201527f4554532e75706461746550657263656e74616765733a2070657263656e74616760448201527f6573206d757374206e6f74206265206f766572203130300000000000000000006064820152608401610af9565b60cc82905560cd819055806117d8836064613099565b6117e29190613099565b60ce81905560cc5460cd546040805192835260208301919091528101919091527f78c1b0567e296aa5eef70ad2deee29f35e0dd128cac603be855ece3e823f430890606001611186565b6002603354141561187f5760405162461bcd60e51b815260206004820152601f60248201527f5265656e7472616e637947756172643a207265656e7472616e742063616c6c006044820152606401610af9565b600260335560c9546040517f2b04fd440000000000000000000000000000000000000000000000000000000081523360048201526001600160a01b0390911690632b04fd4490602401602060405180830381865afa1580156118e5573d6000803e3d6000fd5b505050506040513d601f19601f8201168201806040525081019061190991906130df565b6119555760405162461bcd60e51b815260206004820152601060248201527f4f6e6c79207461726765742074797065000000000000000000000000000000006044820152606401610af9565b60c9546040517f41859ac80000000000000000000000000000000000000000000000000000000081526001600160a01b038681166004830152909116906341859ac890602401602060405180830381865afa1580156119b8573d6000803e3d6000fd5b505050506040513d601f19601f820116820180604052508101906119dc91906130df565b611a4e5760405162461bcd60e51b815260206004820152602660248201527f5461673a20546865207075626c6973686572206d75737420626520776869746560448201527f6c697374656400000000000000000000000000000000000000000000000000006064820152608401610af9565b8680611a9c5760405162461bcd60e51b815260206004820152601760248201527f4e6f2074616720737472696e677320737570706c6965640000000000000000006044820152606401610af9565b8060d054611aaa9190613114565b3414611af85760405162461bcd60e51b815260206004820152601a60248201527f5461673a20596f75206d7573742073656e6420746865206665650000000000006044820152606401610af9565b60c9546040517fa88ae5b6000000000000000000000000000000000000000000000000000000008152336004820152600091611bc4916001600160a01b039091169063a88ae5b690602401600060405180830381865afa158015611b60573d6000803e3d6000fd5b505050506040513d6000823e601f3d908101601f19168201604052611b889190810190613133565b89898080601f0160208091040260200160405190810160405280939291908181526020018383808284376000920191909152506120d892505050565b905060008267ffffffffffffffff811115611be157611be1612b4e565b604051908082528060200260200182016040528015611c0a578160200160208202803683370190505b50905060005b83811015611c83576000611c488d8d84818110611c2f57611c2f6131a1565b9050602002810190611c4191906131b7565b8b8b611d21565b9050611c54818a612118565b80838381518110611c6757611c676131a1565b602090810291909101015250611c7c816131fe565b9050611c10565b508315611d025760cb546040517f177f2fb5000000000000000000000000000000000000000000000000000000008152600481018490526001600160a01b039091169063177f2fb590602401600060405180830381600087803b158015611ce957600080fd5b505af1158015611cfd573d6000803e3d6000fd5b505050505b611d0f8183898989612457565b50506001603355505050505050505050565b60ca546040517f04befefd00000000000000000000000000000000000000000000000000000000815260009182916001600160a01b03909116906304befefd90611d719089908990600401613242565b602060405180830381865afa158015611d8e573d6000803e3d6000fd5b505050506040513d601f19601f82011682018060405250810190611db29190613256565b905080611e4e5760ca546040517f7e6d945e0000000000000000000000000000000000000000000000000000000081526001600160a01b0390911690637e6d945e90611e0890899089908990899060040161326f565b6020604051808303816000875af1158015611e27573d6000803e3d6000fd5b505050506040513d601f19601f82011682018060405250810190611e4b9190613256565b90505b95945050505050565b60c9546001600160a01b03166324d7806c336040516001600160e01b031960e084901b1681526001600160a01b039091166004820152602401602060405180830381865afa158015611ead573d6000803e3d6000fd5b505050506040513d601f19601f82011682018060405250810190611ed191906130df565b610bed5760405162461bcd60e51b815260206004820152601460248201527321b0b63632b91036bab9ba1031329030b236b4b760611b6044820152606401610af9565b6000611f477f360894a13ba1a3210667c828492db98dca3e2076cc3735a920a3ca505d382bbc546001600160a01b031690565b9050611f528461259b565b600083511180611f5f5750815b15611f7057611f6e8484612650565b505b7f4910fdfa16fed3260ed0e7147f7cc6da11a60208b5b9406d12a635614ffd9143805460ff166120d157805460ff191660011781556040516001600160a01b038316602482015261201d90869060440160408051601f198184030181529190526020810180517bffffffffffffffffffffffffffffffffffffffffffffffffffffffff167f3659cfe600000000000000000000000000000000000000000000000000000000179052612650565b50805460ff191681557f360894a13ba1a3210667c828492db98dca3e2076cc3735a920a3ca505d382bbc546001600160a01b038381169116146120c85760405162461bcd60e51b815260206004820152602f60248201527f45524331393637557067726164653a207570677261646520627265616b73206660448201527f75727468657220757067726164657300000000000000000000000000000000006064820152608401610af9565b6120d185612749565b5050505050565b6000806120e58484610fc1565b600081815260d560205260409020600201549091501561210657905061086f565b6121108484612789565b949350505050565b60ca546040517f878327ab0000000000000000000000000000000000000000000000000000000081526004810184905260009182916001600160a01b039091169063878327ab906024016040805180830381865afa15801561217e573d6000803e3d6000fd5b505050506040513d601f19601f820116820180604052508101906121a291906132a4565b91509150816001600160a01b0316816001600160a01b0316141561234e57606460cc54346121d09190613114565b6121da91906132d3565b6001600160a01b038316600090815260d160205260409020546121fd91906130fc565b6001600160a01b038316600090815260d1602052604090205560cd546064906122269034613114565b61223091906132d3565b6001600160a01b038416600090815260d1602052604090205461225391906130fc565b6001600160a01b03848116600090815260d160205260408082209390935560ca5492517fa30b4db90000000000000000000000000000000000000000000000000000000081526004810188905290929091169063a30b4db990602401602060405180830381865afa1580156122cc573d6000803e3d6000fd5b505050506040513d601f19601f820116820180604052508101906122f091906132f5565b9050606460ce54346123029190613114565b61230c91906132d3565b6001600160a01b038216600090815260d1602052604090205461232f91906130fc565b6001600160a01b03909116600090815260d16020526040902055612451565b606460cc543461235e9190613114565b61236891906132d3565b6001600160a01b038316600090815260d1602052604090205461238b91906130fc565b6001600160a01b038316600090815260d1602052604090205560cd546064906123b49034613114565b6123be91906132d3565b6001600160a01b038416600090815260d160205260409020546123e191906130fc565b6001600160a01b038416600090815260d1602052604090205560ce5460649061240a9034613114565b61241491906132d3565b6001600160a01b038216600090815260d1602052604090205461243791906130fc565b6001600160a01b038216600090815260d160205260409020555b50505050565b6040805160208082018790526bffffffffffffffffffffffff19606087811b82168486015286811b8216605485015285901b1660688301528251808303605c018152607c90920190925280519101206000906040805160a08101825288815260208082018990526001600160a01b0380881683850152888116606084015286166080830152600084815260d48252929092208151805194955091939092612502928492910190612947565b5060208281015160018301556040808401516002840180546001600160a01b03199081166001600160a01b03938416179091556060860151600386018054831691841691909117905560809095015160049094018054909516931692909217909255518281527f81b185c481377e520177bddb63bab2a8d220831d7c07b748c2baf29c6e607070910160405180910390a1505050505050565b803b61260f5760405162461bcd60e51b815260206004820152602d60248201527f455243313936373a206e657720696d706c656d656e746174696f6e206973206e60448201527f6f74206120636f6e7472616374000000000000000000000000000000000000006064820152608401610af9565b7f360894a13ba1a3210667c828492db98dca3e2076cc3735a920a3ca505d382bbc80546001600160a01b0319166001600160a01b0392909216919091179055565b6060823b6126c65760405162461bcd60e51b815260206004820152602660248201527f416464726573733a2064656c65676174652063616c6c20746f206e6f6e2d636f60448201527f6e747261637400000000000000000000000000000000000000000000000000006064820152608401610af9565b600080846001600160a01b0316846040516126e19190613312565b600060405180830381855af49150503d806000811461271c576040519150601f19603f3d011682016040523d82523d6000602084013e612721565b606091505b5091509150611e4e828260405180606001604052806027815260200161332f60279139612883565b6127528161259b565b6040516001600160a01b038216907fbc7cd75a20ee27fd9adebab32041f755214dbc6bffa90cc0225b39da2e5c2d3b90600090a250565b6000806127968484610fc1565b6040805160c08101825286815260208082018790524282840152600060608301819052608083018190528351808301855281815260a084015284815260d582529290922081518051949550919390926127f3928492910190612982565b50602082810151805161280c9260018501920190612982565b5060408201516002820155606082015160038201556080820151600482015560a08201518051612846916005840191602090910190612982565b50506040518281527f503a6e6145f2d2a2a9b0845c2193aef653400c52f93b1c897bd55d36a396be7c915060200160405180910390a19392505050565b606083156128925750816128bc565b8251156128a25782518084602001fd5b8160405162461bcd60e51b8152600401610af99190612dcb565b9392505050565b8280546128cf90613048565b90600052602060002090601f0160209004810192826128f15760008555612937565b82601f1061290a5782800160ff19823516178555612937565b82800160010185558215612937579182015b8281111561293757823582559160200191906001019061291c565b506129439291506129f5565b5090565b828054828255906000526020600020908101928215612937579160200282015b82811115612937578251825591602001919060010190612967565b82805461298e90613048565b90600052602060002090601f0160209004810192826129b05760008555612937565b82601f106129c957805160ff1916838001178555612937565b828001600101855582156129375791820182811115612937578251825591602001919060010190612967565b5b8082111561294357600081556001016129f6565b600060208284031215612a1c57600080fd5b5035919050565b60005b83811015612a3e578181015183820152602001612a26565b838111156124515750506000910152565b60008151808452612a67816020860160208601612a23565b601f01601f19169290920160200192915050565b60c081526000612a8e60c0830189612a4f565b8281036020840152612aa08189612a4f565b905086604084015285606084015284608084015282810360a0840152612ac68185612a4f565b9998505050505050505050565b6001600160a01b0381168114610bed57600080fd5b8035612af381612ad3565b919050565b600060208284031215612b0a57600080fd5b81356128bc81612ad3565b60008060408385031215612b2857600080fd5b8235612b3381612ad3565b91506020830135612b4381612ad3565b809150509250929050565b634e487b7160e01b600052604160045260246000fd5b604051601f8201601f1916810167ffffffffffffffff81118282101715612b8d57612b8d612b4e565b604052919050565b600067ffffffffffffffff821115612baf57612baf612b4e565b50601f01601f191660200190565b6000612bd0612bcb84612b95565b612b64565b9050828152838383011115612be457600080fd5b828260208301376000602084830101529392505050565b60008060408385031215612c0e57600080fd5b8235612c1981612ad3565b9150602083013567ffffffffffffffff811115612c3557600080fd5b8301601f81018513612c4657600080fd5b612c5585823560208401612bbd565b9150509250929050565b60a0808252865190820181905260009060209060c0840190828a01845b82811015612c9857815184529284019290840190600101612c7c565b50505090830196909652506001600160a01b0393841660408201529183166060830152909116608090910152919050565b60008083601f840112612cdb57600080fd5b50813567ffffffffffffffff811115612cf357600080fd5b602083019150836020828501011115612d0b57600080fd5b9250929050565b600080600080600080600080600060c08a8c031215612d3057600080fd5b8935985060208a013567ffffffffffffffff80821115612d4f57600080fd5b612d5b8d838e01612cc9565b909a50985060408c0135915080821115612d7457600080fd5b612d808d838e01612cc9565b909850965060608c0135955060808c0135945060a08c0135915080821115612da757600080fd5b50612db48c828d01612cc9565b915080935050809150509295985092959850929598565b6020815260006128bc6020830184612a4f565b600082601f830112612def57600080fd5b6128bc83833560208501612bbd565b60008060408385031215612e1157600080fd5b823567ffffffffffffffff80821115612e2957600080fd5b612e3586838701612dde565b93506020850135915080821115612e4b57600080fd5b50612c5585828601612dde565b60008060008060808587031215612e6e57600080fd5b843593506020850135612e8081612ad3565b92506040850135612e9081612ad3565b91506060850135612ea081612ad3565b939692955090935050565b8015158114610bed57600080fd5b8035612af381612eab565b60008060408385031215612ed757600080fd5b823591506020830135612b4381612eab565b60008060408385031215612efc57600080fd5b50508035926020909101359150565b60008060008060008060008060c0898b031215612f2757600080fd5b883567ffffffffffffffff80821115612f3f57600080fd5b818b0191508b601f830112612f5357600080fd5b813581811115612f6257600080fd5b8c60208260051b8501011115612f7757600080fd5b60209283019a509850908a01359080821115612f9257600080fd5b50612f9f8b828c01612cc9565b9097509550612fb2905060408a01612ae8565b9350612fc060608a01612ae8565b9250612fce60808a01612ae8565b9150612fdc60a08a01612eb9565b90509295985092959890939650565b6000806000806060858703121561300157600080fd5b843567ffffffffffffffff81111561301857600080fd5b61302487828801612cc9565b909550935050602085013561303881612ad3565b91506040850135612ea081612ad3565b600181811c9082168061305c57607f821691505b6020821081141561307d57634e487b7160e01b600052602260045260246000fd5b50919050565b634e487b7160e01b600052601160045260246000fd5b6000828210156130ab576130ab613083565b500390565b600083516130c2818460208801612a23565b8351908301906130d6818360208801612a23565b01949350505050565b6000602082840312156130f157600080fd5b81516128bc81612eab565b6000821982111561310f5761310f613083565b500190565b600081600019048311821515161561312e5761312e613083565b500290565b60006020828403121561314557600080fd5b815167ffffffffffffffff81111561315c57600080fd5b8201601f8101841361316d57600080fd5b805161317b612bcb82612b95565b81815285602083850101111561319057600080fd5b611e4e826020830160208601612a23565b634e487b7160e01b600052603260045260246000fd5b6000808335601e198436030181126131ce57600080fd5b83018035915067ffffffffffffffff8211156131e957600080fd5b602001915036819003821315612d0b57600080fd5b600060001982141561321257613212613083565b5060010190565b81835281816020850137506000828201602090810191909152601f909101601f19169091010190565b602081526000612110602083018486613219565b60006020828403121561326857600080fd5b5051919050565b606081526000613283606083018688613219565b6001600160a01b039485166020840152929093166040909101529392505050565b600080604083850312156132b757600080fd5b82516132c281612ad3565b6020840151909250612b4381612ad3565b6000826132f057634e487b7160e01b600052601260045260246000fd5b500490565b60006020828403121561330757600080fd5b81516128bc81612ad3565b60008251613324818460208701612a23565b919091019291505056fe416464726573733a206c6f772d6c6576656c2064656c65676174652063616c6c206661696c6564a2646970667358221220520d9f90b5af9cdec99fbfce5b9ff5eb636d9044a1690c093c278c3d8d464af764736f6c634300080c0033",
  "linkReferences": {},
  "deployedLinkReferences": {}
}