{
  "_format": "hh-sol-artifact-1",
  "contractName": "ETSUpgrade",
  "sourceName": "contracts/utils/UUPS/UUPSTesting.sol",
  "abi": [
    {
      "anonymous": false,
      "inputs": [
        {
          "indexed": false,
          "internalType": "contract ETSAccessControls",
          "name": "previousAccessControls",
          "type": "address"
        },
        {
          "indexed": false,
          "internalType": "contract ETSAccessControls",
          "name": "newAccessControls",
          "type": "address"
        }
      ],
      "name": "AccessControlsUpdated",
      "type": "event"
    },
    {
      "anonymous": false,
      "inputs": [
        {
          "indexed": false,
          "internalType": "address",
          "name": "previousAdmin",
          "type": "address"
        },
        {
          "indexed": false,
          "internalType": "address",
          "name": "newAdmin",
          "type": "address"
        }
      ],
      "name": "AdminChanged",
      "type": "event"
    },
    {
      "anonymous": false,
      "inputs": [
        {
          "indexed": true,
          "internalType": "address",
          "name": "beacon",
          "type": "address"
        }
      ],
      "name": "BeaconUpgraded",
      "type": "event"
    },
    {
      "anonymous": false,
      "inputs": [
        {
          "indexed": false,
          "internalType": "contract ETSEnsure",
          "name": "previousETSEnsure",
          "type": "address"
        },
        {
          "indexed": false,
          "internalType": "contract ETSEnsure",
          "name": "newETSEnsure",
          "type": "address"
        }
      ],
      "name": "ETSEnsureUpdated",
      "type": "event"
    },
    {
      "anonymous": false,
      "inputs": [
        {
          "indexed": true,
          "internalType": "address",
          "name": "who",
          "type": "address"
        },
        {
          "indexed": false,
          "internalType": "uint256",
          "name": "amount",
          "type": "uint256"
        }
      ],
      "name": "FundsWithdrawn",
      "type": "event"
    },
    {
      "anonymous": false,
      "inputs": [
        {
          "indexed": false,
          "internalType": "uint256",
          "name": "platformPercentage",
          "type": "uint256"
        },
        {
          "indexed": false,
          "internalType": "uint256",
          "name": "publisherPercentage",
          "type": "uint256"
        },
        {
          "indexed": false,
          "internalType": "uint256",
          "name": "remainingPercentage",
          "type": "uint256"
        }
      ],
      "name": "PercentagesSet",
      "type": "event"
    },
    {
      "anonymous": false,
      "inputs": [
        {
          "indexed": false,
          "internalType": "uint256",
          "name": "nftChainId",
          "type": "uint256"
        },
        {
          "indexed": false,
          "internalType": "bool",
          "name": "setting",
          "type": "bool"
        }
      ],
      "name": "PermittedNftChainIdSet",
      "type": "event"
    },
    {
      "anonymous": false,
      "inputs": [
        {
          "indexed": false,
          "internalType": "uint256",
          "name": "targetId",
          "type": "uint256"
        }
      ],
      "name": "RequestEnsureTarget",
      "type": "event"
    },
    {
      "anonymous": false,
      "inputs": [
        {
          "indexed": false,
          "internalType": "uint256",
          "name": "previousFee",
          "type": "uint256"
        },
        {
          "indexed": false,
          "internalType": "uint256",
          "name": "taggingFee",
          "type": "uint256"
        }
      ],
      "name": "TaggingFeeSet",
      "type": "event"
    },
    {
      "anonymous": false,
      "inputs": [
        {
          "indexed": false,
          "internalType": "uint256",
          "name": "targetId",
          "type": "uint256"
        }
      ],
      "name": "TargetCreated",
      "type": "event"
    },
    {
      "anonymous": false,
      "inputs": [
        {
          "indexed": false,
          "internalType": "uint256",
          "name": "taggingId",
          "type": "uint256"
        }
      ],
      "name": "TargetTagged",
      "type": "event"
    },
    {
      "anonymous": false,
      "inputs": [
        {
          "indexed": false,
          "internalType": "string",
          "name": "typeName",
          "type": "string"
        },
        {
          "indexed": false,
          "internalType": "bool",
          "name": "setting",
          "type": "bool"
        }
      ],
      "name": "TargetTypeSet",
      "type": "event"
    },
    {
      "anonymous": false,
      "inputs": [
        {
          "indexed": false,
          "internalType": "uint256",
          "name": "targetId",
          "type": "uint256"
        }
      ],
      "name": "TargetUpdated",
      "type": "event"
    },
    {
      "anonymous": false,
      "inputs": [
        {
          "indexed": true,
          "internalType": "address",
          "name": "implementation",
          "type": "address"
        }
      ],
      "name": "Upgraded",
      "type": "event"
    },
    {
      "inputs": [],
      "name": "NAME",
      "outputs": [
        {
          "internalType": "string",
          "name": "",
          "type": "string"
        }
      ],
      "stateMutability": "view",
      "type": "function"
    },
    {
      "inputs": [],
      "name": "VERSION",
      "outputs": [
        {
          "internalType": "string",
          "name": "",
          "type": "string"
        }
      ],
      "stateMutability": "view",
      "type": "function"
    },
    {
      "inputs": [],
      "name": "accessControls",
      "outputs": [
        {
          "internalType": "contract ETSAccessControls",
          "name": "",
          "type": "address"
        }
      ],
      "stateMutability": "view",
      "type": "function"
    },
    {
      "inputs": [
        {
          "internalType": "address",
          "name": "",
          "type": "address"
        }
      ],
      "name": "accrued",
      "outputs": [
        {
          "internalType": "uint256",
          "name": "",
          "type": "uint256"
        }
      ],
      "stateMutability": "view",
      "type": "function"
    },
    {
      "inputs": [
        {
          "internalType": "string",
          "name": "_targetType",
          "type": "string"
        },
        {
          "internalType": "string",
          "name": "_targetURI",
          "type": "string"
        }
      ],
      "name": "createTarget",
      "outputs": [
        {
          "internalType": "uint256",
          "name": "targetId",
          "type": "uint256"
        }
      ],
      "stateMutability": "nonpayable",
      "type": "function"
    },
    {
      "inputs": [
        {
          "internalType": "address payable",
          "name": "_account",
          "type": "address"
        }
      ],
      "name": "drawDown",
      "outputs": [],
      "stateMutability": "nonpayable",
      "type": "function"
    },
    {
      "inputs": [],
      "name": "etsEnsure",
      "outputs": [
        {
          "internalType": "contract ETSEnsure",
          "name": "",
          "type": "address"
        }
      ],
      "stateMutability": "view",
      "type": "function"
    },
    {
      "inputs": [],
      "name": "etsTag",
      "outputs": [
        {
          "internalType": "contract ETSTag",
          "name": "",
          "type": "address"
        }
      ],
      "stateMutability": "view",
      "type": "function"
    },
    {
      "inputs": [
        {
          "internalType": "uint256",
          "name": "_nftChainId",
          "type": "uint256"
        }
      ],
      "name": "getPermittedNftChainId",
      "outputs": [
        {
          "internalType": "bool",
          "name": "",
          "type": "bool"
        }
      ],
      "stateMutability": "view",
      "type": "function"
    },
    {
      "inputs": [
        {
          "internalType": "string",
          "name": "_tagString",
          "type": "string"
        },
        {
          "internalType": "address payable",
          "name": "_publisher",
          "type": "address"
        },
        {
          "internalType": "address",
          "name": "_tagger",
          "type": "address"
        }
      ],
      "name": "getTagId",
      "outputs": [
        {
          "internalType": "uint256",
          "name": "etstagId",
          "type": "uint256"
        }
      ],
      "stateMutability": "payable",
      "type": "function"
    },
    {
      "inputs": [
        {
          "internalType": "uint256",
          "name": "_taggingId",
          "type": "uint256"
        }
      ],
      "name": "getTaggingRecord",
      "outputs": [
        {
          "internalType": "uint256",
          "name": "_etsTagId",
          "type": "uint256"
        },
        {
          "internalType": "uint256",
          "name": "_targetId",
          "type": "uint256"
        },
        {
          "internalType": "address",
          "name": "_tagger",
          "type": "address"
        },
        {
          "internalType": "address",
          "name": "_publisher",
          "type": "address"
        },
        {
          "internalType": "uint256",
          "name": "_timestamp",
          "type": "uint256"
        }
      ],
      "stateMutability": "view",
      "type": "function"
    },
    {
      "inputs": [
        {
          "internalType": "string",
          "name": "_targetType",
          "type": "string"
        },
        {
          "internalType": "string",
          "name": "_targetURI",
          "type": "string"
        }
      ],
      "name": "getTargetId",
      "outputs": [
        {
          "internalType": "uint256",
          "name": "targetId",
          "type": "uint256"
        }
      ],
      "stateMutability": "nonpayable",
      "type": "function"
    },
    {
      "inputs": [
        {
          "internalType": "contract ETSAccessControls",
          "name": "_accessControls",
          "type": "address"
        },
        {
          "internalType": "contract ETSTag",
          "name": "_etsTag",
          "type": "address"
        }
      ],
      "name": "initialize",
      "outputs": [],
      "stateMutability": "nonpayable",
      "type": "function"
    },
    {
      "inputs": [],
      "name": "modulo",
      "outputs": [
        {
          "internalType": "uint256",
          "name": "",
          "type": "uint256"
        }
      ],
      "stateMutability": "view",
      "type": "function"
    },
    {
      "inputs": [
        {
          "internalType": "address",
          "name": "",
          "type": "address"
        }
      ],
      "name": "paid",
      "outputs": [
        {
          "internalType": "uint256",
          "name": "",
          "type": "uint256"
        }
      ],
      "stateMutability": "view",
      "type": "function"
    },
    {
      "inputs": [
        {
          "internalType": "uint256",
          "name": "",
          "type": "uint256"
        }
      ],
      "name": "permittedNftChainIds",
      "outputs": [
        {
          "internalType": "bool",
          "name": "",
          "type": "bool"
        }
      ],
      "stateMutability": "view",
      "type": "function"
    },
    {
      "inputs": [],
      "name": "platformPercentage",
      "outputs": [
        {
          "internalType": "uint256",
          "name": "",
          "type": "uint256"
        }
      ],
      "stateMutability": "view",
      "type": "function"
    },
    {
      "inputs": [],
      "name": "publisherPercentage",
      "outputs": [
        {
          "internalType": "uint256",
          "name": "",
          "type": "uint256"
        }
      ],
      "stateMutability": "view",
      "type": "function"
    },
    {
      "inputs": [],
      "name": "remainingPercentage",
      "outputs": [
        {
          "internalType": "uint256",
          "name": "",
          "type": "uint256"
        }
      ],
      "stateMutability": "view",
      "type": "function"
    },
    {
      "inputs": [
        {
          "internalType": "uint256",
          "name": "_nftChainId",
          "type": "uint256"
        },
        {
          "internalType": "bool",
          "name": "_setting",
          "type": "bool"
        }
      ],
      "name": "setPermittedNftChainId",
      "outputs": [],
      "stateMutability": "nonpayable",
      "type": "function"
    },
    {
      "inputs": [
        {
          "internalType": "uint256",
          "name": "_fee",
          "type": "uint256"
        }
      ],
      "name": "setTaggingFee",
      "outputs": [],
      "stateMutability": "nonpayable",
      "type": "function"
    },
    {
      "inputs": [
        {
          "internalType": "string",
          "name": "_typeName",
          "type": "string"
        },
        {
          "internalType": "bool",
          "name": "_setting",
          "type": "bool"
        }
      ],
      "name": "setTargetType",
      "outputs": [],
      "stateMutability": "nonpayable",
      "type": "function"
    },
    {
      "inputs": [
        {
          "internalType": "string",
          "name": "_tagString",
          "type": "string"
        },
        {
          "internalType": "string",
          "name": "_targetType",
          "type": "string"
        },
        {
          "internalType": "string",
          "name": "_targetURI",
          "type": "string"
        },
        {
          "internalType": "address payable",
          "name": "_publisher",
          "type": "address"
        },
        {
          "internalType": "address",
          "name": "_tagger",
          "type": "address"
        },
        {
          "internalType": "bool",
          "name": "_ensure",
          "type": "bool"
        }
      ],
      "name": "tagTarget",
      "outputs": [],
      "stateMutability": "payable",
      "type": "function"
    },
    {
      "inputs": [],
      "name": "taggingCounter",
      "outputs": [
        {
          "internalType": "uint256",
          "name": "",
          "type": "uint256"
        }
      ],
      "stateMutability": "view",
      "type": "function"
    },
    {
      "inputs": [],
      "name": "taggingFee",
      "outputs": [
        {
          "internalType": "uint256",
          "name": "",
          "type": "uint256"
        }
      ],
      "stateMutability": "view",
      "type": "function"
    },
    {
      "inputs": [
        {
          "internalType": "uint256",
          "name": "",
          "type": "uint256"
        }
      ],
      "name": "taggingRecords",
      "outputs": [
        {
          "internalType": "uint256",
          "name": "etsTagId",
          "type": "uint256"
        },
        {
          "internalType": "uint256",
          "name": "targetId",
          "type": "uint256"
        },
        {
          "internalType": "address",
          "name": "tagger",
          "type": "address"
        },
        {
          "internalType": "address",
          "name": "publisher",
          "type": "address"
        },
        {
          "internalType": "uint256",
          "name": "timestamp",
          "type": "uint256"
        }
      ],
      "stateMutability": "view",
      "type": "function"
    },
    {
      "inputs": [
        {
          "internalType": "uint256",
          "name": "targetId",
          "type": "uint256"
        }
      ],
      "name": "targetExists",
      "outputs": [
        {
          "internalType": "bool",
          "name": "",
          "type": "bool"
        }
      ],
      "stateMutability": "view",
      "type": "function"
    },
    {
      "inputs": [
        {
          "internalType": "string",
          "name": "",
          "type": "string"
        }
      ],
      "name": "targetType",
      "outputs": [
        {
          "internalType": "bool",
          "name": "",
          "type": "bool"
        }
      ],
      "stateMutability": "view",
      "type": "function"
    },
    {
      "inputs": [
        {
          "internalType": "uint256",
          "name": "",
          "type": "uint256"
        }
      ],
      "name": "targets",
      "outputs": [
        {
          "internalType": "string",
          "name": "targetType",
          "type": "string"
        },
        {
          "internalType": "string",
          "name": "targetURI",
          "type": "string"
        },
        {
          "internalType": "uint256",
          "name": "created",
          "type": "uint256"
        },
        {
          "internalType": "uint256",
          "name": "lastEnsured",
          "type": "uint256"
        },
        {
          "internalType": "uint256",
          "name": "status",
          "type": "uint256"
        },
        {
          "internalType": "string",
          "name": "ipfsHash",
          "type": "string"
        }
      ],
      "stateMutability": "view",
      "type": "function"
    },
    {
      "inputs": [
        {
          "internalType": "address",
          "name": "_account",
          "type": "address"
        }
      ],
      "name": "totalDue",
      "outputs": [
        {
          "internalType": "uint256",
          "name": "_due",
          "type": "uint256"
        }
      ],
      "stateMutability": "view",
      "type": "function"
    },
    {
      "inputs": [
        {
          "internalType": "contract ETSAccessControls",
          "name": "_accessControls",
          "type": "address"
        }
      ],
      "name": "updateAccessControls",
      "outputs": [],
      "stateMutability": "nonpayable",
      "type": "function"
    },
    {
      "inputs": [
        {
          "internalType": "contract ETSEnsure",
          "name": "_etsEnsure",
          "type": "address"
        }
      ],
      "name": "updateETSEnsure",
      "outputs": [],
      "stateMutability": "nonpayable",
      "type": "function"
    },
    {
      "inputs": [
        {
          "internalType": "uint256",
          "name": "_platformPercentage",
          "type": "uint256"
        },
        {
          "internalType": "uint256",
          "name": "_publisherPercentage",
          "type": "uint256"
        }
      ],
      "name": "updatePercentages",
      "outputs": [],
      "stateMutability": "nonpayable",
      "type": "function"
    },
    {
      "inputs": [
        {
          "internalType": "uint256",
          "name": "_targetId",
          "type": "uint256"
        },
        {
          "internalType": "string",
          "name": "_targetType",
          "type": "string"
        },
        {
          "internalType": "string",
          "name": "_targetURI",
          "type": "string"
        },
        {
          "internalType": "uint256",
          "name": "_lastEnsured",
          "type": "uint256"
        },
        {
          "internalType": "uint256",
          "name": "_status",
          "type": "uint256"
        },
        {
          "internalType": "string",
          "name": "_ipfsHash",
          "type": "string"
        }
      ],
      "name": "updateTarget",
      "outputs": [
        {
          "internalType": "bool",
          "name": "success",
          "type": "bool"
        }
      ],
      "stateMutability": "nonpayable",
      "type": "function"
    },
    {
      "inputs": [],
      "name": "upgradeTest",
      "outputs": [
        {
          "internalType": "bool",
          "name": "",
          "type": "bool"
        }
      ],
      "stateMutability": "pure",
      "type": "function"
    },
    {
      "inputs": [
        {
          "internalType": "address",
          "name": "newImplementation",
          "type": "address"
        }
      ],
      "name": "upgradeTo",
      "outputs": [],
      "stateMutability": "nonpayable",
      "type": "function"
    },
    {
      "inputs": [
        {
          "internalType": "address",
          "name": "newImplementation",
          "type": "address"
        },
        {
          "internalType": "bytes",
          "name": "data",
          "type": "bytes"
        }
      ],
      "name": "upgradeToAndCall",
      "outputs": [],
      "stateMutability": "payable",
      "type": "function"
    },
    {
      "inputs": [],
      "name": "version",
      "outputs": [
        {
          "internalType": "string",
          "name": "",
          "type": "string"
        }
      ],
      "stateMutability": "pure",
      "type": "function"
    }
  ],
  "bytecode": "0x60a06040523060601b60805234801561001757600080fd5b5060805160601c61312861004b60003960008181610ae101528181610b6b0152818161105a01526110df01526131286000f3fe6080604052600436106102855760003560e01c80636ef3da9411610153578063b148440f116100cb578063e16ee5a31161007f578063f8bc3cc611610064578063f8bc3cc614610808578063fe52656f14610828578063ffa1ad741461083e57600080fd5b8063e16ee5a3146107d2578063e88b772c146107f257600080fd5b8063b7d0e7dd116100b0578063b7d0e7dd14610772578063c206200514610792578063c20d2295146107b257600080fd5b8063b148440f14610725578063b205f8081461075257600080fd5b8063962ed23211610122578063a3f4df7e11610107578063a3f4df7e146106a9578063a76237f6146106f2578063a97dda401461070557600080fd5b8063962ed2321461065c578063a340cf791461067c57600080fd5b80636ef3da941461059757806374716c81146105b7578063748365ef1461060e5780637e2e4c521461064657600080fd5b80633659cfe611610201578063501a323a116101b557806354fd4d501161019a57806354fd4d50146105055780635514d00b1461053c57806358e20dde1461057757600080fd5b8063501a323a1461045c578063507f3ba1146104e557600080fd5b80633d20b15c116101e65780633d20b15c14610415578063485cc955146104295780634f1ef2861461044957600080fd5b80633659cfe6146103e057806336cf2c971461040257600080fd5b80631797df5911610258578063200e06af1161023d578063200e06af1461038557806329745262146103b5578063337ccf9d146103ca57600080fd5b80631797df591461033f5780631f7418971461036f57600080fd5b80630477fe281461028a5780630a39ce02146102bf5780630ad2f0c3146102f1578063146da5c41461031f575b600080fd5b34801561029657600080fd5b506102aa6102a5366004612cf2565b61086f565b60405190151581526020015b60405180910390f35b3480156102cb57600080fd5b506102df6102da366004612cf2565b610895565b6040516102b696959493929190612f49565b3480156102fd57600080fd5b5061031161030c366004612989565b610a61565b6040519081526020016102b6565b34801561032b57600080fd5b5061031161033a366004612b6b565b610a8e565b34801561034b57600080fd5b506102aa61035a366004612cf2565b600090815260d3602052604090205460ff1690565b34801561037b57600080fd5b5061031160cc5481565b34801561039157600080fd5b506102aa6103a0366004612cf2565b60d36020526000908152604090205460ff1681565b3480156103c157600080fd5b50610311606481565b3480156103d657600080fd5b5061031160ce5481565b3480156103ec57600080fd5b506104006103fb366004612989565b610ad6565b005b610400610410366004612bd7565b610c57565b34801561042157600080fd5b5060016102aa565b34801561043557600080fd5b50610400610444366004612a7e565b610f36565b6104006104573660046129fd565b61104f565b34801561046857600080fd5b506104b1610477366004612cf2565b600090815260d4602052604090208054600182015460028301546003840154600490940154929491936001600160a01b0391821693911691565b6040805195865260208601949094526001600160a01b0392831693850193909352166060830152608082015260a0016102b6565b3480156104f157600080fd5b506102aa610500366004612d49565b6111bc565b34801561051157600080fd5b50604080518082019091526005815264302e302e3160d81b60208201525b6040516102b69190612f36565b34801561054857600080fd5b506102aa610557366004612ca9565b805160208183018101805160d68252928201919093012091525460ff1681565b34801561058357600080fd5b50610400610592366004612b14565b611261565b3480156105a357600080fd5b506104006105b2366004612989565b61139f565b3480156105c357600080fd5b506104b16105d2366004612cf2565b60d46020526000908152604090208054600182015460028301546003840154600490940154929391926001600160a01b03918216929091169085565b34801561061a57600080fd5b5060c95461062e906001600160a01b031681565b6040516001600160a01b0390911681526020016102b6565b34801561065257600080fd5b5061031160cd5481565b34801561066857600080fd5b50610400610677366004612cf2565b611549565b34801561068857600080fd5b50610311610697366004612989565b60d26020526000908152604090205481565b3480156106b557600080fd5b5061052f6040518060400160405280600881526020017f45545320436f726500000000000000000000000000000000000000000000000081525081565b610311610700366004612aac565b611653565b34801561071157600080fd5b50610400610720366004612d24565b6117a7565b34801561073157600080fd5b50610311610740366004612989565b60d16020526000908152604090205481565b34801561075e57600080fd5b5061040061076d366004612989565b6118c5565b34801561077e57600080fd5b5060cb5461062e906001600160a01b031681565b34801561079e57600080fd5b506104006107ad366004612989565b611a67565b3480156107be57600080fd5b506104006107cd366004612e02565b611bbb565b3480156107de57600080fd5b506103116107ed366004612b6b565b611d70565b3480156107fe57600080fd5b5061031160cf5481565b34801561081457600080fd5b5060ca5461062e906001600160a01b031681565b34801561083457600080fd5b5061031160d05481565b34801561084a57600080fd5b5061052f60405180604001604052806005815260200164302e302e3160d81b81525081565b600081815260d5602052604081206002015461088c57600061088f565b60015b92915050565b60d5602052600090815260409020805481906108b090613041565b80601f01602080910402602001604051908101604052809291908181526020018280546108dc90613041565b80156109295780601f106108fe57610100808354040283529160200191610929565b820191906000526020600020905b81548152906001019060200180831161090c57829003601f168201915b50505050509080600101805461093e90613041565b80601f016020809104026020016040519081016040528092919081815260200182805461096a90613041565b80156109b75780601f1061098c576101008083540402835291602001916109b7565b820191906000526020600020905b81548152906001019060200180831161099a57829003601f168201915b5050505050908060020154908060030154908060040154908060050180546109de90613041565b80601f0160208091040260200160405190810160405280929190818152602001828054610a0a90613041565b8015610a575780601f10610a2c57610100808354040283529160200191610a57565b820191906000526020600020905b815481529060010190602001808311610a3a57829003601f168201915b5050505050905086565b6001600160a01b038116600090815260d2602090815260408083205460d190925282205461088f91611ed7565b600080610a9d86868686611eea565b600081815260d5602052604090206002015490915015610abe579050610ace565b610aca86868686611d70565b9150505b949350505050565b306001600160a01b037f0000000000000000000000000000000000000000000000000000000000000000161415610b695760405162461bcd60e51b815260206004820152602c60248201527f46756e6374696f6e206d7573742062652063616c6c6564207468726f7567682060448201526b19195b1959d85d1958d85b1b60a21b60648201526084015b60405180910390fd5b7f00000000000000000000000000000000000000000000000000000000000000006001600160a01b0316610bc47f360894a13ba1a3210667c828492db98dca3e2076cc3735a920a3ca505d382bbc546001600160a01b031690565b6001600160a01b031614610c2f5760405162461bcd60e51b815260206004820152602c60248201527f46756e6374696f6e206d7573742062652063616c6c6564207468726f7567682060448201526b6163746976652070726f787960a01b6064820152608401610b60565b610c3881611f26565b60408051600080825260208201909252610c5491839190611ff2565b50565b60026033541415610caa5760405162461bcd60e51b815260206004820152601f60248201527f5265656e7472616e637947756172643a207265656e7472616e742063616c6c006044820152606401610b60565b600260335560c9546040517f41859ac80000000000000000000000000000000000000000000000000000000081526001600160a01b038581166004830152909116906341859ac89060240160206040518083038186803b158015610d0d57600080fd5b505afa158015610d21573d6000803e3d6000fd5b505050506040513d601f19601f82011682018060405250810190610d459190612a61565b610db75760405162461bcd60e51b815260206004820152602660248201527f5461673a20546865207075626c6973686572206d75737420626520776869746560448201527f6c697374656400000000000000000000000000000000000000000000000000006064820152608401610b60565b60d054341015610e095760405162461bcd60e51b815260206004820152601a60248201527f5461673a20596f75206d7573742073656e6420746865206665650000000000006044820152606401610b60565b60d68787604051610e1b929190612e95565b9081526040519081900360200190205460ff16610e7a5760405162461bcd60e51b815260206004820152601f60248201527f54617267657420747970653a2054797065206e6f74207065726d6974746564006044820152606401610b60565b6000610e8888888888610a8e565b90506000610e988b8b8787611653565b90508215610f185760cb546040517f177f2fb5000000000000000000000000000000000000000000000000000000008152600481018490526001600160a01b039091169063177f2fb590602401600060405180830381600087803b158015610eff57600080fd5b505af1158015610f13573d6000803e3d6000fd5b505050505b610f24818387876121b6565b50506001603355505050505050505050565b600054610100900460ff16610f515760005460ff1615610f55565b303b155b610fc75760405162461bcd60e51b815260206004820152602e60248201527f496e697469616c697a61626c653a20636f6e747261637420697320616c72656160448201527f647920696e697469616c697a65640000000000000000000000000000000000006064820152608401610b60565b600054610100900460ff16158015610fe9576000805461ffff19166101011790555b60c980546001600160a01b038086166001600160a01b03199283161790925560ca805492851692909116919091179055600060cf5566038d7ea4c6800060d055601460cc55601e60cd55603260ce55801561104a576000805461ff00191690555b505050565b306001600160a01b037f00000000000000000000000000000000000000000000000000000000000000001614156110dd5760405162461bcd60e51b815260206004820152602c60248201527f46756e6374696f6e206d7573742062652063616c6c6564207468726f7567682060448201526b19195b1959d85d1958d85b1b60a21b6064820152608401610b60565b7f00000000000000000000000000000000000000000000000000000000000000006001600160a01b03166111387f360894a13ba1a3210667c828492db98dca3e2076cc3735a920a3ca505d382bbc546001600160a01b031690565b6001600160a01b0316146111a35760405162461bcd60e51b815260206004820152602c60248201527f46756e6374696f6e206d7573742062652063616c6c6564207468726f7567682060448201526b6163746976652070726f787960a01b6064820152608401610b60565b6111ac82611f26565b6111b882826001611ff2565b5050565b600089815260d5602052604081206111d5908a8a6127bd565b5060008a815260d5602052604090206111f29060010188886127bd565b5060008a815260d560205260409020600381018690556004810185905561121d9060050184846127bd565b506040518a81527f9d29e5045b411bb06d81d8ff11c828d9f1d7eb076eec9ca45eda49fc99f762b29060200160405180910390a15060019998505050505050505050565b60c9546001600160a01b03166324d7806c336040516001600160e01b031960e084901b1681526001600160a01b03909116600482015260240160206040518083038186803b1580156112b257600080fd5b505afa1580156112c6573d6000803e3d6000fd5b505050506040513d601f19601f820116820180604052508101906112ea9190612a61565b61132d5760405162461bcd60e51b815260206004820152601460248201527321b0b63632b91036bab9ba1031329030b236b4b760611b6044820152606401610b60565b8060d68484604051611340929190612e95565b908152604051908190036020018120805492151560ff19909316929092179091557f8b745398e43920dcdc5d72226ca14f10dde3949b422e25d7457ed4b897378ff29061139290859085908590612f10565b60405180910390a1505050565b60c9546001600160a01b03166324d7806c336040516001600160e01b031960e084901b1681526001600160a01b03909116600482015260240160206040518083038186803b1580156113f057600080fd5b505afa158015611404573d6000803e3d6000fd5b505050506040513d601f19601f820116820180604052508101906114289190612a61565b61146b5760405162461bcd60e51b815260206004820152601460248201527321b0b63632b91036bab9ba1031329030b236b4b760611b6044820152606401610b60565b6001600160a01b0381166114e75760405162461bcd60e51b815260206004820152602860248201527f4554532e757064617465416363657373436f6e74726f6c733a2043616e6e6f7460448201527f206265207a65726f0000000000000000000000000000000000000000000000006064820152608401610b60565b60c980546001600160a01b038381166001600160a01b031983168117909355604080519190921680825260208201939093527f31073599bfae2533a348dc816b0ce777b707aa9b67015ca2d86585e842b5c6e991015b60405180910390a15050565b60c9546001600160a01b03166324d7806c336040516001600160e01b031960e084901b1681526001600160a01b03909116600482015260240160206040518083038186803b15801561159a57600080fd5b505afa1580156115ae573d6000803e3d6000fd5b505050506040513d601f19601f820116820180604052508101906115d29190612a61565b6116155760405162461bcd60e51b815260206004820152601460248201527321b0b63632b91036bab9ba1031329030b236b4b760611b6044820152606401610b60565b60d080549082905560408051828152602081018490527f861fa8a0dab775faf9bcbb5388a02f7ac01181c036f5c57982464a2d75c3608e910161153d565b60ca546040517f04befefd00000000000000000000000000000000000000000000000000000000815260009182916001600160a01b03909116906304befefd906116a39089908990600401612ec7565b60206040518083038186803b1580156116bb57600080fd5b505afa1580156116cf573d6000803e3d6000fd5b505050506040513d601f19601f820116820180604052508101906116f39190612d0b565b90508061179e5760ca546040517f7e6d945e0000000000000000000000000000000000000000000000000000000081526001600160a01b0390911690637e6d945e90611749908990899089908990600401612edb565b602060405180830381600087803b15801561176357600080fd5b505af1158015611777573d6000803e3d6000fd5b505050506040513d601f19601f8201168201806040525081019061179b9190612d0b565b90505b95945050505050565b60c9546001600160a01b03166324d7806c336040516001600160e01b031960e084901b1681526001600160a01b03909116600482015260240160206040518083038186803b1580156117f857600080fd5b505afa15801561180c573d6000803e3d6000fd5b505050506040513d601f19601f820116820180604052508101906118309190612a61565b6118735760405162461bcd60e51b815260206004820152601460248201527321b0b63632b91036bab9ba1031329030b236b4b760611b6044820152606401610b60565b600082815260d36020908152604091829020805460ff19168415159081179091558251858152918201527f9a1b1e3722de574f6867ada1474b42b28458b0d93fc376664c96cb084b921181910161153d565b60c9546001600160a01b03166324d7806c336040516001600160e01b031960e084901b1681526001600160a01b03909116600482015260240160206040518083038186803b15801561191657600080fd5b505afa15801561192a573d6000803e3d6000fd5b505050506040513d601f19601f8201168201806040525081019061194e9190612a61565b6119915760405162461bcd60e51b815260206004820152601460248201527321b0b63632b91036bab9ba1031329030b236b4b760611b6044820152606401610b60565b6001600160a01b038116611a0d5760405162461bcd60e51b815260206004820152602360248201527f4554532e757064617465455453456e737572653a2043616e6e6f74206265207a60448201527f65726f00000000000000000000000000000000000000000000000000000000006064820152608401610b60565b60cb80546001600160a01b038381166001600160a01b031983168117909355604080519190921680825260208201939093527fee20190c374934660675d28472968e002fc4af227f2956f59085225ad89239fa910161153d565b60026033541415611aba5760405162461bcd60e51b815260206004820152601f60248201527f5265656e7472616e637947756172643a207265656e7472616e742063616c6c006044820152606401610b60565b60026033556001600160a01b038116600090815260d2602090815260408083205460d1909252822054611aec91611ed7565b9050600081118015611afe5750478111155b15611bb2576001600160a01b038216600090815260d26020526040902054611b269082612572565b6001600160a01b038316600081815260d26020526040808220939093559151909183156108fc02918491818181858888f19350505050158015611b6d573d6000803e3d6000fd5b50816001600160a01b03167feaff4b37086828766ad3268786972c0cd24259d4c87a80f9d3963a3c3d999b0d82604051611ba991815260200190565b60405180910390a25b50506001603355565b60c9546001600160a01b03166324d7806c336040516001600160e01b031960e084901b1681526001600160a01b03909116600482015260240160206040518083038186803b158015611c0c57600080fd5b505afa158015611c20573d6000803e3d6000fd5b505050506040513d601f19601f82011682018060405250810190611c449190612a61565b611c875760405162461bcd60e51b815260206004820152601460248201527321b0b63632b91036bab9ba1031329030b236b4b760611b6044820152606401610b60565b6064611c938383612572565b1115611d075760405162461bcd60e51b815260206004820152603760248201527f4554532e75706461746550657263656e74616765733a2070657263656e74616760448201527f6573206d757374206e6f74206265206f766572203130300000000000000000006064820152608401610b60565b60cc82905560cd819055611d2681611d20606485611ed7565b90611ed7565b60ce81905560cc5460cd546040805192835260208301919091528101919091527f78c1b0567e296aa5eef70ad2deee29f35e0dd128cac603be855ece3e823f43089060600161153d565b600080611d7f86868686611eea565b6040805160e06020601f8a01819004028201810190925260c081018881529293509182918990899081908501838280828437600092019190915250505090825250604080516020601f88018190048102820181019092528681529181019190879087908190840183828082843760009201829052509385525050426020808501919091526040808501849052606085018490528051808301825284815260809095019490945285835260d5815292909120835180519193611e4593508492910190612841565b506020828101518051611e5e9260018501920190612841565b5060408201516002820155606082015160038201556080820151600482015560a08201518051611e98916005840191602090910190612841565b50506040518281527f503a6e6145f2d2a2a9b0845c2193aef653400c52f93b1c897bd55d36a396be7c915060200160405180910390a195945050505050565b6000611ee38284612ffa565b9392505050565b60008085858585604051602001611f049493929190612ea5565b60408051808303601f1901815291905280516020909101209695505050505050565b60c9546001600160a01b03166324d7806c336040516001600160e01b031960e084901b1681526001600160a01b03909116600482015260240160206040518083038186803b158015611f7757600080fd5b505afa158015611f8b573d6000803e3d6000fd5b505050506040513d601f19601f82011682018060405250810190611faf9190612a61565b610c545760405162461bcd60e51b815260206004820152601460248201527321b0b63632b91036bab9ba1031329030b236b4b760611b6044820152606401610b60565b60006120257f360894a13ba1a3210667c828492db98dca3e2076cc3735a920a3ca505d382bbc546001600160a01b031690565b90506120308461257e565b60008351118061203d5750815b1561204e5761204c8484612633565b505b7f4910fdfa16fed3260ed0e7147f7cc6da11a60208b5b9406d12a635614ffd9143805460ff166121af57805460ff191660011781556040516001600160a01b03831660248201526120fb90869060440160408051601f198184030181529190526020810180517bffffffffffffffffffffffffffffffffffffffffffffffffffffffff167f3659cfe600000000000000000000000000000000000000000000000000000000179052612633565b50805460ff191681557f360894a13ba1a3210667c828492db98dca3e2076cc3735a920a3ca505d382bbc546001600160a01b038381169116146121a65760405162461bcd60e51b815260206004820152602f60248201527f45524331393637557067726164653a207570677261646520627265616b73206660448201527f75727468657220757067726164657300000000000000000000000000000000006064820152608401610b60565b6121af8561272c565b5050505050565b60cf546121c4906001612572565b60cf8190556040805160a08101825286815260208082018781526001600160a01b03808716848601908152888216606086019081524260808701908152600089815260d4909652878620965187559351600187015590516002860180549184166001600160a01b0319928316179055905160038601805491841691909216179055905160049384015560ca5493517f878327ab0000000000000000000000000000000000000000000000000000000081529193849391169163878327ab91612292918b910190815260200190565b604080518083038186803b1580156122a957600080fd5b505afa1580156122bd573d6000803e3d6000fd5b505050506040513d601f19601f820116820180604052508101906122e191906129c3565b91509150816001600160a01b0316816001600160a01b0316141561249b57612341612322606461231c60cc543461276c90919063ffffffff16565b90612778565b6001600160a01b038416600090815260d1602052604090205490612572565b6001600160a01b038316600090815260d1602052604090205560cd54612392906123739060649061231c90349061276c565b6001600160a01b038716600090815260d1602052604090205490612572565b6001600160a01b03868116600090815260d160205260408082209390935560ca5492517fa30b4db9000000000000000000000000000000000000000000000000000000008152600481018b905290929091169063a30b4db99060240160206040518083038186803b15801561240657600080fd5b505afa15801561241a573d6000803e3d6000fd5b505050506040513d601f19601f8201168201806040525081019061243e91906129a6565b905061247c61245d606461231c60ce543461276c90919063ffffffff16565b6001600160a01b038316600090815260d1602052604090205490612572565b6001600160a01b03909116600090815260d16020526040902055612536565b6124b8612322606461231c60cc543461276c90919063ffffffff16565b6001600160a01b038316600090815260d1602052604090205560cd546124ea906123739060649061231c90349061276c565b6001600160a01b038616600090815260d1602052604090205560ce5461251c9061245d9060649061231c90349061276c565b6001600160a01b038216600090815260d160205260409020555b6040518381527f81b185c481377e520177bddb63bab2a8d220831d7c07b748c2baf29c6e6070709060200160405180910390a150505050505050565b6000611ee38284612fa1565b803b6125f25760405162461bcd60e51b815260206004820152602d60248201527f455243313936373a206e657720696d706c656d656e746174696f6e206973206e60448201527f6f74206120636f6e7472616374000000000000000000000000000000000000006064820152608401610b60565b7f360894a13ba1a3210667c828492db98dca3e2076cc3735a920a3ca505d382bbc80546001600160a01b0319166001600160a01b0392909216919091179055565b6060823b6126a95760405162461bcd60e51b815260206004820152602660248201527f416464726573733a2064656c65676174652063616c6c20746f206e6f6e2d636f60448201527f6e747261637400000000000000000000000000000000000000000000000000006064820152608401610b60565b600080846001600160a01b0316846040516126c49190612e79565b600060405180830381855af49150503d80600081146126ff576040519150601f19603f3d011682016040523d82523d6000602084013e612704565b606091505b509150915061179e82826040518060600160405280602781526020016130cc60279139612784565b6127358161257e565b6040516001600160a01b038216907fbc7cd75a20ee27fd9adebab32041f755214dbc6bffa90cc0225b39da2e5c2d3b90600090a250565b6000611ee38284612fdb565b6000611ee38284612fb9565b60608315612793575081611ee3565b8251156127a35782518084602001fd5b8160405162461bcd60e51b8152600401610b609190612f36565b8280546127c990613041565b90600052602060002090601f0160209004810192826127eb5760008555612831565b82601f106128045782800160ff19823516178555612831565b82800160010185558215612831579182015b82811115612831578235825591602001919060010190612816565b5061283d9291506128b5565b5090565b82805461284d90613041565b90600052602060002090601f01602090048101928261286f5760008555612831565b82601f1061288857805160ff1916838001178555612831565b82800160010185558215612831579182015b8281111561283157825182559160200191906001019061289a565b5b8082111561283d57600081556001016128b6565b600067ffffffffffffffff808411156128e5576128e5613092565b604051601f8501601f19908116603f0116810190828211818310171561290d5761290d613092565b8160405280935085815286868601111561292657600080fd5b858560208301376000602087830101525050509392505050565b60008083601f84011261295257600080fd5b50813567ffffffffffffffff81111561296a57600080fd5b60208301915083602082850101111561298257600080fd5b9250929050565b60006020828403121561299b57600080fd5b8135611ee3816130a8565b6000602082840312156129b857600080fd5b8151611ee3816130a8565b600080604083850312156129d657600080fd5b82516129e1816130a8565b60208401519092506129f2816130a8565b809150509250929050565b60008060408385031215612a1057600080fd5b8235612a1b816130a8565b9150602083013567ffffffffffffffff811115612a3757600080fd5b8301601f81018513612a4857600080fd5b612a57858235602084016128ca565b9150509250929050565b600060208284031215612a7357600080fd5b8151611ee3816130bd565b60008060408385031215612a9157600080fd5b8235612a9c816130a8565b915060208301356129f2816130a8565b60008060008060608587031215612ac257600080fd5b843567ffffffffffffffff811115612ad957600080fd5b612ae587828801612940565b9095509350506020850135612af9816130a8565b91506040850135612b09816130a8565b939692955090935050565b600080600060408486031215612b2957600080fd5b833567ffffffffffffffff811115612b4057600080fd5b612b4c86828701612940565b9094509250506020840135612b60816130bd565b809150509250925092565b60008060008060408587031215612b8157600080fd5b843567ffffffffffffffff80821115612b9957600080fd5b612ba588838901612940565b90965094506020870135915080821115612bbe57600080fd5b50612bcb87828801612940565b95989497509550505050565b600080600080600080600080600060c08a8c031215612bf557600080fd5b893567ffffffffffffffff80821115612c0d57600080fd5b612c198d838e01612940565b909b50995060208c0135915080821115612c3257600080fd5b612c3e8d838e01612940565b909950975060408c0135915080821115612c5757600080fd5b50612c648c828d01612940565b90965094505060608a0135612c78816130a8565b925060808a0135612c88816130a8565b915060a08a0135612c98816130bd565b809150509295985092959850929598565b600060208284031215612cbb57600080fd5b813567ffffffffffffffff811115612cd257600080fd5b8201601f81018413612ce357600080fd5b610ace848235602084016128ca565b600060208284031215612d0457600080fd5b5035919050565b600060208284031215612d1d57600080fd5b5051919050565b60008060408385031215612d3757600080fd5b8235915060208301356129f2816130bd565b600080600080600080600080600060c08a8c031215612d6757600080fd5b8935985060208a013567ffffffffffffffff80821115612d8657600080fd5b612d928d838e01612940565b909a50985060408c0135915080821115612dab57600080fd5b612db78d838e01612940565b909850965060608c0135955060808c0135945060a08c0135915080821115612dde57600080fd5b50612deb8c828d01612940565b915080935050809150509295985092959850929598565b60008060408385031215612e1557600080fd5b50508035926020909101359150565b81835281816020850137506000828201602090810191909152601f909101601f19169091010190565b60008151808452612e65816020860160208601613011565b601f01601f19169290920160200192915050565b60008251612e8b818460208701613011565b9190910192915050565b8183823760009101908152919050565b8385823760008482016000815283858237600093019283525090949350505050565b602081526000610ace602083018486612e24565b606081526000612eef606083018688612e24565b6001600160a01b039485166020840152929093166040909101529392505050565b604081526000612f24604083018587612e24565b90508215156020830152949350505050565b602081526000611ee36020830184612e4d565b60c081526000612f5c60c0830189612e4d565b8281036020840152612f6e8189612e4d565b905086604084015285606084015284608084015282810360a0840152612f948185612e4d565b9998505050505050505050565b60008219821115612fb457612fb461307c565b500190565b600082612fd657634e487b7160e01b600052601260045260246000fd5b500490565b6000816000190483118215151615612ff557612ff561307c565b500290565b60008282101561300c5761300c61307c565b500390565b60005b8381101561302c578181015183820152602001613014565b8381111561303b576000848401525b50505050565b600181811c9082168061305557607f821691505b6020821081141561307657634e487b7160e01b600052602260045260246000fd5b50919050565b634e487b7160e01b600052601160045260246000fd5b634e487b7160e01b600052604160045260246000fd5b6001600160a01b0381168114610c5457600080fd5b8015158114610c5457600080fdfe416464726573733a206c6f772d6c6576656c2064656c65676174652063616c6c206661696c6564a2646970667358221220b8e1b0f873b8c8f80241564e54a11607ff62d3c5fb39b2720d657c1ed3b2492564736f6c63430008070033",
  "linkReferences": {},
  "deployedLinkReferences": {}
}