{
  "_format": "hh-sol-artifact-1",
  "contractName": "ETSUpgrade",
  "sourceName": "contracts/utils/UUPS/UUPSTesting.sol",
  "abi": [
    {
      "anonymous": false,
      "inputs": [
        {
          "indexed": false,
          "internalType": "contract ETSAccessControls",
          "name": "previousAccessControls",
          "type": "address"
        },
        {
          "indexed": false,
          "internalType": "contract ETSAccessControls",
          "name": "newAccessControls",
          "type": "address"
        }
      ],
      "name": "AccessControlsUpdated",
      "type": "event"
    },
    {
      "anonymous": false,
      "inputs": [
        {
          "indexed": false,
          "internalType": "address",
          "name": "previousAdmin",
          "type": "address"
        },
        {
          "indexed": false,
          "internalType": "address",
          "name": "newAdmin",
          "type": "address"
        }
      ],
      "name": "AdminChanged",
      "type": "event"
    },
    {
      "anonymous": false,
      "inputs": [
        {
          "indexed": true,
          "internalType": "address",
          "name": "beacon",
          "type": "address"
        }
      ],
      "name": "BeaconUpgraded",
      "type": "event"
    },
    {
      "anonymous": false,
      "inputs": [
        {
          "indexed": false,
          "internalType": "contract ETSEnsure",
          "name": "previousETSEnsure",
          "type": "address"
        },
        {
          "indexed": false,
          "internalType": "contract ETSEnsure",
          "name": "newETSEnsure",
          "type": "address"
        }
      ],
      "name": "ETSEnsureUpdated",
      "type": "event"
    },
    {
      "anonymous": false,
      "inputs": [
        {
          "indexed": true,
          "internalType": "address",
          "name": "who",
          "type": "address"
        },
        {
          "indexed": false,
          "internalType": "uint256",
          "name": "amount",
          "type": "uint256"
        }
      ],
      "name": "FundsWithdrawn",
      "type": "event"
    },
    {
      "anonymous": false,
      "inputs": [
        {
          "indexed": false,
          "internalType": "uint256",
          "name": "platformPercentage",
          "type": "uint256"
        },
        {
          "indexed": false,
          "internalType": "uint256",
          "name": "publisherPercentage",
          "type": "uint256"
        },
        {
          "indexed": false,
          "internalType": "uint256",
          "name": "remainingPercentage",
          "type": "uint256"
        }
      ],
      "name": "PercentagesSet",
      "type": "event"
    },
    {
      "anonymous": false,
      "inputs": [
        {
          "indexed": false,
          "internalType": "uint256",
          "name": "nftChainId",
          "type": "uint256"
        },
        {
          "indexed": false,
          "internalType": "bool",
          "name": "setting",
          "type": "bool"
        }
      ],
      "name": "PermittedNftChainIdSet",
      "type": "event"
    },
    {
      "anonymous": false,
      "inputs": [
        {
          "indexed": false,
          "internalType": "uint256",
          "name": "targetId",
          "type": "uint256"
        }
      ],
      "name": "RequestEnsureTarget",
      "type": "event"
    },
    {
      "anonymous": false,
      "inputs": [
        {
          "indexed": false,
          "internalType": "uint256",
          "name": "previousFee",
          "type": "uint256"
        },
        {
          "indexed": false,
          "internalType": "uint256",
          "name": "taggingFee",
          "type": "uint256"
        }
      ],
      "name": "TaggingFeeSet",
      "type": "event"
    },
    {
      "anonymous": false,
      "inputs": [
        {
          "indexed": false,
          "internalType": "uint256",
          "name": "targetId",
          "type": "uint256"
        }
      ],
      "name": "TargetCreated",
      "type": "event"
    },
    {
      "anonymous": false,
      "inputs": [
        {
          "indexed": false,
          "internalType": "uint256",
          "name": "taggingId",
          "type": "uint256"
        }
      ],
      "name": "TargetTagged",
      "type": "event"
    },
    {
      "anonymous": false,
      "inputs": [
        {
          "indexed": false,
          "internalType": "string",
          "name": "typeName",
          "type": "string"
        },
        {
          "indexed": false,
          "internalType": "bool",
          "name": "setting",
          "type": "bool"
        }
      ],
      "name": "TargetTypeSet",
      "type": "event"
    },
    {
      "anonymous": false,
      "inputs": [
        {
          "indexed": false,
          "internalType": "uint256",
          "name": "targetId",
          "type": "uint256"
        }
      ],
      "name": "TargetUpdated",
      "type": "event"
    },
    {
      "anonymous": false,
      "inputs": [
        {
          "indexed": true,
          "internalType": "address",
          "name": "implementation",
          "type": "address"
        }
      ],
      "name": "Upgraded",
      "type": "event"
    },
    {
      "inputs": [],
      "name": "NAME",
      "outputs": [
        {
          "internalType": "string",
          "name": "",
          "type": "string"
        }
      ],
      "stateMutability": "view",
      "type": "function"
    },
    {
      "inputs": [],
      "name": "VERSION",
      "outputs": [
        {
          "internalType": "string",
          "name": "",
          "type": "string"
        }
      ],
      "stateMutability": "view",
      "type": "function"
    },
    {
      "inputs": [],
      "name": "accessControls",
      "outputs": [
        {
          "internalType": "contract ETSAccessControls",
          "name": "",
          "type": "address"
        }
      ],
      "stateMutability": "view",
      "type": "function"
    },
    {
      "inputs": [
        {
          "internalType": "address",
          "name": "",
          "type": "address"
        }
      ],
      "name": "accrued",
      "outputs": [
        {
          "internalType": "uint256",
          "name": "",
          "type": "uint256"
        }
      ],
      "stateMutability": "view",
      "type": "function"
    },
    {
      "inputs": [
        {
          "internalType": "string",
          "name": "_targetType",
          "type": "string"
        },
        {
          "internalType": "string",
          "name": "_targetURI",
          "type": "string"
        }
      ],
      "name": "createTarget",
      "outputs": [
        {
          "internalType": "uint256",
          "name": "targetId",
          "type": "uint256"
        }
      ],
      "stateMutability": "nonpayable",
      "type": "function"
    },
    {
      "inputs": [
        {
          "internalType": "address payable",
          "name": "_account",
          "type": "address"
        }
      ],
      "name": "drawDown",
      "outputs": [],
      "stateMutability": "nonpayable",
      "type": "function"
    },
    {
      "inputs": [],
      "name": "etsEnsure",
      "outputs": [
        {
          "internalType": "contract ETSEnsure",
          "name": "",
          "type": "address"
        }
      ],
      "stateMutability": "view",
      "type": "function"
    },
    {
      "inputs": [],
      "name": "etsTag",
      "outputs": [
        {
          "internalType": "contract ETSTag",
          "name": "",
          "type": "address"
        }
      ],
      "stateMutability": "view",
      "type": "function"
    },
    {
      "inputs": [
        {
          "internalType": "uint256",
          "name": "_nftChainId",
          "type": "uint256"
        }
      ],
      "name": "getPermittedNftChainId",
      "outputs": [
        {
          "internalType": "bool",
          "name": "",
          "type": "bool"
        }
      ],
      "stateMutability": "view",
      "type": "function"
    },
    {
      "inputs": [
        {
          "internalType": "string",
          "name": "_tagString",
          "type": "string"
        },
        {
          "internalType": "address payable",
          "name": "_publisher",
          "type": "address"
        },
        {
          "internalType": "address",
          "name": "_tagger",
          "type": "address"
        }
      ],
      "name": "getTagId",
      "outputs": [
        {
          "internalType": "uint256",
          "name": "etstagId",
          "type": "uint256"
        }
      ],
      "stateMutability": "payable",
      "type": "function"
    },
    {
      "inputs": [
        {
          "internalType": "uint256",
          "name": "_taggingId",
          "type": "uint256"
        }
      ],
      "name": "getTaggingRecord",
      "outputs": [
        {
          "internalType": "uint256",
          "name": "_etsTagId",
          "type": "uint256"
        },
        {
          "internalType": "uint256",
          "name": "_targetId",
          "type": "uint256"
        },
        {
          "internalType": "address",
          "name": "_tagger",
          "type": "address"
        },
        {
          "internalType": "address",
          "name": "_publisher",
          "type": "address"
        },
        {
          "internalType": "uint256",
          "name": "_timestamp",
          "type": "uint256"
        }
      ],
      "stateMutability": "view",
      "type": "function"
    },
    {
      "inputs": [
        {
          "internalType": "string",
          "name": "_targetType",
          "type": "string"
        },
        {
          "internalType": "string",
          "name": "_targetURI",
          "type": "string"
        }
      ],
      "name": "getTargetId",
      "outputs": [
        {
          "internalType": "uint256",
          "name": "targetId",
          "type": "uint256"
        }
      ],
      "stateMutability": "nonpayable",
      "type": "function"
    },
    {
      "inputs": [
        {
          "internalType": "contract ETSAccessControls",
          "name": "_accessControls",
          "type": "address"
        },
        {
          "internalType": "contract ETSTag",
          "name": "_etsTag",
          "type": "address"
        }
      ],
      "name": "initialize",
      "outputs": [],
      "stateMutability": "nonpayable",
      "type": "function"
    },
    {
      "inputs": [],
      "name": "modulo",
      "outputs": [
        {
          "internalType": "uint256",
          "name": "",
          "type": "uint256"
        }
      ],
      "stateMutability": "view",
      "type": "function"
    },
    {
      "inputs": [
        {
          "internalType": "address",
          "name": "",
          "type": "address"
        }
      ],
      "name": "paid",
      "outputs": [
        {
          "internalType": "uint256",
          "name": "",
          "type": "uint256"
        }
      ],
      "stateMutability": "view",
      "type": "function"
    },
    {
      "inputs": [
        {
          "internalType": "uint256",
          "name": "",
          "type": "uint256"
        }
      ],
      "name": "permittedNftChainIds",
      "outputs": [
        {
          "internalType": "bool",
          "name": "",
          "type": "bool"
        }
      ],
      "stateMutability": "view",
      "type": "function"
    },
    {
      "inputs": [],
      "name": "platformPercentage",
      "outputs": [
        {
          "internalType": "uint256",
          "name": "",
          "type": "uint256"
        }
      ],
      "stateMutability": "view",
      "type": "function"
    },
    {
      "inputs": [],
      "name": "publisherPercentage",
      "outputs": [
        {
          "internalType": "uint256",
          "name": "",
          "type": "uint256"
        }
      ],
      "stateMutability": "view",
      "type": "function"
    },
    {
      "inputs": [],
      "name": "remainingPercentage",
      "outputs": [
        {
          "internalType": "uint256",
          "name": "",
          "type": "uint256"
        }
      ],
      "stateMutability": "view",
      "type": "function"
    },
    {
      "inputs": [
        {
          "internalType": "uint256",
          "name": "_nftChainId",
          "type": "uint256"
        },
        {
          "internalType": "bool",
          "name": "_setting",
          "type": "bool"
        }
      ],
      "name": "setPermittedNftChainId",
      "outputs": [],
      "stateMutability": "nonpayable",
      "type": "function"
    },
    {
      "inputs": [
        {
          "internalType": "uint256",
          "name": "_fee",
          "type": "uint256"
        }
      ],
      "name": "setTaggingFee",
      "outputs": [],
      "stateMutability": "nonpayable",
      "type": "function"
    },
    {
      "inputs": [
        {
          "internalType": "string",
          "name": "_tagString",
          "type": "string"
        },
        {
          "internalType": "string",
          "name": "_targetURI",
          "type": "string"
        },
        {
          "internalType": "address payable",
          "name": "_publisher",
          "type": "address"
        },
        {
          "internalType": "address",
          "name": "_tagger",
          "type": "address"
        },
        {
          "internalType": "bool",
          "name": "_ensure",
          "type": "bool"
        }
      ],
      "name": "tagTarget",
      "outputs": [],
      "stateMutability": "payable",
      "type": "function"
    },
    {
      "inputs": [],
      "name": "taggingCounter",
      "outputs": [
        {
          "internalType": "uint256",
          "name": "",
          "type": "uint256"
        }
      ],
      "stateMutability": "view",
      "type": "function"
    },
    {
      "inputs": [],
      "name": "taggingFee",
      "outputs": [
        {
          "internalType": "uint256",
          "name": "",
          "type": "uint256"
        }
      ],
      "stateMutability": "view",
      "type": "function"
    },
    {
      "inputs": [
        {
          "internalType": "uint256",
          "name": "",
          "type": "uint256"
        }
      ],
      "name": "taggingRecords",
      "outputs": [
        {
          "internalType": "uint256",
          "name": "etsTagId",
          "type": "uint256"
        },
        {
          "internalType": "uint256",
          "name": "targetId",
          "type": "uint256"
        },
        {
          "internalType": "address",
          "name": "tagger",
          "type": "address"
        },
        {
          "internalType": "address",
          "name": "publisher",
          "type": "address"
        },
        {
          "internalType": "uint256",
          "name": "timestamp",
          "type": "uint256"
        }
      ],
      "stateMutability": "view",
      "type": "function"
    },
    {
      "inputs": [
        {
          "internalType": "uint256",
          "name": "targetId",
          "type": "uint256"
        }
      ],
      "name": "targetExists",
      "outputs": [
        {
          "internalType": "bool",
          "name": "",
          "type": "bool"
        }
      ],
      "stateMutability": "view",
      "type": "function"
    },
    {
      "inputs": [
        {
          "internalType": "uint256",
          "name": "",
          "type": "uint256"
        }
      ],
      "name": "targets",
      "outputs": [
        {
          "internalType": "string",
          "name": "targetType",
          "type": "string"
        },
        {
          "internalType": "string",
          "name": "targetURI",
          "type": "string"
        },
        {
          "internalType": "uint256",
          "name": "created",
          "type": "uint256"
        },
        {
          "internalType": "uint256",
          "name": "lastEnsured",
          "type": "uint256"
        },
        {
          "internalType": "uint256",
          "name": "status",
          "type": "uint256"
        },
        {
          "internalType": "string",
          "name": "ipfsHash",
          "type": "string"
        }
      ],
      "stateMutability": "view",
      "type": "function"
    },
    {
      "inputs": [
        {
          "internalType": "address",
          "name": "_account",
          "type": "address"
        }
      ],
      "name": "totalDue",
      "outputs": [
        {
          "internalType": "uint256",
          "name": "_due",
          "type": "uint256"
        }
      ],
      "stateMutability": "view",
      "type": "function"
    },
    {
      "inputs": [
        {
          "internalType": "contract ETSAccessControls",
          "name": "_accessControls",
          "type": "address"
        }
      ],
      "name": "updateAccessControls",
      "outputs": [],
      "stateMutability": "nonpayable",
      "type": "function"
    },
    {
      "inputs": [
        {
          "internalType": "contract ETSEnsure",
          "name": "_etsEnsure",
          "type": "address"
        }
      ],
      "name": "updateETSEnsure",
      "outputs": [],
      "stateMutability": "nonpayable",
      "type": "function"
    },
    {
      "inputs": [
        {
          "internalType": "uint256",
          "name": "_platformPercentage",
          "type": "uint256"
        },
        {
          "internalType": "uint256",
          "name": "_publisherPercentage",
          "type": "uint256"
        }
      ],
      "name": "updatePercentages",
      "outputs": [],
      "stateMutability": "nonpayable",
      "type": "function"
    },
    {
      "inputs": [
        {
          "internalType": "uint256",
          "name": "_targetId",
          "type": "uint256"
        },
        {
          "internalType": "string",
          "name": "_targetType",
          "type": "string"
        },
        {
          "internalType": "string",
          "name": "_targetURI",
          "type": "string"
        },
        {
          "internalType": "uint256",
          "name": "_lastEnsured",
          "type": "uint256"
        },
        {
          "internalType": "uint256",
          "name": "_status",
          "type": "uint256"
        },
        {
          "internalType": "string",
          "name": "_ipfsHash",
          "type": "string"
        }
      ],
      "name": "updateTarget",
      "outputs": [
        {
          "internalType": "bool",
          "name": "success",
          "type": "bool"
        }
      ],
      "stateMutability": "nonpayable",
      "type": "function"
    },
    {
      "inputs": [],
      "name": "upgradeTest",
      "outputs": [
        {
          "internalType": "bool",
          "name": "",
          "type": "bool"
        }
      ],
      "stateMutability": "pure",
      "type": "function"
    },
    {
      "inputs": [
        {
          "internalType": "address",
          "name": "newImplementation",
          "type": "address"
        }
      ],
      "name": "upgradeTo",
      "outputs": [],
      "stateMutability": "nonpayable",
      "type": "function"
    },
    {
      "inputs": [
        {
          "internalType": "address",
          "name": "newImplementation",
          "type": "address"
        },
        {
          "internalType": "bytes",
          "name": "data",
          "type": "bytes"
        }
      ],
      "name": "upgradeToAndCall",
      "outputs": [],
      "stateMutability": "payable",
      "type": "function"
    },
    {
      "inputs": [],
      "name": "version",
      "outputs": [
        {
          "internalType": "string",
          "name": "",
          "type": "string"
        }
      ],
      "stateMutability": "pure",
      "type": "function"
    }
  ],
  "bytecode": "0x60a06040523060601b60805234801561001757600080fd5b5060805160601c61302661004b60003960008181610a4e01528181610ad801528181610ce80152610d6d01526130266000f3fe60806040526004361061024f5760003560e01c8063748365ef11610138578063b3e74f4f116100b0578063e16ee5a31161007f578063f8bc3cc611610064578063f8bc3cc614610777578063fe52656f14610797578063ffa1ad74146107ad57600080fd5b8063e16ee5a314610741578063e88b772c1461076157600080fd5b8063b3e74f4f146106ce578063b7d0e7dd146106e1578063c206200514610701578063c20d22951461072157600080fd5b8063a3f4df7e11610107578063a97dda40116100ec578063a97dda4014610661578063b148440f14610681578063b205f808146106ae57600080fd5b8063a3f4df7e14610605578063a76237f61461064e57600080fd5b8063748365ef1461056a5780637e2e4c52146105a2578063962ed232146105b8578063a340cf79146105d857600080fd5b80633659cfe6116101cb578063501a323a1161019a57806354fd4d501161017f57806354fd4d50146104bc5780636ef3da94146104f357806374716c811461051357600080fd5b8063501a323a14610413578063507f3ba11461049c57600080fd5b80633659cfe6146103aa5780633d20b15c146103cc578063485cc955146103e05780634f1ef2861461040057600080fd5b80631797df5911610222578063200e06af11610207578063200e06af1461034f578063297452621461037f578063337ccf9d1461039457600080fd5b80631797df59146103095780631f7418971461033957600080fd5b80630477fe28146102545780630a39ce02146102895780630ad2f0c3146102bb578063146da5c4146102e9575b600080fd5b34801561026057600080fd5b5061027461026f366004612ba4565b6107de565b60405190151581526020015b60405180910390f35b34801561029557600080fd5b506102a96102a4366004612ba4565b610804565b60405161028096959493929190612dd3565b3480156102c757600080fd5b506102db6102d6366004612882565b6109d0565b604051908152602001610280565b3480156102f557600080fd5b506102db610304366004612b24565b6109fe565b34801561031557600080fd5b50610274610324366004612ba4565b600090815260d3602052604090205460ff1690565b34801561034557600080fd5b506102db60cc5481565b34801561035b57600080fd5b5061027461036a366004612ba4565b60d36020526000908152604090205460ff1681565b34801561038b57600080fd5b506102db606481565b3480156103a057600080fd5b506102db60ce5481565b3480156103b657600080fd5b506103ca6103c5366004612882565b610a43565b005b3480156103d857600080fd5b506001610274565b3480156103ec57600080fd5b506103ca6103fb366004612977565b610bc4565b6103ca61040e3660046128f6565b610cdd565b34801561041f57600080fd5b5061046861042e366004612ba4565b600090815260d4602052604090208054600182015460028301546003840154600490940154929491936001600160a01b0391821693911691565b6040805195865260208601949094526001600160a01b0392831693850193909352166060830152608082015260a001610280565b3480156104a857600080fd5b506102746104b7366004612bfb565b610e4a565b3480156104c857600080fd5b50604080518082019091526005815264302e302e3160d81b60208201525b6040516102809190612dc0565b3480156104ff57600080fd5b506103ca61050e366004612882565b610eef565b34801561051f57600080fd5b5061046861052e366004612ba4565b60d46020526000908152604090208054600182015460028301546003840154600490940154929391926001600160a01b03918216929091169085565b34801561057657600080fd5b5060c95461058a906001600160a01b031681565b6040516001600160a01b039091168152602001610280565b3480156105ae57600080fd5b506102db60cd5481565b3480156105c457600080fd5b506103ca6105d3366004612ba4565b611099565b3480156105e457600080fd5b506102db6105f3366004612882565b60d26020526000908152604090205481565b34801561061157600080fd5b506104e66040518060400160405280600881526020017f45545320436f726500000000000000000000000000000000000000000000000081525081565b6102db61065c3660046129a5565b6111a3565b34801561066d57600080fd5b506103ca61067c366004612bd6565b6112f7565b34801561068d57600080fd5b506102db61069c366004612882565b60d16020526000908152604090205481565b3480156106ba57600080fd5b506103ca6106c9366004612882565b611415565b6103ca6106dc366004612a0d565b6115b7565b3480156106ed57600080fd5b5060cb5461058a906001600160a01b031681565b34801561070d57600080fd5b506103ca61071c366004612882565b61199b565b34801561072d57600080fd5b506103ca61073c366004612cb4565b611af1565b34801561074d57600080fd5b506102db61075c366004612b24565b611ca7565b34801561076d57600080fd5b506102db60cf5481565b34801561078357600080fd5b5060ca5461058a906001600160a01b031681565b3480156107a357600080fd5b506102db60d05481565b3480156107b957600080fd5b506104e660405180604001604052806005815260200164302e302e3160d81b81525081565b600081815260d560205260408120600201546107fb5760006107fe565b60015b92915050565b60d56020526000908152604090208054819061081f90612f24565b80601f016020809104026020016040519081016040528092919081815260200182805461084b90612f24565b80156108985780601f1061086d57610100808354040283529160200191610898565b820191906000526020600020905b81548152906001019060200180831161087b57829003601f168201915b5050505050908060010180546108ad90612f24565b80601f01602080910402602001604051908101604052809291908181526020018280546108d990612f24565b80156109265780601f106108fb57610100808354040283529160200191610926565b820191906000526020600020905b81548152906001019060200180831161090957829003601f168201915b50505050509080600201549080600301549080600401549080600501805461094d90612f24565b80601f016020809104026020016040519081016040528092919081815260200182805461097990612f24565b80156109c65780601f1061099b576101008083540402835291602001916109c6565b820191906000526020600020905b8154815290600101906020018083116109a957829003601f168201915b5050505050905086565b6001600160a01b038116600090815260d2602090815260408083205460d19092528220546107fe9190612edd565b600080610a0c858585611ddc565b600081815260d5602052604090206002015490915015610a2d579050610a3c565b610a38858585611ca7565b9150505b9392505050565b306001600160a01b037f0000000000000000000000000000000000000000000000000000000000000000161415610ad65760405162461bcd60e51b815260206004820152602c60248201527f46756e6374696f6e206d7573742062652063616c6c6564207468726f7567682060448201526b19195b1959d85d1958d85b1b60a21b60648201526084015b60405180910390fd5b7f00000000000000000000000000000000000000000000000000000000000000006001600160a01b0316610b317f360894a13ba1a3210667c828492db98dca3e2076cc3735a920a3ca505d382bbc546001600160a01b031690565b6001600160a01b031614610b9c5760405162461bcd60e51b815260206004820152602c60248201527f46756e6374696f6e206d7573742062652063616c6c6564207468726f7567682060448201526b6163746976652070726f787960a01b6064820152608401610acd565b610ba581611e15565b60408051600080825260208201909252610bc191839190611ee1565b50565b600054610100900460ff16610bdf5760005460ff1615610be3565b303b155b610c555760405162461bcd60e51b815260206004820152602e60248201527f496e697469616c697a61626c653a20636f6e747261637420697320616c72656160448201527f647920696e697469616c697a65640000000000000000000000000000000000006064820152608401610acd565b600054610100900460ff16158015610c77576000805461ffff19166101011790555b60c980546001600160a01b038086166001600160a01b03199283161790925560ca805492851692909116919091179055600060cf5566038d7ea4c6800060d055601460cc55601e60cd55603260ce558015610cd8576000805461ff00191690555b505050565b306001600160a01b037f0000000000000000000000000000000000000000000000000000000000000000161415610d6b5760405162461bcd60e51b815260206004820152602c60248201527f46756e6374696f6e206d7573742062652063616c6c6564207468726f7567682060448201526b19195b1959d85d1958d85b1b60a21b6064820152608401610acd565b7f00000000000000000000000000000000000000000000000000000000000000006001600160a01b0316610dc67f360894a13ba1a3210667c828492db98dca3e2076cc3735a920a3ca505d382bbc546001600160a01b031690565b6001600160a01b031614610e315760405162461bcd60e51b815260206004820152602c60248201527f46756e6374696f6e206d7573742062652063616c6c6564207468726f7567682060448201526b6163746976652070726f787960a01b6064820152608401610acd565b610e3a82611e15565b610e4682826001611ee1565b5050565b600089815260d560205260408120610e63908a8a6126ee565b5060008a815260d560205260409020610e809060010188886126ee565b5060008a815260d5602052604090206003810186905560048101859055610eab9060050184846126ee565b506040518a81527f9d29e5045b411bb06d81d8ff11c828d9f1d7eb076eec9ca45eda49fc99f762b29060200160405180910390a15060019998505050505050505050565b60c9546001600160a01b03166324d7806c336040516001600160e01b031960e084901b1681526001600160a01b03909116600482015260240160206040518083038186803b158015610f4057600080fd5b505afa158015610f54573d6000803e3d6000fd5b505050506040513d601f19601f82011682018060405250810190610f78919061295a565b610fbb5760405162461bcd60e51b815260206004820152601460248201527321b0b63632b91036bab9ba1031329030b236b4b760611b6044820152606401610acd565b6001600160a01b0381166110375760405162461bcd60e51b815260206004820152602860248201527f4554532e757064617465416363657373436f6e74726f6c733a2043616e6e6f7460448201527f206265207a65726f0000000000000000000000000000000000000000000000006064820152608401610acd565b60c980546001600160a01b038381166001600160a01b031983168117909355604080519190921680825260208201939093527f31073599bfae2533a348dc816b0ce777b707aa9b67015ca2d86585e842b5c6e991015b60405180910390a15050565b60c9546001600160a01b03166324d7806c336040516001600160e01b031960e084901b1681526001600160a01b03909116600482015260240160206040518083038186803b1580156110ea57600080fd5b505afa1580156110fe573d6000803e3d6000fd5b505050506040513d601f19601f82011682018060405250810190611122919061295a565b6111655760405162461bcd60e51b815260206004820152601460248201527321b0b63632b91036bab9ba1031329030b236b4b760611b6044820152606401610acd565b60d080549082905560408051828152602081018490527f861fa8a0dab775faf9bcbb5388a02f7ac01181c036f5c57982464a2d75c3608e910161108d565b60ca546040517f04befefd00000000000000000000000000000000000000000000000000000000815260009182916001600160a01b03909116906304befefd906111f39089908990600401612d6f565b60206040518083038186803b15801561120b57600080fd5b505afa15801561121f573d6000803e3d6000fd5b505050506040513d601f19601f820116820180604052508101906112439190612bbd565b9050806112ee5760ca546040517f7e6d945e0000000000000000000000000000000000000000000000000000000081526001600160a01b0390911690637e6d945e90611299908990899089908990600401612d8b565b602060405180830381600087803b1580156112b357600080fd5b505af11580156112c7573d6000803e3d6000fd5b505050506040513d601f19601f820116820180604052508101906112eb9190612bbd565b90505b95945050505050565b60c9546001600160a01b03166324d7806c336040516001600160e01b031960e084901b1681526001600160a01b03909116600482015260240160206040518083038186803b15801561134857600080fd5b505afa15801561135c573d6000803e3d6000fd5b505050506040513d601f19601f82011682018060405250810190611380919061295a565b6113c35760405162461bcd60e51b815260206004820152601460248201527321b0b63632b91036bab9ba1031329030b236b4b760611b6044820152606401610acd565b600082815260d36020908152604091829020805460ff19168415159081179091558251858152918201527f9a1b1e3722de574f6867ada1474b42b28458b0d93fc376664c96cb084b921181910161108d565b60c9546001600160a01b03166324d7806c336040516001600160e01b031960e084901b1681526001600160a01b03909116600482015260240160206040518083038186803b15801561146657600080fd5b505afa15801561147a573d6000803e3d6000fd5b505050506040513d601f19601f8201168201806040525081019061149e919061295a565b6114e15760405162461bcd60e51b815260206004820152601460248201527321b0b63632b91036bab9ba1031329030b236b4b760611b6044820152606401610acd565b6001600160a01b03811661155d5760405162461bcd60e51b815260206004820152602360248201527f4554532e757064617465455453456e737572653a2043616e6e6f74206265207a60448201527f65726f00000000000000000000000000000000000000000000000000000000006064820152608401610acd565b60cb80546001600160a01b038381166001600160a01b031983168117909355604080519190921680825260208201939093527fee20190c374934660675d28472968e002fc4af227f2956f59085225ad89239fa910161108d565b6002603354141561160a5760405162461bcd60e51b815260206004820152601f60248201527f5265656e7472616e637947756172643a207265656e7472616e742063616c6c006044820152606401610acd565b600260335560c9546040517f2b04fd440000000000000000000000000000000000000000000000000000000081523360048201526001600160a01b0390911690632b04fd449060240160206040518083038186803b15801561166b57600080fd5b505afa15801561167f573d6000803e3d6000fd5b505050506040513d601f19601f820116820180604052508101906116a3919061295a565b6116ef5760405162461bcd60e51b815260206004820152601060248201527f4f6e6c79207461726765742074797065000000000000000000000000000000006044820152606401610acd565b60c9546040517f41859ac80000000000000000000000000000000000000000000000000000000081526001600160a01b038581166004830152909116906341859ac89060240160206040518083038186803b15801561174d57600080fd5b505afa158015611761573d6000803e3d6000fd5b505050506040513d601f19601f82011682018060405250810190611785919061295a565b6117f75760405162461bcd60e51b815260206004820152602660248201527f5461673a20546865207075626c6973686572206d75737420626520776869746560448201527f6c697374656400000000000000000000000000000000000000000000000000006064820152608401610acd565b60d0543410156118495760405162461bcd60e51b815260206004820152601a60248201527f5461673a20596f75206d7573742073656e6420746865206665650000000000006044820152606401610acd565b60c9546040517fa88ae5b60000000000000000000000000000000000000000000000000000000081523360048201526000916118ef916001600160a01b039091169063a88ae5b69060240160006040518083038186803b1580156118ac57600080fd5b505afa1580156118c0573d6000803e3d6000fd5b505050506040513d6000823e601f3d908101601f191682016040526118e89190810190612ab6565b87876109fe565b905060006118ff898987876111a3565b9050821561197f5760cb546040517f177f2fb5000000000000000000000000000000000000000000000000000000008152600481018490526001600160a01b039091169063177f2fb590602401600060405180830381600087803b15801561196657600080fd5b505af115801561197a573d6000803e3d6000fd5b505050505b61198b818387876120a5565b5050600160335550505050505050565b600260335414156119ee5760405162461bcd60e51b815260206004820152601f60248201527f5265656e7472616e637947756172643a207265656e7472616e742063616c6c006044820152606401610acd565b60026033556001600160a01b038116600090815260d2602090815260408083205460d1909252822054611a219190612edd565b9050600081118015611a335750478111155b15611ae8576001600160a01b038216600090815260d26020526040902054611a5c908290612e84565b6001600160a01b038316600081815260d26020526040808220939093559151909183156108fc02918491818181858888f19350505050158015611aa3573d6000803e3d6000fd5b50816001600160a01b03167feaff4b37086828766ad3268786972c0cd24259d4c87a80f9d3963a3c3d999b0d82604051611adf91815260200190565b60405180910390a25b50506001603355565b60c9546001600160a01b03166324d7806c336040516001600160e01b031960e084901b1681526001600160a01b03909116600482015260240160206040518083038186803b158015611b4257600080fd5b505afa158015611b56573d6000803e3d6000fd5b505050506040513d601f19601f82011682018060405250810190611b7a919061295a565b611bbd5760405162461bcd60e51b815260206004820152601460248201527321b0b63632b91036bab9ba1031329030b236b4b760611b6044820152606401610acd565b6064611bc98284612e84565b1115611c3d5760405162461bcd60e51b815260206004820152603760248201527f4554532e75706461746550657263656e74616765733a2070657263656e74616760448201527f6573206d757374206e6f74206265206f766572203130300000000000000000006064820152608401610acd565b60cc82905560cd81905580611c53836064612edd565b611c5d9190612edd565b60ce81905560cc5460cd546040805192835260208301919091528101919091527f78c1b0567e296aa5eef70ad2deee29f35e0dd128cac603be855ece3e823f43089060600161108d565b600080611cb5858585611ddc565b90506040518060c0016040528086815260200185858080601f01602080910402602001604051908101604052809392919081815260200183838082843760009201829052509385525050426020808501919091526040808501849052606085018490528051808301825284815260809095019490945285835260d5815292909120835180519193611d4b93508492910190612772565b506020828101518051611d649260018501920190612772565b5060408201516002820155606082015160038201556080820151600482015560a08201518051611d9e916005840191602090910190612772565b50506040518281527f503a6e6145f2d2a2a9b0845c2193aef653400c52f93b1c897bd55d36a396be7c915060200160405180910390a1949350505050565b600080848484604051602001611df493929190612d47565b60408051808303601f19018152919052805160209091012095945050505050565b60c9546001600160a01b03166324d7806c336040516001600160e01b031960e084901b1681526001600160a01b03909116600482015260240160206040518083038186803b158015611e6657600080fd5b505afa158015611e7a573d6000803e3d6000fd5b505050506040513d601f19601f82011682018060405250810190611e9e919061295a565b610bc15760405162461bcd60e51b815260206004820152601460248201527321b0b63632b91036bab9ba1031329030b236b4b760611b6044820152606401610acd565b6000611f147f360894a13ba1a3210667c828492db98dca3e2076cc3735a920a3ca505d382bbc546001600160a01b031690565b9050611f1f846124c7565b600083511180611f2c5750815b15611f3d57611f3b848461257c565b505b7f4910fdfa16fed3260ed0e7147f7cc6da11a60208b5b9406d12a635614ffd9143805460ff1661209e57805460ff191660011781556040516001600160a01b0383166024820152611fea90869060440160408051601f198184030181529190526020810180517bffffffffffffffffffffffffffffffffffffffffffffffffffffffff167f3659cfe60000000000000000000000000000000000000000000000000000000017905261257c565b50805460ff191681557f360894a13ba1a3210667c828492db98dca3e2076cc3735a920a3ca505d382bbc546001600160a01b038381169116146120955760405162461bcd60e51b815260206004820152602f60248201527f45524331393637557067726164653a207570677261646520627265616b73206660448201527f75727468657220757067726164657300000000000000000000000000000000006064820152608401610acd565b61209e85612675565b5050505050565b600060cf600081546120b690612f5f565b91829055506040805160a08101825287815260208082018881526001600160a01b03878116848601908152898216606086019081524260808701908152600089815260d4909652878620965187559351600187015590516002860180549184166001600160a01b0319928316179055905160038601805491841691909216179055905160049384015560ca5493517f878327ab0000000000000000000000000000000000000000000000000000000081529283018a9052939450928392169063878327ab90602401604080518083038186803b15801561219557600080fd5b505afa1580156121a9573d6000803e3d6000fd5b505050506040513d601f19601f820116820180604052508101906121cd91906128bc565b91509150816001600160a01b0316816001600160a01b0316141561238857606460cc54346121fb9190612ebe565b6122059190612e9c565b6001600160a01b038316600090815260d160205260409020546122289190612e84565b6001600160a01b038316600090815260d1602052604090205560cd546064906122519034612ebe565b61225b9190612e9c565b6001600160a01b038616600090815260d1602052604090205461227e9190612e84565b6001600160a01b03868116600090815260d160205260408082209390935560ca5492517fa30b4db9000000000000000000000000000000000000000000000000000000008152600481018b905290929091169063a30b4db99060240160206040518083038186803b1580156122f257600080fd5b505afa158015612306573d6000803e3d6000fd5b505050506040513d601f19601f8201168201806040525081019061232a919061289f565b9050606460ce543461233c9190612ebe565b6123469190612e9c565b6001600160a01b038216600090815260d160205260409020546123699190612e84565b6001600160a01b03909116600090815260d1602052604090205561248b565b606460cc54346123989190612ebe565b6123a29190612e9c565b6001600160a01b038316600090815260d160205260409020546123c59190612e84565b6001600160a01b038316600090815260d1602052604090205560cd546064906123ee9034612ebe565b6123f89190612e9c565b6001600160a01b038616600090815260d1602052604090205461241b9190612e84565b6001600160a01b038616600090815260d1602052604090205560ce546064906124449034612ebe565b61244e9190612e9c565b6001600160a01b038216600090815260d160205260409020546124719190612e84565b6001600160a01b038216600090815260d160205260409020555b6040518381527f81b185c481377e520177bddb63bab2a8d220831d7c07b748c2baf29c6e6070709060200160405180910390a150505050505050565b803b61253b5760405162461bcd60e51b815260206004820152602d60248201527f455243313936373a206e657720696d706c656d656e746174696f6e206973206e60448201527f6f74206120636f6e7472616374000000000000000000000000000000000000006064820152608401610acd565b7f360894a13ba1a3210667c828492db98dca3e2076cc3735a920a3ca505d382bbc80546001600160a01b0319166001600160a01b0392909216919091179055565b6060823b6125f25760405162461bcd60e51b815260206004820152602660248201527f416464726573733a2064656c65676174652063616c6c20746f206e6f6e2d636f60448201527f6e747261637400000000000000000000000000000000000000000000000000006064820152608401610acd565b600080846001600160a01b03168460405161260d9190612d2b565b600060405180830381855af49150503d8060008114612648576040519150601f19603f3d011682016040523d82523d6000602084013e61264d565b606091505b50915091506112ee8282604051806060016040528060278152602001612fca602791396126b5565b61267e816124c7565b6040516001600160a01b038216907fbc7cd75a20ee27fd9adebab32041f755214dbc6bffa90cc0225b39da2e5c2d3b90600090a250565b606083156126c4575081610a3c565b8251156126d45782518084602001fd5b8160405162461bcd60e51b8152600401610acd9190612dc0565b8280546126fa90612f24565b90600052602060002090601f01602090048101928261271c5760008555612762565b82601f106127355782800160ff19823516178555612762565b82800160010185558215612762579182015b82811115612762578235825591602001919060010190612747565b5061276e9291506127e6565b5090565b82805461277e90612f24565b90600052602060002090601f0160209004810192826127a05760008555612762565b82601f106127b957805160ff1916838001178555612762565b82800160010185558215612762579182015b828111156127625782518255916020019190600101906127cb565b5b8082111561276e57600081556001016127e7565b600061280e61280984612e5c565b612e2b565b905082815283838301111561282257600080fd5b828260208301376000602084830101529392505050565b60008083601f84011261284b57600080fd5b50813567ffffffffffffffff81111561286357600080fd5b60208301915083602082850101111561287b57600080fd5b9250929050565b60006020828403121561289457600080fd5b8135610a3c81612fa6565b6000602082840312156128b157600080fd5b8151610a3c81612fa6565b600080604083850312156128cf57600080fd5b82516128da81612fa6565b60208401519092506128eb81612fa6565b809150509250929050565b6000806040838503121561290957600080fd5b823561291481612fa6565b9150602083013567ffffffffffffffff81111561293057600080fd5b8301601f8101851361294157600080fd5b612950858235602084016127fb565b9150509250929050565b60006020828403121561296c57600080fd5b8151610a3c81612fbb565b6000806040838503121561298a57600080fd5b823561299581612fa6565b915060208301356128eb81612fa6565b600080600080606085870312156129bb57600080fd5b843567ffffffffffffffff8111156129d257600080fd5b6129de87828801612839565b90955093505060208501356129f281612fa6565b91506040850135612a0281612fa6565b939692955090935050565b600080600080600080600060a0888a031215612a2857600080fd5b873567ffffffffffffffff80821115612a4057600080fd5b612a4c8b838c01612839565b909950975060208a0135915080821115612a6557600080fd5b50612a728a828b01612839565b9096509450506040880135612a8681612fa6565b92506060880135612a9681612fa6565b91506080880135612aa681612fbb565b8091505092959891949750929550565b600060208284031215612ac857600080fd5b815167ffffffffffffffff811115612adf57600080fd5b8201601f81018413612af057600080fd5b8051612afe61280982612e5c565b818152856020838501011115612b1357600080fd5b6112ee826020830160208601612ef4565b600080600060408486031215612b3957600080fd5b833567ffffffffffffffff80821115612b5157600080fd5b818601915086601f830112612b6557600080fd5b612b74878335602085016127fb565b94506020860135915080821115612b8a57600080fd5b50612b9786828701612839565b9497909650939450505050565b600060208284031215612bb657600080fd5b5035919050565b600060208284031215612bcf57600080fd5b5051919050565b60008060408385031215612be957600080fd5b8235915060208301356128eb81612fbb565b600080600080600080600080600060c08a8c031215612c1957600080fd5b8935985060208a013567ffffffffffffffff80821115612c3857600080fd5b612c448d838e01612839565b909a50985060408c0135915080821115612c5d57600080fd5b612c698d838e01612839565b909850965060608c0135955060808c0135945060a08c0135915080821115612c9057600080fd5b50612c9d8c828d01612839565b915080935050809150509295985092959850929598565b60008060408385031215612cc757600080fd5b50508035926020909101359150565b81835281816020850137506000828201602090810191909152601f909101601f19169091010190565b60008151808452612d17816020860160208601612ef4565b601f01601f19169290920160200192915050565b60008251612d3d818460208701612ef4565b9190910192915050565b60008451612d59818460208901612ef4565b8201838582376000930192835250909392505050565b602081526000612d83602083018486612cd6565b949350505050565b606081526000612d9f606083018688612cd6565b6001600160a01b039485166020840152929093166040909101529392505050565b602081526000610a3c6020830184612cff565b60c081526000612de660c0830189612cff565b8281036020840152612df88189612cff565b905086604084015285606084015284608084015282810360a0840152612e1e8185612cff565b9998505050505050505050565b604051601f8201601f1916810167ffffffffffffffff81118282101715612e5457612e54612f90565b604052919050565b600067ffffffffffffffff821115612e7657612e76612f90565b50601f01601f191660200190565b60008219821115612e9757612e97612f7a565b500190565b600082612eb957634e487b7160e01b600052601260045260246000fd5b500490565b6000816000190483118215151615612ed857612ed8612f7a565b500290565b600082821015612eef57612eef612f7a565b500390565b60005b83811015612f0f578181015183820152602001612ef7565b83811115612f1e576000848401525b50505050565b600181811c90821680612f3857607f821691505b60208210811415612f5957634e487b7160e01b600052602260045260246000fd5b50919050565b6000600019821415612f7357612f73612f7a565b5060010190565b634e487b7160e01b600052601160045260246000fd5b634e487b7160e01b600052604160045260246000fd5b6001600160a01b0381168114610bc157600080fd5b8015158114610bc157600080fdfe416464726573733a206c6f772d6c6576656c2064656c65676174652063616c6c206661696c6564a2646970667358221220f0137d42e40a22e010e4c847bf04e50bd7405aa42c614d04848b1d38a0718aa264736f6c63430008070033",
  "linkReferences": {},
  "deployedLinkReferences": {}
}