{
  "_format": "hh-sol-artifact-1",
  "contractName": "ETSUpgrade",
  "sourceName": "contracts/utils/UUPS/UUPSTesting.sol",
  "abi": [
    {
      "anonymous": false,
      "inputs": [
        {
          "indexed": false,
          "internalType": "address",
          "name": "previousAccessControls",
          "type": "address"
        },
        {
          "indexed": false,
          "internalType": "address",
          "name": "newAccessControls",
          "type": "address"
        }
      ],
      "name": "AccessControlsUpdated",
      "type": "event"
    },
    {
      "anonymous": false,
      "inputs": [
        {
          "indexed": false,
          "internalType": "address",
          "name": "previousAdmin",
          "type": "address"
        },
        {
          "indexed": false,
          "internalType": "address",
          "name": "newAdmin",
          "type": "address"
        }
      ],
      "name": "AdminChanged",
      "type": "event"
    },
    {
      "anonymous": false,
      "inputs": [
        {
          "indexed": true,
          "internalType": "address",
          "name": "beacon",
          "type": "address"
        }
      ],
      "name": "BeaconUpgraded",
      "type": "event"
    },
    {
      "anonymous": false,
      "inputs": [
        {
          "indexed": false,
          "internalType": "address",
          "name": "previousETSEnsure",
          "type": "address"
        },
        {
          "indexed": false,
          "internalType": "address",
          "name": "newETSEnsure",
          "type": "address"
        }
      ],
      "name": "ETSEnsureUpdated",
      "type": "event"
    },
    {
      "anonymous": false,
      "inputs": [
        {
          "indexed": true,
          "internalType": "address",
          "name": "who",
          "type": "address"
        },
        {
          "indexed": false,
          "internalType": "uint256",
          "name": "amount",
          "type": "uint256"
        }
      ],
      "name": "FundsWithdrawn",
      "type": "event"
    },
    {
      "anonymous": false,
      "inputs": [
        {
          "indexed": false,
          "internalType": "uint256",
          "name": "platformPercentage",
          "type": "uint256"
        },
        {
          "indexed": false,
          "internalType": "uint256",
          "name": "publisherPercentage",
          "type": "uint256"
        },
        {
          "indexed": false,
          "internalType": "uint256",
          "name": "remainingPercentage",
          "type": "uint256"
        }
      ],
      "name": "PercentagesSet",
      "type": "event"
    },
    {
      "anonymous": false,
      "inputs": [
        {
          "indexed": false,
          "internalType": "uint256",
          "name": "targetId",
          "type": "uint256"
        }
      ],
      "name": "RequestEnsureTarget",
      "type": "event"
    },
    {
      "anonymous": false,
      "inputs": [
        {
          "indexed": false,
          "internalType": "uint256",
          "name": "previousFee",
          "type": "uint256"
        },
        {
          "indexed": false,
          "internalType": "uint256",
          "name": "taggingFee",
          "type": "uint256"
        }
      ],
      "name": "TaggingFeeSet",
      "type": "event"
    },
    {
      "anonymous": false,
      "inputs": [
        {
          "indexed": false,
          "internalType": "uint256",
          "name": "targetId",
          "type": "uint256"
        }
      ],
      "name": "TargetCreated",
      "type": "event"
    },
    {
      "anonymous": false,
      "inputs": [
        {
          "indexed": false,
          "internalType": "uint256",
          "name": "taggingId",
          "type": "uint256"
        }
      ],
      "name": "TargetTagged",
      "type": "event"
    },
    {
      "anonymous": false,
      "inputs": [
        {
          "indexed": false,
          "internalType": "string",
          "name": "typeName",
          "type": "string"
        },
        {
          "indexed": false,
          "internalType": "bool",
          "name": "setting",
          "type": "bool"
        }
      ],
      "name": "TargetTypeSet",
      "type": "event"
    },
    {
      "anonymous": false,
      "inputs": [
        {
          "indexed": false,
          "internalType": "uint256",
          "name": "targetId",
          "type": "uint256"
        }
      ],
      "name": "TargetUpdated",
      "type": "event"
    },
    {
      "anonymous": false,
      "inputs": [
        {
          "indexed": true,
          "internalType": "address",
          "name": "implementation",
          "type": "address"
        }
      ],
      "name": "Upgraded",
      "type": "event"
    },
    {
      "inputs": [],
      "name": "NAME",
      "outputs": [
        {
          "internalType": "string",
          "name": "",
          "type": "string"
        }
      ],
      "stateMutability": "view",
      "type": "function"
    },
    {
      "inputs": [],
      "name": "VERSION",
      "outputs": [
        {
          "internalType": "string",
          "name": "",
          "type": "string"
        }
      ],
      "stateMutability": "view",
      "type": "function"
    },
    {
      "inputs": [],
      "name": "accessControls",
      "outputs": [
        {
          "internalType": "contract ETSAccessControls",
          "name": "",
          "type": "address"
        }
      ],
      "stateMutability": "view",
      "type": "function"
    },
    {
      "inputs": [
        {
          "internalType": "address",
          "name": "",
          "type": "address"
        }
      ],
      "name": "accrued",
      "outputs": [
        {
          "internalType": "uint256",
          "name": "",
          "type": "uint256"
        }
      ],
      "stateMutability": "view",
      "type": "function"
    },
    {
      "inputs": [
        {
          "internalType": "uint256",
          "name": "_targetId",
          "type": "uint256"
        },
        {
          "internalType": "address",
          "name": "_publisher",
          "type": "address"
        },
        {
          "internalType": "address",
          "name": "_tagger",
          "type": "address"
        },
        {
          "internalType": "address",
          "name": "_sponsor",
          "type": "address"
        }
      ],
      "name": "computeTaggingRecordId",
      "outputs": [
        {
          "internalType": "uint256",
          "name": "taggingRecordId",
          "type": "uint256"
        }
      ],
      "stateMutability": "pure",
      "type": "function"
    },
    {
      "inputs": [
        {
          "internalType": "string",
          "name": "_targetType",
          "type": "string"
        },
        {
          "internalType": "string",
          "name": "_targetURI",
          "type": "string"
        }
      ],
      "name": "computeTargetId",
      "outputs": [
        {
          "internalType": "uint256",
          "name": "targetId",
          "type": "uint256"
        }
      ],
      "stateMutability": "pure",
      "type": "function"
    },
    {
      "inputs": [
        {
          "internalType": "address payable",
          "name": "_account",
          "type": "address"
        }
      ],
      "name": "drawDown",
      "outputs": [],
      "stateMutability": "nonpayable",
      "type": "function"
    },
    {
      "inputs": [],
      "name": "etsEnsure",
      "outputs": [
        {
          "internalType": "contract ETSEnsure",
          "name": "",
          "type": "address"
        }
      ],
      "stateMutability": "view",
      "type": "function"
    },
    {
      "inputs": [],
      "name": "etsTag",
      "outputs": [
        {
          "internalType": "contract ETSTag",
          "name": "",
          "type": "address"
        }
      ],
      "stateMutability": "view",
      "type": "function"
    },
    {
      "inputs": [
        {
          "internalType": "string",
          "name": "_tagString",
          "type": "string"
        },
        {
          "internalType": "address payable",
          "name": "_publisher",
          "type": "address"
        },
        {
          "internalType": "address",
          "name": "_tagger",
          "type": "address"
        }
      ],
      "name": "getOrCreateTag",
      "outputs": [
        {
          "internalType": "uint256",
          "name": "tagId",
          "type": "uint256"
        }
      ],
      "stateMutability": "payable",
      "type": "function"
    },
    {
      "inputs": [
        {
          "internalType": "uint256",
          "name": "_targetId",
          "type": "uint256"
        },
        {
          "internalType": "address",
          "name": "_tagger",
          "type": "address"
        },
        {
          "internalType": "address",
          "name": "_publisher",
          "type": "address"
        },
        {
          "internalType": "address",
          "name": "_sponsor",
          "type": "address"
        }
      ],
      "name": "getTaggingRecord",
      "outputs": [
        {
          "internalType": "uint256[]",
          "name": "etsTagIds",
          "type": "uint256[]"
        },
        {
          "internalType": "uint256",
          "name": "targetId",
          "type": "uint256"
        },
        {
          "internalType": "address",
          "name": "tagger",
          "type": "address"
        },
        {
          "internalType": "address",
          "name": "publisher",
          "type": "address"
        },
        {
          "internalType": "address",
          "name": "sponsor",
          "type": "address"
        }
      ],
      "stateMutability": "view",
      "type": "function"
    },
    {
      "inputs": [
        {
          "internalType": "uint256",
          "name": "_taggingId",
          "type": "uint256"
        }
      ],
      "name": "getTaggingRecordFromId",
      "outputs": [
        {
          "internalType": "uint256[]",
          "name": "etsTagIds",
          "type": "uint256[]"
        },
        {
          "internalType": "uint256",
          "name": "targetId",
          "type": "uint256"
        },
        {
          "internalType": "address",
          "name": "tagger",
          "type": "address"
        },
        {
          "internalType": "address",
          "name": "publisher",
          "type": "address"
        },
        {
          "internalType": "address",
          "name": "sponsor",
          "type": "address"
        }
      ],
      "stateMutability": "view",
      "type": "function"
    },
    {
      "inputs": [
        {
          "internalType": "contract ETSAccessControls",
          "name": "_accessControls",
          "type": "address"
        },
        {
          "internalType": "contract ETSTag",
          "name": "_etsTag",
          "type": "address"
        }
      ],
      "name": "initialize",
      "outputs": [],
      "stateMutability": "nonpayable",
      "type": "function"
    },
    {
      "inputs": [
        {
          "internalType": "uint256",
          "name": "_targetId",
          "type": "uint256"
        }
      ],
      "name": "isTargetEnsured",
      "outputs": [
        {
          "internalType": "bool",
          "name": "",
          "type": "bool"
        }
      ],
      "stateMutability": "view",
      "type": "function"
    },
    {
      "inputs": [],
      "name": "modulo",
      "outputs": [
        {
          "internalType": "uint256",
          "name": "",
          "type": "uint256"
        }
      ],
      "stateMutability": "view",
      "type": "function"
    },
    {
      "inputs": [
        {
          "internalType": "address",
          "name": "",
          "type": "address"
        }
      ],
      "name": "paid",
      "outputs": [
        {
          "internalType": "uint256",
          "name": "",
          "type": "uint256"
        }
      ],
      "stateMutability": "view",
      "type": "function"
    },
    {
      "inputs": [],
      "name": "platformPercentage",
      "outputs": [
        {
          "internalType": "uint256",
          "name": "",
          "type": "uint256"
        }
      ],
      "stateMutability": "view",
      "type": "function"
    },
    {
      "inputs": [],
      "name": "publisherPercentage",
      "outputs": [
        {
          "internalType": "uint256",
          "name": "",
          "type": "uint256"
        }
      ],
      "stateMutability": "view",
      "type": "function"
    },
    {
      "inputs": [],
      "name": "remainingPercentage",
      "outputs": [
        {
          "internalType": "uint256",
          "name": "",
          "type": "uint256"
        }
      ],
      "stateMutability": "view",
      "type": "function"
    },
    {
      "inputs": [
        {
          "internalType": "string[]",
          "name": "_tags",
          "type": "string[]"
        },
        {
          "internalType": "string",
          "name": "_targetURI",
          "type": "string"
        },
        {
          "internalType": "address payable",
          "name": "_publisher",
          "type": "address"
        },
        {
          "internalType": "address",
          "name": "_tagger",
          "type": "address"
        },
        {
          "internalType": "address",
          "name": "_sponsor",
          "type": "address"
        },
        {
          "internalType": "bool",
          "name": "_ensure",
          "type": "bool"
        }
      ],
      "name": "tagTarget",
      "outputs": [],
      "stateMutability": "payable",
      "type": "function"
    },
    {
      "inputs": [],
      "name": "taggingCounter",
      "outputs": [
        {
          "internalType": "uint256",
          "name": "",
          "type": "uint256"
        }
      ],
      "stateMutability": "view",
      "type": "function"
    },
    {
      "inputs": [],
      "name": "taggingFee",
      "outputs": [
        {
          "internalType": "uint256",
          "name": "",
          "type": "uint256"
        }
      ],
      "stateMutability": "view",
      "type": "function"
    },
    {
      "inputs": [
        {
          "internalType": "uint256",
          "name": "",
          "type": "uint256"
        }
      ],
      "name": "taggingRecords",
      "outputs": [
        {
          "internalType": "uint256",
          "name": "targetId",
          "type": "uint256"
        },
        {
          "internalType": "address",
          "name": "tagger",
          "type": "address"
        },
        {
          "internalType": "address",
          "name": "publisher",
          "type": "address"
        },
        {
          "internalType": "address",
          "name": "sponsor",
          "type": "address"
        }
      ],
      "stateMutability": "view",
      "type": "function"
    },
    {
      "inputs": [
        {
          "internalType": "uint256",
          "name": "_targetId",
          "type": "uint256"
        }
      ],
      "name": "targetExists",
      "outputs": [
        {
          "internalType": "bool",
          "name": "",
          "type": "bool"
        }
      ],
      "stateMutability": "view",
      "type": "function"
    },
    {
      "inputs": [
        {
          "internalType": "string",
          "name": "_targetType",
          "type": "string"
        },
        {
          "internalType": "string",
          "name": "_targetURI",
          "type": "string"
        }
      ],
      "name": "targetExists",
      "outputs": [
        {
          "internalType": "bool",
          "name": "",
          "type": "bool"
        }
      ],
      "stateMutability": "view",
      "type": "function"
    },
    {
      "inputs": [
        {
          "internalType": "uint256",
          "name": "",
          "type": "uint256"
        }
      ],
      "name": "targets",
      "outputs": [
        {
          "internalType": "string",
          "name": "targetType",
          "type": "string"
        },
        {
          "internalType": "string",
          "name": "targetURI",
          "type": "string"
        },
        {
          "internalType": "uint256",
          "name": "created",
          "type": "uint256"
        },
        {
          "internalType": "uint256",
          "name": "lastEnsured",
          "type": "uint256"
        },
        {
          "internalType": "uint256",
          "name": "status",
          "type": "uint256"
        },
        {
          "internalType": "string",
          "name": "ipfsHash",
          "type": "string"
        }
      ],
      "stateMutability": "view",
      "type": "function"
    },
    {
      "inputs": [
        {
          "internalType": "address",
          "name": "_account",
          "type": "address"
        }
      ],
      "name": "totalDue",
      "outputs": [
        {
          "internalType": "uint256",
          "name": "_due",
          "type": "uint256"
        }
      ],
      "stateMutability": "view",
      "type": "function"
    },
    {
      "inputs": [
        {
          "internalType": "contract ETSAccessControls",
          "name": "_accessControls",
          "type": "address"
        }
      ],
      "name": "updateAccessControls",
      "outputs": [],
      "stateMutability": "nonpayable",
      "type": "function"
    },
    {
      "inputs": [
        {
          "internalType": "contract ETSEnsure",
          "name": "_etsEnsure",
          "type": "address"
        }
      ],
      "name": "updateETSEnsure",
      "outputs": [],
      "stateMutability": "nonpayable",
      "type": "function"
    },
    {
      "inputs": [
        {
          "internalType": "uint256",
          "name": "_platformPercentage",
          "type": "uint256"
        },
        {
          "internalType": "uint256",
          "name": "_publisherPercentage",
          "type": "uint256"
        }
      ],
      "name": "updatePercentages",
      "outputs": [],
      "stateMutability": "nonpayable",
      "type": "function"
    },
    {
      "inputs": [
        {
          "internalType": "uint256",
          "name": "_fee",
          "type": "uint256"
        }
      ],
      "name": "updateTaggingFee",
      "outputs": [],
      "stateMutability": "nonpayable",
      "type": "function"
    },
    {
      "inputs": [
        {
          "internalType": "uint256",
          "name": "_taggingRecordId",
          "type": "uint256"
        },
        {
          "internalType": "uint256[]",
          "name": "_tagIds",
          "type": "uint256[]"
        }
      ],
      "name": "updateTaggingRecord",
      "outputs": [],
      "stateMutability": "payable",
      "type": "function"
    },
    {
      "inputs": [
        {
          "internalType": "uint256",
          "name": "_targetId",
          "type": "uint256"
        },
        {
          "internalType": "string",
          "name": "_targetType",
          "type": "string"
        },
        {
          "internalType": "string",
          "name": "_targetURI",
          "type": "string"
        },
        {
          "internalType": "uint256",
          "name": "_lastEnsured",
          "type": "uint256"
        },
        {
          "internalType": "uint256",
          "name": "_status",
          "type": "uint256"
        },
        {
          "internalType": "string",
          "name": "_ipfsHash",
          "type": "string"
        }
      ],
      "name": "updateTarget",
      "outputs": [
        {
          "internalType": "bool",
          "name": "success",
          "type": "bool"
        }
      ],
      "stateMutability": "nonpayable",
      "type": "function"
    },
    {
      "inputs": [],
      "name": "upgradeTest",
      "outputs": [
        {
          "internalType": "bool",
          "name": "",
          "type": "bool"
        }
      ],
      "stateMutability": "pure",
      "type": "function"
    },
    {
      "inputs": [
        {
          "internalType": "address",
          "name": "newImplementation",
          "type": "address"
        }
      ],
      "name": "upgradeTo",
      "outputs": [],
      "stateMutability": "nonpayable",
      "type": "function"
    },
    {
      "inputs": [
        {
          "internalType": "address",
          "name": "newImplementation",
          "type": "address"
        },
        {
          "internalType": "bytes",
          "name": "data",
          "type": "bytes"
        }
      ],
      "name": "upgradeToAndCall",
      "outputs": [],
      "stateMutability": "payable",
      "type": "function"
    },
    {
      "inputs": [],
      "name": "version",
      "outputs": [
        {
          "internalType": "string",
          "name": "",
          "type": "string"
        }
      ],
      "stateMutability": "pure",
      "type": "function"
    }
  ],
  "bytecode": "0x60a06040523060805234801561001457600080fd5b5060805161367061004560003960008181610c7e01528181610d080152818161101b01526110a001526136706000f3fe60806040526004361061026a5760003560e01c80636ef3da9411610153578063b7d0e7dd116100cb578063d80a861f1161007f578063f8bc3cc611610064578063f8bc3cc6146107bf578063fe52656f146107df578063ffa1ad74146107f557600080fd5b8063d80a861f14610796578063e88b772c146107a957600080fd5b8063c20d2295116100b0578063c20d229514610731578063ce0e0eed14610751578063d64f55c91461078357600080fd5b8063b7d0e7dd146106f1578063c20620051461071157600080fd5b8063817a1fbd11610122578063a3f4df7e11610107578063a3f4df7e1461065b578063b148440f146106a4578063b205f808146106d157600080fd5b8063817a1fbd1461060e578063a340cf791461062e57600080fd5b80636ef3da941461051d57806374716c811461053d578063748365ef146105c05780637e2e4c52146105f857600080fd5b80633d20b15c116101e6578063507f3ba1116101b55780635dffa7fe1161019a5780635dffa7fe1461046d57806360c1cade1461048d57806368fd4dee146104fd57600080fd5b8063507f3ba11461041657806354fd4d501461043657600080fd5b80633d20b15c146103af578063485cc955146103c35780634967b35f146103e35780634f1ef2861461040357600080fd5b80630ad2f0c31161023d57806329745262116102225780632974526214610362578063337ccf9d146103775780633659cfe61461038d57600080fd5b80630ad2f0c31461032c5780631f7418971461034c57600080fd5b80630438837c1461026f5780630477fe28146102a957806307348e26146102d95780630a39ce02146102fa575b600080fd5b34801561027b57600080fd5b5061028f61028a366004612cd8565b610826565b6040516102a0959493929190612d2b565b60405180910390f35b3480156102b557600080fd5b506102c96102c4366004612d95565b61091d565b60405190151581526020016102a0565b6102ec6102e7366004612df7565b610943565b6040519081526020016102a0565b34801561030657600080fd5b5061031a610315366004612d95565b610a79565b6040516102a096959493929190612eac565b34801561033857600080fd5b506102ec610347366004612f04565b610c45565b34801561035857600080fd5b506102ec60cc5481565b34801561036e57600080fd5b506102ec606481565b34801561038357600080fd5b506102ec60ce5481565b34801561039957600080fd5b506103ad6103a8366004612f04565b610c73565b005b3480156103bb57600080fd5b5060016102c9565b3480156103cf57600080fd5b506103ad6103de366004612f21565b610df4565b3480156103ef57600080fd5b506103ad6103fe366004612d95565b610f0d565b6103ad610411366004613007565b611010565b34801561042257600080fd5b506102c961043136600461306b565b61117d565b34801561044257600080fd5b50604080518082019091526005815264302e302e3160d81b60208201525b6040516102a09190613124565b34801561047957600080fd5b506102ec610488366004613157565b61127f565b34801561049957600080fd5b506102ec6104a8366004612cd8565b604080516020808201969096526bffffffffffffffffffffffff19606094851b81168284015294841b851660548201529190921b90921660688301528051808303605c018152607c9092019052805191012090565b34801561050957600080fd5b5061028f610518366004612d95565b6112b5565b34801561052957600080fd5b506103ad610538366004612f04565b61135b565b34801561054957600080fd5b50610591610558366004612d95565b60d360205260009081526040902060018101546002820154600383015460049093015491926001600160a01b0391821692908216911684565b604080519485526001600160a01b039384166020860152918316918401919091521660608201526080016102a0565b3480156105cc57600080fd5b5060c9546105e0906001600160a01b031681565b6040516001600160a01b0390911681526020016102a0565b34801561060457600080fd5b506102ec60cd5481565b34801561061a57600080fd5b506102c9610629366004613157565b6114ee565b34801561063a57600080fd5b506102ec610649366004612f04565b60d26020526000908152604090205481565b34801561066757600080fd5b506104606040518060400160405280600881526020017f45545320436f726500000000000000000000000000000000000000000000000081525081565b3480156106b057600080fd5b506102ec6106bf366004612f04565b60d16020526000908152604090205481565b3480156106dd57600080fd5b506103ad6106ec366004612f04565b611526565b3480156106fd57600080fd5b5060cb546105e0906001600160a01b031681565b34801561071d57600080fd5b506103ad61072c366004612f04565b6116b9565b34801561073d57600080fd5b506103ad61074c3660046131b1565b61180f565b34801561075d57600080fd5b506102c961076c366004612d95565b600090815260d46020526040902060030154151590565b6103ad610791366004613226565b6119b6565b6103ad6107a43660046132e1565b611e95565b3480156107b557600080fd5b506102ec60cf5481565b3480156107cb57600080fd5b5060ca546105e0906001600160a01b031681565b3480156107eb57600080fd5b506102ec60d05481565b34801561080157600080fd5b5061046060405180604001604052806005815260200164302e302e3160d81b81525081565b6040805160208082018790526bffffffffffffffffffffffff19606086811b82168486015287811b8216605485015285811b90911660688401528351808403605c018152607c8401808652815191840191909120600081815260d3855286812060018101546002820154600383015460048401548454609c9a81028c018b01909c528b8852979a94998a998a998a99969788976001600160a01b039687169695861695909216939192889201828280156108ff57602002820191906000526020600020905b8154815260200190600101908083116108eb575b50505050509450965096509650965096505050945094509450945094565b600081815260d4602052604081206002015461093a57600061093d565b60015b92915050565b60ca546040517ff143fc6100000000000000000000000000000000000000000000000000000000815260009182916001600160a01b039091169063f143fc61906109939089908990600401613356565b602060405180830381865afa1580156109b0573d6000803e3d6000fd5b505050506040513d601f19601f820116820180604052508101906109d4919061336a565b905080610a705760ca546040517f7e6d945e0000000000000000000000000000000000000000000000000000000081526001600160a01b0390911690637e6d945e90610a2a908990899089908990600401613383565b6020604051808303816000875af1158015610a49573d6000803e3d6000fd5b505050506040513d601f19601f82011682018060405250810190610a6d919061336a565b90505b95945050505050565b60d460205260009081526040902080548190610a94906133b8565b80601f0160208091040260200160405190810160405280929190818152602001828054610ac0906133b8565b8015610b0d5780601f10610ae257610100808354040283529160200191610b0d565b820191906000526020600020905b815481529060010190602001808311610af057829003601f168201915b505050505090806001018054610b22906133b8565b80601f0160208091040260200160405190810160405280929190818152602001828054610b4e906133b8565b8015610b9b5780601f10610b7057610100808354040283529160200191610b9b565b820191906000526020600020905b815481529060010190602001808311610b7e57829003601f168201915b505050505090806002015490806003015490806004015490806005018054610bc2906133b8565b80601f0160208091040260200160405190810160405280929190818152602001828054610bee906133b8565b8015610c3b5780601f10610c1057610100808354040283529160200191610c3b565b820191906000526020600020905b815481529060010190602001808311610c1e57829003601f168201915b5050505050905086565b6001600160a01b038116600090815260d2602090815260408083205460d190925282205461093d9190613409565b306001600160a01b037f0000000000000000000000000000000000000000000000000000000000000000161415610d065760405162461bcd60e51b815260206004820152602c60248201527f46756e6374696f6e206d7573742062652063616c6c6564207468726f7567682060448201526b19195b1959d85d1958d85b1b60a21b60648201526084015b60405180910390fd5b7f00000000000000000000000000000000000000000000000000000000000000006001600160a01b0316610d617f360894a13ba1a3210667c828492db98dca3e2076cc3735a920a3ca505d382bbc546001600160a01b031690565b6001600160a01b031614610dcc5760405162461bcd60e51b815260206004820152602c60248201527f46756e6374696f6e206d7573742062652063616c6c6564207468726f7567682060448201526b6163746976652070726f787960a01b6064820152608401610cfd565b610dd5816120de565b60408051600080825260208201909252610df19183919061219b565b50565b600054610100900460ff16610e0f5760005460ff1615610e13565b303b155b610e855760405162461bcd60e51b815260206004820152602e60248201527f496e697469616c697a61626c653a20636f6e747261637420697320616c72656160448201527f647920696e697469616c697a65640000000000000000000000000000000000006064820152608401610cfd565b600054610100900460ff16158015610ea7576000805461ffff19166101011790555b60c980546001600160a01b038086166001600160a01b03199283161790925560ca805492851692909116919091179055600060cf5566038d7ea4c6800060d055601460cc55601e60cd55603260ce558015610f08576000805461ff00191690555b505050565b60c9546001600160a01b03166324d7806c336040516001600160e01b031960e084901b1681526001600160a01b039091166004820152602401602060405180830381865afa158015610f63573d6000803e3d6000fd5b505050506040513d601f19601f82011682018060405250810190610f879190613420565b610fca5760405162461bcd60e51b815260206004820152601460248201527321b0b63632b91036bab9ba1031329030b236b4b760611b6044820152606401610cfd565b60d080549082905560408051828152602081018490527f861fa8a0dab775faf9bcbb5388a02f7ac01181c036f5c57982464a2d75c3608e91015b60405180910390a15050565b306001600160a01b037f000000000000000000000000000000000000000000000000000000000000000016141561109e5760405162461bcd60e51b815260206004820152602c60248201527f46756e6374696f6e206d7573742062652063616c6c6564207468726f7567682060448201526b19195b1959d85d1958d85b1b60a21b6064820152608401610cfd565b7f00000000000000000000000000000000000000000000000000000000000000006001600160a01b03166110f97f360894a13ba1a3210667c828492db98dca3e2076cc3735a920a3ca505d382bbc546001600160a01b031690565b6001600160a01b0316146111645760405162461bcd60e51b815260206004820152602c60248201527f46756e6374696f6e206d7573742062652063616c6c6564207468726f7567682060448201526b6163746976652070726f787960a01b6064820152608401610cfd565b61116d826120de565b6111798282600161219b565b5050565b60cb546000906001600160a01b031633146111da5760405162461bcd60e51b815260206004820152600f60248201527f4f6e6c792045545320656e7375726500000000000000000000000000000000006044820152606401610cfd565b60008a815260d4602052604090206111f3908a8a612b42565b5060008a815260d460205260409020611210906001018888612b42565b5060008a815260d460205260409020600381018690556004810185905561123b906005018484612b42565b506040518a81527f9d29e5045b411bb06d81d8ff11c828d9f1d7eb076eec9ca45eda49fc99f762b29060200160405180910390a15060019998505050505050505050565b600080838360405160200161129592919061343d565b60408051808303601f190181529190528051602090910120949350505050565b600081815260d36020908152604080832060018101546002820154600383015460048401548454865181890281018901909752808752606098978897889788979096879691956001600160a01b03918216959282169491169291879183018282801561134057602002820191906000526020600020905b81548152602001906001019080831161132c575b50505050509450955095509550955095505091939590929450565b60c9546001600160a01b03166324d7806c336040516001600160e01b031960e084901b1681526001600160a01b039091166004820152602401602060405180830381865afa1580156113b1573d6000803e3d6000fd5b505050506040513d601f19601f820116820180604052508101906113d59190613420565b6114185760405162461bcd60e51b815260206004820152601460248201527321b0b63632b91036bab9ba1031329030b236b4b760611b6044820152606401610cfd565b6001600160a01b0381166114945760405162461bcd60e51b815260206004820152602860248201527f4554532e757064617465416363657373436f6e74726f6c733a2043616e6e6f7460448201527f206265207a65726f0000000000000000000000000000000000000000000000006064820152608401610cfd565b60c980546001600160a01b038381166001600160a01b031983168117909355604080519190921680825260208201939093527f31073599bfae2533a348dc816b0ce777b707aa9b67015ca2d86585e842b5c6e99101611004565b6000806114fb848461127f565b600081815260d4602052604090206002015490915061151b57600061151e565b60015b949350505050565b60c9546001600160a01b03166324d7806c336040516001600160e01b031960e084901b1681526001600160a01b039091166004820152602401602060405180830381865afa15801561157c573d6000803e3d6000fd5b505050506040513d601f19601f820116820180604052508101906115a09190613420565b6115e35760405162461bcd60e51b815260206004820152601460248201527321b0b63632b91036bab9ba1031329030b236b4b760611b6044820152606401610cfd565b6001600160a01b03811661165f5760405162461bcd60e51b815260206004820152602360248201527f4554532e757064617465455453456e737572653a2043616e6e6f74206265207a60448201527f65726f00000000000000000000000000000000000000000000000000000000006064820152608401610cfd565b60cb80546001600160a01b038381166001600160a01b031983168117909355604080519190921680825260208201939093527fee20190c374934660675d28472968e002fc4af227f2956f59085225ad89239fa9101611004565b6002603354141561170c5760405162461bcd60e51b815260206004820152601f60248201527f5265656e7472616e637947756172643a207265656e7472616e742063616c6c006044820152606401610cfd565b60026033556001600160a01b038116600090815260d2602090815260408083205460d190925282205461173f9190613409565b90506000811180156117515750478111155b15611806576001600160a01b038216600090815260d2602052604090205461177a90829061346c565b6001600160a01b038316600081815260d26020526040808220939093559151909183156108fc02918491818181858888f193505050501580156117c1573d6000803e3d6000fd5b50816001600160a01b03167feaff4b37086828766ad3268786972c0cd24259d4c87a80f9d3963a3c3d999b0d826040516117fd91815260200190565b60405180910390a25b50506001603355565b60c9546001600160a01b03166324d7806c336040516001600160e01b031960e084901b1681526001600160a01b039091166004820152602401602060405180830381865afa158015611865573d6000803e3d6000fd5b505050506040513d601f19601f820116820180604052508101906118899190613420565b6118cc5760405162461bcd60e51b815260206004820152601460248201527321b0b63632b91036bab9ba1031329030b236b4b760611b6044820152606401610cfd565b60646118d8828461346c565b111561194c5760405162461bcd60e51b815260206004820152603760248201527f4554532e75706461746550657263656e74616765733a2070657263656e74616760448201527f6573206d757374206e6f74206265206f766572203130300000000000000000006064820152608401610cfd565b60cc82905560cd81905580611962836064613409565b61196c9190613409565b60ce81905560cc5460cd546040805192835260208301919091528101919091527f78c1b0567e296aa5eef70ad2deee29f35e0dd128cac603be855ece3e823f430890606001611004565b60026033541415611a095760405162461bcd60e51b815260206004820152601f60248201527f5265656e7472616e637947756172643a207265656e7472616e742063616c6c006044820152606401610cfd565b600260335560c9546001600160a01b0316632b04fd44336040516001600160e01b031960e084901b1681526001600160a01b039091166004820152602401602060405180830381865afa158015611a64573d6000803e3d6000fd5b505050506040513d601f19601f82011682018060405250810190611a889190613420565b611ad45760405162461bcd60e51b815260206004820152601060248201527f4f6e6c79207461726765742074797065000000000000000000000000000000006044820152606401610cfd565b60c9546040517f41859ac80000000000000000000000000000000000000000000000000000000081526001600160a01b038681166004830152909116906341859ac890602401602060405180830381865afa158015611b37573d6000803e3d6000fd5b505050506040513d601f19601f82011682018060405250810190611b5b9190613420565b611bcd5760405162461bcd60e51b815260206004820152602660248201527f5461673a20546865207075626c6973686572206d75737420626520776869746560448201527f6c697374656400000000000000000000000000000000000000000000000000006064820152608401610cfd565b8680611c1b5760405162461bcd60e51b815260206004820152601760248201527f4e6f2074616720737472696e677320737570706c6965640000000000000000006044820152606401610cfd565b8060d054611c299190613484565b3414611c775760405162461bcd60e51b815260206004820152601a60248201527f5461673a20596f75206d7573742073656e6420746865206665650000000000006044820152606401610cfd565b60c954600090611d38906001600160a01b031663a88ae5b6336040516001600160e01b031960e084901b1681526001600160a01b039091166004820152602401600060405180830381865afa158015611cd4573d6000803e3d6000fd5b505050506040513d6000823e601f3d908101601f19168201604052611cfc91908101906134a3565b89898080601f01602080910402602001604051908101604052809392919081815260200183838082843760009201919091525061235f92505050565b905060008267ffffffffffffffff811115611d5557611d55612f5a565b604051908082528060200260200182016040528015611d7e578160200160208202803683370190505b50905060005b83811015611df7576000611dbc8d8d84818110611da357611da3613511565b9050602002810190611db59190613527565b8b8b610943565b9050611dc8818a612397565b80838381518110611ddb57611ddb613511565b602090810291909101015250611df08161356e565b9050611d84565b508315611e765760cb546040517f177f2fb5000000000000000000000000000000000000000000000000000000008152600481018490526001600160a01b039091169063177f2fb590602401600060405180830381600087803b158015611e5d57600080fd5b505af1158015611e71573d6000803e3d6000fd5b505050505b611e8381838989896126d6565b50506001603355505050505050505050565b80611ee25760405162461bcd60e51b815260206004820152600b60248201527f456d7074792061727261790000000000000000000000000000000000000000006044820152606401610cfd565b600083815260d3602052604090208054339080841115611f68576000611f088286613409565b905060d05481611f189190613484565b3414611f665760405162461bcd60e51b815260206004820152601c60248201527f4164646974696f6e616c207461677320726571756972652066656573000000006044820152606401610cfd565b505b60028301546001600160a01b0383811691161480611f95575060048301546001600160a01b038381169116145b611fe15760405162461bcd60e51b815260206004820152601660248201527f4f6e6c7920746167676572206f722073706f6e736f72000000000000000000006044820152606401610cfd565b60005b848110156120c95760ca546001600160a01b031663d3c80bd887878481811061200f5761200f613511565b905060200201356040518263ffffffff1660e01b815260040161203491815260200190565b602060405180830381865afa158015612051573d6000803e3d6000fd5b505050506040513d601f19601f820116820180604052508101906120759190613420565b6120c15760405162461bcd60e51b815260206004820152600e60248201527f496e76616c6964207461672049440000000000000000000000000000000000006044820152606401610cfd565b600101611fe4565b506120d5838686612bc6565b50505050505050565b60c9546001600160a01b03166324d7806c336040516001600160e01b031960e084901b1681526001600160a01b039091166004820152602401602060405180830381865afa158015612134573d6000803e3d6000fd5b505050506040513d601f19601f820116820180604052508101906121589190613420565b610df15760405162461bcd60e51b815260206004820152601460248201527321b0b63632b91036bab9ba1031329030b236b4b760611b6044820152606401610cfd565b60006121ce7f360894a13ba1a3210667c828492db98dca3e2076cc3735a920a3ca505d382bbc546001600160a01b031690565b90506121d98461281a565b6000835111806121e65750815b156121f7576121f584846128cf565b505b7f4910fdfa16fed3260ed0e7147f7cc6da11a60208b5b9406d12a635614ffd9143805460ff1661235857805460ff191660011781556040516001600160a01b03831660248201526122a490869060440160408051601f198184030181529190526020810180517bffffffffffffffffffffffffffffffffffffffffffffffffffffffff167f3659cfe6000000000000000000000000000000000000000000000000000000001790526128cf565b50805460ff191681557f360894a13ba1a3210667c828492db98dca3e2076cc3735a920a3ca505d382bbc546001600160a01b0383811691161461234f5760405162461bcd60e51b815260206004820152602f60248201527f45524331393637557067726164653a207570677261646520627265616b73206660448201527f75727468657220757067726164657300000000000000000000000000000000006064820152608401610cfd565b612358856129c8565b5050505050565b60008061236c848461127f565b600081815260d460205260409020600201549091501561238d57905061093d565b61151e8484612a08565b60ca546040517f878327ab0000000000000000000000000000000000000000000000000000000081526004810184905260009182916001600160a01b039091169063878327ab906024016040805180830381865afa1580156123fd573d6000803e3d6000fd5b505050506040513d601f19601f820116820180604052508101906124219190613589565b91509150816001600160a01b0316816001600160a01b031614156125cd57606460cc543461244f9190613484565b61245991906135b8565b6001600160a01b038316600090815260d1602052604090205461247c919061346c565b6001600160a01b038316600090815260d1602052604090205560cd546064906124a59034613484565b6124af91906135b8565b6001600160a01b038416600090815260d160205260409020546124d2919061346c565b6001600160a01b03848116600090815260d160205260408082209390935560ca5492517fa30b4db90000000000000000000000000000000000000000000000000000000081526004810188905290929091169063a30b4db990602401602060405180830381865afa15801561254b573d6000803e3d6000fd5b505050506040513d601f19601f8201168201806040525081019061256f91906135da565b9050606460ce54346125819190613484565b61258b91906135b8565b6001600160a01b038216600090815260d160205260409020546125ae919061346c565b6001600160a01b03909116600090815260d160205260409020556126d0565b606460cc54346125dd9190613484565b6125e791906135b8565b6001600160a01b038316600090815260d1602052604090205461260a919061346c565b6001600160a01b038316600090815260d1602052604090205560cd546064906126339034613484565b61263d91906135b8565b6001600160a01b038416600090815260d16020526040902054612660919061346c565b6001600160a01b038416600090815260d1602052604090205560ce546064906126899034613484565b61269391906135b8565b6001600160a01b038216600090815260d160205260409020546126b6919061346c565b6001600160a01b038216600090815260d160205260409020555b50505050565b6040805160208082018790526bffffffffffffffffffffffff19606087811b82168486015286811b8216605485015285901b1660688301528251808303605c018152607c90920190925280519101206000906040805160a08101825288815260208082018990526001600160a01b0380881683850152888116606084015286166080830152600084815260d38252929092208151805194955091939092612781928492910190612c00565b5060208281015160018301556040808401516002840180546001600160a01b03199081166001600160a01b03938416179091556060860151600386018054831691841691909117905560809095015160049094018054909516931692909217909255518281527f81b185c481377e520177bddb63bab2a8d220831d7c07b748c2baf29c6e607070910160405180910390a1505050505050565b803b61288e5760405162461bcd60e51b815260206004820152602d60248201527f455243313936373a206e657720696d706c656d656e746174696f6e206973206e60448201527f6f74206120636f6e7472616374000000000000000000000000000000000000006064820152608401610cfd565b7f360894a13ba1a3210667c828492db98dca3e2076cc3735a920a3ca505d382bbc80546001600160a01b0319166001600160a01b0392909216919091179055565b6060823b6129455760405162461bcd60e51b815260206004820152602660248201527f416464726573733a2064656c65676174652063616c6c20746f206e6f6e2d636f60448201527f6e747261637400000000000000000000000000000000000000000000000000006064820152608401610cfd565b600080846001600160a01b03168460405161296091906135f7565b600060405180830381855af49150503d806000811461299b576040519150601f19603f3d011682016040523d82523d6000602084013e6129a0565b606091505b5091509150610a70828260405180606001604052806027815260200161361460279139612b02565b6129d18161281a565b6040516001600160a01b038216907fbc7cd75a20ee27fd9adebab32041f755214dbc6bffa90cc0225b39da2e5c2d3b90600090a250565b600080612a15848461127f565b6040805160c08101825286815260208082018790524282840152600060608301819052608083018190528351808301855281815260a084015284815260d48252929092208151805194955091939092612a72928492910190612c3b565b506020828101518051612a8b9260018501920190612c3b565b5060408201516002820155606082015160038201556080820151600482015560a08201518051612ac5916005840191602090910190612c3b565b50506040518281527f503a6e6145f2d2a2a9b0845c2193aef653400c52f93b1c897bd55d36a396be7c915060200160405180910390a19392505050565b60608315612b11575081612b3b565b825115612b215782518084602001fd5b8160405162461bcd60e51b8152600401610cfd9190613124565b9392505050565b828054612b4e906133b8565b90600052602060002090601f016020900481019282612b705760008555612bb6565b82601f10612b895782800160ff19823516178555612bb6565b82800160010185558215612bb6579182015b82811115612bb6578235825591602001919060010190612b9b565b50612bc2929150612cae565b5090565b828054828255906000526020600020908101928215612bb65791602002820182811115612bb6578235825591602001919060010190612b9b565b828054828255906000526020600020908101928215612bb6579160200282015b82811115612bb6578251825591602001919060010190612c20565b828054612c47906133b8565b90600052602060002090601f016020900481019282612c695760008555612bb6565b82601f10612c8257805160ff1916838001178555612bb6565b82800160010185558215612bb65791820182811115612bb6578251825591602001919060010190612c20565b5b80821115612bc25760008155600101612caf565b6001600160a01b0381168114610df157600080fd5b60008060008060808587031215612cee57600080fd5b843593506020850135612d0081612cc3565b92506040850135612d1081612cc3565b91506060850135612d2081612cc3565b939692955090935050565b60a0808252865190820181905260009060209060c0840190828a01845b82811015612d6457815184529284019290840190600101612d48565b50505090830196909652506001600160a01b0393841660408201529183166060830152909116608090910152919050565b600060208284031215612da757600080fd5b5035919050565b60008083601f840112612dc057600080fd5b50813567ffffffffffffffff811115612dd857600080fd5b602083019150836020828501011115612df057600080fd5b9250929050565b60008060008060608587031215612e0d57600080fd5b843567ffffffffffffffff811115612e2457600080fd5b612e3087828801612dae565b9095509350506020850135612e4481612cc3565b91506040850135612d2081612cc3565b60005b83811015612e6f578181015183820152602001612e57565b838111156126d05750506000910152565b60008151808452612e98816020860160208601612e54565b601f01601f19169290920160200192915050565b60c081526000612ebf60c0830189612e80565b8281036020840152612ed18189612e80565b905086604084015285606084015284608084015282810360a0840152612ef78185612e80565b9998505050505050505050565b600060208284031215612f1657600080fd5b8135612b3b81612cc3565b60008060408385031215612f3457600080fd5b8235612f3f81612cc3565b91506020830135612f4f81612cc3565b809150509250929050565b634e487b7160e01b600052604160045260246000fd5b604051601f8201601f1916810167ffffffffffffffff81118282101715612f9957612f99612f5a565b604052919050565b600067ffffffffffffffff821115612fbb57612fbb612f5a565b50601f01601f191660200190565b6000612fdc612fd784612fa1565b612f70565b9050828152838383011115612ff057600080fd5b828260208301376000602084830101529392505050565b6000806040838503121561301a57600080fd5b823561302581612cc3565b9150602083013567ffffffffffffffff81111561304157600080fd5b8301601f8101851361305257600080fd5b61306185823560208401612fc9565b9150509250929050565b600080600080600080600080600060c08a8c03121561308957600080fd5b8935985060208a013567ffffffffffffffff808211156130a857600080fd5b6130b48d838e01612dae565b909a50985060408c01359150808211156130cd57600080fd5b6130d98d838e01612dae565b909850965060608c0135955060808c0135945060a08c013591508082111561310057600080fd5b5061310d8c828d01612dae565b915080935050809150509295985092959850929598565b602081526000612b3b6020830184612e80565b600082601f83011261314857600080fd5b612b3b83833560208501612fc9565b6000806040838503121561316a57600080fd5b823567ffffffffffffffff8082111561318257600080fd5b61318e86838701613137565b935060208501359150808211156131a457600080fd5b5061306185828601613137565b600080604083850312156131c457600080fd5b50508035926020909101359150565b60008083601f8401126131e557600080fd5b50813567ffffffffffffffff8111156131fd57600080fd5b6020830191508360208260051b8501011115612df057600080fd5b8015158114610df157600080fd5b60008060008060008060008060c0898b03121561324257600080fd5b883567ffffffffffffffff8082111561325a57600080fd5b6132668c838d016131d3565b909a50985060208b013591508082111561327f57600080fd5b5061328c8b828c01612dae565b90975095505060408901356132a081612cc3565b935060608901356132b081612cc3565b925060808901356132c081612cc3565b915060a08901356132d081613218565b809150509295985092959890939650565b6000806000604084860312156132f657600080fd5b83359250602084013567ffffffffffffffff81111561331457600080fd5b613320868287016131d3565b9497909650939450505050565b81835281816020850137506000828201602090810191909152601f909101601f19169091010190565b60208152600061151e60208301848661332d565b60006020828403121561337c57600080fd5b5051919050565b60608152600061339760608301868861332d565b6001600160a01b039485166020840152929093166040909101529392505050565b600181811c908216806133cc57607f821691505b602082108114156133ed57634e487b7160e01b600052602260045260246000fd5b50919050565b634e487b7160e01b600052601160045260246000fd5b60008282101561341b5761341b6133f3565b500390565b60006020828403121561343257600080fd5b8151612b3b81613218565b6000835161344f818460208801612e54565b835190830190613463818360208801612e54565b01949350505050565b6000821982111561347f5761347f6133f3565b500190565b600081600019048311821515161561349e5761349e6133f3565b500290565b6000602082840312156134b557600080fd5b815167ffffffffffffffff8111156134cc57600080fd5b8201601f810184136134dd57600080fd5b80516134eb612fd782612fa1565b81815285602083850101111561350057600080fd5b610a70826020830160208601612e54565b634e487b7160e01b600052603260045260246000fd5b6000808335601e1984360301811261353e57600080fd5b83018035915067ffffffffffffffff82111561355957600080fd5b602001915036819003821315612df057600080fd5b6000600019821415613582576135826133f3565b5060010190565b6000806040838503121561359c57600080fd5b82516135a781612cc3565b6020840151909250612f4f81612cc3565b6000826135d557634e487b7160e01b600052601260045260246000fd5b500490565b6000602082840312156135ec57600080fd5b8151612b3b81612cc3565b60008251613609818460208701612e54565b919091019291505056fe416464726573733a206c6f772d6c6576656c2064656c65676174652063616c6c206661696c6564a264697066735822122099df55c4dbbc75574c923b71fae1ae54c2e90f602f07e7e899e3227c88b5dcdf64736f6c634300080c0033",
  "linkReferences": {},
  "deployedLinkReferences": {}
}