{
  "_format": "hh-sol-artifact-1",
  "contractName": "ETSUpgrade",
  "sourceName": "contracts/utils/UUPS/UUPSTesting.sol",
  "abi": [
    {
      "anonymous": false,
      "inputs": [
        {
          "indexed": false,
          "internalType": "address",
          "name": "previousAccessControls",
          "type": "address"
        },
        {
          "indexed": false,
          "internalType": "address",
          "name": "newAccessControls",
          "type": "address"
        }
      ],
      "name": "AccessControlsUpdated",
      "type": "event"
    },
    {
      "anonymous": false,
      "inputs": [
        {
          "indexed": false,
          "internalType": "address",
          "name": "previousAdmin",
          "type": "address"
        },
        {
          "indexed": false,
          "internalType": "address",
          "name": "newAdmin",
          "type": "address"
        }
      ],
      "name": "AdminChanged",
      "type": "event"
    },
    {
      "anonymous": false,
      "inputs": [
        {
          "indexed": true,
          "internalType": "address",
          "name": "beacon",
          "type": "address"
        }
      ],
      "name": "BeaconUpgraded",
      "type": "event"
    },
    {
      "anonymous": false,
      "inputs": [
        {
          "indexed": false,
          "internalType": "address",
          "name": "previousETSEnsure",
          "type": "address"
        },
        {
          "indexed": false,
          "internalType": "address",
          "name": "newETSEnsure",
          "type": "address"
        }
      ],
      "name": "ETSEnsureUpdated",
      "type": "event"
    },
    {
      "anonymous": false,
      "inputs": [
        {
          "indexed": true,
          "internalType": "address",
          "name": "who",
          "type": "address"
        },
        {
          "indexed": false,
          "internalType": "uint256",
          "name": "amount",
          "type": "uint256"
        }
      ],
      "name": "FundsWithdrawn",
      "type": "event"
    },
    {
      "anonymous": false,
      "inputs": [
        {
          "indexed": false,
          "internalType": "uint256",
          "name": "platformPercentage",
          "type": "uint256"
        },
        {
          "indexed": false,
          "internalType": "uint256",
          "name": "publisherPercentage",
          "type": "uint256"
        },
        {
          "indexed": false,
          "internalType": "uint256",
          "name": "remainingPercentage",
          "type": "uint256"
        }
      ],
      "name": "PercentagesSet",
      "type": "event"
    },
    {
      "anonymous": false,
      "inputs": [
        {
          "indexed": false,
          "internalType": "uint256",
          "name": "targetId",
          "type": "uint256"
        }
      ],
      "name": "RequestEnsureTarget",
      "type": "event"
    },
    {
      "anonymous": false,
      "inputs": [
        {
          "indexed": false,
          "internalType": "uint256",
          "name": "previousFee",
          "type": "uint256"
        },
        {
          "indexed": false,
          "internalType": "uint256",
          "name": "taggingFee",
          "type": "uint256"
        }
      ],
      "name": "TaggingFeeSet",
      "type": "event"
    },
    {
      "anonymous": false,
      "inputs": [
        {
          "indexed": false,
          "internalType": "uint256",
          "name": "targetId",
          "type": "uint256"
        }
      ],
      "name": "TargetCreated",
      "type": "event"
    },
    {
      "anonymous": false,
      "inputs": [
        {
          "indexed": false,
          "internalType": "uint256",
          "name": "taggingId",
          "type": "uint256"
        }
      ],
      "name": "TargetTagged",
      "type": "event"
    },
    {
      "anonymous": false,
      "inputs": [
        {
          "indexed": false,
          "internalType": "string",
          "name": "typeName",
          "type": "string"
        },
        {
          "indexed": false,
          "internalType": "bool",
          "name": "setting",
          "type": "bool"
        }
      ],
      "name": "TargetTypeSet",
      "type": "event"
    },
    {
      "anonymous": false,
      "inputs": [
        {
          "indexed": false,
          "internalType": "uint256",
          "name": "targetId",
          "type": "uint256"
        }
      ],
      "name": "TargetUpdated",
      "type": "event"
    },
    {
      "anonymous": false,
      "inputs": [
        {
          "indexed": true,
          "internalType": "address",
          "name": "implementation",
          "type": "address"
        }
      ],
      "name": "Upgraded",
      "type": "event"
    },
    {
      "inputs": [],
      "name": "NAME",
      "outputs": [
        {
          "internalType": "string",
          "name": "",
          "type": "string"
        }
      ],
      "stateMutability": "view",
      "type": "function"
    },
    {
      "inputs": [],
      "name": "VERSION",
      "outputs": [
        {
          "internalType": "string",
          "name": "",
          "type": "string"
        }
      ],
      "stateMutability": "view",
      "type": "function"
    },
    {
      "inputs": [],
      "name": "accessControls",
      "outputs": [
        {
          "internalType": "contract ETSAccessControls",
          "name": "",
          "type": "address"
        }
      ],
      "stateMutability": "view",
      "type": "function"
    },
    {
      "inputs": [
        {
          "internalType": "address",
          "name": "",
          "type": "address"
        }
      ],
      "name": "accrued",
      "outputs": [
        {
          "internalType": "uint256",
          "name": "",
          "type": "uint256"
        }
      ],
      "stateMutability": "view",
      "type": "function"
    },
    {
      "inputs": [
        {
          "internalType": "uint256",
          "name": "_targetId",
          "type": "uint256"
        },
        {
          "internalType": "address",
          "name": "_publisher",
          "type": "address"
        },
        {
          "internalType": "address",
          "name": "_tagger",
          "type": "address"
        },
        {
          "internalType": "address",
          "name": "_sponsor",
          "type": "address"
        }
      ],
      "name": "computeTaggingRecordId",
      "outputs": [
        {
          "internalType": "uint256",
          "name": "taggingRecordId",
          "type": "uint256"
        }
      ],
      "stateMutability": "pure",
      "type": "function"
    },
    {
      "inputs": [
        {
          "internalType": "string",
          "name": "_targetType",
          "type": "string"
        },
        {
          "internalType": "string",
          "name": "_targetURI",
          "type": "string"
        }
      ],
      "name": "computeTargetId",
      "outputs": [
        {
          "internalType": "uint256",
          "name": "targetId",
          "type": "uint256"
        }
      ],
      "stateMutability": "pure",
      "type": "function"
    },
    {
      "inputs": [
        {
          "internalType": "address payable",
          "name": "_account",
          "type": "address"
        }
      ],
      "name": "drawDown",
      "outputs": [],
      "stateMutability": "nonpayable",
      "type": "function"
    },
    {
      "inputs": [],
      "name": "etsEnsure",
      "outputs": [
        {
          "internalType": "contract ETSEnsure",
          "name": "",
          "type": "address"
        }
      ],
      "stateMutability": "view",
      "type": "function"
    },
    {
      "inputs": [],
      "name": "etsTag",
      "outputs": [
        {
          "internalType": "contract ETSTag",
          "name": "",
          "type": "address"
        }
      ],
      "stateMutability": "view",
      "type": "function"
    },
    {
      "inputs": [
        {
          "internalType": "string",
          "name": "_tagString",
          "type": "string"
        },
        {
          "internalType": "address payable",
          "name": "_publisher",
          "type": "address"
        },
        {
          "internalType": "address",
          "name": "_tagger",
          "type": "address"
        }
      ],
      "name": "getOrCreateTag",
      "outputs": [
        {
          "internalType": "uint256",
          "name": "tagId",
          "type": "uint256"
        }
      ],
      "stateMutability": "payable",
      "type": "function"
    },
    {
      "inputs": [
        {
          "internalType": "uint256",
          "name": "_targetId",
          "type": "uint256"
        },
        {
          "internalType": "address",
          "name": "_tagger",
          "type": "address"
        },
        {
          "internalType": "address",
          "name": "_publisher",
          "type": "address"
        },
        {
          "internalType": "address",
          "name": "_sponsor",
          "type": "address"
        }
      ],
      "name": "getTaggingRecord",
      "outputs": [
        {
          "internalType": "uint256[]",
          "name": "etsTagIds",
          "type": "uint256[]"
        },
        {
          "internalType": "uint256",
          "name": "targetId",
          "type": "uint256"
        },
        {
          "internalType": "address",
          "name": "tagger",
          "type": "address"
        },
        {
          "internalType": "address",
          "name": "publisher",
          "type": "address"
        },
        {
          "internalType": "address",
          "name": "sponsor",
          "type": "address"
        }
      ],
      "stateMutability": "view",
      "type": "function"
    },
    {
      "inputs": [
        {
          "internalType": "uint256",
          "name": "_taggingId",
          "type": "uint256"
        }
      ],
      "name": "getTaggingRecordFromId",
      "outputs": [
        {
          "internalType": "uint256[]",
          "name": "etsTagIds",
          "type": "uint256[]"
        },
        {
          "internalType": "uint256",
          "name": "targetId",
          "type": "uint256"
        },
        {
          "internalType": "address",
          "name": "tagger",
          "type": "address"
        },
        {
          "internalType": "address",
          "name": "publisher",
          "type": "address"
        },
        {
          "internalType": "address",
          "name": "sponsor",
          "type": "address"
        }
      ],
      "stateMutability": "view",
      "type": "function"
    },
    {
      "inputs": [
        {
          "internalType": "contract ETSAccessControls",
          "name": "_accessControls",
          "type": "address"
        },
        {
          "internalType": "contract ETSTag",
          "name": "_etsTag",
          "type": "address"
        }
      ],
      "name": "initialize",
      "outputs": [],
      "stateMutability": "nonpayable",
      "type": "function"
    },
    {
      "inputs": [
        {
          "internalType": "uint256",
          "name": "_targetId",
          "type": "uint256"
        }
      ],
      "name": "isTargetEnsured",
      "outputs": [
        {
          "internalType": "bool",
          "name": "",
          "type": "bool"
        }
      ],
      "stateMutability": "view",
      "type": "function"
    },
    {
      "inputs": [],
      "name": "modulo",
      "outputs": [
        {
          "internalType": "uint256",
          "name": "",
          "type": "uint256"
        }
      ],
      "stateMutability": "view",
      "type": "function"
    },
    {
      "inputs": [
        {
          "internalType": "address",
          "name": "",
          "type": "address"
        }
      ],
      "name": "paid",
      "outputs": [
        {
          "internalType": "uint256",
          "name": "",
          "type": "uint256"
        }
      ],
      "stateMutability": "view",
      "type": "function"
    },
    {
      "inputs": [],
      "name": "platformPercentage",
      "outputs": [
        {
          "internalType": "uint256",
          "name": "",
          "type": "uint256"
        }
      ],
      "stateMutability": "view",
      "type": "function"
    },
    {
      "inputs": [],
      "name": "publisherPercentage",
      "outputs": [
        {
          "internalType": "uint256",
          "name": "",
          "type": "uint256"
        }
      ],
      "stateMutability": "view",
      "type": "function"
    },
    {
      "inputs": [],
      "name": "remainingPercentage",
      "outputs": [
        {
          "internalType": "uint256",
          "name": "",
          "type": "uint256"
        }
      ],
      "stateMutability": "view",
      "type": "function"
    },
    {
      "inputs": [
        {
          "internalType": "string[]",
          "name": "_tags",
          "type": "string[]"
        },
        {
          "internalType": "string",
          "name": "_targetURI",
          "type": "string"
        },
        {
          "internalType": "address payable",
          "name": "_publisher",
          "type": "address"
        },
        {
          "internalType": "address",
          "name": "_tagger",
          "type": "address"
        },
        {
          "internalType": "address",
          "name": "_sponsor",
          "type": "address"
        },
        {
          "internalType": "bool",
          "name": "_ensure",
          "type": "bool"
        }
      ],
      "name": "tagTarget",
      "outputs": [],
      "stateMutability": "payable",
      "type": "function"
    },
    {
      "inputs": [],
      "name": "taggingCounter",
      "outputs": [
        {
          "internalType": "uint256",
          "name": "",
          "type": "uint256"
        }
      ],
      "stateMutability": "view",
      "type": "function"
    },
    {
      "inputs": [],
      "name": "taggingFee",
      "outputs": [
        {
          "internalType": "uint256",
          "name": "",
          "type": "uint256"
        }
      ],
      "stateMutability": "view",
      "type": "function"
    },
    {
      "inputs": [
        {
          "internalType": "uint256",
          "name": "",
          "type": "uint256"
        }
      ],
      "name": "taggingRecords",
      "outputs": [
        {
          "internalType": "uint256",
          "name": "targetId",
          "type": "uint256"
        },
        {
          "internalType": "address",
          "name": "tagger",
          "type": "address"
        },
        {
          "internalType": "address",
          "name": "publisher",
          "type": "address"
        },
        {
          "internalType": "address",
          "name": "sponsor",
          "type": "address"
        }
      ],
      "stateMutability": "view",
      "type": "function"
    },
    {
      "inputs": [
        {
          "internalType": "string",
          "name": "_targetType",
          "type": "string"
        },
        {
          "internalType": "string",
          "name": "_targetURI",
          "type": "string"
        }
      ],
      "name": "targetExists",
      "outputs": [
        {
          "internalType": "bool",
          "name": "",
          "type": "bool"
        }
      ],
      "stateMutability": "view",
      "type": "function"
    },
    {
      "inputs": [
        {
          "internalType": "uint256",
          "name": "_targetId",
          "type": "uint256"
        }
      ],
      "name": "targetExistsFromId",
      "outputs": [
        {
          "internalType": "bool",
          "name": "",
          "type": "bool"
        }
      ],
      "stateMutability": "view",
      "type": "function"
    },
    {
      "inputs": [
        {
          "internalType": "uint256",
          "name": "",
          "type": "uint256"
        }
      ],
      "name": "targets",
      "outputs": [
        {
          "internalType": "string",
          "name": "targetType",
          "type": "string"
        },
        {
          "internalType": "string",
          "name": "targetURI",
          "type": "string"
        },
        {
          "internalType": "uint256",
          "name": "created",
          "type": "uint256"
        },
        {
          "internalType": "uint256",
          "name": "lastEnsured",
          "type": "uint256"
        },
        {
          "internalType": "uint256",
          "name": "status",
          "type": "uint256"
        },
        {
          "internalType": "string",
          "name": "ipfsHash",
          "type": "string"
        }
      ],
      "stateMutability": "view",
      "type": "function"
    },
    {
      "inputs": [
        {
          "internalType": "address",
          "name": "_account",
          "type": "address"
        }
      ],
      "name": "totalDue",
      "outputs": [
        {
          "internalType": "uint256",
          "name": "_due",
          "type": "uint256"
        }
      ],
      "stateMutability": "view",
      "type": "function"
    },
    {
      "inputs": [
        {
          "internalType": "contract ETSAccessControls",
          "name": "_accessControls",
          "type": "address"
        }
      ],
      "name": "updateAccessControls",
      "outputs": [],
      "stateMutability": "nonpayable",
      "type": "function"
    },
    {
      "inputs": [
        {
          "internalType": "contract ETSEnsure",
          "name": "_etsEnsure",
          "type": "address"
        }
      ],
      "name": "updateETSEnsure",
      "outputs": [],
      "stateMutability": "nonpayable",
      "type": "function"
    },
    {
      "inputs": [
        {
          "internalType": "uint256",
          "name": "_platformPercentage",
          "type": "uint256"
        },
        {
          "internalType": "uint256",
          "name": "_publisherPercentage",
          "type": "uint256"
        }
      ],
      "name": "updatePercentages",
      "outputs": [],
      "stateMutability": "nonpayable",
      "type": "function"
    },
    {
      "inputs": [
        {
          "internalType": "uint256",
          "name": "_fee",
          "type": "uint256"
        }
      ],
      "name": "updateTaggingFee",
      "outputs": [],
      "stateMutability": "nonpayable",
      "type": "function"
    },
    {
      "inputs": [
        {
          "internalType": "uint256",
          "name": "_taggingRecordId",
          "type": "uint256"
        },
        {
          "internalType": "string[]",
          "name": "_tags",
          "type": "string[]"
        }
      ],
      "name": "updateTaggingRecord",
      "outputs": [],
      "stateMutability": "payable",
      "type": "function"
    },
    {
      "inputs": [
        {
          "internalType": "uint256",
          "name": "_targetId",
          "type": "uint256"
        },
        {
          "internalType": "string",
          "name": "_targetType",
          "type": "string"
        },
        {
          "internalType": "string",
          "name": "_targetURI",
          "type": "string"
        },
        {
          "internalType": "uint256",
          "name": "_lastEnsured",
          "type": "uint256"
        },
        {
          "internalType": "uint256",
          "name": "_status",
          "type": "uint256"
        },
        {
          "internalType": "string",
          "name": "_ipfsHash",
          "type": "string"
        }
      ],
      "name": "updateTarget",
      "outputs": [
        {
          "internalType": "bool",
          "name": "success",
          "type": "bool"
        }
      ],
      "stateMutability": "nonpayable",
      "type": "function"
    },
    {
      "inputs": [],
      "name": "upgradeTest",
      "outputs": [
        {
          "internalType": "bool",
          "name": "",
          "type": "bool"
        }
      ],
      "stateMutability": "pure",
      "type": "function"
    },
    {
      "inputs": [
        {
          "internalType": "address",
          "name": "newImplementation",
          "type": "address"
        }
      ],
      "name": "upgradeTo",
      "outputs": [],
      "stateMutability": "nonpayable",
      "type": "function"
    },
    {
      "inputs": [
        {
          "internalType": "address",
          "name": "newImplementation",
          "type": "address"
        },
        {
          "internalType": "bytes",
          "name": "data",
          "type": "bytes"
        }
      ],
      "name": "upgradeToAndCall",
      "outputs": [],
      "stateMutability": "payable",
      "type": "function"
    },
    {
      "inputs": [],
      "name": "version",
      "outputs": [
        {
          "internalType": "string",
          "name": "",
          "type": "string"
        }
      ],
      "stateMutability": "pure",
      "type": "function"
    }
  ],
  "bytecode": "0x60a06040523060805234801561001457600080fd5b506080516132e661004560003960008181610e8a01528181610f0f0152818161122201526112a701526132e66000f3fe60806040526004361061026a5760003560e01c80636ef3da9411610153578063b7d0e7dd116100cb578063e88b772c1161007f578063f8bc3cc611610064578063f8bc3cc6146107bb578063fe52656f146107db578063ffa1ad74146107f157600080fd5b8063e88b772c14610785578063ebc67e1f1461079b57600080fd5b8063c20d2295116100b0578063c20d229514610720578063ce0e0eed14610740578063d64f55c91461077257600080fd5b8063b7d0e7dd146106e0578063c20620051461070057600080fd5b8063817a1fbd11610122578063a3f4df7e11610107578063a3f4df7e1461064a578063b148440f14610693578063b205f808146106c057600080fd5b8063817a1fbd146105fd578063a340cf791461061d57600080fd5b80636ef3da941461050c57806374716c811461052c578063748365ef146105af5780637e2e4c52146105e757600080fd5b80633d20b15c116101e6578063507f3ba1116101b55780635dffa7fe1161019a5780635dffa7fe1461045c57806360c1cade1461047c57806368fd4dee146104ec57600080fd5b8063507f3ba11461040557806354fd4d501461042557600080fd5b80633d20b15c14610392578063485cc955146103b25780634967b35f146103d25780634f1ef286146103f257600080fd5b80630ad2f0c31161023d57806329745262116102225780632974526214610347578063337ccf9d1461035c5780633659cfe61461037257600080fd5b80630ad2f0c3146103115780631f7418971461033157600080fd5b80630438837c1461026f57806307348e26146102a95780630819d640146102ca5780630a39ce02146102df575b600080fd5b34801561027b57600080fd5b5061028f61028a3660046129b8565b610822565b6040516102a0959493929190612a0b565b60405180910390f35b6102bc6102b7366004612abe565b610919565b6040519081526020016102a0565b6102dd6102d8366004612b60565b610a4f565b005b3480156102eb57600080fd5b506102ff6102fa366004612bac565b610c7f565b6040516102a096959493929190612c21565b34801561031d57600080fd5b506102bc61032c366004612c79565b610e4b565b34801561033d57600080fd5b506102bc60cc5481565b34801561035357600080fd5b506102bc606481565b34801561036857600080fd5b506102bc60ce5481565b34801561037e57600080fd5b506102dd61038d366004612c79565b610e7f565b34801561039e57600080fd5b5060015b60405190151581526020016102a0565b3480156103be57600080fd5b506102dd6103cd366004612c96565b610ffb565b3480156103de57600080fd5b506102dd6103ed366004612bac565b611114565b6102dd610400366004612d7c565b611217565b34801561041157600080fd5b506103a2610420366004612de0565b611384565b34801561043157600080fd5b50604080518082019091526005815264302e302e3160d81b60208201525b6040516102a09190612e99565b34801561046857600080fd5b506102bc610477366004612ecc565b611486565b34801561048857600080fd5b506102bc6104973660046129b8565b604080516020808201969096526bffffffffffffffffffffffff19606094851b81168284015294841b851660548201529190921b90921660688301528051808303605c018152607c9092019052805191012090565b3480156104f857600080fd5b5061028f610507366004612bac565b6114bc565b34801561051857600080fd5b506102dd610527366004612c79565b611562565b34801561053857600080fd5b50610580610547366004612bac565b60d360205260009081526040902060018101546002820154600383015460049093015491926001600160a01b0391821692908216911684565b604080519485526001600160a01b039384166020860152918316918401919091521660608201526080016102a0565b3480156105bb57600080fd5b5060c9546105cf906001600160a01b031681565b6040516001600160a01b0390911681526020016102a0565b3480156105f357600080fd5b506102bc60cd5481565b34801561060957600080fd5b506103a2610618366004612ecc565b6116f5565b34801561062957600080fd5b506102bc610638366004612c79565b60d26020526000908152604090205481565b34801561065657600080fd5b5061044f6040518060400160405280600881526020017f45545320436f726500000000000000000000000000000000000000000000000081525081565b34801561069f57600080fd5b506102bc6106ae366004612c79565b60d16020526000908152604090205481565b3480156106cc57600080fd5b506102dd6106db366004612c79565b61172d565b3480156106ec57600080fd5b5060cb546105cf906001600160a01b031681565b34801561070c57600080fd5b506102dd61071b366004612c79565b6118c0565b34801561072c57600080fd5b506102dd61073b366004612f26565b611a16565b34801561074c57600080fd5b506103a261075b366004612bac565b600090815260d46020526040902060030154151590565b6102dd610780366004612f56565b611bbd565b34801561079157600080fd5b506102bc60cf5481565b3480156107a757600080fd5b506103a26107b6366004612bac565b612112565b3480156107c757600080fd5b5060ca546105cf906001600160a01b031681565b3480156107e757600080fd5b506102bc60d05481565b3480156107fd57600080fd5b5061044f60405180604001604052806005815260200164302e302e3160d81b81525081565b6040805160208082018790526bffffffffffffffffffffffff19606086811b82168486015287811b8216605485015285811b90911660688401528351808403605c018152607c8401808652815191840191909120600081815260d3855286812060018101546002820154600383015460048401548454609c9a81028c018b01909c528b8852979a94998a998a998a99969788976001600160a01b039687169695861695909216939192889201828280156108fb57602002820191906000526020600020905b8154815260200190600101908083116108e7575b50505050509450965096509650965096505050945094509450945094565b60ca546040517ff143fc6100000000000000000000000000000000000000000000000000000000815260009182916001600160a01b039091169063f143fc6190610969908990899060040161303a565b602060405180830381865afa158015610986573d6000803e3d6000fd5b505050506040513d601f19601f820116820180604052508101906109aa919061304e565b905080610a465760ca546040517f7e6d945e0000000000000000000000000000000000000000000000000000000081526001600160a01b0390911690637e6d945e90610a00908990899089908990600401613067565b6020604051808303816000875af1158015610a1f573d6000803e3d6000fd5b505050506040513d601f19601f82011682018060405250810190610a43919061304e565b90505b95945050505050565b80610aa15760405162461bcd60e51b815260206004820152600b60248201527f456d70747920617272617900000000000000000000000000000000000000000060448201526064015b60405180910390fd5b600083815260d3602052604090208054339080841115610b27576000610ac782866130b2565b905060d05481610ad791906130c9565b3414610b255760405162461bcd60e51b815260206004820152601c60248201527f4164646974696f6e616c207461677320726571756972652066656573000000006044820152606401610a98565b505b60028301546001600160a01b0383811691161480610b54575060048301546001600160a01b038381169116145b610ba05760405162461bcd60e51b815260206004820152601660248201527f4f6e6c7920746167676572206f722073706f6e736f72000000000000000000006044820152606401610a98565b8360008167ffffffffffffffff811115610bbc57610bbc612ccf565b604051908082528060200260200182016040528015610be5578160200160208202803683370190505b50905060005b82811015610c61576000610c38898984818110610c0a57610c0a6130e8565b9050602002810190610c1c91906130fe565b60038a015460028b01546001600160a01b039182169116610919565b905080838381518110610c4d57610c4d6130e8565b602090810291909101015250600101610beb565b508051610c74908690602084019061285c565b505050505050505050565b60d460205260009081526040902080548190610c9a90613145565b80601f0160208091040260200160405190810160405280929190818152602001828054610cc690613145565b8015610d135780601f10610ce857610100808354040283529160200191610d13565b820191906000526020600020905b815481529060010190602001808311610cf657829003601f168201915b505050505090806001018054610d2890613145565b80601f0160208091040260200160405190810160405280929190818152602001828054610d5490613145565b8015610da15780601f10610d7657610100808354040283529160200191610da1565b820191906000526020600020905b815481529060010190602001808311610d8457829003601f168201915b505050505090806002015490806003015490806004015490806005018054610dc890613145565b80601f0160208091040260200160405190810160405280929190818152602001828054610df490613145565b8015610e415780601f10610e1657610100808354040283529160200191610e41565b820191906000526020600020905b815481529060010190602001808311610e2457829003601f168201915b5050505050905086565b6001600160a01b038116600090815260d2602090815260408083205460d1909252822054610e7991906130b2565b92915050565b306001600160a01b037f0000000000000000000000000000000000000000000000000000000000000000161415610f0d5760405162461bcd60e51b815260206004820152602c60248201527f46756e6374696f6e206d7573742062652063616c6c6564207468726f7567682060448201526b19195b1959d85d1958d85b1b60a21b6064820152608401610a98565b7f00000000000000000000000000000000000000000000000000000000000000006001600160a01b0316610f687f360894a13ba1a3210667c828492db98dca3e2076cc3735a920a3ca505d382bbc546001600160a01b031690565b6001600160a01b031614610fd35760405162461bcd60e51b815260206004820152602c60248201527f46756e6374696f6e206d7573742062652063616c6c6564207468726f7567682060448201526b6163746976652070726f787960a01b6064820152608401610a98565b610fdc81612137565b60408051600080825260208201909252610ff8918391906121f4565b50565b600054610100900460ff166110165760005460ff161561101a565b303b155b61108c5760405162461bcd60e51b815260206004820152602e60248201527f496e697469616c697a61626c653a20636f6e747261637420697320616c72656160448201527f647920696e697469616c697a65640000000000000000000000000000000000006064820152608401610a98565b600054610100900460ff161580156110ae576000805461ffff19166101011790555b60c980546001600160a01b038086166001600160a01b03199283161790925560ca805492851692909116919091179055600060cf5566038d7ea4c6800060d055601460cc55601e60cd55603260ce55801561110f576000805461ff00191690555b505050565b60c9546001600160a01b03166324d7806c336040516001600160e01b031960e084901b1681526001600160a01b039091166004820152602401602060405180830381865afa15801561116a573d6000803e3d6000fd5b505050506040513d601f19601f8201168201806040525081019061118e9190613180565b6111d15760405162461bcd60e51b815260206004820152601460248201527321b0b63632b91036bab9ba1031329030b236b4b760611b6044820152606401610a98565b60d080549082905560408051828152602081018490527f861fa8a0dab775faf9bcbb5388a02f7ac01181c036f5c57982464a2d75c3608e91015b60405180910390a15050565b306001600160a01b037f00000000000000000000000000000000000000000000000000000000000000001614156112a55760405162461bcd60e51b815260206004820152602c60248201527f46756e6374696f6e206d7573742062652063616c6c6564207468726f7567682060448201526b19195b1959d85d1958d85b1b60a21b6064820152608401610a98565b7f00000000000000000000000000000000000000000000000000000000000000006001600160a01b03166113007f360894a13ba1a3210667c828492db98dca3e2076cc3735a920a3ca505d382bbc546001600160a01b031690565b6001600160a01b03161461136b5760405162461bcd60e51b815260206004820152602c60248201527f46756e6374696f6e206d7573742062652063616c6c6564207468726f7567682060448201526b6163746976652070726f787960a01b6064820152608401610a98565b61137482612137565b611380828260016121f4565b5050565b60cb546000906001600160a01b031633146113e15760405162461bcd60e51b815260206004820152600f60248201527f4f6e6c792045545320656e7375726500000000000000000000000000000000006044820152606401610a98565b60008a815260d4602052604090206113fa908a8a6128a7565b5060008a815260d4602052604090206114179060010188886128a7565b5060008a815260d46020526040902060038101869055600481018590556114429060050184846128a7565b506040518a81527f9d29e5045b411bb06d81d8ff11c828d9f1d7eb076eec9ca45eda49fc99f762b29060200160405180910390a15060019998505050505050505050565b600080838360405160200161149c92919061319d565b60408051808303601f190181529190528051602090910120949350505050565b600081815260d36020908152604080832060018101546002820154600383015460048401548454865181890281018901909752808752606098978897889788979096879691956001600160a01b03918216959282169491169291879183018282801561154757602002820191906000526020600020905b815481526020019060010190808311611533575b50505050509450955095509550955095505091939590929450565b60c9546001600160a01b03166324d7806c336040516001600160e01b031960e084901b1681526001600160a01b039091166004820152602401602060405180830381865afa1580156115b8573d6000803e3d6000fd5b505050506040513d601f19601f820116820180604052508101906115dc9190613180565b61161f5760405162461bcd60e51b815260206004820152601460248201527321b0b63632b91036bab9ba1031329030b236b4b760611b6044820152606401610a98565b6001600160a01b03811661169b5760405162461bcd60e51b815260206004820152602860248201527f4554532e757064617465416363657373436f6e74726f6c733a2043616e6e6f7460448201527f206265207a65726f0000000000000000000000000000000000000000000000006064820152608401610a98565b60c980546001600160a01b038381166001600160a01b031983168117909355604080519190921680825260208201939093527f31073599bfae2533a348dc816b0ce777b707aa9b67015ca2d86585e842b5c6e9910161120b565b6000806117028484611486565b600081815260d46020526040902060020154909150611722576000611725565b60015b949350505050565b60c9546001600160a01b03166324d7806c336040516001600160e01b031960e084901b1681526001600160a01b039091166004820152602401602060405180830381865afa158015611783573d6000803e3d6000fd5b505050506040513d601f19601f820116820180604052508101906117a79190613180565b6117ea5760405162461bcd60e51b815260206004820152601460248201527321b0b63632b91036bab9ba1031329030b236b4b760611b6044820152606401610a98565b6001600160a01b0381166118665760405162461bcd60e51b815260206004820152602360248201527f4554532e757064617465455453456e737572653a2043616e6e6f74206265207a60448201527f65726f00000000000000000000000000000000000000000000000000000000006064820152608401610a98565b60cb80546001600160a01b038381166001600160a01b031983168117909355604080519190921680825260208201939093527fee20190c374934660675d28472968e002fc4af227f2956f59085225ad89239fa910161120b565b600260335414156119135760405162461bcd60e51b815260206004820152601f60248201527f5265656e7472616e637947756172643a207265656e7472616e742063616c6c006044820152606401610a98565b60026033556001600160a01b038116600090815260d2602090815260408083205460d190925282205461194691906130b2565b90506000811180156119585750478111155b15611a0d576001600160a01b038216600090815260d260205260409020546119819082906131cc565b6001600160a01b038316600081815260d26020526040808220939093559151909183156108fc02918491818181858888f193505050501580156119c8573d6000803e3d6000fd5b50816001600160a01b03167feaff4b37086828766ad3268786972c0cd24259d4c87a80f9d3963a3c3d999b0d82604051611a0491815260200190565b60405180910390a25b50506001603355565b60c9546001600160a01b03166324d7806c336040516001600160e01b031960e084901b1681526001600160a01b039091166004820152602401602060405180830381865afa158015611a6c573d6000803e3d6000fd5b505050506040513d601f19601f82011682018060405250810190611a909190613180565b611ad35760405162461bcd60e51b815260206004820152601460248201527321b0b63632b91036bab9ba1031329030b236b4b760611b6044820152606401610a98565b6064611adf82846131cc565b1115611b535760405162461bcd60e51b815260206004820152603760248201527f4554532e75706461746550657263656e74616765733a2070657263656e74616760448201527f6573206d757374206e6f74206265206f766572203130300000000000000000006064820152608401610a98565b60cc82905560cd81905580611b698360646130b2565b611b7391906130b2565b60ce81905560cc5460cd546040805192835260208301919091528101919091527f78c1b0567e296aa5eef70ad2deee29f35e0dd128cac603be855ece3e823f43089060600161120b565b60026033541415611c105760405162461bcd60e51b815260206004820152601f60248201527f5265656e7472616e637947756172643a207265656e7472616e742063616c6c006044820152606401610a98565b600260335560c9546001600160a01b0316632b04fd44336040516001600160e01b031960e084901b1681526001600160a01b039091166004820152602401602060405180830381865afa158015611c6b573d6000803e3d6000fd5b505050506040513d601f19601f82011682018060405250810190611c8f9190613180565b80611d0f575060c9546001600160a01b03166324d7806c336040516001600160e01b031960e084901b1681526001600160a01b039091166004820152602401602060405180830381865afa158015611ceb573d6000803e3d6000fd5b505050506040513d601f19601f82011682018060405250810190611d0f9190613180565b611d5b5760405162461bcd60e51b815260206004820152601060248201527f4f6e6c79207461726765742074797065000000000000000000000000000000006044820152606401610a98565b60c9546040517f41859ac80000000000000000000000000000000000000000000000000000000081526001600160a01b038681166004830152909116906341859ac890602401602060405180830381865afa158015611dbe573d6000803e3d6000fd5b505050506040513d601f19601f82011682018060405250810190611de29190613180565b611e545760405162461bcd60e51b815260206004820152602660248201527f5461673a20546865207075626c6973686572206d75737420626520776869746560448201527f6c697374656400000000000000000000000000000000000000000000000000006064820152608401610a98565b8680611ea25760405162461bcd60e51b815260206004820152601760248201527f4e6f2074616720737472696e677320737570706c6965640000000000000000006044820152606401610a98565b8060d054611eb091906130c9565b3414611efe5760405162461bcd60e51b815260206004820152601a60248201527f5461673a20596f75206d7573742073656e6420746865206665650000000000006044820152606401610a98565b60c954600090611fbf906001600160a01b031663a88ae5b6336040516001600160e01b031960e084901b1681526001600160a01b039091166004820152602401600060405180830381865afa158015611f5b573d6000803e3d6000fd5b505050506040513d6000823e601f3d908101601f19168201604052611f8391908101906131e4565b89898080601f0160208091040260200160405190810160405280939291908181526020018383808284376000920191909152506123b892505050565b905060008267ffffffffffffffff811115611fdc57611fdc612ccf565b604051908082528060200260200182016040528015612005578160200160208202803683370190505b50905060005b838110156120745760006120438d8d8481811061202a5761202a6130e8565b905060200281019061203c91906130fe565b8b8b610919565b905080838381518110612058576120586130e8565b60209081029190910101525061206d81613252565b905061200b565b5083156120f35760cb546040517f177f2fb5000000000000000000000000000000000000000000000000000000008152600481018490526001600160a01b039091169063177f2fb590602401600060405180830381600087803b1580156120da57600080fd5b505af11580156120ee573d6000803e3d6000fd5b505050505b61210081838989896123f0565b50506001603355505050505050505050565b600081815260d4602052604081206002015461212f576000610e79565b600192915050565b60c9546001600160a01b03166324d7806c336040516001600160e01b031960e084901b1681526001600160a01b039091166004820152602401602060405180830381865afa15801561218d573d6000803e3d6000fd5b505050506040513d601f19601f820116820180604052508101906121b19190613180565b610ff85760405162461bcd60e51b815260206004820152601460248201527321b0b63632b91036bab9ba1031329030b236b4b760611b6044820152606401610a98565b60006122277f360894a13ba1a3210667c828492db98dca3e2076cc3735a920a3ca505d382bbc546001600160a01b031690565b905061223284612534565b60008351118061223f5750815b156122505761224e84846125e9565b505b7f4910fdfa16fed3260ed0e7147f7cc6da11a60208b5b9406d12a635614ffd9143805460ff166123b157805460ff191660011781556040516001600160a01b03831660248201526122fd90869060440160408051601f198184030181529190526020810180517bffffffffffffffffffffffffffffffffffffffffffffffffffffffff167f3659cfe6000000000000000000000000000000000000000000000000000000001790526125e9565b50805460ff191681557f360894a13ba1a3210667c828492db98dca3e2076cc3735a920a3ca505d382bbc546001600160a01b038381169116146123a85760405162461bcd60e51b815260206004820152602f60248201527f45524331393637557067726164653a207570677261646520627265616b73206660448201527f75727468657220757067726164657300000000000000000000000000000000006064820152608401610a98565b6123b1856126e2565b5050505050565b6000806123c58484611486565b600081815260d46020526040902060020154909150156123e6579050610e79565b6117258484612722565b6040805160208082018790526bffffffffffffffffffffffff19606087811b82168486015286811b8216605485015285901b1660688301528251808303605c018152607c90920190925280519101206000906040805160a08101825288815260208082018990526001600160a01b0380881683850152888116606084015286166080830152600084815260d3825292909220815180519495509193909261249b92849291019061285c565b5060208281015160018301556040808401516002840180546001600160a01b03199081166001600160a01b03938416179091556060860151600386018054831691841691909117905560809095015160049094018054909516931692909217909255518281527f81b185c481377e520177bddb63bab2a8d220831d7c07b748c2baf29c6e607070910160405180910390a1505050505050565b803b6125a85760405162461bcd60e51b815260206004820152602d60248201527f455243313936373a206e657720696d706c656d656e746174696f6e206973206e60448201527f6f74206120636f6e7472616374000000000000000000000000000000000000006064820152608401610a98565b7f360894a13ba1a3210667c828492db98dca3e2076cc3735a920a3ca505d382bbc80546001600160a01b0319166001600160a01b0392909216919091179055565b6060823b61265f5760405162461bcd60e51b815260206004820152602660248201527f416464726573733a2064656c65676174652063616c6c20746f206e6f6e2d636f60448201527f6e747261637400000000000000000000000000000000000000000000000000006064820152608401610a98565b600080846001600160a01b03168460405161267a919061326d565b600060405180830381855af49150503d80600081146126b5576040519150601f19603f3d011682016040523d82523d6000602084013e6126ba565b606091505b5091509150610a46828260405180606001604052806027815260200161328a6027913961281c565b6126eb81612534565b6040516001600160a01b038216907fbc7cd75a20ee27fd9adebab32041f755214dbc6bffa90cc0225b39da2e5c2d3b90600090a250565b60008061272f8484611486565b6040805160c08101825286815260208082018790524282840152600060608301819052608083018190528351808301855281815260a084015284815260d4825292909220815180519495509193909261278c92849291019061291b565b5060208281015180516127a5926001850192019061291b565b5060408201516002820155606082015160038201556080820151600482015560a082015180516127df91600584019160209091019061291b565b50506040518281527f503a6e6145f2d2a2a9b0845c2193aef653400c52f93b1c897bd55d36a396be7c915060200160405180910390a19392505050565b6060831561282b575081612855565b82511561283b5782518084602001fd5b8160405162461bcd60e51b8152600401610a989190612e99565b9392505050565b828054828255906000526020600020908101928215612897579160200282015b8281111561289757825182559160200191906001019061287c565b506128a392915061298e565b5090565b8280546128b390613145565b90600052602060002090601f0160209004810192826128d55760008555612897565b82601f106128ee5782800160ff19823516178555612897565b82800160010185558215612897579182015b82811115612897578235825591602001919060010190612900565b82805461292790613145565b90600052602060002090601f0160209004810192826129495760008555612897565b82601f1061296257805160ff1916838001178555612897565b82800160010185558215612897579182018281111561289757825182559160200191906001019061287c565b5b808211156128a3576000815560010161298f565b6001600160a01b0381168114610ff857600080fd5b600080600080608085870312156129ce57600080fd5b8435935060208501356129e0816129a3565b925060408501356129f0816129a3565b91506060850135612a00816129a3565b939692955090935050565b60a0808252865190820181905260009060209060c0840190828a01845b82811015612a4457815184529284019290840190600101612a28565b50505090830196909652506001600160a01b0393841660408201529183166060830152909116608090910152919050565b60008083601f840112612a8757600080fd5b50813567ffffffffffffffff811115612a9f57600080fd5b602083019150836020828501011115612ab757600080fd5b9250929050565b60008060008060608587031215612ad457600080fd5b843567ffffffffffffffff811115612aeb57600080fd5b612af787828801612a75565b9095509350506020850135612b0b816129a3565b91506040850135612a00816129a3565b60008083601f840112612b2d57600080fd5b50813567ffffffffffffffff811115612b4557600080fd5b6020830191508360208260051b8501011115612ab757600080fd5b600080600060408486031215612b7557600080fd5b83359250602084013567ffffffffffffffff811115612b9357600080fd5b612b9f86828701612b1b565b9497909650939450505050565b600060208284031215612bbe57600080fd5b5035919050565b60005b83811015612be0578181015183820152602001612bc8565b83811115612bef576000848401525b50505050565b60008151808452612c0d816020860160208601612bc5565b601f01601f19169290920160200192915050565b60c081526000612c3460c0830189612bf5565b8281036020840152612c468189612bf5565b905086604084015285606084015284608084015282810360a0840152612c6c8185612bf5565b9998505050505050505050565b600060208284031215612c8b57600080fd5b8135612855816129a3565b60008060408385031215612ca957600080fd5b8235612cb4816129a3565b91506020830135612cc4816129a3565b809150509250929050565b634e487b7160e01b600052604160045260246000fd5b604051601f8201601f1916810167ffffffffffffffff81118282101715612d0e57612d0e612ccf565b604052919050565b600067ffffffffffffffff821115612d3057612d30612ccf565b50601f01601f191660200190565b6000612d51612d4c84612d16565b612ce5565b9050828152838383011115612d6557600080fd5b828260208301376000602084830101529392505050565b60008060408385031215612d8f57600080fd5b8235612d9a816129a3565b9150602083013567ffffffffffffffff811115612db657600080fd5b8301601f81018513612dc757600080fd5b612dd685823560208401612d3e565b9150509250929050565b600080600080600080600080600060c08a8c031215612dfe57600080fd5b8935985060208a013567ffffffffffffffff80821115612e1d57600080fd5b612e298d838e01612a75565b909a50985060408c0135915080821115612e4257600080fd5b612e4e8d838e01612a75565b909850965060608c0135955060808c0135945060a08c0135915080821115612e7557600080fd5b50612e828c828d01612a75565b915080935050809150509295985092959850929598565b6020815260006128556020830184612bf5565b600082601f830112612ebd57600080fd5b61285583833560208501612d3e565b60008060408385031215612edf57600080fd5b823567ffffffffffffffff80821115612ef757600080fd5b612f0386838701612eac565b93506020850135915080821115612f1957600080fd5b50612dd685828601612eac565b60008060408385031215612f3957600080fd5b50508035926020909101359150565b8015158114610ff857600080fd5b60008060008060008060008060c0898b031215612f7257600080fd5b883567ffffffffffffffff80821115612f8a57600080fd5b612f968c838d01612b1b565b909a50985060208b0135915080821115612faf57600080fd5b50612fbc8b828c01612a75565b9097509550506040890135612fd0816129a3565b93506060890135612fe0816129a3565b92506080890135612ff0816129a3565b915060a089013561300081612f48565b809150509295985092959890939650565b81835281816020850137506000828201602090810191909152601f909101601f19169091010190565b602081526000611725602083018486613011565b60006020828403121561306057600080fd5b5051919050565b60608152600061307b606083018688613011565b6001600160a01b039485166020840152929093166040909101529392505050565b634e487b7160e01b600052601160045260246000fd5b6000828210156130c4576130c461309c565b500390565b60008160001904831182151516156130e3576130e361309c565b500290565b634e487b7160e01b600052603260045260246000fd5b6000808335601e1984360301811261311557600080fd5b83018035915067ffffffffffffffff82111561313057600080fd5b602001915036819003821315612ab757600080fd5b600181811c9082168061315957607f821691505b6020821081141561317a57634e487b7160e01b600052602260045260246000fd5b50919050565b60006020828403121561319257600080fd5b815161285581612f48565b600083516131af818460208801612bc5565b8351908301906131c3818360208801612bc5565b01949350505050565b600082198211156131df576131df61309c565b500190565b6000602082840312156131f657600080fd5b815167ffffffffffffffff81111561320d57600080fd5b8201601f8101841361321e57600080fd5b805161322c612d4c82612d16565b81815285602083850101111561324157600080fd5b610a46826020830160208601612bc5565b60006000198214156132665761326661309c565b5060010190565b6000825161327f818460208701612bc5565b919091019291505056fe416464726573733a206c6f772d6c6576656c2064656c65676174652063616c6c206661696c6564a2646970667358221220fe01a4a5af0337aabbd6ef1d096eb163f71592b367f3e386bd125fdf42cd6a0064736f6c634300080c0033",
  "linkReferences": {},
  "deployedLinkReferences": {}
}