{
  "_format": "hh-sol-artifact-1",
  "contractName": "ETSUpgrade",
  "sourceName": "contracts/utils/UUPS/UUPSTesting.sol",
  "abi": [
    {
      "anonymous": false,
      "inputs": [
        {
          "indexed": false,
          "internalType": "address",
          "name": "previousAccessControls",
          "type": "address"
        },
        {
          "indexed": false,
          "internalType": "address",
          "name": "newAccessControls",
          "type": "address"
        }
      ],
      "name": "AccessControlsUpdated",
      "type": "event"
    },
    {
      "anonymous": false,
      "inputs": [
        {
          "indexed": false,
          "internalType": "address",
          "name": "previousAdmin",
          "type": "address"
        },
        {
          "indexed": false,
          "internalType": "address",
          "name": "newAdmin",
          "type": "address"
        }
      ],
      "name": "AdminChanged",
      "type": "event"
    },
    {
      "anonymous": false,
      "inputs": [
        {
          "indexed": true,
          "internalType": "address",
          "name": "beacon",
          "type": "address"
        }
      ],
      "name": "BeaconUpgraded",
      "type": "event"
    },
    {
      "anonymous": false,
      "inputs": [
        {
          "indexed": false,
          "internalType": "address",
          "name": "previousETSEnsure",
          "type": "address"
        },
        {
          "indexed": false,
          "internalType": "address",
          "name": "newETSEnsure",
          "type": "address"
        }
      ],
      "name": "ETSEnsureUpdated",
      "type": "event"
    },
    {
      "anonymous": false,
      "inputs": [
        {
          "indexed": true,
          "internalType": "address",
          "name": "who",
          "type": "address"
        },
        {
          "indexed": false,
          "internalType": "uint256",
          "name": "amount",
          "type": "uint256"
        }
      ],
      "name": "FundsWithdrawn",
      "type": "event"
    },
    {
      "anonymous": false,
      "inputs": [
        {
          "indexed": false,
          "internalType": "uint256",
          "name": "platformPercentage",
          "type": "uint256"
        },
        {
          "indexed": false,
          "internalType": "uint256",
          "name": "publisherPercentage",
          "type": "uint256"
        },
        {
          "indexed": false,
          "internalType": "uint256",
          "name": "remainingPercentage",
          "type": "uint256"
        }
      ],
      "name": "PercentagesSet",
      "type": "event"
    },
    {
      "anonymous": false,
      "inputs": [
        {
          "indexed": false,
          "internalType": "uint256",
          "name": "nftChainId",
          "type": "uint256"
        },
        {
          "indexed": false,
          "internalType": "bool",
          "name": "setting",
          "type": "bool"
        }
      ],
      "name": "PermittedNftChainIdSet",
      "type": "event"
    },
    {
      "anonymous": false,
      "inputs": [
        {
          "indexed": false,
          "internalType": "uint256",
          "name": "targetId",
          "type": "uint256"
        }
      ],
      "name": "RequestEnsureTarget",
      "type": "event"
    },
    {
      "anonymous": false,
      "inputs": [
        {
          "indexed": false,
          "internalType": "uint256",
          "name": "previousFee",
          "type": "uint256"
        },
        {
          "indexed": false,
          "internalType": "uint256",
          "name": "taggingFee",
          "type": "uint256"
        }
      ],
      "name": "TaggingFeeSet",
      "type": "event"
    },
    {
      "anonymous": false,
      "inputs": [
        {
          "indexed": false,
          "internalType": "uint256",
          "name": "targetId",
          "type": "uint256"
        }
      ],
      "name": "TargetCreated",
      "type": "event"
    },
    {
      "anonymous": false,
      "inputs": [
        {
          "indexed": false,
          "internalType": "uint256",
          "name": "taggingId",
          "type": "uint256"
        }
      ],
      "name": "TargetTagged",
      "type": "event"
    },
    {
      "anonymous": false,
      "inputs": [
        {
          "indexed": false,
          "internalType": "string",
          "name": "typeName",
          "type": "string"
        },
        {
          "indexed": false,
          "internalType": "bool",
          "name": "setting",
          "type": "bool"
        }
      ],
      "name": "TargetTypeSet",
      "type": "event"
    },
    {
      "anonymous": false,
      "inputs": [
        {
          "indexed": false,
          "internalType": "uint256",
          "name": "targetId",
          "type": "uint256"
        }
      ],
      "name": "TargetUpdated",
      "type": "event"
    },
    {
      "anonymous": false,
      "inputs": [
        {
          "indexed": true,
          "internalType": "address",
          "name": "implementation",
          "type": "address"
        }
      ],
      "name": "Upgraded",
      "type": "event"
    },
    {
      "inputs": [],
      "name": "NAME",
      "outputs": [
        {
          "internalType": "string",
          "name": "",
          "type": "string"
        }
      ],
      "stateMutability": "view",
      "type": "function"
    },
    {
      "inputs": [],
      "name": "VERSION",
      "outputs": [
        {
          "internalType": "string",
          "name": "",
          "type": "string"
        }
      ],
      "stateMutability": "view",
      "type": "function"
    },
    {
      "inputs": [
        {
          "internalType": "string",
          "name": "_targetType",
          "type": "string"
        },
        {
          "internalType": "string",
          "name": "_targetURI",
          "type": "string"
        }
      ],
      "name": "_getTargetId",
      "outputs": [
        {
          "internalType": "uint256",
          "name": "targetId",
          "type": "uint256"
        }
      ],
      "stateMutability": "nonpayable",
      "type": "function"
    },
    {
      "inputs": [],
      "name": "accessControls",
      "outputs": [
        {
          "internalType": "contract ETSAccessControls",
          "name": "",
          "type": "address"
        }
      ],
      "stateMutability": "view",
      "type": "function"
    },
    {
      "inputs": [
        {
          "internalType": "address",
          "name": "",
          "type": "address"
        }
      ],
      "name": "accrued",
      "outputs": [
        {
          "internalType": "uint256",
          "name": "",
          "type": "uint256"
        }
      ],
      "stateMutability": "view",
      "type": "function"
    },
    {
      "inputs": [
        {
          "internalType": "address payable",
          "name": "_account",
          "type": "address"
        }
      ],
      "name": "drawDown",
      "outputs": [],
      "stateMutability": "nonpayable",
      "type": "function"
    },
    {
      "inputs": [],
      "name": "etsEnsure",
      "outputs": [
        {
          "internalType": "contract ETSEnsure",
          "name": "",
          "type": "address"
        }
      ],
      "stateMutability": "view",
      "type": "function"
    },
    {
      "inputs": [],
      "name": "etsTag",
      "outputs": [
        {
          "internalType": "contract ETSTag",
          "name": "",
          "type": "address"
        }
      ],
      "stateMutability": "view",
      "type": "function"
    },
    {
      "inputs": [
        {
          "internalType": "string",
          "name": "_tagString",
          "type": "string"
        },
        {
          "internalType": "address payable",
          "name": "_publisher",
          "type": "address"
        },
        {
          "internalType": "address",
          "name": "_tagger",
          "type": "address"
        }
      ],
      "name": "getOrCreateTagId",
      "outputs": [
        {
          "internalType": "uint256",
          "name": "etstagId",
          "type": "uint256"
        }
      ],
      "stateMutability": "payable",
      "type": "function"
    },
    {
      "inputs": [
        {
          "internalType": "uint256",
          "name": "_nftChainId",
          "type": "uint256"
        }
      ],
      "name": "getPermittedNftChainId",
      "outputs": [
        {
          "internalType": "bool",
          "name": "",
          "type": "bool"
        }
      ],
      "stateMutability": "view",
      "type": "function"
    },
    {
      "inputs": [
        {
          "internalType": "uint256",
          "name": "_taggingId",
          "type": "uint256"
        }
      ],
      "name": "getTaggingRecord",
      "outputs": [
        {
          "internalType": "uint256[]",
          "name": "_etsTagIds",
          "type": "uint256[]"
        },
        {
          "internalType": "uint256",
          "name": "_targetId",
          "type": "uint256"
        },
        {
          "internalType": "address",
          "name": "_tagger",
          "type": "address"
        },
        {
          "internalType": "address",
          "name": "_publisher",
          "type": "address"
        },
        {
          "internalType": "address",
          "name": "_sponsor",
          "type": "address"
        }
      ],
      "stateMutability": "view",
      "type": "function"
    },
    {
      "inputs": [
        {
          "internalType": "contract ETSAccessControls",
          "name": "_accessControls",
          "type": "address"
        },
        {
          "internalType": "contract ETSTag",
          "name": "_etsTag",
          "type": "address"
        }
      ],
      "name": "initialize",
      "outputs": [],
      "stateMutability": "nonpayable",
      "type": "function"
    },
    {
      "inputs": [
        {
          "internalType": "uint256",
          "name": "_targetId",
          "type": "uint256"
        }
      ],
      "name": "isTargetEnsured",
      "outputs": [
        {
          "internalType": "bool",
          "name": "",
          "type": "bool"
        }
      ],
      "stateMutability": "view",
      "type": "function"
    },
    {
      "inputs": [],
      "name": "modulo",
      "outputs": [
        {
          "internalType": "uint256",
          "name": "",
          "type": "uint256"
        }
      ],
      "stateMutability": "view",
      "type": "function"
    },
    {
      "inputs": [
        {
          "internalType": "address",
          "name": "",
          "type": "address"
        }
      ],
      "name": "paid",
      "outputs": [
        {
          "internalType": "uint256",
          "name": "",
          "type": "uint256"
        }
      ],
      "stateMutability": "view",
      "type": "function"
    },
    {
      "inputs": [
        {
          "internalType": "uint256",
          "name": "",
          "type": "uint256"
        }
      ],
      "name": "permittedNftChainIds",
      "outputs": [
        {
          "internalType": "bool",
          "name": "",
          "type": "bool"
        }
      ],
      "stateMutability": "view",
      "type": "function"
    },
    {
      "inputs": [],
      "name": "platformPercentage",
      "outputs": [
        {
          "internalType": "uint256",
          "name": "",
          "type": "uint256"
        }
      ],
      "stateMutability": "view",
      "type": "function"
    },
    {
      "inputs": [],
      "name": "publisherPercentage",
      "outputs": [
        {
          "internalType": "uint256",
          "name": "",
          "type": "uint256"
        }
      ],
      "stateMutability": "view",
      "type": "function"
    },
    {
      "inputs": [],
      "name": "remainingPercentage",
      "outputs": [
        {
          "internalType": "uint256",
          "name": "",
          "type": "uint256"
        }
      ],
      "stateMutability": "view",
      "type": "function"
    },
    {
      "inputs": [
        {
          "internalType": "uint256",
          "name": "_nftChainId",
          "type": "uint256"
        },
        {
          "internalType": "bool",
          "name": "_setting",
          "type": "bool"
        }
      ],
      "name": "setPermittedNftChainId",
      "outputs": [],
      "stateMutability": "nonpayable",
      "type": "function"
    },
    {
      "inputs": [
        {
          "internalType": "uint256",
          "name": "_fee",
          "type": "uint256"
        }
      ],
      "name": "setTaggingFee",
      "outputs": [],
      "stateMutability": "nonpayable",
      "type": "function"
    },
    {
      "inputs": [
        {
          "internalType": "string[]",
          "name": "_tags",
          "type": "string[]"
        },
        {
          "internalType": "string",
          "name": "_targetURI",
          "type": "string"
        },
        {
          "internalType": "address payable",
          "name": "_publisher",
          "type": "address"
        },
        {
          "internalType": "address",
          "name": "_tagger",
          "type": "address"
        },
        {
          "internalType": "address",
          "name": "_sponsor",
          "type": "address"
        },
        {
          "internalType": "bool",
          "name": "_ensure",
          "type": "bool"
        }
      ],
      "name": "tagTarget",
      "outputs": [],
      "stateMutability": "payable",
      "type": "function"
    },
    {
      "inputs": [],
      "name": "taggingCounter",
      "outputs": [
        {
          "internalType": "uint256",
          "name": "",
          "type": "uint256"
        }
      ],
      "stateMutability": "view",
      "type": "function"
    },
    {
      "inputs": [],
      "name": "taggingFee",
      "outputs": [
        {
          "internalType": "uint256",
          "name": "",
          "type": "uint256"
        }
      ],
      "stateMutability": "view",
      "type": "function"
    },
    {
      "inputs": [
        {
          "internalType": "uint256",
          "name": "",
          "type": "uint256"
        }
      ],
      "name": "taggingRecords",
      "outputs": [
        {
          "internalType": "uint256",
          "name": "targetId",
          "type": "uint256"
        },
        {
          "internalType": "address",
          "name": "tagger",
          "type": "address"
        },
        {
          "internalType": "address",
          "name": "publisher",
          "type": "address"
        },
        {
          "internalType": "address",
          "name": "sponsor",
          "type": "address"
        }
      ],
      "stateMutability": "view",
      "type": "function"
    },
    {
      "inputs": [
        {
          "internalType": "uint256",
          "name": "targetId",
          "type": "uint256"
        }
      ],
      "name": "targetExists",
      "outputs": [
        {
          "internalType": "bool",
          "name": "",
          "type": "bool"
        }
      ],
      "stateMutability": "view",
      "type": "function"
    },
    {
      "inputs": [
        {
          "internalType": "uint256",
          "name": "",
          "type": "uint256"
        }
      ],
      "name": "targets",
      "outputs": [
        {
          "internalType": "string",
          "name": "targetType",
          "type": "string"
        },
        {
          "internalType": "string",
          "name": "targetURI",
          "type": "string"
        },
        {
          "internalType": "uint256",
          "name": "created",
          "type": "uint256"
        },
        {
          "internalType": "uint256",
          "name": "lastEnsured",
          "type": "uint256"
        },
        {
          "internalType": "uint256",
          "name": "status",
          "type": "uint256"
        },
        {
          "internalType": "string",
          "name": "ipfsHash",
          "type": "string"
        }
      ],
      "stateMutability": "view",
      "type": "function"
    },
    {
      "inputs": [
        {
          "internalType": "address",
          "name": "_account",
          "type": "address"
        }
      ],
      "name": "totalDue",
      "outputs": [
        {
          "internalType": "uint256",
          "name": "_due",
          "type": "uint256"
        }
      ],
      "stateMutability": "view",
      "type": "function"
    },
    {
      "inputs": [
        {
          "internalType": "contract ETSAccessControls",
          "name": "_accessControls",
          "type": "address"
        }
      ],
      "name": "updateAccessControls",
      "outputs": [],
      "stateMutability": "nonpayable",
      "type": "function"
    },
    {
      "inputs": [
        {
          "internalType": "contract ETSEnsure",
          "name": "_etsEnsure",
          "type": "address"
        }
      ],
      "name": "updateETSEnsure",
      "outputs": [],
      "stateMutability": "nonpayable",
      "type": "function"
    },
    {
      "inputs": [
        {
          "internalType": "uint256",
          "name": "_platformPercentage",
          "type": "uint256"
        },
        {
          "internalType": "uint256",
          "name": "_publisherPercentage",
          "type": "uint256"
        }
      ],
      "name": "updatePercentages",
      "outputs": [],
      "stateMutability": "nonpayable",
      "type": "function"
    },
    {
      "inputs": [
        {
          "internalType": "uint256",
          "name": "_targetId",
          "type": "uint256"
        },
        {
          "internalType": "string",
          "name": "_targetType",
          "type": "string"
        },
        {
          "internalType": "string",
          "name": "_targetURI",
          "type": "string"
        },
        {
          "internalType": "uint256",
          "name": "_lastEnsured",
          "type": "uint256"
        },
        {
          "internalType": "uint256",
          "name": "_status",
          "type": "uint256"
        },
        {
          "internalType": "string",
          "name": "_ipfsHash",
          "type": "string"
        }
      ],
      "name": "updateTarget",
      "outputs": [
        {
          "internalType": "bool",
          "name": "success",
          "type": "bool"
        }
      ],
      "stateMutability": "nonpayable",
      "type": "function"
    },
    {
      "inputs": [],
      "name": "upgradeTest",
      "outputs": [
        {
          "internalType": "bool",
          "name": "",
          "type": "bool"
        }
      ],
      "stateMutability": "pure",
      "type": "function"
    },
    {
      "inputs": [
        {
          "internalType": "address",
          "name": "newImplementation",
          "type": "address"
        }
      ],
      "name": "upgradeTo",
      "outputs": [],
      "stateMutability": "nonpayable",
      "type": "function"
    },
    {
      "inputs": [
        {
          "internalType": "address",
          "name": "newImplementation",
          "type": "address"
        },
        {
          "internalType": "bytes",
          "name": "data",
          "type": "bytes"
        }
      ],
      "name": "upgradeToAndCall",
      "outputs": [],
      "stateMutability": "payable",
      "type": "function"
    },
    {
      "inputs": [],
      "name": "version",
      "outputs": [
        {
          "internalType": "string",
          "name": "",
          "type": "string"
        }
      ],
      "stateMutability": "pure",
      "type": "function"
    }
  ],
  "bytecode": "0x60a06040523060805234801561001457600080fd5b506080516132b8610045600039600081816109ef01528181610a7901528181610c890152610d0e01526132b86000f3fe60806040526004361061024f5760003560e01c80637e2e4c5211610138578063c2062005116100b0578063e88b772c1161007f578063fe52656f11610064578063fe52656f1461076a578063fed6c2e914610780578063ffa1ad741461079357600080fd5b8063e88b772c14610734578063f8bc3cc61461074a57600080fd5b8063c2062005146106af578063c20d2295146106cf578063ce0e0eed146106ef578063d64f55c91461072157600080fd5b8063a97dda4011610107578063b148440f116100ec578063b148440f14610642578063b205f8081461066f578063b7d0e7dd1461068f57600080fd5b8063a97dda4014610602578063af75e81d1461062257600080fd5b80637e2e4c5214610556578063962ed2321461056c578063a340cf791461058c578063a3f4df7e146105b957600080fd5b80633d20b15c116101cb578063507f3ba11161019a5780636ef3da941161017f5780636ef3da941461047b57806374716c811461049b578063748365ef1461051e57600080fd5b8063507f3ba11461042457806354fd4d501461044457600080fd5b80633d20b15c146103ac578063485cc955146103c05780634f1ef286146103e0578063501a323a146103f357600080fd5b80631f741897116102225780632974526211610207578063297452621461035f578063337ccf9d146103745780633659cfe61461038a57600080fd5b80631f74189714610319578063200e06af1461032f57600080fd5b80630477fe28146102545780630a39ce02146102895780630ad2f0c3146102bb5780631797df59146102e9575b600080fd5b34801561026057600080fd5b5061027461026f36600461297f565b6107c4565b60405190151581526020015b60405180910390f35b34801561029557600080fd5b506102a96102a436600461297f565b6107ea565b604051610280969594939291906129f0565b3480156102c757600080fd5b506102db6102d6366004612a6d565b6109b6565b604051908152602001610280565b3480156102f557600080fd5b5061027461030436600461297f565b600090815260d3602052604090205460ff1690565b34801561032557600080fd5b506102db60cc5481565b34801561033b57600080fd5b5061027461034a36600461297f565b60d36020526000908152604090205460ff1681565b34801561036b57600080fd5b506102db606481565b34801561038057600080fd5b506102db60ce5481565b34801561039657600080fd5b506103aa6103a5366004612a6d565b6109e4565b005b3480156103b857600080fd5b506001610274565b3480156103cc57600080fd5b506103aa6103db366004612a8a565b610b65565b6103aa6103ee366004612b70565b610c7e565b3480156103ff57600080fd5b5061041361040e36600461297f565b610deb565b604051610280959493929190612bd4565b34801561043057600080fd5b5061027461043f366004612c87565b610e91565b34801561045057600080fd5b50604080518082019091526005815264302e302e3160d81b60208201525b6040516102809190612d40565b34801561048757600080fd5b506103aa610496366004612a6d565b610f36565b3480156104a757600080fd5b506104ef6104b636600461297f565b60d460205260009081526040902060018101546002820154600383015460049093015491926001600160a01b0391821692908216911684565b604080519485526001600160a01b03938416602086015291831691840191909152166060820152608001610280565b34801561052a57600080fd5b5060c95461053e906001600160a01b031681565b6040516001600160a01b039091168152602001610280565b34801561056257600080fd5b506102db60cd5481565b34801561057857600080fd5b506103aa61058736600461297f565b6110d1565b34801561059857600080fd5b506102db6105a7366004612a6d565b60d26020526000908152604090205481565b3480156105c557600080fd5b5061046e6040518060400160405280600881526020017f45545320436f726500000000000000000000000000000000000000000000000081525081565b34801561060e57600080fd5b506103aa61061d366004612d6c565b6111cc565b34801561062e57600080fd5b506102db61063d366004612db1565b6112db565b34801561064e57600080fd5b506102db61065d366004612a6d565b60d16020526000908152604090205481565b34801561067b57600080fd5b506103aa61068a366004612a6d565b61131b565b34801561069b57600080fd5b5060cb5461053e906001600160a01b031681565b3480156106bb57600080fd5b506103aa6106ca366004612a6d565b6114ae565b3480156106db57600080fd5b506103aa6106ea366004612e0b565b611604565b3480156106fb57600080fd5b5061027461070a36600461297f565b600090815260d56020526040902060030154151590565b6103aa61072f366004612e2d565b6117ab565b34801561074057600080fd5b506102db60cf5481565b34801561075657600080fd5b5060ca5461053e906001600160a01b031681565b34801561077657600080fd5b506102db60d05481565b6102db61078e366004612f0d565b611ca0565b34801561079f57600080fd5b5061046e60405180604001604052806005815260200164302e302e3160d81b81525081565b600081815260d560205260408120600201546107e15760006107e4565b60015b92915050565b60d56020526000908152604090208054819061080590612f75565b80601f016020809104026020016040519081016040528092919081815260200182805461083190612f75565b801561087e5780601f106108535761010080835404028352916020019161087e565b820191906000526020600020905b81548152906001019060200180831161086157829003601f168201915b50505050509080600101805461089390612f75565b80601f01602080910402602001604051908101604052809291908181526020018280546108bf90612f75565b801561090c5780601f106108e15761010080835404028352916020019161090c565b820191906000526020600020905b8154815290600101906020018083116108ef57829003601f168201915b50505050509080600201549080600301549080600401549080600501805461093390612f75565b80601f016020809104026020016040519081016040528092919081815260200182805461095f90612f75565b80156109ac5780601f10610981576101008083540402835291602001916109ac565b820191906000526020600020905b81548152906001019060200180831161098f57829003601f168201915b5050505050905086565b6001600160a01b038116600090815260d2602090815260408083205460d19092528220546107e49190612fc6565b306001600160a01b037f0000000000000000000000000000000000000000000000000000000000000000161415610a775760405162461bcd60e51b815260206004820152602c60248201527f46756e6374696f6e206d7573742062652063616c6c6564207468726f7567682060448201526b19195b1959d85d1958d85b1b60a21b60648201526084015b60405180910390fd5b7f00000000000000000000000000000000000000000000000000000000000000006001600160a01b0316610ad27f360894a13ba1a3210667c828492db98dca3e2076cc3735a920a3ca505d382bbc546001600160a01b031690565b6001600160a01b031614610b3d5760405162461bcd60e51b815260206004820152602c60248201527f46756e6374696f6e206d7573742062652063616c6c6564207468726f7567682060448201526b6163746976652070726f787960a01b6064820152608401610a6e565b610b4681611dd6565b60408051600080825260208201909252610b6291839190611e93565b50565b600054610100900460ff16610b805760005460ff1615610b84565b303b155b610bf65760405162461bcd60e51b815260206004820152602e60248201527f496e697469616c697a61626c653a20636f6e747261637420697320616c72656160448201527f647920696e697469616c697a65640000000000000000000000000000000000006064820152608401610a6e565b600054610100900460ff16158015610c18576000805461ffff19166101011790555b60c980546001600160a01b038086166001600160a01b03199283161790925560ca805492851692909116919091179055600060cf5566038d7ea4c6800060d055601460cc55601e60cd55603260ce558015610c79576000805461ff00191690555b505050565b306001600160a01b037f0000000000000000000000000000000000000000000000000000000000000000161415610d0c5760405162461bcd60e51b815260206004820152602c60248201527f46756e6374696f6e206d7573742062652063616c6c6564207468726f7567682060448201526b19195b1959d85d1958d85b1b60a21b6064820152608401610a6e565b7f00000000000000000000000000000000000000000000000000000000000000006001600160a01b0316610d677f360894a13ba1a3210667c828492db98dca3e2076cc3735a920a3ca505d382bbc546001600160a01b031690565b6001600160a01b031614610dd25760405162461bcd60e51b815260206004820152602c60248201527f46756e6374696f6e206d7573742062652063616c6c6564207468726f7567682060448201526b6163746976652070726f787960a01b6064820152608401610a6e565b610ddb82611dd6565b610de782826001611e93565b5050565b600081815260d46020908152604080832060018101546002820154600383015460048401548454865181890281018901909752808752606098978897889788979096879691956001600160a01b039182169592821694911692918791830182828015610e7657602002820191906000526020600020905b815481526020019060010190808311610e62575b50505050509450955095509550955095505091939590929450565b600089815260d560205260408120610eaa908a8a612838565b5060008a815260d560205260409020610ec7906001018888612838565b5060008a815260d5602052604090206003810186905560048101859055610ef2906005018484612838565b506040518a81527f9d29e5045b411bb06d81d8ff11c828d9f1d7eb076eec9ca45eda49fc99f762b29060200160405180910390a15060019998505050505050505050565b60c9546001600160a01b03166324d7806c336040516001600160e01b031960e084901b1681526001600160a01b039091166004820152602401602060405180830381865afa158015610f8c573d6000803e3d6000fd5b505050506040513d601f19601f82011682018060405250810190610fb09190612fdd565b610ff35760405162461bcd60e51b815260206004820152601460248201527321b0b63632b91036bab9ba1031329030b236b4b760611b6044820152606401610a6e565b6001600160a01b03811661106f5760405162461bcd60e51b815260206004820152602860248201527f4554532e757064617465416363657373436f6e74726f6c733a2043616e6e6f7460448201527f206265207a65726f0000000000000000000000000000000000000000000000006064820152608401610a6e565b60c980546001600160a01b038381166001600160a01b031983168117909355604080519190921680825260208201939093527f31073599bfae2533a348dc816b0ce777b707aa9b67015ca2d86585e842b5c6e991015b60405180910390a15050565b60c9546001600160a01b03166324d7806c336040516001600160e01b031960e084901b1681526001600160a01b039091166004820152602401602060405180830381865afa158015611127573d6000803e3d6000fd5b505050506040513d601f19601f8201168201806040525081019061114b9190612fdd565b61118e5760405162461bcd60e51b815260206004820152601460248201527321b0b63632b91036bab9ba1031329030b236b4b760611b6044820152606401610a6e565b60d080549082905560408051828152602081018490527f861fa8a0dab775faf9bcbb5388a02f7ac01181c036f5c57982464a2d75c3608e91016110c5565b60c9546001600160a01b03166324d7806c336040516001600160e01b031960e084901b1681526001600160a01b039091166004820152602401602060405180830381865afa158015611222573d6000803e3d6000fd5b505050506040513d601f19601f820116820180604052508101906112469190612fdd565b6112895760405162461bcd60e51b815260206004820152601460248201527321b0b63632b91036bab9ba1031329030b236b4b760611b6044820152606401610a6e565b600082815260d36020908152604091829020805460ff19168415159081179091558251858152918201527f9a1b1e3722de574f6867ada1474b42b28458b0d93fc376664c96cb084b92118191016110c5565b6000806112e88484612057565b600081815260d56020526040902060020154909150156113095790506107e4565b611313848461208d565b949350505050565b60c9546001600160a01b03166324d7806c336040516001600160e01b031960e084901b1681526001600160a01b039091166004820152602401602060405180830381865afa158015611371573d6000803e3d6000fd5b505050506040513d601f19601f820116820180604052508101906113959190612fdd565b6113d85760405162461bcd60e51b815260206004820152601460248201527321b0b63632b91036bab9ba1031329030b236b4b760611b6044820152606401610a6e565b6001600160a01b0381166114545760405162461bcd60e51b815260206004820152602360248201527f4554532e757064617465455453456e737572653a2043616e6e6f74206265207a60448201527f65726f00000000000000000000000000000000000000000000000000000000006064820152608401610a6e565b60cb80546001600160a01b038381166001600160a01b031983168117909355604080519190921680825260208201939093527fee20190c374934660675d28472968e002fc4af227f2956f59085225ad89239fa91016110c5565b600260335414156115015760405162461bcd60e51b815260206004820152601f60248201527f5265656e7472616e637947756172643a207265656e7472616e742063616c6c006044820152606401610a6e565b60026033556001600160a01b038116600090815260d2602090815260408083205460d19092528220546115349190612fc6565b90506000811180156115465750478111155b156115fb576001600160a01b038216600090815260d2602052604090205461156f908290612ffa565b6001600160a01b038316600081815260d26020526040808220939093559151909183156108fc02918491818181858888f193505050501580156115b6573d6000803e3d6000fd5b50816001600160a01b03167feaff4b37086828766ad3268786972c0cd24259d4c87a80f9d3963a3c3d999b0d826040516115f291815260200190565b60405180910390a25b50506001603355565b60c9546001600160a01b03166324d7806c336040516001600160e01b031960e084901b1681526001600160a01b039091166004820152602401602060405180830381865afa15801561165a573d6000803e3d6000fd5b505050506040513d601f19601f8201168201806040525081019061167e9190612fdd565b6116c15760405162461bcd60e51b815260206004820152601460248201527321b0b63632b91036bab9ba1031329030b236b4b760611b6044820152606401610a6e565b60646116cd8284612ffa565b11156117415760405162461bcd60e51b815260206004820152603760248201527f4554532e75706461746550657263656e74616765733a2070657263656e74616760448201527f6573206d757374206e6f74206265206f766572203130300000000000000000006064820152608401610a6e565b60cc82905560cd81905580611757836064612fc6565b6117619190612fc6565b60ce81905560cc5460cd546040805192835260208301919091528101919091527f78c1b0567e296aa5eef70ad2deee29f35e0dd128cac603be855ece3e823f4308906060016110c5565b600260335414156117fe5760405162461bcd60e51b815260206004820152601f60248201527f5265656e7472616e637947756172643a207265656e7472616e742063616c6c006044820152606401610a6e565b600260335560c9546040517f2b04fd440000000000000000000000000000000000000000000000000000000081523360048201526001600160a01b0390911690632b04fd4490602401602060405180830381865afa158015611864573d6000803e3d6000fd5b505050506040513d601f19601f820116820180604052508101906118889190612fdd565b6118d45760405162461bcd60e51b815260206004820152601060248201527f4f6e6c79207461726765742074797065000000000000000000000000000000006044820152606401610a6e565b60c9546040517f41859ac80000000000000000000000000000000000000000000000000000000081526001600160a01b038681166004830152909116906341859ac890602401602060405180830381865afa158015611937573d6000803e3d6000fd5b505050506040513d601f19601f8201168201806040525081019061195b9190612fdd565b6119cd5760405162461bcd60e51b815260206004820152602660248201527f5461673a20546865207075626c6973686572206d75737420626520776869746560448201527f6c697374656400000000000000000000000000000000000000000000000000006064820152608401610a6e565b8680611a1b5760405162461bcd60e51b815260206004820152601760248201527f4e6f2074616720737472696e677320737570706c6965640000000000000000006044820152606401610a6e565b8060d054611a299190613012565b3414611a775760405162461bcd60e51b815260206004820152601a60248201527f5461673a20596f75206d7573742073656e6420746865206665650000000000006044820152606401610a6e565b60c9546040517fa88ae5b6000000000000000000000000000000000000000000000000000000008152336004820152600091611b43916001600160a01b039091169063a88ae5b690602401600060405180830381865afa158015611adf573d6000803e3d6000fd5b505050506040513d6000823e601f3d908101601f19168201604052611b079190810190613031565b89898080601f0160208091040260200160405190810160405280939291908181526020018383808284376000920191909152506112db92505050565b905060008267ffffffffffffffff811115611b6057611b60612ac3565b604051908082528060200260200182016040528015611b89578160200160208202803683370190505b50905060005b83811015611c02576000611bc78d8d84818110611bae57611bae61309f565b9050602002810190611bc091906130b5565b8b8b611ca0565b9050611bd3818a612187565b80838381518110611be657611be661309f565b602090810291909101015250611bfb816130fc565b9050611b8f565b508315611c815760cb546040517f177f2fb5000000000000000000000000000000000000000000000000000000008152600481018490526001600160a01b039091169063177f2fb590602401600060405180830381600087803b158015611c6857600080fd5b505af1158015611c7c573d6000803e3d6000fd5b505050505b611c8e81838989896124c6565b50506001603355505050505050505050565b60ca546040517f04befefd00000000000000000000000000000000000000000000000000000000815260009182916001600160a01b03909116906304befefd90611cf09089908990600401613140565b602060405180830381865afa158015611d0d573d6000803e3d6000fd5b505050506040513d601f19601f82011682018060405250810190611d319190613154565b905080611dcd5760ca546040517f7e6d945e0000000000000000000000000000000000000000000000000000000081526001600160a01b0390911690637e6d945e90611d8790899089908990899060040161316d565b6020604051808303816000875af1158015611da6573d6000803e3d6000fd5b505050506040513d601f19601f82011682018060405250810190611dca9190613154565b90505b95945050505050565b60c9546001600160a01b03166324d7806c336040516001600160e01b031960e084901b1681526001600160a01b039091166004820152602401602060405180830381865afa158015611e2c573d6000803e3d6000fd5b505050506040513d601f19601f82011682018060405250810190611e509190612fdd565b610b625760405162461bcd60e51b815260206004820152601460248201527321b0b63632b91036bab9ba1031329030b236b4b760611b6044820152606401610a6e565b6000611ec67f360894a13ba1a3210667c828492db98dca3e2076cc3735a920a3ca505d382bbc546001600160a01b031690565b9050611ed18461260a565b600083511180611ede5750815b15611eef57611eed84846126bf565b505b7f4910fdfa16fed3260ed0e7147f7cc6da11a60208b5b9406d12a635614ffd9143805460ff1661205057805460ff191660011781556040516001600160a01b0383166024820152611f9c90869060440160408051601f198184030181529190526020810180517bffffffffffffffffffffffffffffffffffffffffffffffffffffffff167f3659cfe6000000000000000000000000000000000000000000000000000000001790526126bf565b50805460ff191681557f360894a13ba1a3210667c828492db98dca3e2076cc3735a920a3ca505d382bbc546001600160a01b038381169116146120475760405162461bcd60e51b815260206004820152602f60248201527f45524331393637557067726164653a207570677261646520627265616b73206660448201527f75727468657220757067726164657300000000000000000000000000000000006064820152608401610a6e565b612050856127b8565b5050505050565b600080838360405160200161206d9291906131a2565b60408051808303601f190181529190528051602090910120949350505050565b60008061209a8484612057565b6040805160c08101825286815260208082018790524282840152600060608301819052608083018190528351808301855281815260a084015284815260d582529290922081518051949550919390926120f79284929101906128bc565b50602082810151805161211092600185019201906128bc565b5060408201516002820155606082015160038201556080820151600482015560a0820151805161214a9160058401916020909101906128bc565b50506040518281527f503a6e6145f2d2a2a9b0845c2193aef653400c52f93b1c897bd55d36a396be7c915060200160405180910390a19392505050565b60ca546040517f878327ab0000000000000000000000000000000000000000000000000000000081526004810184905260009182916001600160a01b039091169063878327ab906024016040805180830381865afa1580156121ed573d6000803e3d6000fd5b505050506040513d601f19601f8201168201806040525081019061221191906131d1565b91509150816001600160a01b0316816001600160a01b031614156123bd57606460cc543461223f9190613012565b6122499190613200565b6001600160a01b038316600090815260d1602052604090205461226c9190612ffa565b6001600160a01b038316600090815260d1602052604090205560cd546064906122959034613012565b61229f9190613200565b6001600160a01b038416600090815260d160205260409020546122c29190612ffa565b6001600160a01b03848116600090815260d160205260408082209390935560ca5492517fa30b4db90000000000000000000000000000000000000000000000000000000081526004810188905290929091169063a30b4db990602401602060405180830381865afa15801561233b573d6000803e3d6000fd5b505050506040513d601f19601f8201168201806040525081019061235f9190613222565b9050606460ce54346123719190613012565b61237b9190613200565b6001600160a01b038216600090815260d1602052604090205461239e9190612ffa565b6001600160a01b03909116600090815260d160205260409020556124c0565b606460cc54346123cd9190613012565b6123d79190613200565b6001600160a01b038316600090815260d160205260409020546123fa9190612ffa565b6001600160a01b038316600090815260d1602052604090205560cd546064906124239034613012565b61242d9190613200565b6001600160a01b038416600090815260d160205260409020546124509190612ffa565b6001600160a01b038416600090815260d1602052604090205560ce546064906124799034613012565b6124839190613200565b6001600160a01b038216600090815260d160205260409020546124a69190612ffa565b6001600160a01b038216600090815260d160205260409020555b50505050565b60408051602081018690526bffffffffffffffffffffffff19606085811b82169383019390935285831b811660548301529183901b9091166068820152600090607c0160408051601f19818403018152828252805160209182012060a0840183528984528382018990526001600160a01b0380881685850152888116606086015286166080850152600081815260d48352929092208351805193955090926125719284920190612930565b5060208281015160018301556040808401516002840180546001600160a01b03199081166001600160a01b03938416179091556060860151600386018054831691841691909117905560809095015160049094018054909516931692909217909255518281527f81b185c481377e520177bddb63bab2a8d220831d7c07b748c2baf29c6e607070910160405180910390a1505050505050565b803b61267e5760405162461bcd60e51b815260206004820152602d60248201527f455243313936373a206e657720696d706c656d656e746174696f6e206973206e60448201527f6f74206120636f6e7472616374000000000000000000000000000000000000006064820152608401610a6e565b7f360894a13ba1a3210667c828492db98dca3e2076cc3735a920a3ca505d382bbc80546001600160a01b0319166001600160a01b0392909216919091179055565b6060823b6127355760405162461bcd60e51b815260206004820152602660248201527f416464726573733a2064656c65676174652063616c6c20746f206e6f6e2d636f60448201527f6e747261637400000000000000000000000000000000000000000000000000006064820152608401610a6e565b600080846001600160a01b031684604051612750919061323f565b600060405180830381855af49150503d806000811461278b576040519150601f19603f3d011682016040523d82523d6000602084013e612790565b606091505b5091509150611dcd828260405180606001604052806027815260200161325c602791396127f8565b6127c18161260a565b6040516001600160a01b038216907fbc7cd75a20ee27fd9adebab32041f755214dbc6bffa90cc0225b39da2e5c2d3b90600090a250565b60608315612807575081612831565b8251156128175782518084602001fd5b8160405162461bcd60e51b8152600401610a6e9190612d40565b9392505050565b82805461284490612f75565b90600052602060002090601f01602090048101928261286657600085556128ac565b82601f1061287f5782800160ff198235161785556128ac565b828001600101855582156128ac579182015b828111156128ac578235825591602001919060010190612891565b506128b892915061296a565b5090565b8280546128c890612f75565b90600052602060002090601f0160209004810192826128ea57600085556128ac565b82601f1061290357805160ff19168380011785556128ac565b828001600101855582156128ac579182015b828111156128ac578251825591602001919060010190612915565b8280548282559060005260206000209081019282156128ac57916020028201828111156128ac578251825591602001919060010190612915565b5b808211156128b8576000815560010161296b565b60006020828403121561299157600080fd5b5035919050565b60005b838110156129b357818101518382015260200161299b565b838111156124c05750506000910152565b600081518084526129dc816020860160208601612998565b601f01601f19169290920160200192915050565b60c081526000612a0360c08301896129c4565b8281036020840152612a1581896129c4565b905086604084015285606084015284608084015282810360a0840152612a3b81856129c4565b9998505050505050505050565b6001600160a01b0381168114610b6257600080fd5b8035612a6881612a48565b919050565b600060208284031215612a7f57600080fd5b813561283181612a48565b60008060408385031215612a9d57600080fd5b8235612aa881612a48565b91506020830135612ab881612a48565b809150509250929050565b634e487b7160e01b600052604160045260246000fd5b604051601f8201601f1916810167ffffffffffffffff81118282101715612b0257612b02612ac3565b604052919050565b600067ffffffffffffffff821115612b2457612b24612ac3565b50601f01601f191660200190565b6000612b45612b4084612b0a565b612ad9565b9050828152838383011115612b5957600080fd5b828260208301376000602084830101529392505050565b60008060408385031215612b8357600080fd5b8235612b8e81612a48565b9150602083013567ffffffffffffffff811115612baa57600080fd5b8301601f81018513612bbb57600080fd5b612bca85823560208401612b32565b9150509250929050565b60a0808252865190820181905260009060209060c0840190828a01845b82811015612c0d57815184529284019290840190600101612bf1565b50505090830196909652506001600160a01b0393841660408201529183166060830152909116608090910152919050565b60008083601f840112612c5057600080fd5b50813567ffffffffffffffff811115612c6857600080fd5b602083019150836020828501011115612c8057600080fd5b9250929050565b600080600080600080600080600060c08a8c031215612ca557600080fd5b8935985060208a013567ffffffffffffffff80821115612cc457600080fd5b612cd08d838e01612c3e565b909a50985060408c0135915080821115612ce957600080fd5b612cf58d838e01612c3e565b909850965060608c0135955060808c0135945060a08c0135915080821115612d1c57600080fd5b50612d298c828d01612c3e565b915080935050809150509295985092959850929598565b60208152600061283160208301846129c4565b8015158114610b6257600080fd5b8035612a6881612d53565b60008060408385031215612d7f57600080fd5b823591506020830135612ab881612d53565b600082601f830112612da257600080fd5b61283183833560208501612b32565b60008060408385031215612dc457600080fd5b823567ffffffffffffffff80821115612ddc57600080fd5b612de886838701612d91565b93506020850135915080821115612dfe57600080fd5b50612bca85828601612d91565b60008060408385031215612e1e57600080fd5b50508035926020909101359150565b60008060008060008060008060c0898b031215612e4957600080fd5b883567ffffffffffffffff80821115612e6157600080fd5b818b0191508b601f830112612e7557600080fd5b813581811115612e8457600080fd5b8c60208260051b8501011115612e9957600080fd5b60209283019a509850908a01359080821115612eb457600080fd5b50612ec18b828c01612c3e565b9097509550612ed4905060408a01612a5d565b9350612ee260608a01612a5d565b9250612ef060808a01612a5d565b9150612efe60a08a01612d61565b90509295985092959890939650565b60008060008060608587031215612f2357600080fd5b843567ffffffffffffffff811115612f3a57600080fd5b612f4687828801612c3e565b9095509350506020850135612f5a81612a48565b91506040850135612f6a81612a48565b939692955090935050565b600181811c90821680612f8957607f821691505b60208210811415612faa57634e487b7160e01b600052602260045260246000fd5b50919050565b634e487b7160e01b600052601160045260246000fd5b600082821015612fd857612fd8612fb0565b500390565b600060208284031215612fef57600080fd5b815161283181612d53565b6000821982111561300d5761300d612fb0565b500190565b600081600019048311821515161561302c5761302c612fb0565b500290565b60006020828403121561304357600080fd5b815167ffffffffffffffff81111561305a57600080fd5b8201601f8101841361306b57600080fd5b8051613079612b4082612b0a565b81815285602083850101111561308e57600080fd5b611dcd826020830160208601612998565b634e487b7160e01b600052603260045260246000fd5b6000808335601e198436030181126130cc57600080fd5b83018035915067ffffffffffffffff8211156130e757600080fd5b602001915036819003821315612c8057600080fd5b600060001982141561311057613110612fb0565b5060010190565b81835281816020850137506000828201602090810191909152601f909101601f19169091010190565b602081526000611313602083018486613117565b60006020828403121561316657600080fd5b5051919050565b606081526000613181606083018688613117565b6001600160a01b039485166020840152929093166040909101529392505050565b600083516131b4818460208801612998565b8351908301906131c8818360208801612998565b01949350505050565b600080604083850312156131e457600080fd5b82516131ef81612a48565b6020840151909250612ab881612a48565b60008261321d57634e487b7160e01b600052601260045260246000fd5b500490565b60006020828403121561323457600080fd5b815161283181612a48565b60008251613251818460208701612998565b919091019291505056fe416464726573733a206c6f772d6c6576656c2064656c65676174652063616c6c206661696c6564a2646970667358221220dcb427d1c87a5b0b15d183279ffb22b397da85a0aa2c9e85faf59f1d6c96590e64736f6c634300080c0033",
  "linkReferences": {},
  "deployedLinkReferences": {}
}