{
  "_format": "hh-sol-artifact-1",
  "contractName": "ETSUpgrade",
  "sourceName": "contracts/utils/UUPS/UUPSTesting.sol",
  "abi": [
    {
      "anonymous": false,
      "inputs": [
        {
          "indexed": false,
          "internalType": "contract ETSAccessControls",
          "name": "previousAccessControls",
          "type": "address"
        },
        {
          "indexed": false,
          "internalType": "contract ETSAccessControls",
          "name": "newAccessControls",
          "type": "address"
        }
      ],
      "name": "AccessControlsUpdated",
      "type": "event"
    },
    {
      "anonymous": false,
      "inputs": [
        {
          "indexed": false,
          "internalType": "address",
          "name": "previousAdmin",
          "type": "address"
        },
        {
          "indexed": false,
          "internalType": "address",
          "name": "newAdmin",
          "type": "address"
        }
      ],
      "name": "AdminChanged",
      "type": "event"
    },
    {
      "anonymous": false,
      "inputs": [
        {
          "indexed": true,
          "internalType": "address",
          "name": "beacon",
          "type": "address"
        }
      ],
      "name": "BeaconUpgraded",
      "type": "event"
    },
    {
      "anonymous": false,
      "inputs": [
        {
          "indexed": false,
          "internalType": "contract ETSEnsure",
          "name": "previousETSEnsure",
          "type": "address"
        },
        {
          "indexed": false,
          "internalType": "contract ETSEnsure",
          "name": "newETSEnsure",
          "type": "address"
        }
      ],
      "name": "ETSEnsureUpdated",
      "type": "event"
    },
    {
      "anonymous": false,
      "inputs": [
        {
          "indexed": true,
          "internalType": "address",
          "name": "who",
          "type": "address"
        },
        {
          "indexed": false,
          "internalType": "uint256",
          "name": "amount",
          "type": "uint256"
        }
      ],
      "name": "FundsWithdrawn",
      "type": "event"
    },
    {
      "anonymous": false,
      "inputs": [
        {
          "indexed": false,
          "internalType": "uint256",
          "name": "platformPercentage",
          "type": "uint256"
        },
        {
          "indexed": false,
          "internalType": "uint256",
          "name": "publisherPercentage",
          "type": "uint256"
        },
        {
          "indexed": false,
          "internalType": "uint256",
          "name": "remainingPercentage",
          "type": "uint256"
        }
      ],
      "name": "PercentagesSet",
      "type": "event"
    },
    {
      "anonymous": false,
      "inputs": [
        {
          "indexed": false,
          "internalType": "uint256",
          "name": "nftChainId",
          "type": "uint256"
        },
        {
          "indexed": false,
          "internalType": "bool",
          "name": "setting",
          "type": "bool"
        }
      ],
      "name": "PermittedNftChainIdSet",
      "type": "event"
    },
    {
      "anonymous": false,
      "inputs": [
        {
          "indexed": false,
          "internalType": "uint256",
          "name": "targetId",
          "type": "uint256"
        }
      ],
      "name": "RequestEnsureTarget",
      "type": "event"
    },
    {
      "anonymous": false,
      "inputs": [
        {
          "indexed": false,
          "internalType": "uint256",
          "name": "previousFee",
          "type": "uint256"
        },
        {
          "indexed": false,
          "internalType": "uint256",
          "name": "taggingFee",
          "type": "uint256"
        }
      ],
      "name": "TaggingFeeSet",
      "type": "event"
    },
    {
      "anonymous": false,
      "inputs": [
        {
          "indexed": false,
          "internalType": "uint256",
          "name": "targetId",
          "type": "uint256"
        }
      ],
      "name": "TargetCreated",
      "type": "event"
    },
    {
      "anonymous": false,
      "inputs": [
        {
          "indexed": false,
          "internalType": "uint256",
          "name": "taggingId",
          "type": "uint256"
        }
      ],
      "name": "TargetTagged",
      "type": "event"
    },
    {
      "anonymous": false,
      "inputs": [
        {
          "indexed": false,
          "internalType": "string",
          "name": "typeName",
          "type": "string"
        },
        {
          "indexed": false,
          "internalType": "bool",
          "name": "setting",
          "type": "bool"
        }
      ],
      "name": "TargetTypeSet",
      "type": "event"
    },
    {
      "anonymous": false,
      "inputs": [
        {
          "indexed": false,
          "internalType": "uint256",
          "name": "targetId",
          "type": "uint256"
        }
      ],
      "name": "TargetUpdated",
      "type": "event"
    },
    {
      "anonymous": false,
      "inputs": [
        {
          "indexed": true,
          "internalType": "address",
          "name": "implementation",
          "type": "address"
        }
      ],
      "name": "Upgraded",
      "type": "event"
    },
    {
      "inputs": [],
      "name": "NAME",
      "outputs": [
        {
          "internalType": "string",
          "name": "",
          "type": "string"
        }
      ],
      "stateMutability": "view",
      "type": "function"
    },
    {
      "inputs": [],
      "name": "VERSION",
      "outputs": [
        {
          "internalType": "string",
          "name": "",
          "type": "string"
        }
      ],
      "stateMutability": "view",
      "type": "function"
    },
    {
      "inputs": [],
      "name": "accessControls",
      "outputs": [
        {
          "internalType": "contract ETSAccessControls",
          "name": "",
          "type": "address"
        }
      ],
      "stateMutability": "view",
      "type": "function"
    },
    {
      "inputs": [
        {
          "internalType": "address",
          "name": "",
          "type": "address"
        }
      ],
      "name": "accrued",
      "outputs": [
        {
          "internalType": "uint256",
          "name": "",
          "type": "uint256"
        }
      ],
      "stateMutability": "view",
      "type": "function"
    },
    {
      "inputs": [
        {
          "internalType": "string",
          "name": "_targetType",
          "type": "string"
        },
        {
          "internalType": "string",
          "name": "_targetURI",
          "type": "string"
        }
      ],
      "name": "createTarget",
      "outputs": [
        {
          "internalType": "uint256",
          "name": "targetId",
          "type": "uint256"
        }
      ],
      "stateMutability": "nonpayable",
      "type": "function"
    },
    {
      "inputs": [
        {
          "internalType": "address payable",
          "name": "_account",
          "type": "address"
        }
      ],
      "name": "drawDown",
      "outputs": [],
      "stateMutability": "nonpayable",
      "type": "function"
    },
    {
      "inputs": [],
      "name": "etsEnsure",
      "outputs": [
        {
          "internalType": "contract ETSEnsure",
          "name": "",
          "type": "address"
        }
      ],
      "stateMutability": "view",
      "type": "function"
    },
    {
      "inputs": [],
      "name": "etsTag",
      "outputs": [
        {
          "internalType": "contract ETSTag",
          "name": "",
          "type": "address"
        }
      ],
      "stateMutability": "view",
      "type": "function"
    },
    {
      "inputs": [
        {
          "internalType": "uint256",
          "name": "_nftChainId",
          "type": "uint256"
        }
      ],
      "name": "getPermittedNftChainId",
      "outputs": [
        {
          "internalType": "bool",
          "name": "",
          "type": "bool"
        }
      ],
      "stateMutability": "view",
      "type": "function"
    },
    {
      "inputs": [
        {
          "internalType": "string",
          "name": "_tagString",
          "type": "string"
        },
        {
          "internalType": "address payable",
          "name": "_publisher",
          "type": "address"
        },
        {
          "internalType": "address",
          "name": "_tagger",
          "type": "address"
        }
      ],
      "name": "getTagId",
      "outputs": [
        {
          "internalType": "uint256",
          "name": "etstagId",
          "type": "uint256"
        }
      ],
      "stateMutability": "payable",
      "type": "function"
    },
    {
      "inputs": [
        {
          "internalType": "uint256",
          "name": "_taggingId",
          "type": "uint256"
        }
      ],
      "name": "getTaggingRecord",
      "outputs": [
        {
          "internalType": "uint256",
          "name": "_etsTagId",
          "type": "uint256"
        },
        {
          "internalType": "uint256",
          "name": "_targetId",
          "type": "uint256"
        },
        {
          "internalType": "address",
          "name": "_tagger",
          "type": "address"
        },
        {
          "internalType": "address",
          "name": "_publisher",
          "type": "address"
        },
        {
          "internalType": "uint256",
          "name": "_timestamp",
          "type": "uint256"
        }
      ],
      "stateMutability": "view",
      "type": "function"
    },
    {
      "inputs": [
        {
          "internalType": "string",
          "name": "_targetType",
          "type": "string"
        },
        {
          "internalType": "string",
          "name": "_targetURI",
          "type": "string"
        }
      ],
      "name": "getTargetId",
      "outputs": [
        {
          "internalType": "uint256",
          "name": "targetId",
          "type": "uint256"
        }
      ],
      "stateMutability": "nonpayable",
      "type": "function"
    },
    {
      "inputs": [
        {
          "internalType": "contract ETSAccessControls",
          "name": "_accessControls",
          "type": "address"
        },
        {
          "internalType": "contract ETSTag",
          "name": "_etsTag",
          "type": "address"
        }
      ],
      "name": "initialize",
      "outputs": [],
      "stateMutability": "nonpayable",
      "type": "function"
    },
    {
      "inputs": [],
      "name": "modulo",
      "outputs": [
        {
          "internalType": "uint256",
          "name": "",
          "type": "uint256"
        }
      ],
      "stateMutability": "view",
      "type": "function"
    },
    {
      "inputs": [
        {
          "internalType": "address",
          "name": "",
          "type": "address"
        }
      ],
      "name": "paid",
      "outputs": [
        {
          "internalType": "uint256",
          "name": "",
          "type": "uint256"
        }
      ],
      "stateMutability": "view",
      "type": "function"
    },
    {
      "inputs": [
        {
          "internalType": "uint256",
          "name": "",
          "type": "uint256"
        }
      ],
      "name": "permittedNftChainIds",
      "outputs": [
        {
          "internalType": "bool",
          "name": "",
          "type": "bool"
        }
      ],
      "stateMutability": "view",
      "type": "function"
    },
    {
      "inputs": [],
      "name": "platformPercentage",
      "outputs": [
        {
          "internalType": "uint256",
          "name": "",
          "type": "uint256"
        }
      ],
      "stateMutability": "view",
      "type": "function"
    },
    {
      "inputs": [],
      "name": "publisherPercentage",
      "outputs": [
        {
          "internalType": "uint256",
          "name": "",
          "type": "uint256"
        }
      ],
      "stateMutability": "view",
      "type": "function"
    },
    {
      "inputs": [],
      "name": "remainingPercentage",
      "outputs": [
        {
          "internalType": "uint256",
          "name": "",
          "type": "uint256"
        }
      ],
      "stateMutability": "view",
      "type": "function"
    },
    {
      "inputs": [
        {
          "internalType": "uint256",
          "name": "_nftChainId",
          "type": "uint256"
        },
        {
          "internalType": "bool",
          "name": "_setting",
          "type": "bool"
        }
      ],
      "name": "setPermittedNftChainId",
      "outputs": [],
      "stateMutability": "nonpayable",
      "type": "function"
    },
    {
      "inputs": [
        {
          "internalType": "uint256",
          "name": "_fee",
          "type": "uint256"
        }
      ],
      "name": "setTaggingFee",
      "outputs": [],
      "stateMutability": "nonpayable",
      "type": "function"
    },
    {
      "inputs": [
        {
          "internalType": "string",
          "name": "_tagString",
          "type": "string"
        },
        {
          "internalType": "string",
          "name": "_targetURI",
          "type": "string"
        },
        {
          "internalType": "address payable",
          "name": "_publisher",
          "type": "address"
        },
        {
          "internalType": "address",
          "name": "_tagger",
          "type": "address"
        },
        {
          "internalType": "bool",
          "name": "_ensure",
          "type": "bool"
        }
      ],
      "name": "tagTarget",
      "outputs": [],
      "stateMutability": "payable",
      "type": "function"
    },
    {
      "inputs": [],
      "name": "taggingCounter",
      "outputs": [
        {
          "internalType": "uint256",
          "name": "",
          "type": "uint256"
        }
      ],
      "stateMutability": "view",
      "type": "function"
    },
    {
      "inputs": [],
      "name": "taggingFee",
      "outputs": [
        {
          "internalType": "uint256",
          "name": "",
          "type": "uint256"
        }
      ],
      "stateMutability": "view",
      "type": "function"
    },
    {
      "inputs": [
        {
          "internalType": "uint256",
          "name": "",
          "type": "uint256"
        }
      ],
      "name": "taggingRecords",
      "outputs": [
        {
          "internalType": "uint256",
          "name": "etsTagId",
          "type": "uint256"
        },
        {
          "internalType": "uint256",
          "name": "targetId",
          "type": "uint256"
        },
        {
          "internalType": "address",
          "name": "tagger",
          "type": "address"
        },
        {
          "internalType": "address",
          "name": "publisher",
          "type": "address"
        },
        {
          "internalType": "uint256",
          "name": "timestamp",
          "type": "uint256"
        }
      ],
      "stateMutability": "view",
      "type": "function"
    },
    {
      "inputs": [
        {
          "internalType": "uint256",
          "name": "targetId",
          "type": "uint256"
        }
      ],
      "name": "targetExists",
      "outputs": [
        {
          "internalType": "bool",
          "name": "",
          "type": "bool"
        }
      ],
      "stateMutability": "view",
      "type": "function"
    },
    {
      "inputs": [
        {
          "internalType": "uint256",
          "name": "",
          "type": "uint256"
        }
      ],
      "name": "targets",
      "outputs": [
        {
          "internalType": "string",
          "name": "targetType",
          "type": "string"
        },
        {
          "internalType": "string",
          "name": "targetURI",
          "type": "string"
        },
        {
          "internalType": "uint256",
          "name": "created",
          "type": "uint256"
        },
        {
          "internalType": "uint256",
          "name": "lastEnsured",
          "type": "uint256"
        },
        {
          "internalType": "uint256",
          "name": "status",
          "type": "uint256"
        },
        {
          "internalType": "string",
          "name": "ipfsHash",
          "type": "string"
        }
      ],
      "stateMutability": "view",
      "type": "function"
    },
    {
      "inputs": [
        {
          "internalType": "address",
          "name": "_account",
          "type": "address"
        }
      ],
      "name": "totalDue",
      "outputs": [
        {
          "internalType": "uint256",
          "name": "_due",
          "type": "uint256"
        }
      ],
      "stateMutability": "view",
      "type": "function"
    },
    {
      "inputs": [
        {
          "internalType": "contract ETSAccessControls",
          "name": "_accessControls",
          "type": "address"
        }
      ],
      "name": "updateAccessControls",
      "outputs": [],
      "stateMutability": "nonpayable",
      "type": "function"
    },
    {
      "inputs": [
        {
          "internalType": "contract ETSEnsure",
          "name": "_etsEnsure",
          "type": "address"
        }
      ],
      "name": "updateETSEnsure",
      "outputs": [],
      "stateMutability": "nonpayable",
      "type": "function"
    },
    {
      "inputs": [
        {
          "internalType": "uint256",
          "name": "_platformPercentage",
          "type": "uint256"
        },
        {
          "internalType": "uint256",
          "name": "_publisherPercentage",
          "type": "uint256"
        }
      ],
      "name": "updatePercentages",
      "outputs": [],
      "stateMutability": "nonpayable",
      "type": "function"
    },
    {
      "inputs": [
        {
          "internalType": "uint256",
          "name": "_targetId",
          "type": "uint256"
        },
        {
          "internalType": "string",
          "name": "_targetType",
          "type": "string"
        },
        {
          "internalType": "string",
          "name": "_targetURI",
          "type": "string"
        },
        {
          "internalType": "uint256",
          "name": "_lastEnsured",
          "type": "uint256"
        },
        {
          "internalType": "uint256",
          "name": "_status",
          "type": "uint256"
        },
        {
          "internalType": "string",
          "name": "_ipfsHash",
          "type": "string"
        }
      ],
      "name": "updateTarget",
      "outputs": [
        {
          "internalType": "bool",
          "name": "success",
          "type": "bool"
        }
      ],
      "stateMutability": "nonpayable",
      "type": "function"
    },
    {
      "inputs": [],
      "name": "upgradeTest",
      "outputs": [
        {
          "internalType": "bool",
          "name": "",
          "type": "bool"
        }
      ],
      "stateMutability": "pure",
      "type": "function"
    },
    {
      "inputs": [
        {
          "internalType": "address",
          "name": "newImplementation",
          "type": "address"
        }
      ],
      "name": "upgradeTo",
      "outputs": [],
      "stateMutability": "nonpayable",
      "type": "function"
    },
    {
      "inputs": [
        {
          "internalType": "address",
          "name": "newImplementation",
          "type": "address"
        },
        {
          "internalType": "bytes",
          "name": "data",
          "type": "bytes"
        }
      ],
      "name": "upgradeToAndCall",
      "outputs": [],
      "stateMutability": "payable",
      "type": "function"
    },
    {
      "inputs": [],
      "name": "version",
      "outputs": [
        {
          "internalType": "string",
          "name": "",
          "type": "string"
        }
      ],
      "stateMutability": "pure",
      "type": "function"
    }
  ],
  "bytecode": "0x60a06040523060805234801561001457600080fd5b50608051612f5561004560003960008181610a4901528181610ad301528181610ce30152610d680152612f556000f3fe60806040526004361061024f5760003560e01c8063748365ef11610138578063b3e74f4f116100b0578063e16ee5a31161007f578063f8bc3cc611610064578063f8bc3cc614610777578063fe52656f14610797578063ffa1ad74146107ad57600080fd5b8063e16ee5a314610741578063e88b772c1461076157600080fd5b8063b3e74f4f146106ce578063b7d0e7dd146106e1578063c206200514610701578063c20d22951461072157600080fd5b8063a3f4df7e11610107578063a97dda40116100ec578063a97dda4014610661578063b148440f14610681578063b205f808146106ae57600080fd5b8063a3f4df7e14610605578063a76237f61461064e57600080fd5b8063748365ef1461056a5780637e2e4c52146105a2578063962ed232146105b8578063a340cf79146105d857600080fd5b80633659cfe6116101cb578063501a323a1161019a57806354fd4d501161017f57806354fd4d50146104bc5780636ef3da94146104f357806374716c811461051357600080fd5b8063501a323a14610413578063507f3ba11461049c57600080fd5b80633659cfe6146103aa5780633d20b15c146103cc578063485cc955146103e05780634f1ef2861461040057600080fd5b80631797df5911610222578063200e06af11610207578063200e06af1461034f578063297452621461037f578063337ccf9d1461039457600080fd5b80631797df59146103095780631f7418971461033957600080fd5b80630477fe28146102545780630a39ce02146102895780630ad2f0c3146102bb578063146da5c4146102e9575b600080fd5b34801561026057600080fd5b5061027461026f366004612731565b6107de565b60405190151581526020015b60405180910390f35b34801561029557600080fd5b506102a96102a4366004612731565b610804565b604051610280969594939291906127a6565b3480156102c757600080fd5b506102db6102d6366004612813565b6109d0565b604051908152602001610280565b3480156102f557600080fd5b506102db6103043660046128fd565b6109fe565b34801561031557600080fd5b50610274610324366004612731565b600090815260d3602052604090205460ff1690565b34801561034557600080fd5b506102db60cc5481565b34801561035b57600080fd5b5061027461036a366004612731565b60d36020526000908152604090205460ff1681565b34801561038b57600080fd5b506102db606481565b3480156103a057600080fd5b506102db60ce5481565b3480156103b657600080fd5b506103ca6103c5366004612813565b610a3e565b005b3480156103d857600080fd5b506001610274565b3480156103ec57600080fd5b506103ca6103fb366004612961565b610bbf565b6103ca61040e36600461299a565b610cd8565b34801561041f57600080fd5b5061046861042e366004612731565b600090815260d4602052604090208054600182015460028301546003840154600490940154929491936001600160a01b0391821693911691565b6040805195865260208601949094526001600160a01b0392831693850193909352166060830152608082015260a001610280565b3480156104a857600080fd5b506102746104b7366004612a3d565b610e45565b3480156104c857600080fd5b50604080518082019091526005815264302e302e3160d81b60208201525b6040516102809190612af6565b3480156104ff57600080fd5b506103ca61050e366004612813565b610eea565b34801561051f57600080fd5b5061046861052e366004612731565b60d46020526000908152604090208054600182015460028301546003840154600490940154929391926001600160a01b03918216929091169085565b34801561057657600080fd5b5060c95461058a906001600160a01b031681565b6040516001600160a01b039091168152602001610280565b3480156105ae57600080fd5b506102db60cd5481565b3480156105c457600080fd5b506103ca6105d3366004612731565b611085565b3480156105e457600080fd5b506102db6105f3366004612813565b60d26020526000908152604090205481565b34801561061157600080fd5b506104e66040518060400160405280600881526020017f45545320436f726500000000000000000000000000000000000000000000000081525081565b6102db61065c366004612b09565b611180565b34801561066d57600080fd5b506103ca61067c366004612b7f565b6112b6565b34801561068d57600080fd5b506102db61069c366004612813565b60d16020526000908152604090205481565b3480156106ba57600080fd5b506103ca6106c9366004612813565b6113c5565b6103ca6106dc366004612ba4565b611558565b3480156106ed57600080fd5b5060cb5461058a906001600160a01b031681565b34801561070d57600080fd5b506103ca61071c366004612813565b611944565b34801561072d57600080fd5b506103ca61073c366004612c4d565b611a9a565b34801561074d57600080fd5b506102db61075c3660046128fd565b611c41565b34801561076d57600080fd5b506102db60cf5481565b34801561078357600080fd5b5060ca5461058a906001600160a01b031681565b3480156107a357600080fd5b506102db60d05481565b3480156107b957600080fd5b506104e660405180604001604052806005815260200164302e302e3160d81b81525081565b600081815260d560205260408120600201546107fb5760006107fe565b60015b92915050565b60d56020526000908152604090208054819061081f90612c6f565b80601f016020809104026020016040519081016040528092919081815260200182805461084b90612c6f565b80156108985780601f1061086d57610100808354040283529160200191610898565b820191906000526020600020905b81548152906001019060200180831161087b57829003601f168201915b5050505050908060010180546108ad90612c6f565b80601f01602080910402602001604051908101604052809291908181526020018280546108d990612c6f565b80156109265780601f106108fb57610100808354040283529160200191610926565b820191906000526020600020905b81548152906001019060200180831161090957829003601f168201915b50505050509080600201549080600301549080600401549080600501805461094d90612c6f565b80601f016020809104026020016040519081016040528092919081815260200182805461097990612c6f565b80156109c65780601f1061099b576101008083540402835291602001916109c6565b820191906000526020600020905b8154815290600101906020018083116109a957829003601f168201915b5050505050905086565b6001600160a01b038116600090815260d2602090815260408083205460d19092528220546107fe9190612cc0565b600080610a0b8484611d3b565b600081815260d5602052604090206002015490915015610a2c5790506107fe565b610a368484611c41565b949350505050565b306001600160a01b037f0000000000000000000000000000000000000000000000000000000000000000161415610ad15760405162461bcd60e51b815260206004820152602c60248201527f46756e6374696f6e206d7573742062652063616c6c6564207468726f7567682060448201526b19195b1959d85d1958d85b1b60a21b60648201526084015b60405180910390fd5b7f00000000000000000000000000000000000000000000000000000000000000006001600160a01b0316610b2c7f360894a13ba1a3210667c828492db98dca3e2076cc3735a920a3ca505d382bbc546001600160a01b031690565b6001600160a01b031614610b975760405162461bcd60e51b815260206004820152602c60248201527f46756e6374696f6e206d7573742062652063616c6c6564207468726f7567682060448201526b6163746976652070726f787960a01b6064820152608401610ac8565b610ba081611d71565b60408051600080825260208201909252610bbc91839190611e2e565b50565b600054610100900460ff16610bda5760005460ff1615610bde565b303b155b610c505760405162461bcd60e51b815260206004820152602e60248201527f496e697469616c697a61626c653a20636f6e747261637420697320616c72656160448201527f647920696e697469616c697a65640000000000000000000000000000000000006064820152608401610ac8565b600054610100900460ff16158015610c72576000805461ffff19166101011790555b60c980546001600160a01b038086166001600160a01b03199283161790925560ca805492851692909116919091179055600060cf5566038d7ea4c6800060d055601460cc55601e60cd55603260ce558015610cd3576000805461ff00191690555b505050565b306001600160a01b037f0000000000000000000000000000000000000000000000000000000000000000161415610d665760405162461bcd60e51b815260206004820152602c60248201527f46756e6374696f6e206d7573742062652063616c6c6564207468726f7567682060448201526b19195b1959d85d1958d85b1b60a21b6064820152608401610ac8565b7f00000000000000000000000000000000000000000000000000000000000000006001600160a01b0316610dc17f360894a13ba1a3210667c828492db98dca3e2076cc3735a920a3ca505d382bbc546001600160a01b031690565b6001600160a01b031614610e2c5760405162461bcd60e51b815260206004820152602c60248201527f46756e6374696f6e206d7573742062652063616c6c6564207468726f7567682060448201526b6163746976652070726f787960a01b6064820152608401610ac8565b610e3582611d71565b610e4182826001611e2e565b5050565b600089815260d560205260408120610e5e908a8a612624565b5060008a815260d560205260409020610e7b906001018888612624565b5060008a815260d5602052604090206003810186905560048101859055610ea6906005018484612624565b506040518a81527f9d29e5045b411bb06d81d8ff11c828d9f1d7eb076eec9ca45eda49fc99f762b29060200160405180910390a15060019998505050505050505050565b60c9546001600160a01b03166324d7806c336040516001600160e01b031960e084901b1681526001600160a01b039091166004820152602401602060405180830381865afa158015610f40573d6000803e3d6000fd5b505050506040513d601f19601f82011682018060405250810190610f649190612cd7565b610fa75760405162461bcd60e51b815260206004820152601460248201527321b0b63632b91036bab9ba1031329030b236b4b760611b6044820152606401610ac8565b6001600160a01b0381166110235760405162461bcd60e51b815260206004820152602860248201527f4554532e757064617465416363657373436f6e74726f6c733a2043616e6e6f7460448201527f206265207a65726f0000000000000000000000000000000000000000000000006064820152608401610ac8565b60c980546001600160a01b038381166001600160a01b031983168117909355604080519190921680825260208201939093527f31073599bfae2533a348dc816b0ce777b707aa9b67015ca2d86585e842b5c6e991015b60405180910390a15050565b60c9546001600160a01b03166324d7806c336040516001600160e01b031960e084901b1681526001600160a01b039091166004820152602401602060405180830381865afa1580156110db573d6000803e3d6000fd5b505050506040513d601f19601f820116820180604052508101906110ff9190612cd7565b6111425760405162461bcd60e51b815260206004820152601460248201527321b0b63632b91036bab9ba1031329030b236b4b760611b6044820152606401610ac8565b60d080549082905560408051828152602081018490527f861fa8a0dab775faf9bcbb5388a02f7ac01181c036f5c57982464a2d75c3608e9101611079565b60ca546040517f04befefd00000000000000000000000000000000000000000000000000000000815260009182916001600160a01b03909116906304befefd906111d09089908990600401612d1d565b602060405180830381865afa1580156111ed573d6000803e3d6000fd5b505050506040513d601f19601f820116820180604052508101906112119190612d31565b9050806112ad5760ca546040517f7e6d945e0000000000000000000000000000000000000000000000000000000081526001600160a01b0390911690637e6d945e90611267908990899089908990600401612d4a565b6020604051808303816000875af1158015611286573d6000803e3d6000fd5b505050506040513d601f19601f820116820180604052508101906112aa9190612d31565b90505b95945050505050565b60c9546001600160a01b03166324d7806c336040516001600160e01b031960e084901b1681526001600160a01b039091166004820152602401602060405180830381865afa15801561130c573d6000803e3d6000fd5b505050506040513d601f19601f820116820180604052508101906113309190612cd7565b6113735760405162461bcd60e51b815260206004820152601460248201527321b0b63632b91036bab9ba1031329030b236b4b760611b6044820152606401610ac8565b600082815260d36020908152604091829020805460ff19168415159081179091558251858152918201527f9a1b1e3722de574f6867ada1474b42b28458b0d93fc376664c96cb084b9211819101611079565b60c9546001600160a01b03166324d7806c336040516001600160e01b031960e084901b1681526001600160a01b039091166004820152602401602060405180830381865afa15801561141b573d6000803e3d6000fd5b505050506040513d601f19601f8201168201806040525081019061143f9190612cd7565b6114825760405162461bcd60e51b815260206004820152601460248201527321b0b63632b91036bab9ba1031329030b236b4b760611b6044820152606401610ac8565b6001600160a01b0381166114fe5760405162461bcd60e51b815260206004820152602360248201527f4554532e757064617465455453456e737572653a2043616e6e6f74206265207a60448201527f65726f00000000000000000000000000000000000000000000000000000000006064820152608401610ac8565b60cb80546001600160a01b038381166001600160a01b031983168117909355604080519190921680825260208201939093527fee20190c374934660675d28472968e002fc4af227f2956f59085225ad89239fa9101611079565b600260335414156115ab5760405162461bcd60e51b815260206004820152601f60248201527f5265656e7472616e637947756172643a207265656e7472616e742063616c6c006044820152606401610ac8565b600260335560c9546040517f2b04fd440000000000000000000000000000000000000000000000000000000081523360048201526001600160a01b0390911690632b04fd4490602401602060405180830381865afa158015611611573d6000803e3d6000fd5b505050506040513d601f19601f820116820180604052508101906116359190612cd7565b6116815760405162461bcd60e51b815260206004820152601060248201527f4f6e6c79207461726765742074797065000000000000000000000000000000006044820152606401610ac8565b60c9546040517f41859ac80000000000000000000000000000000000000000000000000000000081526001600160a01b038581166004830152909116906341859ac890602401602060405180830381865afa1580156116e4573d6000803e3d6000fd5b505050506040513d601f19601f820116820180604052508101906117089190612cd7565b61177a5760405162461bcd60e51b815260206004820152602660248201527f5461673a20546865207075626c6973686572206d75737420626520776869746560448201527f6c697374656400000000000000000000000000000000000000000000000000006064820152608401610ac8565b60d0543410156117cc5760405162461bcd60e51b815260206004820152601a60248201527f5461673a20596f75206d7573742073656e6420746865206665650000000000006044820152606401610ac8565b60c9546040517fa88ae5b6000000000000000000000000000000000000000000000000000000008152336004820152600091611898916001600160a01b039091169063a88ae5b690602401600060405180830381865afa158015611834573d6000803e3d6000fd5b505050506040513d6000823e601f3d908101601f1916820160405261185c9190810190612d7f565b87878080601f0160208091040260200160405190810160405280939291908181526020018383808284376000920191909152506109fe92505050565b905060006118a889898787611180565b905082156119285760cb546040517f177f2fb5000000000000000000000000000000000000000000000000000000008152600481018490526001600160a01b039091169063177f2fb590602401600060405180830381600087803b15801561190f57600080fd5b505af1158015611923573d6000803e3d6000fd5b505050505b61193481838787611ff2565b5050600160335550505050505050565b600260335414156119975760405162461bcd60e51b815260206004820152601f60248201527f5265656e7472616e637947756172643a207265656e7472616e742063616c6c006044820152606401610ac8565b60026033556001600160a01b038116600090815260d2602090815260408083205460d19092528220546119ca9190612cc0565b90506000811180156119dc5750478111155b15611a91576001600160a01b038216600090815260d26020526040902054611a05908290612ded565b6001600160a01b038316600081815260d26020526040808220939093559151909183156108fc02918491818181858888f19350505050158015611a4c573d6000803e3d6000fd5b50816001600160a01b03167feaff4b37086828766ad3268786972c0cd24259d4c87a80f9d3963a3c3d999b0d82604051611a8891815260200190565b60405180910390a25b50506001603355565b60c9546001600160a01b03166324d7806c336040516001600160e01b031960e084901b1681526001600160a01b039091166004820152602401602060405180830381865afa158015611af0573d6000803e3d6000fd5b505050506040513d601f19601f82011682018060405250810190611b149190612cd7565b611b575760405162461bcd60e51b815260206004820152601460248201527321b0b63632b91036bab9ba1031329030b236b4b760611b6044820152606401610ac8565b6064611b638284612ded565b1115611bd75760405162461bcd60e51b815260206004820152603760248201527f4554532e75706461746550657263656e74616765733a2070657263656e74616760448201527f6573206d757374206e6f74206265206f766572203130300000000000000000006064820152608401610ac8565b60cc82905560cd81905580611bed836064612cc0565b611bf79190612cc0565b60ce81905560cc5460cd546040805192835260208301919091528101919091527f78c1b0567e296aa5eef70ad2deee29f35e0dd128cac603be855ece3e823f430890606001611079565b600080611c4e8484611d3b565b6040805160c08101825286815260208082018790524282840152600060608301819052608083018190528351808301855281815260a084015284815260d58252929092208151805194955091939092611cab9284929101906126a8565b506020828101518051611cc492600185019201906126a8565b5060408201516002820155606082015160038201556080820151600482015560a08201518051611cfe9160058401916020909101906126a8565b50506040518281527f503a6e6145f2d2a2a9b0845c2193aef653400c52f93b1c897bd55d36a396be7c915060200160405180910390a19392505050565b6000808383604051602001611d51929190612e05565b60408051808303601f190181529190528051602090910120949350505050565b60c9546001600160a01b03166324d7806c336040516001600160e01b031960e084901b1681526001600160a01b039091166004820152602401602060405180830381865afa158015611dc7573d6000803e3d6000fd5b505050506040513d601f19601f82011682018060405250810190611deb9190612cd7565b610bbc5760405162461bcd60e51b815260206004820152601460248201527321b0b63632b91036bab9ba1031329030b236b4b760611b6044820152606401610ac8565b6000611e617f360894a13ba1a3210667c828492db98dca3e2076cc3735a920a3ca505d382bbc546001600160a01b031690565b9050611e6c846123f6565b600083511180611e795750815b15611e8a57611e8884846124ab565b505b7f4910fdfa16fed3260ed0e7147f7cc6da11a60208b5b9406d12a635614ffd9143805460ff16611feb57805460ff191660011781556040516001600160a01b0383166024820152611f3790869060440160408051601f198184030181529190526020810180517bffffffffffffffffffffffffffffffffffffffffffffffffffffffff167f3659cfe6000000000000000000000000000000000000000000000000000000001790526124ab565b50805460ff191681557f360894a13ba1a3210667c828492db98dca3e2076cc3735a920a3ca505d382bbc546001600160a01b03838116911614611fe25760405162461bcd60e51b815260206004820152602f60248201527f45524331393637557067726164653a207570677261646520627265616b73206660448201527f75727468657220757067726164657300000000000000000000000000000000006064820152608401610ac8565b611feb856125a4565b5050505050565b600060cf6000815461200390612e34565b91829055506040805160a08101825287815260208082018881526001600160a01b03878116848601908152898216606086019081524260808701908152600089815260d4909652878620965187559351600187015590516002860180549184166001600160a01b0319928316179055905160038601805491841691909216179055905160049384015560ca5493517f878327ab0000000000000000000000000000000000000000000000000000000081529283018a9052939450928392169063878327ab906024016040805180830381865afa1580156120e7573d6000803e3d6000fd5b505050506040513d601f19601f8201168201806040525081019061210b9190612e4f565b91509150816001600160a01b0316816001600160a01b031614156122b757606460cc54346121399190612e7e565b6121439190612e9d565b6001600160a01b038316600090815260d160205260409020546121669190612ded565b6001600160a01b038316600090815260d1602052604090205560cd5460649061218f9034612e7e565b6121999190612e9d565b6001600160a01b038616600090815260d160205260409020546121bc9190612ded565b6001600160a01b03868116600090815260d160205260408082209390935560ca5492517fa30b4db9000000000000000000000000000000000000000000000000000000008152600481018b905290929091169063a30b4db990602401602060405180830381865afa158015612235573d6000803e3d6000fd5b505050506040513d601f19601f820116820180604052508101906122599190612ebf565b9050606460ce543461226b9190612e7e565b6122759190612e9d565b6001600160a01b038216600090815260d160205260409020546122989190612ded565b6001600160a01b03909116600090815260d160205260409020556123ba565b606460cc54346122c79190612e7e565b6122d19190612e9d565b6001600160a01b038316600090815260d160205260409020546122f49190612ded565b6001600160a01b038316600090815260d1602052604090205560cd5460649061231d9034612e7e565b6123279190612e9d565b6001600160a01b038616600090815260d1602052604090205461234a9190612ded565b6001600160a01b038616600090815260d1602052604090205560ce546064906123739034612e7e565b61237d9190612e9d565b6001600160a01b038216600090815260d160205260409020546123a09190612ded565b6001600160a01b038216600090815260d160205260409020555b6040518381527f81b185c481377e520177bddb63bab2a8d220831d7c07b748c2baf29c6e6070709060200160405180910390a150505050505050565b803b61246a5760405162461bcd60e51b815260206004820152602d60248201527f455243313936373a206e657720696d706c656d656e746174696f6e206973206e60448201527f6f74206120636f6e7472616374000000000000000000000000000000000000006064820152608401610ac8565b7f360894a13ba1a3210667c828492db98dca3e2076cc3735a920a3ca505d382bbc80546001600160a01b0319166001600160a01b0392909216919091179055565b6060823b6125215760405162461bcd60e51b815260206004820152602660248201527f416464726573733a2064656c65676174652063616c6c20746f206e6f6e2d636f60448201527f6e747261637400000000000000000000000000000000000000000000000000006064820152608401610ac8565b600080846001600160a01b03168460405161253c9190612edc565b600060405180830381855af49150503d8060008114612577576040519150601f19603f3d011682016040523d82523d6000602084013e61257c565b606091505b50915091506112ad8282604051806060016040528060278152602001612ef9602791396125e4565b6125ad816123f6565b6040516001600160a01b038216907fbc7cd75a20ee27fd9adebab32041f755214dbc6bffa90cc0225b39da2e5c2d3b90600090a250565b606083156125f357508161261d565b8251156126035782518084602001fd5b8160405162461bcd60e51b8152600401610ac89190612af6565b9392505050565b82805461263090612c6f565b90600052602060002090601f0160209004810192826126525760008555612698565b82601f1061266b5782800160ff19823516178555612698565b82800160010185558215612698579182015b8281111561269857823582559160200191906001019061267d565b506126a492915061271c565b5090565b8280546126b490612c6f565b90600052602060002090601f0160209004810192826126d65760008555612698565b82601f106126ef57805160ff1916838001178555612698565b82800160010185558215612698579182015b82811115612698578251825591602001919060010190612701565b5b808211156126a4576000815560010161271d565b60006020828403121561274357600080fd5b5035919050565b60005b8381101561276557818101518382015260200161274d565b83811115612774576000848401525b50505050565b6000815180845261279281602086016020860161274a565b601f01601f19169290920160200192915050565b60c0815260006127b960c083018961277a565b82810360208401526127cb818961277a565b905086604084015285606084015284608084015282810360a08401526127f1818561277a565b9998505050505050505050565b6001600160a01b0381168114610bbc57600080fd5b60006020828403121561282557600080fd5b813561261d816127fe565b634e487b7160e01b600052604160045260246000fd5b604051601f8201601f1916810167ffffffffffffffff8111828210171561286f5761286f612830565b604052919050565b600067ffffffffffffffff82111561289157612891612830565b50601f01601f191660200190565b60006128b26128ad84612877565b612846565b90508281528383830111156128c657600080fd5b828260208301376000602084830101529392505050565b600082601f8301126128ee57600080fd5b61261d8383356020850161289f565b6000806040838503121561291057600080fd5b823567ffffffffffffffff8082111561292857600080fd5b612934868387016128dd565b9350602085013591508082111561294a57600080fd5b50612957858286016128dd565b9150509250929050565b6000806040838503121561297457600080fd5b823561297f816127fe565b9150602083013561298f816127fe565b809150509250929050565b600080604083850312156129ad57600080fd5b82356129b8816127fe565b9150602083013567ffffffffffffffff8111156129d457600080fd5b8301601f810185136129e557600080fd5b6129578582356020840161289f565b60008083601f840112612a0657600080fd5b50813567ffffffffffffffff811115612a1e57600080fd5b602083019150836020828501011115612a3657600080fd5b9250929050565b600080600080600080600080600060c08a8c031215612a5b57600080fd5b8935985060208a013567ffffffffffffffff80821115612a7a57600080fd5b612a868d838e016129f4565b909a50985060408c0135915080821115612a9f57600080fd5b612aab8d838e016129f4565b909850965060608c0135955060808c0135945060a08c0135915080821115612ad257600080fd5b50612adf8c828d016129f4565b915080935050809150509295985092959850929598565b60208152600061261d602083018461277a565b60008060008060608587031215612b1f57600080fd5b843567ffffffffffffffff811115612b3657600080fd5b612b42878288016129f4565b9095509350506020850135612b56816127fe565b91506040850135612b66816127fe565b939692955090935050565b8015158114610bbc57600080fd5b60008060408385031215612b9257600080fd5b82359150602083013561298f81612b71565b600080600080600080600060a0888a031215612bbf57600080fd5b873567ffffffffffffffff80821115612bd757600080fd5b612be38b838c016129f4565b909950975060208a0135915080821115612bfc57600080fd5b50612c098a828b016129f4565b9096509450506040880135612c1d816127fe565b92506060880135612c2d816127fe565b91506080880135612c3d81612b71565b8091505092959891949750929550565b60008060408385031215612c6057600080fd5b50508035926020909101359150565b600181811c90821680612c8357607f821691505b60208210811415612ca457634e487b7160e01b600052602260045260246000fd5b50919050565b634e487b7160e01b600052601160045260246000fd5b600082821015612cd257612cd2612caa565b500390565b600060208284031215612ce957600080fd5b815161261d81612b71565b81835281816020850137506000828201602090810191909152601f909101601f19169091010190565b602081526000610a36602083018486612cf4565b600060208284031215612d4357600080fd5b5051919050565b606081526000612d5e606083018688612cf4565b6001600160a01b039485166020840152929093166040909101529392505050565b600060208284031215612d9157600080fd5b815167ffffffffffffffff811115612da857600080fd5b8201601f81018413612db957600080fd5b8051612dc76128ad82612877565b818152856020838501011115612ddc57600080fd5b6112ad82602083016020860161274a565b60008219821115612e0057612e00612caa565b500190565b60008351612e1781846020880161274a565b835190830190612e2b81836020880161274a565b01949350505050565b6000600019821415612e4857612e48612caa565b5060010190565b60008060408385031215612e6257600080fd5b8251612e6d816127fe565b602084015190925061298f816127fe565b6000816000190483118215151615612e9857612e98612caa565b500290565b600082612eba57634e487b7160e01b600052601260045260246000fd5b500490565b600060208284031215612ed157600080fd5b815161261d816127fe565b60008251612eee81846020870161274a565b919091019291505056fe416464726573733a206c6f772d6c6576656c2064656c65676174652063616c6c206661696c6564a26469706673582212201e03e3774b579b96a3a53e29e96c38b96413aa70900e853b93d0d6ee7931e6c364736f6c634300080c0033",
  "linkReferences": {},
  "deployedLinkReferences": {}
}