{
  "_format": "hh-sol-artifact-1",
  "contractName": "ETSUpgrade",
  "sourceName": "contracts/utils/UUPS/UUPSTesting.sol",
  "abi": [
    {
      "anonymous": false,
      "inputs": [
        {
          "indexed": false,
          "internalType": "address",
          "name": "previousAccessControls",
          "type": "address"
        },
        {
          "indexed": false,
          "internalType": "address",
          "name": "newAccessControls",
          "type": "address"
        }
      ],
      "name": "AccessControlsUpdated",
      "type": "event"
    },
    {
      "anonymous": false,
      "inputs": [
        {
          "indexed": false,
          "internalType": "address",
          "name": "previousAdmin",
          "type": "address"
        },
        {
          "indexed": false,
          "internalType": "address",
          "name": "newAdmin",
          "type": "address"
        }
      ],
      "name": "AdminChanged",
      "type": "event"
    },
    {
      "anonymous": false,
      "inputs": [
        {
          "indexed": true,
          "internalType": "address",
          "name": "beacon",
          "type": "address"
        }
      ],
      "name": "BeaconUpgraded",
      "type": "event"
    },
    {
      "anonymous": false,
      "inputs": [
        {
          "indexed": false,
          "internalType": "address",
          "name": "previousETSEnsure",
          "type": "address"
        },
        {
          "indexed": false,
          "internalType": "address",
          "name": "newETSEnsure",
          "type": "address"
        }
      ],
      "name": "ETSEnsureUpdated",
      "type": "event"
    },
    {
      "anonymous": false,
      "inputs": [
        {
          "indexed": true,
          "internalType": "address",
          "name": "who",
          "type": "address"
        },
        {
          "indexed": false,
          "internalType": "uint256",
          "name": "amount",
          "type": "uint256"
        }
      ],
      "name": "FundsWithdrawn",
      "type": "event"
    },
    {
      "anonymous": false,
      "inputs": [
        {
          "indexed": false,
          "internalType": "uint256",
          "name": "platformPercentage",
          "type": "uint256"
        },
        {
          "indexed": false,
          "internalType": "uint256",
          "name": "publisherPercentage",
          "type": "uint256"
        },
        {
          "indexed": false,
          "internalType": "uint256",
          "name": "remainingPercentage",
          "type": "uint256"
        }
      ],
      "name": "PercentagesSet",
      "type": "event"
    },
    {
      "anonymous": false,
      "inputs": [
        {
          "indexed": false,
          "internalType": "uint256",
          "name": "targetId",
          "type": "uint256"
        }
      ],
      "name": "RequestEnsureTarget",
      "type": "event"
    },
    {
      "anonymous": false,
      "inputs": [
        {
          "indexed": false,
          "internalType": "uint256",
          "name": "previousFee",
          "type": "uint256"
        },
        {
          "indexed": false,
          "internalType": "uint256",
          "name": "taggingFee",
          "type": "uint256"
        }
      ],
      "name": "TaggingFeeSet",
      "type": "event"
    },
    {
      "anonymous": false,
      "inputs": [
        {
          "indexed": false,
          "internalType": "uint256",
          "name": "targetId",
          "type": "uint256"
        }
      ],
      "name": "TargetCreated",
      "type": "event"
    },
    {
      "anonymous": false,
      "inputs": [
        {
          "indexed": false,
          "internalType": "uint256",
          "name": "taggingId",
          "type": "uint256"
        }
      ],
      "name": "TargetTagged",
      "type": "event"
    },
    {
      "anonymous": false,
      "inputs": [
        {
          "indexed": false,
          "internalType": "string",
          "name": "typeName",
          "type": "string"
        },
        {
          "indexed": false,
          "internalType": "bool",
          "name": "setting",
          "type": "bool"
        }
      ],
      "name": "TargetTypeSet",
      "type": "event"
    },
    {
      "anonymous": false,
      "inputs": [
        {
          "indexed": false,
          "internalType": "uint256",
          "name": "targetId",
          "type": "uint256"
        }
      ],
      "name": "TargetUpdated",
      "type": "event"
    },
    {
      "anonymous": false,
      "inputs": [
        {
          "indexed": true,
          "internalType": "address",
          "name": "implementation",
          "type": "address"
        }
      ],
      "name": "Upgraded",
      "type": "event"
    },
    {
      "inputs": [],
      "name": "NAME",
      "outputs": [
        {
          "internalType": "string",
          "name": "",
          "type": "string"
        }
      ],
      "stateMutability": "view",
      "type": "function"
    },
    {
      "inputs": [],
      "name": "VERSION",
      "outputs": [
        {
          "internalType": "string",
          "name": "",
          "type": "string"
        }
      ],
      "stateMutability": "view",
      "type": "function"
    },
    {
      "inputs": [],
      "name": "accessControls",
      "outputs": [
        {
          "internalType": "contract ETSAccessControls",
          "name": "",
          "type": "address"
        }
      ],
      "stateMutability": "view",
      "type": "function"
    },
    {
      "inputs": [
        {
          "internalType": "address",
          "name": "",
          "type": "address"
        }
      ],
      "name": "accrued",
      "outputs": [
        {
          "internalType": "uint256",
          "name": "",
          "type": "uint256"
        }
      ],
      "stateMutability": "view",
      "type": "function"
    },
    {
      "inputs": [
        {
          "internalType": "uint256",
          "name": "_targetId",
          "type": "uint256"
        },
        {
          "internalType": "address",
          "name": "_publisher",
          "type": "address"
        },
        {
          "internalType": "address",
          "name": "_tagger",
          "type": "address"
        },
        {
          "internalType": "address",
          "name": "_sponsor",
          "type": "address"
        }
      ],
      "name": "computeTaggingRecordId",
      "outputs": [
        {
          "internalType": "uint256",
          "name": "taggingRecordId",
          "type": "uint256"
        }
      ],
      "stateMutability": "pure",
      "type": "function"
    },
    {
      "inputs": [
        {
          "internalType": "string",
          "name": "_targetType",
          "type": "string"
        },
        {
          "internalType": "string",
          "name": "_targetURI",
          "type": "string"
        }
      ],
      "name": "computeTargetId",
      "outputs": [
        {
          "internalType": "uint256",
          "name": "targetId",
          "type": "uint256"
        }
      ],
      "stateMutability": "pure",
      "type": "function"
    },
    {
      "inputs": [
        {
          "internalType": "address payable",
          "name": "_account",
          "type": "address"
        }
      ],
      "name": "drawDown",
      "outputs": [],
      "stateMutability": "nonpayable",
      "type": "function"
    },
    {
      "inputs": [],
      "name": "etsEnsure",
      "outputs": [
        {
          "internalType": "contract ETSEnsure",
          "name": "",
          "type": "address"
        }
      ],
      "stateMutability": "view",
      "type": "function"
    },
    {
      "inputs": [],
      "name": "etsTag",
      "outputs": [
        {
          "internalType": "contract ETSTag",
          "name": "",
          "type": "address"
        }
      ],
      "stateMutability": "view",
      "type": "function"
    },
    {
      "inputs": [
        {
          "internalType": "string",
          "name": "_tagString",
          "type": "string"
        },
        {
          "internalType": "address payable",
          "name": "_publisher",
          "type": "address"
        },
        {
          "internalType": "address",
          "name": "_tagger",
          "type": "address"
        }
      ],
      "name": "getOrCreateTag",
      "outputs": [
        {
          "internalType": "uint256",
          "name": "tagId",
          "type": "uint256"
        }
      ],
      "stateMutability": "payable",
      "type": "function"
    },
    {
      "inputs": [
        {
          "internalType": "uint256",
          "name": "_targetId",
          "type": "uint256"
        },
        {
          "internalType": "address",
          "name": "_tagger",
          "type": "address"
        },
        {
          "internalType": "address",
          "name": "_publisher",
          "type": "address"
        },
        {
          "internalType": "address",
          "name": "_sponsor",
          "type": "address"
        }
      ],
      "name": "getTaggingRecord",
      "outputs": [
        {
          "internalType": "uint256[]",
          "name": "etsTagIds",
          "type": "uint256[]"
        },
        {
          "internalType": "uint256",
          "name": "targetId",
          "type": "uint256"
        },
        {
          "internalType": "address",
          "name": "tagger",
          "type": "address"
        },
        {
          "internalType": "address",
          "name": "publisher",
          "type": "address"
        },
        {
          "internalType": "address",
          "name": "sponsor",
          "type": "address"
        }
      ],
      "stateMutability": "view",
      "type": "function"
    },
    {
      "inputs": [
        {
          "internalType": "uint256",
          "name": "_taggingId",
          "type": "uint256"
        }
      ],
      "name": "getTaggingRecordFromId",
      "outputs": [
        {
          "internalType": "uint256[]",
          "name": "etsTagIds",
          "type": "uint256[]"
        },
        {
          "internalType": "uint256",
          "name": "targetId",
          "type": "uint256"
        },
        {
          "internalType": "address",
          "name": "tagger",
          "type": "address"
        },
        {
          "internalType": "address",
          "name": "publisher",
          "type": "address"
        },
        {
          "internalType": "address",
          "name": "sponsor",
          "type": "address"
        }
      ],
      "stateMutability": "view",
      "type": "function"
    },
    {
      "inputs": [
        {
          "internalType": "contract ETSAccessControls",
          "name": "_accessControls",
          "type": "address"
        },
        {
          "internalType": "contract ETSTag",
          "name": "_etsTag",
          "type": "address"
        }
      ],
      "name": "initialize",
      "outputs": [],
      "stateMutability": "nonpayable",
      "type": "function"
    },
    {
      "inputs": [
        {
          "internalType": "uint256",
          "name": "_targetId",
          "type": "uint256"
        }
      ],
      "name": "isTargetEnsured",
      "outputs": [
        {
          "internalType": "bool",
          "name": "",
          "type": "bool"
        }
      ],
      "stateMutability": "view",
      "type": "function"
    },
    {
      "inputs": [],
      "name": "modulo",
      "outputs": [
        {
          "internalType": "uint256",
          "name": "",
          "type": "uint256"
        }
      ],
      "stateMutability": "view",
      "type": "function"
    },
    {
      "inputs": [
        {
          "internalType": "address",
          "name": "",
          "type": "address"
        }
      ],
      "name": "paid",
      "outputs": [
        {
          "internalType": "uint256",
          "name": "",
          "type": "uint256"
        }
      ],
      "stateMutability": "view",
      "type": "function"
    },
    {
      "inputs": [],
      "name": "platformPercentage",
      "outputs": [
        {
          "internalType": "uint256",
          "name": "",
          "type": "uint256"
        }
      ],
      "stateMutability": "view",
      "type": "function"
    },
    {
      "inputs": [],
      "name": "publisherPercentage",
      "outputs": [
        {
          "internalType": "uint256",
          "name": "",
          "type": "uint256"
        }
      ],
      "stateMutability": "view",
      "type": "function"
    },
    {
      "inputs": [],
      "name": "remainingPercentage",
      "outputs": [
        {
          "internalType": "uint256",
          "name": "",
          "type": "uint256"
        }
      ],
      "stateMutability": "view",
      "type": "function"
    },
    {
      "inputs": [
        {
          "internalType": "uint256",
          "name": "_fee",
          "type": "uint256"
        }
      ],
      "name": "setTaggingFee",
      "outputs": [],
      "stateMutability": "nonpayable",
      "type": "function"
    },
    {
      "inputs": [
        {
          "internalType": "string[]",
          "name": "_tags",
          "type": "string[]"
        },
        {
          "internalType": "string",
          "name": "_targetURI",
          "type": "string"
        },
        {
          "internalType": "address payable",
          "name": "_publisher",
          "type": "address"
        },
        {
          "internalType": "address",
          "name": "_tagger",
          "type": "address"
        },
        {
          "internalType": "address",
          "name": "_sponsor",
          "type": "address"
        },
        {
          "internalType": "bool",
          "name": "_ensure",
          "type": "bool"
        }
      ],
      "name": "tagTarget",
      "outputs": [],
      "stateMutability": "payable",
      "type": "function"
    },
    {
      "inputs": [],
      "name": "taggingCounter",
      "outputs": [
        {
          "internalType": "uint256",
          "name": "",
          "type": "uint256"
        }
      ],
      "stateMutability": "view",
      "type": "function"
    },
    {
      "inputs": [],
      "name": "taggingFee",
      "outputs": [
        {
          "internalType": "uint256",
          "name": "",
          "type": "uint256"
        }
      ],
      "stateMutability": "view",
      "type": "function"
    },
    {
      "inputs": [
        {
          "internalType": "uint256",
          "name": "",
          "type": "uint256"
        }
      ],
      "name": "taggingRecords",
      "outputs": [
        {
          "internalType": "uint256",
          "name": "targetId",
          "type": "uint256"
        },
        {
          "internalType": "address",
          "name": "tagger",
          "type": "address"
        },
        {
          "internalType": "address",
          "name": "publisher",
          "type": "address"
        },
        {
          "internalType": "address",
          "name": "sponsor",
          "type": "address"
        }
      ],
      "stateMutability": "view",
      "type": "function"
    },
    {
      "inputs": [
        {
          "internalType": "uint256",
          "name": "_targetId",
          "type": "uint256"
        }
      ],
      "name": "targetExists",
      "outputs": [
        {
          "internalType": "bool",
          "name": "",
          "type": "bool"
        }
      ],
      "stateMutability": "view",
      "type": "function"
    },
    {
      "inputs": [
        {
          "internalType": "string",
          "name": "_targetType",
          "type": "string"
        },
        {
          "internalType": "string",
          "name": "_targetURI",
          "type": "string"
        }
      ],
      "name": "targetExists",
      "outputs": [
        {
          "internalType": "bool",
          "name": "",
          "type": "bool"
        }
      ],
      "stateMutability": "view",
      "type": "function"
    },
    {
      "inputs": [
        {
          "internalType": "uint256",
          "name": "",
          "type": "uint256"
        }
      ],
      "name": "targets",
      "outputs": [
        {
          "internalType": "string",
          "name": "targetType",
          "type": "string"
        },
        {
          "internalType": "string",
          "name": "targetURI",
          "type": "string"
        },
        {
          "internalType": "uint256",
          "name": "created",
          "type": "uint256"
        },
        {
          "internalType": "uint256",
          "name": "lastEnsured",
          "type": "uint256"
        },
        {
          "internalType": "uint256",
          "name": "status",
          "type": "uint256"
        },
        {
          "internalType": "string",
          "name": "ipfsHash",
          "type": "string"
        }
      ],
      "stateMutability": "view",
      "type": "function"
    },
    {
      "inputs": [
        {
          "internalType": "address",
          "name": "_account",
          "type": "address"
        }
      ],
      "name": "totalDue",
      "outputs": [
        {
          "internalType": "uint256",
          "name": "_due",
          "type": "uint256"
        }
      ],
      "stateMutability": "view",
      "type": "function"
    },
    {
      "inputs": [
        {
          "internalType": "contract ETSAccessControls",
          "name": "_accessControls",
          "type": "address"
        }
      ],
      "name": "updateAccessControls",
      "outputs": [],
      "stateMutability": "nonpayable",
      "type": "function"
    },
    {
      "inputs": [
        {
          "internalType": "contract ETSEnsure",
          "name": "_etsEnsure",
          "type": "address"
        }
      ],
      "name": "updateETSEnsure",
      "outputs": [],
      "stateMutability": "nonpayable",
      "type": "function"
    },
    {
      "inputs": [
        {
          "internalType": "uint256",
          "name": "_platformPercentage",
          "type": "uint256"
        },
        {
          "internalType": "uint256",
          "name": "_publisherPercentage",
          "type": "uint256"
        }
      ],
      "name": "updatePercentages",
      "outputs": [],
      "stateMutability": "nonpayable",
      "type": "function"
    },
    {
      "inputs": [
        {
          "internalType": "uint256",
          "name": "_taggingRecordId",
          "type": "uint256"
        },
        {
          "internalType": "uint256[]",
          "name": "_tagIds",
          "type": "uint256[]"
        }
      ],
      "name": "updateTaggingRecord",
      "outputs": [],
      "stateMutability": "nonpayable",
      "type": "function"
    },
    {
      "inputs": [
        {
          "internalType": "uint256",
          "name": "_targetId",
          "type": "uint256"
        },
        {
          "internalType": "string",
          "name": "_targetType",
          "type": "string"
        },
        {
          "internalType": "string",
          "name": "_targetURI",
          "type": "string"
        },
        {
          "internalType": "uint256",
          "name": "_lastEnsured",
          "type": "uint256"
        },
        {
          "internalType": "uint256",
          "name": "_status",
          "type": "uint256"
        },
        {
          "internalType": "string",
          "name": "_ipfsHash",
          "type": "string"
        }
      ],
      "name": "updateTarget",
      "outputs": [
        {
          "internalType": "bool",
          "name": "success",
          "type": "bool"
        }
      ],
      "stateMutability": "nonpayable",
      "type": "function"
    },
    {
      "inputs": [],
      "name": "upgradeTest",
      "outputs": [
        {
          "internalType": "bool",
          "name": "",
          "type": "bool"
        }
      ],
      "stateMutability": "pure",
      "type": "function"
    },
    {
      "inputs": [
        {
          "internalType": "address",
          "name": "newImplementation",
          "type": "address"
        }
      ],
      "name": "upgradeTo",
      "outputs": [],
      "stateMutability": "nonpayable",
      "type": "function"
    },
    {
      "inputs": [
        {
          "internalType": "address",
          "name": "newImplementation",
          "type": "address"
        },
        {
          "internalType": "bytes",
          "name": "data",
          "type": "bytes"
        }
      ],
      "name": "upgradeToAndCall",
      "outputs": [],
      "stateMutability": "payable",
      "type": "function"
    },
    {
      "inputs": [],
      "name": "version",
      "outputs": [
        {
          "internalType": "string",
          "name": "",
          "type": "string"
        }
      ],
      "stateMutability": "pure",
      "type": "function"
    }
  ],
  "bytecode": "0x60a06040523060805234801561001457600080fd5b506080516134cd61004560003960008181610c8b01528181610d1501528181610f250152610faa01526134cd6000f3fe60806040526004361061026a5760003560e01c806374716c8111610153578063b7d0e7dd116100cb578063d80a861f1161007f578063f8bc3cc611610064578063f8bc3cc6146107cc578063fe52656f146107ec578063ffa1ad741461080257600080fd5b8063d80a861f14610796578063e88b772c146107b657600080fd5b8063c20d2295116100b0578063c20d229514610731578063ce0e0eed14610751578063d64f55c91461078357600080fd5b8063b7d0e7dd146106f1578063c20620051461071157600080fd5b8063962ed23211610122578063a3f4df7e11610107578063a3f4df7e1461065b578063b148440f146106a4578063b205f808146106d157600080fd5b8063962ed2321461060e578063a340cf791461062e57600080fd5b806374716c811461051d578063748365ef146105a05780637e2e4c52146105d8578063817a1fbd146105ee57600080fd5b80633d20b15c116101e657806354fd4d50116101b557806360c1cade1161019a57806360c1cade1461046d57806368fd4dee146104dd5780636ef3da94146104fd57600080fd5b806354fd4d50146104165780635dffa7fe1461044d57600080fd5b80633d20b15c146103af578063485cc955146103c35780634f1ef286146103e3578063507f3ba1146103f657600080fd5b80630ad2f0c31161023d57806329745262116102225780632974526214610362578063337ccf9d146103775780633659cfe61461038d57600080fd5b80630ad2f0c31461032c5780631f7418971461034c57600080fd5b80630438837c1461026f5780630477fe28146102a957806307348e26146102d95780630a39ce02146102fa575b600080fd5b34801561027b57600080fd5b5061028f61028a366004612b35565b610833565b6040516102a0959493929190612b88565b60405180910390f35b3480156102b557600080fd5b506102c96102c4366004612bf2565b61092a565b60405190151581526020016102a0565b6102ec6102e7366004612c54565b610950565b6040519081526020016102a0565b34801561030657600080fd5b5061031a610315366004612bf2565b610a86565b6040516102a096959493929190612d09565b34801561033857600080fd5b506102ec610347366004612d61565b610c52565b34801561035857600080fd5b506102ec60cc5481565b34801561036e57600080fd5b506102ec606481565b34801561038357600080fd5b506102ec60ce5481565b34801561039957600080fd5b506103ad6103a8366004612d61565b610c80565b005b3480156103bb57600080fd5b5060016102c9565b3480156103cf57600080fd5b506103ad6103de366004612d7e565b610e01565b6103ad6103f1366004612e64565b610f1a565b34801561040257600080fd5b506102c9610411366004612ec8565b611087565b34801561042257600080fd5b50604080518082019091526005815264302e302e3160d81b60208201525b6040516102a09190612f81565b34801561045957600080fd5b506102ec610468366004612fb4565b611189565b34801561047957600080fd5b506102ec610488366004612b35565b604080516020808201969096526bffffffffffffffffffffffff19606094851b81168284015294841b851660548201529190921b90921660688301528051808303605c018152607c9092019052805191012090565b3480156104e957600080fd5b5061028f6104f8366004612bf2565b6111bf565b34801561050957600080fd5b506103ad610518366004612d61565b611265565b34801561052957600080fd5b50610571610538366004612bf2565b60d360205260009081526040902060018101546002820154600383015460049093015491926001600160a01b0391821692908216911684565b604080519485526001600160a01b039384166020860152918316918401919091521660608201526080016102a0565b3480156105ac57600080fd5b5060c9546105c0906001600160a01b031681565b6040516001600160a01b0390911681526020016102a0565b3480156105e457600080fd5b506102ec60cd5481565b3480156105fa57600080fd5b506102c9610609366004612fb4565b611400565b34801561061a57600080fd5b506103ad610629366004612bf2565b611438565b34801561063a57600080fd5b506102ec610649366004612d61565b60d26020526000908152604090205481565b34801561066757600080fd5b506104406040518060400160405280600881526020017f45545320436f726500000000000000000000000000000000000000000000000081525081565b3480156106b057600080fd5b506102ec6106bf366004612d61565b60d16020526000908152604090205481565b3480156106dd57600080fd5b506103ad6106ec366004612d61565b611533565b3480156106fd57600080fd5b5060cb546105c0906001600160a01b031681565b34801561071d57600080fd5b506103ad61072c366004612d61565b6116c6565b34801561073d57600080fd5b506103ad61074c36600461300e565b61181c565b34801561075d57600080fd5b506102c961076c366004612bf2565b600090815260d46020526040902060030154151590565b6103ad610791366004613083565b6119c3565b3480156107a257600080fd5b506103ad6107b136600461313e565b611ea2565b3480156107c257600080fd5b506102ec60cf5481565b3480156107d857600080fd5b5060ca546105c0906001600160a01b031681565b3480156107f857600080fd5b506102ec60d05481565b34801561080e57600080fd5b5061044060405180604001604052806005815260200164302e302e3160d81b81525081565b6040805160208082018790526bffffffffffffffffffffffff19606086811b82168486015287811b8216605485015285811b90911660688401528351808403605c018152607c8401808652815191840191909120600081815260d3855286812060018101546002820154600383015460048401548454609c9a81028c018b01909c528b8852979a94998a998a998a99969788976001600160a01b0396871696958616959092169391928892018282801561090c57602002820191906000526020600020905b8154815260200190600101908083116108f8575b50505050509450965096509650965096505050945094509450945094565b600081815260d4602052604081206002015461094757600061094a565b60015b92915050565b60ca546040517ff143fc6100000000000000000000000000000000000000000000000000000000815260009182916001600160a01b039091169063f143fc61906109a090899089906004016131b3565b602060405180830381865afa1580156109bd573d6000803e3d6000fd5b505050506040513d601f19601f820116820180604052508101906109e191906131c7565b905080610a7d5760ca546040517f7e6d945e0000000000000000000000000000000000000000000000000000000081526001600160a01b0390911690637e6d945e90610a379089908990899089906004016131e0565b6020604051808303816000875af1158015610a56573d6000803e3d6000fd5b505050506040513d601f19601f82011682018060405250810190610a7a91906131c7565b90505b95945050505050565b60d460205260009081526040902080548190610aa190613215565b80601f0160208091040260200160405190810160405280929190818152602001828054610acd90613215565b8015610b1a5780601f10610aef57610100808354040283529160200191610b1a565b820191906000526020600020905b815481529060010190602001808311610afd57829003601f168201915b505050505090806001018054610b2f90613215565b80601f0160208091040260200160405190810160405280929190818152602001828054610b5b90613215565b8015610ba85780601f10610b7d57610100808354040283529160200191610ba8565b820191906000526020600020905b815481529060010190602001808311610b8b57829003601f168201915b505050505090806002015490806003015490806004015490806005018054610bcf90613215565b80601f0160208091040260200160405190810160405280929190818152602001828054610bfb90613215565b8015610c485780601f10610c1d57610100808354040283529160200191610c48565b820191906000526020600020905b815481529060010190602001808311610c2b57829003601f168201915b5050505050905086565b6001600160a01b038116600090815260d2602090815260408083205460d190925282205461094a9190613266565b306001600160a01b037f0000000000000000000000000000000000000000000000000000000000000000161415610d135760405162461bcd60e51b815260206004820152602c60248201527f46756e6374696f6e206d7573742062652063616c6c6564207468726f7567682060448201526b19195b1959d85d1958d85b1b60a21b60648201526084015b60405180910390fd5b7f00000000000000000000000000000000000000000000000000000000000000006001600160a01b0316610d6e7f360894a13ba1a3210667c828492db98dca3e2076cc3735a920a3ca505d382bbc546001600160a01b031690565b6001600160a01b031614610dd95760405162461bcd60e51b815260206004820152602c60248201527f46756e6374696f6e206d7573742062652063616c6c6564207468726f7567682060448201526b6163746976652070726f787960a01b6064820152608401610d0a565b610de281611f3b565b60408051600080825260208201909252610dfe91839190611ff8565b50565b600054610100900460ff16610e1c5760005460ff1615610e20565b303b155b610e925760405162461bcd60e51b815260206004820152602e60248201527f496e697469616c697a61626c653a20636f6e747261637420697320616c72656160448201527f647920696e697469616c697a65640000000000000000000000000000000000006064820152608401610d0a565b600054610100900460ff16158015610eb4576000805461ffff19166101011790555b60c980546001600160a01b038086166001600160a01b03199283161790925560ca805492851692909116919091179055600060cf5566038d7ea4c6800060d055601460cc55601e60cd55603260ce558015610f15576000805461ff00191690555b505050565b306001600160a01b037f0000000000000000000000000000000000000000000000000000000000000000161415610fa85760405162461bcd60e51b815260206004820152602c60248201527f46756e6374696f6e206d7573742062652063616c6c6564207468726f7567682060448201526b19195b1959d85d1958d85b1b60a21b6064820152608401610d0a565b7f00000000000000000000000000000000000000000000000000000000000000006001600160a01b03166110037f360894a13ba1a3210667c828492db98dca3e2076cc3735a920a3ca505d382bbc546001600160a01b031690565b6001600160a01b03161461106e5760405162461bcd60e51b815260206004820152602c60248201527f46756e6374696f6e206d7573742062652063616c6c6564207468726f7567682060448201526b6163746976652070726f787960a01b6064820152608401610d0a565b61107782611f3b565b61108382826001611ff8565b5050565b60cb546000906001600160a01b031633146110e45760405162461bcd60e51b815260206004820152600f60248201527f4f6e6c792045545320656e7375726500000000000000000000000000000000006044820152606401610d0a565b60008a815260d4602052604090206110fd908a8a61299f565b5060008a815260d46020526040902061111a90600101888861299f565b5060008a815260d460205260409020600381018690556004810185905561114590600501848461299f565b506040518a81527f9d29e5045b411bb06d81d8ff11c828d9f1d7eb076eec9ca45eda49fc99f762b29060200160405180910390a15060019998505050505050505050565b600080838360405160200161119f92919061327d565b60408051808303601f190181529190528051602090910120949350505050565b600081815260d36020908152604080832060018101546002820154600383015460048401548454865181890281018901909752808752606098978897889788979096879691956001600160a01b03918216959282169491169291879183018282801561124a57602002820191906000526020600020905b815481526020019060010190808311611236575b50505050509450955095509550955095505091939590929450565b60c9546001600160a01b03166324d7806c336040516001600160e01b031960e084901b1681526001600160a01b039091166004820152602401602060405180830381865afa1580156112bb573d6000803e3d6000fd5b505050506040513d601f19601f820116820180604052508101906112df91906132ac565b6113225760405162461bcd60e51b815260206004820152601460248201527321b0b63632b91036bab9ba1031329030b236b4b760611b6044820152606401610d0a565b6001600160a01b03811661139e5760405162461bcd60e51b815260206004820152602860248201527f4554532e757064617465416363657373436f6e74726f6c733a2043616e6e6f7460448201527f206265207a65726f0000000000000000000000000000000000000000000000006064820152608401610d0a565b60c980546001600160a01b038381166001600160a01b031983168117909355604080519190921680825260208201939093527f31073599bfae2533a348dc816b0ce777b707aa9b67015ca2d86585e842b5c6e991015b60405180910390a15050565b60008061140d8484611189565b600081815260d4602052604090206002015490915061142d576000611430565b60015b949350505050565b60c9546001600160a01b03166324d7806c336040516001600160e01b031960e084901b1681526001600160a01b039091166004820152602401602060405180830381865afa15801561148e573d6000803e3d6000fd5b505050506040513d601f19601f820116820180604052508101906114b291906132ac565b6114f55760405162461bcd60e51b815260206004820152601460248201527321b0b63632b91036bab9ba1031329030b236b4b760611b6044820152606401610d0a565b60d080549082905560408051828152602081018490527f861fa8a0dab775faf9bcbb5388a02f7ac01181c036f5c57982464a2d75c3608e91016113f4565b60c9546001600160a01b03166324d7806c336040516001600160e01b031960e084901b1681526001600160a01b039091166004820152602401602060405180830381865afa158015611589573d6000803e3d6000fd5b505050506040513d601f19601f820116820180604052508101906115ad91906132ac565b6115f05760405162461bcd60e51b815260206004820152601460248201527321b0b63632b91036bab9ba1031329030b236b4b760611b6044820152606401610d0a565b6001600160a01b03811661166c5760405162461bcd60e51b815260206004820152602360248201527f4554532e757064617465455453456e737572653a2043616e6e6f74206265207a60448201527f65726f00000000000000000000000000000000000000000000000000000000006064820152608401610d0a565b60cb80546001600160a01b038381166001600160a01b031983168117909355604080519190921680825260208201939093527fee20190c374934660675d28472968e002fc4af227f2956f59085225ad89239fa91016113f4565b600260335414156117195760405162461bcd60e51b815260206004820152601f60248201527f5265656e7472616e637947756172643a207265656e7472616e742063616c6c006044820152606401610d0a565b60026033556001600160a01b038116600090815260d2602090815260408083205460d190925282205461174c9190613266565b905060008111801561175e5750478111155b15611813576001600160a01b038216600090815260d260205260409020546117879082906132c9565b6001600160a01b038316600081815260d26020526040808220939093559151909183156108fc02918491818181858888f193505050501580156117ce573d6000803e3d6000fd5b50816001600160a01b03167feaff4b37086828766ad3268786972c0cd24259d4c87a80f9d3963a3c3d999b0d8260405161180a91815260200190565b60405180910390a25b50506001603355565b60c9546001600160a01b03166324d7806c336040516001600160e01b031960e084901b1681526001600160a01b039091166004820152602401602060405180830381865afa158015611872573d6000803e3d6000fd5b505050506040513d601f19601f8201168201806040525081019061189691906132ac565b6118d95760405162461bcd60e51b815260206004820152601460248201527321b0b63632b91036bab9ba1031329030b236b4b760611b6044820152606401610d0a565b60646118e582846132c9565b11156119595760405162461bcd60e51b815260206004820152603760248201527f4554532e75706461746550657263656e74616765733a2070657263656e74616760448201527f6573206d757374206e6f74206265206f766572203130300000000000000000006064820152608401610d0a565b60cc82905560cd8190558061196f836064613266565b6119799190613266565b60ce81905560cc5460cd546040805192835260208301919091528101919091527f78c1b0567e296aa5eef70ad2deee29f35e0dd128cac603be855ece3e823f4308906060016113f4565b60026033541415611a165760405162461bcd60e51b815260206004820152601f60248201527f5265656e7472616e637947756172643a207265656e7472616e742063616c6c006044820152606401610d0a565b600260335560c9546001600160a01b0316632b04fd44336040516001600160e01b031960e084901b1681526001600160a01b039091166004820152602401602060405180830381865afa158015611a71573d6000803e3d6000fd5b505050506040513d601f19601f82011682018060405250810190611a9591906132ac565b611ae15760405162461bcd60e51b815260206004820152601060248201527f4f6e6c79207461726765742074797065000000000000000000000000000000006044820152606401610d0a565b60c9546040517f41859ac80000000000000000000000000000000000000000000000000000000081526001600160a01b038681166004830152909116906341859ac890602401602060405180830381865afa158015611b44573d6000803e3d6000fd5b505050506040513d601f19601f82011682018060405250810190611b6891906132ac565b611bda5760405162461bcd60e51b815260206004820152602660248201527f5461673a20546865207075626c6973686572206d75737420626520776869746560448201527f6c697374656400000000000000000000000000000000000000000000000000006064820152608401610d0a565b8680611c285760405162461bcd60e51b815260206004820152601760248201527f4e6f2074616720737472696e677320737570706c6965640000000000000000006044820152606401610d0a565b8060d054611c3691906132e1565b3414611c845760405162461bcd60e51b815260206004820152601a60248201527f5461673a20596f75206d7573742073656e6420746865206665650000000000006044820152606401610d0a565b60c954600090611d45906001600160a01b031663a88ae5b6336040516001600160e01b031960e084901b1681526001600160a01b039091166004820152602401600060405180830381865afa158015611ce1573d6000803e3d6000fd5b505050506040513d6000823e601f3d908101601f19168201604052611d099190810190613300565b89898080601f0160208091040260200160405190810160405280939291908181526020018383808284376000920191909152506121bc92505050565b905060008267ffffffffffffffff811115611d6257611d62612db7565b604051908082528060200260200182016040528015611d8b578160200160208202803683370190505b50905060005b83811015611e04576000611dc98d8d84818110611db057611db061336e565b9050602002810190611dc29190613384565b8b8b610950565b9050611dd5818a6121f4565b80838381518110611de857611de861336e565b602090810291909101015250611dfd816133cb565b9050611d91565b508315611e835760cb546040517f177f2fb5000000000000000000000000000000000000000000000000000000008152600481018490526001600160a01b039091169063177f2fb590602401600060405180830381600087803b158015611e6a57600080fd5b505af1158015611e7e573d6000803e3d6000fd5b505050505b611e908183898989612533565b50506001603355505050505050505050565b600083815260d360205260409020600281015433906001600160a01b0316811480611edc575060048201546001600160a01b038281169116145b611f285760405162461bcd60e51b815260206004820152601660248201527f4f6e6c7920746167676572206f722073706f6e736f72000000000000000000006044820152606401610d0a565b611f33828585612a23565b505050505050565b60c9546001600160a01b03166324d7806c336040516001600160e01b031960e084901b1681526001600160a01b039091166004820152602401602060405180830381865afa158015611f91573d6000803e3d6000fd5b505050506040513d601f19601f82011682018060405250810190611fb591906132ac565b610dfe5760405162461bcd60e51b815260206004820152601460248201527321b0b63632b91036bab9ba1031329030b236b4b760611b6044820152606401610d0a565b600061202b7f360894a13ba1a3210667c828492db98dca3e2076cc3735a920a3ca505d382bbc546001600160a01b031690565b905061203684612677565b6000835111806120435750815b1561205457612052848461272c565b505b7f4910fdfa16fed3260ed0e7147f7cc6da11a60208b5b9406d12a635614ffd9143805460ff166121b557805460ff191660011781556040516001600160a01b038316602482015261210190869060440160408051601f198184030181529190526020810180517bffffffffffffffffffffffffffffffffffffffffffffffffffffffff167f3659cfe60000000000000000000000000000000000000000000000000000000017905261272c565b50805460ff191681557f360894a13ba1a3210667c828492db98dca3e2076cc3735a920a3ca505d382bbc546001600160a01b038381169116146121ac5760405162461bcd60e51b815260206004820152602f60248201527f45524331393637557067726164653a207570677261646520627265616b73206660448201527f75727468657220757067726164657300000000000000000000000000000000006064820152608401610d0a565b6121b585612825565b5050505050565b6000806121c98484611189565b600081815260d46020526040902060020154909150156121ea57905061094a565b6114308484612865565b60ca546040517f878327ab0000000000000000000000000000000000000000000000000000000081526004810184905260009182916001600160a01b039091169063878327ab906024016040805180830381865afa15801561225a573d6000803e3d6000fd5b505050506040513d601f19601f8201168201806040525081019061227e91906133e6565b91509150816001600160a01b0316816001600160a01b0316141561242a57606460cc54346122ac91906132e1565b6122b69190613415565b6001600160a01b038316600090815260d160205260409020546122d991906132c9565b6001600160a01b038316600090815260d1602052604090205560cd5460649061230290346132e1565b61230c9190613415565b6001600160a01b038416600090815260d1602052604090205461232f91906132c9565b6001600160a01b03848116600090815260d160205260408082209390935560ca5492517fa30b4db90000000000000000000000000000000000000000000000000000000081526004810188905290929091169063a30b4db990602401602060405180830381865afa1580156123a8573d6000803e3d6000fd5b505050506040513d601f19601f820116820180604052508101906123cc9190613437565b9050606460ce54346123de91906132e1565b6123e89190613415565b6001600160a01b038216600090815260d1602052604090205461240b91906132c9565b6001600160a01b03909116600090815260d1602052604090205561252d565b606460cc543461243a91906132e1565b6124449190613415565b6001600160a01b038316600090815260d1602052604090205461246791906132c9565b6001600160a01b038316600090815260d1602052604090205560cd5460649061249090346132e1565b61249a9190613415565b6001600160a01b038416600090815260d160205260409020546124bd91906132c9565b6001600160a01b038416600090815260d1602052604090205560ce546064906124e690346132e1565b6124f09190613415565b6001600160a01b038216600090815260d1602052604090205461251391906132c9565b6001600160a01b038216600090815260d160205260409020555b50505050565b6040805160208082018790526bffffffffffffffffffffffff19606087811b82168486015286811b8216605485015285901b1660688301528251808303605c018152607c90920190925280519101206000906040805160a08101825288815260208082018990526001600160a01b0380881683850152888116606084015286166080830152600084815260d382529290922081518051949550919390926125de928492910190612a5d565b5060208281015160018301556040808401516002840180546001600160a01b03199081166001600160a01b03938416179091556060860151600386018054831691841691909117905560809095015160049094018054909516931692909217909255518281527f81b185c481377e520177bddb63bab2a8d220831d7c07b748c2baf29c6e607070910160405180910390a1505050505050565b803b6126eb5760405162461bcd60e51b815260206004820152602d60248201527f455243313936373a206e657720696d706c656d656e746174696f6e206973206e60448201527f6f74206120636f6e7472616374000000000000000000000000000000000000006064820152608401610d0a565b7f360894a13ba1a3210667c828492db98dca3e2076cc3735a920a3ca505d382bbc80546001600160a01b0319166001600160a01b0392909216919091179055565b6060823b6127a25760405162461bcd60e51b815260206004820152602660248201527f416464726573733a2064656c65676174652063616c6c20746f206e6f6e2d636f60448201527f6e747261637400000000000000000000000000000000000000000000000000006064820152608401610d0a565b600080846001600160a01b0316846040516127bd9190613454565b600060405180830381855af49150503d80600081146127f8576040519150601f19603f3d011682016040523d82523d6000602084013e6127fd565b606091505b5091509150610a7d82826040518060600160405280602781526020016134716027913961295f565b61282e81612677565b6040516001600160a01b038216907fbc7cd75a20ee27fd9adebab32041f755214dbc6bffa90cc0225b39da2e5c2d3b90600090a250565b6000806128728484611189565b6040805160c08101825286815260208082018790524282840152600060608301819052608083018190528351808301855281815260a084015284815260d482529290922081518051949550919390926128cf928492910190612a98565b5060208281015180516128e89260018501920190612a98565b5060408201516002820155606082015160038201556080820151600482015560a08201518051612922916005840191602090910190612a98565b50506040518281527f503a6e6145f2d2a2a9b0845c2193aef653400c52f93b1c897bd55d36a396be7c915060200160405180910390a19392505050565b6060831561296e575081612998565b82511561297e5782518084602001fd5b8160405162461bcd60e51b8152600401610d0a9190612f81565b9392505050565b8280546129ab90613215565b90600052602060002090601f0160209004810192826129cd5760008555612a13565b82601f106129e65782800160ff19823516178555612a13565b82800160010185558215612a13579182015b82811115612a135782358255916020019190600101906129f8565b50612a1f929150612b0b565b5090565b828054828255906000526020600020908101928215612a135791602002820182811115612a135782358255916020019190600101906129f8565b828054828255906000526020600020908101928215612a13579160200282015b82811115612a13578251825591602001919060010190612a7d565b828054612aa490613215565b90600052602060002090601f016020900481019282612ac65760008555612a13565b82601f10612adf57805160ff1916838001178555612a13565b82800160010185558215612a135791820182811115612a13578251825591602001919060010190612a7d565b5b80821115612a1f5760008155600101612b0c565b6001600160a01b0381168114610dfe57600080fd5b60008060008060808587031215612b4b57600080fd5b843593506020850135612b5d81612b20565b92506040850135612b6d81612b20565b91506060850135612b7d81612b20565b939692955090935050565b60a0808252865190820181905260009060209060c0840190828a01845b82811015612bc157815184529284019290840190600101612ba5565b50505090830196909652506001600160a01b0393841660408201529183166060830152909116608090910152919050565b600060208284031215612c0457600080fd5b5035919050565b60008083601f840112612c1d57600080fd5b50813567ffffffffffffffff811115612c3557600080fd5b602083019150836020828501011115612c4d57600080fd5b9250929050565b60008060008060608587031215612c6a57600080fd5b843567ffffffffffffffff811115612c8157600080fd5b612c8d87828801612c0b565b9095509350506020850135612ca181612b20565b91506040850135612b7d81612b20565b60005b83811015612ccc578181015183820152602001612cb4565b8381111561252d5750506000910152565b60008151808452612cf5816020860160208601612cb1565b601f01601f19169290920160200192915050565b60c081526000612d1c60c0830189612cdd565b8281036020840152612d2e8189612cdd565b905086604084015285606084015284608084015282810360a0840152612d548185612cdd565b9998505050505050505050565b600060208284031215612d7357600080fd5b813561299881612b20565b60008060408385031215612d9157600080fd5b8235612d9c81612b20565b91506020830135612dac81612b20565b809150509250929050565b634e487b7160e01b600052604160045260246000fd5b604051601f8201601f1916810167ffffffffffffffff81118282101715612df657612df6612db7565b604052919050565b600067ffffffffffffffff821115612e1857612e18612db7565b50601f01601f191660200190565b6000612e39612e3484612dfe565b612dcd565b9050828152838383011115612e4d57600080fd5b828260208301376000602084830101529392505050565b60008060408385031215612e7757600080fd5b8235612e8281612b20565b9150602083013567ffffffffffffffff811115612e9e57600080fd5b8301601f81018513612eaf57600080fd5b612ebe85823560208401612e26565b9150509250929050565b600080600080600080600080600060c08a8c031215612ee657600080fd5b8935985060208a013567ffffffffffffffff80821115612f0557600080fd5b612f118d838e01612c0b565b909a50985060408c0135915080821115612f2a57600080fd5b612f368d838e01612c0b565b909850965060608c0135955060808c0135945060a08c0135915080821115612f5d57600080fd5b50612f6a8c828d01612c0b565b915080935050809150509295985092959850929598565b6020815260006129986020830184612cdd565b600082601f830112612fa557600080fd5b61299883833560208501612e26565b60008060408385031215612fc757600080fd5b823567ffffffffffffffff80821115612fdf57600080fd5b612feb86838701612f94565b9350602085013591508082111561300157600080fd5b50612ebe85828601612f94565b6000806040838503121561302157600080fd5b50508035926020909101359150565b60008083601f84011261304257600080fd5b50813567ffffffffffffffff81111561305a57600080fd5b6020830191508360208260051b8501011115612c4d57600080fd5b8015158114610dfe57600080fd5b60008060008060008060008060c0898b03121561309f57600080fd5b883567ffffffffffffffff808211156130b757600080fd5b6130c38c838d01613030565b909a50985060208b01359150808211156130dc57600080fd5b506130e98b828c01612c0b565b90975095505060408901356130fd81612b20565b9350606089013561310d81612b20565b9250608089013561311d81612b20565b915060a089013561312d81613075565b809150509295985092959890939650565b60008060006040848603121561315357600080fd5b83359250602084013567ffffffffffffffff81111561317157600080fd5b61317d86828701613030565b9497909650939450505050565b81835281816020850137506000828201602090810191909152601f909101601f19169091010190565b60208152600061143060208301848661318a565b6000602082840312156131d957600080fd5b5051919050565b6060815260006131f460608301868861318a565b6001600160a01b039485166020840152929093166040909101529392505050565b600181811c9082168061322957607f821691505b6020821081141561324a57634e487b7160e01b600052602260045260246000fd5b50919050565b634e487b7160e01b600052601160045260246000fd5b60008282101561327857613278613250565b500390565b6000835161328f818460208801612cb1565b8351908301906132a3818360208801612cb1565b01949350505050565b6000602082840312156132be57600080fd5b815161299881613075565b600082198211156132dc576132dc613250565b500190565b60008160001904831182151516156132fb576132fb613250565b500290565b60006020828403121561331257600080fd5b815167ffffffffffffffff81111561332957600080fd5b8201601f8101841361333a57600080fd5b8051613348612e3482612dfe565b81815285602083850101111561335d57600080fd5b610a7d826020830160208601612cb1565b634e487b7160e01b600052603260045260246000fd5b6000808335601e1984360301811261339b57600080fd5b83018035915067ffffffffffffffff8211156133b657600080fd5b602001915036819003821315612c4d57600080fd5b60006000198214156133df576133df613250565b5060010190565b600080604083850312156133f957600080fd5b825161340481612b20565b6020840151909250612dac81612b20565b60008261343257634e487b7160e01b600052601260045260246000fd5b500490565b60006020828403121561344957600080fd5b815161299881612b20565b60008251613466818460208701612cb1565b919091019291505056fe416464726573733a206c6f772d6c6576656c2064656c65676174652063616c6c206661696c6564a26469706673582212204b9f6d058d3e011c11d11fa69d0a08fbe9a09147ea3913b76d028d5d138c90cd64736f6c634300080c0033",
  "linkReferences": {},
  "deployedLinkReferences": {}
}