{
  "_format": "hh-sol-artifact-1",
  "contractName": "ETSUpgrade",
  "sourceName": "contracts/utils/UUPS/UUPSTesting.sol",
  "abi": [
    {
      "anonymous": false,
      "inputs": [
        {
          "indexed": false,
          "internalType": "address",
          "name": "previousAccessControls",
          "type": "address"
        },
        {
          "indexed": false,
          "internalType": "address",
          "name": "newAccessControls",
          "type": "address"
        }
      ],
      "name": "AccessControlsUpdated",
      "type": "event"
    },
    {
      "anonymous": false,
      "inputs": [
        {
          "indexed": false,
          "internalType": "address",
          "name": "previousAdmin",
          "type": "address"
        },
        {
          "indexed": false,
          "internalType": "address",
          "name": "newAdmin",
          "type": "address"
        }
      ],
      "name": "AdminChanged",
      "type": "event"
    },
    {
      "anonymous": false,
      "inputs": [
        {
          "indexed": true,
          "internalType": "address",
          "name": "beacon",
          "type": "address"
        }
      ],
      "name": "BeaconUpgraded",
      "type": "event"
    },
    {
      "anonymous": false,
      "inputs": [
        {
          "indexed": false,
          "internalType": "address",
          "name": "previousETSEnsure",
          "type": "address"
        },
        {
          "indexed": false,
          "internalType": "address",
          "name": "newETSEnsure",
          "type": "address"
        }
      ],
      "name": "ETSEnsureUpdated",
      "type": "event"
    },
    {
      "anonymous": false,
      "inputs": [
        {
          "indexed": true,
          "internalType": "address",
          "name": "who",
          "type": "address"
        },
        {
          "indexed": false,
          "internalType": "uint256",
          "name": "amount",
          "type": "uint256"
        }
      ],
      "name": "FundsWithdrawn",
      "type": "event"
    },
    {
      "anonymous": false,
      "inputs": [
        {
          "indexed": false,
          "internalType": "uint256",
          "name": "platformPercentage",
          "type": "uint256"
        },
        {
          "indexed": false,
          "internalType": "uint256",
          "name": "publisherPercentage",
          "type": "uint256"
        },
        {
          "indexed": false,
          "internalType": "uint256",
          "name": "remainingPercentage",
          "type": "uint256"
        }
      ],
      "name": "PercentagesSet",
      "type": "event"
    },
    {
      "anonymous": false,
      "inputs": [
        {
          "indexed": false,
          "internalType": "uint256",
          "name": "targetId",
          "type": "uint256"
        }
      ],
      "name": "RequestEnsureTarget",
      "type": "event"
    },
    {
      "anonymous": false,
      "inputs": [
        {
          "indexed": false,
          "internalType": "uint256",
          "name": "previousFee",
          "type": "uint256"
        },
        {
          "indexed": false,
          "internalType": "uint256",
          "name": "taggingFee",
          "type": "uint256"
        }
      ],
      "name": "TaggingFeeSet",
      "type": "event"
    },
    {
      "anonymous": false,
      "inputs": [
        {
          "indexed": false,
          "internalType": "uint256",
          "name": "targetId",
          "type": "uint256"
        }
      ],
      "name": "TargetCreated",
      "type": "event"
    },
    {
      "anonymous": false,
      "inputs": [
        {
          "indexed": false,
          "internalType": "uint256",
          "name": "taggingId",
          "type": "uint256"
        }
      ],
      "name": "TargetTagged",
      "type": "event"
    },
    {
      "anonymous": false,
      "inputs": [
        {
          "indexed": false,
          "internalType": "string",
          "name": "typeName",
          "type": "string"
        },
        {
          "indexed": false,
          "internalType": "bool",
          "name": "setting",
          "type": "bool"
        }
      ],
      "name": "TargetTypeSet",
      "type": "event"
    },
    {
      "anonymous": false,
      "inputs": [
        {
          "indexed": false,
          "internalType": "uint256",
          "name": "targetId",
          "type": "uint256"
        }
      ],
      "name": "TargetUpdated",
      "type": "event"
    },
    {
      "anonymous": false,
      "inputs": [
        {
          "indexed": true,
          "internalType": "address",
          "name": "implementation",
          "type": "address"
        }
      ],
      "name": "Upgraded",
      "type": "event"
    },
    {
      "inputs": [],
      "name": "NAME",
      "outputs": [
        {
          "internalType": "string",
          "name": "",
          "type": "string"
        }
      ],
      "stateMutability": "view",
      "type": "function"
    },
    {
      "inputs": [],
      "name": "VERSION",
      "outputs": [
        {
          "internalType": "string",
          "name": "",
          "type": "string"
        }
      ],
      "stateMutability": "view",
      "type": "function"
    },
    {
      "inputs": [],
      "name": "accessControls",
      "outputs": [
        {
          "internalType": "contract ETSAccessControls",
          "name": "",
          "type": "address"
        }
      ],
      "stateMutability": "view",
      "type": "function"
    },
    {
      "inputs": [
        {
          "internalType": "address",
          "name": "",
          "type": "address"
        }
      ],
      "name": "accrued",
      "outputs": [
        {
          "internalType": "uint256",
          "name": "",
          "type": "uint256"
        }
      ],
      "stateMutability": "view",
      "type": "function"
    },
    {
      "inputs": [
        {
          "internalType": "uint256",
          "name": "_targetId",
          "type": "uint256"
        },
        {
          "internalType": "address",
          "name": "_publisher",
          "type": "address"
        },
        {
          "internalType": "address",
          "name": "_tagger",
          "type": "address"
        },
        {
          "internalType": "address",
          "name": "_sponsor",
          "type": "address"
        }
      ],
      "name": "computeTaggingRecordId",
      "outputs": [
        {
          "internalType": "uint256",
          "name": "taggingRecordId",
          "type": "uint256"
        }
      ],
      "stateMutability": "pure",
      "type": "function"
    },
    {
      "inputs": [
        {
          "internalType": "string",
          "name": "_targetType",
          "type": "string"
        },
        {
          "internalType": "string",
          "name": "_targetURI",
          "type": "string"
        }
      ],
      "name": "computeTargetId",
      "outputs": [
        {
          "internalType": "uint256",
          "name": "targetId",
          "type": "uint256"
        }
      ],
      "stateMutability": "pure",
      "type": "function"
    },
    {
      "inputs": [
        {
          "internalType": "address payable",
          "name": "_account",
          "type": "address"
        }
      ],
      "name": "drawDown",
      "outputs": [],
      "stateMutability": "nonpayable",
      "type": "function"
    },
    {
      "inputs": [],
      "name": "etsEnsure",
      "outputs": [
        {
          "internalType": "contract ETSEnsure",
          "name": "",
          "type": "address"
        }
      ],
      "stateMutability": "view",
      "type": "function"
    },
    {
      "inputs": [],
      "name": "etsTag",
      "outputs": [
        {
          "internalType": "contract ETSTag",
          "name": "",
          "type": "address"
        }
      ],
      "stateMutability": "view",
      "type": "function"
    },
    {
      "inputs": [
        {
          "internalType": "string",
          "name": "_tagString",
          "type": "string"
        },
        {
          "internalType": "address payable",
          "name": "_publisher",
          "type": "address"
        },
        {
          "internalType": "address",
          "name": "_tagger",
          "type": "address"
        }
      ],
      "name": "getOrCreateTag",
      "outputs": [
        {
          "internalType": "uint256",
          "name": "tagId",
          "type": "uint256"
        }
      ],
      "stateMutability": "payable",
      "type": "function"
    },
    {
      "inputs": [
        {
          "internalType": "uint256",
          "name": "_targetId",
          "type": "uint256"
        },
        {
          "internalType": "address",
          "name": "_tagger",
          "type": "address"
        },
        {
          "internalType": "address",
          "name": "_publisher",
          "type": "address"
        },
        {
          "internalType": "address",
          "name": "_sponsor",
          "type": "address"
        }
      ],
      "name": "getTaggingRecord",
      "outputs": [
        {
          "internalType": "uint256[]",
          "name": "etsTagIds",
          "type": "uint256[]"
        },
        {
          "internalType": "uint256",
          "name": "targetId",
          "type": "uint256"
        },
        {
          "internalType": "address",
          "name": "tagger",
          "type": "address"
        },
        {
          "internalType": "address",
          "name": "publisher",
          "type": "address"
        },
        {
          "internalType": "address",
          "name": "sponsor",
          "type": "address"
        }
      ],
      "stateMutability": "view",
      "type": "function"
    },
    {
      "inputs": [
        {
          "internalType": "uint256",
          "name": "_taggingId",
          "type": "uint256"
        }
      ],
      "name": "getTaggingRecordFromId",
      "outputs": [
        {
          "internalType": "uint256[]",
          "name": "etsTagIds",
          "type": "uint256[]"
        },
        {
          "internalType": "uint256",
          "name": "targetId",
          "type": "uint256"
        },
        {
          "internalType": "address",
          "name": "tagger",
          "type": "address"
        },
        {
          "internalType": "address",
          "name": "publisher",
          "type": "address"
        },
        {
          "internalType": "address",
          "name": "sponsor",
          "type": "address"
        }
      ],
      "stateMutability": "view",
      "type": "function"
    },
    {
      "inputs": [
        {
          "internalType": "contract ETSAccessControls",
          "name": "_accessControls",
          "type": "address"
        },
        {
          "internalType": "contract ETSTag",
          "name": "_etsTag",
          "type": "address"
        }
      ],
      "name": "initialize",
      "outputs": [],
      "stateMutability": "nonpayable",
      "type": "function"
    },
    {
      "inputs": [
        {
          "internalType": "uint256",
          "name": "_targetId",
          "type": "uint256"
        }
      ],
      "name": "isTargetEnsured",
      "outputs": [
        {
          "internalType": "bool",
          "name": "",
          "type": "bool"
        }
      ],
      "stateMutability": "view",
      "type": "function"
    },
    {
      "inputs": [],
      "name": "modulo",
      "outputs": [
        {
          "internalType": "uint256",
          "name": "",
          "type": "uint256"
        }
      ],
      "stateMutability": "view",
      "type": "function"
    },
    {
      "inputs": [
        {
          "internalType": "address",
          "name": "",
          "type": "address"
        }
      ],
      "name": "paid",
      "outputs": [
        {
          "internalType": "uint256",
          "name": "",
          "type": "uint256"
        }
      ],
      "stateMutability": "view",
      "type": "function"
    },
    {
      "inputs": [],
      "name": "platformPercentage",
      "outputs": [
        {
          "internalType": "uint256",
          "name": "",
          "type": "uint256"
        }
      ],
      "stateMutability": "view",
      "type": "function"
    },
    {
      "inputs": [],
      "name": "publisherPercentage",
      "outputs": [
        {
          "internalType": "uint256",
          "name": "",
          "type": "uint256"
        }
      ],
      "stateMutability": "view",
      "type": "function"
    },
    {
      "inputs": [],
      "name": "remainingPercentage",
      "outputs": [
        {
          "internalType": "uint256",
          "name": "",
          "type": "uint256"
        }
      ],
      "stateMutability": "view",
      "type": "function"
    },
    {
      "inputs": [
        {
          "internalType": "string[]",
          "name": "_tags",
          "type": "string[]"
        },
        {
          "internalType": "string",
          "name": "_targetURI",
          "type": "string"
        },
        {
          "internalType": "address payable",
          "name": "_publisher",
          "type": "address"
        },
        {
          "internalType": "address",
          "name": "_tagger",
          "type": "address"
        },
        {
          "internalType": "address",
          "name": "_sponsor",
          "type": "address"
        },
        {
          "internalType": "bool",
          "name": "_ensure",
          "type": "bool"
        }
      ],
      "name": "tagTarget",
      "outputs": [],
      "stateMutability": "payable",
      "type": "function"
    },
    {
      "inputs": [],
      "name": "taggingCounter",
      "outputs": [
        {
          "internalType": "uint256",
          "name": "",
          "type": "uint256"
        }
      ],
      "stateMutability": "view",
      "type": "function"
    },
    {
      "inputs": [],
      "name": "taggingFee",
      "outputs": [
        {
          "internalType": "uint256",
          "name": "",
          "type": "uint256"
        }
      ],
      "stateMutability": "view",
      "type": "function"
    },
    {
      "inputs": [
        {
          "internalType": "uint256",
          "name": "",
          "type": "uint256"
        }
      ],
      "name": "taggingRecords",
      "outputs": [
        {
          "internalType": "uint256",
          "name": "targetId",
          "type": "uint256"
        },
        {
          "internalType": "address",
          "name": "tagger",
          "type": "address"
        },
        {
          "internalType": "address",
          "name": "publisher",
          "type": "address"
        },
        {
          "internalType": "address",
          "name": "sponsor",
          "type": "address"
        }
      ],
      "stateMutability": "view",
      "type": "function"
    },
    {
      "inputs": [
        {
          "internalType": "string",
          "name": "_targetType",
          "type": "string"
        },
        {
          "internalType": "string",
          "name": "_targetURI",
          "type": "string"
        }
      ],
      "name": "targetExists",
      "outputs": [
        {
          "internalType": "bool",
          "name": "",
          "type": "bool"
        }
      ],
      "stateMutability": "view",
      "type": "function"
    },
    {
      "inputs": [
        {
          "internalType": "uint256",
          "name": "_targetId",
          "type": "uint256"
        }
      ],
      "name": "targetExistsFromId",
      "outputs": [
        {
          "internalType": "bool",
          "name": "",
          "type": "bool"
        }
      ],
      "stateMutability": "view",
      "type": "function"
    },
    {
      "inputs": [
        {
          "internalType": "uint256",
          "name": "",
          "type": "uint256"
        }
      ],
      "name": "targets",
      "outputs": [
        {
          "internalType": "string",
          "name": "targetType",
          "type": "string"
        },
        {
          "internalType": "string",
          "name": "targetURI",
          "type": "string"
        },
        {
          "internalType": "uint256",
          "name": "created",
          "type": "uint256"
        },
        {
          "internalType": "uint256",
          "name": "lastEnsured",
          "type": "uint256"
        },
        {
          "internalType": "uint256",
          "name": "status",
          "type": "uint256"
        },
        {
          "internalType": "string",
          "name": "ipfsHash",
          "type": "string"
        }
      ],
      "stateMutability": "view",
      "type": "function"
    },
    {
      "inputs": [
        {
          "internalType": "address",
          "name": "_account",
          "type": "address"
        }
      ],
      "name": "totalDue",
      "outputs": [
        {
          "internalType": "uint256",
          "name": "_due",
          "type": "uint256"
        }
      ],
      "stateMutability": "view",
      "type": "function"
    },
    {
      "inputs": [
        {
          "internalType": "contract ETSAccessControls",
          "name": "_accessControls",
          "type": "address"
        }
      ],
      "name": "updateAccessControls",
      "outputs": [],
      "stateMutability": "nonpayable",
      "type": "function"
    },
    {
      "inputs": [
        {
          "internalType": "contract ETSEnsure",
          "name": "_etsEnsure",
          "type": "address"
        }
      ],
      "name": "updateETSEnsure",
      "outputs": [],
      "stateMutability": "nonpayable",
      "type": "function"
    },
    {
      "inputs": [
        {
          "internalType": "uint256",
          "name": "_platformPercentage",
          "type": "uint256"
        },
        {
          "internalType": "uint256",
          "name": "_publisherPercentage",
          "type": "uint256"
        }
      ],
      "name": "updatePercentages",
      "outputs": [],
      "stateMutability": "nonpayable",
      "type": "function"
    },
    {
      "inputs": [
        {
          "internalType": "uint256",
          "name": "_fee",
          "type": "uint256"
        }
      ],
      "name": "updateTaggingFee",
      "outputs": [],
      "stateMutability": "nonpayable",
      "type": "function"
    },
    {
      "inputs": [
        {
          "internalType": "uint256",
          "name": "_taggingRecordId",
          "type": "uint256"
        },
        {
          "internalType": "string[]",
          "name": "_tags",
          "type": "string[]"
        }
      ],
      "name": "updateTaggingRecord",
      "outputs": [],
      "stateMutability": "payable",
      "type": "function"
    },
    {
      "inputs": [
        {
          "internalType": "uint256",
          "name": "_targetId",
          "type": "uint256"
        },
        {
          "internalType": "string",
          "name": "_targetType",
          "type": "string"
        },
        {
          "internalType": "string",
          "name": "_targetURI",
          "type": "string"
        },
        {
          "internalType": "uint256",
          "name": "_lastEnsured",
          "type": "uint256"
        },
        {
          "internalType": "uint256",
          "name": "_status",
          "type": "uint256"
        },
        {
          "internalType": "string",
          "name": "_ipfsHash",
          "type": "string"
        }
      ],
      "name": "updateTarget",
      "outputs": [
        {
          "internalType": "bool",
          "name": "success",
          "type": "bool"
        }
      ],
      "stateMutability": "nonpayable",
      "type": "function"
    },
    {
      "inputs": [],
      "name": "upgradeTest",
      "outputs": [
        {
          "internalType": "bool",
          "name": "",
          "type": "bool"
        }
      ],
      "stateMutability": "pure",
      "type": "function"
    },
    {
      "inputs": [
        {
          "internalType": "address",
          "name": "newImplementation",
          "type": "address"
        }
      ],
      "name": "upgradeTo",
      "outputs": [],
      "stateMutability": "nonpayable",
      "type": "function"
    },
    {
      "inputs": [
        {
          "internalType": "address",
          "name": "newImplementation",
          "type": "address"
        },
        {
          "internalType": "bytes",
          "name": "data",
          "type": "bytes"
        }
      ],
      "name": "upgradeToAndCall",
      "outputs": [],
      "stateMutability": "payable",
      "type": "function"
    },
    {
      "inputs": [],
      "name": "version",
      "outputs": [
        {
          "internalType": "string",
          "name": "",
          "type": "string"
        }
      ],
      "stateMutability": "pure",
      "type": "function"
    }
  ],
  "bytecode": "0x60a06040523060805234801561001457600080fd5b506080516136c361004560003960008181610f0e01528181610f93015281816112a6015261132b01526136c36000f3fe60806040526004361061026a5760003560e01c80636ef3da9411610153578063b7d0e7dd116100cb578063e88b772c1161007f578063f8bc3cc611610064578063f8bc3cc6146107bb578063fe52656f146107db578063ffa1ad74146107f157600080fd5b8063e88b772c14610785578063ebc67e1f1461079b57600080fd5b8063c20d2295116100b0578063c20d229514610720578063ce0e0eed14610740578063d64f55c91461077257600080fd5b8063b7d0e7dd146106e0578063c20620051461070057600080fd5b8063817a1fbd11610122578063a3f4df7e11610107578063a3f4df7e1461064a578063b148440f14610693578063b205f808146106c057600080fd5b8063817a1fbd146105fd578063a340cf791461061d57600080fd5b80636ef3da941461050c57806374716c811461052c578063748365ef146105af5780637e2e4c52146105e757600080fd5b80633d20b15c116101e6578063507f3ba1116101b55780635dffa7fe1161019a5780635dffa7fe1461045c57806360c1cade1461047c57806368fd4dee146104ec57600080fd5b8063507f3ba11461040557806354fd4d501461042557600080fd5b80633d20b15c14610392578063485cc955146103b25780634967b35f146103d25780634f1ef286146103f257600080fd5b80630ad2f0c31161023d57806329745262116102225780632974526214610347578063337ccf9d1461035c5780633659cfe61461037257600080fd5b80630ad2f0c3146103115780631f7418971461033157600080fd5b80630438837c1461026f57806307348e26146102a95780630819d640146102ca5780630a39ce02146102df575b600080fd5b34801561027b57600080fd5b5061028f61028a366004612d2b565b610822565b6040516102a0959493929190612d7e565b60405180910390f35b6102bc6102b7366004612e31565b610919565b6040519081526020016102a0565b6102dd6102d8366004612ed3565b610ad3565b005b3480156102eb57600080fd5b506102ff6102fa366004612f1f565b610d03565b6040516102a096959493929190612f90565b34801561031d57600080fd5b506102bc61032c366004612fe8565b610ecf565b34801561033d57600080fd5b506102bc60cc5481565b34801561035357600080fd5b506102bc606481565b34801561036857600080fd5b506102bc60ce5481565b34801561037e57600080fd5b506102dd61038d366004612fe8565b610f03565b34801561039e57600080fd5b5060015b60405190151581526020016102a0565b3480156103be57600080fd5b506102dd6103cd366004613005565b61107f565b3480156103de57600080fd5b506102dd6103ed366004612f1f565b611198565b6102dd6104003660046130eb565b61129b565b34801561041157600080fd5b506103a261042036600461314f565b611408565b34801561043157600080fd5b50604080518082019091526005815264302e302e3160d81b60208201525b6040516102a09190613208565b34801561046857600080fd5b506102bc61047736600461323b565b61150a565b34801561048857600080fd5b506102bc610497366004612d2b565b604080516020808201969096526bffffffffffffffffffffffff19606094851b81168284015294841b851660548201529190921b90921660688301528051808303605c018152607c9092019052805191012090565b3480156104f857600080fd5b5061028f610507366004612f1f565b611540565b34801561051857600080fd5b506102dd610527366004612fe8565b6115e6565b34801561053857600080fd5b50610580610547366004612f1f565b60d360205260009081526040902060018101546002820154600383015460049093015491926001600160a01b0391821692908216911684565b604080519485526001600160a01b039384166020860152918316918401919091521660608201526080016102a0565b3480156105bb57600080fd5b5060c9546105cf906001600160a01b031681565b6040516001600160a01b0390911681526020016102a0565b3480156105f357600080fd5b506102bc60cd5481565b34801561060957600080fd5b506103a261061836600461323b565b611779565b34801561062957600080fd5b506102bc610638366004612fe8565b60d26020526000908152604090205481565b34801561065657600080fd5b5061044f6040518060400160405280600881526020017f45545320436f726500000000000000000000000000000000000000000000000081525081565b34801561069f57600080fd5b506102bc6106ae366004612fe8565b60d16020526000908152604090205481565b3480156106cc57600080fd5b506102dd6106db366004612fe8565b6117b1565b3480156106ec57600080fd5b5060cb546105cf906001600160a01b031681565b34801561070c57600080fd5b506102dd61071b366004612fe8565b611944565b34801561072c57600080fd5b506102dd61073b366004613295565b611a9a565b34801561074c57600080fd5b506103a261075b366004612f1f565b600090815260d46020526040902060030154151590565b6102dd6107803660046132c5565b611c41565b34801561079157600080fd5b506102bc60cf5481565b3480156107a757600080fd5b506103a26107b6366004612f1f565b612146565b3480156107c757600080fd5b5060ca546105cf906001600160a01b031681565b3480156107e757600080fd5b506102bc60d05481565b3480156107fd57600080fd5b5061044f60405180604001604052806005815260200164302e302e3160d81b81525081565b6040805160208082018790526bffffffffffffffffffffffff19606086811b82168486015287811b8216605485015285811b90911660688401528351808403605c018152607c8401808652815191840191909120600081815260d3855286812060018101546002820154600383015460048401548454609c9a81028c018b01909c528b8852979a94998a998a998a99969788976001600160a01b039687169695861695909216939192889201828280156108fb57602002820191906000526020600020905b8154815260200190600101908083116108e7575b50505050509450965096509650965096505050945094509450945094565b60ca546040517ff143fc6100000000000000000000000000000000000000000000000000000000815260009182916001600160a01b039091169063f143fc619061096990899089906004016133a9565b602060405180830381865afa158015610986573d6000803e3d6000fd5b505050506040513d601f19601f820116820180604052508101906109aa91906133bd565b60ca546040517fd3c80bd8000000000000000000000000000000000000000000000000000000008152600481018390529192506001600160a01b03169063d3c80bd890602401602060405180830381865afa158015610a0d573d6000803e3d6000fd5b505050506040513d601f19601f82011682018060405250810190610a3191906133d6565b610aca5760ca546040517f7e6d945e0000000000000000000000000000000000000000000000000000000081526001600160a01b0390911690637e6d945e90610a849089908990899089906004016133f3565b6020604051808303816000875af1158015610aa3573d6000803e3d6000fd5b505050506040513d601f19601f82011682018060405250810190610ac791906133bd565b90505b95945050505050565b80610b255760405162461bcd60e51b815260206004820152600b60248201527f456d70747920617272617900000000000000000000000000000000000000000060448201526064015b60405180910390fd5b600083815260d3602052604090208054339080841115610bab576000610b4b828661343e565b905060d05481610b5b9190613455565b3414610ba95760405162461bcd60e51b815260206004820152601c60248201527f4164646974696f6e616c207461677320726571756972652066656573000000006044820152606401610b1c565b505b60028301546001600160a01b0383811691161480610bd8575060048301546001600160a01b038381169116145b610c245760405162461bcd60e51b815260206004820152601660248201527f4f6e6c7920746167676572206f722073706f6e736f72000000000000000000006044820152606401610b1c565b8360008167ffffffffffffffff811115610c4057610c4061303e565b604051908082528060200260200182016040528015610c69578160200160208202803683370190505b50905060005b82811015610ce5576000610cbc898984818110610c8e57610c8e613474565b9050602002810190610ca0919061348a565b60038a015460028b01546001600160a01b039182169116610919565b905080838381518110610cd157610cd1613474565b602090810291909101015250600101610c6f565b508051610cf89086906020840190612bcf565b505050505050505050565b60d460205260009081526040902080548190610d1e906134d1565b80601f0160208091040260200160405190810160405280929190818152602001828054610d4a906134d1565b8015610d975780601f10610d6c57610100808354040283529160200191610d97565b820191906000526020600020905b815481529060010190602001808311610d7a57829003601f168201915b505050505090806001018054610dac906134d1565b80601f0160208091040260200160405190810160405280929190818152602001828054610dd8906134d1565b8015610e255780601f10610dfa57610100808354040283529160200191610e25565b820191906000526020600020905b815481529060010190602001808311610e0857829003601f168201915b505050505090806002015490806003015490806004015490806005018054610e4c906134d1565b80601f0160208091040260200160405190810160405280929190818152602001828054610e78906134d1565b8015610ec55780601f10610e9a57610100808354040283529160200191610ec5565b820191906000526020600020905b815481529060010190602001808311610ea857829003601f168201915b5050505050905086565b6001600160a01b038116600090815260d2602090815260408083205460d1909252822054610efd919061343e565b92915050565b306001600160a01b037f0000000000000000000000000000000000000000000000000000000000000000161415610f915760405162461bcd60e51b815260206004820152602c60248201527f46756e6374696f6e206d7573742062652063616c6c6564207468726f7567682060448201526b19195b1959d85d1958d85b1b60a21b6064820152608401610b1c565b7f00000000000000000000000000000000000000000000000000000000000000006001600160a01b0316610fec7f360894a13ba1a3210667c828492db98dca3e2076cc3735a920a3ca505d382bbc546001600160a01b031690565b6001600160a01b0316146110575760405162461bcd60e51b815260206004820152602c60248201527f46756e6374696f6e206d7573742062652063616c6c6564207468726f7567682060448201526b6163746976652070726f787960a01b6064820152608401610b1c565b6110608161216b565b6040805160008082526020820190925261107c91839190612228565b50565b600054610100900460ff1661109a5760005460ff161561109e565b303b155b6111105760405162461bcd60e51b815260206004820152602e60248201527f496e697469616c697a61626c653a20636f6e747261637420697320616c72656160448201527f647920696e697469616c697a65640000000000000000000000000000000000006064820152608401610b1c565b600054610100900460ff16158015611132576000805461ffff19166101011790555b60c980546001600160a01b038086166001600160a01b03199283161790925560ca805492851692909116919091179055600060cf5566038d7ea4c6800060d055601460cc55601e60cd55603260ce558015611193576000805461ff00191690555b505050565b60c9546001600160a01b03166324d7806c336040516001600160e01b031960e084901b1681526001600160a01b039091166004820152602401602060405180830381865afa1580156111ee573d6000803e3d6000fd5b505050506040513d601f19601f8201168201806040525081019061121291906133d6565b6112555760405162461bcd60e51b815260206004820152601460248201527321b0b63632b91036bab9ba1031329030b236b4b760611b6044820152606401610b1c565b60d080549082905560408051828152602081018490527f861fa8a0dab775faf9bcbb5388a02f7ac01181c036f5c57982464a2d75c3608e91015b60405180910390a15050565b306001600160a01b037f00000000000000000000000000000000000000000000000000000000000000001614156113295760405162461bcd60e51b815260206004820152602c60248201527f46756e6374696f6e206d7573742062652063616c6c6564207468726f7567682060448201526b19195b1959d85d1958d85b1b60a21b6064820152608401610b1c565b7f00000000000000000000000000000000000000000000000000000000000000006001600160a01b03166113847f360894a13ba1a3210667c828492db98dca3e2076cc3735a920a3ca505d382bbc546001600160a01b031690565b6001600160a01b0316146113ef5760405162461bcd60e51b815260206004820152602c60248201527f46756e6374696f6e206d7573742062652063616c6c6564207468726f7567682060448201526b6163746976652070726f787960a01b6064820152608401610b1c565b6113f88261216b565b61140482826001612228565b5050565b60cb546000906001600160a01b031633146114655760405162461bcd60e51b815260206004820152600f60248201527f4f6e6c792045545320656e7375726500000000000000000000000000000000006044820152606401610b1c565b60008a815260d46020526040902061147e908a8a612c1a565b5060008a815260d46020526040902061149b906001018888612c1a565b5060008a815260d46020526040902060038101869055600481018590556114c6906005018484612c1a565b506040518a81527f9d29e5045b411bb06d81d8ff11c828d9f1d7eb076eec9ca45eda49fc99f762b29060200160405180910390a15060019998505050505050505050565b600080838360405160200161152092919061350c565b60408051808303601f190181529190528051602090910120949350505050565b600081815260d36020908152604080832060018101546002820154600383015460048401548454865181890281018901909752808752606098978897889788979096879691956001600160a01b0391821695928216949116929187918301828280156115cb57602002820191906000526020600020905b8154815260200190600101908083116115b7575b50505050509450955095509550955095505091939590929450565b60c9546001600160a01b03166324d7806c336040516001600160e01b031960e084901b1681526001600160a01b039091166004820152602401602060405180830381865afa15801561163c573d6000803e3d6000fd5b505050506040513d601f19601f8201168201806040525081019061166091906133d6565b6116a35760405162461bcd60e51b815260206004820152601460248201527321b0b63632b91036bab9ba1031329030b236b4b760611b6044820152606401610b1c565b6001600160a01b03811661171f5760405162461bcd60e51b815260206004820152602860248201527f4554532e757064617465416363657373436f6e74726f6c733a2043616e6e6f7460448201527f206265207a65726f0000000000000000000000000000000000000000000000006064820152608401610b1c565b60c980546001600160a01b038381166001600160a01b031983168117909355604080519190921680825260208201939093527f31073599bfae2533a348dc816b0ce777b707aa9b67015ca2d86585e842b5c6e9910161128f565b600080611786848461150a565b600081815260d460205260409020600201549091506117a65760006117a9565b60015b949350505050565b60c9546001600160a01b03166324d7806c336040516001600160e01b031960e084901b1681526001600160a01b039091166004820152602401602060405180830381865afa158015611807573d6000803e3d6000fd5b505050506040513d601f19601f8201168201806040525081019061182b91906133d6565b61186e5760405162461bcd60e51b815260206004820152601460248201527321b0b63632b91036bab9ba1031329030b236b4b760611b6044820152606401610b1c565b6001600160a01b0381166118ea5760405162461bcd60e51b815260206004820152602360248201527f4554532e757064617465455453456e737572653a2043616e6e6f74206265207a60448201527f65726f00000000000000000000000000000000000000000000000000000000006064820152608401610b1c565b60cb80546001600160a01b038381166001600160a01b031983168117909355604080519190921680825260208201939093527fee20190c374934660675d28472968e002fc4af227f2956f59085225ad89239fa910161128f565b600260335414156119975760405162461bcd60e51b815260206004820152601f60248201527f5265656e7472616e637947756172643a207265656e7472616e742063616c6c006044820152606401610b1c565b60026033556001600160a01b038116600090815260d2602090815260408083205460d19092528220546119ca919061343e565b90506000811180156119dc5750478111155b15611a91576001600160a01b038216600090815260d26020526040902054611a0590829061353b565b6001600160a01b038316600081815260d26020526040808220939093559151909183156108fc02918491818181858888f19350505050158015611a4c573d6000803e3d6000fd5b50816001600160a01b03167feaff4b37086828766ad3268786972c0cd24259d4c87a80f9d3963a3c3d999b0d82604051611a8891815260200190565b60405180910390a25b50506001603355565b60c9546001600160a01b03166324d7806c336040516001600160e01b031960e084901b1681526001600160a01b039091166004820152602401602060405180830381865afa158015611af0573d6000803e3d6000fd5b505050506040513d601f19601f82011682018060405250810190611b1491906133d6565b611b575760405162461bcd60e51b815260206004820152601460248201527321b0b63632b91036bab9ba1031329030b236b4b760611b6044820152606401610b1c565b6064611b63828461353b565b1115611bd75760405162461bcd60e51b815260206004820152603760248201527f4554532e75706461746550657263656e74616765733a2070657263656e74616760448201527f6573206d757374206e6f74206265206f766572203130300000000000000000006064820152608401610b1c565b60cc82905560cd81905580611bed83606461343e565b611bf7919061343e565b60ce81905560cc5460cd546040805192835260208301919091528101919091527f78c1b0567e296aa5eef70ad2deee29f35e0dd128cac603be855ece3e823f43089060600161128f565b60026033541415611c945760405162461bcd60e51b815260206004820152601f60248201527f5265656e7472616e637947756172643a207265656e7472616e742063616c6c006044820152606401610b1c565b600260335560c9546001600160a01b0316632b04fd44336040516001600160e01b031960e084901b1681526001600160a01b039091166004820152602401602060405180830381865afa158015611cef573d6000803e3d6000fd5b505050506040513d601f19601f82011682018060405250810190611d1391906133d6565b611d855760405162461bcd60e51b815260206004820152602b60248201527f4f6e6c7920617574686f72697a656420616464726573736573206d617920636160448201527f6c6c2045545320636f72650000000000000000000000000000000000000000006064820152608401610b1c565b60c9546040517f41859ac80000000000000000000000000000000000000000000000000000000081526001600160a01b038681166004830152909116906341859ac890602401602060405180830381865afa158015611de8573d6000803e3d6000fd5b505050506040513d601f19601f82011682018060405250810190611e0c91906133d6565b611e7e5760405162461bcd60e51b815260206004820152602660248201527f5461673a20546865207075626c6973686572206d75737420626520776869746560448201527f6c697374656400000000000000000000000000000000000000000000000000006064820152608401610b1c565b8680611ecc5760405162461bcd60e51b815260206004820152601760248201527f4e6f2074616720737472696e677320737570706c6965640000000000000000006044820152606401610b1c565b8060d054611eda9190613455565b3414611f285760405162461bcd60e51b815260206004820152601a60248201527f5461673a20596f75206d7573742073656e6420746865206665650000000000006044820152606401610b1c565b60c954600090611fe9906001600160a01b031663a88ae5b6336040516001600160e01b031960e084901b1681526001600160a01b039091166004820152602401600060405180830381865afa158015611f85573d6000803e3d6000fd5b505050506040513d6000823e601f3d908101601f19168201604052611fad9190810190613553565b89898080601f0160208091040260200160405190810160405280939291908181526020018383808284376000920191909152506123ec92505050565b905060008267ffffffffffffffff8111156120065761200661303e565b60405190808252806020026020018201604052801561202f578160200160208202803683370190505b50905060005b838110156120a857600061206d8d8d8481811061205457612054613474565b9050602002810190612066919061348a565b8b8b610919565b9050612079818a612424565b8083838151811061208c5761208c613474565b6020908102919091010152506120a1816135c1565b9050612035565b5083156121275760cb546040517f177f2fb5000000000000000000000000000000000000000000000000000000008152600481018490526001600160a01b039091169063177f2fb590602401600060405180830381600087803b15801561210e57600080fd5b505af1158015612122573d6000803e3d6000fd5b505050505b6121348183898989612763565b50506001603355505050505050505050565b600081815260d46020526040812060020154612163576000610efd565b600192915050565b60c9546001600160a01b03166324d7806c336040516001600160e01b031960e084901b1681526001600160a01b039091166004820152602401602060405180830381865afa1580156121c1573d6000803e3d6000fd5b505050506040513d601f19601f820116820180604052508101906121e591906133d6565b61107c5760405162461bcd60e51b815260206004820152601460248201527321b0b63632b91036bab9ba1031329030b236b4b760611b6044820152606401610b1c565b600061225b7f360894a13ba1a3210667c828492db98dca3e2076cc3735a920a3ca505d382bbc546001600160a01b031690565b9050612266846128a7565b6000835111806122735750815b1561228457612282848461295c565b505b7f4910fdfa16fed3260ed0e7147f7cc6da11a60208b5b9406d12a635614ffd9143805460ff166123e557805460ff191660011781556040516001600160a01b038316602482015261233190869060440160408051601f198184030181529190526020810180517bffffffffffffffffffffffffffffffffffffffffffffffffffffffff167f3659cfe60000000000000000000000000000000000000000000000000000000017905261295c565b50805460ff191681557f360894a13ba1a3210667c828492db98dca3e2076cc3735a920a3ca505d382bbc546001600160a01b038381169116146123dc5760405162461bcd60e51b815260206004820152602f60248201527f45524331393637557067726164653a207570677261646520627265616b73206660448201527f75727468657220757067726164657300000000000000000000000000000000006064820152608401610b1c565b6123e585612a55565b5050505050565b6000806123f9848461150a565b600081815260d460205260409020600201549091501561241a579050610efd565b6117a98484612a95565b60ca546040517f878327ab0000000000000000000000000000000000000000000000000000000081526004810184905260009182916001600160a01b039091169063878327ab906024016040805180830381865afa15801561248a573d6000803e3d6000fd5b505050506040513d601f19601f820116820180604052508101906124ae91906135dc565b91509150816001600160a01b0316816001600160a01b0316141561265a57606460cc54346124dc9190613455565b6124e6919061360b565b6001600160a01b038316600090815260d16020526040902054612509919061353b565b6001600160a01b038316600090815260d1602052604090205560cd546064906125329034613455565b61253c919061360b565b6001600160a01b038416600090815260d1602052604090205461255f919061353b565b6001600160a01b03848116600090815260d160205260408082209390935560ca5492517fa30b4db90000000000000000000000000000000000000000000000000000000081526004810188905290929091169063a30b4db990602401602060405180830381865afa1580156125d8573d6000803e3d6000fd5b505050506040513d601f19601f820116820180604052508101906125fc919061362d565b9050606460ce543461260e9190613455565b612618919061360b565b6001600160a01b038216600090815260d1602052604090205461263b919061353b565b6001600160a01b03909116600090815260d1602052604090205561275d565b606460cc543461266a9190613455565b612674919061360b565b6001600160a01b038316600090815260d16020526040902054612697919061353b565b6001600160a01b038316600090815260d1602052604090205560cd546064906126c09034613455565b6126ca919061360b565b6001600160a01b038416600090815260d160205260409020546126ed919061353b565b6001600160a01b038416600090815260d1602052604090205560ce546064906127169034613455565b612720919061360b565b6001600160a01b038216600090815260d16020526040902054612743919061353b565b6001600160a01b038216600090815260d160205260409020555b50505050565b6040805160208082018790526bffffffffffffffffffffffff19606087811b82168486015286811b8216605485015285901b1660688301528251808303605c018152607c90920190925280519101206000906040805160a08101825288815260208082018990526001600160a01b0380881683850152888116606084015286166080830152600084815260d3825292909220815180519495509193909261280e928492910190612bcf565b5060208281015160018301556040808401516002840180546001600160a01b03199081166001600160a01b03938416179091556060860151600386018054831691841691909117905560809095015160049094018054909516931692909217909255518281527f81b185c481377e520177bddb63bab2a8d220831d7c07b748c2baf29c6e607070910160405180910390a1505050505050565b803b61291b5760405162461bcd60e51b815260206004820152602d60248201527f455243313936373a206e657720696d706c656d656e746174696f6e206973206e60448201527f6f74206120636f6e7472616374000000000000000000000000000000000000006064820152608401610b1c565b7f360894a13ba1a3210667c828492db98dca3e2076cc3735a920a3ca505d382bbc80546001600160a01b0319166001600160a01b0392909216919091179055565b6060823b6129d25760405162461bcd60e51b815260206004820152602660248201527f416464726573733a2064656c65676174652063616c6c20746f206e6f6e2d636f60448201527f6e747261637400000000000000000000000000000000000000000000000000006064820152608401610b1c565b600080846001600160a01b0316846040516129ed919061364a565b600060405180830381855af49150503d8060008114612a28576040519150601f19603f3d011682016040523d82523d6000602084013e612a2d565b606091505b5091509150610aca828260405180606001604052806027815260200161366760279139612b8f565b612a5e816128a7565b6040516001600160a01b038216907fbc7cd75a20ee27fd9adebab32041f755214dbc6bffa90cc0225b39da2e5c2d3b90600090a250565b600080612aa2848461150a565b6040805160c08101825286815260208082018790524282840152600060608301819052608083018190528351808301855281815260a084015284815260d48252929092208151805194955091939092612aff928492910190612c8e565b506020828101518051612b189260018501920190612c8e565b5060408201516002820155606082015160038201556080820151600482015560a08201518051612b52916005840191602090910190612c8e565b50506040518281527f503a6e6145f2d2a2a9b0845c2193aef653400c52f93b1c897bd55d36a396be7c915060200160405180910390a19392505050565b60608315612b9e575081612bc8565b825115612bae5782518084602001fd5b8160405162461bcd60e51b8152600401610b1c9190613208565b9392505050565b828054828255906000526020600020908101928215612c0a579160200282015b82811115612c0a578251825591602001919060010190612bef565b50612c16929150612d01565b5090565b828054612c26906134d1565b90600052602060002090601f016020900481019282612c485760008555612c0a565b82601f10612c615782800160ff19823516178555612c0a565b82800160010185558215612c0a579182015b82811115612c0a578235825591602001919060010190612c73565b828054612c9a906134d1565b90600052602060002090601f016020900481019282612cbc5760008555612c0a565b82601f10612cd557805160ff1916838001178555612c0a565b82800160010185558215612c0a5791820182811115612c0a578251825591602001919060010190612bef565b5b80821115612c165760008155600101612d02565b6001600160a01b038116811461107c57600080fd5b60008060008060808587031215612d4157600080fd5b843593506020850135612d5381612d16565b92506040850135612d6381612d16565b91506060850135612d7381612d16565b939692955090935050565b60a0808252865190820181905260009060209060c0840190828a01845b82811015612db757815184529284019290840190600101612d9b565b50505090830196909652506001600160a01b0393841660408201529183166060830152909116608090910152919050565b60008083601f840112612dfa57600080fd5b50813567ffffffffffffffff811115612e1257600080fd5b602083019150836020828501011115612e2a57600080fd5b9250929050565b60008060008060608587031215612e4757600080fd5b843567ffffffffffffffff811115612e5e57600080fd5b612e6a87828801612de8565b9095509350506020850135612e7e81612d16565b91506040850135612d7381612d16565b60008083601f840112612ea057600080fd5b50813567ffffffffffffffff811115612eb857600080fd5b6020830191508360208260051b8501011115612e2a57600080fd5b600080600060408486031215612ee857600080fd5b83359250602084013567ffffffffffffffff811115612f0657600080fd5b612f1286828701612e8e565b9497909650939450505050565b600060208284031215612f3157600080fd5b5035919050565b60005b83811015612f53578181015183820152602001612f3b565b8381111561275d5750506000910152565b60008151808452612f7c816020860160208601612f38565b601f01601f19169290920160200192915050565b60c081526000612fa360c0830189612f64565b8281036020840152612fb58189612f64565b905086604084015285606084015284608084015282810360a0840152612fdb8185612f64565b9998505050505050505050565b600060208284031215612ffa57600080fd5b8135612bc881612d16565b6000806040838503121561301857600080fd5b823561302381612d16565b9150602083013561303381612d16565b809150509250929050565b634e487b7160e01b600052604160045260246000fd5b604051601f8201601f1916810167ffffffffffffffff8111828210171561307d5761307d61303e565b604052919050565b600067ffffffffffffffff82111561309f5761309f61303e565b50601f01601f191660200190565b60006130c06130bb84613085565b613054565b90508281528383830111156130d457600080fd5b828260208301376000602084830101529392505050565b600080604083850312156130fe57600080fd5b823561310981612d16565b9150602083013567ffffffffffffffff81111561312557600080fd5b8301601f8101851361313657600080fd5b613145858235602084016130ad565b9150509250929050565b600080600080600080600080600060c08a8c03121561316d57600080fd5b8935985060208a013567ffffffffffffffff8082111561318c57600080fd5b6131988d838e01612de8565b909a50985060408c01359150808211156131b157600080fd5b6131bd8d838e01612de8565b909850965060608c0135955060808c0135945060a08c01359150808211156131e457600080fd5b506131f18c828d01612de8565b915080935050809150509295985092959850929598565b602081526000612bc86020830184612f64565b600082601f83011261322c57600080fd5b612bc8838335602085016130ad565b6000806040838503121561324e57600080fd5b823567ffffffffffffffff8082111561326657600080fd5b6132728683870161321b565b9350602085013591508082111561328857600080fd5b506131458582860161321b565b600080604083850312156132a857600080fd5b50508035926020909101359150565b801515811461107c57600080fd5b60008060008060008060008060c0898b0312156132e157600080fd5b883567ffffffffffffffff808211156132f957600080fd5b6133058c838d01612e8e565b909a50985060208b013591508082111561331e57600080fd5b5061332b8b828c01612de8565b909750955050604089013561333f81612d16565b9350606089013561334f81612d16565b9250608089013561335f81612d16565b915060a089013561336f816132b7565b809150509295985092959890939650565b81835281816020850137506000828201602090810191909152601f909101601f19169091010190565b6020815260006117a9602083018486613380565b6000602082840312156133cf57600080fd5b5051919050565b6000602082840312156133e857600080fd5b8151612bc8816132b7565b606081526000613407606083018688613380565b6001600160a01b039485166020840152929093166040909101529392505050565b634e487b7160e01b600052601160045260246000fd5b60008282101561345057613450613428565b500390565b600081600019048311821515161561346f5761346f613428565b500290565b634e487b7160e01b600052603260045260246000fd5b6000808335601e198436030181126134a157600080fd5b83018035915067ffffffffffffffff8211156134bc57600080fd5b602001915036819003821315612e2a57600080fd5b600181811c908216806134e557607f821691505b6020821081141561350657634e487b7160e01b600052602260045260246000fd5b50919050565b6000835161351e818460208801612f38565b835190830190613532818360208801612f38565b01949350505050565b6000821982111561354e5761354e613428565b500190565b60006020828403121561356557600080fd5b815167ffffffffffffffff81111561357c57600080fd5b8201601f8101841361358d57600080fd5b805161359b6130bb82613085565b8181528560208385010111156135b057600080fd5b610aca826020830160208601612f38565b60006000198214156135d5576135d5613428565b5060010190565b600080604083850312156135ef57600080fd5b82516135fa81612d16565b602084015190925061303381612d16565b60008261362857634e487b7160e01b600052601260045260246000fd5b500490565b60006020828403121561363f57600080fd5b8151612bc881612d16565b6000825161365c818460208701612f38565b919091019291505056fe416464726573733a206c6f772d6c6576656c2064656c65676174652063616c6c206661696c6564a2646970667358221220d97694337d66d3701f2b0ab1012cfef9eaf1bf9f6d2d2e2c851fa526fc77754064736f6c634300080c0033",
  "linkReferences": {},
  "deployedLinkReferences": {}
}