{
  "address": "0x5FC8d32690cc91D4c39d9d3abcBD16989F875707",
  "abi": [
    {
      "anonymous": false,
      "inputs": [
        {
          "indexed": false,
          "internalType": "address",
          "name": "previousAccessControls",
          "type": "address"
        },
        {
          "indexed": false,
          "internalType": "address",
          "name": "newAccessControls",
          "type": "address"
        }
      ],
      "name": "AccessControlsUpdated",
      "type": "event"
    },
    {
      "anonymous": false,
      "inputs": [
        {
          "indexed": false,
          "internalType": "address",
          "name": "previousAdmin",
          "type": "address"
        },
        {
          "indexed": false,
          "internalType": "address",
          "name": "newAdmin",
          "type": "address"
        }
      ],
      "name": "AdminChanged",
      "type": "event"
    },
    {
      "anonymous": false,
      "inputs": [
        {
          "indexed": true,
          "internalType": "address",
          "name": "beacon",
          "type": "address"
        }
      ],
      "name": "BeaconUpgraded",
      "type": "event"
    },
    {
      "anonymous": false,
      "inputs": [
        {
          "indexed": false,
          "internalType": "address",
          "name": "previousETSEnsure",
          "type": "address"
        },
        {
          "indexed": false,
          "internalType": "address",
          "name": "newETSEnsure",
          "type": "address"
        }
      ],
      "name": "ETSEnsureUpdated",
      "type": "event"
    },
    {
      "anonymous": false,
      "inputs": [
        {
          "indexed": true,
          "internalType": "address",
          "name": "who",
          "type": "address"
        },
        {
          "indexed": false,
          "internalType": "uint256",
          "name": "amount",
          "type": "uint256"
        }
      ],
      "name": "FundsWithdrawn",
      "type": "event"
    },
    {
      "anonymous": false,
      "inputs": [
        {
          "indexed": false,
          "internalType": "uint256",
          "name": "platformPercentage",
          "type": "uint256"
        },
        {
          "indexed": false,
          "internalType": "uint256",
          "name": "publisherPercentage",
          "type": "uint256"
        },
        {
          "indexed": false,
          "internalType": "uint256",
          "name": "remainingPercentage",
          "type": "uint256"
        }
      ],
      "name": "PercentagesSet",
      "type": "event"
    },
    {
      "anonymous": false,
      "inputs": [
        {
          "indexed": false,
          "internalType": "uint256",
          "name": "targetId",
          "type": "uint256"
        }
      ],
      "name": "RequestEnsureTarget",
      "type": "event"
    },
    {
      "anonymous": false,
      "inputs": [
        {
          "indexed": false,
          "internalType": "uint256",
          "name": "previousFee",
          "type": "uint256"
        },
        {
          "indexed": false,
          "internalType": "uint256",
          "name": "taggingFee",
          "type": "uint256"
        }
      ],
      "name": "TaggingFeeSet",
      "type": "event"
    },
    {
      "anonymous": false,
      "inputs": [
        {
          "indexed": false,
          "internalType": "uint256",
          "name": "targetId",
          "type": "uint256"
        }
      ],
      "name": "TargetCreated",
      "type": "event"
    },
    {
      "anonymous": false,
      "inputs": [
        {
          "indexed": false,
          "internalType": "uint256",
          "name": "taggingId",
          "type": "uint256"
        }
      ],
      "name": "TargetTagged",
      "type": "event"
    },
    {
      "anonymous": false,
      "inputs": [
        {
          "indexed": false,
          "internalType": "string",
          "name": "typeName",
          "type": "string"
        },
        {
          "indexed": false,
          "internalType": "bool",
          "name": "setting",
          "type": "bool"
        }
      ],
      "name": "TargetTypeSet",
      "type": "event"
    },
    {
      "anonymous": false,
      "inputs": [
        {
          "indexed": false,
          "internalType": "uint256",
          "name": "targetId",
          "type": "uint256"
        }
      ],
      "name": "TargetUpdated",
      "type": "event"
    },
    {
      "anonymous": false,
      "inputs": [
        {
          "indexed": true,
          "internalType": "address",
          "name": "implementation",
          "type": "address"
        }
      ],
      "name": "Upgraded",
      "type": "event"
    },
    {
      "inputs": [],
      "name": "NAME",
      "outputs": [
        {
          "internalType": "string",
          "name": "",
          "type": "string"
        }
      ],
      "stateMutability": "view",
      "type": "function"
    },
    {
      "inputs": [],
      "name": "VERSION",
      "outputs": [
        {
          "internalType": "string",
          "name": "",
          "type": "string"
        }
      ],
      "stateMutability": "view",
      "type": "function"
    },
    {
      "inputs": [],
      "name": "accessControls",
      "outputs": [
        {
          "internalType": "contract ETSAccessControls",
          "name": "",
          "type": "address"
        }
      ],
      "stateMutability": "view",
      "type": "function"
    },
    {
      "inputs": [
        {
          "internalType": "address",
          "name": "",
          "type": "address"
        }
      ],
      "name": "accrued",
      "outputs": [
        {
          "internalType": "uint256",
          "name": "",
          "type": "uint256"
        }
      ],
      "stateMutability": "view",
      "type": "function"
    },
    {
      "inputs": [
        {
          "internalType": "uint256",
          "name": "_targetId",
          "type": "uint256"
        },
        {
          "internalType": "address",
          "name": "_publisher",
          "type": "address"
        },
        {
          "internalType": "address",
          "name": "_tagger",
          "type": "address"
        },
        {
          "internalType": "address",
          "name": "_sponsor",
          "type": "address"
        }
      ],
      "name": "computeTaggingRecordId",
      "outputs": [
        {
          "internalType": "uint256",
          "name": "taggingRecordId",
          "type": "uint256"
        }
      ],
      "stateMutability": "pure",
      "type": "function"
    },
    {
      "inputs": [
        {
          "internalType": "string",
          "name": "_targetType",
          "type": "string"
        },
        {
          "internalType": "string",
          "name": "_targetURI",
          "type": "string"
        }
      ],
      "name": "computeTargetId",
      "outputs": [
        {
          "internalType": "uint256",
          "name": "targetId",
          "type": "uint256"
        }
      ],
      "stateMutability": "pure",
      "type": "function"
    },
    {
      "inputs": [
        {
          "internalType": "address payable",
          "name": "_account",
          "type": "address"
        }
      ],
      "name": "drawDown",
      "outputs": [],
      "stateMutability": "nonpayable",
      "type": "function"
    },
    {
      "inputs": [],
      "name": "etsEnsure",
      "outputs": [
        {
          "internalType": "contract ETSEnsure",
          "name": "",
          "type": "address"
        }
      ],
      "stateMutability": "view",
      "type": "function"
    },
    {
      "inputs": [],
      "name": "etsTag",
      "outputs": [
        {
          "internalType": "contract ETSTag",
          "name": "",
          "type": "address"
        }
      ],
      "stateMutability": "view",
      "type": "function"
    },
    {
      "inputs": [
        {
          "internalType": "string",
          "name": "_tagString",
          "type": "string"
        },
        {
          "internalType": "address payable",
          "name": "_publisher",
          "type": "address"
        },
        {
          "internalType": "address",
          "name": "_tagger",
          "type": "address"
        }
      ],
      "name": "getOrCreateTag",
      "outputs": [
        {
          "internalType": "uint256",
          "name": "tagId",
          "type": "uint256"
        }
      ],
      "stateMutability": "payable",
      "type": "function"
    },
    {
      "inputs": [
        {
          "internalType": "uint256",
          "name": "_targetId",
          "type": "uint256"
        },
        {
          "internalType": "address",
          "name": "_tagger",
          "type": "address"
        },
        {
          "internalType": "address",
          "name": "_publisher",
          "type": "address"
        },
        {
          "internalType": "address",
          "name": "_sponsor",
          "type": "address"
        }
      ],
      "name": "getTaggingRecord",
      "outputs": [
        {
          "internalType": "uint256[]",
          "name": "etsTagIds",
          "type": "uint256[]"
        },
        {
          "internalType": "uint256",
          "name": "targetId",
          "type": "uint256"
        },
        {
          "internalType": "address",
          "name": "tagger",
          "type": "address"
        },
        {
          "internalType": "address",
          "name": "publisher",
          "type": "address"
        },
        {
          "internalType": "address",
          "name": "sponsor",
          "type": "address"
        }
      ],
      "stateMutability": "view",
      "type": "function"
    },
    {
      "inputs": [
        {
          "internalType": "uint256",
          "name": "_taggingId",
          "type": "uint256"
        }
      ],
      "name": "getTaggingRecordFromId",
      "outputs": [
        {
          "internalType": "uint256[]",
          "name": "etsTagIds",
          "type": "uint256[]"
        },
        {
          "internalType": "uint256",
          "name": "targetId",
          "type": "uint256"
        },
        {
          "internalType": "address",
          "name": "tagger",
          "type": "address"
        },
        {
          "internalType": "address",
          "name": "publisher",
          "type": "address"
        },
        {
          "internalType": "address",
          "name": "sponsor",
          "type": "address"
        }
      ],
      "stateMutability": "view",
      "type": "function"
    },
    {
      "inputs": [
        {
          "internalType": "contract ETSAccessControls",
          "name": "_accessControls",
          "type": "address"
        },
        {
          "internalType": "contract ETSTag",
          "name": "_etsTag",
          "type": "address"
        }
      ],
      "name": "initialize",
      "outputs": [],
      "stateMutability": "nonpayable",
      "type": "function"
    },
    {
      "inputs": [
        {
          "internalType": "uint256",
          "name": "_targetId",
          "type": "uint256"
        }
      ],
      "name": "isTargetEnsured",
      "outputs": [
        {
          "internalType": "bool",
          "name": "",
          "type": "bool"
        }
      ],
      "stateMutability": "view",
      "type": "function"
    },
    {
      "inputs": [],
      "name": "modulo",
      "outputs": [
        {
          "internalType": "uint256",
          "name": "",
          "type": "uint256"
        }
      ],
      "stateMutability": "view",
      "type": "function"
    },
    {
      "inputs": [
        {
          "internalType": "address",
          "name": "",
          "type": "address"
        }
      ],
      "name": "paid",
      "outputs": [
        {
          "internalType": "uint256",
          "name": "",
          "type": "uint256"
        }
      ],
      "stateMutability": "view",
      "type": "function"
    },
    {
      "inputs": [],
      "name": "platformPercentage",
      "outputs": [
        {
          "internalType": "uint256",
          "name": "",
          "type": "uint256"
        }
      ],
      "stateMutability": "view",
      "type": "function"
    },
    {
      "inputs": [],
      "name": "publisherPercentage",
      "outputs": [
        {
          "internalType": "uint256",
          "name": "",
          "type": "uint256"
        }
      ],
      "stateMutability": "view",
      "type": "function"
    },
    {
      "inputs": [],
      "name": "remainingPercentage",
      "outputs": [
        {
          "internalType": "uint256",
          "name": "",
          "type": "uint256"
        }
      ],
      "stateMutability": "view",
      "type": "function"
    },
    {
      "inputs": [
        {
          "internalType": "string[]",
          "name": "_tags",
          "type": "string[]"
        },
        {
          "internalType": "string",
          "name": "_targetURI",
          "type": "string"
        },
        {
          "internalType": "address payable",
          "name": "_publisher",
          "type": "address"
        },
        {
          "internalType": "address",
          "name": "_tagger",
          "type": "address"
        },
        {
          "internalType": "address",
          "name": "_sponsor",
          "type": "address"
        },
        {
          "internalType": "bool",
          "name": "_ensure",
          "type": "bool"
        }
      ],
      "name": "tagTarget",
      "outputs": [],
      "stateMutability": "payable",
      "type": "function"
    },
    {
      "inputs": [],
      "name": "taggingCounter",
      "outputs": [
        {
          "internalType": "uint256",
          "name": "",
          "type": "uint256"
        }
      ],
      "stateMutability": "view",
      "type": "function"
    },
    {
      "inputs": [],
      "name": "taggingFee",
      "outputs": [
        {
          "internalType": "uint256",
          "name": "",
          "type": "uint256"
        }
      ],
      "stateMutability": "view",
      "type": "function"
    },
    {
      "inputs": [
        {
          "internalType": "uint256",
          "name": "",
          "type": "uint256"
        }
      ],
      "name": "taggingRecords",
      "outputs": [
        {
          "internalType": "uint256",
          "name": "targetId",
          "type": "uint256"
        },
        {
          "internalType": "address",
          "name": "tagger",
          "type": "address"
        },
        {
          "internalType": "address",
          "name": "publisher",
          "type": "address"
        },
        {
          "internalType": "address",
          "name": "sponsor",
          "type": "address"
        }
      ],
      "stateMutability": "view",
      "type": "function"
    },
    {
      "inputs": [
        {
          "internalType": "string",
          "name": "_targetType",
          "type": "string"
        },
        {
          "internalType": "string",
          "name": "_targetURI",
          "type": "string"
        }
      ],
      "name": "targetExists",
      "outputs": [
        {
          "internalType": "bool",
          "name": "",
          "type": "bool"
        }
      ],
      "stateMutability": "view",
      "type": "function"
    },
    {
      "inputs": [
        {
          "internalType": "uint256",
          "name": "_targetId",
          "type": "uint256"
        }
      ],
      "name": "targetExistsFromId",
      "outputs": [
        {
          "internalType": "bool",
          "name": "",
          "type": "bool"
        }
      ],
      "stateMutability": "view",
      "type": "function"
    },
    {
      "inputs": [
        {
          "internalType": "uint256",
          "name": "",
          "type": "uint256"
        }
      ],
      "name": "targets",
      "outputs": [
        {
          "internalType": "string",
          "name": "targetType",
          "type": "string"
        },
        {
          "internalType": "string",
          "name": "targetURI",
          "type": "string"
        },
        {
          "internalType": "uint256",
          "name": "created",
          "type": "uint256"
        },
        {
          "internalType": "uint256",
          "name": "lastEnsured",
          "type": "uint256"
        },
        {
          "internalType": "uint256",
          "name": "status",
          "type": "uint256"
        },
        {
          "internalType": "string",
          "name": "ipfsHash",
          "type": "string"
        }
      ],
      "stateMutability": "view",
      "type": "function"
    },
    {
      "inputs": [
        {
          "internalType": "address",
          "name": "_account",
          "type": "address"
        }
      ],
      "name": "totalDue",
      "outputs": [
        {
          "internalType": "uint256",
          "name": "_due",
          "type": "uint256"
        }
      ],
      "stateMutability": "view",
      "type": "function"
    },
    {
      "inputs": [
        {
          "internalType": "contract ETSAccessControls",
          "name": "_accessControls",
          "type": "address"
        }
      ],
      "name": "updateAccessControls",
      "outputs": [],
      "stateMutability": "nonpayable",
      "type": "function"
    },
    {
      "inputs": [
        {
          "internalType": "contract ETSEnsure",
          "name": "_etsEnsure",
          "type": "address"
        }
      ],
      "name": "updateETSEnsure",
      "outputs": [],
      "stateMutability": "nonpayable",
      "type": "function"
    },
    {
      "inputs": [
        {
          "internalType": "uint256",
          "name": "_platformPercentage",
          "type": "uint256"
        },
        {
          "internalType": "uint256",
          "name": "_publisherPercentage",
          "type": "uint256"
        }
      ],
      "name": "updatePercentages",
      "outputs": [],
      "stateMutability": "nonpayable",
      "type": "function"
    },
    {
      "inputs": [
        {
          "internalType": "uint256",
          "name": "_fee",
          "type": "uint256"
        }
      ],
      "name": "updateTaggingFee",
      "outputs": [],
      "stateMutability": "nonpayable",
      "type": "function"
    },
    {
      "inputs": [
        {
          "internalType": "uint256",
          "name": "_taggingRecordId",
          "type": "uint256"
        },
        {
          "internalType": "string[]",
          "name": "_tags",
          "type": "string[]"
        }
      ],
      "name": "updateTaggingRecord",
      "outputs": [],
      "stateMutability": "payable",
      "type": "function"
    },
    {
      "inputs": [
        {
          "internalType": "uint256",
          "name": "_targetId",
          "type": "uint256"
        },
        {
          "internalType": "string",
          "name": "_targetType",
          "type": "string"
        },
        {
          "internalType": "string",
          "name": "_targetURI",
          "type": "string"
        },
        {
          "internalType": "uint256",
          "name": "_lastEnsured",
          "type": "uint256"
        },
        {
          "internalType": "uint256",
          "name": "_status",
          "type": "uint256"
        },
        {
          "internalType": "string",
          "name": "_ipfsHash",
          "type": "string"
        }
      ],
      "name": "updateTarget",
      "outputs": [
        {
          "internalType": "bool",
          "name": "success",
          "type": "bool"
        }
      ],
      "stateMutability": "nonpayable",
      "type": "function"
    },
    {
      "inputs": [
        {
          "internalType": "address",
          "name": "newImplementation",
          "type": "address"
        }
      ],
      "name": "upgradeTo",
      "outputs": [],
      "stateMutability": "nonpayable",
      "type": "function"
    },
    {
      "inputs": [
        {
          "internalType": "address",
          "name": "newImplementation",
          "type": "address"
        },
        {
          "internalType": "bytes",
          "name": "data",
          "type": "bytes"
        }
      ],
      "name": "upgradeToAndCall",
      "outputs": [],
      "stateMutability": "payable",
      "type": "function"
    },
    {
      "inputs": [],
      "name": "version",
      "outputs": [
        {
          "internalType": "string",
          "name": "",
          "type": "string"
        }
      ],
      "stateMutability": "pure",
      "type": "function"
    }
  ],
  "numDeployments": 1,
  "solcInputHash": "0fddd430399adeb4a9b6de4a2760d43b",
  "bytecode": "0x60a06040523060805234801561001457600080fd5b5060805161369861004560003960008181610ee301528181610f680152818161127b015261130001526136986000f3fe60806040526004361061024f5760003560e01c806374716c8111610138578063c2062005116100b0578063e88b772c1161007f578063f8bc3cc611610064578063f8bc3cc614610790578063fe52656f146107b0578063ffa1ad74146107c657600080fd5b8063e88b772c1461075a578063ebc67e1f1461077057600080fd5b8063c2062005146106d5578063c20d2295146106f5578063ce0e0eed14610715578063d64f55c91461074757600080fd5b8063a340cf7911610107578063b148440f116100ec578063b148440f14610668578063b205f80814610695578063b7d0e7dd146106b557600080fd5b8063a340cf79146105f2578063a3f4df7e1461061f57600080fd5b806374716c8114610501578063748365ef146105845780637e2e4c52146105bc578063817a1fbd146105d257600080fd5b8063485cc955116101cb57806354fd4d501161019a57806360c1cade1161017f57806360c1cade1461045157806368fd4dee146104c15780636ef3da94146104e157600080fd5b806354fd4d50146103fa5780635dffa7fe1461043157600080fd5b8063485cc955146103775780634967b35f146103975780634f1ef286146103b7578063507f3ba1146103ca57600080fd5b80630ad2f0c3116102225780632974526211610207578063297452621461032c578063337ccf9d146103415780633659cfe61461035757600080fd5b80630ad2f0c3146102f65780631f7418971461031657600080fd5b80630438837c1461025457806307348e261461028e5780630819d640146102af5780630a39ce02146102c4575b600080fd5b34801561026057600080fd5b5061027461026f366004612d00565b6107f7565b604051610285959493929190612d53565b60405180910390f35b6102a161029c366004612e06565b6108ee565b604051908152602001610285565b6102c26102bd366004612ea8565b610aa8565b005b3480156102d057600080fd5b506102e46102df366004612ef4565b610cd8565b60405161028596959493929190612f65565b34801561030257600080fd5b506102a1610311366004612fbd565b610ea4565b34801561032257600080fd5b506102a160cc5481565b34801561033857600080fd5b506102a1606481565b34801561034d57600080fd5b506102a160ce5481565b34801561036357600080fd5b506102c2610372366004612fbd565b610ed8565b34801561038357600080fd5b506102c2610392366004612fda565b611054565b3480156103a357600080fd5b506102c26103b2366004612ef4565b61116d565b6102c26103c53660046130c0565b611270565b3480156103d657600080fd5b506103ea6103e5366004613124565b6113dd565b6040519015158152602001610285565b34801561040657600080fd5b50604080518082019091526005815264302e302e3160d81b60208201525b60405161028591906131dd565b34801561043d57600080fd5b506102a161044c366004613210565b6114df565b34801561045d57600080fd5b506102a161046c366004612d00565b604080516020808201969096526bffffffffffffffffffffffff19606094851b81168284015294841b851660548201529190921b90921660688301528051808303605c018152607c9092019052805191012090565b3480156104cd57600080fd5b506102746104dc366004612ef4565b611515565b3480156104ed57600080fd5b506102c26104fc366004612fbd565b6115bb565b34801561050d57600080fd5b5061055561051c366004612ef4565b60d360205260009081526040902060018101546002820154600383015460049093015491926001600160a01b0391821692908216911684565b604080519485526001600160a01b03938416602086015291831691840191909152166060820152608001610285565b34801561059057600080fd5b5060c9546105a4906001600160a01b031681565b6040516001600160a01b039091168152602001610285565b3480156105c857600080fd5b506102a160cd5481565b3480156105de57600080fd5b506103ea6105ed366004613210565b61174e565b3480156105fe57600080fd5b506102a161060d366004612fbd565b60d26020526000908152604090205481565b34801561062b57600080fd5b506104246040518060400160405280600881526020017f45545320436f726500000000000000000000000000000000000000000000000081525081565b34801561067457600080fd5b506102a1610683366004612fbd565b60d16020526000908152604090205481565b3480156106a157600080fd5b506102c26106b0366004612fbd565b611786565b3480156106c157600080fd5b5060cb546105a4906001600160a01b031681565b3480156106e157600080fd5b506102c26106f0366004612fbd565b611919565b34801561070157600080fd5b506102c261071036600461326a565b611a6f565b34801561072157600080fd5b506103ea610730366004612ef4565b600090815260d46020526040902060030154151590565b6102c261075536600461329a565b611c16565b34801561076657600080fd5b506102a160cf5481565b34801561077c57600080fd5b506103ea61078b366004612ef4565b61211b565b34801561079c57600080fd5b5060ca546105a4906001600160a01b031681565b3480156107bc57600080fd5b506102a160d05481565b3480156107d257600080fd5b5061042460405180604001604052806005815260200164302e302e3160d81b81525081565b6040805160208082018790526bffffffffffffffffffffffff19606086811b82168486015287811b8216605485015285811b90911660688401528351808403605c018152607c8401808652815191840191909120600081815260d3855286812060018101546002820154600383015460048401548454609c9a81028c018b01909c528b8852979a94998a998a998a99969788976001600160a01b039687169695861695909216939192889201828280156108d057602002820191906000526020600020905b8154815260200190600101908083116108bc575b50505050509450965096509650965096505050945094509450945094565b60ca546040517ff143fc6100000000000000000000000000000000000000000000000000000000815260009182916001600160a01b039091169063f143fc619061093e908990899060040161337e565b602060405180830381865afa15801561095b573d6000803e3d6000fd5b505050506040513d601f19601f8201168201806040525081019061097f9190613392565b60ca546040517fd3c80bd8000000000000000000000000000000000000000000000000000000008152600481018390529192506001600160a01b03169063d3c80bd890602401602060405180830381865afa1580156109e2573d6000803e3d6000fd5b505050506040513d601f19601f82011682018060405250810190610a0691906133ab565b610a9f5760ca546040517f7e6d945e0000000000000000000000000000000000000000000000000000000081526001600160a01b0390911690637e6d945e90610a599089908990899089906004016133c8565b6020604051808303816000875af1158015610a78573d6000803e3d6000fd5b505050506040513d601f19601f82011682018060405250810190610a9c9190613392565b90505b95945050505050565b80610afa5760405162461bcd60e51b815260206004820152600b60248201527f456d70747920617272617900000000000000000000000000000000000000000060448201526064015b60405180910390fd5b600083815260d3602052604090208054339080841115610b80576000610b208286613413565b905060d05481610b30919061342a565b3414610b7e5760405162461bcd60e51b815260206004820152601c60248201527f4164646974696f6e616c207461677320726571756972652066656573000000006044820152606401610af1565b505b60028301546001600160a01b0383811691161480610bad575060048301546001600160a01b038381169116145b610bf95760405162461bcd60e51b815260206004820152601660248201527f4f6e6c7920746167676572206f722073706f6e736f72000000000000000000006044820152606401610af1565b8360008167ffffffffffffffff811115610c1557610c15613013565b604051908082528060200260200182016040528015610c3e578160200160208202803683370190505b50905060005b82811015610cba576000610c91898984818110610c6357610c63613449565b9050602002810190610c75919061345f565b60038a015460028b01546001600160a01b0391821691166108ee565b905080838381518110610ca657610ca6613449565b602090810291909101015250600101610c44565b508051610ccd9086906020840190612ba4565b505050505050505050565b60d460205260009081526040902080548190610cf3906134a6565b80601f0160208091040260200160405190810160405280929190818152602001828054610d1f906134a6565b8015610d6c5780601f10610d4157610100808354040283529160200191610d6c565b820191906000526020600020905b815481529060010190602001808311610d4f57829003601f168201915b505050505090806001018054610d81906134a6565b80601f0160208091040260200160405190810160405280929190818152602001828054610dad906134a6565b8015610dfa5780601f10610dcf57610100808354040283529160200191610dfa565b820191906000526020600020905b815481529060010190602001808311610ddd57829003601f168201915b505050505090806002015490806003015490806004015490806005018054610e21906134a6565b80601f0160208091040260200160405190810160405280929190818152602001828054610e4d906134a6565b8015610e9a5780601f10610e6f57610100808354040283529160200191610e9a565b820191906000526020600020905b815481529060010190602001808311610e7d57829003601f168201915b5050505050905086565b6001600160a01b038116600090815260d2602090815260408083205460d1909252822054610ed29190613413565b92915050565b306001600160a01b037f0000000000000000000000000000000000000000000000000000000000000000161415610f665760405162461bcd60e51b815260206004820152602c60248201527f46756e6374696f6e206d7573742062652063616c6c6564207468726f7567682060448201526b19195b1959d85d1958d85b1b60a21b6064820152608401610af1565b7f00000000000000000000000000000000000000000000000000000000000000006001600160a01b0316610fc17f360894a13ba1a3210667c828492db98dca3e2076cc3735a920a3ca505d382bbc546001600160a01b031690565b6001600160a01b03161461102c5760405162461bcd60e51b815260206004820152602c60248201527f46756e6374696f6e206d7573742062652063616c6c6564207468726f7567682060448201526b6163746976652070726f787960a01b6064820152608401610af1565b61103581612140565b60408051600080825260208201909252611051918391906121fd565b50565b600054610100900460ff1661106f5760005460ff1615611073565b303b155b6110e55760405162461bcd60e51b815260206004820152602e60248201527f496e697469616c697a61626c653a20636f6e747261637420697320616c72656160448201527f647920696e697469616c697a65640000000000000000000000000000000000006064820152608401610af1565b600054610100900460ff16158015611107576000805461ffff19166101011790555b60c980546001600160a01b038086166001600160a01b03199283161790925560ca805492851692909116919091179055600060cf5566038d7ea4c6800060d055601460cc55601e60cd55603260ce558015611168576000805461ff00191690555b505050565b60c9546001600160a01b03166324d7806c336040516001600160e01b031960e084901b1681526001600160a01b039091166004820152602401602060405180830381865afa1580156111c3573d6000803e3d6000fd5b505050506040513d601f19601f820116820180604052508101906111e791906133ab565b61122a5760405162461bcd60e51b815260206004820152601460248201527321b0b63632b91036bab9ba1031329030b236b4b760611b6044820152606401610af1565b60d080549082905560408051828152602081018490527f861fa8a0dab775faf9bcbb5388a02f7ac01181c036f5c57982464a2d75c3608e91015b60405180910390a15050565b306001600160a01b037f00000000000000000000000000000000000000000000000000000000000000001614156112fe5760405162461bcd60e51b815260206004820152602c60248201527f46756e6374696f6e206d7573742062652063616c6c6564207468726f7567682060448201526b19195b1959d85d1958d85b1b60a21b6064820152608401610af1565b7f00000000000000000000000000000000000000000000000000000000000000006001600160a01b03166113597f360894a13ba1a3210667c828492db98dca3e2076cc3735a920a3ca505d382bbc546001600160a01b031690565b6001600160a01b0316146113c45760405162461bcd60e51b815260206004820152602c60248201527f46756e6374696f6e206d7573742062652063616c6c6564207468726f7567682060448201526b6163746976652070726f787960a01b6064820152608401610af1565b6113cd82612140565b6113d9828260016121fd565b5050565b60cb546000906001600160a01b0316331461143a5760405162461bcd60e51b815260206004820152600f60248201527f4f6e6c792045545320656e7375726500000000000000000000000000000000006044820152606401610af1565b60008a815260d460205260409020611453908a8a612bef565b5060008a815260d460205260409020611470906001018888612bef565b5060008a815260d460205260409020600381018690556004810185905561149b906005018484612bef565b506040518a81527f9d29e5045b411bb06d81d8ff11c828d9f1d7eb076eec9ca45eda49fc99f762b29060200160405180910390a15060019998505050505050505050565b60008083836040516020016114f59291906134e1565b60408051808303601f190181529190528051602090910120949350505050565b600081815260d36020908152604080832060018101546002820154600383015460048401548454865181890281018901909752808752606098978897889788979096879691956001600160a01b0391821695928216949116929187918301828280156115a057602002820191906000526020600020905b81548152602001906001019080831161158c575b50505050509450955095509550955095505091939590929450565b60c9546001600160a01b03166324d7806c336040516001600160e01b031960e084901b1681526001600160a01b039091166004820152602401602060405180830381865afa158015611611573d6000803e3d6000fd5b505050506040513d601f19601f8201168201806040525081019061163591906133ab565b6116785760405162461bcd60e51b815260206004820152601460248201527321b0b63632b91036bab9ba1031329030b236b4b760611b6044820152606401610af1565b6001600160a01b0381166116f45760405162461bcd60e51b815260206004820152602860248201527f4554532e757064617465416363657373436f6e74726f6c733a2043616e6e6f7460448201527f206265207a65726f0000000000000000000000000000000000000000000000006064820152608401610af1565b60c980546001600160a01b038381166001600160a01b031983168117909355604080519190921680825260208201939093527f31073599bfae2533a348dc816b0ce777b707aa9b67015ca2d86585e842b5c6e99101611264565b60008061175b84846114df565b600081815260d4602052604090206002015490915061177b57600061177e565b60015b949350505050565b60c9546001600160a01b03166324d7806c336040516001600160e01b031960e084901b1681526001600160a01b039091166004820152602401602060405180830381865afa1580156117dc573d6000803e3d6000fd5b505050506040513d601f19601f8201168201806040525081019061180091906133ab565b6118435760405162461bcd60e51b815260206004820152601460248201527321b0b63632b91036bab9ba1031329030b236b4b760611b6044820152606401610af1565b6001600160a01b0381166118bf5760405162461bcd60e51b815260206004820152602360248201527f4554532e757064617465455453456e737572653a2043616e6e6f74206265207a60448201527f65726f00000000000000000000000000000000000000000000000000000000006064820152608401610af1565b60cb80546001600160a01b038381166001600160a01b031983168117909355604080519190921680825260208201939093527fee20190c374934660675d28472968e002fc4af227f2956f59085225ad89239fa9101611264565b6002603354141561196c5760405162461bcd60e51b815260206004820152601f60248201527f5265656e7472616e637947756172643a207265656e7472616e742063616c6c006044820152606401610af1565b60026033556001600160a01b038116600090815260d2602090815260408083205460d190925282205461199f9190613413565b90506000811180156119b15750478111155b15611a66576001600160a01b038216600090815260d260205260409020546119da908290613510565b6001600160a01b038316600081815260d26020526040808220939093559151909183156108fc02918491818181858888f19350505050158015611a21573d6000803e3d6000fd5b50816001600160a01b03167feaff4b37086828766ad3268786972c0cd24259d4c87a80f9d3963a3c3d999b0d82604051611a5d91815260200190565b60405180910390a25b50506001603355565b60c9546001600160a01b03166324d7806c336040516001600160e01b031960e084901b1681526001600160a01b039091166004820152602401602060405180830381865afa158015611ac5573d6000803e3d6000fd5b505050506040513d601f19601f82011682018060405250810190611ae991906133ab565b611b2c5760405162461bcd60e51b815260206004820152601460248201527321b0b63632b91036bab9ba1031329030b236b4b760611b6044820152606401610af1565b6064611b388284613510565b1115611bac5760405162461bcd60e51b815260206004820152603760248201527f4554532e75706461746550657263656e74616765733a2070657263656e74616760448201527f6573206d757374206e6f74206265206f766572203130300000000000000000006064820152608401610af1565b60cc82905560cd81905580611bc2836064613413565b611bcc9190613413565b60ce81905560cc5460cd546040805192835260208301919091528101919091527f78c1b0567e296aa5eef70ad2deee29f35e0dd128cac603be855ece3e823f430890606001611264565b60026033541415611c695760405162461bcd60e51b815260206004820152601f60248201527f5265656e7472616e637947756172643a207265656e7472616e742063616c6c006044820152606401610af1565b600260335560c9546001600160a01b0316632b04fd44336040516001600160e01b031960e084901b1681526001600160a01b039091166004820152602401602060405180830381865afa158015611cc4573d6000803e3d6000fd5b505050506040513d601f19601f82011682018060405250810190611ce891906133ab565b611d5a5760405162461bcd60e51b815260206004820152602b60248201527f4f6e6c7920617574686f72697a656420616464726573736573206d617920636160448201527f6c6c2045545320636f72650000000000000000000000000000000000000000006064820152608401610af1565b60c9546040517f41859ac80000000000000000000000000000000000000000000000000000000081526001600160a01b038681166004830152909116906341859ac890602401602060405180830381865afa158015611dbd573d6000803e3d6000fd5b505050506040513d601f19601f82011682018060405250810190611de191906133ab565b611e535760405162461bcd60e51b815260206004820152602660248201527f5461673a20546865207075626c6973686572206d75737420626520776869746560448201527f6c697374656400000000000000000000000000000000000000000000000000006064820152608401610af1565b8680611ea15760405162461bcd60e51b815260206004820152601760248201527f4e6f2074616720737472696e677320737570706c6965640000000000000000006044820152606401610af1565b8060d054611eaf919061342a565b3414611efd5760405162461bcd60e51b815260206004820152601a60248201527f5461673a20596f75206d7573742073656e6420746865206665650000000000006044820152606401610af1565b60c954600090611fbe906001600160a01b031663a88ae5b6336040516001600160e01b031960e084901b1681526001600160a01b039091166004820152602401600060405180830381865afa158015611f5a573d6000803e3d6000fd5b505050506040513d6000823e601f3d908101601f19168201604052611f829190810190613528565b89898080601f0160208091040260200160405190810160405280939291908181526020018383808284376000920191909152506123c192505050565b905060008267ffffffffffffffff811115611fdb57611fdb613013565b604051908082528060200260200182016040528015612004578160200160208202803683370190505b50905060005b8381101561207d5760006120428d8d8481811061202957612029613449565b905060200281019061203b919061345f565b8b8b6108ee565b905061204e818a6123f9565b8083838151811061206157612061613449565b60209081029190910101525061207681613596565b905061200a565b5083156120fc5760cb546040517f177f2fb5000000000000000000000000000000000000000000000000000000008152600481018490526001600160a01b039091169063177f2fb590602401600060405180830381600087803b1580156120e357600080fd5b505af11580156120f7573d6000803e3d6000fd5b505050505b6121098183898989612738565b50506001603355505050505050505050565b600081815260d46020526040812060020154612138576000610ed2565b600192915050565b60c9546001600160a01b03166324d7806c336040516001600160e01b031960e084901b1681526001600160a01b039091166004820152602401602060405180830381865afa158015612196573d6000803e3d6000fd5b505050506040513d601f19601f820116820180604052508101906121ba91906133ab565b6110515760405162461bcd60e51b815260206004820152601460248201527321b0b63632b91036bab9ba1031329030b236b4b760611b6044820152606401610af1565b60006122307f360894a13ba1a3210667c828492db98dca3e2076cc3735a920a3ca505d382bbc546001600160a01b031690565b905061223b8461287c565b6000835111806122485750815b15612259576122578484612931565b505b7f4910fdfa16fed3260ed0e7147f7cc6da11a60208b5b9406d12a635614ffd9143805460ff166123ba57805460ff191660011781556040516001600160a01b038316602482015261230690869060440160408051601f198184030181529190526020810180517bffffffffffffffffffffffffffffffffffffffffffffffffffffffff167f3659cfe600000000000000000000000000000000000000000000000000000000179052612931565b50805460ff191681557f360894a13ba1a3210667c828492db98dca3e2076cc3735a920a3ca505d382bbc546001600160a01b038381169116146123b15760405162461bcd60e51b815260206004820152602f60248201527f45524331393637557067726164653a207570677261646520627265616b73206660448201527f75727468657220757067726164657300000000000000000000000000000000006064820152608401610af1565b6123ba85612a2a565b5050505050565b6000806123ce84846114df565b600081815260d46020526040902060020154909150156123ef579050610ed2565b61177e8484612a6a565b60ca546040517f878327ab0000000000000000000000000000000000000000000000000000000081526004810184905260009182916001600160a01b039091169063878327ab906024016040805180830381865afa15801561245f573d6000803e3d6000fd5b505050506040513d601f19601f8201168201806040525081019061248391906135b1565b91509150816001600160a01b0316816001600160a01b0316141561262f57606460cc54346124b1919061342a565b6124bb91906135e0565b6001600160a01b038316600090815260d160205260409020546124de9190613510565b6001600160a01b038316600090815260d1602052604090205560cd54606490612507903461342a565b61251191906135e0565b6001600160a01b038416600090815260d160205260409020546125349190613510565b6001600160a01b03848116600090815260d160205260408082209390935560ca5492517fa30b4db90000000000000000000000000000000000000000000000000000000081526004810188905290929091169063a30b4db990602401602060405180830381865afa1580156125ad573d6000803e3d6000fd5b505050506040513d601f19601f820116820180604052508101906125d19190613602565b9050606460ce54346125e3919061342a565b6125ed91906135e0565b6001600160a01b038216600090815260d160205260409020546126109190613510565b6001600160a01b03909116600090815260d16020526040902055612732565b606460cc543461263f919061342a565b61264991906135e0565b6001600160a01b038316600090815260d1602052604090205461266c9190613510565b6001600160a01b038316600090815260d1602052604090205560cd54606490612695903461342a565b61269f91906135e0565b6001600160a01b038416600090815260d160205260409020546126c29190613510565b6001600160a01b038416600090815260d1602052604090205560ce546064906126eb903461342a565b6126f591906135e0565b6001600160a01b038216600090815260d160205260409020546127189190613510565b6001600160a01b038216600090815260d160205260409020555b50505050565b6040805160208082018790526bffffffffffffffffffffffff19606087811b82168486015286811b8216605485015285901b1660688301528251808303605c018152607c90920190925280519101206000906040805160a08101825288815260208082018990526001600160a01b0380881683850152888116606084015286166080830152600084815260d382529290922081518051949550919390926127e3928492910190612ba4565b5060208281015160018301556040808401516002840180546001600160a01b03199081166001600160a01b03938416179091556060860151600386018054831691841691909117905560809095015160049094018054909516931692909217909255518281527f81b185c481377e520177bddb63bab2a8d220831d7c07b748c2baf29c6e607070910160405180910390a1505050505050565b803b6128f05760405162461bcd60e51b815260206004820152602d60248201527f455243313936373a206e657720696d706c656d656e746174696f6e206973206e60448201527f6f74206120636f6e7472616374000000000000000000000000000000000000006064820152608401610af1565b7f360894a13ba1a3210667c828492db98dca3e2076cc3735a920a3ca505d382bbc80546001600160a01b0319166001600160a01b0392909216919091179055565b6060823b6129a75760405162461bcd60e51b815260206004820152602660248201527f416464726573733a2064656c65676174652063616c6c20746f206e6f6e2d636f60448201527f6e747261637400000000000000000000000000000000000000000000000000006064820152608401610af1565b600080846001600160a01b0316846040516129c2919061361f565b600060405180830381855af49150503d80600081146129fd576040519150601f19603f3d011682016040523d82523d6000602084013e612a02565b606091505b5091509150610a9f828260405180606001604052806027815260200161363c60279139612b64565b612a338161287c565b6040516001600160a01b038216907fbc7cd75a20ee27fd9adebab32041f755214dbc6bffa90cc0225b39da2e5c2d3b90600090a250565b600080612a7784846114df565b6040805160c08101825286815260208082018790524282840152600060608301819052608083018190528351808301855281815260a084015284815260d48252929092208151805194955091939092612ad4928492910190612c63565b506020828101518051612aed9260018501920190612c63565b5060408201516002820155606082015160038201556080820151600482015560a08201518051612b27916005840191602090910190612c63565b50506040518281527f503a6e6145f2d2a2a9b0845c2193aef653400c52f93b1c897bd55d36a396be7c915060200160405180910390a19392505050565b60608315612b73575081612b9d565b825115612b835782518084602001fd5b8160405162461bcd60e51b8152600401610af191906131dd565b9392505050565b828054828255906000526020600020908101928215612bdf579160200282015b82811115612bdf578251825591602001919060010190612bc4565b50612beb929150612cd6565b5090565b828054612bfb906134a6565b90600052602060002090601f016020900481019282612c1d5760008555612bdf565b82601f10612c365782800160ff19823516178555612bdf565b82800160010185558215612bdf579182015b82811115612bdf578235825591602001919060010190612c48565b828054612c6f906134a6565b90600052602060002090601f016020900481019282612c915760008555612bdf565b82601f10612caa57805160ff1916838001178555612bdf565b82800160010185558215612bdf5791820182811115612bdf578251825591602001919060010190612bc4565b5b80821115612beb5760008155600101612cd7565b6001600160a01b038116811461105157600080fd5b60008060008060808587031215612d1657600080fd5b843593506020850135612d2881612ceb565b92506040850135612d3881612ceb565b91506060850135612d4881612ceb565b939692955090935050565b60a0808252865190820181905260009060209060c0840190828a01845b82811015612d8c57815184529284019290840190600101612d70565b50505090830196909652506001600160a01b0393841660408201529183166060830152909116608090910152919050565b60008083601f840112612dcf57600080fd5b50813567ffffffffffffffff811115612de757600080fd5b602083019150836020828501011115612dff57600080fd5b9250929050565b60008060008060608587031215612e1c57600080fd5b843567ffffffffffffffff811115612e3357600080fd5b612e3f87828801612dbd565b9095509350506020850135612e5381612ceb565b91506040850135612d4881612ceb565b60008083601f840112612e7557600080fd5b50813567ffffffffffffffff811115612e8d57600080fd5b6020830191508360208260051b8501011115612dff57600080fd5b600080600060408486031215612ebd57600080fd5b83359250602084013567ffffffffffffffff811115612edb57600080fd5b612ee786828701612e63565b9497909650939450505050565b600060208284031215612f0657600080fd5b5035919050565b60005b83811015612f28578181015183820152602001612f10565b838111156127325750506000910152565b60008151808452612f51816020860160208601612f0d565b601f01601f19169290920160200192915050565b60c081526000612f7860c0830189612f39565b8281036020840152612f8a8189612f39565b905086604084015285606084015284608084015282810360a0840152612fb08185612f39565b9998505050505050505050565b600060208284031215612fcf57600080fd5b8135612b9d81612ceb565b60008060408385031215612fed57600080fd5b8235612ff881612ceb565b9150602083013561300881612ceb565b809150509250929050565b634e487b7160e01b600052604160045260246000fd5b604051601f8201601f1916810167ffffffffffffffff8111828210171561305257613052613013565b604052919050565b600067ffffffffffffffff82111561307457613074613013565b50601f01601f191660200190565b60006130956130908461305a565b613029565b90508281528383830111156130a957600080fd5b828260208301376000602084830101529392505050565b600080604083850312156130d357600080fd5b82356130de81612ceb565b9150602083013567ffffffffffffffff8111156130fa57600080fd5b8301601f8101851361310b57600080fd5b61311a85823560208401613082565b9150509250929050565b600080600080600080600080600060c08a8c03121561314257600080fd5b8935985060208a013567ffffffffffffffff8082111561316157600080fd5b61316d8d838e01612dbd565b909a50985060408c013591508082111561318657600080fd5b6131928d838e01612dbd565b909850965060608c0135955060808c0135945060a08c01359150808211156131b957600080fd5b506131c68c828d01612dbd565b915080935050809150509295985092959850929598565b602081526000612b9d6020830184612f39565b600082601f83011261320157600080fd5b612b9d83833560208501613082565b6000806040838503121561322357600080fd5b823567ffffffffffffffff8082111561323b57600080fd5b613247868387016131f0565b9350602085013591508082111561325d57600080fd5b5061311a858286016131f0565b6000806040838503121561327d57600080fd5b50508035926020909101359150565b801515811461105157600080fd5b60008060008060008060008060c0898b0312156132b657600080fd5b883567ffffffffffffffff808211156132ce57600080fd5b6132da8c838d01612e63565b909a50985060208b01359150808211156132f357600080fd5b506133008b828c01612dbd565b909750955050604089013561331481612ceb565b9350606089013561332481612ceb565b9250608089013561333481612ceb565b915060a08901356133448161328c565b809150509295985092959890939650565b81835281816020850137506000828201602090810191909152601f909101601f19169091010190565b60208152600061177e602083018486613355565b6000602082840312156133a457600080fd5b5051919050565b6000602082840312156133bd57600080fd5b8151612b9d8161328c565b6060815260006133dc606083018688613355565b6001600160a01b039485166020840152929093166040909101529392505050565b634e487b7160e01b600052601160045260246000fd5b600082821015613425576134256133fd565b500390565b6000816000190483118215151615613444576134446133fd565b500290565b634e487b7160e01b600052603260045260246000fd5b6000808335601e1984360301811261347657600080fd5b83018035915067ffffffffffffffff82111561349157600080fd5b602001915036819003821315612dff57600080fd5b600181811c908216806134ba57607f821691505b602082108114156134db57634e487b7160e01b600052602260045260246000fd5b50919050565b600083516134f3818460208801612f0d565b835190830190613507818360208801612f0d565b01949350505050565b60008219821115613523576135236133fd565b500190565b60006020828403121561353a57600080fd5b815167ffffffffffffffff81111561355157600080fd5b8201601f8101841361356257600080fd5b80516135706130908261305a565b81815285602083850101111561358557600080fd5b610a9f826020830160208601612f0d565b60006000198214156135aa576135aa6133fd565b5060010190565b600080604083850312156135c457600080fd5b82516135cf81612ceb565b602084015190925061300881612ceb565b6000826135fd57634e487b7160e01b600052601260045260246000fd5b500490565b60006020828403121561361457600080fd5b8151612b9d81612ceb565b60008251613631818460208701612f0d565b919091019291505056fe416464726573733a206c6f772d6c6576656c2064656c65676174652063616c6c206661696c6564a26469706673582212205c7bd42084918c82b0612d8593e19256f5a154fd7c78138ba0eb15c0f76f788864736f6c634300080c0033",
  "devdoc": {
    "author": "Ethereum Tag Service <security@ets.xyz>",
    "details": "ETS Core utilizes Open Zeppelin UUPS upgradability pattern.",
    "kind": "dev",
    "methods": {
      "drawDown(address)": {
        "details": "Can be called by the account owner or on behalf of someone.Does nothing when there is nothing due to the account.",
        "params": {
          "_account": "Target address that has had accrued ETH and which will receive the ETH."
        }
      },
      "getOrCreateTag(string,address,address)": {
        "details": "Looks in tagToTokenId map and returns if ETSTag is found for tag string Otherwise mints a new ETSTag and returns id.",
        "params": {
          "_publisher": "publisher address, to attribute new ETSTag to if one s minted",
          "_tagString": "tag string for ETSTag we are looking up.",
          "_tagger": "tagger address, to attribute new ETSTag to if one s minted"
        },
        "returns": {
          "tagId": "Id of ETSTag token."
        }
      },
      "getTaggingRecordFromId(uint256)": {
        "details": "Retrieves a tagging record from tagging ID",
        "params": {
          "_taggingId": "ID of the tagging record."
        },
        "returns": {
          "etsTagIds": "token ID of ETSTAG used.",
          "publisher": "Publisher through which the tag took place.",
          "sponsor": "Address that paid for the transaction fee",
          "tagger": "Address that tagged the NFT asset.",
          "targetId": "Id of tagging target."
        }
      },
      "initialize(address,address)": {
        "details": "Replaces contructor function for UUPS Proxy contracts. Called upon first deployment."
      },
      "tagTarget(string[],string,address,address,address,bool)": {
        "params": {
          "_ensure": "Boolean flag, set true to ensure the target at time of tagging.",
          "_publisher": "Address of publisher enabling the tagging record.",
          "_tagger": "Address of tagger being credited performing tagging record.",
          "_tags": "Strings target is being tagged with.",
          "_targetURI": "Uniform resource identifier of the target being tagged."
        }
      },
      "targetExistsFromId(uint256)": {
        "params": {
          "_targetId": "token ID."
        },
        "returns": {
          "_0": "true if exists."
        }
      },
      "totalDue(address)": {
        "params": {
          "_account": "Address of the account being queried."
        },
        "returns": {
          "_due": "Amount of WEI in ETH due to account."
        }
      },
      "updateAccessControls(address)": {
        "params": {
          "_accessControls": "Address of the access controls contract."
        }
      },
      "updateETSEnsure(address)": {
        "params": {
          "_etsEnsure": "Address of the ETSEnsure contract."
        }
      },
      "updatePercentages(uint256,uint256)": {
        "params": {
          "_platformPercentage": "percentage for platform.",
          "_publisherPercentage": "percentage for publisher."
        }
      },
      "updateTaggingFee(uint256)": {
        "params": {
          "_fee": "Value of the fee in WEI."
        }
      },
      "updateTarget(uint256,string,string,uint256,uint256,string)": {
        "returns": {
          "success": "boolean"
        }
      },
      "upgradeTo(address)": {
        "details": "Upgrade the implementation of the proxy to `newImplementation`. Calls {_authorizeUpgrade}. Emits an {Upgraded} event."
      },
      "upgradeToAndCall(address,bytes)": {
        "details": "Upgrade the implementation of the proxy to `newImplementation`, and subsequently execute the function call encoded in `data`. Calls {_authorizeUpgrade}. Emits an {Upgraded} event."
      }
    },
    "stateVariables": {
      "accessControls": {
        "details": "ETS access controls contract."
      },
      "accrued": {
        "details": "Map for holding amount accrued to participant address wallets."
      },
      "etsEnsure": {
        "details": "ETSEnsure target contract."
      },
      "etsTag": {
        "details": "ETSTAG erc-721 token contract."
      },
      "paid": {
        "details": "Map for holding lifetime amount drawn down from accrued by participants."
      },
      "platformPercentage": {
        "details": "Percentage of tagging fee allocated to ETS."
      },
      "publisherPercentage": {
        "details": "Percentage of tagging fee allocated to Publisher."
      },
      "remainingPercentage": {
        "details": "Percentage of tagging fee allocated to Creator or Owner."
      },
      "taggingCounter": {
        "details": "Incremental tagging record counter. Used for tagging record ID."
      },
      "taggingFee": {
        "details": "Fee in ETH Collected by ETS for tagging."
      },
      "taggingRecords": {
        "details": "Map of tagging id to tagging record."
      },
      "targets": {
        "details": "Map of target id to Target embodied by Target struct."
      }
    },
    "title": "ETS Core",
    "version": 1
  },
  "userdoc": {
    "events": {
      "TargetTagged(uint256)": {
        "notice": "Events"
      }
    },
    "kind": "user",
    "methods": {
      "NAME()": {
        "notice": "Public constants"
      },
      "computeTaggingRecordId(uint256,address,address,address)": {
        "notice": "Deterministically compute the tagging record identifier"
      },
      "computeTargetId(string,string)": {
        "notice": "Internal"
      },
      "drawDown(address)": {
        "notice": "Enables anyone to send ETH accrued by an account."
      },
      "getOrCreateTag(string,address,address)": {
        "notice": "Fetch an etstagId from tag string."
      },
      "getTaggingRecord(uint256,address,address,address)": {
        "notice": "Get tagging record from composite key parts"
      },
      "isTargetEnsured(uint256)": {
        "notice": "External read"
      },
      "tagTarget(string[],string,address,address,address,bool)": {
        "notice": "Tag a target with an tag string."
      },
      "targetExistsFromId(uint256)": {
        "notice": "check for existence of target."
      },
      "totalDue(address)": {
        "notice": "Used to check how much ETH has been accrued by an address factoring in amount paid out."
      },
      "updateAccessControls(address)": {
        "notice": "Admin functionality for updating the access controls."
      },
      "updateETSEnsure(address)": {
        "notice": "Admin functionality for updating the ETSEnsure contract address."
      },
      "updatePercentages(uint256,uint256)": {
        "notice": "Admin functionality for updating the percentages."
      },
      "updateTaggingFee(uint256)": {
        "notice": "Sets the fee required to tag an NFT asset."
      },
      "updateTaggingRecord(uint256,string[])": {
        "notice": "Allow either a tagger or a sponsor to update the tags for a tagging record pointing to a target"
      },
      "updateTarget(uint256,string,string,uint256,uint256,string)": {
        "notice": "Updates a target with new values."
      }
    },
    "notice": "Core tagging contract that enables any online target to be tagged with an ETSTAG token.",
    "version": 1
  },
  "storageLayout": {
    "storage": [
      {
        "astId": 950,
        "contract": "contracts/core/ETS.sol:ETS",
        "label": "_initialized",
        "offset": 0,
        "slot": "0",
        "type": "t_bool"
      },
      {
        "astId": 953,
        "contract": "contracts/core/ETS.sol:ETS",
        "label": "_initializing",
        "offset": 1,
        "slot": "0",
        "type": "t_bool"
      },
      {
        "astId": 2735,
        "contract": "contracts/core/ETS.sol:ETS",
        "label": "__gap",
        "offset": 0,
        "slot": "1",
        "type": "t_array(t_uint256)50_storage"
      },
      {
        "astId": 1255,
        "contract": "contracts/core/ETS.sol:ETS",
        "label": "_status",
        "offset": 0,
        "slot": "51",
        "type": "t_uint256"
      },
      {
        "astId": 1298,
        "contract": "contracts/core/ETS.sol:ETS",
        "label": "__gap",
        "offset": 0,
        "slot": "52",
        "type": "t_array(t_uint256)49_storage"
      },
      {
        "astId": 932,
        "contract": "contracts/core/ETS.sol:ETS",
        "label": "__gap",
        "offset": 0,
        "slot": "101",
        "type": "t_array(t_uint256)50_storage"
      },
      {
        "astId": 1127,
        "contract": "contracts/core/ETS.sol:ETS",
        "label": "__gap",
        "offset": 0,
        "slot": "151",
        "type": "t_array(t_uint256)50_storage"
      },
      {
        "astId": 5516,
        "contract": "contracts/core/ETS.sol:ETS",
        "label": "accessControls",
        "offset": 0,
        "slot": "201",
        "type": "t_contract(ETSAccessControls)6949"
      },
      {
        "astId": 5520,
        "contract": "contracts/core/ETS.sol:ETS",
        "label": "etsTag",
        "offset": 0,
        "slot": "202",
        "type": "t_contract(ETSTag)7841"
      },
      {
        "astId": 5524,
        "contract": "contracts/core/ETS.sol:ETS",
        "label": "etsEnsure",
        "offset": 0,
        "slot": "203",
        "type": "t_contract(ETSEnsure)7095"
      },
      {
        "astId": 5527,
        "contract": "contracts/core/ETS.sol:ETS",
        "label": "platformPercentage",
        "offset": 0,
        "slot": "204",
        "type": "t_uint256"
      },
      {
        "astId": 5530,
        "contract": "contracts/core/ETS.sol:ETS",
        "label": "publisherPercentage",
        "offset": 0,
        "slot": "205",
        "type": "t_uint256"
      },
      {
        "astId": 5533,
        "contract": "contracts/core/ETS.sol:ETS",
        "label": "remainingPercentage",
        "offset": 0,
        "slot": "206",
        "type": "t_uint256"
      },
      {
        "astId": 5536,
        "contract": "contracts/core/ETS.sol:ETS",
        "label": "taggingCounter",
        "offset": 0,
        "slot": "207",
        "type": "t_uint256"
      },
      {
        "astId": 5540,
        "contract": "contracts/core/ETS.sol:ETS",
        "label": "taggingFee",
        "offset": 0,
        "slot": "208",
        "type": "t_uint256"
      },
      {
        "astId": 5545,
        "contract": "contracts/core/ETS.sol:ETS",
        "label": "accrued",
        "offset": 0,
        "slot": "209",
        "type": "t_mapping(t_address,t_uint256)"
      },
      {
        "astId": 5550,
        "contract": "contracts/core/ETS.sol:ETS",
        "label": "paid",
        "offset": 0,
        "slot": "210",
        "type": "t_mapping(t_address,t_uint256)"
      },
      {
        "astId": 5556,
        "contract": "contracts/core/ETS.sol:ETS",
        "label": "taggingRecords",
        "offset": 0,
        "slot": "211",
        "type": "t_mapping(t_uint256,t_struct(TaggingRecord)7856_storage)"
      },
      {
        "astId": 5562,
        "contract": "contracts/core/ETS.sol:ETS",
        "label": "targets",
        "offset": 0,
        "slot": "212",
        "type": "t_mapping(t_uint256,t_struct(Target)7869_storage)"
      }
    ],
    "types": {
      "t_address": {
        "encoding": "inplace",
        "label": "address",
        "numberOfBytes": "20"
      },
      "t_array(t_uint256)49_storage": {
        "base": "t_uint256",
        "encoding": "inplace",
        "label": "uint256[49]",
        "numberOfBytes": "1568"
      },
      "t_array(t_uint256)50_storage": {
        "base": "t_uint256",
        "encoding": "inplace",
        "label": "uint256[50]",
        "numberOfBytes": "1600"
      },
      "t_array(t_uint256)dyn_storage": {
        "base": "t_uint256",
        "encoding": "dynamic_array",
        "label": "uint256[]",
        "numberOfBytes": "32"
      },
      "t_bool": {
        "encoding": "inplace",
        "label": "bool",
        "numberOfBytes": "1"
      },
      "t_contract(ETSAccessControls)6949": {
        "encoding": "inplace",
        "label": "contract ETSAccessControls",
        "numberOfBytes": "20"
      },
      "t_contract(ETSEnsure)7095": {
        "encoding": "inplace",
        "label": "contract ETSEnsure",
        "numberOfBytes": "20"
      },
      "t_contract(ETSTag)7841": {
        "encoding": "inplace",
        "label": "contract ETSTag",
        "numberOfBytes": "20"
      },
      "t_mapping(t_address,t_uint256)": {
        "encoding": "mapping",
        "key": "t_address",
        "label": "mapping(address => uint256)",
        "numberOfBytes": "32",
        "value": "t_uint256"
      },
      "t_mapping(t_uint256,t_struct(TaggingRecord)7856_storage)": {
        "encoding": "mapping",
        "key": "t_uint256",
        "label": "mapping(uint256 => struct IETS.TaggingRecord)",
        "numberOfBytes": "32",
        "value": "t_struct(TaggingRecord)7856_storage"
      },
      "t_mapping(t_uint256,t_struct(Target)7869_storage)": {
        "encoding": "mapping",
        "key": "t_uint256",
        "label": "mapping(uint256 => struct IETS.Target)",
        "numberOfBytes": "32",
        "value": "t_struct(Target)7869_storage"
      },
      "t_string_storage": {
        "encoding": "bytes",
        "label": "string",
        "numberOfBytes": "32"
      },
      "t_struct(TaggingRecord)7856_storage": {
        "encoding": "inplace",
        "label": "struct IETS.TaggingRecord",
        "members": [
          {
            "astId": 7847,
            "contract": "contracts/core/ETS.sol:ETS",
            "label": "etsTagIds",
            "offset": 0,
            "slot": "0",
            "type": "t_array(t_uint256)dyn_storage"
          },
          {
            "astId": 7849,
            "contract": "contracts/core/ETS.sol:ETS",
            "label": "targetId",
            "offset": 0,
            "slot": "1",
            "type": "t_uint256"
          },
          {
            "astId": 7851,
            "contract": "contracts/core/ETS.sol:ETS",
            "label": "tagger",
            "offset": 0,
            "slot": "2",
            "type": "t_address"
          },
          {
            "astId": 7853,
            "contract": "contracts/core/ETS.sol:ETS",
            "label": "publisher",
            "offset": 0,
            "slot": "3",
            "type": "t_address"
          },
          {
            "astId": 7855,
            "contract": "contracts/core/ETS.sol:ETS",
            "label": "sponsor",
            "offset": 0,
            "slot": "4",
            "type": "t_address"
          }
        ],
        "numberOfBytes": "160"
      },
      "t_struct(Target)7869_storage": {
        "encoding": "inplace",
        "label": "struct IETS.Target",
        "members": [
          {
            "astId": 7858,
            "contract": "contracts/core/ETS.sol:ETS",
            "label": "targetType",
            "offset": 0,
            "slot": "0",
            "type": "t_string_storage"
          },
          {
            "astId": 7860,
            "contract": "contracts/core/ETS.sol:ETS",
            "label": "targetURI",
            "offset": 0,
            "slot": "1",
            "type": "t_string_storage"
          },
          {
            "astId": 7862,
            "contract": "contracts/core/ETS.sol:ETS",
            "label": "created",
            "offset": 0,
            "slot": "2",
            "type": "t_uint256"
          },
          {
            "astId": 7864,
            "contract": "contracts/core/ETS.sol:ETS",
            "label": "lastEnsured",
            "offset": 0,
            "slot": "3",
            "type": "t_uint256"
          },
          {
            "astId": 7866,
            "contract": "contracts/core/ETS.sol:ETS",
            "label": "status",
            "offset": 0,
            "slot": "4",
            "type": "t_uint256"
          },
          {
            "astId": 7868,
            "contract": "contracts/core/ETS.sol:ETS",
            "label": "ipfsHash",
            "offset": 0,
            "slot": "5",
            "type": "t_string_storage"
          }
        ],
        "numberOfBytes": "192"
      },
      "t_uint256": {
        "encoding": "inplace",
        "label": "uint256",
        "numberOfBytes": "32"
      }
    }
  }
}