{
  "address": "0x610178dA211FEF7D417bC0e6FeD39F05609AD788",
  "abi": [
    {
      "inputs": [],
      "stateMutability": "nonpayable",
      "type": "constructor"
    },
    {
      "anonymous": false,
      "inputs": [
        {
          "indexed": false,
          "internalType": "address",
          "name": "previousAdmin",
          "type": "address"
        },
        {
          "indexed": false,
          "internalType": "address",
          "name": "newAdmin",
          "type": "address"
        }
      ],
      "name": "AdminChanged",
      "type": "event"
    },
    {
      "anonymous": false,
      "inputs": [
        {
          "indexed": true,
          "internalType": "address",
          "name": "beacon",
          "type": "address"
        }
      ],
      "name": "BeaconUpgraded",
      "type": "event"
    },
    {
      "anonymous": false,
      "inputs": [
        {
          "indexed": true,
          "internalType": "address",
          "name": "previousOwner",
          "type": "address"
        },
        {
          "indexed": true,
          "internalType": "address",
          "name": "newOwner",
          "type": "address"
        }
      ],
      "name": "OwnershipTransferred",
      "type": "event"
    },
    {
      "anonymous": false,
      "inputs": [
        {
          "indexed": false,
          "internalType": "address",
          "name": "account",
          "type": "address"
        }
      ],
      "name": "Paused",
      "type": "event"
    },
    {
      "anonymous": false,
      "inputs": [
        {
          "indexed": false,
          "internalType": "string",
          "name": "targetType",
          "type": "string"
        },
        {
          "indexed": false,
          "internalType": "bool",
          "name": "paused",
          "type": "bool"
        }
      ],
      "name": "TargetTypePaused",
      "type": "event"
    },
    {
      "anonymous": false,
      "inputs": [
        {
          "indexed": false,
          "internalType": "address",
          "name": "account",
          "type": "address"
        }
      ],
      "name": "Unpaused",
      "type": "event"
    },
    {
      "anonymous": false,
      "inputs": [
        {
          "indexed": true,
          "internalType": "address",
          "name": "implementation",
          "type": "address"
        }
      ],
      "name": "Upgraded",
      "type": "event"
    },
    {
      "inputs": [
        {
          "internalType": "string",
          "name": "_nftAddress",
          "type": "string"
        },
        {
          "internalType": "string",
          "name": "_tokenId",
          "type": "string"
        },
        {
          "internalType": "string",
          "name": "_chainId",
          "type": "string"
        }
      ],
      "name": "composeTargetURI",
      "outputs": [
        {
          "internalType": "string",
          "name": "",
          "type": "string"
        }
      ],
      "stateMutability": "pure",
      "type": "function"
    },
    {
      "inputs": [],
      "name": "creator",
      "outputs": [
        {
          "internalType": "address payable",
          "name": "",
          "type": "address"
        }
      ],
      "stateMutability": "view",
      "type": "function"
    },
    {
      "inputs": [],
      "name": "ets",
      "outputs": [
        {
          "internalType": "contract IETS",
          "name": "",
          "type": "address"
        }
      ],
      "stateMutability": "view",
      "type": "function"
    },
    {
      "inputs": [
        {
          "internalType": "contract IETS",
          "name": "_ets",
          "type": "address"
        },
        {
          "internalType": "address payable",
          "name": "_creator",
          "type": "address"
        },
        {
          "internalType": "address",
          "name": "_owner",
          "type": "address"
        }
      ],
      "name": "initialize",
      "outputs": [],
      "stateMutability": "nonpayable",
      "type": "function"
    },
    {
      "inputs": [],
      "name": "isTargetTypePaused",
      "outputs": [
        {
          "internalType": "bool",
          "name": "",
          "type": "bool"
        }
      ],
      "stateMutability": "view",
      "type": "function"
    },
    {
      "inputs": [],
      "name": "name",
      "outputs": [
        {
          "internalType": "string",
          "name": "",
          "type": "string"
        }
      ],
      "stateMutability": "pure",
      "type": "function"
    },
    {
      "inputs": [],
      "name": "owner",
      "outputs": [
        {
          "internalType": "address",
          "name": "",
          "type": "address"
        }
      ],
      "stateMutability": "view",
      "type": "function"
    },
    {
      "inputs": [],
      "name": "paused",
      "outputs": [
        {
          "internalType": "bool",
          "name": "",
          "type": "bool"
        }
      ],
      "stateMutability": "view",
      "type": "function"
    },
    {
      "inputs": [],
      "name": "renounceOwnership",
      "outputs": [],
      "stateMutability": "nonpayable",
      "type": "function"
    },
    {
      "inputs": [
        {
          "internalType": "bytes4",
          "name": "interfaceId",
          "type": "bytes4"
        }
      ],
      "name": "supportsInterface",
      "outputs": [
        {
          "internalType": "bool",
          "name": "",
          "type": "bool"
        }
      ],
      "stateMutability": "view",
      "type": "function"
    },
    {
      "inputs": [
        {
          "components": [
            {
              "internalType": "string",
              "name": "nftAddress",
              "type": "string"
            },
            {
              "internalType": "string",
              "name": "tokenId",
              "type": "string"
            },
            {
              "internalType": "string",
              "name": "chainId",
              "type": "string"
            },
            {
              "internalType": "string[]",
              "name": "tagStrings",
              "type": "string[]"
            },
            {
              "internalType": "bool",
              "name": "ensure",
              "type": "bool"
            }
          ],
          "internalType": "struct EVMNFT.TaggingRecordParams[]",
          "name": "_taggingRecords",
          "type": "tuple[]"
        },
        {
          "components": [
            {
              "internalType": "uint8",
              "name": "v",
              "type": "uint8"
            },
            {
              "internalType": "bytes32",
              "name": "r",
              "type": "bytes32"
            },
            {
              "internalType": "bytes32",
              "name": "s",
              "type": "bytes32"
            }
          ],
          "internalType": "struct TargetTypeSignatureModule.Signature",
          "name": "_taggerSignature",
          "type": "tuple"
        },
        {
          "components": [
            {
              "internalType": "uint8",
              "name": "v",
              "type": "uint8"
            },
            {
              "internalType": "bytes32",
              "name": "r",
              "type": "bytes32"
            },
            {
              "internalType": "bytes32",
              "name": "s",
              "type": "bytes32"
            }
          ],
          "internalType": "struct TargetTypeSignatureModule.Signature",
          "name": "_publisherSignature",
          "type": "tuple"
        }
      ],
      "name": "tag",
      "outputs": [],
      "stateMutability": "payable",
      "type": "function"
    },
    {
      "inputs": [],
      "name": "toggleTargetTypePaused",
      "outputs": [],
      "stateMutability": "nonpayable",
      "type": "function"
    },
    {
      "inputs": [
        {
          "internalType": "address",
          "name": "newOwner",
          "type": "address"
        }
      ],
      "name": "transferOwnership",
      "outputs": [],
      "stateMutability": "nonpayable",
      "type": "function"
    },
    {
      "inputs": [
        {
          "internalType": "address",
          "name": "newImplementation",
          "type": "address"
        }
      ],
      "name": "upgradeTo",
      "outputs": [],
      "stateMutability": "nonpayable",
      "type": "function"
    },
    {
      "inputs": [
        {
          "internalType": "address",
          "name": "newImplementation",
          "type": "address"
        },
        {
          "internalType": "bytes",
          "name": "data",
          "type": "bytes"
        }
      ],
      "name": "upgradeToAndCall",
      "outputs": [],
      "stateMutability": "payable",
      "type": "function"
    },
    {
      "inputs": [],
      "name": "version",
      "outputs": [
        {
          "internalType": "string",
          "name": "",
          "type": "string"
        }
      ],
      "stateMutability": "pure",
      "type": "function"
    }
  ],
  "numDeployments": 1,
  "solcInputHash": "b41d3b0d570f3050597fc409f697fdef",
  "bytecode": "0x60a0604052306080523480156200001557600080fd5b50600054610100900460ff16620000335760005460ff16156200003d565b6200003d620000e2565b620000a55760405162461bcd60e51b815260206004820152602e60248201527f496e697469616c697a61626c653a20636f6e747261637420697320616c72656160448201526d191e481a5b9a5d1a585b1a5e995960921b606482015260840160405180910390fd5b600054610100900460ff16158015620000c8576000805461ffff19166101011790555b8015620000db576000805461ff00191690555b5062000106565b6000620000fa306200010060201b62000bba1760201c565b15905090565b3b151590565b6080516123d462000137600039600081816103ae015281816104380152818161056701526105ec01526123d46000f3fe6080604052600436106100f35760003560e01c80635c975abb1161008a578063982b8c7711610059578063982b8c77146102a2578063c0c53b8b146102b5578063ed626498146102d5578063f2fde38b146102ea57600080fd5b80635c975abb14610242578063715018a61461025a5780638bf7a5ad1461026f5780638da5cb5b1461028457600080fd5b80633659cfe6116100c65780633659cfe6146101bf5780634516ac1a146101e15780634f1ef2861461020157806354fd4d501461021457600080fd5b806301ffc9a7146100f857806302d05d3f1461012d57806306fdde031461016657806315ccda221461019e575b600080fd5b34801561010457600080fd5b50610118610113366004611b3e565b61030a565b60405190151581526020015b60405180910390f35b34801561013957600080fd5b506101305461014e906001600160a01b031681565b6040516001600160a01b039091168152602001610124565b34801561017257600080fd5b5060408051808201909152600681526511559353919560d21b60208201525b6040516101249190611bd8565b3480156101aa57600080fd5b506101315461014e906001600160a01b031681565b3480156101cb57600080fd5b506101df6101da366004611c00565b6103a3565b005b3480156101ed57600080fd5b506101916101fc366004611c66565b610524565b6101df61020f366004611d16565b61055c565b34801561022057600080fd5b50604080518082019091526005815264302e302e3160d81b6020820152610191565b34801561024e57600080fd5b5060fe5460ff16610118565b34801561026657600080fd5b506101df6106c9565b34801561027b57600080fd5b5061011861072f565b34801561029057600080fd5b506068546001600160a01b031661014e565b6101df6102b0366004611df2565b610742565b3480156102c157600080fd5b506101df6102d0366004611e89565b61088d565b3480156102e157600080fd5b506101df6109ff565b3480156102f657600080fd5b506101df610305366004611c00565b610adb565b60007fffffffff0000000000000000000000000000000000000000000000000000000082167f01ffc9a700000000000000000000000000000000000000000000000000000000148061039d57507fffffffff0000000000000000000000000000000000000000000000000000000082167fdb276bc100000000000000000000000000000000000000000000000000000000145b92915050565b306001600160a01b037f00000000000000000000000000000000000000000000000000000000000000001614156104365760405162461bcd60e51b815260206004820152602c60248201527f46756e6374696f6e206d7573742062652063616c6c6564207468726f7567682060448201526b19195b1959d85d1958d85b1b60a21b60648201526084015b60405180910390fd5b7f00000000000000000000000000000000000000000000000000000000000000006001600160a01b03166104917f360894a13ba1a3210667c828492db98dca3e2076cc3735a920a3ca505d382bbc546001600160a01b031690565b6001600160a01b0316146104fc5760405162461bcd60e51b815260206004820152602c60248201527f46756e6374696f6e206d7573742062652063616c6c6564207468726f7567682060448201526b6163746976652070726f787960a01b606482015260840161042d565b61050581610bc0565b6040805160008082526020820190925261052191839190610c1a565b50565b606086868686868660405160200161054196959493929190611ed4565b60405160208183030381529060405290509695505050505050565b306001600160a01b037f00000000000000000000000000000000000000000000000000000000000000001614156105ea5760405162461bcd60e51b815260206004820152602c60248201527f46756e6374696f6e206d7573742062652063616c6c6564207468726f7567682060448201526b19195b1959d85d1958d85b1b60a21b606482015260840161042d565b7f00000000000000000000000000000000000000000000000000000000000000006001600160a01b03166106457f360894a13ba1a3210667c828492db98dca3e2076cc3735a920a3ca505d382bbc546001600160a01b031690565b6001600160a01b0316146106b05760405162461bcd60e51b815260206004820152602c60248201527f46756e6374696f6e206d7573742062652063616c6c6564207468726f7567682060448201526b6163746976652070726f787960a01b606482015260840161042d565b6106b982610bc0565b6106c582826001610c1a565b5050565b6068546001600160a01b031633146107235760405162461bcd60e51b815260206004820181905260248201527f4f776e61626c653a2063616c6c6572206973206e6f7420746865206f776e6572604482015260640161042d565b61072d6000610dde565b565b600061073d60fe5460ff1690565b905090565b60008484604051602001610757929190612010565b604051602081830303815290604052805190602001209050600061079782856000016020810190610788919061214b565b86602001358760400135610e3d565b905060006107ac83610788602087018761214b565b9050600061013160009054906101000a90046001600160a01b03166001600160a01b031663fe52656f6040518163ffffffff1660e01b8152600401602060405180830381865afa158015610804573d6000803e3d6000fd5b505050506040513d601f19601f82011682018060405250810190610828919061216e565b905060005b878110156108745761086489898381811061084a5761084a612187565b905060200281019061085c919061219d565b848685610e94565b61086d816121d3565b905061082d565b504715610883576108836121ee565b5050505050505050565b600054610100900460ff166108a85760005460ff16156108ac565b303b155b61091e5760405162461bcd60e51b815260206004820152602e60248201527f496e697469616c697a61626c653a20636f6e747261637420697320616c72656160448201527f647920696e697469616c697a6564000000000000000000000000000000000000606482015260840161042d565b600054610100900460ff16158015610940576000805461ffff19166101011790555b610948610fe3565b61095061105e565b6109586110d9565b61099f61097e60408051808201909152600681526511559353919560d21b602082015290565b604080518082019091526005815264302e302e3160d81b6020820152611154565b61013180546001600160a01b0380871673ffffffffffffffffffffffffffffffffffffffff19928316179092556101308054928616929091169190911790556109e782610adb565b80156109f9576000805461ff00191690555b50505050565b6068546001600160a01b03163314610a595760405162461bcd60e51b815260206004820181905260248201527f4f776e61626c653a2063616c6c6572206973206e6f7420746865206f776e6572604482015260640161042d565b60fe5460ff1615610a7157610a6c61124c565b610a79565b610a796112e3565b7f0c1e6d347dee44bc82665e25ea1952c3312e34da5483d1cabf187ad6f40048e3610abd60408051808201909152600681526511559353919560d21b602082015290565b60fe5460ff16604051610ad1929190612204565b60405180910390a1565b6068546001600160a01b03163314610b355760405162461bcd60e51b815260206004820181905260248201527f4f776e61626c653a2063616c6c6572206973206e6f7420746865206f776e6572604482015260640161042d565b6001600160a01b038116610bb15760405162461bcd60e51b815260206004820152602660248201527f4f776e61626c653a206e6577206f776e657220697320746865207a65726f206160448201527f6464726573730000000000000000000000000000000000000000000000000000606482015260840161042d565b61052181610dde565b3b151590565b6068546001600160a01b031633146105215760405162461bcd60e51b815260206004820181905260248201527f4f776e61626c653a2063616c6c6572206973206e6f7420746865206f776e6572604482015260640161042d565b6000610c4d7f360894a13ba1a3210667c828492db98dca3e2076cc3735a920a3ca505d382bbc546001600160a01b031690565b9050610c588461136b565b600083511180610c655750815b15610c7657610c74848461142d565b505b7f4910fdfa16fed3260ed0e7147f7cc6da11a60208b5b9406d12a635614ffd9143805460ff16610dd757805460ff191660011781556040516001600160a01b0383166024820152610d2390869060440160408051601f198184030181529190526020810180517bffffffffffffffffffffffffffffffffffffffffffffffffffffffff167f3659cfe60000000000000000000000000000000000000000000000000000000017905261142d565b50805460ff191681557f360894a13ba1a3210667c828492db98dca3e2076cc3735a920a3ca505d382bbc546001600160a01b03838116911614610dce5760405162461bcd60e51b815260206004820152602f60248201527f45524331393637557067726164653a207570677261646520627265616b73206660448201527f7572746865722075706772616465730000000000000000000000000000000000606482015260840161042d565b610dd78561152f565b5050505050565b606880546001600160a01b0383811673ffffffffffffffffffffffffffffffffffffffff19831681179093556040519116919082907f8be0079c531659141344cd1fd0a4f28419497f9722a3daafe3b4186f6b6457e090600090a35050565b60008060355486604051602001610e5e929190918252602082015260400190565b604051602081830303815290604052805190602001209050610e8a610e828261156f565b8686866115d8565b9695505050505050565b6000610ebd610ea38680612228565b610eb06020890189612228565b6101fc60408b018b612228565b90506000610ece606087018761226f565b610ed99150846122b9565b905080471015610f505760405162461bcd60e51b8152602060048201526024808201527f4e6f7420656e6f7567682066756e647320746f20636f6d706c6574652074616760448201527f67696e6700000000000000000000000000000000000000000000000000000000606482015260840161042d565b610131546001600160a01b031663d64f55c982610f7060608a018a61226f565b868a8a338e6080016020810190610f8791906122d8565b6040518963ffffffff1660e01b8152600401610fa997969594939291906122f3565b6000604051808303818588803b158015610fc257600080fd5b505af1158015610fd6573d6000803e3d6000fd5b5050505050505050505050565b600054610100900460ff1661104e5760405162461bcd60e51b815260206004820152602b60248201527f496e697469616c697a61626c653a20636f6e7472616374206973206e6f74206960448201526a6e697469616c697a696e6760a81b606482015260840161042d565b611056611600565b61072d61166b565b600054610100900460ff166110c95760405162461bcd60e51b815260206004820152602b60248201527f496e697469616c697a61626c653a20636f6e7472616374206973206e6f74206960448201526a6e697469616c697a696e6760a81b606482015260840161042d565b6110d1611600565b61072d611600565b600054610100900460ff166111445760405162461bcd60e51b815260206004820152602b60248201527f496e697469616c697a61626c653a20636f6e7472616374206973206e6f74206960448201526a6e697469616c697a696e6760a81b606482015260840161042d565b61114c611600565b61072d6116df565b600054610100900460ff1661116f5760005460ff1615611173565b303b155b6111e55760405162461bcd60e51b815260206004820152602e60248201527f496e697469616c697a61626c653a20636f6e747261637420697320616c72656160448201527f647920696e697469616c697a6564000000000000000000000000000000000000606482015260840161042d565b600054610100900460ff16158015611207576000805461ffff19166101011790555b6112118383611756565b7f015c8f92b7859c836cff38852de9aeecf784cf84ab2815aa73378cf78619683f6035558015611247576000805461ff00191690555b505050565b60fe5460ff1661129e5760405162461bcd60e51b815260206004820152601460248201527f5061757361626c653a206e6f7420706175736564000000000000000000000000604482015260640161042d565b60fe805460ff191690557f5db9ee0a495bf2e6ff9c91a7834c1ba4fdd244a5e8aa4e537bd38aeae4b073aa335b6040516001600160a01b039091168152602001610ad1565b60fe5460ff16156113365760405162461bcd60e51b815260206004820152601060248201527f5061757361626c653a2070617573656400000000000000000000000000000000604482015260640161042d565b60fe805460ff191660011790557f62e78cea01bee320cd4e420270b5ea74000d11b0c9f74754ebdbfc544b05a2586112cb3390565b803b6113df5760405162461bcd60e51b815260206004820152602d60248201527f455243313936373a206e657720696d706c656d656e746174696f6e206973206e60448201527f6f74206120636f6e747261637400000000000000000000000000000000000000606482015260840161042d565b7f360894a13ba1a3210667c828492db98dca3e2076cc3735a920a3ca505d382bbc805473ffffffffffffffffffffffffffffffffffffffff19166001600160a01b0392909216919091179055565b6060823b6114a35760405162461bcd60e51b815260206004820152602660248201527f416464726573733a2064656c65676174652063616c6c20746f206e6f6e2d636f60448201527f6e74726163740000000000000000000000000000000000000000000000000000606482015260840161042d565b600080846001600160a01b0316846040516114be919061234f565b600060405180830381855af49150503d80600081146114f9576040519150601f19603f3d011682016040523d82523d6000602084013e6114fe565b606091505b50915091506115268282604051806060016040528060278152602001612378602791396117db565b95945050505050565b6115388161136b565b6040516001600160a01b038216907fbc7cd75a20ee27fd9adebab32041f755214dbc6bffa90cc0225b39da2e5c2d3b90600090a250565b600061039d61157c61181b565b836040517f19010000000000000000000000000000000000000000000000000000000000006020820152602281018390526042810182905260009060620160405160208183030381529060405280519060200120905092915050565b60008060006115e987878787611896565b915091506115f681611983565b5095945050505050565b600054610100900460ff1661072d5760405162461bcd60e51b815260206004820152602b60248201527f496e697469616c697a61626c653a20636f6e7472616374206973206e6f74206960448201526a6e697469616c697a696e6760a81b606482015260840161042d565b600054610100900460ff166116d65760405162461bcd60e51b815260206004820152602b60248201527f496e697469616c697a61626c653a20636f6e7472616374206973206e6f74206960448201526a6e697469616c697a696e6760a81b606482015260840161042d565b61072d33610dde565b600054610100900460ff1661174a5760405162461bcd60e51b815260206004820152602b60248201527f496e697469616c697a61626c653a20636f6e7472616374206973206e6f74206960448201526a6e697469616c697a696e6760a81b606482015260840161042d565b60fe805460ff19169055565b600054610100900460ff166117c15760405162461bcd60e51b815260206004820152602b60248201527f496e697469616c697a61626c653a20636f6e7472616374206973206e6f74206960448201526a6e697469616c697a696e6760a81b606482015260840161042d565b815160209283012081519190920120600191909155600255565b606083156117ea575081611814565b8251156117fa5782518084602001fd5b8160405162461bcd60e51b815260040161042d9190611bd8565b9392505050565b600061073d7f8b73c3c69bb8fe3d512ecc4cf759cc79239f7b179b0ffacaa9a75d522b39400f61184a60015490565b6002546040805160208101859052908101839052606081018290524660808201523060a082015260009060c0016040516020818303038152906040528051906020012090509392505050565b6000807f7fffffffffffffffffffffffffffffff5d576e7357a4501ddfe92f46681b20a08311156118cd575060009050600361197a565b8460ff16601b141580156118e557508460ff16601c14155b156118f6575060009050600461197a565b6040805160008082526020820180845289905260ff881692820192909252606081018690526080810185905260019060a0016020604051602081039080840390855afa15801561194a573d6000803e3d6000fd5b5050604051601f1901519150506001600160a01b0381166119735760006001925092505061197a565b9150600090505b94509492505050565b600081600481111561199757611997612361565b14156119a05750565b60018160048111156119b4576119b4612361565b1415611a025760405162461bcd60e51b815260206004820152601860248201527f45434453413a20696e76616c6964207369676e61747572650000000000000000604482015260640161042d565b6002816004811115611a1657611a16612361565b1415611a645760405162461bcd60e51b815260206004820152601f60248201527f45434453413a20696e76616c6964207369676e6174757265206c656e67746800604482015260640161042d565b6003816004811115611a7857611a78612361565b1415611ad15760405162461bcd60e51b815260206004820152602260248201527f45434453413a20696e76616c6964207369676e6174757265202773272076616c604482015261756560f01b606482015260840161042d565b6004816004811115611ae557611ae5612361565b14156105215760405162461bcd60e51b815260206004820152602260248201527f45434453413a20696e76616c6964207369676e6174757265202776272076616c604482015261756560f01b606482015260840161042d565b600060208284031215611b5057600080fd5b81357fffffffff000000000000000000000000000000000000000000000000000000008116811461181457600080fd5b60005b83811015611b9b578181015183820152602001611b83565b838111156109f95750506000910152565b60008151808452611bc4816020860160208601611b80565b601f01601f19169290920160200192915050565b6020815260006118146020830184611bac565b6001600160a01b038116811461052157600080fd5b600060208284031215611c1257600080fd5b813561181481611beb565b60008083601f840112611c2f57600080fd5b50813567ffffffffffffffff811115611c4757600080fd5b602083019150836020828501011115611c5f57600080fd5b9250929050565b60008060008060008060608789031215611c7f57600080fd5b863567ffffffffffffffff80821115611c9757600080fd5b611ca38a838b01611c1d565b90985096506020890135915080821115611cbc57600080fd5b611cc88a838b01611c1d565b90965094506040890135915080821115611ce157600080fd5b50611cee89828a01611c1d565b979a9699509497509295939492505050565b634e487b7160e01b600052604160045260246000fd5b60008060408385031215611d2957600080fd5b8235611d3481611beb565b9150602083013567ffffffffffffffff80821115611d5157600080fd5b818501915085601f830112611d6557600080fd5b813581811115611d7757611d77611d00565b604051601f8201601f19908116603f01168101908382118183101715611d9f57611d9f611d00565b81604052828152886020848701011115611db857600080fd5b8260208601602083013760006020848301015280955050505050509250929050565b600060608284031215611dec57600080fd5b50919050565b60008060008060e08587031215611e0857600080fd5b843567ffffffffffffffff80821115611e2057600080fd5b818701915087601f830112611e3457600080fd5b813581811115611e4357600080fd5b8860208260051b8501011115611e5857600080fd5b602092830196509450611e6f918891508701611dda565b9150611e7e8660808701611dda565b905092959194509250565b600080600060608486031215611e9e57600080fd5b8335611ea981611beb565b92506020840135611eb981611beb565b91506040840135611ec981611beb565b809150509250925092565b858782377f7c0000000000000000000000000000000000000000000000000000000000000081870181815260009186886001840137600191870191820152838560028301376000930160020192835250909695505050505050565b6000808335601e19843603018112611f4657600080fd5b830160208101925035905067ffffffffffffffff811115611f6657600080fd5b803603831315611c5f57600080fd5b81835281816020850137506000828201602090810191909152601f909101601f19169091010190565b81835260006020808501808196508560051b810191508460005b87811015611fee578284038952611fcf8288611f2f565b611fda868284611f75565b9a87019a9550505090840190600101611fb8565b5091979650505050505050565b8035801515811461200b57600080fd5b919050565b60208082528181018390526000906040808401600586811b8601830188865b8981101561213c57888303603f190185528135368c9003609e1901811261205557600080fd5b8b0160a06120638280611f2f565b8287526120738388018284611f75565b9250505061208389830183611f2f565b8683038b880152612095838284611f75565b925050506120a588830183611f2f565b8683038a8801526120b7838284611f75565b92505050606080830135601e198436030181126120d357600080fd5b8301803567ffffffffffffffff8111156120ec57600080fd5b80891b36038513156120fd57600080fd5b8784038389015261211184828e8501611f9e565b93505050506080612123818401611ffb565b151595019490945250938601939086019060010161202f565b50909998505050505050505050565b60006020828403121561215d57600080fd5b813560ff8116811461181457600080fd5b60006020828403121561218057600080fd5b5051919050565b634e487b7160e01b600052603260045260246000fd5b60008235609e198336030181126121b357600080fd5b9190910192915050565b634e487b7160e01b600052601160045260246000fd5b60006000198214156121e7576121e76121bd565b5060010190565b634e487b7160e01b600052600160045260246000fd5b6040815260006122176040830185611bac565b905082151560208301529392505050565b6000808335601e1984360301811261223f57600080fd5b83018035915067ffffffffffffffff82111561225a57600080fd5b602001915036819003821315611c5f57600080fd5b6000808335601e1984360301811261228657600080fd5b83018035915067ffffffffffffffff8211156122a157600080fd5b6020019150600581901b3603821315611c5f57600080fd5b60008160001904831182151516156122d3576122d36121bd565b500290565b6000602082840312156122ea57600080fd5b61181482611ffb565b60c08152600061230760c08301898b611f9e565b82810360208401526123198189611bac565b6001600160a01b0397881660408501529587166060840152505091909316608082015291151560a0909201919091529392505050565b600082516121b3818460208701611b80565b634e487b7160e01b600052602160045260246000fdfe416464726573733a206c6f772d6c6576656c2064656c65676174652063616c6c206661696c6564a264697066735822122032fe2f78796412f2664fffa04b67d274d5a92a7658ae5dde445477a8cfb3ba9164736f6c634300080c0033",
  "devdoc": {
    "author": "Ethereum Tag Service <security@ets.xyz>",
    "details": "UUPS upgradable.",
    "kind": "dev",
    "methods": {
      "composeTargetURI(string,string,string)": {
        "details": "Compose target type input params into a format expected by ETS Ensure API.",
        "params": {
          "_chainId": "EVM Chain Id the target nft is on as a string.",
          "_nftAddress": "Contract address of the target NFT as a string.",
          "_tokenId": "Token Id of the target nft as a string."
        },
        "returns": {
          "_0": "ETS Ensure API compatible string."
        }
      },
      "constructor": {
        "custom:oz-upgrades-unsafe-allow": "constructor"
      },
      "initialize(address,address,address)": {
        "params": {
          "_creator": "Creator of the target type smart contract.",
          "_owner": "Who will become owner and able to upgrade the contract."
        }
      },
      "owner()": {
        "details": "Returns the address of the current owner."
      },
      "paused()": {
        "details": "Returns true if the contract is paused, and false otherwise."
      },
      "renounceOwnership()": {
        "details": "Leaves the contract without owner. It will not be possible to call `onlyOwner` functions anymore. Can only be called by the current owner. NOTE: Renouncing ownership will leave the contract without an owner, thereby removing any functionality that is only available to the owner."
      },
      "supportsInterface(bytes4)": {
        "details": "This ensures all target types conform to the same interface if they implement this function"
      },
      "tag((string,string,string,string[],bool)[],(uint8,bytes32,bytes32),(uint8,bytes32,bytes32))": {
        "params": {
          "_publisherSignature": "EIP712 signature signed by publisher.",
          "_taggerSignature": "EIP712 signature signed by tagger.",
          "_taggingRecords": "Array of TaggingRecordParams structs."
        }
      },
      "transferOwnership(address)": {
        "details": "Transfers ownership of the contract to a new account (`newOwner`). Can only be called by the current owner."
      },
      "upgradeTo(address)": {
        "details": "Upgrade the implementation of the proxy to `newImplementation`. Calls {_authorizeUpgrade}. Emits an {Upgraded} event."
      },
      "upgradeToAndCall(address,bytes)": {
        "details": "Upgrade the implementation of the proxy to `newImplementation`, and subsequently execute the function call encoded in `data`. Calls {_authorizeUpgrade}. Emits an {Upgraded} event."
      }
    },
    "title": "ETS EVMNFT Target Type Tagger Contract",
    "version": 1
  },
  "userdoc": {
    "kind": "user",
    "methods": {
      "creator()": {
        "notice": "Address that built the target type smart contract."
      },
      "ets()": {
        "notice": "Address and interface for ETS core."
      },
      "isTargetTypePaused()": {
        "notice": "Query if the target type has been paused"
      },
      "name()": {
        "notice": "Human readable name for the target type"
      },
      "supportsInterface(bytes4)": {
        "notice": "For clients querying via ERC165, we show support for ERC165 interface plus target type interface"
      },
      "tag((string,string,string,string[],bool)[],(uint8,bytes32,bytes32),(uint8,bytes32,bytes32))": {
        "notice": "Publisher sponsored recording of one or more tagging records to ETS Core. A \"tagging record\" here is an EVMNFT target tagged with one or more tag strings. Tagging records are passed in as an array of one or more json objects that conform to the TaggingRecordParams struct. \"Publisher sponsored\" means the tagger is receiving attribution for the tagging record and the publisher is paying for the transaction."
      },
      "toggleTargetTypePaused()": {
        "notice": "Allow owner to toggle pausing on and off"
      },
      "version()": {
        "notice": "Version of the target type contract"
      }
    },
    "notice": "Contract that moderates tagging of EVM compatible NFTs on the ETS platform.",
    "version": 1
  },
  "storageLayout": {
    "storage": [
      {
        "astId": 950,
        "contract": "contracts/targets/EVMNFT.sol:EVMNFT",
        "label": "_initialized",
        "offset": 0,
        "slot": "0",
        "type": "t_bool"
      },
      {
        "astId": 953,
        "contract": "contracts/targets/EVMNFT.sol:EVMNFT",
        "label": "_initializing",
        "offset": 1,
        "slot": "0",
        "type": "t_bool"
      },
      {
        "astId": 3398,
        "contract": "contracts/targets/EVMNFT.sol:EVMNFT",
        "label": "_HASHED_NAME",
        "offset": 0,
        "slot": "1",
        "type": "t_bytes32"
      },
      {
        "astId": 3400,
        "contract": "contracts/targets/EVMNFT.sol:EVMNFT",
        "label": "_HASHED_VERSION",
        "offset": 0,
        "slot": "2",
        "type": "t_bytes32"
      },
      {
        "astId": 3537,
        "contract": "contracts/targets/EVMNFT.sol:EVMNFT",
        "label": "__gap",
        "offset": 0,
        "slot": "3",
        "type": "t_array(t_uint256)50_storage"
      },
      {
        "astId": 8180,
        "contract": "contracts/targets/EVMNFT.sol:EVMNFT",
        "label": "_TAG_TYPEHASH",
        "offset": 0,
        "slot": "53",
        "type": "t_bytes32"
      },
      {
        "astId": 2735,
        "contract": "contracts/targets/EVMNFT.sol:EVMNFT",
        "label": "__gap",
        "offset": 0,
        "slot": "54",
        "type": "t_array(t_uint256)50_storage"
      },
      {
        "astId": 420,
        "contract": "contracts/targets/EVMNFT.sol:EVMNFT",
        "label": "_owner",
        "offset": 0,
        "slot": "104",
        "type": "t_address"
      },
      {
        "astId": 534,
        "contract": "contracts/targets/EVMNFT.sol:EVMNFT",
        "label": "__gap",
        "offset": 0,
        "slot": "105",
        "type": "t_array(t_uint256)49_storage"
      },
      {
        "astId": 932,
        "contract": "contracts/targets/EVMNFT.sol:EVMNFT",
        "label": "__gap",
        "offset": 0,
        "slot": "154",
        "type": "t_array(t_uint256)50_storage"
      },
      {
        "astId": 1127,
        "contract": "contracts/targets/EVMNFT.sol:EVMNFT",
        "label": "__gap",
        "offset": 0,
        "slot": "204",
        "type": "t_array(t_uint256)50_storage"
      },
      {
        "astId": 1149,
        "contract": "contracts/targets/EVMNFT.sol:EVMNFT",
        "label": "_paused",
        "offset": 0,
        "slot": "254",
        "type": "t_bool"
      },
      {
        "astId": 1240,
        "contract": "contracts/targets/EVMNFT.sol:EVMNFT",
        "label": "__gap",
        "offset": 0,
        "slot": "255",
        "type": "t_array(t_uint256)49_storage"
      },
      {
        "astId": 8467,
        "contract": "contracts/targets/EVMNFT.sol:EVMNFT",
        "label": "creator",
        "offset": 0,
        "slot": "304",
        "type": "t_address_payable"
      },
      {
        "astId": 8471,
        "contract": "contracts/targets/EVMNFT.sol:EVMNFT",
        "label": "ets",
        "offset": 0,
        "slot": "305",
        "type": "t_contract(IETS)7946"
      }
    ],
    "types": {
      "t_address": {
        "encoding": "inplace",
        "label": "address",
        "numberOfBytes": "20"
      },
      "t_address_payable": {
        "encoding": "inplace",
        "label": "address payable",
        "numberOfBytes": "20"
      },
      "t_array(t_uint256)49_storage": {
        "base": "t_uint256",
        "encoding": "inplace",
        "label": "uint256[49]",
        "numberOfBytes": "1568"
      },
      "t_array(t_uint256)50_storage": {
        "base": "t_uint256",
        "encoding": "inplace",
        "label": "uint256[50]",
        "numberOfBytes": "1600"
      },
      "t_bool": {
        "encoding": "inplace",
        "label": "bool",
        "numberOfBytes": "1"
      },
      "t_bytes32": {
        "encoding": "inplace",
        "label": "bytes32",
        "numberOfBytes": "32"
      },
      "t_contract(IETS)7946": {
        "encoding": "inplace",
        "label": "contract IETS",
        "numberOfBytes": "20"
      },
      "t_uint256": {
        "encoding": "inplace",
        "label": "uint256",
        "numberOfBytes": "32"
      }
    }
  }
}