{
  "address": "0x955A2670f65CeE919A6236Ceda8FDDb3A3d18eE6",
  "abi": [
    {
      "inputs": [],
      "stateMutability": "nonpayable",
      "type": "constructor"
    },
    {
      "anonymous": false,
      "inputs": [
        {
          "indexed": false,
          "internalType": "address",
          "name": "previousAdmin",
          "type": "address"
        },
        {
          "indexed": false,
          "internalType": "address",
          "name": "newAdmin",
          "type": "address"
        }
      ],
      "name": "AdminChanged",
      "type": "event"
    },
    {
      "anonymous": false,
      "inputs": [
        {
          "indexed": true,
          "internalType": "address",
          "name": "beacon",
          "type": "address"
        }
      ],
      "name": "BeaconUpgraded",
      "type": "event"
    },
    {
      "anonymous": false,
      "inputs": [
        {
          "indexed": true,
          "internalType": "address",
          "name": "previousOwner",
          "type": "address"
        },
        {
          "indexed": true,
          "internalType": "address",
          "name": "newOwner",
          "type": "address"
        }
      ],
      "name": "OwnershipTransferred",
      "type": "event"
    },
    {
      "anonymous": false,
      "inputs": [
        {
          "indexed": false,
          "internalType": "address",
          "name": "account",
          "type": "address"
        }
      ],
      "name": "Paused",
      "type": "event"
    },
    {
      "anonymous": false,
      "inputs": [
        {
          "indexed": false,
          "internalType": "string",
          "name": "targetType",
          "type": "string"
        },
        {
          "indexed": false,
          "internalType": "bool",
          "name": "paused",
          "type": "bool"
        }
      ],
      "name": "TargetTypePaused",
      "type": "event"
    },
    {
      "anonymous": false,
      "inputs": [
        {
          "indexed": false,
          "internalType": "address",
          "name": "account",
          "type": "address"
        }
      ],
      "name": "Unpaused",
      "type": "event"
    },
    {
      "anonymous": false,
      "inputs": [
        {
          "indexed": true,
          "internalType": "address",
          "name": "implementation",
          "type": "address"
        }
      ],
      "name": "Upgraded",
      "type": "event"
    },
    {
      "inputs": [],
      "name": "creator",
      "outputs": [
        {
          "internalType": "address payable",
          "name": "",
          "type": "address"
        }
      ],
      "stateMutability": "view",
      "type": "function"
    },
    {
      "inputs": [],
      "name": "ets",
      "outputs": [
        {
          "internalType": "contract IETS",
          "name": "",
          "type": "address"
        }
      ],
      "stateMutability": "view",
      "type": "function"
    },
    {
      "inputs": [
        {
          "internalType": "contract IETS",
          "name": "_ets",
          "type": "address"
        },
        {
          "internalType": "address payable",
          "name": "_creator",
          "type": "address"
        },
        {
          "internalType": "address",
          "name": "_owner",
          "type": "address"
        }
      ],
      "name": "initialize",
      "outputs": [],
      "stateMutability": "nonpayable",
      "type": "function"
    },
    {
      "inputs": [],
      "name": "isTargetTypePaused",
      "outputs": [
        {
          "internalType": "bool",
          "name": "",
          "type": "bool"
        }
      ],
      "stateMutability": "view",
      "type": "function"
    },
    {
      "inputs": [],
      "name": "name",
      "outputs": [
        {
          "internalType": "string",
          "name": "",
          "type": "string"
        }
      ],
      "stateMutability": "pure",
      "type": "function"
    },
    {
      "inputs": [],
      "name": "owner",
      "outputs": [
        {
          "internalType": "address",
          "name": "",
          "type": "address"
        }
      ],
      "stateMutability": "view",
      "type": "function"
    },
    {
      "inputs": [],
      "name": "paused",
      "outputs": [
        {
          "internalType": "bool",
          "name": "",
          "type": "bool"
        }
      ],
      "stateMutability": "view",
      "type": "function"
    },
    {
      "inputs": [],
      "name": "renounceOwnership",
      "outputs": [],
      "stateMutability": "nonpayable",
      "type": "function"
    },
    {
      "inputs": [
        {
          "internalType": "bytes4",
          "name": "interfaceId",
          "type": "bytes4"
        }
      ],
      "name": "supportsInterface",
      "outputs": [
        {
          "internalType": "bool",
          "name": "",
          "type": "bool"
        }
      ],
      "stateMutability": "view",
      "type": "function"
    },
    {
      "inputs": [
        {
          "internalType": "address",
          "name": "_nftAddress",
          "type": "address"
        },
        {
          "internalType": "uint256",
          "name": "_tokenId",
          "type": "uint256"
        },
        {
          "internalType": "uint256",
          "name": "_chainId",
          "type": "uint256"
        },
        {
          "internalType": "address payable",
          "name": "_publisher",
          "type": "address"
        },
        {
          "internalType": "address",
          "name": "_tagger",
          "type": "address"
        },
        {
          "internalType": "string",
          "name": "_tagString",
          "type": "string"
        },
        {
          "internalType": "bool",
          "name": "_ensure",
          "type": "bool"
        }
      ],
      "name": "tag",
      "outputs": [],
      "stateMutability": "nonpayable",
      "type": "function"
    },
    {
      "inputs": [],
      "name": "toggleTargetTypePaused",
      "outputs": [],
      "stateMutability": "nonpayable",
      "type": "function"
    },
    {
      "inputs": [
        {
          "internalType": "address",
          "name": "newOwner",
          "type": "address"
        }
      ],
      "name": "transferOwnership",
      "outputs": [],
      "stateMutability": "nonpayable",
      "type": "function"
    },
    {
      "inputs": [
        {
          "internalType": "address",
          "name": "newImplementation",
          "type": "address"
        }
      ],
      "name": "upgradeTo",
      "outputs": [],
      "stateMutability": "nonpayable",
      "type": "function"
    },
    {
      "inputs": [
        {
          "internalType": "address",
          "name": "newImplementation",
          "type": "address"
        },
        {
          "internalType": "bytes",
          "name": "data",
          "type": "bytes"
        }
      ],
      "name": "upgradeToAndCall",
      "outputs": [],
      "stateMutability": "payable",
      "type": "function"
    },
    {
      "inputs": [],
      "name": "version",
      "outputs": [
        {
          "internalType": "string",
          "name": "",
          "type": "string"
        }
      ],
      "stateMutability": "pure",
      "type": "function"
    }
  ],
  "numDeployments": 1,
  "solcInputHash": "64094b62653210def77c952ff1fa50cf",
  "bytecode": "0x60a06040523060601b6080523480156200001857600080fd5b50600054610100900460ff16620000365760005460ff161562000040565b62000040620000e5565b620000a85760405162461bcd60e51b815260206004820152602e60248201527f496e697469616c697a61626c653a20636f6e747261637420697320616c72656160448201526d191e481a5b9a5d1a585b1a5e995960921b606482015260840160405180910390fd5b600054610100900460ff16158015620000cb576000805461ffff19166101011790555b8015620000de576000805461ff00191690555b5062000109565b6000620000fd306200010360201b62000adc1760201c565b15905090565b3b151590565b60805160601c61178f6200013d600039600081816103a30152818161042d0152818161052401526105a9015261178f6000f3fe6080604052600436106100e85760003560e01c806354fd4d501161008a5780638da5cb5b116100595780638da5cb5b1461028c578063c0c53b8b146102aa578063ed626498146102ca578063f2fde38b146102df57600080fd5b806354fd4d50146102045780635c975abb1461024a578063715018a6146102625780638bf7a5ad1461027757600080fd5b806315ccda22116100c657806315ccda221461018f5780633659cfe6146101af5780634f1ef286146101d157806354a8b508146101e457600080fd5b806301ffc9a7146100ed57806302d05d3f1461012257806306fdde031461015a575b600080fd5b3480156100f957600080fd5b5061010d61010836600461154d565b6102ff565b60405190151581526020015b60405180910390f35b34801561012e57600080fd5b5060fb54610142906001600160a01b031681565b6040516001600160a01b039091168152602001610119565b34801561016657600080fd5b5060408051808201909152600381526213919560ea1b60208201525b604051610119919061168b565b34801561019b57600080fd5b5060fc54610142906001600160a01b031681565b3480156101bb57600080fd5b506101cf6101ca36600461139e565b610398565b005b6101cf6101df3660046113bb565b610519565b3480156101f057600080fd5b506101cf6101ff36600461147f565b610686565b34801561021057600080fd5b5060408051808201909152600581527f302e302e310000000000000000000000000000000000000000000000000000006020820152610182565b34801561025657600080fd5b5060c95460ff1661010d565b34801561026e57600080fd5b506101cf610782565b34801561028357600080fd5b5061010d6107e8565b34801561029857600080fd5b506033546001600160a01b0316610142565b3480156102b657600080fd5b506101cf6102c536600461158f565b6107fb565b3480156102d657600080fd5b506101cf610924565b3480156102eb57600080fd5b506101cf6102fa36600461139e565b6109fd565b60007fffffffff0000000000000000000000000000000000000000000000000000000082167f01ffc9a700000000000000000000000000000000000000000000000000000000148061039257507fffffffff0000000000000000000000000000000000000000000000000000000082167fdb276bc100000000000000000000000000000000000000000000000000000000145b92915050565b306001600160a01b037f000000000000000000000000000000000000000000000000000000000000000016141561042b5760405162461bcd60e51b815260206004820152602c60248201527f46756e6374696f6e206d7573742062652063616c6c6564207468726f7567682060448201526b19195b1959d85d1958d85b1b60a21b60648201526084015b60405180910390fd5b7f00000000000000000000000000000000000000000000000000000000000000006001600160a01b03166104867f360894a13ba1a3210667c828492db98dca3e2076cc3735a920a3ca505d382bbc546001600160a01b031690565b6001600160a01b0316146104f15760405162461bcd60e51b815260206004820152602c60248201527f46756e6374696f6e206d7573742062652063616c6c6564207468726f7567682060448201526b6163746976652070726f787960a01b6064820152608401610422565b6104fa81610ae2565b6040805160008082526020820190925261051691839190610b3c565b50565b306001600160a01b037f00000000000000000000000000000000000000000000000000000000000000001614156105a75760405162461bcd60e51b815260206004820152602c60248201527f46756e6374696f6e206d7573742062652063616c6c6564207468726f7567682060448201526b19195b1959d85d1958d85b1b60a21b6064820152608401610422565b7f00000000000000000000000000000000000000000000000000000000000000006001600160a01b03166106027f360894a13ba1a3210667c828492db98dca3e2076cc3735a920a3ca505d382bbc546001600160a01b031690565b6001600160a01b03161461066d5760405162461bcd60e51b815260206004820152602c60248201527f46756e6374696f6e206d7573742062652063616c6c6564207468726f7567682060448201526b6163746976652070726f787960a01b6064820152608401610422565b61067682610ae2565b61068282826001610b3c565b5050565b6040516bffffffffffffffffffffffff1960608a901b1660208201527f7c00000000000000000000000000000000000000000000000000000000000000603482018190526035820189905260558201526056810187905260009060760160408051601f198184030181529082905260fc547fb3e74f4f0000000000000000000000000000000000000000000000000000000083529092506001600160a01b03169063b3e74f4f90610745908790879086908c908c908a90600401611622565b600060405180830381600087803b15801561075f57600080fd5b505af1158015610773573d6000803e3d6000fd5b50505050505050505050505050565b6033546001600160a01b031633146107dc5760405162461bcd60e51b815260206004820181905260248201527f4f776e61626c653a2063616c6c6572206973206e6f7420746865206f776e65726044820152606401610422565b6107e66000610d00565b565b60006107f660c95460ff1690565b905090565b600054610100900460ff166108165760005460ff161561081a565b303b155b61088c5760405162461bcd60e51b815260206004820152602e60248201527f496e697469616c697a61626c653a20636f6e747261637420697320616c72656160448201527f647920696e697469616c697a65640000000000000000000000000000000000006064820152608401610422565b600054610100900460ff161580156108ae576000805461ffff19166101011790555b6108b6610d5f565b6108be610dda565b6108c6610e55565b60fc80546001600160a01b0380871673ffffffffffffffffffffffffffffffffffffffff199283161790925560fb80549286169290911691909117905561090c826109fd565b801561091e576000805461ff00191690555b50505050565b6033546001600160a01b0316331461097e5760405162461bcd60e51b815260206004820181905260248201527f4f776e61626c653a2063616c6c6572206973206e6f7420746865206f776e65726044820152606401610422565b60c95460ff161561099657610991610ed0565b61099e565b61099e610f67565b7f0c1e6d347dee44bc82665e25ea1952c3312e34da5483d1cabf187ad6f40048e36109df60408051808201909152600381526213919560ea1b602082015290565b60c95460ff166040516109f392919061169e565b60405180910390a1565b6033546001600160a01b03163314610a575760405162461bcd60e51b815260206004820181905260248201527f4f776e61626c653a2063616c6c6572206973206e6f7420746865206f776e65726044820152606401610422565b6001600160a01b038116610ad35760405162461bcd60e51b815260206004820152602660248201527f4f776e61626c653a206e6577206f776e657220697320746865207a65726f206160448201527f64647265737300000000000000000000000000000000000000000000000000006064820152608401610422565b61051681610d00565b3b151590565b6033546001600160a01b031633146105165760405162461bcd60e51b815260206004820181905260248201527f4f776e61626c653a2063616c6c6572206973206e6f7420746865206f776e65726044820152606401610422565b6000610b6f7f360894a13ba1a3210667c828492db98dca3e2076cc3735a920a3ca505d382bbc546001600160a01b031690565b9050610b7a84610fef565b600083511180610b875750815b15610b9857610b9684846110b1565b505b7f4910fdfa16fed3260ed0e7147f7cc6da11a60208b5b9406d12a635614ffd9143805460ff16610cf957805460ff191660011781556040516001600160a01b0383166024820152610c4590869060440160408051601f198184030181529190526020810180517bffffffffffffffffffffffffffffffffffffffffffffffffffffffff167f3659cfe6000000000000000000000000000000000000000000000000000000001790526110b1565b50805460ff191681557f360894a13ba1a3210667c828492db98dca3e2076cc3735a920a3ca505d382bbc546001600160a01b03838116911614610cf05760405162461bcd60e51b815260206004820152602f60248201527f45524331393637557067726164653a207570677261646520627265616b73206660448201527f75727468657220757067726164657300000000000000000000000000000000006064820152608401610422565b610cf9856111b3565b5050505050565b603380546001600160a01b0383811673ffffffffffffffffffffffffffffffffffffffff19831681179093556040519116919082907f8be0079c531659141344cd1fd0a4f28419497f9722a3daafe3b4186f6b6457e090600090a35050565b600054610100900460ff16610dca5760405162461bcd60e51b815260206004820152602b60248201527f496e697469616c697a61626c653a20636f6e7472616374206973206e6f74206960448201526a6e697469616c697a696e6760a81b6064820152608401610422565b610dd26111f3565b6107e661125e565b600054610100900460ff16610e455760405162461bcd60e51b815260206004820152602b60248201527f496e697469616c697a61626c653a20636f6e7472616374206973206e6f74206960448201526a6e697469616c697a696e6760a81b6064820152608401610422565b610e4d6111f3565b6107e66111f3565b600054610100900460ff16610ec05760405162461bcd60e51b815260206004820152602b60248201527f496e697469616c697a61626c653a20636f6e7472616374206973206e6f74206960448201526a6e697469616c697a696e6760a81b6064820152608401610422565b610ec86111f3565b6107e66112d2565b60c95460ff16610f225760405162461bcd60e51b815260206004820152601460248201527f5061757361626c653a206e6f74207061757365640000000000000000000000006044820152606401610422565b60c9805460ff191690557f5db9ee0a495bf2e6ff9c91a7834c1ba4fdd244a5e8aa4e537bd38aeae4b073aa335b6040516001600160a01b0390911681526020016109f3565b60c95460ff1615610fba5760405162461bcd60e51b815260206004820152601060248201527f5061757361626c653a20706175736564000000000000000000000000000000006044820152606401610422565b60c9805460ff191660011790557f62e78cea01bee320cd4e420270b5ea74000d11b0c9f74754ebdbfc544b05a258610f4f3390565b803b6110635760405162461bcd60e51b815260206004820152602d60248201527f455243313936373a206e657720696d706c656d656e746174696f6e206973206e60448201527f6f74206120636f6e7472616374000000000000000000000000000000000000006064820152608401610422565b7f360894a13ba1a3210667c828492db98dca3e2076cc3735a920a3ca505d382bbc805473ffffffffffffffffffffffffffffffffffffffff19166001600160a01b0392909216919091179055565b6060823b6111275760405162461bcd60e51b815260206004820152602660248201527f416464726573733a2064656c65676174652063616c6c20746f206e6f6e2d636f60448201527f6e747261637400000000000000000000000000000000000000000000000000006064820152608401610422565b600080846001600160a01b0316846040516111429190611606565b600060405180830381855af49150503d806000811461117d576040519150601f19603f3d011682016040523d82523d6000602084013e611182565b606091505b50915091506111aa828260405180606001604052806027815260200161173360279139611349565b95945050505050565b6111bc81610fef565b6040516001600160a01b038216907fbc7cd75a20ee27fd9adebab32041f755214dbc6bffa90cc0225b39da2e5c2d3b90600090a250565b600054610100900460ff166107e65760405162461bcd60e51b815260206004820152602b60248201527f496e697469616c697a61626c653a20636f6e7472616374206973206e6f74206960448201526a6e697469616c697a696e6760a81b6064820152608401610422565b600054610100900460ff166112c95760405162461bcd60e51b815260206004820152602b60248201527f496e697469616c697a61626c653a20636f6e7472616374206973206e6f74206960448201526a6e697469616c697a696e6760a81b6064820152608401610422565b6107e633610d00565b600054610100900460ff1661133d5760405162461bcd60e51b815260206004820152602b60248201527f496e697469616c697a61626c653a20636f6e7472616374206973206e6f74206960448201526a6e697469616c697a696e6760a81b6064820152608401610422565b60c9805460ff19169055565b60608315611358575081611382565b8251156113685782518084602001fd5b8160405162461bcd60e51b8152600401610422919061168b565b9392505050565b8035801515811461139957600080fd5b919050565b6000602082840312156113b057600080fd5b81356113828161171d565b600080604083850312156113ce57600080fd5b82356113d98161171d565b9150602083013567ffffffffffffffff808211156113f657600080fd5b818501915085601f83011261140a57600080fd5b81358181111561141c5761141c6116ee565b604051601f8201601f19908116603f01168101908382118183101715611444576114446116ee565b8160405282815288602084870101111561145d57600080fd5b8260208601602083013760006020848301015280955050505050509250929050565b60008060008060008060008060e0898b03121561149b57600080fd5b88356114a68161171d565b9750602089013596506040890135955060608901356114c48161171d565b945060808901356114d48161171d565b935060a089013567ffffffffffffffff808211156114f157600080fd5b818b0191508b601f83011261150557600080fd5b81358181111561151457600080fd5b8c602082850101111561152657600080fd5b60208301955080945050505061153e60c08a01611389565b90509295985092959890939650565b60006020828403121561155f57600080fd5b81357fffffffff000000000000000000000000000000000000000000000000000000008116811461138257600080fd5b6000806000606084860312156115a457600080fd5b83356115af8161171d565b925060208401356115bf8161171d565b915060408401356115cf8161171d565b809150509250925092565b600081518084526115f28160208601602086016116c2565b601f01601f19169290920160200192915050565b600082516116188184602087016116c2565b9190910192915050565b60a081528560a0820152858760c0830137600060c087830101526000601f19601f880116820160c083820301602084015261166060c08201886115da565b6001600160a01b03968716604085015294909516606083015250901515608090910152949350505050565b60208152600061138260208301846115da565b6040815260006116b160408301856115da565b905082151560208301529392505050565b60005b838110156116dd5781810151838201526020016116c5565b8381111561091e5750506000910152565b7f4e487b7100000000000000000000000000000000000000000000000000000000600052604160045260246000fd5b6001600160a01b038116811461051657600080fdfe416464726573733a206c6f772d6c6576656c2064656c65676174652063616c6c206661696c6564a2646970667358221220d380d1886490c02b54854a72276de25c0f424ba173e4620d11f630c92435b75a64736f6c63430008070033",
  "devdoc": {
    "kind": "dev",
    "methods": {
      "constructor": {
        "custom:oz-upgrades-unsafe-allow": "constructor"
      },
      "initialize(address,address,address)": {
        "params": {
          "_creator": "Creator of the target type smart contract",
          "_owner": "Who will become owner and able to upgrade the contract"
        }
      },
      "owner()": {
        "details": "Returns the address of the current owner."
      },
      "paused()": {
        "details": "Returns true if the contract is paused, and false otherwise."
      },
      "renounceOwnership()": {
        "details": "Leaves the contract without owner. It will not be possible to call `onlyOwner` functions anymore. Can only be called by the current owner. NOTE: Renouncing ownership will leave the contract without an owner, thereby removing any functionality that is only available to the owner."
      },
      "supportsInterface(bytes4)": {
        "details": "This ensures all target types conform to the same interface if they implement this function"
      },
      "transferOwnership(address)": {
        "details": "Transfers ownership of the contract to a new account (`newOwner`). Can only be called by the current owner."
      },
      "upgradeTo(address)": {
        "details": "Upgrade the implementation of the proxy to `newImplementation`. Calls {_authorizeUpgrade}. Emits an {Upgraded} event."
      },
      "upgradeToAndCall(address,bytes)": {
        "details": "Upgrade the implementation of the proxy to `newImplementation`, and subsequently execute the function call encoded in `data`. Calls {_authorizeUpgrade}. Emits an {Upgraded} event."
      }
    },
    "version": 1
  },
  "userdoc": {
    "kind": "user",
    "methods": {
      "creator()": {
        "notice": "Address that built the target type smart contract"
      },
      "ets()": {
        "notice": "Address and interface for ETS core"
      },
      "isTargetTypePaused()": {
        "notice": "Query if the target type has been paused"
      },
      "name()": {
        "notice": "Human readable name for the target type"
      },
      "supportsInterface(bytes4)": {
        "notice": "For clients querying via ERC165, we show support for ERC165 interface plus target type interface"
      },
      "tag(address,uint256,uint256,address,address,string,bool)": {
        "notice": "Entry point for a user to tag an EVM NFT which will call into ETS"
      },
      "toggleTargetTypePaused()": {
        "notice": "Allow owner to toggle pausing on and off"
      },
      "version()": {
        "notice": "Version of the target type contract"
      }
    },
    "version": 1
  },
  "storageLayout": {
    "storage": [
      {
        "astId": 950,
        "contract": "contracts/mocks/MockNftTagger.sol:MockNftTagger",
        "label": "_initialized",
        "offset": 0,
        "slot": "0",
        "type": "t_bool"
      },
      {
        "astId": 953,
        "contract": "contracts/mocks/MockNftTagger.sol:MockNftTagger",
        "label": "_initializing",
        "offset": 1,
        "slot": "0",
        "type": "t_bool"
      },
      {
        "astId": 2735,
        "contract": "contracts/mocks/MockNftTagger.sol:MockNftTagger",
        "label": "__gap",
        "offset": 0,
        "slot": "1",
        "type": "t_array(t_uint256)50_storage"
      },
      {
        "astId": 420,
        "contract": "contracts/mocks/MockNftTagger.sol:MockNftTagger",
        "label": "_owner",
        "offset": 0,
        "slot": "51",
        "type": "t_address"
      },
      {
        "astId": 534,
        "contract": "contracts/mocks/MockNftTagger.sol:MockNftTagger",
        "label": "__gap",
        "offset": 0,
        "slot": "52",
        "type": "t_array(t_uint256)49_storage"
      },
      {
        "astId": 932,
        "contract": "contracts/mocks/MockNftTagger.sol:MockNftTagger",
        "label": "__gap",
        "offset": 0,
        "slot": "101",
        "type": "t_array(t_uint256)50_storage"
      },
      {
        "astId": 1127,
        "contract": "contracts/mocks/MockNftTagger.sol:MockNftTagger",
        "label": "__gap",
        "offset": 0,
        "slot": "151",
        "type": "t_array(t_uint256)50_storage"
      },
      {
        "astId": 1149,
        "contract": "contracts/mocks/MockNftTagger.sol:MockNftTagger",
        "label": "_paused",
        "offset": 0,
        "slot": "201",
        "type": "t_bool"
      },
      {
        "astId": 1240,
        "contract": "contracts/mocks/MockNftTagger.sol:MockNftTagger",
        "label": "__gap",
        "offset": 0,
        "slot": "202",
        "type": "t_array(t_uint256)49_storage"
      },
      {
        "astId": 7337,
        "contract": "contracts/mocks/MockNftTagger.sol:MockNftTagger",
        "label": "creator",
        "offset": 0,
        "slot": "251",
        "type": "t_address_payable"
      },
      {
        "astId": 7341,
        "contract": "contracts/mocks/MockNftTagger.sol:MockNftTagger",
        "label": "ets",
        "offset": 0,
        "slot": "252",
        "type": "t_contract(IETS)7093"
      }
    ],
    "types": {
      "t_address": {
        "encoding": "inplace",
        "label": "address",
        "numberOfBytes": "20"
      },
      "t_address_payable": {
        "encoding": "inplace",
        "label": "address payable",
        "numberOfBytes": "20"
      },
      "t_array(t_uint256)49_storage": {
        "base": "t_uint256",
        "encoding": "inplace",
        "label": "uint256[49]",
        "numberOfBytes": "1568"
      },
      "t_array(t_uint256)50_storage": {
        "base": "t_uint256",
        "encoding": "inplace",
        "label": "uint256[50]",
        "numberOfBytes": "1600"
      },
      "t_bool": {
        "encoding": "inplace",
        "label": "bool",
        "numberOfBytes": "1"
      },
      "t_contract(IETS)7093": {
        "encoding": "inplace",
        "label": "contract IETS",
        "numberOfBytes": "20"
      },
      "t_uint256": {
        "encoding": "inplace",
        "label": "uint256",
        "numberOfBytes": "32"
      }
    }
  }
}