{
  "address": "0x31130D3Ad9e408D502a799495e7D24073743b5D2",
  "abi": [
    {
      "inputs": [],
      "stateMutability": "nonpayable",
      "type": "constructor"
    },
    {
      "anonymous": false,
      "inputs": [
        {
          "indexed": false,
          "internalType": "address",
          "name": "previousAdmin",
          "type": "address"
        },
        {
          "indexed": false,
          "internalType": "address",
          "name": "newAdmin",
          "type": "address"
        }
      ],
      "name": "AdminChanged",
      "type": "event"
    },
    {
      "anonymous": false,
      "inputs": [
        {
          "indexed": true,
          "internalType": "address",
          "name": "beacon",
          "type": "address"
        }
      ],
      "name": "BeaconUpgraded",
      "type": "event"
    },
    {
      "anonymous": false,
      "inputs": [
        {
          "indexed": true,
          "internalType": "address",
          "name": "previousOwner",
          "type": "address"
        },
        {
          "indexed": true,
          "internalType": "address",
          "name": "newOwner",
          "type": "address"
        }
      ],
      "name": "OwnershipTransferred",
      "type": "event"
    },
    {
      "anonymous": false,
      "inputs": [
        {
          "indexed": false,
          "internalType": "address",
          "name": "account",
          "type": "address"
        }
      ],
      "name": "Paused",
      "type": "event"
    },
    {
      "anonymous": false,
      "inputs": [
        {
          "indexed": false,
          "internalType": "string",
          "name": "targetType",
          "type": "string"
        },
        {
          "indexed": false,
          "internalType": "bool",
          "name": "paused",
          "type": "bool"
        }
      ],
      "name": "TargetTypePaused",
      "type": "event"
    },
    {
      "anonymous": false,
      "inputs": [
        {
          "indexed": false,
          "internalType": "address",
          "name": "account",
          "type": "address"
        }
      ],
      "name": "Unpaused",
      "type": "event"
    },
    {
      "anonymous": false,
      "inputs": [
        {
          "indexed": true,
          "internalType": "address",
          "name": "implementation",
          "type": "address"
        }
      ],
      "name": "Upgraded",
      "type": "event"
    },
    {
      "inputs": [],
      "name": "creator",
      "outputs": [
        {
          "internalType": "address payable",
          "name": "",
          "type": "address"
        }
      ],
      "stateMutability": "view",
      "type": "function"
    },
    {
      "inputs": [],
      "name": "ets",
      "outputs": [
        {
          "internalType": "contract IETS",
          "name": "",
          "type": "address"
        }
      ],
      "stateMutability": "view",
      "type": "function"
    },
    {
      "inputs": [
        {
          "internalType": "contract IETS",
          "name": "_ets",
          "type": "address"
        },
        {
          "internalType": "address payable",
          "name": "_creator",
          "type": "address"
        },
        {
          "internalType": "address",
          "name": "_owner",
          "type": "address"
        }
      ],
      "name": "initialize",
      "outputs": [],
      "stateMutability": "nonpayable",
      "type": "function"
    },
    {
      "inputs": [],
      "name": "isTargetTypePaused",
      "outputs": [
        {
          "internalType": "bool",
          "name": "",
          "type": "bool"
        }
      ],
      "stateMutability": "view",
      "type": "function"
    },
    {
      "inputs": [],
      "name": "name",
      "outputs": [
        {
          "internalType": "string",
          "name": "",
          "type": "string"
        }
      ],
      "stateMutability": "pure",
      "type": "function"
    },
    {
      "inputs": [],
      "name": "owner",
      "outputs": [
        {
          "internalType": "address",
          "name": "",
          "type": "address"
        }
      ],
      "stateMutability": "view",
      "type": "function"
    },
    {
      "inputs": [],
      "name": "paused",
      "outputs": [
        {
          "internalType": "bool",
          "name": "",
          "type": "bool"
        }
      ],
      "stateMutability": "view",
      "type": "function"
    },
    {
      "inputs": [],
      "name": "renounceOwnership",
      "outputs": [],
      "stateMutability": "nonpayable",
      "type": "function"
    },
    {
      "inputs": [
        {
          "internalType": "bytes4",
          "name": "interfaceId",
          "type": "bytes4"
        }
      ],
      "name": "supportsInterface",
      "outputs": [
        {
          "internalType": "bool",
          "name": "",
          "type": "bool"
        }
      ],
      "stateMutability": "view",
      "type": "function"
    },
    {
      "inputs": [
        {
          "internalType": "address",
          "name": "_nftAddress",
          "type": "address"
        },
        {
          "internalType": "uint256",
          "name": "_tokenId",
          "type": "uint256"
        },
        {
          "internalType": "uint256",
          "name": "_chainId",
          "type": "uint256"
        },
        {
          "internalType": "address payable",
          "name": "_publisher",
          "type": "address"
        },
        {
          "internalType": "address",
          "name": "_tagger",
          "type": "address"
        },
        {
          "internalType": "string",
          "name": "_tagString",
          "type": "string"
        },
        {
          "internalType": "bool",
          "name": "_ensure",
          "type": "bool"
        }
      ],
      "name": "tag",
      "outputs": [],
      "stateMutability": "payable",
      "type": "function"
    },
    {
      "inputs": [],
      "name": "toggleTargetTypePaused",
      "outputs": [],
      "stateMutability": "nonpayable",
      "type": "function"
    },
    {
      "inputs": [
        {
          "internalType": "address",
          "name": "newOwner",
          "type": "address"
        }
      ],
      "name": "transferOwnership",
      "outputs": [],
      "stateMutability": "nonpayable",
      "type": "function"
    },
    {
      "inputs": [
        {
          "internalType": "address",
          "name": "newImplementation",
          "type": "address"
        }
      ],
      "name": "upgradeTo",
      "outputs": [],
      "stateMutability": "nonpayable",
      "type": "function"
    },
    {
      "inputs": [
        {
          "internalType": "address",
          "name": "newImplementation",
          "type": "address"
        },
        {
          "internalType": "bytes",
          "name": "data",
          "type": "bytes"
        }
      ],
      "name": "upgradeToAndCall",
      "outputs": [],
      "stateMutability": "payable",
      "type": "function"
    },
    {
      "inputs": [],
      "name": "version",
      "outputs": [
        {
          "internalType": "string",
          "name": "",
          "type": "string"
        }
      ],
      "stateMutability": "pure",
      "type": "function"
    }
  ],
  "numDeployments": 2,
  "solcInputHash": "0c6501f7d420f6adc08ed8d2f0ea9517",
  "bytecode": "0x60a06040523060601b6080523480156200001857600080fd5b50600054610100900460ff16620000365760005460ff161562000040565b62000040620000e5565b620000a85760405162461bcd60e51b815260206004820152602e60248201527f496e697469616c697a61626c653a20636f6e747261637420697320616c72656160448201526d191e481a5b9a5d1a585b1a5e995960921b606482015260840160405180910390fd5b600054610100900460ff16158015620000cb576000805461ffff19166101011790555b8015620000de576000805461ff00191690555b5062000109565b6000620000fd306200010360201b62000ad11760201c565b15905090565b3b151590565b60805160601c6117846200013d600039600081816103960152818161042001528181610517015261059c01526117846000f3fe6080604052600436106100e85760003560e01c806354fd4d501161008a5780638da5cb5b116100595780638da5cb5b1461027f578063c0c53b8b1461029d578063ed626498146102bd578063f2fde38b146102d257600080fd5b806354fd4d50146101f75780635c975abb1461023d578063715018a6146102555780638bf7a5ad1461026a57600080fd5b806315ccda22116100c657806315ccda221461018f5780633659cfe6146101af5780634f1ef286146101d157806354a8b508146101e457600080fd5b806301ffc9a7146100ed57806302d05d3f1461012257806306fdde031461015a575b600080fd5b3480156100f957600080fd5b5061010d610108366004611542565b6102f2565b60405190151581526020015b60405180910390f35b34801561012e57600080fd5b5060fb54610142906001600160a01b031681565b6040516001600160a01b039091168152602001610119565b34801561016657600080fd5b5060408051808201909152600381526213919560ea1b60208201525b6040516101199190611680565b34801561019b57600080fd5b5060fc54610142906001600160a01b031681565b3480156101bb57600080fd5b506101cf6101ca366004611393565b61038b565b005b6101cf6101df3660046113b0565b61050c565b6101cf6101f2366004611474565b610679565b34801561020357600080fd5b5060408051808201909152600581527f302e302e310000000000000000000000000000000000000000000000000000006020820152610182565b34801561024957600080fd5b5060c95460ff1661010d565b34801561026157600080fd5b506101cf610777565b34801561027657600080fd5b5061010d6107dd565b34801561028b57600080fd5b506033546001600160a01b0316610142565b3480156102a957600080fd5b506101cf6102b8366004611584565b6107f0565b3480156102c957600080fd5b506101cf610919565b3480156102de57600080fd5b506101cf6102ed366004611393565b6109f2565b60007fffffffff0000000000000000000000000000000000000000000000000000000082167f01ffc9a700000000000000000000000000000000000000000000000000000000148061038557507fffffffff0000000000000000000000000000000000000000000000000000000082167fdb276bc100000000000000000000000000000000000000000000000000000000145b92915050565b306001600160a01b037f000000000000000000000000000000000000000000000000000000000000000016141561041e5760405162461bcd60e51b815260206004820152602c60248201527f46756e6374696f6e206d7573742062652063616c6c6564207468726f7567682060448201526b19195b1959d85d1958d85b1b60a21b60648201526084015b60405180910390fd5b7f00000000000000000000000000000000000000000000000000000000000000006001600160a01b03166104797f360894a13ba1a3210667c828492db98dca3e2076cc3735a920a3ca505d382bbc546001600160a01b031690565b6001600160a01b0316146104e45760405162461bcd60e51b815260206004820152602c60248201527f46756e6374696f6e206d7573742062652063616c6c6564207468726f7567682060448201526b6163746976652070726f787960a01b6064820152608401610415565b6104ed81610ad7565b6040805160008082526020820190925261050991839190610b31565b50565b306001600160a01b037f000000000000000000000000000000000000000000000000000000000000000016141561059a5760405162461bcd60e51b815260206004820152602c60248201527f46756e6374696f6e206d7573742062652063616c6c6564207468726f7567682060448201526b19195b1959d85d1958d85b1b60a21b6064820152608401610415565b7f00000000000000000000000000000000000000000000000000000000000000006001600160a01b03166105f57f360894a13ba1a3210667c828492db98dca3e2076cc3735a920a3ca505d382bbc546001600160a01b031690565b6001600160a01b0316146106605760405162461bcd60e51b815260206004820152602c60248201527f46756e6374696f6e206d7573742062652063616c6c6564207468726f7567682060448201526b6163746976652070726f787960a01b6064820152608401610415565b61066982610ad7565b61067582826001610b31565b5050565b6040516bffffffffffffffffffffffff1960608a901b1660208201527f7c00000000000000000000000000000000000000000000000000000000000000603482018190526035820189905260558201526056810187905260009060760160408051601f198184030181529082905260fc547fb3e74f4f0000000000000000000000000000000000000000000000000000000083529092506001600160a01b03169063b3e74f4f90349061073a908890889087908d908d908b90600401611617565b6000604051808303818588803b15801561075357600080fd5b505af1158015610767573d6000803e3d6000fd5b5050505050505050505050505050565b6033546001600160a01b031633146107d15760405162461bcd60e51b815260206004820181905260248201527f4f776e61626c653a2063616c6c6572206973206e6f7420746865206f776e65726044820152606401610415565b6107db6000610cf5565b565b60006107eb60c95460ff1690565b905090565b600054610100900460ff1661080b5760005460ff161561080f565b303b155b6108815760405162461bcd60e51b815260206004820152602e60248201527f496e697469616c697a61626c653a20636f6e747261637420697320616c72656160448201527f647920696e697469616c697a65640000000000000000000000000000000000006064820152608401610415565b600054610100900460ff161580156108a3576000805461ffff19166101011790555b6108ab610d54565b6108b3610dcf565b6108bb610e4a565b60fc80546001600160a01b0380871673ffffffffffffffffffffffffffffffffffffffff199283161790925560fb805492861692909116919091179055610901826109f2565b8015610913576000805461ff00191690555b50505050565b6033546001600160a01b031633146109735760405162461bcd60e51b815260206004820181905260248201527f4f776e61626c653a2063616c6c6572206973206e6f7420746865206f776e65726044820152606401610415565b60c95460ff161561098b57610986610ec5565b610993565b610993610f5c565b7f0c1e6d347dee44bc82665e25ea1952c3312e34da5483d1cabf187ad6f40048e36109d460408051808201909152600381526213919560ea1b602082015290565b60c95460ff166040516109e8929190611693565b60405180910390a1565b6033546001600160a01b03163314610a4c5760405162461bcd60e51b815260206004820181905260248201527f4f776e61626c653a2063616c6c6572206973206e6f7420746865206f776e65726044820152606401610415565b6001600160a01b038116610ac85760405162461bcd60e51b815260206004820152602660248201527f4f776e61626c653a206e6577206f776e657220697320746865207a65726f206160448201527f64647265737300000000000000000000000000000000000000000000000000006064820152608401610415565b61050981610cf5565b3b151590565b6033546001600160a01b031633146105095760405162461bcd60e51b815260206004820181905260248201527f4f776e61626c653a2063616c6c6572206973206e6f7420746865206f776e65726044820152606401610415565b6000610b647f360894a13ba1a3210667c828492db98dca3e2076cc3735a920a3ca505d382bbc546001600160a01b031690565b9050610b6f84610fe4565b600083511180610b7c5750815b15610b8d57610b8b84846110a6565b505b7f4910fdfa16fed3260ed0e7147f7cc6da11a60208b5b9406d12a635614ffd9143805460ff16610cee57805460ff191660011781556040516001600160a01b0383166024820152610c3a90869060440160408051601f198184030181529190526020810180517bffffffffffffffffffffffffffffffffffffffffffffffffffffffff167f3659cfe6000000000000000000000000000000000000000000000000000000001790526110a6565b50805460ff191681557f360894a13ba1a3210667c828492db98dca3e2076cc3735a920a3ca505d382bbc546001600160a01b03838116911614610ce55760405162461bcd60e51b815260206004820152602f60248201527f45524331393637557067726164653a207570677261646520627265616b73206660448201527f75727468657220757067726164657300000000000000000000000000000000006064820152608401610415565b610cee856111a8565b5050505050565b603380546001600160a01b0383811673ffffffffffffffffffffffffffffffffffffffff19831681179093556040519116919082907f8be0079c531659141344cd1fd0a4f28419497f9722a3daafe3b4186f6b6457e090600090a35050565b600054610100900460ff16610dbf5760405162461bcd60e51b815260206004820152602b60248201527f496e697469616c697a61626c653a20636f6e7472616374206973206e6f74206960448201526a6e697469616c697a696e6760a81b6064820152608401610415565b610dc76111e8565b6107db611253565b600054610100900460ff16610e3a5760405162461bcd60e51b815260206004820152602b60248201527f496e697469616c697a61626c653a20636f6e7472616374206973206e6f74206960448201526a6e697469616c697a696e6760a81b6064820152608401610415565b610e426111e8565b6107db6111e8565b600054610100900460ff16610eb55760405162461bcd60e51b815260206004820152602b60248201527f496e697469616c697a61626c653a20636f6e7472616374206973206e6f74206960448201526a6e697469616c697a696e6760a81b6064820152608401610415565b610ebd6111e8565b6107db6112c7565b60c95460ff16610f175760405162461bcd60e51b815260206004820152601460248201527f5061757361626c653a206e6f74207061757365640000000000000000000000006044820152606401610415565b60c9805460ff191690557f5db9ee0a495bf2e6ff9c91a7834c1ba4fdd244a5e8aa4e537bd38aeae4b073aa335b6040516001600160a01b0390911681526020016109e8565b60c95460ff1615610faf5760405162461bcd60e51b815260206004820152601060248201527f5061757361626c653a20706175736564000000000000000000000000000000006044820152606401610415565b60c9805460ff191660011790557f62e78cea01bee320cd4e420270b5ea74000d11b0c9f74754ebdbfc544b05a258610f443390565b803b6110585760405162461bcd60e51b815260206004820152602d60248201527f455243313936373a206e657720696d706c656d656e746174696f6e206973206e60448201527f6f74206120636f6e7472616374000000000000000000000000000000000000006064820152608401610415565b7f360894a13ba1a3210667c828492db98dca3e2076cc3735a920a3ca505d382bbc805473ffffffffffffffffffffffffffffffffffffffff19166001600160a01b0392909216919091179055565b6060823b61111c5760405162461bcd60e51b815260206004820152602660248201527f416464726573733a2064656c65676174652063616c6c20746f206e6f6e2d636f60448201527f6e747261637400000000000000000000000000000000000000000000000000006064820152608401610415565b600080846001600160a01b03168460405161113791906115fb565b600060405180830381855af49150503d8060008114611172576040519150601f19603f3d011682016040523d82523d6000602084013e611177565b606091505b509150915061119f82826040518060600160405280602781526020016117286027913961133e565b95945050505050565b6111b181610fe4565b6040516001600160a01b038216907fbc7cd75a20ee27fd9adebab32041f755214dbc6bffa90cc0225b39da2e5c2d3b90600090a250565b600054610100900460ff166107db5760405162461bcd60e51b815260206004820152602b60248201527f496e697469616c697a61626c653a20636f6e7472616374206973206e6f74206960448201526a6e697469616c697a696e6760a81b6064820152608401610415565b600054610100900460ff166112be5760405162461bcd60e51b815260206004820152602b60248201527f496e697469616c697a61626c653a20636f6e7472616374206973206e6f74206960448201526a6e697469616c697a696e6760a81b6064820152608401610415565b6107db33610cf5565b600054610100900460ff166113325760405162461bcd60e51b815260206004820152602b60248201527f496e697469616c697a61626c653a20636f6e7472616374206973206e6f74206960448201526a6e697469616c697a696e6760a81b6064820152608401610415565b60c9805460ff19169055565b6060831561134d575081611377565b82511561135d5782518084602001fd5b8160405162461bcd60e51b81526004016104159190611680565b9392505050565b8035801515811461138e57600080fd5b919050565b6000602082840312156113a557600080fd5b813561137781611712565b600080604083850312156113c357600080fd5b82356113ce81611712565b9150602083013567ffffffffffffffff808211156113eb57600080fd5b818501915085601f8301126113ff57600080fd5b813581811115611411576114116116e3565b604051601f8201601f19908116603f01168101908382118183101715611439576114396116e3565b8160405282815288602084870101111561145257600080fd5b8260208601602083013760006020848301015280955050505050509250929050565b60008060008060008060008060e0898b03121561149057600080fd5b883561149b81611712565b9750602089013596506040890135955060608901356114b981611712565b945060808901356114c981611712565b935060a089013567ffffffffffffffff808211156114e657600080fd5b818b0191508b601f8301126114fa57600080fd5b81358181111561150957600080fd5b8c602082850101111561151b57600080fd5b60208301955080945050505061153360c08a0161137e565b90509295985092959890939650565b60006020828403121561155457600080fd5b81357fffffffff000000000000000000000000000000000000000000000000000000008116811461137757600080fd5b60008060006060848603121561159957600080fd5b83356115a481611712565b925060208401356115b481611712565b915060408401356115c481611712565b809150509250925092565b600081518084526115e78160208601602086016116b7565b601f01601f19169290920160200192915050565b6000825161160d8184602087016116b7565b9190910192915050565b60a081528560a0820152858760c0830137600060c087830101526000601f19601f880116820160c083820301602084015261165560c08201886115cf565b6001600160a01b03968716604085015294909516606083015250901515608090910152949350505050565b60208152600061137760208301846115cf565b6040815260006116a660408301856115cf565b905082151560208301529392505050565b60005b838110156116d25781810151838201526020016116ba565b838111156109135750506000910152565b7f4e487b7100000000000000000000000000000000000000000000000000000000600052604160045260246000fd5b6001600160a01b038116811461050957600080fdfe416464726573733a206c6f772d6c6576656c2064656c65676174652063616c6c206661696c6564a2646970667358221220381952b348294062b971a221e204b686109ebda704df549a27c83250b7e9553864736f6c63430008070033",
  "devdoc": {
    "kind": "dev",
    "methods": {
      "constructor": {
        "custom:oz-upgrades-unsafe-allow": "constructor"
      },
      "initialize(address,address,address)": {
        "params": {
          "_creator": "Creator of the target type smart contract",
          "_owner": "Who will become owner and able to upgrade the contract"
        }
      },
      "owner()": {
        "details": "Returns the address of the current owner."
      },
      "paused()": {
        "details": "Returns true if the contract is paused, and false otherwise."
      },
      "renounceOwnership()": {
        "details": "Leaves the contract without owner. It will not be possible to call `onlyOwner` functions anymore. Can only be called by the current owner. NOTE: Renouncing ownership will leave the contract without an owner, thereby removing any functionality that is only available to the owner."
      },
      "supportsInterface(bytes4)": {
        "details": "This ensures all target types conform to the same interface if they implement this function"
      },
      "transferOwnership(address)": {
        "details": "Transfers ownership of the contract to a new account (`newOwner`). Can only be called by the current owner."
      },
      "upgradeTo(address)": {
        "details": "Upgrade the implementation of the proxy to `newImplementation`. Calls {_authorizeUpgrade}. Emits an {Upgraded} event."
      },
      "upgradeToAndCall(address,bytes)": {
        "details": "Upgrade the implementation of the proxy to `newImplementation`, and subsequently execute the function call encoded in `data`. Calls {_authorizeUpgrade}. Emits an {Upgraded} event."
      }
    },
    "version": 1
  },
  "userdoc": {
    "kind": "user",
    "methods": {
      "creator()": {
        "notice": "Address that built the target type smart contract"
      },
      "ets()": {
        "notice": "Address and interface for ETS core"
      },
      "isTargetTypePaused()": {
        "notice": "Query if the target type has been paused"
      },
      "name()": {
        "notice": "Human readable name for the target type"
      },
      "supportsInterface(bytes4)": {
        "notice": "For clients querying via ERC165, we show support for ERC165 interface plus target type interface"
      },
      "tag(address,uint256,uint256,address,address,string,bool)": {
        "notice": "Entry point for a user to tag an EVM NFT which will call into ETS"
      },
      "toggleTargetTypePaused()": {
        "notice": "Allow owner to toggle pausing on and off"
      },
      "version()": {
        "notice": "Version of the target type contract"
      }
    },
    "version": 1
  },
  "storageLayout": {
    "storage": [
      {
        "astId": 950,
        "contract": "contracts/mocks/MockNftTagger.sol:MockNftTagger",
        "label": "_initialized",
        "offset": 0,
        "slot": "0",
        "type": "t_bool"
      },
      {
        "astId": 953,
        "contract": "contracts/mocks/MockNftTagger.sol:MockNftTagger",
        "label": "_initializing",
        "offset": 1,
        "slot": "0",
        "type": "t_bool"
      },
      {
        "astId": 2735,
        "contract": "contracts/mocks/MockNftTagger.sol:MockNftTagger",
        "label": "__gap",
        "offset": 0,
        "slot": "1",
        "type": "t_array(t_uint256)50_storage"
      },
      {
        "astId": 420,
        "contract": "contracts/mocks/MockNftTagger.sol:MockNftTagger",
        "label": "_owner",
        "offset": 0,
        "slot": "51",
        "type": "t_address"
      },
      {
        "astId": 534,
        "contract": "contracts/mocks/MockNftTagger.sol:MockNftTagger",
        "label": "__gap",
        "offset": 0,
        "slot": "52",
        "type": "t_array(t_uint256)49_storage"
      },
      {
        "astId": 932,
        "contract": "contracts/mocks/MockNftTagger.sol:MockNftTagger",
        "label": "__gap",
        "offset": 0,
        "slot": "101",
        "type": "t_array(t_uint256)50_storage"
      },
      {
        "astId": 1127,
        "contract": "contracts/mocks/MockNftTagger.sol:MockNftTagger",
        "label": "__gap",
        "offset": 0,
        "slot": "151",
        "type": "t_array(t_uint256)50_storage"
      },
      {
        "astId": 1149,
        "contract": "contracts/mocks/MockNftTagger.sol:MockNftTagger",
        "label": "_paused",
        "offset": 0,
        "slot": "201",
        "type": "t_bool"
      },
      {
        "astId": 1240,
        "contract": "contracts/mocks/MockNftTagger.sol:MockNftTagger",
        "label": "__gap",
        "offset": 0,
        "slot": "202",
        "type": "t_array(t_uint256)49_storage"
      },
      {
        "astId": 7337,
        "contract": "contracts/mocks/MockNftTagger.sol:MockNftTagger",
        "label": "creator",
        "offset": 0,
        "slot": "251",
        "type": "t_address_payable"
      },
      {
        "astId": 7341,
        "contract": "contracts/mocks/MockNftTagger.sol:MockNftTagger",
        "label": "ets",
        "offset": 0,
        "slot": "252",
        "type": "t_contract(IETS)7093"
      }
    ],
    "types": {
      "t_address": {
        "encoding": "inplace",
        "label": "address",
        "numberOfBytes": "20"
      },
      "t_address_payable": {
        "encoding": "inplace",
        "label": "address payable",
        "numberOfBytes": "20"
      },
      "t_array(t_uint256)49_storage": {
        "base": "t_uint256",
        "encoding": "inplace",
        "label": "uint256[49]",
        "numberOfBytes": "1568"
      },
      "t_array(t_uint256)50_storage": {
        "base": "t_uint256",
        "encoding": "inplace",
        "label": "uint256[50]",
        "numberOfBytes": "1600"
      },
      "t_bool": {
        "encoding": "inplace",
        "label": "bool",
        "numberOfBytes": "1"
      },
      "t_contract(IETS)7093": {
        "encoding": "inplace",
        "label": "contract IETS",
        "numberOfBytes": "20"
      },
      "t_uint256": {
        "encoding": "inplace",
        "label": "uint256",
        "numberOfBytes": "32"
      }
    }
  }
}