{
  "address": "0x4763975ee6675C50381e7044524C2a25D5fD5774",
  "abi": [
    {
      "inputs": [],
      "stateMutability": "nonpayable",
      "type": "constructor"
    },
    {
      "anonymous": false,
      "inputs": [
        {
          "indexed": false,
          "internalType": "address",
          "name": "newAccessControls",
          "type": "address"
        }
      ],
      "name": "AccessControlsSet",
      "type": "event"
    },
    {
      "anonymous": false,
      "inputs": [
        {
          "indexed": false,
          "internalType": "address",
          "name": "previousAdmin",
          "type": "address"
        },
        {
          "indexed": false,
          "internalType": "address",
          "name": "newAdmin",
          "type": "address"
        }
      ],
      "name": "AdminChanged",
      "type": "event"
    },
    {
      "anonymous": false,
      "inputs": [
        {
          "indexed": true,
          "internalType": "address",
          "name": "beacon",
          "type": "address"
        }
      ],
      "name": "BeaconUpgraded",
      "type": "event"
    },
    {
      "anonymous": false,
      "inputs": [
        {
          "indexed": true,
          "internalType": "address",
          "name": "who",
          "type": "address"
        },
        {
          "indexed": false,
          "internalType": "uint256",
          "name": "amount",
          "type": "uint256"
        }
      ],
      "name": "FundsWithdrawn",
      "type": "event"
    },
    {
      "anonymous": false,
      "inputs": [
        {
          "indexed": false,
          "internalType": "uint8",
          "name": "version",
          "type": "uint8"
        }
      ],
      "name": "Initialized",
      "type": "event"
    },
    {
      "anonymous": false,
      "inputs": [
        {
          "indexed": false,
          "internalType": "uint256",
          "name": "platformPercentage",
          "type": "uint256"
        },
        {
          "indexed": false,
          "internalType": "uint256",
          "name": "relayerPercentage",
          "type": "uint256"
        }
      ],
      "name": "PercentagesSet",
      "type": "event"
    },
    {
      "anonymous": false,
      "inputs": [
        {
          "indexed": false,
          "internalType": "uint256",
          "name": "newTaggingFee",
          "type": "uint256"
        }
      ],
      "name": "TaggingFeeSet",
      "type": "event"
    },
    {
      "anonymous": false,
      "inputs": [
        {
          "indexed": false,
          "internalType": "uint256",
          "name": "taggingRecordId",
          "type": "uint256"
        }
      ],
      "name": "TaggingRecordCreated",
      "type": "event"
    },
    {
      "anonymous": false,
      "inputs": [
        {
          "indexed": false,
          "internalType": "uint256",
          "name": "taggingRecordId",
          "type": "uint256"
        },
        {
          "indexed": false,
          "internalType": "enum IETS.TaggingAction",
          "name": "action",
          "type": "uint8"
        }
      ],
      "name": "TaggingRecordUpdated",
      "type": "event"
    },
    {
      "anonymous": false,
      "inputs": [
        {
          "indexed": true,
          "internalType": "address",
          "name": "implementation",
          "type": "address"
        }
      ],
      "name": "Upgraded",
      "type": "event"
    },
    {
      "inputs": [],
      "name": "MODULO",
      "outputs": [
        {
          "internalType": "uint256",
          "name": "",
          "type": "uint256"
        }
      ],
      "stateMutability": "view",
      "type": "function"
    },
    {
      "inputs": [],
      "name": "NAME",
      "outputs": [
        {
          "internalType": "string",
          "name": "",
          "type": "string"
        }
      ],
      "stateMutability": "view",
      "type": "function"
    },
    {
      "inputs": [
        {
          "internalType": "address",
          "name": "",
          "type": "address"
        }
      ],
      "name": "accrued",
      "outputs": [
        {
          "internalType": "uint256",
          "name": "",
          "type": "uint256"
        }
      ],
      "stateMutability": "view",
      "type": "function"
    },
    {
      "inputs": [
        {
          "internalType": "uint256",
          "name": "_taggingRecordId",
          "type": "uint256"
        },
        {
          "internalType": "uint256[]",
          "name": "_tagIds",
          "type": "uint256[]"
        }
      ],
      "name": "appendTags",
      "outputs": [],
      "stateMutability": "payable",
      "type": "function"
    },
    {
      "inputs": [
        {
          "internalType": "uint256[]",
          "name": "_tagIds",
          "type": "uint256[]"
        },
        {
          "internalType": "uint256",
          "name": "_targetId",
          "type": "uint256"
        },
        {
          "internalType": "string",
          "name": "_recordType",
          "type": "string"
        },
        {
          "internalType": "address payable",
          "name": "_tagger",
          "type": "address"
        }
      ],
      "name": "applyTagsWithCompositeKey",
      "outputs": [],
      "stateMutability": "payable",
      "type": "function"
    },
    {
      "inputs": [
        {
          "components": [
            {
              "internalType": "string",
              "name": "targetURI",
              "type": "string"
            },
            {
              "internalType": "string[]",
              "name": "tagStrings",
              "type": "string[]"
            },
            {
              "internalType": "string",
              "name": "recordType",
              "type": "string"
            }
          ],
          "internalType": "struct IETS.TaggingRecordRawInput",
          "name": "_rawInput",
          "type": "tuple"
        },
        {
          "internalType": "address payable",
          "name": "_tagger",
          "type": "address"
        }
      ],
      "name": "applyTagsWithRawInput",
      "outputs": [],
      "stateMutability": "payable",
      "type": "function"
    },
    {
      "inputs": [
        {
          "internalType": "uint256",
          "name": "_taggingRecordId",
          "type": "uint256"
        },
        {
          "internalType": "uint256[]",
          "name": "_tagIds",
          "type": "uint256[]"
        },
        {
          "internalType": "enum IETS.TaggingAction",
          "name": "_action",
          "type": "uint8"
        }
      ],
      "name": "computeTaggingFee",
      "outputs": [
        {
          "internalType": "uint256",
          "name": "fee",
          "type": "uint256"
        },
        {
          "internalType": "uint256",
          "name": "tagCount",
          "type": "uint256"
        }
      ],
      "stateMutability": "view",
      "type": "function"
    },
    {
      "inputs": [
        {
          "internalType": "uint256[]",
          "name": "_tagIds",
          "type": "uint256[]"
        },
        {
          "internalType": "uint256",
          "name": "_targetId",
          "type": "uint256"
        },
        {
          "internalType": "string",
          "name": "_recordType",
          "type": "string"
        },
        {
          "internalType": "address",
          "name": "_relayer",
          "type": "address"
        },
        {
          "internalType": "address",
          "name": "_tagger",
          "type": "address"
        },
        {
          "internalType": "enum IETS.TaggingAction",
          "name": "_action",
          "type": "uint8"
        }
      ],
      "name": "computeTaggingFeeFromCompositeKey",
      "outputs": [
        {
          "internalType": "uint256",
          "name": "fee",
          "type": "uint256"
        },
        {
          "internalType": "uint256",
          "name": "tagCount",
          "type": "uint256"
        }
      ],
      "stateMutability": "view",
      "type": "function"
    },
    {
      "inputs": [
        {
          "components": [
            {
              "internalType": "string",
              "name": "targetURI",
              "type": "string"
            },
            {
              "internalType": "string[]",
              "name": "tagStrings",
              "type": "string[]"
            },
            {
              "internalType": "string",
              "name": "recordType",
              "type": "string"
            }
          ],
          "internalType": "struct IETS.TaggingRecordRawInput",
          "name": "_rawInput",
          "type": "tuple"
        },
        {
          "internalType": "address",
          "name": "_relayer",
          "type": "address"
        },
        {
          "internalType": "address",
          "name": "_tagger",
          "type": "address"
        },
        {
          "internalType": "enum IETS.TaggingAction",
          "name": "_action",
          "type": "uint8"
        }
      ],
      "name": "computeTaggingFeeFromRawInput",
      "outputs": [
        {
          "internalType": "uint256",
          "name": "fee",
          "type": "uint256"
        },
        {
          "internalType": "uint256",
          "name": "tagCount",
          "type": "uint256"
        }
      ],
      "stateMutability": "view",
      "type": "function"
    },
    {
      "inputs": [
        {
          "internalType": "uint256",
          "name": "_targetId",
          "type": "uint256"
        },
        {
          "internalType": "string",
          "name": "_recordType",
          "type": "string"
        },
        {
          "internalType": "address",
          "name": "_relayer",
          "type": "address"
        },
        {
          "internalType": "address",
          "name": "_tagger",
          "type": "address"
        }
      ],
      "name": "computeTaggingRecordIdFromCompositeKey",
      "outputs": [
        {
          "internalType": "uint256",
          "name": "taggingRecordId",
          "type": "uint256"
        }
      ],
      "stateMutability": "pure",
      "type": "function"
    },
    {
      "inputs": [
        {
          "components": [
            {
              "internalType": "string",
              "name": "targetURI",
              "type": "string"
            },
            {
              "internalType": "string[]",
              "name": "tagStrings",
              "type": "string[]"
            },
            {
              "internalType": "string",
              "name": "recordType",
              "type": "string"
            }
          ],
          "internalType": "struct IETS.TaggingRecordRawInput",
          "name": "_rawInput",
          "type": "tuple"
        },
        {
          "internalType": "address",
          "name": "_relayer",
          "type": "address"
        },
        {
          "internalType": "address",
          "name": "_tagger",
          "type": "address"
        }
      ],
      "name": "computeTaggingRecordIdFromRawInput",
      "outputs": [
        {
          "internalType": "uint256",
          "name": "taggingRecordId",
          "type": "uint256"
        }
      ],
      "stateMutability": "view",
      "type": "function"
    },
    {
      "inputs": [
        {
          "internalType": "string",
          "name": "_tag",
          "type": "string"
        },
        {
          "internalType": "address payable",
          "name": "_creator",
          "type": "address"
        }
      ],
      "name": "createTag",
      "outputs": [
        {
          "internalType": "uint256",
          "name": "_tokenId",
          "type": "uint256"
        }
      ],
      "stateMutability": "payable",
      "type": "function"
    },
    {
      "inputs": [
        {
          "internalType": "uint256[]",
          "name": "_tagIds",
          "type": "uint256[]"
        },
        {
          "internalType": "uint256",
          "name": "_targetId",
          "type": "uint256"
        },
        {
          "internalType": "string",
          "name": "_recordType",
          "type": "string"
        },
        {
          "internalType": "address",
          "name": "_tagger",
          "type": "address"
        }
      ],
      "name": "createTaggingRecord",
      "outputs": [],
      "stateMutability": "payable",
      "type": "function"
    },
    {
      "inputs": [
        {
          "internalType": "address payable",
          "name": "_account",
          "type": "address"
        }
      ],
      "name": "drawDown",
      "outputs": [],
      "stateMutability": "nonpayable",
      "type": "function"
    },
    {
      "inputs": [],
      "name": "etsAccessControls",
      "outputs": [
        {
          "internalType": "contract IETSAccessControls",
          "name": "",
          "type": "address"
        }
      ],
      "stateMutability": "view",
      "type": "function"
    },
    {
      "inputs": [],
      "name": "etsTarget",
      "outputs": [
        {
          "internalType": "contract IETSTarget",
          "name": "",
          "type": "address"
        }
      ],
      "stateMutability": "view",
      "type": "function"
    },
    {
      "inputs": [],
      "name": "etsToken",
      "outputs": [
        {
          "internalType": "contract IETSToken",
          "name": "",
          "type": "address"
        }
      ],
      "stateMutability": "view",
      "type": "function"
    },
    {
      "inputs": [
        {
          "internalType": "string",
          "name": "_tag",
          "type": "string"
        },
        {
          "internalType": "address payable",
          "name": "_creator",
          "type": "address"
        }
      ],
      "name": "getOrCreateTagId",
      "outputs": [
        {
          "internalType": "uint256",
          "name": "tokenId",
          "type": "uint256"
        }
      ],
      "stateMutability": "payable",
      "type": "function"
    },
    {
      "inputs": [
        {
          "internalType": "uint256",
          "name": "_targetId",
          "type": "uint256"
        },
        {
          "internalType": "string",
          "name": "_recordType",
          "type": "string"
        },
        {
          "internalType": "address",
          "name": "_relayer",
          "type": "address"
        },
        {
          "internalType": "address",
          "name": "_tagger",
          "type": "address"
        }
      ],
      "name": "getTaggingRecordFromCompositeKey",
      "outputs": [
        {
          "internalType": "uint256[]",
          "name": "tagIds",
          "type": "uint256[]"
        },
        {
          "internalType": "uint256",
          "name": "targetId",
          "type": "uint256"
        },
        {
          "internalType": "string",
          "name": "recordType",
          "type": "string"
        },
        {
          "internalType": "address",
          "name": "relayer",
          "type": "address"
        },
        {
          "internalType": "address",
          "name": "tagger",
          "type": "address"
        }
      ],
      "stateMutability": "view",
      "type": "function"
    },
    {
      "inputs": [
        {
          "internalType": "uint256",
          "name": "_id",
          "type": "uint256"
        }
      ],
      "name": "getTaggingRecordFromId",
      "outputs": [
        {
          "internalType": "uint256[]",
          "name": "tagIds",
          "type": "uint256[]"
        },
        {
          "internalType": "uint256",
          "name": "targetId",
          "type": "uint256"
        },
        {
          "internalType": "string",
          "name": "recordType",
          "type": "string"
        },
        {
          "internalType": "address",
          "name": "relayer",
          "type": "address"
        },
        {
          "internalType": "address",
          "name": "tagger",
          "type": "address"
        }
      ],
      "stateMutability": "view",
      "type": "function"
    },
    {
      "inputs": [
        {
          "components": [
            {
              "internalType": "string",
              "name": "targetURI",
              "type": "string"
            },
            {
              "internalType": "string[]",
              "name": "tagStrings",
              "type": "string[]"
            },
            {
              "internalType": "string",
              "name": "recordType",
              "type": "string"
            }
          ],
          "internalType": "struct IETS.TaggingRecordRawInput",
          "name": "_rawInput",
          "type": "tuple"
        },
        {
          "internalType": "address",
          "name": "_relayer",
          "type": "address"
        },
        {
          "internalType": "address",
          "name": "_tagger",
          "type": "address"
        }
      ],
      "name": "getTaggingRecordFromRawInput",
      "outputs": [
        {
          "internalType": "uint256[]",
          "name": "tagIds",
          "type": "uint256[]"
        },
        {
          "internalType": "uint256",
          "name": "targetId",
          "type": "uint256"
        },
        {
          "internalType": "string",
          "name": "recordType",
          "type": "string"
        },
        {
          "internalType": "address",
          "name": "relayer",
          "type": "address"
        },
        {
          "internalType": "address",
          "name": "tagger",
          "type": "address"
        }
      ],
      "stateMutability": "view",
      "type": "function"
    },
    {
      "inputs": [
        {
          "internalType": "contract IETSAccessControls",
          "name": "_etsAccessControls",
          "type": "address"
        },
        {
          "internalType": "contract IETSToken",
          "name": "_etsToken",
          "type": "address"
        },
        {
          "internalType": "contract IETSTarget",
          "name": "_etsTarget",
          "type": "address"
        },
        {
          "internalType": "uint256",
          "name": "_taggingFee",
          "type": "uint256"
        },
        {
          "internalType": "uint256",
          "name": "_platformPercentage",
          "type": "uint256"
        },
        {
          "internalType": "uint256",
          "name": "_relayerPercentage",
          "type": "uint256"
        }
      ],
      "name": "initialize",
      "outputs": [],
      "stateMutability": "nonpayable",
      "type": "function"
    },
    {
      "inputs": [
        {
          "internalType": "address",
          "name": "",
          "type": "address"
        }
      ],
      "name": "paid",
      "outputs": [
        {
          "internalType": "uint256",
          "name": "",
          "type": "uint256"
        }
      ],
      "stateMutability": "view",
      "type": "function"
    },
    {
      "inputs": [],
      "name": "platformPercentage",
      "outputs": [
        {
          "internalType": "uint256",
          "name": "",
          "type": "uint256"
        }
      ],
      "stateMutability": "view",
      "type": "function"
    },
    {
      "inputs": [],
      "name": "proxiableUUID",
      "outputs": [
        {
          "internalType": "bytes32",
          "name": "",
          "type": "bytes32"
        }
      ],
      "stateMutability": "view",
      "type": "function"
    },
    {
      "inputs": [],
      "name": "relayerPercentage",
      "outputs": [
        {
          "internalType": "uint256",
          "name": "",
          "type": "uint256"
        }
      ],
      "stateMutability": "view",
      "type": "function"
    },
    {
      "inputs": [
        {
          "internalType": "uint256",
          "name": "_taggingRecordId",
          "type": "uint256"
        },
        {
          "internalType": "uint256[]",
          "name": "_tagIds",
          "type": "uint256[]"
        }
      ],
      "name": "removeTags",
      "outputs": [],
      "stateMutability": "nonpayable",
      "type": "function"
    },
    {
      "inputs": [
        {
          "internalType": "uint256[]",
          "name": "_tagIds",
          "type": "uint256[]"
        },
        {
          "internalType": "uint256",
          "name": "_targetId",
          "type": "uint256"
        },
        {
          "internalType": "string",
          "name": "_recordType",
          "type": "string"
        },
        {
          "internalType": "address payable",
          "name": "_tagger",
          "type": "address"
        }
      ],
      "name": "removeTagsWithCompositeKey",
      "outputs": [],
      "stateMutability": "nonpayable",
      "type": "function"
    },
    {
      "inputs": [
        {
          "components": [
            {
              "internalType": "string",
              "name": "targetURI",
              "type": "string"
            },
            {
              "internalType": "string[]",
              "name": "tagStrings",
              "type": "string[]"
            },
            {
              "internalType": "string",
              "name": "recordType",
              "type": "string"
            }
          ],
          "internalType": "struct IETS.TaggingRecordRawInput",
          "name": "_rawInput",
          "type": "tuple"
        },
        {
          "internalType": "address",
          "name": "_tagger",
          "type": "address"
        }
      ],
      "name": "removeTagsWithRawInput",
      "outputs": [],
      "stateMutability": "nonpayable",
      "type": "function"
    },
    {
      "inputs": [
        {
          "internalType": "uint256",
          "name": "_taggingRecordId",
          "type": "uint256"
        },
        {
          "internalType": "uint256[]",
          "name": "_tagIds",
          "type": "uint256[]"
        }
      ],
      "name": "replaceTags",
      "outputs": [],
      "stateMutability": "payable",
      "type": "function"
    },
    {
      "inputs": [
        {
          "internalType": "uint256[]",
          "name": "_tagIds",
          "type": "uint256[]"
        },
        {
          "internalType": "uint256",
          "name": "_targetId",
          "type": "uint256"
        },
        {
          "internalType": "string",
          "name": "_recordType",
          "type": "string"
        },
        {
          "internalType": "address payable",
          "name": "_tagger",
          "type": "address"
        }
      ],
      "name": "replaceTagsWithCompositeKey",
      "outputs": [],
      "stateMutability": "payable",
      "type": "function"
    },
    {
      "inputs": [
        {
          "components": [
            {
              "internalType": "string",
              "name": "targetURI",
              "type": "string"
            },
            {
              "internalType": "string[]",
              "name": "tagStrings",
              "type": "string[]"
            },
            {
              "internalType": "string",
              "name": "recordType",
              "type": "string"
            }
          ],
          "internalType": "struct IETS.TaggingRecordRawInput",
          "name": "_rawInput",
          "type": "tuple"
        },
        {
          "internalType": "address payable",
          "name": "_tagger",
          "type": "address"
        }
      ],
      "name": "replaceTagsWithRawInput",
      "outputs": [],
      "stateMutability": "payable",
      "type": "function"
    },
    {
      "inputs": [
        {
          "internalType": "contract IETSAccessControls",
          "name": "_accessControls",
          "type": "address"
        }
      ],
      "name": "setAccessControls",
      "outputs": [],
      "stateMutability": "nonpayable",
      "type": "function"
    },
    {
      "inputs": [
        {
          "internalType": "uint256",
          "name": "_platformPercentage",
          "type": "uint256"
        },
        {
          "internalType": "uint256",
          "name": "_relayerPercentage",
          "type": "uint256"
        }
      ],
      "name": "setPercentages",
      "outputs": [],
      "stateMutability": "nonpayable",
      "type": "function"
    },
    {
      "inputs": [
        {
          "internalType": "uint256",
          "name": "_fee",
          "type": "uint256"
        }
      ],
      "name": "setTaggingFee",
      "outputs": [],
      "stateMutability": "nonpayable",
      "type": "function"
    },
    {
      "inputs": [],
      "name": "taggingFee",
      "outputs": [
        {
          "internalType": "uint256",
          "name": "",
          "type": "uint256"
        }
      ],
      "stateMutability": "view",
      "type": "function"
    },
    {
      "inputs": [
        {
          "internalType": "uint256",
          "name": "_taggingRecordId",
          "type": "uint256"
        }
      ],
      "name": "taggingRecordExists",
      "outputs": [
        {
          "internalType": "bool",
          "name": "",
          "type": "bool"
        }
      ],
      "stateMutability": "view",
      "type": "function"
    },
    {
      "inputs": [
        {
          "internalType": "uint256",
          "name": "_targetId",
          "type": "uint256"
        },
        {
          "internalType": "string",
          "name": "_recordType",
          "type": "string"
        },
        {
          "internalType": "address",
          "name": "_relayer",
          "type": "address"
        },
        {
          "internalType": "address",
          "name": "_tagger",
          "type": "address"
        }
      ],
      "name": "taggingRecordExistsByCompositeKey",
      "outputs": [
        {
          "internalType": "bool",
          "name": "",
          "type": "bool"
        }
      ],
      "stateMutability": "view",
      "type": "function"
    },
    {
      "inputs": [
        {
          "components": [
            {
              "internalType": "string",
              "name": "targetURI",
              "type": "string"
            },
            {
              "internalType": "string[]",
              "name": "tagStrings",
              "type": "string[]"
            },
            {
              "internalType": "string",
              "name": "recordType",
              "type": "string"
            }
          ],
          "internalType": "struct IETS.TaggingRecordRawInput",
          "name": "_rawInput",
          "type": "tuple"
        },
        {
          "internalType": "address",
          "name": "_relayer",
          "type": "address"
        },
        {
          "internalType": "address",
          "name": "_tagger",
          "type": "address"
        }
      ],
      "name": "taggingRecordExistsByRawInput",
      "outputs": [
        {
          "internalType": "bool",
          "name": "",
          "type": "bool"
        }
      ],
      "stateMutability": "view",
      "type": "function"
    },
    {
      "inputs": [
        {
          "internalType": "uint256",
          "name": "",
          "type": "uint256"
        }
      ],
      "name": "taggingRecords",
      "outputs": [
        {
          "internalType": "uint256",
          "name": "targetId",
          "type": "uint256"
        },
        {
          "internalType": "string",
          "name": "recordType",
          "type": "string"
        },
        {
          "internalType": "address",
          "name": "relayer",
          "type": "address"
        },
        {
          "internalType": "address",
          "name": "tagger",
          "type": "address"
        }
      ],
      "stateMutability": "view",
      "type": "function"
    },
    {
      "inputs": [
        {
          "internalType": "address",
          "name": "_account",
          "type": "address"
        }
      ],
      "name": "totalDue",
      "outputs": [
        {
          "internalType": "uint256",
          "name": "_due",
          "type": "uint256"
        }
      ],
      "stateMutability": "view",
      "type": "function"
    },
    {
      "inputs": [
        {
          "internalType": "address",
          "name": "newImplementation",
          "type": "address"
        }
      ],
      "name": "upgradeTo",
      "outputs": [],
      "stateMutability": "nonpayable",
      "type": "function"
    },
    {
      "inputs": [
        {
          "internalType": "address",
          "name": "newImplementation",
          "type": "address"
        },
        {
          "internalType": "bytes",
          "name": "data",
          "type": "bytes"
        }
      ],
      "name": "upgradeToAndCall",
      "outputs": [],
      "stateMutability": "payable",
      "type": "function"
    }
  ],
  "numDeployments": 4,
  "solcInputHash": "710b44bae61f938bdd6d1ab689c07430",
  "bytecode": "0x60a0604052306080523480156200001557600080fd5b506200002062000026565b620000e7565b600054610100900460ff1615620000935760405162461bcd60e51b815260206004820152602760248201527f496e697469616c697a61626c653a20636f6e747261637420697320696e697469604482015266616c697a696e6760c81b606482015260840160405180910390fd5b60005460ff90811614620000e5576000805460ff191660ff9081179091556040519081527f7f26b83ff96e1f2b6a682f133852f6798a09c465da95921460cefb38474024989060200160405180910390a15b565b608051614fd66200011f60003960008181610e9c01528181610f21015281816112af01528181611334015261147b0152614fd66000f3fe6080604052600436106102dc5760003560e01c8063728cdbca11610184578063a3f4df7e116100d6578063c20620051161008a578063ea552bc111610064578063ea552bc1146107f8578063f79fa98814610818578063fe52656f1461083857600080fd5b8063c2062005146107a5578063c38f3037146107c5578063cd15832f146107d857600080fd5b8063a8586f7b116100bb578063a8586f7b14610743578063b148440f14610758578063bd2ec8c51461078557600080fd5b8063a3f4df7e146106cd578063a53d30a41461072357600080fd5b80638633899c11610138578063a27eee3c11610112578063a27eee3c1461066d578063a33def1514610680578063a340cf79146106a057600080fd5b80638633899c1461060d578063962ed2321461062d578063a0e0da181461064d57600080fd5b80637e2babd0116101695780637e2babd0146105ba5780638299f9f9146105da5780638361d140146105fa57600080fd5b8063728cdbca1461056a57806374716c811461058a57600080fd5b80633f9fc5821161023d57806352d1902d116101f15780635bb0b13b116101cb5780635bb0b13b1461051357806368fd4dee1461052657806370a306f71461055757600080fd5b806352d1902d146104cb57806354b4d676146104e057806356c63489146104f357600080fd5b806346ca0f4d1161022257806346ca0f4d146104605780634f1ef2861461049857806350064ea4146104ab57600080fd5b80633f9fc5821461042d57806346444c091461044d57600080fd5b806318fc477611610294578063249f3eec11610279578063249f3eec146103c25780632a1e1ee1146103f75780633659cfe61461040d57600080fd5b806318fc47761461037c5780631f741897146103ac57600080fd5b806306d05ed2116102c557806306d05ed2146103095780630ad2f0c31461033c5780631632a9bc1461035c57600080fd5b806301f1e2d8146102e15780630410ca9f146102f6575b600080fd5b6102f46102ef3660046140fc565b61084e565b005b6102f4610304366004614270565b610a32565b34801561031557600080fd5b50610329610324366004614338565b610c11565b6040519081526020015b60405180910390f35b34801561034857600080fd5b506103296103573660046143a4565b610c4b565b34801561036857600080fd5b506103296103773660046144c5565b610c7f565b34801561038857600080fd5b5061039c610397366004614529565b610d0d565b6040519015158152602001610333565b3480156103b857600080fd5b5061032960cd5481565b3480156103ce57600080fd5b506103e26103dd366004614551565b610d32565b60408051928352602083019190915201610333565b34801561040357600080fd5b5061032960ce5481565b34801561041957600080fd5b506102f46104283660046143a4565b610e91565b34801561043957600080fd5b506102f46104483660046145c4565b61100d565b6102f461045b366004614270565b611056565b34801561046c57600080fd5b5060ca54610480906001600160a01b031681565b6040516001600160a01b039091168152602001610333565b6102f46104a6366004614676565b6112a4565b3480156104b757600080fd5b506103e26104c6366004614712565b61140d565b3480156104d757600080fd5b5061032961146e565b6103296104ee3660046147bb565b611533565b3480156104ff57600080fd5b5060cb54610480906001600160a01b031681565b6102f46105213660046145c4565b61167b565b34801561053257600080fd5b50610546610541366004614529565b6116c2565b60405161033395949392919061485f565b6102f46105653660046140fc565b6117f2565b34801561057657600080fd5b506102f46105853660046148d9565b6118ef565b34801561059657600080fd5b506105aa6105a5366004614529565b611a6b565b604051610333949392919061493e565b3480156105c657600080fd5b506102f46105d53660046140fc565b611b2c565b3480156105e657600080fd5b5060c954610480906001600160a01b031681565b6102f4610608366004614978565b611c72565b34801561061957600080fd5b506105466106283660046144c5565b611d2c565b34801561063957600080fd5b506102f4610648366004614529565b611e38565b34801561065957600080fd5b506102f4610668366004614270565b611f3a565b61032961067b3660046147bb565b612101565b34801561068c57600080fd5b5061054661069b366004614338565b612236565b3480156106ac57600080fd5b506103296106bb3660046143a4565b60d06020526000908152604090205481565b3480156106d957600080fd5b506107166040518060400160405280600881526020017f45545320436f726500000000000000000000000000000000000000000000000081525081565b6040516103339190614a00565b34801561072f57600080fd5b506103e261073e366004614a13565b6122c7565b34801561074f57600080fd5b50610329606481565b34801561076457600080fd5b506103296107733660046143a4565b60cf6020526000908152604090205481565b34801561079157600080fd5b506102f46107a0366004614a6a565b61256e565b3480156107b157600080fd5b506102f46107c03660046143a4565b6126d6565b6102f46107d3366004614978565b612823565b3480156107e457600080fd5b506102f46107f33660046143a4565b612b71565b34801561080457600080fd5b5061039c6108133660046144c5565b612dac565b34801561082457600080fd5b5061039c610833366004614338565b612e34565b34801561084457600080fd5b5061032960cc5481565b600061085d6020840184614a8c565b915050806108a55760405162461bcd60e51b815260206004820152601060248201526f139bc81d1859dcc81cdd5c1c1b1a595960821b60448201526064015b60405180910390fd5b60008167ffffffffffffffff8111156108c0576108c061414e565b6040519080825280602002602001820160405280156108e9578160200160208202803683370190505b50905060005b8281101561095c5761092f6109076020870187614a8c565b8381811061091757610917614ad6565b90506020028101906109299190614aec565b86612101565b82828151811061094157610941614ad6565b602090810291909101015261095581614b49565b90506108ef565b50600061097261096b86614b64565b3386610c7f565b905061097d81610d0d565b156109915761098c8183610a32565b610a2b565b60cb546000906001600160a01b031663cf99c8156109af8880614aec565b6040518363ffffffff1660e01b81526004016109cc929190614b99565b6020604051808303816000875af11580156109eb573d6000803e3d6000fd5b505050506040513d601f19601f82011682018060405250810190610a0f9190614bad565b9050610a298382610a2360408a018a614aec565b89612823565b505b5050505050565b610a3a612e54565b600082815260d1602052604090206003015482906001600160a01b031633148015610ada575060c9546001600160a01b031663541d5548336040516001600160e01b031960e084901b1681526001600160a01b039091166004820152602401602060405180830381865afa158015610ab6573d6000803e3d6000fd5b505050506040513d601f19601f82011682018060405250810190610ada9190614bd6565b80610afe5750600081815260d160205260409020600401546001600160a01b031633145b610b3b5760405162461bcd60e51b815260206004820152600e60248201526d139bdd08185d5d1a1bdc9a5e995960921b604482015260640161089c565b6000825111610b7f5760405162461bcd60e51b815260206004820152601060248201526f139bc81d1859dcc81cdd5c1c1b1a595960821b604482015260640161089c565b600083815260d160209081526040918290208054835181840281018401909452808452610be593869390929190830182828015610bdb57602002820191906000526020600020905b815481526020019060010190808311610bc7575b5050505050612eae565b805190925015610c0257610bf88261304e565b610c028383613173565b50610c0d6001603355565b5050565b600084848484604051602001610c2a9493929190614bf1565b60408051601f19818403018152919052805160209091012095945050505050565b6001600160a01b038116600090815260d0602090815260408083205460cf909252822054610c799190614c3e565b92915050565b60cb5483516040516323c7e9f360e01b8152600092610d03926001600160a01b03909116916323c7e9f391610cb691600401614a00565b602060405180830381865afa158015610cd3573d6000803e3d6000fd5b505050506040513d601f19601f82011682018060405250810190610cf79190614bad565b85604001518585610c11565b90505b9392505050565b600081815260d16020526040812060010154610d2a576000610c79565b600192915050565b60008080610d436020880188614a8c565b9050905060008167ffffffffffffffff811115610d6257610d6261414e565b604051908082528060200260200182016040528015610d8b578160200160208202803683370190505b50905060005b82811015610e645760ca546001600160a01b031663f143fc61610db760208c018c614a8c565b84818110610dc757610dc7614ad6565b9050602002810190610dd99190614aec565b6040518363ffffffff1660e01b8152600401610df6929190614b99565b602060405180830381865afa158015610e13573d6000803e3d6000fd5b505050506040513d601f19601f82011682018060405250810190610e379190614bad565b828281518110610e4957610e49614ad6565b6020908102919091010152610e5d81614b49565b9050610d91565b50610e82610e7b610e748a614b64565b8989610c7f565b82876122c7565b93509350505094509492505050565b306001600160a01b037f0000000000000000000000000000000000000000000000000000000000000000161415610f1f5760405162461bcd60e51b815260206004820152602c60248201527f46756e6374696f6e206d7573742062652063616c6c6564207468726f7567682060448201526b19195b1959d85d1958d85b1b60a21b606482015260840161089c565b7f00000000000000000000000000000000000000000000000000000000000000006001600160a01b0316610f7a7f360894a13ba1a3210667c828492db98dca3e2076cc3735a920a3ca505d382bbc546001600160a01b031690565b6001600160a01b031614610fe55760405162461bcd60e51b815260206004820152602c60248201527f46756e6374696f6e206d7573742062652063616c6c6564207468726f7567682060448201526b6163746976652070726f787960a01b606482015260840161089c565b610fee8161322b565b6040805160008082526020820190925261100a918391906132f1565b50565b610a2b61101d8484335b85610c11565b868680806020026020016040519081016040528093929190818152602001838360200280828437600092019190915250611f3a92505050565b61105e612e54565b600082815260d1602052604090206003015482906001600160a01b0316331480156110fe575060c9546001600160a01b031663541d5548336040516001600160e01b031960e084901b1681526001600160a01b039091166004820152602401602060405180830381865afa1580156110da573d6000803e3d6000fd5b505050506040513d601f19601f820116820180604052508101906110fe9190614bd6565b806111225750600081815260d160205260409020600401546001600160a01b031633145b61115f5760405162461bcd60e51b815260206004820152600e60248201526d139bdd08185d5d1a1bdc9a5e995960921b604482015260640161089c565b60008251116111a35760405162461bcd60e51b815260206004820152601060248201526f139bc81d1859dcc81cdd5c1c1b1a595960821b604482015260640161089c565b600083815260d1602090815260408083208054825181850281018501909352808352611203938301828280156111f857602002820191906000526020600020905b8154815260200190600101908083116111e4575b505050505084612eae565b805190915015611217576112178482613491565b600084815260d16020908152604091829020805483518184028101840190945280845261127b93879390929190830182828015610bdb5760200282019190600052602060002090815481526020019060010190808311610bc7575050505050612eae565b8051909350156112985761128e8361304e565b6112988484613173565b5050610c0d6001603355565b306001600160a01b037f00000000000000000000000000000000000000000000000000000000000000001614156113325760405162461bcd60e51b815260206004820152602c60248201527f46756e6374696f6e206d7573742062652063616c6c6564207468726f7567682060448201526b19195b1959d85d1958d85b1b60a21b606482015260840161089c565b7f00000000000000000000000000000000000000000000000000000000000000006001600160a01b031661138d7f360894a13ba1a3210667c828492db98dca3e2076cc3735a920a3ca505d382bbc546001600160a01b031690565b6001600160a01b0316146113f85760405162461bcd60e51b815260206004820152602c60248201527f46756e6374696f6e206d7573742062652063616c6c6564207468726f7567682060448201526b6163746976652070726f787960a01b606482015260840161089c565b6114018261322b565b610c0d828260016132f1565b60008061145e6114578989898080601f0160208091040260200160405190810160405280939291908181526020018383808284376000920191909152508b92508a9150610c119050565b8a856122c7565b9150915097509795505050505050565b6000306001600160a01b037f0000000000000000000000000000000000000000000000000000000000000000161461150e5760405162461bcd60e51b815260206004820152603860248201527f555550535570677261646561626c653a206d757374206e6f742062652063616c60448201527f6c6564207468726f7567682064656c656761746563616c6c0000000000000000606482015260840161089c565b507f360894a13ba1a3210667c828492db98dca3e2076cc3735a920a3ca505d382bbc90565b600061153d612e54565b60c9546001600160a01b031663541d5548336040516001600160e01b031960e084901b1681526001600160a01b039091166004820152602401602060405180830381865afa158015611593573d6000803e3d6000fd5b505050506040513d601f19601f820116820180604052508101906115b79190614bd6565b6115f85760405162461bcd60e51b815260206004820152601260248201527121b0b63632b9103737ba102932b630bcb2b960711b604482015260640161089c565b60ca546001600160a01b031663a675f1e3858533866040518563ffffffff1660e01b815260040161162c9493929190614c55565b6020604051808303816000875af115801561164b573d6000803e3d6000fd5b505050506040513d601f19601f8201168201806040525081019061166f9190614bad565b9050610d066001603355565b610a2b611689848433611017565b86868080602002602001604051908101604052809392919081815260200183836020028082843760009201919091525061105692505050565b600081815260d16020908152604080832060018101546003820154600483015483548551818802810188019096528086526060979688968896879690958695919460028701946001600160a01b0392831694929093169287919083018282801561174b57602002820191906000526020600020905b815481526020019060010190808311611737575b5050505050945082805461175e90614c8a565b80601f016020809104026020016040519081016040528092919081815260200182805461178a90614c8a565b80156117d75780601f106117ac576101008083540402835291602001916117d7565b820191906000526020600020905b8154815290600101906020018083116117ba57829003601f168201915b50505050509250955095509550955095505091939590929450565b60006118016020840184614a8c565b915050806118445760405162461bcd60e51b815260206004820152601060248201526f139bc81d1859dcc81cdd5c1c1b1a595960821b604482015260640161089c565b60008167ffffffffffffffff81111561185f5761185f61414e565b604051908082528060200260200182016040528015611888578160200160208202803683370190505b50905060005b828110156118d3576118a66109076020870187614a8c565b8282815181106118b8576118b8614ad6565b60209081029190910101526118cc81614b49565b905061188e565b506118e96118e361096b86614b64565b82611056565b50505050565b600054610100900460ff161580801561190f5750600054600160ff909116105b806119295750303b158015611929575060005460ff166001145b61199b5760405162461bcd60e51b815260206004820152602e60248201527f496e697469616c697a61626c653a20636f6e747261637420697320616c72656160448201527f647920696e697469616c697a6564000000000000000000000000000000000000606482015260840161089c565b6000805460ff1916600117905580156119be576000805461ff0019166101001790555b60c980546001600160a01b03808a1673ffffffffffffffffffffffffffffffffffffffff199283161790925560ca805489841690831617905560cb805492881692909116919091179055611a1184611e38565b611a1b838361256e565b8015611a62576000805461ff0019169055604051600181527f7f26b83ff96e1f2b6a682f133852f6798a09c465da95921460cefb3847402498906020015b60405180910390a15b50505050505050565b60d16020526000908152604090206001810154600282018054919291611a9090614c8a565b80601f0160208091040260200160405190810160405280929190818152602001828054611abc90614c8a565b8015611b095780601f10611ade57610100808354040283529160200191611b09565b820191906000526020600020905b815481529060010190602001808311611aec57829003601f168201915b50505050600383015460049093015491926001600160a01b039081169216905084565b6000611b3b6020840184614a8c565b9050905060008167ffffffffffffffff811115611b5a57611b5a61414e565b604051908082528060200260200182016040528015611b83578160200160208202803683370190505b50905060005b82811015611c5c5760ca546001600160a01b031663f143fc61611baf6020880188614a8c565b84818110611bbf57611bbf614ad6565b9050602002810190611bd19190614aec565b6040518363ffffffff1660e01b8152600401611bee929190614b99565b602060405180830381865afa158015611c0b573d6000803e3d6000fd5b505050506040513d601f19601f82011682018060405250810190611c2f9190614bad565b828281518110611c4157611c41614ad6565b6020908102919091010152611c5581614b49565b9050611b89565b506118e9611c6c61096b86614b64565b82611f3a565b845180611cb45760405162461bcd60e51b815260206004820152601060248201526f139bc81d1859dcc81cdd5c1c1b1a595960821b604482015260640161089c565b6000611d008686868080601f016020809104026020016040519081016040528093929190818152602001838380828437600092019190915250611cfa9250612e50915050565b86610c11565b9050611d0b81610d0d565b15611d1f57611d1a8188610a32565b611a62565b611a628787878787612823565b60cb5483516040516323c7e9f360e01b815260609260009284928492839230926368fd4dee92611dc1926001600160a01b03909116916323c7e9f391611d7491600401614a00565b602060405180830381865afa158015611d91573d6000803e3d6000fd5b505050506040513d601f19601f82011682018060405250810190611db59190614bad565b8b604001518b8b610c11565b6040518263ffffffff1660e01b8152600401611ddf91815260200190565b600060405180830381865afa158015611dfc573d6000803e3d6000fd5b505050506040513d6000823e601f3d908101601f19168201604052611e249190810190614d0f565b939c929b5090995097509095509350505050565b60c9546001600160a01b03166324d7806c336040516001600160e01b031960e084901b1681526001600160a01b039091166004820152602401602060405180830381865afa158015611e8e573d6000803e3d6000fd5b505050506040513d601f19601f82011682018060405250810190611eb29190614bd6565b611efe5760405162461bcd60e51b815260206004820152601860248201527f43616c6c6572206e6f742041646d696e6973747261746f720000000000000000604482015260640161089c565b60cc8190556040518181527fc7c22e024ab071901183022e8bc5d443dd329ae4134ff83caa3944e1eab152d8906020015b60405180910390a150565b611f42612e54565b600082815260d1602052604090206003015482906001600160a01b031633148015611fe2575060c9546001600160a01b031663541d5548336040516001600160e01b031960e084901b1681526001600160a01b039091166004820152602401602060405180830381865afa158015611fbe573d6000803e3d6000fd5b505050506040513d601f19601f82011682018060405250810190611fe29190614bd6565b806120065750600081815260d160205260409020600401546001600160a01b031633145b6120435760405162461bcd60e51b815260206004820152600e60248201526d139bdd08185d5d1a1bdc9a5e995960921b604482015260640161089c565b60008251116120875760405162461bcd60e51b815260206004820152601060248201526f139bc81d1859dcc81cdd5c1c1b1a595960821b604482015260640161089c565b600083815260d1602090815260409182902080548351818402810184019094528084526120ed938693909291908301828280156120e357602002820191906000526020600020905b8154815260200190600101908083116120cf575b5050505050613657565b805190925015610c0257610c028383613491565b60c9546000906001600160a01b031663541d5548336040516001600160e01b031960e084901b1681526001600160a01b039091166004820152602401602060405180830381865afa15801561215a573d6000803e3d6000fd5b505050506040513d601f19601f8201168201806040525081019061217e9190614bd6565b6121bf5760405162461bcd60e51b815260206004820152601260248201527121b0b63632b9103737ba102932b630bcb2b960711b604482015260640161089c565b60ca546001600160a01b031663fed6c2e9858533866040518563ffffffff1660e01b81526004016121f39493929190614c55565b6020604051808303816000875af1158015612212573d6000803e3d6000fd5b505050506040513d601f19601f82011682018060405250810190610d039190614bad565b60606000818180306368fd4dee61224f8b8b8b8b610c11565b6040518263ffffffff1660e01b815260040161226d91815260200190565b600060405180830381865afa15801561228a573d6000803e3d6000fd5b505050506040513d6000823e601f3d908101601f191682016040526122b29190810190614d0f565b94509450945094509450945094509450945094565b6000806122d385610d0d565b6122ec576122e184516137e5565b845191509150612566565b600083600281111561230057612300614dea565b141561236d57600085815260d16020908152604091829020805483518184028101840190945280845261236a93889390929190830182828015610bdb5760200282019190600052602060002090815481526020019060010190808311610bc7575050505050612eae565b93505b600183600281111561238157612381614dea565b14156124c857600085815260d160209081526040808320805482518185028101850190935280835291929091908301828280156123dd57602002820191906000526020600020905b8154815260200190600101908083116123c9575b505050600089815260d1602090815260408083208054825181850281018501909352808352969750929561244a95509093509083018282801561243f57602002820191906000526020600020905b81548152602001906001019080831161242b575b505050505087612eae565b8051909150156124b957600087815260d1602090815260409182902080548351818402810184019094528084526124b693928301828280156124ab57602002820191906000526020600020905b815481526020019060010190808311612497575b505050505082612eae565b91505b6124c38683612eae565b955050505b60028360028111156124dc576124dc614dea565b141561255557600085815260d160209081526040918290208054835181840281018401909452808452612546938893909291908301828280156120e357602002820191906000526020600020908154815260200190600101908083116120cf575050505050613657565b93506000845191509150612566565b61255f84516137e5565b8451915091505b935093915050565b60c9546001600160a01b03166324d7806c336040516001600160e01b031960e084901b1681526001600160a01b039091166004820152602401602060405180830381865afa1580156125c4573d6000803e3d6000fd5b505050506040513d601f19601f820116820180604052508101906125e89190614bd6565b6126345760405162461bcd60e51b815260206004820152601860248201527f43616c6c6572206e6f742041646d696e6973747261746f720000000000000000604482015260640161089c565b60646126408284614e00565b111561268e5760405162461bcd60e51b815260206004820181905260248201527f70657263656e7461676573206d757374206e6f74206265206f76657220313030604482015260640161089c565b60cd82905560ce81905560408051838152602081018390527fea32590d8a489d3bc12129ff9ed59ccf95efa42b017e0f23a14b57881a562a5e91015b60405180910390a15050565b6126de612e54565b60006126e982610c4b565b90506000811180156126fb5750478111155b15612818576001600160a01b038216600090815260d06020526040902054612724908290614e00565b6001600160a01b038316600081815260d0602052604080822093909355915183908381818185875af1925050503d806000811461277d576040519150601f19603f3d011682016040523d82523d6000602084013e612782565b606091505b50509050806127d35760405162461bcd60e51b815260206004820152601060248201527f5472616e73666572206661696c65642e00000000000000000000000000000000604482015260640161089c565b826001600160a01b03167feaff4b37086828766ad3268786972c0cd24259d4c87a80f9d3963a3c3d999b0d8360405161280e91815260200190565b60405180910390a2505b5061100a6001603355565b61282b612e54565b60c9546001600160a01b031663541d5548336040516001600160e01b031960e084901b1681526001600160a01b039091166004820152602401602060405180830381865afa158015612881573d6000803e3d6000fd5b505050506040513d601f19601f820116820180604052508101906128a59190614bd6565b6128e65760405162461bcd60e51b815260206004820152601260248201527121b0b63632b9103737ba102932b630bcb2b960711b604482015260640161089c565b8451806129285760405162461bcd60e51b815260206004820152601060248201526f139bc81d1859dcc81cdd5c1c1b1a595960821b604482015260640161089c565b60005b81811015612a1f5760ca5487516001600160a01b039091169063b7bd44ed9089908490811061295c5761295c614ad6565b60200260200101516040518263ffffffff1660e01b815260040161298291815260200190565b602060405180830381865afa15801561299f573d6000803e3d6000fd5b505050506040513d601f19601f820116820180604052508101906129c39190614bd6565b612a0f5760405162461bcd60e51b815260206004820152600d60248201527f496e76616c696420746167496400000000000000000000000000000000000000604482015260640161089c565b612a1881614b49565b905061292b565b5060038310801590612a315750601f83105b612a7d5760405162461bcd60e51b815260206004820152601460248201527f5265636f7264207479706520746f6f206c6f6e67000000000000000000000000604482015260640161089c565b60cb546040517fcd7c68e2000000000000000000000000000000000000000000000000000000008152600481018790526001600160a01b039091169063cd7c68e290602401602060405180830381865afa158015612adf573d6000803e3d6000fd5b505050506040513d601f19601f82011682018060405250810190612b039190614bd6565b612b4f5760405162461bcd60e51b815260206004820152601060248201527f496e76616c696420746172676574496400000000000000000000000000000000604482015260640161089c565b612b588661304e565b612b6686868686338761380b565b50610a2b6001603355565b60c9546001600160a01b03166324d7806c336040516001600160e01b031960e084901b1681526001600160a01b039091166004820152602401602060405180830381865afa158015612bc7573d6000803e3d6000fd5b505050506040513d601f19601f82011682018060405250810190612beb9190614bd6565b612c375760405162461bcd60e51b815260206004820152601860248201527f43616c6c6572206e6f742041646d696e6973747261746f720000000000000000604482015260640161089c565b6001600160a01b038116612c8d5760405162461bcd60e51b815260206004820152601660248201527f416464726573732063616e6e6f74206265207a65726f00000000000000000000604482015260640161089c565b6001600160a01b0381166324d7806c336040516001600160e01b031960e084901b1681526001600160a01b039091166004820152602401602060405180830381865afa158015612ce1573d6000803e3d6000fd5b505050506040513d601f19601f82011682018060405250810190612d059190614bd6565b612d515760405162461bcd60e51b815260206004820181905260248201527f43616c6c6572206e6f742061646d696e20696e206e657720636f6e7472616374604482015260640161089c565b60c9805473ffffffffffffffffffffffffffffffffffffffff19166001600160a01b0383169081179091556040519081527f2f55f724ae3134584dfdd86a4ee1e090635ff9913722b5fe06e064cc7e3ed8b490602001611f2f565b60cb5483516040516323c7e9f360e01b8152600092610d0392610397926001600160a01b03909216916323c7e9f391612de791600401614a00565b602060405180830381865afa158015612e04573d6000803e3d6000fd5b505050506040513d601f19601f82011682018060405250810190612e289190614bad565b86604001518686610c11565b6000612e4561039786868686610c11565b90505b949350505050565b3390565b60026033541415612ea75760405162461bcd60e51b815260206004820152601f60248201527f5265656e7472616e637947756172643a207265656e7472616e742063616c6c00604482015260640161089c565b6002603355565b815160609060008167ffffffffffffffff811115612ece57612ece61414e565b604051908082528060200260200182016040528015612ef7578160200160208202803683370190505b5090506000805b83811015612f77576000878281518110612f1a57612f1a614ad6565b60200260200101519050612f2e878261397a565b612f64576001848381518110612f4657612f46614ad6565b9115156020928302919091019091015282612f6081614b49565b9350505b5080612f6f81614b49565b915050612efe565b5060008167ffffffffffffffff811115612f9357612f9361414e565b604051908082528060200260200182016040528015612fbc578160200160208202803683370190505b5090506000805b8581101561304157848181518110612fdd57612fdd614ad6565b60200260200101511561302f57888181518110612ffc57612ffc614ad6565b602002602001015183838151811061301657613016614ad6565b60209081029190910101528161302b81614b49565b9250505b8061303981614b49565b915050612fc3565b5090979650505050505050565b61305881516137e5565b34146130a65760405162461bcd60e51b815260206004820152601260248201527f77726f6e672066656520737570706c6965640000000000000000000000000000604482015260640161089c565b60c954604080517f3c0c456600000000000000000000000000000000000000000000000000000000815290516000926001600160a01b031691633c0c45669160048083019260209291908290030181865afa158015613109573d6000803e3d6000fd5b505050506040513d601f19601f8201168201806040525081019061312d9190614e18565b905060005b825181101561316e5761315e83828151811061315057613150614ad6565b602002602001015183613990565b61316781614b49565b9050613132565b505050565b600082815260d1602090815260409182902080548351818402810184019094528084526131d593928301828280156131ca57602002820191906000526020600020905b8154815260200190600101908083116131b6575b505050505082613c11565b600083815260d16020908152604090912082516131f89391929190910190613fec565b507f926bdaffb66b17607427b94e3524f536690b435ab89ee7178c6fef859c17f5be8260006040516126ca929190614e35565b60c9546001600160a01b03166324d7806c336040516001600160e01b031960e084901b1681526001600160a01b039091166004820152602401602060405180830381865afa158015613281573d6000803e3d6000fd5b505050506040513d601f19601f820116820180604052508101906132a59190614bd6565b61100a5760405162461bcd60e51b815260206004820152601860248201527f43616c6c6572206e6f742041646d696e6973747261746f720000000000000000604482015260640161089c565b7f4910fdfa16fed3260ed0e7147f7cc6da11a60208b5b9406d12a635614ffd91435460ff16156133245761316e83613d27565b826001600160a01b03166352d1902d6040518163ffffffff1660e01b8152600401602060405180830381865afa92505050801561337e575060408051601f3d908101601f1916820190925261337b91810190614bad565b60015b6133f05760405162461bcd60e51b815260206004820152602e60248201527f45524331393637557067726164653a206e657720696d706c656d656e7461746960448201527f6f6e206973206e6f742055555053000000000000000000000000000000000000606482015260840161089c565b7f360894a13ba1a3210667c828492db98dca3e2076cc3735a920a3ca505d382bbc81146134855760405162461bcd60e51b815260206004820152602960248201527f45524331393637557067726164653a20756e737570706f727465642070726f7860448201527f6961626c65555549440000000000000000000000000000000000000000000000606482015260840161089c565b5061316e838383613df2565b600082815260d1602052604090206003015482906001600160a01b031633148015613531575060c9546001600160a01b031663541d5548336040516001600160e01b031960e084901b1681526001600160a01b039091166004820152602401602060405180830381865afa15801561350d573d6000803e3d6000fd5b505050506040513d601f19601f820116820180604052508101906135319190614bd6565b806135555750600081815260d160205260409020600401546001600160a01b031633145b6135925760405162461bcd60e51b815260206004820152600e60248201526d139bdd08185d5d1a1bdc9a5e995960921b604482015260640161089c565b600083815260d1602090815260409182902080548351818402810184019094528084526135f493928301828280156135e957602002820191906000526020600020905b8154815260200190600101908083116135d5575b505050505083612eae565b600084815260d16020908152604090912082516136179391929190910190613fec565b507f926bdaffb66b17607427b94e3524f536690b435ab89ee7178c6fef859c17f5be83600260405161364a929190614e35565b60405180910390a1505050565b815160609060008167ffffffffffffffff8111156136775761367761414e565b6040519080825280602002602001820160405280156136a0578160200160208202803683370190505b5090506000805b8381101561371b576136d2868883815181106136c5576136c5614ad6565b602002602001015161397a565b156137095760018382815181106136eb576136eb614ad6565b911515602092830291909101909101528161370581614b49565b9250505b8061371381614b49565b9150506136a7565b5060008167ffffffffffffffff8111156137375761373761414e565b604051908082528060200260200182016040528015613760578160200160208202803683370190505b5090506000805b858110156130415784818151811061378157613781614ad6565b6020026020010151156137d3578881815181106137a0576137a0614ad6565b60200260200101518383815181106137ba576137ba614ad6565b6020908102919091010152816137cf81614b49565b9250505b806137dd81614b49565b915050613767565b60008082158015906137f95750600060cc54115b15610c795760cc54610d069084614e67565b60006138518686868080601f016020809104026020016040519081016040528093929190818152602001838380828437600092019190915250889250879150610c119050565b90506040518060a0016040528088815260200187815260200186868080601f01602080910402602001604051908101604052809392919081815260200183838082843760009201829052509385525050506001600160a01b0380871660208085019190915290861660409384015284825260d181529190208251805191926138de92849290910190613fec565b506020828101516001830155604083015180516139019260028501920190614037565b50606082015160038201805473ffffffffffffffffffffffffffffffffffffffff199081166001600160a01b03938416179091556080909301516004909201805490931691161790556040518181527f68ebebf651507af1acff160fd4e8f900a0b89fe3224f86b8306a3b857cd7542e90602001611a59565b6000806139878484613e17565b95945050505050565b60ca546040517f6352211e000000000000000000000000000000000000000000000000000000008152600481018490526000916001600160a01b031690636352211e90602401602060405180830381865afa1580156139f3573d6000803e3d6000fd5b505050506040513d601f19601f82011682018060405250810190613a179190614e18565b60ca546040517f4b3d267f000000000000000000000000000000000000000000000000000000008152600481018690529192506000916001600160a01b0390911690634b3d267f90602401600060405180830381865afa158015613a7f573d6000803e3d6000fd5b505050506040513d6000823e601f3d908101601f19168201604052613aa79190810190614e86565b90506000606460cd5434613abb9190614e67565b613ac59190614f3b565b90506000606460ce5434613ad99190614e67565b613ae39190614f3b565b90506000613af18284614e00565b613afb9034614c3e565b6001600160a01b038716600090815260cf6020526040902054909150613b22908490614e00565b6001600160a01b03808816600090815260cf602052604080822093909355865190911681522054613b54908390614e00565b84516001600160a01b03908116600090815260cf60205260409020919091558581169087161415613bcb576020808501516001600160a01b0316600090815260cf9091526040902054613ba8908290614e00565b6020808601516001600160a01b0316600090815260cf9091526040902055611a62565b6001600160a01b038516600090815260cf6020526040902054613bef908290614e00565b6001600160a01b038616600090815260cf602052604090205550505050505050565b81518151606091906000613c258284614e00565b67ffffffffffffffff811115613c3d57613c3d61414e565b604051908082528060200260200182016040528015613c66578160200160208202803683370190505b50905060005b83811015613cbd57868181518110613c8657613c86614ad6565b6020026020010151828281518110613ca057613ca0614ad6565b602090810291909101015280613cb581614b49565b915050613c6c565b5060005b82811015613d1d57858181518110613cdb57613cdb614ad6565b6020026020010151828286613cf09190614e00565b81518110613d0057613d00614ad6565b602090810291909101015280613d1581614b49565b915050613cc1565b5095945050505050565b6001600160a01b0381163b613da45760405162461bcd60e51b815260206004820152602d60248201527f455243313936373a206e657720696d706c656d656e746174696f6e206973206e60448201527f6f74206120636f6e747261637400000000000000000000000000000000000000606482015260840161089c565b7f360894a13ba1a3210667c828492db98dca3e2076cc3735a920a3ca505d382bbc805473ffffffffffffffffffffffffffffffffffffffff19166001600160a01b0392909216919091179055565b613dfb83613e79565b600082511180613e085750805b1561316e576118e98383613eb9565b81516000908190815b81811015613e685784868281518110613e3b57613e3b614ad6565b60200260200101511415613e5657925060019150613e729050565b80613e6081614b49565b915050613e20565b5060008092509250505b9250929050565b613e8281613d27565b6040516001600160a01b038216907fbc7cd75a20ee27fd9adebab32041f755214dbc6bffa90cc0225b39da2e5c2d3b90600090a250565b6060610d068383604051806060016040528060278152602001614f7a602791396060600080856001600160a01b031685604051613ef69190614f5d565b600060405180830381855af49150503d8060008114613f31576040519150601f19603f3d011682016040523d82523d6000602084013e613f36565b606091505b5091509150613f4786838387613f51565b9695505050505050565b60608315613fbd578251613fb6576001600160a01b0385163b613fb65760405162461bcd60e51b815260206004820152601d60248201527f416464726573733a2063616c6c20746f206e6f6e2d636f6e7472616374000000604482015260640161089c565b5081612e48565b612e488383815115613fd25781518083602001fd5b8060405162461bcd60e51b815260040161089c9190614a00565b828054828255906000526020600020908101928215614027579160200282015b8281111561402757825182559160200191906001019061400c565b506140339291506140aa565b5090565b82805461404390614c8a565b90600052602060002090601f0160209004810192826140655760008555614027565b82601f1061407e57805160ff1916838001178555614027565b82800160010185558215614027579182018281111561402757825182559160200191906001019061400c565b5b8082111561403357600081556001016140ab565b6000606082840312156140d157600080fd5b50919050565b6001600160a01b038116811461100a57600080fd5b80356140f7816140d7565b919050565b6000806040838503121561410f57600080fd5b823567ffffffffffffffff81111561412657600080fd5b614132858286016140bf565b9250506020830135614143816140d7565b809150509250929050565b634e487b7160e01b600052604160045260246000fd5b6040516060810167ffffffffffffffff811182821017156141875761418761414e565b60405290565b60405160a0810167ffffffffffffffff811182821017156141875761418761414e565b604051601f8201601f1916810167ffffffffffffffff811182821017156141d9576141d961414e565b604052919050565b600067ffffffffffffffff8211156141fb576141fb61414e565b5060051b60200190565b600082601f83011261421657600080fd5b8135602061422b614226836141e1565b6141b0565b82815260059290921b8401810191818101908684111561424a57600080fd5b8286015b84811015614265578035835291830191830161424e565b509695505050505050565b6000806040838503121561428357600080fd5b82359150602083013567ffffffffffffffff8111156142a157600080fd5b6142ad85828601614205565b9150509250929050565b600067ffffffffffffffff8211156142d1576142d161414e565b50601f01601f191660200190565b60006142ed614226846142b7565b905082815283838301111561430157600080fd5b828260208301376000602084830101529392505050565b600082601f83011261432957600080fd5b610d06838335602085016142df565b6000806000806080858703121561434e57600080fd5b84359350602085013567ffffffffffffffff81111561436c57600080fd5b61437887828801614318565b9350506040850135614389816140d7565b91506060850135614399816140d7565b939692955090935050565b6000602082840312156143b657600080fd5b8135610d06816140d7565b6000606082840312156143d357600080fd5b6143db614164565b9050813567ffffffffffffffff808211156143f557600080fd5b61440185838601614318565b835260209150818401358181111561441857600080fd5b8401601f8101861361442957600080fd5b8035614437614226826141e1565b81815260059190911b8201840190848101908883111561445657600080fd5b8584015b8381101561448e578035868111156144725760008081fd5b6144808b8983890101614318565b84525091860191860161445a565b5080868801525050505060408401359150808211156144ac57600080fd5b506144b984828501614318565b60408301525092915050565b6000806000606084860312156144da57600080fd5b833567ffffffffffffffff8111156144f157600080fd5b6144fd868287016143c1565b935050602084013561450e816140d7565b9150604084013561451e816140d7565b809150509250925092565b60006020828403121561453b57600080fd5b5035919050565b8035600381106140f757600080fd5b6000806000806080858703121561456757600080fd5b843567ffffffffffffffff81111561457e57600080fd5b61458a878288016140bf565b945050602085013561459b816140d7565b925060408501356145ab816140d7565b91506145b960608601614542565b905092959194509250565b6000806000806000608086880312156145dc57600080fd5b853567ffffffffffffffff808211156145f457600080fd5b818801915088601f83011261460857600080fd5b81358181111561461757600080fd5b8960208260051b850101111561462c57600080fd5b6020928301975095509087013593506040870135908082111561464e57600080fd5b5061465b88828901614318565b92505061466a606087016140ec565b90509295509295909350565b6000806040838503121561468957600080fd5b8235614694816140d7565b9150602083013567ffffffffffffffff8111156146b057600080fd5b8301601f810185136146c157600080fd5b6142ad858235602084016142df565b60008083601f8401126146e257600080fd5b50813567ffffffffffffffff8111156146fa57600080fd5b602083019150836020828501011115613e7257600080fd5b600080600080600080600060c0888a03121561472d57600080fd5b873567ffffffffffffffff8082111561474557600080fd5b6147518b838c01614205565b985060208a0135975060408a013591508082111561476e57600080fd5b5061477b8a828b016146d0565b909650945050606088013561478f816140d7565b9250608088013561479f816140d7565b91506147ad60a08901614542565b905092959891949750929550565b6000806000604084860312156147d057600080fd5b833567ffffffffffffffff8111156147e757600080fd5b6147f3868287016146d0565b909450925050602084013561451e816140d7565b60005b8381101561482257818101518382015260200161480a565b838111156118e95750506000910152565b6000815180845261484b816020860160208601614807565b601f01601f19169290920160200192915050565b60a0808252865190820181905260009060209060c0840190828a01845b828110156148985781518452928401929084019060010161487c565b505050878285015283810360408501526148b28188614833565b925050506001600160a01b0380851660608401528084166080840152509695505050505050565b60008060008060008060c087890312156148f257600080fd5b86356148fd816140d7565b9550602087013561490d816140d7565b9450604087013561491d816140d7565b959894975094956060810135955060808101359460a0909101359350915050565b8481526080602082015260006149576080830186614833565b6001600160a01b039485166040840152929093166060909101529392505050565b60008060008060006080868803121561499057600080fd5b853567ffffffffffffffff808211156149a857600080fd5b6149b489838a01614205565b96506020880135955060408801359150808211156149d157600080fd5b506149de888289016146d0565b90945092505060608601356149f2816140d7565b809150509295509295909350565b602081526000610d066020830184614833565b600080600060608486031215614a2857600080fd5b83359250602084013567ffffffffffffffff811115614a4657600080fd5b614a5286828701614205565b925050614a6160408501614542565b90509250925092565b60008060408385031215614a7d57600080fd5b50508035926020909101359150565b6000808335601e19843603018112614aa357600080fd5b83018035915067ffffffffffffffff821115614abe57600080fd5b6020019150600581901b3603821315613e7257600080fd5b634e487b7160e01b600052603260045260246000fd5b6000808335601e19843603018112614b0357600080fd5b83018035915067ffffffffffffffff821115614b1e57600080fd5b602001915036819003821315613e7257600080fd5b634e487b7160e01b600052601160045260246000fd5b6000600019821415614b5d57614b5d614b33565b5060010190565b6000610c7936836143c1565b81835281816020850137506000828201602090810191909152601f909101601f19169091010190565b602081526000610d03602083018486614b70565b600060208284031215614bbf57600080fd5b5051919050565b805180151581146140f757600080fd5b600060208284031215614be857600080fd5b610d0682614bc6565b84815260008451614c09816020850160208901614807565b6bffffffffffffffffffffffff19606095861b81169190930160208101919091529290931b1660348201526048019392505050565b600082821015614c5057614c50614b33565b500390565b606081526000614c69606083018688614b70565b6001600160a01b039485166020840152929093166040909101529392505050565b600181811c90821680614c9e57607f821691505b602082108114156140d157634e487b7160e01b600052602260045260246000fd5b600082601f830112614cd057600080fd5b8151614cde614226826142b7565b818152846020838601011115614cf357600080fd5b612e48826020830160208701614807565b80516140f7816140d7565b600080600080600060a08688031215614d2757600080fd5b855167ffffffffffffffff80821115614d3f57600080fd5b818801915088601f830112614d5357600080fd5b81516020614d63614226836141e1565b82815260059290921b8401810191818101908c841115614d8257600080fd5b948201945b83861015614da057855182529482019490820190614d87565b918b015160408c0151929a509850909350505080821115614dc057600080fd5b50614dcd88828901614cbf565b935050614ddc60608701614d04565b915061466a60808701614d04565b634e487b7160e01b600052602160045260246000fd5b60008219821115614e1357614e13614b33565b500190565b600060208284031215614e2a57600080fd5b8151610d06816140d7565b8281526040810160038310614e5a57634e487b7160e01b600052602160045260246000fd5b8260208301529392505050565b6000816000190483118215151615614e8157614e81614b33565b500290565b600060208284031215614e9857600080fd5b815167ffffffffffffffff80821115614eb057600080fd5b9083019060a08286031215614ec457600080fd5b614ecc61418d565b8251614ed7816140d7565b81526020830151614ee7816140d7565b6020820152604083015182811115614efe57600080fd5b614f0a87828601614cbf565b604083015250614f1c60608401614bc6565b6060820152614f2d60808401614bc6565b608082015295945050505050565b600082614f5857634e487b7160e01b600052601260045260246000fd5b500490565b60008251614f6f818460208701614807565b919091019291505056fe416464726573733a206c6f772d6c6576656c2064656c65676174652063616c6c206661696c6564a264697066735822122023c8865e4e7fb6ba1ce94283819c9a9bb6f3bfe37be56987378c7e129197257664736f6c634300080c0033",
  "devdoc": {
    "kind": "dev",
    "methods": {
      "appendTags(uint256,uint256[])": {
        "params": {
          "_tagIds": "Array of CTAG token Ids.",
          "_taggingRecordId": "tagging record being updated."
        }
      },
      "applyTagsWithCompositeKey(uint256[],uint256,string,address)": {
        "params": {
          "_recordType": "Arbitrary identifier for type of tagging record.",
          "_tagIds": "Array of CTAG token Ids.",
          "_tagger": "Address of that calls Relayer to create tagging record.",
          "_targetId": "targetId of the URI being tagged. See ETSTarget.sol"
        }
      },
      "applyTagsWithRawInput((string,string[],string),address)": {
        "params": {
          "_rawInput": "Raw client input data formed as TaggingRecordRawInput struct.",
          "_tagger": "Address that calls Relayer to tag a targetURI."
        }
      },
      "computeTaggingFee(uint256,uint256[],uint8)": {
        "params": {
          "_action": "Integer representing action to be performed according to enum TaggingAction.",
          "_tagIds": "Array of CTAG token Ids.",
          "_taggingRecordId": "Id of tagging record."
        },
        "returns": {
          "fee": "Calculated tagging fee in ETH/Matic",
          "tagCount": "Number of new tags being added to tagging record."
        }
      },
      "computeTaggingFeeFromCompositeKey(uint256[],uint256,string,address,address,uint8)": {
        "params": {
          "_action": "Integer representing action to be performed according to enum TaggingAction.",
          "_relayer": "Address of tagging record Relayer contract.",
          "_tagIds": "Array of CTAG token Ids.",
          "_tagger": "Address interacting with Relayer to tag content (\"Tagger\")."
        },
        "returns": {
          "fee": "Calculated tagging fee in ETH/Matic",
          "tagCount": "Number of new tags being added to tagging record."
        }
      },
      "computeTaggingFeeFromRawInput((string,string[],string),address,address,uint8)": {
        "params": {
          "_action": "Integer representing action to be performed according to enum TaggingAction.",
          "_rawInput": "Raw client input data formed as TaggingRecordRawInput struct.",
          "_relayer": "Address of tagging record Relayer contract.",
          "_tagger": "Address interacting with Relayer to tag content (\"Tagger\")."
        },
        "returns": {
          "fee": "Calculated tagging fee in ETH/Matic",
          "tagCount": "Number of new tags being added to tagging record."
        }
      },
      "computeTaggingRecordIdFromCompositeKey(uint256,string,address,address)": {
        "params": {
          "_recordType": "Arbitrary identifier for type of tagging record.",
          "_relayer": "Address of tagging record Relayer contract.",
          "_tagger": "Address interacting with Relayer to tag content (\"Tagger\").",
          "_targetId": "Id of target being tagged (see ETSTarget.sol)."
        },
        "returns": {
          "taggingRecordId": "Unique identifier for a tagging record."
        }
      },
      "computeTaggingRecordIdFromRawInput((string,string[],string),address,address)": {
        "params": {
          "_rawInput": "Raw client input data formed as TaggingRecordRawInput struct.",
          "_relayer": "Address of tagging record Relayer contract.",
          "_tagger": "Address interacting with Relayer to tag content (\"Tagger\")."
        },
        "returns": {
          "taggingRecordId": "Unique identifier for a tagging record."
        }
      },
      "constructor": {
        "custom:oz-upgrades-unsafe-allow": "constructor"
      },
      "createTag(string,address)": {
        "params": {
          "_creator": "Address credited with creating CTAG.",
          "_tag": "Tag string."
        },
        "returns": {
          "_tokenId": "Id of CTAG token."
        }
      },
      "createTaggingRecord(uint256[],uint256,string,address)": {
        "params": {
          "_recordType": "Arbitrary identifier for type of tagging record.",
          "_tagIds": "Array of CTAG token Ids.",
          "_tagger": "Address calling Relayer contract to create tagging record.",
          "_targetId": "targetId of the URI being tagged. See ETSTarget.sol"
        }
      },
      "drawDown(address)": {
        "params": {
          "_account": "Address of account being drawn down and which will receive the funds."
        }
      },
      "getOrCreateTagId(string,address)": {
        "params": {
          "_creator": "Address credited with creating CTAG.",
          "_tag": "Tag string."
        },
        "returns": {
          "tokenId": "Id of CTAG token."
        }
      },
      "getTaggingRecordFromCompositeKey(uint256,string,address,address)": {
        "params": {
          "_recordType": "Arbitrary identifier for type of tagging record.",
          "_relayer": "Address of Relayer contract that wrote tagging record.",
          "_tagger": "Address of wallet that initiated tagging record via relayer.",
          "_targetId": "Id of target being tagged."
        },
        "returns": {
          "recordType": "Type of tagging record.",
          "relayer": "Address of tagging record Relayer contract.",
          "tagIds": "CTAG token ids.",
          "tagger": "Address interacting with Relayer to tag content (\"Tagger\").",
          "targetId": "TargetId that was tagged."
        }
      },
      "getTaggingRecordFromId(uint256)": {
        "params": {
          "_id": "taggingRecordId."
        },
        "returns": {
          "recordType": "Type of tagging record.",
          "relayer": "Address of tagging record Relayer contract.",
          "tagIds": "CTAG token ids.",
          "tagger": "Address interacting with Relayer to tag content (\"Tagger\").",
          "targetId": "TargetId that was tagged."
        }
      },
      "getTaggingRecordFromRawInput((string,string[],string),address,address)": {
        "params": {
          "_rawInput": "Raw client input data formed as TaggingRecordRawInput struct.",
          "_relayer": "Address of tagging record Relayer contract.",
          "_tagger": "Address interacting with Relayer to tag content (\"Tagger\")."
        },
        "returns": {
          "recordType": "Type of tagging record.",
          "relayer": "Address of tagging record Relayer contract.",
          "tagIds": "CTAG token ids.",
          "tagger": "Address interacting with Relayer to tag content (\"Tagger\").",
          "targetId": "TargetId that was tagged."
        }
      },
      "proxiableUUID()": {
        "details": "Implementation of the ERC1822 {proxiableUUID} function. This returns the storage slot used by the implementation. It is used to validate the implementation's compatibility when performing an upgrade. IMPORTANT: A proxy pointing at a proxiable contract should not be considered proxiable itself, because this risks bricking a proxy that upgrades to it, by delegating to itself until out of gas. Thus it is critical that this function revert if invoked through a proxy. This is guaranteed by the `notDelegated` modifier."
      },
      "removeTags(uint256,uint256[])": {
        "params": {
          "_tagIds": "Array of CTAG token Ids.",
          "_taggingRecordId": "tagging record being updated."
        }
      },
      "removeTagsWithCompositeKey(uint256[],uint256,string,address)": {
        "params": {
          "_recordType": "Arbitrary identifier for type of tagging record.",
          "_tagIds": "Array of CTAG token Ids.",
          "_tagger": "Address of that calls Relayer to create tagging record.",
          "_targetId": "targetId of the URI being tagged. See ETSTarget.sol"
        }
      },
      "removeTagsWithRawInput((string,string[],string),address)": {
        "params": {
          "_rawInput": "Raw client input data formed as TaggingRecordRawInput struct.",
          "_tagger": "Address that calls Relayer to tag a targetURI."
        }
      },
      "replaceTags(uint256,uint256[])": {
        "params": {
          "_tagIds": "Array of CTAG token Ids.",
          "_taggingRecordId": "tagging record being updated."
        }
      },
      "replaceTagsWithCompositeKey(uint256[],uint256,string,address)": {
        "params": {
          "_recordType": "Arbitrary identifier for type of tagging record.",
          "_tagIds": "Array of CTAG token Ids.",
          "_tagger": "Address of that calls Relayer to create tagging record.",
          "_targetId": "targetId of the URI being tagged. See ETSTarget.sol"
        }
      },
      "replaceTagsWithRawInput((string,string[],string),address)": {
        "params": {
          "_rawInput": "Raw client input data formed as TaggingRecordRawInput struct.",
          "_tagger": "Address that calls Relayer to tag a targetURI."
        }
      },
      "setAccessControls(address)": {
        "params": {
          "_accessControls": "Address of ETSAccessControls contract."
        }
      },
      "setPercentages(uint256,uint256)": {
        "params": {
          "_platformPercentage": "percentage for platform.",
          "_relayerPercentage": "percentage for relayer."
        }
      },
      "setTaggingFee(uint256)": {
        "params": {
          "_fee": "Value of the fee in WEI."
        }
      },
      "taggingRecordExists(uint256)": {
        "params": {
          "_taggingRecordId": "taggingRecordId."
        },
        "returns": {
          "_0": "boolean; true for exists, false for not."
        }
      },
      "taggingRecordExistsByCompositeKey(uint256,string,address,address)": {
        "params": {
          "_recordType": "Arbitrary identifier for type of tagging record.",
          "_relayer": "Address of Relayer contract that wrote tagging record.",
          "_tagger": "Address of wallet that initiated tagging record via relayer.",
          "_targetId": "Id of target being tagged."
        },
        "returns": {
          "_0": "boolean; true for exists, false for not."
        }
      },
      "taggingRecordExistsByRawInput((string,string[],string),address,address)": {
        "params": {
          "_rawInput": "Raw client input data formed as TaggingRecordRawInput struct.",
          "_relayer": "Address of tagging record Relayer contract.",
          "_tagger": "Address interacting with Relayer to tag content (\"Tagger\")."
        },
        "returns": {
          "_0": "boolean; true for exists, false for not."
        }
      },
      "totalDue(address)": {
        "params": {
          "_account": "Address of the account being queried."
        },
        "returns": {
          "_due": "Amount of WEI in MATIC due to account."
        }
      },
      "upgradeTo(address)": {
        "custom:oz-upgrades-unsafe-allow-reachable": "delegatecall",
        "details": "Upgrade the implementation of the proxy to `newImplementation`. Calls {_authorizeUpgrade}. Emits an {Upgraded} event."
      },
      "upgradeToAndCall(address,bytes)": {
        "custom:oz-upgrades-unsafe-allow-reachable": "delegatecall",
        "details": "Upgrade the implementation of the proxy to `newImplementation`, and subsequently execute the function call encoded in `data`. Calls {_authorizeUpgrade}. Emits an {Upgraded} event."
      }
    },
    "stateVariables": {
      "accrued": {
        "details": "Map for holding amount accrued to participant address wallets."
      },
      "etsAccessControls": {
        "details": "ETS access controls contract."
      },
      "etsTarget": {
        "details": "ETS Targets contract."
      },
      "etsToken": {
        "details": "CTAG erc-721 token contract."
      },
      "paid": {
        "details": "Map for holding lifetime amount drawn down from accrued by participants."
      },
      "platformPercentage": {
        "details": "Percentage of tagging fee allocated to ETS."
      },
      "relayerPercentage": {
        "details": "Percentage of tagging fee allocated to Relayer."
      },
      "taggingFee": {
        "details": "Fee in MATIC Collected by ETS for tagging."
      },
      "taggingRecords": {
        "details": "Map of tagging id to tagging record."
      }
    },
    "version": 1
  },
  "userdoc": {
    "kind": "user",
    "methods": {
      "NAME()": {
        "notice": "Public constants"
      },
      "appendTags(uint256,uint256[])": {
        "notice": "Append one or more tags to a tagging record."
      },
      "applyTagsWithCompositeKey(uint256[],uint256,string,address)": {
        "notice": "Apply one or more tags to a targetId using using tagging record composite key. Records new ETS Tagging Record to the blockchain or appends tags if Tagging Record already exists. CTAGs and targetId are created if they don't exist. Caller must be Relayer contract."
      },
      "applyTagsWithRawInput((string,string[],string),address)": {
        "notice": "Apply one or more tags to a targetURI using tagging record raw client input data. Like it's sister function applyTagsWithCompositeKey, records new ETS Tagging Record or appends tags to an existing record if found to already exist. This function differs in that it creates new ETS target records and CTAG tokens for novel targetURIs and hastag strings respectively. This function can only be called by Relayer contracts."
      },
      "computeTaggingFee(uint256,uint256[],uint8)": {
        "notice": "Compute tagging fee for CTAGs, tagging record id and desired action. If the global, service wide tagging fee is set (see ETS.taggingFee() & ETS.setTaggingFee()) ETS charges a per tag for all new tags applied to a tagging record. This applies to both new tagging records and modified tagging records. Computing the tagging fee involves checking to see if a tagging record exists and if so, given the desired action (append or replace) determining the number of new tags being added and multiplying by the ETS per tag fee."
      },
      "computeTaggingFeeFromCompositeKey(uint256[],uint256,string,address,address,uint8)": {
        "notice": "Compute tagging fee for CTAGs, tagging record composite key and desired action."
      },
      "computeTaggingFeeFromRawInput((string,string[],string),address,address,uint8)": {
        "notice": "Compute tagging fee for raw input and desired action."
      },
      "computeTaggingRecordIdFromCompositeKey(uint256,string,address,address)": {
        "notice": "Compute & return a taggingRecordId. Every TaggingRecord in ETS is mapped to by it's taggingRecordId. This Id is a composite key composed of targetId, recordType, relayer contract address and tagger address hashed and cast as a uint256."
      },
      "computeTaggingRecordIdFromRawInput((string,string[],string),address,address)": {
        "notice": "Compute a taggingRecordId from raw input."
      },
      "createTag(string,address)": {
        "notice": "Create CTAG token from tag string. Reverts if tag exists or is invalid. Only ETS Relayer contracts may call this function."
      },
      "createTaggingRecord(uint256[],uint256,string,address)": {
        "notice": "Create a new tagging record. Requirements:   - Caller must be relayer contract.   - CTAG(s) and TargetId must exist."
      },
      "drawDown(address)": {
        "notice": "Function for withdrawing funds from an accrual account. Can be called by the account owner or on behalf of the account. Does nothing when there is nothing due to the account."
      },
      "getOrCreateTagId(string,address)": {
        "notice": "Get or create CTAG token from tag string. Combo function that accepts a tag string and returns corresponding CTAG token Id if it exists, or if it doesn't exist, creates a new CTAG and then returns corresponding Id. Only ETS Relayer contracts may call this function."
      },
      "getTaggingRecordFromCompositeKey(uint256,string,address,address)": {
        "notice": "Retrieve a tagging record from composite key parts."
      },
      "getTaggingRecordFromId(uint256)": {
        "notice": "Retrieve a tagging record from Id."
      },
      "getTaggingRecordFromRawInput((string,string[],string),address,address)": {
        "notice": "Retrieve a tagging record from it's raw input."
      },
      "removeTags(uint256,uint256[])": {
        "notice": "Remove one or more tags from a tagging record."
      },
      "removeTagsWithCompositeKey(uint256[],uint256,string,address)": {
        "notice": "Remove one or more tags from a tagging record using composite key for record lookup."
      },
      "removeTagsWithRawInput((string,string[],string),address)": {
        "notice": "Remove one or more tags from a tagging record using raw data for record lookup."
      },
      "replaceTags(uint256,uint256[])": {
        "notice": "Replaces tags in tagging record. This function overwrites the tags in a tagging record with the supplied tags, only charging for the new tags in the replacement set."
      },
      "replaceTagsWithCompositeKey(uint256[],uint256,string,address)": {
        "notice": "Replace entire tag set in tagging record using composite key for record lookup. This function overwrites the tags in a tagging record with the supplied tags, only charging for the new tags in the replacement set."
      },
      "replaceTagsWithRawInput((string,string[],string),address)": {
        "notice": "Replace entire tag set in tagging record using raw data for record lookup. If supplied tag strings don't have CTAGs, new ones are minted."
      },
      "setAccessControls(address)": {
        "notice": "Sets ETSAccessControls on the ETSTarget contract so functions can be restricted to ETS platform only. Note Caller of this function must be deployer or pre-set as admin of new contract."
      },
      "setPercentages(uint256,uint256)": {
        "notice": "Admin functionality for updating the percentages."
      },
      "setTaggingFee(uint256)": {
        "notice": "Sets the fee required to tag an NFT asset."
      },
      "taggingRecordExists(uint256)": {
        "notice": "Check that a tagging record exsits by it's Id."
      },
      "taggingRecordExistsByCompositeKey(uint256,string,address,address)": {
        "notice": "Check that a tagging record exists by it's componsite key parts."
      },
      "taggingRecordExistsByRawInput((string,string[],string),address,address)": {
        "notice": "Check that a tagging record exists for given raw input."
      },
      "totalDue(address)": {
        "notice": "Function to check how much MATIC has been accrued by an address factoring in amount paid out."
      }
    },
    "version": 1
  },
  "storageLayout": {
    "storage": [
      {
        "astId": 912,
        "contract": "contracts/ETS.sol:ETS",
        "label": "_initialized",
        "offset": 0,
        "slot": "0",
        "type": "t_uint8"
      },
      {
        "astId": 915,
        "contract": "contracts/ETS.sol:ETS",
        "label": "_initializing",
        "offset": 1,
        "slot": "0",
        "type": "t_bool"
      },
      {
        "astId": 3508,
        "contract": "contracts/ETS.sol:ETS",
        "label": "__gap",
        "offset": 0,
        "slot": "1",
        "type": "t_array(t_uint256)50_storage"
      },
      {
        "astId": 1351,
        "contract": "contracts/ETS.sol:ETS",
        "label": "_status",
        "offset": 0,
        "slot": "51",
        "type": "t_uint256"
      },
      {
        "astId": 1420,
        "contract": "contracts/ETS.sol:ETS",
        "label": "__gap",
        "offset": 0,
        "slot": "52",
        "type": "t_array(t_uint256)49_storage"
      },
      {
        "astId": 894,
        "contract": "contracts/ETS.sol:ETS",
        "label": "__gap",
        "offset": 0,
        "slot": "101",
        "type": "t_array(t_uint256)50_storage"
      },
      {
        "astId": 1209,
        "contract": "contracts/ETS.sol:ETS",
        "label": "__gap",
        "offset": 0,
        "slot": "151",
        "type": "t_array(t_uint256)50_storage"
      },
      {
        "astId": 8756,
        "contract": "contracts/ETS.sol:ETS",
        "label": "etsAccessControls",
        "offset": 0,
        "slot": "201",
        "type": "t_contract(IETSAccessControls)14815"
      },
      {
        "astId": 8760,
        "contract": "contracts/ETS.sol:ETS",
        "label": "etsToken",
        "offset": 0,
        "slot": "202",
        "type": "t_contract(IETSToken)15378"
      },
      {
        "astId": 8764,
        "contract": "contracts/ETS.sol:ETS",
        "label": "etsTarget",
        "offset": 0,
        "slot": "203",
        "type": "t_contract(IETSTarget)15141"
      },
      {
        "astId": 8768,
        "contract": "contracts/ETS.sol:ETS",
        "label": "taggingFee",
        "offset": 0,
        "slot": "204",
        "type": "t_uint256"
      },
      {
        "astId": 8771,
        "contract": "contracts/ETS.sol:ETS",
        "label": "platformPercentage",
        "offset": 0,
        "slot": "205",
        "type": "t_uint256"
      },
      {
        "astId": 8774,
        "contract": "contracts/ETS.sol:ETS",
        "label": "relayerPercentage",
        "offset": 0,
        "slot": "206",
        "type": "t_uint256"
      },
      {
        "astId": 8779,
        "contract": "contracts/ETS.sol:ETS",
        "label": "accrued",
        "offset": 0,
        "slot": "207",
        "type": "t_mapping(t_address,t_uint256)"
      },
      {
        "astId": 8784,
        "contract": "contracts/ETS.sol:ETS",
        "label": "paid",
        "offset": 0,
        "slot": "208",
        "type": "t_mapping(t_address,t_uint256)"
      },
      {
        "astId": 8790,
        "contract": "contracts/ETS.sol:ETS",
        "label": "taggingRecords",
        "offset": 0,
        "slot": "209",
        "type": "t_mapping(t_uint256,t_struct(TaggingRecord)14261_storage)"
      }
    ],
    "types": {
      "t_address": {
        "encoding": "inplace",
        "label": "address",
        "numberOfBytes": "20"
      },
      "t_array(t_uint256)49_storage": {
        "base": "t_uint256",
        "encoding": "inplace",
        "label": "uint256[49]",
        "numberOfBytes": "1568"
      },
      "t_array(t_uint256)50_storage": {
        "base": "t_uint256",
        "encoding": "inplace",
        "label": "uint256[50]",
        "numberOfBytes": "1600"
      },
      "t_array(t_uint256)dyn_storage": {
        "base": "t_uint256",
        "encoding": "dynamic_array",
        "label": "uint256[]",
        "numberOfBytes": "32"
      },
      "t_bool": {
        "encoding": "inplace",
        "label": "bool",
        "numberOfBytes": "1"
      },
      "t_contract(IETSAccessControls)14815": {
        "encoding": "inplace",
        "label": "contract IETSAccessControls",
        "numberOfBytes": "20"
      },
      "t_contract(IETSTarget)15141": {
        "encoding": "inplace",
        "label": "contract IETSTarget",
        "numberOfBytes": "20"
      },
      "t_contract(IETSToken)15378": {
        "encoding": "inplace",
        "label": "contract IETSToken",
        "numberOfBytes": "20"
      },
      "t_mapping(t_address,t_uint256)": {
        "encoding": "mapping",
        "key": "t_address",
        "label": "mapping(address => uint256)",
        "numberOfBytes": "32",
        "value": "t_uint256"
      },
      "t_mapping(t_uint256,t_struct(TaggingRecord)14261_storage)": {
        "encoding": "mapping",
        "key": "t_uint256",
        "label": "mapping(uint256 => struct IETS.TaggingRecord)",
        "numberOfBytes": "32",
        "value": "t_struct(TaggingRecord)14261_storage"
      },
      "t_string_storage": {
        "encoding": "bytes",
        "label": "string",
        "numberOfBytes": "32"
      },
      "t_struct(TaggingRecord)14261_storage": {
        "encoding": "inplace",
        "label": "struct IETS.TaggingRecord",
        "members": [
          {
            "astId": 14252,
            "contract": "contracts/ETS.sol:ETS",
            "label": "tagIds",
            "offset": 0,
            "slot": "0",
            "type": "t_array(t_uint256)dyn_storage"
          },
          {
            "astId": 14254,
            "contract": "contracts/ETS.sol:ETS",
            "label": "targetId",
            "offset": 0,
            "slot": "1",
            "type": "t_uint256"
          },
          {
            "astId": 14256,
            "contract": "contracts/ETS.sol:ETS",
            "label": "recordType",
            "offset": 0,
            "slot": "2",
            "type": "t_string_storage"
          },
          {
            "astId": 14258,
            "contract": "contracts/ETS.sol:ETS",
            "label": "relayer",
            "offset": 0,
            "slot": "3",
            "type": "t_address"
          },
          {
            "astId": 14260,
            "contract": "contracts/ETS.sol:ETS",
            "label": "tagger",
            "offset": 0,
            "slot": "4",
            "type": "t_address"
          }
        ],
        "numberOfBytes": "160"
      },
      "t_uint256": {
        "encoding": "inplace",
        "label": "uint256",
        "numberOfBytes": "32"
      },
      "t_uint8": {
        "encoding": "inplace",
        "label": "uint8",
        "numberOfBytes": "1"
      }
    }
  }
}