{
  "address": "0x10e47F2565CA8dC003e29bc6467688206788caC9",
  "abi": [
    {
      "inputs": [
        {
          "internalType": "address",
          "name": "_etsRelayerLogic",
          "type": "address"
        },
        {
          "internalType": "contract IETSAccessControls",
          "name": "_etsAccessControls",
          "type": "address"
        },
        {
          "internalType": "contract IETS",
          "name": "_ets",
          "type": "address"
        },
        {
          "internalType": "contract IETSToken",
          "name": "_etsToken",
          "type": "address"
        },
        {
          "internalType": "contract IETSTarget",
          "name": "_etsTarget",
          "type": "address"
        }
      ],
      "stateMutability": "nonpayable",
      "type": "constructor"
    },
    {
      "inputs": [],
      "name": "NAME",
      "outputs": [
        {
          "internalType": "string",
          "name": "",
          "type": "string"
        }
      ],
      "stateMutability": "view",
      "type": "function"
    },
    {
      "inputs": [
        {
          "internalType": "string",
          "name": "_relayerName",
          "type": "string"
        }
      ],
      "name": "addRelayer",
      "outputs": [
        {
          "internalType": "address",
          "name": "relayer",
          "type": "address"
        }
      ],
      "stateMutability": "nonpayable",
      "type": "function"
    },
    {
      "inputs": [],
      "name": "ets",
      "outputs": [
        {
          "internalType": "contract IETS",
          "name": "",
          "type": "address"
        }
      ],
      "stateMutability": "view",
      "type": "function"
    },
    {
      "inputs": [],
      "name": "etsAccessControls",
      "outputs": [
        {
          "internalType": "contract IETSAccessControls",
          "name": "",
          "type": "address"
        }
      ],
      "stateMutability": "view",
      "type": "function"
    },
    {
      "inputs": [],
      "name": "etsTarget",
      "outputs": [
        {
          "internalType": "contract IETSTarget",
          "name": "",
          "type": "address"
        }
      ],
      "stateMutability": "view",
      "type": "function"
    },
    {
      "inputs": [],
      "name": "etsToken",
      "outputs": [
        {
          "internalType": "contract IETSToken",
          "name": "",
          "type": "address"
        }
      ],
      "stateMutability": "view",
      "type": "function"
    },
    {
      "inputs": [],
      "name": "getBeacon",
      "outputs": [
        {
          "internalType": "address",
          "name": "",
          "type": "address"
        }
      ],
      "stateMutability": "view",
      "type": "function"
    },
    {
      "inputs": [],
      "name": "getImplementation",
      "outputs": [
        {
          "internalType": "address",
          "name": "",
          "type": "address"
        }
      ],
      "stateMutability": "view",
      "type": "function"
    }
  ],
  "numDeployments": 4,
  "solcInputHash": "710b44bae61f938bdd6d1ab689c07430",
  "bytecode": "0x60a060405234801561001057600080fd5b5060405161204b38038061204b83398101604081905261002f916100e7565b8460405161003c906100c2565b6001600160a01b039091168152602001604051809103906000f080158015610068573d6000803e3d6000fd5b506001600160a01b03908116608052600180546001600160a01b031990811696831696909617905560028054861694821694909417909355600380548516928416929092179091556004805490931691161790555061015c565b610b8e806114bd83390190565b6001600160a01b03811681146100e457600080fd5b50565b600080600080600060a086880312156100ff57600080fd5b855161010a816100cf565b602087015190955061011b816100cf565b604087015190945061012c816100cf565b606087015190935061013d816100cf565b608087015190925061014e816100cf565b809150509295509295909350565b6080516113396101846000396000818160cb0152818161019d015261062201526113396000f3fe60806040523480156200001157600080fd5b5060043610620000935760003560e01c80638299f9f911620000625780638299f9f91462000118578063a3f4df7e146200012c578063aaf10f421462000178578063c09b06b4146200018257600080fd5b806315ccda2214620000985780632d6b3a6b14620000c957806346ca0f4d14620000f057806356c634891462000104575b600080fd5b600254620000ac906001600160a01b031681565b6040516001600160a01b0390911681526020015b60405180910390f35b7f0000000000000000000000000000000000000000000000000000000000000000620000ac565b600354620000ac906001600160a01b031681565b600454620000ac906001600160a01b031681565b600154620000ac906001600160a01b031681565b620001696040518060400160405280601681526020017f4554532052656c6179657220466163746f72792056310000000000000000000081525081565b604051620000c09190620007fc565b620000ac62000199565b620000ac6200019336600462000818565b62000225565b60007f00000000000000000000000000000000000000000000000000000000000000006001600160a01b0316635c60da1b6040518163ffffffff1660e01b8152600401602060405180830381865afa158015620001fa573d6000803e3d6000fd5b505050506040513d601f19601f820116820180604052508101906200022091906200088f565b905090565b6001546040517f277c3f40000000000000000000000000000000000000000000000000000000008152600091849184916001600160a01b03169063277c3f4090620002779085908590600401620008e3565b602060405180830381865afa15801562000295573d6000803e3d6000fd5b505050506040513d601f19601f82011682018060405250810190620002bb919062000901565b156200030e5760405162461bcd60e51b815260206004820152601360248201527f52656c61796572206e616d65206578697374730000000000000000000000000060448201526064015b60405180910390fd5b600082828080601f0160208091040260200160405190810160405280939291908181526020018383808284376000920191909152505082519293505050600211156200039d5760405162461bcd60e51b815260206004820152601660248201527f52656c61796572206e616d6520746f6f2073686f727400000000000000000000604482015260640162000305565b602081511115620003f15760405162461bcd60e51b815260206004820152601560248201527f52656c61796572206e616d6520746f6f206c6f6e670000000000000000000000604482015260640162000305565b6001546001600160a01b0316633498e6ab336040516001600160e01b031960e084901b1681526001600160a01b039091166004820152602401602060405180830381865afa15801562000448573d6000803e3d6000fd5b505050506040513d601f19601f820116820180604052508101906200046e919062000901565b6200060e576003546000906001600160a01b03166370a08231336040516001600160e01b031960e084901b1681526001600160a01b039091166004820152602401602060405180830381865afa158015620004cd573d6000803e3d6000fd5b505050506040513d601f19601f82011682018060405250810190620004f3919062000925565b11620005425760405162461bcd60e51b815260206004820152600d60248201527f4d757374206f776e204354414700000000000000000000000000000000000000604482015260640162000305565b6001546001600160a01b0316638776887a336040516001600160e01b031960e084901b1681526001600160a01b039091166004820152602401602060405180830381865afa15801562000599573d6000803e3d6000fd5b505050506040513d601f19601f82011682018060405250810190620005bf919062000901565b156200060e5760405162461bcd60e51b815260206004820152601360248201527f53656e646572206f776e732072656c6179657200000000000000000000000000604482015260640162000305565b6002546003546004546001546040516000947f0000000000000000000000000000000000000000000000000000000000000000947ff796e58700000000000000000000000000000000000000000000000000000000946200068e948e948e946001600160a01b03908116948116938116921690339081906024016200093f565b60408051601f198184030181529181526020820180517bffffffffffffffffffffffffffffffffffffffffffffffffffffffff166001600160e01b0319909416939093179092529051620006e2906200079e565b620006ef92919062000997565b604051809103906000f0801580156200070c573d6000803e3d6000fd5b506001546040517f2b70420b0000000000000000000000000000000000000000000000000000000081529192506001600160a01b031690632b70420b906200075f9084908b908b903390600401620009bb565b600060405180830381600087803b1580156200077a57600080fd5b505af11580156200078f573d6000803e3d6000fd5b50929998505050505050505050565b61090e80620009f683390190565b6000815180845260005b81811015620007d457602081850181015186830182015201620007b6565b81811115620007e7576000602083870101525b50601f01601f19169290920160200192915050565b602081526000620008116020830184620007ac565b9392505050565b600080602083850312156200082c57600080fd5b823567ffffffffffffffff808211156200084557600080fd5b818501915085601f8301126200085a57600080fd5b8135818111156200086a57600080fd5b8660208285010111156200087d57600080fd5b60209290920196919550909350505050565b600060208284031215620008a257600080fd5b81516001600160a01b03811681146200081157600080fd5b81835281816020850137506000828201602090810191909152601f909101601f19169091010190565b602081526000620008f9602083018486620008ba565b949350505050565b6000602082840312156200091457600080fd5b815180151581146200081157600080fd5b6000602082840312156200093857600080fd5b5051919050565b60e0815260006200095560e083018a8c620008ba565b6001600160a01b03988916602084015296881660408301525093861660608501529185166080840152841660a083015290921660c09092019190915292915050565b6001600160a01b0383168152604060208201526000620008f96040830184620007ac565b60006001600160a01b03808716835260606020840152620009e1606084018688620008ba565b91508084166040840152509594505050505056fe608060405260405161090e38038061090e83398101604081905261002291610460565b61002e82826000610035565b505061058a565b61003e83610100565b6040516001600160a01b038416907f1cf3b03a6cf19fa2baba4df148e9dcabedea7f8a5c07840e207e5c089be95d3e90600090a260008251118061007f5750805b156100fb576100f9836001600160a01b0316635c60da1b6040518163ffffffff1660e01b8152600401602060405180830381865afa1580156100c5573d6000803e3d6000fd5b505050506040513d601f19601f820116820180604052508101906100e99190610520565b836102a360201b6100291760201c565b505b505050565b610113816102cf60201b6100551760201c565b6101725760405162461bcd60e51b815260206004820152602560248201527f455243313936373a206e657720626561636f6e206973206e6f74206120636f6e6044820152641d1c9858dd60da1b60648201526084015b60405180910390fd5b6101e6816001600160a01b0316635c60da1b6040518163ffffffff1660e01b8152600401602060405180830381865afa1580156101b3573d6000803e3d6000fd5b505050506040513d601f19601f820116820180604052508101906101d79190610520565b6102cf60201b6100551760201c565b61024b5760405162461bcd60e51b815260206004820152603060248201527f455243313936373a20626561636f6e20696d706c656d656e746174696f6e206960448201526f1cc81b9bdd08184818dbdb9d1c9858dd60821b6064820152608401610169565b806102827fa3f0ad74e5423aebfd80d3ef4346578335a9a72aeaee59ff6cb3582b35133d5060001b6102de60201b6100641760201c565b80546001600160a01b0319166001600160a01b039290921691909117905550565b60606102c883836040518060600160405280602781526020016108e7602791396102e1565b9392505050565b6001600160a01b03163b151590565b90565b6060600080856001600160a01b0316856040516102fe919061053b565b600060405180830381855af49150503d8060008114610339576040519150601f19603f3d011682016040523d82523d6000602084013e61033e565b606091505b5090925090506103508683838761035a565b9695505050505050565b606083156103c65782516103bf576001600160a01b0385163b6103bf5760405162461bcd60e51b815260206004820152601d60248201527f416464726573733a2063616c6c20746f206e6f6e2d636f6e74726163740000006044820152606401610169565b50816103d0565b6103d083836103d8565b949350505050565b8151156103e85781518083602001fd5b8060405162461bcd60e51b81526004016101699190610557565b80516001600160a01b038116811461041957600080fd5b919050565b634e487b7160e01b600052604160045260246000fd5b60005b8381101561044f578181015183820152602001610437565b838111156100f95750506000910152565b6000806040838503121561047357600080fd5b61047c83610402565b60208401519092506001600160401b038082111561049957600080fd5b818501915085601f8301126104ad57600080fd5b8151818111156104bf576104bf61041e565b604051601f8201601f19908116603f011681019083821181831017156104e7576104e761041e565b8160405282815288602084870101111561050057600080fd5b610511836020830160208801610434565b80955050505050509250929050565b60006020828403121561053257600080fd5b6102c882610402565b6000825161054d818460208701610434565b9190910192915050565b6020815260008251806020840152610576816040850160208701610434565b601f01601f19169190910160400192915050565b61034e806105996000396000f3fe60806040523661001357610011610017565b005b6100115b610027610022610067565b610100565b565b606061004e83836040518060600160405280602781526020016102f260279139610124565b9392505050565b6001600160a01b03163b151590565b90565b600061009a7fa3f0ad74e5423aebfd80d3ef4346578335a9a72aeaee59ff6cb3582b35133d50546001600160a01b031690565b6001600160a01b0316635c60da1b6040518163ffffffff1660e01b8152600401602060405180830381865afa1580156100d7573d6000803e3d6000fd5b505050506040513d601f19601f820116820180604052508101906100fb9190610249565b905090565b3660008037600080366000845af43d6000803e80801561011f573d6000f35b3d6000fd5b6060600080856001600160a01b03168560405161014191906102a2565b600060405180830381855af49150503d806000811461017c576040519150601f19603f3d011682016040523d82523d6000602084013e610181565b606091505b50915091506101928683838761019c565b9695505050505050565b6060831561020d578251610206576001600160a01b0385163b6102065760405162461bcd60e51b815260206004820152601d60248201527f416464726573733a2063616c6c20746f206e6f6e2d636f6e747261637400000060448201526064015b60405180910390fd5b5081610217565b610217838361021f565b949350505050565b81511561022f5781518083602001fd5b8060405162461bcd60e51b81526004016101fd91906102be565b60006020828403121561025b57600080fd5b81516001600160a01b038116811461004e57600080fd5b60005b8381101561028d578181015183820152602001610275565b8381111561029c576000848401525b50505050565b600082516102b4818460208701610272565b9190910192915050565b60208152600082518060208401526102dd816040850160208701610272565b601f01601f1916919091016040019291505056fe416464726573733a206c6f772d6c6576656c2064656c65676174652063616c6c206661696c6564a26469706673582212206aff28f28a556854e1959c398c4bde4bbe7f7d27eb804929274197e0e326650364736f6c634300080c0033416464726573733a206c6f772d6c6576656c2064656c65676174652063616c6c206661696c6564a2646970667358221220acdc30888c1dfb866266cd36e2713cd7d956ba5cedcd2ca3114a5982add37f0164736f6c634300080c003360a060405234801561001057600080fd5b50604051610b8e380380610b8e83398101604081905261002f916101dd565b610038336100a6565b80604051610045906101d0565b6001600160a01b039091168152602001604051809103906000f080158015610071573d6000803e3d6000fd5b506001600160a01b03908116608052600180546001600160a01b0319169183169190911790556100a0326100f6565b5061020d565b600080546001600160a01b038381166001600160a01b0319831681178455604051919092169283917f8be0079c531659141344cd1fd0a4f28419497f9722a3daafe3b4186f6b6457e09190a35050565b6100fe610174565b6001600160a01b0381166101685760405162461bcd60e51b815260206004820152602660248201527f4f776e61626c653a206e6577206f776e657220697320746865207a65726f206160448201526564647265737360d01b60648201526084015b60405180910390fd5b610171816100a6565b50565b6000546001600160a01b031633146101ce5760405162461bcd60e51b815260206004820181905260248201527f4f776e61626c653a2063616c6c6572206973206e6f7420746865206f776e6572604482015260640161015f565b565b61052f8061065f83390190565b6000602082840312156101ef57600080fd5b81516001600160a01b038116811461020657600080fd5b9392505050565b60805161043061022f6000396000818161012f01526101bf01526104306000f3fe608060405234801561001057600080fd5b50600436106100725760003560e01c80638da5cb5b116100505780638da5cb5b146100b8578063d2977ad8146100c9578063f2fde38b146100dc57600080fd5b80631c1b8772146100775780635c60da1b1461008c578063715018a6146100b0575b600080fd5b61008a6100853660046103b9565b6100ef565b005b6100946101bb565b6040516001600160a01b03909116815260200160405180910390f35b61008a610244565b6000546001600160a01b0316610094565b600154610094906001600160a01b031681565b61008a6100ea3660046103b9565b610258565b6100f76102ed565b6040517f3659cfe60000000000000000000000000000000000000000000000000000000081526001600160a01b0382811660048301527f00000000000000000000000000000000000000000000000000000000000000001690633659cfe690602401600060405180830381600087803b15801561017357600080fd5b505af1158015610187573d6000803e3d6000fd5b50506001805473ffffffffffffffffffffffffffffffffffffffff19166001600160a01b0394909416939093179092555050565b60007f00000000000000000000000000000000000000000000000000000000000000006001600160a01b0316635c60da1b6040518163ffffffff1660e01b8152600401602060405180830381865afa15801561021b573d6000803e3d6000fd5b505050506040513d601f19601f8201168201806040525081019061023f91906103dd565b905090565b61024c6102ed565b6102566000610347565b565b6102606102ed565b6001600160a01b0381166102e15760405162461bcd60e51b815260206004820152602660248201527f4f776e61626c653a206e6577206f776e657220697320746865207a65726f206160448201527f646472657373000000000000000000000000000000000000000000000000000060648201526084015b60405180910390fd5b6102ea81610347565b50565b6000546001600160a01b031633146102565760405162461bcd60e51b815260206004820181905260248201527f4f776e61626c653a2063616c6c6572206973206e6f7420746865206f776e657260448201526064016102d8565b600080546001600160a01b0383811673ffffffffffffffffffffffffffffffffffffffff19831681178455604051919092169283917f8be0079c531659141344cd1fd0a4f28419497f9722a3daafe3b4186f6b6457e09190a35050565b6001600160a01b03811681146102ea57600080fd5b6000602082840312156103cb57600080fd5b81356103d6816103a4565b9392505050565b6000602082840312156103ef57600080fd5b81516103d6816103a456fea26469706673582212207022586f25971aa4e361832eca8ec7604d88a2aacc26a591e9c791bbfe69061864736f6c634300080c0033608060405234801561001057600080fd5b5060405161052f38038061052f83398101604081905261002f91610151565b61003833610047565b61004181610097565b50610181565b600080546001600160a01b038381166001600160a01b0319831681178455604051919092169283917f8be0079c531659141344cd1fd0a4f28419497f9722a3daafe3b4186f6b6457e09190a35050565b6100aa8161014260201b6101c71760201c565b6101205760405162461bcd60e51b815260206004820152603360248201527f5570677261646561626c65426561636f6e3a20696d706c656d656e746174696f60448201527f6e206973206e6f74206120636f6e747261637400000000000000000000000000606482015260840160405180910390fd5b600180546001600160a01b0319166001600160a01b0392909216919091179055565b6001600160a01b03163b151590565b60006020828403121561016357600080fd5b81516001600160a01b038116811461017a57600080fd5b9392505050565b61039f806101906000396000f3fe608060405234801561001057600080fd5b50600436106100675760003560e01c8063715018a611610050578063715018a6146100aa5780638da5cb5b146100b2578063f2fde38b146100c357600080fd5b80633659cfe61461006c5780635c60da1b14610081575b600080fd5b61007f61007a366004610339565b6100d6565b005b6001546001600160a01b03165b6040516001600160a01b03909116815260200160405180910390f35b61007f61011e565b6000546001600160a01b031661008e565b61007f6100d1366004610339565b610132565b6100de6101d6565b6100e781610230565b6040516001600160a01b038216907fbc7cd75a20ee27fd9adebab32041f755214dbc6bffa90cc0225b39da2e5c2d3b90600090a250565b6101266101d6565b61013060006102dc565b565b61013a6101d6565b6001600160a01b0381166101bb5760405162461bcd60e51b815260206004820152602660248201527f4f776e61626c653a206e6577206f776e657220697320746865207a65726f206160448201527f646472657373000000000000000000000000000000000000000000000000000060648201526084015b60405180910390fd5b6101c4816102dc565b50565b6001600160a01b03163b151590565b6000546001600160a01b031633146101305760405162461bcd60e51b815260206004820181905260248201527f4f776e61626c653a2063616c6c6572206973206e6f7420746865206f776e657260448201526064016101b2565b6001600160a01b0381163b6102ad5760405162461bcd60e51b815260206004820152603360248201527f5570677261646561626c65426561636f6e3a20696d706c656d656e746174696f60448201527f6e206973206e6f74206120636f6e74726163740000000000000000000000000060648201526084016101b2565b6001805473ffffffffffffffffffffffffffffffffffffffff19166001600160a01b0392909216919091179055565b600080546001600160a01b0383811673ffffffffffffffffffffffffffffffffffffffff19831681178455604051919092169283917f8be0079c531659141344cd1fd0a4f28419497f9722a3daafe3b4186f6b6457e09190a35050565b60006020828403121561034b57600080fd5b81356001600160a01b038116811461036257600080fd5b939250505056fea264697066735822122093cb9ee2e69ad93f2c0419efc8ccecd611bfe4bc434cbcdd89d978ec88c0e5ee64736f6c634300080c0033",
  "devdoc": {
    "kind": "dev",
    "methods": {},
    "stateVariables": {
      "ets": {
        "details": "Address and interface for ETS Core."
      },
      "etsAccessControls": {
        "details": "ETS access controls contract."
      },
      "etsTarget": {
        "details": "Address and interface for ETS Target."
      },
      "etsToken": {
        "details": "Address and interface for ETS Token"
      }
    },
    "version": 1
  },
  "userdoc": {
    "kind": "user",
    "methods": {
      "NAME()": {
        "notice": "Public constants"
      }
    },
    "version": 1
  },
  "storageLayout": {
    "storage": [
      {
        "astId": 12525,
        "contract": "contracts/ETSRelayerFactory.sol:ETSRelayerFactory",
        "label": "vaults",
        "offset": 0,
        "slot": "0",
        "type": "t_mapping(t_uint256,t_address)"
      },
      {
        "astId": 12532,
        "contract": "contracts/ETSRelayerFactory.sol:ETSRelayerFactory",
        "label": "etsAccessControls",
        "offset": 0,
        "slot": "1",
        "type": "t_contract(IETSAccessControls)14815"
      },
      {
        "astId": 12536,
        "contract": "contracts/ETSRelayerFactory.sol:ETSRelayerFactory",
        "label": "ets",
        "offset": 0,
        "slot": "2",
        "type": "t_contract(IETS)14629"
      },
      {
        "astId": 12540,
        "contract": "contracts/ETSRelayerFactory.sol:ETSRelayerFactory",
        "label": "etsToken",
        "offset": 0,
        "slot": "3",
        "type": "t_contract(IETSToken)15378"
      },
      {
        "astId": 12544,
        "contract": "contracts/ETSRelayerFactory.sol:ETSRelayerFactory",
        "label": "etsTarget",
        "offset": 0,
        "slot": "4",
        "type": "t_contract(IETSTarget)15141"
      }
    ],
    "types": {
      "t_address": {
        "encoding": "inplace",
        "label": "address",
        "numberOfBytes": "20"
      },
      "t_contract(IETS)14629": {
        "encoding": "inplace",
        "label": "contract IETS",
        "numberOfBytes": "20"
      },
      "t_contract(IETSAccessControls)14815": {
        "encoding": "inplace",
        "label": "contract IETSAccessControls",
        "numberOfBytes": "20"
      },
      "t_contract(IETSTarget)15141": {
        "encoding": "inplace",
        "label": "contract IETSTarget",
        "numberOfBytes": "20"
      },
      "t_contract(IETSToken)15378": {
        "encoding": "inplace",
        "label": "contract IETSToken",
        "numberOfBytes": "20"
      },
      "t_mapping(t_uint256,t_address)": {
        "encoding": "mapping",
        "key": "t_uint256",
        "label": "mapping(uint256 => address)",
        "numberOfBytes": "32",
        "value": "t_address"
      },
      "t_uint256": {
        "encoding": "inplace",
        "label": "uint256",
        "numberOfBytes": "32"
      }
    }
  }
}