{
  "_format": "hh-sol-artifact-1",
  "contractName": "HashtagProtocol",
  "sourceName": "contracts/release/HashtagProtocol.sol",
  "abi": [
    {
      "anonymous": false,
      "inputs": [
        {
          "indexed": false,
          "internalType": "contract HashtagAccessControls",
          "name": "previousAccessControls",
          "type": "address"
        },
        {
          "indexed": false,
          "internalType": "contract HashtagAccessControls",
          "name": "newAccessControls",
          "type": "address"
        }
      ],
      "name": "AccessControlsUpdated",
      "type": "event"
    },
    {
      "anonymous": false,
      "inputs": [
        {
          "indexed": false,
          "internalType": "address",
          "name": "previousAdmin",
          "type": "address"
        },
        {
          "indexed": false,
          "internalType": "address",
          "name": "newAdmin",
          "type": "address"
        }
      ],
      "name": "AdminChanged",
      "type": "event"
    },
    {
      "anonymous": false,
      "inputs": [
        {
          "indexed": true,
          "internalType": "address",
          "name": "owner",
          "type": "address"
        },
        {
          "indexed": true,
          "internalType": "address",
          "name": "approved",
          "type": "address"
        },
        {
          "indexed": true,
          "internalType": "uint256",
          "name": "tokenId",
          "type": "uint256"
        }
      ],
      "name": "Approval",
      "type": "event"
    },
    {
      "anonymous": false,
      "inputs": [
        {
          "indexed": true,
          "internalType": "address",
          "name": "owner",
          "type": "address"
        },
        {
          "indexed": true,
          "internalType": "address",
          "name": "operator",
          "type": "address"
        },
        {
          "indexed": false,
          "internalType": "bool",
          "name": "approved",
          "type": "bool"
        }
      ],
      "name": "ApprovalForAll",
      "type": "event"
    },
    {
      "anonymous": false,
      "inputs": [
        {
          "indexed": true,
          "internalType": "address",
          "name": "beacon",
          "type": "address"
        }
      ],
      "name": "BeaconUpgraded",
      "type": "event"
    },
    {
      "anonymous": false,
      "inputs": [
        {
          "indexed": false,
          "internalType": "uint256",
          "name": "originalHashtagMaxStringLength",
          "type": "uint256"
        },
        {
          "indexed": false,
          "internalType": "uint256",
          "name": "UpdatedHashtagMaxStringLength",
          "type": "uint256"
        }
      ],
      "name": "HashtagMaxStringLengthUpdated",
      "type": "event"
    },
    {
      "anonymous": false,
      "inputs": [
        {
          "indexed": true,
          "internalType": "uint256",
          "name": "tokenId",
          "type": "uint256"
        },
        {
          "indexed": true,
          "internalType": "address",
          "name": "caller",
          "type": "address"
        }
      ],
      "name": "HashtagRenewed",
      "type": "event"
    },
    {
      "anonymous": false,
      "inputs": [
        {
          "indexed": true,
          "internalType": "uint256",
          "name": "tokenId",
          "type": "uint256"
        },
        {
          "indexed": true,
          "internalType": "address",
          "name": "owner",
          "type": "address"
        }
      ],
      "name": "HashtagReset",
      "type": "event"
    },
    {
      "anonymous": false,
      "inputs": [
        {
          "indexed": true,
          "internalType": "uint256",
          "name": "tokenId",
          "type": "uint256"
        },
        {
          "indexed": false,
          "internalType": "string",
          "name": "displayHashtag",
          "type": "string"
        },
        {
          "indexed": true,
          "internalType": "address",
          "name": "publisher",
          "type": "address"
        },
        {
          "indexed": false,
          "internalType": "address",
          "name": "creator",
          "type": "address"
        }
      ],
      "name": "MintHashtag",
      "type": "event"
    },
    {
      "anonymous": false,
      "inputs": [
        {
          "indexed": false,
          "internalType": "string",
          "name": "baseURI",
          "type": "string"
        }
      ],
      "name": "NewBaseURI",
      "type": "event"
    },
    {
      "anonymous": false,
      "inputs": [
        {
          "indexed": false,
          "internalType": "uint256",
          "name": "originalOwnershipLength",
          "type": "uint256"
        },
        {
          "indexed": false,
          "internalType": "uint256",
          "name": "updatedOwnershipLength",
          "type": "uint256"
        }
      ],
      "name": "OwnershipTermLengthUpdated",
      "type": "event"
    },
    {
      "anonymous": false,
      "inputs": [
        {
          "indexed": false,
          "internalType": "address",
          "name": "account",
          "type": "address"
        }
      ],
      "name": "Paused",
      "type": "event"
    },
    {
      "anonymous": false,
      "inputs": [
        {
          "indexed": false,
          "internalType": "address",
          "name": "previousPlatformAddress",
          "type": "address"
        },
        {
          "indexed": false,
          "internalType": "address",
          "name": "newPlatformAddress",
          "type": "address"
        }
      ],
      "name": "PlatformSet",
      "type": "event"
    },
    {
      "anonymous": false,
      "inputs": [
        {
          "indexed": false,
          "internalType": "uint256",
          "name": "originalRenewalPeriod",
          "type": "uint256"
        },
        {
          "indexed": false,
          "internalType": "uint256",
          "name": "updatedRenewalPeriod",
          "type": "uint256"
        }
      ],
      "name": "RenewalPeriodUpdated",
      "type": "event"
    },
    {
      "anonymous": false,
      "inputs": [
        {
          "indexed": true,
          "internalType": "address",
          "name": "from",
          "type": "address"
        },
        {
          "indexed": true,
          "internalType": "address",
          "name": "to",
          "type": "address"
        },
        {
          "indexed": true,
          "internalType": "uint256",
          "name": "tokenId",
          "type": "uint256"
        }
      ],
      "name": "Transfer",
      "type": "event"
    },
    {
      "anonymous": false,
      "inputs": [
        {
          "indexed": false,
          "internalType": "address",
          "name": "account",
          "type": "address"
        }
      ],
      "name": "Unpaused",
      "type": "event"
    },
    {
      "anonymous": false,
      "inputs": [
        {
          "indexed": true,
          "internalType": "address",
          "name": "implementation",
          "type": "address"
        }
      ],
      "name": "Upgraded",
      "type": "event"
    },
    {
      "inputs": [],
      "name": "NAME",
      "outputs": [
        {
          "internalType": "string",
          "name": "",
          "type": "string"
        }
      ],
      "stateMutability": "view",
      "type": "function"
    },
    {
      "inputs": [],
      "name": "VERSION",
      "outputs": [
        {
          "internalType": "string",
          "name": "",
          "type": "string"
        }
      ],
      "stateMutability": "view",
      "type": "function"
    },
    {
      "inputs": [],
      "name": "accessControls",
      "outputs": [
        {
          "internalType": "contract HashtagAccessControls",
          "name": "",
          "type": "address"
        }
      ],
      "stateMutability": "view",
      "type": "function"
    },
    {
      "inputs": [
        {
          "internalType": "address",
          "name": "to",
          "type": "address"
        },
        {
          "internalType": "uint256",
          "name": "tokenId",
          "type": "uint256"
        }
      ],
      "name": "approve",
      "outputs": [],
      "stateMutability": "nonpayable",
      "type": "function"
    },
    {
      "inputs": [
        {
          "internalType": "address",
          "name": "owner",
          "type": "address"
        }
      ],
      "name": "balanceOf",
      "outputs": [
        {
          "internalType": "uint256",
          "name": "",
          "type": "uint256"
        }
      ],
      "stateMutability": "view",
      "type": "function"
    },
    {
      "inputs": [],
      "name": "baseURI",
      "outputs": [
        {
          "internalType": "string",
          "name": "",
          "type": "string"
        }
      ],
      "stateMutability": "view",
      "type": "function"
    },
    {
      "inputs": [
        {
          "internalType": "uint256",
          "name": "tokenId",
          "type": "uint256"
        }
      ],
      "name": "burn",
      "outputs": [],
      "stateMutability": "nonpayable",
      "type": "function"
    },
    {
      "inputs": [
        {
          "internalType": "uint256",
          "name": "tokenId",
          "type": "uint256"
        }
      ],
      "name": "exists",
      "outputs": [
        {
          "internalType": "bool",
          "name": "",
          "type": "bool"
        }
      ],
      "stateMutability": "view",
      "type": "function"
    },
    {
      "inputs": [
        {
          "internalType": "uint256",
          "name": "tokenId",
          "type": "uint256"
        }
      ],
      "name": "getApproved",
      "outputs": [
        {
          "internalType": "address",
          "name": "",
          "type": "address"
        }
      ],
      "stateMutability": "view",
      "type": "function"
    },
    {
      "inputs": [
        {
          "internalType": "uint256",
          "name": "_tokenId",
          "type": "uint256"
        }
      ],
      "name": "getCreatorAddress",
      "outputs": [
        {
          "internalType": "address",
          "name": "_creator",
          "type": "address"
        }
      ],
      "stateMutability": "view",
      "type": "function"
    },
    {
      "inputs": [
        {
          "internalType": "string",
          "name": "hashtag",
          "type": "string"
        }
      ],
      "name": "getHashtagId",
      "outputs": [
        {
          "internalType": "uint256",
          "name": "hashtagId",
          "type": "uint256"
        }
      ],
      "stateMutability": "view",
      "type": "function"
    },
    {
      "inputs": [
        {
          "internalType": "uint256",
          "name": "_tokenId",
          "type": "uint256"
        }
      ],
      "name": "getPaymentAddresses",
      "outputs": [
        {
          "internalType": "address payable",
          "name": "_platform",
          "type": "address"
        },
        {
          "internalType": "address payable",
          "name": "_owner",
          "type": "address"
        }
      ],
      "stateMutability": "view",
      "type": "function"
    },
    {
      "inputs": [],
      "name": "hashtagMaxStringLength",
      "outputs": [
        {
          "internalType": "uint256",
          "name": "",
          "type": "uint256"
        }
      ],
      "stateMutability": "view",
      "type": "function"
    },
    {
      "inputs": [],
      "name": "hashtagMinStringLength",
      "outputs": [
        {
          "internalType": "uint256",
          "name": "",
          "type": "uint256"
        }
      ],
      "stateMutability": "view",
      "type": "function"
    },
    {
      "inputs": [
        {
          "internalType": "string",
          "name": "",
          "type": "string"
        }
      ],
      "name": "hashtagToTokenId",
      "outputs": [
        {
          "internalType": "uint256",
          "name": "",
          "type": "uint256"
        }
      ],
      "stateMutability": "view",
      "type": "function"
    },
    {
      "inputs": [
        {
          "internalType": "contract HashtagAccessControls",
          "name": "_accessControls",
          "type": "address"
        },
        {
          "internalType": "address payable",
          "name": "_platform",
          "type": "address"
        }
      ],
      "name": "initialize",
      "outputs": [],
      "stateMutability": "nonpayable",
      "type": "function"
    },
    {
      "inputs": [
        {
          "internalType": "address",
          "name": "owner",
          "type": "address"
        },
        {
          "internalType": "address",
          "name": "operator",
          "type": "address"
        }
      ],
      "name": "isApprovedForAll",
      "outputs": [
        {
          "internalType": "bool",
          "name": "",
          "type": "bool"
        }
      ],
      "stateMutability": "view",
      "type": "function"
    },
    {
      "inputs": [
        {
          "internalType": "string",
          "name": "_hashtag",
          "type": "string"
        },
        {
          "internalType": "address payable",
          "name": "_publisher",
          "type": "address"
        },
        {
          "internalType": "address",
          "name": "_creator",
          "type": "address"
        }
      ],
      "name": "mint",
      "outputs": [
        {
          "internalType": "uint256",
          "name": "_tokenId",
          "type": "uint256"
        }
      ],
      "stateMutability": "payable",
      "type": "function"
    },
    {
      "inputs": [],
      "name": "name",
      "outputs": [
        {
          "internalType": "string",
          "name": "",
          "type": "string"
        }
      ],
      "stateMutability": "view",
      "type": "function"
    },
    {
      "inputs": [
        {
          "internalType": "uint256",
          "name": "tokenId",
          "type": "uint256"
        }
      ],
      "name": "ownerOf",
      "outputs": [
        {
          "internalType": "address",
          "name": "",
          "type": "address"
        }
      ],
      "stateMutability": "view",
      "type": "function"
    },
    {
      "inputs": [],
      "name": "ownershipTermLength",
      "outputs": [
        {
          "internalType": "uint256",
          "name": "",
          "type": "uint256"
        }
      ],
      "stateMutability": "view",
      "type": "function"
    },
    {
      "inputs": [],
      "name": "pause",
      "outputs": [],
      "stateMutability": "nonpayable",
      "type": "function"
    },
    {
      "inputs": [],
      "name": "paused",
      "outputs": [
        {
          "internalType": "bool",
          "name": "",
          "type": "bool"
        }
      ],
      "stateMutability": "view",
      "type": "function"
    },
    {
      "inputs": [],
      "name": "platform",
      "outputs": [
        {
          "internalType": "address payable",
          "name": "",
          "type": "address"
        }
      ],
      "stateMutability": "view",
      "type": "function"
    },
    {
      "inputs": [
        {
          "internalType": "uint256",
          "name": "_tokenId",
          "type": "uint256"
        }
      ],
      "name": "recycleHashtag",
      "outputs": [],
      "stateMutability": "nonpayable",
      "type": "function"
    },
    {
      "inputs": [
        {
          "internalType": "uint256",
          "name": "_tokenId",
          "type": "uint256"
        }
      ],
      "name": "renewHashtag",
      "outputs": [],
      "stateMutability": "nonpayable",
      "type": "function"
    },
    {
      "inputs": [
        {
          "internalType": "address",
          "name": "from",
          "type": "address"
        },
        {
          "internalType": "address",
          "name": "to",
          "type": "address"
        },
        {
          "internalType": "uint256",
          "name": "tokenId",
          "type": "uint256"
        }
      ],
      "name": "safeTransferFrom",
      "outputs": [],
      "stateMutability": "nonpayable",
      "type": "function"
    },
    {
      "inputs": [
        {
          "internalType": "address",
          "name": "from",
          "type": "address"
        },
        {
          "internalType": "address",
          "name": "to",
          "type": "address"
        },
        {
          "internalType": "uint256",
          "name": "tokenId",
          "type": "uint256"
        },
        {
          "internalType": "bytes",
          "name": "_data",
          "type": "bytes"
        }
      ],
      "name": "safeTransferFrom",
      "outputs": [],
      "stateMutability": "nonpayable",
      "type": "function"
    },
    {
      "inputs": [
        {
          "internalType": "address",
          "name": "operator",
          "type": "address"
        },
        {
          "internalType": "bool",
          "name": "approved",
          "type": "bool"
        }
      ],
      "name": "setApprovalForAll",
      "outputs": [],
      "stateMutability": "nonpayable",
      "type": "function"
    },
    {
      "inputs": [
        {
          "internalType": "string",
          "name": "newBaseURI",
          "type": "string"
        }
      ],
      "name": "setBaseURI",
      "outputs": [],
      "stateMutability": "nonpayable",
      "type": "function"
    },
    {
      "inputs": [
        {
          "internalType": "uint256",
          "name": "_hashtagMaxStringLength",
          "type": "uint256"
        }
      ],
      "name": "setHashtagMaxStringLength",
      "outputs": [],
      "stateMutability": "nonpayable",
      "type": "function"
    },
    {
      "inputs": [
        {
          "internalType": "uint256",
          "name": "_ownershipTermLength",
          "type": "uint256"
        }
      ],
      "name": "setOwnershipTermLength",
      "outputs": [],
      "stateMutability": "nonpayable",
      "type": "function"
    },
    {
      "inputs": [
        {
          "internalType": "address payable",
          "name": "_platform",
          "type": "address"
        }
      ],
      "name": "setPlatform",
      "outputs": [],
      "stateMutability": "nonpayable",
      "type": "function"
    },
    {
      "inputs": [
        {
          "internalType": "bytes4",
          "name": "interfaceId",
          "type": "bytes4"
        }
      ],
      "name": "supportsInterface",
      "outputs": [
        {
          "internalType": "bool",
          "name": "",
          "type": "bool"
        }
      ],
      "stateMutability": "view",
      "type": "function"
    },
    {
      "inputs": [],
      "name": "symbol",
      "outputs": [
        {
          "internalType": "string",
          "name": "",
          "type": "string"
        }
      ],
      "stateMutability": "view",
      "type": "function"
    },
    {
      "inputs": [
        {
          "internalType": "uint256",
          "name": "",
          "type": "uint256"
        }
      ],
      "name": "tokenIdToHashtag",
      "outputs": [
        {
          "internalType": "address",
          "name": "originalPublisher",
          "type": "address"
        },
        {
          "internalType": "address",
          "name": "creator",
          "type": "address"
        },
        {
          "internalType": "string",
          "name": "displayVersion",
          "type": "string"
        }
      ],
      "stateMutability": "view",
      "type": "function"
    },
    {
      "inputs": [
        {
          "internalType": "uint256",
          "name": "",
          "type": "uint256"
        }
      ],
      "name": "tokenIdToLastTransferTime",
      "outputs": [
        {
          "internalType": "uint256",
          "name": "",
          "type": "uint256"
        }
      ],
      "stateMutability": "view",
      "type": "function"
    },
    {
      "inputs": [],
      "name": "tokenPointer",
      "outputs": [
        {
          "internalType": "uint256",
          "name": "",
          "type": "uint256"
        }
      ],
      "stateMutability": "view",
      "type": "function"
    },
    {
      "inputs": [
        {
          "internalType": "uint256",
          "name": "tokenId",
          "type": "uint256"
        }
      ],
      "name": "tokenURI",
      "outputs": [
        {
          "internalType": "string",
          "name": "",
          "type": "string"
        }
      ],
      "stateMutability": "view",
      "type": "function"
    },
    {
      "inputs": [
        {
          "internalType": "address",
          "name": "from",
          "type": "address"
        },
        {
          "internalType": "address",
          "name": "to",
          "type": "address"
        },
        {
          "internalType": "uint256",
          "name": "tokenId",
          "type": "uint256"
        }
      ],
      "name": "transferFrom",
      "outputs": [],
      "stateMutability": "nonpayable",
      "type": "function"
    },
    {
      "inputs": [],
      "name": "unPause",
      "outputs": [],
      "stateMutability": "nonpayable",
      "type": "function"
    },
    {
      "inputs": [
        {
          "internalType": "contract HashtagAccessControls",
          "name": "_accessControls",
          "type": "address"
        }
      ],
      "name": "updateAccessControls",
      "outputs": [],
      "stateMutability": "nonpayable",
      "type": "function"
    },
    {
      "inputs": [
        {
          "internalType": "address",
          "name": "newImplementation",
          "type": "address"
        }
      ],
      "name": "upgradeTo",
      "outputs": [],
      "stateMutability": "nonpayable",
      "type": "function"
    },
    {
      "inputs": [
        {
          "internalType": "address",
          "name": "newImplementation",
          "type": "address"
        },
        {
          "internalType": "bytes",
          "name": "data",
          "type": "bytes"
        }
      ],
      "name": "upgradeToAndCall",
      "outputs": [],
      "stateMutability": "payable",
      "type": "function"
    },
    {
      "inputs": [],
      "name": "version",
      "outputs": [
        {
          "internalType": "string",
          "name": "",
          "type": "string"
        }
      ],
      "stateMutability": "pure",
      "type": "function"
    }
  ],
  "bytecode": "0x60a06040523060601b60805234801561001757600080fd5b5060805160601c613f7161004b60003960008181610cf401528181610d340152818161119101526111d10152613f716000f3fe6080604052600436106102725760003560e01c80636c0360eb1161014f578063a30b4db9116100c1578063db7af5fb1161007a578063db7af5fb146107c7578063e2e982c8146107de578063e985e9c51461080d578063f66e762314610856578063f7b188a514610876578063ffa1ad741461088b57610272565b8063a30b4db9146106b6578063a3f4df7e146106f0578063b88d4fde1461072e578063c87b56dd1461074e578063d5f053fa1461076e578063d977a6531461078e57610272565b80637e6d945e116101135780637e6d945e146105eb5780638456cb59146105fe578063878327ab1461061357806390b467ea1461065357806395d89b4114610681578063a22cb4651461069657610272565b80636c0360eb1461055e5780636ef3da941461057357806370a0823114610593578063748365ef146105b3578063795cd9d0146105d457610272565b806342966c68116101e85780635408dd71116101ac5780635408dd711461049857806354fd4d50146104b857806355f804b3146104e65780635c975abb146105065780636352211e1461051e5780636945c5ea1461053e57610272565b806342966c6814610404578063485cc955146104245780634bde38c8146104445780634f1ef286146104655780634f558e791461047857610272565b806323b872dd1161023a57806323b872dd1461034d5780632c32eb7d1461036d57806332da3526146103845780633659cfe6146103a45780634177a588146103c457806342842e0e146103e457610272565b806301ffc9a71461027757806302831651146102ac57806306fdde03146102d1578063081812fc146102f3578063095ea7b31461032b575b600080fd5b34801561028357600080fd5b5061029761029236600461385c565b6108bc565b60405190151581526020015b60405180910390f35b3480156102b857600080fd5b506102c36101935481565b6040519081526020016102a3565b3480156102dd57600080fd5b506102e66108cf565b6040516102a39190613acb565b3480156102ff57600080fd5b5061031361030e366004613992565b610961565b6040516001600160a01b0390911681526020016102a3565b34801561033757600080fd5b5061034b610346366004613815565b6109ee565b005b34801561035957600080fd5b5061034b6103683660046136f0565b610b04565b34801561037957600080fd5b506102c36101945481565b34801561039057600080fd5b5061034b61039f366004613992565b610b36565b3480156103b057600080fd5b5061034b6103bf36600461369c565b610ce9565b3480156103d057600080fd5b5061034b6103df366004613992565b610db2565b3480156103f057600080fd5b5061034b6103ff3660046136f0565b610e9f565b34801561041057600080fd5b5061034b61041f366004613992565b610eba565b34801561043057600080fd5b5061034b61043f366004613894565b610fd7565b34801561045057600080fd5b5061019654610313906001600160a01b031681565b61034b6104733660046137c7565b611186565b34801561048457600080fd5b50610297610493366004613992565b611240565b3480156104a457600080fd5b506102c36104b33660046138a6565b61124b565b3480156104c457600080fd5b506040805180820190915260058152640302e322e360dc1b60208201526102e6565b3480156104f257600080fd5b5061034b6105013660046138a6565b6112b3565b34801561051257600080fd5b5060975460ff16610297565b34801561052a57600080fd5b50610313610539366004613992565b611398565b34801561054a57600080fd5b5061034b61055936600461369c565b61140f565b34801561056a57600080fd5b506102e6611510565b34801561057f57600080fd5b5061034b61058e36600461369c565b61159f565b34801561059f57600080fd5b506102c36105ae36600461369c565b611713565b3480156105bf57600080fd5b5061019754610313906001600160a01b031681565b3480156105e057600080fd5b506102c36101955481565b6102c36105f93660046138e6565b61179a565b34801561060a57600080fd5b5061034b611a1e565b34801561061f57600080fd5b5061063361062e366004613992565b611ace565b604080516001600160a01b039384168152929091166020830152016102a3565b34801561065f57600080fd5b506102c361066e366004613992565b61019a6020526000908152604090205481565b34801561068d57600080fd5b506102e6611af2565b3480156106a257600080fd5b5061034b6106b136600461379a565b611b01565b3480156106c257600080fd5b506103136106d1366004613992565b600090815261019860205260409020600101546001600160a01b031690565b3480156106fc57600080fd5b506102e660405180604001604052806012815260200171242a281d102420a9a42a20a3902a37b5b2b760711b81525081565b34801561073a57600080fd5b5061034b610749366004613730565b611b0c565b34801561075a57600080fd5b506102e6610769366004613992565b611b44565b34801561077a57600080fd5b5061034b610789366004613992565b611c0f565b34801561079a57600080fd5b506102c36107a936600461394c565b80516020818301810180516101998252928201919093012091525481565b3480156107d357600080fd5b506102c36101925481565b3480156107ea57600080fd5b506107fe6107f9366004613992565b611cb7565b6040516102a393929190613a21565b34801561081957600080fd5b506102976108283660046136b8565b6001600160a01b039182166000908152606a6020908152604080832093909416825291909152205460ff1690565b34801561086257600080fd5b5061034b610871366004613992565b611d70565b34801561088257600080fd5b5061034b611e55565b34801561089757600080fd5b506102e6604051806040016040528060058152602001640302e322e360dc1b81525081565b60006108c782611f03565b90505b919050565b6060606580546108de90613e2f565b80601f016020809104026020016040519081016040528092919081815260200182805461090a90613e2f565b80156109575780601f1061092c57610100808354040283529160200191610957565b820191906000526020600020905b81548152906001019060200180831161093a57829003601f168201915b5050505050905090565b600061096c82611f53565b6109d25760405162461bcd60e51b815260206004820152602c60248201527f4552433732313a20617070726f76656420717565727920666f72206e6f6e657860448201526b34b9ba32b73a103a37b5b2b760a11b60648201526084015b60405180910390fd5b506000908152606960205260409020546001600160a01b031690565b60006109f982611398565b9050806001600160a01b0316836001600160a01b03161415610a675760405162461bcd60e51b815260206004820152602160248201527f4552433732313a20617070726f76616c20746f2063757272656e74206f776e656044820152603960f91b60648201526084016109c9565b336001600160a01b0382161480610a835750610a838133610828565b610af55760405162461bcd60e51b815260206004820152603860248201527f4552433732313a20617070726f76652063616c6c6572206973206e6f74206f7760448201527f6e6572206e6f7220617070726f76656420666f7220616c6c000000000000000060648201526084016109c9565b610aff8383611f70565b505050565b610b0f335b82611fde565b610b2b5760405162461bcd60e51b81526004016109c990613cff565b610aff8383836120c4565b610b3f81611f53565b610b8b5760405162461bcd60e51b815260206004820181905260248201527f72656379636c65486173687461673a20496e76616c696420746f6b656e20494460448201526064016109c9565b610196546001600160a01b0316610ba182611398565b6001600160a01b03161415610c0e5760405162461bcd60e51b815260206004820152602d60248201527f72656379636c65486173687461673a20416c7265616479206f776e656420627960448201526c2074686520706c6174666f726d60981b60648201526084016109c9565b600081815261019a6020526040902054610192544290610c2f90839061226f565b10610c995760405162461bcd60e51b815260206004820152603460248201527f72656379636c65486173687461673a20546f6b656e206e6f7420656c696769626044820152731b1948199bdc881c9958de58db1a5b99c81e595d60621b60648201526084016109c9565b610cb8610ca583611398565b610196546001600160a01b0316846120c4565b604051339083907ff55b71188745682e3ad8eb1b41aec0980f6f59e48efa8475a1ce8e6d953daa9c90600090a35050565b306001600160a01b037f0000000000000000000000000000000000000000000000000000000000000000161415610d325760405162461bcd60e51b81526004016109c990613c22565b7f00000000000000000000000000000000000000000000000000000000000000006001600160a01b0316610d6461227b565b6001600160a01b031614610d8a5760405162461bcd60e51b81526004016109c990613c6e565b610d93816122a9565b60408051600080825260208201909252610daf9183919061234f565b50565b610197546001600160a01b03166324d7806c336040516001600160e01b031960e084901b1681526001600160a01b03909116600482015260240160206040518083038186803b158015610e0457600080fd5b505afa158015610e18573d6000803e3d6000fd5b505050506040513d601f19601f82011682018060405250810190610e3c9190613840565b610e585760405162461bcd60e51b81526004016109c990613cba565b61019580549082905560408051828152602081018490527f2c77870043be137c2a74a3b931d7d19bb2dc102f01ad84b3e94418bcd0b5a4e891015b60405180910390a15050565b610aff83838360405180602001604052806000815250611b0c565b610197546001600160a01b03166324d7806c336040516001600160e01b031960e084901b1681526001600160a01b03909116600482015260240160206040518083038186803b158015610f0c57600080fd5b505afa158015610f20573d6000803e3d6000fd5b505050506040513d601f19601f82011682018060405250810190610f449190613840565b610f605760405162461bcd60e51b81526004016109c990613cba565b610f6933610b09565b610fce5760405162461bcd60e51b815260206004820152603060248201527f4552433732314275726e61626c653a2063616c6c6572206973206e6f74206f7760448201526f1b995c881b9bdc88185c1c1c9bdd995960821b60648201526084016109c9565b610daf8161249a565b600054610100900460ff16610ff25760005460ff1615610ff6565b303b155b6110595760405162461bcd60e51b815260206004820152602e60248201527f496e697469616c697a61626c653a20636f6e747261637420697320616c72656160448201526d191e481a5b9a5d1a585b1a5e995960921b60648201526084016109c9565b600054610100900460ff16158015611084576000805460ff1961ff0019909116610100171660011790555b6110d56040518060400160405280601081526020016f12185cda1d1859c8141c9bdd1bd8dbdb60821b815250604051806040016040528060078152602001664841534854414760c81b815250612541565b6110dd612582565b6110e56125c9565b61019780546001600160a01b038086166001600160a01b0319928316179092556101968054928516929091169190911790556303c26700610192556040805180820190915260208082527f68747470733a2f2f6170692e686173687461672d70726f746f636f6c2e696f2f91810191825261116391610191916134b3565b506003610194556020610195558015610aff576000805461ff0019169055505050565b306001600160a01b037f00000000000000000000000000000000000000000000000000000000000000001614156111cf5760405162461bcd60e51b81526004016109c990613c22565b7f00000000000000000000000000000000000000000000000000000000000000006001600160a01b031661120161227b565b6001600160a01b0316146112275760405162461bcd60e51b81526004016109c990613c6e565b611230826122a9565b61123c8282600161234f565b5050565b60006108c782611f53565b600061019961128f84848080601f01602080910402602001604051908101604052809392919081815260200183838082843760009201919091525061260092505050565b60405161129c91906139d6565b908152602001604051809103902054905092915050565b610197546001600160a01b03166324d7806c336040516001600160e01b031960e084901b1681526001600160a01b03909116600482015260240160206040518083038186803b15801561130557600080fd5b505afa158015611319573d6000803e3d6000fd5b505050506040513d601f19601f8201168201806040525081019061133d9190613840565b6113595760405162461bcd60e51b81526004016109c990613cba565b6113666101918383613537565b507f325d37e8fb549c86966f09bc3e6f62eb3afa93b255d6e3234338001f3d80bd86610191604051610e939190613ade565b6000818152606760205260408120546001600160a01b0316806108c75760405162461bcd60e51b815260206004820152602960248201527f4552433732313a206f776e657220717565727920666f72206e6f6e657869737460448201526832b73a103a37b5b2b760b91b60648201526084016109c9565b610197546001600160a01b03166324d7806c336040516001600160e01b031960e084901b1681526001600160a01b03909116600482015260240160206040518083038186803b15801561146157600080fd5b505afa158015611475573d6000803e3d6000fd5b505050506040513d601f19601f820116820180604052508101906114999190613840565b6114b55760405162461bcd60e51b81526004016109c990613cba565b61019680546001600160a01b038381166001600160a01b031983168117909355604080519190921680825260208201939093527f0e8ce4b57fd24de168e9c8d76109cb59a7852e78b3575da1ba2077dd53d330ec9101610e93565b610191805461151e90613e2f565b80601f016020809104026020016040519081016040528092919081815260200182805461154a90613e2f565b80156115975780601f1061156c57610100808354040283529160200191611597565b820191906000526020600020905b81548152906001019060200180831161157a57829003601f168201915b505050505081565b610197546001600160a01b03166324d7806c336040516001600160e01b031960e084901b1681526001600160a01b03909116600482015260240160206040518083038186803b1580156115f157600080fd5b505afa158015611605573d6000803e3d6000fd5b505050506040513d601f19601f820116820180604052508101906116299190613840565b6116455760405162461bcd60e51b81526004016109c990613cba565b6001600160a01b0381166116b85760405162461bcd60e51b815260206004820152603460248201527f4861736874616750726f746f636f6c2e757064617465416363657373436f6e74604482015273726f6c733a2043616e6e6f74206265207a65726f60601b60648201526084016109c9565b61019780546001600160a01b038381166001600160a01b031983168117909355604080519190921680825260208201939093527f31073599bfae2533a348dc816b0ce777b707aa9b67015ca2d86585e842b5c6e99101610e93565b60006001600160a01b03821661177e5760405162461bcd60e51b815260206004820152602a60248201527f4552433732313a2062616c616e636520717565727920666f7220746865207a65604482015269726f206164647265737360b01b60648201526084016109c9565b506001600160a01b031660009081526068602052604090205490565b61019754604051630830b35960e31b81526001600160a01b03848116600483015260009216906341859ac89060240160206040518083038186803b1580156117e157600080fd5b505afa1580156117f5573d6000803e3d6000fd5b505050506040513d601f19601f820116820180604052508101906118199190613840565b6118755760405162461bcd60e51b815260206004820152602760248201527f4d696e743a20546865207075626c6973686572206d7573742062652077686974604482015266195b1a5cdd195960ca1b60648201526084016109c9565b60006118b686868080601f0160208091040260200160405190810160405280939291908181526020018383808284376000920191909152506127d992505050565b610193549091506118c890600161226f565b610193819055610196546118e5906001600160a01b031682612bc6565b6040518060600160405280866001600160a01b03168152602001856001600160a01b0316815260200188888080601f01602080910402602001604051908101604052809392919081815260200183838082843760009201829052509390945250508381526101986020908152604091829020845181546001600160a01b039182166001600160a01b0319918216178355868401516001840180549190931691161790559184015180519293506119a492600285019291909101906134b3565b5090505080610199836040516119ba91906139d6565b908152602001604051809103902081905550846001600160a01b0316817f5f85fda711aa96abf7ad634949eccb4f5086cb03f4b9c731c8e584e22cfe252f898988604051611a0a93929190613a8a565b60405180910390a39150505b949350505050565b610197546001600160a01b03166324d7806c336040516001600160e01b031960e084901b1681526001600160a01b03909116600482015260240160206040518083038186803b158015611a7057600080fd5b505afa158015611a84573d6000803e3d6000fd5b505050506040513d601f19601f82011682018060405250810190611aa89190613840565b611ac45760405162461bcd60e51b81526004016109c990613cba565b611acc612be0565b565b6101965460009081906001600160a01b0316611ae984611398565b91509150915091565b6060606680546108de90613e2f565b61123c338383612c78565b611b163383611fde565b611b325760405162461bcd60e51b81526004016109c990613cff565b611b3e84848484612d47565b50505050565b6060611b4f82611f53565b611bb35760405162461bcd60e51b815260206004820152602f60248201527f4552433732314d657461646174613a2055524920717565727920666f72206e6f60448201526e3732bc34b9ba32b73a103a37b5b2b760891b60648201526084016109c9565b6000611bbd612d7a565b90506000815111611bdd5760405180602001604052806000815250611c08565b80611be784612d8a565b604051602001611bf89291906139f2565b6040516020818303038152906040525b9392505050565b611c1881611398565b6001600160a01b0316336001600160a01b031614611c785760405162461bcd60e51b815260206004820152601c60248201527f72656e6577486173687461673a20496e76616c69642073656e6465720000000060448201526064016109c9565b600081815261019a602052604080822042905551339183917f4b3fb07ae9201b1778414739d2679d5d30b131b54a4e712c83e4de60e87263009190a350565b610198602052600090815260409020805460018201546002830180546001600160a01b03938416949290931692611ced90613e2f565b80601f0160208091040260200160405190810160405280929190818152602001828054611d1990613e2f565b8015611d665780601f10611d3b57610100808354040283529160200191611d66565b820191906000526020600020905b815481529060010190602001808311611d4957829003601f168201915b5050505050905083565b610197546001600160a01b03166324d7806c336040516001600160e01b031960e084901b1681526001600160a01b03909116600482015260240160206040518083038186803b158015611dc257600080fd5b505afa158015611dd6573d6000803e3d6000fd5b505050506040513d601f19601f82011682018060405250810190611dfa9190613840565b611e165760405162461bcd60e51b81526004016109c990613cba565b61019280549082905560408051828152602081018490527f7550fd28481dfa2a7590562881c3fffa398e97624ad6eeae494cf36c51e2a9069101610e93565b610197546001600160a01b03166324d7806c336040516001600160e01b031960e084901b1681526001600160a01b03909116600482015260240160206040518083038186803b158015611ea757600080fd5b505afa158015611ebb573d6000803e3d6000fd5b505050506040513d601f19601f82011682018060405250810190611edf9190613840565b611efb5760405162461bcd60e51b81526004016109c990613cba565b611acc612ea5565b60006001600160e01b031982166380ac58cd60e01b1480611f3457506001600160e01b03198216635b5e139f60e01b145b806108c757506301ffc9a760e01b6001600160e01b03198316146108c7565b6000908152606760205260409020546001600160a01b0316151590565b600081815260696020526040902080546001600160a01b0319166001600160a01b0384169081179091558190611fa582611398565b6001600160a01b03167f8c5be1e5ebec7d5bd14f71427d1e84f3dd0314c0f7b2291e5b200ac8c7c3b92560405160405180910390a45050565b6000611fe982611f53565b61204a5760405162461bcd60e51b815260206004820152602c60248201527f4552433732313a206f70657261746f7220717565727920666f72206e6f6e657860448201526b34b9ba32b73a103a37b5b2b760a11b60648201526084016109c9565b600061205583611398565b9050806001600160a01b0316846001600160a01b031614806120905750836001600160a01b031661208584610961565b6001600160a01b0316145b80611a1657506001600160a01b038082166000908152606a602090815260408083209388168352929052205460ff16611a16565b826001600160a01b03166120d782611398565b6001600160a01b03161461213f5760405162461bcd60e51b815260206004820152602960248201527f4552433732313a207472616e73666572206f6620746f6b656e2074686174206960448201526839903737ba1037bbb760b91b60648201526084016109c9565b6001600160a01b0382166121a15760405162461bcd60e51b8152602060048201526024808201527f4552433732313a207472616e7366657220746f20746865207a65726f206164646044820152637265737360e01b60648201526084016109c9565b6121ac838383612f1f565b6121b7600082611f70565b6001600160a01b03831660009081526068602052604081208054600192906121e0908490613dec565b90915550506001600160a01b038216600090815260686020526040812080546001929061220e908490613d9b565b909155505060008181526067602052604080822080546001600160a01b0319166001600160a01b0386811691821790925591518493918716917fddf252ad1be2c89b69c2b068fc378daa952ba7f163c4a11628f55a4df523b3ef91a4505050565b6000611c088284613d9b565b7f360894a13ba1a3210667c828492db98dca3e2076cc3735a920a3ca505d382bbc546001600160a01b031690565b610197546001600160a01b03166324d7806c336040516001600160e01b031960e084901b1681526001600160a01b03909116600482015260240160206040518083038186803b1580156122fb57600080fd5b505afa15801561230f573d6000803e3d6000fd5b505050506040513d601f19601f820116820180604052508101906123339190613840565b610daf5760405162461bcd60e51b81526004016109c990613cba565b600061235961227b565b905061236484612f63565b6000835111806123715750815b15612382576123808484613008565b505b7f4910fdfa16fed3260ed0e7147f7cc6da11a60208b5b9406d12a635614ffd9143805460ff1661249357805460ff191660011781556040516001600160a01b038316602482015261240190869060440160408051601f198184030181529190526020810180516001600160e01b0316631b2ce7f360e11b179052613008565b50805460ff1916815561241261227b565b6001600160a01b0316826001600160a01b03161461248a5760405162461bcd60e51b815260206004820152602f60248201527f45524331393637557067726164653a207570677261646520627265616b73206660448201526e75727468657220757067726164657360881b60648201526084016109c9565b612493856130f3565b5050505050565b60006124a582611398565b90506124b381600084612f1f565b6124be600083611f70565b6001600160a01b03811660009081526068602052604081208054600192906124e7908490613dec565b909155505060008281526067602052604080822080546001600160a01b0319169055518391906001600160a01b038416907fddf252ad1be2c89b69c2b068fc378daa952ba7f163c4a11628f55a4df523b3ef908390a45050565b600054610100900460ff166125685760405162461bcd60e51b81526004016109c990613d50565b612570613133565b612578613133565b61123c828261315a565b600054610100900460ff166125a95760405162461bcd60e51b81526004016109c990613d50565b6125b1613133565b6125b9613133565b6125c16131a8565b611acc613133565b600054610100900460ff166125f05760405162461bcd60e51b81526004016109c990613d50565b6125f8613133565b6125c1613133565b606060008290506000815167ffffffffffffffff81111561263157634e487b7160e01b600052604160045260246000fd5b6040519080825280601f01601f19166020018201604052801561265b576020820181803683370190505b50905060005b82518110156127d157604160f81b83828151811061268f57634e487b7160e01b600052603260045260246000fd5b01602001516001600160f81b031916108015906126de5750605a60f81b8382815181106126cc57634e487b7160e01b600052603260045260246000fd5b01602001516001600160f81b03191611155b1561275c5782818151811061270357634e487b7160e01b600052603260045260246000fd5b602001015160f81c60f81b60f81c602061271d9190613db3565b60f81b82828151811061274057634e487b7160e01b600052603260045260246000fd5b60200101906001600160f81b031916908160001a9053506127bf565b82818151811061277c57634e487b7160e01b600052603260045260246000fd5b602001015160f81c60f81b8282815181106127a757634e487b7160e01b600052603260045260246000fd5b60200101906001600160f81b031916908160001a9053505b806127c981613e6a565b915050612661565b509392505050565b6101945481516060918391108015906127f6575061019554815111155b6128685760405162461bcd60e51b815260206004820152603b60248201527f496e76616c696420666f726d61743a2048617368746167206d757374206e6f7460448201527f20657863656564206c656e67746820726571756972656d656e7473000000000060648201526084016109c9565b8060008151811061288957634e487b7160e01b600052603260045260246000fd5b6020910101516001600160f81b031916602360f81b146128df5760405162461bcd60e51b81526020600482015260116024820152704d7573742073746172742077697468202360781b60448201526064016109c9565b60006128ea84612600565b9050610199816040516128fd91906139d6565b90815260200160405180910390205460001461295b5760405162461bcd60e51b815260206004820152601c60248201527f4552433732313a20746f6b656e20616c7265616479206d696e7465640000000060448201526064016109c9565b600060015b8351811015612b4057600084828151811061298b57634e487b7160e01b600052603260045260246000fd5b01602001516001600160f81b03191690506000600360fc1b82108015906129c05750603960f81b6001600160f81b0319831611155b1580156129f65750604160f81b6001600160f81b03198316108015906129f45750602d60f91b6001600160f81b0319831611155b155b8015612a2b5750606160f81b6001600160f81b0319831610801590612a295750603d60f91b6001600160f81b0319831611155b155b90508015612aba5760405162461bcd60e51b815260206004820152605060248201527f496e76616c69642063686172616374657220666f756e643a204861736874616760448201527f206d6179206f6e6c7920636f6e7461696e206368617261637465727320412d5a60648201526f2c20612d7a2c20302d3920616e64202360801b608482015260a4016109c9565b604160f81b6001600160f81b0319831610801590612ae65750602d60f91b6001600160f81b0319831611155b80612b185750606160f81b6001600160f81b0319831610801590612b185750603d60f91b6001600160f81b0319831611155b15612b2b57612b2884600161226f565b93505b50508080612b3890613e6a565b915050612960565b5060018110156127d15760405162461bcd60e51b815260206004820152604560248201527f496e76616c696420666f726d61743a2048617368746167206d75737420636f6e60448201527f7461696e206174206c65617374203120616c706861626574696320636861726160648201526431ba32b91760d91b608482015260a4016109c9565b61123c8282604051806020016040528060008152506131db565b60975460ff1615612c265760405162461bcd60e51b815260206004820152601060248201526f14185d5cd8589b194e881c185d5cd95960821b60448201526064016109c9565b6097805460ff191660011790557f62e78cea01bee320cd4e420270b5ea74000d11b0c9f74754ebdbfc544b05a258612c5b3390565b6040516001600160a01b03909116815260200160405180910390a1565b816001600160a01b0316836001600160a01b03161415612cda5760405162461bcd60e51b815260206004820152601960248201527f4552433732313a20617070726f766520746f2063616c6c65720000000000000060448201526064016109c9565b6001600160a01b038381166000818152606a6020908152604080832094871680845294825291829020805460ff191686151590811790915591519182527f17307eab39ab6107e8899845ad3d59bd9653f200f220920489ca2b5937696c31910160405180910390a3505050565b612d528484846120c4565b612d5e8484848461320e565b611b3e5760405162461bcd60e51b81526004016109c990613bd0565b606061019180546108de90613e2f565b606081612daf57506040805180820190915260018152600360fc1b60208201526108ca565b8160005b8115612dd95780612dc381613e6a565b9150612dd29050600a83613dd8565b9150612db3565b60008167ffffffffffffffff811115612e0257634e487b7160e01b600052604160045260246000fd5b6040519080825280601f01601f191660200182016040528015612e2c576020820181803683370190505b5090505b8415611a1657612e41600183613dec565b9150612e4e600a86613e85565b612e59906030613d9b565b60f81b818381518110612e7c57634e487b7160e01b600052603260045260246000fd5b60200101906001600160f81b031916908160001a905350612e9e600a86613dd8565b9450612e30565b60975460ff16612eee5760405162461bcd60e51b815260206004820152601460248201527314185d5cd8589b194e881b9bdd081c185d5cd95960621b60448201526064016109c9565b6097805460ff191690557f5db9ee0a495bf2e6ff9c91a7834c1ba4fdd244a5e8aa4e537bd38aeae4b073aa33612c5b565b612f2a838383613318565b60975460ff1615612f4d5760405162461bcd60e51b81526004016109c990613b85565b600090815261019a602052604090204290555050565b803b612fc75760405162461bcd60e51b815260206004820152602d60248201527f455243313936373a206e657720696d706c656d656e746174696f6e206973206e60448201526c1bdd08184818dbdb9d1c9858dd609a1b60648201526084016109c9565b7f360894a13ba1a3210667c828492db98dca3e2076cc3735a920a3ca505d382bbc80546001600160a01b0319166001600160a01b0392909216919091179055565b6060823b6130675760405162461bcd60e51b815260206004820152602660248201527f416464726573733a2064656c65676174652063616c6c20746f206e6f6e2d636f6044820152651b9d1c9858dd60d21b60648201526084016109c9565b600080846001600160a01b03168460405161308291906139d6565b600060405180830381855af49150503d80600081146130bd576040519150601f19603f3d011682016040523d82523d6000602084013e6130c2565b606091505b50915091506130ea8282604051806060016040528060278152602001613f156027913961333b565b95945050505050565b6130fc81612f63565b6040516001600160a01b038216907fbc7cd75a20ee27fd9adebab32041f755214dbc6bffa90cc0225b39da2e5c2d3b90600090a250565b600054610100900460ff16611acc5760405162461bcd60e51b81526004016109c990613d50565b600054610100900460ff166131815760405162461bcd60e51b81526004016109c990613d50565b81516131949060659060208501906134b3565b508051610aff9060669060208401906134b3565b600054610100900460ff166131cf5760405162461bcd60e51b81526004016109c990613d50565b6097805460ff19169055565b6131e58383613374565b6131f2600084848461320e565b610aff5760405162461bcd60e51b81526004016109c990613bd0565b60006001600160a01b0384163b1561331057604051630a85bd0160e11b81526001600160a01b0385169063150b7a0290613252903390899088908890600401613a4d565b602060405180830381600087803b15801561326c57600080fd5b505af192505050801561329c575060408051601f3d908101601f1916820190925261329991810190613878565b60015b6132f6573d8080156132ca576040519150601f19603f3d011682016040523d82523d6000602084013e6132cf565b606091505b5080516132ee5760405162461bcd60e51b81526004016109c990613bd0565b805181602001fd5b6001600160e01b031916630a85bd0160e11b149050611a16565b506001611a16565b60975460ff1615610aff5760405162461bcd60e51b81526004016109c990613b85565b6060831561334a575081611c08565b82511561335a5782518084602001fd5b8160405162461bcd60e51b81526004016109c99190613acb565b6001600160a01b0382166133ca5760405162461bcd60e51b815260206004820181905260248201527f4552433732313a206d696e7420746f20746865207a65726f206164647265737360448201526064016109c9565b6133d381611f53565b156134205760405162461bcd60e51b815260206004820152601c60248201527f4552433732313a20746f6b656e20616c7265616479206d696e7465640000000060448201526064016109c9565b61342c60008383612f1f565b6001600160a01b0382166000908152606860205260408120805460019290613455908490613d9b565b909155505060008181526067602052604080822080546001600160a01b0319166001600160a01b03861690811790915590518392907fddf252ad1be2c89b69c2b068fc378daa952ba7f163c4a11628f55a4df523b3ef908290a45050565b8280546134bf90613e2f565b90600052602060002090601f0160209004810192826134e15760008555613527565b82601f106134fa57805160ff1916838001178555613527565b82800160010185558215613527579182015b8281111561352757825182559160200191906001019061350c565b506135339291506135ab565b5090565b82805461354390613e2f565b90600052602060002090601f0160209004810192826135655760008555613527565b82601f1061357e5782800160ff19823516178555613527565b82800160010185558215613527579182015b82811115613527578235825591602001919060010190613590565b5b8082111561353357600081556001016135ac565b600067ffffffffffffffff808411156135db576135db613ec5565b604051601f8501601f19908116603f0116810190828211818310171561360357613603613ec5565b8160405280935085815286868601111561361c57600080fd5b858560208301376000602087830101525050509392505050565b600082601f830112613646578081fd5b611c08838335602085016135c0565b60008083601f840112613666578182fd5b50813567ffffffffffffffff81111561367d578182fd5b60208301915083602082850101111561369557600080fd5b9250929050565b6000602082840312156136ad578081fd5b8135611c0881613edb565b600080604083850312156136ca578081fd5b82356136d581613edb565b915060208301356136e581613edb565b809150509250929050565b600080600060608486031215613704578081fd5b833561370f81613edb565b9250602084013561371f81613edb565b929592945050506040919091013590565b60008060008060808587031215613745578081fd5b843561375081613edb565b9350602085013561376081613edb565b925060408501359150606085013567ffffffffffffffff811115613782578182fd5b61378e87828801613636565b91505092959194509250565b600080604083850312156137ac578182fd5b82356137b781613edb565b915060208301356136e581613ef0565b600080604083850312156137d9578182fd5b82356137e481613edb565b9150602083013567ffffffffffffffff8111156137ff578182fd5b61380b85828601613636565b9150509250929050565b60008060408385031215613827578182fd5b823561383281613edb565b946020939093013593505050565b600060208284031215613851578081fd5b8151611c0881613ef0565b60006020828403121561386d578081fd5b8135611c0881613efe565b600060208284031215613889578081fd5b8151611c0881613efe565b600080604083850312156136ca578182fd5b600080602083850312156138b8578182fd5b823567ffffffffffffffff8111156138ce578283fd5b6138da85828601613655565b90969095509350505050565b600080600080606085870312156138fb578182fd5b843567ffffffffffffffff811115613911578283fd5b61391d87828801613655565b909550935050602085013561393181613edb565b9150604085013561394181613edb565b939692955090935050565b60006020828403121561395d578081fd5b813567ffffffffffffffff811115613973578182fd5b8201601f81018413613983578182fd5b611a16848235602084016135c0565b6000602082840312156139a3578081fd5b5035919050565b600081518084526139c2816020860160208601613e03565b601f01601f19169290920160200192915050565b600082516139e8818460208701613e03565b9190910192915050565b60008351613a04818460208801613e03565b835190830190613a18818360208801613e03565b01949350505050565b6001600160a01b038481168252831660208201526060604082018190526000906130ea908301846139aa565b6001600160a01b0385811682528416602082015260408101839052608060608201819052600090613a80908301846139aa565b9695505050505050565b6000604082528360408301528385606084013760608483018101919091526001600160a01b03929092166020820152601f909201601f191690910101919050565b600060208252611c0860208301846139aa565b6000602080835281845483600282049050600180831680613b0057607f831692505b858310811415613b1e57634e487b7160e01b87526022600452602487fd5b878601838152602001818015613b3b5760018114613b4c57613b76565b60ff19861682528782019650613b76565b60008b815260209020895b86811015613b7057815484820152908501908901613b57565b83019750505b50949998505050505050505050565b6020808252602b908201527f4552433732315061757361626c653a20746f6b656e207472616e73666572207760408201526a1a1a5b19481c185d5cd95960aa1b606082015260800190565b60208082526032908201527f4552433732313a207472616e7366657220746f206e6f6e20455243373231526560408201527131b2b4bb32b91034b6b83632b6b2b73a32b960711b606082015260800190565b6020808252602c908201527f46756e6374696f6e206d7573742062652063616c6c6564207468726f7567682060408201526b19195b1959d85d1958d85b1b60a21b606082015260800190565b6020808252602c908201527f46756e6374696f6e206d7573742062652063616c6c6564207468726f7567682060408201526b6163746976652070726f787960a01b606082015260800190565b60208082526025908201527f43616c6c6572206d75737420686176652061646d696e6973747261746f722061604082015264636365737360d81b606082015260800190565b60208082526031908201527f4552433732313a207472616e736665722063616c6c6572206973206e6f74206f6040820152701ddb995c881b9bdc88185c1c1c9bdd9959607a1b606082015260800190565b6020808252602b908201527f496e697469616c697a61626c653a20636f6e7472616374206973206e6f74206960408201526a6e697469616c697a696e6760a81b606082015260800190565b60008219821115613dae57613dae613e99565b500190565b600060ff821660ff84168060ff03821115613dd057613dd0613e99565b019392505050565b600082613de757613de7613eaf565b500490565b600082821015613dfe57613dfe613e99565b500390565b60005b83811015613e1e578181015183820152602001613e06565b83811115611b3e5750506000910152565b600281046001821680613e4357607f821691505b60208210811415613e6457634e487b7160e01b600052602260045260246000fd5b50919050565b6000600019821415613e7e57613e7e613e99565b5060010190565b600082613e9457613e94613eaf565b500690565b634e487b7160e01b600052601160045260246000fd5b634e487b7160e01b600052601260045260246000fd5b634e487b7160e01b600052604160045260246000fd5b6001600160a01b0381168114610daf57600080fd5b8015158114610daf57600080fd5b6001600160e01b031981168114610daf57600080fdfe416464726573733a206c6f772d6c6576656c2064656c65676174652063616c6c206661696c6564a26469706673582212204b646856c3b9e4df97ed7313f622a49d5a6bcc48f115b82ad2df0d2d02957e3f64736f6c63430008020033",
  "linkReferences": {},
  "deployedLinkReferences": {}
}