{
  "_format": "hh-sol-artifact-1",
  "contractName": "HashtagAccessControls",
  "sourceName": "contracts/release/HashtagAccessControls.sol",
  "abi": [
    {
      "anonymous": false,
      "inputs": [
        {
          "indexed": false,
          "internalType": "address",
          "name": "previousAdmin",
          "type": "address"
        },
        {
          "indexed": false,
          "internalType": "address",
          "name": "newAdmin",
          "type": "address"
        }
      ],
      "name": "AdminChanged",
      "type": "event"
    },
    {
      "anonymous": false,
      "inputs": [
        {
          "indexed": true,
          "internalType": "address",
          "name": "beacon",
          "type": "address"
        }
      ],
      "name": "BeaconUpgraded",
      "type": "event"
    },
    {
      "anonymous": false,
      "inputs": [
        {
          "indexed": true,
          "internalType": "bytes32",
          "name": "role",
          "type": "bytes32"
        },
        {
          "indexed": true,
          "internalType": "bytes32",
          "name": "previousAdminRole",
          "type": "bytes32"
        },
        {
          "indexed": true,
          "internalType": "bytes32",
          "name": "newAdminRole",
          "type": "bytes32"
        }
      ],
      "name": "RoleAdminChanged",
      "type": "event"
    },
    {
      "anonymous": false,
      "inputs": [
        {
          "indexed": true,
          "internalType": "bytes32",
          "name": "role",
          "type": "bytes32"
        },
        {
          "indexed": true,
          "internalType": "address",
          "name": "account",
          "type": "address"
        },
        {
          "indexed": true,
          "internalType": "address",
          "name": "sender",
          "type": "address"
        }
      ],
      "name": "RoleGranted",
      "type": "event"
    },
    {
      "anonymous": false,
      "inputs": [
        {
          "indexed": true,
          "internalType": "bytes32",
          "name": "role",
          "type": "bytes32"
        },
        {
          "indexed": true,
          "internalType": "address",
          "name": "account",
          "type": "address"
        },
        {
          "indexed": true,
          "internalType": "address",
          "name": "sender",
          "type": "address"
        }
      ],
      "name": "RoleRevoked",
      "type": "event"
    },
    {
      "anonymous": false,
      "inputs": [
        {
          "indexed": true,
          "internalType": "address",
          "name": "implementation",
          "type": "address"
        }
      ],
      "name": "Upgraded",
      "type": "event"
    },
    {
      "inputs": [],
      "name": "DEFAULT_ADMIN_ROLE",
      "outputs": [
        {
          "internalType": "bytes32",
          "name": "",
          "type": "bytes32"
        }
      ],
      "stateMutability": "view",
      "type": "function"
    },
    {
      "inputs": [],
      "name": "NAME",
      "outputs": [
        {
          "internalType": "string",
          "name": "",
          "type": "string"
        }
      ],
      "stateMutability": "view",
      "type": "function"
    },
    {
      "inputs": [],
      "name": "PUBLISHER_ROLE",
      "outputs": [
        {
          "internalType": "bytes32",
          "name": "",
          "type": "bytes32"
        }
      ],
      "stateMutability": "view",
      "type": "function"
    },
    {
      "inputs": [],
      "name": "SMART_CONTRACT_ROLE",
      "outputs": [
        {
          "internalType": "bytes32",
          "name": "",
          "type": "bytes32"
        }
      ],
      "stateMutability": "view",
      "type": "function"
    },
    {
      "inputs": [],
      "name": "VERSION",
      "outputs": [
        {
          "internalType": "string",
          "name": "",
          "type": "string"
        }
      ],
      "stateMutability": "view",
      "type": "function"
    },
    {
      "inputs": [
        {
          "internalType": "bytes32",
          "name": "role",
          "type": "bytes32"
        }
      ],
      "name": "getRoleAdmin",
      "outputs": [
        {
          "internalType": "bytes32",
          "name": "",
          "type": "bytes32"
        }
      ],
      "stateMutability": "view",
      "type": "function"
    },
    {
      "inputs": [
        {
          "internalType": "bytes32",
          "name": "role",
          "type": "bytes32"
        },
        {
          "internalType": "address",
          "name": "account",
          "type": "address"
        }
      ],
      "name": "grantRole",
      "outputs": [],
      "stateMutability": "nonpayable",
      "type": "function"
    },
    {
      "inputs": [
        {
          "internalType": "bytes32",
          "name": "role",
          "type": "bytes32"
        },
        {
          "internalType": "address",
          "name": "account",
          "type": "address"
        }
      ],
      "name": "hasRole",
      "outputs": [
        {
          "internalType": "bool",
          "name": "",
          "type": "bool"
        }
      ],
      "stateMutability": "view",
      "type": "function"
    },
    {
      "inputs": [],
      "name": "initialize",
      "outputs": [],
      "stateMutability": "nonpayable",
      "type": "function"
    },
    {
      "inputs": [
        {
          "internalType": "address",
          "name": "_addr",
          "type": "address"
        }
      ],
      "name": "isAdmin",
      "outputs": [
        {
          "internalType": "bool",
          "name": "",
          "type": "bool"
        }
      ],
      "stateMutability": "view",
      "type": "function"
    },
    {
      "inputs": [
        {
          "internalType": "address",
          "name": "_addr",
          "type": "address"
        }
      ],
      "name": "isPublisher",
      "outputs": [
        {
          "internalType": "bool",
          "name": "",
          "type": "bool"
        }
      ],
      "stateMutability": "view",
      "type": "function"
    },
    {
      "inputs": [
        {
          "internalType": "address",
          "name": "_addr",
          "type": "address"
        }
      ],
      "name": "isSmartContract",
      "outputs": [
        {
          "internalType": "bool",
          "name": "",
          "type": "bool"
        }
      ],
      "stateMutability": "view",
      "type": "function"
    },
    {
      "inputs": [
        {
          "internalType": "string",
          "name": "message",
          "type": "string"
        }
      ],
      "name": "postUpgrade",
      "outputs": [],
      "stateMutability": "view",
      "type": "function"
    },
    {
      "inputs": [
        {
          "internalType": "bytes32",
          "name": "role",
          "type": "bytes32"
        },
        {
          "internalType": "address",
          "name": "account",
          "type": "address"
        }
      ],
      "name": "renounceRole",
      "outputs": [],
      "stateMutability": "nonpayable",
      "type": "function"
    },
    {
      "inputs": [
        {
          "internalType": "bytes32",
          "name": "role",
          "type": "bytes32"
        },
        {
          "internalType": "address",
          "name": "account",
          "type": "address"
        }
      ],
      "name": "revokeRole",
      "outputs": [],
      "stateMutability": "nonpayable",
      "type": "function"
    },
    {
      "inputs": [
        {
          "internalType": "bytes4",
          "name": "interfaceId",
          "type": "bytes4"
        }
      ],
      "name": "supportsInterface",
      "outputs": [
        {
          "internalType": "bool",
          "name": "",
          "type": "bool"
        }
      ],
      "stateMutability": "view",
      "type": "function"
    },
    {
      "inputs": [
        {
          "internalType": "address",
          "name": "newImplementation",
          "type": "address"
        }
      ],
      "name": "upgradeTo",
      "outputs": [],
      "stateMutability": "nonpayable",
      "type": "function"
    },
    {
      "inputs": [
        {
          "internalType": "address",
          "name": "newImplementation",
          "type": "address"
        },
        {
          "internalType": "bytes",
          "name": "data",
          "type": "bytes"
        }
      ],
      "name": "upgradeToAndCall",
      "outputs": [],
      "stateMutability": "payable",
      "type": "function"
    },
    {
      "inputs": [],
      "name": "upgraded",
      "outputs": [
        {
          "internalType": "string",
          "name": "",
          "type": "string"
        }
      ],
      "stateMutability": "pure",
      "type": "function"
    },
    {
      "inputs": [],
      "name": "version",
      "outputs": [
        {
          "internalType": "string",
          "name": "",
          "type": "string"
        }
      ],
      "stateMutability": "pure",
      "type": "function"
    }
  ],
  "bytecode": "0x60a06040523060601b60805234801561001757600080fd5b5060805160601c6114f961004b6000396000818161056e015281816105ae0152818161066301526106a301526114f96000f3fe60806040526004361061011f5760003560e01c80638129fc1c116100a0578063b1441ce611610064578063b1441ce61461036a578063c28de2cd1461038a578063d547741f146103be578063d8f4b6fd146103de578063ffa1ad74146104125761011f565b80638129fc1c146102a3578063857d2608146102b857806391d14854146102ec578063a217fddf1461030c578063a3f4df7e146103215761011f565b806336568abe116100e757806336568abe146101f95780633659cfe61461021957806341859ac8146102395780634f1ef2861461025957806354fd4d501461026c5761011f565b806301ffc9a714610124578063248a9ca31461015957806324d7806c146101975780632f2ff15d146101b7578063347308b2146101d9575b600080fd5b34801561013057600080fd5b5061014461013f366004611185565b610443565b60405190151581526020015b60405180910390f35b34801561016557600080fd5b50610189610174366004611142565b60009081526065602052604090206001015490565b604051908152602001610150565b3480156101a357600080fd5b506101446101b236600461106b565b61047c565b3480156101c357600080fd5b506101d76101d236600461115a565b610488565b005b3480156101e557600080fd5b506101446101f436600461106b565b6104b4565b34801561020557600080fd5b506101d761021436600461115a565b6104e0565b34801561022557600080fd5b506101d761023436600461106b565b610563565b34801561024557600080fd5b5061014461025436600461106b565b61062c565b6101d7610267366004611085565b610658565b34801561027857600080fd5b50604080518082019091526005815264302e322e3160d81b60208201525b60405161015091906112d7565b3480156102af57600080fd5b506101d761070e565b3480156102c457600080fd5b506101897f5474431f81b75a7b45d74ffe5ff51964b4290ef4c86184accd4e4a9822dae90181565b3480156102f857600080fd5b5061014461030736600461115a565b6107e2565b34801561031857600080fd5b50610189600081565b34801561032d57600080fd5b506102966040518060400160405280601c81526020017f4854503a20484153485441472050726f746f636f6c204163636573730000000081525081565b34801561037657600080fd5b506101d76103853660046111ad565b61080d565b34801561039657600080fd5b5060408051808201909152600b81526a1e5bdd481adb9bddc81a5d60aa1b6020820152610296565b3480156103ca57600080fd5b506101d76103d936600461115a565b61088e565b3480156103ea57600080fd5b506101897fad312f08b8889cfe65ec2f1faae419f8b47f0153a3483ea6130918c055c8183d81565b34801561041e57600080fd5b5061029660405180604001604052806005815260200164302e322e3160d81b81525081565b60006001600160e01b03198216637965db0b60e01b148061047457506301ffc9a760e01b6001600160e01b03198316145b90505b919050565b600061047481836107e2565b6000828152606560205260409020600101546104a581335b6108b4565b6104af8383610918565b505050565b60006104747f5474431f81b75a7b45d74ffe5ff51964b4290ef4c86184accd4e4a9822dae901836107e2565b6001600160a01b03811633146105555760405162461bcd60e51b815260206004820152602f60248201527f416363657373436f6e74726f6c3a2063616e206f6e6c792072656e6f756e636560448201526e103937b632b9903337b91039b2b63360891b60648201526084015b60405180910390fd5b61055f828261099e565b5050565b306001600160a01b037f00000000000000000000000000000000000000000000000000000000000000001614156105ac5760405162461bcd60e51b815260040161054c9061130f565b7f00000000000000000000000000000000000000000000000000000000000000006001600160a01b03166105de610a05565b6001600160a01b0316146106045760405162461bcd60e51b815260040161054c9061135b565b61060d81610a33565b6040805160008082526020820190925261062991839190610a3f565b50565b60006104747fad312f08b8889cfe65ec2f1faae419f8b47f0153a3483ea6130918c055c8183d836107e2565b306001600160a01b037f00000000000000000000000000000000000000000000000000000000000000001614156106a15760405162461bcd60e51b815260040161054c9061130f565b7f00000000000000000000000000000000000000000000000000000000000000006001600160a01b03166106d3610a05565b6001600160a01b0316146106f95760405162461bcd60e51b815260040161054c9061135b565b61070282610a33565b61055f82826001610a3f565b600054610100900460ff166107295760005460ff161561072d565b303b155b6107905760405162461bcd60e51b815260206004820152602e60248201527f496e697469616c697a61626c653a20636f6e747261637420697320616c72656160448201526d191e481a5b9a5d1a585b1a5e995960921b606482015260840161054c565b600054610100900460ff161580156107bb576000805460ff1961ff0019909116610100171660011790555b6107c3610b8a565b6107ce600033610bcb565b8015610629576000805461ff001916905550565b60009182526065602090815260408084206001600160a01b0393909316845291905290205460ff1690565b600061081981336104a0565b6104af6040518060400160405280601e81526020017f48617368746167416363657373436f6e74726f6c73207570677261646564000081525084848080601f016020809104026020016040519081016040528093929190818152602001838380828437600092019190915250610bd592505050565b6000828152606560205260409020600101546108aa81336104a0565b6104af838361099e565b6108be82826107e2565b61055f576108d6816001600160a01b03166014610c1a565b6108e1836020610c1a565b6040516020016108f2929190611262565b60408051601f198184030181529082905262461bcd60e51b825261054c916004016112d7565b61092282826107e2565b61055f5760008281526065602090815260408083206001600160a01b03851684529091529020805460ff1916600117905561095a3390565b6001600160a01b0316816001600160a01b0316837f2f8788117e7eff1d82e926ec794901d17c78024a50270940304540a733656f0d60405160405180910390a45050565b6109a882826107e2565b1561055f5760008281526065602090815260408083206001600160a01b0385168085529252808320805460ff1916905551339285917ff6391f5c32d9c69d2a47ea670b442974b53935d1edc7fd64eb21e047a839171b9190a45050565b7f360894a13ba1a3210667c828492db98dca3e2076cc3735a920a3ca505d382bbc546001600160a01b031690565b600061055f81336104a0565b6000610a49610a05565b9050610a5484610e03565b600083511180610a615750815b15610a7257610a708484610ea8565b505b7f4910fdfa16fed3260ed0e7147f7cc6da11a60208b5b9406d12a635614ffd9143805460ff16610b8357805460ff191660011781556040516001600160a01b0383166024820152610af190869060440160408051601f198184030181529190526020810180516001600160e01b0316631b2ce7f360e11b179052610ea8565b50805460ff19168155610b02610a05565b6001600160a01b0316826001600160a01b031614610b7a5760405162461bcd60e51b815260206004820152602f60248201527f45524331393637557067726164653a207570677261646520627265616b73206660448201526e75727468657220757067726164657360881b606482015260840161054c565b610b8385610f93565b5050505050565b600054610100900460ff16610bb15760405162461bcd60e51b815260040161054c906113a7565b610bb9610fd3565b610bc1610fd3565b610bc9610fd3565b565b61055f8282610918565b61055f8282604051602401610beb9291906112ea565b60408051601f198184030181529190526020810180516001600160e01b0316634b5c427760e01b179052610ffa565b60606000610c2983600261140a565b610c349060026113f2565b67ffffffffffffffff811115610c5a57634e487b7160e01b600052604160045260246000fd5b6040519080825280601f01601f191660200182016040528015610c84576020820181803683370190505b509050600360fc1b81600081518110610cad57634e487b7160e01b600052603260045260246000fd5b60200101906001600160f81b031916908160001a905350600f60fb1b81600181518110610cea57634e487b7160e01b600052603260045260246000fd5b60200101906001600160f81b031916908160001a9053506000610d0e84600261140a565b610d199060016113f2565b90505b6001811115610dad576f181899199a1a9b1b9c1cb0b131b232b360811b85600f1660108110610d5b57634e487b7160e01b600052603260045260246000fd5b1a60f81b828281518110610d7f57634e487b7160e01b600052603260045260246000fd5b60200101906001600160f81b031916908160001a90535060049490941c93610da681611459565b9050610d1c565b508315610dfc5760405162461bcd60e51b815260206004820181905260248201527f537472696e67733a20686578206c656e67746820696e73756666696369656e74604482015260640161054c565b9392505050565b803b610e675760405162461bcd60e51b815260206004820152602d60248201527f455243313936373a206e657720696d706c656d656e746174696f6e206973206e60448201526c1bdd08184818dbdb9d1c9858dd609a1b606482015260840161054c565b7f360894a13ba1a3210667c828492db98dca3e2076cc3735a920a3ca505d382bbc80546001600160a01b0319166001600160a01b0392909216919091179055565b6060823b610f075760405162461bcd60e51b815260206004820152602660248201527f416464726573733a2064656c65676174652063616c6c20746f206e6f6e2d636f6044820152651b9d1c9858dd60d21b606482015260840161054c565b600080846001600160a01b031684604051610f229190611246565b600060405180830381855af49150503d8060008114610f5d576040519150601f19603f3d011682016040523d82523d6000602084013e610f62565b606091505b5091509150610f8a828260405180606001604052806027815260200161149d6027913961101b565b95945050505050565b610f9c81610e03565b6040516001600160a01b038216907fbc7cd75a20ee27fd9adebab32041f755214dbc6bffa90cc0225b39da2e5c2d3b90600090a250565b600054610100900460ff16610bc95760405162461bcd60e51b815260040161054c906113a7565b80516a636f6e736f6c652e6c6f67602083016000808483855afa5050505050565b6060831561102a575081610dfc565b82511561103a5782518084602001fd5b8160405162461bcd60e51b815260040161054c91906112d7565b80356001600160a01b038116811461047757600080fd5b60006020828403121561107c578081fd5b610dfc82611054565b60008060408385031215611097578081fd5b6110a083611054565b9150602083013567ffffffffffffffff808211156110bc578283fd5b818501915085601f8301126110cf578283fd5b8135818111156110e1576110e1611486565b604051601f8201601f19908116603f0116810190838211818310171561110957611109611486565b81604052828152886020848701011115611121578586fd5b82602086016020830137856020848301015280955050505050509250929050565b600060208284031215611153578081fd5b5035919050565b6000806040838503121561116c578182fd5b8235915061117c60208401611054565b90509250929050565b600060208284031215611196578081fd5b81356001600160e01b031981168114610dfc578182fd5b600080602083850312156111bf578182fd5b823567ffffffffffffffff808211156111d6578384fd5b818501915085601f8301126111e9578384fd5b8135818111156111f7578485fd5b866020828501011115611208578485fd5b60209290920196919550909350505050565b60008151808452611232816020860160208601611429565b601f01601f19169290920160200192915050565b60008251611258818460208701611429565b9190910192915050565b60007f416363657373436f6e74726f6c3a206163636f756e74200000000000000000008252835161129a816017850160208801611429565b7001034b99036b4b9b9b4b733903937b6329607d1b60179184019182015283516112cb816028840160208801611429565b01602801949350505050565b600060208252610dfc602083018461121a565b6000604082526112fd604083018561121a565b8281036020840152610f8a818561121a565b6020808252602c908201527f46756e6374696f6e206d7573742062652063616c6c6564207468726f7567682060408201526b19195b1959d85d1958d85b1b60a21b606082015260800190565b6020808252602c908201527f46756e6374696f6e206d7573742062652063616c6c6564207468726f7567682060408201526b6163746976652070726f787960a01b606082015260800190565b6020808252602b908201527f496e697469616c697a61626c653a20636f6e7472616374206973206e6f74206960408201526a6e697469616c697a696e6760a81b606082015260800190565b6000821982111561140557611405611470565b500190565b600081600019048311821515161561142457611424611470565b500290565b60005b8381101561144457818101518382015260200161142c565b83811115611453576000848401525b50505050565b60008161146857611468611470565b506000190190565b634e487b7160e01b600052601160045260246000fd5b634e487b7160e01b600052604160045260246000fdfe416464726573733a206c6f772d6c6576656c2064656c65676174652063616c6c206661696c6564a2646970667358221220bfab630917695f19128911ba9d1801e83812ae6414eaf8504f0ecf034c4c043064736f6c63430008020033",
  "linkReferences": {},
  "deployedLinkReferences": {}
}