{
  "address": "0x6e11580bDD0fD22891f8D2e57Abc7523FAB8666C",
  "abi": [
    {
      "inputs": [
        {
          "internalType": "address",
          "name": "_oracle",
          "type": "address"
        },
        {
          "internalType": "bytes32",
          "name": "_jobId",
          "type": "bytes32"
        },
        {
          "internalType": "uint256",
          "name": "_fee",
          "type": "uint256"
        },
        {
          "internalType": "address",
          "name": "_link",
          "type": "address"
        }
      ],
      "stateMutability": "nonpayable",
      "type": "constructor"
    },
    {
      "anonymous": false,
      "inputs": [
        {
          "indexed": true,
          "internalType": "bytes32",
          "name": "id",
          "type": "bytes32"
        }
      ],
      "name": "ChainlinkCancelled",
      "type": "event"
    },
    {
      "anonymous": false,
      "inputs": [
        {
          "indexed": true,
          "internalType": "bytes32",
          "name": "id",
          "type": "bytes32"
        }
      ],
      "name": "ChainlinkFulfilled",
      "type": "event"
    },
    {
      "anonymous": false,
      "inputs": [
        {
          "indexed": true,
          "internalType": "bytes32",
          "name": "id",
          "type": "bytes32"
        }
      ],
      "name": "ChainlinkRequested",
      "type": "event"
    },
    {
      "inputs": [
        {
          "internalType": "bytes32",
          "name": "_requestId",
          "type": "bytes32"
        },
        {
          "internalType": "uint256",
          "name": "_volume",
          "type": "uint256"
        }
      ],
      "name": "fulfill",
      "outputs": [],
      "stateMutability": "nonpayable",
      "type": "function"
    },
    {
      "inputs": [],
      "name": "requestVolumeData",
      "outputs": [
        {
          "internalType": "bytes32",
          "name": "requestId",
          "type": "bytes32"
        }
      ],
      "stateMutability": "nonpayable",
      "type": "function"
    },
    {
      "inputs": [],
      "name": "volume",
      "outputs": [
        {
          "internalType": "uint256",
          "name": "",
          "type": "uint256"
        }
      ],
      "stateMutability": "view",
      "type": "function"
    }
  ],
  "transactionHash": "0xda0d8a4833ddf4c077c8686fa539c20d17d7e749e4184a56fd660c9bf2cb76cc",
  "args": [
    "0x0bddcd124709acbf9bb3f824ebc61c87019888bb",
    {
      "0": 50,
      "1": 98,
      "2": 98,
      "3": 49,
      "4": 53,
      "5": 99,
      "6": 51,
      "7": 102,
      "8": 57,
      "9": 99,
      "10": 102,
      "11": 99,
      "12": 52,
      "13": 51,
      "14": 51,
      "15": 54,
      "16": 98,
      "17": 57,
      "18": 53,
      "19": 48,
      "20": 49,
      "21": 50,
      "22": 56,
      "23": 55,
      "24": 50,
      "25": 102,
      "26": 102,
      "27": 48,
      "28": 53,
      "29": 48,
      "30": 57,
      "31": 50
    },
    "100000000000000",
    "0x326C977E6efc84E512bB9C30f76E30c160eD06FB"
  ],
  "numDeployments": 3,
  "solcInputHash": "ab485a85d48b18413efd967db422a90f",
  "bytecode": "0x608060405260016004553480156200001657600080fd5b506040516200111638038062001116833981016040819052620000399162000195565b6001600160a01b038116620000585762000052620000a2565b62000074565b600280546001600160a01b0319166001600160a01b0383161790555b50600780546001600160a01b0319166001600160a01b039490941693909317909255600855600955620001e0565b6200015173c89bd4e1632d3a43cb03aaad5262cbe4038bc5716001600160a01b03166338cc48316040518163ffffffff1660e01b815260040160206040518083038186803b158015620000f457600080fd5b505afa15801562000109573d6000803e3d6000fd5b505050506040513d601f19601f820116820180604052508101906200012f919062000170565b600280546001600160a01b0319166001600160a01b0392909216919091179055565b565b80516001600160a01b03811681146200016b57600080fd5b919050565b6000602082840312156200018357600080fd5b6200018e8262000153565b9392505050565b60008060008060808587031215620001ac57600080fd5b620001b78562000153565b93506020850151925060408501519150620001d56060860162000153565b905092959194509250565b610f2680620001f06000396000f3fe608060405234801561001057600080fd5b50600436106100415760003560e01c80634357855e146100465780636021abac1461005b578063c618a1e414610075575b600080fd5b610059610054366004610baf565b61007e565b005b610063610168565b60405190815260200160405180910390f35b61006360065481565b60008281526005602052604090205482906001600160a01b031633146101115760405162461bcd60e51b815260206004820152602860248201527f536f75726365206d75737420626520746865206f7261636c65206f662074686560448201527f207265717565737400000000000000000000000000000000000000000000000060648201526084015b60405180910390fd5b600081815260056020526040808220805473ffffffffffffffffffffffffffffffffffffffff191690555182917f7cc135e0cebb02c3480ae5d74d377283180a2601f8f644edf7987b009316c63a91a25060065550565b60008061017f60085430634357855e60e01b6102c6565b90506101db6040518060400160405280600381526020017f6765740000000000000000000000000000000000000000000000000000000000815250604051806080016040528060498152602001610ea860499139839190610357565b61025a6040518060400160405280600481526020017f70617468000000000000000000000000000000000000000000000000000000008152506040518060400160405280601881526020017f5241572e4554482e5553442e564f4c554d453234484f55520000000000000000815250836103579092919063ffffffff16565b60408051808201909152600581527f74696d65730000000000000000000000000000000000000000000000000000006020820152670de0b6b3a7640000906102a49083908361037a565b6007546009546102bf916001600160a01b0316908490610398565b9250505090565b6103046040805160a0810182526000808252602080830182905282840182905260608084018390528451808601909552845283015290608082015290565b6103426040805160a0810182526000808252602080830182905282840182905260608084018390528451808601909552845283015290608082015290565b61034e81868686610471565b95945050505050565b60808301516103669083610505565b60808301516103759082610505565b505050565b60808301516103899083610505565b6080830151610375908261051c565b6004546000906103a9816001610cc2565b600455835160408086015160808701515191516000937f4042994600000000000000000000000000000000000000000000000000000000936103fa9386938493923092918a91600191602401610c1e565b60408051601f198184030181529190526020810180517bffffffffffffffffffffffffffffffffffffffffffffffffffffffff167fffffffff0000000000000000000000000000000000000000000000000000000090931692909217909152905061046786838684610580565b9695505050505050565b6104af6040805160a0810182526000808252602080830182905282840182905260608084018390528451808601909552845283015290608082015290565b6104bf856080015161010061072d565b50508284526001600160a01b03821660208501527fffffffff0000000000000000000000000000000000000000000000000000000081166040850152835b949350505050565b6105128260038351610798565b61037582826108ad565b67ffffffffffffffff1981121561053b5761053782826108db565b5050565b67ffffffffffffffff81131561055557610537828261091d565b600081126105695761053782600083610798565b61053782600161057b84600019610de4565b610798565b6040516bffffffffffffffffffffffff193060601b1660208201526034810184905260009060540160408051808303601f19018152828252805160209182012060008181526005909252918120805473ffffffffffffffffffffffffffffffffffffffff19166001600160a01b038a1617905590925082917fb5e6e01e79f91267dc17b4e6314d5d4d03593d2ceee0fbb452b750bd70ea5af99190a26002546040517f4000aea00000000000000000000000000000000000000000000000000000000081526001600160a01b0390911690634000aea09061066990889087908790600401610c9a565b602060405180830381600087803b15801561068357600080fd5b505af1158015610697573d6000803e3d6000fd5b505050506040513d601f19601f820116820180604052508101906106bb9190610b8d565b6104fd5760405162461bcd60e51b815260206004820152602360248201527f756e61626c6520746f207472616e73666572416e6443616c6c20746f206f726160448201527f636c6500000000000000000000000000000000000000000000000000000000006064820152608401610108565b60408051808201909152606081526000602082015261074d602083610e6f565b156107755761075d602083610e6f565b610768906020610e58565b6107729083610cc2565b91505b506020808301829052604080518085526000815283019091019052815b92915050565b60178167ffffffffffffffff16116107c3576107bd8360e0600585901b168317610940565b50505050565b60ff8167ffffffffffffffff1611610801576107ea836018611fe0600586901b1617610940565b506107bd8367ffffffffffffffff83166001610965565b61ffff8167ffffffffffffffff161161084057610829836019611fe0600586901b1617610940565b506107bd8367ffffffffffffffff83166002610965565b63ffffffff8167ffffffffffffffff16116108815761086a83601a611fe0600586901b1617610940565b506107bd8367ffffffffffffffff83166004610965565b61089683601b611fe0600586901b1617610940565b506107bd8367ffffffffffffffff83166008610965565b6040805180820190915260608152600060208201526108d48384600001515184855161098b565b9392505050565b6108e68260c3610940565b50610537826108f783600019610de4565b60405160200161090991815260200190565b604051602081830303815290604052610a75565b6109288260c2610940565b50610537828260405160200161090991815260200190565b6040805180820190915260608152600060208201526108d48384600001515184610a82565b6040805180820190915260608152600060208201526104fd848560000151518585610ade565b60408051808201909152606081526000602082015282518211156109ae57600080fd5b60208501516109bd8386610cc2565b11156109f0576109f0856109e0876020015187866109db9190610cc2565b610b5f565b6109eb906002610dc5565b610b76565b600080865180518760208301019350808887011115610a0f5787860182525b505050602084015b60208410610a4f5780518252610a2e602083610cc2565b9150610a3b602082610cc2565b9050610a48602085610e58565b9350610a17565b51815160001960208690036101000a019081169019919091161790525083949350505050565b6105128260028351610798565b60408051808201909152606081526000602082015283602001518310610ab757610ab784856020015160026109eb9190610dc5565b835180516020858301018481535080851415610ad4576001810182525b5093949350505050565b6040805180820190915260608152600060208201526020850151610b028584610cc2565b1115610b1657610b16856109e08685610cc2565b60006001610b2684610100610d1d565b610b309190610e58565b9050855183868201018583198251161781525080518487011115610b545783860181525b509495945050505050565b600081831115610b70575081610792565b50919050565b8151610b82838361072d565b506107bd83826108ad565b600060208284031215610b9f57600080fd5b815180151581146108d457600080fd5b60008060408385031215610bc257600080fd5b50508035926020909101359150565b6000815180845260005b81811015610bf757602081850181015186830182015201610bdb565b81811115610c09576000602083870101525b50601f01601f19169290920160200192915050565b60006101006001600160a01b03808c1684528a60208501528960408501528089166060850152507fffffffff00000000000000000000000000000000000000000000000000000000871660808401528560a08401528460c08401528060e0840152610c8b81840185610bd1565b9b9a5050505050505050505050565b6001600160a01b038416815282602082015260606040820152600061034e6060830184610bd1565b60008219821115610cd557610cd5610e91565b500190565b600181815b80851115610d15578160001904821115610cfb57610cfb610e91565b80851615610d0857918102915b93841c9390800290610cdf565b509250929050565b60006108d48383600082610d3357506001610792565b81610d4057506000610792565b8160018114610d565760028114610d6057610d7c565b6001915050610792565b60ff841115610d7157610d71610e91565b50506001821b610792565b5060208310610133831016604e8410600b8410161715610d9f575081810a610792565b610da98383610cda565b8060001904821115610dbd57610dbd610e91565b029392505050565b6000816000190483118215151615610ddf57610ddf610e91565b500290565b6000808312837f800000000000000000000000000000000000000000000000000000000000000001831281151615610e1e57610e1e610e91565b837f7fffffffffffffffffffffffffffffffffffffffffffffffffffffffffffffff018313811615610e5257610e52610e91565b50500390565b600082821015610e6a57610e6a610e91565b500390565b600082610e8c57634e487b7160e01b600052601260045260246000fd5b500690565b634e487b7160e01b600052601160045260246000fdfe68747470733a2f2f6d696e2d6170692e63727970746f636f6d706172652e636f6d2f646174612f70726963656d756c746966756c6c3f6673796d733d455448267473796d733d555344a264697066735822122045afb4459881abf95305b3c529d99e8b21b621c7c3133437e17f06f42cf1cfe964736f6c63430008070033",
  "devdoc": {
    "kind": "dev",
    "methods": {},
    "version": 1
  },
  "userdoc": {
    "kind": "user",
    "methods": {
      "constructor": {
        "notice": "Network: Kovan Oracle: 0xc57B33452b4F7BB189bB5AfaE9cc4aBa1f7a4FD8 (Chainlink Devrel Node) Job ID: d5270d1c311941d0b08bead21fea7747 Fee: 0.1 LINK"
      },
      "fulfill(bytes32,uint256)": {
        "notice": "Receive the response in the form of uint256"
      },
      "requestVolumeData()": {
        "notice": "Create a Chainlink request to retrieve API response, find the target data, then multiply by 1000000000000000000 (to remove decimal places from data)."
      }
    },
    "notice": "THIS IS AN EXAMPLE CONTRACT WHICH USES HARDCODED VALUES FOR CLARITY. PLEASE DO NOT USE THIS CODE IN PRODUCTION.",
    "version": 1
  },
  "storageLayout": {
    "storage": [
      {
        "astId": 319,
        "contract": "contracts/core/APIConsumer.sol:APIConsumer",
        "label": "s_ens",
        "offset": 0,
        "slot": "0",
        "type": "t_contract(ENSInterface)974"
      },
      {
        "astId": 321,
        "contract": "contracts/core/APIConsumer.sol:APIConsumer",
        "label": "s_ensNode",
        "offset": 0,
        "slot": "1",
        "type": "t_bytes32"
      },
      {
        "astId": 324,
        "contract": "contracts/core/APIConsumer.sol:APIConsumer",
        "label": "s_link",
        "offset": 0,
        "slot": "2",
        "type": "t_contract(LinkTokenInterface)1069"
      },
      {
        "astId": 327,
        "contract": "contracts/core/APIConsumer.sol:APIConsumer",
        "label": "s_oracle",
        "offset": 0,
        "slot": "3",
        "type": "t_contract(OperatorInterface)1149"
      },
      {
        "astId": 330,
        "contract": "contracts/core/APIConsumer.sol:APIConsumer",
        "label": "s_requestCount",
        "offset": 0,
        "slot": "4",
        "type": "t_uint256"
      },
      {
        "astId": 334,
        "contract": "contracts/core/APIConsumer.sol:APIConsumer",
        "label": "s_pendingRequests",
        "offset": 0,
        "slot": "5",
        "type": "t_mapping(t_bytes32,t_address)"
      },
      {
        "astId": 2187,
        "contract": "contracts/core/APIConsumer.sol:APIConsumer",
        "label": "volume",
        "offset": 0,
        "slot": "6",
        "type": "t_uint256"
      },
      {
        "astId": 2189,
        "contract": "contracts/core/APIConsumer.sol:APIConsumer",
        "label": "oracle",
        "offset": 0,
        "slot": "7",
        "type": "t_address"
      },
      {
        "astId": 2191,
        "contract": "contracts/core/APIConsumer.sol:APIConsumer",
        "label": "jobId",
        "offset": 0,
        "slot": "8",
        "type": "t_bytes32"
      },
      {
        "astId": 2193,
        "contract": "contracts/core/APIConsumer.sol:APIConsumer",
        "label": "fee",
        "offset": 0,
        "slot": "9",
        "type": "t_uint256"
      }
    ],
    "types": {
      "t_address": {
        "encoding": "inplace",
        "label": "address",
        "numberOfBytes": "20"
      },
      "t_bytes32": {
        "encoding": "inplace",
        "label": "bytes32",
        "numberOfBytes": "32"
      },
      "t_contract(ENSInterface)974": {
        "encoding": "inplace",
        "label": "contract ENSInterface",
        "numberOfBytes": "20"
      },
      "t_contract(LinkTokenInterface)1069": {
        "encoding": "inplace",
        "label": "contract LinkTokenInterface",
        "numberOfBytes": "20"
      },
      "t_contract(OperatorInterface)1149": {
        "encoding": "inplace",
        "label": "contract OperatorInterface",
        "numberOfBytes": "20"
      },
      "t_mapping(t_bytes32,t_address)": {
        "encoding": "mapping",
        "key": "t_bytes32",
        "label": "mapping(bytes32 => address)",
        "numberOfBytes": "32",
        "value": "t_address"
      },
      "t_uint256": {
        "encoding": "inplace",
        "label": "uint256",
        "numberOfBytes": "32"
      }
    }
  }
}