{
  "address": "0x5a7F021ea1E65C07F185221Fa3854083bfb41592",
  "abi": [
    {
      "inputs": [],
      "stateMutability": "nonpayable",
      "type": "constructor"
    },
    {
      "anonymous": false,
      "inputs": [
        {
          "indexed": true,
          "internalType": "bytes32",
          "name": "id",
          "type": "bytes32"
        }
      ],
      "name": "ChainlinkCancelled",
      "type": "event"
    },
    {
      "anonymous": false,
      "inputs": [
        {
          "indexed": true,
          "internalType": "bytes32",
          "name": "id",
          "type": "bytes32"
        }
      ],
      "name": "ChainlinkFulfilled",
      "type": "event"
    },
    {
      "anonymous": false,
      "inputs": [
        {
          "indexed": true,
          "internalType": "bytes32",
          "name": "id",
          "type": "bytes32"
        }
      ],
      "name": "ChainlinkRequested",
      "type": "event"
    },
    {
      "anonymous": false,
      "inputs": [
        {
          "indexed": true,
          "internalType": "bytes32",
          "name": "requestId",
          "type": "bytes32"
        },
        {
          "indexed": true,
          "internalType": "bytes",
          "name": "data",
          "type": "bytes"
        }
      ],
      "name": "RequestFulfilled",
      "type": "event"
    },
    {
      "inputs": [],
      "name": "data",
      "outputs": [
        {
          "internalType": "bytes",
          "name": "",
          "type": "bytes"
        }
      ],
      "stateMutability": "view",
      "type": "function"
    },
    {
      "inputs": [
        {
          "internalType": "bytes32",
          "name": "requestId",
          "type": "bytes32"
        },
        {
          "internalType": "bytes",
          "name": "bytesData",
          "type": "bytes"
        }
      ],
      "name": "fulfillBytes",
      "outputs": [],
      "stateMutability": "nonpayable",
      "type": "function"
    },
    {
      "inputs": [],
      "name": "ipfsHash",
      "outputs": [
        {
          "internalType": "string",
          "name": "",
          "type": "string"
        }
      ],
      "stateMutability": "view",
      "type": "function"
    },
    {
      "inputs": [],
      "name": "requestBytes",
      "outputs": [],
      "stateMutability": "nonpayable",
      "type": "function"
    }
  ],
  "transactionHash": "0x8633636b527b9faff96a7a702fd209f1a8dda7352ac537df94a9585f139cd00e",
  "args": [],
  "numDeployments": 2,
  "solcInputHash": "3539452a0fdf1837e806ff96deda9c3d",
  "bytecode": "0x6080604052600160045534801561001557600080fd5b50600280546001600160a01b03191673326c977e6efc84e512bb9c30f76e30c160ed06fb179055600380546001600160a01b031916730bddcd124709acbf9bb3f824ebc61c87019888bb179055611109806100716000396000f3fe608060405234801561001057600080fd5b506004361061004c5760003560e01c806311411e8a1461005157806373d4a13a1461005b578063c2fb852314610079578063c623674f1461008c575b600080fd5b610059610094565b005b6100636101d6565b6040516100709190610e7b565b60405180910390f35b610059610087366004610ce1565b610264565b6100636103b6565b7f356139613864363065623839343037376231653761356237376462666263613967016345785d8a000060006100eb83307fc2fb8523000000000000000000000000000000000000000000000000000000006103c3565b90506101476040518060400160405280600381526020017f67657400000000000000000000000000000000000000000000000000000000008152506040518060800160405280605d8152602001611077605d9139839190610454565b6101c66040518060400160405280600481526020017f70617468000000000000000000000000000000000000000000000000000000008152506040518060400160405280600881526020017f4970667348617368000000000000000000000000000000000000000000000000815250836104549092919063ffffffff16565b6101d08183610477565b50505050565b600680546101e390610ff3565b80601f016020809104026020016040519081016040528092919081815260200182805461020f90610ff3565b801561025c5780601f106102315761010080835404028352916020019161025c565b820191906000526020600020905b81548152906001019060200180831161023f57829003601f168201915b505050505081565b60008281526005602052604090205482906001600160a01b031633146102f75760405162461bcd60e51b815260206004820152602860248201527f536f75726365206d75737420626520746865206f7261636c65206f662074686560448201527f207265717565737400000000000000000000000000000000000000000000000060648201526084015b60405180910390fd5b600081815260056020526040808220805473ffffffffffffffffffffffffffffffffffffffff191690555182917f7cc135e0cebb02c3480ae5d74d377283180a2601f8f644edf7987b009316c63a91a2816040516103559190610dc8565b6040519081900381209084907f1a111c5dcf9a71088bd5e1797fdfaf399fec2afbb24aca247e4e3e9f4b61df9190600090a3815161039a906006906020850190610ba4565b50600660079080546103ab90610ff3565b6101d0929190610c28565b600780546101e390610ff3565b6104016040805160a0810182526000808252602080830182905282840182905260608084018390528451808601909552845283015290608082015290565b61043f6040805160a0810182526000808252602080830182905282840182905260608084018390528451808601909552845283015290608082015290565b61044b8186868661049a565b95945050505050565b6080830151610463908361052e565b6080830151610472908261052e565b505050565b600354600090610491906001600160a01b03168484610545565b90505b92915050565b6104d86040805160a0810182526000808252602080830182905282840182905260608084018390528451808601909552845283015290608082015290565b6104e8856080015161010061061c565b50508284526001600160a01b03821660208501527fffffffff0000000000000000000000000000000000000000000000000000000081166040850152835b949350505050565b61053b8260038351610681565b6104728282610790565b600454600090610556816001610e8e565b600455835160408086015160808701515191516000937f3c6d41b900000000000000000000000000000000000000000000000000000000936105a5938693849392899160029190602401610de4565b60408051601f198184030181529190526020810180517bffffffffffffffffffffffffffffffffffffffffffffffffffffffff167fffffffff00000000000000000000000000000000000000000000000000000000909316929092179091529050610612868386846107b7565b9695505050505050565b60408051808201909152606081526000602082015261063c602083611028565b156106645761064c602083611028565b610657906020610fb0565b6106619083610e8e565b91505b506020828101829052604080518085526000815290920101905290565b60178167ffffffffffffffff16116106a6576101d08360e0600585901b168317610964565b60ff8167ffffffffffffffff16116106e4576106cd836018611fe0600586901b1617610964565b506101d08367ffffffffffffffff83166001610989565b61ffff8167ffffffffffffffff16116107235761070c836019611fe0600586901b1617610964565b506101d08367ffffffffffffffff83166002610989565b63ffffffff8167ffffffffffffffff16116107645761074d83601a611fe0600586901b1617610964565b506101d08367ffffffffffffffff83166004610989565b61077983601b611fe0600586901b1617610964565b506101d08367ffffffffffffffff83166008610989565b604080518082019091526060815260006020820152610491838460000151518485516109af565b6040516bffffffffffffffffffffffff193060601b1660208201526034810184905260009060540160408051808303601f19018152828252805160209182012060008181526005909252918120805473ffffffffffffffffffffffffffffffffffffffff19166001600160a01b038a1617905590925082917fb5e6e01e79f91267dc17b4e6314d5d4d03593d2ceee0fbb452b750bd70ea5af99190a26002546040517f4000aea00000000000000000000000000000000000000000000000000000000081526001600160a01b0390911690634000aea0906108a090889087908790600401610e53565b602060405180830381600087803b1580156108ba57600080fd5b505af11580156108ce573d6000803e3d6000fd5b505050506040513d601f19601f820116820180604052508101906108f29190610cb8565b6105265760405162461bcd60e51b815260206004820152602360248201527f756e61626c6520746f207472616e73666572416e6443616c6c20746f206f726160448201527f636c65000000000000000000000000000000000000000000000000000000000060648201526084016102ee565b6040805180820190915260608152600060208201526104918384600001515184610a99565b604080518082019091526060815260006020820152610526848560000151518585610af5565b60408051808201909152606081526000602082015282518211156109d257600080fd5b60208501516109e18386610e8e565b1115610a1457610a1485610a04876020015187866109ff9190610e8e565b610b76565b610a0f906002610f91565b610b8d565b600080865180518760208301019350808887011115610a335787860182525b505050602084015b60208410610a735780518252610a52602083610e8e565b9150610a5f602082610e8e565b9050610a6c602085610fb0565b9350610a3b565b51815160001960208690036101000a019081169019919091161790525083949350505050565b60408051808201909152606081526000602082015283602001518310610ace57610ace8485602001516002610a0f9190610f91565b835180516020858301018481535080851415610aeb576001810182525b5093949350505050565b6040805180820190915260608152600060208201526020850151610b198584610e8e565b1115610b2d57610b2d85610a048685610e8e565b60006001610b3d84610100610ee9565b610b479190610fb0565b9050855183868201018583198251161781525080518487011115610b6b5783860181525b509495945050505050565b600081831115610b87575081610494565b50919050565b8151610b99838361061c565b506101d08382610790565b828054610bb090610ff3565b90600052602060002090601f016020900481019282610bd25760008555610c18565b82601f10610beb57805160ff1916838001178555610c18565b82800160010185558215610c18579182015b82811115610c18578251825591602001919060010190610bfd565b50610c24929150610ca3565b5090565b828054610c3490610ff3565b90600052602060002090601f016020900481019282610c565760008555610c18565b82601f10610c675780548555610c18565b82800160010185558215610c1857600052602060002091601f016020900482015b82811115610c18578254825591600101919060010190610c88565b5b80821115610c245760008155600101610ca4565b600060208284031215610cca57600080fd5b81518015158114610cda57600080fd5b9392505050565b60008060408385031215610cf457600080fd5b82359150602083013567ffffffffffffffff80821115610d1357600080fd5b818501915085601f830112610d2757600080fd5b813581811115610d3957610d39611060565b604051601f8201601f19908116603f01168101908382118183101715610d6157610d61611060565b81604052828152886020848701011115610d7a57600080fd5b8260208601602083013760006020848301015280955050505050509250929050565b60008151808452610db4816020860160208601610fc7565b601f01601f19169290920160200192915050565b60008251610dda818460208701610fc7565b9190910192915050565b6001600160a01b03881681528660208201528560408201527fffffffff00000000000000000000000000000000000000000000000000000000851660608201528360808201528260a082015260e060c08201526000610e4660e0830184610d9c565b9998505050505050505050565b6001600160a01b038416815282602082015260606040820152600061044b6060830184610d9c565b6020815260006104916020830184610d9c565b60008219821115610ea157610ea161104a565b500190565b600181815b80851115610ee1578160001904821115610ec757610ec761104a565b80851615610ed457918102915b93841c9390800290610eab565b509250929050565b60006104918383600082610eff57506001610494565b81610f0c57506000610494565b8160018114610f225760028114610f2c57610f48565b6001915050610494565b60ff841115610f3d57610f3d61104a565b50506001821b610494565b5060208310610133831016604e8410600b8410161715610f6b575081810a610494565b610f758383610ea6565b8060001904821115610f8957610f8961104a565b029392505050565b6000816000190483118215151615610fab57610fab61104a565b500290565b600082821015610fc257610fc261104a565b500390565b60005b83811015610fe2578181015183820152602001610fca565b838111156101d05750506000910152565b600181811c9082168061100757607f821691505b60208210811415610b8757634e487b7160e01b600052602260045260246000fd5b60008261104557634e487b7160e01b600052601260045260246000fd5b500690565b634e487b7160e01b600052601160045260246000fd5b634e487b7160e01b600052604160045260246000fdfe68747470733a2f2f697066736170696574732e6865726f6b756170702e636f6d2f6170692f76312f6e66742f3078386565396136306362356330653764623431343033313835366362396530663166303539383864312f333036312f31a2646970667358221220f1e5d2b8b4e95075b6832cea608d8350407e420dfe5692bcd360746653ba353f64736f6c63430008070033",
  "devdoc": {
    "kind": "dev",
    "methods": {
      "constructor": {
        "details": "The oracle address must be an Operator contract for multiword response Kovan Testnet details: Link Token: 0xa36085F69e2889c224210F603D836748e7dC0088 Oracle: 0xc57B33452b4F7BB189bB5AfaE9cc4aBa1f7a4FD8 (Chainlink DevRel)"
      },
      "fulfillBytes(bytes32,bytes)": {
        "details": "This is called by the oracle. recordChainlinkFulfillment must be used."
      }
    },
    "version": 1
  },
  "userdoc": {
    "kind": "user",
    "methods": {
      "constructor": {
        "notice": "Initialize the link token and target oracle"
      },
      "fulfillBytes(bytes32,bytes)": {
        "notice": "Fulfillment function for variable bytes"
      },
      "requestBytes()": {
        "notice": "Request variable bytes from the oracle"
      }
    },
    "notice": "DO NOT USE THIS CODE IN PRODUCTION. This is an example contract.",
    "version": 1
  },
  "storageLayout": {
    "storage": [
      {
        "astId": 319,
        "contract": "contracts/core/ETSEnsure.sol:ETSEnsure",
        "label": "s_ens",
        "offset": 0,
        "slot": "0",
        "type": "t_contract(ENSInterface)974"
      },
      {
        "astId": 321,
        "contract": "contracts/core/ETSEnsure.sol:ETSEnsure",
        "label": "s_ensNode",
        "offset": 0,
        "slot": "1",
        "type": "t_bytes32"
      },
      {
        "astId": 324,
        "contract": "contracts/core/ETSEnsure.sol:ETSEnsure",
        "label": "s_link",
        "offset": 0,
        "slot": "2",
        "type": "t_contract(LinkTokenInterface)1069"
      },
      {
        "astId": 327,
        "contract": "contracts/core/ETSEnsure.sol:ETSEnsure",
        "label": "s_oracle",
        "offset": 0,
        "slot": "3",
        "type": "t_contract(OperatorInterface)1149"
      },
      {
        "astId": 330,
        "contract": "contracts/core/ETSEnsure.sol:ETSEnsure",
        "label": "s_requestCount",
        "offset": 0,
        "slot": "4",
        "type": "t_uint256"
      },
      {
        "astId": 334,
        "contract": "contracts/core/ETSEnsure.sol:ETSEnsure",
        "label": "s_pendingRequests",
        "offset": 0,
        "slot": "5",
        "type": "t_mapping(t_bytes32,t_address)"
      },
      {
        "astId": 2319,
        "contract": "contracts/core/ETSEnsure.sol:ETSEnsure",
        "label": "data",
        "offset": 0,
        "slot": "6",
        "type": "t_bytes_storage"
      },
      {
        "astId": 2321,
        "contract": "contracts/core/ETSEnsure.sol:ETSEnsure",
        "label": "ipfsHash",
        "offset": 0,
        "slot": "7",
        "type": "t_string_storage"
      }
    ],
    "types": {
      "t_address": {
        "encoding": "inplace",
        "label": "address",
        "numberOfBytes": "20"
      },
      "t_bytes32": {
        "encoding": "inplace",
        "label": "bytes32",
        "numberOfBytes": "32"
      },
      "t_bytes_storage": {
        "encoding": "bytes",
        "label": "bytes",
        "numberOfBytes": "32"
      },
      "t_contract(ENSInterface)974": {
        "encoding": "inplace",
        "label": "contract ENSInterface",
        "numberOfBytes": "20"
      },
      "t_contract(LinkTokenInterface)1069": {
        "encoding": "inplace",
        "label": "contract LinkTokenInterface",
        "numberOfBytes": "20"
      },
      "t_contract(OperatorInterface)1149": {
        "encoding": "inplace",
        "label": "contract OperatorInterface",
        "numberOfBytes": "20"
      },
      "t_mapping(t_bytes32,t_address)": {
        "encoding": "mapping",
        "key": "t_bytes32",
        "label": "mapping(bytes32 => address)",
        "numberOfBytes": "32",
        "value": "t_address"
      },
      "t_string_storage": {
        "encoding": "bytes",
        "label": "string",
        "numberOfBytes": "32"
      },
      "t_uint256": {
        "encoding": "inplace",
        "label": "uint256",
        "numberOfBytes": "32"
      }
    }
  }
}