{
  "address": "0x3b730100763b729a979Ec318ff68a1a533C143AA",
  "abi": [
    {
      "anonymous": false,
      "inputs": [
        {
          "indexed": false,
          "internalType": "address",
          "name": "previousAdmin",
          "type": "address"
        },
        {
          "indexed": false,
          "internalType": "address",
          "name": "newAdmin",
          "type": "address"
        }
      ],
      "name": "AdminChanged",
      "type": "event"
    },
    {
      "anonymous": false,
      "inputs": [
        {
          "indexed": true,
          "internalType": "address",
          "name": "beacon",
          "type": "address"
        }
      ],
      "name": "BeaconUpgraded",
      "type": "event"
    },
    {
      "anonymous": false,
      "inputs": [
        {
          "indexed": true,
          "internalType": "bytes32",
          "name": "role",
          "type": "bytes32"
        },
        {
          "indexed": true,
          "internalType": "bytes32",
          "name": "previousAdminRole",
          "type": "bytes32"
        },
        {
          "indexed": true,
          "internalType": "bytes32",
          "name": "newAdminRole",
          "type": "bytes32"
        }
      ],
      "name": "RoleAdminChanged",
      "type": "event"
    },
    {
      "anonymous": false,
      "inputs": [
        {
          "indexed": true,
          "internalType": "bytes32",
          "name": "role",
          "type": "bytes32"
        },
        {
          "indexed": true,
          "internalType": "address",
          "name": "account",
          "type": "address"
        },
        {
          "indexed": true,
          "internalType": "address",
          "name": "sender",
          "type": "address"
        }
      ],
      "name": "RoleGranted",
      "type": "event"
    },
    {
      "anonymous": false,
      "inputs": [
        {
          "indexed": true,
          "internalType": "bytes32",
          "name": "role",
          "type": "bytes32"
        },
        {
          "indexed": true,
          "internalType": "address",
          "name": "account",
          "type": "address"
        },
        {
          "indexed": true,
          "internalType": "address",
          "name": "sender",
          "type": "address"
        }
      ],
      "name": "RoleRevoked",
      "type": "event"
    },
    {
      "anonymous": false,
      "inputs": [
        {
          "indexed": true,
          "internalType": "address",
          "name": "implementation",
          "type": "address"
        }
      ],
      "name": "Upgraded",
      "type": "event"
    },
    {
      "inputs": [],
      "name": "DEFAULT_ADMIN_ROLE",
      "outputs": [
        {
          "internalType": "bytes32",
          "name": "",
          "type": "bytes32"
        }
      ],
      "stateMutability": "view",
      "type": "function"
    },
    {
      "inputs": [],
      "name": "NAME",
      "outputs": [
        {
          "internalType": "string",
          "name": "",
          "type": "string"
        }
      ],
      "stateMutability": "view",
      "type": "function"
    },
    {
      "inputs": [],
      "name": "PUBLISHER_ROLE",
      "outputs": [
        {
          "internalType": "bytes32",
          "name": "",
          "type": "bytes32"
        }
      ],
      "stateMutability": "view",
      "type": "function"
    },
    {
      "inputs": [],
      "name": "SMART_CONTRACT_ROLE",
      "outputs": [
        {
          "internalType": "bytes32",
          "name": "",
          "type": "bytes32"
        }
      ],
      "stateMutability": "view",
      "type": "function"
    },
    {
      "inputs": [],
      "name": "VERSION",
      "outputs": [
        {
          "internalType": "string",
          "name": "",
          "type": "string"
        }
      ],
      "stateMutability": "view",
      "type": "function"
    },
    {
      "inputs": [
        {
          "internalType": "bytes32",
          "name": "role",
          "type": "bytes32"
        }
      ],
      "name": "getRoleAdmin",
      "outputs": [
        {
          "internalType": "bytes32",
          "name": "",
          "type": "bytes32"
        }
      ],
      "stateMutability": "view",
      "type": "function"
    },
    {
      "inputs": [
        {
          "internalType": "bytes32",
          "name": "role",
          "type": "bytes32"
        },
        {
          "internalType": "address",
          "name": "account",
          "type": "address"
        }
      ],
      "name": "grantRole",
      "outputs": [],
      "stateMutability": "nonpayable",
      "type": "function"
    },
    {
      "inputs": [
        {
          "internalType": "bytes32",
          "name": "role",
          "type": "bytes32"
        },
        {
          "internalType": "address",
          "name": "account",
          "type": "address"
        }
      ],
      "name": "hasRole",
      "outputs": [
        {
          "internalType": "bool",
          "name": "",
          "type": "bool"
        }
      ],
      "stateMutability": "view",
      "type": "function"
    },
    {
      "inputs": [],
      "name": "initialize",
      "outputs": [],
      "stateMutability": "nonpayable",
      "type": "function"
    },
    {
      "inputs": [
        {
          "internalType": "address",
          "name": "_addr",
          "type": "address"
        }
      ],
      "name": "isAdmin",
      "outputs": [
        {
          "internalType": "bool",
          "name": "",
          "type": "bool"
        }
      ],
      "stateMutability": "view",
      "type": "function"
    },
    {
      "inputs": [
        {
          "internalType": "address",
          "name": "_addr",
          "type": "address"
        }
      ],
      "name": "isPublisher",
      "outputs": [
        {
          "internalType": "bool",
          "name": "",
          "type": "bool"
        }
      ],
      "stateMutability": "view",
      "type": "function"
    },
    {
      "inputs": [
        {
          "internalType": "address",
          "name": "_addr",
          "type": "address"
        }
      ],
      "name": "isSmartContract",
      "outputs": [
        {
          "internalType": "bool",
          "name": "",
          "type": "bool"
        }
      ],
      "stateMutability": "view",
      "type": "function"
    },
    {
      "inputs": [
        {
          "internalType": "string",
          "name": "message",
          "type": "string"
        }
      ],
      "name": "postUpgrade",
      "outputs": [],
      "stateMutability": "view",
      "type": "function"
    },
    {
      "inputs": [
        {
          "internalType": "bytes32",
          "name": "role",
          "type": "bytes32"
        },
        {
          "internalType": "address",
          "name": "account",
          "type": "address"
        }
      ],
      "name": "renounceRole",
      "outputs": [],
      "stateMutability": "nonpayable",
      "type": "function"
    },
    {
      "inputs": [
        {
          "internalType": "bytes32",
          "name": "role",
          "type": "bytes32"
        },
        {
          "internalType": "address",
          "name": "account",
          "type": "address"
        }
      ],
      "name": "revokeRole",
      "outputs": [],
      "stateMutability": "nonpayable",
      "type": "function"
    },
    {
      "inputs": [
        {
          "internalType": "bytes4",
          "name": "interfaceId",
          "type": "bytes4"
        }
      ],
      "name": "supportsInterface",
      "outputs": [
        {
          "internalType": "bool",
          "name": "",
          "type": "bool"
        }
      ],
      "stateMutability": "view",
      "type": "function"
    },
    {
      "inputs": [
        {
          "internalType": "address",
          "name": "newImplementation",
          "type": "address"
        }
      ],
      "name": "upgradeTo",
      "outputs": [],
      "stateMutability": "nonpayable",
      "type": "function"
    },
    {
      "inputs": [
        {
          "internalType": "address",
          "name": "newImplementation",
          "type": "address"
        },
        {
          "internalType": "bytes",
          "name": "data",
          "type": "bytes"
        }
      ],
      "name": "upgradeToAndCall",
      "outputs": [],
      "stateMutability": "payable",
      "type": "function"
    },
    {
      "inputs": [],
      "name": "upgraded",
      "outputs": [
        {
          "internalType": "string",
          "name": "",
          "type": "string"
        }
      ],
      "stateMutability": "pure",
      "type": "function"
    },
    {
      "inputs": [],
      "name": "version",
      "outputs": [
        {
          "internalType": "string",
          "name": "",
          "type": "string"
        }
      ],
      "stateMutability": "pure",
      "type": "function"
    }
  ],
  "numDeployments": 14,
  "solcInputHash": "97b7ec79094bb67f28032d1498c1517b",
  "bytecode": "0x60a06040523060601b60805234801561001757600080fd5b5060805160601c61187961004b6000396000818161069b015281816107200152818161085701526108dc01526118796000f3fe60806040526004361061015f5760003560e01c80638129fc1c116100c0578063b1441ce611610074578063d547741f11610059578063d547741f14610436578063d8f4b6fd14610456578063ffa1ad741461048a57600080fd5b8063b1441ce6146103d0578063c28de2cd146103f057600080fd5b806391d14854116100a557806391d148541461032c578063a217fddf14610372578063a3f4df7e1461038757600080fd5b80638129fc1c146102e3578063857d2608146102f857600080fd5b806336568abe1161011757806341859ac8116100fc57806341859ac8146102795780634f1ef2861461029957806354fd4d50146102ac57600080fd5b806336568abe146102395780633659cfe61461025957600080fd5b806324d7806c1161014857806324d7806c146101d75780632f2ff15d146101f7578063347308b21461021957600080fd5b806301ffc9a714610164578063248a9ca314610199575b600080fd5b34801561017057600080fd5b5061018461017f3660046115a7565b6104bb565b60405190151581526020015b60405180910390f35b3480156101a557600080fd5b506101c96101b4366004611562565b60009081526065602052604090206001015490565b604051908152602001610190565b3480156101e357600080fd5b506101846101f2366004611485565b610554565b34801561020357600080fd5b5061021761021236600461157b565b610594565b005b34801561022557600080fd5b50610184610234366004611485565b6105bf565b34801561024557600080fd5b5061021761025436600461157b565b6105ff565b34801561026557600080fd5b50610217610274366004611485565b610690565b34801561028557600080fd5b50610184610294366004611485565b61080c565b6102176102a73660046114a0565b61084c565b3480156102b857600080fd5b50604080518082019091526005815264302e302e3160d81b60208201525b6040516101909190611724565b3480156102ef57600080fd5b506102176109b5565b34801561030457600080fd5b506101c97f5474431f81b75a7b45d74ffe5ff51964b4290ef4c86184accd4e4a9822dae90181565b34801561033857600080fd5b5061018461034736600461157b565b60009182526065602090815260408084206001600160a01b0393909316845291905290205460ff1690565b34801561037e57600080fd5b506101c9600081565b34801561039357600080fd5b506102d66040518060400160405280601381526020017f4554532061636365737320636f6e74726f6c730000000000000000000000000081525081565b3480156103dc57600080fd5b506102176103eb3660046115e9565b610a8f565b3480156103fc57600080fd5b5060408051808201909152600b81527f796f75206b6e6f7720697400000000000000000000000000000000000000000060208201526102d6565b34801561044257600080fd5b5061021761045136600461157b565b610b10565b34801561046257600080fd5b506101c97fad312f08b8889cfe65ec2f1faae419f8b47f0153a3483ea6130918c055c8183d81565b34801561049657600080fd5b506102d660405180604001604052806005815260200164302e302e3160d81b81525081565b60007fffffffff0000000000000000000000000000000000000000000000000000000082167f7965db0b00000000000000000000000000000000000000000000000000000000148061054e57507f01ffc9a7000000000000000000000000000000000000000000000000000000007fffffffff000000000000000000000000000000000000000000000000000000008316145b92915050565b6001600160a01b03811660009081527fffdfc1249c027f9191656349feb0761381bb32c9f557e01f419fd08754bf5a1b602052604081205460ff1661054e565b6000828152606560205260409020600101546105b08133610b36565b6105ba8383610bb6565b505050565b6001600160a01b03811660009081527f1c575814e1cd24773b117fedd6b05ab4d9de98c6d9f60531a8ff9197b9c46f15602052604081205460ff1661054e565b6001600160a01b03811633146106825760405162461bcd60e51b815260206004820152602f60248201527f416363657373436f6e74726f6c3a2063616e206f6e6c792072656e6f756e636560448201527f20726f6c657320666f722073656c66000000000000000000000000000000000060648201526084015b60405180910390fd5b61068c8282610c58565b5050565b306001600160a01b037f000000000000000000000000000000000000000000000000000000000000000016141561071e5760405162461bcd60e51b815260206004820152602c60248201527f46756e6374696f6e206d7573742062652063616c6c6564207468726f7567682060448201526b19195b1959d85d1958d85b1b60a21b6064820152608401610679565b7f00000000000000000000000000000000000000000000000000000000000000006001600160a01b03166107797f360894a13ba1a3210667c828492db98dca3e2076cc3735a920a3ca505d382bbc546001600160a01b031690565b6001600160a01b0316146107e45760405162461bcd60e51b815260206004820152602c60248201527f46756e6374696f6e206d7573742062652063616c6c6564207468726f7567682060448201526b6163746976652070726f787960a01b6064820152608401610679565b6107ed81610cdb565b6040805160008082526020820190925261080991839190610ce7565b50565b6001600160a01b03811660009081527f539b586f55d61ee867945dc075fa8e91eca932ae00c1c0cc9cfa4eb32213b3aa602052604081205460ff1661054e565b306001600160a01b037f00000000000000000000000000000000000000000000000000000000000000001614156108da5760405162461bcd60e51b815260206004820152602c60248201527f46756e6374696f6e206d7573742062652063616c6c6564207468726f7567682060448201526b19195b1959d85d1958d85b1b60a21b6064820152608401610679565b7f00000000000000000000000000000000000000000000000000000000000000006001600160a01b03166109357f360894a13ba1a3210667c828492db98dca3e2076cc3735a920a3ca505d382bbc546001600160a01b031690565b6001600160a01b0316146109a05760405162461bcd60e51b815260206004820152602c60248201527f46756e6374696f6e206d7573742062652063616c6c6564207468726f7567682060448201526b6163746976652070726f787960a01b6064820152608401610679565b6109a982610cdb565b61068c82826001610ce7565b600054610100900460ff166109d05760005460ff16156109d4565b303b155b610a465760405162461bcd60e51b815260206004820152602e60248201527f496e697469616c697a61626c653a20636f6e747261637420697320616c72656160448201527f647920696e697469616c697a65640000000000000000000000000000000000006064820152608401610679565b600054610100900460ff16158015610a68576000805461ffff19166101011790555b610a70610eab565b610a7b600033610f30565b8015610809576000805461ff001916905550565b6000610a9b8133610b36565b6105ba6040518060400160405280601a81526020017f455453416363657373436f6e74726f6c7320757067726164656400000000000081525084848080601f016020809104026020016040519081016040528093929190818152602001838380828437600092019190915250610f3a92505050565b600082815260656020526040902060010154610b2c8133610b36565b6105ba8383610c58565b60008281526065602090815260408083206001600160a01b038516845290915290205460ff1661068c57610b74816001600160a01b03166014610fad565b610b7f836020610fad565b604051602001610b909291906116a3565b60408051601f198184030181529082905262461bcd60e51b825261067991600401611724565b60008281526065602090815260408083206001600160a01b038516845290915290205460ff1661068c5760008281526065602090815260408083206001600160a01b03851684529091529020805460ff19166001179055610c143390565b6001600160a01b0316816001600160a01b0316837f2f8788117e7eff1d82e926ec794901d17c78024a50270940304540a733656f0d60405160405180910390a45050565b60008281526065602090815260408083206001600160a01b038516845290915290205460ff161561068c5760008281526065602090815260408083206001600160a01b0385168085529252808320805460ff1916905551339285917ff6391f5c32d9c69d2a47ea670b442974b53935d1edc7fd64eb21e047a839171b9190a45050565b600061068c8133610b36565b6000610d1a7f360894a13ba1a3210667c828492db98dca3e2076cc3735a920a3ca505d382bbc546001600160a01b031690565b9050610d2584611195565b600083511180610d325750815b15610d4357610d418484611262565b505b7f4910fdfa16fed3260ed0e7147f7cc6da11a60208b5b9406d12a635614ffd9143805460ff16610ea457805460ff191660011781556040516001600160a01b0383166024820152610df090869060440160408051601f198184030181529190526020810180517bffffffffffffffffffffffffffffffffffffffffffffffffffffffff167f3659cfe600000000000000000000000000000000000000000000000000000000179052611262565b50805460ff191681557f360894a13ba1a3210667c828492db98dca3e2076cc3735a920a3ca505d382bbc546001600160a01b03838116911614610e9b5760405162461bcd60e51b815260206004820152602f60248201527f45524331393637557067726164653a207570677261646520627265616b73206660448201527f75727468657220757067726164657300000000000000000000000000000000006064820152608401610679565b610ea485611364565b5050505050565b600054610100900460ff16610f165760405162461bcd60e51b815260206004820152602b60248201527f496e697469616c697a61626c653a20636f6e7472616374206973206e6f74206960448201526a6e697469616c697a696e6760a81b6064820152608401610679565b610f1e6113a4565b610f266113a4565b610f2e6113a4565b565b61068c8282610bb6565b61068c8282604051602401610f50929190611737565b60408051601f198184030181529190526020810180517bffffffffffffffffffffffffffffffffffffffffffffffffffffffff167f4b5c42770000000000000000000000000000000000000000000000000000000017905261140f565b60606000610fbc836002611774565b610fc790600261175c565b67ffffffffffffffff811115610fdf57610fdf611806565b6040519080825280601f01601f191660200182016040528015611009576020820181803683370190505b5090507f300000000000000000000000000000000000000000000000000000000000000081600081518110611040576110406117f0565b60200101906001600160f81b031916908160001a9053507f78000000000000000000000000000000000000000000000000000000000000008160018151811061108b5761108b6117f0565b60200101906001600160f81b031916908160001a90535060006110af846002611774565b6110ba90600161175c565b90505b600181111561113f577f303132333435363738396162636465660000000000000000000000000000000085600f16601081106110fb576110fb6117f0565b1a60f81b828281518110611111576111116117f0565b60200101906001600160f81b031916908160001a90535060049490941c93611138816117c3565b90506110bd565b50831561118e5760405162461bcd60e51b815260206004820181905260248201527f537472696e67733a20686578206c656e67746820696e73756666696369656e746044820152606401610679565b9392505050565b803b6112095760405162461bcd60e51b815260206004820152602d60248201527f455243313936373a206e657720696d706c656d656e746174696f6e206973206e60448201527f6f74206120636f6e7472616374000000000000000000000000000000000000006064820152608401610679565b7f360894a13ba1a3210667c828492db98dca3e2076cc3735a920a3ca505d382bbc80547fffffffffffffffffffffffff0000000000000000000000000000000000000000166001600160a01b0392909216919091179055565b6060823b6112d85760405162461bcd60e51b815260206004820152602660248201527f416464726573733a2064656c65676174652063616c6c20746f206e6f6e2d636f60448201527f6e747261637400000000000000000000000000000000000000000000000000006064820152608401610679565b600080846001600160a01b0316846040516112f39190611687565b600060405180830381855af49150503d806000811461132e576040519150601f19603f3d011682016040523d82523d6000602084013e611333565b606091505b509150915061135b828260405180606001604052806027815260200161181d60279139611430565b95945050505050565b61136d81611195565b6040516001600160a01b038216907fbc7cd75a20ee27fd9adebab32041f755214dbc6bffa90cc0225b39da2e5c2d3b90600090a250565b600054610100900460ff16610f2e5760405162461bcd60e51b815260206004820152602b60248201527f496e697469616c697a61626c653a20636f6e7472616374206973206e6f74206960448201526a6e697469616c697a696e6760a81b6064820152608401610679565b80516a636f6e736f6c652e6c6f67602083016000808483855afa5050505050565b6060831561143f57508161118e565b82511561144f5782518084602001fd5b8160405162461bcd60e51b81526004016106799190611724565b80356001600160a01b038116811461148057600080fd5b919050565b60006020828403121561149757600080fd5b61118e82611469565b600080604083850312156114b357600080fd5b6114bc83611469565b9150602083013567ffffffffffffffff808211156114d957600080fd5b818501915085601f8301126114ed57600080fd5b8135818111156114ff576114ff611806565b604051601f8201601f19908116603f0116810190838211818310171561152757611527611806565b8160405282815288602084870101111561154057600080fd5b8260208601602083013760006020848301015280955050505050509250929050565b60006020828403121561157457600080fd5b5035919050565b6000806040838503121561158e57600080fd5b8235915061159e60208401611469565b90509250929050565b6000602082840312156115b957600080fd5b81357fffffffff000000000000000000000000000000000000000000000000000000008116811461118e57600080fd5b600080602083850312156115fc57600080fd5b823567ffffffffffffffff8082111561161457600080fd5b818501915085601f83011261162857600080fd5b81358181111561163757600080fd5b86602082850101111561164957600080fd5b60209290920196919550909350505050565b60008151808452611673816020860160208601611793565b601f01601f19169290920160200192915050565b60008251611699818460208701611793565b9190910192915050565b7f416363657373436f6e74726f6c3a206163636f756e74200000000000000000008152600083516116db816017850160208801611793565b7f206973206d697373696e6720726f6c65200000000000000000000000000000006017918401918201528351611718816028840160208801611793565b01602801949350505050565b60208152600061118e602083018461165b565b60408152600061174a604083018561165b565b828103602084015261135b818561165b565b6000821982111561176f5761176f6117da565b500190565b600081600019048311821515161561178e5761178e6117da565b500290565b60005b838110156117ae578181015183820152602001611796565b838111156117bd576000848401525b50505050565b6000816117d2576117d26117da565b506000190190565b634e487b7160e01b600052601160045260246000fd5b634e487b7160e01b600052603260045260246000fd5b634e487b7160e01b600052604160045260246000fdfe416464726573733a206c6f772d6c6576656c2064656c65676174652063616c6c206661696c6564a2646970667358221220f2c2ec08a6522e324399a4b5963d58708af67958b644fe3b90e8e08f58feabda64736f6c63430008070033",
  "devdoc": {
    "author": "Ethereum Tag Service <security@ets.xyz>",
    "details": "Maintains a mapping of ethereum addresses and roles they have within the protocol",
    "kind": "dev",
    "methods": {
      "getRoleAdmin(bytes32)": {
        "details": "Returns the admin role that controls `role`. See {grantRole} and {revokeRole}. To change a role's admin, use {_setRoleAdmin}."
      },
      "grantRole(bytes32,address)": {
        "details": "Grants `role` to `account`. If `account` had not been already granted `role`, emits a {RoleGranted} event. Requirements: - the caller must have ``role``'s admin role."
      },
      "hasRole(bytes32,address)": {
        "details": "Returns `true` if `account` has been granted `role`."
      },
      "isAdmin(address)": {
        "details": "Checks whether an address has an admin role",
        "params": {
          "_addr": "Address being checked"
        },
        "returns": {
          "_0": "bool True if the address has the role, false if not"
        }
      },
      "isPublisher(address)": {
        "details": "Checks whether an address has a publisher role",
        "params": {
          "_addr": "Address being checked"
        },
        "returns": {
          "_0": "bool True if the address has the role, false if not"
        }
      },
      "isSmartContract(address)": {
        "details": "Checks whether an address has a smart contract role.",
        "params": {
          "_addr": "Address being checked."
        },
        "returns": {
          "_0": "bool True if the address has the role, false if not."
        }
      },
      "renounceRole(bytes32,address)": {
        "details": "Revokes `role` from the calling account. Roles are often managed via {grantRole} and {revokeRole}: this function's purpose is to provide a mechanism for accounts to lose their privileges if they are compromised (such as when a trusted device is misplaced). If the calling account had been revoked `role`, emits a {RoleRevoked} event. Requirements: - the caller must be `account`."
      },
      "revokeRole(bytes32,address)": {
        "details": "Revokes `role` from `account`. If `account` had been granted `role`, emits a {RoleRevoked} event. Requirements: - the caller must have ``role``'s admin role."
      },
      "supportsInterface(bytes4)": {
        "details": "See {IERC165-supportsInterface}."
      },
      "upgradeTo(address)": {
        "details": "Upgrade the implementation of the proxy to `newImplementation`. Calls {_authorizeUpgrade}. Emits an {Upgraded} event."
      },
      "upgradeToAndCall(address,bytes)": {
        "details": "Upgrade the implementation of the proxy to `newImplementation`, and subsequently execute the function call encoded in `data`. Calls {_authorizeUpgrade}. Emits an {Upgraded} event."
      }
    },
    "title": "ETS access controls",
    "version": 1
  },
  "userdoc": {
    "kind": "user",
    "methods": {
      "NAME()": {
        "notice": "Public constants"
      }
    },
    "version": 1
  },
  "storageLayout": {
    "storage": [
      {
        "astId": 824,
        "contract": "contracts/core/ETSAccessControls.sol:ETSAccessControls",
        "label": "_initialized",
        "offset": 0,
        "slot": "0",
        "type": "t_bool"
      },
      {
        "astId": 827,
        "contract": "contracts/core/ETSAccessControls.sol:ETSAccessControls",
        "label": "_initializing",
        "offset": 1,
        "slot": "0",
        "type": "t_bool"
      },
      {
        "astId": 2609,
        "contract": "contracts/core/ETSAccessControls.sol:ETSAccessControls",
        "label": "__gap",
        "offset": 0,
        "slot": "1",
        "type": "t_array(t_uint256)50_storage"
      },
      {
        "astId": 2918,
        "contract": "contracts/core/ETSAccessControls.sol:ETSAccessControls",
        "label": "__gap",
        "offset": 0,
        "slot": "51",
        "type": "t_array(t_uint256)50_storage"
      },
      {
        "astId": 48,
        "contract": "contracts/core/ETSAccessControls.sol:ETSAccessControls",
        "label": "_roles",
        "offset": 0,
        "slot": "101",
        "type": "t_mapping(t_bytes32,t_struct(RoleData)43_storage)"
      },
      {
        "astId": 335,
        "contract": "contracts/core/ETSAccessControls.sol:ETSAccessControls",
        "label": "__gap",
        "offset": 0,
        "slot": "102",
        "type": "t_array(t_uint256)49_storage"
      },
      {
        "astId": 806,
        "contract": "contracts/core/ETSAccessControls.sol:ETSAccessControls",
        "label": "__gap",
        "offset": 0,
        "slot": "151",
        "type": "t_array(t_uint256)50_storage"
      },
      {
        "astId": 1001,
        "contract": "contracts/core/ETSAccessControls.sol:ETSAccessControls",
        "label": "__gap",
        "offset": 0,
        "slot": "201",
        "type": "t_array(t_uint256)50_storage"
      }
    ],
    "types": {
      "t_address": {
        "encoding": "inplace",
        "label": "address",
        "numberOfBytes": "20"
      },
      "t_array(t_uint256)49_storage": {
        "base": "t_uint256",
        "encoding": "inplace",
        "label": "uint256[49]",
        "numberOfBytes": "1568"
      },
      "t_array(t_uint256)50_storage": {
        "base": "t_uint256",
        "encoding": "inplace",
        "label": "uint256[50]",
        "numberOfBytes": "1600"
      },
      "t_bool": {
        "encoding": "inplace",
        "label": "bool",
        "numberOfBytes": "1"
      },
      "t_bytes32": {
        "encoding": "inplace",
        "label": "bytes32",
        "numberOfBytes": "32"
      },
      "t_mapping(t_address,t_bool)": {
        "encoding": "mapping",
        "key": "t_address",
        "label": "mapping(address => bool)",
        "numberOfBytes": "32",
        "value": "t_bool"
      },
      "t_mapping(t_bytes32,t_struct(RoleData)43_storage)": {
        "encoding": "mapping",
        "key": "t_bytes32",
        "label": "mapping(bytes32 => struct AccessControlUpgradeable.RoleData)",
        "numberOfBytes": "32",
        "value": "t_struct(RoleData)43_storage"
      },
      "t_struct(RoleData)43_storage": {
        "encoding": "inplace",
        "label": "struct AccessControlUpgradeable.RoleData",
        "members": [
          {
            "astId": 40,
            "contract": "contracts/core/ETSAccessControls.sol:ETSAccessControls",
            "label": "members",
            "offset": 0,
            "slot": "0",
            "type": "t_mapping(t_address,t_bool)"
          },
          {
            "astId": 42,
            "contract": "contracts/core/ETSAccessControls.sol:ETSAccessControls",
            "label": "adminRole",
            "offset": 0,
            "slot": "1",
            "type": "t_bytes32"
          }
        ],
        "numberOfBytes": "64"
      },
      "t_uint256": {
        "encoding": "inplace",
        "label": "uint256",
        "numberOfBytes": "32"
      }
    }
  }
}