{
  "address": "0x8A4416d512b8e49458bB19acD458d0c8323e4DE3",
  "abi": [
    {
      "anonymous": false,
      "inputs": [
        {
          "indexed": false,
          "internalType": "contract ETSAccessControls",
          "name": "previousAccessControls",
          "type": "address"
        },
        {
          "indexed": false,
          "internalType": "contract ETSAccessControls",
          "name": "newAccessControls",
          "type": "address"
        }
      ],
      "name": "AccessControlsUpdated",
      "type": "event"
    },
    {
      "anonymous": false,
      "inputs": [
        {
          "indexed": false,
          "internalType": "address",
          "name": "previousAdmin",
          "type": "address"
        },
        {
          "indexed": false,
          "internalType": "address",
          "name": "newAdmin",
          "type": "address"
        }
      ],
      "name": "AdminChanged",
      "type": "event"
    },
    {
      "anonymous": false,
      "inputs": [
        {
          "indexed": true,
          "internalType": "address",
          "name": "owner",
          "type": "address"
        },
        {
          "indexed": true,
          "internalType": "address",
          "name": "approved",
          "type": "address"
        },
        {
          "indexed": true,
          "internalType": "uint256",
          "name": "tokenId",
          "type": "uint256"
        }
      ],
      "name": "Approval",
      "type": "event"
    },
    {
      "anonymous": false,
      "inputs": [
        {
          "indexed": true,
          "internalType": "address",
          "name": "owner",
          "type": "address"
        },
        {
          "indexed": true,
          "internalType": "address",
          "name": "operator",
          "type": "address"
        },
        {
          "indexed": false,
          "internalType": "bool",
          "name": "approved",
          "type": "bool"
        }
      ],
      "name": "ApprovalForAll",
      "type": "event"
    },
    {
      "anonymous": false,
      "inputs": [
        {
          "indexed": true,
          "internalType": "address",
          "name": "beacon",
          "type": "address"
        }
      ],
      "name": "BeaconUpgraded",
      "type": "event"
    },
    {
      "anonymous": false,
      "inputs": [
        {
          "indexed": true,
          "internalType": "uint256",
          "name": "tokenId",
          "type": "uint256"
        },
        {
          "indexed": false,
          "internalType": "string",
          "name": "displayVersion",
          "type": "string"
        },
        {
          "indexed": true,
          "internalType": "address",
          "name": "publisher",
          "type": "address"
        },
        {
          "indexed": false,
          "internalType": "address",
          "name": "creator",
          "type": "address"
        }
      ],
      "name": "MintTag",
      "type": "event"
    },
    {
      "anonymous": false,
      "inputs": [
        {
          "indexed": false,
          "internalType": "string",
          "name": "baseURI",
          "type": "string"
        }
      ],
      "name": "NewBaseURI",
      "type": "event"
    },
    {
      "anonymous": false,
      "inputs": [
        {
          "indexed": false,
          "internalType": "uint256",
          "name": "originalOwnershipLength",
          "type": "uint256"
        },
        {
          "indexed": false,
          "internalType": "uint256",
          "name": "updatedOwnershipLength",
          "type": "uint256"
        }
      ],
      "name": "OwnershipTermLengthUpdated",
      "type": "event"
    },
    {
      "anonymous": false,
      "inputs": [
        {
          "indexed": false,
          "internalType": "address",
          "name": "account",
          "type": "address"
        }
      ],
      "name": "Paused",
      "type": "event"
    },
    {
      "anonymous": false,
      "inputs": [
        {
          "indexed": false,
          "internalType": "address",
          "name": "previousPlatformAddress",
          "type": "address"
        },
        {
          "indexed": false,
          "internalType": "address",
          "name": "newPlatformAddress",
          "type": "address"
        }
      ],
      "name": "PlatformSet",
      "type": "event"
    },
    {
      "anonymous": false,
      "inputs": [
        {
          "indexed": false,
          "internalType": "uint256",
          "name": "originalRenewalPeriod",
          "type": "uint256"
        },
        {
          "indexed": false,
          "internalType": "uint256",
          "name": "updatedRenewalPeriod",
          "type": "uint256"
        }
      ],
      "name": "RenewalPeriodUpdated",
      "type": "event"
    },
    {
      "anonymous": false,
      "inputs": [
        {
          "indexed": true,
          "internalType": "uint256",
          "name": "tokenId",
          "type": "uint256"
        }
      ],
      "name": "TagBurned",
      "type": "event"
    },
    {
      "anonymous": false,
      "inputs": [
        {
          "indexed": false,
          "internalType": "uint256",
          "name": "previousMaxStringLength",
          "type": "uint256"
        },
        {
          "indexed": false,
          "internalType": "uint256",
          "name": "newMaxStringLength",
          "type": "uint256"
        }
      ],
      "name": "TagMaxStringLengthUpdated",
      "type": "event"
    },
    {
      "anonymous": false,
      "inputs": [
        {
          "indexed": true,
          "internalType": "uint256",
          "name": "tokenId",
          "type": "uint256"
        },
        {
          "indexed": true,
          "internalType": "address",
          "name": "owner",
          "type": "address"
        }
      ],
      "name": "TagRecycled",
      "type": "event"
    },
    {
      "anonymous": false,
      "inputs": [
        {
          "indexed": true,
          "internalType": "uint256",
          "name": "tokenId",
          "type": "uint256"
        },
        {
          "indexed": true,
          "internalType": "address",
          "name": "caller",
          "type": "address"
        }
      ],
      "name": "TagRenewed",
      "type": "event"
    },
    {
      "anonymous": false,
      "inputs": [
        {
          "indexed": true,
          "internalType": "address",
          "name": "from",
          "type": "address"
        },
        {
          "indexed": true,
          "internalType": "address",
          "name": "to",
          "type": "address"
        },
        {
          "indexed": true,
          "internalType": "uint256",
          "name": "tokenId",
          "type": "uint256"
        }
      ],
      "name": "Transfer",
      "type": "event"
    },
    {
      "anonymous": false,
      "inputs": [
        {
          "indexed": false,
          "internalType": "address",
          "name": "account",
          "type": "address"
        }
      ],
      "name": "Unpaused",
      "type": "event"
    },
    {
      "anonymous": false,
      "inputs": [
        {
          "indexed": true,
          "internalType": "address",
          "name": "implementation",
          "type": "address"
        }
      ],
      "name": "Upgraded",
      "type": "event"
    },
    {
      "inputs": [],
      "name": "NAME",
      "outputs": [
        {
          "internalType": "string",
          "name": "",
          "type": "string"
        }
      ],
      "stateMutability": "view",
      "type": "function"
    },
    {
      "inputs": [],
      "name": "VERSION",
      "outputs": [
        {
          "internalType": "string",
          "name": "",
          "type": "string"
        }
      ],
      "stateMutability": "view",
      "type": "function"
    },
    {
      "inputs": [],
      "name": "accessControls",
      "outputs": [
        {
          "internalType": "contract ETSAccessControls",
          "name": "",
          "type": "address"
        }
      ],
      "stateMutability": "view",
      "type": "function"
    },
    {
      "inputs": [
        {
          "internalType": "address",
          "name": "to",
          "type": "address"
        },
        {
          "internalType": "uint256",
          "name": "tokenId",
          "type": "uint256"
        }
      ],
      "name": "approve",
      "outputs": [],
      "stateMutability": "nonpayable",
      "type": "function"
    },
    {
      "inputs": [
        {
          "internalType": "address",
          "name": "owner",
          "type": "address"
        }
      ],
      "name": "balanceOf",
      "outputs": [
        {
          "internalType": "uint256",
          "name": "",
          "type": "uint256"
        }
      ],
      "stateMutability": "view",
      "type": "function"
    },
    {
      "inputs": [],
      "name": "baseURI",
      "outputs": [
        {
          "internalType": "string",
          "name": "",
          "type": "string"
        }
      ],
      "stateMutability": "view",
      "type": "function"
    },
    {
      "inputs": [
        {
          "internalType": "uint256",
          "name": "tokenId",
          "type": "uint256"
        }
      ],
      "name": "burn",
      "outputs": [],
      "stateMutability": "nonpayable",
      "type": "function"
    },
    {
      "inputs": [
        {
          "internalType": "uint256",
          "name": "tokenId",
          "type": "uint256"
        }
      ],
      "name": "exists",
      "outputs": [
        {
          "internalType": "bool",
          "name": "",
          "type": "bool"
        }
      ],
      "stateMutability": "view",
      "type": "function"
    },
    {
      "inputs": [
        {
          "internalType": "uint256",
          "name": "tokenId",
          "type": "uint256"
        }
      ],
      "name": "getApproved",
      "outputs": [
        {
          "internalType": "address",
          "name": "",
          "type": "address"
        }
      ],
      "stateMutability": "view",
      "type": "function"
    },
    {
      "inputs": [
        {
          "internalType": "uint256",
          "name": "_tokenId",
          "type": "uint256"
        }
      ],
      "name": "getCreatorAddress",
      "outputs": [
        {
          "internalType": "address",
          "name": "_creator",
          "type": "address"
        }
      ],
      "stateMutability": "view",
      "type": "function"
    },
    {
      "inputs": [
        {
          "internalType": "uint256",
          "name": "_tokenId",
          "type": "uint256"
        }
      ],
      "name": "getPaymentAddresses",
      "outputs": [
        {
          "internalType": "address payable",
          "name": "_platform",
          "type": "address"
        },
        {
          "internalType": "address payable",
          "name": "_owner",
          "type": "address"
        }
      ],
      "stateMutability": "view",
      "type": "function"
    },
    {
      "inputs": [
        {
          "internalType": "string",
          "name": "tag",
          "type": "string"
        }
      ],
      "name": "getTagId",
      "outputs": [
        {
          "internalType": "uint256",
          "name": "etstagId",
          "type": "uint256"
        }
      ],
      "stateMutability": "view",
      "type": "function"
    },
    {
      "inputs": [
        {
          "internalType": "contract ETSAccessControls",
          "name": "_accessControls",
          "type": "address"
        },
        {
          "internalType": "address payable",
          "name": "_platform",
          "type": "address"
        }
      ],
      "name": "initialize",
      "outputs": [],
      "stateMutability": "nonpayable",
      "type": "function"
    },
    {
      "inputs": [
        {
          "internalType": "address",
          "name": "owner",
          "type": "address"
        },
        {
          "internalType": "address",
          "name": "operator",
          "type": "address"
        }
      ],
      "name": "isApprovedForAll",
      "outputs": [
        {
          "internalType": "bool",
          "name": "",
          "type": "bool"
        }
      ],
      "stateMutability": "view",
      "type": "function"
    },
    {
      "inputs": [
        {
          "internalType": "string",
          "name": "_tag",
          "type": "string"
        },
        {
          "internalType": "address payable",
          "name": "_publisher",
          "type": "address"
        },
        {
          "internalType": "address",
          "name": "_creator",
          "type": "address"
        }
      ],
      "name": "mint",
      "outputs": [
        {
          "internalType": "uint256",
          "name": "_tokenId",
          "type": "uint256"
        }
      ],
      "stateMutability": "payable",
      "type": "function"
    },
    {
      "inputs": [],
      "name": "name",
      "outputs": [
        {
          "internalType": "string",
          "name": "",
          "type": "string"
        }
      ],
      "stateMutability": "view",
      "type": "function"
    },
    {
      "inputs": [
        {
          "internalType": "uint256",
          "name": "tokenId",
          "type": "uint256"
        }
      ],
      "name": "ownerOf",
      "outputs": [
        {
          "internalType": "address",
          "name": "",
          "type": "address"
        }
      ],
      "stateMutability": "view",
      "type": "function"
    },
    {
      "inputs": [],
      "name": "ownershipTermLength",
      "outputs": [
        {
          "internalType": "uint256",
          "name": "",
          "type": "uint256"
        }
      ],
      "stateMutability": "view",
      "type": "function"
    },
    {
      "inputs": [],
      "name": "pause",
      "outputs": [],
      "stateMutability": "nonpayable",
      "type": "function"
    },
    {
      "inputs": [],
      "name": "paused",
      "outputs": [
        {
          "internalType": "bool",
          "name": "",
          "type": "bool"
        }
      ],
      "stateMutability": "view",
      "type": "function"
    },
    {
      "inputs": [],
      "name": "platform",
      "outputs": [
        {
          "internalType": "address payable",
          "name": "",
          "type": "address"
        }
      ],
      "stateMutability": "view",
      "type": "function"
    },
    {
      "inputs": [
        {
          "internalType": "uint256",
          "name": "_tokenId",
          "type": "uint256"
        }
      ],
      "name": "recycleTag",
      "outputs": [],
      "stateMutability": "nonpayable",
      "type": "function"
    },
    {
      "inputs": [
        {
          "internalType": "uint256",
          "name": "_tokenId",
          "type": "uint256"
        }
      ],
      "name": "renewTag",
      "outputs": [],
      "stateMutability": "nonpayable",
      "type": "function"
    },
    {
      "inputs": [
        {
          "internalType": "address",
          "name": "from",
          "type": "address"
        },
        {
          "internalType": "address",
          "name": "to",
          "type": "address"
        },
        {
          "internalType": "uint256",
          "name": "tokenId",
          "type": "uint256"
        }
      ],
      "name": "safeTransferFrom",
      "outputs": [],
      "stateMutability": "nonpayable",
      "type": "function"
    },
    {
      "inputs": [
        {
          "internalType": "address",
          "name": "from",
          "type": "address"
        },
        {
          "internalType": "address",
          "name": "to",
          "type": "address"
        },
        {
          "internalType": "uint256",
          "name": "tokenId",
          "type": "uint256"
        },
        {
          "internalType": "bytes",
          "name": "_data",
          "type": "bytes"
        }
      ],
      "name": "safeTransferFrom",
      "outputs": [],
      "stateMutability": "nonpayable",
      "type": "function"
    },
    {
      "inputs": [
        {
          "internalType": "address",
          "name": "operator",
          "type": "address"
        },
        {
          "internalType": "bool",
          "name": "approved",
          "type": "bool"
        }
      ],
      "name": "setApprovalForAll",
      "outputs": [],
      "stateMutability": "nonpayable",
      "type": "function"
    },
    {
      "inputs": [
        {
          "internalType": "string",
          "name": "newBaseURI",
          "type": "string"
        }
      ],
      "name": "setBaseURI",
      "outputs": [],
      "stateMutability": "nonpayable",
      "type": "function"
    },
    {
      "inputs": [
        {
          "internalType": "uint256",
          "name": "_ownershipTermLength",
          "type": "uint256"
        }
      ],
      "name": "setOwnershipTermLength",
      "outputs": [],
      "stateMutability": "nonpayable",
      "type": "function"
    },
    {
      "inputs": [
        {
          "internalType": "address payable",
          "name": "_platform",
          "type": "address"
        }
      ],
      "name": "setPlatform",
      "outputs": [],
      "stateMutability": "nonpayable",
      "type": "function"
    },
    {
      "inputs": [
        {
          "internalType": "uint256",
          "name": "_tagMaxStringLength",
          "type": "uint256"
        }
      ],
      "name": "setTagMaxStringLength",
      "outputs": [],
      "stateMutability": "nonpayable",
      "type": "function"
    },
    {
      "inputs": [
        {
          "internalType": "bytes4",
          "name": "interfaceId",
          "type": "bytes4"
        }
      ],
      "name": "supportsInterface",
      "outputs": [
        {
          "internalType": "bool",
          "name": "",
          "type": "bool"
        }
      ],
      "stateMutability": "view",
      "type": "function"
    },
    {
      "inputs": [],
      "name": "symbol",
      "outputs": [
        {
          "internalType": "string",
          "name": "",
          "type": "string"
        }
      ],
      "stateMutability": "view",
      "type": "function"
    },
    {
      "inputs": [],
      "name": "tagMaxStringLength",
      "outputs": [
        {
          "internalType": "uint256",
          "name": "",
          "type": "uint256"
        }
      ],
      "stateMutability": "view",
      "type": "function"
    },
    {
      "inputs": [],
      "name": "tagMinStringLength",
      "outputs": [
        {
          "internalType": "uint256",
          "name": "",
          "type": "uint256"
        }
      ],
      "stateMutability": "view",
      "type": "function"
    },
    {
      "inputs": [
        {
          "internalType": "string",
          "name": "",
          "type": "string"
        }
      ],
      "name": "tagToTokenId",
      "outputs": [
        {
          "internalType": "uint256",
          "name": "",
          "type": "uint256"
        }
      ],
      "stateMutability": "view",
      "type": "function"
    },
    {
      "inputs": [
        {
          "internalType": "uint256",
          "name": "",
          "type": "uint256"
        }
      ],
      "name": "tokenIdToLastTransferTime",
      "outputs": [
        {
          "internalType": "uint256",
          "name": "",
          "type": "uint256"
        }
      ],
      "stateMutability": "view",
      "type": "function"
    },
    {
      "inputs": [
        {
          "internalType": "uint256",
          "name": "",
          "type": "uint256"
        }
      ],
      "name": "tokenIdToTag",
      "outputs": [
        {
          "internalType": "address",
          "name": "originalPublisher",
          "type": "address"
        },
        {
          "internalType": "address",
          "name": "creator",
          "type": "address"
        },
        {
          "internalType": "string",
          "name": "displayVersion",
          "type": "string"
        },
        {
          "internalType": "string",
          "name": "machineName",
          "type": "string"
        }
      ],
      "stateMutability": "view",
      "type": "function"
    },
    {
      "inputs": [],
      "name": "tokenPointer",
      "outputs": [
        {
          "internalType": "uint256",
          "name": "",
          "type": "uint256"
        }
      ],
      "stateMutability": "view",
      "type": "function"
    },
    {
      "inputs": [
        {
          "internalType": "uint256",
          "name": "tokenId",
          "type": "uint256"
        }
      ],
      "name": "tokenURI",
      "outputs": [
        {
          "internalType": "string",
          "name": "",
          "type": "string"
        }
      ],
      "stateMutability": "view",
      "type": "function"
    },
    {
      "inputs": [
        {
          "internalType": "address",
          "name": "from",
          "type": "address"
        },
        {
          "internalType": "address",
          "name": "to",
          "type": "address"
        },
        {
          "internalType": "uint256",
          "name": "tokenId",
          "type": "uint256"
        }
      ],
      "name": "transferFrom",
      "outputs": [],
      "stateMutability": "nonpayable",
      "type": "function"
    },
    {
      "inputs": [],
      "name": "unPause",
      "outputs": [],
      "stateMutability": "nonpayable",
      "type": "function"
    },
    {
      "inputs": [
        {
          "internalType": "contract ETSAccessControls",
          "name": "_accessControls",
          "type": "address"
        }
      ],
      "name": "updateAccessControls",
      "outputs": [],
      "stateMutability": "nonpayable",
      "type": "function"
    },
    {
      "inputs": [
        {
          "internalType": "address",
          "name": "newImplementation",
          "type": "address"
        }
      ],
      "name": "upgradeTo",
      "outputs": [],
      "stateMutability": "nonpayable",
      "type": "function"
    },
    {
      "inputs": [
        {
          "internalType": "address",
          "name": "newImplementation",
          "type": "address"
        },
        {
          "internalType": "bytes",
          "name": "data",
          "type": "bytes"
        }
      ],
      "name": "upgradeToAndCall",
      "outputs": [],
      "stateMutability": "payable",
      "type": "function"
    },
    {
      "inputs": [],
      "name": "version",
      "outputs": [
        {
          "internalType": "string",
          "name": "",
          "type": "string"
        }
      ],
      "stateMutability": "pure",
      "type": "function"
    }
  ],
  "numDeployments": 7,
  "solcInputHash": "be2f68b656c9d5dc73a699cb4eae0bc3",
  "bytecode": "0x60a06040523060601b60805234801561001757600080fd5b5060805160601c61467f61004b60003960008181610ddd01528181610e62015281816112e20152611367015261467f6000f3fe6080604052600436106102f25760003560e01c80636ef3da941161018f578063a3f4df7e116100e1578063db7af5fb1161008a578063f66e762311610064578063f66e7623146108e2578063f7b188a514610902578063ffa1ad741461091757600080fd5b8063db7af5fb14610862578063e8d3e4b614610879578063e985e9c51461089957600080fd5b8063b88d4fde116100bb578063b88d4fde14610802578063c157daea14610822578063c87b56dd1461084257600080fd5b8063a3f4df7e14610772578063ad014a5b146107bb578063adf63cd2146107eb57600080fd5b80638456cb591161014357806395d89b411161011d57806395d89b4114610703578063a22cb46514610718578063a30b4db91461073857600080fd5b80638456cb5914610680578063878327ab1461069557806390b467ea146106d557600080fd5b8063748365ef11610174578063748365ef146106135780637e3bd74b146106345780637e6d945e1461066d57600080fd5b80636ef3da94146105d357806370a08231146105f357600080fd5b806342966c681161024857806354fd4d50116101fc5780636352211e116101d65780636352211e1461057e5780636945c5ea1461059e5780636c0360eb146105be57600080fd5b806354fd4d501461051857806355f804b3146105465780635c975abb1461056657600080fd5b80634bde38c81161022d5780634bde38c8146104c45780634f1ef286146104e55780634f558e79146104f857600080fd5b806342966c6814610484578063485cc955146104a457600080fd5b8063081812fc116102aa5780632e611630116102845780632e6116301461042d5780633659cfe61461044457806342842e0e1461046457600080fd5b8063081812fc146103b5578063095ea7b3146103ed57806323b872dd1461040d57600080fd5b806304befefd116102db57806304befefd14610351578063060defec1461037157806306fdde031461039357600080fd5b806301ffc9a7146102f7578063028316511461032c575b600080fd5b34801561030357600080fd5b50610317610312366004614154565b610948565b60405190151581526020015b60405180910390f35b34801561033857600080fd5b506103436101935481565b604051908152602001610323565b34801561035d57600080fd5b5061034361036c36600461418e565b610959565b34801561037d57600080fd5b5061039161038c366004614281565b6109c1565b005b34801561039f57600080fd5b506103a8610af1565b60405161032391906143d8565b3480156103c157600080fd5b506103d56103d0366004614281565b610b83565b6040516001600160a01b039091168152602001610323565b3480156103f957600080fd5b5061039161040836600461410b565b610c18565b34801561041957600080fd5b50610391610428366004613fe0565b610d4a565b34801561043957600080fd5b506103436101955481565b34801561045057600080fd5b5061039161045f366004613f8a565b610dd2565b34801561047057600080fd5b5061039161047f366004613fe0565b610f4e565b34801561049057600080fd5b5061039161049f366004614281565b610f69565b3480156104b057600080fd5b506103916104bf366004613fa7565b6110ff565b3480156104d057600080fd5b50610196546103d5906001600160a01b031681565b6103916104f33660046140bb565b6112d7565b34801561050457600080fd5b50610317610513366004614281565b611444565b34801561052457600080fd5b506040805180820190915260058152640302e322e360dc1b60208201526103a8565b34801561055257600080fd5b5061039161056136600461418e565b611463565b34801561057257600080fd5b5060975460ff16610317565b34801561058a57600080fd5b506103d5610599366004614281565b611586565b3480156105aa57600080fd5b506103916105b9366004613f8a565b611611565b3480156105ca57600080fd5b506103a8611750565b3480156105df57600080fd5b506103916105ee366004613f8a565b6117df565b3480156105ff57600080fd5b5061034361060e366004613f8a565b61199a565b34801561061f57600080fd5b50610197546103d5906001600160a01b031681565b34801561064057600080fd5b5061034361064f366004614238565b80516020818301810180516101998252928201919093012091525481565b61034361067b3660046141d0565b611a34565b34801561068c57600080fd5b50610391611d06565b3480156106a157600080fd5b506106b56106b0366004614281565b611df4565b604080516001600160a01b03938416815292909116602083015201610323565b3480156106e157600080fd5b506103436106f0366004614281565b61019a6020526000908152604090205481565b34801561070f57600080fd5b506103a8611e18565b34801561072457600080fd5b5061039161073336600461408d565b611e27565b34801561074457600080fd5b506103d5610753366004614281565b600090815261019860205260409020600101546001600160a01b031690565b34801561077e57600080fd5b506103a86040518060400160405280600c81526020017f45545354414720546f6b656e000000000000000000000000000000000000000081525081565b3480156107c757600080fd5b506107db6107d6366004614281565b611e32565b6040516103239493929190614311565b3480156107f757600080fd5b506103436101945481565b34801561080e57600080fd5b5061039161081d366004614021565b611f79565b34801561082e57600080fd5b5061039161083d366004614281565b612007565b34801561084e57600080fd5b506103a861085d366004614281565b6120af565b34801561086e57600080fd5b506103436101925481565b34801561088557600080fd5b50610391610894366004614281565b612198565b3480156108a557600080fd5b506103176108b4366004613fa7565b6001600160a01b039182166000908152606a6020908152604080832093909416825291909152205460ff1690565b3480156108ee57600080fd5b506103916108fd366004614281565b612373565b34801561090e57600080fd5b50610391612496565b34801561092357600080fd5b506103a8604051806040016040528060058152602001640302e322e360dc1b81525081565b600061095382612582565b92915050565b600061019961099d84848080601f01602080910402602001604051908101604052809392919081815260200183838082843760009201919091525061261d92505050565b6040516109aa91906142c6565b908152602001604051809103902054905092915050565b610197546001600160a01b03166324d7806c336040516001600160e01b031960e084901b1681526001600160a01b03909116600482015260240160206040518083038186803b158015610a1357600080fd5b505afa158015610a27573d6000803e3d6000fd5b505050506040513d601f19601f82011682018060405250810190610a4b9190614137565b610aaa5760405162461bcd60e51b815260206004820152602560248201527f43616c6c6572206d75737420686176652061646d696e6973747261746f722061604482015264636365737360d81b60648201526084015b60405180910390fd5b61019580549082905560408051828152602081018490527f3bcd7d0ed4502e81afe37fd199a6a8e34e8d351fdafd54d97726970c18fdcd2b91015b60405180910390a15050565b606060658054610b0090614527565b80601f0160208091040260200160405190810160405280929190818152602001828054610b2c90614527565b8015610b795780601f10610b4e57610100808354040283529160200191610b79565b820191906000526020600020905b815481529060010190602001808311610b5c57829003601f168201915b5050505050905090565b6000818152606760205260408120546001600160a01b0316610bfc5760405162461bcd60e51b815260206004820152602c60248201527f4552433732313a20617070726f76656420717565727920666f72206e6f6e657860448201526b34b9ba32b73a103a37b5b2b760a11b6064820152608401610aa1565b506000908152606960205260409020546001600160a01b031690565b6000610c2382611586565b9050806001600160a01b0316836001600160a01b03161415610cad5760405162461bcd60e51b815260206004820152602160248201527f4552433732313a20617070726f76616c20746f2063757272656e74206f776e6560448201527f72000000000000000000000000000000000000000000000000000000000000006064820152608401610aa1565b336001600160a01b0382161480610cc95750610cc981336108b4565b610d3b5760405162461bcd60e51b815260206004820152603860248201527f4552433732313a20617070726f76652063616c6c6572206973206e6f74206f7760448201527f6e6572206e6f7220617070726f76656420666f7220616c6c00000000000000006064820152608401610aa1565b610d458383612794565b505050565b610d55335b82612802565b610dc75760405162461bcd60e51b815260206004820152603160248201527f4552433732313a207472616e736665722063616c6c6572206973206e6f74206f60448201527f776e6572206e6f7220617070726f7665640000000000000000000000000000006064820152608401610aa1565b610d458383836128f5565b306001600160a01b037f0000000000000000000000000000000000000000000000000000000000000000161415610e605760405162461bcd60e51b815260206004820152602c60248201527f46756e6374696f6e206d7573742062652063616c6c6564207468726f7567682060448201526b19195b1959d85d1958d85b1b60a21b6064820152608401610aa1565b7f00000000000000000000000000000000000000000000000000000000000000006001600160a01b0316610ebb7f360894a13ba1a3210667c828492db98dca3e2076cc3735a920a3ca505d382bbc546001600160a01b031690565b6001600160a01b031614610f265760405162461bcd60e51b815260206004820152602c60248201527f46756e6374696f6e206d7573742062652063616c6c6564207468726f7567682060448201526b6163746976652070726f787960a01b6064820152608401610aa1565b610f2f81612acd565b60408051600080825260208201909252610f4b91839190612bb1565b50565b610d4583838360405180602001604052806000815250611f79565b610197546001600160a01b03166324d7806c336040516001600160e01b031960e084901b1681526001600160a01b03909116600482015260240160206040518083038186803b158015610fbb57600080fd5b505afa158015610fcf573d6000803e3d6000fd5b505050506040513d601f19601f82011682018060405250810190610ff39190614137565b61104d5760405162461bcd60e51b815260206004820152602560248201527f43616c6c6572206d75737420686176652061646d696e6973747261746f722061604482015264636365737360d81b6064820152608401610aa1565b61105633610d4f565b6110c85760405162461bcd60e51b815260206004820152603060248201527f4552433732314275726e61626c653a2063616c6c6572206973206e6f74206f7760448201527f6e6572206e6f7220617070726f766564000000000000000000000000000000006064820152608401610aa1565b6110d181612d75565b60405181907f7f928e3c53f35086b51ff7b9bfd4651b14e8b9ccb0535aa4a085fb2881785b8290600090a250565b600054610100900460ff1661111a5760005460ff161561111e565b303b155b6111905760405162461bcd60e51b815260206004820152602e60248201527f496e697469616c697a61626c653a20636f6e747261637420697320616c72656160448201527f647920696e697469616c697a65640000000000000000000000000000000000006064820152608401610aa1565b600054610100900460ff161580156111b2576000805461ffff19166101011790555b6112266040518060400160405280601481526020017f457468657265756d2054616720536572766963650000000000000000000000008152506040518060400160405280600681526020017f4554535441470000000000000000000000000000000000000000000000000000815250612e1c565b61122e612ea1565b611236612f2c565b61019780546001600160a01b038086166001600160a01b0319928316179092556101968054928516929091169190911790556303c26700610192556040805180820190915260208082527f68747470733a2f2f6170692e686173687461672d70726f746f636f6c2e696f2f9181019182526112b49161019191613d9e565b506001610194556020610195558015610d45576000805461ff0019169055505050565b306001600160a01b037f00000000000000000000000000000000000000000000000000000000000000001614156113655760405162461bcd60e51b815260206004820152602c60248201527f46756e6374696f6e206d7573742062652063616c6c6564207468726f7567682060448201526b19195b1959d85d1958d85b1b60a21b6064820152608401610aa1565b7f00000000000000000000000000000000000000000000000000000000000000006001600160a01b03166113c07f360894a13ba1a3210667c828492db98dca3e2076cc3735a920a3ca505d382bbc546001600160a01b031690565b6001600160a01b03161461142b5760405162461bcd60e51b815260206004820152602c60248201527f46756e6374696f6e206d7573742062652063616c6c6564207468726f7567682060448201526b6163746976652070726f787960a01b6064820152608401610aa1565b61143482612acd565b61144082826001612bb1565b5050565b6000818152606760205260408120546001600160a01b03161515610953565b610197546001600160a01b03166324d7806c336040516001600160e01b031960e084901b1681526001600160a01b03909116600482015260240160206040518083038186803b1580156114b557600080fd5b505afa1580156114c9573d6000803e3d6000fd5b505050506040513d601f19601f820116820180604052508101906114ed9190614137565b6115475760405162461bcd60e51b815260206004820152602560248201527f43616c6c6572206d75737420686176652061646d696e6973747261746f722061604482015264636365737360d81b6064820152608401610aa1565b6115546101918383613e22565b507f325d37e8fb549c86966f09bc3e6f62eb3afa93b255d6e3234338001f3d80bd86610191604051610ae591906143eb565b6000818152606760205260408120546001600160a01b0316806109535760405162461bcd60e51b815260206004820152602960248201527f4552433732313a206f776e657220717565727920666f72206e6f6e657869737460448201527f656e7420746f6b656e00000000000000000000000000000000000000000000006064820152608401610aa1565b610197546001600160a01b03166324d7806c336040516001600160e01b031960e084901b1681526001600160a01b03909116600482015260240160206040518083038186803b15801561166357600080fd5b505afa158015611677573d6000803e3d6000fd5b505050506040513d601f19601f8201168201806040525081019061169b9190614137565b6116f55760405162461bcd60e51b815260206004820152602560248201527f43616c6c6572206d75737420686176652061646d696e6973747261746f722061604482015264636365737360d81b6064820152608401610aa1565b61019680546001600160a01b038381166001600160a01b031983168117909355604080519190921680825260208201939093527f0e8ce4b57fd24de168e9c8d76109cb59a7852e78b3575da1ba2077dd53d330ec9101610ae5565b610191805461175e90614527565b80601f016020809104026020016040519081016040528092919081815260200182805461178a90614527565b80156117d75780601f106117ac576101008083540402835291602001916117d7565b820191906000526020600020905b8154815290600101906020018083116117ba57829003601f168201915b505050505081565b610197546001600160a01b03166324d7806c336040516001600160e01b031960e084901b1681526001600160a01b03909116600482015260240160206040518083038186803b15801561183157600080fd5b505afa158015611845573d6000803e3d6000fd5b505050506040513d601f19601f820116820180604052508101906118699190614137565b6118c35760405162461bcd60e51b815260206004820152602560248201527f43616c6c6572206d75737420686176652061646d696e6973747261746f722061604482015264636365737360d81b6064820152608401610aa1565b6001600160a01b03811661193f5760405162461bcd60e51b815260206004820152602b60248201527f4554535461672e757064617465416363657373436f6e74726f6c733a2043616e60448201527f6e6f74206265207a65726f0000000000000000000000000000000000000000006064820152608401610aa1565b61019780546001600160a01b038381166001600160a01b031983168117909355604080519190921680825260208201939093527f31073599bfae2533a348dc816b0ce777b707aa9b67015ca2d86585e842b5c6e99101610ae5565b60006001600160a01b038216611a185760405162461bcd60e51b815260206004820152602a60248201527f4552433732313a2062616c616e636520717565727920666f7220746865207a6560448201527f726f2061646472657373000000000000000000000000000000000000000000006064820152608401610aa1565b506001600160a01b031660009081526068602052604090205490565b610197546040517f41859ac80000000000000000000000000000000000000000000000000000000081526001600160a01b03848116600483015260009216906341859ac89060240160206040518083038186803b158015611a9457600080fd5b505afa158015611aa8573d6000803e3d6000fd5b505050506040513d601f19601f82011682018060405250810190611acc9190614137565b611b3e5760405162461bcd60e51b815260206004820152602760248201527f4d696e743a20546865207075626c6973686572206d757374206265207768697460448201527f656c6973746564000000000000000000000000000000000000000000000000006064820152608401610aa1565b6000611b7f86868080601f016020809104026020016040519081016040528093929190818152602001838380828437600092019190915250612fa792505050565b61019354909150611b91906001613225565b61019381905561019654611bae906001600160a01b031682613231565b6040518060800160405280866001600160a01b03168152602001856001600160a01b0316815260200188888080601f016020809104026020016040519081016040528093929190818152602001838380828437600092018290525093855250505060209182018590528381526101988252604090819020835181546001600160a01b039182166001600160a01b0319918216178355858501516001840180549190931691161790559083015180519192611c7092600285019290910190613d9e565b5060608201518051611c8c916003840191602090910190613d9e565b509050508061019983604051611ca291906142c6565b908152602001604051809103902081905550846001600160a01b0316817f85d182e335717d2d833be448c2f6a5864b8514dfeb8cda8f0fbac14f5157f0be898988604051611cf293929190614396565b60405180910390a39150505b949350505050565b610197546001600160a01b03166324d7806c336040516001600160e01b031960e084901b1681526001600160a01b03909116600482015260240160206040518083038186803b158015611d5857600080fd5b505afa158015611d6c573d6000803e3d6000fd5b505050506040513d601f19601f82011682018060405250810190611d909190614137565b611dea5760405162461bcd60e51b815260206004820152602560248201527f43616c6c6572206d75737420686176652061646d696e6973747261746f722061604482015264636365737360d81b6064820152608401610aa1565b611df261324b565b565b6101965460009081906001600160a01b0316611e0f84611586565b91509150915091565b606060668054610b0090614527565b6114403383836132f0565b610198602052600090815260409020805460018201546002830180546001600160a01b03938416949290931692611e6890614527565b80601f0160208091040260200160405190810160405280929190818152602001828054611e9490614527565b8015611ee15780601f10611eb657610100808354040283529160200191611ee1565b820191906000526020600020905b815481529060010190602001808311611ec457829003601f168201915b505050505090806003018054611ef690614527565b80601f0160208091040260200160405190810160405280929190818152602001828054611f2290614527565b8015611f6f5780601f10611f4457610100808354040283529160200191611f6f565b820191906000526020600020905b815481529060010190602001808311611f5257829003601f168201915b5050505050905084565b611f833383612802565b611ff55760405162461bcd60e51b815260206004820152603160248201527f4552433732313a207472616e736665722063616c6c6572206973206e6f74206f60448201527f776e6572206e6f7220617070726f7665640000000000000000000000000000006064820152608401610aa1565b612001848484846133bf565b50505050565b61201081611586565b6001600160a01b0316336001600160a01b0316146120705760405162461bcd60e51b815260206004820152601860248201527f72656e65775461673a20496e76616c69642073656e64657200000000000000006044820152606401610aa1565b600081815261019a602052604080822042905551339183917faa0c0591942aff60e66bde156168c9a47ef843534b433bbaa33e62d1410f4f2c9190a350565b6000818152606760205260409020546060906001600160a01b031661213c5760405162461bcd60e51b815260206004820152602f60248201527f4552433732314d657461646174613a2055524920717565727920666f72206e6f60448201527f6e6578697374656e7420746f6b656e00000000000000000000000000000000006064820152608401610aa1565b600061214661343d565b905060008151116121665760405180602001604052806000815250612191565b806121708461344d565b6040516020016121819291906142e2565b6040516020818303038152906040525b9392505050565b6000818152606760205260409020546001600160a01b03166121fc5760405162461bcd60e51b815260206004820152601c60248201527f72656379636c655461673a20496e76616c696420746f6b656e204944000000006044820152606401610aa1565b610196546001600160a01b031661221282611586565b6001600160a01b0316141561228f5760405162461bcd60e51b815260206004820152602d60248201527f72656379636c655461673a2054616720616c7265616479206f776e656420627960448201527f2074686520706c6174666f726d000000000000000000000000000000000000006064820152608401610aa1565b600081815261019a60205260409020546101925442906122b0908390613225565b106123235760405162461bcd60e51b815260206004820152603060248201527f72656379636c655461673a20546f6b656e206e6f7420656c696769626c65206660448201527f6f722072656379636c696e6720796574000000000000000000000000000000006064820152608401610aa1565b61234261232f83611586565b610196546001600160a01b0316846128f5565b604051339083907f0f842a1659c86d6e422461459fb2ab6fa8af886fd1cf9978a73dd299f23ccc7a90600090a35050565b610197546001600160a01b03166324d7806c336040516001600160e01b031960e084901b1681526001600160a01b03909116600482015260240160206040518083038186803b1580156123c557600080fd5b505afa1580156123d9573d6000803e3d6000fd5b505050506040513d601f19601f820116820180604052508101906123fd9190614137565b6124575760405162461bcd60e51b815260206004820152602560248201527f43616c6c6572206d75737420686176652061646d696e6973747261746f722061604482015264636365737360d81b6064820152608401610aa1565b61019280549082905560408051828152602081018490527f7550fd28481dfa2a7590562881c3fffa398e97624ad6eeae494cf36c51e2a9069101610ae5565b610197546001600160a01b03166324d7806c336040516001600160e01b031960e084901b1681526001600160a01b03909116600482015260240160206040518083038186803b1580156124e857600080fd5b505afa1580156124fc573d6000803e3d6000fd5b505050506040513d601f19601f820116820180604052508101906125209190614137565b61257a5760405162461bcd60e51b815260206004820152602560248201527f43616c6c6572206d75737420686176652061646d696e6973747261746f722061604482015264636365737360d81b6064820152608401610aa1565b611df2613567565b60006001600160e01b031982167f80ac58cd0000000000000000000000000000000000000000000000000000000014806125e557506001600160e01b031982167f5b5e139f00000000000000000000000000000000000000000000000000000000145b8061095357507f01ffc9a7000000000000000000000000000000000000000000000000000000006001600160e01b0319831614610953565b606060008290506000815167ffffffffffffffff811115612640576126406145d3565b6040519080825280601f01601f19166020018201604052801561266a576020820181803683370190505b50905060005b825181101561278c57604160f81b838281518110612690576126906145bd565b01602001516001600160f81b031916108015906126d15750605a60f81b8382815181106126bf576126bf6145bd565b01602001516001600160f81b03191611155b15612733578281815181106126e8576126e86145bd565b602001015160f81c60f81b60f81c602061270291906144ab565b60f81b828281518110612717576127176145bd565b60200101906001600160f81b031916908160001a90535061277a565b828181518110612745576127456145bd565b602001015160f81c60f81b828281518110612762576127626145bd565b60200101906001600160f81b031916908160001a9053505b8061278481614562565b915050612670565b509392505050565b600081815260696020526040902080546001600160a01b0319166001600160a01b03841690811790915581906127c982611586565b6001600160a01b03167f8c5be1e5ebec7d5bd14f71427d1e84f3dd0314c0f7b2291e5b200ac8c7c3b92560405160405180910390a45050565b6000818152606760205260408120546001600160a01b031661287b5760405162461bcd60e51b815260206004820152602c60248201527f4552433732313a206f70657261746f7220717565727920666f72206e6f6e657860448201526b34b9ba32b73a103a37b5b2b760a11b6064820152608401610aa1565b600061288683611586565b9050806001600160a01b0316846001600160a01b031614806128c15750836001600160a01b03166128b684610b83565b6001600160a01b0316145b80611cfe57506001600160a01b038082166000908152606a602090815260408083209388168352929052205460ff16611cfe565b826001600160a01b031661290882611586565b6001600160a01b0316146129845760405162461bcd60e51b815260206004820152602960248201527f4552433732313a207472616e73666572206f6620746f6b656e2074686174206960448201527f73206e6f74206f776e00000000000000000000000000000000000000000000006064820152608401610aa1565b6001600160a01b0382166129ff5760405162461bcd60e51b8152602060048201526024808201527f4552433732313a207472616e7366657220746f20746865207a65726f2061646460448201527f72657373000000000000000000000000000000000000000000000000000000006064820152608401610aa1565b612a0a8383836135ea565b612a15600082612794565b6001600160a01b0383166000908152606860205260408120805460019290612a3e9084906144e4565b90915550506001600160a01b0382166000908152606860205260408120805460019290612a6c908490614493565b909155505060008181526067602052604080822080546001600160a01b0319166001600160a01b0386811691821790925591518493918716917fddf252ad1be2c89b69c2b068fc378daa952ba7f163c4a11628f55a4df523b3ef91a4505050565b610197546001600160a01b03166324d7806c336040516001600160e01b031960e084901b1681526001600160a01b03909116600482015260240160206040518083038186803b158015612b1f57600080fd5b505afa158015612b33573d6000803e3d6000fd5b505050506040513d601f19601f82011682018060405250810190612b579190614137565b610f4b5760405162461bcd60e51b815260206004820152602560248201527f43616c6c6572206d75737420686176652061646d696e6973747261746f722061604482015264636365737360d81b6064820152608401610aa1565b6000612be47f360894a13ba1a3210667c828492db98dca3e2076cc3735a920a3ca505d382bbc546001600160a01b031690565b9050612bef84613672565b600083511180612bfc5750815b15612c0d57612c0b8484613727565b505b7f4910fdfa16fed3260ed0e7147f7cc6da11a60208b5b9406d12a635614ffd9143805460ff16612d6e57805460ff191660011781556040516001600160a01b0383166024820152612cba90869060440160408051601f198184030181529190526020810180517bffffffffffffffffffffffffffffffffffffffffffffffffffffffff167f3659cfe600000000000000000000000000000000000000000000000000000000179052613727565b50805460ff191681557f360894a13ba1a3210667c828492db98dca3e2076cc3735a920a3ca505d382bbc546001600160a01b03838116911614612d655760405162461bcd60e51b815260206004820152602f60248201527f45524331393637557067726164653a207570677261646520627265616b73206660448201527f75727468657220757067726164657300000000000000000000000000000000006064820152608401610aa1565b612d6e85613829565b5050505050565b6000612d8082611586565b9050612d8e816000846135ea565b612d99600083612794565b6001600160a01b0381166000908152606860205260408120805460019290612dc29084906144e4565b909155505060008281526067602052604080822080546001600160a01b0319169055518391906001600160a01b038416907fddf252ad1be2c89b69c2b068fc378daa952ba7f163c4a11628f55a4df523b3ef908390a45050565b600054610100900460ff16612e875760405162461bcd60e51b815260206004820152602b60248201527f496e697469616c697a61626c653a20636f6e7472616374206973206e6f74206960448201526a6e697469616c697a696e6760a81b6064820152608401610aa1565b612e8f613869565b612e97613869565b61144082826138d4565b600054610100900460ff16612f0c5760405162461bcd60e51b815260206004820152602b60248201527f496e697469616c697a61626c653a20636f6e7472616374206973206e6f74206960448201526a6e697469616c697a696e6760a81b6064820152608401610aa1565b612f14613869565b612f1c613869565b612f24613966565b611df2613869565b600054610100900460ff16612f975760405162461bcd60e51b815260206004820152602b60248201527f496e697469616c697a61626c653a20636f6e7472616374206973206e6f74206960448201526a6e697469616c697a696e6760a81b6064820152608401610aa1565b612f9f613869565b612f24613869565b60606000612fb48361261d565b905061019981604051612fc791906142c6565b9081526020016040518091039020546000146130255760405162461bcd60e51b815260206004820152601c60248201527f4552433732313a20746f6b656e20616c7265616479206d696e746564000000006044820152606401610aa1565b61019454835184911180159061303f575061019554815111155b6130b15760405162461bcd60e51b815260206004820152603d60248201527f496e76616c696420666f726d61743a2074616720646f6573206e6f74206d656560448201527f74206d696e2f6d6178206c656e67746820726571756972656d656e74730000006064820152608401610aa1565b806000815181106130c4576130c46145bd565b6020910101516001600160f81b0319167f2300000000000000000000000000000000000000000000000000000000000000146131425760405162461bcd60e51b815260206004820152601560248201527f546167206d7573742073746172742077697468202300000000000000000000006044820152606401610aa1565b60015b815181101561321c576000828281518110613162576131626145bd565b01602001516001600160f81b03191690507f20000000000000000000000000000000000000000000000000000000000000008114156132095760405162461bcd60e51b815260206004820152602760248201527f537061636520666f756e643a20746167206d6179206e6f7420636f6e7461696e60448201527f20737061636573000000000000000000000000000000000000000000000000006064820152608401610aa1565b508061321481614562565b915050613145565b50909392505050565b60006121918284614493565b6114408282604051806020016040528060008152506139dd565b60975460ff161561329e5760405162461bcd60e51b815260206004820152601060248201527f5061757361626c653a20706175736564000000000000000000000000000000006044820152606401610aa1565b6097805460ff191660011790557f62e78cea01bee320cd4e420270b5ea74000d11b0c9f74754ebdbfc544b05a2586132d33390565b6040516001600160a01b03909116815260200160405180910390a1565b816001600160a01b0316836001600160a01b031614156133525760405162461bcd60e51b815260206004820152601960248201527f4552433732313a20617070726f766520746f2063616c6c6572000000000000006044820152606401610aa1565b6001600160a01b038381166000818152606a6020908152604080832094871680845294825291829020805460ff191686151590811790915591519182527f17307eab39ab6107e8899845ad3d59bd9653f200f220920489ca2b5937696c31910160405180910390a3505050565b6133ca8484846128f5565b6133d684848484613a5b565b6120015760405162461bcd60e51b815260206004820152603260248201527f4552433732313a207472616e7366657220746f206e6f6e20455243373231526560448201527131b2b4bb32b91034b6b83632b6b2b73a32b960711b6064820152608401610aa1565b60606101918054610b0090614527565b60608161348d57505060408051808201909152600181527f3000000000000000000000000000000000000000000000000000000000000000602082015290565b8160005b81156134b757806134a181614562565b91506134b09050600a836144d0565b9150613491565b60008167ffffffffffffffff8111156134d2576134d26145d3565b6040519080825280601f01601f1916602001820160405280156134fc576020820181803683370190505b5090505b8415611cfe576135116001836144e4565b915061351e600a8661457d565b613529906030614493565b60f81b81838151811061353e5761353e6145bd565b60200101906001600160f81b031916908160001a905350613560600a866144d0565b9450613500565b60975460ff166135b95760405162461bcd60e51b815260206004820152601460248201527f5061757361626c653a206e6f74207061757365640000000000000000000000006044820152606401610aa1565b6097805460ff191690557f5db9ee0a495bf2e6ff9c91a7834c1ba4fdd244a5e8aa4e537bd38aeae4b073aa336132d3565b6135f5838383613bb0565b60975460ff161561365c5760405162461bcd60e51b815260206004820152602b60248201527f4552433732315061757361626c653a20746f6b656e207472616e73666572207760448201526a1a1a5b19481c185d5cd95960aa1b6064820152608401610aa1565b600090815261019a602052604090204290555050565b803b6136e65760405162461bcd60e51b815260206004820152602d60248201527f455243313936373a206e657720696d706c656d656e746174696f6e206973206e60448201527f6f74206120636f6e7472616374000000000000000000000000000000000000006064820152608401610aa1565b7f360894a13ba1a3210667c828492db98dca3e2076cc3735a920a3ca505d382bbc80546001600160a01b0319166001600160a01b0392909216919091179055565b6060823b61379d5760405162461bcd60e51b815260206004820152602660248201527f416464726573733a2064656c65676174652063616c6c20746f206e6f6e2d636f60448201527f6e747261637400000000000000000000000000000000000000000000000000006064820152608401610aa1565b600080846001600160a01b0316846040516137b891906142c6565b600060405180830381855af49150503d80600081146137f3576040519150601f19603f3d011682016040523d82523d6000602084013e6137f8565b606091505b5091509150613820828260405180606001604052806027815260200161462360279139613c17565b95945050505050565b61383281613672565b6040516001600160a01b038216907fbc7cd75a20ee27fd9adebab32041f755214dbc6bffa90cc0225b39da2e5c2d3b90600090a250565b600054610100900460ff16611df25760405162461bcd60e51b815260206004820152602b60248201527f496e697469616c697a61626c653a20636f6e7472616374206973206e6f74206960448201526a6e697469616c697a696e6760a81b6064820152608401610aa1565b600054610100900460ff1661393f5760405162461bcd60e51b815260206004820152602b60248201527f496e697469616c697a61626c653a20636f6e7472616374206973206e6f74206960448201526a6e697469616c697a696e6760a81b6064820152608401610aa1565b8151613952906065906020850190613d9e565b508051610d45906066906020840190613d9e565b600054610100900460ff166139d15760405162461bcd60e51b815260206004820152602b60248201527f496e697469616c697a61626c653a20636f6e7472616374206973206e6f74206960448201526a6e697469616c697a696e6760a81b6064820152608401610aa1565b6097805460ff19169055565b6139e78383613c50565b6139f46000848484613a5b565b610d455760405162461bcd60e51b815260206004820152603260248201527f4552433732313a207472616e7366657220746f206e6f6e20455243373231526560448201527131b2b4bb32b91034b6b83632b6b2b73a32b960711b6064820152608401610aa1565b60006001600160a01b0384163b15613ba857604051630a85bd0160e11b81526001600160a01b0385169063150b7a0290613a9f90339089908890889060040161435a565b602060405180830381600087803b158015613ab957600080fd5b505af1925050508015613ae9575060408051601f3d908101601f19168201909252613ae691810190614171565b60015b613b8e573d808015613b17576040519150601f19603f3d011682016040523d82523d6000602084013e613b1c565b606091505b508051613b865760405162461bcd60e51b815260206004820152603260248201527f4552433732313a207472616e7366657220746f206e6f6e20455243373231526560448201527131b2b4bb32b91034b6b83632b6b2b73a32b960711b6064820152608401610aa1565b805181602001fd5b6001600160e01b031916630a85bd0160e11b149050611cfe565b506001611cfe565b60975460ff1615610d455760405162461bcd60e51b815260206004820152602b60248201527f4552433732315061757361626c653a20746f6b656e207472616e73666572207760448201526a1a1a5b19481c185d5cd95960aa1b6064820152608401610aa1565b60608315613c26575081612191565b825115613c365782518084602001fd5b8160405162461bcd60e51b8152600401610aa191906143d8565b6001600160a01b038216613ca65760405162461bcd60e51b815260206004820181905260248201527f4552433732313a206d696e7420746f20746865207a65726f20616464726573736044820152606401610aa1565b6000818152606760205260409020546001600160a01b031615613d0b5760405162461bcd60e51b815260206004820152601c60248201527f4552433732313a20746f6b656e20616c7265616479206d696e746564000000006044820152606401610aa1565b613d17600083836135ea565b6001600160a01b0382166000908152606860205260408120805460019290613d40908490614493565b909155505060008181526067602052604080822080546001600160a01b0319166001600160a01b03861690811790915590518392907fddf252ad1be2c89b69c2b068fc378daa952ba7f163c4a11628f55a4df523b3ef908290a45050565b828054613daa90614527565b90600052602060002090601f016020900481019282613dcc5760008555613e12565b82601f10613de557805160ff1916838001178555613e12565b82800160010185558215613e12579182015b82811115613e12578251825591602001919060010190613df7565b50613e1e929150613e96565b5090565b828054613e2e90614527565b90600052602060002090601f016020900481019282613e505760008555613e12565b82601f10613e695782800160ff19823516178555613e12565b82800160010185558215613e12579182015b82811115613e12578235825591602001919060010190613e7b565b5b80821115613e1e5760008155600101613e97565b600067ffffffffffffffff80841115613ec657613ec66145d3565b604051601f8501601f19908116603f01168101908282118183101715613eee57613eee6145d3565b81604052809350858152868686011115613f0757600080fd5b858560208301376000602087830101525050509392505050565b600082601f830112613f3257600080fd5b61219183833560208501613eab565b60008083601f840112613f5357600080fd5b50813567ffffffffffffffff811115613f6b57600080fd5b602083019150836020828501011115613f8357600080fd5b9250929050565b600060208284031215613f9c57600080fd5b8135612191816145e9565b60008060408385031215613fba57600080fd5b8235613fc5816145e9565b91506020830135613fd5816145e9565b809150509250929050565b600080600060608486031215613ff557600080fd5b8335614000816145e9565b92506020840135614010816145e9565b929592945050506040919091013590565b6000806000806080858703121561403757600080fd5b8435614042816145e9565b93506020850135614052816145e9565b925060408501359150606085013567ffffffffffffffff81111561407557600080fd5b61408187828801613f21565b91505092959194509250565b600080604083850312156140a057600080fd5b82356140ab816145e9565b91506020830135613fd5816145fe565b600080604083850312156140ce57600080fd5b82356140d9816145e9565b9150602083013567ffffffffffffffff8111156140f557600080fd5b61410185828601613f21565b9150509250929050565b6000806040838503121561411e57600080fd5b8235614129816145e9565b946020939093013593505050565b60006020828403121561414957600080fd5b8151612191816145fe565b60006020828403121561416657600080fd5b81356121918161460c565b60006020828403121561418357600080fd5b81516121918161460c565b600080602083850312156141a157600080fd5b823567ffffffffffffffff8111156141b857600080fd5b6141c485828601613f41565b90969095509350505050565b600080600080606085870312156141e657600080fd5b843567ffffffffffffffff8111156141fd57600080fd5b61420987828801613f41565b909550935050602085013561421d816145e9565b9150604085013561422d816145e9565b939692955090935050565b60006020828403121561424a57600080fd5b813567ffffffffffffffff81111561426157600080fd5b8201601f8101841361427257600080fd5b611cfe84823560208401613eab565b60006020828403121561429357600080fd5b5035919050565b600081518084526142b28160208601602086016144fb565b601f01601f19169290920160200192915050565b600082516142d88184602087016144fb565b9190910192915050565b600083516142f48184602088016144fb565b8351908301906143088183602088016144fb565b01949350505050565b60006001600160a01b0380871683528086166020840152506080604083015261433d608083018561429a565b828103606084015261434f818561429a565b979650505050505050565b60006001600160a01b0380871683528086166020840152508360408301526080606083015261438c608083018461429a565b9695505050505050565b604081528260408201528284606083013760006060848301015260006060601f19601f86011683010190506001600160a01b0383166020830152949350505050565b602081526000612191602083018461429a565b600060208083526000845481600182811c91508083168061440d57607f831692505b85831081141561442b57634e487b7160e01b85526022600452602485fd5b878601838152602001818015614448576001811461445957614484565b60ff19861682528782019650614484565b60008b81526020902060005b8681101561447e57815484820152908501908901614465565b83019750505b50949998505050505050505050565b600082198211156144a6576144a6614591565b500190565b600060ff821660ff84168060ff038211156144c8576144c8614591565b019392505050565b6000826144df576144df6145a7565b500490565b6000828210156144f6576144f6614591565b500390565b60005b838110156145165781810151838201526020016144fe565b838111156120015750506000910152565b600181811c9082168061453b57607f821691505b6020821081141561455c57634e487b7160e01b600052602260045260246000fd5b50919050565b600060001982141561457657614576614591565b5060010190565b60008261458c5761458c6145a7565b500690565b634e487b7160e01b600052601160045260246000fd5b634e487b7160e01b600052601260045260246000fd5b634e487b7160e01b600052603260045260246000fd5b634e487b7160e01b600052604160045260246000fd5b6001600160a01b0381168114610f4b57600080fd5b8015158114610f4b57600080fd5b6001600160e01b031981168114610f4b57600080fdfe416464726573733a206c6f772d6c6576656c2064656c65676174652063616c6c206661696c6564a2646970667358221220350e32dffd69f73b8dcd00e5d6d57937f3ac6ee46f743baae941e5a078f770ff64736f6c63430008070033",
  "devdoc": {
    "author": "Ethereum Tag Service <security@ets.xyz>",
    "details": "UUPS upgradable.",
    "kind": "dev",
    "methods": {
      "approve(address,uint256)": {
        "details": "See {IERC721-approve}."
      },
      "balanceOf(address)": {
        "details": "See {IERC721-balanceOf}."
      },
      "burn(uint256)": {
        "details": "Caller must have administrator role.",
        "params": {
          "tokenId": "Token Id to burn."
        }
      },
      "exists(uint256)": {
        "params": {
          "tokenId": "token ID."
        },
        "returns": {
          "_0": "true if exists."
        }
      },
      "getApproved(uint256)": {
        "details": "See {IERC721-getApproved}."
      },
      "getCreatorAddress(uint256)": {
        "params": {
          "_tokenId": "ID of a ETSTAG."
        },
        "returns": {
          "_creator": "creator of the ETSTAG."
        }
      },
      "getPaymentAddresses(uint256)": {
        "params": {
          "_tokenId": "ID of a ETSTAG."
        },
        "returns": {
          "_owner": "Address of the owner of the ETSTAG.",
          "_platform": "Platform commission address."
        }
      },
      "isApprovedForAll(address,address)": {
        "details": "See {IERC721-isApprovedForAll}."
      },
      "mint(string,address,address)": {
        "details": "Tag string must pass validation and publisher must be whitelisted.",
        "params": {
          "_creator": "Address to be logged as creator.",
          "_publisher": "Address to be logged as publisher.",
          "_tag": "Tag string to mint - must include hashtag (#) at beginning of string."
        },
        "returns": {
          "_tokenId": "for newly minted ETSTAG."
        }
      },
      "name()": {
        "details": "See {IERC721Metadata-name}."
      },
      "ownerOf(uint256)": {
        "details": "See {IERC721-ownerOf}."
      },
      "pause()": {
        "details": "Pause ETSTAG token contract."
      },
      "paused()": {
        "details": "Returns true if the contract is paused, and false otherwise."
      },
      "recycleTag(uint256)": {
        "details": "Token must exist, be not already be owned by platform and time of TX must be greater than lastTransferTime.",
        "params": {
          "_tokenId": "The id of the ETSTAG being recycled."
        }
      },
      "renewTag(uint256)": {
        "details": "Can only be called by token owner.",
        "params": {
          "_tokenId": "The identifier for etstag token."
        }
      },
      "safeTransferFrom(address,address,uint256)": {
        "details": "See {IERC721-safeTransferFrom}."
      },
      "safeTransferFrom(address,address,uint256,bytes)": {
        "details": "See {IERC721-safeTransferFrom}."
      },
      "setApprovalForAll(address,bool)": {
        "details": "See {IERC721-setApprovalForAll}."
      },
      "setBaseURI(string)": {
        "details": "Set base metadata api url.",
        "params": {
          "newBaseURI": "base url"
        }
      },
      "setOwnershipTermLength(uint256)": {
        "params": {
          "_ownershipTermLength": "New length in unix epoch seconds."
        }
      },
      "setPlatform(address)": {
        "params": {
          "_platform": "Address that receives minted NFTs."
        }
      },
      "setTagMaxStringLength(uint256)": {
        "params": {
          "_tagMaxStringLength": "max length."
        }
      },
      "supportsInterface(bytes4)": {
        "details": "See {IERC165-supportsInterface}."
      },
      "symbol()": {
        "details": "See {IERC721Metadata-symbol}."
      },
      "tokenURI(uint256)": {
        "details": "See {IERC721Metadata-tokenURI}."
      },
      "transferFrom(address,address,uint256)": {
        "details": "See {IERC721-transferFrom}."
      },
      "unPause()": {
        "details": "Unpause ETSTAG token contract."
      },
      "updateAccessControls(address)": {
        "params": {
          "_accessControls": "Address of the access controls contract."
        }
      },
      "upgradeTo(address)": {
        "details": "Upgrade the implementation of the proxy to `newImplementation`. Calls {_authorizeUpgrade}. Emits an {Upgraded} event."
      },
      "upgradeToAndCall(address,bytes)": {
        "details": "Upgrade the implementation of the proxy to `newImplementation`, and subsequently execute the function call encoded in `data`. Calls {_authorizeUpgrade}. Emits an {Upgraded} event."
      }
    },
    "title": "ETSTag ERC-721 NFT contract",
    "version": 1
  },
  "userdoc": {
    "events": {
      "MintTag(uint256,string,address,address)": {
        "notice": "Events"
      }
    },
    "kind": "user",
    "methods": {
      "NAME()": {
        "notice": "Public constants"
      },
      "accessControls()": {
        "notice": "ETS access controls smart contract."
      },
      "baseURI()": {
        "notice": "Variable storage"
      },
      "burn(uint256)": {
        "notice": "Burns a given tokenId."
      },
      "exists(uint256)": {
        "notice": "Existence check on a ETSTAG token."
      },
      "getCreatorAddress(uint256)": {
        "notice": "Returns creator of a ETSTAG token."
      },
      "getPaymentAddresses(uint256)": {
        "notice": "Returns the commission addresses related to a token."
      },
      "getTagId(string)": {
        "notice": "external/public view functions"
      },
      "mint(string,address,address)": {
        "notice": "Mint a new ETSTAG token."
      },
      "ownershipTermLength()": {
        "notice": "Term length in seconds that a ETSTAG is owned before it needs to be renewed."
      },
      "platform()": {
        "notice": "ETS Platform account."
      },
      "recycleTag(uint256)": {
        "notice": "Recycling an ETSTAG i.e. transferring ownership back to the platform due to stale ownership."
      },
      "renewTag(uint256)": {
        "notice": "Renews an ETSTAG by setting its last transfer time to current time."
      },
      "setOwnershipTermLength(uint256)": {
        "notice": "Admin method for updating the ownership term length for all ETSTAG tokens."
      },
      "setPlatform(address)": {
        "notice": "Admin method for updating the address that receives the commission on behalf of the platform."
      },
      "setTagMaxStringLength(uint256)": {
        "notice": "Admin method for updating the max string length of an ETSTAG."
      },
      "tagMaxStringLength()": {
        "notice": "maximum ETSTAG string length."
      },
      "tagMinStringLength()": {
        "notice": "minimum ETSTAG string length."
      },
      "tagToTokenId(string)": {
        "notice": "lookup of (lowercase) tag string to ETSTAG Id."
      },
      "tokenIdToLastTransferTime(uint256)": {
        "notice": "Last time a ETSTAG was transfered."
      },
      "tokenIdToTag(uint256)": {
        "notice": "Map of ETSTAG id to ETSTAG record."
      },
      "tokenPointer()": {
        "notice": "Sequential integer counter for ETSTAG Id and total count."
      },
      "updateAccessControls(address)": {
        "notice": "Admin functionality for updating the access controls."
      }
    },
    "notice": "Contract that governs the creation of ETSTAG non-fungible tokens.",
    "version": 1
  },
  "storageLayout": {
    "storage": [
      {
        "astId": 824,
        "contract": "contracts/core/ETSTag.sol:ETSTag",
        "label": "_initialized",
        "offset": 0,
        "slot": "0",
        "type": "t_bool"
      },
      {
        "astId": 827,
        "contract": "contracts/core/ETSTag.sol:ETSTag",
        "label": "_initializing",
        "offset": 1,
        "slot": "0",
        "type": "t_bool"
      },
      {
        "astId": 2609,
        "contract": "contracts/core/ETSTag.sol:ETSTag",
        "label": "__gap",
        "offset": 0,
        "slot": "1",
        "type": "t_array(t_uint256)50_storage"
      },
      {
        "astId": 2918,
        "contract": "contracts/core/ETSTag.sol:ETSTag",
        "label": "__gap",
        "offset": 0,
        "slot": "51",
        "type": "t_array(t_uint256)50_storage"
      },
      {
        "astId": 1202,
        "contract": "contracts/core/ETSTag.sol:ETSTag",
        "label": "_name",
        "offset": 0,
        "slot": "101",
        "type": "t_string_storage"
      },
      {
        "astId": 1204,
        "contract": "contracts/core/ETSTag.sol:ETSTag",
        "label": "_symbol",
        "offset": 0,
        "slot": "102",
        "type": "t_string_storage"
      },
      {
        "astId": 1208,
        "contract": "contracts/core/ETSTag.sol:ETSTag",
        "label": "_owners",
        "offset": 0,
        "slot": "103",
        "type": "t_mapping(t_uint256,t_address)"
      },
      {
        "astId": 1212,
        "contract": "contracts/core/ETSTag.sol:ETSTag",
        "label": "_balances",
        "offset": 0,
        "slot": "104",
        "type": "t_mapping(t_address,t_uint256)"
      },
      {
        "astId": 1216,
        "contract": "contracts/core/ETSTag.sol:ETSTag",
        "label": "_tokenApprovals",
        "offset": 0,
        "slot": "105",
        "type": "t_mapping(t_uint256,t_address)"
      },
      {
        "astId": 1222,
        "contract": "contracts/core/ETSTag.sol:ETSTag",
        "label": "_operatorApprovals",
        "offset": 0,
        "slot": "106",
        "type": "t_mapping(t_address,t_mapping(t_address,t_bool))"
      },
      {
        "astId": 2033,
        "contract": "contracts/core/ETSTag.sol:ETSTag",
        "label": "__gap",
        "offset": 0,
        "slot": "107",
        "type": "t_array(t_uint256)44_storage"
      },
      {
        "astId": 1023,
        "contract": "contracts/core/ETSTag.sol:ETSTag",
        "label": "_paused",
        "offset": 0,
        "slot": "151",
        "type": "t_bool"
      },
      {
        "astId": 1114,
        "contract": "contracts/core/ETSTag.sol:ETSTag",
        "label": "__gap",
        "offset": 0,
        "slot": "152",
        "type": "t_array(t_uint256)49_storage"
      },
      {
        "astId": 2293,
        "contract": "contracts/core/ETSTag.sol:ETSTag",
        "label": "__gap",
        "offset": 0,
        "slot": "201",
        "type": "t_array(t_uint256)50_storage"
      },
      {
        "astId": 2225,
        "contract": "contracts/core/ETSTag.sol:ETSTag",
        "label": "__gap",
        "offset": 0,
        "slot": "251",
        "type": "t_array(t_uint256)50_storage"
      },
      {
        "astId": 806,
        "contract": "contracts/core/ETSTag.sol:ETSTag",
        "label": "__gap",
        "offset": 0,
        "slot": "301",
        "type": "t_array(t_uint256)50_storage"
      },
      {
        "astId": 1001,
        "contract": "contracts/core/ETSTag.sol:ETSTag",
        "label": "__gap",
        "offset": 0,
        "slot": "351",
        "type": "t_array(t_uint256)50_storage"
      },
      {
        "astId": 4561,
        "contract": "contracts/core/ETSTag.sol:ETSTag",
        "label": "baseURI",
        "offset": 0,
        "slot": "401",
        "type": "t_string_storage"
      },
      {
        "astId": 4564,
        "contract": "contracts/core/ETSTag.sol:ETSTag",
        "label": "ownershipTermLength",
        "offset": 0,
        "slot": "402",
        "type": "t_uint256"
      },
      {
        "astId": 4567,
        "contract": "contracts/core/ETSTag.sol:ETSTag",
        "label": "tokenPointer",
        "offset": 0,
        "slot": "403",
        "type": "t_uint256"
      },
      {
        "astId": 4570,
        "contract": "contracts/core/ETSTag.sol:ETSTag",
        "label": "tagMinStringLength",
        "offset": 0,
        "slot": "404",
        "type": "t_uint256"
      },
      {
        "astId": 4573,
        "contract": "contracts/core/ETSTag.sol:ETSTag",
        "label": "tagMaxStringLength",
        "offset": 0,
        "slot": "405",
        "type": "t_uint256"
      },
      {
        "astId": 4576,
        "contract": "contracts/core/ETSTag.sol:ETSTag",
        "label": "platform",
        "offset": 0,
        "slot": "406",
        "type": "t_address_payable"
      },
      {
        "astId": 4580,
        "contract": "contracts/core/ETSTag.sol:ETSTag",
        "label": "accessControls",
        "offset": 0,
        "slot": "407",
        "type": "t_contract(ETSAccessControls)4393"
      },
      {
        "astId": 4586,
        "contract": "contracts/core/ETSTag.sol:ETSTag",
        "label": "tokenIdToTag",
        "offset": 0,
        "slot": "408",
        "type": "t_mapping(t_uint256,t_struct(Tag)4626_storage)"
      },
      {
        "astId": 4591,
        "contract": "contracts/core/ETSTag.sol:ETSTag",
        "label": "tagToTokenId",
        "offset": 0,
        "slot": "409",
        "type": "t_mapping(t_string_memory_ptr,t_uint256)"
      },
      {
        "astId": 4596,
        "contract": "contracts/core/ETSTag.sol:ETSTag",
        "label": "tokenIdToLastTransferTime",
        "offset": 0,
        "slot": "410",
        "type": "t_mapping(t_uint256,t_uint256)"
      }
    ],
    "types": {
      "t_address": {
        "encoding": "inplace",
        "label": "address",
        "numberOfBytes": "20"
      },
      "t_address_payable": {
        "encoding": "inplace",
        "label": "address payable",
        "numberOfBytes": "20"
      },
      "t_array(t_uint256)44_storage": {
        "base": "t_uint256",
        "encoding": "inplace",
        "label": "uint256[44]",
        "numberOfBytes": "1408"
      },
      "t_array(t_uint256)49_storage": {
        "base": "t_uint256",
        "encoding": "inplace",
        "label": "uint256[49]",
        "numberOfBytes": "1568"
      },
      "t_array(t_uint256)50_storage": {
        "base": "t_uint256",
        "encoding": "inplace",
        "label": "uint256[50]",
        "numberOfBytes": "1600"
      },
      "t_bool": {
        "encoding": "inplace",
        "label": "bool",
        "numberOfBytes": "1"
      },
      "t_contract(ETSAccessControls)4393": {
        "encoding": "inplace",
        "label": "contract ETSAccessControls",
        "numberOfBytes": "20"
      },
      "t_mapping(t_address,t_bool)": {
        "encoding": "mapping",
        "key": "t_address",
        "label": "mapping(address => bool)",
        "numberOfBytes": "32",
        "value": "t_bool"
      },
      "t_mapping(t_address,t_mapping(t_address,t_bool))": {
        "encoding": "mapping",
        "key": "t_address",
        "label": "mapping(address => mapping(address => bool))",
        "numberOfBytes": "32",
        "value": "t_mapping(t_address,t_bool)"
      },
      "t_mapping(t_address,t_uint256)": {
        "encoding": "mapping",
        "key": "t_address",
        "label": "mapping(address => uint256)",
        "numberOfBytes": "32",
        "value": "t_uint256"
      },
      "t_mapping(t_string_memory_ptr,t_uint256)": {
        "encoding": "mapping",
        "key": "t_string_memory_ptr",
        "label": "mapping(string => uint256)",
        "numberOfBytes": "32",
        "value": "t_uint256"
      },
      "t_mapping(t_uint256,t_address)": {
        "encoding": "mapping",
        "key": "t_uint256",
        "label": "mapping(uint256 => address)",
        "numberOfBytes": "32",
        "value": "t_address"
      },
      "t_mapping(t_uint256,t_struct(Tag)4626_storage)": {
        "encoding": "mapping",
        "key": "t_uint256",
        "label": "mapping(uint256 => struct ETSTag.Tag)",
        "numberOfBytes": "32",
        "value": "t_struct(Tag)4626_storage"
      },
      "t_mapping(t_uint256,t_uint256)": {
        "encoding": "mapping",
        "key": "t_uint256",
        "label": "mapping(uint256 => uint256)",
        "numberOfBytes": "32",
        "value": "t_uint256"
      },
      "t_string_memory_ptr": {
        "encoding": "bytes",
        "label": "string",
        "numberOfBytes": "32"
      },
      "t_string_storage": {
        "encoding": "bytes",
        "label": "string",
        "numberOfBytes": "32"
      },
      "t_struct(Tag)4626_storage": {
        "encoding": "inplace",
        "label": "struct ETSTag.Tag",
        "members": [
          {
            "astId": 4619,
            "contract": "contracts/core/ETSTag.sol:ETSTag",
            "label": "originalPublisher",
            "offset": 0,
            "slot": "0",
            "type": "t_address"
          },
          {
            "astId": 4621,
            "contract": "contracts/core/ETSTag.sol:ETSTag",
            "label": "creator",
            "offset": 0,
            "slot": "1",
            "type": "t_address"
          },
          {
            "astId": 4623,
            "contract": "contracts/core/ETSTag.sol:ETSTag",
            "label": "displayVersion",
            "offset": 0,
            "slot": "2",
            "type": "t_string_storage"
          },
          {
            "astId": 4625,
            "contract": "contracts/core/ETSTag.sol:ETSTag",
            "label": "machineName",
            "offset": 0,
            "slot": "3",
            "type": "t_string_storage"
          }
        ],
        "numberOfBytes": "128"
      },
      "t_uint256": {
        "encoding": "inplace",
        "label": "uint256",
        "numberOfBytes": "32"
      }
    }
  }
}