{
  "_format": "hh-sol-artifact-1",
  "contractName": "ETSEnsure",
  "sourceName": "contracts/core/ETSEnsure.sol",
  "abi": [
    {
      "anonymous": false,
      "inputs": [
        {
          "indexed": false,
          "internalType": "address",
          "name": "previousAdmin",
          "type": "address"
        },
        {
          "indexed": false,
          "internalType": "address",
          "name": "newAdmin",
          "type": "address"
        }
      ],
      "name": "AdminChanged",
      "type": "event"
    },
    {
      "anonymous": false,
      "inputs": [
        {
          "indexed": true,
          "internalType": "address",
          "name": "beacon",
          "type": "address"
        }
      ],
      "name": "BeaconUpgraded",
      "type": "event"
    },
    {
      "anonymous": false,
      "inputs": [
        {
          "indexed": false,
          "internalType": "uint256",
          "name": "targetId",
          "type": "uint256"
        }
      ],
      "name": "RequestEnsureTarget",
      "type": "event"
    },
    {
      "anonymous": false,
      "inputs": [
        {
          "indexed": true,
          "internalType": "address",
          "name": "implementation",
          "type": "address"
        }
      ],
      "name": "Upgraded",
      "type": "event"
    },
    {
      "inputs": [],
      "name": "NAME",
      "outputs": [
        {
          "internalType": "string",
          "name": "",
          "type": "string"
        }
      ],
      "stateMutability": "view",
      "type": "function"
    },
    {
      "inputs": [],
      "name": "VERSION",
      "outputs": [
        {
          "internalType": "string",
          "name": "",
          "type": "string"
        }
      ],
      "stateMutability": "view",
      "type": "function"
    },
    {
      "inputs": [],
      "name": "accessControls",
      "outputs": [
        {
          "internalType": "contract ETSAccessControls",
          "name": "",
          "type": "address"
        }
      ],
      "stateMutability": "view",
      "type": "function"
    },
    {
      "inputs": [],
      "name": "ets",
      "outputs": [
        {
          "internalType": "contract ETS",
          "name": "",
          "type": "address"
        }
      ],
      "stateMutability": "view",
      "type": "function"
    },
    {
      "inputs": [
        {
          "internalType": "uint256",
          "name": "_targetId",
          "type": "uint256"
        },
        {
          "internalType": "string",
          "name": "_ipfsHash",
          "type": "string"
        },
        {
          "internalType": "uint256",
          "name": "_status",
          "type": "uint256"
        }
      ],
      "name": "fulfillEnsureTarget",
      "outputs": [],
      "stateMutability": "nonpayable",
      "type": "function"
    },
    {
      "inputs": [
        {
          "internalType": "contract ETSAccessControls",
          "name": "_accessControls",
          "type": "address"
        },
        {
          "internalType": "contract ETS",
          "name": "_ets",
          "type": "address"
        }
      ],
      "name": "initialize",
      "outputs": [],
      "stateMutability": "nonpayable",
      "type": "function"
    },
    {
      "inputs": [],
      "name": "platform",
      "outputs": [
        {
          "internalType": "address payable",
          "name": "",
          "type": "address"
        }
      ],
      "stateMutability": "view",
      "type": "function"
    },
    {
      "inputs": [
        {
          "internalType": "uint256",
          "name": "targetId",
          "type": "uint256"
        }
      ],
      "name": "requestEnsureTarget",
      "outputs": [],
      "stateMutability": "nonpayable",
      "type": "function"
    },
    {
      "inputs": [
        {
          "internalType": "address",
          "name": "newImplementation",
          "type": "address"
        }
      ],
      "name": "upgradeTo",
      "outputs": [],
      "stateMutability": "nonpayable",
      "type": "function"
    },
    {
      "inputs": [
        {
          "internalType": "address",
          "name": "newImplementation",
          "type": "address"
        },
        {
          "internalType": "bytes",
          "name": "data",
          "type": "bytes"
        }
      ],
      "name": "upgradeToAndCall",
      "outputs": [],
      "stateMutability": "payable",
      "type": "function"
    }
  ],
  "bytecode": "0x60a06040523060601b60805234801561001757600080fd5b5060805160601c61127761004b600039600081816104eb015281816105700152818161076e01526107f301526112776000f3fe6080604052600436106100b15760003560e01c80634bde38c811610069578063748365ef1161004e578063748365ef146101a8578063a3f4df7e146101c8578063ffa1ad741461021e57600080fd5b80634bde38c8146101755780634f1ef2861461019557600080fd5b8063177f2fb51161009a578063177f2fb5146101155780633659cfe614610135578063485cc9551461015557600080fd5b806311035cb8146100b657806315ccda22146100d8575b600080fd5b3480156100c257600080fd5b506100d66100d1366004611000565b610267565b005b3480156100e457600080fd5b506098546100f8906001600160a01b031681565b6040516001600160a01b0390911681526020015b60405180910390f35b34801561012157600080fd5b506100d6610130366004610fe7565b6103bf565b34801561014157600080fd5b506100d6610150366004610e3d565b6104e0565b34801561016157600080fd5b506100d6610170366004610f0a565b61065c565b34801561018157600080fd5b506099546100f8906001600160a01b031681565b6100d66101a3366004610e5a565b610763565b3480156101b457600080fd5b506097546100f8906001600160a01b031681565b3480156101d457600080fd5b506102116040518060400160405280600981526020017f455453456e73757265000000000000000000000000000000000000000000000081525081565b60405161010c91906110ca565b34801561022a57600080fd5b506102116040518060400160405280600581526020017f302e302e3100000000000000000000000000000000000000000000000000000081525081565b6098546040517f0a39ce020000000000000000000000000000000000000000000000000000000081526004810186905260009182916001600160a01b0390911690630a39ce029060240160006040518083038186803b1580156102c957600080fd5b505afa1580156102dd573d6000803e3d6000fd5b505050506040513d6000823e601f3d908101601f191682016040526103059190810190610f43565b50506098546040517f507f3ba1000000000000000000000000000000000000000000000000000000008152949650929450506001600160a01b039091169163507f3ba191506103649089908690869042908a908d908d906004016110dd565b602060405180830381600087803b15801561037e57600080fd5b505af1158015610392573d6000803e3d6000fd5b505050506040513d601f19601f820116820180604052508101906103b69190610ee8565b50505050505050565b6098546040517f0477fe28000000000000000000000000000000000000000000000000000000008152600481018390526001600160a01b0390911690630477fe289060240160206040518083038186803b15801561041c57600080fd5b505afa158015610430573d6000803e3d6000fd5b505050506040513d601f19601f820116820180604052508101906104549190610ee8565b15156001146104aa5760405162461bcd60e51b815260206004820152600e60248201527f496e76616c69642074617267657400000000000000000000000000000000000060448201526064015b60405180910390fd5b6040518181527f47c22a178d23d0539929bccae31ee2c829834aedc09805ab76eb7f6620d657599060200160405180910390a150565b306001600160a01b037f000000000000000000000000000000000000000000000000000000000000000016141561056e5760405162461bcd60e51b815260206004820152602c60248201527f46756e6374696f6e206d7573742062652063616c6c6564207468726f7567682060448201526b19195b1959d85d1958d85b1b60a21b60648201526084016104a1565b7f00000000000000000000000000000000000000000000000000000000000000006001600160a01b03166105c97f360894a13ba1a3210667c828492db98dca3e2076cc3735a920a3ca505d382bbc546001600160a01b031690565b6001600160a01b0316146106345760405162461bcd60e51b815260206004820152602c60248201527f46756e6374696f6e206d7573742062652063616c6c6564207468726f7567682060448201526b6163746976652070726f787960a01b60648201526084016104a1565b61063d816108d0565b60408051600080825260208201909252610659918391906109e3565b50565b600054610100900460ff166106775760005460ff161561067b565b303b155b6106ed5760405162461bcd60e51b815260206004820152602e60248201527f496e697469616c697a61626c653a20636f6e747261637420697320616c72656160448201527f647920696e697469616c697a656400000000000000000000000000000000000060648201526084016104a1565b600054610100900460ff1615801561070f576000805461ffff19166101011790555b609780546001600160a01b0380861673ffffffffffffffffffffffffffffffffffffffff19928316179092556098805492851692909116919091179055801561075e576000805461ff00191690555b505050565b306001600160a01b037f00000000000000000000000000000000000000000000000000000000000000001614156107f15760405162461bcd60e51b815260206004820152602c60248201527f46756e6374696f6e206d7573742062652063616c6c6564207468726f7567682060448201526b19195b1959d85d1958d85b1b60a21b60648201526084016104a1565b7f00000000000000000000000000000000000000000000000000000000000000006001600160a01b031661084c7f360894a13ba1a3210667c828492db98dca3e2076cc3735a920a3ca505d382bbc546001600160a01b031690565b6001600160a01b0316146108b75760405162461bcd60e51b815260206004820152602c60248201527f46756e6374696f6e206d7573742062652063616c6c6564207468726f7567682060448201526b6163746976652070726f787960a01b60648201526084016104a1565b6108c0826108d0565b6108cc828260016109e3565b5050565b6097546001600160a01b03166324d7806c336040517fffffffff0000000000000000000000000000000000000000000000000000000060e084901b1681526001600160a01b03909116600482015260240160206040518083038186803b15801561093957600080fd5b505afa15801561094d573d6000803e3d6000fd5b505050506040513d601f19601f820116820180604052508101906109719190610ee8565b6106595760405162461bcd60e51b815260206004820152602560248201527f43616c6c6572206d75737420686176652061646d696e6973747261746f72206160448201527f636365737300000000000000000000000000000000000000000000000000000060648201526084016104a1565b6000610a167f360894a13ba1a3210667c828492db98dca3e2076cc3735a920a3ca505d382bbc546001600160a01b031690565b9050610a2184610ba7565b600083511180610a2e5750815b15610a3f57610a3d8484610c69565b505b7f4910fdfa16fed3260ed0e7147f7cc6da11a60208b5b9406d12a635614ffd9143805460ff16610ba057805460ff191660011781556040516001600160a01b0383166024820152610aec90869060440160408051601f198184030181529190526020810180517bffffffffffffffffffffffffffffffffffffffffffffffffffffffff167f3659cfe600000000000000000000000000000000000000000000000000000000179052610c69565b50805460ff191681557f360894a13ba1a3210667c828492db98dca3e2076cc3735a920a3ca505d382bbc546001600160a01b03838116911614610b975760405162461bcd60e51b815260206004820152602f60248201527f45524331393637557067726164653a207570677261646520627265616b73206660448201527f757274686572207570677261646573000000000000000000000000000000000060648201526084016104a1565b610ba085610d6b565b5050505050565b803b610c1b5760405162461bcd60e51b815260206004820152602d60248201527f455243313936373a206e657720696d706c656d656e746174696f6e206973206e60448201527f6f74206120636f6e74726163740000000000000000000000000000000000000060648201526084016104a1565b7f360894a13ba1a3210667c828492db98dca3e2076cc3735a920a3ca505d382bbc805473ffffffffffffffffffffffffffffffffffffffff19166001600160a01b0392909216919091179055565b6060823b610cdf5760405162461bcd60e51b815260206004820152602660248201527f416464726573733a2064656c65676174652063616c6c20746f206e6f6e2d636f60448201527f6e7472616374000000000000000000000000000000000000000000000000000060648201526084016104a1565b600080846001600160a01b031684604051610cfa91906110ae565b600060405180830381855af49150503d8060008114610d35576040519150601f19603f3d011682016040523d82523d6000602084013e610d3a565b606091505b5091509150610d62828260405180606001604052806027815260200161121b60279139610dab565b95945050505050565b610d7481610ba7565b6040516001600160a01b038216907fbc7cd75a20ee27fd9adebab32041f755214dbc6bffa90cc0225b39da2e5c2d3b90600090a250565b60608315610dba575081610de4565b825115610dca5782518084602001fd5b8160405162461bcd60e51b81526004016104a191906110ca565b9392505050565b600082601f830112610dfc57600080fd5b8151610e0f610e0a8261117e565b61114d565b818152846020838601011115610e2457600080fd5b610e358260208301602087016111a6565b949350505050565b600060208284031215610e4f57600080fd5b8135610de481611205565b60008060408385031215610e6d57600080fd5b8235610e7881611205565b9150602083013567ffffffffffffffff811115610e9457600080fd5b8301601f81018513610ea557600080fd5b8035610eb3610e0a8261117e565b818152866020838501011115610ec857600080fd5b816020840160208301376000602083830101528093505050509250929050565b600060208284031215610efa57600080fd5b81518015158114610de457600080fd5b60008060408385031215610f1d57600080fd5b8235610f2881611205565b91506020830135610f3881611205565b809150509250929050565b60008060008060008060c08789031215610f5c57600080fd5b865167ffffffffffffffff80821115610f7457600080fd5b610f808a838b01610deb565b97506020890151915080821115610f9657600080fd5b610fa28a838b01610deb565b965060408901519550606089015194506080890151935060a0890151915080821115610fcd57600080fd5b50610fda89828a01610deb565b9150509295509295509295565b600060208284031215610ff957600080fd5b5035919050565b6000806000806060858703121561101657600080fd5b84359350602085013567ffffffffffffffff8082111561103557600080fd5b818701915087601f83011261104957600080fd5b81358181111561105857600080fd5b88602082850101111561106a57600080fd5b95986020929092019750949560400135945092505050565b6000815180845261109a8160208601602086016111a6565b601f01601f19169290920160200192915050565b600082516110c08184602087016111a6565b9190910192915050565b602081526000610de46020830184611082565b87815260c0602082015260006110f660c0830189611082565b82810360408401526111088189611082565b905086606084015285608084015282810360a0840152838152838560208301376000602085830101526020601f19601f86011682010191505098975050505050505050565b604051601f8201601f1916810167ffffffffffffffff81118282101715611176576111766111d6565b604052919050565b600067ffffffffffffffff821115611198576111986111d6565b50601f01601f191660200190565b60005b838110156111c15781810151838201526020016111a9565b838111156111d0576000848401525b50505050565b7f4e487b7100000000000000000000000000000000000000000000000000000000600052604160045260246000fd5b6001600160a01b038116811461065957600080fdfe416464726573733a206c6f772d6c6576656c2064656c65676174652063616c6c206661696c6564a26469706673582212209aef7cbd392bf47a01e0282f970844d85562c48e181429a03a14ef6202acba2464736f6c63430008070033",
  "linkReferences": {},
  "deployedLinkReferences": {}
}