{
  "_format": "hh-sol-artifact-1",
  "contractName": "ETSEnsure",
  "sourceName": "contracts/core/ETSEnsure.sol",
  "abi": [
    {
      "anonymous": false,
      "inputs": [
        {
          "indexed": false,
          "internalType": "address",
          "name": "previousAdmin",
          "type": "address"
        },
        {
          "indexed": false,
          "internalType": "address",
          "name": "newAdmin",
          "type": "address"
        }
      ],
      "name": "AdminChanged",
      "type": "event"
    },
    {
      "anonymous": false,
      "inputs": [
        {
          "indexed": true,
          "internalType": "address",
          "name": "beacon",
          "type": "address"
        }
      ],
      "name": "BeaconUpgraded",
      "type": "event"
    },
    {
      "anonymous": false,
      "inputs": [
        {
          "indexed": false,
          "internalType": "uint256",
          "name": "targetId",
          "type": "uint256"
        }
      ],
      "name": "RequestEnsureTarget",
      "type": "event"
    },
    {
      "anonymous": false,
      "inputs": [
        {
          "indexed": true,
          "internalType": "address",
          "name": "implementation",
          "type": "address"
        }
      ],
      "name": "Upgraded",
      "type": "event"
    },
    {
      "inputs": [],
      "name": "NAME",
      "outputs": [
        {
          "internalType": "string",
          "name": "",
          "type": "string"
        }
      ],
      "stateMutability": "view",
      "type": "function"
    },
    {
      "inputs": [],
      "name": "VERSION",
      "outputs": [
        {
          "internalType": "string",
          "name": "",
          "type": "string"
        }
      ],
      "stateMutability": "view",
      "type": "function"
    },
    {
      "inputs": [],
      "name": "accessControls",
      "outputs": [
        {
          "internalType": "contract ETSAccessControls",
          "name": "",
          "type": "address"
        }
      ],
      "stateMutability": "view",
      "type": "function"
    },
    {
      "inputs": [],
      "name": "ets",
      "outputs": [
        {
          "internalType": "contract ETS",
          "name": "",
          "type": "address"
        }
      ],
      "stateMutability": "view",
      "type": "function"
    },
    {
      "inputs": [
        {
          "internalType": "uint256",
          "name": "_targetId",
          "type": "uint256"
        },
        {
          "internalType": "string",
          "name": "_ipfsHash",
          "type": "string"
        },
        {
          "internalType": "uint256",
          "name": "_status",
          "type": "uint256"
        }
      ],
      "name": "fulfillEnsureTarget",
      "outputs": [],
      "stateMutability": "nonpayable",
      "type": "function"
    },
    {
      "inputs": [
        {
          "internalType": "contract ETSAccessControls",
          "name": "_accessControls",
          "type": "address"
        },
        {
          "internalType": "contract ETS",
          "name": "_ets",
          "type": "address"
        }
      ],
      "name": "initialize",
      "outputs": [],
      "stateMutability": "nonpayable",
      "type": "function"
    },
    {
      "inputs": [],
      "name": "platform",
      "outputs": [
        {
          "internalType": "address payable",
          "name": "",
          "type": "address"
        }
      ],
      "stateMutability": "view",
      "type": "function"
    },
    {
      "inputs": [
        {
          "internalType": "uint256",
          "name": "targetId",
          "type": "uint256"
        }
      ],
      "name": "requestEnsureTarget",
      "outputs": [],
      "stateMutability": "nonpayable",
      "type": "function"
    },
    {
      "inputs": [
        {
          "internalType": "address",
          "name": "newImplementation",
          "type": "address"
        }
      ],
      "name": "upgradeTo",
      "outputs": [],
      "stateMutability": "nonpayable",
      "type": "function"
    },
    {
      "inputs": [
        {
          "internalType": "address",
          "name": "newImplementation",
          "type": "address"
        },
        {
          "internalType": "bytes",
          "name": "data",
          "type": "bytes"
        }
      ],
      "name": "upgradeToAndCall",
      "outputs": [],
      "stateMutability": "payable",
      "type": "function"
    }
  ],
  "bytecode": "0x60a06040523060805234801561001457600080fd5b5060805161123b610045600039600081816104be015281816105430152818161074101526107c6015261123b6000f3fe6080604052600436106100b15760003560e01c80634bde38c811610069578063748365ef1161004e578063748365ef146101a8578063a3f4df7e146101c8578063ffa1ad741461021e57600080fd5b80634bde38c8146101755780634f1ef2861461019557600080fd5b8063177f2fb51161009a578063177f2fb5146101155780633659cfe614610135578063485cc9551461015557600080fd5b806311035cb8146100b657806315ccda22146100d8575b600080fd5b3480156100c257600080fd5b506100d66100d1366004610daf565b610267565b005b3480156100e457600080fd5b506098546100f8906001600160a01b031681565b6040516001600160a01b0390911681526020015b60405180910390f35b34801561012157600080fd5b506100d6610130366004610e31565b6103a1565b34801561014157600080fd5b506100d6610150366004610e5f565b6104b3565b34801561016157600080fd5b506100d6610170366004610e7c565b61062f565b34801561018157600080fd5b506099546100f8906001600160a01b031681565b6100d66101a3366004610f3d565b610736565b3480156101b457600080fd5b506097546100f8906001600160a01b031681565b3480156101d457600080fd5b506102116040518060400160405280600981526020017f455453456e73757265000000000000000000000000000000000000000000000081525081565b60405161010c919061102c565b34801561022a57600080fd5b506102116040518060400160405280600581526020017f302e302e3100000000000000000000000000000000000000000000000000000081525081565b6098546040517f0a39ce020000000000000000000000000000000000000000000000000000000081526004810186905260009182916001600160a01b0390911690630a39ce0290602401600060405180830381865afa1580156102ce573d6000803e3d6000fd5b505050506040513d6000823e601f3d908101601f191682016040526102f6919081019061108c565b50506098546040517f507f3ba1000000000000000000000000000000000000000000000000000000008152949650929450506001600160a01b039091169163507f3ba191506103559089908690869042908a908d908d90600401611130565b6020604051808303816000875af1158015610374573d6000803e3d6000fd5b505050506040513d601f19601f8201168201806040525081019061039891906111a0565b50505050505050565b6098546040517f0477fe28000000000000000000000000000000000000000000000000000000008152600481018390526001600160a01b0390911690630477fe2890602401602060405180830381865afa158015610403573d6000803e3d6000fd5b505050506040513d601f19601f8201168201806040525081019061042791906111a0565b151560011461047d5760405162461bcd60e51b815260206004820152600e60248201527f496e76616c69642074617267657400000000000000000000000000000000000060448201526064015b60405180910390fd5b6040518181527f47c22a178d23d0539929bccae31ee2c829834aedc09805ab76eb7f6620d657599060200160405180910390a150565b306001600160a01b037f00000000000000000000000000000000000000000000000000000000000000001614156105415760405162461bcd60e51b815260206004820152602c60248201527f46756e6374696f6e206d7573742062652063616c6c6564207468726f7567682060448201526b19195b1959d85d1958d85b1b60a21b6064820152608401610474565b7f00000000000000000000000000000000000000000000000000000000000000006001600160a01b031661059c7f360894a13ba1a3210667c828492db98dca3e2076cc3735a920a3ca505d382bbc546001600160a01b031690565b6001600160a01b0316146106075760405162461bcd60e51b815260206004820152602c60248201527f46756e6374696f6e206d7573742062652063616c6c6564207468726f7567682060448201526b6163746976652070726f787960a01b6064820152608401610474565b610610816108a3565b6040805160008082526020820190925261062c918391906109a7565b50565b600054610100900460ff1661064a5760005460ff161561064e565b303b155b6106c05760405162461bcd60e51b815260206004820152602e60248201527f496e697469616c697a61626c653a20636f6e747261637420697320616c72656160448201527f647920696e697469616c697a65640000000000000000000000000000000000006064820152608401610474565b600054610100900460ff161580156106e2576000805461ffff19166101011790555b609780546001600160a01b0380861673ffffffffffffffffffffffffffffffffffffffff199283161790925560988054928516929091169190911790558015610731576000805461ff00191690555b505050565b306001600160a01b037f00000000000000000000000000000000000000000000000000000000000000001614156107c45760405162461bcd60e51b815260206004820152602c60248201527f46756e6374696f6e206d7573742062652063616c6c6564207468726f7567682060448201526b19195b1959d85d1958d85b1b60a21b6064820152608401610474565b7f00000000000000000000000000000000000000000000000000000000000000006001600160a01b031661081f7f360894a13ba1a3210667c828492db98dca3e2076cc3735a920a3ca505d382bbc546001600160a01b031690565b6001600160a01b03161461088a5760405162461bcd60e51b815260206004820152602c60248201527f46756e6374696f6e206d7573742062652063616c6c6564207468726f7567682060448201526b6163746976652070726f787960a01b6064820152608401610474565b610893826108a3565b61089f828260016109a7565b5050565b6097546001600160a01b03166324d7806c336040517fffffffff0000000000000000000000000000000000000000000000000000000060e084901b1681526001600160a01b039091166004820152602401602060405180830381865afa158015610911573d6000803e3d6000fd5b505050506040513d601f19601f8201168201806040525081019061093591906111a0565b61062c5760405162461bcd60e51b815260206004820152602560248201527f43616c6c6572206d75737420686176652061646d696e6973747261746f72206160448201527f63636573730000000000000000000000000000000000000000000000000000006064820152608401610474565b60006109da7f360894a13ba1a3210667c828492db98dca3e2076cc3735a920a3ca505d382bbc546001600160a01b031690565b90506109e584610b6b565b6000835111806109f25750815b15610a0357610a018484610c2d565b505b7f4910fdfa16fed3260ed0e7147f7cc6da11a60208b5b9406d12a635614ffd9143805460ff16610b6457805460ff191660011781556040516001600160a01b0383166024820152610ab090869060440160408051601f198184030181529190526020810180517bffffffffffffffffffffffffffffffffffffffffffffffffffffffff167f3659cfe600000000000000000000000000000000000000000000000000000000179052610c2d565b50805460ff191681557f360894a13ba1a3210667c828492db98dca3e2076cc3735a920a3ca505d382bbc546001600160a01b03838116911614610b5b5760405162461bcd60e51b815260206004820152602f60248201527f45524331393637557067726164653a207570677261646520627265616b73206660448201527f75727468657220757067726164657300000000000000000000000000000000006064820152608401610474565b610b6485610d2f565b5050505050565b803b610bdf5760405162461bcd60e51b815260206004820152602d60248201527f455243313936373a206e657720696d706c656d656e746174696f6e206973206e60448201527f6f74206120636f6e7472616374000000000000000000000000000000000000006064820152608401610474565b7f360894a13ba1a3210667c828492db98dca3e2076cc3735a920a3ca505d382bbc805473ffffffffffffffffffffffffffffffffffffffff19166001600160a01b0392909216919091179055565b6060823b610ca35760405162461bcd60e51b815260206004820152602660248201527f416464726573733a2064656c65676174652063616c6c20746f206e6f6e2d636f60448201527f6e747261637400000000000000000000000000000000000000000000000000006064820152608401610474565b600080846001600160a01b031684604051610cbe91906111c2565b600060405180830381855af49150503d8060008114610cf9576040519150601f19603f3d011682016040523d82523d6000602084013e610cfe565b606091505b5091509150610d2682826040518060600160405280602781526020016111df60279139610d6f565b95945050505050565b610d3881610b6b565b6040516001600160a01b038216907fbc7cd75a20ee27fd9adebab32041f755214dbc6bffa90cc0225b39da2e5c2d3b90600090a250565b60608315610d7e575081610da8565b825115610d8e5782518084602001fd5b8160405162461bcd60e51b8152600401610474919061102c565b9392505050565b60008060008060608587031215610dc557600080fd5b84359350602085013567ffffffffffffffff80821115610de457600080fd5b818701915087601f830112610df857600080fd5b813581811115610e0757600080fd5b886020828501011115610e1957600080fd5b95986020929092019750949560400135945092505050565b600060208284031215610e4357600080fd5b5035919050565b6001600160a01b038116811461062c57600080fd5b600060208284031215610e7157600080fd5b8135610da881610e4a565b60008060408385031215610e8f57600080fd5b8235610e9a81610e4a565b91506020830135610eaa81610e4a565b809150509250929050565b7f4e487b7100000000000000000000000000000000000000000000000000000000600052604160045260246000fd5b604051601f8201601f1916810167ffffffffffffffff81118282101715610f0d57610f0d610eb5565b604052919050565b600067ffffffffffffffff821115610f2f57610f2f610eb5565b50601f01601f191660200190565b60008060408385031215610f5057600080fd5b8235610f5b81610e4a565b9150602083013567ffffffffffffffff811115610f7757600080fd5b8301601f81018513610f8857600080fd5b8035610f9b610f9682610f15565b610ee4565b818152866020838501011115610fb057600080fd5b816020840160208301376000602083830101528093505050509250929050565b60005b83811015610feb578181015183820152602001610fd3565b83811115610ffa576000848401525b50505050565b60008151808452611018816020860160208601610fd0565b601f01601f19169290920160200192915050565b602081526000610da86020830184611000565b600082601f83011261105057600080fd5b815161105e610f9682610f15565b81815284602083860101111561107357600080fd5b611084826020830160208701610fd0565b949350505050565b60008060008060008060c087890312156110a557600080fd5b865167ffffffffffffffff808211156110bd57600080fd5b6110c98a838b0161103f565b975060208901519150808211156110df57600080fd5b6110eb8a838b0161103f565b965060408901519550606089015194506080890151935060a089015191508082111561111657600080fd5b5061112389828a0161103f565b9150509295509295509295565b87815260c06020820152600061114960c0830189611000565b828103604084015261115b8189611000565b905086606084015285608084015282810360a0840152838152838560208301376000602085830101526020601f19601f86011682010191505098975050505050505050565b6000602082840312156111b257600080fd5b81518015158114610da857600080fd5b600082516111d4818460208701610fd0565b919091019291505056fe416464726573733a206c6f772d6c6576656c2064656c65676174652063616c6c206661696c6564a264697066735822122016dba73ce8dd9144c3d27ae64f9c104ba0311d79c9a57d48d99e025dac7eeedb64736f6c634300080c0033",
  "linkReferences": {},
  "deployedLinkReferences": {}
}