{
  "address": "0x76cF4C272856B7e198DaED726C36186A98caF19E",
  "abi": [
    {
      "inputs": [],
      "stateMutability": "nonpayable",
      "type": "constructor"
    },
    {
      "anonymous": false,
      "inputs": [
        {
          "indexed": false,
          "internalType": "address",
          "name": "newAccessControls",
          "type": "address"
        }
      ],
      "name": "AccessControlsSet",
      "type": "event"
    },
    {
      "anonymous": false,
      "inputs": [
        {
          "indexed": false,
          "internalType": "address",
          "name": "previousAdmin",
          "type": "address"
        },
        {
          "indexed": false,
          "internalType": "address",
          "name": "newAdmin",
          "type": "address"
        }
      ],
      "name": "AdminChanged",
      "type": "event"
    },
    {
      "anonymous": false,
      "inputs": [
        {
          "indexed": true,
          "internalType": "address",
          "name": "beacon",
          "type": "address"
        }
      ],
      "name": "BeaconUpgraded",
      "type": "event"
    },
    {
      "anonymous": false,
      "inputs": [
        {
          "indexed": true,
          "internalType": "address",
          "name": "who",
          "type": "address"
        },
        {
          "indexed": false,
          "internalType": "uint256",
          "name": "amount",
          "type": "uint256"
        }
      ],
      "name": "FundsWithdrawn",
      "type": "event"
    },
    {
      "anonymous": false,
      "inputs": [
        {
          "indexed": false,
          "internalType": "uint8",
          "name": "version",
          "type": "uint8"
        }
      ],
      "name": "Initialized",
      "type": "event"
    },
    {
      "anonymous": false,
      "inputs": [
        {
          "indexed": false,
          "internalType": "uint256",
          "name": "platformPercentage",
          "type": "uint256"
        },
        {
          "indexed": false,
          "internalType": "uint256",
          "name": "relayerPercentage",
          "type": "uint256"
        }
      ],
      "name": "PercentagesSet",
      "type": "event"
    },
    {
      "anonymous": false,
      "inputs": [
        {
          "indexed": false,
          "internalType": "uint256",
          "name": "newTaggingFee",
          "type": "uint256"
        }
      ],
      "name": "TaggingFeeSet",
      "type": "event"
    },
    {
      "anonymous": false,
      "inputs": [
        {
          "indexed": false,
          "internalType": "uint256",
          "name": "taggingRecordId",
          "type": "uint256"
        }
      ],
      "name": "TaggingRecordCreated",
      "type": "event"
    },
    {
      "anonymous": false,
      "inputs": [
        {
          "indexed": false,
          "internalType": "uint256",
          "name": "taggingRecordId",
          "type": "uint256"
        },
        {
          "indexed": false,
          "internalType": "enum IETS.TaggingAction",
          "name": "action",
          "type": "uint8"
        }
      ],
      "name": "TaggingRecordUpdated",
      "type": "event"
    },
    {
      "anonymous": false,
      "inputs": [
        {
          "indexed": true,
          "internalType": "address",
          "name": "implementation",
          "type": "address"
        }
      ],
      "name": "Upgraded",
      "type": "event"
    },
    {
      "inputs": [],
      "name": "MODULO",
      "outputs": [
        {
          "internalType": "uint256",
          "name": "",
          "type": "uint256"
        }
      ],
      "stateMutability": "view",
      "type": "function"
    },
    {
      "inputs": [],
      "name": "NAME",
      "outputs": [
        {
          "internalType": "string",
          "name": "",
          "type": "string"
        }
      ],
      "stateMutability": "view",
      "type": "function"
    },
    {
      "inputs": [],
      "name": "VERSION",
      "outputs": [
        {
          "internalType": "string",
          "name": "",
          "type": "string"
        }
      ],
      "stateMutability": "view",
      "type": "function"
    },
    {
      "inputs": [
        {
          "internalType": "address",
          "name": "",
          "type": "address"
        }
      ],
      "name": "accrued",
      "outputs": [
        {
          "internalType": "uint256",
          "name": "",
          "type": "uint256"
        }
      ],
      "stateMutability": "view",
      "type": "function"
    },
    {
      "inputs": [
        {
          "internalType": "uint256",
          "name": "_taggingRecordId",
          "type": "uint256"
        },
        {
          "internalType": "uint256[]",
          "name": "_tagIds",
          "type": "uint256[]"
        },
        {
          "internalType": "address",
          "name": "_tagger",
          "type": "address"
        }
      ],
      "name": "appendTags",
      "outputs": [],
      "stateMutability": "payable",
      "type": "function"
    },
    {
      "inputs": [
        {
          "internalType": "uint256[]",
          "name": "_tagIds",
          "type": "uint256[]"
        },
        {
          "internalType": "uint256",
          "name": "_targetId",
          "type": "uint256"
        },
        {
          "internalType": "string",
          "name": "_recordType",
          "type": "string"
        },
        {
          "internalType": "address payable",
          "name": "_tagger",
          "type": "address"
        },
        {
          "internalType": "address",
          "name": "_relayer",
          "type": "address"
        }
      ],
      "name": "applyTagsWithCompositeKey",
      "outputs": [],
      "stateMutability": "payable",
      "type": "function"
    },
    {
      "inputs": [
        {
          "components": [
            {
              "internalType": "string",
              "name": "targetURI",
              "type": "string"
            },
            {
              "internalType": "string[]",
              "name": "tagStrings",
              "type": "string[]"
            },
            {
              "internalType": "string",
              "name": "recordType",
              "type": "string"
            }
          ],
          "internalType": "struct IETS.TaggingRecordRawInput",
          "name": "_rawInput",
          "type": "tuple"
        },
        {
          "internalType": "address payable",
          "name": "_tagger",
          "type": "address"
        },
        {
          "internalType": "address",
          "name": "_relayer",
          "type": "address"
        }
      ],
      "name": "applyTagsWithRawInput",
      "outputs": [],
      "stateMutability": "payable",
      "type": "function"
    },
    {
      "inputs": [
        {
          "internalType": "uint256",
          "name": "_taggingRecordId",
          "type": "uint256"
        },
        {
          "internalType": "uint256[]",
          "name": "_tagIds",
          "type": "uint256[]"
        },
        {
          "internalType": "enum IETS.TaggingAction",
          "name": "_action",
          "type": "uint8"
        }
      ],
      "name": "computeTaggingFee",
      "outputs": [
        {
          "internalType": "uint256",
          "name": "fee",
          "type": "uint256"
        },
        {
          "internalType": "uint256",
          "name": "tagCount",
          "type": "uint256"
        }
      ],
      "stateMutability": "view",
      "type": "function"
    },
    {
      "inputs": [
        {
          "internalType": "uint256[]",
          "name": "_tagIds",
          "type": "uint256[]"
        },
        {
          "internalType": "uint256",
          "name": "_targetId",
          "type": "uint256"
        },
        {
          "internalType": "string",
          "name": "_recordType",
          "type": "string"
        },
        {
          "internalType": "address",
          "name": "_relayer",
          "type": "address"
        },
        {
          "internalType": "address",
          "name": "_tagger",
          "type": "address"
        },
        {
          "internalType": "enum IETS.TaggingAction",
          "name": "_action",
          "type": "uint8"
        }
      ],
      "name": "computeTaggingFeeFromCompositeKey",
      "outputs": [
        {
          "internalType": "uint256",
          "name": "fee",
          "type": "uint256"
        },
        {
          "internalType": "uint256",
          "name": "tagCount",
          "type": "uint256"
        }
      ],
      "stateMutability": "view",
      "type": "function"
    },
    {
      "inputs": [
        {
          "components": [
            {
              "internalType": "string",
              "name": "targetURI",
              "type": "string"
            },
            {
              "internalType": "string[]",
              "name": "tagStrings",
              "type": "string[]"
            },
            {
              "internalType": "string",
              "name": "recordType",
              "type": "string"
            }
          ],
          "internalType": "struct IETS.TaggingRecordRawInput",
          "name": "_rawInput",
          "type": "tuple"
        },
        {
          "internalType": "address",
          "name": "_relayer",
          "type": "address"
        },
        {
          "internalType": "address",
          "name": "_tagger",
          "type": "address"
        },
        {
          "internalType": "enum IETS.TaggingAction",
          "name": "_action",
          "type": "uint8"
        }
      ],
      "name": "computeTaggingFeeFromRawInput",
      "outputs": [
        {
          "internalType": "uint256",
          "name": "fee",
          "type": "uint256"
        },
        {
          "internalType": "uint256",
          "name": "tagCount",
          "type": "uint256"
        }
      ],
      "stateMutability": "view",
      "type": "function"
    },
    {
      "inputs": [
        {
          "internalType": "uint256",
          "name": "_targetId",
          "type": "uint256"
        },
        {
          "internalType": "string",
          "name": "_recordType",
          "type": "string"
        },
        {
          "internalType": "address",
          "name": "_relayer",
          "type": "address"
        },
        {
          "internalType": "address",
          "name": "_tagger",
          "type": "address"
        }
      ],
      "name": "computeTaggingRecordIdFromCompositeKey",
      "outputs": [
        {
          "internalType": "uint256",
          "name": "taggingRecordId",
          "type": "uint256"
        }
      ],
      "stateMutability": "pure",
      "type": "function"
    },
    {
      "inputs": [
        {
          "components": [
            {
              "internalType": "string",
              "name": "targetURI",
              "type": "string"
            },
            {
              "internalType": "string[]",
              "name": "tagStrings",
              "type": "string[]"
            },
            {
              "internalType": "string",
              "name": "recordType",
              "type": "string"
            }
          ],
          "internalType": "struct IETS.TaggingRecordRawInput",
          "name": "_rawInput",
          "type": "tuple"
        },
        {
          "internalType": "address",
          "name": "_relayer",
          "type": "address"
        },
        {
          "internalType": "address",
          "name": "_tagger",
          "type": "address"
        }
      ],
      "name": "computeTaggingRecordIdFromRawInput",
      "outputs": [
        {
          "internalType": "uint256",
          "name": "taggingRecordId",
          "type": "uint256"
        }
      ],
      "stateMutability": "view",
      "type": "function"
    },
    {
      "inputs": [
        {
          "internalType": "string",
          "name": "_tag",
          "type": "string"
        },
        {
          "internalType": "address payable",
          "name": "_creator",
          "type": "address"
        }
      ],
      "name": "createTag",
      "outputs": [
        {
          "internalType": "uint256",
          "name": "_tokenId",
          "type": "uint256"
        }
      ],
      "stateMutability": "payable",
      "type": "function"
    },
    {
      "inputs": [
        {
          "internalType": "uint256[]",
          "name": "_tagIds",
          "type": "uint256[]"
        },
        {
          "internalType": "uint256",
          "name": "_targetId",
          "type": "uint256"
        },
        {
          "internalType": "string",
          "name": "_recordType",
          "type": "string"
        },
        {
          "internalType": "address",
          "name": "_tagger",
          "type": "address"
        }
      ],
      "name": "createTaggingRecord",
      "outputs": [],
      "stateMutability": "payable",
      "type": "function"
    },
    {
      "inputs": [
        {
          "internalType": "address payable",
          "name": "_account",
          "type": "address"
        }
      ],
      "name": "drawDown",
      "outputs": [],
      "stateMutability": "nonpayable",
      "type": "function"
    },
    {
      "inputs": [],
      "name": "etsAccessControls",
      "outputs": [
        {
          "internalType": "contract IETSAccessControls",
          "name": "",
          "type": "address"
        }
      ],
      "stateMutability": "view",
      "type": "function"
    },
    {
      "inputs": [],
      "name": "etsTarget",
      "outputs": [
        {
          "internalType": "contract IETSTarget",
          "name": "",
          "type": "address"
        }
      ],
      "stateMutability": "view",
      "type": "function"
    },
    {
      "inputs": [],
      "name": "etsToken",
      "outputs": [
        {
          "internalType": "contract IETSToken",
          "name": "",
          "type": "address"
        }
      ],
      "stateMutability": "view",
      "type": "function"
    },
    {
      "inputs": [
        {
          "internalType": "string",
          "name": "_tag",
          "type": "string"
        },
        {
          "internalType": "address payable",
          "name": "_creator",
          "type": "address"
        }
      ],
      "name": "getOrCreateTagId",
      "outputs": [
        {
          "internalType": "uint256",
          "name": "tokenId",
          "type": "uint256"
        }
      ],
      "stateMutability": "payable",
      "type": "function"
    },
    {
      "inputs": [
        {
          "internalType": "uint256",
          "name": "_targetId",
          "type": "uint256"
        },
        {
          "internalType": "string",
          "name": "_recordType",
          "type": "string"
        },
        {
          "internalType": "address",
          "name": "_relayer",
          "type": "address"
        },
        {
          "internalType": "address",
          "name": "_tagger",
          "type": "address"
        }
      ],
      "name": "getTaggingRecordFromCompositeKey",
      "outputs": [
        {
          "internalType": "uint256[]",
          "name": "tagIds",
          "type": "uint256[]"
        },
        {
          "internalType": "uint256",
          "name": "targetId",
          "type": "uint256"
        },
        {
          "internalType": "string",
          "name": "recordType",
          "type": "string"
        },
        {
          "internalType": "address",
          "name": "relayer",
          "type": "address"
        },
        {
          "internalType": "address",
          "name": "tagger",
          "type": "address"
        }
      ],
      "stateMutability": "view",
      "type": "function"
    },
    {
      "inputs": [
        {
          "internalType": "uint256",
          "name": "_id",
          "type": "uint256"
        }
      ],
      "name": "getTaggingRecordFromId",
      "outputs": [
        {
          "internalType": "uint256[]",
          "name": "tagIds",
          "type": "uint256[]"
        },
        {
          "internalType": "uint256",
          "name": "targetId",
          "type": "uint256"
        },
        {
          "internalType": "string",
          "name": "recordType",
          "type": "string"
        },
        {
          "internalType": "address",
          "name": "relayer",
          "type": "address"
        },
        {
          "internalType": "address",
          "name": "tagger",
          "type": "address"
        }
      ],
      "stateMutability": "view",
      "type": "function"
    },
    {
      "inputs": [
        {
          "components": [
            {
              "internalType": "string",
              "name": "targetURI",
              "type": "string"
            },
            {
              "internalType": "string[]",
              "name": "tagStrings",
              "type": "string[]"
            },
            {
              "internalType": "string",
              "name": "recordType",
              "type": "string"
            }
          ],
          "internalType": "struct IETS.TaggingRecordRawInput",
          "name": "_rawInput",
          "type": "tuple"
        },
        {
          "internalType": "address",
          "name": "_relayer",
          "type": "address"
        },
        {
          "internalType": "address",
          "name": "_tagger",
          "type": "address"
        }
      ],
      "name": "getTaggingRecordFromRawInput",
      "outputs": [
        {
          "internalType": "uint256[]",
          "name": "tagIds",
          "type": "uint256[]"
        },
        {
          "internalType": "uint256",
          "name": "targetId",
          "type": "uint256"
        },
        {
          "internalType": "string",
          "name": "recordType",
          "type": "string"
        },
        {
          "internalType": "address",
          "name": "relayer",
          "type": "address"
        },
        {
          "internalType": "address",
          "name": "tagger",
          "type": "address"
        }
      ],
      "stateMutability": "view",
      "type": "function"
    },
    {
      "inputs": [
        {
          "internalType": "contract IETSAccessControls",
          "name": "_etsAccessControls",
          "type": "address"
        },
        {
          "internalType": "contract IETSToken",
          "name": "_etsToken",
          "type": "address"
        },
        {
          "internalType": "contract IETSTarget",
          "name": "_etsTarget",
          "type": "address"
        },
        {
          "internalType": "uint256",
          "name": "_taggingFee",
          "type": "uint256"
        },
        {
          "internalType": "uint256",
          "name": "_platformPercentage",
          "type": "uint256"
        },
        {
          "internalType": "uint256",
          "name": "_relayerPercentage",
          "type": "uint256"
        }
      ],
      "name": "initialize",
      "outputs": [],
      "stateMutability": "nonpayable",
      "type": "function"
    },
    {
      "inputs": [
        {
          "internalType": "address",
          "name": "",
          "type": "address"
        }
      ],
      "name": "paid",
      "outputs": [
        {
          "internalType": "uint256",
          "name": "",
          "type": "uint256"
        }
      ],
      "stateMutability": "view",
      "type": "function"
    },
    {
      "inputs": [],
      "name": "platformPercentage",
      "outputs": [
        {
          "internalType": "uint256",
          "name": "",
          "type": "uint256"
        }
      ],
      "stateMutability": "view",
      "type": "function"
    },
    {
      "inputs": [],
      "name": "proxiableUUID",
      "outputs": [
        {
          "internalType": "bytes32",
          "name": "",
          "type": "bytes32"
        }
      ],
      "stateMutability": "view",
      "type": "function"
    },
    {
      "inputs": [],
      "name": "relayerPercentage",
      "outputs": [
        {
          "internalType": "uint256",
          "name": "",
          "type": "uint256"
        }
      ],
      "stateMutability": "view",
      "type": "function"
    },
    {
      "inputs": [
        {
          "internalType": "uint256",
          "name": "_taggingRecordId",
          "type": "uint256"
        },
        {
          "internalType": "uint256[]",
          "name": "_tagIds",
          "type": "uint256[]"
        },
        {
          "internalType": "address",
          "name": "_tagger",
          "type": "address"
        }
      ],
      "name": "removeTags",
      "outputs": [],
      "stateMutability": "nonpayable",
      "type": "function"
    },
    {
      "inputs": [
        {
          "internalType": "uint256[]",
          "name": "_tagIds",
          "type": "uint256[]"
        },
        {
          "internalType": "uint256",
          "name": "_targetId",
          "type": "uint256"
        },
        {
          "internalType": "string",
          "name": "_recordType",
          "type": "string"
        },
        {
          "internalType": "address payable",
          "name": "_tagger",
          "type": "address"
        },
        {
          "internalType": "address",
          "name": "_relayer",
          "type": "address"
        }
      ],
      "name": "removeTagsWithCompositeKey",
      "outputs": [],
      "stateMutability": "nonpayable",
      "type": "function"
    },
    {
      "inputs": [
        {
          "components": [
            {
              "internalType": "string",
              "name": "targetURI",
              "type": "string"
            },
            {
              "internalType": "string[]",
              "name": "tagStrings",
              "type": "string[]"
            },
            {
              "internalType": "string",
              "name": "recordType",
              "type": "string"
            }
          ],
          "internalType": "struct IETS.TaggingRecordRawInput",
          "name": "_rawInput",
          "type": "tuple"
        },
        {
          "internalType": "address",
          "name": "_tagger",
          "type": "address"
        },
        {
          "internalType": "address",
          "name": "_relayer",
          "type": "address"
        }
      ],
      "name": "removeTagsWithRawInput",
      "outputs": [],
      "stateMutability": "nonpayable",
      "type": "function"
    },
    {
      "inputs": [
        {
          "internalType": "uint256",
          "name": "_taggingRecordId",
          "type": "uint256"
        },
        {
          "internalType": "uint256[]",
          "name": "_tagIds",
          "type": "uint256[]"
        },
        {
          "internalType": "address",
          "name": "_tagger",
          "type": "address"
        }
      ],
      "name": "replaceTags",
      "outputs": [],
      "stateMutability": "payable",
      "type": "function"
    },
    {
      "inputs": [
        {
          "internalType": "uint256[]",
          "name": "_tagIds",
          "type": "uint256[]"
        },
        {
          "internalType": "uint256",
          "name": "_targetId",
          "type": "uint256"
        },
        {
          "internalType": "string",
          "name": "_recordType",
          "type": "string"
        },
        {
          "internalType": "address payable",
          "name": "_tagger",
          "type": "address"
        },
        {
          "internalType": "address",
          "name": "_relayer",
          "type": "address"
        }
      ],
      "name": "replaceTagsWithCompositeKey",
      "outputs": [],
      "stateMutability": "payable",
      "type": "function"
    },
    {
      "inputs": [
        {
          "components": [
            {
              "internalType": "string",
              "name": "targetURI",
              "type": "string"
            },
            {
              "internalType": "string[]",
              "name": "tagStrings",
              "type": "string[]"
            },
            {
              "internalType": "string",
              "name": "recordType",
              "type": "string"
            }
          ],
          "internalType": "struct IETS.TaggingRecordRawInput",
          "name": "_rawInput",
          "type": "tuple"
        },
        {
          "internalType": "address payable",
          "name": "_tagger",
          "type": "address"
        },
        {
          "internalType": "address",
          "name": "_relayer",
          "type": "address"
        }
      ],
      "name": "replaceTagsWithRawInput",
      "outputs": [],
      "stateMutability": "payable",
      "type": "function"
    },
    {
      "inputs": [
        {
          "internalType": "contract IETSAccessControls",
          "name": "_accessControls",
          "type": "address"
        }
      ],
      "name": "setAccessControls",
      "outputs": [],
      "stateMutability": "nonpayable",
      "type": "function"
    },
    {
      "inputs": [
        {
          "internalType": "uint256",
          "name": "_platformPercentage",
          "type": "uint256"
        },
        {
          "internalType": "uint256",
          "name": "_relayerPercentage",
          "type": "uint256"
        }
      ],
      "name": "setPercentages",
      "outputs": [],
      "stateMutability": "nonpayable",
      "type": "function"
    },
    {
      "inputs": [
        {
          "internalType": "uint256",
          "name": "_fee",
          "type": "uint256"
        }
      ],
      "name": "setTaggingFee",
      "outputs": [],
      "stateMutability": "nonpayable",
      "type": "function"
    },
    {
      "inputs": [],
      "name": "taggingFee",
      "outputs": [
        {
          "internalType": "uint256",
          "name": "",
          "type": "uint256"
        }
      ],
      "stateMutability": "view",
      "type": "function"
    },
    {
      "inputs": [
        {
          "internalType": "uint256",
          "name": "_taggingRecordId",
          "type": "uint256"
        }
      ],
      "name": "taggingRecordExists",
      "outputs": [
        {
          "internalType": "bool",
          "name": "",
          "type": "bool"
        }
      ],
      "stateMutability": "view",
      "type": "function"
    },
    {
      "inputs": [
        {
          "internalType": "uint256",
          "name": "_targetId",
          "type": "uint256"
        },
        {
          "internalType": "string",
          "name": "_recordType",
          "type": "string"
        },
        {
          "internalType": "address",
          "name": "_relayer",
          "type": "address"
        },
        {
          "internalType": "address",
          "name": "_tagger",
          "type": "address"
        }
      ],
      "name": "taggingRecordExistsByCompositeKey",
      "outputs": [
        {
          "internalType": "bool",
          "name": "",
          "type": "bool"
        }
      ],
      "stateMutability": "view",
      "type": "function"
    },
    {
      "inputs": [
        {
          "components": [
            {
              "internalType": "string",
              "name": "targetURI",
              "type": "string"
            },
            {
              "internalType": "string[]",
              "name": "tagStrings",
              "type": "string[]"
            },
            {
              "internalType": "string",
              "name": "recordType",
              "type": "string"
            }
          ],
          "internalType": "struct IETS.TaggingRecordRawInput",
          "name": "_rawInput",
          "type": "tuple"
        },
        {
          "internalType": "address",
          "name": "_relayer",
          "type": "address"
        },
        {
          "internalType": "address",
          "name": "_tagger",
          "type": "address"
        }
      ],
      "name": "taggingRecordExistsByRawInput",
      "outputs": [
        {
          "internalType": "bool",
          "name": "",
          "type": "bool"
        }
      ],
      "stateMutability": "view",
      "type": "function"
    },
    {
      "inputs": [
        {
          "internalType": "uint256",
          "name": "",
          "type": "uint256"
        }
      ],
      "name": "taggingRecords",
      "outputs": [
        {
          "internalType": "uint256",
          "name": "targetId",
          "type": "uint256"
        },
        {
          "internalType": "string",
          "name": "recordType",
          "type": "string"
        },
        {
          "internalType": "address",
          "name": "relayer",
          "type": "address"
        },
        {
          "internalType": "address",
          "name": "tagger",
          "type": "address"
        }
      ],
      "stateMutability": "view",
      "type": "function"
    },
    {
      "inputs": [
        {
          "internalType": "address",
          "name": "_account",
          "type": "address"
        }
      ],
      "name": "totalDue",
      "outputs": [
        {
          "internalType": "uint256",
          "name": "_due",
          "type": "uint256"
        }
      ],
      "stateMutability": "view",
      "type": "function"
    },
    {
      "inputs": [
        {
          "internalType": "address",
          "name": "newImplementation",
          "type": "address"
        }
      ],
      "name": "upgradeTo",
      "outputs": [],
      "stateMutability": "nonpayable",
      "type": "function"
    },
    {
      "inputs": [
        {
          "internalType": "address",
          "name": "newImplementation",
          "type": "address"
        },
        {
          "internalType": "bytes",
          "name": "data",
          "type": "bytes"
        }
      ],
      "name": "upgradeToAndCall",
      "outputs": [],
      "stateMutability": "payable",
      "type": "function"
    }
  ],
  "numDeployments": 3,
  "solcInputHash": "e471eeaea25ffae79d2822e7e98866a5",
  "bytecode": "0x60a0604052306080523480156200001557600080fd5b506200002062000026565b620000e7565b600054610100900460ff1615620000935760405162461bcd60e51b815260206004820152602760248201527f496e697469616c697a61626c653a20636f6e747261637420697320696e697469604482015266616c697a696e6760c81b606482015260840160405180910390fd5b60005460ff90811614620000e5576000805460ff191660ff9081179091556040519081527f7f26b83ff96e1f2b6a682f133852f6798a09c465da95921460cefb38474024989060200160405180910390a15b565b60805161556e6200011f60003960008181610b2d01528181610bb701528181611082015281816111070152611252015261556e6000f3fe6080604052600436106102e75760003560e01c806380cece4811610184578063bcec58f7116100d6578063cd15832f1161008a578063f8e6135e11610064578063f8e6135e14610830578063fe52656f14610843578063ffa1ad741461085957600080fd5b8063cd15832f146107d0578063ea552bc1146107f0578063f79fa9881461081057600080fd5b8063bd7a5f05116100bb578063bd7a5f051461078a578063c20620051461079d578063c38f3037146107bd57600080fd5b8063bcec58f714610757578063bd2ec8c51461076a57600080fd5b8063a33def1511610138578063a53d30a411610112578063a53d30a4146106f5578063a8586f7b14610715578063b148440f1461072a57600080fd5b8063a33def1514610652578063a340cf7914610672578063a3f4df7e1461069f57600080fd5b80638633899c116101695780638633899c146105ff578063962ed2321461061f578063a27eee3c1461063f57600080fd5b806380cece48146105bf5780638299f9f9146105df57600080fd5b80634f1ef2861161023d57806358f48469116101f1578063728cdbca116101cb578063728cdbca1461055c57806374716c811461057c5780637cfe5213146105ac57600080fd5b806358f48469146104f8578063590ce8481461051857806368fd4dee1461052b57600080fd5b806352d1902d1161022257806352d1902d146104b057806354b4d676146104c557806356c63489146104d857600080fd5b80634f1ef2861461047d57806350064ea41461049057600080fd5b8063249f3eec1161029f57806346ca0f4d1161027957806346ca0f4d1461041257806349b6af311461044a5780634ad97b351461046a57600080fd5b8063249f3eec146103a55780632a1e1ee1146103da5780633659cfe6146103f057600080fd5b80631632a9bc116102d05780631632a9bc1461033f57806318fc47761461035f5780631f7418971461038f57600080fd5b806306d05ed2146102ec5780630ad2f0c31461031f575b600080fd5b3480156102f857600080fd5b5061030c6103073660046146e8565b6108a2565b6040519081526020015b60405180910390f35b34801561032b57600080fd5b5061030c61033a366004614754565b6108dc565b34801561034b57600080fd5b5061030c61035a366004614899565b610910565b34801561036b57600080fd5b5061037f61037a3660046148fd565b61099e565b6040519015158152602001610316565b34801561039b57600080fd5b5061030c60cd5481565b3480156103b157600080fd5b506103c56103c036600461493d565b6109c3565b60408051928352602083019190915201610316565b3480156103e657600080fd5b5061030c60ce5481565b3480156103fc57600080fd5b5061041061040b366004614754565b610b22565b005b34801561041e57600080fd5b5060ca54610432906001600160a01b031681565b6040516001600160a01b039091168152602001610316565b34801561045657600080fd5b50610410610465366004614a16565b610ca3565b610410610478366004614a16565b610e90565b61041061048b366004614a66565b611077565b34801561049c57600080fd5b506103c56104ab366004614b0c565b6111e4565b3480156104bc57600080fd5b5061030c611245565b61030c6104d3366004614bb5565b61130a565b3480156104e457600080fd5b5060cb54610432906001600160a01b031681565b34801561050457600080fd5b50610410610513366004614c01565b611452565b610410610526366004614c39565b611662565b34801561053757600080fd5b5061054b6105463660046148fd565b6117dc565b604051610316959493929190614d2a565b34801561056857600080fd5b50610410610577366004614da4565b61190c565b34801561058857600080fd5b5061059c6105973660046148fd565b611a90565b6040516103169493929190614e09565b6104106105ba366004614e43565b611b51565b3480156105cb57600080fd5b506104106105da366004614e43565b611c5e565b3480156105eb57600080fd5b5060c954610432906001600160a01b031681565b34801561060b57600080fd5b5061054b61061a366004614899565b611d63565b34801561062b57600080fd5b5061041061063a3660046148fd565b611e6f565b61030c61064d366004614bb5565b611f71565b34801561065e57600080fd5b5061054b61066d3660046146e8565b6120a6565b34801561067e57600080fd5b5061030c61068d366004614754565b60d06020526000908152604090205481565b3480156106ab57600080fd5b506106e86040518060400160405280600881526020017f45545320436f726500000000000000000000000000000000000000000000000081525081565b6040516103169190614f04565b34801561070157600080fd5b506103c5610710366004614f17565b612137565b34801561072157600080fd5b5061030c606481565b34801561073657600080fd5b5061030c610745366004614754565b60cf6020526000908152604090205481565b610410610765366004614c01565b6123de565b34801561077657600080fd5b50610410610785366004614f6e565b6125b9565b610410610798366004614a16565b612721565b3480156107a957600080fd5b506104106107b8366004614754565b612985565b6104106107cb366004614f90565b612ad2565b3480156107dc57600080fd5b506104106107eb366004614754565b612e20565b3480156107fc57600080fd5b5061037f61080b366004614899565b61305b565b34801561081c57600080fd5b5061037f61082b3660046146e8565b6130e3565b61041061083e366004614c01565b6130ff565b34801561084f57600080fd5b5061030c60cc5481565b34801561086557600080fd5b506106e86040518060400160405280600581526020017f302e302e3100000000000000000000000000000000000000000000000000000081525081565b6000848484846040516020016108bb9493929190615018565b60408051601f19818403018152919052805160209091012095945050505050565b6001600160a01b038116600090815260d0602090815260408083205460cf90925282205461090a919061507b565b92915050565b60cb5483516040516323c7e9f360e01b8152600092610994926001600160a01b03909116916323c7e9f39161094791600401614f04565b602060405180830381865afa158015610964573d6000803e3d6000fd5b505050506040513d601f19601f820116820180604052508101906109889190615092565b856040015185856108a2565b90505b9392505050565b600081815260d160205260408120600101546109bb57600061090a565b600192915050565b600080806109d460208801886150ab565b9050905060008167ffffffffffffffff8111156109f3576109f36145aa565b604051908082528060200260200182016040528015610a1c578160200160208202803683370190505b50905060005b82811015610af55760ca546001600160a01b031663f143fc61610a4860208c018c6150ab565b84818110610a5857610a586150f5565b9050602002810190610a6a919061510b565b6040518363ffffffff1660e01b8152600401610a8792919061517b565b602060405180830381865afa158015610aa4573d6000803e3d6000fd5b505050506040513d601f19601f82011682018060405250810190610ac89190615092565b828281518110610ada57610ada6150f5565b6020908102919091010152610aee8161518f565b9050610a22565b50610b13610b0c610b058a6151aa565b8989610910565b8287612137565b93509350505094509492505050565b306001600160a01b037f0000000000000000000000000000000000000000000000000000000000000000161415610bb55760405162461bcd60e51b815260206004820152602c60248201527f46756e6374696f6e206d7573742062652063616c6c6564207468726f7567682060448201526b19195b1959d85d1958d85b1b60a21b60648201526084015b60405180910390fd5b7f00000000000000000000000000000000000000000000000000000000000000006001600160a01b0316610c107f360894a13ba1a3210667c828492db98dca3e2076cc3735a920a3ca505d382bbc546001600160a01b031690565b6001600160a01b031614610c7b5760405162461bcd60e51b815260206004820152602c60248201527f46756e6374696f6e206d7573742062652063616c6c6564207468726f7567682060448201526b6163746976652070726f787960a01b6064820152608401610bac565b610c8481613362565b60408051600080825260208201909252610ca091839190613428565b50565b610cab6135c8565b60c9546001600160a01b031663541d5548336040516001600160e01b031960e084901b1681526001600160a01b039091166004820152602401602060405180830381865afa158015610d01573d6000803e3d6000fd5b505050506040513d601f19601f82011682018060405250810190610d2591906151c6565b610d665760405162461bcd60e51b815260206004820152601260248201527121b0b63632b9103737ba102932b630bcb2b960711b6044820152606401610bac565b6000825111610daa5760405162461bcd60e51b815260206004820152601060248201526f139bc81d1859dcc81cdd5c1c1b1a595960821b6044820152606401610bac565b600083815260d160205260409020600401546001600160a01b03828116911614610e075760405162461bcd60e51b815260206004820152600e60248201526d139bdd08185d5d1a1bdc9a5e995960921b6044820152606401610bac565b600083815260d160209081526040918290208054835181840281018401909452808452610e6d93869390929190830182828015610e6357602002820191906000526020600020905b815481526020019060010190808311610e4f575b5050505050613622565b805190925015610e8157610e8183836137bd565b610e8b6001603355565b505050565b610e986135c8565b60c9546001600160a01b031663541d5548336040516001600160e01b031960e084901b1681526001600160a01b039091166004820152602401602060405180830381865afa158015610eee573d6000803e3d6000fd5b505050506040513d601f19601f82011682018060405250810190610f1291906151c6565b610f535760405162461bcd60e51b815260206004820152601260248201527121b0b63632b9103737ba102932b630bcb2b960711b6044820152606401610bac565b6000825111610f975760405162461bcd60e51b815260206004820152601060248201526f139bc81d1859dcc81cdd5c1c1b1a595960821b6044820152606401610bac565b600083815260d160205260409020600401546001600160a01b03828116911614610ff45760405162461bcd60e51b815260206004820152600e60248201526d139bdd08185d5d1a1bdc9a5e995960921b6044820152606401610bac565b600083815260d16020908152604091829020805483518184028101840190945280845261105a9386939092919083018282801561105057602002820191906000526020600020905b81548152602001906001019080831161103c575b505050505061387a565b805190925015610e815761106d82613a0d565b610e818383613b2d565b306001600160a01b037f00000000000000000000000000000000000000000000000000000000000000001614156111055760405162461bcd60e51b815260206004820152602c60248201527f46756e6374696f6e206d7573742062652063616c6c6564207468726f7567682060448201526b19195b1959d85d1958d85b1b60a21b6064820152608401610bac565b7f00000000000000000000000000000000000000000000000000000000000000006001600160a01b03166111607f360894a13ba1a3210667c828492db98dca3e2076cc3735a920a3ca505d382bbc546001600160a01b031690565b6001600160a01b0316146111cb5760405162461bcd60e51b815260206004820152602c60248201527f46756e6374696f6e206d7573742062652063616c6c6564207468726f7567682060448201526b6163746976652070726f787960a01b6064820152608401610bac565b6111d482613362565b6111e082826001613428565b5050565b60008061123561122e8989898080601f0160208091040260200160405190810160405280939291908181526020018383808284376000920191909152508b92508a91506108a29050565b8a85612137565b9150915097509795505050505050565b6000306001600160a01b037f000000000000000000000000000000000000000000000000000000000000000016146112e55760405162461bcd60e51b815260206004820152603860248201527f555550535570677261646561626c653a206d757374206e6f742062652063616c60448201527f6c6564207468726f7567682064656c656761746563616c6c00000000000000006064820152608401610bac565b507f360894a13ba1a3210667c828492db98dca3e2076cc3735a920a3ca505d382bbc90565b60006113146135c8565b60c9546001600160a01b031663541d5548336040516001600160e01b031960e084901b1681526001600160a01b039091166004820152602401602060405180830381865afa15801561136a573d6000803e3d6000fd5b505050506040513d601f19601f8201168201806040525081019061138e91906151c6565b6113cf5760405162461bcd60e51b815260206004820152601260248201527121b0b63632b9103737ba102932b630bcb2b960711b6044820152606401610bac565b60ca546001600160a01b031663a675f1e3858533866040518563ffffffff1660e01b815260040161140394939291906151e1565b6020604051808303816000875af1158015611422573d6000803e3d6000fd5b505050506040513d601f19601f820116820180604052508101906114469190615092565b90506109976001603355565b60c9546001600160a01b031663541d5548336040516001600160e01b031960e084901b1681526001600160a01b039091166004820152602401602060405180830381865afa1580156114a8573d6000803e3d6000fd5b505050506040513d601f19601f820116820180604052508101906114cc91906151c6565b61150d5760405162461bcd60e51b815260206004820152601260248201527121b0b63632b9103737ba102932b630bcb2b960711b6044820152606401610bac565b600061151c60208501856150ab565b9050905060008167ffffffffffffffff81111561153b5761153b6145aa565b604051908082528060200260200182016040528015611564578160200160208202803683370190505b50905060005b8281101561163d5760ca546001600160a01b031663f143fc6161159060208901896150ab565b848181106115a0576115a06150f5565b90506020028101906115b2919061510b565b6040518363ffffffff1660e01b81526004016115cf92919061517b565b602060405180830381865afa1580156115ec573d6000803e3d6000fd5b505050506040513d601f19601f820116820180604052508101906116109190615092565b828281518110611622576116226150f5565b60209081029190910101526116368161518f565b905061156a565b5061165b61165461164d876151aa565b8587610910565b8286610ca3565b5050505050565b60c9546001600160a01b031663541d5548336040516001600160e01b031960e084901b1681526001600160a01b039091166004820152602401602060405180830381865afa1580156116b8573d6000803e3d6000fd5b505050506040513d601f19601f820116820180604052508101906116dc91906151c6565b61171d5760405162461bcd60e51b815260206004820152601260248201527121b0b63632b9103737ba102932b630bcb2b960711b6044820152606401610bac565b85518061175f5760405162461bcd60e51b815260206004820152601060248201526f139bc81d1859dcc81cdd5c1c1b1a595960821b6044820152606401610bac565b60006117a58787878080601f0160208091040260200160405190810160405280939291908181526020018383808284376000920191909152508892508991506108a29050565b90506117b08161099e565b156117c5576117c0818986610e90565b6117d2565b6117d28888888888612ad2565b5050505050505050565b600081815260d16020908152604080832060018101546003820154600483015483548551818802810188019096528086526060979688968896879690958695919460028701946001600160a01b0392831694929093169287919083018282801561186557602002820191906000526020600020905b815481526020019060010190808311611851575b5050505050945082805461187890615216565b80601f01602080910402602001604051908101604052809291908181526020018280546118a490615216565b80156118f15780601f106118c6576101008083540402835291602001916118f1565b820191906000526020600020905b8154815290600101906020018083116118d457829003601f168201915b50505050509250955095509550955095505091939590929450565b600054610100900460ff161580801561192c5750600054600160ff909116105b806119465750303b158015611946575060005460ff166001145b6119b85760405162461bcd60e51b815260206004820152602e60248201527f496e697469616c697a61626c653a20636f6e747261637420697320616c72656160448201527f647920696e697469616c697a65640000000000000000000000000000000000006064820152608401610bac565b6000805460ff1916600117905580156119db576000805461ff0019166101001790555b6119e3613be5565b60c980546001600160a01b03808a1673ffffffffffffffffffffffffffffffffffffffff199283161790925560ca805489841690831617905560cb805492881692909116919091179055611a3684611e6f565b611a4083836125b9565b8015611a87576000805461ff0019169055604051600181527f7f26b83ff96e1f2b6a682f133852f6798a09c465da95921460cefb3847402498906020015b60405180910390a15b50505050505050565b60d16020526000908152604090206001810154600282018054919291611ab590615216565b80601f0160208091040260200160405190810160405280929190818152602001828054611ae190615216565b8015611b2e5780601f10611b0357610100808354040283529160200191611b2e565b820191906000526020600020905b815481529060010190602001808311611b1157829003601f168201915b50505050600383015460049093015491926001600160a01b039081169216905084565b60c9546001600160a01b031663541d5548336040516001600160e01b031960e084901b1681526001600160a01b039091166004820152602401602060405180830381865afa158015611ba7573d6000803e3d6000fd5b505050506040513d601f19601f82011682018060405250810190611bcb91906151c6565b611c0c5760405162461bcd60e51b815260206004820152601260248201527121b0b63632b9103737ba102932b630bcb2b960711b6044820152606401610bac565b611c56611c1b858584866108a2565b878780806020026020016040519081016040528093929190818152602001838360200280828437600092019190915250879250612721915050565b505050505050565b60c9546001600160a01b031663541d5548336040516001600160e01b031960e084901b1681526001600160a01b039091166004820152602401602060405180830381865afa158015611cb4573d6000803e3d6000fd5b505050506040513d601f19601f82011682018060405250810190611cd891906151c6565b611d195760405162461bcd60e51b815260206004820152601260248201527121b0b63632b9103737ba102932b630bcb2b960711b6044820152606401610bac565b611c56611d28858584866108a2565b878780806020026020016040519081016040528093929190818152602001838360200280828437600092019190915250879250610ca3915050565b60cb5483516040516323c7e9f360e01b815260609260009284928492839230926368fd4dee92611df8926001600160a01b03909116916323c7e9f391611dab91600401614f04565b602060405180830381865afa158015611dc8573d6000803e3d6000fd5b505050506040513d601f19601f82011682018060405250810190611dec9190615092565b8b604001518b8b6108a2565b6040518263ffffffff1660e01b8152600401611e1691815260200190565b600060405180830381865afa158015611e33573d6000803e3d6000fd5b505050506040513d6000823e601f3d908101601f19168201604052611e5b919081019061529b565b939c929b5090995097509095509350505050565b60c9546001600160a01b03166324d7806c336040516001600160e01b031960e084901b1681526001600160a01b039091166004820152602401602060405180830381865afa158015611ec5573d6000803e3d6000fd5b505050506040513d601f19601f82011682018060405250810190611ee991906151c6565b611f355760405162461bcd60e51b815260206004820152601860248201527f43616c6c6572206e6f742041646d696e6973747261746f7200000000000000006044820152606401610bac565b60cc8190556040518181527fc7c22e024ab071901183022e8bc5d443dd329ae4134ff83caa3944e1eab152d8906020015b60405180910390a150565b60c9546000906001600160a01b031663541d5548336040516001600160e01b031960e084901b1681526001600160a01b039091166004820152602401602060405180830381865afa158015611fca573d6000803e3d6000fd5b505050506040513d601f19601f82011682018060405250810190611fee91906151c6565b61202f5760405162461bcd60e51b815260206004820152601260248201527121b0b63632b9103737ba102932b630bcb2b960711b6044820152606401610bac565b60ca546001600160a01b031663fed6c2e9858533866040518563ffffffff1660e01b815260040161206394939291906151e1565b6020604051808303816000875af1158015612082573d6000803e3d6000fd5b505050506040513d601f19601f820116820180604052508101906109949190615092565b60606000818180306368fd4dee6120bf8b8b8b8b6108a2565b6040518263ffffffff1660e01b81526004016120dd91815260200190565b600060405180830381865afa1580156120fa573d6000803e3d6000fd5b505050506040513d6000823e601f3d908101601f19168201604052612122919081019061529b565b94509450945094509450945094509450945094565b6000806121438561099e565b61215c576121518451613c5a565b8451915091506123d6565b600083600281111561217057612170615382565b14156121dd57600085815260d1602090815260409182902080548351818402810184019094528084526121da93889390929190830182828015611050576020028201919060005260206000209081548152602001906001019080831161103c57505050505061387a565b93505b60018360028111156121f1576121f1615382565b141561233857600085815260d1602090815260408083208054825181850281018501909352808352919290919083018282801561224d57602002820191906000526020600020905b815481526020019060010190808311612239575b505050600089815260d160209081526040808320805482518185028101850190935280835296975092956122ba9550909350908301828280156122af57602002820191906000526020600020905b81548152602001906001019080831161229b575b50505050508761387a565b80519091501561232957600087815260d160209081526040918290208054835181840281018401909452808452612326939283018282801561231b57602002820191906000526020600020905b815481526020019060010190808311612307575b50505050508261387a565b91505b612333868361387a565b955050505b600283600281111561234c5761234c615382565b14156123c557600085815260d1602090815260409182902080548351818402810184019094528084526123b693889390929190830182828015610e635760200282019190600052602060002090815481526020019060010190808311610e4f575050505050613622565b935060008451915091506123d6565b6123cf8451613c5a565b8451915091505b935093915050565b60c9546001600160a01b031663541d5548336040516001600160e01b031960e084901b1681526001600160a01b039091166004820152602401602060405180830381865afa158015612434573d6000803e3d6000fd5b505050506040513d601f19601f8201168201806040525081019061245891906151c6565b6124995760405162461bcd60e51b815260206004820152601260248201527121b0b63632b9103737ba102932b630bcb2b960711b6044820152606401610bac565b60006124a860208501856150ab565b915050806124eb5760405162461bcd60e51b815260206004820152601060248201526f139bc81d1859dcc81cdd5c1c1b1a595960821b6044820152606401610bac565b60008167ffffffffffffffff811115612506576125066145aa565b60405190808252806020026020018201604052801561252f578160200160208202803683370190505b50905060005b828110156125a25761257561254d60208801886150ab565b8381811061255d5761255d6150f5565b905060200281019061256f919061510b565b87611f71565b828281518110612587576125876150f5565b602090810291909101015261259b8161518f565b9050612535565b5061165b6125b261164d876151aa565b8286612721565b60c9546001600160a01b03166324d7806c336040516001600160e01b031960e084901b1681526001600160a01b039091166004820152602401602060405180830381865afa15801561260f573d6000803e3d6000fd5b505050506040513d601f19601f8201168201806040525081019061263391906151c6565b61267f5760405162461bcd60e51b815260206004820152601860248201527f43616c6c6572206e6f742041646d696e6973747261746f7200000000000000006044820152606401610bac565b606461268b8284615398565b11156126d95760405162461bcd60e51b815260206004820181905260248201527f70657263656e7461676573206d757374206e6f74206265206f766572203130306044820152606401610bac565b60cd82905560ce81905560408051838152602081018390527fea32590d8a489d3bc12129ff9ed59ccf95efa42b017e0f23a14b57881a562a5e91015b60405180910390a15050565b6127296135c8565b60c9546001600160a01b031663541d5548336040516001600160e01b031960e084901b1681526001600160a01b039091166004820152602401602060405180830381865afa15801561277f573d6000803e3d6000fd5b505050506040513d601f19601f820116820180604052508101906127a391906151c6565b6127e45760405162461bcd60e51b815260206004820152601260248201527121b0b63632b9103737ba102932b630bcb2b960711b6044820152606401610bac565b60008251116128285760405162461bcd60e51b815260206004820152601060248201526f139bc81d1859dcc81cdd5c1c1b1a595960821b6044820152606401610bac565b600083815260d160205260409020600401546001600160a01b038281169116146128855760405162461bcd60e51b815260206004820152600e60248201526d139bdd08185d5d1a1bdc9a5e995960921b6044820152606401610bac565b600083815260d16020908152604080832080548251818502810185019093528083526128e5938301828280156128da57602002820191906000526020600020905b8154815260200190600101908083116128c6575b50505050508461387a565b8051909150156128f9576128f984826137bd565b600084815260d16020908152604091829020805483518184028101840190945280845261295d93879390929190830182828015611050576020028201919060005260206000209081548152602001906001019080831161103c57505050505061387a565b80519093501561297a5761297083613a0d565b61297a8484613b2d565b50610e8b6001603355565b61298d6135c8565b6000612998826108dc565b90506000811180156129aa5750478111155b15612ac7576001600160a01b038216600090815260d060205260409020546129d3908290615398565b6001600160a01b038316600081815260d0602052604080822093909355915183908381818185875af1925050503d8060008114612a2c576040519150601f19603f3d011682016040523d82523d6000602084013e612a31565b606091505b5050905080612a825760405162461bcd60e51b815260206004820152601060248201527f5472616e73666572206661696c65642e000000000000000000000000000000006044820152606401610bac565b826001600160a01b03167feaff4b37086828766ad3268786972c0cd24259d4c87a80f9d3963a3c3d999b0d83604051612abd91815260200190565b60405180910390a2505b50610ca06001603355565b612ada6135c8565b60c9546001600160a01b031663541d5548336040516001600160e01b031960e084901b1681526001600160a01b039091166004820152602401602060405180830381865afa158015612b30573d6000803e3d6000fd5b505050506040513d601f19601f82011682018060405250810190612b5491906151c6565b612b955760405162461bcd60e51b815260206004820152601260248201527121b0b63632b9103737ba102932b630bcb2b960711b6044820152606401610bac565b845180612bd75760405162461bcd60e51b815260206004820152601060248201526f139bc81d1859dcc81cdd5c1c1b1a595960821b6044820152606401610bac565b60005b81811015612cce5760ca5487516001600160a01b039091169063b7bd44ed90899084908110612c0b57612c0b6150f5565b60200260200101516040518263ffffffff1660e01b8152600401612c3191815260200190565b602060405180830381865afa158015612c4e573d6000803e3d6000fd5b505050506040513d601f19601f82011682018060405250810190612c7291906151c6565b612cbe5760405162461bcd60e51b815260206004820152600d60248201527f496e76616c6964207461674964000000000000000000000000000000000000006044820152606401610bac565b612cc78161518f565b9050612bda565b5060038310801590612ce05750601f83105b612d2c5760405162461bcd60e51b815260206004820152601460248201527f5265636f7264207479706520746f6f206c6f6e670000000000000000000000006044820152606401610bac565b60cb546040517fcd7c68e2000000000000000000000000000000000000000000000000000000008152600481018790526001600160a01b039091169063cd7c68e290602401602060405180830381865afa158015612d8e573d6000803e3d6000fd5b505050506040513d601f19601f82011682018060405250810190612db291906151c6565b612dfe5760405162461bcd60e51b815260206004820152601060248201527f496e76616c6964207461726765744964000000000000000000000000000000006044820152606401610bac565b612e0786613a0d565b612e15868686863387613c80565b5061165b6001603355565b60c9546001600160a01b03166324d7806c336040516001600160e01b031960e084901b1681526001600160a01b039091166004820152602401602060405180830381865afa158015612e76573d6000803e3d6000fd5b505050506040513d601f19601f82011682018060405250810190612e9a91906151c6565b612ee65760405162461bcd60e51b815260206004820152601860248201527f43616c6c6572206e6f742041646d696e6973747261746f7200000000000000006044820152606401610bac565b6001600160a01b038116612f3c5760405162461bcd60e51b815260206004820152601660248201527f416464726573732063616e6e6f74206265207a65726f000000000000000000006044820152606401610bac565b6001600160a01b0381166324d7806c336040516001600160e01b031960e084901b1681526001600160a01b039091166004820152602401602060405180830381865afa158015612f90573d6000803e3d6000fd5b505050506040513d601f19601f82011682018060405250810190612fb491906151c6565b6130005760405162461bcd60e51b815260206004820181905260248201527f43616c6c6572206e6f742061646d696e20696e206e657720636f6e74726163746044820152606401610bac565b60c9805473ffffffffffffffffffffffffffffffffffffffff19166001600160a01b0383169081179091556040519081527f2f55f724ae3134584dfdd86a4ee1e090635ff9913722b5fe06e064cc7e3ed8b490602001611f66565b60cb5483516040516323c7e9f360e01b81526000926109949261037a926001600160a01b03909216916323c7e9f39161309691600401614f04565b602060405180830381865afa1580156130b3573d6000803e3d6000fd5b505050506040513d601f19601f820116820180604052508101906130d79190615092565b866040015186866108a2565b60006130f461037a868686866108a2565b90505b949350505050565b60c9546001600160a01b031663541d5548336040516001600160e01b031960e084901b1681526001600160a01b039091166004820152602401602060405180830381865afa158015613155573d6000803e3d6000fd5b505050506040513d601f19601f8201168201806040525081019061317991906151c6565b6131ba5760405162461bcd60e51b815260206004820152601260248201527121b0b63632b9103737ba102932b630bcb2b960711b6044820152606401610bac565b60006131c960208501856150ab565b9150508061320c5760405162461bcd60e51b815260206004820152601060248201526f139bc81d1859dcc81cdd5c1c1b1a595960821b6044820152606401610bac565b60008167ffffffffffffffff811115613227576132276145aa565b604051908082528060200260200182016040528015613250578160200160208202803683370190505b50905060005b8281101561329b5761326e61254d60208801886150ab565b828281518110613280576132806150f5565b60209081029190910101526132948161518f565b9050613256565b5060006132aa61164d876151aa565b90506132b58161099e565b156132ca576132c5818387610e90565b611c56565b60cb546000906001600160a01b031663cf99c8156132e8898061510b565b6040518363ffffffff1660e01b815260040161330592919061517b565b6020604051808303816000875af1158015613324573d6000803e3d6000fd5b505050506040513d601f19601f820116820180604052508101906133489190615092565b9050611a87838261335c60408b018b61510b565b8a612ad2565b60c9546001600160a01b03166324d7806c336040516001600160e01b031960e084901b1681526001600160a01b039091166004820152602401602060405180830381865afa1580156133b8573d6000803e3d6000fd5b505050506040513d601f19601f820116820180604052508101906133dc91906151c6565b610ca05760405162461bcd60e51b815260206004820152601860248201527f43616c6c6572206e6f742041646d696e6973747261746f7200000000000000006044820152606401610bac565b7f4910fdfa16fed3260ed0e7147f7cc6da11a60208b5b9406d12a635614ffd91435460ff161561345b57610e8b83613def565b826001600160a01b03166352d1902d6040518163ffffffff1660e01b8152600401602060405180830381865afa9250505080156134b5575060408051601f3d908101601f191682019092526134b291810190615092565b60015b6135275760405162461bcd60e51b815260206004820152602e60248201527f45524331393637557067726164653a206e657720696d706c656d656e7461746960448201527f6f6e206973206e6f7420555550530000000000000000000000000000000000006064820152608401610bac565b7f360894a13ba1a3210667c828492db98dca3e2076cc3735a920a3ca505d382bbc81146135bc5760405162461bcd60e51b815260206004820152602960248201527f45524331393637557067726164653a20756e737570706f727465642070726f7860448201527f6961626c655555494400000000000000000000000000000000000000000000006064820152608401610bac565b50610e8b838383613eba565b6002603354141561361b5760405162461bcd60e51b815260206004820152601f60248201527f5265656e7472616e637947756172643a207265656e7472616e742063616c6c006044820152606401610bac565b6002603355565b815160609060008167ffffffffffffffff811115613642576136426145aa565b60405190808252806020026020018201604052801561366b578160200160208202803683370190505b5090506000805b838110156136e65761369d86888381518110613690576136906150f5565b6020026020010151613ee5565b156136d45760018382815181106136b6576136b66150f5565b91151560209283029190910190910152816136d08161518f565b9250505b806136de8161518f565b915050613672565b5060008167ffffffffffffffff811115613702576137026145aa565b60405190808252806020026020018201604052801561372b578160200160208202803683370190505b5090506000805b858110156137b05784818151811061374c5761374c6150f5565b60200260200101511561379e5788818151811061376b5761376b6150f5565b6020026020010151838381518110613785576137856150f5565b60209081029190910101528161379a8161518f565b9250505b806137a88161518f565b915050613732565b5090979650505050505050565b600082815260d16020908152604091829020805483518184028101840190945280845261381d939283018282801561231b57602002820191906000526020600020908154815260200190600101908083116123075750505050508261387a565b600083815260d160209081526040909120825161384093919291909101906144d7565b507f926bdaffb66b17607427b94e3524f536690b435ab89ee7178c6fef859c17f5be8260026040516127159291906153b0565b6001603355565b815160609060008167ffffffffffffffff81111561389a5761389a6145aa565b6040519080825280602002602001820160405280156138c3578160200160208202803683370190505b5090506000805b838110156139435760008782815181106138e6576138e66150f5565b602002602001015190506138fa8782613ee5565b613930576001848381518110613912576139126150f5565b911515602092830291909101909101528261392c8161518f565b9350505b508061393b8161518f565b9150506138ca565b5060008167ffffffffffffffff81111561395f5761395f6145aa565b604051908082528060200260200182016040528015613988578160200160208202803683370190505b5090506000805b858110156137b0578481815181106139a9576139a96150f5565b6020026020010151156139fb578881815181106139c8576139c86150f5565b60200260200101518383815181106139e2576139e26150f5565b6020908102919091010152816139f78161518f565b9250505b80613a058161518f565b91505061398f565b613a178151613c5a565b3414613a655760405162461bcd60e51b815260206004820152601260248201527f77726f6e672066656520737570706c69656400000000000000000000000000006044820152606401610bac565b60c954604080517f3c0c456600000000000000000000000000000000000000000000000000000000815290516000926001600160a01b031691633c0c45669160048083019260209291908290030181865afa158015613ac8573d6000803e3d6000fd5b505050506040513d601f19601f82011682018060405250810190613aec91906153e2565b905060005b8251811015610e8b57613b1d838281518110613b0f57613b0f6150f5565b602002602001015183613efb565b613b268161518f565b9050613af1565b600082815260d160209081526040918290208054835181840281018401909452808452613b8f9392830182828015613b8457602002820191906000526020600020905b815481526020019060010190808311613b70575b50505050508261417c565b600083815260d1602090815260409091208251613bb293919291909101906144d7565b507f926bdaffb66b17607427b94e3524f536690b435ab89ee7178c6fef859c17f5be8260006040516127159291906153b0565b600054610100900460ff16613c505760405162461bcd60e51b815260206004820152602b60248201527f496e697469616c697a61626c653a20636f6e7472616374206973206e6f74206960448201526a6e697469616c697a696e6760a81b6064820152608401610bac565b613c58614292565b565b6000808215801590613c6e5750600060cc54115b1561090a5760cc5461099790846153ff565b6000613cc68686868080601f0160208091040260200160405190810160405280939291908181526020018383808284376000920191909152508892508791506108a29050565b90506040518060a0016040528088815260200187815260200186868080601f01602080910402602001604051908101604052809392919081815260200183838082843760009201829052509385525050506001600160a01b0380871660208085019190915290861660409384015284825260d18152919020825180519192613d53928492909101906144d7565b50602082810151600183015560408301518051613d769260028501920190614522565b50606082015160038201805473ffffffffffffffffffffffffffffffffffffffff199081166001600160a01b03938416179091556080909301516004909201805490931691161790556040518181527f68ebebf651507af1acff160fd4e8f900a0b89fe3224f86b8306a3b857cd7542e90602001611a7e565b6001600160a01b0381163b613e6c5760405162461bcd60e51b815260206004820152602d60248201527f455243313936373a206e657720696d706c656d656e746174696f6e206973206e60448201527f6f74206120636f6e7472616374000000000000000000000000000000000000006064820152608401610bac565b7f360894a13ba1a3210667c828492db98dca3e2076cc3735a920a3ca505d382bbc805473ffffffffffffffffffffffffffffffffffffffff19166001600160a01b0392909216919091179055565b613ec3836142fd565b600082511180613ed05750805b15610e8b57613edf838361433d565b50505050565b600080613ef28484614362565b95945050505050565b60ca546040517f6352211e000000000000000000000000000000000000000000000000000000008152600481018490526000916001600160a01b031690636352211e90602401602060405180830381865afa158015613f5e573d6000803e3d6000fd5b505050506040513d601f19601f82011682018060405250810190613f8291906153e2565b60ca546040517f4b3d267f000000000000000000000000000000000000000000000000000000008152600481018690529192506000916001600160a01b0390911690634b3d267f90602401600060405180830381865afa158015613fea573d6000803e3d6000fd5b505050506040513d6000823e601f3d908101601f19168201604052614012919081019061541e565b90506000606460cd543461402691906153ff565b61403091906154d3565b90506000606460ce543461404491906153ff565b61404e91906154d3565b9050600061405c8284615398565b614066903461507b565b6001600160a01b038716600090815260cf602052604090205490915061408d908490615398565b6001600160a01b03808816600090815260cf6020526040808220939093558651909116815220546140bf908390615398565b84516001600160a01b03908116600090815260cf60205260409020919091558581169087161415614136576020808501516001600160a01b0316600090815260cf9091526040902054614113908290615398565b6020808601516001600160a01b0316600090815260cf9091526040902055611a87565b6001600160a01b038516600090815260cf602052604090205461415a908290615398565b6001600160a01b038616600090815260cf602052604090205550505050505050565b815181516060919060006141908284615398565b67ffffffffffffffff8111156141a8576141a86145aa565b6040519080825280602002602001820160405280156141d1578160200160208202803683370190505b50905060005b83811015614228578681815181106141f1576141f16150f5565b602002602001015182828151811061420b5761420b6150f5565b6020908102919091010152806142208161518f565b9150506141d7565b5060005b8281101561428857858181518110614246576142466150f5565b602002602001015182828661425b9190615398565b8151811061426b5761426b6150f5565b6020908102919091010152806142808161518f565b91505061422c565b5095945050505050565b600054610100900460ff166138735760405162461bcd60e51b815260206004820152602b60248201527f496e697469616c697a61626c653a20636f6e7472616374206973206e6f74206960448201526a6e697469616c697a696e6760a81b6064820152608401610bac565b61430681613def565b6040516001600160a01b038216907fbc7cd75a20ee27fd9adebab32041f755214dbc6bffa90cc0225b39da2e5c2d3b90600090a250565b60606109978383604051806060016040528060278152602001615512602791396143c4565b81516000908190815b818110156143b35784868281518110614386576143866150f5565b602002602001015114156143a1579250600191506143bd9050565b806143ab8161518f565b91505061436b565b5060008092509250505b9250929050565b6060600080856001600160a01b0316856040516143e191906154f5565b600060405180830381855af49150503d806000811461441c576040519150601f19603f3d011682016040523d82523d6000602084013e614421565b606091505b50915091506144328683838761443c565b9695505050505050565b606083156144a85782516144a1576001600160a01b0385163b6144a15760405162461bcd60e51b815260206004820152601d60248201527f416464726573733a2063616c6c20746f206e6f6e2d636f6e74726163740000006044820152606401610bac565b50816130f7565b6130f783838151156144bd5781518083602001fd5b8060405162461bcd60e51b8152600401610bac9190614f04565b828054828255906000526020600020908101928215614512579160200282015b828111156145125782518255916020019190600101906144f7565b5061451e929150614595565b5090565b82805461452e90615216565b90600052602060002090601f0160209004810192826145505760008555614512565b82601f1061456957805160ff1916838001178555614512565b8280016001018555821561451257918201828111156145125782518255916020019190600101906144f7565b5b8082111561451e5760008155600101614596565b634e487b7160e01b600052604160045260246000fd5b6040516060810167ffffffffffffffff811182821017156145e3576145e36145aa565b60405290565b60405160a0810167ffffffffffffffff811182821017156145e3576145e36145aa565b604051601f8201601f1916810167ffffffffffffffff81118282101715614635576146356145aa565b604052919050565b600067ffffffffffffffff821115614657576146576145aa565b50601f01601f191660200190565b60006146786146738461463d565b61460c565b905082815283838301111561468c57600080fd5b828260208301376000602084830101529392505050565b600082601f8301126146b457600080fd5b61099783833560208501614665565b6001600160a01b0381168114610ca057600080fd5b80356146e3816146c3565b919050565b600080600080608085870312156146fe57600080fd5b84359350602085013567ffffffffffffffff81111561471c57600080fd5b614728878288016146a3565b9350506040850135614739816146c3565b91506060850135614749816146c3565b939692955090935050565b60006020828403121561476657600080fd5b8135610997816146c3565b600067ffffffffffffffff82111561478b5761478b6145aa565b5060051b60200190565b6000606082840312156147a757600080fd5b6147af6145c0565b9050813567ffffffffffffffff808211156147c957600080fd5b6147d5858386016146a3565b83526020915081840135818111156147ec57600080fd5b8401601f810186136147fd57600080fd5b803561480b61467382614771565b81815260059190911b8201840190848101908883111561482a57600080fd5b8584015b83811015614862578035868111156148465760008081fd5b6148548b89838901016146a3565b84525091860191860161482e565b50808688015250505050604084013591508082111561488057600080fd5b5061488d848285016146a3565b60408301525092915050565b6000806000606084860312156148ae57600080fd5b833567ffffffffffffffff8111156148c557600080fd5b6148d186828701614795565b93505060208401356148e2816146c3565b915060408401356148f2816146c3565b809150509250925092565b60006020828403121561490f57600080fd5b5035919050565b60006060828403121561492857600080fd5b50919050565b8035600381106146e357600080fd5b6000806000806080858703121561495357600080fd5b843567ffffffffffffffff81111561496a57600080fd5b61497687828801614916565b9450506020850135614987816146c3565b92506040850135614997816146c3565b91506149a56060860161492e565b905092959194509250565b600082601f8301126149c157600080fd5b813560206149d161467383614771565b82815260059290921b840181019181810190868411156149f057600080fd5b8286015b84811015614a0b57803583529183019183016149f4565b509695505050505050565b600080600060608486031215614a2b57600080fd5b83359250602084013567ffffffffffffffff811115614a4957600080fd5b614a55868287016149b0565b92505060408401356148f2816146c3565b60008060408385031215614a7957600080fd5b8235614a84816146c3565b9150602083013567ffffffffffffffff811115614aa057600080fd5b8301601f81018513614ab157600080fd5b614ac085823560208401614665565b9150509250929050565b60008083601f840112614adc57600080fd5b50813567ffffffffffffffff811115614af457600080fd5b6020830191508360208285010111156143bd57600080fd5b600080600080600080600060c0888a031215614b2757600080fd5b873567ffffffffffffffff80821115614b3f57600080fd5b614b4b8b838c016149b0565b985060208a0135975060408a0135915080821115614b6857600080fd5b50614b758a828b01614aca565b9096509450506060880135614b89816146c3565b92506080880135614b99816146c3565b9150614ba760a0890161492e565b905092959891949750929550565b600080600060408486031215614bca57600080fd5b833567ffffffffffffffff811115614be157600080fd5b614bed86828701614aca565b90945092505060208401356148f2816146c3565b600080600060608486031215614c1657600080fd5b833567ffffffffffffffff811115614c2d57600080fd5b6148d186828701614916565b60008060008060008060a08789031215614c5257600080fd5b863567ffffffffffffffff80821115614c6a57600080fd5b614c768a838b016149b0565b9750602089013596506040890135915080821115614c9357600080fd5b50614ca089828a01614aca565b9095509350506060870135614cb4816146c3565b91506080870135614cc4816146c3565b809150509295509295509295565b60005b83811015614ced578181015183820152602001614cd5565b83811115613edf5750506000910152565b60008151808452614d16816020860160208601614cd2565b601f01601f19169290920160200192915050565b60a0808252865190820181905260009060209060c0840190828a01845b82811015614d6357815184529284019290840190600101614d47565b50505087828501528381036040850152614d7d8188614cfe565b925050506001600160a01b0380851660608401528084166080840152509695505050505050565b60008060008060008060c08789031215614dbd57600080fd5b8635614dc8816146c3565b95506020870135614dd8816146c3565b94506040870135614de8816146c3565b959894975094956060810135955060808101359460a0909101359350915050565b848152608060208201526000614e226080830186614cfe565b6001600160a01b039485166040840152929093166060909101529392505050565b60008060008060008060a08789031215614e5c57600080fd5b863567ffffffffffffffff80821115614e7457600080fd5b818901915089601f830112614e8857600080fd5b813581811115614e9757600080fd5b8a60208260051b8501011115614eac57600080fd5b60209283019850965090880135945060408801359080821115614ece57600080fd5b50614edb89828a016146a3565b935050614eea606088016146d8565b9150614ef8608088016146d8565b90509295509295509295565b6020815260006109976020830184614cfe565b600080600060608486031215614f2c57600080fd5b83359250602084013567ffffffffffffffff811115614f4a57600080fd5b614f56868287016149b0565b925050614f656040850161492e565b90509250925092565b60008060408385031215614f8157600080fd5b50508035926020909101359150565b600080600080600060808688031215614fa857600080fd5b853567ffffffffffffffff80821115614fc057600080fd5b614fcc89838a016149b0565b9650602088013595506040880135915080821115614fe957600080fd5b50614ff688828901614aca565b909450925050606086013561500a816146c3565b809150509295509295909350565b84815260008451615030816020850160208901614cd2565b6bffffffffffffffffffffffff19606095861b81169190930160208101919091529290931b1660348201526048019392505050565b634e487b7160e01b600052601160045260246000fd5b60008282101561508d5761508d615065565b500390565b6000602082840312156150a457600080fd5b5051919050565b6000808335601e198436030181126150c257600080fd5b83018035915067ffffffffffffffff8211156150dd57600080fd5b6020019150600581901b36038213156143bd57600080fd5b634e487b7160e01b600052603260045260246000fd5b6000808335601e1984360301811261512257600080fd5b83018035915067ffffffffffffffff82111561513d57600080fd5b6020019150368190038213156143bd57600080fd5b81835281816020850137506000828201602090810191909152601f909101601f19169091010190565b602081526000610994602083018486615152565b60006000198214156151a3576151a3615065565b5060010190565b600061090a3683614795565b805180151581146146e357600080fd5b6000602082840312156151d857600080fd5b610997826151b6565b6060815260006151f5606083018688615152565b6001600160a01b039485166020840152929093166040909101529392505050565b600181811c9082168061522a57607f821691505b6020821081141561492857634e487b7160e01b600052602260045260246000fd5b600082601f83011261525c57600080fd5b815161526a6146738261463d565b81815284602083860101111561527f57600080fd5b6130f7826020830160208701614cd2565b80516146e3816146c3565b600080600080600060a086880312156152b357600080fd5b855167ffffffffffffffff808211156152cb57600080fd5b818801915088601f8301126152df57600080fd5b815160206152ef61467383614771565b82815260059290921b8401810191818101908c84111561530e57600080fd5b948201945b8386101561532c57855182529482019490820190615313565b918b015160408c0151929a50985090935050508082111561534c57600080fd5b506153598882890161524b565b93505061536860608701615290565b915061537660808701615290565b90509295509295909350565b634e487b7160e01b600052602160045260246000fd5b600082198211156153ab576153ab615065565b500190565b82815260408101600383106153d557634e487b7160e01b600052602160045260246000fd5b8260208301529392505050565b6000602082840312156153f457600080fd5b8151610997816146c3565b600081600019048311821515161561541957615419615065565b500290565b60006020828403121561543057600080fd5b815167ffffffffffffffff8082111561544857600080fd5b9083019060a0828603121561545c57600080fd5b6154646145e9565b825161546f816146c3565b8152602083015161547f816146c3565b602082015260408301518281111561549657600080fd5b6154a28782860161524b565b6040830152506154b4606084016151b6565b60608201526154c5608084016151b6565b608082015295945050505050565b6000826154f057634e487b7160e01b600052601260045260246000fd5b500490565b60008251615507818460208701614cd2565b919091019291505056fe416464726573733a206c6f772d6c6576656c2064656c65676174652063616c6c206661696c6564a2646970667358221220b938bb01f95b5548860ce2066d7206f1fb1e31b0ca597ef40767848b0d467b5864736f6c634300080c0033",
  "devdoc": {
    "kind": "dev",
    "methods": {
      "appendTags(uint256,uint256[],address)": {
        "params": {
          "_tagIds": "Array of CTAG token Ids.",
          "_tagger": "Address of that calls Relayer to tag a targetURI.",
          "_taggingRecordId": "tagging record being updated."
        }
      },
      "applyTagsWithCompositeKey(uint256[],uint256,string,address,address)": {
        "params": {
          "_recordType": "Arbitrary identifier for type of tagging record.",
          "_relayer": "Address of Relayer contract that facilitated tagging record.",
          "_tagIds": "Array of CTAG token Ids.",
          "_tagger": "Address of that calls Relayer to create tagging record.",
          "_targetId": "targetId of the URI being tagged. See ETSTarget.sol"
        }
      },
      "applyTagsWithRawInput((string,string[],string),address,address)": {
        "params": {
          "_rawInput": "Raw client input data formed as TaggingRecordRawInput struct.",
          "_relayer": "Address of Relayer contract that facilitated tagging record",
          "_tagger": "Address that calls Relayer to tag a targetURI."
        }
      },
      "computeTaggingFee(uint256,uint256[],uint8)": {
        "params": {
          "_action": "Integer representing action to be performed according to enum TaggingAction.",
          "_tagIds": "Array of CTAG token Ids.",
          "_taggingRecordId": "Id of tagging record."
        },
        "returns": {
          "fee": "Calculated tagging fee in ETH/Matic",
          "tagCount": "Number of new tags being added to tagging record."
        }
      },
      "computeTaggingFeeFromCompositeKey(uint256[],uint256,string,address,address,uint8)": {
        "params": {
          "_action": "Integer representing action to be performed according to enum TaggingAction.",
          "_relayer": "Address of tagging record Relayer contract.",
          "_tagIds": "Array of CTAG token Ids.",
          "_tagger": "Address interacting with Relayer to tag content (\"Tagger\")."
        },
        "returns": {
          "fee": "Calculated tagging fee in ETH/Matic",
          "tagCount": "Number of new tags being added to tagging record."
        }
      },
      "computeTaggingFeeFromRawInput((string,string[],string),address,address,uint8)": {
        "params": {
          "_action": "Integer representing action to be performed according to enum TaggingAction.",
          "_rawInput": "Raw client input data formed as TaggingRecordRawInput struct.",
          "_relayer": "Address of tagging record Relayer contract.",
          "_tagger": "Address interacting with Relayer to tag content (\"Tagger\")."
        },
        "returns": {
          "fee": "Calculated tagging fee in ETH/Matic",
          "tagCount": "Number of new tags being added to tagging record."
        }
      },
      "computeTaggingRecordIdFromCompositeKey(uint256,string,address,address)": {
        "params": {
          "_recordType": "Arbitrary identifier for type of tagging record.",
          "_relayer": "Address of tagging record Relayer contract.",
          "_tagger": "Address interacting with Relayer to tag content (\"Tagger\").",
          "_targetId": "Id of target being tagged (see ETSTarget.sol)."
        },
        "returns": {
          "taggingRecordId": "Unique identifier for a tagging record."
        }
      },
      "computeTaggingRecordIdFromRawInput((string,string[],string),address,address)": {
        "params": {
          "_rawInput": "Raw client input data formed as TaggingRecordRawInput struct.",
          "_relayer": "Address of tagging record Relayer contract.",
          "_tagger": "Address interacting with Relayer to tag content (\"Tagger\")."
        },
        "returns": {
          "taggingRecordId": "Unique identifier for a tagging record."
        }
      },
      "constructor": {
        "custom:oz-upgrades-unsafe-allow": "constructor"
      },
      "createTag(string,address)": {
        "params": {
          "_creator": "Address credited with creating CTAG.",
          "_tag": "Tag string."
        },
        "returns": {
          "_tokenId": "Id of CTAG token."
        }
      },
      "createTaggingRecord(uint256[],uint256,string,address)": {
        "params": {
          "_recordType": "Arbitrary identifier for type of tagging record.",
          "_tagIds": "Array of CTAG token Ids.",
          "_tagger": "Address calling Relayer contract to create tagging record.",
          "_targetId": "targetId of the URI being tagged. See ETSTarget.sol"
        }
      },
      "drawDown(address)": {
        "params": {
          "_account": "Address of account being drawn down and which will receive the funds."
        }
      },
      "getOrCreateTagId(string,address)": {
        "params": {
          "_creator": "Address credited with creating CTAG.",
          "_tag": "Tag string."
        },
        "returns": {
          "tokenId": "Id of CTAG token."
        }
      },
      "getTaggingRecordFromCompositeKey(uint256,string,address,address)": {
        "params": {
          "_recordType": "Arbitrary identifier for type of tagging record.",
          "_relayer": "Address of Relayer contract that wrote tagging record.",
          "_tagger": "Address of wallet that initiated tagging record via relayer.",
          "_targetId": "Id of target being tagged."
        },
        "returns": {
          "recordType": "Type of tagging record.",
          "relayer": "Address of tagging record Relayer contract.",
          "tagIds": "CTAG token ids.",
          "tagger": "Address interacting with Relayer to tag content (\"Tagger\").",
          "targetId": "TargetId that was tagged."
        }
      },
      "getTaggingRecordFromId(uint256)": {
        "params": {
          "_id": "taggingRecordId."
        },
        "returns": {
          "recordType": "Type of tagging record.",
          "relayer": "Address of tagging record Relayer contract.",
          "tagIds": "CTAG token ids.",
          "tagger": "Address interacting with Relayer to tag content (\"Tagger\").",
          "targetId": "TargetId that was tagged."
        }
      },
      "getTaggingRecordFromRawInput((string,string[],string),address,address)": {
        "params": {
          "_rawInput": "Raw client input data formed as TaggingRecordRawInput struct.",
          "_relayer": "Address of tagging record Relayer contract.",
          "_tagger": "Address interacting with Relayer to tag content (\"Tagger\")."
        },
        "returns": {
          "recordType": "Type of tagging record.",
          "relayer": "Address of tagging record Relayer contract.",
          "tagIds": "CTAG token ids.",
          "tagger": "Address interacting with Relayer to tag content (\"Tagger\").",
          "targetId": "TargetId that was tagged."
        }
      },
      "proxiableUUID()": {
        "details": "Implementation of the ERC1822 {proxiableUUID} function. This returns the storage slot used by the implementation. It is used to validate the implementation's compatibility when performing an upgrade. IMPORTANT: A proxy pointing at a proxiable contract should not be considered proxiable itself, because this risks bricking a proxy that upgrades to it, by delegating to itself until out of gas. Thus it is critical that this function revert if invoked through a proxy. This is guaranteed by the `notDelegated` modifier."
      },
      "removeTags(uint256,uint256[],address)": {
        "params": {
          "_tagIds": "Array of CTAG token Ids.",
          "_tagger": "Address of that calls Relayer to tag a targetURI.",
          "_taggingRecordId": "tagging record being updated."
        }
      },
      "removeTagsWithCompositeKey(uint256[],uint256,string,address,address)": {
        "params": {
          "_recordType": "Arbitrary identifier for type of tagging record.",
          "_relayer": "Address of Relayer contract that facilitated tagging record.",
          "_tagIds": "Array of CTAG token Ids.",
          "_tagger": "Address of that calls Relayer to create tagging record.",
          "_targetId": "targetId of the URI being tagged. See ETSTarget.sol"
        }
      },
      "removeTagsWithRawInput((string,string[],string),address,address)": {
        "params": {
          "_rawInput": "Raw client input data formed as TaggingRecordRawInput struct.",
          "_relayer": "Address of Relayer contract that facilitated tagging record.",
          "_tagger": "Address that calls Relayer to tag a targetURI."
        }
      },
      "replaceTags(uint256,uint256[],address)": {
        "params": {
          "_tagIds": "Array of CTAG token Ids.",
          "_tagger": "Address of that calls Relayer to tag a targetURI.",
          "_taggingRecordId": "tagging record being updated."
        }
      },
      "replaceTagsWithCompositeKey(uint256[],uint256,string,address,address)": {
        "params": {
          "_recordType": "Arbitrary identifier for type of tagging record.",
          "_relayer": "Address of Relayer contract that facilitated tagging record.",
          "_tagIds": "Array of CTAG token Ids.",
          "_tagger": "Address of that calls Relayer to create tagging record.",
          "_targetId": "targetId of the URI being tagged. See ETSTarget.sol"
        }
      },
      "replaceTagsWithRawInput((string,string[],string),address,address)": {
        "params": {
          "_rawInput": "Raw client input data formed as TaggingRecordRawInput struct.",
          "_relayer": "Address of Relayer contract that facilitated tagging record.",
          "_tagger": "Address that calls Relayer to tag a targetURI."
        }
      },
      "setAccessControls(address)": {
        "params": {
          "_accessControls": "Address of ETSAccessControls contract."
        }
      },
      "setPercentages(uint256,uint256)": {
        "params": {
          "_platformPercentage": "percentage for platform.",
          "_relayerPercentage": "percentage for relayer."
        }
      },
      "setTaggingFee(uint256)": {
        "params": {
          "_fee": "Value of the fee in WEI."
        }
      },
      "taggingRecordExists(uint256)": {
        "params": {
          "_taggingRecordId": "taggingRecordId."
        },
        "returns": {
          "_0": "boolean; true for exists, false for not."
        }
      },
      "taggingRecordExistsByCompositeKey(uint256,string,address,address)": {
        "params": {
          "_recordType": "Arbitrary identifier for type of tagging record.",
          "_relayer": "Address of Relayer contract that wrote tagging record.",
          "_tagger": "Address of wallet that initiated tagging record via relayer.",
          "_targetId": "Id of target being tagged."
        },
        "returns": {
          "_0": "boolean; true for exists, false for not."
        }
      },
      "taggingRecordExistsByRawInput((string,string[],string),address,address)": {
        "params": {
          "_rawInput": "Raw client input data formed as TaggingRecordRawInput struct.",
          "_relayer": "Address of tagging record Relayer contract.",
          "_tagger": "Address interacting with Relayer to tag content (\"Tagger\")."
        },
        "returns": {
          "_0": "boolean; true for exists, false for not."
        }
      },
      "totalDue(address)": {
        "params": {
          "_account": "Address of the account being queried."
        },
        "returns": {
          "_due": "Amount of WEI in MATIC due to account."
        }
      },
      "upgradeTo(address)": {
        "custom:oz-upgrades-unsafe-allow-reachable": "delegatecall",
        "details": "Upgrade the implementation of the proxy to `newImplementation`. Calls {_authorizeUpgrade}. Emits an {Upgraded} event."
      },
      "upgradeToAndCall(address,bytes)": {
        "custom:oz-upgrades-unsafe-allow-reachable": "delegatecall",
        "details": "Upgrade the implementation of the proxy to `newImplementation`, and subsequently execute the function call encoded in `data`. Calls {_authorizeUpgrade}. Emits an {Upgraded} event."
      }
    },
    "stateVariables": {
      "accrued": {
        "details": "Map for holding amount accrued to participant address wallets."
      },
      "etsAccessControls": {
        "details": "ETS access controls contract."
      },
      "etsTarget": {
        "details": "ETS Targets contract."
      },
      "etsToken": {
        "details": "CTAG erc-721 token contract."
      },
      "paid": {
        "details": "Map for holding lifetime amount drawn down from accrued by participants."
      },
      "platformPercentage": {
        "details": "Percentage of tagging fee allocated to ETS."
      },
      "relayerPercentage": {
        "details": "Percentage of tagging fee allocated to Relayer."
      },
      "taggingFee": {
        "details": "Fee in MATIC Collected by ETS for tagging."
      },
      "taggingRecords": {
        "details": "Map of tagging id to tagging record."
      }
    },
    "version": 1
  },
  "userdoc": {
    "kind": "user",
    "methods": {
      "NAME()": {
        "notice": "Public constants"
      },
      "appendTags(uint256,uint256[],address)": {
        "notice": "Append one or more tags to a tagging record."
      },
      "applyTagsWithCompositeKey(uint256[],uint256,string,address,address)": {
        "notice": "Apply one or more tags to a targetId using using tagging record composite key. Records new ETS Tagging Record to the blockchain or appends tags if Tagging Record already exists. CTAGs and targetId are created if they don't exist. Caller must be Relayer contract."
      },
      "applyTagsWithRawInput((string,string[],string),address,address)": {
        "notice": "Apply one or more tags to a targetURI using tagging record raw client input data. Like it's sister function applyTagsWithCompositeKey, records new ETS Tagging Record or appends tags to an existing record if found to already exist. This function differs in that it creates new ETS target records and CTAG tokens for novel targetURIs and hastag strings respectively. This function can only be called by Relayer contracts. If this is a new tagging record, ETS will use msg.sender, if it's an existing tagging record, ETS will use _relayer parameter."
      },
      "computeTaggingFee(uint256,uint256[],uint8)": {
        "notice": "Compute tagging fee for CTAGs, tagging record id and desired action. If the global, service wide tagging fee is set (see ETS.taggingFee() & ETS.setTaggingFee()) ETS charges a per tag for all new tags applied to a tagging record. This applies to both new tagging records and modified tagging records. Computing the tagging fee involves checking to see if a tagging record exists and if so, given the desired action (append or replace) determining the number of new tags being added and multiplying by the ETS per tag fee."
      },
      "computeTaggingFeeFromCompositeKey(uint256[],uint256,string,address,address,uint8)": {
        "notice": "Compute tagging fee for CTAGs, tagging record composite key and desired action."
      },
      "computeTaggingFeeFromRawInput((string,string[],string),address,address,uint8)": {
        "notice": "Compute tagging fee for raw input and desired action."
      },
      "computeTaggingRecordIdFromCompositeKey(uint256,string,address,address)": {
        "notice": "Compute & return a taggingRecordId. Every TaggingRecord in ETS is mapped to by it's taggingRecordId. This Id is a composite key composed of targetId, recordType, relayer contract address and tagger address hashed and cast as a uint256."
      },
      "computeTaggingRecordIdFromRawInput((string,string[],string),address,address)": {
        "notice": "Compute a taggingRecordId from raw input."
      },
      "createTag(string,address)": {
        "notice": "Create CTAG token from tag string. Reverts if tag exists or is invalid. Only ETS Relayer contracts may call this function."
      },
      "createTaggingRecord(uint256[],uint256,string,address)": {
        "notice": "Create a new tagging record. Requirements:   - Caller must be relayer contract.   - CTAG(s) and TargetId must exist."
      },
      "drawDown(address)": {
        "notice": "Function for withdrawing funds from an accrual account. Can be called by the account owner or on behalf of the account. Does nothing when there is nothing due to the account."
      },
      "getOrCreateTagId(string,address)": {
        "notice": "Get or create CTAG token from tag string. Combo function that accepts a tag string and returns corresponding CTAG token Id if it exists, or if it doesn't exist, creates a new CTAG and then returns corresponding Id. Only ETS Relayer contracts may call this function."
      },
      "getTaggingRecordFromCompositeKey(uint256,string,address,address)": {
        "notice": "Retrieve a tagging record from composite key parts."
      },
      "getTaggingRecordFromId(uint256)": {
        "notice": "Retrieve a tagging record from Id."
      },
      "getTaggingRecordFromRawInput((string,string[],string),address,address)": {
        "notice": "Retrieve a tagging record from it's raw input."
      },
      "removeTags(uint256,uint256[],address)": {
        "notice": "Remove one or more tags from a tagging record."
      },
      "removeTagsWithCompositeKey(uint256[],uint256,string,address,address)": {
        "notice": "Remove one or more tags from a tagging record using composite key for record lookup."
      },
      "removeTagsWithRawInput((string,string[],string),address,address)": {
        "notice": "Remove one or more tags from a tagging record using raw data for record lookup."
      },
      "replaceTags(uint256,uint256[],address)": {
        "notice": "Replaces tags in tagging record. This function overwrites the tags in a tagging record with the supplied tags, only charging for the new tags in the replacement set."
      },
      "replaceTagsWithCompositeKey(uint256[],uint256,string,address,address)": {
        "notice": "Replace entire tag set in tagging record using composite key for record lookup. This function overwrites the tags in a tagging record with the supplied tags, only charging for the new tags in the replacement set."
      },
      "replaceTagsWithRawInput((string,string[],string),address,address)": {
        "notice": "Replace entire tag set in tagging record using raw data for record lookup. If supplied tag strings don't have CTAGs, new ones are minted."
      },
      "setAccessControls(address)": {
        "notice": "Sets ETSAccessControls on the ETSTarget contract so functions can be restricted to ETS platform only. Note Caller of this function must be deployer or pre-set as admin of new contract."
      },
      "setPercentages(uint256,uint256)": {
        "notice": "Admin functionality for updating the percentages."
      },
      "setTaggingFee(uint256)": {
        "notice": "Sets the fee required to tag an NFT asset."
      },
      "taggingRecordExists(uint256)": {
        "notice": "Check that a tagging record exsits by it's Id."
      },
      "taggingRecordExistsByCompositeKey(uint256,string,address,address)": {
        "notice": "Check that a tagging record exists by it's componsite key parts."
      },
      "taggingRecordExistsByRawInput((string,string[],string),address,address)": {
        "notice": "Check that a tagging record exists for given raw input."
      },
      "totalDue(address)": {
        "notice": "Function to check how much MATIC has been accrued by an address factoring in amount paid out."
      }
    },
    "version": 1
  },
  "storageLayout": {
    "storage": [
      {
        "astId": 915,
        "contract": "contracts/ETS.sol:ETS",
        "label": "_initialized",
        "offset": 0,
        "slot": "0",
        "type": "t_uint8"
      },
      {
        "astId": 918,
        "contract": "contracts/ETS.sol:ETS",
        "label": "_initializing",
        "offset": 1,
        "slot": "0",
        "type": "t_bool"
      },
      {
        "astId": 3526,
        "contract": "contracts/ETS.sol:ETS",
        "label": "__gap",
        "offset": 0,
        "slot": "1",
        "type": "t_array(t_uint256)50_storage"
      },
      {
        "astId": 1357,
        "contract": "contracts/ETS.sol:ETS",
        "label": "_status",
        "offset": 0,
        "slot": "51",
        "type": "t_uint256"
      },
      {
        "astId": 1426,
        "contract": "contracts/ETS.sol:ETS",
        "label": "__gap",
        "offset": 0,
        "slot": "52",
        "type": "t_array(t_uint256)49_storage"
      },
      {
        "astId": 897,
        "contract": "contracts/ETS.sol:ETS",
        "label": "__gap",
        "offset": 0,
        "slot": "101",
        "type": "t_array(t_uint256)50_storage"
      },
      {
        "astId": 1213,
        "contract": "contracts/ETS.sol:ETS",
        "label": "__gap",
        "offset": 0,
        "slot": "151",
        "type": "t_array(t_uint256)50_storage"
      },
      {
        "astId": 8783,
        "contract": "contracts/ETS.sol:ETS",
        "label": "etsAccessControls",
        "offset": 0,
        "slot": "201",
        "type": "t_contract(IETSAccessControls)14902"
      },
      {
        "astId": 8787,
        "contract": "contracts/ETS.sol:ETS",
        "label": "etsToken",
        "offset": 0,
        "slot": "202",
        "type": "t_contract(IETSToken)15465"
      },
      {
        "astId": 8791,
        "contract": "contracts/ETS.sol:ETS",
        "label": "etsTarget",
        "offset": 0,
        "slot": "203",
        "type": "t_contract(IETSTarget)15228"
      },
      {
        "astId": 8795,
        "contract": "contracts/ETS.sol:ETS",
        "label": "taggingFee",
        "offset": 0,
        "slot": "204",
        "type": "t_uint256"
      },
      {
        "astId": 8798,
        "contract": "contracts/ETS.sol:ETS",
        "label": "platformPercentage",
        "offset": 0,
        "slot": "205",
        "type": "t_uint256"
      },
      {
        "astId": 8801,
        "contract": "contracts/ETS.sol:ETS",
        "label": "relayerPercentage",
        "offset": 0,
        "slot": "206",
        "type": "t_uint256"
      },
      {
        "astId": 8806,
        "contract": "contracts/ETS.sol:ETS",
        "label": "accrued",
        "offset": 0,
        "slot": "207",
        "type": "t_mapping(t_address,t_uint256)"
      },
      {
        "astId": 8811,
        "contract": "contracts/ETS.sol:ETS",
        "label": "paid",
        "offset": 0,
        "slot": "208",
        "type": "t_mapping(t_address,t_uint256)"
      },
      {
        "astId": 8817,
        "contract": "contracts/ETS.sol:ETS",
        "label": "taggingRecords",
        "offset": 0,
        "slot": "209",
        "type": "t_mapping(t_uint256,t_struct(TaggingRecord)14330_storage)"
      }
    ],
    "types": {
      "t_address": {
        "encoding": "inplace",
        "label": "address",
        "numberOfBytes": "20"
      },
      "t_array(t_uint256)49_storage": {
        "base": "t_uint256",
        "encoding": "inplace",
        "label": "uint256[49]",
        "numberOfBytes": "1568"
      },
      "t_array(t_uint256)50_storage": {
        "base": "t_uint256",
        "encoding": "inplace",
        "label": "uint256[50]",
        "numberOfBytes": "1600"
      },
      "t_array(t_uint256)dyn_storage": {
        "base": "t_uint256",
        "encoding": "dynamic_array",
        "label": "uint256[]",
        "numberOfBytes": "32"
      },
      "t_bool": {
        "encoding": "inplace",
        "label": "bool",
        "numberOfBytes": "1"
      },
      "t_contract(IETSAccessControls)14902": {
        "encoding": "inplace",
        "label": "contract IETSAccessControls",
        "numberOfBytes": "20"
      },
      "t_contract(IETSTarget)15228": {
        "encoding": "inplace",
        "label": "contract IETSTarget",
        "numberOfBytes": "20"
      },
      "t_contract(IETSToken)15465": {
        "encoding": "inplace",
        "label": "contract IETSToken",
        "numberOfBytes": "20"
      },
      "t_mapping(t_address,t_uint256)": {
        "encoding": "mapping",
        "key": "t_address",
        "label": "mapping(address => uint256)",
        "numberOfBytes": "32",
        "value": "t_uint256"
      },
      "t_mapping(t_uint256,t_struct(TaggingRecord)14330_storage)": {
        "encoding": "mapping",
        "key": "t_uint256",
        "label": "mapping(uint256 => struct IETS.TaggingRecord)",
        "numberOfBytes": "32",
        "value": "t_struct(TaggingRecord)14330_storage"
      },
      "t_string_storage": {
        "encoding": "bytes",
        "label": "string",
        "numberOfBytes": "32"
      },
      "t_struct(TaggingRecord)14330_storage": {
        "encoding": "inplace",
        "label": "struct IETS.TaggingRecord",
        "members": [
          {
            "astId": 14321,
            "contract": "contracts/ETS.sol:ETS",
            "label": "tagIds",
            "offset": 0,
            "slot": "0",
            "type": "t_array(t_uint256)dyn_storage"
          },
          {
            "astId": 14323,
            "contract": "contracts/ETS.sol:ETS",
            "label": "targetId",
            "offset": 0,
            "slot": "1",
            "type": "t_uint256"
          },
          {
            "astId": 14325,
            "contract": "contracts/ETS.sol:ETS",
            "label": "recordType",
            "offset": 0,
            "slot": "2",
            "type": "t_string_storage"
          },
          {
            "astId": 14327,
            "contract": "contracts/ETS.sol:ETS",
            "label": "relayer",
            "offset": 0,
            "slot": "3",
            "type": "t_address"
          },
          {
            "astId": 14329,
            "contract": "contracts/ETS.sol:ETS",
            "label": "tagger",
            "offset": 0,
            "slot": "4",
            "type": "t_address"
          }
        ],
        "numberOfBytes": "160"
      },
      "t_uint256": {
        "encoding": "inplace",
        "label": "uint256",
        "numberOfBytes": "32"
      },
      "t_uint8": {
        "encoding": "inplace",
        "label": "uint8",
        "numberOfBytes": "1"
      }
    }
  }
}