{
  "address": "0x428fcc3Ac338d8a691eAD046DC9B83B042AEF636",
  "abi": [
    {
      "inputs": [],
      "stateMutability": "nonpayable",
      "type": "constructor"
    },
    {
      "anonymous": false,
      "inputs": [
        {
          "indexed": false,
          "internalType": "address",
          "name": "etsAccessControls",
          "type": "address"
        }
      ],
      "name": "AccessControlsSet",
      "type": "event"
    },
    {
      "anonymous": false,
      "inputs": [
        {
          "indexed": false,
          "internalType": "address",
          "name": "previousAdmin",
          "type": "address"
        },
        {
          "indexed": false,
          "internalType": "address",
          "name": "newAdmin",
          "type": "address"
        }
      ],
      "name": "AdminChanged",
      "type": "event"
    },
    {
      "anonymous": false,
      "inputs": [
        {
          "indexed": true,
          "internalType": "address",
          "name": "owner",
          "type": "address"
        },
        {
          "indexed": true,
          "internalType": "address",
          "name": "approved",
          "type": "address"
        },
        {
          "indexed": true,
          "internalType": "uint256",
          "name": "tokenId",
          "type": "uint256"
        }
      ],
      "name": "Approval",
      "type": "event"
    },
    {
      "anonymous": false,
      "inputs": [
        {
          "indexed": true,
          "internalType": "address",
          "name": "owner",
          "type": "address"
        },
        {
          "indexed": true,
          "internalType": "address",
          "name": "operator",
          "type": "address"
        },
        {
          "indexed": false,
          "internalType": "bool",
          "name": "approved",
          "type": "bool"
        }
      ],
      "name": "ApprovalForAll",
      "type": "event"
    },
    {
      "anonymous": false,
      "inputs": [
        {
          "indexed": true,
          "internalType": "address",
          "name": "beacon",
          "type": "address"
        }
      ],
      "name": "BeaconUpgraded",
      "type": "event"
    },
    {
      "anonymous": false,
      "inputs": [
        {
          "indexed": false,
          "internalType": "address",
          "name": "ets",
          "type": "address"
        }
      ],
      "name": "ETSCoreSet",
      "type": "event"
    },
    {
      "anonymous": false,
      "inputs": [
        {
          "indexed": false,
          "internalType": "uint8",
          "name": "version",
          "type": "uint8"
        }
      ],
      "name": "Initialized",
      "type": "event"
    },
    {
      "anonymous": false,
      "inputs": [
        {
          "indexed": false,
          "internalType": "uint256",
          "name": "termLength",
          "type": "uint256"
        }
      ],
      "name": "OwnershipTermLengthSet",
      "type": "event"
    },
    {
      "anonymous": false,
      "inputs": [
        {
          "indexed": false,
          "internalType": "address",
          "name": "account",
          "type": "address"
        }
      ],
      "name": "Paused",
      "type": "event"
    },
    {
      "anonymous": false,
      "inputs": [
        {
          "indexed": false,
          "internalType": "uint256",
          "name": "tagId",
          "type": "uint256"
        },
        {
          "indexed": false,
          "internalType": "bool",
          "name": "isPremium",
          "type": "bool"
        }
      ],
      "name": "PremiumFlagSet",
      "type": "event"
    },
    {
      "anonymous": false,
      "inputs": [
        {
          "indexed": false,
          "internalType": "string",
          "name": "tag",
          "type": "string"
        },
        {
          "indexed": false,
          "internalType": "bool",
          "name": "isPremium",
          "type": "bool"
        }
      ],
      "name": "PremiumTagPreSet",
      "type": "event"
    },
    {
      "anonymous": false,
      "inputs": [
        {
          "indexed": false,
          "internalType": "uint256",
          "name": "tagId",
          "type": "uint256"
        },
        {
          "indexed": false,
          "internalType": "bool",
          "name": "isReserved",
          "type": "bool"
        }
      ],
      "name": "ReservedFlagSet",
      "type": "event"
    },
    {
      "anonymous": false,
      "inputs": [
        {
          "indexed": false,
          "internalType": "uint256",
          "name": "maxStringLength",
          "type": "uint256"
        }
      ],
      "name": "TagMaxStringLengthSet",
      "type": "event"
    },
    {
      "anonymous": false,
      "inputs": [
        {
          "indexed": false,
          "internalType": "uint256",
          "name": "minStringLength",
          "type": "uint256"
        }
      ],
      "name": "TagMinStringLengthSet",
      "type": "event"
    },
    {
      "anonymous": false,
      "inputs": [
        {
          "indexed": true,
          "internalType": "uint256",
          "name": "tokenId",
          "type": "uint256"
        },
        {
          "indexed": true,
          "internalType": "address",
          "name": "caller",
          "type": "address"
        }
      ],
      "name": "TagRecycled",
      "type": "event"
    },
    {
      "anonymous": false,
      "inputs": [
        {
          "indexed": true,
          "internalType": "uint256",
          "name": "tokenId",
          "type": "uint256"
        },
        {
          "indexed": true,
          "internalType": "address",
          "name": "caller",
          "type": "address"
        }
      ],
      "name": "TagRenewed",
      "type": "event"
    },
    {
      "anonymous": false,
      "inputs": [
        {
          "indexed": true,
          "internalType": "address",
          "name": "from",
          "type": "address"
        },
        {
          "indexed": true,
          "internalType": "address",
          "name": "to",
          "type": "address"
        },
        {
          "indexed": true,
          "internalType": "uint256",
          "name": "tokenId",
          "type": "uint256"
        }
      ],
      "name": "Transfer",
      "type": "event"
    },
    {
      "anonymous": false,
      "inputs": [
        {
          "indexed": false,
          "internalType": "address",
          "name": "account",
          "type": "address"
        }
      ],
      "name": "Unpaused",
      "type": "event"
    },
    {
      "anonymous": false,
      "inputs": [
        {
          "indexed": true,
          "internalType": "address",
          "name": "implementation",
          "type": "address"
        }
      ],
      "name": "Upgraded",
      "type": "event"
    },
    {
      "inputs": [],
      "name": "NAME",
      "outputs": [
        {
          "internalType": "string",
          "name": "",
          "type": "string"
        }
      ],
      "stateMutability": "view",
      "type": "function"
    },
    {
      "inputs": [],
      "name": "VERSION",
      "outputs": [
        {
          "internalType": "string",
          "name": "",
          "type": "string"
        }
      ],
      "stateMutability": "view",
      "type": "function"
    },
    {
      "inputs": [
        {
          "internalType": "address",
          "name": "to",
          "type": "address"
        },
        {
          "internalType": "uint256",
          "name": "tokenId",
          "type": "uint256"
        }
      ],
      "name": "approve",
      "outputs": [],
      "stateMutability": "nonpayable",
      "type": "function"
    },
    {
      "inputs": [
        {
          "internalType": "address",
          "name": "owner",
          "type": "address"
        }
      ],
      "name": "balanceOf",
      "outputs": [
        {
          "internalType": "uint256",
          "name": "",
          "type": "uint256"
        }
      ],
      "stateMutability": "view",
      "type": "function"
    },
    {
      "inputs": [
        {
          "internalType": "uint256",
          "name": "tokenId",
          "type": "uint256"
        }
      ],
      "name": "burn",
      "outputs": [],
      "stateMutability": "nonpayable",
      "type": "function"
    },
    {
      "inputs": [
        {
          "internalType": "string",
          "name": "_tag",
          "type": "string"
        }
      ],
      "name": "computeTagId",
      "outputs": [
        {
          "internalType": "uint256",
          "name": "",
          "type": "uint256"
        }
      ],
      "stateMutability": "pure",
      "type": "function"
    },
    {
      "inputs": [
        {
          "internalType": "string",
          "name": "_tag",
          "type": "string"
        },
        {
          "internalType": "address payable",
          "name": "_relayer",
          "type": "address"
        },
        {
          "internalType": "address payable",
          "name": "_creator",
          "type": "address"
        }
      ],
      "name": "createTag",
      "outputs": [
        {
          "internalType": "uint256",
          "name": "_tokenId",
          "type": "uint256"
        }
      ],
      "stateMutability": "payable",
      "type": "function"
    },
    {
      "inputs": [],
      "name": "ets",
      "outputs": [
        {
          "internalType": "contract IETS",
          "name": "",
          "type": "address"
        }
      ],
      "stateMutability": "view",
      "type": "function"
    },
    {
      "inputs": [],
      "name": "etsAccessControls",
      "outputs": [
        {
          "internalType": "contract IETSAccessControls",
          "name": "",
          "type": "address"
        }
      ],
      "stateMutability": "view",
      "type": "function"
    },
    {
      "inputs": [
        {
          "internalType": "uint256",
          "name": "tokenId",
          "type": "uint256"
        }
      ],
      "name": "getApproved",
      "outputs": [
        {
          "internalType": "address",
          "name": "",
          "type": "address"
        }
      ],
      "stateMutability": "view",
      "type": "function"
    },
    {
      "inputs": [
        {
          "internalType": "uint256",
          "name": "_tokenId",
          "type": "uint256"
        }
      ],
      "name": "getCreatorAddress",
      "outputs": [
        {
          "internalType": "address",
          "name": "",
          "type": "address"
        }
      ],
      "stateMutability": "view",
      "type": "function"
    },
    {
      "inputs": [
        {
          "internalType": "uint256",
          "name": "_tokenId",
          "type": "uint256"
        }
      ],
      "name": "getLastRenewed",
      "outputs": [
        {
          "internalType": "uint256",
          "name": "",
          "type": "uint256"
        }
      ],
      "stateMutability": "view",
      "type": "function"
    },
    {
      "inputs": [
        {
          "internalType": "string",
          "name": "_tag",
          "type": "string"
        },
        {
          "internalType": "address payable",
          "name": "_relayer",
          "type": "address"
        },
        {
          "internalType": "address payable",
          "name": "_creator",
          "type": "address"
        }
      ],
      "name": "getOrCreateTag",
      "outputs": [
        {
          "components": [
            {
              "internalType": "address",
              "name": "relayer",
              "type": "address"
            },
            {
              "internalType": "address",
              "name": "creator",
              "type": "address"
            },
            {
              "internalType": "string",
              "name": "display",
              "type": "string"
            },
            {
              "internalType": "bool",
              "name": "premium",
              "type": "bool"
            },
            {
              "internalType": "bool",
              "name": "reserved",
              "type": "bool"
            }
          ],
          "internalType": "struct IETSToken.Tag",
          "name": "tag",
          "type": "tuple"
        }
      ],
      "stateMutability": "payable",
      "type": "function"
    },
    {
      "inputs": [
        {
          "internalType": "string",
          "name": "_tag",
          "type": "string"
        },
        {
          "internalType": "address payable",
          "name": "_relayer",
          "type": "address"
        },
        {
          "internalType": "address payable",
          "name": "_creator",
          "type": "address"
        }
      ],
      "name": "getOrCreateTagId",
      "outputs": [
        {
          "internalType": "uint256",
          "name": "tokenId",
          "type": "uint256"
        }
      ],
      "stateMutability": "payable",
      "type": "function"
    },
    {
      "inputs": [],
      "name": "getOwnershipTermLength",
      "outputs": [
        {
          "internalType": "uint256",
          "name": "",
          "type": "uint256"
        }
      ],
      "stateMutability": "view",
      "type": "function"
    },
    {
      "inputs": [],
      "name": "getPlatformAddress",
      "outputs": [
        {
          "internalType": "address payable",
          "name": "",
          "type": "address"
        }
      ],
      "stateMutability": "view",
      "type": "function"
    },
    {
      "inputs": [
        {
          "internalType": "uint256",
          "name": "_tokenId",
          "type": "uint256"
        }
      ],
      "name": "getTagById",
      "outputs": [
        {
          "components": [
            {
              "internalType": "address",
              "name": "relayer",
              "type": "address"
            },
            {
              "internalType": "address",
              "name": "creator",
              "type": "address"
            },
            {
              "internalType": "string",
              "name": "display",
              "type": "string"
            },
            {
              "internalType": "bool",
              "name": "premium",
              "type": "bool"
            },
            {
              "internalType": "bool",
              "name": "reserved",
              "type": "bool"
            }
          ],
          "internalType": "struct IETSToken.Tag",
          "name": "",
          "type": "tuple"
        }
      ],
      "stateMutability": "view",
      "type": "function"
    },
    {
      "inputs": [
        {
          "internalType": "string",
          "name": "_tag",
          "type": "string"
        }
      ],
      "name": "getTagByString",
      "outputs": [
        {
          "components": [
            {
              "internalType": "address",
              "name": "relayer",
              "type": "address"
            },
            {
              "internalType": "address",
              "name": "creator",
              "type": "address"
            },
            {
              "internalType": "string",
              "name": "display",
              "type": "string"
            },
            {
              "internalType": "bool",
              "name": "premium",
              "type": "bool"
            },
            {
              "internalType": "bool",
              "name": "reserved",
              "type": "bool"
            }
          ],
          "internalType": "struct IETSToken.Tag",
          "name": "",
          "type": "tuple"
        }
      ],
      "stateMutability": "view",
      "type": "function"
    },
    {
      "inputs": [
        {
          "internalType": "contract IETSAccessControls",
          "name": "_etsAccessControls",
          "type": "address"
        },
        {
          "internalType": "uint256",
          "name": "_tagMinStringLength",
          "type": "uint256"
        },
        {
          "internalType": "uint256",
          "name": "_tagMaxStringLength",
          "type": "uint256"
        },
        {
          "internalType": "uint256",
          "name": "_ownershipTermLength",
          "type": "uint256"
        }
      ],
      "name": "initialize",
      "outputs": [],
      "stateMutability": "nonpayable",
      "type": "function"
    },
    {
      "inputs": [
        {
          "internalType": "address",
          "name": "owner",
          "type": "address"
        },
        {
          "internalType": "address",
          "name": "operator",
          "type": "address"
        }
      ],
      "name": "isApprovedForAll",
      "outputs": [
        {
          "internalType": "bool",
          "name": "",
          "type": "bool"
        }
      ],
      "stateMutability": "view",
      "type": "function"
    },
    {
      "inputs": [
        {
          "internalType": "string",
          "name": "",
          "type": "string"
        }
      ],
      "name": "isTagPremium",
      "outputs": [
        {
          "internalType": "bool",
          "name": "",
          "type": "bool"
        }
      ],
      "stateMutability": "view",
      "type": "function"
    },
    {
      "inputs": [],
      "name": "name",
      "outputs": [
        {
          "internalType": "string",
          "name": "",
          "type": "string"
        }
      ],
      "stateMutability": "view",
      "type": "function"
    },
    {
      "inputs": [
        {
          "internalType": "uint256",
          "name": "tokenId",
          "type": "uint256"
        }
      ],
      "name": "ownerOf",
      "outputs": [
        {
          "internalType": "address",
          "name": "",
          "type": "address"
        }
      ],
      "stateMutability": "view",
      "type": "function"
    },
    {
      "inputs": [],
      "name": "ownershipTermLength",
      "outputs": [
        {
          "internalType": "uint256",
          "name": "",
          "type": "uint256"
        }
      ],
      "stateMutability": "view",
      "type": "function"
    },
    {
      "inputs": [],
      "name": "pause",
      "outputs": [],
      "stateMutability": "nonpayable",
      "type": "function"
    },
    {
      "inputs": [],
      "name": "paused",
      "outputs": [
        {
          "internalType": "bool",
          "name": "",
          "type": "bool"
        }
      ],
      "stateMutability": "view",
      "type": "function"
    },
    {
      "inputs": [
        {
          "internalType": "string[]",
          "name": "_tags",
          "type": "string[]"
        },
        {
          "internalType": "bool",
          "name": "_enabled",
          "type": "bool"
        }
      ],
      "name": "preSetPremiumTags",
      "outputs": [],
      "stateMutability": "nonpayable",
      "type": "function"
    },
    {
      "inputs": [],
      "name": "proxiableUUID",
      "outputs": [
        {
          "internalType": "bytes32",
          "name": "",
          "type": "bytes32"
        }
      ],
      "stateMutability": "view",
      "type": "function"
    },
    {
      "inputs": [
        {
          "internalType": "uint256",
          "name": "_tokenId",
          "type": "uint256"
        }
      ],
      "name": "recycleTag",
      "outputs": [],
      "stateMutability": "nonpayable",
      "type": "function"
    },
    {
      "inputs": [
        {
          "internalType": "uint256",
          "name": "_tokenId",
          "type": "uint256"
        }
      ],
      "name": "renewTag",
      "outputs": [],
      "stateMutability": "nonpayable",
      "type": "function"
    },
    {
      "inputs": [
        {
          "internalType": "address",
          "name": "from",
          "type": "address"
        },
        {
          "internalType": "address",
          "name": "to",
          "type": "address"
        },
        {
          "internalType": "uint256",
          "name": "tokenId",
          "type": "uint256"
        }
      ],
      "name": "safeTransferFrom",
      "outputs": [],
      "stateMutability": "nonpayable",
      "type": "function"
    },
    {
      "inputs": [
        {
          "internalType": "address",
          "name": "from",
          "type": "address"
        },
        {
          "internalType": "address",
          "name": "to",
          "type": "address"
        },
        {
          "internalType": "uint256",
          "name": "tokenId",
          "type": "uint256"
        },
        {
          "internalType": "bytes",
          "name": "data",
          "type": "bytes"
        }
      ],
      "name": "safeTransferFrom",
      "outputs": [],
      "stateMutability": "nonpayable",
      "type": "function"
    },
    {
      "inputs": [
        {
          "internalType": "contract IETSAccessControls",
          "name": "_accessControls",
          "type": "address"
        }
      ],
      "name": "setAccessControls",
      "outputs": [],
      "stateMutability": "nonpayable",
      "type": "function"
    },
    {
      "inputs": [
        {
          "internalType": "address",
          "name": "operator",
          "type": "address"
        },
        {
          "internalType": "bool",
          "name": "approved",
          "type": "bool"
        }
      ],
      "name": "setApprovalForAll",
      "outputs": [],
      "stateMutability": "nonpayable",
      "type": "function"
    },
    {
      "inputs": [
        {
          "internalType": "contract IETS",
          "name": "_ets",
          "type": "address"
        }
      ],
      "name": "setETSCore",
      "outputs": [],
      "stateMutability": "nonpayable",
      "type": "function"
    },
    {
      "inputs": [
        {
          "internalType": "uint256",
          "name": "_ownershipTermLength",
          "type": "uint256"
        }
      ],
      "name": "setOwnershipTermLength",
      "outputs": [],
      "stateMutability": "nonpayable",
      "type": "function"
    },
    {
      "inputs": [
        {
          "internalType": "uint256[]",
          "name": "_tokenIds",
          "type": "uint256[]"
        },
        {
          "internalType": "bool",
          "name": "_isPremium",
          "type": "bool"
        }
      ],
      "name": "setPremiumFlag",
      "outputs": [],
      "stateMutability": "nonpayable",
      "type": "function"
    },
    {
      "inputs": [
        {
          "internalType": "uint256[]",
          "name": "_tokenIds",
          "type": "uint256[]"
        },
        {
          "internalType": "bool",
          "name": "_reserved",
          "type": "bool"
        }
      ],
      "name": "setReservedFlag",
      "outputs": [],
      "stateMutability": "nonpayable",
      "type": "function"
    },
    {
      "inputs": [
        {
          "internalType": "uint256",
          "name": "_tagMaxStringLength",
          "type": "uint256"
        }
      ],
      "name": "setTagMaxStringLength",
      "outputs": [],
      "stateMutability": "nonpayable",
      "type": "function"
    },
    {
      "inputs": [
        {
          "internalType": "uint256",
          "name": "_tagMinStringLength",
          "type": "uint256"
        }
      ],
      "name": "setTagMinStringLength",
      "outputs": [],
      "stateMutability": "nonpayable",
      "type": "function"
    },
    {
      "inputs": [
        {
          "internalType": "bytes4",
          "name": "interfaceId",
          "type": "bytes4"
        }
      ],
      "name": "supportsInterface",
      "outputs": [
        {
          "internalType": "bool",
          "name": "",
          "type": "bool"
        }
      ],
      "stateMutability": "view",
      "type": "function"
    },
    {
      "inputs": [],
      "name": "symbol",
      "outputs": [
        {
          "internalType": "string",
          "name": "",
          "type": "string"
        }
      ],
      "stateMutability": "view",
      "type": "function"
    },
    {
      "inputs": [
        {
          "internalType": "uint256",
          "name": "_tokenId",
          "type": "uint256"
        }
      ],
      "name": "tagExistsById",
      "outputs": [
        {
          "internalType": "bool",
          "name": "",
          "type": "bool"
        }
      ],
      "stateMutability": "view",
      "type": "function"
    },
    {
      "inputs": [
        {
          "internalType": "string",
          "name": "_tag",
          "type": "string"
        }
      ],
      "name": "tagExistsByString",
      "outputs": [
        {
          "internalType": "bool",
          "name": "",
          "type": "bool"
        }
      ],
      "stateMutability": "view",
      "type": "function"
    },
    {
      "inputs": [],
      "name": "tagMaxStringLength",
      "outputs": [
        {
          "internalType": "uint256",
          "name": "",
          "type": "uint256"
        }
      ],
      "stateMutability": "view",
      "type": "function"
    },
    {
      "inputs": [],
      "name": "tagMinStringLength",
      "outputs": [
        {
          "internalType": "uint256",
          "name": "",
          "type": "uint256"
        }
      ],
      "stateMutability": "view",
      "type": "function"
    },
    {
      "inputs": [
        {
          "internalType": "uint256",
          "name": "_tokenId",
          "type": "uint256"
        }
      ],
      "name": "tagOwnershipTermExpired",
      "outputs": [
        {
          "internalType": "bool",
          "name": "",
          "type": "bool"
        }
      ],
      "stateMutability": "view",
      "type": "function"
    },
    {
      "inputs": [
        {
          "internalType": "uint256",
          "name": "",
          "type": "uint256"
        }
      ],
      "name": "tokenIdToLastRenewed",
      "outputs": [
        {
          "internalType": "uint256",
          "name": "",
          "type": "uint256"
        }
      ],
      "stateMutability": "view",
      "type": "function"
    },
    {
      "inputs": [
        {
          "internalType": "uint256",
          "name": "",
          "type": "uint256"
        }
      ],
      "name": "tokenIdToTag",
      "outputs": [
        {
          "internalType": "address",
          "name": "relayer",
          "type": "address"
        },
        {
          "internalType": "address",
          "name": "creator",
          "type": "address"
        },
        {
          "internalType": "string",
          "name": "display",
          "type": "string"
        },
        {
          "internalType": "bool",
          "name": "premium",
          "type": "bool"
        },
        {
          "internalType": "bool",
          "name": "reserved",
          "type": "bool"
        }
      ],
      "stateMutability": "view",
      "type": "function"
    },
    {
      "inputs": [
        {
          "internalType": "uint256",
          "name": "tokenId",
          "type": "uint256"
        }
      ],
      "name": "tokenURI",
      "outputs": [
        {
          "internalType": "string",
          "name": "",
          "type": "string"
        }
      ],
      "stateMutability": "view",
      "type": "function"
    },
    {
      "inputs": [
        {
          "internalType": "address",
          "name": "from",
          "type": "address"
        },
        {
          "internalType": "address",
          "name": "to",
          "type": "address"
        },
        {
          "internalType": "uint256",
          "name": "tokenId",
          "type": "uint256"
        }
      ],
      "name": "transferFrom",
      "outputs": [],
      "stateMutability": "nonpayable",
      "type": "function"
    },
    {
      "inputs": [],
      "name": "unPause",
      "outputs": [],
      "stateMutability": "nonpayable",
      "type": "function"
    },
    {
      "inputs": [
        {
          "internalType": "address",
          "name": "newImplementation",
          "type": "address"
        }
      ],
      "name": "upgradeTo",
      "outputs": [],
      "stateMutability": "nonpayable",
      "type": "function"
    },
    {
      "inputs": [
        {
          "internalType": "address",
          "name": "newImplementation",
          "type": "address"
        },
        {
          "internalType": "bytes",
          "name": "data",
          "type": "bytes"
        }
      ],
      "name": "upgradeToAndCall",
      "outputs": [],
      "stateMutability": "payable",
      "type": "function"
    }
  ],
  "numDeployments": 5,
  "solcInputHash": "46ad6e5af8533a27f90d23031da58f53",
  "bytecode": "0x60a0604052306080523480156200001557600080fd5b506200002062000026565b620000e7565b600054610100900460ff1615620000935760405162461bcd60e51b815260206004820152602760248201527f496e697469616c697a61626c653a20636f6e747261637420697320696e697469604482015266616c697a696e6760c81b606482015260840160405180910390fd5b60005460ff90811614620000e5576000805460ff191660ff9081179091556040519081527f7f26b83ff96e1f2b6a682f133852f6798a09c465da95921460cefb38474024989060200160405180910390a15b565b60805161514b6200011f600039600081816111a70152818161122c015281816117860152818161180b01526118f5015261514b6000f3fe6080604052600436106103555760003560e01c8063a1de95e5116101bb578063c87b56dd116100f7578063f143fc6111610095578063f7b188a51161006f578063f7b188a514610a1d578063fd52431314610a32578063fed6c2e914610a52578063ffa1ad7414610a6557600080fd5b8063f143fc61146109bd578063f66e7623146109dd578063f6ba042a146109fd57600080fd5b8063db7af5fb116100d1578063db7af5fb1461091d578063e8d3e4b614610934578063e985e9c514610954578063e9bd81261461099d57600080fd5b8063c87b56dd146108af578063cd025dea146108cf578063cd15832f146108fd57600080fd5b8063adf63cd211610164578063b7bd44ed1161013e578063b7bd44ed14610813578063b88d4fde14610833578063c157daea14610853578063c45b5ee11461087357600080fd5b8063adf63cd2146107ae578063af46adb8146107c5578063b06a89a7146107e557600080fd5b8063a3f4df7e11610195578063a3f4df7e14610721578063a675f1e31461076a578063ad014a5b1461077d57600080fd5b8063a1de95e5146106a7578063a22cb465146106c7578063a30b4db9146106e757600080fd5b806342966c68116102955780636352211e116102335780638299f9f91161020d5780638299f9f91461063c5780638456cb591461065d57806386f571711461067257806395d89b411461069257600080fd5b80636352211e146105dc5780636c1244b6146105fc57806370a082311461061c57600080fd5b80634f1ef2861161026f5780634f1ef28614610586578063500aac871461059957806352d1902d146105af5780635c975abb146105c457600080fd5b806342966c68146105265780634b3d267f146105465780634ec81af11461056657600080fd5b806315ccda22116103025780632e611630116102dc5780632e611630146104ac5780633659cfe6146104d15780633c0c4566146104f157806342842e0e1461050657600080fd5b806315ccda221461044b57806323b872dd1461046c57806327a2e4731461048c57600080fd5b806307348e261161033357806307348e26146103d3578063081812fc146103f3578063095ea7b31461042b57600080fd5b806301ffc9a71461035a578063060defec1461038f57806306fdde03146103b1575b600080fd5b34801561036657600080fd5b5061037a610375366004614901565b610aae565b60405190151581526020015b60405180910390f35b34801561039b57600080fd5b506103af6103aa36600461491e565b610abf565b005b3480156103bd57600080fd5b506103c6610bb8565b604051610386919061498f565b6103e66103e1366004614a00565b610c4a565b6040516103869190614a68565b3480156103ff57600080fd5b5061041361040e36600461491e565b610dd2565b6040516001600160a01b039091168152602001610386565b34801561043757600080fd5b506103af610446366004614ac9565b610df9565b34801561045757600080fd5b506101c354610413906001600160a01b031681565b34801561047857600080fd5b506103af610487366004614af5565b610f2b565b34801561049857600080fd5b506103af6104a7366004614b89565b610fa2565b3480156104b857600080fd5b506104c36101c65481565b604051908152602001610386565b3480156104dd57600080fd5b506103af6104ec366004614be0565b61119c565b3480156104fd57600080fd5b50610413611318565b34801561051257600080fd5b506103af610521366004614af5565b6113a5565b34801561053257600080fd5b506103af61054136600461491e565b6113c0565b34801561055257600080fd5b506103e661056136600461491e565b611480565b34801561057257600080fd5b506103af610581366004614bfd565b61159c565b6103af610594366004614ce4565b61177b565b3480156105a557600080fd5b506101c7546104c3565b3480156105bb57600080fd5b506104c36118e8565b3480156105d057600080fd5b5060975460ff1661037a565b3480156105e857600080fd5b506104136105f736600461491e565b6119ad565b34801561060857600080fd5b506103e6610617366004614d34565b611a12565b34801561062857600080fd5b506104c3610637366004614be0565b611a87565b34801561064857600080fd5b506101c454610413906001600160a01b031681565b34801561066957600080fd5b506103af611b21565b34801561067e57600080fd5b506103af61068d36600461491e565b611bea565b34801561069e57600080fd5b506103c6611cd7565b3480156106b357600080fd5b506103af6106c2366004614b89565b611ce6565b3480156106d357600080fd5b506103af6106e2366004614d76565b611ec3565b3480156106f357600080fd5b5061041361070236600461491e565b60009081526101c860205260409020600101546001600160a01b031690565b34801561072d57600080fd5b506103c66040518060400160405280600a81526020017f4354414720546f6b656e0000000000000000000000000000000000000000000081525081565b6104c3610778366004614a00565b611ece565b34801561078957600080fd5b5061079d61079836600461491e565b612166565b604051610386959493929190614daf565b3480156107ba57600080fd5b506104c36101c55481565b3480156107d157600080fd5b506103af6107e0366004614b89565b612231565b3480156107f157600080fd5b506104c361080036600461491e565b60009081526101c9602052604090205490565b34801561081f57600080fd5b5061037a61082e36600461491e565b61242d565b34801561083f57600080fd5b506103af61084e366004614df4565b61244c565b34801561085f57600080fd5b506103af61086e36600461491e565b6124c4565b34801561087f57600080fd5b5061037a61088e366004614e60565b80516020818301810180516101ca8252928201919093012091525460ff1681565b3480156108bb57600080fd5b506103c66108ca36600461491e565b612566565b3480156108db57600080fd5b506104c36108ea36600461491e565b6101c96020526000908152604090205481565b34801561090957600080fd5b506103af610918366004614be0565b6125d9565b34801561092957600080fd5b506104c36101c75481565b34801561094057600080fd5b506103af61094f36600461491e565b6127f9565b34801561096057600080fd5b5061037a61096f366004614ea9565b6001600160a01b039182166000908152606a6020908152604080832093909416825291909152205460ff1690565b3480156109a957600080fd5b5061037a6109b836600461491e565b61296d565b3480156109c957600080fd5b506104c36109d8366004614e60565b61299b565b3480156109e957600080fd5b506103af6109f836600461491e565b6129b6565b348015610a0957600080fd5b5061037a610a18366004614d34565b612aa3565b348015610a2957600080fd5b506103af612b04565b348015610a3e57600080fd5b506103af610a4d366004614be0565b612bcb565b6104c3610a60366004614a00565b612d27565b348015610a7157600080fd5b506103c66040518060400160405280600581526020017f302e302e3100000000000000000000000000000000000000000000000000000081525081565b6000610ab982612d90565b92915050565b6101c4546001600160a01b03166324d7806c336040516001600160e01b031960e084901b1681526001600160a01b039091166004820152602401602060405180830381865afa158015610b16573d6000803e3d6000fd5b505050506040513d601f19601f82011682018060405250810190610b3a9190614ed7565b610b7b5760405162461bcd60e51b815260206004820152600d60248201526c1058d8d95cdcc819195b9a5959609a1b60448201526064015b60405180910390fd5b6101c68190556040518181527f50364cd96b896c27f5b49c44803a02b6c82874dedfe1d1652efa295206b02c2e906020015b60405180910390a150565b606060658054610bc790614ef4565b80601f0160208091040260200160405190810160405280929190818152602001828054610bf390614ef4565b8015610c405780601f10610c1557610100808354040283529160200191610c40565b820191906000526020600020905b815481529060010190602001808311610c2357829003601f168201915b5050505050905090565b6040805160a081018252600080825260208201819052606092820183905291810182905260808101919091526000610cb786868080601f01602080910402602001604051908101604052809392919081815260200183838082843760009201919091525061299b92505050565b9050610cc28161242d565b610cd557610cd286868686611ece565b90505b60008181526101c86020908152604091829020825160a08101845281546001600160a01b039081168252600183015416928101929092526002810180549293919291840191610d2390614ef4565b80601f0160208091040260200160405190810160405280929190818152602001828054610d4f90614ef4565b8015610d9c5780601f10610d7157610100808354040283529160200191610d9c565b820191906000526020600020905b815481529060010190602001808311610d7f57829003601f168201915b50505091835250506003919091015460ff808216151560208401526101009091041615156040909101529150505b949350505050565b6000610ddd82612e2b565b506000908152606960205260409020546001600160a01b031690565b6000610e04826119ad565b9050806001600160a01b0316836001600160a01b03161415610e8e5760405162461bcd60e51b815260206004820152602160248201527f4552433732313a20617070726f76616c20746f2063757272656e74206f776e6560448201527f72000000000000000000000000000000000000000000000000000000000000006064820152608401610b72565b336001600160a01b0382161480610eaa5750610eaa813361096f565b610f1c5760405162461bcd60e51b815260206004820152603d60248201527f4552433732313a20617070726f76652063616c6c6572206973206e6f7420746f60448201527f6b656e206f776e6572206f7220617070726f76656420666f7220616c6c0000006064820152608401610b72565b610f268383612e8f565b505050565b610f353382612efd565b610f975760405162461bcd60e51b815260206004820152602d60248201527f4552433732313a2063616c6c6572206973206e6f7420746f6b656e206f776e6560448201526c1c881bdc88185c1c1c9bdd9959609a1b6064820152608401610b72565b610f26838383612f7b565b6101c4546001600160a01b03166324d7806c336040516001600160e01b031960e084901b1681526001600160a01b039091166004820152602401602060405180830381865afa158015610ff9573d6000803e3d6000fd5b505050506040513d601f19601f8201168201806040525081019061101d9190614ed7565b6110595760405162461bcd60e51b815260206004820152600d60248201526c1058d8d95cdcc819195b9a5959609a1b6044820152606401610b72565b816110945760405162461bcd60e51b815260206004820152600b60248201526a456d70747920617272617960a81b6044820152606401610b72565b60005b828110156111965760008484838181106110b3576110b3614f2f565b9050602002013590506110c4611318565b6001600160a01b03166110d6826119ad565b6001600160a01b03161461112c5760405162461bcd60e51b815260206004820152601560248201527f4e6f74206f776e656420627920706c6174666f726d00000000000000000000006044820152606401610b72565b60008181526101c86020908152604091829020600301805460ff19168615159081179091558251848152918201527f5ff3e202d7ff106b7be2e41c9e1b36cb0fabfaef5219ca353c5ec44d7da43f17910160405180910390a15061118f81614f5b565b9050611097565b50505050565b306001600160a01b037f000000000000000000000000000000000000000000000000000000000000000016141561122a5760405162461bcd60e51b815260206004820152602c60248201527f46756e6374696f6e206d7573742062652063616c6c6564207468726f7567682060448201526b19195b1959d85d1958d85b1b60a21b6064820152608401610b72565b7f00000000000000000000000000000000000000000000000000000000000000006001600160a01b03166112857f360894a13ba1a3210667c828492db98dca3e2076cc3735a920a3ca505d382bbc546001600160a01b031690565b6001600160a01b0316146112f05760405162461bcd60e51b815260206004820152602c60248201527f46756e6374696f6e206d7573742062652063616c6c6564207468726f7567682060448201526b6163746976652070726f787960a01b6064820152608401610b72565b6112f981613189565b6040805160008082526020820190925261131591839190613240565b50565b6101c454604080517f3c0c456600000000000000000000000000000000000000000000000000000000815290516000926001600160a01b031691633c0c45669160048083019260209291908290030181865afa15801561137c573d6000803e3d6000fd5b505050506040513d601f19601f820116820180604052508101906113a09190614f76565b905090565b610f268383836040518060200160405280600081525061244c565b6101c4546001600160a01b03166324d7806c336040516001600160e01b031960e084901b1681526001600160a01b039091166004820152602401602060405180830381865afa158015611417573d6000803e3d6000fd5b505050506040513d601f19601f8201168201806040525081019061143b9190614ed7565b6114775760405162461bcd60e51b815260206004820152600d60248201526c1058d8d95cdcc819195b9a5959609a1b6044820152606401610b72565b611315816133e0565b6040805160a080820183526000808352602080840182905260608486018190528401829052608084018290528582526101c88152908490208451928301855280546001600160a01b039081168452600182015416918301919091526002810180549394929391928401916114f390614ef4565b80601f016020809104026020016040519081016040528092919081815260200182805461151f90614ef4565b801561156c5780601f106115415761010080835404028352916020019161156c565b820191906000526020600020905b81548152906001019060200180831161154f57829003601f168201915b50505091835250506003919091015460ff8082161515602084015261010090910416151560409091015292915050565b600054610100900460ff16158080156115bc5750600054600160ff909116105b806115d65750303b1580156115d6575060005460ff166001145b6116485760405162461bcd60e51b815260206004820152602e60248201527f496e697469616c697a61626c653a20636f6e747261637420697320616c72656160448201527f647920696e697469616c697a65640000000000000000000000000000000000006064820152608401610b72565b6000805460ff19166001179055801561166b576000805461ff0019166101001790555b6116df6040518060400160405280601481526020017f457468657265756d2054616720536572766963650000000000000000000000008152506040518060400160405280600481526020017f435441470000000000000000000000000000000000000000000000000000000081525061348d565b6116e7613502565b6116ef613575565b6116f76135e0565b6101c480546001600160a01b0319166001600160a01b03871617905561171c84611bea565b61172583610abf565b61172e826129b6565b8015611774576000805461ff0019169055604051600181527f7f26b83ff96e1f2b6a682f133852f6798a09c465da95921460cefb38474024989060200160405180910390a15b5050505050565b306001600160a01b037f00000000000000000000000000000000000000000000000000000000000000001614156118095760405162461bcd60e51b815260206004820152602c60248201527f46756e6374696f6e206d7573742062652063616c6c6564207468726f7567682060448201526b19195b1959d85d1958d85b1b60a21b6064820152608401610b72565b7f00000000000000000000000000000000000000000000000000000000000000006001600160a01b03166118647f360894a13ba1a3210667c828492db98dca3e2076cc3735a920a3ca505d382bbc546001600160a01b031690565b6001600160a01b0316146118cf5760405162461bcd60e51b815260206004820152602c60248201527f46756e6374696f6e206d7573742062652063616c6c6564207468726f7567682060448201526b6163746976652070726f787960a01b6064820152608401610b72565b6118d882613189565b6118e482826001613240565b5050565b6000306001600160a01b037f000000000000000000000000000000000000000000000000000000000000000016146119885760405162461bcd60e51b815260206004820152603860248201527f555550535570677261646561626c653a206d757374206e6f742062652063616c60448201527f6c6564207468726f7567682064656c656761746563616c6c00000000000000006064820152608401610b72565b507f360894a13ba1a3210667c828492db98dca3e2076cc3735a920a3ca505d382bbc90565b6000818152606760205260408120546001600160a01b031680610ab95760405162461bcd60e51b815260206004820152601860248201527f4552433732313a20696e76616c696420746f6b656e20494400000000000000006044820152606401610b72565b6040805160a08101825260008082526020820181905260609282018390529181018290526080810191909152611a8061056184848080601f01602080910402602001604051908101604052809392919081815260200183838082843760009201919091525061299b92505050565b9392505050565b60006001600160a01b038216611b055760405162461bcd60e51b815260206004820152602960248201527f4552433732313a2061646472657373207a65726f206973206e6f74206120766160448201527f6c6964206f776e657200000000000000000000000000000000000000000000006064820152608401610b72565b506001600160a01b031660009081526068602052604090205490565b6101c4546001600160a01b03166324d7806c336040516001600160e01b031960e084901b1681526001600160a01b039091166004820152602401602060405180830381865afa158015611b78573d6000803e3d6000fd5b505050506040513d601f19601f82011682018060405250810190611b9c9190614ed7565b611bd85760405162461bcd60e51b815260206004820152600d60248201526c1058d8d95cdcc819195b9a5959609a1b6044820152606401610b72565b611be0613653565b611be86136a6565b565b6101c4546001600160a01b03166324d7806c336040516001600160e01b031960e084901b1681526001600160a01b039091166004820152602401602060405180830381865afa158015611c41573d6000803e3d6000fd5b505050506040513d601f19601f82011682018060405250810190611c659190614ed7565b611ca15760405162461bcd60e51b815260206004820152600d60248201526c1058d8d95cdcc819195b9a5959609a1b6044820152606401610b72565b6101c58190556040518181527fb5fcb9a22c611b15d455074b2198dc6adb0c879f34fae2d323816706ba02610c90602001610bad565b606060668054610bc790614ef4565b6101c4546001600160a01b03166324d7806c336040516001600160e01b031960e084901b1681526001600160a01b039091166004820152602401602060405180830381865afa158015611d3d573d6000803e3d6000fd5b505050506040513d601f19601f82011682018060405250810190611d619190614ed7565b611d9d5760405162461bcd60e51b815260206004820152600d60248201526c1058d8d95cdcc819195b9a5959609a1b6044820152606401610b72565b81611dd85760405162461bcd60e51b815260206004820152600b60248201526a456d70747920617272617960a81b6044820152606401610b72565b60005b82811015611196576000611e46858584818110611dfa57611dfa614f2f565b9050602002810190611e0c9190614f93565b8080601f01602080910402602001604051908101604052809392919081815260200183838082843760009201919091525061370092505050565b9050826101ca82604051611e5a9190614fda565b908152604051908190036020018120805492151560ff19909316929092179091557f231b4d492e38027a6f24b0287140781038da342b8ce2873f2905aa22329af73c90611eaa9083908690614ff6565b60405180910390a150611ebc81614f5b565b9050611ddb565b6118e43383836138a7565b6000611ed8613976565b6101c3546001600160a01b0316336001600160a01b031614611f3c5760405162461bcd60e51b815260206004820152601660248201527f43616c6c6572206973206e6f742045545320636f7265000000000000000000006044820152606401610b72565b6000611f7d86868080601f0160208091040260200160405190810160405280939291908181526020018383808284376000920191909152506139d292505050565b9050611f90611f8a611318565b82613c3c565b6040518060a00160405280856001600160a01b03168152602001846001600160a01b0316815260200187878080601f016020809104026020016040519081016040528093929190818152602001838380828437600092019190915250505090825250604080516020601f8a01819004810282018101909252888152918101916101ca9161203891908b908b908190840183828082843760009201919091525061370092505050565b6040516120459190614fda565b908152602001604051809103902060009054906101000a900460ff16151581526020016101ca6120aa89898080601f01602080910402602001604051908101604052809392919081815260200183838082843760009201919091525061370092505050565b6040516120b79190614fda565b908152604080519182900360209081019092205460ff16151590925260008481526101c88252829020835181546001600160a01b039182166001600160a01b0319918216178355858401516001840180549190931691161790559183015180516121279260028501920190614852565b5060608201516003909101805460809093015115156101000261ff00199215159290921661ffff19909316929092171790559050610dca600161012d55565b6101c8602052600090815260409020805460018201546002830180546001600160a01b0393841694929093169261219c90614ef4565b80601f01602080910402602001604051908101604052809291908181526020018280546121c890614ef4565b80156122155780601f106121ea57610100808354040283529160200191612215565b820191906000526020600020905b8154815290600101906020018083116121f857829003601f168201915b5050506003909301549192505060ff8082169161010090041685565b6101c4546001600160a01b03166324d7806c336040516001600160e01b031960e084901b1681526001600160a01b039091166004820152602401602060405180830381865afa158015612288573d6000803e3d6000fd5b505050506040513d601f19601f820116820180604052508101906122ac9190614ed7565b6122e85760405162461bcd60e51b815260206004820152600d60248201526c1058d8d95cdcc819195b9a5959609a1b6044820152606401610b72565b816123235760405162461bcd60e51b815260206004820152600b60248201526a456d70747920617272617960a81b6044820152606401610b72565b60005b8281101561119657600084848381811061234257612342614f2f565b905060200201359050612353611318565b6001600160a01b0316612365826119ad565b6001600160a01b0316146123bb5760405162461bcd60e51b815260206004820152601b60248201527f546f6b656e206e6f74206f776e656420627920706c6174666f726d00000000006044820152606401610b72565b60008181526101c86020908152604091829020600301805461ff001916610100871515908102919091179091558251848152918201527f5bfb00ad0dd6c85a7714be58e38edd1eede7425b1281af24a27ed196555ab05b910160405180910390a15061242681614f5b565b9050612326565b6000818152606760205260408120546001600160a01b03161515610ab9565b6124563383612efd565b6124b85760405162461bcd60e51b815260206004820152602d60248201527f4552433732313a2063616c6c6572206973206e6f7420746f6b656e206f776e6560448201526c1c881bdc88185c1c1c9bdd9959609a1b6064820152608401610b72565b61119684848484613c5e565b6000818152606760205260409020546001600160a01b03166125285760405162461bcd60e51b815260206004820152601360248201527f4554533a2043544147206e6f7420666f756e64000000000000000000000000006044820152606401610b72565b612530611318565b6001600160a01b0316612542826119ad565b6001600160a01b0316141561255c57611315816000613cdc565b6113158142613cdc565b606061257182612e2b565b600061258860408051602081019091526000815290565b905060008151116125a85760405180602001604052806000815250611a80565b806125b284613d1c565b6040516020016125c392919061501a565b6040516020818303038152906040529392505050565b6101c4546001600160a01b03166324d7806c336040516001600160e01b031960e084901b1681526001600160a01b039091166004820152602401602060405180830381865afa158015612630573d6000803e3d6000fd5b505050506040513d601f19601f820116820180604052508101906126549190614ed7565b6126905760405162461bcd60e51b815260206004820152600d60248201526c1058d8d95cdcc819195b9a5959609a1b6044820152606401610b72565b6001600160a01b0381166126e65760405162461bcd60e51b815260206004820152601660248201527f416464726573732063616e6e6f74206265207a65726f000000000000000000006044820152606401610b72565b6001600160a01b0381166324d7806c336040516001600160e01b031960e084901b1681526001600160a01b039091166004820152602401602060405180830381865afa15801561273a573d6000803e3d6000fd5b505050506040513d601f19601f8201168201806040525081019061275e9190614ed7565b6127aa5760405162461bcd60e51b815260206004820181905260248201527f43616c6c6572206e6f742061646d696e20696e206e657720636f6e74726163746044820152606401610b72565b6101c480546001600160a01b0319166001600160a01b0383169081179091556040519081527f2f55f724ae3134584dfdd86a4ee1e090635ff9913722b5fe06e064cc7e3ed8b490602001610bad565b6000818152606760205260409020546001600160a01b031661285d5760405162461bcd60e51b815260206004820152601360248201527f4554533a2043544147206e6f7420666f756e64000000000000000000000000006044820152606401610b72565b612865611318565b6001600160a01b0316612877826119ad565b6001600160a01b031614156128ce5760405162461bcd60e51b815260206004820152601560248201527f546167206f776e656420627920706c6174666f726d00000000000000000000006044820152606401610b72565b6128d78161296d565b6129235760405162461bcd60e51b815260206004820152601760248201527f72656379636c696e67206e6f7420617661696c61626c650000000000000000006044820152606401610b72565b61293d61292f826119ad565b612937611318565b83612f7b565b604051339082907f0f842a1659c86d6e422461459fb2ab6fa8af886fd1cf9978a73dd299f23ccc7a90600090a350565b60004261297a6101c75490565b60008481526101c960205260409020546129949190615049565b1092915050565b6000806129a783613700565b80516020909101209392505050565b6101c4546001600160a01b03166324d7806c336040516001600160e01b031960e084901b1681526001600160a01b039091166004820152602401602060405180830381865afa158015612a0d573d6000803e3d6000fd5b505050506040513d601f19601f82011682018060405250810190612a319190614ed7565b612a6d5760405162461bcd60e51b815260206004820152600d60248201526c1058d8d95cdcc819195b9a5959609a1b6044820152606401610b72565b6101c78190556040518181527f0746578f4b3113723b37a909bdaea17321cc8c4a738f0bbcbf72ea2e6142c4c290602001610bad565b6000611a80612ae784848080601f01602080910402602001604051908101604052809392919081815260200183838082843760009201919091525061299b92505050565b6000908152606760205260409020546001600160a01b0316151590565b6101c4546001600160a01b03166324d7806c336040516001600160e01b031960e084901b1681526001600160a01b039091166004820152602401602060405180830381865afa158015612b5b573d6000803e3d6000fd5b505050506040513d601f19601f82011682018060405250810190612b7f9190614ed7565b612bbb5760405162461bcd60e51b815260206004820152600d60248201526c1058d8d95cdcc819195b9a5959609a1b6044820152606401610b72565b612bc3613dbe565b611be8613e10565b6101c4546001600160a01b03166324d7806c336040516001600160e01b031960e084901b1681526001600160a01b039091166004820152602401602060405180830381865afa158015612c22573d6000803e3d6000fd5b505050506040513d601f19601f82011682018060405250810190612c469190614ed7565b612c825760405162461bcd60e51b815260206004820152600d60248201526c1058d8d95cdcc819195b9a5959609a1b6044820152606401610b72565b6001600160a01b038116612cd85760405162461bcd60e51b815260206004820152601660248201527f416464726573732063616e6e6f74206265207a65726f000000000000000000006044820152606401610b72565b6101c380546001600160a01b0319166001600160a01b0383169081179091556040519081527f44083188a657481391e0f7de38dc24520f2ee91f7eba083ad27831a62cd1c9a790602001610bad565b600080612d6986868080601f01602080910402602001604051908101604052809392919081815260200183838082843760009201919091525061299b92505050565b9050612d748161242d565b612d8757612d8486868686611ece565b90505b95945050505050565b60006001600160e01b031982167f80ac58cd000000000000000000000000000000000000000000000000000000001480612df357506001600160e01b031982167f5b5e139f00000000000000000000000000000000000000000000000000000000145b80610ab957507f01ffc9a7000000000000000000000000000000000000000000000000000000006001600160e01b0319831614610ab9565b6000818152606760205260409020546001600160a01b03166113155760405162461bcd60e51b815260206004820152601860248201527f4552433732313a20696e76616c696420746f6b656e20494400000000000000006044820152606401610b72565b600081815260696020526040902080546001600160a01b0319166001600160a01b0384169081179091558190612ec4826119ad565b6001600160a01b03167f8c5be1e5ebec7d5bd14f71427d1e84f3dd0314c0f7b2291e5b200ac8c7c3b92560405160405180910390a45050565b600080612f09836119ad565b9050806001600160a01b0316846001600160a01b03161480612f5057506001600160a01b038082166000908152606a602090815260408083209388168352929052205460ff165b80610dca5750836001600160a01b0316612f6984610dd2565b6001600160a01b031614949350505050565b826001600160a01b0316612f8e826119ad565b6001600160a01b031614612ff25760405162461bcd60e51b815260206004820152602560248201527f4552433732313a207472616e736665722066726f6d20696e636f72726563742060448201526437bbb732b960d91b6064820152608401610b72565b6001600160a01b03821661306d5760405162461bcd60e51b8152602060048201526024808201527f4552433732313a207472616e7366657220746f20746865207a65726f2061646460448201527f72657373000000000000000000000000000000000000000000000000000000006064820152608401610b72565b61307a8383836001613e49565b826001600160a01b031661308d826119ad565b6001600160a01b0316146130f15760405162461bcd60e51b815260206004820152602560248201527f4552433732313a207472616e736665722066726f6d20696e636f72726563742060448201526437bbb732b960d91b6064820152608401610b72565b600081815260696020908152604080832080546001600160a01b03199081169091556001600160a01b0387811680865260688552838620805460001901905590871680865283862080546001019055868652606790945282852080549092168417909155905184937fddf252ad1be2c89b69c2b068fc378daa952ba7f163c4a11628f55a4df523b3ef91a4610f268383836001613eb0565b6101c4546001600160a01b03166324d7806c336040516001600160e01b031960e084901b1681526001600160a01b039091166004820152602401602060405180830381865afa1580156131e0573d6000803e3d6000fd5b505050506040513d601f19601f820116820180604052508101906132049190614ed7565b6113155760405162461bcd60e51b815260206004820152600d60248201526c1058d8d95cdcc819195b9a5959609a1b6044820152606401610b72565b7f4910fdfa16fed3260ed0e7147f7cc6da11a60208b5b9406d12a635614ffd91435460ff161561327357610f2683613fc1565b826001600160a01b03166352d1902d6040518163ffffffff1660e01b8152600401602060405180830381865afa9250505080156132cd575060408051601f3d908101601f191682019092526132ca91810190615061565b60015b61333f5760405162461bcd60e51b815260206004820152602e60248201527f45524331393637557067726164653a206e657720696d706c656d656e7461746960448201527f6f6e206973206e6f7420555550530000000000000000000000000000000000006064820152608401610b72565b7f360894a13ba1a3210667c828492db98dca3e2076cc3735a920a3ca505d382bbc81146133d45760405162461bcd60e51b815260206004820152602960248201527f45524331393637557067726164653a20756e737570706f727465642070726f7860448201527f6961626c655555494400000000000000000000000000000000000000000000006064820152608401610b72565b50610f2683838361407f565b60006133eb826119ad565b90506133fb816000846001613e49565b613404826119ad565b600083815260696020908152604080832080546001600160a01b03199081169091556001600160a01b0385168085526068845282852080546000190190558785526067909352818420805490911690555192935084927fddf252ad1be2c89b69c2b068fc378daa952ba7f163c4a11628f55a4df523b3ef908390a46118e4816000846001613eb0565b600054610100900460ff166134f85760405162461bcd60e51b815260206004820152602b60248201527f496e697469616c697a61626c653a20636f6e7472616374206973206e6f74206960448201526a6e697469616c697a696e6760a81b6064820152608401610b72565b6118e482826140a4565b600054610100900460ff1661356d5760405162461bcd60e51b815260206004820152602b60248201527f496e697469616c697a61626c653a20636f6e7472616374206973206e6f74206960448201526a6e697469616c697a696e6760a81b6064820152608401610b72565b611be8614136565b600054610100900460ff16611be85760405162461bcd60e51b815260206004820152602b60248201527f496e697469616c697a61626c653a20636f6e7472616374206973206e6f74206960448201526a6e697469616c697a696e6760a81b6064820152608401610b72565b600054610100900460ff1661364b5760405162461bcd60e51b815260206004820152602b60248201527f496e697469616c697a61626c653a20636f6e7472616374206973206e6f74206960448201526a6e697469616c697a696e6760a81b6064820152608401610b72565b611be86141ad565b60975460ff1615611be85760405162461bcd60e51b815260206004820152601060248201527f5061757361626c653a20706175736564000000000000000000000000000000006044820152606401610b72565b6136ae613653565b6097805460ff191660011790557f62e78cea01bee320cd4e420270b5ea74000d11b0c9f74754ebdbfc544b05a2586136e33390565b6040516001600160a01b03909116815260200160405180910390a1565b606060008290506000815167ffffffffffffffff81111561372357613723614c38565b6040519080825280601f01601f19166020018201604052801561374d576020820181803683370190505b50905060005b825181101561389f57604160f81b83828151811061377357613773614f2f565b01602001516001600160f81b031916108015906137b45750605a60f81b8382815181106137a2576137a2614f2f565b01602001516001600160f81b03191611155b1561382e578281815181106137cb576137cb614f2f565b602001015160f81c60f81b60f81c60206137e5919061507a565b60f81b8282815181106137fa576137fa614f2f565b60200101907effffffffffffffffffffffffffffffffffffffffffffffffffffffffffffff1916908160001a90535061388d565b82818151811061384057613840614f2f565b602001015160f81c60f81b82828151811061385d5761385d614f2f565b60200101907effffffffffffffffffffffffffffffffffffffffffffffffffffffffffffff1916908160001a9053505b8061389781614f5b565b915050613753565b509392505050565b816001600160a01b0316836001600160a01b031614156139095760405162461bcd60e51b815260206004820152601960248201527f4552433732313a20617070726f766520746f2063616c6c6572000000000000006044820152606401610b72565b6001600160a01b038381166000818152606a6020908152604080832094871680845294825291829020805460ff191686151590811790915591519182527f17307eab39ab6107e8899845ad3d59bd9653f200f220920489ca2b5937696c31910160405180910390a3505050565b600261012d5414156139ca5760405162461bcd60e51b815260206004820152601f60248201527f5265656e7472616e637947756172643a207265656e7472616e742063616c6c006044820152606401610b72565b600261012d55565b6000806139de8361299b565b6000818152606760205260409020549091506001600160a01b031615613a465760405162461bcd60e51b815260206004820152601c60248201527f4552433732313a20746f6b656e20616c7265616479206d696e746564000000006044820152606401610b72565b6101c5548351849111801590613a6057506101c654815111155b613aac5760405162461bcd60e51b815260206004820152601260248201527f496e76616c69642074616720666f726d617400000000000000000000000000006044820152606401610b72565b80600081518110613abf57613abf614f2f565b6020910101516001600160f81b031916602360f81b14613b215760405162461bcd60e51b815260206004820152601560248201527f546167206d7573742073746172742077697468202300000000000000000000006044820152606401610b72565b60015b8151811015613c33576000828281518110613b4157613b41614f2f565b01602001516001600160f81b03191690507f2000000000000000000000000000000000000000000000000000000000000000811415613bc25760405162461bcd60e51b815260206004820152600d60248201527f53706163657320696e20746167000000000000000000000000000000000000006044820152606401610b72565b602360f81b6001600160f81b031982161415613c205760405162461bcd60e51b815260206004820152601360248201527f54616720636f6e7461696e7320707265666978000000000000000000000000006044820152606401610b72565b5080613c2b81614f5b565b915050613b24565b50909392505050565b6118e4828260405180602001604052806000815250614218565b600161012d55565b613c69848484612f7b565b613c7584848484614296565b6111965760405162461bcd60e51b815260206004820152603260248201527f4552433732313a207472616e7366657220746f206e6f6e20455243373231526560448201527131b2b4bb32b91034b6b83632b6b2b73a32b960711b6064820152608401610b72565b60008281526101c9602052604080822083905551339184917faa0c0591942aff60e66bde156168c9a47ef843534b433bbaa33e62d1410f4f2c9190a35050565b60606000613d29836143dc565b600101905060008167ffffffffffffffff811115613d4957613d49614c38565b6040519080825280601f01601f191660200182016040528015613d73576020820181803683370190505b5090508181016020015b600019017f3031323334353637383961626364656600000000000000000000000000000000600a86061a8153600a8504945084613db95761389f565b613d7d565b60975460ff16611be85760405162461bcd60e51b815260206004820152601460248201527f5061757361626c653a206e6f74207061757365640000000000000000000000006044820152606401610b72565b613e18613dbe565b6097805460ff191690557f5db9ee0a495bf2e6ff9c91a7834c1ba4fdd244a5e8aa4e537bd38aeae4b073aa336136e3565b613e51613653565b613e5d848484846144be565b60975460ff16156111965760405162461bcd60e51b815260206004820152600f60248201527f436f6e74726163742070617573656400000000000000000000000000000000006044820152606401610b72565b6001600160a01b03831615613efa57613ec7611318565b6001600160a01b0316836001600160a01b03161415613ef057613eeb826000613cdc565b613efa565b613efa8242613cdc565b6001600160a01b03841615801590613f2b5750613f15611318565b6001600160a01b0316846001600160a01b031614155b8015613f3d5750613f3b84611a87565b155b15611196576101c4546040517fa10138e80000000000000000000000000000000000000000000000000000000081526001600160a01b0386811660048301529091169063a10138e890602401600060405180830381600087803b158015613fa357600080fd5b505af1158015613fb7573d6000803e3d6000fd5b5050505050505050565b6001600160a01b0381163b61403e5760405162461bcd60e51b815260206004820152602d60248201527f455243313936373a206e657720696d706c656d656e746174696f6e206973206e60448201527f6f74206120636f6e7472616374000000000000000000000000000000000000006064820152608401610b72565b7f360894a13ba1a3210667c828492db98dca3e2076cc3735a920a3ca505d382bbc80546001600160a01b0319166001600160a01b0392909216919091179055565b61408883614537565b6000825111806140955750805b15610f26576111968383614577565b600054610100900460ff1661410f5760405162461bcd60e51b815260206004820152602b60248201527f496e697469616c697a61626c653a20636f6e7472616374206973206e6f74206960448201526a6e697469616c697a696e6760a81b6064820152608401610b72565b8151614122906065906020850190614852565b508051610f26906066906020840190614852565b600054610100900460ff166141a15760405162461bcd60e51b815260206004820152602b60248201527f496e697469616c697a61626c653a20636f6e7472616374206973206e6f74206960448201526a6e697469616c697a696e6760a81b6064820152608401610b72565b6097805460ff19169055565b600054610100900460ff16613c565760405162461bcd60e51b815260206004820152602b60248201527f496e697469616c697a61626c653a20636f6e7472616374206973206e6f74206960448201526a6e697469616c697a696e6760a81b6064820152608401610b72565b614222838361459c565b61422f6000848484614296565b610f265760405162461bcd60e51b815260206004820152603260248201527f4552433732313a207472616e7366657220746f206e6f6e20455243373231526560448201527131b2b4bb32b91034b6b83632b6b2b73a32b960711b6064820152608401610b72565b60006001600160a01b0384163b156143d457604051630a85bd0160e11b81526001600160a01b0385169063150b7a02906142da90339089908890889060040161509f565b6020604051808303816000875af1925050508015614315575060408051601f3d908101601f19168201909252614312918101906150d1565b60015b6143ba573d808015614343576040519150601f19603f3d011682016040523d82523d6000602084013e614348565b606091505b5080516143b25760405162461bcd60e51b815260206004820152603260248201527f4552433732313a207472616e7366657220746f206e6f6e20455243373231526560448201527131b2b4bb32b91034b6b83632b6b2b73a32b960711b6064820152608401610b72565b805181602001fd5b6001600160e01b031916630a85bd0160e11b149050610dca565b506001610dca565b6000807a184f03e93ff9f4daa797ed6e38ed64bf6a1f0100000000000000008310614425577a184f03e93ff9f4daa797ed6e38ed64bf6a1f010000000000000000830492506040015b6d04ee2d6d415b85acef81000000008310614451576d04ee2d6d415b85acef8100000000830492506020015b662386f26fc10000831061446f57662386f26fc10000830492506010015b6305f5e1008310614487576305f5e100830492506008015b612710831061449b57612710830492506004015b606483106144ad576064830492506002015b600a8310610ab95760010192915050565b60975460ff16156111965760405162461bcd60e51b815260206004820152602b60248201527f4552433732315061757361626c653a20746f6b656e207472616e73666572207760448201527f68696c65207061757365640000000000000000000000000000000000000000006064820152608401610b72565b61454081613fc1565b6040516001600160a01b038216907fbc7cd75a20ee27fd9adebab32041f755214dbc6bffa90cc0225b39da2e5c2d3b90600090a250565b6060611a8083836040518060600160405280602781526020016150ef6027913961473f565b6001600160a01b0382166145f25760405162461bcd60e51b815260206004820181905260248201527f4552433732313a206d696e7420746f20746865207a65726f20616464726573736044820152606401610b72565b6000818152606760205260409020546001600160a01b0316156146575760405162461bcd60e51b815260206004820152601c60248201527f4552433732313a20746f6b656e20616c7265616479206d696e746564000000006044820152606401610b72565b614665600083836001613e49565b6000818152606760205260409020546001600160a01b0316156146ca5760405162461bcd60e51b815260206004820152601c60248201527f4552433732313a20746f6b656e20616c7265616479206d696e746564000000006044820152606401610b72565b6001600160a01b038216600081815260686020908152604080832080546001019055848352606790915280822080546001600160a01b0319168417905551839291907fddf252ad1be2c89b69c2b068fc378daa952ba7f163c4a11628f55a4df523b3ef908290a46118e4600083836001613eb0565b6060600080856001600160a01b03168560405161475c9190614fda565b600060405180830381855af49150503d8060008114614797576040519150601f19603f3d011682016040523d82523d6000602084013e61479c565b606091505b50915091506147ad868383876147b7565b9695505050505050565b6060831561482357825161481c576001600160a01b0385163b61481c5760405162461bcd60e51b815260206004820152601d60248201527f416464726573733a2063616c6c20746f206e6f6e2d636f6e74726163740000006044820152606401610b72565b5081610dca565b610dca83838151156148385781518083602001fd5b8060405162461bcd60e51b8152600401610b72919061498f565b82805461485e90614ef4565b90600052602060002090601f01602090048101928261488057600085556148c6565b82601f1061489957805160ff19168380011785556148c6565b828001600101855582156148c6579182015b828111156148c65782518255916020019190600101906148ab565b506148d29291506148d6565b5090565b5b808211156148d257600081556001016148d7565b6001600160e01b03198116811461131557600080fd5b60006020828403121561491357600080fd5b8135611a80816148eb565b60006020828403121561493057600080fd5b5035919050565b60005b8381101561495257818101518382015260200161493a565b838111156111965750506000910152565b6000815180845261497b816020860160208601614937565b601f01601f19169290920160200192915050565b602081526000611a806020830184614963565b60008083601f8401126149b457600080fd5b50813567ffffffffffffffff8111156149cc57600080fd5b6020830191508360208285010111156149e457600080fd5b9250929050565b6001600160a01b038116811461131557600080fd5b60008060008060608587031215614a1657600080fd5b843567ffffffffffffffff811115614a2d57600080fd5b614a39878288016149a2565b9095509350506020850135614a4d816149eb565b91506040850135614a5d816149eb565b939692955090935050565b6020815260006001600160a01b0380845116602084015280602085015116604084015250604083015160a06060840152614aa560c0840182614963565b90506060840151151560808401526080840151151560a08401528091505092915050565b60008060408385031215614adc57600080fd5b8235614ae7816149eb565b946020939093013593505050565b600080600060608486031215614b0a57600080fd5b8335614b15816149eb565b92506020840135614b25816149eb565b929592945050506040919091013590565b60008083601f840112614b4857600080fd5b50813567ffffffffffffffff811115614b6057600080fd5b6020830191508360208260051b85010111156149e457600080fd5b801515811461131557600080fd5b600080600060408486031215614b9e57600080fd5b833567ffffffffffffffff811115614bb557600080fd5b614bc186828701614b36565b9094509250506020840135614bd581614b7b565b809150509250925092565b600060208284031215614bf257600080fd5b8135611a80816149eb565b60008060008060808587031215614c1357600080fd5b8435614c1e816149eb565b966020860135965060408601359560600135945092505050565b634e487b7160e01b600052604160045260246000fd5b600067ffffffffffffffff80841115614c6957614c69614c38565b604051601f8501601f19908116603f01168101908282118183101715614c9157614c91614c38565b81604052809350858152868686011115614caa57600080fd5b858560208301376000602087830101525050509392505050565b600082601f830112614cd557600080fd5b611a8083833560208501614c4e565b60008060408385031215614cf757600080fd5b8235614d02816149eb565b9150602083013567ffffffffffffffff811115614d1e57600080fd5b614d2a85828601614cc4565b9150509250929050565b60008060208385031215614d4757600080fd5b823567ffffffffffffffff811115614d5e57600080fd5b614d6a858286016149a2565b90969095509350505050565b60008060408385031215614d8957600080fd5b8235614d94816149eb565b91506020830135614da481614b7b565b809150509250929050565b60006001600160a01b03808816835280871660208401525060a06040830152614ddb60a0830186614963565b9315156060830152509015156080909101529392505050565b60008060008060808587031215614e0a57600080fd5b8435614e15816149eb565b93506020850135614e25816149eb565b925060408501359150606085013567ffffffffffffffff811115614e4857600080fd5b614e5487828801614cc4565b91505092959194509250565b600060208284031215614e7257600080fd5b813567ffffffffffffffff811115614e8957600080fd5b8201601f81018413614e9a57600080fd5b610dca84823560208401614c4e565b60008060408385031215614ebc57600080fd5b8235614ec7816149eb565b91506020830135614da4816149eb565b600060208284031215614ee957600080fd5b8151611a8081614b7b565b600181811c90821680614f0857607f821691505b60208210811415614f2957634e487b7160e01b600052602260045260246000fd5b50919050565b634e487b7160e01b600052603260045260246000fd5b634e487b7160e01b600052601160045260246000fd5b6000600019821415614f6f57614f6f614f45565b5060010190565b600060208284031215614f8857600080fd5b8151611a80816149eb565b6000808335601e19843603018112614faa57600080fd5b83018035915067ffffffffffffffff821115614fc557600080fd5b6020019150368190038213156149e457600080fd5b60008251614fec818460208701614937565b9190910192915050565b6040815260006150096040830185614963565b905082151560208301529392505050565b6000835161502c818460208801614937565b835190830190615040818360208801614937565b01949350505050565b6000821982111561505c5761505c614f45565b500190565b60006020828403121561507357600080fd5b5051919050565b600060ff821660ff84168060ff0382111561509757615097614f45565b019392505050565b60006001600160a01b038087168352808616602084015250836040830152608060608301526147ad6080830184614963565b6000602082840312156150e357600080fd5b8151611a80816148eb56fe416464726573733a206c6f772d6c6576656c2064656c65676174652063616c6c206661696c6564a2646970667358221220e98d44f181908620e0b823d1265c53e370ee00eeca5402b97fe7edde098f5b2d64736f6c634300080c0033",
  "devdoc": {
    "kind": "dev",
    "methods": {
      "approve(address,uint256)": {
        "details": "See {IERC721-approve}."
      },
      "balanceOf(address)": {
        "details": "See {IERC721-balanceOf}."
      },
      "burn(uint256)": {
        "details": "Burns `tokenId`. See {ERC721-_burn}. Requirements: - The caller must own `tokenId` or be an approved operator."
      },
      "computeTagId(string)": {
        "params": {
          "_tag": "Tag string."
        },
        "returns": {
          "_0": "Id of potential CTAG token id."
        }
      },
      "constructor": {
        "custom:oz-upgrades-unsafe-allow": "constructor"
      },
      "createTag(string,address,address)": {
        "params": {
          "_creator": "Address credited with creating CTAG.",
          "_tag": "Tag string."
        },
        "returns": {
          "_tokenId": "Id of CTAG token."
        }
      },
      "getApproved(uint256)": {
        "details": "See {IERC721-getApproved}."
      },
      "getCreatorAddress(uint256)": {
        "params": {
          "_tokenId": "CTAG token Id."
        },
        "returns": {
          "_0": "_creator Creator address of the CTAG."
        }
      },
      "getLastRenewed(uint256)": {
        "params": {
          "_tokenId": "CTAG token Id."
        },
        "returns": {
          "_0": "Block timestamp."
        }
      },
      "getOrCreateTagId(string,address,address)": {
        "params": {
          "_creator": "Address credited with creating CTAG.",
          "_relayer": "Address of Relayer contract calling ETS Core.",
          "_tag": "Tag string."
        },
        "returns": {
          "tokenId": "Id of CTAG token."
        }
      },
      "getOwnershipTermLength()": {
        "returns": {
          "_0": "Term length in days."
        }
      },
      "getPlatformAddress()": {
        "returns": {
          "_0": "wallet address for ETS Platform."
        }
      },
      "getTagById(uint256)": {
        "params": {
          "_tokenId": "CTAG token Id."
        },
        "returns": {
          "_0": "CTAG record as Tag struct."
        }
      },
      "getTagByString(string)": {
        "params": {
          "_tag": "Tag string."
        },
        "returns": {
          "_0": "CTAG record as Tag struct."
        }
      },
      "isApprovedForAll(address,address)": {
        "details": "See {IERC721-isApprovedForAll}."
      },
      "name()": {
        "details": "See {IERC721Metadata-name}."
      },
      "ownerOf(uint256)": {
        "details": "See {IERC721-ownerOf}."
      },
      "paused()": {
        "details": "Returns true if the contract is paused, and false otherwise."
      },
      "preSetPremiumTags(string[],bool)": {
        "params": {
          "_isPremium": "Boolean true for premium, false for not premium.",
          "_tags": "Array of tag strings."
        }
      },
      "proxiableUUID()": {
        "details": "Implementation of the ERC1822 {proxiableUUID} function. This returns the storage slot used by the implementation. It is used to validate the implementation's compatibility when performing an upgrade. IMPORTANT: A proxy pointing at a proxiable contract should not be considered proxiable itself, because this risks bricking a proxy that upgrades to it, by delegating to itself until out of gas. Thus it is critical that this function revert if invoked through a proxy. This is guaranteed by the `notDelegated` modifier."
      },
      "recycleTag(uint256)": {
        "params": {
          "_tokenId": "Id of CTAG token."
        }
      },
      "renewTag(uint256)": {
        "params": {
          "_tokenId": "Id of CTAG token."
        }
      },
      "safeTransferFrom(address,address,uint256)": {
        "details": "See {IERC721-safeTransferFrom}."
      },
      "safeTransferFrom(address,address,uint256,bytes)": {
        "details": "See {IERC721-safeTransferFrom}."
      },
      "setAccessControls(address)": {
        "params": {
          "_accessControls": "Address of ETSAccessControls contract."
        }
      },
      "setApprovalForAll(address,bool)": {
        "details": "See {IERC721-setApprovalForAll}."
      },
      "setETSCore(address)": {
        "params": {
          "_ets": "Address of ETS contract."
        }
      },
      "setOwnershipTermLength(uint256)": {
        "params": {
          "_ownershipTermLength": "Ownership term length in days."
        }
      },
      "setPremiumFlag(uint256[],bool)": {
        "params": {
          "_isPremium": "Boolean true for premium, false for not premium.",
          "_tokenIds": "Array of CTAG Ids."
        }
      },
      "setReservedFlag(uint256[],bool)": {
        "params": {
          "_reserved": "Boolean true for reserved, false for not reserved.",
          "_tokenIds": "Array of CTAG Ids."
        }
      },
      "setTagMaxStringLength(uint256)": {
        "params": {
          "_tagMaxStringLength": "maximum character length of string."
        }
      },
      "setTagMinStringLength(uint256)": {
        "params": {
          "_tagMinStringLength": "minimum character length of string."
        }
      },
      "symbol()": {
        "details": "See {IERC721Metadata-symbol}."
      },
      "tagExistsById(uint256)": {
        "params": {
          "_tokenId": "Token Id uint computed from tag string via computeTargetId()."
        },
        "returns": {
          "_0": "true if CTAG token exists; false if not."
        }
      },
      "tagExistsByString(string)": {
        "params": {
          "_tag": "Tag string."
        },
        "returns": {
          "_0": "true if CTAG token exists; false if not."
        }
      },
      "tagOwnershipTermExpired(uint256)": {
        "params": {
          "_tokenId": "Token Id uint computed from tag string via computeTargetId()."
        },
        "returns": {
          "_0": "true if CTAG ownership term has expired; false if not."
        }
      },
      "tokenURI(uint256)": {
        "details": "See {IERC721Metadata-tokenURI}."
      },
      "transferFrom(address,address,uint256)": {
        "details": "See {IERC721-transferFrom}."
      },
      "upgradeTo(address)": {
        "custom:oz-upgrades-unsafe-allow-reachable": "delegatecall",
        "details": "Upgrade the implementation of the proxy to `newImplementation`. Calls {_authorizeUpgrade}. Emits an {Upgraded} event."
      },
      "upgradeToAndCall(address,bytes)": {
        "custom:oz-upgrades-unsafe-allow-reachable": "delegatecall",
        "details": "Upgrade the implementation of the proxy to `newImplementation`, and subsequently execute the function call encoded in `data`. Calls {_authorizeUpgrade}. Emits an {Upgraded} event."
      }
    },
    "stateVariables": {
      "tokenIdToLastRenewed": {
        "details": "Mapping of tokenId to last renewal."
      },
      "tokenIdToTag": {
        "details": "Map of CTAG id to CTAG record."
      }
    },
    "version": 1
  },
  "userdoc": {
    "kind": "user",
    "methods": {
      "computeTagId(string)": {
        "notice": "Function to deterministically compute & return a CTAG token Id. Every CTAG token and it's associated data struct is mapped to by it's token Id. This Id is computed from the \"display\" tag string lowercased, hashed and cast as an unsigned integer. Note: Function does not verify if CTAG record exists."
      },
      "createTag(string,address,address)": {
        "notice": "Create CTAG token from tag string. Reverts if tag exists or is invalid. Only ETS Core can call this function."
      },
      "getCreatorAddress(uint256)": {
        "notice": "Retrieve Creator address for a CTAG token."
      },
      "getLastRenewed(uint256)": {
        "notice": "Retrieve last renewal block timestamp for a CTAG."
      },
      "getOrCreateTagId(string,address,address)": {
        "notice": "Get CTAG token Id from tag string. Combo function that accepts a tag string and returns it's CTAG token Id if it exists, or creates a new CTAG and returns corresponding Id. Only ETS Core can call this function."
      },
      "getOwnershipTermLength()": {
        "notice": "Retrieve CTAG ownership term length global setting."
      },
      "getPlatformAddress()": {
        "notice": "Retrieve wallet address for ETS Platform."
      },
      "getTagById(uint256)": {
        "notice": "Retrieve a CTAG record for a given token Id. Note: returns a struct with empty members when no CTAG exists."
      },
      "getTagByString(string)": {
        "notice": "Retrieve a CTAG record for a given tag string. Note: returns a struct with empty members when no CTAG exists."
      },
      "isTagPremium(string)": {
        "notice": "Defines whether a tag has been set up as premium"
      },
      "pause()": {
        "notice": "Pauses ETSToken contract."
      },
      "preSetPremiumTags(string[],bool)": {
        "notice": "Admin function to flag/unflag tag string(s) as premium prior to minting."
      },
      "recycleTag(uint256)": {
        "notice": "Recycles a CTAG back to ETS. When ownership term of a CTAG has expired, any wallet or contract may call this function to recycle the tag back to ETS. Once recycled, a tag may be auctioned again."
      },
      "renewTag(uint256)": {
        "notice": "Renews ownership term of a CTAG. A \"CTAG ownership term\" is utilized to prevent CTAGs from being abandoned or inaccessable due to lost private keys. Any wallet address may renew the term of a CTAG for an owner. When renewed, the term is extended from the current block timestamp plus the ownershipTermLength public variable."
      },
      "setAccessControls(address)": {
        "notice": "Sets ETSAccessControls on the ETSToken contract function calls can be restricted to ETS platform only. Note: Caller of this function must be deployer or pre-set as admin of new contract."
      },
      "setETSCore(address)": {
        "notice": "Sets ETS core on the ETSToken contract so functions can be restricted to ETS platform only."
      },
      "setOwnershipTermLength(uint256)": {
        "notice": "Admin function to set the ownership term length of a CTAG is set."
      },
      "setPremiumFlag(uint256[],bool)": {
        "notice": "Admin function to flag/unflag CTAG(s) as premium."
      },
      "setReservedFlag(uint256[],bool)": {
        "notice": "Admin function to flag/unflag CTAG(s) as reserved. Tags flagged as reserved cannot be auctioned."
      },
      "setTagMaxStringLength(uint256)": {
        "notice": "admin function to set maximum character length of CTAG display string."
      },
      "setTagMinStringLength(uint256)": {
        "notice": "Admin function to set minimum  character length of CTAG display string."
      },
      "tagExistsById(uint256)": {
        "notice": "Check that CTAG token exists for a given computed token Id."
      },
      "tagExistsByString(string)": {
        "notice": "Check that a CTAG token exists for a given tag string."
      },
      "tagOwnershipTermExpired(uint256)": {
        "notice": "Check if CTAG token ownership term has expired."
      },
      "unPause()": {
        "notice": "Unpauses ETSToken contract."
      }
    },
    "version": 1
  },
  "storageLayout": {
    "storage": [
      {
        "astId": 782,
        "contract": "contracts/ETSToken.sol:ETSToken",
        "label": "_initialized",
        "offset": 0,
        "slot": "0",
        "type": "t_uint8"
      },
      {
        "astId": 785,
        "contract": "contracts/ETSToken.sol:ETSToken",
        "label": "_initializing",
        "offset": 1,
        "slot": "0",
        "type": "t_bool"
      },
      {
        "astId": 3393,
        "contract": "contracts/ETSToken.sol:ETSToken",
        "label": "__gap",
        "offset": 0,
        "slot": "1",
        "type": "t_array(t_uint256)50_storage"
      },
      {
        "astId": 4045,
        "contract": "contracts/ETSToken.sol:ETSToken",
        "label": "__gap",
        "offset": 0,
        "slot": "51",
        "type": "t_array(t_uint256)50_storage"
      },
      {
        "astId": 1814,
        "contract": "contracts/ETSToken.sol:ETSToken",
        "label": "_name",
        "offset": 0,
        "slot": "101",
        "type": "t_string_storage"
      },
      {
        "astId": 1816,
        "contract": "contracts/ETSToken.sol:ETSToken",
        "label": "_symbol",
        "offset": 0,
        "slot": "102",
        "type": "t_string_storage"
      },
      {
        "astId": 1820,
        "contract": "contracts/ETSToken.sol:ETSToken",
        "label": "_owners",
        "offset": 0,
        "slot": "103",
        "type": "t_mapping(t_uint256,t_address)"
      },
      {
        "astId": 1824,
        "contract": "contracts/ETSToken.sol:ETSToken",
        "label": "_balances",
        "offset": 0,
        "slot": "104",
        "type": "t_mapping(t_address,t_uint256)"
      },
      {
        "astId": 1828,
        "contract": "contracts/ETSToken.sol:ETSToken",
        "label": "_tokenApprovals",
        "offset": 0,
        "slot": "105",
        "type": "t_mapping(t_uint256,t_address)"
      },
      {
        "astId": 1834,
        "contract": "contracts/ETSToken.sol:ETSToken",
        "label": "_operatorApprovals",
        "offset": 0,
        "slot": "106",
        "type": "t_mapping(t_address,t_mapping(t_address,t_bool))"
      },
      {
        "astId": 2736,
        "contract": "contracts/ETSToken.sol:ETSToken",
        "label": "__gap",
        "offset": 0,
        "slot": "107",
        "type": "t_array(t_uint256)44_storage"
      },
      {
        "astId": 1103,
        "contract": "contracts/ETSToken.sol:ETSToken",
        "label": "_paused",
        "offset": 0,
        "slot": "151",
        "type": "t_bool"
      },
      {
        "astId": 1208,
        "contract": "contracts/ETSToken.sol:ETSToken",
        "label": "__gap",
        "offset": 0,
        "slot": "152",
        "type": "t_array(t_uint256)49_storage"
      },
      {
        "astId": 2985,
        "contract": "contracts/ETSToken.sol:ETSToken",
        "label": "__gap",
        "offset": 0,
        "slot": "201",
        "type": "t_array(t_uint256)50_storage"
      },
      {
        "astId": 2921,
        "contract": "contracts/ETSToken.sol:ETSToken",
        "label": "__gap",
        "offset": 0,
        "slot": "251",
        "type": "t_array(t_uint256)50_storage"
      },
      {
        "astId": 1224,
        "contract": "contracts/ETSToken.sol:ETSToken",
        "label": "_status",
        "offset": 0,
        "slot": "301",
        "type": "t_uint256"
      },
      {
        "astId": 1293,
        "contract": "contracts/ETSToken.sol:ETSToken",
        "label": "__gap",
        "offset": 0,
        "slot": "302",
        "type": "t_array(t_uint256)49_storage"
      },
      {
        "astId": 764,
        "contract": "contracts/ETSToken.sol:ETSToken",
        "label": "__gap",
        "offset": 0,
        "slot": "351",
        "type": "t_array(t_uint256)50_storage"
      },
      {
        "astId": 1080,
        "contract": "contracts/ETSToken.sol:ETSToken",
        "label": "__gap",
        "offset": 0,
        "slot": "401",
        "type": "t_array(t_uint256)50_storage"
      },
      {
        "astId": 9260,
        "contract": "contracts/ETSToken.sol:ETSToken",
        "label": "ets",
        "offset": 0,
        "slot": "451",
        "type": "t_contract(IETS)10707"
      },
      {
        "astId": 9263,
        "contract": "contracts/ETSToken.sol:ETSToken",
        "label": "etsAccessControls",
        "offset": 0,
        "slot": "452",
        "type": "t_contract(IETSAccessControls)10893"
      },
      {
        "astId": 9271,
        "contract": "contracts/ETSToken.sol:ETSToken",
        "label": "tagMinStringLength",
        "offset": 0,
        "slot": "453",
        "type": "t_uint256"
      },
      {
        "astId": 9273,
        "contract": "contracts/ETSToken.sol:ETSToken",
        "label": "tagMaxStringLength",
        "offset": 0,
        "slot": "454",
        "type": "t_uint256"
      },
      {
        "astId": 9275,
        "contract": "contracts/ETSToken.sol:ETSToken",
        "label": "ownershipTermLength",
        "offset": 0,
        "slot": "455",
        "type": "t_uint256"
      },
      {
        "astId": 9281,
        "contract": "contracts/ETSToken.sol:ETSToken",
        "label": "tokenIdToTag",
        "offset": 0,
        "slot": "456",
        "type": "t_mapping(t_uint256,t_struct(Tag)11236_storage)"
      },
      {
        "astId": 9286,
        "contract": "contracts/ETSToken.sol:ETSToken",
        "label": "tokenIdToLastRenewed",
        "offset": 0,
        "slot": "457",
        "type": "t_mapping(t_uint256,t_uint256)"
      },
      {
        "astId": 9291,
        "contract": "contracts/ETSToken.sol:ETSToken",
        "label": "isTagPremium",
        "offset": 0,
        "slot": "458",
        "type": "t_mapping(t_string_memory_ptr,t_bool)"
      }
    ],
    "types": {
      "t_address": {
        "encoding": "inplace",
        "label": "address",
        "numberOfBytes": "20"
      },
      "t_array(t_uint256)44_storage": {
        "base": "t_uint256",
        "encoding": "inplace",
        "label": "uint256[44]",
        "numberOfBytes": "1408"
      },
      "t_array(t_uint256)49_storage": {
        "base": "t_uint256",
        "encoding": "inplace",
        "label": "uint256[49]",
        "numberOfBytes": "1568"
      },
      "t_array(t_uint256)50_storage": {
        "base": "t_uint256",
        "encoding": "inplace",
        "label": "uint256[50]",
        "numberOfBytes": "1600"
      },
      "t_bool": {
        "encoding": "inplace",
        "label": "bool",
        "numberOfBytes": "1"
      },
      "t_contract(IETS)10707": {
        "encoding": "inplace",
        "label": "contract IETS",
        "numberOfBytes": "20"
      },
      "t_contract(IETSAccessControls)10893": {
        "encoding": "inplace",
        "label": "contract IETSAccessControls",
        "numberOfBytes": "20"
      },
      "t_mapping(t_address,t_bool)": {
        "encoding": "mapping",
        "key": "t_address",
        "label": "mapping(address => bool)",
        "numberOfBytes": "32",
        "value": "t_bool"
      },
      "t_mapping(t_address,t_mapping(t_address,t_bool))": {
        "encoding": "mapping",
        "key": "t_address",
        "label": "mapping(address => mapping(address => bool))",
        "numberOfBytes": "32",
        "value": "t_mapping(t_address,t_bool)"
      },
      "t_mapping(t_address,t_uint256)": {
        "encoding": "mapping",
        "key": "t_address",
        "label": "mapping(address => uint256)",
        "numberOfBytes": "32",
        "value": "t_uint256"
      },
      "t_mapping(t_string_memory_ptr,t_bool)": {
        "encoding": "mapping",
        "key": "t_string_memory_ptr",
        "label": "mapping(string => bool)",
        "numberOfBytes": "32",
        "value": "t_bool"
      },
      "t_mapping(t_uint256,t_address)": {
        "encoding": "mapping",
        "key": "t_uint256",
        "label": "mapping(uint256 => address)",
        "numberOfBytes": "32",
        "value": "t_address"
      },
      "t_mapping(t_uint256,t_struct(Tag)11236_storage)": {
        "encoding": "mapping",
        "key": "t_uint256",
        "label": "mapping(uint256 => struct IETSToken.Tag)",
        "numberOfBytes": "32",
        "value": "t_struct(Tag)11236_storage"
      },
      "t_mapping(t_uint256,t_uint256)": {
        "encoding": "mapping",
        "key": "t_uint256",
        "label": "mapping(uint256 => uint256)",
        "numberOfBytes": "32",
        "value": "t_uint256"
      },
      "t_string_memory_ptr": {
        "encoding": "bytes",
        "label": "string",
        "numberOfBytes": "32"
      },
      "t_string_storage": {
        "encoding": "bytes",
        "label": "string",
        "numberOfBytes": "32"
      },
      "t_struct(Tag)11236_storage": {
        "encoding": "inplace",
        "label": "struct IETSToken.Tag",
        "members": [
          {
            "astId": 11227,
            "contract": "contracts/ETSToken.sol:ETSToken",
            "label": "relayer",
            "offset": 0,
            "slot": "0",
            "type": "t_address"
          },
          {
            "astId": 11229,
            "contract": "contracts/ETSToken.sol:ETSToken",
            "label": "creator",
            "offset": 0,
            "slot": "1",
            "type": "t_address"
          },
          {
            "astId": 11231,
            "contract": "contracts/ETSToken.sol:ETSToken",
            "label": "display",
            "offset": 0,
            "slot": "2",
            "type": "t_string_storage"
          },
          {
            "astId": 11233,
            "contract": "contracts/ETSToken.sol:ETSToken",
            "label": "premium",
            "offset": 0,
            "slot": "3",
            "type": "t_bool"
          },
          {
            "astId": 11235,
            "contract": "contracts/ETSToken.sol:ETSToken",
            "label": "reserved",
            "offset": 1,
            "slot": "3",
            "type": "t_bool"
          }
        ],
        "numberOfBytes": "128"
      },
      "t_uint256": {
        "encoding": "inplace",
        "label": "uint256",
        "numberOfBytes": "32"
      },
      "t_uint8": {
        "encoding": "inplace",
        "label": "uint8",
        "numberOfBytes": "1"
      }
    }
  }
}