{
  "address": "0x428fcc3Ac338d8a691eAD046DC9B83B042AEF636",
  "abi": [
    {
      "inputs": [],
      "stateMutability": "nonpayable",
      "type": "constructor"
    },
    {
      "anonymous": false,
      "inputs": [
        {
          "indexed": false,
          "internalType": "address",
          "name": "etsAccessControls",
          "type": "address"
        }
      ],
      "name": "AccessControlsSet",
      "type": "event"
    },
    {
      "anonymous": false,
      "inputs": [
        {
          "indexed": false,
          "internalType": "address",
          "name": "previousAdmin",
          "type": "address"
        },
        {
          "indexed": false,
          "internalType": "address",
          "name": "newAdmin",
          "type": "address"
        }
      ],
      "name": "AdminChanged",
      "type": "event"
    },
    {
      "anonymous": false,
      "inputs": [
        {
          "indexed": true,
          "internalType": "address",
          "name": "owner",
          "type": "address"
        },
        {
          "indexed": true,
          "internalType": "address",
          "name": "approved",
          "type": "address"
        },
        {
          "indexed": true,
          "internalType": "uint256",
          "name": "tokenId",
          "type": "uint256"
        }
      ],
      "name": "Approval",
      "type": "event"
    },
    {
      "anonymous": false,
      "inputs": [
        {
          "indexed": true,
          "internalType": "address",
          "name": "owner",
          "type": "address"
        },
        {
          "indexed": true,
          "internalType": "address",
          "name": "operator",
          "type": "address"
        },
        {
          "indexed": false,
          "internalType": "bool",
          "name": "approved",
          "type": "bool"
        }
      ],
      "name": "ApprovalForAll",
      "type": "event"
    },
    {
      "anonymous": false,
      "inputs": [
        {
          "indexed": true,
          "internalType": "address",
          "name": "beacon",
          "type": "address"
        }
      ],
      "name": "BeaconUpgraded",
      "type": "event"
    },
    {
      "anonymous": false,
      "inputs": [
        {
          "indexed": false,
          "internalType": "address",
          "name": "ets",
          "type": "address"
        }
      ],
      "name": "ETSCoreSet",
      "type": "event"
    },
    {
      "anonymous": false,
      "inputs": [
        {
          "indexed": false,
          "internalType": "uint8",
          "name": "version",
          "type": "uint8"
        }
      ],
      "name": "Initialized",
      "type": "event"
    },
    {
      "anonymous": false,
      "inputs": [
        {
          "indexed": false,
          "internalType": "uint256",
          "name": "termLength",
          "type": "uint256"
        }
      ],
      "name": "OwnershipTermLengthSet",
      "type": "event"
    },
    {
      "anonymous": false,
      "inputs": [
        {
          "indexed": false,
          "internalType": "address",
          "name": "account",
          "type": "address"
        }
      ],
      "name": "Paused",
      "type": "event"
    },
    {
      "anonymous": false,
      "inputs": [
        {
          "indexed": false,
          "internalType": "uint256",
          "name": "tagId",
          "type": "uint256"
        },
        {
          "indexed": false,
          "internalType": "bool",
          "name": "isPremium",
          "type": "bool"
        }
      ],
      "name": "PremiumFlagSet",
      "type": "event"
    },
    {
      "anonymous": false,
      "inputs": [
        {
          "indexed": false,
          "internalType": "string",
          "name": "tag",
          "type": "string"
        },
        {
          "indexed": false,
          "internalType": "bool",
          "name": "isPremium",
          "type": "bool"
        }
      ],
      "name": "PremiumTagPreSet",
      "type": "event"
    },
    {
      "anonymous": false,
      "inputs": [
        {
          "indexed": false,
          "internalType": "uint256",
          "name": "tagId",
          "type": "uint256"
        },
        {
          "indexed": false,
          "internalType": "bool",
          "name": "isReserved",
          "type": "bool"
        }
      ],
      "name": "ReservedFlagSet",
      "type": "event"
    },
    {
      "anonymous": false,
      "inputs": [
        {
          "indexed": false,
          "internalType": "uint256",
          "name": "maxStringLength",
          "type": "uint256"
        }
      ],
      "name": "TagMaxStringLengthSet",
      "type": "event"
    },
    {
      "anonymous": false,
      "inputs": [
        {
          "indexed": false,
          "internalType": "uint256",
          "name": "minStringLength",
          "type": "uint256"
        }
      ],
      "name": "TagMinStringLengthSet",
      "type": "event"
    },
    {
      "anonymous": false,
      "inputs": [
        {
          "indexed": true,
          "internalType": "uint256",
          "name": "tokenId",
          "type": "uint256"
        },
        {
          "indexed": true,
          "internalType": "address",
          "name": "caller",
          "type": "address"
        }
      ],
      "name": "TagRecycled",
      "type": "event"
    },
    {
      "anonymous": false,
      "inputs": [
        {
          "indexed": true,
          "internalType": "uint256",
          "name": "tokenId",
          "type": "uint256"
        },
        {
          "indexed": true,
          "internalType": "address",
          "name": "caller",
          "type": "address"
        }
      ],
      "name": "TagRenewed",
      "type": "event"
    },
    {
      "anonymous": false,
      "inputs": [
        {
          "indexed": true,
          "internalType": "address",
          "name": "from",
          "type": "address"
        },
        {
          "indexed": true,
          "internalType": "address",
          "name": "to",
          "type": "address"
        },
        {
          "indexed": true,
          "internalType": "uint256",
          "name": "tokenId",
          "type": "uint256"
        }
      ],
      "name": "Transfer",
      "type": "event"
    },
    {
      "anonymous": false,
      "inputs": [
        {
          "indexed": false,
          "internalType": "address",
          "name": "account",
          "type": "address"
        }
      ],
      "name": "Unpaused",
      "type": "event"
    },
    {
      "anonymous": false,
      "inputs": [
        {
          "indexed": true,
          "internalType": "address",
          "name": "implementation",
          "type": "address"
        }
      ],
      "name": "Upgraded",
      "type": "event"
    },
    {
      "inputs": [],
      "name": "NAME",
      "outputs": [
        {
          "internalType": "string",
          "name": "",
          "type": "string"
        }
      ],
      "stateMutability": "view",
      "type": "function"
    },
    {
      "inputs": [
        {
          "internalType": "address",
          "name": "to",
          "type": "address"
        },
        {
          "internalType": "uint256",
          "name": "tokenId",
          "type": "uint256"
        }
      ],
      "name": "approve",
      "outputs": [],
      "stateMutability": "nonpayable",
      "type": "function"
    },
    {
      "inputs": [
        {
          "internalType": "address",
          "name": "owner",
          "type": "address"
        }
      ],
      "name": "balanceOf",
      "outputs": [
        {
          "internalType": "uint256",
          "name": "",
          "type": "uint256"
        }
      ],
      "stateMutability": "view",
      "type": "function"
    },
    {
      "inputs": [
        {
          "internalType": "uint256",
          "name": "tokenId",
          "type": "uint256"
        }
      ],
      "name": "burn",
      "outputs": [],
      "stateMutability": "nonpayable",
      "type": "function"
    },
    {
      "inputs": [
        {
          "internalType": "string",
          "name": "_tag",
          "type": "string"
        }
      ],
      "name": "computeTagId",
      "outputs": [
        {
          "internalType": "uint256",
          "name": "",
          "type": "uint256"
        }
      ],
      "stateMutability": "pure",
      "type": "function"
    },
    {
      "inputs": [
        {
          "internalType": "string",
          "name": "_tag",
          "type": "string"
        },
        {
          "internalType": "address payable",
          "name": "_relayer",
          "type": "address"
        },
        {
          "internalType": "address payable",
          "name": "_creator",
          "type": "address"
        }
      ],
      "name": "createTag",
      "outputs": [
        {
          "internalType": "uint256",
          "name": "_tokenId",
          "type": "uint256"
        }
      ],
      "stateMutability": "payable",
      "type": "function"
    },
    {
      "inputs": [],
      "name": "ets",
      "outputs": [
        {
          "internalType": "contract IETS",
          "name": "",
          "type": "address"
        }
      ],
      "stateMutability": "view",
      "type": "function"
    },
    {
      "inputs": [],
      "name": "etsAccessControls",
      "outputs": [
        {
          "internalType": "contract IETSAccessControls",
          "name": "",
          "type": "address"
        }
      ],
      "stateMutability": "view",
      "type": "function"
    },
    {
      "inputs": [
        {
          "internalType": "uint256",
          "name": "tokenId",
          "type": "uint256"
        }
      ],
      "name": "getApproved",
      "outputs": [
        {
          "internalType": "address",
          "name": "",
          "type": "address"
        }
      ],
      "stateMutability": "view",
      "type": "function"
    },
    {
      "inputs": [
        {
          "internalType": "uint256",
          "name": "_tokenId",
          "type": "uint256"
        }
      ],
      "name": "getCreatorAddress",
      "outputs": [
        {
          "internalType": "address",
          "name": "",
          "type": "address"
        }
      ],
      "stateMutability": "view",
      "type": "function"
    },
    {
      "inputs": [
        {
          "internalType": "uint256",
          "name": "_tokenId",
          "type": "uint256"
        }
      ],
      "name": "getLastRenewed",
      "outputs": [
        {
          "internalType": "uint256",
          "name": "",
          "type": "uint256"
        }
      ],
      "stateMutability": "view",
      "type": "function"
    },
    {
      "inputs": [
        {
          "internalType": "string",
          "name": "_tag",
          "type": "string"
        },
        {
          "internalType": "address payable",
          "name": "_relayer",
          "type": "address"
        },
        {
          "internalType": "address payable",
          "name": "_creator",
          "type": "address"
        }
      ],
      "name": "getOrCreateTag",
      "outputs": [
        {
          "components": [
            {
              "internalType": "address",
              "name": "relayer",
              "type": "address"
            },
            {
              "internalType": "address",
              "name": "creator",
              "type": "address"
            },
            {
              "internalType": "string",
              "name": "display",
              "type": "string"
            },
            {
              "internalType": "bool",
              "name": "premium",
              "type": "bool"
            },
            {
              "internalType": "bool",
              "name": "reserved",
              "type": "bool"
            }
          ],
          "internalType": "struct IETSToken.Tag",
          "name": "tag",
          "type": "tuple"
        }
      ],
      "stateMutability": "payable",
      "type": "function"
    },
    {
      "inputs": [
        {
          "internalType": "string",
          "name": "_tag",
          "type": "string"
        },
        {
          "internalType": "address payable",
          "name": "_relayer",
          "type": "address"
        },
        {
          "internalType": "address payable",
          "name": "_creator",
          "type": "address"
        }
      ],
      "name": "getOrCreateTagId",
      "outputs": [
        {
          "internalType": "uint256",
          "name": "tokenId",
          "type": "uint256"
        }
      ],
      "stateMutability": "payable",
      "type": "function"
    },
    {
      "inputs": [],
      "name": "getOwnershipTermLength",
      "outputs": [
        {
          "internalType": "uint256",
          "name": "",
          "type": "uint256"
        }
      ],
      "stateMutability": "view",
      "type": "function"
    },
    {
      "inputs": [],
      "name": "getPlatformAddress",
      "outputs": [
        {
          "internalType": "address payable",
          "name": "",
          "type": "address"
        }
      ],
      "stateMutability": "view",
      "type": "function"
    },
    {
      "inputs": [
        {
          "internalType": "uint256",
          "name": "_tokenId",
          "type": "uint256"
        }
      ],
      "name": "getTagById",
      "outputs": [
        {
          "components": [
            {
              "internalType": "address",
              "name": "relayer",
              "type": "address"
            },
            {
              "internalType": "address",
              "name": "creator",
              "type": "address"
            },
            {
              "internalType": "string",
              "name": "display",
              "type": "string"
            },
            {
              "internalType": "bool",
              "name": "premium",
              "type": "bool"
            },
            {
              "internalType": "bool",
              "name": "reserved",
              "type": "bool"
            }
          ],
          "internalType": "struct IETSToken.Tag",
          "name": "",
          "type": "tuple"
        }
      ],
      "stateMutability": "view",
      "type": "function"
    },
    {
      "inputs": [
        {
          "internalType": "string",
          "name": "_tag",
          "type": "string"
        }
      ],
      "name": "getTagByString",
      "outputs": [
        {
          "components": [
            {
              "internalType": "address",
              "name": "relayer",
              "type": "address"
            },
            {
              "internalType": "address",
              "name": "creator",
              "type": "address"
            },
            {
              "internalType": "string",
              "name": "display",
              "type": "string"
            },
            {
              "internalType": "bool",
              "name": "premium",
              "type": "bool"
            },
            {
              "internalType": "bool",
              "name": "reserved",
              "type": "bool"
            }
          ],
          "internalType": "struct IETSToken.Tag",
          "name": "",
          "type": "tuple"
        }
      ],
      "stateMutability": "view",
      "type": "function"
    },
    {
      "inputs": [
        {
          "internalType": "contract IETSAccessControls",
          "name": "_etsAccessControls",
          "type": "address"
        },
        {
          "internalType": "uint256",
          "name": "_tagMinStringLength",
          "type": "uint256"
        },
        {
          "internalType": "uint256",
          "name": "_tagMaxStringLength",
          "type": "uint256"
        },
        {
          "internalType": "uint256",
          "name": "_ownershipTermLength",
          "type": "uint256"
        }
      ],
      "name": "initialize",
      "outputs": [],
      "stateMutability": "nonpayable",
      "type": "function"
    },
    {
      "inputs": [
        {
          "internalType": "address",
          "name": "owner",
          "type": "address"
        },
        {
          "internalType": "address",
          "name": "operator",
          "type": "address"
        }
      ],
      "name": "isApprovedForAll",
      "outputs": [
        {
          "internalType": "bool",
          "name": "",
          "type": "bool"
        }
      ],
      "stateMutability": "view",
      "type": "function"
    },
    {
      "inputs": [
        {
          "internalType": "string",
          "name": "",
          "type": "string"
        }
      ],
      "name": "isTagPremium",
      "outputs": [
        {
          "internalType": "bool",
          "name": "",
          "type": "bool"
        }
      ],
      "stateMutability": "view",
      "type": "function"
    },
    {
      "inputs": [],
      "name": "name",
      "outputs": [
        {
          "internalType": "string",
          "name": "",
          "type": "string"
        }
      ],
      "stateMutability": "view",
      "type": "function"
    },
    {
      "inputs": [
        {
          "internalType": "uint256",
          "name": "tokenId",
          "type": "uint256"
        }
      ],
      "name": "ownerOf",
      "outputs": [
        {
          "internalType": "address",
          "name": "",
          "type": "address"
        }
      ],
      "stateMutability": "view",
      "type": "function"
    },
    {
      "inputs": [],
      "name": "ownershipTermLength",
      "outputs": [
        {
          "internalType": "uint256",
          "name": "",
          "type": "uint256"
        }
      ],
      "stateMutability": "view",
      "type": "function"
    },
    {
      "inputs": [],
      "name": "pause",
      "outputs": [],
      "stateMutability": "nonpayable",
      "type": "function"
    },
    {
      "inputs": [],
      "name": "paused",
      "outputs": [
        {
          "internalType": "bool",
          "name": "",
          "type": "bool"
        }
      ],
      "stateMutability": "view",
      "type": "function"
    },
    {
      "inputs": [
        {
          "internalType": "string[]",
          "name": "_tags",
          "type": "string[]"
        },
        {
          "internalType": "bool",
          "name": "_enabled",
          "type": "bool"
        }
      ],
      "name": "preSetPremiumTags",
      "outputs": [],
      "stateMutability": "nonpayable",
      "type": "function"
    },
    {
      "inputs": [],
      "name": "proxiableUUID",
      "outputs": [
        {
          "internalType": "bytes32",
          "name": "",
          "type": "bytes32"
        }
      ],
      "stateMutability": "view",
      "type": "function"
    },
    {
      "inputs": [
        {
          "internalType": "uint256",
          "name": "_tokenId",
          "type": "uint256"
        }
      ],
      "name": "recycleTag",
      "outputs": [],
      "stateMutability": "nonpayable",
      "type": "function"
    },
    {
      "inputs": [
        {
          "internalType": "uint256",
          "name": "_tokenId",
          "type": "uint256"
        }
      ],
      "name": "renewTag",
      "outputs": [],
      "stateMutability": "nonpayable",
      "type": "function"
    },
    {
      "inputs": [
        {
          "internalType": "address",
          "name": "from",
          "type": "address"
        },
        {
          "internalType": "address",
          "name": "to",
          "type": "address"
        },
        {
          "internalType": "uint256",
          "name": "tokenId",
          "type": "uint256"
        }
      ],
      "name": "safeTransferFrom",
      "outputs": [],
      "stateMutability": "nonpayable",
      "type": "function"
    },
    {
      "inputs": [
        {
          "internalType": "address",
          "name": "from",
          "type": "address"
        },
        {
          "internalType": "address",
          "name": "to",
          "type": "address"
        },
        {
          "internalType": "uint256",
          "name": "tokenId",
          "type": "uint256"
        },
        {
          "internalType": "bytes",
          "name": "data",
          "type": "bytes"
        }
      ],
      "name": "safeTransferFrom",
      "outputs": [],
      "stateMutability": "nonpayable",
      "type": "function"
    },
    {
      "inputs": [
        {
          "internalType": "contract IETSAccessControls",
          "name": "_accessControls",
          "type": "address"
        }
      ],
      "name": "setAccessControls",
      "outputs": [],
      "stateMutability": "nonpayable",
      "type": "function"
    },
    {
      "inputs": [
        {
          "internalType": "address",
          "name": "operator",
          "type": "address"
        },
        {
          "internalType": "bool",
          "name": "approved",
          "type": "bool"
        }
      ],
      "name": "setApprovalForAll",
      "outputs": [],
      "stateMutability": "nonpayable",
      "type": "function"
    },
    {
      "inputs": [
        {
          "internalType": "contract IETS",
          "name": "_ets",
          "type": "address"
        }
      ],
      "name": "setETSCore",
      "outputs": [],
      "stateMutability": "nonpayable",
      "type": "function"
    },
    {
      "inputs": [
        {
          "internalType": "uint256",
          "name": "_ownershipTermLength",
          "type": "uint256"
        }
      ],
      "name": "setOwnershipTermLength",
      "outputs": [],
      "stateMutability": "nonpayable",
      "type": "function"
    },
    {
      "inputs": [
        {
          "internalType": "uint256[]",
          "name": "_tokenIds",
          "type": "uint256[]"
        },
        {
          "internalType": "bool",
          "name": "_isPremium",
          "type": "bool"
        }
      ],
      "name": "setPremiumFlag",
      "outputs": [],
      "stateMutability": "nonpayable",
      "type": "function"
    },
    {
      "inputs": [
        {
          "internalType": "uint256[]",
          "name": "_tokenIds",
          "type": "uint256[]"
        },
        {
          "internalType": "bool",
          "name": "_reserved",
          "type": "bool"
        }
      ],
      "name": "setReservedFlag",
      "outputs": [],
      "stateMutability": "nonpayable",
      "type": "function"
    },
    {
      "inputs": [
        {
          "internalType": "uint256",
          "name": "_tagMaxStringLength",
          "type": "uint256"
        }
      ],
      "name": "setTagMaxStringLength",
      "outputs": [],
      "stateMutability": "nonpayable",
      "type": "function"
    },
    {
      "inputs": [
        {
          "internalType": "uint256",
          "name": "_tagMinStringLength",
          "type": "uint256"
        }
      ],
      "name": "setTagMinStringLength",
      "outputs": [],
      "stateMutability": "nonpayable",
      "type": "function"
    },
    {
      "inputs": [
        {
          "internalType": "bytes4",
          "name": "interfaceId",
          "type": "bytes4"
        }
      ],
      "name": "supportsInterface",
      "outputs": [
        {
          "internalType": "bool",
          "name": "",
          "type": "bool"
        }
      ],
      "stateMutability": "view",
      "type": "function"
    },
    {
      "inputs": [],
      "name": "symbol",
      "outputs": [
        {
          "internalType": "string",
          "name": "",
          "type": "string"
        }
      ],
      "stateMutability": "view",
      "type": "function"
    },
    {
      "inputs": [
        {
          "internalType": "uint256",
          "name": "_tokenId",
          "type": "uint256"
        }
      ],
      "name": "tagExistsById",
      "outputs": [
        {
          "internalType": "bool",
          "name": "",
          "type": "bool"
        }
      ],
      "stateMutability": "view",
      "type": "function"
    },
    {
      "inputs": [
        {
          "internalType": "string",
          "name": "_tag",
          "type": "string"
        }
      ],
      "name": "tagExistsByString",
      "outputs": [
        {
          "internalType": "bool",
          "name": "",
          "type": "bool"
        }
      ],
      "stateMutability": "view",
      "type": "function"
    },
    {
      "inputs": [],
      "name": "tagMaxStringLength",
      "outputs": [
        {
          "internalType": "uint256",
          "name": "",
          "type": "uint256"
        }
      ],
      "stateMutability": "view",
      "type": "function"
    },
    {
      "inputs": [],
      "name": "tagMinStringLength",
      "outputs": [
        {
          "internalType": "uint256",
          "name": "",
          "type": "uint256"
        }
      ],
      "stateMutability": "view",
      "type": "function"
    },
    {
      "inputs": [
        {
          "internalType": "uint256",
          "name": "_tokenId",
          "type": "uint256"
        }
      ],
      "name": "tagOwnershipTermExpired",
      "outputs": [
        {
          "internalType": "bool",
          "name": "",
          "type": "bool"
        }
      ],
      "stateMutability": "view",
      "type": "function"
    },
    {
      "inputs": [
        {
          "internalType": "uint256",
          "name": "",
          "type": "uint256"
        }
      ],
      "name": "tokenIdToLastRenewed",
      "outputs": [
        {
          "internalType": "uint256",
          "name": "",
          "type": "uint256"
        }
      ],
      "stateMutability": "view",
      "type": "function"
    },
    {
      "inputs": [
        {
          "internalType": "uint256",
          "name": "",
          "type": "uint256"
        }
      ],
      "name": "tokenIdToTag",
      "outputs": [
        {
          "internalType": "address",
          "name": "relayer",
          "type": "address"
        },
        {
          "internalType": "address",
          "name": "creator",
          "type": "address"
        },
        {
          "internalType": "string",
          "name": "display",
          "type": "string"
        },
        {
          "internalType": "bool",
          "name": "premium",
          "type": "bool"
        },
        {
          "internalType": "bool",
          "name": "reserved",
          "type": "bool"
        }
      ],
      "stateMutability": "view",
      "type": "function"
    },
    {
      "inputs": [
        {
          "internalType": "uint256",
          "name": "tokenId",
          "type": "uint256"
        }
      ],
      "name": "tokenURI",
      "outputs": [
        {
          "internalType": "string",
          "name": "",
          "type": "string"
        }
      ],
      "stateMutability": "view",
      "type": "function"
    },
    {
      "inputs": [
        {
          "internalType": "address",
          "name": "from",
          "type": "address"
        },
        {
          "internalType": "address",
          "name": "to",
          "type": "address"
        },
        {
          "internalType": "uint256",
          "name": "tokenId",
          "type": "uint256"
        }
      ],
      "name": "transferFrom",
      "outputs": [],
      "stateMutability": "nonpayable",
      "type": "function"
    },
    {
      "inputs": [],
      "name": "unPause",
      "outputs": [],
      "stateMutability": "nonpayable",
      "type": "function"
    },
    {
      "inputs": [
        {
          "internalType": "address",
          "name": "newImplementation",
          "type": "address"
        }
      ],
      "name": "upgradeTo",
      "outputs": [],
      "stateMutability": "nonpayable",
      "type": "function"
    },
    {
      "inputs": [
        {
          "internalType": "address",
          "name": "newImplementation",
          "type": "address"
        },
        {
          "internalType": "bytes",
          "name": "data",
          "type": "bytes"
        }
      ],
      "name": "upgradeToAndCall",
      "outputs": [],
      "stateMutability": "payable",
      "type": "function"
    }
  ],
  "numDeployments": 4,
  "solcInputHash": "710b44bae61f938bdd6d1ab689c07430",
  "bytecode": "0x60a0604052306080523480156200001557600080fd5b506200002062000026565b620000e7565b600054610100900460ff1615620000935760405162461bcd60e51b815260206004820152602760248201527f496e697469616c697a61626c653a20636f6e747261637420697320696e697469604482015266616c697a696e6760c81b606482015260840160405180910390fd5b60005460ff90811614620000e5576000805460ff191660ff9081179091556040519081527f7f26b83ff96e1f2b6a682f133852f6798a09c465da95921460cefb38474024989060200160405180910390a15b565b6080516150f76200011f60003960008181611153015281816111d801528181611732015281816117b701526118a101526150f76000f3fe60806040526004361061034a5760003560e01c806395d89b41116101bb578063c45b5ee1116100f7578063e9bd812611610095578063f6ba042a1161006f578063f6ba042a146109f2578063f7b188a514610a12578063fd52431314610a27578063fed6c2e914610a4757600080fd5b8063e9bd812614610992578063f143fc61146109b2578063f66e7623146109d257600080fd5b8063cd15832f116100d1578063cd15832f146108f2578063db7af5fb14610912578063e8d3e4b614610929578063e985e9c51461094957600080fd5b8063c45b5ee114610868578063c87b56dd146108a4578063cd025dea146108c457600080fd5b8063ad014a5b11610164578063b06a89a71161013e578063b06a89a7146107da578063b7bd44ed14610808578063b88d4fde14610828578063c157daea1461084857600080fd5b8063ad014a5b14610772578063adf63cd2146107a3578063af46adb8146107ba57600080fd5b8063a30b4db911610195578063a30b4db9146106dc578063a3f4df7e14610716578063a675f1e31461075f57600080fd5b806395d89b4114610687578063a1de95e51461069c578063a22cb465146106bc57600080fd5b806342966c681161028a5780635c975abb1161023357806370a082311161020d57806370a08231146106115780638299f9f9146106315780638456cb591461065257806386f571711461066757600080fd5b80635c975abb146105b95780636352211e146105d15780636c1244b6146105f157600080fd5b80634f1ef286116102645780634f1ef2861461057b578063500aac871461058e57806352d1902d146105a457600080fd5b806342966c681461051b5780634b3d267f1461053b5780634ec81af11461055b57600080fd5b806315ccda22116102f75780632e611630116102d15780632e611630146104a15780633659cfe6146104c65780633c0c4566146104e657806342842e0e146104fb57600080fd5b806315ccda221461044057806323b872dd1461046157806327a2e4731461048157600080fd5b806307348e261161032857806307348e26146103c8578063081812fc146103e8578063095ea7b31461042057600080fd5b806301ffc9a71461034f578063060defec1461038457806306fdde03146103a6575b600080fd5b34801561035b57600080fd5b5061036f61036a3660046148ad565b610a5a565b60405190151581526020015b60405180910390f35b34801561039057600080fd5b506103a461039f3660046148ca565b610a6b565b005b3480156103b257600080fd5b506103bb610b64565b60405161037b919061493b565b6103db6103d63660046149ac565b610bf6565b60405161037b9190614a14565b3480156103f457600080fd5b506104086104033660046148ca565b610d7e565b6040516001600160a01b03909116815260200161037b565b34801561042c57600080fd5b506103a461043b366004614a75565b610da5565b34801561044c57600080fd5b506101c354610408906001600160a01b031681565b34801561046d57600080fd5b506103a461047c366004614aa1565b610ed7565b34801561048d57600080fd5b506103a461049c366004614b35565b610f4e565b3480156104ad57600080fd5b506104b86101c65481565b60405190815260200161037b565b3480156104d257600080fd5b506103a46104e1366004614b8c565b611148565b3480156104f257600080fd5b506104086112c4565b34801561050757600080fd5b506103a4610516366004614aa1565b611351565b34801561052757600080fd5b506103a46105363660046148ca565b61136c565b34801561054757600080fd5b506103db6105563660046148ca565b61142c565b34801561056757600080fd5b506103a4610576366004614ba9565b611548565b6103a4610589366004614c90565b611727565b34801561059a57600080fd5b506101c7546104b8565b3480156105b057600080fd5b506104b8611894565b3480156105c557600080fd5b5060975460ff1661036f565b3480156105dd57600080fd5b506104086105ec3660046148ca565b611959565b3480156105fd57600080fd5b506103db61060c366004614ce0565b6119be565b34801561061d57600080fd5b506104b861062c366004614b8c565b611a33565b34801561063d57600080fd5b506101c454610408906001600160a01b031681565b34801561065e57600080fd5b506103a4611acd565b34801561067357600080fd5b506103a46106823660046148ca565b611b96565b34801561069357600080fd5b506103bb611c83565b3480156106a857600080fd5b506103a46106b7366004614b35565b611c92565b3480156106c857600080fd5b506103a46106d7366004614d22565b611e6f565b3480156106e857600080fd5b506104086106f73660046148ca565b60009081526101c860205260409020600101546001600160a01b031690565b34801561072257600080fd5b506103bb6040518060400160405280600a81526020017f4354414720546f6b656e0000000000000000000000000000000000000000000081525081565b6104b861076d3660046149ac565b611e7a565b34801561077e57600080fd5b5061079261078d3660046148ca565b612112565b60405161037b959493929190614d5b565b3480156107af57600080fd5b506104b86101c55481565b3480156107c657600080fd5b506103a46107d5366004614b35565b6121dd565b3480156107e657600080fd5b506104b86107f53660046148ca565b60009081526101c9602052604090205490565b34801561081457600080fd5b5061036f6108233660046148ca565b6123d9565b34801561083457600080fd5b506103a4610843366004614da0565b6123f8565b34801561085457600080fd5b506103a46108633660046148ca565b612470565b34801561087457600080fd5b5061036f610883366004614e0c565b80516020818301810180516101ca8252928201919093012091525460ff1681565b3480156108b057600080fd5b506103bb6108bf3660046148ca565b612512565b3480156108d057600080fd5b506104b86108df3660046148ca565b6101c96020526000908152604090205481565b3480156108fe57600080fd5b506103a461090d366004614b8c565b612585565b34801561091e57600080fd5b506104b86101c75481565b34801561093557600080fd5b506103a46109443660046148ca565b6127a5565b34801561095557600080fd5b5061036f610964366004614e55565b6001600160a01b039182166000908152606a6020908152604080832093909416825291909152205460ff1690565b34801561099e57600080fd5b5061036f6109ad3660046148ca565b612919565b3480156109be57600080fd5b506104b86109cd366004614e0c565b612947565b3480156109de57600080fd5b506103a46109ed3660046148ca565b612962565b3480156109fe57600080fd5b5061036f610a0d366004614ce0565b612a4f565b348015610a1e57600080fd5b506103a4612ab0565b348015610a3357600080fd5b506103a4610a42366004614b8c565b612b77565b6104b8610a553660046149ac565b612cd3565b6000610a6582612d3c565b92915050565b6101c4546001600160a01b03166324d7806c336040516001600160e01b031960e084901b1681526001600160a01b039091166004820152602401602060405180830381865afa158015610ac2573d6000803e3d6000fd5b505050506040513d601f19601f82011682018060405250810190610ae69190614e83565b610b275760405162461bcd60e51b815260206004820152600d60248201526c1058d8d95cdcc819195b9a5959609a1b60448201526064015b60405180910390fd5b6101c68190556040518181527f50364cd96b896c27f5b49c44803a02b6c82874dedfe1d1652efa295206b02c2e906020015b60405180910390a150565b606060658054610b7390614ea0565b80601f0160208091040260200160405190810160405280929190818152602001828054610b9f90614ea0565b8015610bec5780601f10610bc157610100808354040283529160200191610bec565b820191906000526020600020905b815481529060010190602001808311610bcf57829003601f168201915b5050505050905090565b6040805160a081018252600080825260208201819052606092820183905291810182905260808101919091526000610c6386868080601f01602080910402602001604051908101604052809392919081815260200183838082843760009201919091525061294792505050565b9050610c6e816123d9565b610c8157610c7e86868686611e7a565b90505b60008181526101c86020908152604091829020825160a08101845281546001600160a01b039081168252600183015416928101929092526002810180549293919291840191610ccf90614ea0565b80601f0160208091040260200160405190810160405280929190818152602001828054610cfb90614ea0565b8015610d485780601f10610d1d57610100808354040283529160200191610d48565b820191906000526020600020905b815481529060010190602001808311610d2b57829003601f168201915b50505091835250506003919091015460ff808216151560208401526101009091041615156040909101529150505b949350505050565b6000610d8982612dd7565b506000908152606960205260409020546001600160a01b031690565b6000610db082611959565b9050806001600160a01b0316836001600160a01b03161415610e3a5760405162461bcd60e51b815260206004820152602160248201527f4552433732313a20617070726f76616c20746f2063757272656e74206f776e6560448201527f72000000000000000000000000000000000000000000000000000000000000006064820152608401610b1e565b336001600160a01b0382161480610e565750610e568133610964565b610ec85760405162461bcd60e51b815260206004820152603d60248201527f4552433732313a20617070726f76652063616c6c6572206973206e6f7420746f60448201527f6b656e206f776e6572206f7220617070726f76656420666f7220616c6c0000006064820152608401610b1e565b610ed28383612e3b565b505050565b610ee13382612ea9565b610f435760405162461bcd60e51b815260206004820152602d60248201527f4552433732313a2063616c6c6572206973206e6f7420746f6b656e206f776e6560448201526c1c881bdc88185c1c1c9bdd9959609a1b6064820152608401610b1e565b610ed2838383612f27565b6101c4546001600160a01b03166324d7806c336040516001600160e01b031960e084901b1681526001600160a01b039091166004820152602401602060405180830381865afa158015610fa5573d6000803e3d6000fd5b505050506040513d601f19601f82011682018060405250810190610fc99190614e83565b6110055760405162461bcd60e51b815260206004820152600d60248201526c1058d8d95cdcc819195b9a5959609a1b6044820152606401610b1e565b816110405760405162461bcd60e51b815260206004820152600b60248201526a456d70747920617272617960a81b6044820152606401610b1e565b60005b8281101561114257600084848381811061105f5761105f614edb565b9050602002013590506110706112c4565b6001600160a01b031661108282611959565b6001600160a01b0316146110d85760405162461bcd60e51b815260206004820152601560248201527f4e6f74206f776e656420627920706c6174666f726d00000000000000000000006044820152606401610b1e565b60008181526101c86020908152604091829020600301805460ff19168615159081179091558251848152918201527f5ff3e202d7ff106b7be2e41c9e1b36cb0fabfaef5219ca353c5ec44d7da43f17910160405180910390a15061113b81614f07565b9050611043565b50505050565b306001600160a01b037f00000000000000000000000000000000000000000000000000000000000000001614156111d65760405162461bcd60e51b815260206004820152602c60248201527f46756e6374696f6e206d7573742062652063616c6c6564207468726f7567682060448201526b19195b1959d85d1958d85b1b60a21b6064820152608401610b1e565b7f00000000000000000000000000000000000000000000000000000000000000006001600160a01b03166112317f360894a13ba1a3210667c828492db98dca3e2076cc3735a920a3ca505d382bbc546001600160a01b031690565b6001600160a01b03161461129c5760405162461bcd60e51b815260206004820152602c60248201527f46756e6374696f6e206d7573742062652063616c6c6564207468726f7567682060448201526b6163746976652070726f787960a01b6064820152608401610b1e565b6112a581613135565b604080516000808252602082019092526112c1918391906131ec565b50565b6101c454604080517f3c0c456600000000000000000000000000000000000000000000000000000000815290516000926001600160a01b031691633c0c45669160048083019260209291908290030181865afa158015611328573d6000803e3d6000fd5b505050506040513d601f19601f8201168201806040525081019061134c9190614f22565b905090565b610ed2838383604051806020016040528060008152506123f8565b6101c4546001600160a01b03166324d7806c336040516001600160e01b031960e084901b1681526001600160a01b039091166004820152602401602060405180830381865afa1580156113c3573d6000803e3d6000fd5b505050506040513d601f19601f820116820180604052508101906113e79190614e83565b6114235760405162461bcd60e51b815260206004820152600d60248201526c1058d8d95cdcc819195b9a5959609a1b6044820152606401610b1e565b6112c18161338c565b6040805160a080820183526000808352602080840182905260608486018190528401829052608084018290528582526101c88152908490208451928301855280546001600160a01b0390811684526001820154169183019190915260028101805493949293919284019161149f90614ea0565b80601f01602080910402602001604051908101604052809291908181526020018280546114cb90614ea0565b80156115185780601f106114ed57610100808354040283529160200191611518565b820191906000526020600020905b8154815290600101906020018083116114fb57829003601f168201915b50505091835250506003919091015460ff8082161515602084015261010090910416151560409091015292915050565b600054610100900460ff16158080156115685750600054600160ff909116105b806115825750303b158015611582575060005460ff166001145b6115f45760405162461bcd60e51b815260206004820152602e60248201527f496e697469616c697a61626c653a20636f6e747261637420697320616c72656160448201527f647920696e697469616c697a65640000000000000000000000000000000000006064820152608401610b1e565b6000805460ff191660011790558015611617576000805461ff0019166101001790555b61168b6040518060400160405280601481526020017f457468657265756d2054616720536572766963650000000000000000000000008152506040518060400160405280600481526020017f4354414700000000000000000000000000000000000000000000000000000000815250613439565b6116936134ae565b61169b613521565b6116a361358c565b6101c480546001600160a01b0319166001600160a01b0387161790556116c884611b96565b6116d183610a6b565b6116da82612962565b8015611720576000805461ff0019169055604051600181527f7f26b83ff96e1f2b6a682f133852f6798a09c465da95921460cefb38474024989060200160405180910390a15b5050505050565b306001600160a01b037f00000000000000000000000000000000000000000000000000000000000000001614156117b55760405162461bcd60e51b815260206004820152602c60248201527f46756e6374696f6e206d7573742062652063616c6c6564207468726f7567682060448201526b19195b1959d85d1958d85b1b60a21b6064820152608401610b1e565b7f00000000000000000000000000000000000000000000000000000000000000006001600160a01b03166118107f360894a13ba1a3210667c828492db98dca3e2076cc3735a920a3ca505d382bbc546001600160a01b031690565b6001600160a01b03161461187b5760405162461bcd60e51b815260206004820152602c60248201527f46756e6374696f6e206d7573742062652063616c6c6564207468726f7567682060448201526b6163746976652070726f787960a01b6064820152608401610b1e565b61188482613135565b611890828260016131ec565b5050565b6000306001600160a01b037f000000000000000000000000000000000000000000000000000000000000000016146119345760405162461bcd60e51b815260206004820152603860248201527f555550535570677261646561626c653a206d757374206e6f742062652063616c60448201527f6c6564207468726f7567682064656c656761746563616c6c00000000000000006064820152608401610b1e565b507f360894a13ba1a3210667c828492db98dca3e2076cc3735a920a3ca505d382bbc90565b6000818152606760205260408120546001600160a01b031680610a655760405162461bcd60e51b815260206004820152601860248201527f4552433732313a20696e76616c696420746f6b656e20494400000000000000006044820152606401610b1e565b6040805160a08101825260008082526020820181905260609282018390529181018290526080810191909152611a2c61055684848080601f01602080910402602001604051908101604052809392919081815260200183838082843760009201919091525061294792505050565b9392505050565b60006001600160a01b038216611ab15760405162461bcd60e51b815260206004820152602960248201527f4552433732313a2061646472657373207a65726f206973206e6f74206120766160448201527f6c6964206f776e657200000000000000000000000000000000000000000000006064820152608401610b1e565b506001600160a01b031660009081526068602052604090205490565b6101c4546001600160a01b03166324d7806c336040516001600160e01b031960e084901b1681526001600160a01b039091166004820152602401602060405180830381865afa158015611b24573d6000803e3d6000fd5b505050506040513d601f19601f82011682018060405250810190611b489190614e83565b611b845760405162461bcd60e51b815260206004820152600d60248201526c1058d8d95cdcc819195b9a5959609a1b6044820152606401610b1e565b611b8c6135ff565b611b94613652565b565b6101c4546001600160a01b03166324d7806c336040516001600160e01b031960e084901b1681526001600160a01b039091166004820152602401602060405180830381865afa158015611bed573d6000803e3d6000fd5b505050506040513d601f19601f82011682018060405250810190611c119190614e83565b611c4d5760405162461bcd60e51b815260206004820152600d60248201526c1058d8d95cdcc819195b9a5959609a1b6044820152606401610b1e565b6101c58190556040518181527fb5fcb9a22c611b15d455074b2198dc6adb0c879f34fae2d323816706ba02610c90602001610b59565b606060668054610b7390614ea0565b6101c4546001600160a01b03166324d7806c336040516001600160e01b031960e084901b1681526001600160a01b039091166004820152602401602060405180830381865afa158015611ce9573d6000803e3d6000fd5b505050506040513d601f19601f82011682018060405250810190611d0d9190614e83565b611d495760405162461bcd60e51b815260206004820152600d60248201526c1058d8d95cdcc819195b9a5959609a1b6044820152606401610b1e565b81611d845760405162461bcd60e51b815260206004820152600b60248201526a456d70747920617272617960a81b6044820152606401610b1e565b60005b82811015611142576000611df2858584818110611da657611da6614edb565b9050602002810190611db89190614f3f565b8080601f0160208091040260200160405190810160405280939291908181526020018383808284376000920191909152506136ac92505050565b9050826101ca82604051611e069190614f86565b908152604051908190036020018120805492151560ff19909316929092179091557f231b4d492e38027a6f24b0287140781038da342b8ce2873f2905aa22329af73c90611e569083908690614fa2565b60405180910390a150611e6881614f07565b9050611d87565b611890338383613853565b6000611e84613922565b6101c3546001600160a01b0316336001600160a01b031614611ee85760405162461bcd60e51b815260206004820152601660248201527f43616c6c6572206973206e6f742045545320636f7265000000000000000000006044820152606401610b1e565b6000611f2986868080601f01602080910402602001604051908101604052809392919081815260200183838082843760009201919091525061397e92505050565b9050611f3c611f366112c4565b82613be8565b6040518060a00160405280856001600160a01b03168152602001846001600160a01b0316815260200187878080601f016020809104026020016040519081016040528093929190818152602001838380828437600092019190915250505090825250604080516020601f8a01819004810282018101909252888152918101916101ca91611fe491908b908b90819084018382808284376000920191909152506136ac92505050565b604051611ff19190614f86565b908152602001604051809103902060009054906101000a900460ff16151581526020016101ca61205689898080601f0160208091040260200160405190810160405280939291908181526020018383808284376000920191909152506136ac92505050565b6040516120639190614f86565b908152604080519182900360209081019092205460ff16151590925260008481526101c88252829020835181546001600160a01b039182166001600160a01b0319918216178355858401516001840180549190931691161790559183015180516120d392600285019201906147fe565b5060608201516003909101805460809093015115156101000261ff00199215159290921661ffff19909316929092171790559050610d76600161012d55565b6101c8602052600090815260409020805460018201546002830180546001600160a01b0393841694929093169261214890614ea0565b80601f016020809104026020016040519081016040528092919081815260200182805461217490614ea0565b80156121c15780601f10612196576101008083540402835291602001916121c1565b820191906000526020600020905b8154815290600101906020018083116121a457829003601f168201915b5050506003909301549192505060ff8082169161010090041685565b6101c4546001600160a01b03166324d7806c336040516001600160e01b031960e084901b1681526001600160a01b039091166004820152602401602060405180830381865afa158015612234573d6000803e3d6000fd5b505050506040513d601f19601f820116820180604052508101906122589190614e83565b6122945760405162461bcd60e51b815260206004820152600d60248201526c1058d8d95cdcc819195b9a5959609a1b6044820152606401610b1e565b816122cf5760405162461bcd60e51b815260206004820152600b60248201526a456d70747920617272617960a81b6044820152606401610b1e565b60005b828110156111425760008484838181106122ee576122ee614edb565b9050602002013590506122ff6112c4565b6001600160a01b031661231182611959565b6001600160a01b0316146123675760405162461bcd60e51b815260206004820152601b60248201527f546f6b656e206e6f74206f776e656420627920706c6174666f726d00000000006044820152606401610b1e565b60008181526101c86020908152604091829020600301805461ff001916610100871515908102919091179091558251848152918201527f5bfb00ad0dd6c85a7714be58e38edd1eede7425b1281af24a27ed196555ab05b910160405180910390a1506123d281614f07565b90506122d2565b6000818152606760205260408120546001600160a01b03161515610a65565b6124023383612ea9565b6124645760405162461bcd60e51b815260206004820152602d60248201527f4552433732313a2063616c6c6572206973206e6f7420746f6b656e206f776e6560448201526c1c881bdc88185c1c1c9bdd9959609a1b6064820152608401610b1e565b61114284848484613c0a565b6000818152606760205260409020546001600160a01b03166124d45760405162461bcd60e51b815260206004820152601360248201527f4554533a2043544147206e6f7420666f756e64000000000000000000000000006044820152606401610b1e565b6124dc6112c4565b6001600160a01b03166124ee82611959565b6001600160a01b03161415612508576112c1816000613c88565b6112c18142613c88565b606061251d82612dd7565b600061253460408051602081019091526000815290565b905060008151116125545760405180602001604052806000815250611a2c565b8061255e84613cc8565b60405160200161256f929190614fc6565b6040516020818303038152906040529392505050565b6101c4546001600160a01b03166324d7806c336040516001600160e01b031960e084901b1681526001600160a01b039091166004820152602401602060405180830381865afa1580156125dc573d6000803e3d6000fd5b505050506040513d601f19601f820116820180604052508101906126009190614e83565b61263c5760405162461bcd60e51b815260206004820152600d60248201526c1058d8d95cdcc819195b9a5959609a1b6044820152606401610b1e565b6001600160a01b0381166126925760405162461bcd60e51b815260206004820152601660248201527f416464726573732063616e6e6f74206265207a65726f000000000000000000006044820152606401610b1e565b6001600160a01b0381166324d7806c336040516001600160e01b031960e084901b1681526001600160a01b039091166004820152602401602060405180830381865afa1580156126e6573d6000803e3d6000fd5b505050506040513d601f19601f8201168201806040525081019061270a9190614e83565b6127565760405162461bcd60e51b815260206004820181905260248201527f43616c6c6572206e6f742061646d696e20696e206e657720636f6e74726163746044820152606401610b1e565b6101c480546001600160a01b0319166001600160a01b0383169081179091556040519081527f2f55f724ae3134584dfdd86a4ee1e090635ff9913722b5fe06e064cc7e3ed8b490602001610b59565b6000818152606760205260409020546001600160a01b03166128095760405162461bcd60e51b815260206004820152601360248201527f4554533a2043544147206e6f7420666f756e64000000000000000000000000006044820152606401610b1e565b6128116112c4565b6001600160a01b031661282382611959565b6001600160a01b0316141561287a5760405162461bcd60e51b815260206004820152601560248201527f546167206f776e656420627920706c6174666f726d00000000000000000000006044820152606401610b1e565b61288381612919565b6128cf5760405162461bcd60e51b815260206004820152601760248201527f72656379636c696e67206e6f7420617661696c61626c650000000000000000006044820152606401610b1e565b6128e96128db82611959565b6128e36112c4565b83612f27565b604051339082907f0f842a1659c86d6e422461459fb2ab6fa8af886fd1cf9978a73dd299f23ccc7a90600090a350565b6000426129266101c75490565b60008481526101c960205260409020546129409190614ff5565b1092915050565b600080612953836136ac565b80516020909101209392505050565b6101c4546001600160a01b03166324d7806c336040516001600160e01b031960e084901b1681526001600160a01b039091166004820152602401602060405180830381865afa1580156129b9573d6000803e3d6000fd5b505050506040513d601f19601f820116820180604052508101906129dd9190614e83565b612a195760405162461bcd60e51b815260206004820152600d60248201526c1058d8d95cdcc819195b9a5959609a1b6044820152606401610b1e565b6101c78190556040518181527f0746578f4b3113723b37a909bdaea17321cc8c4a738f0bbcbf72ea2e6142c4c290602001610b59565b6000611a2c612a9384848080601f01602080910402602001604051908101604052809392919081815260200183838082843760009201919091525061294792505050565b6000908152606760205260409020546001600160a01b0316151590565b6101c4546001600160a01b03166324d7806c336040516001600160e01b031960e084901b1681526001600160a01b039091166004820152602401602060405180830381865afa158015612b07573d6000803e3d6000fd5b505050506040513d601f19601f82011682018060405250810190612b2b9190614e83565b612b675760405162461bcd60e51b815260206004820152600d60248201526c1058d8d95cdcc819195b9a5959609a1b6044820152606401610b1e565b612b6f613d6a565b611b94613dbc565b6101c4546001600160a01b03166324d7806c336040516001600160e01b031960e084901b1681526001600160a01b039091166004820152602401602060405180830381865afa158015612bce573d6000803e3d6000fd5b505050506040513d601f19601f82011682018060405250810190612bf29190614e83565b612c2e5760405162461bcd60e51b815260206004820152600d60248201526c1058d8d95cdcc819195b9a5959609a1b6044820152606401610b1e565b6001600160a01b038116612c845760405162461bcd60e51b815260206004820152601660248201527f416464726573732063616e6e6f74206265207a65726f000000000000000000006044820152606401610b1e565b6101c380546001600160a01b0319166001600160a01b0383169081179091556040519081527f44083188a657481391e0f7de38dc24520f2ee91f7eba083ad27831a62cd1c9a790602001610b59565b600080612d1586868080601f01602080910402602001604051908101604052809392919081815260200183838082843760009201919091525061294792505050565b9050612d20816123d9565b612d3357612d3086868686611e7a565b90505b95945050505050565b60006001600160e01b031982167f80ac58cd000000000000000000000000000000000000000000000000000000001480612d9f57506001600160e01b031982167f5b5e139f00000000000000000000000000000000000000000000000000000000145b80610a6557507f01ffc9a7000000000000000000000000000000000000000000000000000000006001600160e01b0319831614610a65565b6000818152606760205260409020546001600160a01b03166112c15760405162461bcd60e51b815260206004820152601860248201527f4552433732313a20696e76616c696420746f6b656e20494400000000000000006044820152606401610b1e565b600081815260696020526040902080546001600160a01b0319166001600160a01b0384169081179091558190612e7082611959565b6001600160a01b03167f8c5be1e5ebec7d5bd14f71427d1e84f3dd0314c0f7b2291e5b200ac8c7c3b92560405160405180910390a45050565b600080612eb583611959565b9050806001600160a01b0316846001600160a01b03161480612efc57506001600160a01b038082166000908152606a602090815260408083209388168352929052205460ff165b80610d765750836001600160a01b0316612f1584610d7e565b6001600160a01b031614949350505050565b826001600160a01b0316612f3a82611959565b6001600160a01b031614612f9e5760405162461bcd60e51b815260206004820152602560248201527f4552433732313a207472616e736665722066726f6d20696e636f72726563742060448201526437bbb732b960d91b6064820152608401610b1e565b6001600160a01b0382166130195760405162461bcd60e51b8152602060048201526024808201527f4552433732313a207472616e7366657220746f20746865207a65726f2061646460448201527f72657373000000000000000000000000000000000000000000000000000000006064820152608401610b1e565b6130268383836001613df5565b826001600160a01b031661303982611959565b6001600160a01b03161461309d5760405162461bcd60e51b815260206004820152602560248201527f4552433732313a207472616e736665722066726f6d20696e636f72726563742060448201526437bbb732b960d91b6064820152608401610b1e565b600081815260696020908152604080832080546001600160a01b03199081169091556001600160a01b0387811680865260688552838620805460001901905590871680865283862080546001019055868652606790945282852080549092168417909155905184937fddf252ad1be2c89b69c2b068fc378daa952ba7f163c4a11628f55a4df523b3ef91a4610ed28383836001613e5c565b6101c4546001600160a01b03166324d7806c336040516001600160e01b031960e084901b1681526001600160a01b039091166004820152602401602060405180830381865afa15801561318c573d6000803e3d6000fd5b505050506040513d601f19601f820116820180604052508101906131b09190614e83565b6112c15760405162461bcd60e51b815260206004820152600d60248201526c1058d8d95cdcc819195b9a5959609a1b6044820152606401610b1e565b7f4910fdfa16fed3260ed0e7147f7cc6da11a60208b5b9406d12a635614ffd91435460ff161561321f57610ed283613f6d565b826001600160a01b03166352d1902d6040518163ffffffff1660e01b8152600401602060405180830381865afa925050508015613279575060408051601f3d908101601f191682019092526132769181019061500d565b60015b6132eb5760405162461bcd60e51b815260206004820152602e60248201527f45524331393637557067726164653a206e657720696d706c656d656e7461746960448201527f6f6e206973206e6f7420555550530000000000000000000000000000000000006064820152608401610b1e565b7f360894a13ba1a3210667c828492db98dca3e2076cc3735a920a3ca505d382bbc81146133805760405162461bcd60e51b815260206004820152602960248201527f45524331393637557067726164653a20756e737570706f727465642070726f7860448201527f6961626c655555494400000000000000000000000000000000000000000000006064820152608401610b1e565b50610ed283838361402b565b600061339782611959565b90506133a7816000846001613df5565b6133b082611959565b600083815260696020908152604080832080546001600160a01b03199081169091556001600160a01b0385168085526068845282852080546000190190558785526067909352818420805490911690555192935084927fddf252ad1be2c89b69c2b068fc378daa952ba7f163c4a11628f55a4df523b3ef908390a4611890816000846001613e5c565b600054610100900460ff166134a45760405162461bcd60e51b815260206004820152602b60248201527f496e697469616c697a61626c653a20636f6e7472616374206973206e6f74206960448201526a6e697469616c697a696e6760a81b6064820152608401610b1e565b6118908282614050565b600054610100900460ff166135195760405162461bcd60e51b815260206004820152602b60248201527f496e697469616c697a61626c653a20636f6e7472616374206973206e6f74206960448201526a6e697469616c697a696e6760a81b6064820152608401610b1e565b611b946140e2565b600054610100900460ff16611b945760405162461bcd60e51b815260206004820152602b60248201527f496e697469616c697a61626c653a20636f6e7472616374206973206e6f74206960448201526a6e697469616c697a696e6760a81b6064820152608401610b1e565b600054610100900460ff166135f75760405162461bcd60e51b815260206004820152602b60248201527f496e697469616c697a61626c653a20636f6e7472616374206973206e6f74206960448201526a6e697469616c697a696e6760a81b6064820152608401610b1e565b611b94614159565b60975460ff1615611b945760405162461bcd60e51b815260206004820152601060248201527f5061757361626c653a20706175736564000000000000000000000000000000006044820152606401610b1e565b61365a6135ff565b6097805460ff191660011790557f62e78cea01bee320cd4e420270b5ea74000d11b0c9f74754ebdbfc544b05a25861368f3390565b6040516001600160a01b03909116815260200160405180910390a1565b606060008290506000815167ffffffffffffffff8111156136cf576136cf614be4565b6040519080825280601f01601f1916602001820160405280156136f9576020820181803683370190505b50905060005b825181101561384b57604160f81b83828151811061371f5761371f614edb565b01602001516001600160f81b031916108015906137605750605a60f81b83828151811061374e5761374e614edb565b01602001516001600160f81b03191611155b156137da5782818151811061377757613777614edb565b602001015160f81c60f81b60f81c60206137919190615026565b60f81b8282815181106137a6576137a6614edb565b60200101907effffffffffffffffffffffffffffffffffffffffffffffffffffffffffffff1916908160001a905350613839565b8281815181106137ec576137ec614edb565b602001015160f81c60f81b82828151811061380957613809614edb565b60200101907effffffffffffffffffffffffffffffffffffffffffffffffffffffffffffff1916908160001a9053505b8061384381614f07565b9150506136ff565b509392505050565b816001600160a01b0316836001600160a01b031614156138b55760405162461bcd60e51b815260206004820152601960248201527f4552433732313a20617070726f766520746f2063616c6c6572000000000000006044820152606401610b1e565b6001600160a01b038381166000818152606a6020908152604080832094871680845294825291829020805460ff191686151590811790915591519182527f17307eab39ab6107e8899845ad3d59bd9653f200f220920489ca2b5937696c31910160405180910390a3505050565b600261012d5414156139765760405162461bcd60e51b815260206004820152601f60248201527f5265656e7472616e637947756172643a207265656e7472616e742063616c6c006044820152606401610b1e565b600261012d55565b60008061398a83612947565b6000818152606760205260409020549091506001600160a01b0316156139f25760405162461bcd60e51b815260206004820152601c60248201527f4552433732313a20746f6b656e20616c7265616479206d696e746564000000006044820152606401610b1e565b6101c5548351849111801590613a0c57506101c654815111155b613a585760405162461bcd60e51b815260206004820152601260248201527f496e76616c69642074616720666f726d617400000000000000000000000000006044820152606401610b1e565b80600081518110613a6b57613a6b614edb565b6020910101516001600160f81b031916602360f81b14613acd5760405162461bcd60e51b815260206004820152601560248201527f546167206d7573742073746172742077697468202300000000000000000000006044820152606401610b1e565b60015b8151811015613bdf576000828281518110613aed57613aed614edb565b01602001516001600160f81b03191690507f2000000000000000000000000000000000000000000000000000000000000000811415613b6e5760405162461bcd60e51b815260206004820152600d60248201527f53706163657320696e20746167000000000000000000000000000000000000006044820152606401610b1e565b602360f81b6001600160f81b031982161415613bcc5760405162461bcd60e51b815260206004820152601360248201527f54616720636f6e7461696e7320707265666978000000000000000000000000006044820152606401610b1e565b5080613bd781614f07565b915050613ad0565b50909392505050565b6118908282604051806020016040528060008152506141c4565b600161012d55565b613c15848484612f27565b613c2184848484614242565b6111425760405162461bcd60e51b815260206004820152603260248201527f4552433732313a207472616e7366657220746f206e6f6e20455243373231526560448201527131b2b4bb32b91034b6b83632b6b2b73a32b960711b6064820152608401610b1e565b60008281526101c9602052604080822083905551339184917faa0c0591942aff60e66bde156168c9a47ef843534b433bbaa33e62d1410f4f2c9190a35050565b60606000613cd583614388565b600101905060008167ffffffffffffffff811115613cf557613cf5614be4565b6040519080825280601f01601f191660200182016040528015613d1f576020820181803683370190505b5090508181016020015b600019017f3031323334353637383961626364656600000000000000000000000000000000600a86061a8153600a8504945084613d655761384b565b613d29565b60975460ff16611b945760405162461bcd60e51b815260206004820152601460248201527f5061757361626c653a206e6f74207061757365640000000000000000000000006044820152606401610b1e565b613dc4613d6a565b6097805460ff191690557f5db9ee0a495bf2e6ff9c91a7834c1ba4fdd244a5e8aa4e537bd38aeae4b073aa3361368f565b613dfd6135ff565b613e098484848461446a565b60975460ff16156111425760405162461bcd60e51b815260206004820152600f60248201527f436f6e74726163742070617573656400000000000000000000000000000000006044820152606401610b1e565b6001600160a01b03831615613ea657613e736112c4565b6001600160a01b0316836001600160a01b03161415613e9c57613e97826000613c88565b613ea6565b613ea68242613c88565b6001600160a01b03841615801590613ed75750613ec16112c4565b6001600160a01b0316846001600160a01b031614155b8015613ee95750613ee784611a33565b155b15611142576101c4546040517fa10138e80000000000000000000000000000000000000000000000000000000081526001600160a01b0386811660048301529091169063a10138e890602401600060405180830381600087803b158015613f4f57600080fd5b505af1158015613f63573d6000803e3d6000fd5b5050505050505050565b6001600160a01b0381163b613fea5760405162461bcd60e51b815260206004820152602d60248201527f455243313936373a206e657720696d706c656d656e746174696f6e206973206e60448201527f6f74206120636f6e7472616374000000000000000000000000000000000000006064820152608401610b1e565b7f360894a13ba1a3210667c828492db98dca3e2076cc3735a920a3ca505d382bbc80546001600160a01b0319166001600160a01b0392909216919091179055565b614034836144e3565b6000825111806140415750805b15610ed2576111428383614523565b600054610100900460ff166140bb5760405162461bcd60e51b815260206004820152602b60248201527f496e697469616c697a61626c653a20636f6e7472616374206973206e6f74206960448201526a6e697469616c697a696e6760a81b6064820152608401610b1e565b81516140ce9060659060208501906147fe565b508051610ed29060669060208401906147fe565b600054610100900460ff1661414d5760405162461bcd60e51b815260206004820152602b60248201527f496e697469616c697a61626c653a20636f6e7472616374206973206e6f74206960448201526a6e697469616c697a696e6760a81b6064820152608401610b1e565b6097805460ff19169055565b600054610100900460ff16613c025760405162461bcd60e51b815260206004820152602b60248201527f496e697469616c697a61626c653a20636f6e7472616374206973206e6f74206960448201526a6e697469616c697a696e6760a81b6064820152608401610b1e565b6141ce8383614548565b6141db6000848484614242565b610ed25760405162461bcd60e51b815260206004820152603260248201527f4552433732313a207472616e7366657220746f206e6f6e20455243373231526560448201527131b2b4bb32b91034b6b83632b6b2b73a32b960711b6064820152608401610b1e565b60006001600160a01b0384163b1561438057604051630a85bd0160e11b81526001600160a01b0385169063150b7a029061428690339089908890889060040161504b565b6020604051808303816000875af19250505080156142c1575060408051601f3d908101601f191682019092526142be9181019061507d565b60015b614366573d8080156142ef576040519150601f19603f3d011682016040523d82523d6000602084013e6142f4565b606091505b50805161435e5760405162461bcd60e51b815260206004820152603260248201527f4552433732313a207472616e7366657220746f206e6f6e20455243373231526560448201527131b2b4bb32b91034b6b83632b6b2b73a32b960711b6064820152608401610b1e565b805181602001fd5b6001600160e01b031916630a85bd0160e11b149050610d76565b506001610d76565b6000807a184f03e93ff9f4daa797ed6e38ed64bf6a1f01000000000000000083106143d1577a184f03e93ff9f4daa797ed6e38ed64bf6a1f010000000000000000830492506040015b6d04ee2d6d415b85acef810000000083106143fd576d04ee2d6d415b85acef8100000000830492506020015b662386f26fc10000831061441b57662386f26fc10000830492506010015b6305f5e1008310614433576305f5e100830492506008015b612710831061444757612710830492506004015b60648310614459576064830492506002015b600a8310610a655760010192915050565b60975460ff16156111425760405162461bcd60e51b815260206004820152602b60248201527f4552433732315061757361626c653a20746f6b656e207472616e73666572207760448201527f68696c65207061757365640000000000000000000000000000000000000000006064820152608401610b1e565b6144ec81613f6d565b6040516001600160a01b038216907fbc7cd75a20ee27fd9adebab32041f755214dbc6bffa90cc0225b39da2e5c2d3b90600090a250565b6060611a2c838360405180606001604052806027815260200161509b602791396146eb565b6001600160a01b03821661459e5760405162461bcd60e51b815260206004820181905260248201527f4552433732313a206d696e7420746f20746865207a65726f20616464726573736044820152606401610b1e565b6000818152606760205260409020546001600160a01b0316156146035760405162461bcd60e51b815260206004820152601c60248201527f4552433732313a20746f6b656e20616c7265616479206d696e746564000000006044820152606401610b1e565b614611600083836001613df5565b6000818152606760205260409020546001600160a01b0316156146765760405162461bcd60e51b815260206004820152601c60248201527f4552433732313a20746f6b656e20616c7265616479206d696e746564000000006044820152606401610b1e565b6001600160a01b038216600081815260686020908152604080832080546001019055848352606790915280822080546001600160a01b0319168417905551839291907fddf252ad1be2c89b69c2b068fc378daa952ba7f163c4a11628f55a4df523b3ef908290a4611890600083836001613e5c565b6060600080856001600160a01b0316856040516147089190614f86565b600060405180830381855af49150503d8060008114614743576040519150601f19603f3d011682016040523d82523d6000602084013e614748565b606091505b509150915061475986838387614763565b9695505050505050565b606083156147cf5782516147c8576001600160a01b0385163b6147c85760405162461bcd60e51b815260206004820152601d60248201527f416464726573733a2063616c6c20746f206e6f6e2d636f6e74726163740000006044820152606401610b1e565b5081610d76565b610d7683838151156147e45781518083602001fd5b8060405162461bcd60e51b8152600401610b1e919061493b565b82805461480a90614ea0565b90600052602060002090601f01602090048101928261482c5760008555614872565b82601f1061484557805160ff1916838001178555614872565b82800160010185558215614872579182015b82811115614872578251825591602001919060010190614857565b5061487e929150614882565b5090565b5b8082111561487e5760008155600101614883565b6001600160e01b0319811681146112c157600080fd5b6000602082840312156148bf57600080fd5b8135611a2c81614897565b6000602082840312156148dc57600080fd5b5035919050565b60005b838110156148fe5781810151838201526020016148e6565b838111156111425750506000910152565b600081518084526149278160208601602086016148e3565b601f01601f19169290920160200192915050565b602081526000611a2c602083018461490f565b60008083601f84011261496057600080fd5b50813567ffffffffffffffff81111561497857600080fd5b60208301915083602082850101111561499057600080fd5b9250929050565b6001600160a01b03811681146112c157600080fd5b600080600080606085870312156149c257600080fd5b843567ffffffffffffffff8111156149d957600080fd5b6149e58782880161494e565b90955093505060208501356149f981614997565b91506040850135614a0981614997565b939692955090935050565b6020815260006001600160a01b0380845116602084015280602085015116604084015250604083015160a06060840152614a5160c084018261490f565b90506060840151151560808401526080840151151560a08401528091505092915050565b60008060408385031215614a8857600080fd5b8235614a9381614997565b946020939093013593505050565b600080600060608486031215614ab657600080fd5b8335614ac181614997565b92506020840135614ad181614997565b929592945050506040919091013590565b60008083601f840112614af457600080fd5b50813567ffffffffffffffff811115614b0c57600080fd5b6020830191508360208260051b850101111561499057600080fd5b80151581146112c157600080fd5b600080600060408486031215614b4a57600080fd5b833567ffffffffffffffff811115614b6157600080fd5b614b6d86828701614ae2565b9094509250506020840135614b8181614b27565b809150509250925092565b600060208284031215614b9e57600080fd5b8135611a2c81614997565b60008060008060808587031215614bbf57600080fd5b8435614bca81614997565b966020860135965060408601359560600135945092505050565b634e487b7160e01b600052604160045260246000fd5b600067ffffffffffffffff80841115614c1557614c15614be4565b604051601f8501601f19908116603f01168101908282118183101715614c3d57614c3d614be4565b81604052809350858152868686011115614c5657600080fd5b858560208301376000602087830101525050509392505050565b600082601f830112614c8157600080fd5b611a2c83833560208501614bfa565b60008060408385031215614ca357600080fd5b8235614cae81614997565b9150602083013567ffffffffffffffff811115614cca57600080fd5b614cd685828601614c70565b9150509250929050565b60008060208385031215614cf357600080fd5b823567ffffffffffffffff811115614d0a57600080fd5b614d168582860161494e565b90969095509350505050565b60008060408385031215614d3557600080fd5b8235614d4081614997565b91506020830135614d5081614b27565b809150509250929050565b60006001600160a01b03808816835280871660208401525060a06040830152614d8760a083018661490f565b9315156060830152509015156080909101529392505050565b60008060008060808587031215614db657600080fd5b8435614dc181614997565b93506020850135614dd181614997565b925060408501359150606085013567ffffffffffffffff811115614df457600080fd5b614e0087828801614c70565b91505092959194509250565b600060208284031215614e1e57600080fd5b813567ffffffffffffffff811115614e3557600080fd5b8201601f81018413614e4657600080fd5b610d7684823560208401614bfa565b60008060408385031215614e6857600080fd5b8235614e7381614997565b91506020830135614d5081614997565b600060208284031215614e9557600080fd5b8151611a2c81614b27565b600181811c90821680614eb457607f821691505b60208210811415614ed557634e487b7160e01b600052602260045260246000fd5b50919050565b634e487b7160e01b600052603260045260246000fd5b634e487b7160e01b600052601160045260246000fd5b6000600019821415614f1b57614f1b614ef1565b5060010190565b600060208284031215614f3457600080fd5b8151611a2c81614997565b6000808335601e19843603018112614f5657600080fd5b83018035915067ffffffffffffffff821115614f7157600080fd5b60200191503681900382131561499057600080fd5b60008251614f988184602087016148e3565b9190910192915050565b604081526000614fb5604083018561490f565b905082151560208301529392505050565b60008351614fd88184602088016148e3565b835190830190614fec8183602088016148e3565b01949350505050565b6000821982111561500857615008614ef1565b500190565b60006020828403121561501f57600080fd5b5051919050565b600060ff821660ff84168060ff0382111561504357615043614ef1565b019392505050565b60006001600160a01b03808716835280861660208401525083604083015260806060830152614759608083018461490f565b60006020828403121561508f57600080fd5b8151611a2c8161489756fe416464726573733a206c6f772d6c6576656c2064656c65676174652063616c6c206661696c6564a26469706673582212200eed52c823077b72d7d1e5aad8a48f42025a62673c3e38d3afbf9948fa725f5e64736f6c634300080c0033",
  "devdoc": {
    "kind": "dev",
    "methods": {
      "approve(address,uint256)": {
        "details": "See {IERC721-approve}."
      },
      "balanceOf(address)": {
        "details": "See {IERC721-balanceOf}."
      },
      "burn(uint256)": {
        "details": "Burns `tokenId`. See {ERC721-_burn}. Requirements: - The caller must own `tokenId` or be an approved operator."
      },
      "computeTagId(string)": {
        "params": {
          "_tag": "Tag string."
        },
        "returns": {
          "_0": "Id of potential CTAG token id."
        }
      },
      "constructor": {
        "custom:oz-upgrades-unsafe-allow": "constructor"
      },
      "createTag(string,address,address)": {
        "params": {
          "_creator": "Address credited with creating CTAG.",
          "_tag": "Tag string."
        },
        "returns": {
          "_tokenId": "Id of CTAG token."
        }
      },
      "getApproved(uint256)": {
        "details": "See {IERC721-getApproved}."
      },
      "getCreatorAddress(uint256)": {
        "params": {
          "_tokenId": "CTAG token Id."
        },
        "returns": {
          "_0": "_creator Creator address of the CTAG."
        }
      },
      "getLastRenewed(uint256)": {
        "params": {
          "_tokenId": "CTAG token Id."
        },
        "returns": {
          "_0": "Block timestamp."
        }
      },
      "getOrCreateTagId(string,address,address)": {
        "params": {
          "_creator": "Address credited with creating CTAG.",
          "_relayer": "Address of Relayer contract calling ETS Core.",
          "_tag": "Tag string."
        },
        "returns": {
          "tokenId": "Id of CTAG token."
        }
      },
      "getOwnershipTermLength()": {
        "returns": {
          "_0": "Term length in days."
        }
      },
      "getPlatformAddress()": {
        "returns": {
          "_0": "wallet address for ETS Platform."
        }
      },
      "getTagById(uint256)": {
        "params": {
          "_tokenId": "CTAG token Id."
        },
        "returns": {
          "_0": "CTAG record as Tag struct."
        }
      },
      "getTagByString(string)": {
        "params": {
          "_tag": "Tag string."
        },
        "returns": {
          "_0": "CTAG record as Tag struct."
        }
      },
      "isApprovedForAll(address,address)": {
        "details": "See {IERC721-isApprovedForAll}."
      },
      "name()": {
        "details": "See {IERC721Metadata-name}."
      },
      "ownerOf(uint256)": {
        "details": "See {IERC721-ownerOf}."
      },
      "paused()": {
        "details": "Returns true if the contract is paused, and false otherwise."
      },
      "preSetPremiumTags(string[],bool)": {
        "params": {
          "_isPremium": "Boolean true for premium, false for not premium.",
          "_tags": "Array of tag strings."
        }
      },
      "proxiableUUID()": {
        "details": "Implementation of the ERC1822 {proxiableUUID} function. This returns the storage slot used by the implementation. It is used to validate the implementation's compatibility when performing an upgrade. IMPORTANT: A proxy pointing at a proxiable contract should not be considered proxiable itself, because this risks bricking a proxy that upgrades to it, by delegating to itself until out of gas. Thus it is critical that this function revert if invoked through a proxy. This is guaranteed by the `notDelegated` modifier."
      },
      "recycleTag(uint256)": {
        "params": {
          "_tokenId": "Id of CTAG token."
        }
      },
      "renewTag(uint256)": {
        "params": {
          "_tokenId": "Id of CTAG token."
        }
      },
      "safeTransferFrom(address,address,uint256)": {
        "details": "See {IERC721-safeTransferFrom}."
      },
      "safeTransferFrom(address,address,uint256,bytes)": {
        "details": "See {IERC721-safeTransferFrom}."
      },
      "setAccessControls(address)": {
        "params": {
          "_accessControls": "Address of ETSAccessControls contract."
        }
      },
      "setApprovalForAll(address,bool)": {
        "details": "See {IERC721-setApprovalForAll}."
      },
      "setETSCore(address)": {
        "params": {
          "_ets": "Address of ETS contract."
        }
      },
      "setOwnershipTermLength(uint256)": {
        "params": {
          "_ownershipTermLength": "Ownership term length in days."
        }
      },
      "setPremiumFlag(uint256[],bool)": {
        "params": {
          "_isPremium": "Boolean true for premium, false for not premium.",
          "_tokenIds": "Array of CTAG Ids."
        }
      },
      "setReservedFlag(uint256[],bool)": {
        "params": {
          "_reserved": "Boolean true for reserved, false for not reserved.",
          "_tokenIds": "Array of CTAG Ids."
        }
      },
      "setTagMaxStringLength(uint256)": {
        "params": {
          "_tagMaxStringLength": "maximum character length of string."
        }
      },
      "setTagMinStringLength(uint256)": {
        "params": {
          "_tagMinStringLength": "minimum character length of string."
        }
      },
      "symbol()": {
        "details": "See {IERC721Metadata-symbol}."
      },
      "tagExistsById(uint256)": {
        "params": {
          "_tokenId": "Token Id uint computed from tag string via computeTargetId()."
        },
        "returns": {
          "_0": "true if CTAG token exists; false if not."
        }
      },
      "tagExistsByString(string)": {
        "params": {
          "_tag": "Tag string."
        },
        "returns": {
          "_0": "true if CTAG token exists; false if not."
        }
      },
      "tagOwnershipTermExpired(uint256)": {
        "params": {
          "_tokenId": "Token Id uint computed from tag string via computeTargetId()."
        },
        "returns": {
          "_0": "true if CTAG ownership term has expired; false if not."
        }
      },
      "tokenURI(uint256)": {
        "details": "See {IERC721Metadata-tokenURI}."
      },
      "transferFrom(address,address,uint256)": {
        "details": "See {IERC721-transferFrom}."
      },
      "upgradeTo(address)": {
        "custom:oz-upgrades-unsafe-allow-reachable": "delegatecall",
        "details": "Upgrade the implementation of the proxy to `newImplementation`. Calls {_authorizeUpgrade}. Emits an {Upgraded} event."
      },
      "upgradeToAndCall(address,bytes)": {
        "custom:oz-upgrades-unsafe-allow-reachable": "delegatecall",
        "details": "Upgrade the implementation of the proxy to `newImplementation`, and subsequently execute the function call encoded in `data`. Calls {_authorizeUpgrade}. Emits an {Upgraded} event."
      }
    },
    "stateVariables": {
      "tokenIdToLastRenewed": {
        "details": "Mapping of tokenId to last renewal."
      },
      "tokenIdToTag": {
        "details": "Map of CTAG id to CTAG record."
      }
    },
    "version": 1
  },
  "userdoc": {
    "kind": "user",
    "methods": {
      "computeTagId(string)": {
        "notice": "Function to deterministically compute & return a CTAG token Id. Every CTAG token and it's associated data struct is mapped to by it's token Id. This Id is computed from the \"display\" tag string lowercased, hashed and cast as an unsigned integer. Note: Function does not verify if CTAG record exists."
      },
      "createTag(string,address,address)": {
        "notice": "Create CTAG token from tag string. Reverts if tag exists or is invalid. Only ETS Core can call this function."
      },
      "getCreatorAddress(uint256)": {
        "notice": "Retrieve Creator address for a CTAG token."
      },
      "getLastRenewed(uint256)": {
        "notice": "Retrieve last renewal block timestamp for a CTAG."
      },
      "getOrCreateTagId(string,address,address)": {
        "notice": "Get CTAG token Id from tag string. Combo function that accepts a tag string and returns it's CTAG token Id if it exists, or creates a new CTAG and returns corresponding Id. Only ETS Core can call this function."
      },
      "getOwnershipTermLength()": {
        "notice": "Retrieve CTAG ownership term length global setting."
      },
      "getPlatformAddress()": {
        "notice": "Retrieve wallet address for ETS Platform."
      },
      "getTagById(uint256)": {
        "notice": "Retrieve a CTAG record for a given token Id. Note: returns a struct with empty members when no CTAG exists."
      },
      "getTagByString(string)": {
        "notice": "Retrieve a CTAG record for a given tag string. Note: returns a struct with empty members when no CTAG exists."
      },
      "isTagPremium(string)": {
        "notice": "Defines whether a tag has been set up as premium"
      },
      "pause()": {
        "notice": "Pauses ETSToken contract."
      },
      "preSetPremiumTags(string[],bool)": {
        "notice": "Admin function to flag/unflag tag string(s) as premium prior to minting."
      },
      "recycleTag(uint256)": {
        "notice": "Recycles a CTAG back to ETS. When ownership term of a CTAG has expired, any wallet or contract may call this function to recycle the tag back to ETS. Once recycled, a tag may be auctioned again."
      },
      "renewTag(uint256)": {
        "notice": "Renews ownership term of a CTAG. A \"CTAG ownership term\" is utilized to prevent CTAGs from being abandoned or inaccessable due to lost private keys. Any wallet address may renew the term of a CTAG for an owner. When renewed, the term is extended from the current block timestamp plus the ownershipTermLength public variable."
      },
      "setAccessControls(address)": {
        "notice": "Sets ETSAccessControls on the ETSToken contract function calls can be restricted to ETS platform only. Note: Caller of this function must be deployer or pre-set as admin of new contract."
      },
      "setETSCore(address)": {
        "notice": "Sets ETS core on the ETSToken contract so functions can be restricted to ETS platform only."
      },
      "setOwnershipTermLength(uint256)": {
        "notice": "Admin function to set the ownership term length of a CTAG is set."
      },
      "setPremiumFlag(uint256[],bool)": {
        "notice": "Admin function to flag/unflag CTAG(s) as premium."
      },
      "setReservedFlag(uint256[],bool)": {
        "notice": "Admin function to flag/unflag CTAG(s) as reserved. Tags flagged as reserved cannot be auctioned."
      },
      "setTagMaxStringLength(uint256)": {
        "notice": "admin function to set maximum character length of CTAG display string."
      },
      "setTagMinStringLength(uint256)": {
        "notice": "Admin function to set minimum  character length of CTAG display string."
      },
      "tagExistsById(uint256)": {
        "notice": "Check that CTAG token exists for a given computed token Id."
      },
      "tagExistsByString(string)": {
        "notice": "Check that a CTAG token exists for a given tag string."
      },
      "tagOwnershipTermExpired(uint256)": {
        "notice": "Check if CTAG token ownership term has expired."
      },
      "unPause()": {
        "notice": "Unpauses ETSToken contract."
      }
    },
    "version": 1
  },
  "storageLayout": {
    "storage": [
      {
        "astId": 912,
        "contract": "contracts/ETSToken.sol:ETSToken",
        "label": "_initialized",
        "offset": 0,
        "slot": "0",
        "type": "t_uint8"
      },
      {
        "astId": 915,
        "contract": "contracts/ETSToken.sol:ETSToken",
        "label": "_initializing",
        "offset": 1,
        "slot": "0",
        "type": "t_bool"
      },
      {
        "astId": 3508,
        "contract": "contracts/ETSToken.sol:ETSToken",
        "label": "__gap",
        "offset": 0,
        "slot": "1",
        "type": "t_array(t_uint256)50_storage"
      },
      {
        "astId": 4159,
        "contract": "contracts/ETSToken.sol:ETSToken",
        "label": "__gap",
        "offset": 0,
        "slot": "51",
        "type": "t_array(t_uint256)50_storage"
      },
      {
        "astId": 1940,
        "contract": "contracts/ETSToken.sol:ETSToken",
        "label": "_name",
        "offset": 0,
        "slot": "101",
        "type": "t_string_storage"
      },
      {
        "astId": 1942,
        "contract": "contracts/ETSToken.sol:ETSToken",
        "label": "_symbol",
        "offset": 0,
        "slot": "102",
        "type": "t_string_storage"
      },
      {
        "astId": 1946,
        "contract": "contracts/ETSToken.sol:ETSToken",
        "label": "_owners",
        "offset": 0,
        "slot": "103",
        "type": "t_mapping(t_uint256,t_address)"
      },
      {
        "astId": 1950,
        "contract": "contracts/ETSToken.sol:ETSToken",
        "label": "_balances",
        "offset": 0,
        "slot": "104",
        "type": "t_mapping(t_address,t_uint256)"
      },
      {
        "astId": 1954,
        "contract": "contracts/ETSToken.sol:ETSToken",
        "label": "_tokenApprovals",
        "offset": 0,
        "slot": "105",
        "type": "t_mapping(t_uint256,t_address)"
      },
      {
        "astId": 1960,
        "contract": "contracts/ETSToken.sol:ETSToken",
        "label": "_operatorApprovals",
        "offset": 0,
        "slot": "106",
        "type": "t_mapping(t_address,t_mapping(t_address,t_bool))"
      },
      {
        "astId": 2862,
        "contract": "contracts/ETSToken.sol:ETSToken",
        "label": "__gap",
        "offset": 0,
        "slot": "107",
        "type": "t_array(t_uint256)44_storage"
      },
      {
        "astId": 1231,
        "contract": "contracts/ETSToken.sol:ETSToken",
        "label": "_paused",
        "offset": 0,
        "slot": "151",
        "type": "t_bool"
      },
      {
        "astId": 1336,
        "contract": "contracts/ETSToken.sol:ETSToken",
        "label": "__gap",
        "offset": 0,
        "slot": "152",
        "type": "t_array(t_uint256)49_storage"
      },
      {
        "astId": 3109,
        "contract": "contracts/ETSToken.sol:ETSToken",
        "label": "__gap",
        "offset": 0,
        "slot": "201",
        "type": "t_array(t_uint256)50_storage"
      },
      {
        "astId": 3046,
        "contract": "contracts/ETSToken.sol:ETSToken",
        "label": "__gap",
        "offset": 0,
        "slot": "251",
        "type": "t_array(t_uint256)50_storage"
      },
      {
        "astId": 1351,
        "contract": "contracts/ETSToken.sol:ETSToken",
        "label": "_status",
        "offset": 0,
        "slot": "301",
        "type": "t_uint256"
      },
      {
        "astId": 1420,
        "contract": "contracts/ETSToken.sol:ETSToken",
        "label": "__gap",
        "offset": 0,
        "slot": "302",
        "type": "t_array(t_uint256)49_storage"
      },
      {
        "astId": 894,
        "contract": "contracts/ETSToken.sol:ETSToken",
        "label": "__gap",
        "offset": 0,
        "slot": "351",
        "type": "t_array(t_uint256)50_storage"
      },
      {
        "astId": 1209,
        "contract": "contracts/ETSToken.sol:ETSToken",
        "label": "__gap",
        "offset": 0,
        "slot": "401",
        "type": "t_array(t_uint256)50_storage"
      },
      {
        "astId": 13185,
        "contract": "contracts/ETSToken.sol:ETSToken",
        "label": "ets",
        "offset": 0,
        "slot": "451",
        "type": "t_contract(IETS)14629"
      },
      {
        "astId": 13188,
        "contract": "contracts/ETSToken.sol:ETSToken",
        "label": "etsAccessControls",
        "offset": 0,
        "slot": "452",
        "type": "t_contract(IETSAccessControls)14815"
      },
      {
        "astId": 13193,
        "contract": "contracts/ETSToken.sol:ETSToken",
        "label": "tagMinStringLength",
        "offset": 0,
        "slot": "453",
        "type": "t_uint256"
      },
      {
        "astId": 13195,
        "contract": "contracts/ETSToken.sol:ETSToken",
        "label": "tagMaxStringLength",
        "offset": 0,
        "slot": "454",
        "type": "t_uint256"
      },
      {
        "astId": 13197,
        "contract": "contracts/ETSToken.sol:ETSToken",
        "label": "ownershipTermLength",
        "offset": 0,
        "slot": "455",
        "type": "t_uint256"
      },
      {
        "astId": 13203,
        "contract": "contracts/ETSToken.sol:ETSToken",
        "label": "tokenIdToTag",
        "offset": 0,
        "slot": "456",
        "type": "t_mapping(t_uint256,t_struct(Tag)15158_storage)"
      },
      {
        "astId": 13208,
        "contract": "contracts/ETSToken.sol:ETSToken",
        "label": "tokenIdToLastRenewed",
        "offset": 0,
        "slot": "457",
        "type": "t_mapping(t_uint256,t_uint256)"
      },
      {
        "astId": 13213,
        "contract": "contracts/ETSToken.sol:ETSToken",
        "label": "isTagPremium",
        "offset": 0,
        "slot": "458",
        "type": "t_mapping(t_string_memory_ptr,t_bool)"
      }
    ],
    "types": {
      "t_address": {
        "encoding": "inplace",
        "label": "address",
        "numberOfBytes": "20"
      },
      "t_array(t_uint256)44_storage": {
        "base": "t_uint256",
        "encoding": "inplace",
        "label": "uint256[44]",
        "numberOfBytes": "1408"
      },
      "t_array(t_uint256)49_storage": {
        "base": "t_uint256",
        "encoding": "inplace",
        "label": "uint256[49]",
        "numberOfBytes": "1568"
      },
      "t_array(t_uint256)50_storage": {
        "base": "t_uint256",
        "encoding": "inplace",
        "label": "uint256[50]",
        "numberOfBytes": "1600"
      },
      "t_bool": {
        "encoding": "inplace",
        "label": "bool",
        "numberOfBytes": "1"
      },
      "t_contract(IETS)14629": {
        "encoding": "inplace",
        "label": "contract IETS",
        "numberOfBytes": "20"
      },
      "t_contract(IETSAccessControls)14815": {
        "encoding": "inplace",
        "label": "contract IETSAccessControls",
        "numberOfBytes": "20"
      },
      "t_mapping(t_address,t_bool)": {
        "encoding": "mapping",
        "key": "t_address",
        "label": "mapping(address => bool)",
        "numberOfBytes": "32",
        "value": "t_bool"
      },
      "t_mapping(t_address,t_mapping(t_address,t_bool))": {
        "encoding": "mapping",
        "key": "t_address",
        "label": "mapping(address => mapping(address => bool))",
        "numberOfBytes": "32",
        "value": "t_mapping(t_address,t_bool)"
      },
      "t_mapping(t_address,t_uint256)": {
        "encoding": "mapping",
        "key": "t_address",
        "label": "mapping(address => uint256)",
        "numberOfBytes": "32",
        "value": "t_uint256"
      },
      "t_mapping(t_string_memory_ptr,t_bool)": {
        "encoding": "mapping",
        "key": "t_string_memory_ptr",
        "label": "mapping(string => bool)",
        "numberOfBytes": "32",
        "value": "t_bool"
      },
      "t_mapping(t_uint256,t_address)": {
        "encoding": "mapping",
        "key": "t_uint256",
        "label": "mapping(uint256 => address)",
        "numberOfBytes": "32",
        "value": "t_address"
      },
      "t_mapping(t_uint256,t_struct(Tag)15158_storage)": {
        "encoding": "mapping",
        "key": "t_uint256",
        "label": "mapping(uint256 => struct IETSToken.Tag)",
        "numberOfBytes": "32",
        "value": "t_struct(Tag)15158_storage"
      },
      "t_mapping(t_uint256,t_uint256)": {
        "encoding": "mapping",
        "key": "t_uint256",
        "label": "mapping(uint256 => uint256)",
        "numberOfBytes": "32",
        "value": "t_uint256"
      },
      "t_string_memory_ptr": {
        "encoding": "bytes",
        "label": "string",
        "numberOfBytes": "32"
      },
      "t_string_storage": {
        "encoding": "bytes",
        "label": "string",
        "numberOfBytes": "32"
      },
      "t_struct(Tag)15158_storage": {
        "encoding": "inplace",
        "label": "struct IETSToken.Tag",
        "members": [
          {
            "astId": 15149,
            "contract": "contracts/ETSToken.sol:ETSToken",
            "label": "relayer",
            "offset": 0,
            "slot": "0",
            "type": "t_address"
          },
          {
            "astId": 15151,
            "contract": "contracts/ETSToken.sol:ETSToken",
            "label": "creator",
            "offset": 0,
            "slot": "1",
            "type": "t_address"
          },
          {
            "astId": 15153,
            "contract": "contracts/ETSToken.sol:ETSToken",
            "label": "display",
            "offset": 0,
            "slot": "2",
            "type": "t_string_storage"
          },
          {
            "astId": 15155,
            "contract": "contracts/ETSToken.sol:ETSToken",
            "label": "premium",
            "offset": 0,
            "slot": "3",
            "type": "t_bool"
          },
          {
            "astId": 15157,
            "contract": "contracts/ETSToken.sol:ETSToken",
            "label": "reserved",
            "offset": 1,
            "slot": "3",
            "type": "t_bool"
          }
        ],
        "numberOfBytes": "128"
      },
      "t_uint256": {
        "encoding": "inplace",
        "label": "uint256",
        "numberOfBytes": "32"
      },
      "t_uint8": {
        "encoding": "inplace",
        "label": "uint8",
        "numberOfBytes": "1"
      }
    }
  }
}