{
  "_format": "hh-sol-artifact-1",
  "contractName": "ETSTag",
  "sourceName": "contracts/core/ETSTag.sol",
  "abi": [
    {
      "anonymous": false,
      "inputs": [
        {
          "indexed": false,
          "internalType": "contract ETSAccessControls",
          "name": "previousAccessControls",
          "type": "address"
        },
        {
          "indexed": false,
          "internalType": "contract ETSAccessControls",
          "name": "newAccessControls",
          "type": "address"
        }
      ],
      "name": "AccessControlsUpdated",
      "type": "event"
    },
    {
      "anonymous": false,
      "inputs": [
        {
          "indexed": false,
          "internalType": "address",
          "name": "previousAdmin",
          "type": "address"
        },
        {
          "indexed": false,
          "internalType": "address",
          "name": "newAdmin",
          "type": "address"
        }
      ],
      "name": "AdminChanged",
      "type": "event"
    },
    {
      "anonymous": false,
      "inputs": [
        {
          "indexed": true,
          "internalType": "address",
          "name": "owner",
          "type": "address"
        },
        {
          "indexed": true,
          "internalType": "address",
          "name": "approved",
          "type": "address"
        },
        {
          "indexed": true,
          "internalType": "uint256",
          "name": "tokenId",
          "type": "uint256"
        }
      ],
      "name": "Approval",
      "type": "event"
    },
    {
      "anonymous": false,
      "inputs": [
        {
          "indexed": true,
          "internalType": "address",
          "name": "owner",
          "type": "address"
        },
        {
          "indexed": true,
          "internalType": "address",
          "name": "operator",
          "type": "address"
        },
        {
          "indexed": false,
          "internalType": "bool",
          "name": "approved",
          "type": "bool"
        }
      ],
      "name": "ApprovalForAll",
      "type": "event"
    },
    {
      "anonymous": false,
      "inputs": [
        {
          "indexed": true,
          "internalType": "address",
          "name": "beacon",
          "type": "address"
        }
      ],
      "name": "BeaconUpgraded",
      "type": "event"
    },
    {
      "anonymous": false,
      "inputs": [
        {
          "indexed": true,
          "internalType": "uint256",
          "name": "tokenId",
          "type": "uint256"
        },
        {
          "indexed": false,
          "internalType": "string",
          "name": "displayVersion",
          "type": "string"
        },
        {
          "indexed": true,
          "internalType": "address",
          "name": "publisher",
          "type": "address"
        },
        {
          "indexed": false,
          "internalType": "address",
          "name": "creator",
          "type": "address"
        }
      ],
      "name": "MintTag",
      "type": "event"
    },
    {
      "anonymous": false,
      "inputs": [
        {
          "indexed": false,
          "internalType": "string",
          "name": "baseURI",
          "type": "string"
        }
      ],
      "name": "NewBaseURI",
      "type": "event"
    },
    {
      "anonymous": false,
      "inputs": [
        {
          "indexed": false,
          "internalType": "uint256",
          "name": "originalOwnershipLength",
          "type": "uint256"
        },
        {
          "indexed": false,
          "internalType": "uint256",
          "name": "updatedOwnershipLength",
          "type": "uint256"
        }
      ],
      "name": "OwnershipTermLengthUpdated",
      "type": "event"
    },
    {
      "anonymous": false,
      "inputs": [
        {
          "indexed": false,
          "internalType": "address",
          "name": "account",
          "type": "address"
        }
      ],
      "name": "Paused",
      "type": "event"
    },
    {
      "anonymous": false,
      "inputs": [
        {
          "indexed": false,
          "internalType": "address",
          "name": "previousPlatformAddress",
          "type": "address"
        },
        {
          "indexed": false,
          "internalType": "address",
          "name": "newPlatformAddress",
          "type": "address"
        }
      ],
      "name": "PlatformSet",
      "type": "event"
    },
    {
      "anonymous": false,
      "inputs": [
        {
          "indexed": false,
          "internalType": "uint256",
          "name": "originalRenewalPeriod",
          "type": "uint256"
        },
        {
          "indexed": false,
          "internalType": "uint256",
          "name": "updatedRenewalPeriod",
          "type": "uint256"
        }
      ],
      "name": "RenewalPeriodUpdated",
      "type": "event"
    },
    {
      "anonymous": false,
      "inputs": [
        {
          "indexed": true,
          "internalType": "uint256",
          "name": "tokenId",
          "type": "uint256"
        }
      ],
      "name": "TagBurned",
      "type": "event"
    },
    {
      "anonymous": false,
      "inputs": [
        {
          "indexed": false,
          "internalType": "uint256",
          "name": "previousMaxStringLength",
          "type": "uint256"
        },
        {
          "indexed": false,
          "internalType": "uint256",
          "name": "newMaxStringLength",
          "type": "uint256"
        }
      ],
      "name": "TagMaxStringLengthUpdated",
      "type": "event"
    },
    {
      "anonymous": false,
      "inputs": [
        {
          "indexed": true,
          "internalType": "uint256",
          "name": "tokenId",
          "type": "uint256"
        },
        {
          "indexed": true,
          "internalType": "address",
          "name": "owner",
          "type": "address"
        }
      ],
      "name": "TagRecycled",
      "type": "event"
    },
    {
      "anonymous": false,
      "inputs": [
        {
          "indexed": true,
          "internalType": "uint256",
          "name": "tokenId",
          "type": "uint256"
        },
        {
          "indexed": true,
          "internalType": "address",
          "name": "caller",
          "type": "address"
        }
      ],
      "name": "TagRenewed",
      "type": "event"
    },
    {
      "anonymous": false,
      "inputs": [
        {
          "indexed": true,
          "internalType": "address",
          "name": "from",
          "type": "address"
        },
        {
          "indexed": true,
          "internalType": "address",
          "name": "to",
          "type": "address"
        },
        {
          "indexed": true,
          "internalType": "uint256",
          "name": "tokenId",
          "type": "uint256"
        }
      ],
      "name": "Transfer",
      "type": "event"
    },
    {
      "anonymous": false,
      "inputs": [
        {
          "indexed": false,
          "internalType": "address",
          "name": "account",
          "type": "address"
        }
      ],
      "name": "Unpaused",
      "type": "event"
    },
    {
      "anonymous": false,
      "inputs": [
        {
          "indexed": true,
          "internalType": "address",
          "name": "implementation",
          "type": "address"
        }
      ],
      "name": "Upgraded",
      "type": "event"
    },
    {
      "inputs": [],
      "name": "NAME",
      "outputs": [
        {
          "internalType": "string",
          "name": "",
          "type": "string"
        }
      ],
      "stateMutability": "view",
      "type": "function"
    },
    {
      "inputs": [],
      "name": "VERSION",
      "outputs": [
        {
          "internalType": "string",
          "name": "",
          "type": "string"
        }
      ],
      "stateMutability": "view",
      "type": "function"
    },
    {
      "inputs": [],
      "name": "accessControls",
      "outputs": [
        {
          "internalType": "contract ETSAccessControls",
          "name": "",
          "type": "address"
        }
      ],
      "stateMutability": "view",
      "type": "function"
    },
    {
      "inputs": [
        {
          "internalType": "address",
          "name": "to",
          "type": "address"
        },
        {
          "internalType": "uint256",
          "name": "tokenId",
          "type": "uint256"
        }
      ],
      "name": "approve",
      "outputs": [],
      "stateMutability": "nonpayable",
      "type": "function"
    },
    {
      "inputs": [
        {
          "internalType": "address",
          "name": "owner",
          "type": "address"
        }
      ],
      "name": "balanceOf",
      "outputs": [
        {
          "internalType": "uint256",
          "name": "",
          "type": "uint256"
        }
      ],
      "stateMutability": "view",
      "type": "function"
    },
    {
      "inputs": [],
      "name": "baseURI",
      "outputs": [
        {
          "internalType": "string",
          "name": "",
          "type": "string"
        }
      ],
      "stateMutability": "view",
      "type": "function"
    },
    {
      "inputs": [
        {
          "internalType": "uint256",
          "name": "tokenId",
          "type": "uint256"
        }
      ],
      "name": "burn",
      "outputs": [],
      "stateMutability": "nonpayable",
      "type": "function"
    },
    {
      "inputs": [
        {
          "internalType": "string",
          "name": "_tag",
          "type": "string"
        }
      ],
      "name": "computeTagId",
      "outputs": [
        {
          "internalType": "uint256",
          "name": "",
          "type": "uint256"
        }
      ],
      "stateMutability": "pure",
      "type": "function"
    },
    {
      "inputs": [
        {
          "internalType": "uint256",
          "name": "tokenId",
          "type": "uint256"
        }
      ],
      "name": "getApproved",
      "outputs": [
        {
          "internalType": "address",
          "name": "",
          "type": "address"
        }
      ],
      "stateMutability": "view",
      "type": "function"
    },
    {
      "inputs": [
        {
          "internalType": "uint256",
          "name": "_tokenId",
          "type": "uint256"
        }
      ],
      "name": "getCreatorAddress",
      "outputs": [
        {
          "internalType": "address",
          "name": "_creator",
          "type": "address"
        }
      ],
      "stateMutability": "view",
      "type": "function"
    },
    {
      "inputs": [
        {
          "internalType": "uint256",
          "name": "_tokenId",
          "type": "uint256"
        }
      ],
      "name": "getPaymentAddresses",
      "outputs": [
        {
          "internalType": "address payable",
          "name": "_platform",
          "type": "address"
        },
        {
          "internalType": "address payable",
          "name": "_owner",
          "type": "address"
        }
      ],
      "stateMutability": "view",
      "type": "function"
    },
    {
      "inputs": [
        {
          "internalType": "contract ETSAccessControls",
          "name": "_accessControls",
          "type": "address"
        },
        {
          "internalType": "address payable",
          "name": "_platform",
          "type": "address"
        }
      ],
      "name": "initialize",
      "outputs": [],
      "stateMutability": "nonpayable",
      "type": "function"
    },
    {
      "inputs": [
        {
          "internalType": "address",
          "name": "owner",
          "type": "address"
        },
        {
          "internalType": "address",
          "name": "operator",
          "type": "address"
        }
      ],
      "name": "isApprovedForAll",
      "outputs": [
        {
          "internalType": "bool",
          "name": "",
          "type": "bool"
        }
      ],
      "stateMutability": "view",
      "type": "function"
    },
    {
      "inputs": [
        {
          "internalType": "string",
          "name": "_tag",
          "type": "string"
        },
        {
          "internalType": "address payable",
          "name": "_publisher",
          "type": "address"
        },
        {
          "internalType": "address",
          "name": "_creator",
          "type": "address"
        }
      ],
      "name": "mint",
      "outputs": [
        {
          "internalType": "uint256",
          "name": "_tokenId",
          "type": "uint256"
        }
      ],
      "stateMutability": "payable",
      "type": "function"
    },
    {
      "inputs": [],
      "name": "name",
      "outputs": [
        {
          "internalType": "string",
          "name": "",
          "type": "string"
        }
      ],
      "stateMutability": "view",
      "type": "function"
    },
    {
      "inputs": [
        {
          "internalType": "uint256",
          "name": "tokenId",
          "type": "uint256"
        }
      ],
      "name": "ownerOf",
      "outputs": [
        {
          "internalType": "address",
          "name": "",
          "type": "address"
        }
      ],
      "stateMutability": "view",
      "type": "function"
    },
    {
      "inputs": [],
      "name": "ownershipTermLength",
      "outputs": [
        {
          "internalType": "uint256",
          "name": "",
          "type": "uint256"
        }
      ],
      "stateMutability": "view",
      "type": "function"
    },
    {
      "inputs": [],
      "name": "pause",
      "outputs": [],
      "stateMutability": "nonpayable",
      "type": "function"
    },
    {
      "inputs": [],
      "name": "paused",
      "outputs": [
        {
          "internalType": "bool",
          "name": "",
          "type": "bool"
        }
      ],
      "stateMutability": "view",
      "type": "function"
    },
    {
      "inputs": [],
      "name": "platform",
      "outputs": [
        {
          "internalType": "address payable",
          "name": "",
          "type": "address"
        }
      ],
      "stateMutability": "view",
      "type": "function"
    },
    {
      "inputs": [
        {
          "internalType": "uint256",
          "name": "_tokenId",
          "type": "uint256"
        }
      ],
      "name": "recycleTag",
      "outputs": [],
      "stateMutability": "nonpayable",
      "type": "function"
    },
    {
      "inputs": [
        {
          "internalType": "uint256",
          "name": "_tokenId",
          "type": "uint256"
        }
      ],
      "name": "renewTag",
      "outputs": [],
      "stateMutability": "nonpayable",
      "type": "function"
    },
    {
      "inputs": [
        {
          "internalType": "address",
          "name": "from",
          "type": "address"
        },
        {
          "internalType": "address",
          "name": "to",
          "type": "address"
        },
        {
          "internalType": "uint256",
          "name": "tokenId",
          "type": "uint256"
        }
      ],
      "name": "safeTransferFrom",
      "outputs": [],
      "stateMutability": "nonpayable",
      "type": "function"
    },
    {
      "inputs": [
        {
          "internalType": "address",
          "name": "from",
          "type": "address"
        },
        {
          "internalType": "address",
          "name": "to",
          "type": "address"
        },
        {
          "internalType": "uint256",
          "name": "tokenId",
          "type": "uint256"
        },
        {
          "internalType": "bytes",
          "name": "_data",
          "type": "bytes"
        }
      ],
      "name": "safeTransferFrom",
      "outputs": [],
      "stateMutability": "nonpayable",
      "type": "function"
    },
    {
      "inputs": [
        {
          "internalType": "address",
          "name": "operator",
          "type": "address"
        },
        {
          "internalType": "bool",
          "name": "approved",
          "type": "bool"
        }
      ],
      "name": "setApprovalForAll",
      "outputs": [],
      "stateMutability": "nonpayable",
      "type": "function"
    },
    {
      "inputs": [
        {
          "internalType": "bytes4",
          "name": "interfaceId",
          "type": "bytes4"
        }
      ],
      "name": "supportsInterface",
      "outputs": [
        {
          "internalType": "bool",
          "name": "",
          "type": "bool"
        }
      ],
      "stateMutability": "view",
      "type": "function"
    },
    {
      "inputs": [],
      "name": "symbol",
      "outputs": [
        {
          "internalType": "string",
          "name": "",
          "type": "string"
        }
      ],
      "stateMutability": "view",
      "type": "function"
    },
    {
      "inputs": [
        {
          "internalType": "string",
          "name": "_tag",
          "type": "string"
        }
      ],
      "name": "tagExists",
      "outputs": [
        {
          "internalType": "bool",
          "name": "",
          "type": "bool"
        }
      ],
      "stateMutability": "view",
      "type": "function"
    },
    {
      "inputs": [
        {
          "internalType": "uint256",
          "name": "_tokenId",
          "type": "uint256"
        }
      ],
      "name": "tagExists",
      "outputs": [
        {
          "internalType": "bool",
          "name": "",
          "type": "bool"
        }
      ],
      "stateMutability": "view",
      "type": "function"
    },
    {
      "inputs": [],
      "name": "tagMaxStringLength",
      "outputs": [
        {
          "internalType": "uint256",
          "name": "",
          "type": "uint256"
        }
      ],
      "stateMutability": "view",
      "type": "function"
    },
    {
      "inputs": [],
      "name": "tagMinStringLength",
      "outputs": [
        {
          "internalType": "uint256",
          "name": "",
          "type": "uint256"
        }
      ],
      "stateMutability": "view",
      "type": "function"
    },
    {
      "inputs": [
        {
          "internalType": "uint256",
          "name": "",
          "type": "uint256"
        }
      ],
      "name": "tokenIdToLastTransferTime",
      "outputs": [
        {
          "internalType": "uint256",
          "name": "",
          "type": "uint256"
        }
      ],
      "stateMutability": "view",
      "type": "function"
    },
    {
      "inputs": [
        {
          "internalType": "uint256",
          "name": "",
          "type": "uint256"
        }
      ],
      "name": "tokenIdToTag",
      "outputs": [
        {
          "internalType": "address",
          "name": "originalPublisher",
          "type": "address"
        },
        {
          "internalType": "address",
          "name": "creator",
          "type": "address"
        },
        {
          "internalType": "string",
          "name": "displayVersion",
          "type": "string"
        }
      ],
      "stateMutability": "view",
      "type": "function"
    },
    {
      "inputs": [],
      "name": "tokenPointer",
      "outputs": [
        {
          "internalType": "uint256",
          "name": "",
          "type": "uint256"
        }
      ],
      "stateMutability": "view",
      "type": "function"
    },
    {
      "inputs": [
        {
          "internalType": "uint256",
          "name": "tokenId",
          "type": "uint256"
        }
      ],
      "name": "tokenURI",
      "outputs": [
        {
          "internalType": "string",
          "name": "",
          "type": "string"
        }
      ],
      "stateMutability": "view",
      "type": "function"
    },
    {
      "inputs": [
        {
          "internalType": "address",
          "name": "from",
          "type": "address"
        },
        {
          "internalType": "address",
          "name": "to",
          "type": "address"
        },
        {
          "internalType": "uint256",
          "name": "tokenId",
          "type": "uint256"
        }
      ],
      "name": "transferFrom",
      "outputs": [],
      "stateMutability": "nonpayable",
      "type": "function"
    },
    {
      "inputs": [],
      "name": "unPause",
      "outputs": [],
      "stateMutability": "nonpayable",
      "type": "function"
    },
    {
      "inputs": [
        {
          "internalType": "contract ETSAccessControls",
          "name": "_accessControls",
          "type": "address"
        }
      ],
      "name": "updateAccessControls",
      "outputs": [],
      "stateMutability": "nonpayable",
      "type": "function"
    },
    {
      "inputs": [
        {
          "internalType": "string",
          "name": "newBaseURI",
          "type": "string"
        }
      ],
      "name": "updateBaseURI",
      "outputs": [],
      "stateMutability": "nonpayable",
      "type": "function"
    },
    {
      "inputs": [
        {
          "internalType": "uint256",
          "name": "_ownershipTermLength",
          "type": "uint256"
        }
      ],
      "name": "updateOwnershipTermLength",
      "outputs": [],
      "stateMutability": "nonpayable",
      "type": "function"
    },
    {
      "inputs": [
        {
          "internalType": "address payable",
          "name": "_platform",
          "type": "address"
        }
      ],
      "name": "updatePlatform",
      "outputs": [],
      "stateMutability": "nonpayable",
      "type": "function"
    },
    {
      "inputs": [
        {
          "internalType": "uint256",
          "name": "_tagMaxStringLength",
          "type": "uint256"
        }
      ],
      "name": "updateTagMaxStringLength",
      "outputs": [],
      "stateMutability": "nonpayable",
      "type": "function"
    },
    {
      "inputs": [
        {
          "internalType": "address",
          "name": "newImplementation",
          "type": "address"
        }
      ],
      "name": "upgradeTo",
      "outputs": [],
      "stateMutability": "nonpayable",
      "type": "function"
    },
    {
      "inputs": [
        {
          "internalType": "address",
          "name": "newImplementation",
          "type": "address"
        },
        {
          "internalType": "bytes",
          "name": "data",
          "type": "bytes"
        }
      ],
      "name": "upgradeToAndCall",
      "outputs": [],
      "stateMutability": "payable",
      "type": "function"
    },
    {
      "inputs": [],
      "name": "version",
      "outputs": [
        {
          "internalType": "string",
          "name": "",
          "type": "string"
        }
      ],
      "stateMutability": "pure",
      "type": "function"
    }
  ],
  "bytecode": "0x60a06040523060805234801561001457600080fd5b506080516144cc61004560003960008181610c3001528181610cb50152818161112601526111ab01526144cc6000f3fe6080604052600436106102f25760003560e01c80638456cb591161018f578063b88d4fde116100e1578063e8d3e4b61161008a578063f143fc6111610064578063f143fc61146108c8578063f7b188a5146108e8578063ffa1ad74146108fd57600080fd5b8063e8d3e4b61461083f578063e985e9c51461085f578063f0b35042146108a857600080fd5b8063d3c80bd8116100bb578063d3c80bd8146107e8578063d7ba63f514610808578063db7af5fb1461082857600080fd5b8063b88d4fde14610788578063c157daea146107a8578063c87b56dd146107c857600080fd5b8063a22cb46511610143578063a3f4df7e1161011d578063a3f4df7e146106f9578063ad014a5b14610742578063adf63cd21461077157600080fd5b8063a22cb4651461067f578063a293da0f1461069f578063a30b4db9146106bf57600080fd5b806390b467ea1161017457806390b467ea1461061c578063931688cb1461064a57806395d89b411461066a57600080fd5b80638456cb59146105c7578063878327ab146105dc57600080fd5b80634bde38c8116102485780636c0360eb116101fc578063748365ef116101d6578063748365ef146105735780637e6d945e14610594578063828fe4d0146105a757600080fd5b80636c0360eb1461051e5780636ef3da941461053357806370a082311461055357600080fd5b806354fd4d501161022d57806354fd4d50146104b85780635c975abb146104e65780636352211e146104fe57600080fd5b80634bde38c8146104845780634f1ef286146104a557600080fd5b806323b872dd116102aa57806342842e0e1161028457806342842e0e1461042457806342966c6814610444578063485cc9551461046457600080fd5b806323b872dd146103cd5780632e611630146103ed5780633659cfe61461040457600080fd5b806306fdde03116102db57806306fdde0314610351578063081812fc14610373578063095ea7b3146103ab57600080fd5b806301ffc9a7146102f7578063028316511461032c575b600080fd5b34801561030357600080fd5b50610317610312366004613d2b565b61092e565b60405190151581526020015b60405180910390f35b34801561033857600080fd5b506103436101935481565b604051908152602001610323565b34801561035d57600080fd5b5061036661093f565b6040516103239190613da0565b34801561037f57600080fd5b5061039361038e366004613db3565b6109d1565b6040516001600160a01b039091168152602001610323565b3480156103b757600080fd5b506103cb6103c6366004613de1565b610a6b565b005b3480156103d957600080fd5b506103cb6103e8366004613e0d565b610b9d565b3480156103f957600080fd5b506103436101955481565b34801561041057600080fd5b506103cb61041f366004613e4e565b610c25565b34801561043057600080fd5b506103cb61043f366004613e0d565b610da1565b34801561045057600080fd5b506103cb61045f366004613db3565b610dbc565b34801561047057600080fd5b506103cb61047f366004613e6b565b610f43565b34801561049057600080fd5b5061019654610393906001600160a01b031681565b6103cb6104b3366004613f50565b61111b565b3480156104c457600080fd5b506040805180820190915260058152640302e322e360dc1b6020820152610366565b3480156104f257600080fd5b5060975460ff16610317565b34801561050a57600080fd5b50610393610519366004613db3565b611288565b34801561052a57600080fd5b50610366611313565b34801561053f57600080fd5b506103cb61054e366004613e4e565b6113a2565b34801561055f57600080fd5b5061034361056e366004613e4e565b611556565b34801561057f57600080fd5b5061019754610393906001600160a01b031681565b6103436105a2366004613fe9565b6115f0565b3480156105b357600080fd5b506103176105c2366004614051565b61185a565b3480156105d357600080fd5b506103cb6118c2565b3480156105e857600080fd5b506105fc6105f7366004613db3565b6119a1565b604080516001600160a01b03938416815292909116602083015201610323565b34801561062857600080fd5b50610343610637366004613db3565b6101996020526000908152604090205481565b34801561065657600080fd5b506103cb610665366004614051565b6119c5565b34801561067657600080fd5b50610366611ad9565b34801561068b57600080fd5b506103cb61069a3660046140a1565b611ae8565b3480156106ab57600080fd5b506103cb6106ba366004613e4e565b611af3565b3480156106cb57600080fd5b506103936106da366004613db3565b600090815261019860205260409020600101546001600160a01b031690565b34801561070557600080fd5b506103666040518060400160405280600c81526020017f45545354414720546f6b656e000000000000000000000000000000000000000081525081565b34801561074e57600080fd5b5061076261075d366004613db3565b611c23565b604051610323939291906140cf565b34801561077d57600080fd5b506103436101945481565b34801561079457600080fd5b506103cb6107a33660046140fb565b611cdc565b3480156107b457600080fd5b506103cb6107c3366004613db3565b611d6a565b3480156107d457600080fd5b506103666107e3366004613db3565b611e12565b3480156107f457600080fd5b50610317610803366004613db3565b611efa565b34801561081457600080fd5b506103cb610823366004613db3565b611f19565b34801561083457600080fd5b506103436101925481565b34801561084b57600080fd5b506103cb61085a366004613db3565b61202d565b34801561086b57600080fd5b5061031761087a366004613e6b565b6001600160a01b039182166000908152606a6020908152604080832093909416825291909152205460ff1690565b3480156108b457600080fd5b506103cb6108c3366004613db3565b612208565b3480156108d457600080fd5b506103436108e3366004614167565b61231c565b3480156108f457600080fd5b506103cb612337565b34801561090957600080fd5b50610366604051806040016040528060058152602001640302e322e360dc1b81525081565b600061093982612414565b92915050565b60606065805461094e906141b0565b80601f016020809104026020016040519081016040528092919081815260200182805461097a906141b0565b80156109c75780601f1061099c576101008083540402835291602001916109c7565b820191906000526020600020905b8154815290600101906020018083116109aa57829003601f168201915b5050505050905090565b6000818152606760205260408120546001600160a01b0316610a4f5760405162461bcd60e51b815260206004820152602c60248201527f4552433732313a20617070726f76656420717565727920666f72206e6f6e657860448201526b34b9ba32b73a103a37b5b2b760a11b60648201526084015b60405180910390fd5b506000908152606960205260409020546001600160a01b031690565b6000610a7682611288565b9050806001600160a01b0316836001600160a01b03161415610b005760405162461bcd60e51b815260206004820152602160248201527f4552433732313a20617070726f76616c20746f2063757272656e74206f776e6560448201527f72000000000000000000000000000000000000000000000000000000000000006064820152608401610a46565b336001600160a01b0382161480610b1c5750610b1c813361087a565b610b8e5760405162461bcd60e51b815260206004820152603860248201527f4552433732313a20617070726f76652063616c6c6572206973206e6f74206f7760448201527f6e6572206e6f7220617070726f76656420666f7220616c6c00000000000000006064820152608401610a46565b610b9883836124af565b505050565b610ba8335b8261251d565b610c1a5760405162461bcd60e51b815260206004820152603160248201527f4552433732313a207472616e736665722063616c6c6572206973206e6f74206f60448201527f776e6572206e6f7220617070726f7665640000000000000000000000000000006064820152608401610a46565b610b98838383612610565b306001600160a01b037f0000000000000000000000000000000000000000000000000000000000000000161415610cb35760405162461bcd60e51b815260206004820152602c60248201527f46756e6374696f6e206d7573742062652063616c6c6564207468726f7567682060448201526b19195b1959d85d1958d85b1b60a21b6064820152608401610a46565b7f00000000000000000000000000000000000000000000000000000000000000006001600160a01b0316610d0e7f360894a13ba1a3210667c828492db98dca3e2076cc3735a920a3ca505d382bbc546001600160a01b031690565b6001600160a01b031614610d795760405162461bcd60e51b815260206004820152602c60248201527f46756e6374696f6e206d7573742062652063616c6c6564207468726f7567682060448201526b6163746976652070726f787960a01b6064820152608401610a46565b610d82816127e8565b60408051600080825260208201909252610d9e918391906128bd565b50565b610b9883838360405180602001604052806000815250611cdc565b610197546001600160a01b03166324d7806c336040516001600160e01b031960e084901b1681526001600160a01b039091166004820152602401602060405180830381865afa158015610e13573d6000803e3d6000fd5b505050506040513d601f19601f82011682018060405250810190610e3791906141eb565b610e915760405162461bcd60e51b815260206004820152602560248201527f43616c6c6572206d75737420686176652061646d696e6973747261746f722061604482015264636365737360d81b6064820152608401610a46565b610e9a33610ba2565b610f0c5760405162461bcd60e51b815260206004820152603060248201527f4552433732314275726e61626c653a2063616c6c6572206973206e6f74206f7760448201527f6e6572206e6f7220617070726f766564000000000000000000000000000000006064820152608401610a46565b610f1581612a81565b60405181907f7f928e3c53f35086b51ff7b9bfd4651b14e8b9ccb0535aa4a085fb2881785b8290600090a250565b600054610100900460ff16610f5e5760005460ff1615610f62565b303b155b610fd45760405162461bcd60e51b815260206004820152602e60248201527f496e697469616c697a61626c653a20636f6e747261637420697320616c72656160448201527f647920696e697469616c697a65640000000000000000000000000000000000006064820152608401610a46565b600054610100900460ff16158015610ff6576000805461ffff19166101011790555b61106a6040518060400160405280601481526020017f457468657265756d2054616720536572766963650000000000000000000000008152506040518060400160405280600681526020017f4554535441470000000000000000000000000000000000000000000000000000815250612b28565b611072612bad565b61107a612c38565b61019780546001600160a01b038086166001600160a01b0319928316179092556101968054928516929091169190911790556303c26700610192556040805180820190915260208082527f68747470733a2f2f6170692e686173687461672d70726f746f636f6c2e696f2f9181019182526110f89161019191613c08565b506001610194556020610195558015610b98576000805461ff0019169055505050565b306001600160a01b037f00000000000000000000000000000000000000000000000000000000000000001614156111a95760405162461bcd60e51b815260206004820152602c60248201527f46756e6374696f6e206d7573742062652063616c6c6564207468726f7567682060448201526b19195b1959d85d1958d85b1b60a21b6064820152608401610a46565b7f00000000000000000000000000000000000000000000000000000000000000006001600160a01b03166112047f360894a13ba1a3210667c828492db98dca3e2076cc3735a920a3ca505d382bbc546001600160a01b031690565b6001600160a01b03161461126f5760405162461bcd60e51b815260206004820152602c60248201527f46756e6374696f6e206d7573742062652063616c6c6564207468726f7567682060448201526b6163746976652070726f787960a01b6064820152608401610a46565b611278826127e8565b611284828260016128bd565b5050565b6000818152606760205260408120546001600160a01b0316806109395760405162461bcd60e51b815260206004820152602960248201527f4552433732313a206f776e657220717565727920666f72206e6f6e657869737460448201527f656e7420746f6b656e00000000000000000000000000000000000000000000006064820152608401610a46565b6101918054611321906141b0565b80601f016020809104026020016040519081016040528092919081815260200182805461134d906141b0565b801561139a5780601f1061136f5761010080835404028352916020019161139a565b820191906000526020600020905b81548152906001019060200180831161137d57829003601f168201915b505050505081565b610197546001600160a01b03166324d7806c336040516001600160e01b031960e084901b1681526001600160a01b039091166004820152602401602060405180830381865afa1580156113f9573d6000803e3d6000fd5b505050506040513d601f19601f8201168201806040525081019061141d91906141eb565b6114775760405162461bcd60e51b815260206004820152602560248201527f43616c6c6572206d75737420686176652061646d696e6973747261746f722061604482015264636365737360d81b6064820152608401610a46565b6001600160a01b0381166114f35760405162461bcd60e51b815260206004820152602b60248201527f4554535461672e757064617465416363657373436f6e74726f6c733a2043616e60448201527f6e6f74206265207a65726f0000000000000000000000000000000000000000006064820152608401610a46565b61019780546001600160a01b038381166001600160a01b031983168117909355604080519190921680825260208201939093527f31073599bfae2533a348dc816b0ce777b707aa9b67015ca2d86585e842b5c6e991015b60405180910390a15050565b60006001600160a01b0382166115d45760405162461bcd60e51b815260206004820152602a60248201527f4552433732313a2062616c616e636520717565727920666f7220746865207a6560448201527f726f2061646472657373000000000000000000000000000000000000000000006064820152608401610a46565b506001600160a01b031660009081526068602052604090205490565b610197546040517f41859ac80000000000000000000000000000000000000000000000000000000081526001600160a01b03848116600483015260009216906341859ac890602401602060405180830381865afa158015611655573d6000803e3d6000fd5b505050506040513d601f19601f8201168201806040525081019061167991906141eb565b6116eb5760405162461bcd60e51b815260206004820152602760248201527f4d696e743a20546865207075626c6973686572206d757374206265207768697460448201527f656c6973746564000000000000000000000000000000000000000000000000006064820152608401610a46565b600061172c86868080601f016020809104026020016040519081016040528093929190818152602001838380828437600092019190915250612cb392505050565b61019654909150611746906001600160a01b031682612f27565b6040518060600160405280856001600160a01b03168152602001846001600160a01b0316815260200187878080601f01602080910402602001604051908101604052809392919081815260200183838082843760009201829052509390945250508381526101986020908152604091829020845181546001600160a01b039182166001600160a01b0319918216178355868401516001840180549190931691161790559184015180519293506118059260028501929190910190613c08565b50905050836001600160a01b0316817f85d182e335717d2d833be448c2f6a5864b8514dfeb8cda8f0fbac14f5157f0be88888760405161184793929190614208565b60405180910390a390505b949350505050565b60006118bb61189e84848080601f01602080910402602001604051908101604052809392919081815260200183838082843760009201919091525061231c92505050565b6000908152606760205260409020546001600160a01b0316151590565b9392505050565b610197546001600160a01b03166324d7806c336040516001600160e01b031960e084901b1681526001600160a01b039091166004820152602401602060405180830381865afa158015611919573d6000803e3d6000fd5b505050506040513d601f19601f8201168201806040525081019061193d91906141eb565b6119975760405162461bcd60e51b815260206004820152602560248201527f43616c6c6572206d75737420686176652061646d696e6973747261746f722061604482015264636365737360d81b6064820152608401610a46565b61199f612f41565b565b6101965460009081906001600160a01b03166119bc84611288565b91509150915091565b610197546001600160a01b03166324d7806c336040516001600160e01b031960e084901b1681526001600160a01b039091166004820152602401602060405180830381865afa158015611a1c573d6000803e3d6000fd5b505050506040513d601f19601f82011682018060405250810190611a4091906141eb565b611a9a5760405162461bcd60e51b815260206004820152602560248201527f43616c6c6572206d75737420686176652061646d696e6973747261746f722061604482015264636365737360d81b6064820152608401610a46565b611aa76101918383613c8c565b507f325d37e8fb549c86966f09bc3e6f62eb3afa93b255d6e3234338001f3d80bd8661019160405161154a919061424a565b60606066805461094e906141b0565b611284338383612fe6565b610197546001600160a01b03166324d7806c336040516001600160e01b031960e084901b1681526001600160a01b039091166004820152602401602060405180830381865afa158015611b4a573d6000803e3d6000fd5b505050506040513d601f19601f82011682018060405250810190611b6e91906141eb565b611bc85760405162461bcd60e51b815260206004820152602560248201527f43616c6c6572206d75737420686176652061646d696e6973747261746f722061604482015264636365737360d81b6064820152608401610a46565b61019680546001600160a01b038381166001600160a01b031983168117909355604080519190921680825260208201939093527f0e8ce4b57fd24de168e9c8d76109cb59a7852e78b3575da1ba2077dd53d330ec910161154a565b610198602052600090815260409020805460018201546002830180546001600160a01b03938416949290931692611c59906141b0565b80601f0160208091040260200160405190810160405280929190818152602001828054611c85906141b0565b8015611cd25780601f10611ca757610100808354040283529160200191611cd2565b820191906000526020600020905b815481529060010190602001808311611cb557829003601f168201915b5050505050905083565b611ce6338361251d565b611d585760405162461bcd60e51b815260206004820152603160248201527f4552433732313a207472616e736665722063616c6c6572206973206e6f74206f60448201527f776e6572206e6f7220617070726f7665640000000000000000000000000000006064820152608401610a46565b611d64848484846130b5565b50505050565b611d7381611288565b6001600160a01b0316336001600160a01b031614611dd35760405162461bcd60e51b815260206004820152601860248201527f72656e65775461673a20496e76616c69642073656e64657200000000000000006044820152606401610a46565b6000818152610199602052604080822042905551339183917faa0c0591942aff60e66bde156168c9a47ef843534b433bbaa33e62d1410f4f2c9190a350565b6000818152606760205260409020546060906001600160a01b0316611e9f5760405162461bcd60e51b815260206004820152602f60248201527f4552433732314d657461646174613a2055524920717565727920666f72206e6f60448201527f6e6578697374656e7420746f6b656e00000000000000000000000000000000006064820152608401610a46565b6000611ea9613133565b90506000815111611ec957604051806020016040528060008152506118bb565b80611ed384613143565b604051602001611ee49291906142f2565b6040516020818303038152906040529392505050565b6000818152606760205260408120546001600160a01b03161515610939565b610197546001600160a01b03166324d7806c336040516001600160e01b031960e084901b1681526001600160a01b039091166004820152602401602060405180830381865afa158015611f70573d6000803e3d6000fd5b505050506040513d601f19601f82011682018060405250810190611f9491906141eb565b611fee5760405162461bcd60e51b815260206004820152602560248201527f43616c6c6572206d75737420686176652061646d696e6973747261746f722061604482015264636365737360d81b6064820152608401610a46565b61019280549082905560408051828152602081018490527f7550fd28481dfa2a7590562881c3fffa398e97624ad6eeae494cf36c51e2a906910161154a565b6000818152606760205260409020546001600160a01b03166120915760405162461bcd60e51b815260206004820152601c60248201527f72656379636c655461673a20496e76616c696420746f6b656e204944000000006044820152606401610a46565b610196546001600160a01b03166120a782611288565b6001600160a01b031614156121245760405162461bcd60e51b815260206004820152602d60248201527f72656379636c655461673a2054616720616c7265616479206f776e656420627960448201527f2074686520706c6174666f726d000000000000000000000000000000000000006064820152608401610a46565b6000818152610199602052604090205461019254429061214590839061325d565b106121b85760405162461bcd60e51b815260206004820152603060248201527f72656379636c655461673a20546f6b656e206e6f7420656c696769626c65206660448201527f6f722072656379636c696e6720796574000000000000000000000000000000006064820152608401610a46565b6121d76121c483611288565b610196546001600160a01b031684612610565b604051339083907f0f842a1659c86d6e422461459fb2ab6fa8af886fd1cf9978a73dd299f23ccc7a90600090a35050565b610197546001600160a01b03166324d7806c336040516001600160e01b031960e084901b1681526001600160a01b039091166004820152602401602060405180830381865afa15801561225f573d6000803e3d6000fd5b505050506040513d601f19601f8201168201806040525081019061228391906141eb565b6122dd5760405162461bcd60e51b815260206004820152602560248201527f43616c6c6572206d75737420686176652061646d696e6973747261746f722061604482015264636365737360d81b6064820152608401610a46565b61019580549082905560408051828152602081018490527f3bcd7d0ed4502e81afe37fd199a6a8e34e8d351fdafd54d97726970c18fdcd2b910161154a565b60008061232883613269565b80516020909101209392505050565b610197546001600160a01b03166324d7806c336040516001600160e01b031960e084901b1681526001600160a01b039091166004820152602401602060405180830381865afa15801561238e573d6000803e3d6000fd5b505050506040513d601f19601f820116820180604052508101906123b291906141eb565b61240c5760405162461bcd60e51b815260206004820152602560248201527f43616c6c6572206d75737420686176652061646d696e6973747261746f722061604482015264636365737360d81b6064820152608401610a46565b61199f6133e0565b60006001600160e01b031982167f80ac58cd00000000000000000000000000000000000000000000000000000000148061247757506001600160e01b031982167f5b5e139f00000000000000000000000000000000000000000000000000000000145b8061093957507f01ffc9a7000000000000000000000000000000000000000000000000000000006001600160e01b0319831614610939565b600081815260696020526040902080546001600160a01b0319166001600160a01b03841690811790915581906124e482611288565b6001600160a01b03167f8c5be1e5ebec7d5bd14f71427d1e84f3dd0314c0f7b2291e5b200ac8c7c3b92560405160405180910390a45050565b6000818152606760205260408120546001600160a01b03166125965760405162461bcd60e51b815260206004820152602c60248201527f4552433732313a206f70657261746f7220717565727920666f72206e6f6e657860448201526b34b9ba32b73a103a37b5b2b760a11b6064820152608401610a46565b60006125a183611288565b9050806001600160a01b0316846001600160a01b031614806125dc5750836001600160a01b03166125d1846109d1565b6001600160a01b0316145b8061185257506001600160a01b038082166000908152606a602090815260408083209388168352929052205460ff16611852565b826001600160a01b031661262382611288565b6001600160a01b03161461269f5760405162461bcd60e51b815260206004820152602960248201527f4552433732313a207472616e73666572206f6620746f6b656e2074686174206960448201527f73206e6f74206f776e00000000000000000000000000000000000000000000006064820152608401610a46565b6001600160a01b03821661271a5760405162461bcd60e51b8152602060048201526024808201527f4552433732313a207472616e7366657220746f20746865207a65726f2061646460448201527f72657373000000000000000000000000000000000000000000000000000000006064820152608401610a46565b612725838383613463565b6127306000826124af565b6001600160a01b0383166000908152606860205260408120805460019290612759908490614337565b90915550506001600160a01b038216600090815260686020526040812080546001929061278790849061434e565b909155505060008181526067602052604080822080546001600160a01b0319166001600160a01b0386811691821790925591518493918716917fddf252ad1be2c89b69c2b068fc378daa952ba7f163c4a11628f55a4df523b3ef91a4505050565b610197546001600160a01b03166324d7806c336040516001600160e01b031960e084901b1681526001600160a01b039091166004820152602401602060405180830381865afa15801561283f573d6000803e3d6000fd5b505050506040513d601f19601f8201168201806040525081019061286391906141eb565b610d9e5760405162461bcd60e51b815260206004820152602560248201527f43616c6c6572206d75737420686176652061646d696e6973747261746f722061604482015264636365737360d81b6064820152608401610a46565b60006128f07f360894a13ba1a3210667c828492db98dca3e2076cc3735a920a3ca505d382bbc546001600160a01b031690565b90506128fb846134eb565b6000835111806129085750815b156129195761291784846135a0565b505b7f4910fdfa16fed3260ed0e7147f7cc6da11a60208b5b9406d12a635614ffd9143805460ff16612a7a57805460ff191660011781556040516001600160a01b03831660248201526129c690869060440160408051601f198184030181529190526020810180517bffffffffffffffffffffffffffffffffffffffffffffffffffffffff167f3659cfe6000000000000000000000000000000000000000000000000000000001790526135a0565b50805460ff191681557f360894a13ba1a3210667c828492db98dca3e2076cc3735a920a3ca505d382bbc546001600160a01b03838116911614612a715760405162461bcd60e51b815260206004820152602f60248201527f45524331393637557067726164653a207570677261646520627265616b73206660448201527f75727468657220757067726164657300000000000000000000000000000000006064820152608401610a46565b612a7a856136a2565b5050505050565b6000612a8c82611288565b9050612a9a81600084613463565b612aa56000836124af565b6001600160a01b0381166000908152606860205260408120805460019290612ace908490614337565b909155505060008281526067602052604080822080546001600160a01b0319169055518391906001600160a01b038416907fddf252ad1be2c89b69c2b068fc378daa952ba7f163c4a11628f55a4df523b3ef908390a45050565b600054610100900460ff16612b935760405162461bcd60e51b815260206004820152602b60248201527f496e697469616c697a61626c653a20636f6e7472616374206973206e6f74206960448201526a6e697469616c697a696e6760a81b6064820152608401610a46565b612b9b6136e2565b612ba36136e2565b611284828261374d565b600054610100900460ff16612c185760405162461bcd60e51b815260206004820152602b60248201527f496e697469616c697a61626c653a20636f6e7472616374206973206e6f74206960448201526a6e697469616c697a696e6760a81b6064820152608401610a46565b612c206136e2565b612c286136e2565b612c306137df565b61199f6136e2565b600054610100900460ff16612ca35760405162461bcd60e51b815260206004820152602b60248201527f496e697469616c697a61626c653a20636f6e7472616374206973206e6f74206960448201526a6e697469616c697a696e6760a81b6064820152608401610a46565b612cab6136e2565b612c306136e2565b600080612cbf8361231c565b6000818152606760205260409020549091506001600160a01b031615612d275760405162461bcd60e51b815260206004820152601c60248201527f4552433732313a20746f6b656e20616c7265616479206d696e746564000000006044820152606401610a46565b610194548351849111801590612d41575061019554815111155b612db35760405162461bcd60e51b815260206004820152603d60248201527f496e76616c696420666f726d61743a2074616720646f6573206e6f74206d656560448201527f74206d696e2f6d6178206c656e67746820726571756972656d656e74730000006064820152608401610a46565b80600081518110612dc657612dc6614366565b6020910101516001600160f81b0319167f230000000000000000000000000000000000000000000000000000000000000014612e445760405162461bcd60e51b815260206004820152601560248201527f546167206d7573742073746172742077697468202300000000000000000000006044820152606401610a46565b60015b8151811015612f1e576000828281518110612e6457612e64614366565b01602001516001600160f81b03191690507f2000000000000000000000000000000000000000000000000000000000000000811415612f0b5760405162461bcd60e51b815260206004820152602760248201527f537061636520666f756e643a20746167206d6179206e6f7420636f6e7461696e60448201527f20737061636573000000000000000000000000000000000000000000000000006064820152608401610a46565b5080612f168161437c565b915050612e47565b50909392505050565b611284828260405180602001604052806000815250613856565b60975460ff1615612f945760405162461bcd60e51b815260206004820152601060248201527f5061757361626c653a20706175736564000000000000000000000000000000006044820152606401610a46565b6097805460ff191660011790557f62e78cea01bee320cd4e420270b5ea74000d11b0c9f74754ebdbfc544b05a258612fc93390565b6040516001600160a01b03909116815260200160405180910390a1565b816001600160a01b0316836001600160a01b031614156130485760405162461bcd60e51b815260206004820152601960248201527f4552433732313a20617070726f766520746f2063616c6c6572000000000000006044820152606401610a46565b6001600160a01b038381166000818152606a6020908152604080832094871680845294825291829020805460ff191686151590811790915591519182527f17307eab39ab6107e8899845ad3d59bd9653f200f220920489ca2b5937696c31910160405180910390a3505050565b6130c0848484612610565b6130cc848484846138d4565b611d645760405162461bcd60e51b815260206004820152603260248201527f4552433732313a207472616e7366657220746f206e6f6e20455243373231526560448201527131b2b4bb32b91034b6b83632b6b2b73a32b960711b6064820152608401610a46565b6060610191805461094e906141b0565b60608161318357505060408051808201909152600181527f3000000000000000000000000000000000000000000000000000000000000000602082015290565b8160005b81156131ad57806131978161437c565b91506131a69050600a836143ad565b9150613187565b60008167ffffffffffffffff8111156131c8576131c8613ea4565b6040519080825280601f01601f1916602001820160405280156131f2576020820181803683370190505b5090505b841561185257613207600183614337565b9150613214600a866143c1565b61321f90603061434e565b60f81b81838151811061323457613234614366565b60200101906001600160f81b031916908160001a905350613256600a866143ad565b94506131f6565b60006118bb828461434e565b606060008290506000815167ffffffffffffffff81111561328c5761328c613ea4565b6040519080825280601f01601f1916602001820160405280156132b6576020820181803683370190505b50905060005b82518110156133d857604160f81b8382815181106132dc576132dc614366565b01602001516001600160f81b0319161080159061331d5750605a60f81b83828151811061330b5761330b614366565b01602001516001600160f81b03191611155b1561337f5782818151811061333457613334614366565b602001015160f81c60f81b60f81c602061334e91906143d5565b60f81b82828151811061336357613363614366565b60200101906001600160f81b031916908160001a9053506133c6565b82818151811061339157613391614366565b602001015160f81c60f81b8282815181106133ae576133ae614366565b60200101906001600160f81b031916908160001a9053505b806133d08161437c565b9150506132bc565b509392505050565b60975460ff166134325760405162461bcd60e51b815260206004820152601460248201527f5061757361626c653a206e6f74207061757365640000000000000000000000006044820152606401610a46565b6097805460ff191690557f5db9ee0a495bf2e6ff9c91a7834c1ba4fdd244a5e8aa4e537bd38aeae4b073aa33612fc9565b61346e838383613a1a565b60975460ff16156134d55760405162461bcd60e51b815260206004820152602b60248201527f4552433732315061757361626c653a20746f6b656e207472616e73666572207760448201526a1a1a5b19481c185d5cd95960aa1b6064820152608401610a46565b6000908152610199602052604090204290555050565b803b61355f5760405162461bcd60e51b815260206004820152602d60248201527f455243313936373a206e657720696d706c656d656e746174696f6e206973206e60448201527f6f74206120636f6e7472616374000000000000000000000000000000000000006064820152608401610a46565b7f360894a13ba1a3210667c828492db98dca3e2076cc3735a920a3ca505d382bbc80546001600160a01b0319166001600160a01b0392909216919091179055565b6060823b6136165760405162461bcd60e51b815260206004820152602660248201527f416464726573733a2064656c65676174652063616c6c20746f206e6f6e2d636f60448201527f6e747261637400000000000000000000000000000000000000000000000000006064820152608401610a46565b600080846001600160a01b03168460405161363191906143fa565b600060405180830381855af49150503d806000811461366c576040519150601f19603f3d011682016040523d82523d6000602084013e613671565b606091505b5091509150613699828260405180606001604052806027815260200161447060279139613a81565b95945050505050565b6136ab816134eb565b6040516001600160a01b038216907fbc7cd75a20ee27fd9adebab32041f755214dbc6bffa90cc0225b39da2e5c2d3b90600090a250565b600054610100900460ff1661199f5760405162461bcd60e51b815260206004820152602b60248201527f496e697469616c697a61626c653a20636f6e7472616374206973206e6f74206960448201526a6e697469616c697a696e6760a81b6064820152608401610a46565b600054610100900460ff166137b85760405162461bcd60e51b815260206004820152602b60248201527f496e697469616c697a61626c653a20636f6e7472616374206973206e6f74206960448201526a6e697469616c697a696e6760a81b6064820152608401610a46565b81516137cb906065906020850190613c08565b508051610b98906066906020840190613c08565b600054610100900460ff1661384a5760405162461bcd60e51b815260206004820152602b60248201527f496e697469616c697a61626c653a20636f6e7472616374206973206e6f74206960448201526a6e697469616c697a696e6760a81b6064820152608401610a46565b6097805460ff19169055565b6138608383613aba565b61386d60008484846138d4565b610b985760405162461bcd60e51b815260206004820152603260248201527f4552433732313a207472616e7366657220746f206e6f6e20455243373231526560448201527131b2b4bb32b91034b6b83632b6b2b73a32b960711b6064820152608401610a46565b60006001600160a01b0384163b15613a1257604051630a85bd0160e11b81526001600160a01b0385169063150b7a0290613918903390899088908890600401614416565b6020604051808303816000875af1925050508015613953575060408051601f3d908101601f1916820190925261395091810190614452565b60015b6139f8573d808015613981576040519150601f19603f3d011682016040523d82523d6000602084013e613986565b606091505b5080516139f05760405162461bcd60e51b815260206004820152603260248201527f4552433732313a207472616e7366657220746f206e6f6e20455243373231526560448201527131b2b4bb32b91034b6b83632b6b2b73a32b960711b6064820152608401610a46565b805181602001fd5b6001600160e01b031916630a85bd0160e11b149050611852565b506001611852565b60975460ff1615610b985760405162461bcd60e51b815260206004820152602b60248201527f4552433732315061757361626c653a20746f6b656e207472616e73666572207760448201526a1a1a5b19481c185d5cd95960aa1b6064820152608401610a46565b60608315613a905750816118bb565b825115613aa05782518084602001fd5b8160405162461bcd60e51b8152600401610a469190613da0565b6001600160a01b038216613b105760405162461bcd60e51b815260206004820181905260248201527f4552433732313a206d696e7420746f20746865207a65726f20616464726573736044820152606401610a46565b6000818152606760205260409020546001600160a01b031615613b755760405162461bcd60e51b815260206004820152601c60248201527f4552433732313a20746f6b656e20616c7265616479206d696e746564000000006044820152606401610a46565b613b8160008383613463565b6001600160a01b0382166000908152606860205260408120805460019290613baa90849061434e565b909155505060008181526067602052604080822080546001600160a01b0319166001600160a01b03861690811790915590518392907fddf252ad1be2c89b69c2b068fc378daa952ba7f163c4a11628f55a4df523b3ef908290a45050565b828054613c14906141b0565b90600052602060002090601f016020900481019282613c365760008555613c7c565b82601f10613c4f57805160ff1916838001178555613c7c565b82800160010185558215613c7c579182015b82811115613c7c578251825591602001919060010190613c61565b50613c88929150613d00565b5090565b828054613c98906141b0565b90600052602060002090601f016020900481019282613cba5760008555613c7c565b82601f10613cd35782800160ff19823516178555613c7c565b82800160010185558215613c7c579182015b82811115613c7c578235825591602001919060010190613ce5565b5b80821115613c885760008155600101613d01565b6001600160e01b031981168114610d9e57600080fd5b600060208284031215613d3d57600080fd5b81356118bb81613d15565b60005b83811015613d63578181015183820152602001613d4b565b83811115611d645750506000910152565b60008151808452613d8c816020860160208601613d48565b601f01601f19169290920160200192915050565b6020815260006118bb6020830184613d74565b600060208284031215613dc557600080fd5b5035919050565b6001600160a01b0381168114610d9e57600080fd5b60008060408385031215613df457600080fd5b8235613dff81613dcc565b946020939093013593505050565b600080600060608486031215613e2257600080fd5b8335613e2d81613dcc565b92506020840135613e3d81613dcc565b929592945050506040919091013590565b600060208284031215613e6057600080fd5b81356118bb81613dcc565b60008060408385031215613e7e57600080fd5b8235613e8981613dcc565b91506020830135613e9981613dcc565b809150509250929050565b634e487b7160e01b600052604160045260246000fd5b600067ffffffffffffffff80841115613ed557613ed5613ea4565b604051601f8501601f19908116603f01168101908282118183101715613efd57613efd613ea4565b81604052809350858152868686011115613f1657600080fd5b858560208301376000602087830101525050509392505050565b600082601f830112613f4157600080fd5b6118bb83833560208501613eba565b60008060408385031215613f6357600080fd5b8235613f6e81613dcc565b9150602083013567ffffffffffffffff811115613f8a57600080fd5b613f9685828601613f30565b9150509250929050565b60008083601f840112613fb257600080fd5b50813567ffffffffffffffff811115613fca57600080fd5b602083019150836020828501011115613fe257600080fd5b9250929050565b60008060008060608587031215613fff57600080fd5b843567ffffffffffffffff81111561401657600080fd5b61402287828801613fa0565b909550935050602085013561403681613dcc565b9150604085013561404681613dcc565b939692955090935050565b6000806020838503121561406457600080fd5b823567ffffffffffffffff81111561407b57600080fd5b61408785828601613fa0565b90969095509350505050565b8015158114610d9e57600080fd5b600080604083850312156140b457600080fd5b82356140bf81613dcc565b91506020830135613e9981614093565b60006001600160a01b038086168352808516602084015250606060408301526136996060830184613d74565b6000806000806080858703121561411157600080fd5b843561411c81613dcc565b9350602085013561412c81613dcc565b925060408501359150606085013567ffffffffffffffff81111561414f57600080fd5b61415b87828801613f30565b91505092959194509250565b60006020828403121561417957600080fd5b813567ffffffffffffffff81111561419057600080fd5b8201601f810184136141a157600080fd5b61185284823560208401613eba565b600181811c908216806141c457607f821691505b602082108114156141e557634e487b7160e01b600052602260045260246000fd5b50919050565b6000602082840312156141fd57600080fd5b81516118bb81614093565b604081528260408201528284606083013760006060848301015260006060601f19601f86011683010190506001600160a01b0383166020830152949350505050565b600060208083526000845481600182811c91508083168061426c57607f831692505b85831081141561428a57634e487b7160e01b85526022600452602485fd5b8786018381526020018180156142a757600181146142b8576142e3565b60ff198616825287820196506142e3565b60008b81526020902060005b868110156142dd578154848201529085019089016142c4565b83019750505b50949998505050505050505050565b60008351614304818460208801613d48565b835190830190614318818360208801613d48565b01949350505050565b634e487b7160e01b600052601160045260246000fd5b60008282101561434957614349614321565b500390565b6000821982111561436157614361614321565b500190565b634e487b7160e01b600052603260045260246000fd5b600060001982141561439057614390614321565b5060010190565b634e487b7160e01b600052601260045260246000fd5b6000826143bc576143bc614397565b500490565b6000826143d0576143d0614397565b500690565b600060ff821660ff84168060ff038211156143f2576143f2614321565b019392505050565b6000825161440c818460208701613d48565b9190910192915050565b60006001600160a01b038087168352808616602084015250836040830152608060608301526144486080830184613d74565b9695505050505050565b60006020828403121561446457600080fd5b81516118bb81613d1556fe416464726573733a206c6f772d6c6576656c2064656c65676174652063616c6c206661696c6564a2646970667358221220c51ccf08f298aa6d3be7eac0b25e69b38827b996253f4c9b8529f820258f241a64736f6c634300080c0033",
  "linkReferences": {},
  "deployedLinkReferences": {}
}