{
  "_format": "hh-sol-artifact-1",
  "contractName": "ETSTag",
  "sourceName": "contracts/core/ETSTag.sol",
  "abi": [
    {
      "anonymous": false,
      "inputs": [
        {
          "indexed": false,
          "internalType": "contract ETSAccessControls",
          "name": "previousAccessControls",
          "type": "address"
        },
        {
          "indexed": false,
          "internalType": "contract ETSAccessControls",
          "name": "newAccessControls",
          "type": "address"
        }
      ],
      "name": "AccessControlsUpdated",
      "type": "event"
    },
    {
      "anonymous": false,
      "inputs": [
        {
          "indexed": false,
          "internalType": "address",
          "name": "previousAdmin",
          "type": "address"
        },
        {
          "indexed": false,
          "internalType": "address",
          "name": "newAdmin",
          "type": "address"
        }
      ],
      "name": "AdminChanged",
      "type": "event"
    },
    {
      "anonymous": false,
      "inputs": [
        {
          "indexed": true,
          "internalType": "address",
          "name": "owner",
          "type": "address"
        },
        {
          "indexed": true,
          "internalType": "address",
          "name": "approved",
          "type": "address"
        },
        {
          "indexed": true,
          "internalType": "uint256",
          "name": "tokenId",
          "type": "uint256"
        }
      ],
      "name": "Approval",
      "type": "event"
    },
    {
      "anonymous": false,
      "inputs": [
        {
          "indexed": true,
          "internalType": "address",
          "name": "owner",
          "type": "address"
        },
        {
          "indexed": true,
          "internalType": "address",
          "name": "operator",
          "type": "address"
        },
        {
          "indexed": false,
          "internalType": "bool",
          "name": "approved",
          "type": "bool"
        }
      ],
      "name": "ApprovalForAll",
      "type": "event"
    },
    {
      "anonymous": false,
      "inputs": [
        {
          "indexed": true,
          "internalType": "address",
          "name": "beacon",
          "type": "address"
        }
      ],
      "name": "BeaconUpgraded",
      "type": "event"
    },
    {
      "anonymous": false,
      "inputs": [
        {
          "indexed": true,
          "internalType": "uint256",
          "name": "tokenId",
          "type": "uint256"
        },
        {
          "indexed": false,
          "internalType": "string",
          "name": "displayVersion",
          "type": "string"
        },
        {
          "indexed": true,
          "internalType": "address",
          "name": "publisher",
          "type": "address"
        },
        {
          "indexed": false,
          "internalType": "address",
          "name": "creator",
          "type": "address"
        }
      ],
      "name": "MintTag",
      "type": "event"
    },
    {
      "anonymous": false,
      "inputs": [
        {
          "indexed": false,
          "internalType": "string",
          "name": "baseURI",
          "type": "string"
        }
      ],
      "name": "NewBaseURI",
      "type": "event"
    },
    {
      "anonymous": false,
      "inputs": [
        {
          "indexed": false,
          "internalType": "uint256",
          "name": "originalOwnershipLength",
          "type": "uint256"
        },
        {
          "indexed": false,
          "internalType": "uint256",
          "name": "updatedOwnershipLength",
          "type": "uint256"
        }
      ],
      "name": "OwnershipTermLengthUpdated",
      "type": "event"
    },
    {
      "anonymous": false,
      "inputs": [
        {
          "indexed": false,
          "internalType": "address",
          "name": "account",
          "type": "address"
        }
      ],
      "name": "Paused",
      "type": "event"
    },
    {
      "anonymous": false,
      "inputs": [
        {
          "indexed": false,
          "internalType": "address",
          "name": "previousPlatformAddress",
          "type": "address"
        },
        {
          "indexed": false,
          "internalType": "address",
          "name": "newPlatformAddress",
          "type": "address"
        }
      ],
      "name": "PlatformSet",
      "type": "event"
    },
    {
      "anonymous": false,
      "inputs": [
        {
          "indexed": false,
          "internalType": "uint256",
          "name": "originalRenewalPeriod",
          "type": "uint256"
        },
        {
          "indexed": false,
          "internalType": "uint256",
          "name": "updatedRenewalPeriod",
          "type": "uint256"
        }
      ],
      "name": "RenewalPeriodUpdated",
      "type": "event"
    },
    {
      "anonymous": false,
      "inputs": [
        {
          "indexed": true,
          "internalType": "uint256",
          "name": "tokenId",
          "type": "uint256"
        }
      ],
      "name": "TagBurned",
      "type": "event"
    },
    {
      "anonymous": false,
      "inputs": [
        {
          "indexed": false,
          "internalType": "uint256",
          "name": "previousMaxStringLength",
          "type": "uint256"
        },
        {
          "indexed": false,
          "internalType": "uint256",
          "name": "newMaxStringLength",
          "type": "uint256"
        }
      ],
      "name": "TagMaxStringLengthUpdated",
      "type": "event"
    },
    {
      "anonymous": false,
      "inputs": [
        {
          "indexed": true,
          "internalType": "uint256",
          "name": "tokenId",
          "type": "uint256"
        },
        {
          "indexed": true,
          "internalType": "address",
          "name": "owner",
          "type": "address"
        }
      ],
      "name": "TagRecycled",
      "type": "event"
    },
    {
      "anonymous": false,
      "inputs": [
        {
          "indexed": true,
          "internalType": "uint256",
          "name": "tokenId",
          "type": "uint256"
        },
        {
          "indexed": true,
          "internalType": "address",
          "name": "caller",
          "type": "address"
        }
      ],
      "name": "TagRenewed",
      "type": "event"
    },
    {
      "anonymous": false,
      "inputs": [
        {
          "indexed": true,
          "internalType": "address",
          "name": "from",
          "type": "address"
        },
        {
          "indexed": true,
          "internalType": "address",
          "name": "to",
          "type": "address"
        },
        {
          "indexed": true,
          "internalType": "uint256",
          "name": "tokenId",
          "type": "uint256"
        }
      ],
      "name": "Transfer",
      "type": "event"
    },
    {
      "anonymous": false,
      "inputs": [
        {
          "indexed": false,
          "internalType": "address",
          "name": "account",
          "type": "address"
        }
      ],
      "name": "Unpaused",
      "type": "event"
    },
    {
      "anonymous": false,
      "inputs": [
        {
          "indexed": true,
          "internalType": "address",
          "name": "implementation",
          "type": "address"
        }
      ],
      "name": "Upgraded",
      "type": "event"
    },
    {
      "inputs": [],
      "name": "NAME",
      "outputs": [
        {
          "internalType": "string",
          "name": "",
          "type": "string"
        }
      ],
      "stateMutability": "view",
      "type": "function"
    },
    {
      "inputs": [],
      "name": "VERSION",
      "outputs": [
        {
          "internalType": "string",
          "name": "",
          "type": "string"
        }
      ],
      "stateMutability": "view",
      "type": "function"
    },
    {
      "inputs": [],
      "name": "accessControls",
      "outputs": [
        {
          "internalType": "contract ETSAccessControls",
          "name": "",
          "type": "address"
        }
      ],
      "stateMutability": "view",
      "type": "function"
    },
    {
      "inputs": [
        {
          "internalType": "address",
          "name": "to",
          "type": "address"
        },
        {
          "internalType": "uint256",
          "name": "tokenId",
          "type": "uint256"
        }
      ],
      "name": "approve",
      "outputs": [],
      "stateMutability": "nonpayable",
      "type": "function"
    },
    {
      "inputs": [
        {
          "internalType": "address",
          "name": "owner",
          "type": "address"
        }
      ],
      "name": "balanceOf",
      "outputs": [
        {
          "internalType": "uint256",
          "name": "",
          "type": "uint256"
        }
      ],
      "stateMutability": "view",
      "type": "function"
    },
    {
      "inputs": [],
      "name": "baseURI",
      "outputs": [
        {
          "internalType": "string",
          "name": "",
          "type": "string"
        }
      ],
      "stateMutability": "view",
      "type": "function"
    },
    {
      "inputs": [
        {
          "internalType": "uint256",
          "name": "tokenId",
          "type": "uint256"
        }
      ],
      "name": "burn",
      "outputs": [],
      "stateMutability": "nonpayable",
      "type": "function"
    },
    {
      "inputs": [
        {
          "internalType": "string",
          "name": "_tag",
          "type": "string"
        }
      ],
      "name": "computeTagId",
      "outputs": [
        {
          "internalType": "uint256",
          "name": "",
          "type": "uint256"
        }
      ],
      "stateMutability": "pure",
      "type": "function"
    },
    {
      "inputs": [
        {
          "internalType": "uint256",
          "name": "tokenId",
          "type": "uint256"
        }
      ],
      "name": "exists",
      "outputs": [
        {
          "internalType": "bool",
          "name": "",
          "type": "bool"
        }
      ],
      "stateMutability": "view",
      "type": "function"
    },
    {
      "inputs": [
        {
          "internalType": "uint256",
          "name": "tokenId",
          "type": "uint256"
        }
      ],
      "name": "getApproved",
      "outputs": [
        {
          "internalType": "address",
          "name": "",
          "type": "address"
        }
      ],
      "stateMutability": "view",
      "type": "function"
    },
    {
      "inputs": [
        {
          "internalType": "uint256",
          "name": "_tokenId",
          "type": "uint256"
        }
      ],
      "name": "getCreatorAddress",
      "outputs": [
        {
          "internalType": "address",
          "name": "_creator",
          "type": "address"
        }
      ],
      "stateMutability": "view",
      "type": "function"
    },
    {
      "inputs": [
        {
          "internalType": "uint256",
          "name": "_tokenId",
          "type": "uint256"
        }
      ],
      "name": "getPaymentAddresses",
      "outputs": [
        {
          "internalType": "address payable",
          "name": "_platform",
          "type": "address"
        },
        {
          "internalType": "address payable",
          "name": "_owner",
          "type": "address"
        }
      ],
      "stateMutability": "view",
      "type": "function"
    },
    {
      "inputs": [
        {
          "internalType": "contract ETSAccessControls",
          "name": "_accessControls",
          "type": "address"
        },
        {
          "internalType": "address payable",
          "name": "_platform",
          "type": "address"
        }
      ],
      "name": "initialize",
      "outputs": [],
      "stateMutability": "nonpayable",
      "type": "function"
    },
    {
      "inputs": [
        {
          "internalType": "address",
          "name": "owner",
          "type": "address"
        },
        {
          "internalType": "address",
          "name": "operator",
          "type": "address"
        }
      ],
      "name": "isApprovedForAll",
      "outputs": [
        {
          "internalType": "bool",
          "name": "",
          "type": "bool"
        }
      ],
      "stateMutability": "view",
      "type": "function"
    },
    {
      "inputs": [
        {
          "internalType": "string",
          "name": "_tag",
          "type": "string"
        },
        {
          "internalType": "address payable",
          "name": "_publisher",
          "type": "address"
        },
        {
          "internalType": "address",
          "name": "_creator",
          "type": "address"
        }
      ],
      "name": "mint",
      "outputs": [
        {
          "internalType": "uint256",
          "name": "_tokenId",
          "type": "uint256"
        }
      ],
      "stateMutability": "payable",
      "type": "function"
    },
    {
      "inputs": [],
      "name": "name",
      "outputs": [
        {
          "internalType": "string",
          "name": "",
          "type": "string"
        }
      ],
      "stateMutability": "view",
      "type": "function"
    },
    {
      "inputs": [
        {
          "internalType": "uint256",
          "name": "tokenId",
          "type": "uint256"
        }
      ],
      "name": "ownerOf",
      "outputs": [
        {
          "internalType": "address",
          "name": "",
          "type": "address"
        }
      ],
      "stateMutability": "view",
      "type": "function"
    },
    {
      "inputs": [],
      "name": "ownershipTermLength",
      "outputs": [
        {
          "internalType": "uint256",
          "name": "",
          "type": "uint256"
        }
      ],
      "stateMutability": "view",
      "type": "function"
    },
    {
      "inputs": [],
      "name": "pause",
      "outputs": [],
      "stateMutability": "nonpayable",
      "type": "function"
    },
    {
      "inputs": [],
      "name": "paused",
      "outputs": [
        {
          "internalType": "bool",
          "name": "",
          "type": "bool"
        }
      ],
      "stateMutability": "view",
      "type": "function"
    },
    {
      "inputs": [],
      "name": "platform",
      "outputs": [
        {
          "internalType": "address payable",
          "name": "",
          "type": "address"
        }
      ],
      "stateMutability": "view",
      "type": "function"
    },
    {
      "inputs": [
        {
          "internalType": "uint256",
          "name": "_tokenId",
          "type": "uint256"
        }
      ],
      "name": "recycleTag",
      "outputs": [],
      "stateMutability": "nonpayable",
      "type": "function"
    },
    {
      "inputs": [
        {
          "internalType": "uint256",
          "name": "_tokenId",
          "type": "uint256"
        }
      ],
      "name": "renewTag",
      "outputs": [],
      "stateMutability": "nonpayable",
      "type": "function"
    },
    {
      "inputs": [
        {
          "internalType": "address",
          "name": "from",
          "type": "address"
        },
        {
          "internalType": "address",
          "name": "to",
          "type": "address"
        },
        {
          "internalType": "uint256",
          "name": "tokenId",
          "type": "uint256"
        }
      ],
      "name": "safeTransferFrom",
      "outputs": [],
      "stateMutability": "nonpayable",
      "type": "function"
    },
    {
      "inputs": [
        {
          "internalType": "address",
          "name": "from",
          "type": "address"
        },
        {
          "internalType": "address",
          "name": "to",
          "type": "address"
        },
        {
          "internalType": "uint256",
          "name": "tokenId",
          "type": "uint256"
        },
        {
          "internalType": "bytes",
          "name": "_data",
          "type": "bytes"
        }
      ],
      "name": "safeTransferFrom",
      "outputs": [],
      "stateMutability": "nonpayable",
      "type": "function"
    },
    {
      "inputs": [
        {
          "internalType": "address",
          "name": "operator",
          "type": "address"
        },
        {
          "internalType": "bool",
          "name": "approved",
          "type": "bool"
        }
      ],
      "name": "setApprovalForAll",
      "outputs": [],
      "stateMutability": "nonpayable",
      "type": "function"
    },
    {
      "inputs": [
        {
          "internalType": "string",
          "name": "newBaseURI",
          "type": "string"
        }
      ],
      "name": "setBaseURI",
      "outputs": [],
      "stateMutability": "nonpayable",
      "type": "function"
    },
    {
      "inputs": [
        {
          "internalType": "uint256",
          "name": "_ownershipTermLength",
          "type": "uint256"
        }
      ],
      "name": "setOwnershipTermLength",
      "outputs": [],
      "stateMutability": "nonpayable",
      "type": "function"
    },
    {
      "inputs": [
        {
          "internalType": "address payable",
          "name": "_platform",
          "type": "address"
        }
      ],
      "name": "setPlatform",
      "outputs": [],
      "stateMutability": "nonpayable",
      "type": "function"
    },
    {
      "inputs": [
        {
          "internalType": "uint256",
          "name": "_tagMaxStringLength",
          "type": "uint256"
        }
      ],
      "name": "setTagMaxStringLength",
      "outputs": [],
      "stateMutability": "nonpayable",
      "type": "function"
    },
    {
      "inputs": [
        {
          "internalType": "bytes4",
          "name": "interfaceId",
          "type": "bytes4"
        }
      ],
      "name": "supportsInterface",
      "outputs": [
        {
          "internalType": "bool",
          "name": "",
          "type": "bool"
        }
      ],
      "stateMutability": "view",
      "type": "function"
    },
    {
      "inputs": [],
      "name": "symbol",
      "outputs": [
        {
          "internalType": "string",
          "name": "",
          "type": "string"
        }
      ],
      "stateMutability": "view",
      "type": "function"
    },
    {
      "inputs": [],
      "name": "tagMaxStringLength",
      "outputs": [
        {
          "internalType": "uint256",
          "name": "",
          "type": "uint256"
        }
      ],
      "stateMutability": "view",
      "type": "function"
    },
    {
      "inputs": [],
      "name": "tagMinStringLength",
      "outputs": [
        {
          "internalType": "uint256",
          "name": "",
          "type": "uint256"
        }
      ],
      "stateMutability": "view",
      "type": "function"
    },
    {
      "inputs": [
        {
          "internalType": "uint256",
          "name": "",
          "type": "uint256"
        }
      ],
      "name": "tokenIdToLastTransferTime",
      "outputs": [
        {
          "internalType": "uint256",
          "name": "",
          "type": "uint256"
        }
      ],
      "stateMutability": "view",
      "type": "function"
    },
    {
      "inputs": [
        {
          "internalType": "uint256",
          "name": "",
          "type": "uint256"
        }
      ],
      "name": "tokenIdToTag",
      "outputs": [
        {
          "internalType": "address",
          "name": "originalPublisher",
          "type": "address"
        },
        {
          "internalType": "address",
          "name": "creator",
          "type": "address"
        },
        {
          "internalType": "string",
          "name": "displayVersion",
          "type": "string"
        }
      ],
      "stateMutability": "view",
      "type": "function"
    },
    {
      "inputs": [],
      "name": "tokenPointer",
      "outputs": [
        {
          "internalType": "uint256",
          "name": "",
          "type": "uint256"
        }
      ],
      "stateMutability": "view",
      "type": "function"
    },
    {
      "inputs": [
        {
          "internalType": "uint256",
          "name": "tokenId",
          "type": "uint256"
        }
      ],
      "name": "tokenURI",
      "outputs": [
        {
          "internalType": "string",
          "name": "",
          "type": "string"
        }
      ],
      "stateMutability": "view",
      "type": "function"
    },
    {
      "inputs": [
        {
          "internalType": "address",
          "name": "from",
          "type": "address"
        },
        {
          "internalType": "address",
          "name": "to",
          "type": "address"
        },
        {
          "internalType": "uint256",
          "name": "tokenId",
          "type": "uint256"
        }
      ],
      "name": "transferFrom",
      "outputs": [],
      "stateMutability": "nonpayable",
      "type": "function"
    },
    {
      "inputs": [],
      "name": "unPause",
      "outputs": [],
      "stateMutability": "nonpayable",
      "type": "function"
    },
    {
      "inputs": [
        {
          "internalType": "contract ETSAccessControls",
          "name": "_accessControls",
          "type": "address"
        }
      ],
      "name": "updateAccessControls",
      "outputs": [],
      "stateMutability": "nonpayable",
      "type": "function"
    },
    {
      "inputs": [
        {
          "internalType": "address",
          "name": "newImplementation",
          "type": "address"
        }
      ],
      "name": "upgradeTo",
      "outputs": [],
      "stateMutability": "nonpayable",
      "type": "function"
    },
    {
      "inputs": [
        {
          "internalType": "address",
          "name": "newImplementation",
          "type": "address"
        },
        {
          "internalType": "bytes",
          "name": "data",
          "type": "bytes"
        }
      ],
      "name": "upgradeToAndCall",
      "outputs": [],
      "stateMutability": "payable",
      "type": "function"
    },
    {
      "inputs": [],
      "name": "version",
      "outputs": [
        {
          "internalType": "string",
          "name": "",
          "type": "string"
        }
      ],
      "stateMutability": "pure",
      "type": "function"
    }
  ],
  "bytecode": "0x60a06040523060805234801561001457600080fd5b5060805161443a61004560003960008181610d2101528181610da601528181611217015261129c015261443a6000f3fe6080604052600436106102e75760003560e01c806370a0823111610184578063adf63cd2116100d6578063e8d3e4b61161008a578063f66e762311610064578063f66e76231461089d578063f7b188a5146108bd578063ffa1ad74146108d257600080fd5b8063e8d3e4b614610814578063e985e9c514610834578063f143fc611461087d57600080fd5b8063c157daea116100bb578063c157daea146107bd578063c87b56dd146107dd578063db7af5fb146107fd57600080fd5b8063adf63cd214610786578063b88d4fde1461079d57600080fd5b806390b467ea11610138578063a30b4db911610112578063a30b4db9146106d4578063a3f4df7e1461070e578063ad014a5b1461075757600080fd5b806390b467ea1461067157806395d89b411461069f578063a22cb465146106b457600080fd5b80637e6d945e116101695780637e6d945e146106095780638456cb591461061c578063878327ab1461063157600080fd5b806370a08231146105c8578063748365ef146105e857600080fd5b8063485cc9551161023d57806355f804b3116101f15780636945c5ea116101cb5780636945c5ea146105735780636c0360eb146105935780636ef3da94146105a857600080fd5b806355f804b31461051b5780635c975abb1461053b5780636352211e1461055357600080fd5b80634f1ef286116102225780634f1ef286146104ba5780634f558e79146104cd57806354fd4d50146104ed57600080fd5b8063485cc955146104795780634bde38c81461049957600080fd5b8063095ea7b31161029f5780633659cfe6116102795780633659cfe61461041957806342842e0e1461043957806342966c681461045957600080fd5b8063095ea7b3146103c257806323b872dd146103e25780632e6116301461040257600080fd5b8063060defec116102d0578063060defec1461034657806306fdde0314610368578063081812fc1461038a57600080fd5b806301ffc9a7146102ec5780630283165114610321575b600080fd5b3480156102f857600080fd5b5061030c610307366004613c99565b610903565b60405190151581526020015b60405180910390f35b34801561032d57600080fd5b506103386101935481565b604051908152602001610318565b34801561035257600080fd5b50610366610361366004613cb6565b610914565b005b34801561037457600080fd5b5061037d610a35565b6040516103189190613d27565b34801561039657600080fd5b506103aa6103a5366004613cb6565b610ac7565b6040516001600160a01b039091168152602001610318565b3480156103ce57600080fd5b506103666103dd366004613d4f565b610b5c565b3480156103ee57600080fd5b506103666103fd366004613d7b565b610c8e565b34801561040e57600080fd5b506103386101955481565b34801561042557600080fd5b50610366610434366004613dbc565b610d16565b34801561044557600080fd5b50610366610454366004613d7b565b610e92565b34801561046557600080fd5b50610366610474366004613cb6565b610ead565b34801561048557600080fd5b50610366610494366004613dd9565b611034565b3480156104a557600080fd5b50610196546103aa906001600160a01b031681565b6103666104c8366004613ebe565b61120c565b3480156104d957600080fd5b5061030c6104e8366004613cb6565b611379565b3480156104f957600080fd5b506040805180820190915260058152640302e322e360dc1b602082015261037d565b34801561052757600080fd5b50610366610536366004613f57565b611398565b34801561054757600080fd5b5060975460ff1661030c565b34801561055f57600080fd5b506103aa61056e366004613cb6565b6114ac565b34801561057f57600080fd5b5061036661058e366004613dbc565b611537565b34801561059f57600080fd5b5061037d611667565b3480156105b457600080fd5b506103666105c3366004613dbc565b6116f6565b3480156105d457600080fd5b506103386105e3366004613dbc565b6118a2565b3480156105f457600080fd5b50610197546103aa906001600160a01b031681565b610338610617366004613f99565b61193c565b34801561062857600080fd5b50610366611ba6565b34801561063d57600080fd5b5061065161064c366004613cb6565b611c85565b604080516001600160a01b03938416815292909116602083015201610318565b34801561067d57600080fd5b5061033861068c366004613cb6565b6101996020526000908152604090205481565b3480156106ab57600080fd5b5061037d611ca9565b3480156106c057600080fd5b506103666106cf36600461400f565b611cb8565b3480156106e057600080fd5b506103aa6106ef366004613cb6565b600090815261019860205260409020600101546001600160a01b031690565b34801561071a57600080fd5b5061037d6040518060400160405280600c81526020017f45545354414720546f6b656e000000000000000000000000000000000000000081525081565b34801561076357600080fd5b50610777610772366004613cb6565b611cc3565b6040516103189392919061403d565b34801561079257600080fd5b506103386101945481565b3480156107a957600080fd5b506103666107b8366004614069565b611d7c565b3480156107c957600080fd5b506103666107d8366004613cb6565b611e0a565b3480156107e957600080fd5b5061037d6107f8366004613cb6565b611eb2565b34801561080957600080fd5b506103386101925481565b34801561082057600080fd5b5061036661082f366004613cb6565b611f9b565b34801561084057600080fd5b5061030c61084f366004613dd9565b6001600160a01b039182166000908152606a6020908152604080832093909416825291909152205460ff1690565b34801561088957600080fd5b506103386108983660046140d5565b612176565b3480156108a957600080fd5b506103666108b8366004613cb6565b612191565b3480156108c957600080fd5b506103666122a5565b3480156108de57600080fd5b5061037d604051806040016040528060058152602001640302e322e360dc1b81525081565b600061090e82612382565b92915050565b610197546001600160a01b03166324d7806c336040516001600160e01b031960e084901b1681526001600160a01b039091166004820152602401602060405180830381865afa15801561096b573d6000803e3d6000fd5b505050506040513d601f19601f8201168201806040525081019061098f919061411e565b6109ee5760405162461bcd60e51b815260206004820152602560248201527f43616c6c6572206d75737420686176652061646d696e6973747261746f722061604482015264636365737360d81b60648201526084015b60405180910390fd5b61019580549082905560408051828152602081018490527f3bcd7d0ed4502e81afe37fd199a6a8e34e8d351fdafd54d97726970c18fdcd2b91015b60405180910390a15050565b606060658054610a449061413b565b80601f0160208091040260200160405190810160405280929190818152602001828054610a709061413b565b8015610abd5780601f10610a9257610100808354040283529160200191610abd565b820191906000526020600020905b815481529060010190602001808311610aa057829003601f168201915b5050505050905090565b6000818152606760205260408120546001600160a01b0316610b405760405162461bcd60e51b815260206004820152602c60248201527f4552433732313a20617070726f76656420717565727920666f72206e6f6e657860448201526b34b9ba32b73a103a37b5b2b760a11b60648201526084016109e5565b506000908152606960205260409020546001600160a01b031690565b6000610b67826114ac565b9050806001600160a01b0316836001600160a01b03161415610bf15760405162461bcd60e51b815260206004820152602160248201527f4552433732313a20617070726f76616c20746f2063757272656e74206f776e6560448201527f720000000000000000000000000000000000000000000000000000000000000060648201526084016109e5565b336001600160a01b0382161480610c0d5750610c0d813361084f565b610c7f5760405162461bcd60e51b815260206004820152603860248201527f4552433732313a20617070726f76652063616c6c6572206973206e6f74206f7760448201527f6e6572206e6f7220617070726f76656420666f7220616c6c000000000000000060648201526084016109e5565b610c89838361241d565b505050565b610c99335b8261248b565b610d0b5760405162461bcd60e51b815260206004820152603160248201527f4552433732313a207472616e736665722063616c6c6572206973206e6f74206f60448201527f776e6572206e6f7220617070726f76656400000000000000000000000000000060648201526084016109e5565b610c8983838361257e565b306001600160a01b037f0000000000000000000000000000000000000000000000000000000000000000161415610da45760405162461bcd60e51b815260206004820152602c60248201527f46756e6374696f6e206d7573742062652063616c6c6564207468726f7567682060448201526b19195b1959d85d1958d85b1b60a21b60648201526084016109e5565b7f00000000000000000000000000000000000000000000000000000000000000006001600160a01b0316610dff7f360894a13ba1a3210667c828492db98dca3e2076cc3735a920a3ca505d382bbc546001600160a01b031690565b6001600160a01b031614610e6a5760405162461bcd60e51b815260206004820152602c60248201527f46756e6374696f6e206d7573742062652063616c6c6564207468726f7567682060448201526b6163746976652070726f787960a01b60648201526084016109e5565b610e7381612756565b60408051600080825260208201909252610e8f9183919061282b565b50565b610c8983838360405180602001604052806000815250611d7c565b610197546001600160a01b03166324d7806c336040516001600160e01b031960e084901b1681526001600160a01b039091166004820152602401602060405180830381865afa158015610f04573d6000803e3d6000fd5b505050506040513d601f19601f82011682018060405250810190610f28919061411e565b610f825760405162461bcd60e51b815260206004820152602560248201527f43616c6c6572206d75737420686176652061646d696e6973747261746f722061604482015264636365737360d81b60648201526084016109e5565b610f8b33610c93565b610ffd5760405162461bcd60e51b815260206004820152603060248201527f4552433732314275726e61626c653a2063616c6c6572206973206e6f74206f7760448201527f6e6572206e6f7220617070726f7665640000000000000000000000000000000060648201526084016109e5565b611006816129ef565b60405181907f7f928e3c53f35086b51ff7b9bfd4651b14e8b9ccb0535aa4a085fb2881785b8290600090a250565b600054610100900460ff1661104f5760005460ff1615611053565b303b155b6110c55760405162461bcd60e51b815260206004820152602e60248201527f496e697469616c697a61626c653a20636f6e747261637420697320616c72656160448201527f647920696e697469616c697a656400000000000000000000000000000000000060648201526084016109e5565b600054610100900460ff161580156110e7576000805461ffff19166101011790555b61115b6040518060400160405280601481526020017f457468657265756d2054616720536572766963650000000000000000000000008152506040518060400160405280600681526020017f4554535441470000000000000000000000000000000000000000000000000000815250612a96565b611163612b1b565b61116b612ba6565b61019780546001600160a01b038086166001600160a01b0319928316179092556101968054928516929091169190911790556303c26700610192556040805180820190915260208082527f68747470733a2f2f6170692e686173687461672d70726f746f636f6c2e696f2f9181019182526111e99161019191613b76565b506001610194556020610195558015610c89576000805461ff0019169055505050565b306001600160a01b037f000000000000000000000000000000000000000000000000000000000000000016141561129a5760405162461bcd60e51b815260206004820152602c60248201527f46756e6374696f6e206d7573742062652063616c6c6564207468726f7567682060448201526b19195b1959d85d1958d85b1b60a21b60648201526084016109e5565b7f00000000000000000000000000000000000000000000000000000000000000006001600160a01b03166112f57f360894a13ba1a3210667c828492db98dca3e2076cc3735a920a3ca505d382bbc546001600160a01b031690565b6001600160a01b0316146113605760405162461bcd60e51b815260206004820152602c60248201527f46756e6374696f6e206d7573742062652063616c6c6564207468726f7567682060448201526b6163746976652070726f787960a01b60648201526084016109e5565b61136982612756565b6113758282600161282b565b5050565b6000818152606760205260408120546001600160a01b0316151561090e565b610197546001600160a01b03166324d7806c336040516001600160e01b031960e084901b1681526001600160a01b039091166004820152602401602060405180830381865afa1580156113ef573d6000803e3d6000fd5b505050506040513d601f19601f82011682018060405250810190611413919061411e565b61146d5760405162461bcd60e51b815260206004820152602560248201527f43616c6c6572206d75737420686176652061646d696e6973747261746f722061604482015264636365737360d81b60648201526084016109e5565b61147a6101918383613bfa565b507f325d37e8fb549c86966f09bc3e6f62eb3afa93b255d6e3234338001f3d80bd86610191604051610a299190614176565b6000818152606760205260408120546001600160a01b03168061090e5760405162461bcd60e51b815260206004820152602960248201527f4552433732313a206f776e657220717565727920666f72206e6f6e657869737460448201527f656e7420746f6b656e000000000000000000000000000000000000000000000060648201526084016109e5565b610197546001600160a01b03166324d7806c336040516001600160e01b031960e084901b1681526001600160a01b039091166004820152602401602060405180830381865afa15801561158e573d6000803e3d6000fd5b505050506040513d601f19601f820116820180604052508101906115b2919061411e565b61160c5760405162461bcd60e51b815260206004820152602560248201527f43616c6c6572206d75737420686176652061646d696e6973747261746f722061604482015264636365737360d81b60648201526084016109e5565b61019680546001600160a01b038381166001600160a01b031983168117909355604080519190921680825260208201939093527f0e8ce4b57fd24de168e9c8d76109cb59a7852e78b3575da1ba2077dd53d330ec9101610a29565b61019180546116759061413b565b80601f01602080910402602001604051908101604052809291908181526020018280546116a19061413b565b80156116ee5780601f106116c3576101008083540402835291602001916116ee565b820191906000526020600020905b8154815290600101906020018083116116d157829003601f168201915b505050505081565b610197546001600160a01b03166324d7806c336040516001600160e01b031960e084901b1681526001600160a01b039091166004820152602401602060405180830381865afa15801561174d573d6000803e3d6000fd5b505050506040513d601f19601f82011682018060405250810190611771919061411e565b6117cb5760405162461bcd60e51b815260206004820152602560248201527f43616c6c6572206d75737420686176652061646d696e6973747261746f722061604482015264636365737360d81b60648201526084016109e5565b6001600160a01b0381166118475760405162461bcd60e51b815260206004820152602b60248201527f4554535461672e757064617465416363657373436f6e74726f6c733a2043616e60448201527f6e6f74206265207a65726f00000000000000000000000000000000000000000060648201526084016109e5565b61019780546001600160a01b038381166001600160a01b031983168117909355604080519190921680825260208201939093527f31073599bfae2533a348dc816b0ce777b707aa9b67015ca2d86585e842b5c6e99101610a29565b60006001600160a01b0382166119205760405162461bcd60e51b815260206004820152602a60248201527f4552433732313a2062616c616e636520717565727920666f7220746865207a6560448201527f726f20616464726573730000000000000000000000000000000000000000000060648201526084016109e5565b506001600160a01b031660009081526068602052604090205490565b610197546040517f41859ac80000000000000000000000000000000000000000000000000000000081526001600160a01b03848116600483015260009216906341859ac890602401602060405180830381865afa1580156119a1573d6000803e3d6000fd5b505050506040513d601f19601f820116820180604052508101906119c5919061411e565b611a375760405162461bcd60e51b815260206004820152602760248201527f4d696e743a20546865207075626c6973686572206d757374206265207768697460448201527f656c69737465640000000000000000000000000000000000000000000000000060648201526084016109e5565b6000611a7886868080601f016020809104026020016040519081016040528093929190818152602001838380828437600092019190915250612c2192505050565b61019654909150611a92906001600160a01b031682612e95565b6040518060600160405280856001600160a01b03168152602001846001600160a01b0316815260200187878080601f01602080910402602001604051908101604052809392919081815260200183838082843760009201829052509390945250508381526101986020908152604091829020845181546001600160a01b039182166001600160a01b031991821617835586840151600184018054919093169116179055918401518051929350611b519260028501929190910190613b76565b50905050836001600160a01b0316817f85d182e335717d2d833be448c2f6a5864b8514dfeb8cda8f0fbac14f5157f0be888887604051611b939392919061421e565b60405180910390a390505b949350505050565b610197546001600160a01b03166324d7806c336040516001600160e01b031960e084901b1681526001600160a01b039091166004820152602401602060405180830381865afa158015611bfd573d6000803e3d6000fd5b505050506040513d601f19601f82011682018060405250810190611c21919061411e565b611c7b5760405162461bcd60e51b815260206004820152602560248201527f43616c6c6572206d75737420686176652061646d696e6973747261746f722061604482015264636365737360d81b60648201526084016109e5565b611c83612eaf565b565b6101965460009081906001600160a01b0316611ca0846114ac565b91509150915091565b606060668054610a449061413b565b611375338383612f54565b610198602052600090815260409020805460018201546002830180546001600160a01b03938416949290931692611cf99061413b565b80601f0160208091040260200160405190810160405280929190818152602001828054611d259061413b565b8015611d725780601f10611d4757610100808354040283529160200191611d72565b820191906000526020600020905b815481529060010190602001808311611d5557829003601f168201915b5050505050905083565b611d86338361248b565b611df85760405162461bcd60e51b815260206004820152603160248201527f4552433732313a207472616e736665722063616c6c6572206973206e6f74206f60448201527f776e6572206e6f7220617070726f76656400000000000000000000000000000060648201526084016109e5565b611e0484848484613023565b50505050565b611e13816114ac565b6001600160a01b0316336001600160a01b031614611e735760405162461bcd60e51b815260206004820152601860248201527f72656e65775461673a20496e76616c69642073656e646572000000000000000060448201526064016109e5565b6000818152610199602052604080822042905551339183917faa0c0591942aff60e66bde156168c9a47ef843534b433bbaa33e62d1410f4f2c9190a350565b6000818152606760205260409020546060906001600160a01b0316611f3f5760405162461bcd60e51b815260206004820152602f60248201527f4552433732314d657461646174613a2055524920717565727920666f72206e6f60448201527f6e6578697374656e7420746f6b656e000000000000000000000000000000000060648201526084016109e5565b6000611f496130a1565b90506000815111611f695760405180602001604052806000815250611f94565b80611f73846130b1565b604051602001611f84929190614260565b6040516020818303038152906040525b9392505050565b6000818152606760205260409020546001600160a01b0316611fff5760405162461bcd60e51b815260206004820152601c60248201527f72656379636c655461673a20496e76616c696420746f6b656e2049440000000060448201526064016109e5565b610196546001600160a01b0316612015826114ac565b6001600160a01b031614156120925760405162461bcd60e51b815260206004820152602d60248201527f72656379636c655461673a2054616720616c7265616479206f776e656420627960448201527f2074686520706c6174666f726d0000000000000000000000000000000000000060648201526084016109e5565b600081815261019960205260409020546101925442906120b39083906131cb565b106121265760405162461bcd60e51b815260206004820152603060248201527f72656379636c655461673a20546f6b656e206e6f7420656c696769626c65206660448201527f6f722072656379636c696e67207965740000000000000000000000000000000060648201526084016109e5565b612145612132836114ac565b610196546001600160a01b03168461257e565b604051339083907f0f842a1659c86d6e422461459fb2ab6fa8af886fd1cf9978a73dd299f23ccc7a90600090a35050565b600080612182836131d7565b80516020909101209392505050565b610197546001600160a01b03166324d7806c336040516001600160e01b031960e084901b1681526001600160a01b039091166004820152602401602060405180830381865afa1580156121e8573d6000803e3d6000fd5b505050506040513d601f19601f8201168201806040525081019061220c919061411e565b6122665760405162461bcd60e51b815260206004820152602560248201527f43616c6c6572206d75737420686176652061646d696e6973747261746f722061604482015264636365737360d81b60648201526084016109e5565b61019280549082905560408051828152602081018490527f7550fd28481dfa2a7590562881c3fffa398e97624ad6eeae494cf36c51e2a9069101610a29565b610197546001600160a01b03166324d7806c336040516001600160e01b031960e084901b1681526001600160a01b039091166004820152602401602060405180830381865afa1580156122fc573d6000803e3d6000fd5b505050506040513d601f19601f82011682018060405250810190612320919061411e565b61237a5760405162461bcd60e51b815260206004820152602560248201527f43616c6c6572206d75737420686176652061646d696e6973747261746f722061604482015264636365737360d81b60648201526084016109e5565b611c8361334e565b60006001600160e01b031982167f80ac58cd0000000000000000000000000000000000000000000000000000000014806123e557506001600160e01b031982167f5b5e139f00000000000000000000000000000000000000000000000000000000145b8061090e57507f01ffc9a7000000000000000000000000000000000000000000000000000000006001600160e01b031983161461090e565b600081815260696020526040902080546001600160a01b0319166001600160a01b0384169081179091558190612452826114ac565b6001600160a01b03167f8c5be1e5ebec7d5bd14f71427d1e84f3dd0314c0f7b2291e5b200ac8c7c3b92560405160405180910390a45050565b6000818152606760205260408120546001600160a01b03166125045760405162461bcd60e51b815260206004820152602c60248201527f4552433732313a206f70657261746f7220717565727920666f72206e6f6e657860448201526b34b9ba32b73a103a37b5b2b760a11b60648201526084016109e5565b600061250f836114ac565b9050806001600160a01b0316846001600160a01b0316148061254a5750836001600160a01b031661253f84610ac7565b6001600160a01b0316145b80611b9e57506001600160a01b038082166000908152606a602090815260408083209388168352929052205460ff16611b9e565b826001600160a01b0316612591826114ac565b6001600160a01b03161461260d5760405162461bcd60e51b815260206004820152602960248201527f4552433732313a207472616e73666572206f6620746f6b656e2074686174206960448201527f73206e6f74206f776e000000000000000000000000000000000000000000000060648201526084016109e5565b6001600160a01b0382166126885760405162461bcd60e51b8152602060048201526024808201527f4552433732313a207472616e7366657220746f20746865207a65726f2061646460448201527f726573730000000000000000000000000000000000000000000000000000000060648201526084016109e5565b6126938383836133d1565b61269e60008261241d565b6001600160a01b03831660009081526068602052604081208054600192906126c79084906142a5565b90915550506001600160a01b03821660009081526068602052604081208054600192906126f59084906142bc565b909155505060008181526067602052604080822080546001600160a01b0319166001600160a01b0386811691821790925591518493918716917fddf252ad1be2c89b69c2b068fc378daa952ba7f163c4a11628f55a4df523b3ef91a4505050565b610197546001600160a01b03166324d7806c336040516001600160e01b031960e084901b1681526001600160a01b039091166004820152602401602060405180830381865afa1580156127ad573d6000803e3d6000fd5b505050506040513d601f19601f820116820180604052508101906127d1919061411e565b610e8f5760405162461bcd60e51b815260206004820152602560248201527f43616c6c6572206d75737420686176652061646d696e6973747261746f722061604482015264636365737360d81b60648201526084016109e5565b600061285e7f360894a13ba1a3210667c828492db98dca3e2076cc3735a920a3ca505d382bbc546001600160a01b031690565b905061286984613459565b6000835111806128765750815b1561288757612885848461350e565b505b7f4910fdfa16fed3260ed0e7147f7cc6da11a60208b5b9406d12a635614ffd9143805460ff166129e857805460ff191660011781556040516001600160a01b038316602482015261293490869060440160408051601f198184030181529190526020810180517bffffffffffffffffffffffffffffffffffffffffffffffffffffffff167f3659cfe60000000000000000000000000000000000000000000000000000000017905261350e565b50805460ff191681557f360894a13ba1a3210667c828492db98dca3e2076cc3735a920a3ca505d382bbc546001600160a01b038381169116146129df5760405162461bcd60e51b815260206004820152602f60248201527f45524331393637557067726164653a207570677261646520627265616b73206660448201527f757274686572207570677261646573000000000000000000000000000000000060648201526084016109e5565b6129e885613610565b5050505050565b60006129fa826114ac565b9050612a08816000846133d1565b612a1360008361241d565b6001600160a01b0381166000908152606860205260408120805460019290612a3c9084906142a5565b909155505060008281526067602052604080822080546001600160a01b0319169055518391906001600160a01b038416907fddf252ad1be2c89b69c2b068fc378daa952ba7f163c4a11628f55a4df523b3ef908390a45050565b600054610100900460ff16612b015760405162461bcd60e51b815260206004820152602b60248201527f496e697469616c697a61626c653a20636f6e7472616374206973206e6f74206960448201526a6e697469616c697a696e6760a81b60648201526084016109e5565b612b09613650565b612b11613650565b61137582826136bb565b600054610100900460ff16612b865760405162461bcd60e51b815260206004820152602b60248201527f496e697469616c697a61626c653a20636f6e7472616374206973206e6f74206960448201526a6e697469616c697a696e6760a81b60648201526084016109e5565b612b8e613650565b612b96613650565b612b9e61374d565b611c83613650565b600054610100900460ff16612c115760405162461bcd60e51b815260206004820152602b60248201527f496e697469616c697a61626c653a20636f6e7472616374206973206e6f74206960448201526a6e697469616c697a696e6760a81b60648201526084016109e5565b612c19613650565b612b9e613650565b600080612c2d83612176565b6000818152606760205260409020549091506001600160a01b031615612c955760405162461bcd60e51b815260206004820152601c60248201527f4552433732313a20746f6b656e20616c7265616479206d696e7465640000000060448201526064016109e5565b610194548351849111801590612caf575061019554815111155b612d215760405162461bcd60e51b815260206004820152603d60248201527f496e76616c696420666f726d61743a2074616720646f6573206e6f74206d656560448201527f74206d696e2f6d6178206c656e67746820726571756972656d656e747300000060648201526084016109e5565b80600081518110612d3457612d346142d4565b6020910101516001600160f81b0319167f230000000000000000000000000000000000000000000000000000000000000014612db25760405162461bcd60e51b815260206004820152601560248201527f546167206d75737420737461727420776974682023000000000000000000000060448201526064016109e5565b60015b8151811015612e8c576000828281518110612dd257612dd26142d4565b01602001516001600160f81b03191690507f2000000000000000000000000000000000000000000000000000000000000000811415612e795760405162461bcd60e51b815260206004820152602760248201527f537061636520666f756e643a20746167206d6179206e6f7420636f6e7461696e60448201527f207370616365730000000000000000000000000000000000000000000000000060648201526084016109e5565b5080612e84816142ea565b915050612db5565b50909392505050565b6113758282604051806020016040528060008152506137c4565b60975460ff1615612f025760405162461bcd60e51b815260206004820152601060248201527f5061757361626c653a207061757365640000000000000000000000000000000060448201526064016109e5565b6097805460ff191660011790557f62e78cea01bee320cd4e420270b5ea74000d11b0c9f74754ebdbfc544b05a258612f373390565b6040516001600160a01b03909116815260200160405180910390a1565b816001600160a01b0316836001600160a01b03161415612fb65760405162461bcd60e51b815260206004820152601960248201527f4552433732313a20617070726f766520746f2063616c6c65720000000000000060448201526064016109e5565b6001600160a01b038381166000818152606a6020908152604080832094871680845294825291829020805460ff191686151590811790915591519182527f17307eab39ab6107e8899845ad3d59bd9653f200f220920489ca2b5937696c31910160405180910390a3505050565b61302e84848461257e565b61303a84848484613842565b611e045760405162461bcd60e51b815260206004820152603260248201527f4552433732313a207472616e7366657220746f206e6f6e20455243373231526560448201527131b2b4bb32b91034b6b83632b6b2b73a32b960711b60648201526084016109e5565b60606101918054610a449061413b565b6060816130f157505060408051808201909152600181527f3000000000000000000000000000000000000000000000000000000000000000602082015290565b8160005b811561311b5780613105816142ea565b91506131149050600a8361431b565b91506130f5565b60008167ffffffffffffffff81111561313657613136613e12565b6040519080825280601f01601f191660200182016040528015613160576020820181803683370190505b5090505b8415611b9e576131756001836142a5565b9150613182600a8661432f565b61318d9060306142bc565b60f81b8183815181106131a2576131a26142d4565b60200101906001600160f81b031916908160001a9053506131c4600a8661431b565b9450613164565b6000611f9482846142bc565b606060008290506000815167ffffffffffffffff8111156131fa576131fa613e12565b6040519080825280601f01601f191660200182016040528015613224576020820181803683370190505b50905060005b825181101561334657604160f81b83828151811061324a5761324a6142d4565b01602001516001600160f81b0319161080159061328b5750605a60f81b838281518110613279576132796142d4565b01602001516001600160f81b03191611155b156132ed578281815181106132a2576132a26142d4565b602001015160f81c60f81b60f81c60206132bc9190614343565b60f81b8282815181106132d1576132d16142d4565b60200101906001600160f81b031916908160001a905350613334565b8281815181106132ff576132ff6142d4565b602001015160f81c60f81b82828151811061331c5761331c6142d4565b60200101906001600160f81b031916908160001a9053505b8061333e816142ea565b91505061322a565b509392505050565b60975460ff166133a05760405162461bcd60e51b815260206004820152601460248201527f5061757361626c653a206e6f742070617573656400000000000000000000000060448201526064016109e5565b6097805460ff191690557f5db9ee0a495bf2e6ff9c91a7834c1ba4fdd244a5e8aa4e537bd38aeae4b073aa33612f37565b6133dc838383613988565b60975460ff16156134435760405162461bcd60e51b815260206004820152602b60248201527f4552433732315061757361626c653a20746f6b656e207472616e73666572207760448201526a1a1a5b19481c185d5cd95960aa1b60648201526084016109e5565b6000908152610199602052604090204290555050565b803b6134cd5760405162461bcd60e51b815260206004820152602d60248201527f455243313936373a206e657720696d706c656d656e746174696f6e206973206e60448201527f6f74206120636f6e74726163740000000000000000000000000000000000000060648201526084016109e5565b7f360894a13ba1a3210667c828492db98dca3e2076cc3735a920a3ca505d382bbc80546001600160a01b0319166001600160a01b0392909216919091179055565b6060823b6135845760405162461bcd60e51b815260206004820152602660248201527f416464726573733a2064656c65676174652063616c6c20746f206e6f6e2d636f60448201527f6e7472616374000000000000000000000000000000000000000000000000000060648201526084016109e5565b600080846001600160a01b03168460405161359f9190614368565b600060405180830381855af49150503d80600081146135da576040519150601f19603f3d011682016040523d82523d6000602084013e6135df565b606091505b509150915061360782826040518060600160405280602781526020016143de602791396139ef565b95945050505050565b61361981613459565b6040516001600160a01b038216907fbc7cd75a20ee27fd9adebab32041f755214dbc6bffa90cc0225b39da2e5c2d3b90600090a250565b600054610100900460ff16611c835760405162461bcd60e51b815260206004820152602b60248201527f496e697469616c697a61626c653a20636f6e7472616374206973206e6f74206960448201526a6e697469616c697a696e6760a81b60648201526084016109e5565b600054610100900460ff166137265760405162461bcd60e51b815260206004820152602b60248201527f496e697469616c697a61626c653a20636f6e7472616374206973206e6f74206960448201526a6e697469616c697a696e6760a81b60648201526084016109e5565b8151613739906065906020850190613b76565b508051610c89906066906020840190613b76565b600054610100900460ff166137b85760405162461bcd60e51b815260206004820152602b60248201527f496e697469616c697a61626c653a20636f6e7472616374206973206e6f74206960448201526a6e697469616c697a696e6760a81b60648201526084016109e5565b6097805460ff19169055565b6137ce8383613a28565b6137db6000848484613842565b610c895760405162461bcd60e51b815260206004820152603260248201527f4552433732313a207472616e7366657220746f206e6f6e20455243373231526560448201527131b2b4bb32b91034b6b83632b6b2b73a32b960711b60648201526084016109e5565b60006001600160a01b0384163b1561398057604051630a85bd0160e11b81526001600160a01b0385169063150b7a0290613886903390899088908890600401614384565b6020604051808303816000875af19250505080156138c1575060408051601f3d908101601f191682019092526138be918101906143c0565b60015b613966573d8080156138ef576040519150601f19603f3d011682016040523d82523d6000602084013e6138f4565b606091505b50805161395e5760405162461bcd60e51b815260206004820152603260248201527f4552433732313a207472616e7366657220746f206e6f6e20455243373231526560448201527131b2b4bb32b91034b6b83632b6b2b73a32b960711b60648201526084016109e5565b805181602001fd5b6001600160e01b031916630a85bd0160e11b149050611b9e565b506001611b9e565b60975460ff1615610c895760405162461bcd60e51b815260206004820152602b60248201527f4552433732315061757361626c653a20746f6b656e207472616e73666572207760448201526a1a1a5b19481c185d5cd95960aa1b60648201526084016109e5565b606083156139fe575081611f94565b825115613a0e5782518084602001fd5b8160405162461bcd60e51b81526004016109e59190613d27565b6001600160a01b038216613a7e5760405162461bcd60e51b815260206004820181905260248201527f4552433732313a206d696e7420746f20746865207a65726f206164647265737360448201526064016109e5565b6000818152606760205260409020546001600160a01b031615613ae35760405162461bcd60e51b815260206004820152601c60248201527f4552433732313a20746f6b656e20616c7265616479206d696e7465640000000060448201526064016109e5565b613aef600083836133d1565b6001600160a01b0382166000908152606860205260408120805460019290613b189084906142bc565b909155505060008181526067602052604080822080546001600160a01b0319166001600160a01b03861690811790915590518392907fddf252ad1be2c89b69c2b068fc378daa952ba7f163c4a11628f55a4df523b3ef908290a45050565b828054613b829061413b565b90600052602060002090601f016020900481019282613ba45760008555613bea565b82601f10613bbd57805160ff1916838001178555613bea565b82800160010185558215613bea579182015b82811115613bea578251825591602001919060010190613bcf565b50613bf6929150613c6e565b5090565b828054613c069061413b565b90600052602060002090601f016020900481019282613c285760008555613bea565b82601f10613c415782800160ff19823516178555613bea565b82800160010185558215613bea579182015b82811115613bea578235825591602001919060010190613c53565b5b80821115613bf65760008155600101613c6f565b6001600160e01b031981168114610e8f57600080fd5b600060208284031215613cab57600080fd5b8135611f9481613c83565b600060208284031215613cc857600080fd5b5035919050565b60005b83811015613cea578181015183820152602001613cd2565b83811115611e045750506000910152565b60008151808452613d13816020860160208601613ccf565b601f01601f19169290920160200192915050565b602081526000611f946020830184613cfb565b6001600160a01b0381168114610e8f57600080fd5b60008060408385031215613d6257600080fd5b8235613d6d81613d3a565b946020939093013593505050565b600080600060608486031215613d9057600080fd5b8335613d9b81613d3a565b92506020840135613dab81613d3a565b929592945050506040919091013590565b600060208284031215613dce57600080fd5b8135611f9481613d3a565b60008060408385031215613dec57600080fd5b8235613df781613d3a565b91506020830135613e0781613d3a565b809150509250929050565b634e487b7160e01b600052604160045260246000fd5b600067ffffffffffffffff80841115613e4357613e43613e12565b604051601f8501601f19908116603f01168101908282118183101715613e6b57613e6b613e12565b81604052809350858152868686011115613e8457600080fd5b858560208301376000602087830101525050509392505050565b600082601f830112613eaf57600080fd5b611f9483833560208501613e28565b60008060408385031215613ed157600080fd5b8235613edc81613d3a565b9150602083013567ffffffffffffffff811115613ef857600080fd5b613f0485828601613e9e565b9150509250929050565b60008083601f840112613f2057600080fd5b50813567ffffffffffffffff811115613f3857600080fd5b602083019150836020828501011115613f5057600080fd5b9250929050565b60008060208385031215613f6a57600080fd5b823567ffffffffffffffff811115613f8157600080fd5b613f8d85828601613f0e565b90969095509350505050565b60008060008060608587031215613faf57600080fd5b843567ffffffffffffffff811115613fc657600080fd5b613fd287828801613f0e565b9095509350506020850135613fe681613d3a565b91506040850135613ff681613d3a565b939692955090935050565b8015158114610e8f57600080fd5b6000806040838503121561402257600080fd5b823561402d81613d3a565b91506020830135613e0781614001565b60006001600160a01b038086168352808516602084015250606060408301526136076060830184613cfb565b6000806000806080858703121561407f57600080fd5b843561408a81613d3a565b9350602085013561409a81613d3a565b925060408501359150606085013567ffffffffffffffff8111156140bd57600080fd5b6140c987828801613e9e565b91505092959194509250565b6000602082840312156140e757600080fd5b813567ffffffffffffffff8111156140fe57600080fd5b8201601f8101841361410f57600080fd5b611b9e84823560208401613e28565b60006020828403121561413057600080fd5b8151611f9481614001565b600181811c9082168061414f57607f821691505b6020821081141561417057634e487b7160e01b600052602260045260246000fd5b50919050565b600060208083526000845481600182811c91508083168061419857607f831692505b8583108114156141b657634e487b7160e01b85526022600452602485fd5b8786018381526020018180156141d357600181146141e45761420f565b60ff1986168252878201965061420f565b60008b81526020902060005b86811015614209578154848201529085019089016141f0565b83019750505b50949998505050505050505050565b604081528260408201528284606083013760006060848301015260006060601f19601f86011683010190506001600160a01b0383166020830152949350505050565b60008351614272818460208801613ccf565b835190830190614286818360208801613ccf565b01949350505050565b634e487b7160e01b600052601160045260246000fd5b6000828210156142b7576142b761428f565b500390565b600082198211156142cf576142cf61428f565b500190565b634e487b7160e01b600052603260045260246000fd5b60006000198214156142fe576142fe61428f565b5060010190565b634e487b7160e01b600052601260045260246000fd5b60008261432a5761432a614305565b500490565b60008261433e5761433e614305565b500690565b600060ff821660ff84168060ff038211156143605761436061428f565b019392505050565b6000825161437a818460208701613ccf565b9190910192915050565b60006001600160a01b038087168352808616602084015250836040830152608060608301526143b66080830184613cfb565b9695505050505050565b6000602082840312156143d257600080fd5b8151611f9481613c8356fe416464726573733a206c6f772d6c6576656c2064656c65676174652063616c6c206661696c6564a26469706673582212204a3bd3918ab070e082c10af47780c38d372359aa1f49a6e82a9dc784f825b8f664736f6c634300080c0033",
  "linkReferences": {},
  "deployedLinkReferences": {}
}