{
  "_format": "hh-sol-artifact-1",
  "contractName": "ETSTag",
  "sourceName": "contracts/core/ETSTag.sol",
  "abi": [
    {
      "anonymous": false,
      "inputs": [
        {
          "indexed": false,
          "internalType": "contract ETSAccessControls",
          "name": "previousAccessControls",
          "type": "address"
        },
        {
          "indexed": false,
          "internalType": "contract ETSAccessControls",
          "name": "newAccessControls",
          "type": "address"
        }
      ],
      "name": "AccessControlsUpdated",
      "type": "event"
    },
    {
      "anonymous": false,
      "inputs": [
        {
          "indexed": false,
          "internalType": "address",
          "name": "previousAdmin",
          "type": "address"
        },
        {
          "indexed": false,
          "internalType": "address",
          "name": "newAdmin",
          "type": "address"
        }
      ],
      "name": "AdminChanged",
      "type": "event"
    },
    {
      "anonymous": false,
      "inputs": [
        {
          "indexed": true,
          "internalType": "address",
          "name": "owner",
          "type": "address"
        },
        {
          "indexed": true,
          "internalType": "address",
          "name": "approved",
          "type": "address"
        },
        {
          "indexed": true,
          "internalType": "uint256",
          "name": "tokenId",
          "type": "uint256"
        }
      ],
      "name": "Approval",
      "type": "event"
    },
    {
      "anonymous": false,
      "inputs": [
        {
          "indexed": true,
          "internalType": "address",
          "name": "owner",
          "type": "address"
        },
        {
          "indexed": true,
          "internalType": "address",
          "name": "operator",
          "type": "address"
        },
        {
          "indexed": false,
          "internalType": "bool",
          "name": "approved",
          "type": "bool"
        }
      ],
      "name": "ApprovalForAll",
      "type": "event"
    },
    {
      "anonymous": false,
      "inputs": [
        {
          "indexed": true,
          "internalType": "address",
          "name": "beacon",
          "type": "address"
        }
      ],
      "name": "BeaconUpgraded",
      "type": "event"
    },
    {
      "anonymous": false,
      "inputs": [
        {
          "indexed": true,
          "internalType": "uint256",
          "name": "tokenId",
          "type": "uint256"
        },
        {
          "indexed": false,
          "internalType": "string",
          "name": "displayVersion",
          "type": "string"
        },
        {
          "indexed": true,
          "internalType": "address",
          "name": "publisher",
          "type": "address"
        },
        {
          "indexed": false,
          "internalType": "address",
          "name": "creator",
          "type": "address"
        }
      ],
      "name": "MintTag",
      "type": "event"
    },
    {
      "anonymous": false,
      "inputs": [
        {
          "indexed": false,
          "internalType": "string",
          "name": "baseURI",
          "type": "string"
        }
      ],
      "name": "NewBaseURI",
      "type": "event"
    },
    {
      "anonymous": false,
      "inputs": [
        {
          "indexed": false,
          "internalType": "uint256",
          "name": "originalOwnershipLength",
          "type": "uint256"
        },
        {
          "indexed": false,
          "internalType": "uint256",
          "name": "updatedOwnershipLength",
          "type": "uint256"
        }
      ],
      "name": "OwnershipTermLengthUpdated",
      "type": "event"
    },
    {
      "anonymous": false,
      "inputs": [
        {
          "indexed": false,
          "internalType": "address",
          "name": "account",
          "type": "address"
        }
      ],
      "name": "Paused",
      "type": "event"
    },
    {
      "anonymous": false,
      "inputs": [
        {
          "indexed": false,
          "internalType": "address",
          "name": "previousPlatformAddress",
          "type": "address"
        },
        {
          "indexed": false,
          "internalType": "address",
          "name": "newPlatformAddress",
          "type": "address"
        }
      ],
      "name": "PlatformSet",
      "type": "event"
    },
    {
      "anonymous": false,
      "inputs": [
        {
          "indexed": false,
          "internalType": "uint256",
          "name": "originalRenewalPeriod",
          "type": "uint256"
        },
        {
          "indexed": false,
          "internalType": "uint256",
          "name": "updatedRenewalPeriod",
          "type": "uint256"
        }
      ],
      "name": "RenewalPeriodUpdated",
      "type": "event"
    },
    {
      "anonymous": false,
      "inputs": [
        {
          "indexed": true,
          "internalType": "uint256",
          "name": "tokenId",
          "type": "uint256"
        }
      ],
      "name": "TagBurned",
      "type": "event"
    },
    {
      "anonymous": false,
      "inputs": [
        {
          "indexed": false,
          "internalType": "uint256",
          "name": "previousMaxStringLength",
          "type": "uint256"
        },
        {
          "indexed": false,
          "internalType": "uint256",
          "name": "newMaxStringLength",
          "type": "uint256"
        }
      ],
      "name": "TagMaxStringLengthUpdated",
      "type": "event"
    },
    {
      "anonymous": false,
      "inputs": [
        {
          "indexed": true,
          "internalType": "uint256",
          "name": "tokenId",
          "type": "uint256"
        },
        {
          "indexed": true,
          "internalType": "address",
          "name": "owner",
          "type": "address"
        }
      ],
      "name": "TagRecycled",
      "type": "event"
    },
    {
      "anonymous": false,
      "inputs": [
        {
          "indexed": true,
          "internalType": "uint256",
          "name": "tokenId",
          "type": "uint256"
        },
        {
          "indexed": true,
          "internalType": "address",
          "name": "caller",
          "type": "address"
        }
      ],
      "name": "TagRenewed",
      "type": "event"
    },
    {
      "anonymous": false,
      "inputs": [
        {
          "indexed": true,
          "internalType": "address",
          "name": "from",
          "type": "address"
        },
        {
          "indexed": true,
          "internalType": "address",
          "name": "to",
          "type": "address"
        },
        {
          "indexed": true,
          "internalType": "uint256",
          "name": "tokenId",
          "type": "uint256"
        }
      ],
      "name": "Transfer",
      "type": "event"
    },
    {
      "anonymous": false,
      "inputs": [
        {
          "indexed": false,
          "internalType": "address",
          "name": "account",
          "type": "address"
        }
      ],
      "name": "Unpaused",
      "type": "event"
    },
    {
      "anonymous": false,
      "inputs": [
        {
          "indexed": true,
          "internalType": "address",
          "name": "implementation",
          "type": "address"
        }
      ],
      "name": "Upgraded",
      "type": "event"
    },
    {
      "inputs": [],
      "name": "NAME",
      "outputs": [
        {
          "internalType": "string",
          "name": "",
          "type": "string"
        }
      ],
      "stateMutability": "view",
      "type": "function"
    },
    {
      "inputs": [],
      "name": "VERSION",
      "outputs": [
        {
          "internalType": "string",
          "name": "",
          "type": "string"
        }
      ],
      "stateMutability": "view",
      "type": "function"
    },
    {
      "inputs": [],
      "name": "accessControls",
      "outputs": [
        {
          "internalType": "contract ETSAccessControls",
          "name": "",
          "type": "address"
        }
      ],
      "stateMutability": "view",
      "type": "function"
    },
    {
      "inputs": [
        {
          "internalType": "address",
          "name": "to",
          "type": "address"
        },
        {
          "internalType": "uint256",
          "name": "tokenId",
          "type": "uint256"
        }
      ],
      "name": "approve",
      "outputs": [],
      "stateMutability": "nonpayable",
      "type": "function"
    },
    {
      "inputs": [
        {
          "internalType": "address",
          "name": "owner",
          "type": "address"
        }
      ],
      "name": "balanceOf",
      "outputs": [
        {
          "internalType": "uint256",
          "name": "",
          "type": "uint256"
        }
      ],
      "stateMutability": "view",
      "type": "function"
    },
    {
      "inputs": [],
      "name": "baseURI",
      "outputs": [
        {
          "internalType": "string",
          "name": "",
          "type": "string"
        }
      ],
      "stateMutability": "view",
      "type": "function"
    },
    {
      "inputs": [
        {
          "internalType": "uint256",
          "name": "tokenId",
          "type": "uint256"
        }
      ],
      "name": "burn",
      "outputs": [],
      "stateMutability": "nonpayable",
      "type": "function"
    },
    {
      "inputs": [
        {
          "internalType": "uint256",
          "name": "tokenId",
          "type": "uint256"
        }
      ],
      "name": "exists",
      "outputs": [
        {
          "internalType": "bool",
          "name": "",
          "type": "bool"
        }
      ],
      "stateMutability": "view",
      "type": "function"
    },
    {
      "inputs": [
        {
          "internalType": "uint256",
          "name": "tokenId",
          "type": "uint256"
        }
      ],
      "name": "getApproved",
      "outputs": [
        {
          "internalType": "address",
          "name": "",
          "type": "address"
        }
      ],
      "stateMutability": "view",
      "type": "function"
    },
    {
      "inputs": [
        {
          "internalType": "uint256",
          "name": "_tokenId",
          "type": "uint256"
        }
      ],
      "name": "getCreatorAddress",
      "outputs": [
        {
          "internalType": "address",
          "name": "_creator",
          "type": "address"
        }
      ],
      "stateMutability": "view",
      "type": "function"
    },
    {
      "inputs": [
        {
          "internalType": "uint256",
          "name": "_tokenId",
          "type": "uint256"
        }
      ],
      "name": "getPaymentAddresses",
      "outputs": [
        {
          "internalType": "address payable",
          "name": "_platform",
          "type": "address"
        },
        {
          "internalType": "address payable",
          "name": "_owner",
          "type": "address"
        }
      ],
      "stateMutability": "view",
      "type": "function"
    },
    {
      "inputs": [
        {
          "internalType": "string",
          "name": "tag",
          "type": "string"
        }
      ],
      "name": "getTagId",
      "outputs": [
        {
          "internalType": "uint256",
          "name": "etstagId",
          "type": "uint256"
        }
      ],
      "stateMutability": "view",
      "type": "function"
    },
    {
      "inputs": [
        {
          "internalType": "contract ETSAccessControls",
          "name": "_accessControls",
          "type": "address"
        },
        {
          "internalType": "address payable",
          "name": "_platform",
          "type": "address"
        }
      ],
      "name": "initialize",
      "outputs": [],
      "stateMutability": "nonpayable",
      "type": "function"
    },
    {
      "inputs": [
        {
          "internalType": "address",
          "name": "owner",
          "type": "address"
        },
        {
          "internalType": "address",
          "name": "operator",
          "type": "address"
        }
      ],
      "name": "isApprovedForAll",
      "outputs": [
        {
          "internalType": "bool",
          "name": "",
          "type": "bool"
        }
      ],
      "stateMutability": "view",
      "type": "function"
    },
    {
      "inputs": [
        {
          "internalType": "string",
          "name": "_tag",
          "type": "string"
        },
        {
          "internalType": "address payable",
          "name": "_publisher",
          "type": "address"
        },
        {
          "internalType": "address",
          "name": "_creator",
          "type": "address"
        }
      ],
      "name": "mint",
      "outputs": [
        {
          "internalType": "uint256",
          "name": "_tokenId",
          "type": "uint256"
        }
      ],
      "stateMutability": "payable",
      "type": "function"
    },
    {
      "inputs": [],
      "name": "name",
      "outputs": [
        {
          "internalType": "string",
          "name": "",
          "type": "string"
        }
      ],
      "stateMutability": "view",
      "type": "function"
    },
    {
      "inputs": [
        {
          "internalType": "uint256",
          "name": "tokenId",
          "type": "uint256"
        }
      ],
      "name": "ownerOf",
      "outputs": [
        {
          "internalType": "address",
          "name": "",
          "type": "address"
        }
      ],
      "stateMutability": "view",
      "type": "function"
    },
    {
      "inputs": [],
      "name": "ownershipTermLength",
      "outputs": [
        {
          "internalType": "uint256",
          "name": "",
          "type": "uint256"
        }
      ],
      "stateMutability": "view",
      "type": "function"
    },
    {
      "inputs": [],
      "name": "pause",
      "outputs": [],
      "stateMutability": "nonpayable",
      "type": "function"
    },
    {
      "inputs": [],
      "name": "paused",
      "outputs": [
        {
          "internalType": "bool",
          "name": "",
          "type": "bool"
        }
      ],
      "stateMutability": "view",
      "type": "function"
    },
    {
      "inputs": [],
      "name": "platform",
      "outputs": [
        {
          "internalType": "address payable",
          "name": "",
          "type": "address"
        }
      ],
      "stateMutability": "view",
      "type": "function"
    },
    {
      "inputs": [
        {
          "internalType": "uint256",
          "name": "_tokenId",
          "type": "uint256"
        }
      ],
      "name": "recycleTag",
      "outputs": [],
      "stateMutability": "nonpayable",
      "type": "function"
    },
    {
      "inputs": [
        {
          "internalType": "uint256",
          "name": "_tokenId",
          "type": "uint256"
        }
      ],
      "name": "renewTag",
      "outputs": [],
      "stateMutability": "nonpayable",
      "type": "function"
    },
    {
      "inputs": [
        {
          "internalType": "address",
          "name": "from",
          "type": "address"
        },
        {
          "internalType": "address",
          "name": "to",
          "type": "address"
        },
        {
          "internalType": "uint256",
          "name": "tokenId",
          "type": "uint256"
        }
      ],
      "name": "safeTransferFrom",
      "outputs": [],
      "stateMutability": "nonpayable",
      "type": "function"
    },
    {
      "inputs": [
        {
          "internalType": "address",
          "name": "from",
          "type": "address"
        },
        {
          "internalType": "address",
          "name": "to",
          "type": "address"
        },
        {
          "internalType": "uint256",
          "name": "tokenId",
          "type": "uint256"
        },
        {
          "internalType": "bytes",
          "name": "_data",
          "type": "bytes"
        }
      ],
      "name": "safeTransferFrom",
      "outputs": [],
      "stateMutability": "nonpayable",
      "type": "function"
    },
    {
      "inputs": [
        {
          "internalType": "address",
          "name": "operator",
          "type": "address"
        },
        {
          "internalType": "bool",
          "name": "approved",
          "type": "bool"
        }
      ],
      "name": "setApprovalForAll",
      "outputs": [],
      "stateMutability": "nonpayable",
      "type": "function"
    },
    {
      "inputs": [
        {
          "internalType": "string",
          "name": "newBaseURI",
          "type": "string"
        }
      ],
      "name": "setBaseURI",
      "outputs": [],
      "stateMutability": "nonpayable",
      "type": "function"
    },
    {
      "inputs": [
        {
          "internalType": "uint256",
          "name": "_ownershipTermLength",
          "type": "uint256"
        }
      ],
      "name": "setOwnershipTermLength",
      "outputs": [],
      "stateMutability": "nonpayable",
      "type": "function"
    },
    {
      "inputs": [
        {
          "internalType": "address payable",
          "name": "_platform",
          "type": "address"
        }
      ],
      "name": "setPlatform",
      "outputs": [],
      "stateMutability": "nonpayable",
      "type": "function"
    },
    {
      "inputs": [
        {
          "internalType": "uint256",
          "name": "_tagMaxStringLength",
          "type": "uint256"
        }
      ],
      "name": "setTagMaxStringLength",
      "outputs": [],
      "stateMutability": "nonpayable",
      "type": "function"
    },
    {
      "inputs": [
        {
          "internalType": "bytes4",
          "name": "interfaceId",
          "type": "bytes4"
        }
      ],
      "name": "supportsInterface",
      "outputs": [
        {
          "internalType": "bool",
          "name": "",
          "type": "bool"
        }
      ],
      "stateMutability": "view",
      "type": "function"
    },
    {
      "inputs": [],
      "name": "symbol",
      "outputs": [
        {
          "internalType": "string",
          "name": "",
          "type": "string"
        }
      ],
      "stateMutability": "view",
      "type": "function"
    },
    {
      "inputs": [],
      "name": "tagMaxStringLength",
      "outputs": [
        {
          "internalType": "uint256",
          "name": "",
          "type": "uint256"
        }
      ],
      "stateMutability": "view",
      "type": "function"
    },
    {
      "inputs": [],
      "name": "tagMinStringLength",
      "outputs": [
        {
          "internalType": "uint256",
          "name": "",
          "type": "uint256"
        }
      ],
      "stateMutability": "view",
      "type": "function"
    },
    {
      "inputs": [
        {
          "internalType": "string",
          "name": "",
          "type": "string"
        }
      ],
      "name": "tagToTokenId",
      "outputs": [
        {
          "internalType": "uint256",
          "name": "",
          "type": "uint256"
        }
      ],
      "stateMutability": "view",
      "type": "function"
    },
    {
      "inputs": [
        {
          "internalType": "uint256",
          "name": "",
          "type": "uint256"
        }
      ],
      "name": "tokenIdToLastTransferTime",
      "outputs": [
        {
          "internalType": "uint256",
          "name": "",
          "type": "uint256"
        }
      ],
      "stateMutability": "view",
      "type": "function"
    },
    {
      "inputs": [
        {
          "internalType": "uint256",
          "name": "",
          "type": "uint256"
        }
      ],
      "name": "tokenIdToTag",
      "outputs": [
        {
          "internalType": "address",
          "name": "originalPublisher",
          "type": "address"
        },
        {
          "internalType": "address",
          "name": "creator",
          "type": "address"
        },
        {
          "internalType": "string",
          "name": "displayVersion",
          "type": "string"
        },
        {
          "internalType": "string",
          "name": "machineName",
          "type": "string"
        }
      ],
      "stateMutability": "view",
      "type": "function"
    },
    {
      "inputs": [],
      "name": "tokenPointer",
      "outputs": [
        {
          "internalType": "uint256",
          "name": "",
          "type": "uint256"
        }
      ],
      "stateMutability": "view",
      "type": "function"
    },
    {
      "inputs": [
        {
          "internalType": "uint256",
          "name": "tokenId",
          "type": "uint256"
        }
      ],
      "name": "tokenURI",
      "outputs": [
        {
          "internalType": "string",
          "name": "",
          "type": "string"
        }
      ],
      "stateMutability": "view",
      "type": "function"
    },
    {
      "inputs": [
        {
          "internalType": "address",
          "name": "from",
          "type": "address"
        },
        {
          "internalType": "address",
          "name": "to",
          "type": "address"
        },
        {
          "internalType": "uint256",
          "name": "tokenId",
          "type": "uint256"
        }
      ],
      "name": "transferFrom",
      "outputs": [],
      "stateMutability": "nonpayable",
      "type": "function"
    },
    {
      "inputs": [],
      "name": "unPause",
      "outputs": [],
      "stateMutability": "nonpayable",
      "type": "function"
    },
    {
      "inputs": [
        {
          "internalType": "contract ETSAccessControls",
          "name": "_accessControls",
          "type": "address"
        }
      ],
      "name": "updateAccessControls",
      "outputs": [],
      "stateMutability": "nonpayable",
      "type": "function"
    },
    {
      "inputs": [
        {
          "internalType": "address",
          "name": "newImplementation",
          "type": "address"
        }
      ],
      "name": "upgradeTo",
      "outputs": [],
      "stateMutability": "nonpayable",
      "type": "function"
    },
    {
      "inputs": [
        {
          "internalType": "address",
          "name": "newImplementation",
          "type": "address"
        },
        {
          "internalType": "bytes",
          "name": "data",
          "type": "bytes"
        }
      ],
      "name": "upgradeToAndCall",
      "outputs": [],
      "stateMutability": "payable",
      "type": "function"
    },
    {
      "inputs": [],
      "name": "version",
      "outputs": [
        {
          "internalType": "string",
          "name": "",
          "type": "string"
        }
      ],
      "stateMutability": "pure",
      "type": "function"
    }
  ],
  "bytecode": "0x60a06040523060805234801561001457600080fd5b506080516145da61004560003960008181610dce01528181610e53015281816112c4015261134901526145da6000f3fe6080604052600436106102f25760003560e01c80636ef3da941161018f578063a3f4df7e116100e1578063db7af5fb1161008a578063f66e762311610064578063f66e7623146108e2578063f7b188a514610902578063ffa1ad741461091757600080fd5b8063db7af5fb14610862578063e8d3e4b614610879578063e985e9c51461089957600080fd5b8063b88d4fde116100bb578063b88d4fde14610802578063c157daea14610822578063c87b56dd1461084257600080fd5b8063a3f4df7e14610772578063ad014a5b146107bb578063adf63cd2146107eb57600080fd5b80638456cb591161014357806395d89b411161011d57806395d89b4114610703578063a22cb46514610718578063a30b4db91461073857600080fd5b80638456cb5914610680578063878327ab1461069557806390b467ea146106d557600080fd5b8063748365ef11610174578063748365ef146106135780637e3bd74b146106345780637e6d945e1461066d57600080fd5b80636ef3da94146105d357806370a08231146105f357600080fd5b806342966c681161024857806354fd4d50116101fc5780636352211e116101d65780636352211e1461057e5780636945c5ea1461059e5780636c0360eb146105be57600080fd5b806354fd4d501461051857806355f804b3146105465780635c975abb1461056657600080fd5b80634bde38c81161022d5780634bde38c8146104c45780634f1ef286146104e55780634f558e79146104f857600080fd5b806342966c6814610484578063485cc955146104a457600080fd5b8063081812fc116102aa5780632e611630116102845780632e6116301461042d5780633659cfe61461044457806342842e0e1461046457600080fd5b8063081812fc146103b5578063095ea7b3146103ed57806323b872dd1461040d57600080fd5b806304befefd116102db57806304befefd14610351578063060defec1461037157806306fdde031461039357600080fd5b806301ffc9a7146102f7578063028316511461032c575b600080fd5b34801561030357600080fd5b50610317610312366004613e1c565b610948565b60405190151581526020015b60405180910390f35b34801561033857600080fd5b506103436101935481565b604051908152602001610323565b34801561035d57600080fd5b5061034361036c366004613e82565b610959565b34801561037d57600080fd5b5061039161038c366004613ec4565b6109c1565b005b34801561039f57600080fd5b506103a8610ae2565b6040516103239190613f35565b3480156103c157600080fd5b506103d56103d0366004613ec4565b610b74565b6040516001600160a01b039091168152602001610323565b3480156103f957600080fd5b50610391610408366004613f5d565b610c09565b34801561041957600080fd5b50610391610428366004613f89565b610d3b565b34801561043957600080fd5b506103436101955481565b34801561045057600080fd5b5061039161045f366004613fca565b610dc3565b34801561047057600080fd5b5061039161047f366004613f89565b610f3f565b34801561049057600080fd5b5061039161049f366004613ec4565b610f5a565b3480156104b057600080fd5b506103916104bf366004613fe7565b6110e1565b3480156104d057600080fd5b50610196546103d5906001600160a01b031681565b6103916104f33660046140cc565b6112b9565b34801561050457600080fd5b50610317610513366004613ec4565b611426565b34801561052457600080fd5b506040805180820190915260058152640302e322e360dc1b60208201526103a8565b34801561055257600080fd5b50610391610561366004613e82565b611445565b34801561057257600080fd5b5060975460ff16610317565b34801561058a57600080fd5b506103d5610599366004613ec4565b611559565b3480156105aa57600080fd5b506103916105b9366004613fca565b6115e4565b3480156105ca57600080fd5b506103a8611714565b3480156105df57600080fd5b506103916105ee366004613fca565b6117a3565b3480156105ff57600080fd5b5061034361060e366004613fca565b61194f565b34801561061f57600080fd5b50610197546103d5906001600160a01b031681565b34801561064057600080fd5b5061034361064f36600461411c565b80516020818301810180516101998252928201919093012091525481565b61034361067b366004614165565b6119e9565b34801561068c57600080fd5b50610391611cac565b3480156106a157600080fd5b506106b56106b0366004613ec4565b611d8b565b604080516001600160a01b03938416815292909116602083015201610323565b3480156106e157600080fd5b506103436106f0366004613ec4565b61019a6020526000908152604090205481565b34801561070f57600080fd5b506103a8611daf565b34801561072457600080fd5b506103916107333660046141db565b611dbe565b34801561074457600080fd5b506103d5610753366004613ec4565b600090815261019860205260409020600101546001600160a01b031690565b34801561077e57600080fd5b506103a86040518060400160405280600c81526020017f45545354414720546f6b656e000000000000000000000000000000000000000081525081565b3480156107c757600080fd5b506107db6107d6366004613ec4565b611dc9565b6040516103239493929190614209565b3480156107f757600080fd5b506103436101945481565b34801561080e57600080fd5b5061039161081d366004614252565b611f10565b34801561082e57600080fd5b5061039161083d366004613ec4565b611f9e565b34801561084e57600080fd5b506103a861085d366004613ec4565b612046565b34801561086e57600080fd5b506103436101925481565b34801561088557600080fd5b50610391610894366004613ec4565b61212f565b3480156108a557600080fd5b506103176108b4366004613fe7565b6001600160a01b039182166000908152606a6020908152604080832093909416825291909152205460ff1690565b3480156108ee57600080fd5b506103916108fd366004613ec4565b61230a565b34801561090e57600080fd5b5061039161241e565b34801561092357600080fd5b506103a8604051806040016040528060058152602001640302e322e360dc1b81525081565b6000610953826124fb565b92915050565b600061019961099d84848080601f01602080910402602001604051908101604052809392919081815260200183838082843760009201919091525061259692505050565b6040516109aa91906142be565b908152602001604051809103902054905092915050565b610197546001600160a01b03166324d7806c336040516001600160e01b031960e084901b1681526001600160a01b039091166004820152602401602060405180830381865afa158015610a18573d6000803e3d6000fd5b505050506040513d601f19601f82011682018060405250810190610a3c91906142da565b610a9b5760405162461bcd60e51b815260206004820152602560248201527f43616c6c6572206d75737420686176652061646d696e6973747261746f722061604482015264636365737360d81b60648201526084015b60405180910390fd5b61019580549082905560408051828152602081018490527f3bcd7d0ed4502e81afe37fd199a6a8e34e8d351fdafd54d97726970c18fdcd2b91015b60405180910390a15050565b606060658054610af1906142f7565b80601f0160208091040260200160405190810160405280929190818152602001828054610b1d906142f7565b8015610b6a5780601f10610b3f57610100808354040283529160200191610b6a565b820191906000526020600020905b815481529060010190602001808311610b4d57829003601f168201915b5050505050905090565b6000818152606760205260408120546001600160a01b0316610bed5760405162461bcd60e51b815260206004820152602c60248201527f4552433732313a20617070726f76656420717565727920666f72206e6f6e657860448201526b34b9ba32b73a103a37b5b2b760a11b6064820152608401610a92565b506000908152606960205260409020546001600160a01b031690565b6000610c1482611559565b9050806001600160a01b0316836001600160a01b03161415610c9e5760405162461bcd60e51b815260206004820152602160248201527f4552433732313a20617070726f76616c20746f2063757272656e74206f776e6560448201527f72000000000000000000000000000000000000000000000000000000000000006064820152608401610a92565b336001600160a01b0382161480610cba5750610cba81336108b4565b610d2c5760405162461bcd60e51b815260206004820152603860248201527f4552433732313a20617070726f76652063616c6c6572206973206e6f74206f7760448201527f6e6572206e6f7220617070726f76656420666f7220616c6c00000000000000006064820152608401610a92565b610d36838361270d565b505050565b610d46335b8261277b565b610db85760405162461bcd60e51b815260206004820152603160248201527f4552433732313a207472616e736665722063616c6c6572206973206e6f74206f60448201527f776e6572206e6f7220617070726f7665640000000000000000000000000000006064820152608401610a92565b610d3683838361286e565b306001600160a01b037f0000000000000000000000000000000000000000000000000000000000000000161415610e515760405162461bcd60e51b815260206004820152602c60248201527f46756e6374696f6e206d7573742062652063616c6c6564207468726f7567682060448201526b19195b1959d85d1958d85b1b60a21b6064820152608401610a92565b7f00000000000000000000000000000000000000000000000000000000000000006001600160a01b0316610eac7f360894a13ba1a3210667c828492db98dca3e2076cc3735a920a3ca505d382bbc546001600160a01b031690565b6001600160a01b031614610f175760405162461bcd60e51b815260206004820152602c60248201527f46756e6374696f6e206d7573742062652063616c6c6564207468726f7567682060448201526b6163746976652070726f787960a01b6064820152608401610a92565b610f2081612a46565b60408051600080825260208201909252610f3c91839190612b1b565b50565b610d3683838360405180602001604052806000815250611f10565b610197546001600160a01b03166324d7806c336040516001600160e01b031960e084901b1681526001600160a01b039091166004820152602401602060405180830381865afa158015610fb1573d6000803e3d6000fd5b505050506040513d601f19601f82011682018060405250810190610fd591906142da565b61102f5760405162461bcd60e51b815260206004820152602560248201527f43616c6c6572206d75737420686176652061646d696e6973747261746f722061604482015264636365737360d81b6064820152608401610a92565b61103833610d40565b6110aa5760405162461bcd60e51b815260206004820152603060248201527f4552433732314275726e61626c653a2063616c6c6572206973206e6f74206f7760448201527f6e6572206e6f7220617070726f766564000000000000000000000000000000006064820152608401610a92565b6110b381612cdf565b60405181907f7f928e3c53f35086b51ff7b9bfd4651b14e8b9ccb0535aa4a085fb2881785b8290600090a250565b600054610100900460ff166110fc5760005460ff1615611100565b303b155b6111725760405162461bcd60e51b815260206004820152602e60248201527f496e697469616c697a61626c653a20636f6e747261637420697320616c72656160448201527f647920696e697469616c697a65640000000000000000000000000000000000006064820152608401610a92565b600054610100900460ff16158015611194576000805461ffff19166101011790555b6112086040518060400160405280601481526020017f457468657265756d2054616720536572766963650000000000000000000000008152506040518060400160405280600681526020017f4554535441470000000000000000000000000000000000000000000000000000815250612d86565b611210612e0b565b611218612e96565b61019780546001600160a01b038086166001600160a01b0319928316179092556101968054928516929091169190911790556303c26700610192556040805180820190915260208082527f68747470733a2f2f6170692e686173687461672d70726f746f636f6c2e696f2f9181019182526112969161019191613cf9565b506001610194556020610195558015610d36576000805461ff0019169055505050565b306001600160a01b037f00000000000000000000000000000000000000000000000000000000000000001614156113475760405162461bcd60e51b815260206004820152602c60248201527f46756e6374696f6e206d7573742062652063616c6c6564207468726f7567682060448201526b19195b1959d85d1958d85b1b60a21b6064820152608401610a92565b7f00000000000000000000000000000000000000000000000000000000000000006001600160a01b03166113a27f360894a13ba1a3210667c828492db98dca3e2076cc3735a920a3ca505d382bbc546001600160a01b031690565b6001600160a01b03161461140d5760405162461bcd60e51b815260206004820152602c60248201527f46756e6374696f6e206d7573742062652063616c6c6564207468726f7567682060448201526b6163746976652070726f787960a01b6064820152608401610a92565b61141682612a46565b61142282826001612b1b565b5050565b6000818152606760205260408120546001600160a01b03161515610953565b610197546001600160a01b03166324d7806c336040516001600160e01b031960e084901b1681526001600160a01b039091166004820152602401602060405180830381865afa15801561149c573d6000803e3d6000fd5b505050506040513d601f19601f820116820180604052508101906114c091906142da565b61151a5760405162461bcd60e51b815260206004820152602560248201527f43616c6c6572206d75737420686176652061646d696e6973747261746f722061604482015264636365737360d81b6064820152608401610a92565b6115276101918383613d7d565b507f325d37e8fb549c86966f09bc3e6f62eb3afa93b255d6e3234338001f3d80bd86610191604051610ad69190614332565b6000818152606760205260408120546001600160a01b0316806109535760405162461bcd60e51b815260206004820152602960248201527f4552433732313a206f776e657220717565727920666f72206e6f6e657869737460448201527f656e7420746f6b656e00000000000000000000000000000000000000000000006064820152608401610a92565b610197546001600160a01b03166324d7806c336040516001600160e01b031960e084901b1681526001600160a01b039091166004820152602401602060405180830381865afa15801561163b573d6000803e3d6000fd5b505050506040513d601f19601f8201168201806040525081019061165f91906142da565b6116b95760405162461bcd60e51b815260206004820152602560248201527f43616c6c6572206d75737420686176652061646d696e6973747261746f722061604482015264636365737360d81b6064820152608401610a92565b61019680546001600160a01b038381166001600160a01b031983168117909355604080519190921680825260208201939093527f0e8ce4b57fd24de168e9c8d76109cb59a7852e78b3575da1ba2077dd53d330ec9101610ad6565b6101918054611722906142f7565b80601f016020809104026020016040519081016040528092919081815260200182805461174e906142f7565b801561179b5780601f106117705761010080835404028352916020019161179b565b820191906000526020600020905b81548152906001019060200180831161177e57829003601f168201915b505050505081565b610197546001600160a01b03166324d7806c336040516001600160e01b031960e084901b1681526001600160a01b039091166004820152602401602060405180830381865afa1580156117fa573d6000803e3d6000fd5b505050506040513d601f19601f8201168201806040525081019061181e91906142da565b6118785760405162461bcd60e51b815260206004820152602560248201527f43616c6c6572206d75737420686176652061646d696e6973747261746f722061604482015264636365737360d81b6064820152608401610a92565b6001600160a01b0381166118f45760405162461bcd60e51b815260206004820152602b60248201527f4554535461672e757064617465416363657373436f6e74726f6c733a2043616e60448201527f6e6f74206265207a65726f0000000000000000000000000000000000000000006064820152608401610a92565b61019780546001600160a01b038381166001600160a01b031983168117909355604080519190921680825260208201939093527f31073599bfae2533a348dc816b0ce777b707aa9b67015ca2d86585e842b5c6e99101610ad6565b60006001600160a01b0382166119cd5760405162461bcd60e51b815260206004820152602a60248201527f4552433732313a2062616c616e636520717565727920666f7220746865207a6560448201527f726f2061646472657373000000000000000000000000000000000000000000006064820152608401610a92565b506001600160a01b031660009081526068602052604090205490565b610197546040517f41859ac80000000000000000000000000000000000000000000000000000000081526001600160a01b03848116600483015260009216906341859ac890602401602060405180830381865afa158015611a4e573d6000803e3d6000fd5b505050506040513d601f19601f82011682018060405250810190611a7291906142da565b611ae45760405162461bcd60e51b815260206004820152602760248201527f4d696e743a20546865207075626c6973686572206d757374206265207768697460448201527f656c6973746564000000000000000000000000000000000000000000000000006064820152608401610a92565b6000611b2586868080601f016020809104026020016040519081016040528093929190818152602001838380828437600092019190915250612f1192505050565b61019354909150611b3790600161318f565b61019381905561019654611b54906001600160a01b03168261319b565b6040518060800160405280866001600160a01b03168152602001856001600160a01b0316815260200188888080601f016020809104026020016040519081016040528093929190818152602001838380828437600092018290525093855250505060209182018590528381526101988252604090819020835181546001600160a01b039182166001600160a01b0319918216178355858501516001840180549190931691161790559083015180519192611c1692600285019290910190613cf9565b5060608201518051611c32916003840191602090910190613cf9565b509050508061019983604051611c4891906142be565b908152602001604051809103902081905550846001600160a01b0316817f85d182e335717d2d833be448c2f6a5864b8514dfeb8cda8f0fbac14f5157f0be898988604051611c98939291906143da565b60405180910390a39150505b949350505050565b610197546001600160a01b03166324d7806c336040516001600160e01b031960e084901b1681526001600160a01b039091166004820152602401602060405180830381865afa158015611d03573d6000803e3d6000fd5b505050506040513d601f19601f82011682018060405250810190611d2791906142da565b611d815760405162461bcd60e51b815260206004820152602560248201527f43616c6c6572206d75737420686176652061646d696e6973747261746f722061604482015264636365737360d81b6064820152608401610a92565b611d896131b5565b565b6101965460009081906001600160a01b0316611da684611559565b91509150915091565b606060668054610af1906142f7565b61142233838361325a565b610198602052600090815260409020805460018201546002830180546001600160a01b03938416949290931692611dff906142f7565b80601f0160208091040260200160405190810160405280929190818152602001828054611e2b906142f7565b8015611e785780601f10611e4d57610100808354040283529160200191611e78565b820191906000526020600020905b815481529060010190602001808311611e5b57829003601f168201915b505050505090806003018054611e8d906142f7565b80601f0160208091040260200160405190810160405280929190818152602001828054611eb9906142f7565b8015611f065780601f10611edb57610100808354040283529160200191611f06565b820191906000526020600020905b815481529060010190602001808311611ee957829003601f168201915b5050505050905084565b611f1a338361277b565b611f8c5760405162461bcd60e51b815260206004820152603160248201527f4552433732313a207472616e736665722063616c6c6572206973206e6f74206f60448201527f776e6572206e6f7220617070726f7665640000000000000000000000000000006064820152608401610a92565b611f9884848484613329565b50505050565b611fa781611559565b6001600160a01b0316336001600160a01b0316146120075760405162461bcd60e51b815260206004820152601860248201527f72656e65775461673a20496e76616c69642073656e64657200000000000000006044820152606401610a92565b600081815261019a602052604080822042905551339183917faa0c0591942aff60e66bde156168c9a47ef843534b433bbaa33e62d1410f4f2c9190a350565b6000818152606760205260409020546060906001600160a01b03166120d35760405162461bcd60e51b815260206004820152602f60248201527f4552433732314d657461646174613a2055524920717565727920666f72206e6f60448201527f6e6578697374656e7420746f6b656e00000000000000000000000000000000006064820152608401610a92565b60006120dd6133a7565b905060008151116120fd5760405180602001604052806000815250612128565b80612107846133b7565b60405160200161211892919061441c565b6040516020818303038152906040525b9392505050565b6000818152606760205260409020546001600160a01b03166121935760405162461bcd60e51b815260206004820152601c60248201527f72656379636c655461673a20496e76616c696420746f6b656e204944000000006044820152606401610a92565b610196546001600160a01b03166121a982611559565b6001600160a01b031614156122265760405162461bcd60e51b815260206004820152602d60248201527f72656379636c655461673a2054616720616c7265616479206f776e656420627960448201527f2074686520706c6174666f726d000000000000000000000000000000000000006064820152608401610a92565b600081815261019a602052604090205461019254429061224790839061318f565b106122ba5760405162461bcd60e51b815260206004820152603060248201527f72656379636c655461673a20546f6b656e206e6f7420656c696769626c65206660448201527f6f722072656379636c696e6720796574000000000000000000000000000000006064820152608401610a92565b6122d96122c683611559565b610196546001600160a01b03168461286e565b604051339083907f0f842a1659c86d6e422461459fb2ab6fa8af886fd1cf9978a73dd299f23ccc7a90600090a35050565b610197546001600160a01b03166324d7806c336040516001600160e01b031960e084901b1681526001600160a01b039091166004820152602401602060405180830381865afa158015612361573d6000803e3d6000fd5b505050506040513d601f19601f8201168201806040525081019061238591906142da565b6123df5760405162461bcd60e51b815260206004820152602560248201527f43616c6c6572206d75737420686176652061646d696e6973747261746f722061604482015264636365737360d81b6064820152608401610a92565b61019280549082905560408051828152602081018490527f7550fd28481dfa2a7590562881c3fffa398e97624ad6eeae494cf36c51e2a9069101610ad6565b610197546001600160a01b03166324d7806c336040516001600160e01b031960e084901b1681526001600160a01b039091166004820152602401602060405180830381865afa158015612475573d6000803e3d6000fd5b505050506040513d601f19601f8201168201806040525081019061249991906142da565b6124f35760405162461bcd60e51b815260206004820152602560248201527f43616c6c6572206d75737420686176652061646d696e6973747261746f722061604482015264636365737360d81b6064820152608401610a92565b611d896134d1565b60006001600160e01b031982167f80ac58cd00000000000000000000000000000000000000000000000000000000148061255e57506001600160e01b031982167f5b5e139f00000000000000000000000000000000000000000000000000000000145b8061095357507f01ffc9a7000000000000000000000000000000000000000000000000000000006001600160e01b0319831614610953565b606060008290506000815167ffffffffffffffff8111156125b9576125b9614020565b6040519080825280601f01601f1916602001820160405280156125e3576020820181803683370190505b50905060005b825181101561270557604160f81b8382815181106126095761260961444b565b01602001516001600160f81b0319161080159061264a5750605a60f81b8382815181106126385761263861444b565b01602001516001600160f81b03191611155b156126ac578281815181106126615761266161444b565b602001015160f81c60f81b60f81c602061267b9190614477565b60f81b8282815181106126905761269061444b565b60200101906001600160f81b031916908160001a9053506126f3565b8281815181106126be576126be61444b565b602001015160f81c60f81b8282815181106126db576126db61444b565b60200101906001600160f81b031916908160001a9053505b806126fd8161449c565b9150506125e9565b509392505050565b600081815260696020526040902080546001600160a01b0319166001600160a01b038416908117909155819061274282611559565b6001600160a01b03167f8c5be1e5ebec7d5bd14f71427d1e84f3dd0314c0f7b2291e5b200ac8c7c3b92560405160405180910390a45050565b6000818152606760205260408120546001600160a01b03166127f45760405162461bcd60e51b815260206004820152602c60248201527f4552433732313a206f70657261746f7220717565727920666f72206e6f6e657860448201526b34b9ba32b73a103a37b5b2b760a11b6064820152608401610a92565b60006127ff83611559565b9050806001600160a01b0316846001600160a01b0316148061283a5750836001600160a01b031661282f84610b74565b6001600160a01b0316145b80611ca457506001600160a01b038082166000908152606a602090815260408083209388168352929052205460ff16611ca4565b826001600160a01b031661288182611559565b6001600160a01b0316146128fd5760405162461bcd60e51b815260206004820152602960248201527f4552433732313a207472616e73666572206f6620746f6b656e2074686174206960448201527f73206e6f74206f776e00000000000000000000000000000000000000000000006064820152608401610a92565b6001600160a01b0382166129785760405162461bcd60e51b8152602060048201526024808201527f4552433732313a207472616e7366657220746f20746865207a65726f2061646460448201527f72657373000000000000000000000000000000000000000000000000000000006064820152608401610a92565b612983838383613554565b61298e60008261270d565b6001600160a01b03831660009081526068602052604081208054600192906129b79084906144b7565b90915550506001600160a01b03821660009081526068602052604081208054600192906129e59084906144ce565b909155505060008181526067602052604080822080546001600160a01b0319166001600160a01b0386811691821790925591518493918716917fddf252ad1be2c89b69c2b068fc378daa952ba7f163c4a11628f55a4df523b3ef91a4505050565b610197546001600160a01b03166324d7806c336040516001600160e01b031960e084901b1681526001600160a01b039091166004820152602401602060405180830381865afa158015612a9d573d6000803e3d6000fd5b505050506040513d601f19601f82011682018060405250810190612ac191906142da565b610f3c5760405162461bcd60e51b815260206004820152602560248201527f43616c6c6572206d75737420686176652061646d696e6973747261746f722061604482015264636365737360d81b6064820152608401610a92565b6000612b4e7f360894a13ba1a3210667c828492db98dca3e2076cc3735a920a3ca505d382bbc546001600160a01b031690565b9050612b59846135dc565b600083511180612b665750815b15612b7757612b758484613691565b505b7f4910fdfa16fed3260ed0e7147f7cc6da11a60208b5b9406d12a635614ffd9143805460ff16612cd857805460ff191660011781556040516001600160a01b0383166024820152612c2490869060440160408051601f198184030181529190526020810180517bffffffffffffffffffffffffffffffffffffffffffffffffffffffff167f3659cfe600000000000000000000000000000000000000000000000000000000179052613691565b50805460ff191681557f360894a13ba1a3210667c828492db98dca3e2076cc3735a920a3ca505d382bbc546001600160a01b03838116911614612ccf5760405162461bcd60e51b815260206004820152602f60248201527f45524331393637557067726164653a207570677261646520627265616b73206660448201527f75727468657220757067726164657300000000000000000000000000000000006064820152608401610a92565b612cd885613793565b5050505050565b6000612cea82611559565b9050612cf881600084613554565b612d0360008361270d565b6001600160a01b0381166000908152606860205260408120805460019290612d2c9084906144b7565b909155505060008281526067602052604080822080546001600160a01b0319169055518391906001600160a01b038416907fddf252ad1be2c89b69c2b068fc378daa952ba7f163c4a11628f55a4df523b3ef908390a45050565b600054610100900460ff16612df15760405162461bcd60e51b815260206004820152602b60248201527f496e697469616c697a61626c653a20636f6e7472616374206973206e6f74206960448201526a6e697469616c697a696e6760a81b6064820152608401610a92565b612df96137d3565b612e016137d3565b611422828261383e565b600054610100900460ff16612e765760405162461bcd60e51b815260206004820152602b60248201527f496e697469616c697a61626c653a20636f6e7472616374206973206e6f74206960448201526a6e697469616c697a696e6760a81b6064820152608401610a92565b612e7e6137d3565b612e866137d3565b612e8e6138d0565b611d896137d3565b600054610100900460ff16612f015760405162461bcd60e51b815260206004820152602b60248201527f496e697469616c697a61626c653a20636f6e7472616374206973206e6f74206960448201526a6e697469616c697a696e6760a81b6064820152608401610a92565b612f096137d3565b612e8e6137d3565b60606000612f1e83612596565b905061019981604051612f3191906142be565b908152602001604051809103902054600014612f8f5760405162461bcd60e51b815260206004820152601c60248201527f4552433732313a20746f6b656e20616c7265616479206d696e746564000000006044820152606401610a92565b610194548351849111801590612fa9575061019554815111155b61301b5760405162461bcd60e51b815260206004820152603d60248201527f496e76616c696420666f726d61743a2074616720646f6573206e6f74206d656560448201527f74206d696e2f6d6178206c656e67746820726571756972656d656e74730000006064820152608401610a92565b8060008151811061302e5761302e61444b565b6020910101516001600160f81b0319167f2300000000000000000000000000000000000000000000000000000000000000146130ac5760405162461bcd60e51b815260206004820152601560248201527f546167206d7573742073746172742077697468202300000000000000000000006044820152606401610a92565b60015b81518110156131865760008282815181106130cc576130cc61444b565b01602001516001600160f81b03191690507f20000000000000000000000000000000000000000000000000000000000000008114156131735760405162461bcd60e51b815260206004820152602760248201527f537061636520666f756e643a20746167206d6179206e6f7420636f6e7461696e60448201527f20737061636573000000000000000000000000000000000000000000000000006064820152608401610a92565b508061317e8161449c565b9150506130af565b50909392505050565b600061212882846144ce565b611422828260405180602001604052806000815250613947565b60975460ff16156132085760405162461bcd60e51b815260206004820152601060248201527f5061757361626c653a20706175736564000000000000000000000000000000006044820152606401610a92565b6097805460ff191660011790557f62e78cea01bee320cd4e420270b5ea74000d11b0c9f74754ebdbfc544b05a25861323d3390565b6040516001600160a01b03909116815260200160405180910390a1565b816001600160a01b0316836001600160a01b031614156132bc5760405162461bcd60e51b815260206004820152601960248201527f4552433732313a20617070726f766520746f2063616c6c6572000000000000006044820152606401610a92565b6001600160a01b038381166000818152606a6020908152604080832094871680845294825291829020805460ff191686151590811790915591519182527f17307eab39ab6107e8899845ad3d59bd9653f200f220920489ca2b5937696c31910160405180910390a3505050565b61333484848461286e565b613340848484846139c5565b611f985760405162461bcd60e51b815260206004820152603260248201527f4552433732313a207472616e7366657220746f206e6f6e20455243373231526560448201527131b2b4bb32b91034b6b83632b6b2b73a32b960711b6064820152608401610a92565b60606101918054610af1906142f7565b6060816133f757505060408051808201909152600181527f3000000000000000000000000000000000000000000000000000000000000000602082015290565b8160005b8115613421578061340b8161449c565b915061341a9050600a836144fc565b91506133fb565b60008167ffffffffffffffff81111561343c5761343c614020565b6040519080825280601f01601f191660200182016040528015613466576020820181803683370190505b5090505b8415611ca45761347b6001836144b7565b9150613488600a86614510565b6134939060306144ce565b60f81b8183815181106134a8576134a861444b565b60200101906001600160f81b031916908160001a9053506134ca600a866144fc565b945061346a565b60975460ff166135235760405162461bcd60e51b815260206004820152601460248201527f5061757361626c653a206e6f74207061757365640000000000000000000000006044820152606401610a92565b6097805460ff191690557f5db9ee0a495bf2e6ff9c91a7834c1ba4fdd244a5e8aa4e537bd38aeae4b073aa3361323d565b61355f838383613b0b565b60975460ff16156135c65760405162461bcd60e51b815260206004820152602b60248201527f4552433732315061757361626c653a20746f6b656e207472616e73666572207760448201526a1a1a5b19481c185d5cd95960aa1b6064820152608401610a92565b600090815261019a602052604090204290555050565b803b6136505760405162461bcd60e51b815260206004820152602d60248201527f455243313936373a206e657720696d706c656d656e746174696f6e206973206e60448201527f6f74206120636f6e7472616374000000000000000000000000000000000000006064820152608401610a92565b7f360894a13ba1a3210667c828492db98dca3e2076cc3735a920a3ca505d382bbc80546001600160a01b0319166001600160a01b0392909216919091179055565b6060823b6137075760405162461bcd60e51b815260206004820152602660248201527f416464726573733a2064656c65676174652063616c6c20746f206e6f6e2d636f60448201527f6e747261637400000000000000000000000000000000000000000000000000006064820152608401610a92565b600080846001600160a01b03168460405161372291906142be565b600060405180830381855af49150503d806000811461375d576040519150601f19603f3d011682016040523d82523d6000602084013e613762565b606091505b509150915061378a828260405180606001604052806027815260200161457e60279139613b72565b95945050505050565b61379c816135dc565b6040516001600160a01b038216907fbc7cd75a20ee27fd9adebab32041f755214dbc6bffa90cc0225b39da2e5c2d3b90600090a250565b600054610100900460ff16611d895760405162461bcd60e51b815260206004820152602b60248201527f496e697469616c697a61626c653a20636f6e7472616374206973206e6f74206960448201526a6e697469616c697a696e6760a81b6064820152608401610a92565b600054610100900460ff166138a95760405162461bcd60e51b815260206004820152602b60248201527f496e697469616c697a61626c653a20636f6e7472616374206973206e6f74206960448201526a6e697469616c697a696e6760a81b6064820152608401610a92565b81516138bc906065906020850190613cf9565b508051610d36906066906020840190613cf9565b600054610100900460ff1661393b5760405162461bcd60e51b815260206004820152602b60248201527f496e697469616c697a61626c653a20636f6e7472616374206973206e6f74206960448201526a6e697469616c697a696e6760a81b6064820152608401610a92565b6097805460ff19169055565b6139518383613bab565b61395e60008484846139c5565b610d365760405162461bcd60e51b815260206004820152603260248201527f4552433732313a207472616e7366657220746f206e6f6e20455243373231526560448201527131b2b4bb32b91034b6b83632b6b2b73a32b960711b6064820152608401610a92565b60006001600160a01b0384163b15613b0357604051630a85bd0160e11b81526001600160a01b0385169063150b7a0290613a09903390899088908890600401614524565b6020604051808303816000875af1925050508015613a44575060408051601f3d908101601f19168201909252613a4191810190614560565b60015b613ae9573d808015613a72576040519150601f19603f3d011682016040523d82523d6000602084013e613a77565b606091505b508051613ae15760405162461bcd60e51b815260206004820152603260248201527f4552433732313a207472616e7366657220746f206e6f6e20455243373231526560448201527131b2b4bb32b91034b6b83632b6b2b73a32b960711b6064820152608401610a92565b805181602001fd5b6001600160e01b031916630a85bd0160e11b149050611ca4565b506001611ca4565b60975460ff1615610d365760405162461bcd60e51b815260206004820152602b60248201527f4552433732315061757361626c653a20746f6b656e207472616e73666572207760448201526a1a1a5b19481c185d5cd95960aa1b6064820152608401610a92565b60608315613b81575081612128565b825115613b915782518084602001fd5b8160405162461bcd60e51b8152600401610a929190613f35565b6001600160a01b038216613c015760405162461bcd60e51b815260206004820181905260248201527f4552433732313a206d696e7420746f20746865207a65726f20616464726573736044820152606401610a92565b6000818152606760205260409020546001600160a01b031615613c665760405162461bcd60e51b815260206004820152601c60248201527f4552433732313a20746f6b656e20616c7265616479206d696e746564000000006044820152606401610a92565b613c7260008383613554565b6001600160a01b0382166000908152606860205260408120805460019290613c9b9084906144ce565b909155505060008181526067602052604080822080546001600160a01b0319166001600160a01b03861690811790915590518392907fddf252ad1be2c89b69c2b068fc378daa952ba7f163c4a11628f55a4df523b3ef908290a45050565b828054613d05906142f7565b90600052602060002090601f016020900481019282613d275760008555613d6d565b82601f10613d4057805160ff1916838001178555613d6d565b82800160010185558215613d6d579182015b82811115613d6d578251825591602001919060010190613d52565b50613d79929150613df1565b5090565b828054613d89906142f7565b90600052602060002090601f016020900481019282613dab5760008555613d6d565b82601f10613dc45782800160ff19823516178555613d6d565b82800160010185558215613d6d579182015b82811115613d6d578235825591602001919060010190613dd6565b5b80821115613d795760008155600101613df2565b6001600160e01b031981168114610f3c57600080fd5b600060208284031215613e2e57600080fd5b813561212881613e06565b60008083601f840112613e4b57600080fd5b50813567ffffffffffffffff811115613e6357600080fd5b602083019150836020828501011115613e7b57600080fd5b9250929050565b60008060208385031215613e9557600080fd5b823567ffffffffffffffff811115613eac57600080fd5b613eb885828601613e39565b90969095509350505050565b600060208284031215613ed657600080fd5b5035919050565b60005b83811015613ef8578181015183820152602001613ee0565b83811115611f985750506000910152565b60008151808452613f21816020860160208601613edd565b601f01601f19169290920160200192915050565b6020815260006121286020830184613f09565b6001600160a01b0381168114610f3c57600080fd5b60008060408385031215613f7057600080fd5b8235613f7b81613f48565b946020939093013593505050565b600080600060608486031215613f9e57600080fd5b8335613fa981613f48565b92506020840135613fb981613f48565b929592945050506040919091013590565b600060208284031215613fdc57600080fd5b813561212881613f48565b60008060408385031215613ffa57600080fd5b823561400581613f48565b9150602083013561401581613f48565b809150509250929050565b634e487b7160e01b600052604160045260246000fd5b600067ffffffffffffffff8084111561405157614051614020565b604051601f8501601f19908116603f0116810190828211818310171561407957614079614020565b8160405280935085815286868601111561409257600080fd5b858560208301376000602087830101525050509392505050565b600082601f8301126140bd57600080fd5b61212883833560208501614036565b600080604083850312156140df57600080fd5b82356140ea81613f48565b9150602083013567ffffffffffffffff81111561410657600080fd5b614112858286016140ac565b9150509250929050565b60006020828403121561412e57600080fd5b813567ffffffffffffffff81111561414557600080fd5b8201601f8101841361415657600080fd5b611ca484823560208401614036565b6000806000806060858703121561417b57600080fd5b843567ffffffffffffffff81111561419257600080fd5b61419e87828801613e39565b90955093505060208501356141b281613f48565b915060408501356141c281613f48565b939692955090935050565b8015158114610f3c57600080fd5b600080604083850312156141ee57600080fd5b82356141f981613f48565b91506020830135614015816141cd565b60006001600160a01b038087168352808616602084015250608060408301526142356080830185613f09565b82810360608401526142478185613f09565b979650505050505050565b6000806000806080858703121561426857600080fd5b843561427381613f48565b9350602085013561428381613f48565b925060408501359150606085013567ffffffffffffffff8111156142a657600080fd5b6142b2878288016140ac565b91505092959194509250565b600082516142d0818460208701613edd565b9190910192915050565b6000602082840312156142ec57600080fd5b8151612128816141cd565b600181811c9082168061430b57607f821691505b6020821081141561432c57634e487b7160e01b600052602260045260246000fd5b50919050565b600060208083526000845481600182811c91508083168061435457607f831692505b85831081141561437257634e487b7160e01b85526022600452602485fd5b87860183815260200181801561438f57600181146143a0576143cb565b60ff198616825287820196506143cb565b60008b81526020902060005b868110156143c5578154848201529085019089016143ac565b83019750505b50949998505050505050505050565b604081528260408201528284606083013760006060848301015260006060601f19601f86011683010190506001600160a01b0383166020830152949350505050565b6000835161442e818460208801613edd565b835190830190614442818360208801613edd565b01949350505050565b634e487b7160e01b600052603260045260246000fd5b634e487b7160e01b600052601160045260246000fd5b600060ff821660ff84168060ff0382111561449457614494614461565b019392505050565b60006000198214156144b0576144b0614461565b5060010190565b6000828210156144c9576144c9614461565b500390565b600082198211156144e1576144e1614461565b500190565b634e487b7160e01b600052601260045260246000fd5b60008261450b5761450b6144e6565b500490565b60008261451f5761451f6144e6565b500690565b60006001600160a01b038087168352808616602084015250836040830152608060608301526145566080830184613f09565b9695505050505050565b60006020828403121561457257600080fd5b815161212881613e0656fe416464726573733a206c6f772d6c6576656c2064656c65676174652063616c6c206661696c6564a2646970667358221220e580945791f957a73ad25af8bf0ff86ac91533580810f425d5aa20090ca54e4064736f6c634300080c0033",
  "linkReferences": {},
  "deployedLinkReferences": {}
}