{
  "_format": "hh-sol-artifact-1",
  "contractName": "ETSTag",
  "sourceName": "contracts/core/ETSTag.sol",
  "abi": [
    {
      "anonymous": false,
      "inputs": [
        {
          "indexed": false,
          "internalType": "contract ETSAccessControls",
          "name": "previousAccessControls",
          "type": "address"
        },
        {
          "indexed": false,
          "internalType": "contract ETSAccessControls",
          "name": "newAccessControls",
          "type": "address"
        }
      ],
      "name": "AccessControlsUpdated",
      "type": "event"
    },
    {
      "anonymous": false,
      "inputs": [
        {
          "indexed": false,
          "internalType": "address",
          "name": "previousAdmin",
          "type": "address"
        },
        {
          "indexed": false,
          "internalType": "address",
          "name": "newAdmin",
          "type": "address"
        }
      ],
      "name": "AdminChanged",
      "type": "event"
    },
    {
      "anonymous": false,
      "inputs": [
        {
          "indexed": true,
          "internalType": "address",
          "name": "owner",
          "type": "address"
        },
        {
          "indexed": true,
          "internalType": "address",
          "name": "approved",
          "type": "address"
        },
        {
          "indexed": true,
          "internalType": "uint256",
          "name": "tokenId",
          "type": "uint256"
        }
      ],
      "name": "Approval",
      "type": "event"
    },
    {
      "anonymous": false,
      "inputs": [
        {
          "indexed": true,
          "internalType": "address",
          "name": "owner",
          "type": "address"
        },
        {
          "indexed": true,
          "internalType": "address",
          "name": "operator",
          "type": "address"
        },
        {
          "indexed": false,
          "internalType": "bool",
          "name": "approved",
          "type": "bool"
        }
      ],
      "name": "ApprovalForAll",
      "type": "event"
    },
    {
      "anonymous": false,
      "inputs": [
        {
          "indexed": true,
          "internalType": "address",
          "name": "beacon",
          "type": "address"
        }
      ],
      "name": "BeaconUpgraded",
      "type": "event"
    },
    {
      "anonymous": false,
      "inputs": [
        {
          "indexed": true,
          "internalType": "uint256",
          "name": "tokenId",
          "type": "uint256"
        },
        {
          "indexed": false,
          "internalType": "string",
          "name": "displayVersion",
          "type": "string"
        },
        {
          "indexed": true,
          "internalType": "address",
          "name": "publisher",
          "type": "address"
        },
        {
          "indexed": false,
          "internalType": "address",
          "name": "creator",
          "type": "address"
        }
      ],
      "name": "MintTag",
      "type": "event"
    },
    {
      "anonymous": false,
      "inputs": [
        {
          "indexed": false,
          "internalType": "string",
          "name": "baseURI",
          "type": "string"
        }
      ],
      "name": "NewBaseURI",
      "type": "event"
    },
    {
      "anonymous": false,
      "inputs": [
        {
          "indexed": false,
          "internalType": "uint256",
          "name": "originalOwnershipLength",
          "type": "uint256"
        },
        {
          "indexed": false,
          "internalType": "uint256",
          "name": "updatedOwnershipLength",
          "type": "uint256"
        }
      ],
      "name": "OwnershipTermLengthUpdated",
      "type": "event"
    },
    {
      "anonymous": false,
      "inputs": [
        {
          "indexed": false,
          "internalType": "address",
          "name": "account",
          "type": "address"
        }
      ],
      "name": "Paused",
      "type": "event"
    },
    {
      "anonymous": false,
      "inputs": [
        {
          "indexed": false,
          "internalType": "address",
          "name": "previousPlatformAddress",
          "type": "address"
        },
        {
          "indexed": false,
          "internalType": "address",
          "name": "newPlatformAddress",
          "type": "address"
        }
      ],
      "name": "PlatformSet",
      "type": "event"
    },
    {
      "anonymous": false,
      "inputs": [
        {
          "indexed": false,
          "internalType": "uint256",
          "name": "originalRenewalPeriod",
          "type": "uint256"
        },
        {
          "indexed": false,
          "internalType": "uint256",
          "name": "updatedRenewalPeriod",
          "type": "uint256"
        }
      ],
      "name": "RenewalPeriodUpdated",
      "type": "event"
    },
    {
      "anonymous": false,
      "inputs": [
        {
          "indexed": true,
          "internalType": "uint256",
          "name": "tokenId",
          "type": "uint256"
        }
      ],
      "name": "TagBurned",
      "type": "event"
    },
    {
      "anonymous": false,
      "inputs": [
        {
          "indexed": false,
          "internalType": "uint256",
          "name": "previousMaxStringLength",
          "type": "uint256"
        },
        {
          "indexed": false,
          "internalType": "uint256",
          "name": "newMaxStringLength",
          "type": "uint256"
        }
      ],
      "name": "TagMaxStringLengthUpdated",
      "type": "event"
    },
    {
      "anonymous": false,
      "inputs": [
        {
          "indexed": true,
          "internalType": "uint256",
          "name": "tokenId",
          "type": "uint256"
        },
        {
          "indexed": true,
          "internalType": "address",
          "name": "owner",
          "type": "address"
        }
      ],
      "name": "TagRecycled",
      "type": "event"
    },
    {
      "anonymous": false,
      "inputs": [
        {
          "indexed": true,
          "internalType": "uint256",
          "name": "tokenId",
          "type": "uint256"
        },
        {
          "indexed": true,
          "internalType": "address",
          "name": "caller",
          "type": "address"
        }
      ],
      "name": "TagRenewed",
      "type": "event"
    },
    {
      "anonymous": false,
      "inputs": [
        {
          "indexed": true,
          "internalType": "address",
          "name": "from",
          "type": "address"
        },
        {
          "indexed": true,
          "internalType": "address",
          "name": "to",
          "type": "address"
        },
        {
          "indexed": true,
          "internalType": "uint256",
          "name": "tokenId",
          "type": "uint256"
        }
      ],
      "name": "Transfer",
      "type": "event"
    },
    {
      "anonymous": false,
      "inputs": [
        {
          "indexed": false,
          "internalType": "address",
          "name": "account",
          "type": "address"
        }
      ],
      "name": "Unpaused",
      "type": "event"
    },
    {
      "anonymous": false,
      "inputs": [
        {
          "indexed": true,
          "internalType": "address",
          "name": "implementation",
          "type": "address"
        }
      ],
      "name": "Upgraded",
      "type": "event"
    },
    {
      "inputs": [],
      "name": "NAME",
      "outputs": [
        {
          "internalType": "string",
          "name": "",
          "type": "string"
        }
      ],
      "stateMutability": "view",
      "type": "function"
    },
    {
      "inputs": [],
      "name": "VERSION",
      "outputs": [
        {
          "internalType": "string",
          "name": "",
          "type": "string"
        }
      ],
      "stateMutability": "view",
      "type": "function"
    },
    {
      "inputs": [],
      "name": "accessControls",
      "outputs": [
        {
          "internalType": "contract ETSAccessControls",
          "name": "",
          "type": "address"
        }
      ],
      "stateMutability": "view",
      "type": "function"
    },
    {
      "inputs": [
        {
          "internalType": "address",
          "name": "to",
          "type": "address"
        },
        {
          "internalType": "uint256",
          "name": "tokenId",
          "type": "uint256"
        }
      ],
      "name": "approve",
      "outputs": [],
      "stateMutability": "nonpayable",
      "type": "function"
    },
    {
      "inputs": [
        {
          "internalType": "address",
          "name": "owner",
          "type": "address"
        }
      ],
      "name": "balanceOf",
      "outputs": [
        {
          "internalType": "uint256",
          "name": "",
          "type": "uint256"
        }
      ],
      "stateMutability": "view",
      "type": "function"
    },
    {
      "inputs": [],
      "name": "baseURI",
      "outputs": [
        {
          "internalType": "string",
          "name": "",
          "type": "string"
        }
      ],
      "stateMutability": "view",
      "type": "function"
    },
    {
      "inputs": [
        {
          "internalType": "uint256",
          "name": "tokenId",
          "type": "uint256"
        }
      ],
      "name": "burn",
      "outputs": [],
      "stateMutability": "nonpayable",
      "type": "function"
    },
    {
      "inputs": [
        {
          "internalType": "string",
          "name": "_machineName",
          "type": "string"
        }
      ],
      "name": "computeTagId",
      "outputs": [
        {
          "internalType": "uint256",
          "name": "",
          "type": "uint256"
        }
      ],
      "stateMutability": "pure",
      "type": "function"
    },
    {
      "inputs": [
        {
          "internalType": "uint256",
          "name": "tokenId",
          "type": "uint256"
        }
      ],
      "name": "exists",
      "outputs": [
        {
          "internalType": "bool",
          "name": "",
          "type": "bool"
        }
      ],
      "stateMutability": "view",
      "type": "function"
    },
    {
      "inputs": [
        {
          "internalType": "uint256",
          "name": "tokenId",
          "type": "uint256"
        }
      ],
      "name": "getApproved",
      "outputs": [
        {
          "internalType": "address",
          "name": "",
          "type": "address"
        }
      ],
      "stateMutability": "view",
      "type": "function"
    },
    {
      "inputs": [
        {
          "internalType": "uint256",
          "name": "_tokenId",
          "type": "uint256"
        }
      ],
      "name": "getCreatorAddress",
      "outputs": [
        {
          "internalType": "address",
          "name": "_creator",
          "type": "address"
        }
      ],
      "stateMutability": "view",
      "type": "function"
    },
    {
      "inputs": [
        {
          "internalType": "uint256",
          "name": "_tokenId",
          "type": "uint256"
        }
      ],
      "name": "getPaymentAddresses",
      "outputs": [
        {
          "internalType": "address payable",
          "name": "_platform",
          "type": "address"
        },
        {
          "internalType": "address payable",
          "name": "_owner",
          "type": "address"
        }
      ],
      "stateMutability": "view",
      "type": "function"
    },
    {
      "inputs": [
        {
          "internalType": "string",
          "name": "tag",
          "type": "string"
        }
      ],
      "name": "getTagId",
      "outputs": [
        {
          "internalType": "uint256",
          "name": "etstagId",
          "type": "uint256"
        }
      ],
      "stateMutability": "view",
      "type": "function"
    },
    {
      "inputs": [
        {
          "internalType": "contract ETSAccessControls",
          "name": "_accessControls",
          "type": "address"
        },
        {
          "internalType": "address payable",
          "name": "_platform",
          "type": "address"
        }
      ],
      "name": "initialize",
      "outputs": [],
      "stateMutability": "nonpayable",
      "type": "function"
    },
    {
      "inputs": [
        {
          "internalType": "address",
          "name": "owner",
          "type": "address"
        },
        {
          "internalType": "address",
          "name": "operator",
          "type": "address"
        }
      ],
      "name": "isApprovedForAll",
      "outputs": [
        {
          "internalType": "bool",
          "name": "",
          "type": "bool"
        }
      ],
      "stateMutability": "view",
      "type": "function"
    },
    {
      "inputs": [
        {
          "internalType": "string",
          "name": "_tag",
          "type": "string"
        },
        {
          "internalType": "address payable",
          "name": "_publisher",
          "type": "address"
        },
        {
          "internalType": "address",
          "name": "_creator",
          "type": "address"
        }
      ],
      "name": "mint",
      "outputs": [
        {
          "internalType": "uint256",
          "name": "_tokenId",
          "type": "uint256"
        }
      ],
      "stateMutability": "payable",
      "type": "function"
    },
    {
      "inputs": [],
      "name": "name",
      "outputs": [
        {
          "internalType": "string",
          "name": "",
          "type": "string"
        }
      ],
      "stateMutability": "view",
      "type": "function"
    },
    {
      "inputs": [
        {
          "internalType": "uint256",
          "name": "tokenId",
          "type": "uint256"
        }
      ],
      "name": "ownerOf",
      "outputs": [
        {
          "internalType": "address",
          "name": "",
          "type": "address"
        }
      ],
      "stateMutability": "view",
      "type": "function"
    },
    {
      "inputs": [],
      "name": "ownershipTermLength",
      "outputs": [
        {
          "internalType": "uint256",
          "name": "",
          "type": "uint256"
        }
      ],
      "stateMutability": "view",
      "type": "function"
    },
    {
      "inputs": [],
      "name": "pause",
      "outputs": [],
      "stateMutability": "nonpayable",
      "type": "function"
    },
    {
      "inputs": [],
      "name": "paused",
      "outputs": [
        {
          "internalType": "bool",
          "name": "",
          "type": "bool"
        }
      ],
      "stateMutability": "view",
      "type": "function"
    },
    {
      "inputs": [],
      "name": "platform",
      "outputs": [
        {
          "internalType": "address payable",
          "name": "",
          "type": "address"
        }
      ],
      "stateMutability": "view",
      "type": "function"
    },
    {
      "inputs": [
        {
          "internalType": "uint256",
          "name": "_tokenId",
          "type": "uint256"
        }
      ],
      "name": "recycleTag",
      "outputs": [],
      "stateMutability": "nonpayable",
      "type": "function"
    },
    {
      "inputs": [
        {
          "internalType": "uint256",
          "name": "_tokenId",
          "type": "uint256"
        }
      ],
      "name": "renewTag",
      "outputs": [],
      "stateMutability": "nonpayable",
      "type": "function"
    },
    {
      "inputs": [
        {
          "internalType": "address",
          "name": "from",
          "type": "address"
        },
        {
          "internalType": "address",
          "name": "to",
          "type": "address"
        },
        {
          "internalType": "uint256",
          "name": "tokenId",
          "type": "uint256"
        }
      ],
      "name": "safeTransferFrom",
      "outputs": [],
      "stateMutability": "nonpayable",
      "type": "function"
    },
    {
      "inputs": [
        {
          "internalType": "address",
          "name": "from",
          "type": "address"
        },
        {
          "internalType": "address",
          "name": "to",
          "type": "address"
        },
        {
          "internalType": "uint256",
          "name": "tokenId",
          "type": "uint256"
        },
        {
          "internalType": "bytes",
          "name": "_data",
          "type": "bytes"
        }
      ],
      "name": "safeTransferFrom",
      "outputs": [],
      "stateMutability": "nonpayable",
      "type": "function"
    },
    {
      "inputs": [
        {
          "internalType": "address",
          "name": "operator",
          "type": "address"
        },
        {
          "internalType": "bool",
          "name": "approved",
          "type": "bool"
        }
      ],
      "name": "setApprovalForAll",
      "outputs": [],
      "stateMutability": "nonpayable",
      "type": "function"
    },
    {
      "inputs": [
        {
          "internalType": "string",
          "name": "newBaseURI",
          "type": "string"
        }
      ],
      "name": "setBaseURI",
      "outputs": [],
      "stateMutability": "nonpayable",
      "type": "function"
    },
    {
      "inputs": [
        {
          "internalType": "uint256",
          "name": "_ownershipTermLength",
          "type": "uint256"
        }
      ],
      "name": "setOwnershipTermLength",
      "outputs": [],
      "stateMutability": "nonpayable",
      "type": "function"
    },
    {
      "inputs": [
        {
          "internalType": "address payable",
          "name": "_platform",
          "type": "address"
        }
      ],
      "name": "setPlatform",
      "outputs": [],
      "stateMutability": "nonpayable",
      "type": "function"
    },
    {
      "inputs": [
        {
          "internalType": "uint256",
          "name": "_tagMaxStringLength",
          "type": "uint256"
        }
      ],
      "name": "setTagMaxStringLength",
      "outputs": [],
      "stateMutability": "nonpayable",
      "type": "function"
    },
    {
      "inputs": [
        {
          "internalType": "bytes4",
          "name": "interfaceId",
          "type": "bytes4"
        }
      ],
      "name": "supportsInterface",
      "outputs": [
        {
          "internalType": "bool",
          "name": "",
          "type": "bool"
        }
      ],
      "stateMutability": "view",
      "type": "function"
    },
    {
      "inputs": [],
      "name": "symbol",
      "outputs": [
        {
          "internalType": "string",
          "name": "",
          "type": "string"
        }
      ],
      "stateMutability": "view",
      "type": "function"
    },
    {
      "inputs": [],
      "name": "tagMaxStringLength",
      "outputs": [
        {
          "internalType": "uint256",
          "name": "",
          "type": "uint256"
        }
      ],
      "stateMutability": "view",
      "type": "function"
    },
    {
      "inputs": [],
      "name": "tagMinStringLength",
      "outputs": [
        {
          "internalType": "uint256",
          "name": "",
          "type": "uint256"
        }
      ],
      "stateMutability": "view",
      "type": "function"
    },
    {
      "inputs": [
        {
          "internalType": "string",
          "name": "",
          "type": "string"
        }
      ],
      "name": "tagToTokenId",
      "outputs": [
        {
          "internalType": "uint256",
          "name": "",
          "type": "uint256"
        }
      ],
      "stateMutability": "view",
      "type": "function"
    },
    {
      "inputs": [
        {
          "internalType": "uint256",
          "name": "",
          "type": "uint256"
        }
      ],
      "name": "tokenIdToLastTransferTime",
      "outputs": [
        {
          "internalType": "uint256",
          "name": "",
          "type": "uint256"
        }
      ],
      "stateMutability": "view",
      "type": "function"
    },
    {
      "inputs": [
        {
          "internalType": "uint256",
          "name": "",
          "type": "uint256"
        }
      ],
      "name": "tokenIdToTag",
      "outputs": [
        {
          "internalType": "address",
          "name": "originalPublisher",
          "type": "address"
        },
        {
          "internalType": "address",
          "name": "creator",
          "type": "address"
        },
        {
          "internalType": "string",
          "name": "displayVersion",
          "type": "string"
        }
      ],
      "stateMutability": "view",
      "type": "function"
    },
    {
      "inputs": [],
      "name": "tokenPointer",
      "outputs": [
        {
          "internalType": "uint256",
          "name": "",
          "type": "uint256"
        }
      ],
      "stateMutability": "view",
      "type": "function"
    },
    {
      "inputs": [
        {
          "internalType": "uint256",
          "name": "tokenId",
          "type": "uint256"
        }
      ],
      "name": "tokenURI",
      "outputs": [
        {
          "internalType": "string",
          "name": "",
          "type": "string"
        }
      ],
      "stateMutability": "view",
      "type": "function"
    },
    {
      "inputs": [
        {
          "internalType": "address",
          "name": "from",
          "type": "address"
        },
        {
          "internalType": "address",
          "name": "to",
          "type": "address"
        },
        {
          "internalType": "uint256",
          "name": "tokenId",
          "type": "uint256"
        }
      ],
      "name": "transferFrom",
      "outputs": [],
      "stateMutability": "nonpayable",
      "type": "function"
    },
    {
      "inputs": [],
      "name": "unPause",
      "outputs": [],
      "stateMutability": "nonpayable",
      "type": "function"
    },
    {
      "inputs": [
        {
          "internalType": "contract ETSAccessControls",
          "name": "_accessControls",
          "type": "address"
        }
      ],
      "name": "updateAccessControls",
      "outputs": [],
      "stateMutability": "nonpayable",
      "type": "function"
    },
    {
      "inputs": [
        {
          "internalType": "address",
          "name": "newImplementation",
          "type": "address"
        }
      ],
      "name": "upgradeTo",
      "outputs": [],
      "stateMutability": "nonpayable",
      "type": "function"
    },
    {
      "inputs": [
        {
          "internalType": "address",
          "name": "newImplementation",
          "type": "address"
        },
        {
          "internalType": "bytes",
          "name": "data",
          "type": "bytes"
        }
      ],
      "name": "upgradeToAndCall",
      "outputs": [],
      "stateMutability": "payable",
      "type": "function"
    },
    {
      "inputs": [],
      "name": "version",
      "outputs": [
        {
          "internalType": "string",
          "name": "",
          "type": "string"
        }
      ],
      "stateMutability": "pure",
      "type": "function"
    }
  ],
  "bytecode": "0x60a06040523060805234801561001457600080fd5b5060805161450a61004560003960008181610dfe01528181610e83015281816112f40152611379015261450a6000f3fe6080604052600436106102fd5760003560e01c806370a082311161018f578063ad014a5b116100e1578063e8d3e4b61161008a578063f66e762311610064578063f66e762314610912578063f7b188a514610932578063ffa1ad741461094757600080fd5b8063e8d3e4b614610883578063e985e9c5146108a3578063f143fc61146108ec57600080fd5b8063c157daea116100bb578063c157daea1461082c578063c87b56dd1461084c578063db7af5fb1461086c57600080fd5b8063ad014a5b146107c6578063adf63cd2146107f5578063b88d4fde1461080c57600080fd5b8063878327ab11610143578063a22cb4651161011d578063a22cb46514610723578063a30b4db914610743578063a3f4df7e1461077d57600080fd5b8063878327ab146106a057806390b467ea146106e057806395d89b411461070e57600080fd5b80637e3bd74b116101745780637e3bd74b1461063f5780637e6d945e146106785780638456cb591461068b57600080fd5b806370a08231146105fe578063748365ef1461061e57600080fd5b806342966c681161025357806355f804b3116101fc5780636945c5ea116101d65780636945c5ea146105a95780636c0360eb146105c95780636ef3da94146105de57600080fd5b806355f804b3146105515780635c975abb146105715780636352211e1461058957600080fd5b80634f1ef2861161022d5780634f1ef286146104f05780634f558e791461050357806354fd4d501461052357600080fd5b806342966c681461048f578063485cc955146104af5780634bde38c8146104cf57600080fd5b8063081812fc116102b55780632e6116301161028f5780632e611630146104385780633659cfe61461044f57806342842e0e1461046f57600080fd5b8063081812fc146103c0578063095ea7b3146103f857806323b872dd1461041857600080fd5b806304befefd116102e657806304befefd1461035c578063060defec1461037c57806306fdde031461039e57600080fd5b806301ffc9a7146103025780630283165114610337575b600080fd5b34801561030e57600080fd5b5061032261031d366004613d69565b610978565b60405190151581526020015b60405180910390f35b34801561034357600080fd5b5061034e6101935481565b60405190815260200161032e565b34801561036857600080fd5b5061034e610377366004613dcf565b610989565b34801561038857600080fd5b5061039c610397366004613e11565b6109f1565b005b3480156103aa57600080fd5b506103b3610b12565b60405161032e9190613e82565b3480156103cc57600080fd5b506103e06103db366004613e11565b610ba4565b6040516001600160a01b03909116815260200161032e565b34801561040457600080fd5b5061039c610413366004613eaa565b610c39565b34801561042457600080fd5b5061039c610433366004613ed6565b610d6b565b34801561044457600080fd5b5061034e6101955481565b34801561045b57600080fd5b5061039c61046a366004613f17565b610df3565b34801561047b57600080fd5b5061039c61048a366004613ed6565b610f6f565b34801561049b57600080fd5b5061039c6104aa366004613e11565b610f8a565b3480156104bb57600080fd5b5061039c6104ca366004613f34565b611111565b3480156104db57600080fd5b50610196546103e0906001600160a01b031681565b61039c6104fe366004614019565b6112e9565b34801561050f57600080fd5b5061032261051e366004613e11565b611456565b34801561052f57600080fd5b506040805180820190915260058152640302e322e360dc1b60208201526103b3565b34801561055d57600080fd5b5061039c61056c366004613dcf565b611475565b34801561057d57600080fd5b5060975460ff16610322565b34801561059557600080fd5b506103e06105a4366004613e11565b611589565b3480156105b557600080fd5b5061039c6105c4366004613f17565b611614565b3480156105d557600080fd5b506103b3611744565b3480156105ea57600080fd5b5061039c6105f9366004613f17565b6117d3565b34801561060a57600080fd5b5061034e610619366004613f17565b61197f565b34801561062a57600080fd5b50610197546103e0906001600160a01b031681565b34801561064b57600080fd5b5061034e61065a366004614069565b80516020818301810180516101998252928201919093012091525481565b61034e6106863660046140b2565b611a19565b34801561069757600080fd5b5061039c611c83565b3480156106ac57600080fd5b506106c06106bb366004613e11565b611d62565b604080516001600160a01b0393841681529290911660208301520161032e565b3480156106ec57600080fd5b5061034e6106fb366004613e11565b61019a6020526000908152604090205481565b34801561071a57600080fd5b506103b3611d86565b34801561072f57600080fd5b5061039c61073e366004614128565b611d95565b34801561074f57600080fd5b506103e061075e366004613e11565b600090815261019860205260409020600101546001600160a01b031690565b34801561078957600080fd5b506103b36040518060400160405280600c81526020017f45545354414720546f6b656e000000000000000000000000000000000000000081525081565b3480156107d257600080fd5b506107e66107e1366004613e11565b611da0565b60405161032e93929190614156565b34801561080157600080fd5b5061034e6101945481565b34801561081857600080fd5b5061039c610827366004614182565b611e59565b34801561083857600080fd5b5061039c610847366004613e11565b611ee7565b34801561085857600080fd5b506103b3610867366004613e11565b611f8f565b34801561087857600080fd5b5061034e6101925481565b34801561088f57600080fd5b5061039c61089e366004613e11565b612078565b3480156108af57600080fd5b506103226108be366004613f34565b6001600160a01b039182166000908152606a6020908152604080832093909416825291909152205460ff1690565b3480156108f857600080fd5b5061034e610907366004614069565b805160209091012090565b34801561091e57600080fd5b5061039c61092d366004613e11565b612253565b34801561093e57600080fd5b5061039c612367565b34801561095357600080fd5b506103b3604051806040016040528060058152602001640302e322e360dc1b81525081565b600061098382612444565b92915050565b60006101996109cd84848080601f0160208091040260200160405190810160405280939291908181526020018383808284376000920191909152506124df92505050565b6040516109da91906141ee565b908152602001604051809103902054905092915050565b610197546001600160a01b03166324d7806c336040516001600160e01b031960e084901b1681526001600160a01b039091166004820152602401602060405180830381865afa158015610a48573d6000803e3d6000fd5b505050506040513d601f19601f82011682018060405250810190610a6c919061420a565b610acb5760405162461bcd60e51b815260206004820152602560248201527f43616c6c6572206d75737420686176652061646d696e6973747261746f722061604482015264636365737360d81b60648201526084015b60405180910390fd5b61019580549082905560408051828152602081018490527f3bcd7d0ed4502e81afe37fd199a6a8e34e8d351fdafd54d97726970c18fdcd2b91015b60405180910390a15050565b606060658054610b2190614227565b80601f0160208091040260200160405190810160405280929190818152602001828054610b4d90614227565b8015610b9a5780601f10610b6f57610100808354040283529160200191610b9a565b820191906000526020600020905b815481529060010190602001808311610b7d57829003601f168201915b5050505050905090565b6000818152606760205260408120546001600160a01b0316610c1d5760405162461bcd60e51b815260206004820152602c60248201527f4552433732313a20617070726f76656420717565727920666f72206e6f6e657860448201526b34b9ba32b73a103a37b5b2b760a11b6064820152608401610ac2565b506000908152606960205260409020546001600160a01b031690565b6000610c4482611589565b9050806001600160a01b0316836001600160a01b03161415610cce5760405162461bcd60e51b815260206004820152602160248201527f4552433732313a20617070726f76616c20746f2063757272656e74206f776e6560448201527f72000000000000000000000000000000000000000000000000000000000000006064820152608401610ac2565b336001600160a01b0382161480610cea5750610cea81336108be565b610d5c5760405162461bcd60e51b815260206004820152603860248201527f4552433732313a20617070726f76652063616c6c6572206973206e6f74206f7760448201527f6e6572206e6f7220617070726f76656420666f7220616c6c00000000000000006064820152608401610ac2565b610d668383612656565b505050565b610d76335b826126c4565b610de85760405162461bcd60e51b815260206004820152603160248201527f4552433732313a207472616e736665722063616c6c6572206973206e6f74206f60448201527f776e6572206e6f7220617070726f7665640000000000000000000000000000006064820152608401610ac2565b610d668383836127b7565b306001600160a01b037f0000000000000000000000000000000000000000000000000000000000000000161415610e815760405162461bcd60e51b815260206004820152602c60248201527f46756e6374696f6e206d7573742062652063616c6c6564207468726f7567682060448201526b19195b1959d85d1958d85b1b60a21b6064820152608401610ac2565b7f00000000000000000000000000000000000000000000000000000000000000006001600160a01b0316610edc7f360894a13ba1a3210667c828492db98dca3e2076cc3735a920a3ca505d382bbc546001600160a01b031690565b6001600160a01b031614610f475760405162461bcd60e51b815260206004820152602c60248201527f46756e6374696f6e206d7573742062652063616c6c6564207468726f7567682060448201526b6163746976652070726f787960a01b6064820152608401610ac2565b610f508161298f565b60408051600080825260208201909252610f6c91839190612a64565b50565b610d6683838360405180602001604052806000815250611e59565b610197546001600160a01b03166324d7806c336040516001600160e01b031960e084901b1681526001600160a01b039091166004820152602401602060405180830381865afa158015610fe1573d6000803e3d6000fd5b505050506040513d601f19601f82011682018060405250810190611005919061420a565b61105f5760405162461bcd60e51b815260206004820152602560248201527f43616c6c6572206d75737420686176652061646d696e6973747261746f722061604482015264636365737360d81b6064820152608401610ac2565b61106833610d70565b6110da5760405162461bcd60e51b815260206004820152603060248201527f4552433732314275726e61626c653a2063616c6c6572206973206e6f74206f7760448201527f6e6572206e6f7220617070726f766564000000000000000000000000000000006064820152608401610ac2565b6110e381612c28565b60405181907f7f928e3c53f35086b51ff7b9bfd4651b14e8b9ccb0535aa4a085fb2881785b8290600090a250565b600054610100900460ff1661112c5760005460ff1615611130565b303b155b6111a25760405162461bcd60e51b815260206004820152602e60248201527f496e697469616c697a61626c653a20636f6e747261637420697320616c72656160448201527f647920696e697469616c697a65640000000000000000000000000000000000006064820152608401610ac2565b600054610100900460ff161580156111c4576000805461ffff19166101011790555b6112386040518060400160405280601481526020017f457468657265756d2054616720536572766963650000000000000000000000008152506040518060400160405280600681526020017f4554535441470000000000000000000000000000000000000000000000000000815250612ccf565b611240612d54565b611248612ddf565b61019780546001600160a01b038086166001600160a01b0319928316179092556101968054928516929091169190911790556303c26700610192556040805180820190915260208082527f68747470733a2f2f6170692e686173687461672d70726f746f636f6c2e696f2f9181019182526112c69161019191613c46565b506001610194556020610195558015610d66576000805461ff0019169055505050565b306001600160a01b037f00000000000000000000000000000000000000000000000000000000000000001614156113775760405162461bcd60e51b815260206004820152602c60248201527f46756e6374696f6e206d7573742062652063616c6c6564207468726f7567682060448201526b19195b1959d85d1958d85b1b60a21b6064820152608401610ac2565b7f00000000000000000000000000000000000000000000000000000000000000006001600160a01b03166113d27f360894a13ba1a3210667c828492db98dca3e2076cc3735a920a3ca505d382bbc546001600160a01b031690565b6001600160a01b03161461143d5760405162461bcd60e51b815260206004820152602c60248201527f46756e6374696f6e206d7573742062652063616c6c6564207468726f7567682060448201526b6163746976652070726f787960a01b6064820152608401610ac2565b6114468261298f565b61145282826001612a64565b5050565b6000818152606760205260408120546001600160a01b03161515610983565b610197546001600160a01b03166324d7806c336040516001600160e01b031960e084901b1681526001600160a01b039091166004820152602401602060405180830381865afa1580156114cc573d6000803e3d6000fd5b505050506040513d601f19601f820116820180604052508101906114f0919061420a565b61154a5760405162461bcd60e51b815260206004820152602560248201527f43616c6c6572206d75737420686176652061646d696e6973747261746f722061604482015264636365737360d81b6064820152608401610ac2565b6115576101918383613cca565b507f325d37e8fb549c86966f09bc3e6f62eb3afa93b255d6e3234338001f3d80bd86610191604051610b069190614262565b6000818152606760205260408120546001600160a01b0316806109835760405162461bcd60e51b815260206004820152602960248201527f4552433732313a206f776e657220717565727920666f72206e6f6e657869737460448201527f656e7420746f6b656e00000000000000000000000000000000000000000000006064820152608401610ac2565b610197546001600160a01b03166324d7806c336040516001600160e01b031960e084901b1681526001600160a01b039091166004820152602401602060405180830381865afa15801561166b573d6000803e3d6000fd5b505050506040513d601f19601f8201168201806040525081019061168f919061420a565b6116e95760405162461bcd60e51b815260206004820152602560248201527f43616c6c6572206d75737420686176652061646d696e6973747261746f722061604482015264636365737360d81b6064820152608401610ac2565b61019680546001600160a01b038381166001600160a01b031983168117909355604080519190921680825260208201939093527f0e8ce4b57fd24de168e9c8d76109cb59a7852e78b3575da1ba2077dd53d330ec9101610b06565b610191805461175290614227565b80601f016020809104026020016040519081016040528092919081815260200182805461177e90614227565b80156117cb5780601f106117a0576101008083540402835291602001916117cb565b820191906000526020600020905b8154815290600101906020018083116117ae57829003601f168201915b505050505081565b610197546001600160a01b03166324d7806c336040516001600160e01b031960e084901b1681526001600160a01b039091166004820152602401602060405180830381865afa15801561182a573d6000803e3d6000fd5b505050506040513d601f19601f8201168201806040525081019061184e919061420a565b6118a85760405162461bcd60e51b815260206004820152602560248201527f43616c6c6572206d75737420686176652061646d696e6973747261746f722061604482015264636365737360d81b6064820152608401610ac2565b6001600160a01b0381166119245760405162461bcd60e51b815260206004820152602b60248201527f4554535461672e757064617465416363657373436f6e74726f6c733a2043616e60448201527f6e6f74206265207a65726f0000000000000000000000000000000000000000006064820152608401610ac2565b61019780546001600160a01b038381166001600160a01b031983168117909355604080519190921680825260208201939093527f31073599bfae2533a348dc816b0ce777b707aa9b67015ca2d86585e842b5c6e99101610b06565b60006001600160a01b0382166119fd5760405162461bcd60e51b815260206004820152602a60248201527f4552433732313a2062616c616e636520717565727920666f7220746865207a6560448201527f726f2061646472657373000000000000000000000000000000000000000000006064820152608401610ac2565b506001600160a01b031660009081526068602052604090205490565b610197546040517f41859ac80000000000000000000000000000000000000000000000000000000081526001600160a01b03848116600483015260009216906341859ac890602401602060405180830381865afa158015611a7e573d6000803e3d6000fd5b505050506040513d601f19601f82011682018060405250810190611aa2919061420a565b611b145760405162461bcd60e51b815260206004820152602760248201527f4d696e743a20546865207075626c6973686572206d757374206265207768697460448201527f656c6973746564000000000000000000000000000000000000000000000000006064820152608401610ac2565b6000611b5586868080601f016020809104026020016040519081016040528093929190818152602001838380828437600092019190915250612e5a92505050565b61019654909150611b6f906001600160a01b0316826130dc565b6040518060600160405280856001600160a01b03168152602001846001600160a01b0316815260200187878080601f01602080910402602001604051908101604052809392919081815260200183838082843760009201829052509390945250508381526101986020908152604091829020845181546001600160a01b039182166001600160a01b031991821617835586840151600184018054919093169116179055918401518051929350611c2e9260028501929190910190613c46565b50905050836001600160a01b0316817f85d182e335717d2d833be448c2f6a5864b8514dfeb8cda8f0fbac14f5157f0be888887604051611c709392919061430a565b60405180910390a390505b949350505050565b610197546001600160a01b03166324d7806c336040516001600160e01b031960e084901b1681526001600160a01b039091166004820152602401602060405180830381865afa158015611cda573d6000803e3d6000fd5b505050506040513d601f19601f82011682018060405250810190611cfe919061420a565b611d585760405162461bcd60e51b815260206004820152602560248201527f43616c6c6572206d75737420686176652061646d696e6973747261746f722061604482015264636365737360d81b6064820152608401610ac2565b611d606130f6565b565b6101965460009081906001600160a01b0316611d7d84611589565b91509150915091565b606060668054610b2190614227565b61145233838361319b565b610198602052600090815260409020805460018201546002830180546001600160a01b03938416949290931692611dd690614227565b80601f0160208091040260200160405190810160405280929190818152602001828054611e0290614227565b8015611e4f5780601f10611e2457610100808354040283529160200191611e4f565b820191906000526020600020905b815481529060010190602001808311611e3257829003601f168201915b5050505050905083565b611e6333836126c4565b611ed55760405162461bcd60e51b815260206004820152603160248201527f4552433732313a207472616e736665722063616c6c6572206973206e6f74206f60448201527f776e6572206e6f7220617070726f7665640000000000000000000000000000006064820152608401610ac2565b611ee18484848461326a565b50505050565b611ef081611589565b6001600160a01b0316336001600160a01b031614611f505760405162461bcd60e51b815260206004820152601860248201527f72656e65775461673a20496e76616c69642073656e64657200000000000000006044820152606401610ac2565b600081815261019a602052604080822042905551339183917faa0c0591942aff60e66bde156168c9a47ef843534b433bbaa33e62d1410f4f2c9190a350565b6000818152606760205260409020546060906001600160a01b031661201c5760405162461bcd60e51b815260206004820152602f60248201527f4552433732314d657461646174613a2055524920717565727920666f72206e6f60448201527f6e6578697374656e7420746f6b656e00000000000000000000000000000000006064820152608401610ac2565b60006120266132e8565b905060008151116120465760405180602001604052806000815250612071565b80612050846132f8565b60405160200161206192919061434c565b6040516020818303038152906040525b9392505050565b6000818152606760205260409020546001600160a01b03166120dc5760405162461bcd60e51b815260206004820152601c60248201527f72656379636c655461673a20496e76616c696420746f6b656e204944000000006044820152606401610ac2565b610196546001600160a01b03166120f282611589565b6001600160a01b0316141561216f5760405162461bcd60e51b815260206004820152602d60248201527f72656379636c655461673a2054616720616c7265616479206f776e656420627960448201527f2074686520706c6174666f726d000000000000000000000000000000000000006064820152608401610ac2565b600081815261019a6020526040902054610192544290612190908390613412565b106122035760405162461bcd60e51b815260206004820152603060248201527f72656379636c655461673a20546f6b656e206e6f7420656c696769626c65206660448201527f6f722072656379636c696e6720796574000000000000000000000000000000006064820152608401610ac2565b61222261220f83611589565b610196546001600160a01b0316846127b7565b604051339083907f0f842a1659c86d6e422461459fb2ab6fa8af886fd1cf9978a73dd299f23ccc7a90600090a35050565b610197546001600160a01b03166324d7806c336040516001600160e01b031960e084901b1681526001600160a01b039091166004820152602401602060405180830381865afa1580156122aa573d6000803e3d6000fd5b505050506040513d601f19601f820116820180604052508101906122ce919061420a565b6123285760405162461bcd60e51b815260206004820152602560248201527f43616c6c6572206d75737420686176652061646d696e6973747261746f722061604482015264636365737360d81b6064820152608401610ac2565b61019280549082905560408051828152602081018490527f7550fd28481dfa2a7590562881c3fffa398e97624ad6eeae494cf36c51e2a9069101610b06565b610197546001600160a01b03166324d7806c336040516001600160e01b031960e084901b1681526001600160a01b039091166004820152602401602060405180830381865afa1580156123be573d6000803e3d6000fd5b505050506040513d601f19601f820116820180604052508101906123e2919061420a565b61243c5760405162461bcd60e51b815260206004820152602560248201527f43616c6c6572206d75737420686176652061646d696e6973747261746f722061604482015264636365737360d81b6064820152608401610ac2565b611d6061341e565b60006001600160e01b031982167f80ac58cd0000000000000000000000000000000000000000000000000000000014806124a757506001600160e01b031982167f5b5e139f00000000000000000000000000000000000000000000000000000000145b8061098357507f01ffc9a7000000000000000000000000000000000000000000000000000000006001600160e01b0319831614610983565b606060008290506000815167ffffffffffffffff81111561250257612502613f6d565b6040519080825280601f01601f19166020018201604052801561252c576020820181803683370190505b50905060005b825181101561264e57604160f81b8382815181106125525761255261437b565b01602001516001600160f81b031916108015906125935750605a60f81b8382815181106125815761258161437b565b01602001516001600160f81b03191611155b156125f5578281815181106125aa576125aa61437b565b602001015160f81c60f81b60f81c60206125c491906143a7565b60f81b8282815181106125d9576125d961437b565b60200101906001600160f81b031916908160001a90535061263c565b8281815181106126075761260761437b565b602001015160f81c60f81b8282815181106126245761262461437b565b60200101906001600160f81b031916908160001a9053505b80612646816143cc565b915050612532565b509392505050565b600081815260696020526040902080546001600160a01b0319166001600160a01b038416908117909155819061268b82611589565b6001600160a01b03167f8c5be1e5ebec7d5bd14f71427d1e84f3dd0314c0f7b2291e5b200ac8c7c3b92560405160405180910390a45050565b6000818152606760205260408120546001600160a01b031661273d5760405162461bcd60e51b815260206004820152602c60248201527f4552433732313a206f70657261746f7220717565727920666f72206e6f6e657860448201526b34b9ba32b73a103a37b5b2b760a11b6064820152608401610ac2565b600061274883611589565b9050806001600160a01b0316846001600160a01b031614806127835750836001600160a01b031661277884610ba4565b6001600160a01b0316145b80611c7b57506001600160a01b038082166000908152606a602090815260408083209388168352929052205460ff16611c7b565b826001600160a01b03166127ca82611589565b6001600160a01b0316146128465760405162461bcd60e51b815260206004820152602960248201527f4552433732313a207472616e73666572206f6620746f6b656e2074686174206960448201527f73206e6f74206f776e00000000000000000000000000000000000000000000006064820152608401610ac2565b6001600160a01b0382166128c15760405162461bcd60e51b8152602060048201526024808201527f4552433732313a207472616e7366657220746f20746865207a65726f2061646460448201527f72657373000000000000000000000000000000000000000000000000000000006064820152608401610ac2565b6128cc8383836134a1565b6128d7600082612656565b6001600160a01b03831660009081526068602052604081208054600192906129009084906143e7565b90915550506001600160a01b038216600090815260686020526040812080546001929061292e9084906143fe565b909155505060008181526067602052604080822080546001600160a01b0319166001600160a01b0386811691821790925591518493918716917fddf252ad1be2c89b69c2b068fc378daa952ba7f163c4a11628f55a4df523b3ef91a4505050565b610197546001600160a01b03166324d7806c336040516001600160e01b031960e084901b1681526001600160a01b039091166004820152602401602060405180830381865afa1580156129e6573d6000803e3d6000fd5b505050506040513d601f19601f82011682018060405250810190612a0a919061420a565b610f6c5760405162461bcd60e51b815260206004820152602560248201527f43616c6c6572206d75737420686176652061646d696e6973747261746f722061604482015264636365737360d81b6064820152608401610ac2565b6000612a977f360894a13ba1a3210667c828492db98dca3e2076cc3735a920a3ca505d382bbc546001600160a01b031690565b9050612aa284613529565b600083511180612aaf5750815b15612ac057612abe84846135de565b505b7f4910fdfa16fed3260ed0e7147f7cc6da11a60208b5b9406d12a635614ffd9143805460ff16612c2157805460ff191660011781556040516001600160a01b0383166024820152612b6d90869060440160408051601f198184030181529190526020810180517bffffffffffffffffffffffffffffffffffffffffffffffffffffffff167f3659cfe6000000000000000000000000000000000000000000000000000000001790526135de565b50805460ff191681557f360894a13ba1a3210667c828492db98dca3e2076cc3735a920a3ca505d382bbc546001600160a01b03838116911614612c185760405162461bcd60e51b815260206004820152602f60248201527f45524331393637557067726164653a207570677261646520627265616b73206660448201527f75727468657220757067726164657300000000000000000000000000000000006064820152608401610ac2565b612c21856136e0565b5050505050565b6000612c3382611589565b9050612c41816000846134a1565b612c4c600083612656565b6001600160a01b0381166000908152606860205260408120805460019290612c759084906143e7565b909155505060008281526067602052604080822080546001600160a01b0319169055518391906001600160a01b038416907fddf252ad1be2c89b69c2b068fc378daa952ba7f163c4a11628f55a4df523b3ef908390a45050565b600054610100900460ff16612d3a5760405162461bcd60e51b815260206004820152602b60248201527f496e697469616c697a61626c653a20636f6e7472616374206973206e6f74206960448201526a6e697469616c697a696e6760a81b6064820152608401610ac2565b612d42613720565b612d4a613720565b611452828261378b565b600054610100900460ff16612dbf5760405162461bcd60e51b815260206004820152602b60248201527f496e697469616c697a61626c653a20636f6e7472616374206973206e6f74206960448201526a6e697469616c697a696e6760a81b6064820152608401610ac2565b612dc7613720565b612dcf613720565b612dd761381d565b611d60613720565b600054610100900460ff16612e4a5760405162461bcd60e51b815260206004820152602b60248201527f496e697469616c697a61626c653a20636f6e7472616374206973206e6f74206960448201526a6e697469616c697a696e6760a81b6064820152608401610ac2565b612e52613720565b612dd7613720565b600080612e66836124df565b805160208201209091506000906000818152606760205260409020549091506001600160a01b031615612edb5760405162461bcd60e51b815260206004820152601c60248201527f4552433732313a20746f6b656e20616c7265616479206d696e746564000000006044820152606401610ac2565b610194548451859111801590612ef5575061019554815111155b612f675760405162461bcd60e51b815260206004820152603d60248201527f496e76616c696420666f726d61743a2074616720646f6573206e6f74206d656560448201527f74206d696e2f6d6178206c656e67746820726571756972656d656e74730000006064820152608401610ac2565b80600081518110612f7a57612f7a61437b565b6020910101516001600160f81b0319167f230000000000000000000000000000000000000000000000000000000000000014612ff85760405162461bcd60e51b815260206004820152601560248201527f546167206d7573742073746172742077697468202300000000000000000000006044820152606401610ac2565b60015b81518110156130d25760008282815181106130185761301861437b565b01602001516001600160f81b03191690507f20000000000000000000000000000000000000000000000000000000000000008114156130bf5760405162461bcd60e51b815260206004820152602760248201527f537061636520666f756e643a20746167206d6179206e6f7420636f6e7461696e60448201527f20737061636573000000000000000000000000000000000000000000000000006064820152608401610ac2565b50806130ca816143cc565b915050612ffb565b5090949350505050565b611452828260405180602001604052806000815250613894565b60975460ff16156131495760405162461bcd60e51b815260206004820152601060248201527f5061757361626c653a20706175736564000000000000000000000000000000006044820152606401610ac2565b6097805460ff191660011790557f62e78cea01bee320cd4e420270b5ea74000d11b0c9f74754ebdbfc544b05a25861317e3390565b6040516001600160a01b03909116815260200160405180910390a1565b816001600160a01b0316836001600160a01b031614156131fd5760405162461bcd60e51b815260206004820152601960248201527f4552433732313a20617070726f766520746f2063616c6c6572000000000000006044820152606401610ac2565b6001600160a01b038381166000818152606a6020908152604080832094871680845294825291829020805460ff191686151590811790915591519182527f17307eab39ab6107e8899845ad3d59bd9653f200f220920489ca2b5937696c31910160405180910390a3505050565b6132758484846127b7565b61328184848484613912565b611ee15760405162461bcd60e51b815260206004820152603260248201527f4552433732313a207472616e7366657220746f206e6f6e20455243373231526560448201527131b2b4bb32b91034b6b83632b6b2b73a32b960711b6064820152608401610ac2565b60606101918054610b2190614227565b60608161333857505060408051808201909152600181527f3000000000000000000000000000000000000000000000000000000000000000602082015290565b8160005b8115613362578061334c816143cc565b915061335b9050600a8361442c565b915061333c565b60008167ffffffffffffffff81111561337d5761337d613f6d565b6040519080825280601f01601f1916602001820160405280156133a7576020820181803683370190505b5090505b8415611c7b576133bc6001836143e7565b91506133c9600a86614440565b6133d49060306143fe565b60f81b8183815181106133e9576133e961437b565b60200101906001600160f81b031916908160001a90535061340b600a8661442c565b94506133ab565b600061207182846143fe565b60975460ff166134705760405162461bcd60e51b815260206004820152601460248201527f5061757361626c653a206e6f74207061757365640000000000000000000000006044820152606401610ac2565b6097805460ff191690557f5db9ee0a495bf2e6ff9c91a7834c1ba4fdd244a5e8aa4e537bd38aeae4b073aa3361317e565b6134ac838383613a58565b60975460ff16156135135760405162461bcd60e51b815260206004820152602b60248201527f4552433732315061757361626c653a20746f6b656e207472616e73666572207760448201526a1a1a5b19481c185d5cd95960aa1b6064820152608401610ac2565b600090815261019a602052604090204290555050565b803b61359d5760405162461bcd60e51b815260206004820152602d60248201527f455243313936373a206e657720696d706c656d656e746174696f6e206973206e60448201527f6f74206120636f6e7472616374000000000000000000000000000000000000006064820152608401610ac2565b7f360894a13ba1a3210667c828492db98dca3e2076cc3735a920a3ca505d382bbc80546001600160a01b0319166001600160a01b0392909216919091179055565b6060823b6136545760405162461bcd60e51b815260206004820152602660248201527f416464726573733a2064656c65676174652063616c6c20746f206e6f6e2d636f60448201527f6e747261637400000000000000000000000000000000000000000000000000006064820152608401610ac2565b600080846001600160a01b03168460405161366f91906141ee565b600060405180830381855af49150503d80600081146136aa576040519150601f19603f3d011682016040523d82523d6000602084013e6136af565b606091505b50915091506136d782826040518060600160405280602781526020016144ae60279139613abf565b95945050505050565b6136e981613529565b6040516001600160a01b038216907fbc7cd75a20ee27fd9adebab32041f755214dbc6bffa90cc0225b39da2e5c2d3b90600090a250565b600054610100900460ff16611d605760405162461bcd60e51b815260206004820152602b60248201527f496e697469616c697a61626c653a20636f6e7472616374206973206e6f74206960448201526a6e697469616c697a696e6760a81b6064820152608401610ac2565b600054610100900460ff166137f65760405162461bcd60e51b815260206004820152602b60248201527f496e697469616c697a61626c653a20636f6e7472616374206973206e6f74206960448201526a6e697469616c697a696e6760a81b6064820152608401610ac2565b8151613809906065906020850190613c46565b508051610d66906066906020840190613c46565b600054610100900460ff166138885760405162461bcd60e51b815260206004820152602b60248201527f496e697469616c697a61626c653a20636f6e7472616374206973206e6f74206960448201526a6e697469616c697a696e6760a81b6064820152608401610ac2565b6097805460ff19169055565b61389e8383613af8565b6138ab6000848484613912565b610d665760405162461bcd60e51b815260206004820152603260248201527f4552433732313a207472616e7366657220746f206e6f6e20455243373231526560448201527131b2b4bb32b91034b6b83632b6b2b73a32b960711b6064820152608401610ac2565b60006001600160a01b0384163b15613a5057604051630a85bd0160e11b81526001600160a01b0385169063150b7a0290613956903390899088908890600401614454565b6020604051808303816000875af1925050508015613991575060408051601f3d908101601f1916820190925261398e91810190614490565b60015b613a36573d8080156139bf576040519150601f19603f3d011682016040523d82523d6000602084013e6139c4565b606091505b508051613a2e5760405162461bcd60e51b815260206004820152603260248201527f4552433732313a207472616e7366657220746f206e6f6e20455243373231526560448201527131b2b4bb32b91034b6b83632b6b2b73a32b960711b6064820152608401610ac2565b805181602001fd5b6001600160e01b031916630a85bd0160e11b149050611c7b565b506001611c7b565b60975460ff1615610d665760405162461bcd60e51b815260206004820152602b60248201527f4552433732315061757361626c653a20746f6b656e207472616e73666572207760448201526a1a1a5b19481c185d5cd95960aa1b6064820152608401610ac2565b60608315613ace575081612071565b825115613ade5782518084602001fd5b8160405162461bcd60e51b8152600401610ac29190613e82565b6001600160a01b038216613b4e5760405162461bcd60e51b815260206004820181905260248201527f4552433732313a206d696e7420746f20746865207a65726f20616464726573736044820152606401610ac2565b6000818152606760205260409020546001600160a01b031615613bb35760405162461bcd60e51b815260206004820152601c60248201527f4552433732313a20746f6b656e20616c7265616479206d696e746564000000006044820152606401610ac2565b613bbf600083836134a1565b6001600160a01b0382166000908152606860205260408120805460019290613be89084906143fe565b909155505060008181526067602052604080822080546001600160a01b0319166001600160a01b03861690811790915590518392907fddf252ad1be2c89b69c2b068fc378daa952ba7f163c4a11628f55a4df523b3ef908290a45050565b828054613c5290614227565b90600052602060002090601f016020900481019282613c745760008555613cba565b82601f10613c8d57805160ff1916838001178555613cba565b82800160010185558215613cba579182015b82811115613cba578251825591602001919060010190613c9f565b50613cc6929150613d3e565b5090565b828054613cd690614227565b90600052602060002090601f016020900481019282613cf85760008555613cba565b82601f10613d115782800160ff19823516178555613cba565b82800160010185558215613cba579182015b82811115613cba578235825591602001919060010190613d23565b5b80821115613cc65760008155600101613d3f565b6001600160e01b031981168114610f6c57600080fd5b600060208284031215613d7b57600080fd5b813561207181613d53565b60008083601f840112613d9857600080fd5b50813567ffffffffffffffff811115613db057600080fd5b602083019150836020828501011115613dc857600080fd5b9250929050565b60008060208385031215613de257600080fd5b823567ffffffffffffffff811115613df957600080fd5b613e0585828601613d86565b90969095509350505050565b600060208284031215613e2357600080fd5b5035919050565b60005b83811015613e45578181015183820152602001613e2d565b83811115611ee15750506000910152565b60008151808452613e6e816020860160208601613e2a565b601f01601f19169290920160200192915050565b6020815260006120716020830184613e56565b6001600160a01b0381168114610f6c57600080fd5b60008060408385031215613ebd57600080fd5b8235613ec881613e95565b946020939093013593505050565b600080600060608486031215613eeb57600080fd5b8335613ef681613e95565b92506020840135613f0681613e95565b929592945050506040919091013590565b600060208284031215613f2957600080fd5b813561207181613e95565b60008060408385031215613f4757600080fd5b8235613f5281613e95565b91506020830135613f6281613e95565b809150509250929050565b634e487b7160e01b600052604160045260246000fd5b600067ffffffffffffffff80841115613f9e57613f9e613f6d565b604051601f8501601f19908116603f01168101908282118183101715613fc657613fc6613f6d565b81604052809350858152868686011115613fdf57600080fd5b858560208301376000602087830101525050509392505050565b600082601f83011261400a57600080fd5b61207183833560208501613f83565b6000806040838503121561402c57600080fd5b823561403781613e95565b9150602083013567ffffffffffffffff81111561405357600080fd5b61405f85828601613ff9565b9150509250929050565b60006020828403121561407b57600080fd5b813567ffffffffffffffff81111561409257600080fd5b8201601f810184136140a357600080fd5b611c7b84823560208401613f83565b600080600080606085870312156140c857600080fd5b843567ffffffffffffffff8111156140df57600080fd5b6140eb87828801613d86565b90955093505060208501356140ff81613e95565b9150604085013561410f81613e95565b939692955090935050565b8015158114610f6c57600080fd5b6000806040838503121561413b57600080fd5b823561414681613e95565b91506020830135613f628161411a565b60006001600160a01b038086168352808516602084015250606060408301526136d76060830184613e56565b6000806000806080858703121561419857600080fd5b84356141a381613e95565b935060208501356141b381613e95565b925060408501359150606085013567ffffffffffffffff8111156141d657600080fd5b6141e287828801613ff9565b91505092959194509250565b60008251614200818460208701613e2a565b9190910192915050565b60006020828403121561421c57600080fd5b81516120718161411a565b600181811c9082168061423b57607f821691505b6020821081141561425c57634e487b7160e01b600052602260045260246000fd5b50919050565b600060208083526000845481600182811c91508083168061428457607f831692505b8583108114156142a257634e487b7160e01b85526022600452602485fd5b8786018381526020018180156142bf57600181146142d0576142fb565b60ff198616825287820196506142fb565b60008b81526020902060005b868110156142f5578154848201529085019089016142dc565b83019750505b50949998505050505050505050565b604081528260408201528284606083013760006060848301015260006060601f19601f86011683010190506001600160a01b0383166020830152949350505050565b6000835161435e818460208801613e2a565b835190830190614372818360208801613e2a565b01949350505050565b634e487b7160e01b600052603260045260246000fd5b634e487b7160e01b600052601160045260246000fd5b600060ff821660ff84168060ff038211156143c4576143c4614391565b019392505050565b60006000198214156143e0576143e0614391565b5060010190565b6000828210156143f9576143f9614391565b500390565b6000821982111561441157614411614391565b500190565b634e487b7160e01b600052601260045260246000fd5b60008261443b5761443b614416565b500490565b60008261444f5761444f614416565b500690565b60006001600160a01b038087168352808616602084015250836040830152608060608301526144866080830184613e56565b9695505050505050565b6000602082840312156144a257600080fd5b815161207181613d5356fe416464726573733a206c6f772d6c6576656c2064656c65676174652063616c6c206661696c6564a26469706673582212201f290481412f68a2f71fecdbccf30ba127f232871b785ce7a8922a31c06e90c364736f6c634300080c0033",
  "linkReferences": {},
  "deployedLinkReferences": {}
}