{
  "_format": "hh-sol-artifact-1",
  "contractName": "HashtagProtocolUpgrade",
  "sourceName": "contracts/utils/UUPS/UUPSTesting.sol",
  "abi": [
    {
      "anonymous": false,
      "inputs": [
        {
          "indexed": false,
          "internalType": "contract HashtagAccessControls",
          "name": "previousAccessControls",
          "type": "address"
        },
        {
          "indexed": false,
          "internalType": "contract HashtagAccessControls",
          "name": "newAccessControls",
          "type": "address"
        }
      ],
      "name": "AccessControlsUpdated",
      "type": "event"
    },
    {
      "anonymous": false,
      "inputs": [
        {
          "indexed": false,
          "internalType": "address",
          "name": "previousAdmin",
          "type": "address"
        },
        {
          "indexed": false,
          "internalType": "address",
          "name": "newAdmin",
          "type": "address"
        }
      ],
      "name": "AdminChanged",
      "type": "event"
    },
    {
      "anonymous": false,
      "inputs": [
        {
          "indexed": true,
          "internalType": "address",
          "name": "owner",
          "type": "address"
        },
        {
          "indexed": true,
          "internalType": "address",
          "name": "approved",
          "type": "address"
        },
        {
          "indexed": true,
          "internalType": "uint256",
          "name": "tokenId",
          "type": "uint256"
        }
      ],
      "name": "Approval",
      "type": "event"
    },
    {
      "anonymous": false,
      "inputs": [
        {
          "indexed": true,
          "internalType": "address",
          "name": "owner",
          "type": "address"
        },
        {
          "indexed": true,
          "internalType": "address",
          "name": "operator",
          "type": "address"
        },
        {
          "indexed": false,
          "internalType": "bool",
          "name": "approved",
          "type": "bool"
        }
      ],
      "name": "ApprovalForAll",
      "type": "event"
    },
    {
      "anonymous": false,
      "inputs": [
        {
          "indexed": true,
          "internalType": "address",
          "name": "beacon",
          "type": "address"
        }
      ],
      "name": "BeaconUpgraded",
      "type": "event"
    },
    {
      "anonymous": false,
      "inputs": [
        {
          "indexed": false,
          "internalType": "uint256",
          "name": "originalHashtagMaxStringLength",
          "type": "uint256"
        },
        {
          "indexed": false,
          "internalType": "uint256",
          "name": "UpdatedHashtagMaxStringLength",
          "type": "uint256"
        }
      ],
      "name": "HashtagMaxStringLengthUpdated",
      "type": "event"
    },
    {
      "anonymous": false,
      "inputs": [
        {
          "indexed": true,
          "internalType": "uint256",
          "name": "tokenId",
          "type": "uint256"
        },
        {
          "indexed": true,
          "internalType": "address",
          "name": "caller",
          "type": "address"
        }
      ],
      "name": "HashtagRenewed",
      "type": "event"
    },
    {
      "anonymous": false,
      "inputs": [
        {
          "indexed": true,
          "internalType": "uint256",
          "name": "tokenId",
          "type": "uint256"
        },
        {
          "indexed": true,
          "internalType": "address",
          "name": "owner",
          "type": "address"
        }
      ],
      "name": "HashtagReset",
      "type": "event"
    },
    {
      "anonymous": false,
      "inputs": [
        {
          "indexed": true,
          "internalType": "uint256",
          "name": "tokenId",
          "type": "uint256"
        },
        {
          "indexed": false,
          "internalType": "string",
          "name": "displayHashtag",
          "type": "string"
        },
        {
          "indexed": true,
          "internalType": "address",
          "name": "publisher",
          "type": "address"
        },
        {
          "indexed": false,
          "internalType": "address",
          "name": "creator",
          "type": "address"
        }
      ],
      "name": "MintHashtag",
      "type": "event"
    },
    {
      "anonymous": false,
      "inputs": [
        {
          "indexed": false,
          "internalType": "string",
          "name": "baseURI",
          "type": "string"
        }
      ],
      "name": "NewBaseURI",
      "type": "event"
    },
    {
      "anonymous": false,
      "inputs": [
        {
          "indexed": false,
          "internalType": "uint256",
          "name": "originalOwnershipLength",
          "type": "uint256"
        },
        {
          "indexed": false,
          "internalType": "uint256",
          "name": "updatedOwnershipLength",
          "type": "uint256"
        }
      ],
      "name": "OwnershipTermLengthUpdated",
      "type": "event"
    },
    {
      "anonymous": false,
      "inputs": [
        {
          "indexed": false,
          "internalType": "address",
          "name": "account",
          "type": "address"
        }
      ],
      "name": "Paused",
      "type": "event"
    },
    {
      "anonymous": false,
      "inputs": [
        {
          "indexed": false,
          "internalType": "address",
          "name": "previousPlatformAddress",
          "type": "address"
        },
        {
          "indexed": false,
          "internalType": "address",
          "name": "newPlatformAddress",
          "type": "address"
        }
      ],
      "name": "PlatformSet",
      "type": "event"
    },
    {
      "anonymous": false,
      "inputs": [
        {
          "indexed": false,
          "internalType": "uint256",
          "name": "originalRenewalPeriod",
          "type": "uint256"
        },
        {
          "indexed": false,
          "internalType": "uint256",
          "name": "updatedRenewalPeriod",
          "type": "uint256"
        }
      ],
      "name": "RenewalPeriodUpdated",
      "type": "event"
    },
    {
      "anonymous": false,
      "inputs": [
        {
          "indexed": true,
          "internalType": "address",
          "name": "from",
          "type": "address"
        },
        {
          "indexed": true,
          "internalType": "address",
          "name": "to",
          "type": "address"
        },
        {
          "indexed": true,
          "internalType": "uint256",
          "name": "tokenId",
          "type": "uint256"
        }
      ],
      "name": "Transfer",
      "type": "event"
    },
    {
      "anonymous": false,
      "inputs": [
        {
          "indexed": false,
          "internalType": "address",
          "name": "account",
          "type": "address"
        }
      ],
      "name": "Unpaused",
      "type": "event"
    },
    {
      "anonymous": false,
      "inputs": [
        {
          "indexed": true,
          "internalType": "address",
          "name": "implementation",
          "type": "address"
        }
      ],
      "name": "Upgraded",
      "type": "event"
    },
    {
      "inputs": [],
      "name": "NAME",
      "outputs": [
        {
          "internalType": "string",
          "name": "",
          "type": "string"
        }
      ],
      "stateMutability": "view",
      "type": "function"
    },
    {
      "inputs": [],
      "name": "VERSION",
      "outputs": [
        {
          "internalType": "string",
          "name": "",
          "type": "string"
        }
      ],
      "stateMutability": "view",
      "type": "function"
    },
    {
      "inputs": [],
      "name": "accessControls",
      "outputs": [
        {
          "internalType": "contract HashtagAccessControls",
          "name": "",
          "type": "address"
        }
      ],
      "stateMutability": "view",
      "type": "function"
    },
    {
      "inputs": [
        {
          "internalType": "address",
          "name": "to",
          "type": "address"
        },
        {
          "internalType": "uint256",
          "name": "tokenId",
          "type": "uint256"
        }
      ],
      "name": "approve",
      "outputs": [],
      "stateMutability": "nonpayable",
      "type": "function"
    },
    {
      "inputs": [
        {
          "internalType": "address",
          "name": "owner",
          "type": "address"
        }
      ],
      "name": "balanceOf",
      "outputs": [
        {
          "internalType": "uint256",
          "name": "",
          "type": "uint256"
        }
      ],
      "stateMutability": "view",
      "type": "function"
    },
    {
      "inputs": [],
      "name": "baseURI",
      "outputs": [
        {
          "internalType": "string",
          "name": "",
          "type": "string"
        }
      ],
      "stateMutability": "view",
      "type": "function"
    },
    {
      "inputs": [
        {
          "internalType": "uint256",
          "name": "tokenId",
          "type": "uint256"
        }
      ],
      "name": "burn",
      "outputs": [],
      "stateMutability": "nonpayable",
      "type": "function"
    },
    {
      "inputs": [
        {
          "internalType": "uint256",
          "name": "tokenId",
          "type": "uint256"
        }
      ],
      "name": "exists",
      "outputs": [
        {
          "internalType": "bool",
          "name": "",
          "type": "bool"
        }
      ],
      "stateMutability": "view",
      "type": "function"
    },
    {
      "inputs": [
        {
          "internalType": "uint256",
          "name": "tokenId",
          "type": "uint256"
        }
      ],
      "name": "getApproved",
      "outputs": [
        {
          "internalType": "address",
          "name": "",
          "type": "address"
        }
      ],
      "stateMutability": "view",
      "type": "function"
    },
    {
      "inputs": [
        {
          "internalType": "uint256",
          "name": "_tokenId",
          "type": "uint256"
        }
      ],
      "name": "getCreatorAddress",
      "outputs": [
        {
          "internalType": "address",
          "name": "_creator",
          "type": "address"
        }
      ],
      "stateMutability": "view",
      "type": "function"
    },
    {
      "inputs": [
        {
          "internalType": "string",
          "name": "hashtag",
          "type": "string"
        }
      ],
      "name": "getHashtagId",
      "outputs": [
        {
          "internalType": "uint256",
          "name": "hashtagId",
          "type": "uint256"
        }
      ],
      "stateMutability": "view",
      "type": "function"
    },
    {
      "inputs": [
        {
          "internalType": "uint256",
          "name": "_tokenId",
          "type": "uint256"
        }
      ],
      "name": "getPaymentAddresses",
      "outputs": [
        {
          "internalType": "address payable",
          "name": "_platform",
          "type": "address"
        },
        {
          "internalType": "address payable",
          "name": "_owner",
          "type": "address"
        }
      ],
      "stateMutability": "view",
      "type": "function"
    },
    {
      "inputs": [],
      "name": "hashtagMaxStringLength",
      "outputs": [
        {
          "internalType": "uint256",
          "name": "",
          "type": "uint256"
        }
      ],
      "stateMutability": "view",
      "type": "function"
    },
    {
      "inputs": [],
      "name": "hashtagMinStringLength",
      "outputs": [
        {
          "internalType": "uint256",
          "name": "",
          "type": "uint256"
        }
      ],
      "stateMutability": "view",
      "type": "function"
    },
    {
      "inputs": [
        {
          "internalType": "string",
          "name": "",
          "type": "string"
        }
      ],
      "name": "hashtagToTokenId",
      "outputs": [
        {
          "internalType": "uint256",
          "name": "",
          "type": "uint256"
        }
      ],
      "stateMutability": "view",
      "type": "function"
    },
    {
      "inputs": [
        {
          "internalType": "contract HashtagAccessControls",
          "name": "_accessControls",
          "type": "address"
        },
        {
          "internalType": "address payable",
          "name": "_platform",
          "type": "address"
        }
      ],
      "name": "initialize",
      "outputs": [],
      "stateMutability": "nonpayable",
      "type": "function"
    },
    {
      "inputs": [
        {
          "internalType": "address",
          "name": "owner",
          "type": "address"
        },
        {
          "internalType": "address",
          "name": "operator",
          "type": "address"
        }
      ],
      "name": "isApprovedForAll",
      "outputs": [
        {
          "internalType": "bool",
          "name": "",
          "type": "bool"
        }
      ],
      "stateMutability": "view",
      "type": "function"
    },
    {
      "inputs": [
        {
          "internalType": "string",
          "name": "_hashtag",
          "type": "string"
        },
        {
          "internalType": "address payable",
          "name": "_publisher",
          "type": "address"
        },
        {
          "internalType": "address",
          "name": "_creator",
          "type": "address"
        }
      ],
      "name": "mint",
      "outputs": [
        {
          "internalType": "uint256",
          "name": "_tokenId",
          "type": "uint256"
        }
      ],
      "stateMutability": "payable",
      "type": "function"
    },
    {
      "inputs": [],
      "name": "name",
      "outputs": [
        {
          "internalType": "string",
          "name": "",
          "type": "string"
        }
      ],
      "stateMutability": "view",
      "type": "function"
    },
    {
      "inputs": [
        {
          "internalType": "uint256",
          "name": "tokenId",
          "type": "uint256"
        }
      ],
      "name": "ownerOf",
      "outputs": [
        {
          "internalType": "address",
          "name": "",
          "type": "address"
        }
      ],
      "stateMutability": "view",
      "type": "function"
    },
    {
      "inputs": [],
      "name": "ownershipTermLength",
      "outputs": [
        {
          "internalType": "uint256",
          "name": "",
          "type": "uint256"
        }
      ],
      "stateMutability": "view",
      "type": "function"
    },
    {
      "inputs": [],
      "name": "pause",
      "outputs": [],
      "stateMutability": "nonpayable",
      "type": "function"
    },
    {
      "inputs": [],
      "name": "paused",
      "outputs": [
        {
          "internalType": "bool",
          "name": "",
          "type": "bool"
        }
      ],
      "stateMutability": "view",
      "type": "function"
    },
    {
      "inputs": [],
      "name": "platform",
      "outputs": [
        {
          "internalType": "address payable",
          "name": "",
          "type": "address"
        }
      ],
      "stateMutability": "view",
      "type": "function"
    },
    {
      "inputs": [
        {
          "internalType": "uint256",
          "name": "_tokenId",
          "type": "uint256"
        }
      ],
      "name": "recycleHashtag",
      "outputs": [],
      "stateMutability": "nonpayable",
      "type": "function"
    },
    {
      "inputs": [
        {
          "internalType": "uint256",
          "name": "_tokenId",
          "type": "uint256"
        }
      ],
      "name": "renewHashtag",
      "outputs": [],
      "stateMutability": "nonpayable",
      "type": "function"
    },
    {
      "inputs": [
        {
          "internalType": "address",
          "name": "from",
          "type": "address"
        },
        {
          "internalType": "address",
          "name": "to",
          "type": "address"
        },
        {
          "internalType": "uint256",
          "name": "tokenId",
          "type": "uint256"
        }
      ],
      "name": "safeTransferFrom",
      "outputs": [],
      "stateMutability": "nonpayable",
      "type": "function"
    },
    {
      "inputs": [
        {
          "internalType": "address",
          "name": "from",
          "type": "address"
        },
        {
          "internalType": "address",
          "name": "to",
          "type": "address"
        },
        {
          "internalType": "uint256",
          "name": "tokenId",
          "type": "uint256"
        },
        {
          "internalType": "bytes",
          "name": "_data",
          "type": "bytes"
        }
      ],
      "name": "safeTransferFrom",
      "outputs": [],
      "stateMutability": "nonpayable",
      "type": "function"
    },
    {
      "inputs": [
        {
          "internalType": "address",
          "name": "operator",
          "type": "address"
        },
        {
          "internalType": "bool",
          "name": "approved",
          "type": "bool"
        }
      ],
      "name": "setApprovalForAll",
      "outputs": [],
      "stateMutability": "nonpayable",
      "type": "function"
    },
    {
      "inputs": [
        {
          "internalType": "string",
          "name": "newBaseURI",
          "type": "string"
        }
      ],
      "name": "setBaseURI",
      "outputs": [],
      "stateMutability": "nonpayable",
      "type": "function"
    },
    {
      "inputs": [
        {
          "internalType": "uint256",
          "name": "_hashtagMaxStringLength",
          "type": "uint256"
        }
      ],
      "name": "setHashtagMaxStringLength",
      "outputs": [],
      "stateMutability": "nonpayable",
      "type": "function"
    },
    {
      "inputs": [
        {
          "internalType": "uint256",
          "name": "_ownershipTermLength",
          "type": "uint256"
        }
      ],
      "name": "setOwnershipTermLength",
      "outputs": [],
      "stateMutability": "nonpayable",
      "type": "function"
    },
    {
      "inputs": [
        {
          "internalType": "address payable",
          "name": "_platform",
          "type": "address"
        }
      ],
      "name": "setPlatform",
      "outputs": [],
      "stateMutability": "nonpayable",
      "type": "function"
    },
    {
      "inputs": [
        {
          "internalType": "bytes4",
          "name": "interfaceId",
          "type": "bytes4"
        }
      ],
      "name": "supportsInterface",
      "outputs": [
        {
          "internalType": "bool",
          "name": "",
          "type": "bool"
        }
      ],
      "stateMutability": "view",
      "type": "function"
    },
    {
      "inputs": [],
      "name": "symbol",
      "outputs": [
        {
          "internalType": "string",
          "name": "",
          "type": "string"
        }
      ],
      "stateMutability": "view",
      "type": "function"
    },
    {
      "inputs": [
        {
          "internalType": "uint256",
          "name": "",
          "type": "uint256"
        }
      ],
      "name": "tokenIdToHashtag",
      "outputs": [
        {
          "internalType": "address",
          "name": "originalPublisher",
          "type": "address"
        },
        {
          "internalType": "address",
          "name": "creator",
          "type": "address"
        },
        {
          "internalType": "string",
          "name": "displayVersion",
          "type": "string"
        }
      ],
      "stateMutability": "view",
      "type": "function"
    },
    {
      "inputs": [
        {
          "internalType": "uint256",
          "name": "",
          "type": "uint256"
        }
      ],
      "name": "tokenIdToLastTransferTime",
      "outputs": [
        {
          "internalType": "uint256",
          "name": "",
          "type": "uint256"
        }
      ],
      "stateMutability": "view",
      "type": "function"
    },
    {
      "inputs": [],
      "name": "tokenPointer",
      "outputs": [
        {
          "internalType": "uint256",
          "name": "",
          "type": "uint256"
        }
      ],
      "stateMutability": "view",
      "type": "function"
    },
    {
      "inputs": [
        {
          "internalType": "uint256",
          "name": "tokenId",
          "type": "uint256"
        }
      ],
      "name": "tokenURI",
      "outputs": [
        {
          "internalType": "string",
          "name": "",
          "type": "string"
        }
      ],
      "stateMutability": "view",
      "type": "function"
    },
    {
      "inputs": [
        {
          "internalType": "address",
          "name": "from",
          "type": "address"
        },
        {
          "internalType": "address",
          "name": "to",
          "type": "address"
        },
        {
          "internalType": "uint256",
          "name": "tokenId",
          "type": "uint256"
        }
      ],
      "name": "transferFrom",
      "outputs": [],
      "stateMutability": "nonpayable",
      "type": "function"
    },
    {
      "inputs": [],
      "name": "unPause",
      "outputs": [],
      "stateMutability": "nonpayable",
      "type": "function"
    },
    {
      "inputs": [
        {
          "internalType": "contract HashtagAccessControls",
          "name": "_accessControls",
          "type": "address"
        }
      ],
      "name": "updateAccessControls",
      "outputs": [],
      "stateMutability": "nonpayable",
      "type": "function"
    },
    {
      "inputs": [],
      "name": "upgradeTest",
      "outputs": [
        {
          "internalType": "bool",
          "name": "",
          "type": "bool"
        }
      ],
      "stateMutability": "pure",
      "type": "function"
    },
    {
      "inputs": [
        {
          "internalType": "address",
          "name": "newImplementation",
          "type": "address"
        }
      ],
      "name": "upgradeTo",
      "outputs": [],
      "stateMutability": "nonpayable",
      "type": "function"
    },
    {
      "inputs": [
        {
          "internalType": "address",
          "name": "newImplementation",
          "type": "address"
        },
        {
          "internalType": "bytes",
          "name": "data",
          "type": "bytes"
        }
      ],
      "name": "upgradeToAndCall",
      "outputs": [],
      "stateMutability": "payable",
      "type": "function"
    },
    {
      "inputs": [],
      "name": "version",
      "outputs": [
        {
          "internalType": "string",
          "name": "",
          "type": "string"
        }
      ],
      "stateMutability": "pure",
      "type": "function"
    }
  ],
  "bytecode": "0x60a06040523060601b60805234801561001757600080fd5b5060805160601c613f9061004b60003960008181610d1301528181610d53015281816111b001526111f00152613f906000f3fe60806040526004361061027d5760003560e01c80636c0360eb1161014f578063a30b4db9116100c1578063db7af5fb1161007a578063db7af5fb146107e6578063e2e982c8146107fd578063e985e9c51461082c578063f66e762314610875578063f7b188a514610895578063ffa1ad74146108aa5761027d565b8063a30b4db9146106d5578063a3f4df7e1461070f578063b88d4fde1461074d578063c87b56dd1461076d578063d5f053fa1461078d578063d977a653146107ad5761027d565b80637e6d945e116101135780637e6d945e1461060a5780638456cb591461061d578063878327ab1461063257806390b467ea1461067257806395d89b41146106a0578063a22cb465146106b55761027d565b80636c0360eb1461057d5780636ef3da941461059257806370a08231146105b2578063748365ef146105d2578063795cd9d0146105f35761027d565b806342842e0e116101f35780635408dd71116101ac5780635408dd71146104b757806354fd4d50146104d757806355f804b3146105055780635c975abb146105255780636352211e1461053d5780636945c5ea1461055d5761027d565b806342842e0e1461040357806342966c6814610423578063485cc955146104435780634bde38c8146104635780634f1ef286146104845780634f558e79146104975761027d565b806323b872dd1161024557806323b872dd146103585780632c32eb7d1461037857806332da35261461038f5780633659cfe6146103af5780633d20b15c146103cf5780634177a588146103e35761027d565b806301ffc9a71461028257806302831651146102b757806306fdde03146102dc578063081812fc146102fe578063095ea7b314610336575b600080fd5b34801561028e57600080fd5b506102a261029d36600461387b565b6108db565b60405190151581526020015b60405180910390f35b3480156102c357600080fd5b506102ce6101935481565b6040519081526020016102ae565b3480156102e857600080fd5b506102f16108ee565b6040516102ae9190613aea565b34801561030a57600080fd5b5061031e6103193660046139b1565b610980565b6040516001600160a01b0390911681526020016102ae565b34801561034257600080fd5b50610356610351366004613834565b610a0d565b005b34801561036457600080fd5b5061035661037336600461370f565b610b23565b34801561038457600080fd5b506102ce6101945481565b34801561039b57600080fd5b506103566103aa3660046139b1565b610b55565b3480156103bb57600080fd5b506103566103ca3660046136bb565b610d08565b3480156103db57600080fd5b5060016102a2565b3480156103ef57600080fd5b506103566103fe3660046139b1565b610dd1565b34801561040f57600080fd5b5061035661041e36600461370f565b610ebe565b34801561042f57600080fd5b5061035661043e3660046139b1565b610ed9565b34801561044f57600080fd5b5061035661045e3660046138b3565b610ff6565b34801561046f57600080fd5b506101965461031e906001600160a01b031681565b6103566104923660046137e6565b6111a5565b3480156104a357600080fd5b506102a26104b23660046139b1565b61125f565b3480156104c357600080fd5b506102ce6104d23660046138c5565b61126a565b3480156104e357600080fd5b506040805180820190915260058152640302e322e360dc1b60208201526102f1565b34801561051157600080fd5b506103566105203660046138c5565b6112d2565b34801561053157600080fd5b5060975460ff166102a2565b34801561054957600080fd5b5061031e6105583660046139b1565b6113b7565b34801561056957600080fd5b506103566105783660046136bb565b61142e565b34801561058957600080fd5b506102f161152f565b34801561059e57600080fd5b506103566105ad3660046136bb565b6115be565b3480156105be57600080fd5b506102ce6105cd3660046136bb565b611732565b3480156105de57600080fd5b506101975461031e906001600160a01b031681565b3480156105ff57600080fd5b506102ce6101955481565b6102ce610618366004613905565b6117b9565b34801561062957600080fd5b50610356611a3d565b34801561063e57600080fd5b5061065261064d3660046139b1565b611aed565b604080516001600160a01b039384168152929091166020830152016102ae565b34801561067e57600080fd5b506102ce61068d3660046139b1565b61019a6020526000908152604090205481565b3480156106ac57600080fd5b506102f1611b11565b3480156106c157600080fd5b506103566106d03660046137b9565b611b20565b3480156106e157600080fd5b5061031e6106f03660046139b1565b600090815261019860205260409020600101546001600160a01b031690565b34801561071b57600080fd5b506102f160405180604001604052806012815260200171242a281d102420a9a42a20a3902a37b5b2b760711b81525081565b34801561075957600080fd5b5061035661076836600461374f565b611b2b565b34801561077957600080fd5b506102f16107883660046139b1565b611b63565b34801561079957600080fd5b506103566107a83660046139b1565b611c2e565b3480156107b957600080fd5b506102ce6107c836600461396b565b80516020818301810180516101998252928201919093012091525481565b3480156107f257600080fd5b506102ce6101925481565b34801561080957600080fd5b5061081d6108183660046139b1565b611cd6565b6040516102ae93929190613a40565b34801561083857600080fd5b506102a26108473660046136d7565b6001600160a01b039182166000908152606a6020908152604080832093909416825291909152205460ff1690565b34801561088157600080fd5b506103566108903660046139b1565b611d8f565b3480156108a157600080fd5b50610356611e74565b3480156108b657600080fd5b506102f1604051806040016040528060058152602001640302e322e360dc1b81525081565b60006108e682611f22565b90505b919050565b6060606580546108fd90613e4e565b80601f016020809104026020016040519081016040528092919081815260200182805461092990613e4e565b80156109765780601f1061094b57610100808354040283529160200191610976565b820191906000526020600020905b81548152906001019060200180831161095957829003601f168201915b5050505050905090565b600061098b82611f72565b6109f15760405162461bcd60e51b815260206004820152602c60248201527f4552433732313a20617070726f76656420717565727920666f72206e6f6e657860448201526b34b9ba32b73a103a37b5b2b760a11b60648201526084015b60405180910390fd5b506000908152606960205260409020546001600160a01b031690565b6000610a18826113b7565b9050806001600160a01b0316836001600160a01b03161415610a865760405162461bcd60e51b815260206004820152602160248201527f4552433732313a20617070726f76616c20746f2063757272656e74206f776e656044820152603960f91b60648201526084016109e8565b336001600160a01b0382161480610aa25750610aa28133610847565b610b145760405162461bcd60e51b815260206004820152603860248201527f4552433732313a20617070726f76652063616c6c6572206973206e6f74206f7760448201527f6e6572206e6f7220617070726f76656420666f7220616c6c000000000000000060648201526084016109e8565b610b1e8383611f8f565b505050565b610b2e335b82611ffd565b610b4a5760405162461bcd60e51b81526004016109e890613d1e565b610b1e8383836120e3565b610b5e81611f72565b610baa5760405162461bcd60e51b815260206004820181905260248201527f72656379636c65486173687461673a20496e76616c696420746f6b656e20494460448201526064016109e8565b610196546001600160a01b0316610bc0826113b7565b6001600160a01b03161415610c2d5760405162461bcd60e51b815260206004820152602d60248201527f72656379636c65486173687461673a20416c7265616479206f776e656420627960448201526c2074686520706c6174666f726d60981b60648201526084016109e8565b600081815261019a6020526040902054610192544290610c4e90839061228e565b10610cb85760405162461bcd60e51b815260206004820152603460248201527f72656379636c65486173687461673a20546f6b656e206e6f7420656c696769626044820152731b1948199bdc881c9958de58db1a5b99c81e595d60621b60648201526084016109e8565b610cd7610cc4836113b7565b610196546001600160a01b0316846120e3565b604051339083907ff55b71188745682e3ad8eb1b41aec0980f6f59e48efa8475a1ce8e6d953daa9c90600090a35050565b306001600160a01b037f0000000000000000000000000000000000000000000000000000000000000000161415610d515760405162461bcd60e51b81526004016109e890613c41565b7f00000000000000000000000000000000000000000000000000000000000000006001600160a01b0316610d8361229a565b6001600160a01b031614610da95760405162461bcd60e51b81526004016109e890613c8d565b610db2816122c8565b60408051600080825260208201909252610dce9183919061236e565b50565b610197546001600160a01b03166324d7806c336040516001600160e01b031960e084901b1681526001600160a01b03909116600482015260240160206040518083038186803b158015610e2357600080fd5b505afa158015610e37573d6000803e3d6000fd5b505050506040513d601f19601f82011682018060405250810190610e5b919061385f565b610e775760405162461bcd60e51b81526004016109e890613cd9565b61019580549082905560408051828152602081018490527f2c77870043be137c2a74a3b931d7d19bb2dc102f01ad84b3e94418bcd0b5a4e891015b60405180910390a15050565b610b1e83838360405180602001604052806000815250611b2b565b610197546001600160a01b03166324d7806c336040516001600160e01b031960e084901b1681526001600160a01b03909116600482015260240160206040518083038186803b158015610f2b57600080fd5b505afa158015610f3f573d6000803e3d6000fd5b505050506040513d601f19601f82011682018060405250810190610f63919061385f565b610f7f5760405162461bcd60e51b81526004016109e890613cd9565b610f8833610b28565b610fed5760405162461bcd60e51b815260206004820152603060248201527f4552433732314275726e61626c653a2063616c6c6572206973206e6f74206f7760448201526f1b995c881b9bdc88185c1c1c9bdd995960821b60648201526084016109e8565b610dce816124b9565b600054610100900460ff166110115760005460ff1615611015565b303b155b6110785760405162461bcd60e51b815260206004820152602e60248201527f496e697469616c697a61626c653a20636f6e747261637420697320616c72656160448201526d191e481a5b9a5d1a585b1a5e995960921b60648201526084016109e8565b600054610100900460ff161580156110a3576000805460ff1961ff0019909116610100171660011790555b6110f46040518060400160405280601081526020016f12185cda1d1859c8141c9bdd1bd8dbdb60821b815250604051806040016040528060078152602001664841534854414760c81b815250612560565b6110fc6125a1565b6111046125e8565b61019780546001600160a01b038086166001600160a01b0319928316179092556101968054928516929091169190911790556303c26700610192556040805180820190915260208082527f68747470733a2f2f6170692e686173687461672d70726f746f636f6c2e696f2f91810191825261118291610191916134d2565b506003610194556020610195558015610b1e576000805461ff0019169055505050565b306001600160a01b037f00000000000000000000000000000000000000000000000000000000000000001614156111ee5760405162461bcd60e51b81526004016109e890613c41565b7f00000000000000000000000000000000000000000000000000000000000000006001600160a01b031661122061229a565b6001600160a01b0316146112465760405162461bcd60e51b81526004016109e890613c8d565b61124f826122c8565b61125b8282600161236e565b5050565b60006108e682611f72565b60006101996112ae84848080601f01602080910402602001604051908101604052809392919081815260200183838082843760009201919091525061261f92505050565b6040516112bb91906139f5565b908152602001604051809103902054905092915050565b610197546001600160a01b03166324d7806c336040516001600160e01b031960e084901b1681526001600160a01b03909116600482015260240160206040518083038186803b15801561132457600080fd5b505afa158015611338573d6000803e3d6000fd5b505050506040513d601f19601f8201168201806040525081019061135c919061385f565b6113785760405162461bcd60e51b81526004016109e890613cd9565b6113856101918383613556565b507f325d37e8fb549c86966f09bc3e6f62eb3afa93b255d6e3234338001f3d80bd86610191604051610eb29190613afd565b6000818152606760205260408120546001600160a01b0316806108e65760405162461bcd60e51b815260206004820152602960248201527f4552433732313a206f776e657220717565727920666f72206e6f6e657869737460448201526832b73a103a37b5b2b760b91b60648201526084016109e8565b610197546001600160a01b03166324d7806c336040516001600160e01b031960e084901b1681526001600160a01b03909116600482015260240160206040518083038186803b15801561148057600080fd5b505afa158015611494573d6000803e3d6000fd5b505050506040513d601f19601f820116820180604052508101906114b8919061385f565b6114d45760405162461bcd60e51b81526004016109e890613cd9565b61019680546001600160a01b038381166001600160a01b031983168117909355604080519190921680825260208201939093527f0e8ce4b57fd24de168e9c8d76109cb59a7852e78b3575da1ba2077dd53d330ec9101610eb2565b610191805461153d90613e4e565b80601f016020809104026020016040519081016040528092919081815260200182805461156990613e4e565b80156115b65780601f1061158b576101008083540402835291602001916115b6565b820191906000526020600020905b81548152906001019060200180831161159957829003601f168201915b505050505081565b610197546001600160a01b03166324d7806c336040516001600160e01b031960e084901b1681526001600160a01b03909116600482015260240160206040518083038186803b15801561161057600080fd5b505afa158015611624573d6000803e3d6000fd5b505050506040513d601f19601f82011682018060405250810190611648919061385f565b6116645760405162461bcd60e51b81526004016109e890613cd9565b6001600160a01b0381166116d75760405162461bcd60e51b815260206004820152603460248201527f4861736874616750726f746f636f6c2e757064617465416363657373436f6e74604482015273726f6c733a2043616e6e6f74206265207a65726f60601b60648201526084016109e8565b61019780546001600160a01b038381166001600160a01b031983168117909355604080519190921680825260208201939093527f31073599bfae2533a348dc816b0ce777b707aa9b67015ca2d86585e842b5c6e99101610eb2565b60006001600160a01b03821661179d5760405162461bcd60e51b815260206004820152602a60248201527f4552433732313a2062616c616e636520717565727920666f7220746865207a65604482015269726f206164647265737360b01b60648201526084016109e8565b506001600160a01b031660009081526068602052604090205490565b61019754604051630830b35960e31b81526001600160a01b03848116600483015260009216906341859ac89060240160206040518083038186803b15801561180057600080fd5b505afa158015611814573d6000803e3d6000fd5b505050506040513d601f19601f82011682018060405250810190611838919061385f565b6118945760405162461bcd60e51b815260206004820152602760248201527f4d696e743a20546865207075626c6973686572206d7573742062652077686974604482015266195b1a5cdd195960ca1b60648201526084016109e8565b60006118d586868080601f0160208091040260200160405190810160405280939291908181526020018383808284376000920191909152506127f892505050565b610193549091506118e790600161228e565b61019381905561019654611904906001600160a01b031682612be5565b6040518060600160405280866001600160a01b03168152602001856001600160a01b0316815260200188888080601f01602080910402602001604051908101604052809392919081815260200183838082843760009201829052509390945250508381526101986020908152604091829020845181546001600160a01b039182166001600160a01b0319918216178355868401516001840180549190931691161790559184015180519293506119c392600285019291909101906134d2565b5090505080610199836040516119d991906139f5565b908152602001604051809103902081905550846001600160a01b0316817f5f85fda711aa96abf7ad634949eccb4f5086cb03f4b9c731c8e584e22cfe252f898988604051611a2993929190613aa9565b60405180910390a39150505b949350505050565b610197546001600160a01b03166324d7806c336040516001600160e01b031960e084901b1681526001600160a01b03909116600482015260240160206040518083038186803b158015611a8f57600080fd5b505afa158015611aa3573d6000803e3d6000fd5b505050506040513d601f19601f82011682018060405250810190611ac7919061385f565b611ae35760405162461bcd60e51b81526004016109e890613cd9565b611aeb612bff565b565b6101965460009081906001600160a01b0316611b08846113b7565b91509150915091565b6060606680546108fd90613e4e565b61125b338383612c97565b611b353383611ffd565b611b515760405162461bcd60e51b81526004016109e890613d1e565b611b5d84848484612d66565b50505050565b6060611b6e82611f72565b611bd25760405162461bcd60e51b815260206004820152602f60248201527f4552433732314d657461646174613a2055524920717565727920666f72206e6f60448201526e3732bc34b9ba32b73a103a37b5b2b760891b60648201526084016109e8565b6000611bdc612d99565b90506000815111611bfc5760405180602001604052806000815250611c27565b80611c0684612da9565b604051602001611c17929190613a11565b6040516020818303038152906040525b9392505050565b611c37816113b7565b6001600160a01b0316336001600160a01b031614611c975760405162461bcd60e51b815260206004820152601c60248201527f72656e6577486173687461673a20496e76616c69642073656e6465720000000060448201526064016109e8565b600081815261019a602052604080822042905551339183917f4b3fb07ae9201b1778414739d2679d5d30b131b54a4e712c83e4de60e87263009190a350565b610198602052600090815260409020805460018201546002830180546001600160a01b03938416949290931692611d0c90613e4e565b80601f0160208091040260200160405190810160405280929190818152602001828054611d3890613e4e565b8015611d855780601f10611d5a57610100808354040283529160200191611d85565b820191906000526020600020905b815481529060010190602001808311611d6857829003601f168201915b5050505050905083565b610197546001600160a01b03166324d7806c336040516001600160e01b031960e084901b1681526001600160a01b03909116600482015260240160206040518083038186803b158015611de157600080fd5b505afa158015611df5573d6000803e3d6000fd5b505050506040513d601f19601f82011682018060405250810190611e19919061385f565b611e355760405162461bcd60e51b81526004016109e890613cd9565b61019280549082905560408051828152602081018490527f7550fd28481dfa2a7590562881c3fffa398e97624ad6eeae494cf36c51e2a9069101610eb2565b610197546001600160a01b03166324d7806c336040516001600160e01b031960e084901b1681526001600160a01b03909116600482015260240160206040518083038186803b158015611ec657600080fd5b505afa158015611eda573d6000803e3d6000fd5b505050506040513d601f19601f82011682018060405250810190611efe919061385f565b611f1a5760405162461bcd60e51b81526004016109e890613cd9565b611aeb612ec4565b60006001600160e01b031982166380ac58cd60e01b1480611f5357506001600160e01b03198216635b5e139f60e01b145b806108e657506301ffc9a760e01b6001600160e01b03198316146108e6565b6000908152606760205260409020546001600160a01b0316151590565b600081815260696020526040902080546001600160a01b0319166001600160a01b0384169081179091558190611fc4826113b7565b6001600160a01b03167f8c5be1e5ebec7d5bd14f71427d1e84f3dd0314c0f7b2291e5b200ac8c7c3b92560405160405180910390a45050565b600061200882611f72565b6120695760405162461bcd60e51b815260206004820152602c60248201527f4552433732313a206f70657261746f7220717565727920666f72206e6f6e657860448201526b34b9ba32b73a103a37b5b2b760a11b60648201526084016109e8565b6000612074836113b7565b9050806001600160a01b0316846001600160a01b031614806120af5750836001600160a01b03166120a484610980565b6001600160a01b0316145b80611a3557506001600160a01b038082166000908152606a602090815260408083209388168352929052205460ff16611a35565b826001600160a01b03166120f6826113b7565b6001600160a01b03161461215e5760405162461bcd60e51b815260206004820152602960248201527f4552433732313a207472616e73666572206f6620746f6b656e2074686174206960448201526839903737ba1037bbb760b91b60648201526084016109e8565b6001600160a01b0382166121c05760405162461bcd60e51b8152602060048201526024808201527f4552433732313a207472616e7366657220746f20746865207a65726f206164646044820152637265737360e01b60648201526084016109e8565b6121cb838383612f3e565b6121d6600082611f8f565b6001600160a01b03831660009081526068602052604081208054600192906121ff908490613e0b565b90915550506001600160a01b038216600090815260686020526040812080546001929061222d908490613dba565b909155505060008181526067602052604080822080546001600160a01b0319166001600160a01b0386811691821790925591518493918716917fddf252ad1be2c89b69c2b068fc378daa952ba7f163c4a11628f55a4df523b3ef91a4505050565b6000611c278284613dba565b7f360894a13ba1a3210667c828492db98dca3e2076cc3735a920a3ca505d382bbc546001600160a01b031690565b610197546001600160a01b03166324d7806c336040516001600160e01b031960e084901b1681526001600160a01b03909116600482015260240160206040518083038186803b15801561231a57600080fd5b505afa15801561232e573d6000803e3d6000fd5b505050506040513d601f19601f82011682018060405250810190612352919061385f565b610dce5760405162461bcd60e51b81526004016109e890613cd9565b600061237861229a565b905061238384612f82565b6000835111806123905750815b156123a15761239f8484613027565b505b7f4910fdfa16fed3260ed0e7147f7cc6da11a60208b5b9406d12a635614ffd9143805460ff166124b257805460ff191660011781556040516001600160a01b038316602482015261242090869060440160408051601f198184030181529190526020810180516001600160e01b0316631b2ce7f360e11b179052613027565b50805460ff1916815561243161229a565b6001600160a01b0316826001600160a01b0316146124a95760405162461bcd60e51b815260206004820152602f60248201527f45524331393637557067726164653a207570677261646520627265616b73206660448201526e75727468657220757067726164657360881b60648201526084016109e8565b6124b285613112565b5050505050565b60006124c4826113b7565b90506124d281600084612f3e565b6124dd600083611f8f565b6001600160a01b0381166000908152606860205260408120805460019290612506908490613e0b565b909155505060008281526067602052604080822080546001600160a01b0319169055518391906001600160a01b038416907fddf252ad1be2c89b69c2b068fc378daa952ba7f163c4a11628f55a4df523b3ef908390a45050565b600054610100900460ff166125875760405162461bcd60e51b81526004016109e890613d6f565b61258f613152565b612597613152565b61125b8282613179565b600054610100900460ff166125c85760405162461bcd60e51b81526004016109e890613d6f565b6125d0613152565b6125d8613152565b6125e06131c7565b611aeb613152565b600054610100900460ff1661260f5760405162461bcd60e51b81526004016109e890613d6f565b612617613152565b6125e0613152565b606060008290506000815167ffffffffffffffff81111561265057634e487b7160e01b600052604160045260246000fd5b6040519080825280601f01601f19166020018201604052801561267a576020820181803683370190505b50905060005b82518110156127f057604160f81b8382815181106126ae57634e487b7160e01b600052603260045260246000fd5b01602001516001600160f81b031916108015906126fd5750605a60f81b8382815181106126eb57634e487b7160e01b600052603260045260246000fd5b01602001516001600160f81b03191611155b1561277b5782818151811061272257634e487b7160e01b600052603260045260246000fd5b602001015160f81c60f81b60f81c602061273c9190613dd2565b60f81b82828151811061275f57634e487b7160e01b600052603260045260246000fd5b60200101906001600160f81b031916908160001a9053506127de565b82818151811061279b57634e487b7160e01b600052603260045260246000fd5b602001015160f81c60f81b8282815181106127c657634e487b7160e01b600052603260045260246000fd5b60200101906001600160f81b031916908160001a9053505b806127e881613e89565b915050612680565b509392505050565b610194548151606091839110801590612815575061019554815111155b6128875760405162461bcd60e51b815260206004820152603b60248201527f496e76616c696420666f726d61743a2048617368746167206d757374206e6f7460448201527f20657863656564206c656e67746820726571756972656d656e7473000000000060648201526084016109e8565b806000815181106128a857634e487b7160e01b600052603260045260246000fd5b6020910101516001600160f81b031916602360f81b146128fe5760405162461bcd60e51b81526020600482015260116024820152704d7573742073746172742077697468202360781b60448201526064016109e8565b60006129098461261f565b90506101998160405161291c91906139f5565b90815260200160405180910390205460001461297a5760405162461bcd60e51b815260206004820152601c60248201527f4552433732313a20746f6b656e20616c7265616479206d696e7465640000000060448201526064016109e8565b600060015b8351811015612b5f5760008482815181106129aa57634e487b7160e01b600052603260045260246000fd5b01602001516001600160f81b03191690506000600360fc1b82108015906129df5750603960f81b6001600160f81b0319831611155b158015612a155750604160f81b6001600160f81b0319831610801590612a135750602d60f91b6001600160f81b0319831611155b155b8015612a4a5750606160f81b6001600160f81b0319831610801590612a485750603d60f91b6001600160f81b0319831611155b155b90508015612ad95760405162461bcd60e51b815260206004820152605060248201527f496e76616c69642063686172616374657220666f756e643a204861736874616760448201527f206d6179206f6e6c7920636f6e7461696e206368617261637465727320412d5a60648201526f2c20612d7a2c20302d3920616e64202360801b608482015260a4016109e8565b604160f81b6001600160f81b0319831610801590612b055750602d60f91b6001600160f81b0319831611155b80612b375750606160f81b6001600160f81b0319831610801590612b375750603d60f91b6001600160f81b0319831611155b15612b4a57612b4784600161228e565b93505b50508080612b5790613e89565b91505061297f565b5060018110156127f05760405162461bcd60e51b815260206004820152604560248201527f496e76616c696420666f726d61743a2048617368746167206d75737420636f6e60448201527f7461696e206174206c65617374203120616c706861626574696320636861726160648201526431ba32b91760d91b608482015260a4016109e8565b61125b8282604051806020016040528060008152506131fa565b60975460ff1615612c455760405162461bcd60e51b815260206004820152601060248201526f14185d5cd8589b194e881c185d5cd95960821b60448201526064016109e8565b6097805460ff191660011790557f62e78cea01bee320cd4e420270b5ea74000d11b0c9f74754ebdbfc544b05a258612c7a3390565b6040516001600160a01b03909116815260200160405180910390a1565b816001600160a01b0316836001600160a01b03161415612cf95760405162461bcd60e51b815260206004820152601960248201527f4552433732313a20617070726f766520746f2063616c6c65720000000000000060448201526064016109e8565b6001600160a01b038381166000818152606a6020908152604080832094871680845294825291829020805460ff191686151590811790915591519182527f17307eab39ab6107e8899845ad3d59bd9653f200f220920489ca2b5937696c31910160405180910390a3505050565b612d718484846120e3565b612d7d8484848461322d565b611b5d5760405162461bcd60e51b81526004016109e890613bef565b606061019180546108fd90613e4e565b606081612dce57506040805180820190915260018152600360fc1b60208201526108e9565b8160005b8115612df85780612de281613e89565b9150612df19050600a83613df7565b9150612dd2565b60008167ffffffffffffffff811115612e2157634e487b7160e01b600052604160045260246000fd5b6040519080825280601f01601f191660200182016040528015612e4b576020820181803683370190505b5090505b8415611a3557612e60600183613e0b565b9150612e6d600a86613ea4565b612e78906030613dba565b60f81b818381518110612e9b57634e487b7160e01b600052603260045260246000fd5b60200101906001600160f81b031916908160001a905350612ebd600a86613df7565b9450612e4f565b60975460ff16612f0d5760405162461bcd60e51b815260206004820152601460248201527314185d5cd8589b194e881b9bdd081c185d5cd95960621b60448201526064016109e8565b6097805460ff191690557f5db9ee0a495bf2e6ff9c91a7834c1ba4fdd244a5e8aa4e537bd38aeae4b073aa33612c7a565b612f49838383613337565b60975460ff1615612f6c5760405162461bcd60e51b81526004016109e890613ba4565b600090815261019a602052604090204290555050565b803b612fe65760405162461bcd60e51b815260206004820152602d60248201527f455243313936373a206e657720696d706c656d656e746174696f6e206973206e60448201526c1bdd08184818dbdb9d1c9858dd609a1b60648201526084016109e8565b7f360894a13ba1a3210667c828492db98dca3e2076cc3735a920a3ca505d382bbc80546001600160a01b0319166001600160a01b0392909216919091179055565b6060823b6130865760405162461bcd60e51b815260206004820152602660248201527f416464726573733a2064656c65676174652063616c6c20746f206e6f6e2d636f6044820152651b9d1c9858dd60d21b60648201526084016109e8565b600080846001600160a01b0316846040516130a191906139f5565b600060405180830381855af49150503d80600081146130dc576040519150601f19603f3d011682016040523d82523d6000602084013e6130e1565b606091505b50915091506131098282604051806060016040528060278152602001613f346027913961335a565b95945050505050565b61311b81612f82565b6040516001600160a01b038216907fbc7cd75a20ee27fd9adebab32041f755214dbc6bffa90cc0225b39da2e5c2d3b90600090a250565b600054610100900460ff16611aeb5760405162461bcd60e51b81526004016109e890613d6f565b600054610100900460ff166131a05760405162461bcd60e51b81526004016109e890613d6f565b81516131b39060659060208501906134d2565b508051610b1e9060669060208401906134d2565b600054610100900460ff166131ee5760405162461bcd60e51b81526004016109e890613d6f565b6097805460ff19169055565b6132048383613393565b613211600084848461322d565b610b1e5760405162461bcd60e51b81526004016109e890613bef565b60006001600160a01b0384163b1561332f57604051630a85bd0160e11b81526001600160a01b0385169063150b7a0290613271903390899088908890600401613a6c565b602060405180830381600087803b15801561328b57600080fd5b505af19250505080156132bb575060408051601f3d908101601f191682019092526132b891810190613897565b60015b613315573d8080156132e9576040519150601f19603f3d011682016040523d82523d6000602084013e6132ee565b606091505b50805161330d5760405162461bcd60e51b81526004016109e890613bef565b805181602001fd5b6001600160e01b031916630a85bd0160e11b149050611a35565b506001611a35565b60975460ff1615610b1e5760405162461bcd60e51b81526004016109e890613ba4565b60608315613369575081611c27565b8251156133795782518084602001fd5b8160405162461bcd60e51b81526004016109e89190613aea565b6001600160a01b0382166133e95760405162461bcd60e51b815260206004820181905260248201527f4552433732313a206d696e7420746f20746865207a65726f206164647265737360448201526064016109e8565b6133f281611f72565b1561343f5760405162461bcd60e51b815260206004820152601c60248201527f4552433732313a20746f6b656e20616c7265616479206d696e7465640000000060448201526064016109e8565b61344b60008383612f3e565b6001600160a01b0382166000908152606860205260408120805460019290613474908490613dba565b909155505060008181526067602052604080822080546001600160a01b0319166001600160a01b03861690811790915590518392907fddf252ad1be2c89b69c2b068fc378daa952ba7f163c4a11628f55a4df523b3ef908290a45050565b8280546134de90613e4e565b90600052602060002090601f0160209004810192826135005760008555613546565b82601f1061351957805160ff1916838001178555613546565b82800160010185558215613546579182015b8281111561354657825182559160200191906001019061352b565b506135529291506135ca565b5090565b82805461356290613e4e565b90600052602060002090601f0160209004810192826135845760008555613546565b82601f1061359d5782800160ff19823516178555613546565b82800160010185558215613546579182015b828111156135465782358255916020019190600101906135af565b5b8082111561355257600081556001016135cb565b600067ffffffffffffffff808411156135fa576135fa613ee4565b604051601f8501601f19908116603f0116810190828211818310171561362257613622613ee4565b8160405280935085815286868601111561363b57600080fd5b858560208301376000602087830101525050509392505050565b600082601f830112613665578081fd5b611c27838335602085016135df565b60008083601f840112613685578182fd5b50813567ffffffffffffffff81111561369c578182fd5b6020830191508360208285010111156136b457600080fd5b9250929050565b6000602082840312156136cc578081fd5b8135611c2781613efa565b600080604083850312156136e9578081fd5b82356136f481613efa565b9150602083013561370481613efa565b809150509250929050565b600080600060608486031215613723578081fd5b833561372e81613efa565b9250602084013561373e81613efa565b929592945050506040919091013590565b60008060008060808587031215613764578081fd5b843561376f81613efa565b9350602085013561377f81613efa565b925060408501359150606085013567ffffffffffffffff8111156137a1578182fd5b6137ad87828801613655565b91505092959194509250565b600080604083850312156137cb578182fd5b82356137d681613efa565b9150602083013561370481613f0f565b600080604083850312156137f8578182fd5b823561380381613efa565b9150602083013567ffffffffffffffff81111561381e578182fd5b61382a85828601613655565b9150509250929050565b60008060408385031215613846578182fd5b823561385181613efa565b946020939093013593505050565b600060208284031215613870578081fd5b8151611c2781613f0f565b60006020828403121561388c578081fd5b8135611c2781613f1d565b6000602082840312156138a8578081fd5b8151611c2781613f1d565b600080604083850312156136e9578182fd5b600080602083850312156138d7578182fd5b823567ffffffffffffffff8111156138ed578283fd5b6138f985828601613674565b90969095509350505050565b6000806000806060858703121561391a578182fd5b843567ffffffffffffffff811115613930578283fd5b61393c87828801613674565b909550935050602085013561395081613efa565b9150604085013561396081613efa565b939692955090935050565b60006020828403121561397c578081fd5b813567ffffffffffffffff811115613992578182fd5b8201601f810184136139a2578182fd5b611a35848235602084016135df565b6000602082840312156139c2578081fd5b5035919050565b600081518084526139e1816020860160208601613e22565b601f01601f19169290920160200192915050565b60008251613a07818460208701613e22565b9190910192915050565b60008351613a23818460208801613e22565b835190830190613a37818360208801613e22565b01949350505050565b6001600160a01b03848116825283166020820152606060408201819052600090613109908301846139c9565b6001600160a01b0385811682528416602082015260408101839052608060608201819052600090613a9f908301846139c9565b9695505050505050565b6000604082528360408301528385606084013760608483018101919091526001600160a01b03929092166020820152601f909201601f191690910101919050565b600060208252611c2760208301846139c9565b6000602080835281845483600282049050600180831680613b1f57607f831692505b858310811415613b3d57634e487b7160e01b87526022600452602487fd5b878601838152602001818015613b5a5760018114613b6b57613b95565b60ff19861682528782019650613b95565b60008b815260209020895b86811015613b8f57815484820152908501908901613b76565b83019750505b50949998505050505050505050565b6020808252602b908201527f4552433732315061757361626c653a20746f6b656e207472616e73666572207760408201526a1a1a5b19481c185d5cd95960aa1b606082015260800190565b60208082526032908201527f4552433732313a207472616e7366657220746f206e6f6e20455243373231526560408201527131b2b4bb32b91034b6b83632b6b2b73a32b960711b606082015260800190565b6020808252602c908201527f46756e6374696f6e206d7573742062652063616c6c6564207468726f7567682060408201526b19195b1959d85d1958d85b1b60a21b606082015260800190565b6020808252602c908201527f46756e6374696f6e206d7573742062652063616c6c6564207468726f7567682060408201526b6163746976652070726f787960a01b606082015260800190565b60208082526025908201527f43616c6c6572206d75737420686176652061646d696e6973747261746f722061604082015264636365737360d81b606082015260800190565b60208082526031908201527f4552433732313a207472616e736665722063616c6c6572206973206e6f74206f6040820152701ddb995c881b9bdc88185c1c1c9bdd9959607a1b606082015260800190565b6020808252602b908201527f496e697469616c697a61626c653a20636f6e7472616374206973206e6f74206960408201526a6e697469616c697a696e6760a81b606082015260800190565b60008219821115613dcd57613dcd613eb8565b500190565b600060ff821660ff84168060ff03821115613def57613def613eb8565b019392505050565b600082613e0657613e06613ece565b500490565b600082821015613e1d57613e1d613eb8565b500390565b60005b83811015613e3d578181015183820152602001613e25565b83811115611b5d5750506000910152565b600281046001821680613e6257607f821691505b60208210811415613e8357634e487b7160e01b600052602260045260246000fd5b50919050565b6000600019821415613e9d57613e9d613eb8565b5060010190565b600082613eb357613eb3613ece565b500690565b634e487b7160e01b600052601160045260246000fd5b634e487b7160e01b600052601260045260246000fd5b634e487b7160e01b600052604160045260246000fd5b6001600160a01b0381168114610dce57600080fd5b8015158114610dce57600080fd5b6001600160e01b031981168114610dce57600080fdfe416464726573733a206c6f772d6c6576656c2064656c65676174652063616c6c206661696c6564a2646970667358221220af938fa7df2df4107094eb9aa342516986652102be6b323d7722bf51b306055d64736f6c63430008020033",
  "linkReferences": {},
  "deployedLinkReferences": {}
}