{
  "_format": "hh-sol-artifact-1",
  "contractName": "ERC721HashtagRegistryUpgrade",
  "sourceName": "contracts/utils/UUPS/UUPSTesting.sol",
  "abi": [
    {
      "anonymous": false,
      "inputs": [
        {
          "indexed": false,
          "internalType": "address",
          "name": "previousAdmin",
          "type": "address"
        },
        {
          "indexed": false,
          "internalType": "address",
          "name": "newAdmin",
          "type": "address"
        }
      ],
      "name": "AdminChanged",
      "type": "event"
    },
    {
      "anonymous": false,
      "inputs": [
        {
          "indexed": true,
          "internalType": "address",
          "name": "beacon",
          "type": "address"
        }
      ],
      "name": "BeaconUpgraded",
      "type": "event"
    },
    {
      "anonymous": false,
      "inputs": [
        {
          "indexed": true,
          "internalType": "address",
          "name": "who",
          "type": "address"
        },
        {
          "indexed": false,
          "internalType": "uint256",
          "name": "amount",
          "type": "uint256"
        }
      ],
      "name": "DrawDown",
      "type": "event"
    },
    {
      "anonymous": false,
      "inputs": [
        {
          "indexed": true,
          "internalType": "address",
          "name": "tagger",
          "type": "address"
        },
        {
          "indexed": true,
          "internalType": "address",
          "name": "nftContract",
          "type": "address"
        },
        {
          "indexed": true,
          "internalType": "address",
          "name": "publisher",
          "type": "address"
        },
        {
          "indexed": false,
          "internalType": "uint256",
          "name": "hashtagId",
          "type": "uint256"
        },
        {
          "indexed": false,
          "internalType": "uint256",
          "name": "nftId",
          "type": "uint256"
        },
        {
          "indexed": false,
          "internalType": "uint256",
          "name": "tagId",
          "type": "uint256"
        },
        {
          "indexed": false,
          "internalType": "uint256",
          "name": "tagFee",
          "type": "uint256"
        },
        {
          "indexed": false,
          "internalType": "uint256",
          "name": "nftChainId",
          "type": "uint256"
        }
      ],
      "name": "HashtagRegistered",
      "type": "event"
    },
    {
      "anonymous": false,
      "inputs": [
        {
          "indexed": true,
          "internalType": "address",
          "name": "implementation",
          "type": "address"
        }
      ],
      "name": "Upgraded",
      "type": "event"
    },
    {
      "inputs": [],
      "name": "NAME",
      "outputs": [
        {
          "internalType": "string",
          "name": "",
          "type": "string"
        }
      ],
      "stateMutability": "view",
      "type": "function"
    },
    {
      "inputs": [],
      "name": "VERSION",
      "outputs": [
        {
          "internalType": "string",
          "name": "",
          "type": "string"
        }
      ],
      "stateMutability": "view",
      "type": "function"
    },
    {
      "inputs": [],
      "name": "accessControls",
      "outputs": [
        {
          "internalType": "contract HashtagAccessControls",
          "name": "",
          "type": "address"
        }
      ],
      "stateMutability": "view",
      "type": "function"
    },
    {
      "inputs": [
        {
          "internalType": "address",
          "name": "",
          "type": "address"
        }
      ],
      "name": "accrued",
      "outputs": [
        {
          "internalType": "uint256",
          "name": "",
          "type": "uint256"
        }
      ],
      "stateMutability": "view",
      "type": "function"
    },
    {
      "inputs": [
        {
          "internalType": "address payable",
          "name": "_account",
          "type": "address"
        }
      ],
      "name": "drawDown",
      "outputs": [],
      "stateMutability": "nonpayable",
      "type": "function"
    },
    {
      "inputs": [
        {
          "internalType": "uint256",
          "name": "_nftChainId",
          "type": "uint256"
        }
      ],
      "name": "getPermittedNftChainId",
      "outputs": [
        {
          "internalType": "bool",
          "name": "",
          "type": "bool"
        }
      ],
      "stateMutability": "view",
      "type": "function"
    },
    {
      "inputs": [
        {
          "internalType": "uint256",
          "name": "_tagId",
          "type": "uint256"
        }
      ],
      "name": "getTagInfo",
      "outputs": [
        {
          "internalType": "uint256",
          "name": "_hashtagId",
          "type": "uint256"
        },
        {
          "internalType": "address",
          "name": "_nftContract",
          "type": "address"
        },
        {
          "internalType": "uint256",
          "name": "_nftId",
          "type": "uint256"
        },
        {
          "internalType": "address",
          "name": "_tagger",
          "type": "address"
        },
        {
          "internalType": "uint256",
          "name": "_tagstamp",
          "type": "uint256"
        },
        {
          "internalType": "address",
          "name": "_publisher",
          "type": "address"
        },
        {
          "internalType": "uint256",
          "name": "_nftChainId",
          "type": "uint256"
        }
      ],
      "stateMutability": "view",
      "type": "function"
    },
    {
      "inputs": [],
      "name": "hashtagProtocol",
      "outputs": [
        {
          "internalType": "contract HashtagProtocol",
          "name": "",
          "type": "address"
        }
      ],
      "stateMutability": "view",
      "type": "function"
    },
    {
      "inputs": [
        {
          "internalType": "contract HashtagAccessControls",
          "name": "_accessControls",
          "type": "address"
        },
        {
          "internalType": "contract HashtagProtocol",
          "name": "_hashtagProtocol",
          "type": "address"
        }
      ],
      "name": "initialize",
      "outputs": [],
      "stateMutability": "nonpayable",
      "type": "function"
    },
    {
      "inputs": [
        {
          "internalType": "string",
          "name": "_hashtag",
          "type": "string"
        },
        {
          "internalType": "address",
          "name": "_nftContract",
          "type": "address"
        },
        {
          "internalType": "uint256",
          "name": "_nftId",
          "type": "uint256"
        },
        {
          "internalType": "address payable",
          "name": "_publisher",
          "type": "address"
        },
        {
          "internalType": "address",
          "name": "_tagger",
          "type": "address"
        },
        {
          "internalType": "uint256",
          "name": "_nftChainId",
          "type": "uint256"
        }
      ],
      "name": "mintAndTag",
      "outputs": [],
      "stateMutability": "payable",
      "type": "function"
    },
    {
      "inputs": [],
      "name": "modulo",
      "outputs": [
        {
          "internalType": "uint256",
          "name": "",
          "type": "uint256"
        }
      ],
      "stateMutability": "view",
      "type": "function"
    },
    {
      "inputs": [
        {
          "internalType": "address",
          "name": "",
          "type": "address"
        }
      ],
      "name": "paid",
      "outputs": [
        {
          "internalType": "uint256",
          "name": "",
          "type": "uint256"
        }
      ],
      "stateMutability": "view",
      "type": "function"
    },
    {
      "inputs": [
        {
          "internalType": "uint256",
          "name": "",
          "type": "uint256"
        }
      ],
      "name": "permittedNftChainIds",
      "outputs": [
        {
          "internalType": "bool",
          "name": "",
          "type": "bool"
        }
      ],
      "stateMutability": "view",
      "type": "function"
    },
    {
      "inputs": [],
      "name": "platformPercentage",
      "outputs": [
        {
          "internalType": "uint256",
          "name": "",
          "type": "uint256"
        }
      ],
      "stateMutability": "view",
      "type": "function"
    },
    {
      "inputs": [],
      "name": "publisherPercentage",
      "outputs": [
        {
          "internalType": "uint256",
          "name": "",
          "type": "uint256"
        }
      ],
      "stateMutability": "view",
      "type": "function"
    },
    {
      "inputs": [],
      "name": "remainingPercentage",
      "outputs": [
        {
          "internalType": "uint256",
          "name": "",
          "type": "uint256"
        }
      ],
      "stateMutability": "view",
      "type": "function"
    },
    {
      "inputs": [
        {
          "internalType": "uint256",
          "name": "_nftChainId",
          "type": "uint256"
        },
        {
          "internalType": "bool",
          "name": "_setting",
          "type": "bool"
        }
      ],
      "name": "setPermittedNftChainId",
      "outputs": [],
      "stateMutability": "nonpayable",
      "type": "function"
    },
    {
      "inputs": [
        {
          "internalType": "uint256",
          "name": "_fee",
          "type": "uint256"
        }
      ],
      "name": "setTagFee",
      "outputs": [],
      "stateMutability": "nonpayable",
      "type": "function"
    },
    {
      "inputs": [
        {
          "internalType": "string",
          "name": "_hashtag",
          "type": "string"
        },
        {
          "internalType": "address",
          "name": "_nftContract",
          "type": "address"
        },
        {
          "internalType": "uint256",
          "name": "_nftId",
          "type": "uint256"
        },
        {
          "internalType": "address payable",
          "name": "_publisher",
          "type": "address"
        },
        {
          "internalType": "address",
          "name": "_tagger",
          "type": "address"
        },
        {
          "internalType": "uint256",
          "name": "_nftChainId",
          "type": "uint256"
        }
      ],
      "name": "tag",
      "outputs": [],
      "stateMutability": "payable",
      "type": "function"
    },
    {
      "inputs": [],
      "name": "tagFee",
      "outputs": [
        {
          "internalType": "uint256",
          "name": "",
          "type": "uint256"
        }
      ],
      "stateMutability": "view",
      "type": "function"
    },
    {
      "inputs": [
        {
          "internalType": "uint256",
          "name": "",
          "type": "uint256"
        }
      ],
      "name": "tagIdToTag",
      "outputs": [
        {
          "internalType": "uint256",
          "name": "hashtagId",
          "type": "uint256"
        },
        {
          "internalType": "address",
          "name": "nftContract",
          "type": "address"
        },
        {
          "internalType": "uint256",
          "name": "nftId",
          "type": "uint256"
        },
        {
          "internalType": "address",
          "name": "tagger",
          "type": "address"
        },
        {
          "internalType": "uint256",
          "name": "tagstamp",
          "type": "uint256"
        },
        {
          "internalType": "address",
          "name": "publisher",
          "type": "address"
        },
        {
          "internalType": "uint256",
          "name": "nftChainId",
          "type": "uint256"
        }
      ],
      "stateMutability": "view",
      "type": "function"
    },
    {
      "inputs": [
        {
          "internalType": "address",
          "name": "_account",
          "type": "address"
        }
      ],
      "name": "totalDue",
      "outputs": [
        {
          "internalType": "uint256",
          "name": "_due",
          "type": "uint256"
        }
      ],
      "stateMutability": "view",
      "type": "function"
    },
    {
      "inputs": [],
      "name": "totalTags",
      "outputs": [
        {
          "internalType": "uint256",
          "name": "",
          "type": "uint256"
        }
      ],
      "stateMutability": "view",
      "type": "function"
    },
    {
      "inputs": [
        {
          "internalType": "contract HashtagAccessControls",
          "name": "_accessControls",
          "type": "address"
        }
      ],
      "name": "updateAccessControls",
      "outputs": [],
      "stateMutability": "nonpayable",
      "type": "function"
    },
    {
      "inputs": [
        {
          "internalType": "uint256",
          "name": "_platformPercentage",
          "type": "uint256"
        },
        {
          "internalType": "uint256",
          "name": "_publisherPercentage",
          "type": "uint256"
        }
      ],
      "name": "updatePercentages",
      "outputs": [],
      "stateMutability": "nonpayable",
      "type": "function"
    },
    {
      "inputs": [],
      "name": "upgradeTest",
      "outputs": [
        {
          "internalType": "bool",
          "name": "",
          "type": "bool"
        }
      ],
      "stateMutability": "pure",
      "type": "function"
    },
    {
      "inputs": [
        {
          "internalType": "address",
          "name": "newImplementation",
          "type": "address"
        }
      ],
      "name": "upgradeTo",
      "outputs": [],
      "stateMutability": "nonpayable",
      "type": "function"
    },
    {
      "inputs": [
        {
          "internalType": "address",
          "name": "newImplementation",
          "type": "address"
        },
        {
          "internalType": "bytes",
          "name": "data",
          "type": "bytes"
        }
      ],
      "name": "upgradeToAndCall",
      "outputs": [],
      "stateMutability": "payable",
      "type": "function"
    },
    {
      "inputs": [],
      "name": "version",
      "outputs": [
        {
          "internalType": "string",
          "name": "",
          "type": "string"
        }
      ],
      "stateMutability": "pure",
      "type": "function"
    }
  ],
  "bytecode": "0x60a06040523060601b60805234801561001757600080fd5b5060805160601c6123a861004b600039600081816106c10152818161070a015281816108a601526108e601526123a86000f3fe6080604052600436106101c15760003560e01c80636ef3da94116100f7578063a340cf7911610095578063c206200511610064578063c2062005146105a8578063c20d2295146105c8578063d5cb95ea146105e8578063ffa1ad7414610650576101c1565b8063a340cf79146104ee578063a3f4df7e1461051b578063a97dda401461055b578063b148440f1461057b576101c1565b80637e2e4c52116100d15780637e2e4c52146104925780638b1ce866146104a85780638d720802146104bb578063a1b3c184146104ce576101c1565b80636ef3da941461043c578063716a5b491461045c578063748365ef14610472576101c1565b8063337ccf9d11610164578063485cc9551161013e578063485cc9551461039a5780634f1ef286146103ba57806354fd4d50146103cd578063648afdee14610404576101c1565b8063337ccf9d1461034e5780633659cfe6146103645780633d20b15c14610386576101c1565b80631797df59116101a05780631797df59146102b35780631f741897146102f3578063200e06af146103095780632974526214610339576101c1565b8062e9236f146101c65780630ad2f0c3146101ef57806311167ae01461020f575b600080fd5b3480156101d257600080fd5b506101dc60ce5481565b6040519081526020015b60405180910390f35b3480156101fb57600080fd5b506101dc61020a366004611e2f565b610681565b34801561021b57600080fd5b5061027461022a366004612059565b60d360205260009081526040902080546001820154600283015460038401546004850154600586015460069096015494956001600160a01b03948516959394928316939192169087565b604080519788526001600160a01b0396871660208901528701949094529184166060860152608085015290911660a083015260c082015260e0016101e6565b3480156102bf57600080fd5b506102e36102ce366004612059565b600090815260d2602052604090205460ff1690565b60405190151581526020016101e6565b3480156102ff57600080fd5b506101dc60cb5481565b34801561031557600080fd5b506102e3610324366004612059565b60d26020526000908152604090205460ff1681565b34801561034557600080fd5b506101dc606481565b34801561035a57600080fd5b506101dc60cd5481565b34801561037057600080fd5b5061038461037f366004611e2f565b6106b6565b005b34801561039257600080fd5b5060016102e3565b3480156103a657600080fd5b506103846103b5366004611f7b565b610788565b6103846103c8366004611ea0565b61089b565b3480156103d957600080fd5b506040805180820190915260058152640302e322e360dc1b60208201525b6040516101e69190612165565b34801561041057600080fd5b5060ca54610424906001600160a01b031681565b6040516001600160a01b0390911681526020016101e6565b34801561044857600080fd5b50610384610457366004611e2f565b610955565b34801561046857600080fd5b506101dc60cf5481565b34801561047e57600080fd5b5060c954610424906001600160a01b031681565b34801561049e57600080fd5b506101dc60cc5481565b6103846104b6366004611fa8565b610a98565b6103846104c9366004611fa8565b610e17565b3480156104da57600080fd5b506103846104e9366004612059565b6110d1565b3480156104fa57600080fd5b506101dc610509366004611e2f565b60d16020526000908152604090205481565b34801561052757600080fd5b506103f7604051806040016040528060148152602001734854503a2045524337323120526567697374727960601b81525081565b34801561056757600080fd5b50610384610576366004612089565b61117b565b34801561058757600080fd5b506101dc610596366004611e2f565b60d06020526000908152604090205481565b3480156105b457600080fd5b506103846105c3366004611e2f565b611240565b3480156105d457600080fd5b506103846105e33660046120ad565b611394565b3480156105f457600080fd5b50610274610603366004612059565b600090815260d36020526040902080546001820154600283015460038401546004850154600586015460069096015494966001600160a01b03948516969395928516949193919091169190565b34801561065c57600080fd5b506103f7604051806040016040528060058152602001640302e322e360dc1b81525081565b6001600160a01b038116600090815260d1602090815260408083205460d09092528220546106ae916114f1565b90505b919050565b306001600160a01b037f00000000000000000000000000000000000000000000000000000000000000001614156107085760405162461bcd60e51b81526004016106ff90612198565b60405180910390fd5b7f00000000000000000000000000000000000000000000000000000000000000006001600160a01b031661073a611504565b6001600160a01b0316146107605760405162461bcd60e51b81526004016106ff906121e4565b61076981611532565b60408051600080825260208201909252610785918391906115d7565b50565b600054610100900460ff166107a35760005460ff16156107a7565b303b155b61080a5760405162461bcd60e51b815260206004820152602e60248201527f496e697469616c697a61626c653a20636f6e747261637420697320616c72656160448201526d191e481a5b9a5d1a585b1a5e995960921b60648201526084016106ff565b600054610100900460ff16158015610835576000805460ff1961ff0019909116610100171660011790555b60c980546001600160a01b038086166001600160a01b03199283161790925560ca805492851692909116919091179055600060ce5566038d7ea4c6800060cf55601460cb55601e60cc55603260cd558015610896576000805461ff00191690555b505050565b306001600160a01b037f00000000000000000000000000000000000000000000000000000000000000001614156108e45760405162461bcd60e51b81526004016106ff90612198565b7f00000000000000000000000000000000000000000000000000000000000000006001600160a01b0316610916611504565b6001600160a01b03161461093c5760405162461bcd60e51b81526004016106ff906121e4565b61094582611532565b610951828260016115d7565b5050565b60c9546001600160a01b03166324d7806c336040516001600160e01b031960e084901b1681526001600160a01b03909116600482015260240160206040518083038186803b1580156109a657600080fd5b505afa1580156109ba573d6000803e3d6000fd5b505050506040513d601f19601f820116820180604052508101906109de9190611f5f565b6109fa5760405162461bcd60e51b81526004016106ff90612230565b6001600160a01b038116610a765760405162461bcd60e51b815260206004820152603a60248201527f4552433732314861736874616752656769737472792e7570646174654163636560448201527f7373436f6e74726f6c733a2043616e6e6f74206265207a65726f00000000000060648201526084016106ff565b60c980546001600160a01b0319166001600160a01b0392909216919091179055565b60026033541415610aeb5760405162461bcd60e51b815260206004820152601f60248201527f5265656e7472616e637947756172643a207265656e7472616e742063616c6c0060448201526064016106ff565b600260335560c954604051630830b35960e31b81526001600160a01b038581166004830152909116906341859ac89060240160206040518083038186803b158015610b3557600080fd5b505afa158015610b49573d6000803e3d6000fd5b505050506040513d601f19601f82011682018060405250810190610b6d9190611f5f565b610bc85760405162461bcd60e51b815260206004820152602660248201527f5461673a20546865207075626c6973686572206d7573742062652077686974656044820152651b1a5cdd195960d21b60648201526084016106ff565b60cf54341015610c1a5760405162461bcd60e51b815260206004820152601a60248201527f5461673a20596f75206d7573742073656e64207468652066656500000000000060448201526064016106ff565b604051631797df5960e01b8152600481018290523090631797df599060240160206040518083038186803b158015610c5157600080fd5b505afa158015610c65573d6000803e3d6000fd5b505050506040513d601f19601f82011682018060405250810190610c899190611f5f565b610ce55760405162461bcd60e51b815260206004820152602760248201527f5461673a2054616767696e672074617267657420636861696e206e6f742070656044820152661c9b5a5d1d195960ca1b60648201526084016106ff565b60ca54604051635408dd7160e01b81526000916001600160a01b031690635408dd7190610d18908b908b90600401612114565b60206040518083038186803b158015610d3057600080fd5b505afa158015610d44573d6000803e3d6000fd5b505050506040513d601f19601f82011682018060405250810190610d689190612071565b905080610dfa5760ca54604051633f36ca2f60e11b81526001600160a01b0390911690637e6d945e90610da5908b908b9089908990600401612130565b602060405180830381600087803b158015610dbf57600080fd5b505af1158015610dd3573d6000803e3d6000fd5b505050506040513d601f19601f82011682018060405250810190610df79190612071565b90505b610e08818787878787611722565b50506001603355505050505050565b60c954604051630830b35960e31b81526001600160a01b038581166004830152909116906341859ac89060240160206040518083038186803b158015610e5c57600080fd5b505afa158015610e70573d6000803e3d6000fd5b505050506040513d601f19601f82011682018060405250810190610e949190611f5f565b610ef85760405162461bcd60e51b815260206004820152602f60248201527f4d696e7420616e64207461673a20546865207075626c6973686572206d75737460448201526e081899481dda1a5d195b1a5cdd1959608a1b60648201526084016106ff565b60cf54341015610f5a5760405162461bcd60e51b815260206004820152602760248201527f4d696e7420616e64207461673a20596f75206d7573742073656e6420746865206044820152667461672066656560c81b60648201526084016106ff565b604051631797df5960e01b8152600481018290523090631797df599060240160206040518083038186803b158015610f9157600080fd5b505afa158015610fa5573d6000803e3d6000fd5b505050506040513d601f19601f82011682018060405250810190610fc99190611f5f565b61102e5760405162461bcd60e51b815260206004820152603060248201527f4d696e7420616e64207461673a2054616767696e67207461726765742063686160448201526f1a5b881b9bdd081c195c9b5a5d1d195960821b60648201526084016106ff565b60ca54604051633f36ca2f60e11b81526000916001600160a01b031690637e6d945e90611065908b908b9089908990600401612130565b602060405180830381600087803b15801561107f57600080fd5b505af1158015611093573d6000803e3d6000fd5b505050506040513d601f19601f820116820180604052508101906110b79190612071565b90506110c7818787878787611722565b5050505050505050565b60c9546001600160a01b03166324d7806c336040516001600160e01b031960e084901b1681526001600160a01b03909116600482015260240160206040518083038186803b15801561112257600080fd5b505afa158015611136573d6000803e3d6000fd5b505050506040513d601f19601f8201168201806040525081019061115a9190611f5f565b6111765760405162461bcd60e51b81526004016106ff90612230565b60cf55565b60c9546001600160a01b03166324d7806c336040516001600160e01b031960e084901b1681526001600160a01b03909116600482015260240160206040518083038186803b1580156111cc57600080fd5b505afa1580156111e0573d6000803e3d6000fd5b505050506040513d601f19601f820116820180604052508101906112049190611f5f565b6112205760405162461bcd60e51b81526004016106ff90612230565b600091825260d26020526040909120805460ff1916911515919091179055565b600260335414156112935760405162461bcd60e51b815260206004820152601f60248201527f5265656e7472616e637947756172643a207265656e7472616e742063616c6c0060448201526064016106ff565b60026033556001600160a01b038116600090815260d1602090815260408083205460d09092528220546112c5916114f1565b90506000811180156112d75750478111155b1561138b576001600160a01b038216600090815260d160205260409020546112ff9082611bf7565b6001600160a01b038316600081815260d16020526040808220939093559151909183156108fc02918491818181858888f19350505050158015611346573d6000803e3d6000fd5b50816001600160a01b03167f59901f31ae2f183042d33e59b8b37be57d21ddf6351ebf066ee2eace7229bdfa8260405161138291815260200190565b60405180910390a25b50506001603355565b60c9546001600160a01b03166324d7806c336040516001600160e01b031960e084901b1681526001600160a01b03909116600482015260240160206040518083038186803b1580156113e557600080fd5b505afa1580156113f9573d6000803e3d6000fd5b505050506040513d601f19601f8201168201806040525081019061141d9190611f5f565b6114395760405162461bcd60e51b81526004016106ff90612230565b60646114458383611bf7565b11156114cb5760405162461bcd60e51b815260206004820152604960248201527f4552433732314861736874616752656769737472792e7570646174655065726360448201527f656e74616765733a2070657263656e7461676573206d757374206e6f742062656064820152680206f766572203130360bc1b608482015260a4016106ff565b60cb82905560cc8190556114ea816114e46064856114f1565b906114f1565b60cd555050565b60006114fd82846122b5565b9392505050565b7f360894a13ba1a3210667c828492db98dca3e2076cc3735a920a3ca505d382bbc546001600160a01b031690565b60c9546001600160a01b03166324d7806c336040516001600160e01b031960e084901b1681526001600160a01b03909116600482015260240160206040518083038186803b15801561158357600080fd5b505afa158015611597573d6000803e3d6000fd5b505050506040513d601f19601f820116820180604052508101906115bb9190611f5f565b6107855760405162461bcd60e51b81526004016106ff90612230565b60006115e1611504565b90506115ec84611c03565b6000835111806115f95750815b1561160a576116088484611ca8565b505b7f4910fdfa16fed3260ed0e7147f7cc6da11a60208b5b9406d12a635614ffd9143805460ff1661171b57805460ff191660011781556040516001600160a01b038316602482015261168990869060440160408051601f198184030181529190526020810180516001600160e01b0316631b2ce7f360e11b179052611ca8565b50805460ff1916815561169a611504565b6001600160a01b0316826001600160a01b0316146117125760405162461bcd60e51b815260206004820152602f60248201527f45524331393637557067726164653a207570677261646520627265616b73206660448201526e75727468657220757067726164657360881b60648201526084016106ff565b61171b85611d93565b5050505050565b60ca546001600160a01b03868116911614156117a65760405162461bcd60e51b815260206004820152603c60248201527f5461673a20496e76616c696420746167202d20796f752061726520617474656d60448201527f7074696e6720746f2074616720616e6f7468657220686173687461670000000060648201526084016106ff565b6001600160a01b03851661180c5760405162461bcd60e51b815260206004820152602760248201527f66756e6374696f6e2063616c6c20746f2061206e6f6e2d636f6e7472616374206044820152666164647265737360c81b60648201526084016106ff565b60ce5461181a906001611bf7565b60ce8190556040805160e0810182528881526001600160a01b0388811660208084019182528385018a81528884166060860190815242608087019081528b861660a0880190815260c088018b815260008b815260d39096528986209851895595516001890180549189166001600160a01b03199283161790559351600289015591516003880180549188169185169190911790555160048088019190915590516005870180549187169190931617909155915160069094019390935560ca54935163878327ab60e01b81529081018b90529192839291169063878327ab90602401604080518083038186803b15801561191257600080fd5b505afa158015611926573d6000803e3d6000fd5b505050506040513d601f19601f8201168201806040525081019061194a9190611e67565b91509150816001600160a01b0316816001600160a01b03161415611aeb576119aa61198b606461198560cb5434611dd390919063ffffffff16565b90611ddf565b6001600160a01b038416600090815260d0602052604090205490611bf7565b6001600160a01b038316600090815260d0602052604090205560cc546119fb906119dc90606490611985903490611dd3565b6001600160a01b038816600090815260d0602052604090205490611bf7565b6001600160a01b03878116600090815260d060205260408082209390935560ca54925163a30b4db960e01b8152600481018d905290929091169063a30b4db99060240160206040518083038186803b158015611a5657600080fd5b505afa158015611a6a573d6000803e3d6000fd5b505050506040513d601f19601f82011682018060405250810190611a8e9190611e4b565b9050611acc611aad606461198560cd5434611dd390919063ffffffff16565b6001600160a01b038316600090815260d0602052604090205490611bf7565b6001600160a01b03909116600090815260d06020526040902055611b86565b611b0861198b606461198560cb5434611dd390919063ffffffff16565b6001600160a01b038316600090815260d0602052604090205560cc54611b3a906119dc90606490611985903490611dd3565b6001600160a01b038716600090815260d0602052604090205560cd54611b6c90611aad90606490611985903490611dd3565b6001600160a01b038216600090815260d060205260409020555b60cf54604080518b8152602081018a90529081018590526060810191909152608081018590526001600160a01b03808816918a8216918816907f40a9ba9de8394714f8ec93689783918c2ab7f2d7c763c5b804dd219851a253139060a00160405180910390a4505050505050505050565b60006114fd828461225e565b803b611c675760405162461bcd60e51b815260206004820152602d60248201527f455243313936373a206e657720696d706c656d656e746174696f6e206973206e60448201526c1bdd08184818dbdb9d1c9858dd609a1b60648201526084016106ff565b7f360894a13ba1a3210667c828492db98dca3e2076cc3735a920a3ca505d382bbc80546001600160a01b0319166001600160a01b0392909216919091179055565b6060823b611d075760405162461bcd60e51b815260206004820152602660248201527f416464726573733a2064656c65676174652063616c6c20746f206e6f6e2d636f6044820152651b9d1c9858dd60d21b60648201526084016106ff565b600080846001600160a01b031684604051611d2291906120f8565b600060405180830381855af49150503d8060008114611d5d576040519150601f19603f3d011682016040523d82523d6000602084013e611d62565b606091505b5091509150611d8a828260405180606001604052806027815260200161234c60279139611deb565b95945050505050565b611d9c81611c03565b6040516001600160a01b038216907fbc7cd75a20ee27fd9adebab32041f755214dbc6bffa90cc0225b39da2e5c2d3b90600090a250565b60006114fd8284612296565b60006114fd8284612276565b60608315611dfa5750816114fd565b825115611e0a5782518084602001fd5b8160405162461bcd60e51b81526004016106ff9190612165565b80356106b181612328565b600060208284031215611e40578081fd5b81356114fd81612328565b600060208284031215611e5c578081fd5b81516114fd81612328565b60008060408385031215611e79578081fd5b8251611e8481612328565b6020840151909250611e9581612328565b809150509250929050565b60008060408385031215611eb2578182fd5b8235611ebd81612328565b9150602083013567ffffffffffffffff80821115611ed9578283fd5b818501915085601f830112611eec578283fd5b813581811115611efe57611efe612312565b604051601f8201601f19908116603f01168101908382118183101715611f2657611f26612312565b81604052828152886020848701011115611f3e578586fd5b82602086016020830137856020848301015280955050505050509250929050565b600060208284031215611f70578081fd5b81516114fd8161233d565b60008060408385031215611f8d578182fd5b8235611f9881612328565b91506020830135611e9581612328565b600080600080600080600060c0888a031215611fc2578283fd5b873567ffffffffffffffff80821115611fd9578485fd5b818a0191508a601f830112611fec578485fd5b813581811115611ffa578586fd5b8b602082850101111561200b578586fd5b602092830199509750612021918a019050611e24565b94506040880135935061203660608901611e24565b925061204460808901611e24565b915060a0880135905092959891949750929550565b60006020828403121561206a578081fd5b5035919050565b600060208284031215612082578081fd5b5051919050565b6000806040838503121561209b578182fd5b823591506020830135611e958161233d565b600080604083850312156120bf578182fd5b50508035926020909101359150565b60008284528282602086013780602084860101526020601f19601f85011685010190509392505050565b6000825161210a8184602087016122cc565b9190910192915050565b6000602082526121286020830184866120ce565b949350505050565b6000606082526121446060830186886120ce565b6001600160a01b039485166020840152929093166040909101529392505050565b60006020825282518060208401526121848160408501602087016122cc565b601f01601f19169190910160400192915050565b6020808252602c908201527f46756e6374696f6e206d7573742062652063616c6c6564207468726f7567682060408201526b19195b1959d85d1958d85b1b60a21b606082015260800190565b6020808252602c908201527f46756e6374696f6e206d7573742062652063616c6c6564207468726f7567682060408201526b6163746976652070726f787960a01b606082015260800190565b60208082526014908201527321b0b63632b91036bab9ba1031329030b236b4b760611b604082015260600190565b60008219821115612271576122716122fc565b500190565b60008261229157634e487b7160e01b81526012600452602481fd5b500490565b60008160001904831182151516156122b0576122b06122fc565b500290565b6000828210156122c7576122c76122fc565b500390565b60005b838110156122e75781810151838201526020016122cf565b838111156122f6576000848401525b50505050565b634e487b7160e01b600052601160045260246000fd5b634e487b7160e01b600052604160045260246000fd5b6001600160a01b038116811461078557600080fd5b801515811461078557600080fdfe416464726573733a206c6f772d6c6576656c2064656c65676174652063616c6c206661696c6564a26469706673582212200238a242a4e2850c7d476650c8458babf99cbccf0ae5c21ae037ba8a3d036c6964736f6c63430008020033",
  "linkReferences": {},
  "deployedLinkReferences": {}
}