{
  "_format": "hh-sol-artifact-1",
  "contractName": "HashtagAccessControlsUpgrade",
  "sourceName": "contracts/utils/UUPS/UUPSTesting.sol",
  "abi": [
    {
      "anonymous": false,
      "inputs": [
        {
          "indexed": false,
          "internalType": "address",
          "name": "previousAdmin",
          "type": "address"
        },
        {
          "indexed": false,
          "internalType": "address",
          "name": "newAdmin",
          "type": "address"
        }
      ],
      "name": "AdminChanged",
      "type": "event"
    },
    {
      "anonymous": false,
      "inputs": [
        {
          "indexed": true,
          "internalType": "address",
          "name": "beacon",
          "type": "address"
        }
      ],
      "name": "BeaconUpgraded",
      "type": "event"
    },
    {
      "anonymous": false,
      "inputs": [
        {
          "indexed": true,
          "internalType": "bytes32",
          "name": "role",
          "type": "bytes32"
        },
        {
          "indexed": true,
          "internalType": "bytes32",
          "name": "previousAdminRole",
          "type": "bytes32"
        },
        {
          "indexed": true,
          "internalType": "bytes32",
          "name": "newAdminRole",
          "type": "bytes32"
        }
      ],
      "name": "RoleAdminChanged",
      "type": "event"
    },
    {
      "anonymous": false,
      "inputs": [
        {
          "indexed": true,
          "internalType": "bytes32",
          "name": "role",
          "type": "bytes32"
        },
        {
          "indexed": true,
          "internalType": "address",
          "name": "account",
          "type": "address"
        },
        {
          "indexed": true,
          "internalType": "address",
          "name": "sender",
          "type": "address"
        }
      ],
      "name": "RoleGranted",
      "type": "event"
    },
    {
      "anonymous": false,
      "inputs": [
        {
          "indexed": true,
          "internalType": "bytes32",
          "name": "role",
          "type": "bytes32"
        },
        {
          "indexed": true,
          "internalType": "address",
          "name": "account",
          "type": "address"
        },
        {
          "indexed": true,
          "internalType": "address",
          "name": "sender",
          "type": "address"
        }
      ],
      "name": "RoleRevoked",
      "type": "event"
    },
    {
      "anonymous": false,
      "inputs": [
        {
          "indexed": true,
          "internalType": "address",
          "name": "implementation",
          "type": "address"
        }
      ],
      "name": "Upgraded",
      "type": "event"
    },
    {
      "inputs": [],
      "name": "DEFAULT_ADMIN_ROLE",
      "outputs": [
        {
          "internalType": "bytes32",
          "name": "",
          "type": "bytes32"
        }
      ],
      "stateMutability": "view",
      "type": "function"
    },
    {
      "inputs": [],
      "name": "NAME",
      "outputs": [
        {
          "internalType": "string",
          "name": "",
          "type": "string"
        }
      ],
      "stateMutability": "view",
      "type": "function"
    },
    {
      "inputs": [],
      "name": "PUBLISHER_ROLE",
      "outputs": [
        {
          "internalType": "bytes32",
          "name": "",
          "type": "bytes32"
        }
      ],
      "stateMutability": "view",
      "type": "function"
    },
    {
      "inputs": [],
      "name": "SMART_CONTRACT_ROLE",
      "outputs": [
        {
          "internalType": "bytes32",
          "name": "",
          "type": "bytes32"
        }
      ],
      "stateMutability": "view",
      "type": "function"
    },
    {
      "inputs": [],
      "name": "VERSION",
      "outputs": [
        {
          "internalType": "string",
          "name": "",
          "type": "string"
        }
      ],
      "stateMutability": "view",
      "type": "function"
    },
    {
      "inputs": [
        {
          "internalType": "bytes32",
          "name": "role",
          "type": "bytes32"
        }
      ],
      "name": "getRoleAdmin",
      "outputs": [
        {
          "internalType": "bytes32",
          "name": "",
          "type": "bytes32"
        }
      ],
      "stateMutability": "view",
      "type": "function"
    },
    {
      "inputs": [
        {
          "internalType": "bytes32",
          "name": "role",
          "type": "bytes32"
        },
        {
          "internalType": "address",
          "name": "account",
          "type": "address"
        }
      ],
      "name": "grantRole",
      "outputs": [],
      "stateMutability": "nonpayable",
      "type": "function"
    },
    {
      "inputs": [
        {
          "internalType": "bytes32",
          "name": "role",
          "type": "bytes32"
        },
        {
          "internalType": "address",
          "name": "account",
          "type": "address"
        }
      ],
      "name": "hasRole",
      "outputs": [
        {
          "internalType": "bool",
          "name": "",
          "type": "bool"
        }
      ],
      "stateMutability": "view",
      "type": "function"
    },
    {
      "inputs": [],
      "name": "initialize",
      "outputs": [],
      "stateMutability": "nonpayable",
      "type": "function"
    },
    {
      "inputs": [
        {
          "internalType": "address",
          "name": "_addr",
          "type": "address"
        }
      ],
      "name": "isAdmin",
      "outputs": [
        {
          "internalType": "bool",
          "name": "",
          "type": "bool"
        }
      ],
      "stateMutability": "view",
      "type": "function"
    },
    {
      "inputs": [
        {
          "internalType": "address",
          "name": "_addr",
          "type": "address"
        }
      ],
      "name": "isPublisher",
      "outputs": [
        {
          "internalType": "bool",
          "name": "",
          "type": "bool"
        }
      ],
      "stateMutability": "view",
      "type": "function"
    },
    {
      "inputs": [
        {
          "internalType": "address",
          "name": "_addr",
          "type": "address"
        }
      ],
      "name": "isSmartContract",
      "outputs": [
        {
          "internalType": "bool",
          "name": "",
          "type": "bool"
        }
      ],
      "stateMutability": "view",
      "type": "function"
    },
    {
      "inputs": [
        {
          "internalType": "string",
          "name": "message",
          "type": "string"
        }
      ],
      "name": "postUpgrade",
      "outputs": [],
      "stateMutability": "view",
      "type": "function"
    },
    {
      "inputs": [
        {
          "internalType": "bytes32",
          "name": "role",
          "type": "bytes32"
        },
        {
          "internalType": "address",
          "name": "account",
          "type": "address"
        }
      ],
      "name": "renounceRole",
      "outputs": [],
      "stateMutability": "nonpayable",
      "type": "function"
    },
    {
      "inputs": [
        {
          "internalType": "bytes32",
          "name": "role",
          "type": "bytes32"
        },
        {
          "internalType": "address",
          "name": "account",
          "type": "address"
        }
      ],
      "name": "revokeRole",
      "outputs": [],
      "stateMutability": "nonpayable",
      "type": "function"
    },
    {
      "inputs": [
        {
          "internalType": "bytes4",
          "name": "interfaceId",
          "type": "bytes4"
        }
      ],
      "name": "supportsInterface",
      "outputs": [
        {
          "internalType": "bool",
          "name": "",
          "type": "bool"
        }
      ],
      "stateMutability": "view",
      "type": "function"
    },
    {
      "inputs": [],
      "name": "upgradeTest",
      "outputs": [
        {
          "internalType": "bool",
          "name": "",
          "type": "bool"
        }
      ],
      "stateMutability": "pure",
      "type": "function"
    },
    {
      "inputs": [
        {
          "internalType": "address",
          "name": "newImplementation",
          "type": "address"
        }
      ],
      "name": "upgradeTo",
      "outputs": [],
      "stateMutability": "nonpayable",
      "type": "function"
    },
    {
      "inputs": [
        {
          "internalType": "address",
          "name": "newImplementation",
          "type": "address"
        },
        {
          "internalType": "bytes",
          "name": "data",
          "type": "bytes"
        }
      ],
      "name": "upgradeToAndCall",
      "outputs": [],
      "stateMutability": "payable",
      "type": "function"
    },
    {
      "inputs": [],
      "name": "upgraded",
      "outputs": [
        {
          "internalType": "string",
          "name": "",
          "type": "string"
        }
      ],
      "stateMutability": "pure",
      "type": "function"
    },
    {
      "inputs": [],
      "name": "version",
      "outputs": [
        {
          "internalType": "string",
          "name": "",
          "type": "string"
        }
      ],
      "stateMutability": "pure",
      "type": "function"
    }
  ],
  "bytecode": "0x60a06040523060601b60805234801561001757600080fd5b5060805160601c61151861004b6000396000818161058d015281816105cd0152818161068201526106c201526115186000f3fe60806040526004361061012a5760003560e01c806354fd4d50116100ab578063a3f4df7e1161006f578063a3f4df7e14610340578063b1441ce614610389578063c28de2cd146103a9578063d547741f146103dd578063d8f4b6fd146103fd578063ffa1ad74146104315761012a565b806354fd4d501461028b5780638129fc1c146102c2578063857d2608146102d757806391d148541461030b578063a217fddf1461032b5761012a565b806336568abe116100f257806336568abe146102045780633659cfe6146102245780633d20b15c1461024457806341859ac8146102585780634f1ef286146102785761012a565b806301ffc9a71461012f578063248a9ca31461016457806324d7806c146101a25780632f2ff15d146101c2578063347308b2146101e4575b600080fd5b34801561013b57600080fd5b5061014f61014a3660046111a4565b610462565b60405190151581526020015b60405180910390f35b34801561017057600080fd5b5061019461017f366004611161565b60009081526065602052604090206001015490565b60405190815260200161015b565b3480156101ae57600080fd5b5061014f6101bd36600461108a565b61049b565b3480156101ce57600080fd5b506101e26101dd366004611179565b6104a7565b005b3480156101f057600080fd5b5061014f6101ff36600461108a565b6104d3565b34801561021057600080fd5b506101e261021f366004611179565b6104ff565b34801561023057600080fd5b506101e261023f36600461108a565b610582565b34801561025057600080fd5b50600161014f565b34801561026457600080fd5b5061014f61027336600461108a565b61064b565b6101e26102863660046110a4565b610677565b34801561029757600080fd5b50604080518082019091526005815264302e322e3160d81b60208201525b60405161015b91906112f6565b3480156102ce57600080fd5b506101e261072d565b3480156102e357600080fd5b506101947f5474431f81b75a7b45d74ffe5ff51964b4290ef4c86184accd4e4a9822dae90181565b34801561031757600080fd5b5061014f610326366004611179565b610801565b34801561033757600080fd5b50610194600081565b34801561034c57600080fd5b506102b56040518060400160405280601c81526020017f4854503a20484153485441472050726f746f636f6c204163636573730000000081525081565b34801561039557600080fd5b506101e26103a43660046111cc565b61082c565b3480156103b557600080fd5b5060408051808201909152600b81526a1e5bdd481adb9bddc81a5d60aa1b60208201526102b5565b3480156103e957600080fd5b506101e26103f8366004611179565b6108ad565b34801561040957600080fd5b506101947fad312f08b8889cfe65ec2f1faae419f8b47f0153a3483ea6130918c055c8183d81565b34801561043d57600080fd5b506102b560405180604001604052806005815260200164302e322e3160d81b81525081565b60006001600160e01b03198216637965db0b60e01b148061049357506301ffc9a760e01b6001600160e01b03198316145b90505b919050565b60006104938183610801565b6000828152606560205260409020600101546104c481335b6108d3565b6104ce8383610937565b505050565b60006104937f5474431f81b75a7b45d74ffe5ff51964b4290ef4c86184accd4e4a9822dae90183610801565b6001600160a01b03811633146105745760405162461bcd60e51b815260206004820152602f60248201527f416363657373436f6e74726f6c3a2063616e206f6e6c792072656e6f756e636560448201526e103937b632b9903337b91039b2b63360891b60648201526084015b60405180910390fd5b61057e82826109bd565b5050565b306001600160a01b037f00000000000000000000000000000000000000000000000000000000000000001614156105cb5760405162461bcd60e51b815260040161056b9061132e565b7f00000000000000000000000000000000000000000000000000000000000000006001600160a01b03166105fd610a24565b6001600160a01b0316146106235760405162461bcd60e51b815260040161056b9061137a565b61062c81610a52565b6040805160008082526020820190925261064891839190610a5e565b50565b60006104937fad312f08b8889cfe65ec2f1faae419f8b47f0153a3483ea6130918c055c8183d83610801565b306001600160a01b037f00000000000000000000000000000000000000000000000000000000000000001614156106c05760405162461bcd60e51b815260040161056b9061132e565b7f00000000000000000000000000000000000000000000000000000000000000006001600160a01b03166106f2610a24565b6001600160a01b0316146107185760405162461bcd60e51b815260040161056b9061137a565b61072182610a52565b61057e82826001610a5e565b600054610100900460ff166107485760005460ff161561074c565b303b155b6107af5760405162461bcd60e51b815260206004820152602e60248201527f496e697469616c697a61626c653a20636f6e747261637420697320616c72656160448201526d191e481a5b9a5d1a585b1a5e995960921b606482015260840161056b565b600054610100900460ff161580156107da576000805460ff1961ff0019909116610100171660011790555b6107e2610ba9565b6107ed600033610bea565b8015610648576000805461ff001916905550565b60009182526065602090815260408084206001600160a01b0393909316845291905290205460ff1690565b600061083881336104bf565b6104ce6040518060400160405280601e81526020017f48617368746167416363657373436f6e74726f6c73207570677261646564000081525084848080601f016020809104026020016040519081016040528093929190818152602001838380828437600092019190915250610bf492505050565b6000828152606560205260409020600101546108c981336104bf565b6104ce83836109bd565b6108dd8282610801565b61057e576108f5816001600160a01b03166014610c39565b610900836020610c39565b604051602001610911929190611281565b60408051601f198184030181529082905262461bcd60e51b825261056b916004016112f6565b6109418282610801565b61057e5760008281526065602090815260408083206001600160a01b03851684529091529020805460ff191660011790556109793390565b6001600160a01b0316816001600160a01b0316837f2f8788117e7eff1d82e926ec794901d17c78024a50270940304540a733656f0d60405160405180910390a45050565b6109c78282610801565b1561057e5760008281526065602090815260408083206001600160a01b0385168085529252808320805460ff1916905551339285917ff6391f5c32d9c69d2a47ea670b442974b53935d1edc7fd64eb21e047a839171b9190a45050565b7f360894a13ba1a3210667c828492db98dca3e2076cc3735a920a3ca505d382bbc546001600160a01b031690565b600061057e81336104bf565b6000610a68610a24565b9050610a7384610e22565b600083511180610a805750815b15610a9157610a8f8484610ec7565b505b7f4910fdfa16fed3260ed0e7147f7cc6da11a60208b5b9406d12a635614ffd9143805460ff16610ba257805460ff191660011781556040516001600160a01b0383166024820152610b1090869060440160408051601f198184030181529190526020810180516001600160e01b0316631b2ce7f360e11b179052610ec7565b50805460ff19168155610b21610a24565b6001600160a01b0316826001600160a01b031614610b995760405162461bcd60e51b815260206004820152602f60248201527f45524331393637557067726164653a207570677261646520627265616b73206660448201526e75727468657220757067726164657360881b606482015260840161056b565b610ba285610fb2565b5050505050565b600054610100900460ff16610bd05760405162461bcd60e51b815260040161056b906113c6565b610bd8610ff2565b610be0610ff2565b610be8610ff2565b565b61057e8282610937565b61057e8282604051602401610c0a929190611309565b60408051601f198184030181529190526020810180516001600160e01b0316634b5c427760e01b179052611019565b60606000610c48836002611429565b610c53906002611411565b67ffffffffffffffff811115610c7957634e487b7160e01b600052604160045260246000fd5b6040519080825280601f01601f191660200182016040528015610ca3576020820181803683370190505b509050600360fc1b81600081518110610ccc57634e487b7160e01b600052603260045260246000fd5b60200101906001600160f81b031916908160001a905350600f60fb1b81600181518110610d0957634e487b7160e01b600052603260045260246000fd5b60200101906001600160f81b031916908160001a9053506000610d2d846002611429565b610d38906001611411565b90505b6001811115610dcc576f181899199a1a9b1b9c1cb0b131b232b360811b85600f1660108110610d7a57634e487b7160e01b600052603260045260246000fd5b1a60f81b828281518110610d9e57634e487b7160e01b600052603260045260246000fd5b60200101906001600160f81b031916908160001a90535060049490941c93610dc581611478565b9050610d3b565b508315610e1b5760405162461bcd60e51b815260206004820181905260248201527f537472696e67733a20686578206c656e67746820696e73756666696369656e74604482015260640161056b565b9392505050565b803b610e865760405162461bcd60e51b815260206004820152602d60248201527f455243313936373a206e657720696d706c656d656e746174696f6e206973206e60448201526c1bdd08184818dbdb9d1c9858dd609a1b606482015260840161056b565b7f360894a13ba1a3210667c828492db98dca3e2076cc3735a920a3ca505d382bbc80546001600160a01b0319166001600160a01b0392909216919091179055565b6060823b610f265760405162461bcd60e51b815260206004820152602660248201527f416464726573733a2064656c65676174652063616c6c20746f206e6f6e2d636f6044820152651b9d1c9858dd60d21b606482015260840161056b565b600080846001600160a01b031684604051610f419190611265565b600060405180830381855af49150503d8060008114610f7c576040519150601f19603f3d011682016040523d82523d6000602084013e610f81565b606091505b5091509150610fa982826040518060600160405280602781526020016114bc6027913961103a565b95945050505050565b610fbb81610e22565b6040516001600160a01b038216907fbc7cd75a20ee27fd9adebab32041f755214dbc6bffa90cc0225b39da2e5c2d3b90600090a250565b600054610100900460ff16610be85760405162461bcd60e51b815260040161056b906113c6565b80516a636f6e736f6c652e6c6f67602083016000808483855afa5050505050565b60608315611049575081610e1b565b8251156110595782518084602001fd5b8160405162461bcd60e51b815260040161056b91906112f6565b80356001600160a01b038116811461049657600080fd5b60006020828403121561109b578081fd5b610e1b82611073565b600080604083850312156110b6578081fd5b6110bf83611073565b9150602083013567ffffffffffffffff808211156110db578283fd5b818501915085601f8301126110ee578283fd5b813581811115611100576111006114a5565b604051601f8201601f19908116603f01168101908382118183101715611128576111286114a5565b81604052828152886020848701011115611140578586fd5b82602086016020830137856020848301015280955050505050509250929050565b600060208284031215611172578081fd5b5035919050565b6000806040838503121561118b578182fd5b8235915061119b60208401611073565b90509250929050565b6000602082840312156111b5578081fd5b81356001600160e01b031981168114610e1b578182fd5b600080602083850312156111de578182fd5b823567ffffffffffffffff808211156111f5578384fd5b818501915085601f830112611208578384fd5b813581811115611216578485fd5b866020828501011115611227578485fd5b60209290920196919550909350505050565b60008151808452611251816020860160208601611448565b601f01601f19169290920160200192915050565b60008251611277818460208701611448565b9190910192915050565b60007f416363657373436f6e74726f6c3a206163636f756e7420000000000000000000825283516112b9816017850160208801611448565b7001034b99036b4b9b9b4b733903937b6329607d1b60179184019182015283516112ea816028840160208801611448565b01602801949350505050565b600060208252610e1b6020830184611239565b60006040825261131c6040830185611239565b8281036020840152610fa98185611239565b6020808252602c908201527f46756e6374696f6e206d7573742062652063616c6c6564207468726f7567682060408201526b19195b1959d85d1958d85b1b60a21b606082015260800190565b6020808252602c908201527f46756e6374696f6e206d7573742062652063616c6c6564207468726f7567682060408201526b6163746976652070726f787960a01b606082015260800190565b6020808252602b908201527f496e697469616c697a61626c653a20636f6e7472616374206973206e6f74206960408201526a6e697469616c697a696e6760a81b606082015260800190565b600082198211156114245761142461148f565b500190565b60008160001904831182151516156114435761144361148f565b500290565b60005b8381101561146357818101518382015260200161144b565b83811115611472576000848401525b50505050565b6000816114875761148761148f565b506000190190565b634e487b7160e01b600052601160045260246000fd5b634e487b7160e01b600052604160045260246000fdfe416464726573733a206c6f772d6c6576656c2064656c65676174652063616c6c206661696c6564a264697066735822122084b59b7eb59ae93349508246d7937e65d6457137b40f506c3363f56151c3447064736f6c63430008020033",
  "linkReferences": {},
  "deployedLinkReferences": {}
}