{
  "_format": "hh-sol-artifact-1",
  "contractName": "ERC721HashtagRegistry",
  "sourceName": "contracts/release/ERC721HashtagRegistry.sol",
  "abi": [
    {
      "anonymous": false,
      "inputs": [
        {
          "indexed": false,
          "internalType": "address",
          "name": "previousAdmin",
          "type": "address"
        },
        {
          "indexed": false,
          "internalType": "address",
          "name": "newAdmin",
          "type": "address"
        }
      ],
      "name": "AdminChanged",
      "type": "event"
    },
    {
      "anonymous": false,
      "inputs": [
        {
          "indexed": true,
          "internalType": "address",
          "name": "beacon",
          "type": "address"
        }
      ],
      "name": "BeaconUpgraded",
      "type": "event"
    },
    {
      "anonymous": false,
      "inputs": [
        {
          "indexed": true,
          "internalType": "address",
          "name": "who",
          "type": "address"
        },
        {
          "indexed": false,
          "internalType": "uint256",
          "name": "amount",
          "type": "uint256"
        }
      ],
      "name": "DrawDown",
      "type": "event"
    },
    {
      "anonymous": false,
      "inputs": [
        {
          "indexed": true,
          "internalType": "address",
          "name": "tagger",
          "type": "address"
        },
        {
          "indexed": true,
          "internalType": "address",
          "name": "nftContract",
          "type": "address"
        },
        {
          "indexed": true,
          "internalType": "address",
          "name": "publisher",
          "type": "address"
        },
        {
          "indexed": false,
          "internalType": "uint256",
          "name": "hashtagId",
          "type": "uint256"
        },
        {
          "indexed": false,
          "internalType": "uint256",
          "name": "nftId",
          "type": "uint256"
        },
        {
          "indexed": false,
          "internalType": "uint256",
          "name": "tagId",
          "type": "uint256"
        },
        {
          "indexed": false,
          "internalType": "uint256",
          "name": "tagFee",
          "type": "uint256"
        },
        {
          "indexed": false,
          "internalType": "uint256",
          "name": "nftChainId",
          "type": "uint256"
        }
      ],
      "name": "HashtagRegistered",
      "type": "event"
    },
    {
      "anonymous": false,
      "inputs": [
        {
          "indexed": true,
          "internalType": "address",
          "name": "implementation",
          "type": "address"
        }
      ],
      "name": "Upgraded",
      "type": "event"
    },
    {
      "inputs": [],
      "name": "NAME",
      "outputs": [
        {
          "internalType": "string",
          "name": "",
          "type": "string"
        }
      ],
      "stateMutability": "view",
      "type": "function"
    },
    {
      "inputs": [],
      "name": "VERSION",
      "outputs": [
        {
          "internalType": "string",
          "name": "",
          "type": "string"
        }
      ],
      "stateMutability": "view",
      "type": "function"
    },
    {
      "inputs": [],
      "name": "accessControls",
      "outputs": [
        {
          "internalType": "contract HashtagAccessControls",
          "name": "",
          "type": "address"
        }
      ],
      "stateMutability": "view",
      "type": "function"
    },
    {
      "inputs": [
        {
          "internalType": "address",
          "name": "",
          "type": "address"
        }
      ],
      "name": "accrued",
      "outputs": [
        {
          "internalType": "uint256",
          "name": "",
          "type": "uint256"
        }
      ],
      "stateMutability": "view",
      "type": "function"
    },
    {
      "inputs": [
        {
          "internalType": "address payable",
          "name": "_account",
          "type": "address"
        }
      ],
      "name": "drawDown",
      "outputs": [],
      "stateMutability": "nonpayable",
      "type": "function"
    },
    {
      "inputs": [
        {
          "internalType": "uint256",
          "name": "_nftChainId",
          "type": "uint256"
        }
      ],
      "name": "getPermittedNftChainId",
      "outputs": [
        {
          "internalType": "bool",
          "name": "",
          "type": "bool"
        }
      ],
      "stateMutability": "view",
      "type": "function"
    },
    {
      "inputs": [
        {
          "internalType": "uint256",
          "name": "_tagId",
          "type": "uint256"
        }
      ],
      "name": "getTagInfo",
      "outputs": [
        {
          "internalType": "uint256",
          "name": "_hashtagId",
          "type": "uint256"
        },
        {
          "internalType": "address",
          "name": "_nftContract",
          "type": "address"
        },
        {
          "internalType": "uint256",
          "name": "_nftId",
          "type": "uint256"
        },
        {
          "internalType": "address",
          "name": "_tagger",
          "type": "address"
        },
        {
          "internalType": "uint256",
          "name": "_tagstamp",
          "type": "uint256"
        },
        {
          "internalType": "address",
          "name": "_publisher",
          "type": "address"
        },
        {
          "internalType": "uint256",
          "name": "_nftChainId",
          "type": "uint256"
        }
      ],
      "stateMutability": "view",
      "type": "function"
    },
    {
      "inputs": [],
      "name": "hashtagProtocol",
      "outputs": [
        {
          "internalType": "contract HashtagProtocol",
          "name": "",
          "type": "address"
        }
      ],
      "stateMutability": "view",
      "type": "function"
    },
    {
      "inputs": [
        {
          "internalType": "contract HashtagAccessControls",
          "name": "_accessControls",
          "type": "address"
        },
        {
          "internalType": "contract HashtagProtocol",
          "name": "_hashtagProtocol",
          "type": "address"
        }
      ],
      "name": "initialize",
      "outputs": [],
      "stateMutability": "nonpayable",
      "type": "function"
    },
    {
      "inputs": [
        {
          "internalType": "string",
          "name": "_hashtag",
          "type": "string"
        },
        {
          "internalType": "address",
          "name": "_nftContract",
          "type": "address"
        },
        {
          "internalType": "uint256",
          "name": "_nftId",
          "type": "uint256"
        },
        {
          "internalType": "address payable",
          "name": "_publisher",
          "type": "address"
        },
        {
          "internalType": "address",
          "name": "_tagger",
          "type": "address"
        },
        {
          "internalType": "uint256",
          "name": "_nftChainId",
          "type": "uint256"
        }
      ],
      "name": "mintAndTag",
      "outputs": [],
      "stateMutability": "payable",
      "type": "function"
    },
    {
      "inputs": [],
      "name": "modulo",
      "outputs": [
        {
          "internalType": "uint256",
          "name": "",
          "type": "uint256"
        }
      ],
      "stateMutability": "view",
      "type": "function"
    },
    {
      "inputs": [
        {
          "internalType": "address",
          "name": "",
          "type": "address"
        }
      ],
      "name": "paid",
      "outputs": [
        {
          "internalType": "uint256",
          "name": "",
          "type": "uint256"
        }
      ],
      "stateMutability": "view",
      "type": "function"
    },
    {
      "inputs": [
        {
          "internalType": "uint256",
          "name": "",
          "type": "uint256"
        }
      ],
      "name": "permittedNftChainIds",
      "outputs": [
        {
          "internalType": "bool",
          "name": "",
          "type": "bool"
        }
      ],
      "stateMutability": "view",
      "type": "function"
    },
    {
      "inputs": [],
      "name": "platformPercentage",
      "outputs": [
        {
          "internalType": "uint256",
          "name": "",
          "type": "uint256"
        }
      ],
      "stateMutability": "view",
      "type": "function"
    },
    {
      "inputs": [],
      "name": "publisherPercentage",
      "outputs": [
        {
          "internalType": "uint256",
          "name": "",
          "type": "uint256"
        }
      ],
      "stateMutability": "view",
      "type": "function"
    },
    {
      "inputs": [],
      "name": "remainingPercentage",
      "outputs": [
        {
          "internalType": "uint256",
          "name": "",
          "type": "uint256"
        }
      ],
      "stateMutability": "view",
      "type": "function"
    },
    {
      "inputs": [
        {
          "internalType": "uint256",
          "name": "_nftChainId",
          "type": "uint256"
        },
        {
          "internalType": "bool",
          "name": "_setting",
          "type": "bool"
        }
      ],
      "name": "setPermittedNftChainId",
      "outputs": [],
      "stateMutability": "nonpayable",
      "type": "function"
    },
    {
      "inputs": [
        {
          "internalType": "uint256",
          "name": "_fee",
          "type": "uint256"
        }
      ],
      "name": "setTagFee",
      "outputs": [],
      "stateMutability": "nonpayable",
      "type": "function"
    },
    {
      "inputs": [
        {
          "internalType": "string",
          "name": "_hashtag",
          "type": "string"
        },
        {
          "internalType": "address",
          "name": "_nftContract",
          "type": "address"
        },
        {
          "internalType": "uint256",
          "name": "_nftId",
          "type": "uint256"
        },
        {
          "internalType": "address payable",
          "name": "_publisher",
          "type": "address"
        },
        {
          "internalType": "address",
          "name": "_tagger",
          "type": "address"
        },
        {
          "internalType": "uint256",
          "name": "_nftChainId",
          "type": "uint256"
        }
      ],
      "name": "tag",
      "outputs": [],
      "stateMutability": "payable",
      "type": "function"
    },
    {
      "inputs": [],
      "name": "tagFee",
      "outputs": [
        {
          "internalType": "uint256",
          "name": "",
          "type": "uint256"
        }
      ],
      "stateMutability": "view",
      "type": "function"
    },
    {
      "inputs": [
        {
          "internalType": "uint256",
          "name": "",
          "type": "uint256"
        }
      ],
      "name": "tagIdToTag",
      "outputs": [
        {
          "internalType": "uint256",
          "name": "hashtagId",
          "type": "uint256"
        },
        {
          "internalType": "address",
          "name": "nftContract",
          "type": "address"
        },
        {
          "internalType": "uint256",
          "name": "nftId",
          "type": "uint256"
        },
        {
          "internalType": "address",
          "name": "tagger",
          "type": "address"
        },
        {
          "internalType": "uint256",
          "name": "tagstamp",
          "type": "uint256"
        },
        {
          "internalType": "address",
          "name": "publisher",
          "type": "address"
        },
        {
          "internalType": "uint256",
          "name": "nftChainId",
          "type": "uint256"
        }
      ],
      "stateMutability": "view",
      "type": "function"
    },
    {
      "inputs": [
        {
          "internalType": "address",
          "name": "_account",
          "type": "address"
        }
      ],
      "name": "totalDue",
      "outputs": [
        {
          "internalType": "uint256",
          "name": "_due",
          "type": "uint256"
        }
      ],
      "stateMutability": "view",
      "type": "function"
    },
    {
      "inputs": [],
      "name": "totalTags",
      "outputs": [
        {
          "internalType": "uint256",
          "name": "",
          "type": "uint256"
        }
      ],
      "stateMutability": "view",
      "type": "function"
    },
    {
      "inputs": [
        {
          "internalType": "contract HashtagAccessControls",
          "name": "_accessControls",
          "type": "address"
        }
      ],
      "name": "updateAccessControls",
      "outputs": [],
      "stateMutability": "nonpayable",
      "type": "function"
    },
    {
      "inputs": [
        {
          "internalType": "uint256",
          "name": "_platformPercentage",
          "type": "uint256"
        },
        {
          "internalType": "uint256",
          "name": "_publisherPercentage",
          "type": "uint256"
        }
      ],
      "name": "updatePercentages",
      "outputs": [],
      "stateMutability": "nonpayable",
      "type": "function"
    },
    {
      "inputs": [
        {
          "internalType": "address",
          "name": "newImplementation",
          "type": "address"
        }
      ],
      "name": "upgradeTo",
      "outputs": [],
      "stateMutability": "nonpayable",
      "type": "function"
    },
    {
      "inputs": [
        {
          "internalType": "address",
          "name": "newImplementation",
          "type": "address"
        },
        {
          "internalType": "bytes",
          "name": "data",
          "type": "bytes"
        }
      ],
      "name": "upgradeToAndCall",
      "outputs": [],
      "stateMutability": "payable",
      "type": "function"
    },
    {
      "inputs": [],
      "name": "version",
      "outputs": [
        {
          "internalType": "string",
          "name": "",
          "type": "string"
        }
      ],
      "stateMutability": "pure",
      "type": "function"
    }
  ],
  "bytecode": "0x60a06040523060601b60805234801561001757600080fd5b5060805160601c61238961004b600039600081816106a2015281816106eb0152818161088701526108c701526123896000f3fe6080604052600436106101b65760003560e01c8063716a5b49116100ec578063a3f4df7e1161008a578063c206200511610064578063c206200514610589578063c20d2295146105a9578063d5cb95ea146105c9578063ffa1ad7414610631576101b6565b8063a3f4df7e146104fc578063a97dda401461053c578063b148440f1461055c576101b6565b80638b1ce866116100c65780638b1ce866146104895780638d7208021461049c578063a1b3c184146104af578063a340cf79146104cf576101b6565b8063716a5b491461043d578063748365ef146104535780637e2e4c5214610473576101b6565b8063337ccf9d116101595780634f1ef286116101335780634f1ef2861461039b57806354fd4d50146103ae578063648afdee146103e55780636ef3da941461041d576101b6565b8063337ccf9d146103435780633659cfe614610359578063485cc9551461037b576101b6565b80631797df59116101955780631797df59146102a85780631f741897146102e8578063200e06af146102fe578063297452621461032e576101b6565b8062e9236f146101bb5780630ad2f0c3146101e457806311167ae014610204575b600080fd5b3480156101c757600080fd5b506101d160ce5481565b6040519081526020015b60405180910390f35b3480156101f057600080fd5b506101d16101ff366004611e10565b610662565b34801561021057600080fd5b5061026961021f36600461203a565b60d360205260009081526040902080546001820154600283015460038401546004850154600586015460069096015494956001600160a01b03948516959394928316939192169087565b604080519788526001600160a01b0396871660208901528701949094529184166060860152608085015290911660a083015260c082015260e0016101db565b3480156102b457600080fd5b506102d86102c336600461203a565b600090815260d2602052604090205460ff1690565b60405190151581526020016101db565b3480156102f457600080fd5b506101d160cb5481565b34801561030a57600080fd5b506102d861031936600461203a565b60d26020526000908152604090205460ff1681565b34801561033a57600080fd5b506101d1606481565b34801561034f57600080fd5b506101d160cd5481565b34801561036557600080fd5b50610379610374366004611e10565b610697565b005b34801561038757600080fd5b50610379610396366004611f5c565b610769565b6103796103a9366004611e81565b61087c565b3480156103ba57600080fd5b506040805180820190915260058152640302e322e360dc1b60208201525b6040516101db9190612146565b3480156103f157600080fd5b5060ca54610405906001600160a01b031681565b6040516001600160a01b0390911681526020016101db565b34801561042957600080fd5b50610379610438366004611e10565b610936565b34801561044957600080fd5b506101d160cf5481565b34801561045f57600080fd5b5060c954610405906001600160a01b031681565b34801561047f57600080fd5b506101d160cc5481565b610379610497366004611f89565b610a79565b6103796104aa366004611f89565b610df8565b3480156104bb57600080fd5b506103796104ca36600461203a565b6110b2565b3480156104db57600080fd5b506101d16104ea366004611e10565b60d16020526000908152604090205481565b34801561050857600080fd5b506103d8604051806040016040528060148152602001734854503a2045524337323120526567697374727960601b81525081565b34801561054857600080fd5b5061037961055736600461206a565b61115c565b34801561056857600080fd5b506101d1610577366004611e10565b60d06020526000908152604090205481565b34801561059557600080fd5b506103796105a4366004611e10565b611221565b3480156105b557600080fd5b506103796105c436600461208e565b611375565b3480156105d557600080fd5b506102696105e436600461203a565b600090815260d36020526040902080546001820154600283015460038401546004850154600586015460069096015494966001600160a01b03948516969395928516949193919091169190565b34801561063d57600080fd5b506103d8604051806040016040528060058152602001640302e322e360dc1b81525081565b6001600160a01b038116600090815260d1602090815260408083205460d090925282205461068f916114d2565b90505b919050565b306001600160a01b037f00000000000000000000000000000000000000000000000000000000000000001614156106e95760405162461bcd60e51b81526004016106e090612179565b60405180910390fd5b7f00000000000000000000000000000000000000000000000000000000000000006001600160a01b031661071b6114e5565b6001600160a01b0316146107415760405162461bcd60e51b81526004016106e0906121c5565b61074a81611513565b60408051600080825260208201909252610766918391906115b8565b50565b600054610100900460ff166107845760005460ff1615610788565b303b155b6107eb5760405162461bcd60e51b815260206004820152602e60248201527f496e697469616c697a61626c653a20636f6e747261637420697320616c72656160448201526d191e481a5b9a5d1a585b1a5e995960921b60648201526084016106e0565b600054610100900460ff16158015610816576000805460ff1961ff0019909116610100171660011790555b60c980546001600160a01b038086166001600160a01b03199283161790925560ca805492851692909116919091179055600060ce5566038d7ea4c6800060cf55601460cb55601e60cc55603260cd558015610877576000805461ff00191690555b505050565b306001600160a01b037f00000000000000000000000000000000000000000000000000000000000000001614156108c55760405162461bcd60e51b81526004016106e090612179565b7f00000000000000000000000000000000000000000000000000000000000000006001600160a01b03166108f76114e5565b6001600160a01b03161461091d5760405162461bcd60e51b81526004016106e0906121c5565b61092682611513565b610932828260016115b8565b5050565b60c9546001600160a01b03166324d7806c336040516001600160e01b031960e084901b1681526001600160a01b03909116600482015260240160206040518083038186803b15801561098757600080fd5b505afa15801561099b573d6000803e3d6000fd5b505050506040513d601f19601f820116820180604052508101906109bf9190611f40565b6109db5760405162461bcd60e51b81526004016106e090612211565b6001600160a01b038116610a575760405162461bcd60e51b815260206004820152603a60248201527f4552433732314861736874616752656769737472792e7570646174654163636560448201527f7373436f6e74726f6c733a2043616e6e6f74206265207a65726f00000000000060648201526084016106e0565b60c980546001600160a01b0319166001600160a01b0392909216919091179055565b60026033541415610acc5760405162461bcd60e51b815260206004820152601f60248201527f5265656e7472616e637947756172643a207265656e7472616e742063616c6c0060448201526064016106e0565b600260335560c954604051630830b35960e31b81526001600160a01b038581166004830152909116906341859ac89060240160206040518083038186803b158015610b1657600080fd5b505afa158015610b2a573d6000803e3d6000fd5b505050506040513d601f19601f82011682018060405250810190610b4e9190611f40565b610ba95760405162461bcd60e51b815260206004820152602660248201527f5461673a20546865207075626c6973686572206d7573742062652077686974656044820152651b1a5cdd195960d21b60648201526084016106e0565b60cf54341015610bfb5760405162461bcd60e51b815260206004820152601a60248201527f5461673a20596f75206d7573742073656e64207468652066656500000000000060448201526064016106e0565b604051631797df5960e01b8152600481018290523090631797df599060240160206040518083038186803b158015610c3257600080fd5b505afa158015610c46573d6000803e3d6000fd5b505050506040513d601f19601f82011682018060405250810190610c6a9190611f40565b610cc65760405162461bcd60e51b815260206004820152602760248201527f5461673a2054616767696e672074617267657420636861696e206e6f742070656044820152661c9b5a5d1d195960ca1b60648201526084016106e0565b60ca54604051635408dd7160e01b81526000916001600160a01b031690635408dd7190610cf9908b908b906004016120f5565b60206040518083038186803b158015610d1157600080fd5b505afa158015610d25573d6000803e3d6000fd5b505050506040513d601f19601f82011682018060405250810190610d499190612052565b905080610ddb5760ca54604051633f36ca2f60e11b81526001600160a01b0390911690637e6d945e90610d86908b908b9089908990600401612111565b602060405180830381600087803b158015610da057600080fd5b505af1158015610db4573d6000803e3d6000fd5b505050506040513d601f19601f82011682018060405250810190610dd89190612052565b90505b610de9818787878787611703565b50506001603355505050505050565b60c954604051630830b35960e31b81526001600160a01b038581166004830152909116906341859ac89060240160206040518083038186803b158015610e3d57600080fd5b505afa158015610e51573d6000803e3d6000fd5b505050506040513d601f19601f82011682018060405250810190610e759190611f40565b610ed95760405162461bcd60e51b815260206004820152602f60248201527f4d696e7420616e64207461673a20546865207075626c6973686572206d75737460448201526e081899481dda1a5d195b1a5cdd1959608a1b60648201526084016106e0565b60cf54341015610f3b5760405162461bcd60e51b815260206004820152602760248201527f4d696e7420616e64207461673a20596f75206d7573742073656e6420746865206044820152667461672066656560c81b60648201526084016106e0565b604051631797df5960e01b8152600481018290523090631797df599060240160206040518083038186803b158015610f7257600080fd5b505afa158015610f86573d6000803e3d6000fd5b505050506040513d601f19601f82011682018060405250810190610faa9190611f40565b61100f5760405162461bcd60e51b815260206004820152603060248201527f4d696e7420616e64207461673a2054616767696e67207461726765742063686160448201526f1a5b881b9bdd081c195c9b5a5d1d195960821b60648201526084016106e0565b60ca54604051633f36ca2f60e11b81526000916001600160a01b031690637e6d945e90611046908b908b9089908990600401612111565b602060405180830381600087803b15801561106057600080fd5b505af1158015611074573d6000803e3d6000fd5b505050506040513d601f19601f820116820180604052508101906110989190612052565b90506110a8818787878787611703565b5050505050505050565b60c9546001600160a01b03166324d7806c336040516001600160e01b031960e084901b1681526001600160a01b03909116600482015260240160206040518083038186803b15801561110357600080fd5b505afa158015611117573d6000803e3d6000fd5b505050506040513d601f19601f8201168201806040525081019061113b9190611f40565b6111575760405162461bcd60e51b81526004016106e090612211565b60cf55565b60c9546001600160a01b03166324d7806c336040516001600160e01b031960e084901b1681526001600160a01b03909116600482015260240160206040518083038186803b1580156111ad57600080fd5b505afa1580156111c1573d6000803e3d6000fd5b505050506040513d601f19601f820116820180604052508101906111e59190611f40565b6112015760405162461bcd60e51b81526004016106e090612211565b600091825260d26020526040909120805460ff1916911515919091179055565b600260335414156112745760405162461bcd60e51b815260206004820152601f60248201527f5265656e7472616e637947756172643a207265656e7472616e742063616c6c0060448201526064016106e0565b60026033556001600160a01b038116600090815260d1602090815260408083205460d09092528220546112a6916114d2565b90506000811180156112b85750478111155b1561136c576001600160a01b038216600090815260d160205260409020546112e09082611bd8565b6001600160a01b038316600081815260d16020526040808220939093559151909183156108fc02918491818181858888f19350505050158015611327573d6000803e3d6000fd5b50816001600160a01b03167f59901f31ae2f183042d33e59b8b37be57d21ddf6351ebf066ee2eace7229bdfa8260405161136391815260200190565b60405180910390a25b50506001603355565b60c9546001600160a01b03166324d7806c336040516001600160e01b031960e084901b1681526001600160a01b03909116600482015260240160206040518083038186803b1580156113c657600080fd5b505afa1580156113da573d6000803e3d6000fd5b505050506040513d601f19601f820116820180604052508101906113fe9190611f40565b61141a5760405162461bcd60e51b81526004016106e090612211565b60646114268383611bd8565b11156114ac5760405162461bcd60e51b815260206004820152604960248201527f4552433732314861736874616752656769737472792e7570646174655065726360448201527f656e74616765733a2070657263656e7461676573206d757374206e6f742062656064820152680206f766572203130360bc1b608482015260a4016106e0565b60cb82905560cc8190556114cb816114c56064856114d2565b906114d2565b60cd555050565b60006114de8284612296565b9392505050565b7f360894a13ba1a3210667c828492db98dca3e2076cc3735a920a3ca505d382bbc546001600160a01b031690565b60c9546001600160a01b03166324d7806c336040516001600160e01b031960e084901b1681526001600160a01b03909116600482015260240160206040518083038186803b15801561156457600080fd5b505afa158015611578573d6000803e3d6000fd5b505050506040513d601f19601f8201168201806040525081019061159c9190611f40565b6107665760405162461bcd60e51b81526004016106e090612211565b60006115c26114e5565b90506115cd84611be4565b6000835111806115da5750815b156115eb576115e98484611c89565b505b7f4910fdfa16fed3260ed0e7147f7cc6da11a60208b5b9406d12a635614ffd9143805460ff166116fc57805460ff191660011781556040516001600160a01b038316602482015261166a90869060440160408051601f198184030181529190526020810180516001600160e01b0316631b2ce7f360e11b179052611c89565b50805460ff1916815561167b6114e5565b6001600160a01b0316826001600160a01b0316146116f35760405162461bcd60e51b815260206004820152602f60248201527f45524331393637557067726164653a207570677261646520627265616b73206660448201526e75727468657220757067726164657360881b60648201526084016106e0565b6116fc85611d74565b5050505050565b60ca546001600160a01b03868116911614156117875760405162461bcd60e51b815260206004820152603c60248201527f5461673a20496e76616c696420746167202d20796f752061726520617474656d60448201527f7074696e6720746f2074616720616e6f7468657220686173687461670000000060648201526084016106e0565b6001600160a01b0385166117ed5760405162461bcd60e51b815260206004820152602760248201527f66756e6374696f6e2063616c6c20746f2061206e6f6e2d636f6e7472616374206044820152666164647265737360c81b60648201526084016106e0565b60ce546117fb906001611bd8565b60ce8190556040805160e0810182528881526001600160a01b0388811660208084019182528385018a81528884166060860190815242608087019081528b861660a0880190815260c088018b815260008b815260d39096528986209851895595516001890180549189166001600160a01b03199283161790559351600289015591516003880180549188169185169190911790555160048088019190915590516005870180549187169190931617909155915160069094019390935560ca54935163878327ab60e01b81529081018b90529192839291169063878327ab90602401604080518083038186803b1580156118f357600080fd5b505afa158015611907573d6000803e3d6000fd5b505050506040513d601f19601f8201168201806040525081019061192b9190611e48565b91509150816001600160a01b0316816001600160a01b03161415611acc5761198b61196c606461196660cb5434611db490919063ffffffff16565b90611dc0565b6001600160a01b038416600090815260d0602052604090205490611bd8565b6001600160a01b038316600090815260d0602052604090205560cc546119dc906119bd90606490611966903490611db4565b6001600160a01b038816600090815260d0602052604090205490611bd8565b6001600160a01b03878116600090815260d060205260408082209390935560ca54925163a30b4db960e01b8152600481018d905290929091169063a30b4db99060240160206040518083038186803b158015611a3757600080fd5b505afa158015611a4b573d6000803e3d6000fd5b505050506040513d601f19601f82011682018060405250810190611a6f9190611e2c565b9050611aad611a8e606461196660cd5434611db490919063ffffffff16565b6001600160a01b038316600090815260d0602052604090205490611bd8565b6001600160a01b03909116600090815260d06020526040902055611b67565b611ae961196c606461196660cb5434611db490919063ffffffff16565b6001600160a01b038316600090815260d0602052604090205560cc54611b1b906119bd90606490611966903490611db4565b6001600160a01b038716600090815260d0602052604090205560cd54611b4d90611a8e90606490611966903490611db4565b6001600160a01b038216600090815260d060205260409020555b60cf54604080518b8152602081018a90529081018590526060810191909152608081018590526001600160a01b03808816918a8216918816907f40a9ba9de8394714f8ec93689783918c2ab7f2d7c763c5b804dd219851a253139060a00160405180910390a4505050505050505050565b60006114de828461223f565b803b611c485760405162461bcd60e51b815260206004820152602d60248201527f455243313936373a206e657720696d706c656d656e746174696f6e206973206e60448201526c1bdd08184818dbdb9d1c9858dd609a1b60648201526084016106e0565b7f360894a13ba1a3210667c828492db98dca3e2076cc3735a920a3ca505d382bbc80546001600160a01b0319166001600160a01b0392909216919091179055565b6060823b611ce85760405162461bcd60e51b815260206004820152602660248201527f416464726573733a2064656c65676174652063616c6c20746f206e6f6e2d636f6044820152651b9d1c9858dd60d21b60648201526084016106e0565b600080846001600160a01b031684604051611d0391906120d9565b600060405180830381855af49150503d8060008114611d3e576040519150601f19603f3d011682016040523d82523d6000602084013e611d43565b606091505b5091509150611d6b828260405180606001604052806027815260200161232d60279139611dcc565b95945050505050565b611d7d81611be4565b6040516001600160a01b038216907fbc7cd75a20ee27fd9adebab32041f755214dbc6bffa90cc0225b39da2e5c2d3b90600090a250565b60006114de8284612277565b60006114de8284612257565b60608315611ddb5750816114de565b825115611deb5782518084602001fd5b8160405162461bcd60e51b81526004016106e09190612146565b803561069281612309565b600060208284031215611e21578081fd5b81356114de81612309565b600060208284031215611e3d578081fd5b81516114de81612309565b60008060408385031215611e5a578081fd5b8251611e6581612309565b6020840151909250611e7681612309565b809150509250929050565b60008060408385031215611e93578182fd5b8235611e9e81612309565b9150602083013567ffffffffffffffff80821115611eba578283fd5b818501915085601f830112611ecd578283fd5b813581811115611edf57611edf6122f3565b604051601f8201601f19908116603f01168101908382118183101715611f0757611f076122f3565b81604052828152886020848701011115611f1f578586fd5b82602086016020830137856020848301015280955050505050509250929050565b600060208284031215611f51578081fd5b81516114de8161231e565b60008060408385031215611f6e578182fd5b8235611f7981612309565b91506020830135611e7681612309565b600080600080600080600060c0888a031215611fa3578283fd5b873567ffffffffffffffff80821115611fba578485fd5b818a0191508a601f830112611fcd578485fd5b813581811115611fdb578586fd5b8b6020828501011115611fec578586fd5b602092830199509750612002918a019050611e05565b94506040880135935061201760608901611e05565b925061202560808901611e05565b915060a0880135905092959891949750929550565b60006020828403121561204b578081fd5b5035919050565b600060208284031215612063578081fd5b5051919050565b6000806040838503121561207c578182fd5b823591506020830135611e768161231e565b600080604083850312156120a0578182fd5b50508035926020909101359150565b60008284528282602086013780602084860101526020601f19601f85011685010190509392505050565b600082516120eb8184602087016122ad565b9190910192915050565b6000602082526121096020830184866120af565b949350505050565b6000606082526121256060830186886120af565b6001600160a01b039485166020840152929093166040909101529392505050565b60006020825282518060208401526121658160408501602087016122ad565b601f01601f19169190910160400192915050565b6020808252602c908201527f46756e6374696f6e206d7573742062652063616c6c6564207468726f7567682060408201526b19195b1959d85d1958d85b1b60a21b606082015260800190565b6020808252602c908201527f46756e6374696f6e206d7573742062652063616c6c6564207468726f7567682060408201526b6163746976652070726f787960a01b606082015260800190565b60208082526014908201527321b0b63632b91036bab9ba1031329030b236b4b760611b604082015260600190565b60008219821115612252576122526122dd565b500190565b60008261227257634e487b7160e01b81526012600452602481fd5b500490565b6000816000190483118215151615612291576122916122dd565b500290565b6000828210156122a8576122a86122dd565b500390565b60005b838110156122c85781810151838201526020016122b0565b838111156122d7576000848401525b50505050565b634e487b7160e01b600052601160045260246000fd5b634e487b7160e01b600052604160045260246000fd5b6001600160a01b038116811461076657600080fd5b801515811461076657600080fdfe416464726573733a206c6f772d6c6576656c2064656c65676174652063616c6c206661696c6564a2646970667358221220aa9718539b2275e5bc7e0f7035645527d8de3d67315ed8105dedc5121100b5fa64736f6c63430008020033",
  "linkReferences": {},
  "deployedLinkReferences": {}
}