{
  "_format": "hh-sol-artifact-1",
  "contractName": "ETSToken",
  "sourceName": "contracts/ETSToken.sol",
  "abi": [
    {
      "anonymous": false,
      "inputs": [
        {
          "indexed": false,
          "internalType": "contract IETSAccessControls",
          "name": "etsAccessControls",
          "type": "address"
        }
      ],
      "name": "AccessControlsSet",
      "type": "event"
    },
    {
      "anonymous": false,
      "inputs": [
        {
          "indexed": false,
          "internalType": "address",
          "name": "previousAdmin",
          "type": "address"
        },
        {
          "indexed": false,
          "internalType": "address",
          "name": "newAdmin",
          "type": "address"
        }
      ],
      "name": "AdminChanged",
      "type": "event"
    },
    {
      "anonymous": false,
      "inputs": [
        {
          "indexed": true,
          "internalType": "address",
          "name": "owner",
          "type": "address"
        },
        {
          "indexed": true,
          "internalType": "address",
          "name": "approved",
          "type": "address"
        },
        {
          "indexed": true,
          "internalType": "uint256",
          "name": "tokenId",
          "type": "uint256"
        }
      ],
      "name": "Approval",
      "type": "event"
    },
    {
      "anonymous": false,
      "inputs": [
        {
          "indexed": true,
          "internalType": "address",
          "name": "owner",
          "type": "address"
        },
        {
          "indexed": true,
          "internalType": "address",
          "name": "operator",
          "type": "address"
        },
        {
          "indexed": false,
          "internalType": "bool",
          "name": "approved",
          "type": "bool"
        }
      ],
      "name": "ApprovalForAll",
      "type": "event"
    },
    {
      "anonymous": false,
      "inputs": [
        {
          "indexed": true,
          "internalType": "address",
          "name": "beacon",
          "type": "address"
        }
      ],
      "name": "BeaconUpgraded",
      "type": "event"
    },
    {
      "anonymous": false,
      "inputs": [
        {
          "indexed": false,
          "internalType": "uint8",
          "name": "version",
          "type": "uint8"
        }
      ],
      "name": "Initialized",
      "type": "event"
    },
    {
      "anonymous": false,
      "inputs": [
        {
          "indexed": false,
          "internalType": "uint256",
          "name": "termLength",
          "type": "uint256"
        }
      ],
      "name": "OwnershipTermLengthSet",
      "type": "event"
    },
    {
      "anonymous": false,
      "inputs": [
        {
          "indexed": false,
          "internalType": "address",
          "name": "account",
          "type": "address"
        }
      ],
      "name": "Paused",
      "type": "event"
    },
    {
      "anonymous": false,
      "inputs": [
        {
          "indexed": false,
          "internalType": "address",
          "name": "platformAddress",
          "type": "address"
        }
      ],
      "name": "PlatformSet",
      "type": "event"
    },
    {
      "anonymous": false,
      "inputs": [
        {
          "indexed": false,
          "internalType": "uint256",
          "name": "tagId",
          "type": "uint256"
        },
        {
          "indexed": false,
          "internalType": "bool",
          "name": "isPremium",
          "type": "bool"
        }
      ],
      "name": "PremiumFlagSet",
      "type": "event"
    },
    {
      "anonymous": false,
      "inputs": [
        {
          "indexed": false,
          "internalType": "string",
          "name": "tag",
          "type": "string"
        },
        {
          "indexed": false,
          "internalType": "bool",
          "name": "isPremium",
          "type": "bool"
        }
      ],
      "name": "PremiumTagPreSet",
      "type": "event"
    },
    {
      "anonymous": false,
      "inputs": [
        {
          "indexed": false,
          "internalType": "uint256",
          "name": "tagId",
          "type": "uint256"
        },
        {
          "indexed": false,
          "internalType": "bool",
          "name": "isReleased",
          "type": "bool"
        }
      ],
      "name": "ReservedFlagSet",
      "type": "event"
    },
    {
      "anonymous": false,
      "inputs": [
        {
          "indexed": false,
          "internalType": "uint256",
          "name": "maxStringLength",
          "type": "uint256"
        }
      ],
      "name": "TagMaxStringLengthSet",
      "type": "event"
    },
    {
      "anonymous": false,
      "inputs": [
        {
          "indexed": true,
          "internalType": "uint256",
          "name": "tokenId",
          "type": "uint256"
        },
        {
          "indexed": true,
          "internalType": "address",
          "name": "caller",
          "type": "address"
        }
      ],
      "name": "TagRecycled",
      "type": "event"
    },
    {
      "anonymous": false,
      "inputs": [
        {
          "indexed": true,
          "internalType": "uint256",
          "name": "tokenId",
          "type": "uint256"
        },
        {
          "indexed": true,
          "internalType": "address",
          "name": "caller",
          "type": "address"
        }
      ],
      "name": "TagRenewed",
      "type": "event"
    },
    {
      "anonymous": false,
      "inputs": [
        {
          "indexed": true,
          "internalType": "address",
          "name": "from",
          "type": "address"
        },
        {
          "indexed": true,
          "internalType": "address",
          "name": "to",
          "type": "address"
        },
        {
          "indexed": true,
          "internalType": "uint256",
          "name": "tokenId",
          "type": "uint256"
        }
      ],
      "name": "Transfer",
      "type": "event"
    },
    {
      "anonymous": false,
      "inputs": [
        {
          "indexed": false,
          "internalType": "address",
          "name": "account",
          "type": "address"
        }
      ],
      "name": "Unpaused",
      "type": "event"
    },
    {
      "anonymous": false,
      "inputs": [
        {
          "indexed": true,
          "internalType": "address",
          "name": "implementation",
          "type": "address"
        }
      ],
      "name": "Upgraded",
      "type": "event"
    },
    {
      "inputs": [],
      "name": "NAME",
      "outputs": [
        {
          "internalType": "string",
          "name": "",
          "type": "string"
        }
      ],
      "stateMutability": "view",
      "type": "function"
    },
    {
      "inputs": [],
      "name": "VERSION",
      "outputs": [
        {
          "internalType": "string",
          "name": "",
          "type": "string"
        }
      ],
      "stateMutability": "view",
      "type": "function"
    },
    {
      "inputs": [
        {
          "internalType": "address",
          "name": "to",
          "type": "address"
        },
        {
          "internalType": "uint256",
          "name": "tokenId",
          "type": "uint256"
        }
      ],
      "name": "approve",
      "outputs": [],
      "stateMutability": "nonpayable",
      "type": "function"
    },
    {
      "inputs": [
        {
          "internalType": "address",
          "name": "owner",
          "type": "address"
        }
      ],
      "name": "balanceOf",
      "outputs": [
        {
          "internalType": "uint256",
          "name": "",
          "type": "uint256"
        }
      ],
      "stateMutability": "view",
      "type": "function"
    },
    {
      "inputs": [
        {
          "internalType": "uint256",
          "name": "tokenId",
          "type": "uint256"
        }
      ],
      "name": "burn",
      "outputs": [],
      "stateMutability": "nonpayable",
      "type": "function"
    },
    {
      "inputs": [
        {
          "internalType": "string",
          "name": "_tag",
          "type": "string"
        }
      ],
      "name": "computeTagId",
      "outputs": [
        {
          "internalType": "uint256",
          "name": "",
          "type": "uint256"
        }
      ],
      "stateMutability": "pure",
      "type": "function"
    },
    {
      "inputs": [
        {
          "internalType": "string",
          "name": "_tag",
          "type": "string"
        }
      ],
      "name": "createTag",
      "outputs": [
        {
          "internalType": "uint256",
          "name": "_tokenId",
          "type": "uint256"
        }
      ],
      "stateMutability": "payable",
      "type": "function"
    },
    {
      "inputs": [
        {
          "internalType": "string",
          "name": "_tag",
          "type": "string"
        },
        {
          "internalType": "address payable",
          "name": "_relayer",
          "type": "address"
        }
      ],
      "name": "createTag",
      "outputs": [
        {
          "internalType": "uint256",
          "name": "_tokenId",
          "type": "uint256"
        }
      ],
      "stateMutability": "payable",
      "type": "function"
    },
    {
      "inputs": [],
      "name": "etsAccessControls",
      "outputs": [
        {
          "internalType": "contract IETSAccessControls",
          "name": "",
          "type": "address"
        }
      ],
      "stateMutability": "view",
      "type": "function"
    },
    {
      "inputs": [
        {
          "internalType": "uint256",
          "name": "tokenId",
          "type": "uint256"
        }
      ],
      "name": "getApproved",
      "outputs": [
        {
          "internalType": "address",
          "name": "",
          "type": "address"
        }
      ],
      "stateMutability": "view",
      "type": "function"
    },
    {
      "inputs": [
        {
          "internalType": "uint256",
          "name": "_tokenId",
          "type": "uint256"
        }
      ],
      "name": "getCreatorAddress",
      "outputs": [
        {
          "internalType": "address",
          "name": "_creator",
          "type": "address"
        }
      ],
      "stateMutability": "view",
      "type": "function"
    },
    {
      "inputs": [
        {
          "internalType": "uint256",
          "name": "_tokenId",
          "type": "uint256"
        }
      ],
      "name": "getLastRenewed",
      "outputs": [
        {
          "internalType": "uint256",
          "name": "",
          "type": "uint256"
        }
      ],
      "stateMutability": "view",
      "type": "function"
    },
    {
      "inputs": [],
      "name": "getOwnershipTermLength",
      "outputs": [
        {
          "internalType": "uint256",
          "name": "",
          "type": "uint256"
        }
      ],
      "stateMutability": "view",
      "type": "function"
    },
    {
      "inputs": [
        {
          "internalType": "uint256",
          "name": "_tokenId",
          "type": "uint256"
        }
      ],
      "name": "getPaymentAddresses",
      "outputs": [
        {
          "internalType": "address payable",
          "name": "_platform",
          "type": "address"
        },
        {
          "internalType": "address payable",
          "name": "_owner",
          "type": "address"
        }
      ],
      "stateMutability": "view",
      "type": "function"
    },
    {
      "inputs": [],
      "name": "getPlatformAddress",
      "outputs": [
        {
          "internalType": "address",
          "name": "",
          "type": "address"
        }
      ],
      "stateMutability": "view",
      "type": "function"
    },
    {
      "inputs": [
        {
          "internalType": "uint256",
          "name": "_tokenId",
          "type": "uint256"
        }
      ],
      "name": "getTag",
      "outputs": [
        {
          "components": [
            {
              "internalType": "address",
              "name": "relayer",
              "type": "address"
            },
            {
              "internalType": "address",
              "name": "creator",
              "type": "address"
            },
            {
              "internalType": "string",
              "name": "display",
              "type": "string"
            },
            {
              "internalType": "bool",
              "name": "premium",
              "type": "bool"
            },
            {
              "internalType": "bool",
              "name": "reserved",
              "type": "bool"
            }
          ],
          "internalType": "struct IETSToken.Tag",
          "name": "",
          "type": "tuple"
        }
      ],
      "stateMutability": "view",
      "type": "function"
    },
    {
      "inputs": [
        {
          "internalType": "string",
          "name": "_tag",
          "type": "string"
        }
      ],
      "name": "getTag",
      "outputs": [
        {
          "components": [
            {
              "internalType": "address",
              "name": "relayer",
              "type": "address"
            },
            {
              "internalType": "address",
              "name": "creator",
              "type": "address"
            },
            {
              "internalType": "string",
              "name": "display",
              "type": "string"
            },
            {
              "internalType": "bool",
              "name": "premium",
              "type": "bool"
            },
            {
              "internalType": "bool",
              "name": "reserved",
              "type": "bool"
            }
          ],
          "internalType": "struct IETSToken.Tag",
          "name": "",
          "type": "tuple"
        }
      ],
      "stateMutability": "view",
      "type": "function"
    },
    {
      "inputs": [
        {
          "internalType": "contract IETSAccessControls",
          "name": "_etsAccessControls",
          "type": "address"
        },
        {
          "internalType": "address payable",
          "name": "_platform",
          "type": "address"
        },
        {
          "internalType": "uint256",
          "name": "_tagMinStringLength",
          "type": "uint256"
        },
        {
          "internalType": "uint256",
          "name": "_tagMaxStringLength",
          "type": "uint256"
        },
        {
          "internalType": "uint256",
          "name": "_ownershipTermLength",
          "type": "uint256"
        }
      ],
      "name": "initialize",
      "outputs": [],
      "stateMutability": "nonpayable",
      "type": "function"
    },
    {
      "inputs": [
        {
          "internalType": "address",
          "name": "owner",
          "type": "address"
        },
        {
          "internalType": "address",
          "name": "operator",
          "type": "address"
        }
      ],
      "name": "isApprovedForAll",
      "outputs": [
        {
          "internalType": "bool",
          "name": "",
          "type": "bool"
        }
      ],
      "stateMutability": "view",
      "type": "function"
    },
    {
      "inputs": [
        {
          "internalType": "string",
          "name": "",
          "type": "string"
        }
      ],
      "name": "isTagPremium",
      "outputs": [
        {
          "internalType": "bool",
          "name": "",
          "type": "bool"
        }
      ],
      "stateMutability": "view",
      "type": "function"
    },
    {
      "inputs": [],
      "name": "name",
      "outputs": [
        {
          "internalType": "string",
          "name": "",
          "type": "string"
        }
      ],
      "stateMutability": "view",
      "type": "function"
    },
    {
      "inputs": [
        {
          "internalType": "uint256",
          "name": "tokenId",
          "type": "uint256"
        }
      ],
      "name": "ownerOf",
      "outputs": [
        {
          "internalType": "address",
          "name": "",
          "type": "address"
        }
      ],
      "stateMutability": "view",
      "type": "function"
    },
    {
      "inputs": [],
      "name": "ownershipTermLength",
      "outputs": [
        {
          "internalType": "uint256",
          "name": "",
          "type": "uint256"
        }
      ],
      "stateMutability": "view",
      "type": "function"
    },
    {
      "inputs": [],
      "name": "pause",
      "outputs": [],
      "stateMutability": "nonpayable",
      "type": "function"
    },
    {
      "inputs": [],
      "name": "paused",
      "outputs": [
        {
          "internalType": "bool",
          "name": "",
          "type": "bool"
        }
      ],
      "stateMutability": "view",
      "type": "function"
    },
    {
      "inputs": [],
      "name": "platform",
      "outputs": [
        {
          "internalType": "address payable",
          "name": "",
          "type": "address"
        }
      ],
      "stateMutability": "view",
      "type": "function"
    },
    {
      "inputs": [
        {
          "internalType": "string[]",
          "name": "_tags",
          "type": "string[]"
        },
        {
          "internalType": "bool",
          "name": "_enabled",
          "type": "bool"
        }
      ],
      "name": "preSetPremiumTags",
      "outputs": [],
      "stateMutability": "nonpayable",
      "type": "function"
    },
    {
      "inputs": [],
      "name": "proxiableUUID",
      "outputs": [
        {
          "internalType": "bytes32",
          "name": "",
          "type": "bytes32"
        }
      ],
      "stateMutability": "view",
      "type": "function"
    },
    {
      "inputs": [
        {
          "internalType": "uint256",
          "name": "_tokenId",
          "type": "uint256"
        }
      ],
      "name": "recycleTag",
      "outputs": [],
      "stateMutability": "nonpayable",
      "type": "function"
    },
    {
      "inputs": [
        {
          "internalType": "uint256",
          "name": "_tokenId",
          "type": "uint256"
        }
      ],
      "name": "renewTag",
      "outputs": [],
      "stateMutability": "nonpayable",
      "type": "function"
    },
    {
      "inputs": [
        {
          "internalType": "address",
          "name": "from",
          "type": "address"
        },
        {
          "internalType": "address",
          "name": "to",
          "type": "address"
        },
        {
          "internalType": "uint256",
          "name": "tokenId",
          "type": "uint256"
        }
      ],
      "name": "safeTransferFrom",
      "outputs": [],
      "stateMutability": "nonpayable",
      "type": "function"
    },
    {
      "inputs": [
        {
          "internalType": "address",
          "name": "from",
          "type": "address"
        },
        {
          "internalType": "address",
          "name": "to",
          "type": "address"
        },
        {
          "internalType": "uint256",
          "name": "tokenId",
          "type": "uint256"
        },
        {
          "internalType": "bytes",
          "name": "_data",
          "type": "bytes"
        }
      ],
      "name": "safeTransferFrom",
      "outputs": [],
      "stateMutability": "nonpayable",
      "type": "function"
    },
    {
      "inputs": [
        {
          "internalType": "contract IETSAccessControls",
          "name": "_etsAccessControls",
          "type": "address"
        }
      ],
      "name": "setAccessControls",
      "outputs": [],
      "stateMutability": "nonpayable",
      "type": "function"
    },
    {
      "inputs": [
        {
          "internalType": "address",
          "name": "operator",
          "type": "address"
        },
        {
          "internalType": "bool",
          "name": "approved",
          "type": "bool"
        }
      ],
      "name": "setApprovalForAll",
      "outputs": [],
      "stateMutability": "nonpayable",
      "type": "function"
    },
    {
      "inputs": [
        {
          "internalType": "uint256",
          "name": "_ownershipTermLength",
          "type": "uint256"
        }
      ],
      "name": "setOwnershipTermLength",
      "outputs": [],
      "stateMutability": "nonpayable",
      "type": "function"
    },
    {
      "inputs": [
        {
          "internalType": "address payable",
          "name": "_platform",
          "type": "address"
        }
      ],
      "name": "setPlatform",
      "outputs": [],
      "stateMutability": "nonpayable",
      "type": "function"
    },
    {
      "inputs": [
        {
          "internalType": "uint256[]",
          "name": "_tokenIds",
          "type": "uint256[]"
        },
        {
          "internalType": "bool",
          "name": "_isPremium",
          "type": "bool"
        }
      ],
      "name": "setPremiumFlag",
      "outputs": [],
      "stateMutability": "nonpayable",
      "type": "function"
    },
    {
      "inputs": [
        {
          "internalType": "uint256[]",
          "name": "_tokenIds",
          "type": "uint256[]"
        },
        {
          "internalType": "bool",
          "name": "_reserved",
          "type": "bool"
        }
      ],
      "name": "setReservedFlag",
      "outputs": [],
      "stateMutability": "nonpayable",
      "type": "function"
    },
    {
      "inputs": [
        {
          "internalType": "uint256",
          "name": "_tagMaxStringLength",
          "type": "uint256"
        }
      ],
      "name": "setTagMaxStringLength",
      "outputs": [],
      "stateMutability": "nonpayable",
      "type": "function"
    },
    {
      "inputs": [
        {
          "internalType": "bytes4",
          "name": "interfaceId",
          "type": "bytes4"
        }
      ],
      "name": "supportsInterface",
      "outputs": [
        {
          "internalType": "bool",
          "name": "",
          "type": "bool"
        }
      ],
      "stateMutability": "view",
      "type": "function"
    },
    {
      "inputs": [],
      "name": "symbol",
      "outputs": [
        {
          "internalType": "string",
          "name": "",
          "type": "string"
        }
      ],
      "stateMutability": "view",
      "type": "function"
    },
    {
      "inputs": [
        {
          "internalType": "string",
          "name": "_tag",
          "type": "string"
        }
      ],
      "name": "tagExists",
      "outputs": [
        {
          "internalType": "bool",
          "name": "",
          "type": "bool"
        }
      ],
      "stateMutability": "view",
      "type": "function"
    },
    {
      "inputs": [
        {
          "internalType": "uint256",
          "name": "_tokenId",
          "type": "uint256"
        }
      ],
      "name": "tagExists",
      "outputs": [
        {
          "internalType": "bool",
          "name": "",
          "type": "bool"
        }
      ],
      "stateMutability": "view",
      "type": "function"
    },
    {
      "inputs": [],
      "name": "tagMaxStringLength",
      "outputs": [
        {
          "internalType": "uint256",
          "name": "",
          "type": "uint256"
        }
      ],
      "stateMutability": "view",
      "type": "function"
    },
    {
      "inputs": [],
      "name": "tagMinStringLength",
      "outputs": [
        {
          "internalType": "uint256",
          "name": "",
          "type": "uint256"
        }
      ],
      "stateMutability": "view",
      "type": "function"
    },
    {
      "inputs": [
        {
          "internalType": "uint256",
          "name": "",
          "type": "uint256"
        }
      ],
      "name": "tokenIdToLastRenewed",
      "outputs": [
        {
          "internalType": "uint256",
          "name": "",
          "type": "uint256"
        }
      ],
      "stateMutability": "view",
      "type": "function"
    },
    {
      "inputs": [
        {
          "internalType": "uint256",
          "name": "",
          "type": "uint256"
        }
      ],
      "name": "tokenIdToTag",
      "outputs": [
        {
          "internalType": "address",
          "name": "relayer",
          "type": "address"
        },
        {
          "internalType": "address",
          "name": "creator",
          "type": "address"
        },
        {
          "internalType": "string",
          "name": "display",
          "type": "string"
        },
        {
          "internalType": "bool",
          "name": "premium",
          "type": "bool"
        },
        {
          "internalType": "bool",
          "name": "reserved",
          "type": "bool"
        }
      ],
      "stateMutability": "view",
      "type": "function"
    },
    {
      "inputs": [
        {
          "internalType": "uint256",
          "name": "tokenId",
          "type": "uint256"
        }
      ],
      "name": "tokenURI",
      "outputs": [
        {
          "internalType": "string",
          "name": "",
          "type": "string"
        }
      ],
      "stateMutability": "view",
      "type": "function"
    },
    {
      "inputs": [
        {
          "internalType": "address",
          "name": "from",
          "type": "address"
        },
        {
          "internalType": "address",
          "name": "to",
          "type": "address"
        },
        {
          "internalType": "uint256",
          "name": "tokenId",
          "type": "uint256"
        }
      ],
      "name": "transferFrom",
      "outputs": [],
      "stateMutability": "nonpayable",
      "type": "function"
    },
    {
      "inputs": [],
      "name": "unPause",
      "outputs": [],
      "stateMutability": "nonpayable",
      "type": "function"
    },
    {
      "inputs": [
        {
          "internalType": "address",
          "name": "newImplementation",
          "type": "address"
        }
      ],
      "name": "upgradeTo",
      "outputs": [],
      "stateMutability": "nonpayable",
      "type": "function"
    },
    {
      "inputs": [
        {
          "internalType": "address",
          "name": "newImplementation",
          "type": "address"
        },
        {
          "internalType": "bytes",
          "name": "data",
          "type": "bytes"
        }
      ],
      "name": "upgradeToAndCall",
      "outputs": [],
      "stateMutability": "payable",
      "type": "function"
    },
    {
      "inputs": [],
      "name": "version",
      "outputs": [
        {
          "internalType": "string",
          "name": "",
          "type": "string"
        }
      ],
      "stateMutability": "pure",
      "type": "function"
    }
  ],
  "bytecode": "0x60a06040523060805234801561001457600080fd5b50608051614d6e61004c60003960008181611167015281816111ec015281816113ca0152818161144f01526115390152614d6e6000f3fe60806040526004361061034a5760003560e01c80638456cb59116101bb578063c157daea116100f7578063db7af5fb11610095578063f143fc611161006f578063f143fc6114610a2a578063f66e762314610a4a578063f7b188a514610a6a578063ffa1ad7414610a7f57600080fd5b8063db7af5fb146109aa578063e8d3e4b6146109c1578063e985e9c5146109e157600080fd5b8063cd025dea116100d1578063cd025dea1461091c578063cd15832f1461094a578063d13f90b41461096a578063d3c80bd81461098a57600080fd5b8063c157daea146108a0578063c45b5ee1146108c0578063c87b56dd146108fc57600080fd5b8063a30b4db911610164578063adf63cd21161013e578063adf63cd21461081b578063af46adb814610832578063b06a89a714610852578063b88d4fde1461088057600080fd5b8063a30b4db914610767578063a3f4df7e146107a1578063ad014a5b146107ea57600080fd5b80639fa3f9d8116101955780639fa3f9d814610707578063a1de95e514610727578063a22cb4651461074757600080fd5b80638456cb591461069d578063878327ab146106b257806395d89b41146106f257600080fd5b80634bde38c81161028a5780635c975abb116102335780636945c5ea1161020d5780636945c5ea1461061c57806370a082311461063c578063828fe4d01461065c5780638299f9f91461067c57600080fd5b80635c975abb146105b75780636352211e146105cf578063691bbb69146105ef57600080fd5b806352d1902d1161026457806352d1902d1461056157806354b4d6761461057657806354fd4d501461058957600080fd5b80634bde38c8146105175780634f1ef28614610538578063500aac871461054b57600080fd5b806323b872dd116102f75780633659cfe6116102d15780633659cfe6146104985780633c0c4566146104b857806342842e0e146104d757806342966c68146104f757600080fd5b806323b872dd1461044157806327a2e473146104615780632e6116301461048157600080fd5b8063081812fc11610328578063081812fc146103c8578063095ea7b3146104005780631f36d2121461042057600080fd5b806301ffc9a71461034f578063060defec1461038457806306fdde03146103a6575b600080fd5b34801561035b57600080fd5b5061036f61036a3660046144c8565b610ab0565b60405190151581526020015b60405180910390f35b34801561039057600080fd5b506103a461039f3660046144e5565b610b4d565b005b3480156103b257600080fd5b506103bb610c52565b60405161037b9190614556565b3480156103d457600080fd5b506103e86103e33660046144e5565b610ce4565b6040516001600160a01b03909116815260200161037b565b34801561040c57600080fd5b506103a461041b36600461457e565b610d79565b61043361042e3660046145f3565b610eab565b60405190815260200161037b565b34801561044d57600080fd5b506103a461045c366004614635565b610ecf565b34801561046d57600080fd5b506103a461047c3660046146c9565b610f56565b34801561048d57600080fd5b506104336101935481565b3480156104a457600080fd5b506103a46104b3366004614720565b61115c565b3480156104c457600080fd5b50610195546001600160a01b03166103e8565b3480156104e357600080fd5b506103a46104f2366004614635565b6112d8565b34801561050357600080fd5b506103a46105123660046144e5565b6112f3565b34801561052357600080fd5b50610195546103e8906001600160a01b031681565b6103a46105463660046147e9565b6113bf565b34801561055757600080fd5b5061019454610433565b34801561056d57600080fd5b5061043361152c565b610433610584366004614839565b6115f1565b34801561059557600080fd5b506040805180820190915260058152640302e312e360dc1b60208201526103bb565b3480156105c357600080fd5b5060975460ff1661036f565b3480156105db57600080fd5b506103e86105ea3660046144e5565b6118f9565b3480156105fb57600080fd5b5061060f61060a3660046144e5565b611984565b60405161037b9190614885565b34801561062857600080fd5b506103a4610637366004614720565b611aa0565b34801561064857600080fd5b50610433610657366004614720565b611bb2565b34801561066857600080fd5b5061036f6106773660046145f3565b611c4c565b34801561068857600080fd5b50610191546103e8906001600160a01b031681565b3480156106a957600080fd5b506103a4611cad565b3480156106be57600080fd5b506106d26106cd3660046144e5565b611d7a565b604080516001600160a01b0393841681529290911660208301520161037b565b3480156106fe57600080fd5b506103bb611d9e565b34801561071357600080fd5b5061060f6107223660046145f3565b611dad565b34801561073357600080fd5b506103a46107423660046146c9565b611e1b565b34801561075357600080fd5b506103a46107623660046148e6565b612004565b34801561077357600080fd5b506103e86107823660046144e5565b600090815261019660205260409020600101546001600160a01b031690565b3480156107ad57600080fd5b506103bb6040518060400160405280600a81526020017f4354414720546f6b656e0000000000000000000000000000000000000000000081525081565b3480156107f657600080fd5b5061080a6108053660046144e5565b61200f565b60405161037b95949392919061491f565b34801561082757600080fd5b506104336101925481565b34801561083e57600080fd5b506103a461084d3660046146c9565b6120da565b34801561085e57600080fd5b5061043361086d3660046144e5565b6000908152610197602052604090205490565b34801561088c57600080fd5b506103a461089b366004614964565b6122e2565b3480156108ac57600080fd5b506103a46108bb3660046144e5565b61236a565b3480156108cc57600080fd5b5061036f6108db3660046149d0565b80516020818301810180516101988252928201919093012091525460ff1681565b34801561090857600080fd5b506103bb6109173660046144e5565b612408565b34801561092857600080fd5b506104336109373660046144e5565b6101976020526000908152604090205481565b34801561095657600080fd5b506103a4610965366004614720565b6124fd565b34801561097657600080fd5b506103a4610985366004614a19565b61268b565b34801561099657600080fd5b5061036f6109a53660046144e5565b6127c5565b3480156109b657600080fd5b506104336101945481565b3480156109cd57600080fd5b506103a46109dc3660046144e5565b6127e4565b3480156109ed57600080fd5b5061036f6109fc366004614a6a565b6001600160a01b039182166000908152606a6020908152604080832093909416825291909152205460ff1690565b348015610a3657600080fd5b50610433610a453660046149d0565b612998565b348015610a5657600080fd5b506103a4610a653660046144e5565b6129b3565b348015610a7657600080fd5b506103a4612aac565b348015610a8b57600080fd5b506103bb604051806040016040528060058152602001640302e312e360dc1b81525081565b60006001600160e01b031982167f80ac58cd000000000000000000000000000000000000000000000000000000001480610b1357506001600160e01b031982167f5b5e139f00000000000000000000000000000000000000000000000000000000145b80610b4757507f01ffc9a7000000000000000000000000000000000000000000000000000000006001600160e01b03198316145b92915050565b610191546001600160a01b03166324d7806c336040516001600160e01b031960e084901b1681526001600160a01b039091166004820152602401602060405180830381865afa158015610ba4573d6000803e3d6000fd5b505050506040513d601f19601f82011682018060405250810190610bc89190614a98565b610c155760405162461bcd60e51b81526020600482015260256024820152600080516020614cf2833981519152604482015264636365737360d81b60648201526084015b60405180910390fd5b6101938190556040518181527f50364cd96b896c27f5b49c44803a02b6c82874dedfe1d1652efa295206b02c2e906020015b60405180910390a150565b606060658054610c6190614ab5565b80601f0160208091040260200160405190810160405280929190818152602001828054610c8d90614ab5565b8015610cda5780601f10610caf57610100808354040283529160200191610cda565b820191906000526020600020905b815481529060010190602001808311610cbd57829003601f168201915b5050505050905090565b6000818152606760205260408120546001600160a01b0316610d5d5760405162461bcd60e51b815260206004820152602c60248201527f4552433732313a20617070726f76656420717565727920666f72206e6f6e657860448201526b34b9ba32b73a103a37b5b2b760a11b6064820152608401610c0c565b506000908152606960205260409020546001600160a01b031690565b6000610d84826118f9565b9050806001600160a01b0316836001600160a01b03161415610e0e5760405162461bcd60e51b815260206004820152602160248201527f4552433732313a20617070726f76616c20746f2063757272656e74206f776e6560448201527f72000000000000000000000000000000000000000000000000000000000000006064820152608401610c0c565b336001600160a01b0382161480610e2a5750610e2a81336109fc565b610e9c5760405162461bcd60e51b815260206004820152603860248201527f4552433732313a20617070726f76652063616c6c6572206973206e6f74206f7760448201527f6e6572206e6f7220617070726f76656420666f7220616c6c00000000000000006064820152608401610c0c565b610ea68383612b77565b505050565b61019554600090610ec890849084906001600160a01b03166115f1565b9392505050565b610ed93382612be5565b610f4b5760405162461bcd60e51b815260206004820152603160248201527f4552433732313a207472616e736665722063616c6c6572206973206e6f74206f60448201527f776e6572206e6f7220617070726f7665640000000000000000000000000000006064820152608401610c0c565b610ea6838383612cdc565b610191546001600160a01b03166324d7806c336040516001600160e01b031960e084901b1681526001600160a01b039091166004820152602401602060405180830381865afa158015610fad573d6000803e3d6000fd5b505050506040513d601f19601f82011682018060405250810190610fd19190614a98565b6110195760405162461bcd60e51b81526020600482015260256024820152600080516020614cf2833981519152604482015264636365737360d81b6064820152608401610c0c565b816110545760405162461bcd60e51b815260206004820152600b60248201526a456d70747920617272617960a81b6044820152606401610c0c565b60005b8281101561115657600084848381811061107357611073614af0565b61019554602090910292909201359250506001600160a01b0316611096826118f9565b6001600160a01b0316146110ec5760405162461bcd60e51b815260206004820152601560248201527f4e6f74206f776e656420627920706c6174666f726d00000000000000000000006044820152606401610c0c565b60008181526101966020908152604091829020600301805460ff19168615159081179091558251848152918201527f5ff3e202d7ff106b7be2e41c9e1b36cb0fabfaef5219ca353c5ec44d7da43f17910160405180910390a15061114f81614b1c565b9050611057565b50505050565b306001600160a01b037f00000000000000000000000000000000000000000000000000000000000000001614156111ea5760405162461bcd60e51b815260206004820152602c60248201527f46756e6374696f6e206d7573742062652063616c6c6564207468726f7567682060448201526b19195b1959d85d1958d85b1b60a21b6064820152608401610c0c565b7f00000000000000000000000000000000000000000000000000000000000000006001600160a01b03166112457f360894a13ba1a3210667c828492db98dca3e2076cc3735a920a3ca505d382bbc546001600160a01b031690565b6001600160a01b0316146112b05760405162461bcd60e51b815260206004820152602c60248201527f46756e6374696f6e206d7573742062652063616c6c6564207468726f7567682060448201526b6163746976652070726f787960a01b6064820152608401610c0c565b6112b981612eba565b604080516000808252602082019092526112d591839190612f7d565b50565b610ea6838383604051806020016040528060008152506122e2565b610191546001600160a01b03166324d7806c336040516001600160e01b031960e084901b1681526001600160a01b039091166004820152602401602060405180830381865afa15801561134a573d6000803e3d6000fd5b505050506040513d601f19601f8201168201806040525081019061136e9190614a98565b6113b65760405162461bcd60e51b81526020600482015260256024820152600080516020614cf2833981519152604482015264636365737360d81b6064820152608401610c0c565b6112d58161311d565b306001600160a01b037f000000000000000000000000000000000000000000000000000000000000000016141561144d5760405162461bcd60e51b815260206004820152602c60248201527f46756e6374696f6e206d7573742062652063616c6c6564207468726f7567682060448201526b19195b1959d85d1958d85b1b60a21b6064820152608401610c0c565b7f00000000000000000000000000000000000000000000000000000000000000006001600160a01b03166114a87f360894a13ba1a3210667c828492db98dca3e2076cc3735a920a3ca505d382bbc546001600160a01b031690565b6001600160a01b0316146115135760405162461bcd60e51b815260206004820152602c60248201527f46756e6374696f6e206d7573742062652063616c6c6564207468726f7567682060448201526b6163746976652070726f787960a01b6064820152608401610c0c565b61151c82612eba565b61152882826001612f7d565b5050565b6000306001600160a01b037f000000000000000000000000000000000000000000000000000000000000000016146115cc5760405162461bcd60e51b815260206004820152603860248201527f555550535570677261646561626c653a206d757374206e6f742062652063616c60448201527f6c6564207468726f7567682064656c656761746563616c6c00000000000000006064820152608401610c0c565b507f360894a13ba1a3210667c828492db98dca3e2076cc3735a920a3ca505d382bbc90565b610191546040517f41859ac80000000000000000000000000000000000000000000000000000000081526001600160a01b03838116600483015260009216906341859ac890602401602060405180830381865afa158015611656573d6000803e3d6000fd5b505050506040513d601f19601f8201168201806040525081019061167a9190614a98565b6116c65760405162461bcd60e51b815260206004820152601460248201527f4554533a204e6f742061207075626c69736865720000000000000000000000006044820152606401610c0c565b600061170785858080601f0160208091040260200160405190810160405280939291908181526020018383808284376000920191909152506131cc92505050565b61019554909150611721906001600160a01b031682613482565b6040518060a00160405280846001600160a01b031681526020016117423390565b6001600160a01b0316815260200186868080601f016020809104026020016040519081016040528093929190818152602001838380828437600092019190915250505090825250604080516020601f890181900481028201810190925287815291810191610198916117cf91908a908a908190840183828082843760009201919091525061349c92505050565b6040516117dc9190614b37565b908152602001604051809103902060009054906101000a900460ff161515815260200161019861184188888080601f01602080910402602001604051908101604052809392919081815260200183838082843760009201919091525061349c92505050565b60405161184e9190614b37565b908152604080519182900360209081019092205460ff16151590925260008481526101968252829020835181546001600160a01b039182166001600160a01b0319918216178355858401516001840180549190931691161790559183015180516118be9260028501920190614419565b5060608201516003909101805460809093015115156101000261ff00199215159290921661ffff199093169290921717905590509392505050565b6000818152606760205260408120546001600160a01b031680610b475760405162461bcd60e51b815260206004820152602960248201527f4552433732313a206f776e657220717565727920666f72206e6f6e657869737460448201527f656e7420746f6b656e00000000000000000000000000000000000000000000006064820152608401610c0c565b6040805160a080820183526000808352602080840182905260608486018190528401829052608084018290528582526101968152908490208451928301855280546001600160a01b039081168452600182015416918301919091526002810180549394929391928401916119f790614ab5565b80601f0160208091040260200160405190810160405280929190818152602001828054611a2390614ab5565b8015611a705780601f10611a4557610100808354040283529160200191611a70565b820191906000526020600020905b815481529060010190602001808311611a5357829003601f168201915b50505091835250506003919091015460ff8082161515602084015261010090910416151560409091015292915050565b610191546001600160a01b03166324d7806c336040516001600160e01b031960e084901b1681526001600160a01b039091166004820152602401602060405180830381865afa158015611af7573d6000803e3d6000fd5b505050506040513d601f19601f82011682018060405250810190611b1b9190614a98565b611b635760405162461bcd60e51b81526020600482015260256024820152600080516020614cf2833981519152604482015264636365737360d81b6064820152608401610c0c565b61019580546001600160a01b0319166001600160a01b0383169081179091556040519081527f9b3f36a627b98abc41b246eee9c0fb8a04cac16add47f8b2eb3a69ab16b3b8cd90602001610c47565b60006001600160a01b038216611c305760405162461bcd60e51b815260206004820152602a60248201527f4552433732313a2062616c616e636520717565727920666f7220746865207a6560448201527f726f2061646472657373000000000000000000000000000000000000000000006064820152608401610c0c565b506001600160a01b031660009081526068602052604090205490565b6000610ec8611c9084848080601f01602080910402602001604051908101604052809392919081815260200183838082843760009201919091525061299892505050565b6000908152606760205260409020546001600160a01b0316151590565b610191546001600160a01b03166324d7806c336040516001600160e01b031960e084901b1681526001600160a01b039091166004820152602401602060405180830381865afa158015611d04573d6000803e3d6000fd5b505050506040513d601f19601f82011682018060405250810190611d289190614a98565b611d705760405162461bcd60e51b81526020600482015260256024820152600080516020614cf2833981519152604482015264636365737360d81b6064820152608401610c0c565b611d78613613565b565b6101955460009081906001600160a01b0316611d95846118f9565b91509150915091565b606060668054610c6190614ab5565b6040805160a08101825260008082526020820181905260609282018390529181018290526080810191909152610ec861060a84848080601f01602080910402602001604051908101604052809392919081815260200183838082843760009201919091525061299892505050565b610191546001600160a01b03166324d7806c336040516001600160e01b031960e084901b1681526001600160a01b039091166004820152602401602060405180830381865afa158015611e72573d6000803e3d6000fd5b505050506040513d601f19601f82011682018060405250810190611e969190614a98565b611ede5760405162461bcd60e51b81526020600482015260256024820152600080516020614cf2833981519152604482015264636365737360d81b6064820152608401610c0c565b81611f195760405162461bcd60e51b815260206004820152600b60248201526a456d70747920617272617960a81b6044820152606401610c0c565b60005b82811015611156576000611f87858584818110611f3b57611f3b614af0565b9050602002810190611f4d9190614b53565b8080601f01602080910402602001604051908101604052809392919081815260200183838082843760009201919091525061349c92505050565b90508261019882604051611f9b9190614b37565b908152604051908190036020018120805492151560ff19909316929092179091557f231b4d492e38027a6f24b0287140781038da342b8ce2873f2905aa22329af73c90611feb9083908690614b9a565b60405180910390a150611ffd81614b1c565b9050611f1c565b6115283383836136b8565b610196602052600090815260409020805460018201546002830180546001600160a01b0393841694929093169261204590614ab5565b80601f016020809104026020016040519081016040528092919081815260200182805461207190614ab5565b80156120be5780601f10612093576101008083540402835291602001916120be565b820191906000526020600020905b8154815290600101906020018083116120a157829003601f168201915b5050506003909301549192505060ff8082169161010090041685565b610191546001600160a01b03166324d7806c336040516001600160e01b031960e084901b1681526001600160a01b039091166004820152602401602060405180830381865afa158015612131573d6000803e3d6000fd5b505050506040513d601f19601f820116820180604052508101906121559190614a98565b61219d5760405162461bcd60e51b81526020600482015260256024820152600080516020614cf2833981519152604482015264636365737360d81b6064820152608401610c0c565b816121d85760405162461bcd60e51b815260206004820152600b60248201526a456d70747920617272617960a81b6044820152606401610c0c565b60005b828110156111565760008484838181106121f7576121f7614af0565b61019554602090910292909201359250506001600160a01b031661221a826118f9565b6001600160a01b0316146122705760405162461bcd60e51b815260206004820152601b60248201527f546f6b656e206e6f74206f776e656420627920706c6174666f726d00000000006044820152606401610c0c565b60008181526101966020908152604091829020600301805461ff001916610100871515908102919091179091558251848152918201527f5bfb00ad0dd6c85a7714be58e38edd1eede7425b1281af24a27ed196555ab05b910160405180910390a1506122db81614b1c565b90506121db565b6122ec3383612be5565b61235e5760405162461bcd60e51b815260206004820152603160248201527f4552433732313a207472616e736665722063616c6c6572206973206e6f74206f60448201527f776e6572206e6f7220617070726f7665640000000000000000000000000000006064820152608401610c0c565b61115684848484613787565b6000818152606760205260409020546001600160a01b03166123ce5760405162461bcd60e51b815260206004820152601360248201527f4554533a2043544147206e6f7420666f756e64000000000000000000000000006044820152606401610c0c565b610195546001600160a01b03166123e4826118f9565b6001600160a01b031614156123fe576112d5816000613805565b6112d58142613805565b6000818152606760205260409020546060906001600160a01b03166124955760405162461bcd60e51b815260206004820152602f60248201527f4552433732314d657461646174613a2055524920717565727920666f72206e6f60448201527f6e6578697374656e7420746f6b656e00000000000000000000000000000000006064820152608401610c0c565b60006124ac60408051602081019091526000815290565b905060008151116124cc5760405180602001604052806000815250610ec8565b806124d684613845565b6040516020016124e7929190614bbe565b6040516020818303038152906040529392505050565b610191546001600160a01b03166324d7806c336040516001600160e01b031960e084901b1681526001600160a01b039091166004820152602401602060405180830381865afa158015612554573d6000803e3d6000fd5b505050506040513d601f19601f820116820180604052508101906125789190614a98565b6125c05760405162461bcd60e51b81526020600482015260256024820152600080516020614cf2833981519152604482015264636365737360d81b6064820152608401610c0c565b6001600160a01b03811661263c5760405162461bcd60e51b815260206004820152602360248201527f4554533a2041636365737320636f6e74726f6c732063616e6e6f74206265207a60448201527f65726f00000000000000000000000000000000000000000000000000000000006064820152608401610c0c565b61019180546001600160a01b0319166001600160a01b0383169081179091556040519081527f2f55f724ae3134584dfdd86a4ee1e090635ff9913722b5fe06e064cc7e3ed8b490602001610c47565b6000612697600161395f565b905080156126af576000805461ff0019166101001790555b6127236040518060400160405280601481526020017f457468657265756d2054616720536572766963650000000000000000000000008152506040518060400160405280600481526020017f4354414700000000000000000000000000000000000000000000000000000000815250613a93565b61272b613b08565b612733613b7b565b61019180546001600160a01b038089166001600160a01b03199283161790925561019580549288169290911691909117905561019284905561019383905561019482905580156127bd576000805461ff0019169055604051600181527f7f26b83ff96e1f2b6a682f133852f6798a09c465da95921460cefb38474024989060200160405180910390a15b505050505050565b6000818152606760205260408120546001600160a01b03161515610b47565b6000818152606760205260409020546001600160a01b03166128485760405162461bcd60e51b815260206004820152601360248201527f4554533a2043544147206e6f7420666f756e64000000000000000000000000006044820152606401610c0c565b610195546001600160a01b031661285e826118f9565b6001600160a01b031614156128b55760405162461bcd60e51b815260206004820152601b60248201527f4554533a2043544147206f776e656420627920706c6174666f726d00000000006044820152606401610c0c565b600081815261019760205260409020546101945442906128d6908390613be6565b106129485760405162461bcd60e51b8152602060048201526024808201527f4554533a2043544147206e6f7420656c696769626c6520666f7220726563796360448201527f6c696e67000000000000000000000000000000000000000000000000000000006064820152608401610c0c565b612967612954836118f9565b610195546001600160a01b031684612cdc565b604051339083907f0f842a1659c86d6e422461459fb2ab6fa8af886fd1cf9978a73dd299f23ccc7a90600090a35050565b6000806129a48361349c565b80516020909101209392505050565b610191546001600160a01b03166324d7806c336040516001600160e01b031960e084901b1681526001600160a01b039091166004820152602401602060405180830381865afa158015612a0a573d6000803e3d6000fd5b505050506040513d601f19601f82011682018060405250810190612a2e9190614a98565b612a765760405162461bcd60e51b81526020600482015260256024820152600080516020614cf2833981519152604482015264636365737360d81b6064820152608401610c0c565b6101948190556040518181527f0746578f4b3113723b37a909bdaea17321cc8c4a738f0bbcbf72ea2e6142c4c290602001610c47565b610191546001600160a01b03166324d7806c336040516001600160e01b031960e084901b1681526001600160a01b039091166004820152602401602060405180830381865afa158015612b03573d6000803e3d6000fd5b505050506040513d601f19601f82011682018060405250810190612b279190614a98565b612b6f5760405162461bcd60e51b81526020600482015260256024820152600080516020614cf2833981519152604482015264636365737360d81b6064820152608401610c0c565b611d78613bf2565b600081815260696020526040902080546001600160a01b0319166001600160a01b0384169081179091558190612bac826118f9565b6001600160a01b03167f8c5be1e5ebec7d5bd14f71427d1e84f3dd0314c0f7b2291e5b200ac8c7c3b92560405160405180910390a45050565b6000818152606760205260408120546001600160a01b0316612c5e5760405162461bcd60e51b815260206004820152602c60248201527f4552433732313a206f70657261746f7220717565727920666f72206e6f6e657860448201526b34b9ba32b73a103a37b5b2b760a11b6064820152608401610c0c565b6000612c69836118f9565b9050806001600160a01b0316846001600160a01b03161480612cb057506001600160a01b038082166000908152606a602090815260408083209388168352929052205460ff165b80612cd45750836001600160a01b0316612cc984610ce4565b6001600160a01b0316145b949350505050565b826001600160a01b0316612cef826118f9565b6001600160a01b031614612d6b5760405162461bcd60e51b815260206004820152602560248201527f4552433732313a207472616e736665722066726f6d20696e636f72726563742060448201527f6f776e65720000000000000000000000000000000000000000000000000000006064820152608401610c0c565b6001600160a01b038216612de65760405162461bcd60e51b8152602060048201526024808201527f4552433732313a207472616e7366657220746f20746865207a65726f2061646460448201527f72657373000000000000000000000000000000000000000000000000000000006064820152608401610c0c565b612df1838383613c75565b612dfc600082612b77565b6001600160a01b0383166000908152606860205260408120805460019290612e25908490614bed565b90915550506001600160a01b0382166000908152606860205260408120805460019290612e53908490614c04565b909155505060008181526067602052604080822080546001600160a01b0319166001600160a01b0386811691821790925591518493918716917fddf252ad1be2c89b69c2b068fc378daa952ba7f163c4a11628f55a4df523b3ef91a4610ea6838383613d4c565b610191546001600160a01b03166324d7806c336040516001600160e01b031960e084901b1681526001600160a01b039091166004820152602401602060405180830381865afa158015612f11573d6000803e3d6000fd5b505050506040513d601f19601f82011682018060405250810190612f359190614a98565b6112d55760405162461bcd60e51b81526020600482015260256024820152600080516020614cf2833981519152604482015264636365737360d81b6064820152608401610c0c565b7f4910fdfa16fed3260ed0e7147f7cc6da11a60208b5b9406d12a635614ffd91435460ff1615612fb057610ea683613d87565b826001600160a01b03166352d1902d6040518163ffffffff1660e01b8152600401602060405180830381865afa92505050801561300a575060408051601f3d908101601f1916820190925261300791810190614c1c565b60015b61307c5760405162461bcd60e51b815260206004820152602e60248201527f45524331393637557067726164653a206e657720696d706c656d656e7461746960448201527f6f6e206973206e6f7420555550530000000000000000000000000000000000006064820152608401610c0c565b7f360894a13ba1a3210667c828492db98dca3e2076cc3735a920a3ca505d382bbc81146131115760405162461bcd60e51b815260206004820152602960248201527f45524331393637557067726164653a20756e737570706f727465642070726f7860448201527f6961626c655555494400000000000000000000000000000000000000000000006064820152608401610c0c565b50610ea6838383613e45565b6000613128826118f9565b905061313681600084613c75565b613141600083612b77565b6001600160a01b038116600090815260686020526040812080546001929061316a908490614bed565b909155505060008281526067602052604080822080546001600160a01b0319169055518391906001600160a01b038416907fddf252ad1be2c89b69c2b068fc378daa952ba7f163c4a11628f55a4df523b3ef908390a461152881600084613d4c565b6000806131d883612998565b6000818152606760205260409020549091506001600160a01b0316156132405760405162461bcd60e51b815260206004820152601c60248201527f4552433732313a20746f6b656e20616c7265616479206d696e746564000000006044820152606401610c0c565b61019254835184911180159061325a575061019354815111155b6132cc5760405162461bcd60e51b815260206004820152603d60248201527f496e76616c696420666f726d61743a2074616720646f6573206e6f74206d656560448201527f74206d696e2f6d6178206c656e67746820726571756972656d656e74730000006064820152608401610c0c565b806000815181106132df576132df614af0565b6020910101516001600160f81b031916602360f81b146133415760405162461bcd60e51b815260206004820152601560248201527f546167206d7573742073746172742077697468202300000000000000000000006044820152606401610c0c565b60015b815181101561347957600082828151811061336157613361614af0565b01602001516001600160f81b03191690507f20000000000000000000000000000000000000000000000000000000000000008114156134085760405162461bcd60e51b815260206004820152602760248201527f537061636520666f756e643a20746167206d6179206e6f7420636f6e7461696e60448201527f20737061636573000000000000000000000000000000000000000000000000006064820152608401610c0c565b602360f81b6001600160f81b0319821614156134665760405162461bcd60e51b815260206004820152601a60248201527f546167206d6179206e6f7420636f6e7461696e207072656669780000000000006044820152606401610c0c565b508061347181614b1c565b915050613344565b50909392505050565b611528828260405180602001604052806000815250613e6a565b606060008290506000815167ffffffffffffffff8111156134bf576134bf61473d565b6040519080825280601f01601f1916602001820160405280156134e9576020820181803683370190505b50905060005b825181101561360b57604160f81b83828151811061350f5761350f614af0565b01602001516001600160f81b031916108015906135505750605a60f81b83828151811061353e5761353e614af0565b01602001516001600160f81b03191611155b156135b25782818151811061356757613567614af0565b602001015160f81c60f81b60f81c60206135819190614c35565b60f81b82828151811061359657613596614af0565b60200101906001600160f81b031916908160001a9053506135f9565b8281815181106135c4576135c4614af0565b602001015160f81c60f81b8282815181106135e1576135e1614af0565b60200101906001600160f81b031916908160001a9053505b8061360381614b1c565b9150506134ef565b509392505050565b60975460ff16156136665760405162461bcd60e51b815260206004820152601060248201527f5061757361626c653a20706175736564000000000000000000000000000000006044820152606401610c0c565b6097805460ff191660011790557f62e78cea01bee320cd4e420270b5ea74000d11b0c9f74754ebdbfc544b05a25861369b3390565b6040516001600160a01b03909116815260200160405180910390a1565b816001600160a01b0316836001600160a01b0316141561371a5760405162461bcd60e51b815260206004820152601960248201527f4552433732313a20617070726f766520746f2063616c6c6572000000000000006044820152606401610c0c565b6001600160a01b038381166000818152606a6020908152604080832094871680845294825291829020805460ff191686151590811790915591519182527f17307eab39ab6107e8899845ad3d59bd9653f200f220920489ca2b5937696c31910160405180910390a3505050565b613792848484612cdc565b61379e84848484613ee8565b6111565760405162461bcd60e51b815260206004820152603260248201527f4552433732313a207472616e7366657220746f206e6f6e20455243373231526560448201527131b2b4bb32b91034b6b83632b6b2b73a32b960711b6064820152608401610c0c565b6000828152610197602052604080822083905551339184917faa0c0591942aff60e66bde156168c9a47ef843534b433bbaa33e62d1410f4f2c9190a35050565b60608161388557505060408051808201909152600181527f3000000000000000000000000000000000000000000000000000000000000000602082015290565b8160005b81156138af578061389981614b1c565b91506138a89050600a83614c70565b9150613889565b60008167ffffffffffffffff8111156138ca576138ca61473d565b6040519080825280601f01601f1916602001820160405280156138f4576020820181803683370190505b5090505b8415612cd457613909600183614bed565b9150613916600a86614c84565b613921906030614c04565b60f81b81838151811061393657613936614af0565b60200101906001600160f81b031916908160001a905350613958600a86614c70565b94506138f8565b60008054610100900460ff16156139fc578160ff1660011480156139825750303b155b6139f45760405162461bcd60e51b815260206004820152602e60248201527f496e697469616c697a61626c653a20636f6e747261637420697320616c72656160448201527f647920696e697469616c697a65640000000000000000000000000000000000006064820152608401610c0c565b506000919050565b60005460ff808416911610613a795760405162461bcd60e51b815260206004820152602e60248201527f496e697469616c697a61626c653a20636f6e747261637420697320616c72656160448201527f647920696e697469616c697a65640000000000000000000000000000000000006064820152608401610c0c565b506000805460ff191660ff92909216919091179055600190565b600054610100900460ff16613afe5760405162461bcd60e51b815260206004820152602b60248201527f496e697469616c697a61626c653a20636f6e7472616374206973206e6f74206960448201526a6e697469616c697a696e6760a81b6064820152608401610c0c565b6115288282614031565b600054610100900460ff16613b735760405162461bcd60e51b815260206004820152602b60248201527f496e697469616c697a61626c653a20636f6e7472616374206973206e6f74206960448201526a6e697469616c697a696e6760a81b6064820152608401610c0c565b611d786140c3565b600054610100900460ff16611d785760405162461bcd60e51b815260206004820152602b60248201527f496e697469616c697a61626c653a20636f6e7472616374206973206e6f74206960448201526a6e697469616c697a696e6760a81b6064820152608401610c0c565b6000610ec88284614c04565b60975460ff16613c445760405162461bcd60e51b815260206004820152601460248201527f5061757361626c653a206e6f74207061757365640000000000000000000000006044820152606401610c0c565b6097805460ff191690557f5db9ee0a495bf2e6ff9c91a7834c1ba4fdd244a5e8aa4e537bd38aeae4b073aa3361369b565b60975460ff1615613cc85760405162461bcd60e51b815260206004820152601060248201527f5061757361626c653a20706175736564000000000000000000000000000000006044820152606401610c0c565b613cd383838361413a565b60975460ff1615610ea65760405162461bcd60e51b815260206004820152602b60248201527f4552433732315061757361626c653a20746f6b656e207472616e73666572207760448201527f68696c65207061757365640000000000000000000000000000000000000000006064820152608401610c0c565b6001600160a01b03821615610ea657610195546001600160a01b0383811691161415613d7d57610ea6816000613805565b610ea68142613805565b6001600160a01b0381163b613e045760405162461bcd60e51b815260206004820152602d60248201527f455243313936373a206e657720696d706c656d656e746174696f6e206973206e60448201527f6f74206120636f6e7472616374000000000000000000000000000000000000006064820152608401610c0c565b7f360894a13ba1a3210667c828492db98dca3e2076cc3735a920a3ca505d382bbc80546001600160a01b0319166001600160a01b0392909216919091179055565b613e4e8361413f565b600082511180613e5b5750805b15610ea657611156838361417f565b613e74838361428a565b613e816000848484613ee8565b610ea65760405162461bcd60e51b815260206004820152603260248201527f4552433732313a207472616e7366657220746f206e6f6e20455243373231526560448201527131b2b4bb32b91034b6b83632b6b2b73a32b960711b6064820152608401610c0c565b60006001600160a01b0384163b1561402657604051630a85bd0160e11b81526001600160a01b0385169063150b7a0290613f2c903390899088908890600401614c98565b6020604051808303816000875af1925050508015613f67575060408051601f3d908101601f19168201909252613f6491810190614cd4565b60015b61400c573d808015613f95576040519150601f19603f3d011682016040523d82523d6000602084013e613f9a565b606091505b5080516140045760405162461bcd60e51b815260206004820152603260248201527f4552433732313a207472616e7366657220746f206e6f6e20455243373231526560448201527131b2b4bb32b91034b6b83632b6b2b73a32b960711b6064820152608401610c0c565b805181602001fd5b6001600160e01b031916630a85bd0160e11b149050612cd4565b506001949350505050565b600054610100900460ff1661409c5760405162461bcd60e51b815260206004820152602b60248201527f496e697469616c697a61626c653a20636f6e7472616374206973206e6f74206960448201526a6e697469616c697a696e6760a81b6064820152608401610c0c565b81516140af906065906020850190614419565b508051610ea6906066906020840190614419565b600054610100900460ff1661412e5760405162461bcd60e51b815260206004820152602b60248201527f496e697469616c697a61626c653a20636f6e7472616374206973206e6f74206960448201526a6e697469616c697a696e6760a81b6064820152608401610c0c565b6097805460ff19169055565b613cd3565b61414881613d87565b6040516001600160a01b038216907fbc7cd75a20ee27fd9adebab32041f755214dbc6bffa90cc0225b39da2e5c2d3b90600090a250565b60606001600160a01b0383163b6141fe5760405162461bcd60e51b815260206004820152602660248201527f416464726573733a2064656c65676174652063616c6c20746f206e6f6e2d636f60448201527f6e747261637400000000000000000000000000000000000000000000000000006064820152608401610c0c565b600080846001600160a01b0316846040516142199190614b37565b600060405180830381855af49150503d8060008114614254576040519150601f19603f3d011682016040523d82523d6000602084013e614259565b606091505b50915091506142818282604051806060016040528060278152602001614d12602791396143e0565b95945050505050565b6001600160a01b0382166142e05760405162461bcd60e51b815260206004820181905260248201527f4552433732313a206d696e7420746f20746865207a65726f20616464726573736044820152606401610c0c565b6000818152606760205260409020546001600160a01b0316156143455760405162461bcd60e51b815260206004820152601c60248201527f4552433732313a20746f6b656e20616c7265616479206d696e746564000000006044820152606401610c0c565b61435160008383613c75565b6001600160a01b038216600090815260686020526040812080546001929061437a908490614c04565b909155505060008181526067602052604080822080546001600160a01b0319166001600160a01b03861690811790915590518392907fddf252ad1be2c89b69c2b068fc378daa952ba7f163c4a11628f55a4df523b3ef908290a461152860008383613d4c565b606083156143ef575081610ec8565b8251156143ff5782518084602001fd5b8160405162461bcd60e51b8152600401610c0c9190614556565b82805461442590614ab5565b90600052602060002090601f016020900481019282614447576000855561448d565b82601f1061446057805160ff191683800117855561448d565b8280016001018555821561448d579182015b8281111561448d578251825591602001919060010190614472565b5061449992915061449d565b5090565b5b80821115614499576000815560010161449e565b6001600160e01b0319811681146112d557600080fd5b6000602082840312156144da57600080fd5b8135610ec8816144b2565b6000602082840312156144f757600080fd5b5035919050565b60005b83811015614519578181015183820152602001614501565b838111156111565750506000910152565b600081518084526145428160208601602086016144fe565b601f01601f19169290920160200192915050565b602081526000610ec8602083018461452a565b6001600160a01b03811681146112d557600080fd5b6000806040838503121561459157600080fd5b823561459c81614569565b946020939093013593505050565b60008083601f8401126145bc57600080fd5b50813567ffffffffffffffff8111156145d457600080fd5b6020830191508360208285010111156145ec57600080fd5b9250929050565b6000806020838503121561460657600080fd5b823567ffffffffffffffff81111561461d57600080fd5b614629858286016145aa565b90969095509350505050565b60008060006060848603121561464a57600080fd5b833561465581614569565b9250602084013561466581614569565b929592945050506040919091013590565b60008083601f84011261468857600080fd5b50813567ffffffffffffffff8111156146a057600080fd5b6020830191508360208260051b85010111156145ec57600080fd5b80151581146112d557600080fd5b6000806000604084860312156146de57600080fd5b833567ffffffffffffffff8111156146f557600080fd5b61470186828701614676565b9094509250506020840135614715816146bb565b809150509250925092565b60006020828403121561473257600080fd5b8135610ec881614569565b634e487b7160e01b600052604160045260246000fd5b600067ffffffffffffffff8084111561476e5761476e61473d565b604051601f8501601f19908116603f011681019082821181831017156147965761479661473d565b816040528093508581528686860111156147af57600080fd5b858560208301376000602087830101525050509392505050565b600082601f8301126147da57600080fd5b610ec883833560208501614753565b600080604083850312156147fc57600080fd5b823561480781614569565b9150602083013567ffffffffffffffff81111561482357600080fd5b61482f858286016147c9565b9150509250929050565b60008060006040848603121561484e57600080fd5b833567ffffffffffffffff81111561486557600080fd5b614871868287016145aa565b909450925050602084013561471581614569565b6020815260006001600160a01b0380845116602084015280602085015116604084015250604083015160a060608401526148c260c084018261452a565b90506060840151151560808401526080840151151560a08401528091505092915050565b600080604083850312156148f957600080fd5b823561490481614569565b91506020830135614914816146bb565b809150509250929050565b60006001600160a01b03808816835280871660208401525060a0604083015261494b60a083018661452a565b9315156060830152509015156080909101529392505050565b6000806000806080858703121561497a57600080fd5b843561498581614569565b9350602085013561499581614569565b925060408501359150606085013567ffffffffffffffff8111156149b857600080fd5b6149c4878288016147c9565b91505092959194509250565b6000602082840312156149e257600080fd5b813567ffffffffffffffff8111156149f957600080fd5b8201601f81018413614a0a57600080fd5b612cd484823560208401614753565b600080600080600060a08688031215614a3157600080fd5b8535614a3c81614569565b94506020860135614a4c81614569565b94979496505050506040830135926060810135926080909101359150565b60008060408385031215614a7d57600080fd5b8235614a8881614569565b9150602083013561491481614569565b600060208284031215614aaa57600080fd5b8151610ec8816146bb565b600181811c90821680614ac957607f821691505b60208210811415614aea57634e487b7160e01b600052602260045260246000fd5b50919050565b634e487b7160e01b600052603260045260246000fd5b634e487b7160e01b600052601160045260246000fd5b6000600019821415614b3057614b30614b06565b5060010190565b60008251614b498184602087016144fe565b9190910192915050565b6000808335601e19843603018112614b6a57600080fd5b83018035915067ffffffffffffffff821115614b8557600080fd5b6020019150368190038213156145ec57600080fd5b604081526000614bad604083018561452a565b905082151560208301529392505050565b60008351614bd08184602088016144fe565b835190830190614be48183602088016144fe565b01949350505050565b600082821015614bff57614bff614b06565b500390565b60008219821115614c1757614c17614b06565b500190565b600060208284031215614c2e57600080fd5b5051919050565b600060ff821660ff84168060ff03821115614c5257614c52614b06565b019392505050565b634e487b7160e01b600052601260045260246000fd5b600082614c7f57614c7f614c5a565b500490565b600082614c9357614c93614c5a565b500690565b60006001600160a01b03808716835280861660208401525083604083015260806060830152614cca608083018461452a565b9695505050505050565b600060208284031215614ce657600080fd5b8151610ec8816144b256fe43616c6c6572206d75737420686176652061646d696e6973747261746f722061416464726573733a206c6f772d6c6576656c2064656c65676174652063616c6c206661696c6564a2646970667358221220438d389bbe4ca04d67ddbd0ee1e92b9d3b5c353ee1ea3e274b7900796db8409c64736f6c634300080c0033",
  "linkReferences": {},
  "deployedLinkReferences": {}
}